{
	"GGWStake.sol": {
		"GGWStake": {
			"abi": [
				{
					"inputs": [
						{
							"internalType": "address",
							"name": "_stakingToken",
							"type": "address"
						},
						{
							"internalType": "uint256",
							"name": "_globalRateBps",
							"type": "uint256"
						}
					],
					"stateMutability": "nonpayable",
					"type": "constructor"
				},
				{
					"inputs": [],
					"name": "ReentrancyGuardReentrantCall",
					"type": "error"
				},
				{
					"anonymous": false,
					"inputs": [
						{
							"indexed": true,
							"internalType": "address",
							"name": "user",
							"type": "address"
						},
						{
							"indexed": false,
							"internalType": "uint256",
							"name": "depositId",
							"type": "uint256"
						},
						{
							"indexed": false,
							"internalType": "uint256",
							"name": "amount",
							"type": "uint256"
						},
						{
							"indexed": false,
							"internalType": "uint256",
							"name": "lockMonths",
							"type": "uint256"
						},
						{
							"indexed": false,
							"internalType": "uint256",
							"name": "unlockMonthIndex",
							"type": "uint256"
						}
					],
					"name": "DepositCreated",
					"type": "event"
				},
				{
					"anonymous": false,
					"inputs": [
						{
							"indexed": false,
							"internalType": "uint256",
							"name": "rateBps",
							"type": "uint256"
						}
					],
					"name": "GlobalRateUpdated",
					"type": "event"
				},
				{
					"anonymous": false,
					"inputs": [
						{
							"indexed": true,
							"internalType": "uint256",
							"name": "monthIndex",
							"type": "uint256"
						},
						{
							"indexed": false,
							"internalType": "uint256",
							"name": "start",
							"type": "uint256"
						},
						{
							"indexed": false,
							"internalType": "uint256",
							"name": "end",
							"type": "uint256"
						},
						{
							"indexed": false,
							"internalType": "uint256",
							"name": "rateBps",
							"type": "uint256"
						}
					],
					"name": "MonthAdded",
					"type": "event"
				},
				{
					"anonymous": false,
					"inputs": [
						{
							"indexed": false,
							"internalType": "uint256",
							"name": "lengthAfterDeletion",
							"type": "uint256"
						}
					],
					"name": "MonthDeleted",
					"type": "event"
				},
				{
					"anonymous": false,
					"inputs": [
						{
							"indexed": true,
							"internalType": "uint256",
							"name": "monthIndex",
							"type": "uint256"
						},
						{
							"indexed": false,
							"internalType": "uint256",
							"name": "start",
							"type": "uint256"
						},
						{
							"indexed": false,
							"internalType": "uint256",
							"name": "end",
							"type": "uint256"
						},
						{
							"indexed": false,
							"internalType": "uint256",
							"name": "rateBps",
							"type": "uint256"
						}
					],
					"name": "MonthEdited",
					"type": "event"
				},
				{
					"anonymous": false,
					"inputs": [
						{
							"indexed": false,
							"internalType": "uint256",
							"name": "startIndex",
							"type": "uint256"
						},
						{
							"indexed": false,
							"internalType": "uint256",
							"name": "endIndex",
							"type": "uint256"
						}
					],
					"name": "MonthsBatchAdded",
					"type": "event"
				},
				{
					"anonymous": false,
					"inputs": [
						{
							"indexed": true,
							"internalType": "address",
							"name": "user",
							"type": "address"
						},
						{
							"indexed": false,
							"internalType": "uint256",
							"name": "depositId",
							"type": "uint256"
						},
						{
							"indexed": false,
							"internalType": "uint256",
							"name": "amount",
							"type": "uint256"
						}
					],
					"name": "PrincipalWithdrawn",
					"type": "event"
				},
				{
					"anonymous": false,
					"inputs": [
						{
							"indexed": true,
							"internalType": "address",
							"name": "user",
							"type": "address"
						},
						{
							"indexed": false,
							"internalType": "uint256",
							"name": "depositId",
							"type": "uint256"
						},
						{
							"indexed": false,
							"internalType": "uint256",
							"name": "reward",
							"type": "uint256"
						}
					],
					"name": "RewardsWithdrawn",
					"type": "event"
				},
				{
					"inputs": [
						{
							"internalType": "uint256",
							"name": "start",
							"type": "uint256"
						},
						{
							"internalType": "uint256",
							"name": "end",
							"type": "uint256"
						},
						{
							"internalType": "uint256",
							"name": "rateBps",
							"type": "uint256"
						}
					],
					"name": "addMonth",
					"outputs": [],
					"stateMutability": "nonpayable",
					"type": "function"
				},
				{
					"inputs": [
						{
							"internalType": "uint256[]",
							"name": "starts",
							"type": "uint256[]"
						},
						{
							"internalType": "uint256[]",
							"name": "ends",
							"type": "uint256[]"
						},
						{
							"internalType": "uint256[]",
							"name": "rates",
							"type": "uint256[]"
						}
					],
					"name": "addMonthsBatch",
					"outputs": [],
					"stateMutability": "nonpayable",
					"type": "function"
				},
				{
					"inputs": [
						{
							"internalType": "uint256",
							"name": "",
							"type": "uint256"
						}
					],
					"name": "allUsers",
					"outputs": [
						{
							"internalType": "address",
							"name": "",
							"type": "address"
						}
					],
					"stateMutability": "view",
					"type": "function"
				},
				{
					"inputs": [
						{
							"internalType": "uint256",
							"name": "depositId",
							"type": "uint256"
						}
					],
					"name": "calculatePendingRewardForDeposit",
					"outputs": [
						{
							"internalType": "uint256",
							"name": "",
							"type": "uint256"
						}
					],
					"stateMutability": "view",
					"type": "function"
				},
				{
					"inputs": [
						{
							"internalType": "uint256",
							"name": "amount",
							"type": "uint256"
						},
						{
							"internalType": "uint256",
							"name": "startMonthIdx",
							"type": "uint256"
						},
						{
							"internalType": "uint256",
							"name": "lockMonths",
							"type": "uint256"
						},
						{
							"internalType": "uint256",
							"name": "depositStart",
							"type": "uint256"
						}
					],
					"name": "calculateReward",
					"outputs": [
						{
							"internalType": "uint256",
							"name": "",
							"type": "uint256"
						}
					],
					"stateMutability": "view",
					"type": "function"
				},
				{
					"inputs": [
						{
							"internalType": "uint256",
							"name": "amount",
							"type": "uint256"
						},
						{
							"internalType": "uint256",
							"name": "lockMonths",
							"type": "uint256"
						},
						{
							"internalType": "uint256",
							"name": "depositStart",
							"type": "uint256"
						}
					],
					"name": "calculateRewardByMonths",
					"outputs": [
						{
							"internalType": "uint256",
							"name": "",
							"type": "uint256"
						}
					],
					"stateMutability": "view",
					"type": "function"
				},
				{
					"inputs": [
						{
							"internalType": "uint256",
							"name": "amount",
							"type": "uint256"
						},
						{
							"internalType": "uint256",
							"name": "lockMonths",
							"type": "uint256"
						}
					],
					"name": "createDeposit",
					"outputs": [],
					"stateMutability": "nonpayable",
					"type": "function"
				},
				{
					"inputs": [],
					"name": "deleteLastMonth",
					"outputs": [],
					"stateMutability": "nonpayable",
					"type": "function"
				},
				{
					"inputs": [
						{
							"internalType": "uint256",
							"name": "",
							"type": "uint256"
						}
					],
					"name": "deposits",
					"outputs": [
						{
							"internalType": "address",
							"name": "owner",
							"type": "address"
						},
						{
							"internalType": "uint256",
							"name": "amount",
							"type": "uint256"
						},
						{
							"internalType": "uint256",
							"name": "monthIndex",
							"type": "uint256"
						},
						{
							"internalType": "uint256",
							"name": "depositStart",
							"type": "uint256"
						},
						{
							"internalType": "uint256",
							"name": "depositClosed",
							"type": "uint256"
						},
						{
							"internalType": "uint256",
							"name": "unlockMonthIndex",
							"type": "uint256"
						},
						{
							"internalType": "uint256",
							"name": "lastAccruedMonthIdx",
							"type": "uint256"
						},
						{
							"internalType": "bool",
							"name": "active",
							"type": "bool"
						}
					],
					"stateMutability": "view",
					"type": "function"
				},
				{
					"inputs": [],
					"name": "depositsAmount",
					"outputs": [
						{
							"internalType": "uint256",
							"name": "",
							"type": "uint256"
						}
					],
					"stateMutability": "view",
					"type": "function"
				},
				{
					"inputs": [
						{
							"internalType": "uint256",
							"name": "idx",
							"type": "uint256"
						},
						{
							"internalType": "uint256",
							"name": "start",
							"type": "uint256"
						},
						{
							"internalType": "uint256",
							"name": "end",
							"type": "uint256"
						},
						{
							"internalType": "uint256",
							"name": "rateBps",
							"type": "uint256"
						}
					],
					"name": "editMonth",
					"outputs": [],
					"stateMutability": "nonpayable",
					"type": "function"
				},
				{
					"inputs": [],
					"name": "getAllUsers",
					"outputs": [
						{
							"internalType": "address[]",
							"name": "",
							"type": "address[]"
						}
					],
					"stateMutability": "view",
					"type": "function"
				},
				{
					"inputs": [
						{
							"internalType": "uint256",
							"name": "depositId",
							"type": "uint256"
						}
					],
					"name": "getDepositById",
					"outputs": [
						{
							"components": [
								{
									"internalType": "address",
									"name": "owner",
									"type": "address"
								},
								{
									"internalType": "uint256",
									"name": "amount",
									"type": "uint256"
								},
								{
									"internalType": "uint256",
									"name": "monthIndex",
									"type": "uint256"
								},
								{
									"internalType": "uint256",
									"name": "depositStart",
									"type": "uint256"
								},
								{
									"internalType": "uint256",
									"name": "depositClosed",
									"type": "uint256"
								},
								{
									"internalType": "uint256",
									"name": "unlockMonthIndex",
									"type": "uint256"
								},
								{
									"internalType": "uint256",
									"name": "lastAccruedMonthIdx",
									"type": "uint256"
								},
								{
									"internalType": "bool",
									"name": "active",
									"type": "bool"
								}
							],
							"internalType": "struct GGWStake.Deposit",
							"name": "",
							"type": "tuple"
						}
					],
					"stateMutability": "view",
					"type": "function"
				},
				{
					"inputs": [],
					"name": "getTotalDeposits",
					"outputs": [
						{
							"internalType": "uint256",
							"name": "",
							"type": "uint256"
						}
					],
					"stateMutability": "view",
					"type": "function"
				},
				{
					"inputs": [],
					"name": "getTotalUsers",
					"outputs": [
						{
							"internalType": "uint256",
							"name": "",
							"type": "uint256"
						}
					],
					"stateMutability": "view",
					"type": "function"
				},
				{
					"inputs": [
						{
							"internalType": "address",
							"name": "user",
							"type": "address"
						}
					],
					"name": "getUserDeposits",
					"outputs": [
						{
							"internalType": "uint256[]",
							"name": "",
							"type": "uint256[]"
						}
					],
					"stateMutability": "view",
					"type": "function"
				},
				{
					"inputs": [],
					"name": "globalRateBps",
					"outputs": [
						{
							"internalType": "uint256",
							"name": "",
							"type": "uint256"
						}
					],
					"stateMutability": "view",
					"type": "function"
				},
				{
					"inputs": [
						{
							"internalType": "address",
							"name": "",
							"type": "address"
						}
					],
					"name": "isUser",
					"outputs": [
						{
							"internalType": "bool",
							"name": "",
							"type": "bool"
						}
					],
					"stateMutability": "view",
					"type": "function"
				},
				{
					"inputs": [],
					"name": "lastKnownMonthIndex",
					"outputs": [
						{
							"internalType": "uint256",
							"name": "",
							"type": "uint256"
						}
					],
					"stateMutability": "view",
					"type": "function"
				},
				{
					"inputs": [],
					"name": "minLockAmount",
					"outputs": [
						{
							"internalType": "uint256",
							"name": "",
							"type": "uint256"
						}
					],
					"stateMutability": "view",
					"type": "function"
				},
				{
					"inputs": [],
					"name": "minLockMonths",
					"outputs": [
						{
							"internalType": "uint256",
							"name": "",
							"type": "uint256"
						}
					],
					"stateMutability": "view",
					"type": "function"
				},
				{
					"inputs": [
						{
							"internalType": "uint256",
							"name": "",
							"type": "uint256"
						}
					],
					"name": "monthDepositsAmount",
					"outputs": [
						{
							"internalType": "uint256",
							"name": "",
							"type": "uint256"
						}
					],
					"stateMutability": "view",
					"type": "function"
				},
				{
					"inputs": [
						{
							"internalType": "uint256",
							"name": "",
							"type": "uint256"
						}
					],
					"name": "monthDepositsCount",
					"outputs": [
						{
							"internalType": "uint256",
							"name": "",
							"type": "uint256"
						}
					],
					"stateMutability": "view",
					"type": "function"
				},
				{
					"inputs": [
						{
							"internalType": "uint256",
							"name": "",
							"type": "uint256"
						}
					],
					"name": "months",
					"outputs": [
						{
							"internalType": "uint256",
							"name": "start",
							"type": "uint256"
						},
						{
							"internalType": "uint256",
							"name": "end",
							"type": "uint256"
						},
						{
							"internalType": "uint256",
							"name": "rateBps",
							"type": "uint256"
						}
					],
					"stateMutability": "view",
					"type": "function"
				},
				{
					"inputs": [],
					"name": "openedDeposits",
					"outputs": [
						{
							"internalType": "uint256",
							"name": "",
							"type": "uint256"
						}
					],
					"stateMutability": "view",
					"type": "function"
				},
				{
					"inputs": [],
					"name": "owner",
					"outputs": [
						{
							"internalType": "address",
							"name": "",
							"type": "address"
						}
					],
					"stateMutability": "view",
					"type": "function"
				},
				{
					"inputs": [
						{
							"internalType": "address",
							"name": "token",
							"type": "address"
						},
						{
							"internalType": "uint256",
							"name": "amount",
							"type": "uint256"
						}
					],
					"name": "recoverToken",
					"outputs": [],
					"stateMutability": "nonpayable",
					"type": "function"
				},
				{
					"inputs": [
						{
							"internalType": "uint256",
							"name": "",
							"type": "uint256"
						}
					],
					"name": "rewardsByMonths",
					"outputs": [
						{
							"internalType": "uint256",
							"name": "",
							"type": "uint256"
						}
					],
					"stateMutability": "view",
					"type": "function"
				},
				{
					"inputs": [
						{
							"internalType": "uint256",
							"name": "_rateBps",
							"type": "uint256"
						}
					],
					"name": "setGlobalRateBps",
					"outputs": [],
					"stateMutability": "nonpayable",
					"type": "function"
				},
				{
					"inputs": [
						{
							"internalType": "uint256",
							"name": "newMinLockAmount",
							"type": "uint256"
						}
					],
					"name": "setMinLockAmount",
					"outputs": [],
					"stateMutability": "nonpayable",
					"type": "function"
				},
				{
					"inputs": [
						{
							"internalType": "uint256",
							"name": "newMinLockMonths",
							"type": "uint256"
						}
					],
					"name": "setMinLockMonths",
					"outputs": [],
					"stateMutability": "nonpayable",
					"type": "function"
				},
				{
					"inputs": [],
					"name": "stakingToken",
					"outputs": [
						{
							"internalType": "contract IERC20",
							"name": "",
							"type": "address"
						}
					],
					"stateMutability": "view",
					"type": "function"
				},
				{
					"inputs": [
						{
							"internalType": "address",
							"name": "",
							"type": "address"
						},
						{
							"internalType": "uint256",
							"name": "",
							"type": "uint256"
						}
					],
					"name": "userDeposits",
					"outputs": [
						{
							"internalType": "uint256",
							"name": "",
							"type": "uint256"
						}
					],
					"stateMutability": "view",
					"type": "function"
				},
				{
					"inputs": [
						{
							"internalType": "uint256",
							"name": "depositId",
							"type": "uint256"
						}
					],
					"name": "withdrawPrincipalAndRewards",
					"outputs": [],
					"stateMutability": "nonpayable",
					"type": "function"
				},
				{
					"inputs": [
						{
							"internalType": "uint256",
							"name": "depositId",
							"type": "uint256"
						}
					],
					"name": "withdrawRewardsOnly",
					"outputs": [],
					"stateMutability": "nonpayable",
					"type": "function"
				}
			],
			"devdoc": {
				"errors": {
					"ReentrancyGuardReentrantCall()": [
						{
							"details": "Unauthorized reentrant call."
						}
					]
				},
				"kind": "dev",
				"methods": {},
				"version": 1
			},
			"evm": {
				"assembly": "    /* \"GGWStake.sol\":182:17048  contract GGWStake is ReentrancyGuard {... */\n  mstore(0x40, 0xa0)\n    /* \"GGWStake.sol\":1097:1098  0 */\n  0x00\n    /* \"GGWStake.sol\":1060:1098  uint256 public lastKnownMonthIndex = 0 */\n  0x06\n  sstore\n    /* \"GGWStake.sol\":4685:4686  1 */\n  0x01\n    /* \"GGWStake.sol\":4654:4686  uint256 public minLockMonths = 1 */\n  0x0e\n  sstore\n    /* \"GGWStake.sol\":4724:4731  1 ether */\n  0x0de0b6b3a7640000\n    /* \"GGWStake.sol\":4693:4731  uint256 public minLockAmount = 1 ether */\n  0x0f\n  sstore\n    /* \"GGWStake.sol\":1478:1783  constructor(address _stakingToken, uint256 _globalRateBps) {... */\n  callvalue\n  dup1\n  iszero\n  tag_1\n  jumpi\n  revert(0x00, 0x00)\ntag_1:\n  pop\n  mload(0x40)\n  sub(codesize, bytecodeSize)\n  dup1\n  bytecodeSize\n  dup4\n  codecopy\n  dup2\n  dup2\n  add\n  0x40\n  mstore\n  dup2\n  add\n  swap1\n  tag_2\n  swap2\n  swap1\n  tag_3\n  jump\t// in\ntag_2:\n    /* \"@openzeppelin/contracts/utils/ReentrancyGuard.sol\":1857:1858  1 */\n  0x01\n    /* \"@openzeppelin/contracts/utils/ReentrancyGuard.sol\":2061:2068  _status */\n  0x00\n    /* \"@openzeppelin/contracts/utils/ReentrancyGuard.sol\":2061:2082  _status = NOT_ENTERED */\n  dup2\n  swap1\n  sstore\n  pop\n    /* \"GGWStake.sol\":1581:1582  0 */\n  0x00\n    /* \"GGWStake.sol\":1556:1583  _stakingToken != address(0) */\n  0xffffffffffffffffffffffffffffffffffffffff\n  and\n    /* \"GGWStake.sol\":1556:1569  _stakingToken */\n  dup3\n    /* \"GGWStake.sol\":1556:1583  _stakingToken != address(0) */\n  0xffffffffffffffffffffffffffffffffffffffff\n  and\n  sub\n    /* \"GGWStake.sol\":1548:1599  require(_stakingToken != address(0), \"Token: zero\") */\n  tag_8\n  jumpi\n  mload(0x40)\n  0x08c379a000000000000000000000000000000000000000000000000000000000\n  dup2\n  mstore\n  0x04\n  add\n  tag_9\n  swap1\n  tag_10\n  jump\t// in\ntag_9:\n  mload(0x40)\n  dup1\n  swap2\n  sub\n  swap1\n  revert\ntag_8:\n    /* \"GGWStake.sol\":1636:1642  10_000 */\n  0x2710\n    /* \"GGWStake.sol\":1618:1632  _globalRateBps */\n  dup2\n    /* \"GGWStake.sol\":1618:1642  _globalRateBps <= 10_000 */\n  gt\n  iszero\n    /* \"GGWStake.sol\":1610:1658  require(_globalRateBps <= 10_000, \"Rate > 100%\") */\n  tag_11\n  jumpi\n  mload(0x40)\n  0x08c379a000000000000000000000000000000000000000000000000000000000\n  dup2\n  mstore\n  0x04\n  add\n  tag_12\n  swap1\n  tag_13\n  jump\t// in\ntag_12:\n  mload(0x40)\n  dup1\n  swap2\n  sub\n  swap1\n  revert\ntag_11:\n    /* \"GGWStake.sol\":1677:1687  msg.sender */\n  caller\n    /* \"GGWStake.sol\":1669:1674  owner */\n  0x01\n  0x00\n    /* \"GGWStake.sol\":1669:1687  owner = msg.sender */\n  0x0100\n  exp\n  dup2\n  sload\n  dup2\n  0xffffffffffffffffffffffffffffffffffffffff\n  mul\n  not\n  and\n  swap1\n  dup4\n  0xffffffffffffffffffffffffffffffffffffffff\n  and\n  mul\n  or\n  swap1\n  sstore\n  pop\n    /* \"GGWStake.sol\":1720:1733  _stakingToken */\n  dup2\n    /* \"GGWStake.sol\":1698:1734  stakingToken = IERC20(_stakingToken) */\n  0xffffffffffffffffffffffffffffffffffffffff\n  and\n  0x80\n  dup2\n  0xffffffffffffffffffffffffffffffffffffffff\n  and\n  dup2\n  mstore\n  pop\n  pop\n    /* \"GGWStake.sol\":1761:1775  _globalRateBps */\n  dup1\n    /* \"GGWStake.sol\":1745:1758  globalRateBps */\n  0x02\n    /* \"GGWStake.sol\":1745:1775  globalRateBps = _globalRateBps */\n  dup2\n  swap1\n  sstore\n  pop\n    /* \"GGWStake.sol\":1478:1783  constructor(address _stakingToken, uint256 _globalRateBps) {... */\n  pop\n  pop\n    /* \"GGWStake.sol\":182:17048  contract GGWStake is ReentrancyGuard {... */\n  jump(tag_14)\n    /* \"#utility.yul\":88:205   */\ntag_16:\n    /* \"#utility.yul\":197:198   */\n  0x00\n    /* \"#utility.yul\":194:195   */\n  0x00\n    /* \"#utility.yul\":187:199   */\n  revert\n    /* \"#utility.yul\":334:460   */\ntag_18:\n    /* \"#utility.yul\":371:378   */\n  0x00\n    /* \"#utility.yul\":411:453   */\n  0xffffffffffffffffffffffffffffffffffffffff\n    /* \"#utility.yul\":404:409   */\n  dup3\n    /* \"#utility.yul\":400:454   */\n  and\n    /* \"#utility.yul\":389:454   */\n  swap1\n  pop\n    /* \"#utility.yul\":334:460   */\n  swap2\n  swap1\n  pop\n  jump\t// out\n    /* \"#utility.yul\":466:562   */\ntag_19:\n    /* \"#utility.yul\":503:510   */\n  0x00\n    /* \"#utility.yul\":532:556   */\n  tag_36\n    /* \"#utility.yul\":550:555   */\n  dup3\n    /* \"#utility.yul\":532:556   */\n  tag_18\n  jump\t// in\ntag_36:\n    /* \"#utility.yul\":521:556   */\n  swap1\n  pop\n    /* \"#utility.yul\":466:562   */\n  swap2\n  swap1\n  pop\n  jump\t// out\n    /* \"#utility.yul\":568:690   */\ntag_20:\n    /* \"#utility.yul\":641:665   */\n  tag_38\n    /* \"#utility.yul\":659:664   */\n  dup2\n    /* \"#utility.yul\":641:665   */\n  tag_19\n  jump\t// in\ntag_38:\n    /* \"#utility.yul\":634:639   */\n  dup2\n    /* \"#utility.yul\":631:666   */\n  eq\n    /* \"#utility.yul\":621:684   */\n  tag_39\n  jumpi\n    /* \"#utility.yul\":680:681   */\n  0x00\n    /* \"#utility.yul\":677:678   */\n  0x00\n    /* \"#utility.yul\":670:682   */\n  revert\n    /* \"#utility.yul\":621:684   */\ntag_39:\n    /* \"#utility.yul\":568:690   */\n  pop\n  jump\t// out\n    /* \"#utility.yul\":696:839   */\ntag_21:\n    /* \"#utility.yul\":753:758   */\n  0x00\n    /* \"#utility.yul\":784:790   */\n  dup2\n    /* \"#utility.yul\":778:791   */\n  mload\n    /* \"#utility.yul\":769:791   */\n  swap1\n  pop\n    /* \"#utility.yul\":800:833   */\n  tag_41\n    /* \"#utility.yul\":827:832   */\n  dup2\n    /* \"#utility.yul\":800:833   */\n  tag_20\n  jump\t// in\ntag_41:\n    /* \"#utility.yul\":696:839   */\n  swap3\n  swap2\n  pop\n  pop\n  jump\t// out\n    /* \"#utility.yul\":845:922   */\ntag_22:\n    /* \"#utility.yul\":882:889   */\n  0x00\n    /* \"#utility.yul\":911:916   */\n  dup2\n    /* \"#utility.yul\":900:916   */\n  swap1\n  pop\n    /* \"#utility.yul\":845:922   */\n  swap2\n  swap1\n  pop\n  jump\t// out\n    /* \"#utility.yul\":928:1050   */\ntag_23:\n    /* \"#utility.yul\":1001:1025   */\n  tag_44\n    /* \"#utility.yul\":1019:1024   */\n  dup2\n    /* \"#utility.yul\":1001:1025   */\n  tag_22\n  jump\t// in\ntag_44:\n    /* \"#utility.yul\":994:999   */\n  dup2\n    /* \"#utility.yul\":991:1026   */\n  eq\n    /* \"#utility.yul\":981:1044   */\n  tag_45\n  jumpi\n    /* \"#utility.yul\":1040:1041   */\n  0x00\n    /* \"#utility.yul\":1037:1038   */\n  0x00\n    /* \"#utility.yul\":1030:1042   */\n  revert\n    /* \"#utility.yul\":981:1044   */\ntag_45:\n    /* \"#utility.yul\":928:1050   */\n  pop\n  jump\t// out\n    /* \"#utility.yul\":1056:1199   */\ntag_24:\n    /* \"#utility.yul\":1113:1118   */\n  0x00\n    /* \"#utility.yul\":1144:1150   */\n  dup2\n    /* \"#utility.yul\":1138:1151   */\n  mload\n    /* \"#utility.yul\":1129:1151   */\n  swap1\n  pop\n    /* \"#utility.yul\":1160:1193   */\n  tag_47\n    /* \"#utility.yul\":1187:1192   */\n  dup2\n    /* \"#utility.yul\":1160:1193   */\n  tag_23\n  jump\t// in\ntag_47:\n    /* \"#utility.yul\":1056:1199   */\n  swap3\n  swap2\n  pop\n  pop\n  jump\t// out\n    /* \"#utility.yul\":1205:1712   */\ntag_3:\n    /* \"#utility.yul\":1284:1290   */\n  0x00\n    /* \"#utility.yul\":1292:1298   */\n  0x00\n    /* \"#utility.yul\":1341:1343   */\n  0x40\n    /* \"#utility.yul\":1329:1338   */\n  dup4\n    /* \"#utility.yul\":1320:1327   */\n  dup6\n    /* \"#utility.yul\":1316:1339   */\n  sub\n    /* \"#utility.yul\":1312:1344   */\n  slt\n    /* \"#utility.yul\":1309:1428   */\n  iszero\n  tag_49\n  jumpi\n    /* \"#utility.yul\":1347:1426   */\n  tag_50\n  tag_16\n  jump\t// in\ntag_50:\n    /* \"#utility.yul\":1309:1428   */\ntag_49:\n    /* \"#utility.yul\":1467:1468   */\n  0x00\n    /* \"#utility.yul\":1492:1556   */\n  tag_51\n    /* \"#utility.yul\":1548:1555   */\n  dup6\n    /* \"#utility.yul\":1539:1545   */\n  dup3\n    /* \"#utility.yul\":1528:1537   */\n  dup7\n    /* \"#utility.yul\":1524:1546   */\n  add\n    /* \"#utility.yul\":1492:1556   */\n  tag_21\n  jump\t// in\ntag_51:\n    /* \"#utility.yul\":1482:1556   */\n  swap3\n  pop\n    /* \"#utility.yul\":1438:1566   */\n  pop\n    /* \"#utility.yul\":1605:1607   */\n  0x20\n    /* \"#utility.yul\":1631:1695   */\n  tag_52\n    /* \"#utility.yul\":1687:1694   */\n  dup6\n    /* \"#utility.yul\":1678:1684   */\n  dup3\n    /* \"#utility.yul\":1667:1676   */\n  dup7\n    /* \"#utility.yul\":1663:1685   */\n  add\n    /* \"#utility.yul\":1631:1695   */\n  tag_24\n  jump\t// in\ntag_52:\n    /* \"#utility.yul\":1621:1695   */\n  swap2\n  pop\n    /* \"#utility.yul\":1576:1705   */\n  pop\n    /* \"#utility.yul\":1205:1712   */\n  swap3\n  pop\n  swap3\n  swap1\n  pop\n  jump\t// out\n    /* \"#utility.yul\":1718:1887   */\ntag_25:\n    /* \"#utility.yul\":1802:1813   */\n  0x00\n    /* \"#utility.yul\":1836:1842   */\n  dup3\n    /* \"#utility.yul\":1831:1834   */\n  dup3\n    /* \"#utility.yul\":1824:1843   */\n  mstore\n    /* \"#utility.yul\":1876:1880   */\n  0x20\n    /* \"#utility.yul\":1871:1874   */\n  dup3\n    /* \"#utility.yul\":1867:1881   */\n  add\n    /* \"#utility.yul\":1852:1881   */\n  swap1\n  pop\n    /* \"#utility.yul\":1718:1887   */\n  swap3\n  swap2\n  pop\n  pop\n  jump\t// out\n    /* \"#utility.yul\":1893:2054   */\ntag_26:\n    /* \"#utility.yul\":2033:2046   */\n  0x546f6b656e3a207a65726f000000000000000000000000000000000000000000\n    /* \"#utility.yul\":2029:2030   */\n  0x00\n    /* \"#utility.yul\":2021:2027   */\n  dup3\n    /* \"#utility.yul\":2017:2031   */\n  add\n    /* \"#utility.yul\":2010:2047   */\n  mstore\n    /* \"#utility.yul\":1893:2054   */\n  pop\n  jump\t// out\n    /* \"#utility.yul\":2060:2426   */\ntag_27:\n    /* \"#utility.yul\":2202:2205   */\n  0x00\n    /* \"#utility.yul\":2223:2290   */\n  tag_56\n    /* \"#utility.yul\":2287:2289   */\n  0x0b\n    /* \"#utility.yul\":2282:2285   */\n  dup4\n    /* \"#utility.yul\":2223:2290   */\n  tag_25\n  jump\t// in\ntag_56:\n    /* \"#utility.yul\":2216:2290   */\n  swap2\n  pop\n    /* \"#utility.yul\":2299:2392   */\n  tag_57\n    /* \"#utility.yul\":2388:2391   */\n  dup3\n    /* \"#utility.yul\":2299:2392   */\n  tag_26\n  jump\t// in\ntag_57:\n    /* \"#utility.yul\":2417:2419   */\n  0x20\n    /* \"#utility.yul\":2412:2415   */\n  dup3\n    /* \"#utility.yul\":2408:2420   */\n  add\n    /* \"#utility.yul\":2401:2420   */\n  swap1\n  pop\n    /* \"#utility.yul\":2060:2426   */\n  swap2\n  swap1\n  pop\n  jump\t// out\n    /* \"#utility.yul\":2432:2851   */\ntag_10:\n    /* \"#utility.yul\":2598:2602   */\n  0x00\n    /* \"#utility.yul\":2636:2638   */\n  0x20\n    /* \"#utility.yul\":2625:2634   */\n  dup3\n    /* \"#utility.yul\":2621:2639   */\n  add\n    /* \"#utility.yul\":2613:2639   */\n  swap1\n  pop\n    /* \"#utility.yul\":2685:2694   */\n  dup2\n    /* \"#utility.yul\":2679:2683   */\n  dup2\n    /* \"#utility.yul\":2675:2695   */\n  sub\n    /* \"#utility.yul\":2671:2672   */\n  0x00\n    /* \"#utility.yul\":2660:2669   */\n  dup4\n    /* \"#utility.yul\":2656:2673   */\n  add\n    /* \"#utility.yul\":2649:2696   */\n  mstore\n    /* \"#utility.yul\":2713:2844   */\n  tag_59\n    /* \"#utility.yul\":2839:2843   */\n  dup2\n    /* \"#utility.yul\":2713:2844   */\n  tag_27\n  jump\t// in\ntag_59:\n    /* \"#utility.yul\":2705:2844   */\n  swap1\n  pop\n    /* \"#utility.yul\":2432:2851   */\n  swap2\n  swap1\n  pop\n  jump\t// out\n    /* \"#utility.yul\":2857:3018   */\ntag_28:\n    /* \"#utility.yul\":2997:3010   */\n  0x52617465203e2031303025000000000000000000000000000000000000000000\n    /* \"#utility.yul\":2993:2994   */\n  0x00\n    /* \"#utility.yul\":2985:2991   */\n  dup3\n    /* \"#utility.yul\":2981:2995   */\n  add\n    /* \"#utility.yul\":2974:3011   */\n  mstore\n    /* \"#utility.yul\":2857:3018   */\n  pop\n  jump\t// out\n    /* \"#utility.yul\":3024:3390   */\ntag_29:\n    /* \"#utility.yul\":3166:3169   */\n  0x00\n    /* \"#utility.yul\":3187:3254   */\n  tag_62\n    /* \"#utility.yul\":3251:3253   */\n  0x0b\n    /* \"#utility.yul\":3246:3249   */\n  dup4\n    /* \"#utility.yul\":3187:3254   */\n  tag_25\n  jump\t// in\ntag_62:\n    /* \"#utility.yul\":3180:3254   */\n  swap2\n  pop\n    /* \"#utility.yul\":3263:3356   */\n  tag_63\n    /* \"#utility.yul\":3352:3355   */\n  dup3\n    /* \"#utility.yul\":3263:3356   */\n  tag_28\n  jump\t// in\ntag_63:\n    /* \"#utility.yul\":3381:3383   */\n  0x20\n    /* \"#utility.yul\":3376:3379   */\n  dup3\n    /* \"#utility.yul\":3372:3384   */\n  add\n    /* \"#utility.yul\":3365:3384   */\n  swap1\n  pop\n    /* \"#utility.yul\":3024:3390   */\n  swap2\n  swap1\n  pop\n  jump\t// out\n    /* \"#utility.yul\":3396:3815   */\ntag_13:\n    /* \"#utility.yul\":3562:3566   */\n  0x00\n    /* \"#utility.yul\":3600:3602   */\n  0x20\n    /* \"#utility.yul\":3589:3598   */\n  dup3\n    /* \"#utility.yul\":3585:3603   */\n  add\n    /* \"#utility.yul\":3577:3603   */\n  swap1\n  pop\n    /* \"#utility.yul\":3649:3658   */\n  dup2\n    /* \"#utility.yul\":3643:3647   */\n  dup2\n    /* \"#utility.yul\":3639:3659   */\n  sub\n    /* \"#utility.yul\":3635:3636   */\n  0x00\n    /* \"#utility.yul\":3624:3633   */\n  dup4\n    /* \"#utility.yul\":3620:3637   */\n  add\n    /* \"#utility.yul\":3613:3660   */\n  mstore\n    /* \"#utility.yul\":3677:3808   */\n  tag_65\n    /* \"#utility.yul\":3803:3807   */\n  dup2\n    /* \"#utility.yul\":3677:3808   */\n  tag_29\n  jump\t// in\ntag_65:\n    /* \"#utility.yul\":3669:3808   */\n  swap1\n  pop\n    /* \"#utility.yul\":3396:3815   */\n  swap2\n  swap1\n  pop\n  jump\t// out\n    /* \"GGWStake.sol\":182:17048  contract GGWStake is ReentrancyGuard {... */\ntag_14:\n  mload(0x80)\n  codecopy(0x00, dataOffset(sub_0), dataSize(sub_0))\n  0x00\n  assignImmutable(\"0x1a65db4f2ea95c4a38ef67ec9eb02656311df27569f1d2e5f15fb9ffe8498721\")\n  return(0x00, dataSize(sub_0))\nstop\n\nsub_0: assembly {\n        /* \"GGWStake.sol\":182:17048  contract GGWStake is ReentrancyGuard {... */\n      mstore(0x40, 0x80)\n      callvalue\n      dup1\n      iszero\n      tag_1\n      jumpi\n      revert(0x00, 0x00)\n    tag_1:\n      pop\n      jumpi(tag_2, lt(calldatasize, 0x04))\n      shr(0xe0, calldataload(0x00))\n      dup1\n      0x6241ca79\n      gt\n      tag_38\n      jumpi\n      dup1\n      0xb02c43d0\n      gt\n      tag_39\n      jumpi\n      dup1\n      0xdd4824a8\n      gt\n      tag_40\n      jumpi\n      dup1\n      0xdd4824a8\n      eq\n      tag_33\n      jumpi\n      dup1\n      0xe2842d79\n      eq\n      tag_34\n      jumpi\n      dup1\n      0xf4f8c847\n      eq\n      tag_35\n      jumpi\n      dup1\n      0xf8799e1a\n      eq\n      tag_36\n      jumpi\n      dup1\n      0xfe4ab90a\n      eq\n      tag_37\n      jumpi\n      jump(tag_2)\n    tag_40:\n      dup1\n      0xb02c43d0\n      eq\n      tag_29\n      jumpi\n      dup1\n      0xb18e71f2\n      eq\n      tag_30\n      jumpi\n      dup1\n      0xb29a8140\n      eq\n      tag_31\n      jumpi\n      dup1\n      0xd3d83445\n      eq\n      tag_32\n      jumpi\n      jump(tag_2)\n    tag_39:\n      dup1\n      0x9521abc6\n      gt\n      tag_41\n      jumpi\n      dup1\n      0x9521abc6\n      eq\n      tag_24\n      jumpi\n      dup1\n      0x9be572f6\n      eq\n      tag_25\n      jumpi\n      dup1\n      0x9d13fa01\n      eq\n      tag_26\n      jumpi\n      dup1\n      0xa2bdedf4\n      eq\n      tag_27\n      jumpi\n      dup1\n      0xa9783cd7\n      eq\n      tag_28\n      jumpi\n      jump(tag_2)\n    tag_41:\n      dup1\n      0x6241ca79\n      eq\n      tag_20\n      jumpi\n      dup1\n      0x7196d3e2\n      eq\n      tag_21\n      jumpi\n      dup1\n      0x72f702f3\n      eq\n      tag_22\n      jumpi\n      dup1\n      0x8da5cb5b\n      eq\n      tag_23\n      jumpi\n      jump(tag_2)\n    tag_38:\n      dup1\n      0x23b28a54\n      gt\n      tag_42\n      jumpi\n      dup1\n      0x38716003\n      gt\n      tag_43\n      jumpi\n      dup1\n      0x38716003\n      eq\n      tag_15\n      jumpi\n      dup1\n      0x41aff23e\n      eq\n      tag_16\n      jumpi\n      dup1\n      0x4209fff1\n      eq\n      tag_17\n      jumpi\n      dup1\n      0x4b4d7aa8\n      eq\n      tag_18\n      jumpi\n      dup1\n      0x5301731f\n      eq\n      tag_19\n      jumpi\n      jump(tag_2)\n    tag_43:\n      dup1\n      0x23b28a54\n      eq\n      tag_11\n      jumpi\n      dup1\n      0x2a5bf6d2\n      eq\n      tag_12\n      jumpi\n      dup1\n      0x2e0e3064\n      eq\n      tag_13\n      jumpi\n      dup1\n      0x2ffb3d2a\n      eq\n      tag_14\n      jumpi\n      jump(tag_2)\n    tag_42:\n      dup1\n      0x0f68ae40\n      gt\n      tag_44\n      jumpi\n      dup1\n      0x0f68ae40\n      eq\n      tag_7\n      jumpi\n      dup1\n      0x168a4822\n      eq\n      tag_8\n      jumpi\n      dup1\n      0x1bfc7761\n      eq\n      tag_9\n      jumpi\n      dup1\n      0x1d0205b8\n      eq\n      tag_10\n      jumpi\n      jump(tag_2)\n    tag_44:\n      dup1\n      0x0d6386\n      eq\n      tag_3\n      jumpi\n      dup1\n      0x05a163b6\n      eq\n      tag_4\n      jumpi\n      dup1\n      0x08804275\n      eq\n      tag_5\n      jumpi\n      dup1\n      0x08f43333\n      eq\n      tag_6\n      jumpi\n    tag_2:\n      revert(0x00, 0x00)\n        /* \"GGWStake.sol\":1060:1098  uint256 public lastKnownMonthIndex = 0 */\n    tag_3:\n      tag_45\n      tag_46\n      jump\t// in\n    tag_45:\n      mload(0x40)\n      tag_47\n      swap2\n      swap1\n      tag_48\n      jump\t// in\n    tag_47:\n      mload(0x40)\n      dup1\n      swap2\n      sub\n      swap1\n      return\n        /* \"GGWStake.sol\":3438:4036  function editMonth(uint256 idx, uint256 start, uint256 end, uint256 rateBps) external onlyOwner {... */\n    tag_4:\n      tag_49\n      0x04\n      dup1\n      calldatasize\n      sub\n      dup2\n      add\n      swap1\n      tag_50\n      swap2\n      swap1\n      tag_51\n      jump\t// in\n    tag_50:\n      tag_52\n      jump\t// in\n    tag_49:\n      stop\n        /* \"GGWStake.sol\":4693:4731  uint256 public minLockAmount = 1 ether */\n    tag_5:\n      tag_53\n      tag_54\n      jump\t// in\n    tag_53:\n      mload(0x40)\n      tag_55\n      swap2\n      swap1\n      tag_48\n      jump\t// in\n    tag_55:\n      mload(0x40)\n      dup1\n      swap2\n      sub\n      swap1\n      return\n        /* \"GGWStake.sol\":978:1027  mapping(address => uint256[]) public userDeposits */\n    tag_6:\n      tag_56\n      0x04\n      dup1\n      calldatasize\n      sub\n      dup2\n      add\n      swap1\n      tag_57\n      swap2\n      swap1\n      tag_58\n      jump\t// in\n    tag_57:\n      tag_59\n      jump\t// in\n    tag_56:\n      mload(0x40)\n      tag_60\n      swap2\n      swap1\n      tag_48\n      jump\t// in\n    tag_60:\n      mload(0x40)\n      dup1\n      swap2\n      sub\n      swap1\n      return\n        /* \"GGWStake.sol\":4738:4858  function setMinLockAmount(uint256 newMinLockAmount) public onlyOwner {... */\n    tag_7:\n      tag_61\n      0x04\n      dup1\n      calldatasize\n      sub\n      dup2\n      add\n      swap1\n      tag_62\n      swap2\n      swap1\n      tag_63\n      jump\t// in\n    tag_62:\n      tag_64\n      jump\t// in\n    tag_61:\n      stop\n        /* \"GGWStake.sol\":2316:2417  function getTotalDeposits() external view returns (uint256) {... */\n    tag_8:\n      tag_65\n      tag_66\n      jump\t// in\n    tag_65:\n      mload(0x40)\n      tag_67\n      swap2\n      swap1\n      tag_48\n      jump\t// in\n    tag_67:\n      mload(0x40)\n      dup1\n      swap2\n      sub\n      swap1\n      return\n        /* \"GGWStake.sol\":2075:2202  function getDepositById(uint256 depositId) external view returns (Deposit memory) {... */\n    tag_9:\n      tag_68\n      0x04\n      dup1\n      calldatasize\n      sub\n      dup2\n      add\n      swap1\n      tag_69\n      swap2\n      swap1\n      tag_63\n      jump\t// in\n    tag_69:\n      tag_70\n      jump\t// in\n    tag_68:\n      mload(0x40)\n      tag_71\n      swap2\n      swap1\n      tag_72\n      jump\t// in\n    tag_71:\n      mload(0x40)\n      dup1\n      swap2\n      sub\n      swap1\n      return\n        /* \"GGWStake.sol\":1291:1318  MonthConfig[] public months */\n    tag_10:\n      tag_73\n      0x04\n      dup1\n      calldatasize\n      sub\n      dup2\n      add\n      swap1\n      tag_74\n      swap2\n      swap1\n      tag_63\n      jump\t// in\n    tag_74:\n      tag_75\n      jump\t// in\n    tag_73:\n      mload(0x40)\n      tag_76\n      swap4\n      swap3\n      swap2\n      swap1\n      tag_77\n      jump\t// in\n    tag_76:\n      mload(0x40)\n      dup1\n      swap2\n      sub\n      swap1\n      return\n        /* \"GGWStake.sol\":2700:2903  function addMonth(uint256 start, uint256 end, uint256 rateBps) external onlyOwner {... */\n    tag_11:\n      tag_78\n      0x04\n      dup1\n      calldatasize\n      sub\n      dup2\n      add\n      swap1\n      tag_79\n      swap2\n      swap1\n      tag_80\n      jump\t// in\n    tag_79:\n      tag_81\n      jump\t// in\n    tag_78:\n      stop\n        /* \"GGWStake.sol\":1943:2067  function getUserDeposits(address user) external view returns (uint256[] memory) {... */\n    tag_12:\n      tag_82\n      0x04\n      dup1\n      calldatasize\n      sub\n      dup2\n      add\n      swap1\n      tag_83\n      swap2\n      swap1\n      tag_84\n      jump\t// in\n    tag_83:\n      tag_85\n      jump\t// in\n    tag_82:\n      mload(0x40)\n      tag_86\n      swap2\n      swap1\n      tag_87\n      jump\t// in\n    tag_86:\n      mload(0x40)\n      dup1\n      swap2\n      sub\n      swap1\n      return\n        /* \"GGWStake.sol\":13058:15433  function calculatePendingRewardForDeposit(uint256 depositId) public view returns (uint256) {... */\n    tag_13:\n      tag_88\n      0x04\n      dup1\n      calldatasize\n      sub\n      dup2\n      add\n      swap1\n      tag_89\n      swap2\n      swap1\n      tag_63\n      jump\t// in\n    tag_89:\n      tag_90\n      jump\t// in\n    tag_88:\n      mload(0x40)\n      tag_91\n      swap2\n      swap1\n      tag_48\n      jump\t// in\n    tag_91:\n      mload(0x40)\n      dup1\n      swap2\n      sub\n      swap1\n      return\n        /* \"GGWStake.sol\":2911:3430  function addMonthsBatch(... */\n    tag_14:\n      tag_92\n      0x04\n      dup1\n      calldatasize\n      sub\n      dup2\n      add\n      swap1\n      tag_93\n      swap2\n      swap1\n      tag_94\n      jump\t// in\n    tag_93:\n      tag_95\n      jump\t// in\n    tag_92:\n      stop\n        /* \"GGWStake.sol\":1209:1259  mapping(uint256 => uint256) public rewardsByMonths */\n    tag_15:\n      tag_96\n      0x04\n      dup1\n      calldatasize\n      sub\n      dup2\n      add\n      swap1\n      tag_97\n      swap2\n      swap1\n      tag_63\n      jump\t// in\n    tag_97:\n      tag_98\n      jump\t// in\n    tag_96:\n      mload(0x40)\n      tag_99\n      swap2\n      swap1\n      tag_48\n      jump\t// in\n    tag_99:\n      mload(0x40)\n      dup1\n      swap2\n      sub\n      swap1\n      return\n        /* \"GGWStake.sol\":1325:1379  mapping (uint256 => uint256) public monthDepositsCount */\n    tag_16:\n      tag_100\n      0x04\n      dup1\n      calldatasize\n      sub\n      dup2\n      add\n      swap1\n      tag_101\n      swap2\n      swap1\n      tag_63\n      jump\t// in\n    tag_101:\n      tag_102\n      jump\t// in\n    tag_100:\n      mload(0x40)\n      tag_103\n      swap2\n      swap1\n      tag_48\n      jump\t// in\n    tag_103:\n      mload(0x40)\n      dup1\n      swap2\n      sub\n      swap1\n      return\n        /* \"GGWStake.sol\":933:971  mapping(address => bool) public isUser */\n    tag_17:\n      tag_104\n      0x04\n      dup1\n      calldatasize\n      sub\n      dup2\n      add\n      swap1\n      tag_105\n      swap2\n      swap1\n      tag_84\n      jump\t// in\n    tag_105:\n      tag_106\n      jump\t// in\n    tag_104:\n      mload(0x40)\n      tag_107\n      swap2\n      swap1\n      tag_108\n      jump\t// in\n    tag_107:\n      mload(0x40)\n      dup1\n      swap2\n      sub\n      swap1\n      return\n        /* \"GGWStake.sol\":4864:4984  function setMinLockMonths(uint256 newMinLockMonths) public onlyOwner {... */\n    tag_18:\n      tag_109\n      0x04\n      dup1\n      calldatasize\n      sub\n      dup2\n      add\n      swap1\n      tag_110\n      swap2\n      swap1\n      tag_63\n      jump\t// in\n    tag_110:\n      tag_111\n      jump\t// in\n    tag_109:\n      stop\n        /* \"GGWStake.sol\":1137:1166  uint256 public openedDeposits */\n    tag_19:\n      tag_112\n      tag_113\n      jump\t// in\n    tag_112:\n      mload(0x40)\n      tag_114\n      swap2\n      swap1\n      tag_48\n      jump\t// in\n    tag_114:\n      mload(0x40)\n      dup1\n      swap2\n      sub\n      swap1\n      return\n        /* \"GGWStake.sol\":7203:8169  function withdrawPrincipalAndRewards(uint256 depositId) external nonReentrant {... */\n    tag_20:\n      tag_115\n      0x04\n      dup1\n      calldatasize\n      sub\n      dup2\n      add\n      swap1\n      tag_116\n      swap2\n      swap1\n      tag_63\n      jump\t// in\n    tag_116:\n      tag_117\n      jump\t// in\n    tag_115:\n      stop\n        /* \"GGWStake.sol\":8406:10949  function calculateReward(... */\n    tag_21:\n      tag_118\n      0x04\n      dup1\n      calldatasize\n      sub\n      dup2\n      add\n      swap1\n      tag_119\n      swap2\n      swap1\n      tag_51\n      jump\t// in\n    tag_119:\n      tag_120\n      jump\t// in\n    tag_118:\n      mload(0x40)\n      tag_121\n      swap2\n      swap1\n      tag_48\n      jump\t// in\n    tag_121:\n      mload(0x40)\n      dup1\n      swap2\n      sub\n      swap1\n      return\n        /* \"GGWStake.sol\":788:824  IERC20 public immutable stakingToken */\n    tag_22:\n      tag_122\n      tag_123\n      jump\t// in\n    tag_122:\n      mload(0x40)\n      tag_124\n      swap2\n      swap1\n      tag_125\n      jump\t// in\n    tag_124:\n      mload(0x40)\n      dup1\n      swap2\n      sub\n      swap1\n      return\n        /* \"GGWStake.sol\":226:246  address public owner */\n    tag_23:\n      tag_126\n      tag_127\n      jump\t// in\n    tag_126:\n      mload(0x40)\n      tag_128\n      swap2\n      swap1\n      tag_129\n      jump\t// in\n    tag_128:\n      mload(0x40)\n      dup1\n      swap2\n      sub\n      swap1\n      return\n        /* \"GGWStake.sol\":2460:2662  function setGlobalRateBps(uint256 _rateBps) external onlyOwner {... */\n    tag_24:\n      tag_130\n      0x04\n      dup1\n      calldatasize\n      sub\n      dup2\n      add\n      swap1\n      tag_131\n      swap2\n      swap1\n      tag_63\n      jump\t// in\n    tag_131:\n      tag_132\n      jump\t// in\n    tag_130:\n      stop\n        /* \"GGWStake.sol\":2210:2308  function getTotalUsers() external view returns (uint256) {... */\n    tag_25:\n      tag_133\n      tag_134\n      jump\t// in\n    tag_133:\n      mload(0x40)\n      tag_135\n      swap2\n      swap1\n      tag_48\n      jump\t// in\n    tag_135:\n      mload(0x40)\n      dup1\n      swap2\n      sub\n      swap1\n      return\n        /* \"GGWStake.sol\":1386:1441  mapping (uint256 => uint256) public monthDepositsAmount */\n    tag_26:\n      tag_136\n      0x04\n      dup1\n      calldatasize\n      sub\n      dup2\n      add\n      swap1\n      tag_137\n      swap2\n      swap1\n      tag_63\n      jump\t// in\n    tag_137:\n      tag_138\n      jump\t// in\n    tag_136:\n      mload(0x40)\n      tag_139\n      swap2\n      swap1\n      tag_48\n      jump\t// in\n    tag_139:\n      mload(0x40)\n      dup1\n      swap2\n      sub\n      swap1\n      return\n        /* \"GGWStake.sol\":901:926  address[] public allUsers */\n    tag_27:\n      tag_140\n      0x04\n      dup1\n      calldatasize\n      sub\n      dup2\n      add\n      swap1\n      tag_141\n      swap2\n      swap1\n      tag_63\n      jump\t// in\n    tag_141:\n      tag_142\n      jump\t// in\n    tag_140:\n      mload(0x40)\n      tag_143\n      swap2\n      swap1\n      tag_129\n      jump\t// in\n    tag_143:\n      mload(0x40)\n      dup1\n      swap2\n      sub\n      swap1\n      return\n        /* \"GGWStake.sol\":4044:4289  function deleteLastMonth() external onlyOwner {... */\n    tag_28:\n      tag_144\n      tag_145\n      jump\t// in\n    tag_144:\n      stop\n        /* \"GGWStake.sol\":1105:1130  Deposit[] public deposits */\n    tag_29:\n      tag_146\n      0x04\n      dup1\n      calldatasize\n      sub\n      dup2\n      add\n      swap1\n      tag_147\n      swap2\n      swap1\n      tag_63\n      jump\t// in\n    tag_147:\n      tag_148\n      jump\t// in\n    tag_146:\n      mload(0x40)\n      tag_149\n      swap9\n      swap8\n      swap7\n      swap6\n      swap5\n      swap4\n      swap3\n      swap2\n      swap1\n      tag_150\n      jump\t// in\n    tag_149:\n      mload(0x40)\n      dup1\n      swap2\n      sub\n      swap1\n      return\n        /* \"GGWStake.sol\":5027:6486  function createDeposit(uint256 amount, uint256 lockMonths) external nonReentrant {... */\n    tag_30:\n      tag_151\n      0x04\n      dup1\n      calldatasize\n      sub\n      dup2\n      add\n      swap1\n      tag_152\n      swap2\n      swap1\n      tag_153\n      jump\t// in\n    tag_152:\n      tag_154\n      jump\t// in\n    tag_151:\n      stop\n        /* \"GGWStake.sol\":16807:17045  function recoverToken(address token, uint256 amount) external onlyOwner {... */\n    tag_31:\n      tag_155\n      0x04\n      dup1\n      calldatasize\n      sub\n      dup2\n      add\n      swap1\n      tag_156\n      swap2\n      swap1\n      tag_58\n      jump\t// in\n    tag_156:\n      tag_157\n      jump\t// in\n    tag_155:\n      stop\n        /* \"GGWStake.sol\":6525:7195  function withdrawRewardsOnly(uint256 depositId) external nonReentrant {... */\n    tag_32:\n      tag_158\n      0x04\n      dup1\n      calldatasize\n      sub\n      dup2\n      add\n      swap1\n      tag_159\n      swap2\n      swap1\n      tag_63\n      jump\t// in\n    tag_159:\n      tag_160\n      jump\t// in\n    tag_158:\n      stop\n        /* \"GGWStake.sol\":11249:13052  function calculateRewardByMonths(... */\n    tag_33:\n      tag_161\n      0x04\n      dup1\n      calldatasize\n      sub\n      dup2\n      add\n      swap1\n      tag_162\n      swap2\n      swap1\n      tag_80\n      jump\t// in\n    tag_162:\n      tag_163\n      jump\t// in\n    tag_161:\n      mload(0x40)\n      tag_164\n      swap2\n      swap1\n      tag_48\n      jump\t// in\n    tag_164:\n      mload(0x40)\n      dup1\n      swap2\n      sub\n      swap1\n      return\n        /* \"GGWStake.sol\":1837:1935  function getAllUsers() external view returns (address[] memory) {... */\n    tag_34:\n      tag_165\n      tag_166\n      jump\t// in\n    tag_165:\n      mload(0x40)\n      tag_167\n      swap2\n      swap1\n      tag_168\n      jump\t// in\n    tag_167:\n      mload(0x40)\n      dup1\n      swap2\n      sub\n      swap1\n      return\n        /* \"GGWStake.sol\":831:859  uint256 public globalRateBps */\n    tag_35:\n      tag_169\n      tag_170\n      jump\t// in\n    tag_169:\n      mload(0x40)\n      tag_171\n      swap2\n      swap1\n      tag_48\n      jump\t// in\n    tag_171:\n      mload(0x40)\n      dup1\n      swap2\n      sub\n      swap1\n      return\n        /* \"GGWStake.sol\":4654:4686  uint256 public minLockMonths = 1 */\n    tag_36:\n      tag_172\n      tag_173\n      jump\t// in\n    tag_172:\n      mload(0x40)\n      tag_174\n      swap2\n      swap1\n      tag_48\n      jump\t// in\n    tag_174:\n      mload(0x40)\n      dup1\n      swap2\n      sub\n      swap1\n      return\n        /* \"GGWStake.sol\":1173:1202  uint256 public depositsAmount */\n    tag_37:\n      tag_175\n      tag_176\n      jump\t// in\n    tag_175:\n      mload(0x40)\n      tag_177\n      swap2\n      swap1\n      tag_48\n      jump\t// in\n    tag_177:\n      mload(0x40)\n      dup1\n      swap2\n      sub\n      swap1\n      return\n        /* \"GGWStake.sol\":1060:1098  uint256 public lastKnownMonthIndex = 0 */\n    tag_46:\n      sload(0x06)\n      dup2\n      jump\t// out\n        /* \"GGWStake.sol\":3438:4036  function editMonth(uint256 idx, uint256 start, uint256 end, uint256 rateBps) external onlyOwner {... */\n    tag_52:\n        /* \"GGWStake.sol\":311:316  owner */\n      0x01\n      0x00\n      swap1\n      sload\n      swap1\n      0x0100\n      exp\n      swap1\n      div\n      0xffffffffffffffffffffffffffffffffffffffff\n      and\n        /* \"GGWStake.sol\":297:316  msg.sender == owner */\n      0xffffffffffffffffffffffffffffffffffffffff\n      and\n        /* \"GGWStake.sol\":297:307  msg.sender */\n      caller\n        /* \"GGWStake.sol\":297:316  msg.sender == owner */\n      0xffffffffffffffffffffffffffffffffffffffff\n      and\n      eq\n        /* \"GGWStake.sol\":289:331  require(msg.sender == owner, \"Only owner\") */\n      tag_179\n      jumpi\n      mload(0x40)\n      0x08c379a000000000000000000000000000000000000000000000000000000000\n      dup2\n      mstore\n      0x04\n      add\n      tag_180\n      swap1\n      tag_181\n      jump\t// in\n    tag_180:\n      mload(0x40)\n      dup1\n      swap2\n      sub\n      swap1\n      revert\n    tag_179:\n        /* \"GGWStake.sol\":3559:3565  months */\n      0x0b\n        /* \"GGWStake.sol\":3559:3572  months.length */\n      dup1\n      sload\n      swap1\n      pop\n        /* \"GGWStake.sol\":3553:3556  idx */\n      dup5\n        /* \"GGWStake.sol\":3553:3572  idx < months.length */\n      lt\n        /* \"GGWStake.sol\":3545:3586  require(idx < months.length, \"Index OOB\") */\n      tag_183\n      jumpi\n      mload(0x40)\n      0x08c379a000000000000000000000000000000000000000000000000000000000\n      dup2\n      mstore\n      0x04\n      add\n      tag_184\n      swap1\n      tag_185\n      jump\t// in\n    tag_184:\n      mload(0x40)\n      dup1\n      swap2\n      sub\n      swap1\n      revert\n    tag_183:\n        /* \"GGWStake.sol\":3613:3616  end */\n      dup2\n        /* \"GGWStake.sol\":3605:3610  start */\n      dup4\n        /* \"GGWStake.sol\":3605:3616  start < end */\n      lt\n        /* \"GGWStake.sol\":3597:3634  require(start < end, \"Invalid range\") */\n      tag_186\n      jumpi\n      mload(0x40)\n      0x08c379a000000000000000000000000000000000000000000000000000000000\n      dup2\n      mstore\n      0x04\n      add\n      tag_187\n      swap1\n      tag_188\n      jump\t// in\n    tag_187:\n      mload(0x40)\n      dup1\n      swap2\n      sub\n      swap1\n      revert\n    tag_186:\n        /* \"GGWStake.sol\":3660:3661  0 */\n      0x00\n        /* \"GGWStake.sol\":3649:3656  rateBps */\n      dup2\n        /* \"GGWStake.sol\":3649:3661  rateBps != 0 */\n      eq\n        /* \"GGWStake.sol\":3645:3704  if (rateBps != 0) require(rateBps <= 10_000, \"Rate > 100%\") */\n      tag_189\n      jumpi\n        /* \"GGWStake.sol\":3682:3688  10_000 */\n      0x2710\n        /* \"GGWStake.sol\":3671:3678  rateBps */\n      dup2\n        /* \"GGWStake.sol\":3671:3688  rateBps <= 10_000 */\n      gt\n      iszero\n        /* \"GGWStake.sol\":3663:3704  require(rateBps <= 10_000, \"Rate > 100%\") */\n      tag_190\n      jumpi\n      mload(0x40)\n      0x08c379a000000000000000000000000000000000000000000000000000000000\n      dup2\n      mstore\n      0x04\n      add\n      tag_191\n      swap1\n      tag_192\n      jump\t// in\n    tag_191:\n      mload(0x40)\n      dup1\n      swap2\n      sub\n      swap1\n      revert\n    tag_190:\n        /* \"GGWStake.sol\":3645:3704  if (rateBps != 0) require(rateBps <= 10_000, \"Rate > 100%\") */\n    tag_189:\n        /* \"GGWStake.sol\":3731:3746  block.timestamp */\n      timestamp\n        /* \"GGWStake.sol\":3723:3728  start */\n      dup4\n        /* \"GGWStake.sol\":3723:3746  start > block.timestamp */\n      gt\n        /* \"GGWStake.sol\":3715:3758  require(start > block.timestamp, \"Started\") */\n      tag_193\n      jumpi\n      mload(0x40)\n      0x08c379a000000000000000000000000000000000000000000000000000000000\n      dup2\n      mstore\n      0x04\n      add\n      tag_194\n      swap1\n      tag_195\n      jump\t// in\n    tag_194:\n      mload(0x40)\n      dup1\n      swap2\n      sub\n      swap1\n      revert\n    tag_193:\n        /* \"GGWStake.sol\":3781:3782  0 */\n      0x00\n        /* \"GGWStake.sol\":3775:3778  idx */\n      dup5\n        /* \"GGWStake.sol\":3775:3782  idx > 0 */\n      gt\n        /* \"GGWStake.sol\":3771:3828  if (idx > 0) require(start >= months[idx - 1].end, \"Seq\") */\n      iszero\n      tag_196\n      jumpi\n        /* \"GGWStake.sol\":3801:3807  months */\n      0x0b\n        /* \"GGWStake.sol\":3814:3815  1 */\n      0x01\n        /* \"GGWStake.sol\":3808:3811  idx */\n      dup6\n        /* \"GGWStake.sol\":3808:3815  idx - 1 */\n      tag_197\n      swap2\n      swap1\n      tag_198\n      jump\t// in\n    tag_197:\n        /* \"GGWStake.sol\":3801:3816  months[idx - 1] */\n      dup2\n      sload\n      dup2\n      lt\n      tag_199\n      jumpi\n      tag_200\n      tag_201\n      jump\t// in\n    tag_200:\n    tag_199:\n      swap1\n      0x00\n      mstore\n      keccak256(0x00, 0x20)\n      swap1\n      0x03\n      mul\n      add\n        /* \"GGWStake.sol\":3801:3820  months[idx - 1].end */\n      0x01\n      add\n      sload\n        /* \"GGWStake.sol\":3792:3797  start */\n      dup4\n        /* \"GGWStake.sol\":3792:3820  start >= months[idx - 1].end */\n      lt\n      iszero\n        /* \"GGWStake.sol\":3784:3828  require(start >= months[idx - 1].end, \"Seq\") */\n      tag_203\n      jumpi\n      mload(0x40)\n      0x08c379a000000000000000000000000000000000000000000000000000000000\n      dup2\n      mstore\n      0x04\n      add\n      tag_204\n      swap1\n      tag_205\n      jump\t// in\n    tag_204:\n      mload(0x40)\n      dup1\n      swap2\n      sub\n      swap1\n      revert\n    tag_203:\n        /* \"GGWStake.sol\":3771:3828  if (idx > 0) require(start >= months[idx - 1].end, \"Seq\") */\n    tag_196:\n        /* \"GGWStake.sol\":3853:3859  months */\n      0x0b\n        /* \"GGWStake.sol\":3853:3866  months.length */\n      dup1\n      sload\n      swap1\n      pop\n        /* \"GGWStake.sol\":3849:3850  1 */\n      0x01\n        /* \"GGWStake.sol\":3843:3846  idx */\n      dup6\n        /* \"GGWStake.sol\":3843:3850  idx + 1 */\n      tag_206\n      swap2\n      swap1\n      tag_207\n      jump\t// in\n    tag_206:\n        /* \"GGWStake.sol\":3843:3866  idx + 1 < months.length */\n      lt\n        /* \"GGWStake.sol\":3839:3916  if (idx + 1 < months.length) require(end <= months[idx + 1].start, \"Overlap\") */\n      iszero\n      tag_208\n      jumpi\n        /* \"GGWStake.sol\":3883:3889  months */\n      0x0b\n        /* \"GGWStake.sol\":3896:3897  1 */\n      0x01\n        /* \"GGWStake.sol\":3890:3893  idx */\n      dup6\n        /* \"GGWStake.sol\":3890:3897  idx + 1 */\n      tag_209\n      swap2\n      swap1\n      tag_207\n      jump\t// in\n    tag_209:\n        /* \"GGWStake.sol\":3883:3898  months[idx + 1] */\n      dup2\n      sload\n      dup2\n      lt\n      tag_210\n      jumpi\n      tag_211\n      tag_201\n      jump\t// in\n    tag_211:\n    tag_210:\n      swap1\n      0x00\n      mstore\n      keccak256(0x00, 0x20)\n      swap1\n      0x03\n      mul\n      add\n        /* \"GGWStake.sol\":3883:3904  months[idx + 1].start */\n      0x00\n      add\n      sload\n        /* \"GGWStake.sol\":3876:3879  end */\n      dup3\n        /* \"GGWStake.sol\":3876:3904  end <= months[idx + 1].start */\n      gt\n      iszero\n        /* \"GGWStake.sol\":3868:3916  require(end <= months[idx + 1].start, \"Overlap\") */\n      tag_213\n      jumpi\n      mload(0x40)\n      0x08c379a000000000000000000000000000000000000000000000000000000000\n      dup2\n      mstore\n      0x04\n      add\n      tag_214\n      swap1\n      tag_215\n      jump\t// in\n    tag_214:\n      mload(0x40)\n      dup1\n      swap2\n      sub\n      swap1\n      revert\n    tag_213:\n        /* \"GGWStake.sol\":3839:3916  if (idx + 1 < months.length) require(end <= months[idx + 1].start, \"Overlap\") */\n    tag_208:\n        /* \"GGWStake.sol\":3943:3975  MonthConfig(start, end, rateBps) */\n      mload(0x40)\n      dup1\n      0x60\n      add\n      0x40\n      mstore\n      dup1\n        /* \"GGWStake.sol\":3955:3960  start */\n      dup5\n        /* \"GGWStake.sol\":3943:3975  MonthConfig(start, end, rateBps) */\n      dup2\n      mstore\n      0x20\n      add\n        /* \"GGWStake.sol\":3962:3965  end */\n      dup4\n        /* \"GGWStake.sol\":3943:3975  MonthConfig(start, end, rateBps) */\n      dup2\n      mstore\n      0x20\n      add\n        /* \"GGWStake.sol\":3967:3974  rateBps */\n      dup3\n        /* \"GGWStake.sol\":3943:3975  MonthConfig(start, end, rateBps) */\n      dup2\n      mstore\n      pop\n        /* \"GGWStake.sol\":3929:3935  months */\n      0x0b\n        /* \"GGWStake.sol\":3936:3939  idx */\n      dup6\n        /* \"GGWStake.sol\":3929:3940  months[idx] */\n      dup2\n      sload\n      dup2\n      lt\n      tag_216\n      jumpi\n      tag_217\n      tag_201\n      jump\t// in\n    tag_217:\n    tag_216:\n      swap1\n      0x00\n      mstore\n      keccak256(0x00, 0x20)\n      swap1\n      0x03\n      mul\n      add\n        /* \"GGWStake.sol\":3929:3975  months[idx] = MonthConfig(start, end, rateBps) */\n      0x00\n      dup3\n      add\n      mload\n      dup2\n      0x00\n      add\n      sstore\n      0x20\n      dup3\n      add\n      mload\n      dup2\n      0x01\n      add\n      sstore\n      0x40\n      dup3\n      add\n      mload\n      dup2\n      0x02\n      add\n      sstore\n      swap1\n      pop\n      pop\n        /* \"GGWStake.sol\":4003:4006  idx */\n      dup4\n        /* \"GGWStake.sol\":3991:4028  MonthEdited(idx, start, end, rateBps) */\n      0x68f039af08c3a62dae4b7e4244543803dce43c9c5a2ad9ef05fea8366f4c8623\n        /* \"GGWStake.sol\":4008:4013  start */\n      dup5\n        /* \"GGWStake.sol\":4015:4018  end */\n      dup5\n        /* \"GGWStake.sol\":4020:4027  rateBps */\n      dup5\n        /* \"GGWStake.sol\":3991:4028  MonthEdited(idx, start, end, rateBps) */\n      mload(0x40)\n      tag_219\n      swap4\n      swap3\n      swap2\n      swap1\n      tag_77\n      jump\t// in\n    tag_219:\n      mload(0x40)\n      dup1\n      swap2\n      sub\n      swap1\n      log2\n        /* \"GGWStake.sol\":3438:4036  function editMonth(uint256 idx, uint256 start, uint256 end, uint256 rateBps) external onlyOwner {... */\n      pop\n      pop\n      pop\n      pop\n      jump\t// out\n        /* \"GGWStake.sol\":4693:4731  uint256 public minLockAmount = 1 ether */\n    tag_54:\n      sload(0x0f)\n      dup2\n      jump\t// out\n        /* \"GGWStake.sol\":978:1027  mapping(address => uint256[]) public userDeposits */\n    tag_59:\n      mstore(0x20, 0x05)\n      dup2\n      0x00\n      mstore\n      keccak256(0x00, 0x40)\n      dup2\n      dup2\n      sload\n      dup2\n      lt\n      tag_220\n      jumpi\n      0x00\n      dup1\n      revert\n    tag_220:\n      swap1\n      0x00\n      mstore\n      keccak256(0x00, 0x20)\n      add\n      0x00\n      swap2\n      pop\n      swap2\n      pop\n      pop\n      sload\n      dup2\n      jump\t// out\n        /* \"GGWStake.sol\":4738:4858  function setMinLockAmount(uint256 newMinLockAmount) public onlyOwner {... */\n    tag_64:\n        /* \"GGWStake.sol\":311:316  owner */\n      0x01\n      0x00\n      swap1\n      sload\n      swap1\n      0x0100\n      exp\n      swap1\n      div\n      0xffffffffffffffffffffffffffffffffffffffff\n      and\n        /* \"GGWStake.sol\":297:316  msg.sender == owner */\n      0xffffffffffffffffffffffffffffffffffffffff\n      and\n        /* \"GGWStake.sol\":297:307  msg.sender */\n      caller\n        /* \"GGWStake.sol\":297:316  msg.sender == owner */\n      0xffffffffffffffffffffffffffffffffffffffff\n      and\n      eq\n        /* \"GGWStake.sol\":289:331  require(msg.sender == owner, \"Only owner\") */\n      tag_223\n      jumpi\n      mload(0x40)\n      0x08c379a000000000000000000000000000000000000000000000000000000000\n      dup2\n      mstore\n      0x04\n      add\n      tag_224\n      swap1\n      tag_181\n      jump\t// in\n    tag_224:\n      mload(0x40)\n      dup1\n      swap2\n      sub\n      swap1\n      revert\n    tag_223:\n        /* \"GGWStake.sol\":4834:4850  newMinLockAmount */\n      dup1\n        /* \"GGWStake.sol\":4818:4831  minLockAmount */\n      0x0f\n        /* \"GGWStake.sol\":4818:4850  minLockAmount = newMinLockAmount */\n      dup2\n      swap1\n      sstore\n      pop\n        /* \"GGWStake.sol\":4738:4858  function setMinLockAmount(uint256 newMinLockAmount) public onlyOwner {... */\n      pop\n      jump\t// out\n        /* \"GGWStake.sol\":2316:2417  function getTotalDeposits() external view returns (uint256) {... */\n    tag_66:\n        /* \"GGWStake.sol\":2367:2374  uint256 */\n      0x00\n        /* \"GGWStake.sol\":2394:2402  deposits */\n      0x07\n        /* \"GGWStake.sol\":2394:2409  deposits.length */\n      dup1\n      sload\n      swap1\n      pop\n        /* \"GGWStake.sol\":2387:2409  return deposits.length */\n      swap1\n      pop\n        /* \"GGWStake.sol\":2316:2417  function getTotalDeposits() external view returns (uint256) {... */\n      swap1\n      jump\t// out\n        /* \"GGWStake.sol\":2075:2202  function getDepositById(uint256 depositId) external view returns (Deposit memory) {... */\n    tag_70:\n        /* \"GGWStake.sol\":2141:2155  Deposit memory */\n      tag_227\n      tag_228\n      jump\t// in\n    tag_227:\n        /* \"GGWStake.sol\":2175:2183  deposits */\n      0x07\n        /* \"GGWStake.sol\":2184:2193  depositId */\n      dup3\n        /* \"GGWStake.sol\":2175:2194  deposits[depositId] */\n      dup2\n      sload\n      dup2\n      lt\n      tag_230\n      jumpi\n      tag_231\n      tag_201\n      jump\t// in\n    tag_231:\n    tag_230:\n      swap1\n      0x00\n      mstore\n      keccak256(0x00, 0x20)\n      swap1\n      0x08\n      mul\n      add\n        /* \"GGWStake.sol\":2168:2194  return deposits[depositId] */\n      mload(0x40)\n      dup1\n      0x0100\n      add\n      0x40\n      mstore\n      swap1\n      dup2\n      0x00\n      dup3\n      add\n      0x00\n      swap1\n      sload\n      swap1\n      0x0100\n      exp\n      swap1\n      div\n      0xffffffffffffffffffffffffffffffffffffffff\n      and\n      0xffffffffffffffffffffffffffffffffffffffff\n      and\n      0xffffffffffffffffffffffffffffffffffffffff\n      and\n      dup2\n      mstore\n      0x20\n      add\n      0x01\n      dup3\n      add\n      sload\n      dup2\n      mstore\n      0x20\n      add\n      0x02\n      dup3\n      add\n      sload\n      dup2\n      mstore\n      0x20\n      add\n      0x03\n      dup3\n      add\n      sload\n      dup2\n      mstore\n      0x20\n      add\n      0x04\n      dup3\n      add\n      sload\n      dup2\n      mstore\n      0x20\n      add\n      0x05\n      dup3\n      add\n      sload\n      dup2\n      mstore\n      0x20\n      add\n      0x06\n      dup3\n      add\n      sload\n      dup2\n      mstore\n      0x20\n      add\n      0x07\n      dup3\n      add\n      0x00\n      swap1\n      sload\n      swap1\n      0x0100\n      exp\n      swap1\n      div\n      0xff\n      and\n      iszero\n      iszero\n      iszero\n      iszero\n      dup2\n      mstore\n      pop\n      pop\n      swap1\n      pop\n        /* \"GGWStake.sol\":2075:2202  function getDepositById(uint256 depositId) external view returns (Deposit memory) {... */\n      swap2\n      swap1\n      pop\n      jump\t// out\n        /* \"GGWStake.sol\":1291:1318  MonthConfig[] public months */\n    tag_75:\n      0x0b\n      dup2\n      dup2\n      sload\n      dup2\n      lt\n      tag_233\n      jumpi\n      0x00\n      dup1\n      revert\n    tag_233:\n      swap1\n      0x00\n      mstore\n      keccak256(0x00, 0x20)\n      swap1\n      0x03\n      mul\n      add\n      0x00\n      swap2\n      pop\n      swap1\n      pop\n      dup1\n      0x00\n      add\n      sload\n      swap1\n      dup1\n      0x01\n      add\n      sload\n      swap1\n      dup1\n      0x02\n      add\n      sload\n      swap1\n      pop\n      dup4\n      jump\t// out\n        /* \"GGWStake.sol\":2700:2903  function addMonth(uint256 start, uint256 end, uint256 rateBps) external onlyOwner {... */\n    tag_81:\n        /* \"GGWStake.sol\":311:316  owner */\n      0x01\n      0x00\n      swap1\n      sload\n      swap1\n      0x0100\n      exp\n      swap1\n      div\n      0xffffffffffffffffffffffffffffffffffffffff\n      and\n        /* \"GGWStake.sol\":297:316  msg.sender == owner */\n      0xffffffffffffffffffffffffffffffffffffffff\n      and\n        /* \"GGWStake.sol\":297:307  msg.sender */\n      caller\n        /* \"GGWStake.sol\":297:316  msg.sender == owner */\n      0xffffffffffffffffffffffffffffffffffffffff\n      and\n      eq\n        /* \"GGWStake.sol\":289:331  require(msg.sender == owner, \"Only owner\") */\n      tag_236\n      jumpi\n      mload(0x40)\n      0x08c379a000000000000000000000000000000000000000000000000000000000\n      dup2\n      mstore\n      0x04\n      add\n      tag_237\n      swap1\n      tag_181\n      jump\t// in\n    tag_237:\n      mload(0x40)\n      dup1\n      swap2\n      sub\n      swap1\n      revert\n    tag_236:\n        /* \"GGWStake.sol\":2793:2829  _addSingleMonth(start, end, rateBps) */\n      tag_239\n        /* \"GGWStake.sol\":2809:2814  start */\n      dup4\n        /* \"GGWStake.sol\":2816:2819  end */\n      dup4\n        /* \"GGWStake.sol\":2821:2828  rateBps */\n      dup4\n        /* \"GGWStake.sol\":2793:2808  _addSingleMonth */\n      tag_240\n        /* \"GGWStake.sol\":2793:2829  _addSingleMonth(start, end, rateBps) */\n      jump\t// in\n    tag_239:\n        /* \"GGWStake.sol\":2872:2873  1 */\n      0x01\n        /* \"GGWStake.sol\":2856:2862  months */\n      0x0b\n        /* \"GGWStake.sol\":2856:2869  months.length */\n      dup1\n      sload\n      swap1\n      pop\n        /* \"GGWStake.sol\":2856:2873  months.length - 1 */\n      tag_241\n      swap2\n      swap1\n      tag_198\n      jump\t// in\n    tag_241:\n        /* \"GGWStake.sol\":2845:2895  MonthAdded(months.length - 1, start, end, rateBps) */\n      0x901d51af3f40466612c7be89ba349f0b5aa321186bb4de023367f1ca25acdced\n        /* \"GGWStake.sol\":2875:2880  start */\n      dup5\n        /* \"GGWStake.sol\":2882:2885  end */\n      dup5\n        /* \"GGWStake.sol\":2887:2894  rateBps */\n      dup5\n        /* \"GGWStake.sol\":2845:2895  MonthAdded(months.length - 1, start, end, rateBps) */\n      mload(0x40)\n      tag_242\n      swap4\n      swap3\n      swap2\n      swap1\n      tag_77\n      jump\t// in\n    tag_242:\n      mload(0x40)\n      dup1\n      swap2\n      sub\n      swap1\n      log2\n        /* \"GGWStake.sol\":2700:2903  function addMonth(uint256 start, uint256 end, uint256 rateBps) external onlyOwner {... */\n      pop\n      pop\n      pop\n      jump\t// out\n        /* \"GGWStake.sol\":1943:2067  function getUserDeposits(address user) external view returns (uint256[] memory) {... */\n    tag_85:\n        /* \"GGWStake.sol\":2005:2021  uint256[] memory */\n      0x60\n        /* \"GGWStake.sol\":2041:2053  userDeposits */\n      0x05\n        /* \"GGWStake.sol\":2041:2059  userDeposits[user] */\n      0x00\n        /* \"GGWStake.sol\":2054:2058  user */\n      dup4\n        /* \"GGWStake.sol\":2041:2059  userDeposits[user] */\n      0xffffffffffffffffffffffffffffffffffffffff\n      and\n      0xffffffffffffffffffffffffffffffffffffffff\n      and\n      dup2\n      mstore\n      0x20\n      add\n      swap1\n      dup2\n      mstore\n      0x20\n      add\n      0x00\n      keccak256\n        /* \"GGWStake.sol\":2034:2059  return userDeposits[user] */\n      dup1\n      sload\n      dup1\n      0x20\n      mul\n      0x20\n      add\n      mload(0x40)\n      swap1\n      dup2\n      add\n      0x40\n      mstore\n      dup1\n      swap3\n      swap2\n      swap1\n      dup2\n      dup2\n      mstore\n      0x20\n      add\n      dup3\n      dup1\n      sload\n      dup1\n      iszero\n      tag_244\n      jumpi\n      0x20\n      mul\n      dup3\n      add\n      swap2\n      swap1\n      0x00\n      mstore\n      keccak256(0x00, 0x20)\n      swap1\n    tag_245:\n      dup2\n      sload\n      dup2\n      mstore\n      0x20\n      add\n      swap1\n      0x01\n      add\n      swap1\n      dup1\n      dup4\n      gt\n      tag_245\n      jumpi\n    tag_244:\n      pop\n      pop\n      pop\n      pop\n      pop\n      swap1\n      pop\n        /* \"GGWStake.sol\":1943:2067  function getUserDeposits(address user) external view returns (uint256[] memory) {... */\n      swap2\n      swap1\n      pop\n      jump\t// out\n        /* \"GGWStake.sol\":13058:15433  function calculatePendingRewardForDeposit(uint256 depositId) public view returns (uint256) {... */\n    tag_90:\n        /* \"GGWStake.sol\":13140:13147  uint256 */\n      0x00\n        /* \"GGWStake.sol\":13160:13178  Deposit memory dep */\n      0x00\n        /* \"GGWStake.sol\":13181:13189  deposits */\n      0x07\n        /* \"GGWStake.sol\":13190:13199  depositId */\n      dup4\n        /* \"GGWStake.sol\":13181:13200  deposits[depositId] */\n      dup2\n      sload\n      dup2\n      lt\n      tag_247\n      jumpi\n      tag_248\n      tag_201\n      jump\t// in\n    tag_248:\n    tag_247:\n      swap1\n      0x00\n      mstore\n      keccak256(0x00, 0x20)\n      swap1\n      0x08\n      mul\n      add\n        /* \"GGWStake.sol\":13160:13200  Deposit memory dep = deposits[depositId] */\n      mload(0x40)\n      dup1\n      0x0100\n      add\n      0x40\n      mstore\n      swap1\n      dup2\n      0x00\n      dup3\n      add\n      0x00\n      swap1\n      sload\n      swap1\n      0x0100\n      exp\n      swap1\n      div\n      0xffffffffffffffffffffffffffffffffffffffff\n      and\n      0xffffffffffffffffffffffffffffffffffffffff\n      and\n      0xffffffffffffffffffffffffffffffffffffffff\n      and\n      dup2\n      mstore\n      0x20\n      add\n      0x01\n      dup3\n      add\n      sload\n      dup2\n      mstore\n      0x20\n      add\n      0x02\n      dup3\n      add\n      sload\n      dup2\n      mstore\n      0x20\n      add\n      0x03\n      dup3\n      add\n      sload\n      dup2\n      mstore\n      0x20\n      add\n      0x04\n      dup3\n      add\n      sload\n      dup2\n      mstore\n      0x20\n      add\n      0x05\n      dup3\n      add\n      sload\n      dup2\n      mstore\n      0x20\n      add\n      0x06\n      dup3\n      add\n      sload\n      dup2\n      mstore\n      0x20\n      add\n      0x07\n      dup3\n      add\n      0x00\n      swap1\n      sload\n      swap1\n      0x0100\n      exp\n      swap1\n      div\n      0xff\n      and\n      iszero\n      iszero\n      iszero\n      iszero\n      dup2\n      mstore\n      pop\n      pop\n      swap1\n      pop\n        /* \"GGWStake.sol\":13229:13230  0 */\n      0x00\n        /* \"GGWStake.sol\":13215:13218  dep */\n      dup2\n        /* \"GGWStake.sol\":13215:13225  dep.amount */\n      0x20\n      add\n      mload\n        /* \"GGWStake.sol\":13215:13230  dep.amount == 0 */\n      eq\n        /* \"GGWStake.sol\":13215:13245  dep.amount == 0 || !dep.active */\n      dup1\n      tag_250\n      jumpi\n      pop\n        /* \"GGWStake.sol\":13235:13238  dep */\n      dup1\n        /* \"GGWStake.sol\":13235:13245  dep.active */\n      0xe0\n      add\n      mload\n        /* \"GGWStake.sol\":13234:13245  !dep.active */\n      iszero\n        /* \"GGWStake.sol\":13215:13245  dep.amount == 0 || !dep.active */\n    tag_250:\n        /* \"GGWStake.sol\":13211:13255  if (dep.amount == 0 || !dep.active) return 0 */\n      iszero\n      tag_251\n      jumpi\n        /* \"GGWStake.sol\":13254:13255  0 */\n      0x00\n        /* \"GGWStake.sol\":13247:13255  return 0 */\n      swap2\n      pop\n      pop\n      jump(tag_246)\n        /* \"GGWStake.sol\":13211:13255  if (dep.amount == 0 || !dep.active) return 0 */\n    tag_251:\n        /* \"GGWStake.sol\":13268:13289  uint256 startMonthIdx */\n      0x00\n        /* \"GGWStake.sol\":13292:13295  dep */\n      dup2\n        /* \"GGWStake.sol\":13292:13315  dep.lastAccruedMonthIdx */\n      0xc0\n      add\n      mload\n        /* \"GGWStake.sol\":13268:13315  uint256 startMonthIdx = dep.lastAccruedMonthIdx */\n      swap1\n      pop\n        /* \"GGWStake.sol\":13326:13345  uint256 endMonthIdx */\n      0x00\n        /* \"GGWStake.sol\":13348:13389  _findLastCompletedMonth(startMonthIdx, 0) */\n      tag_252\n        /* \"GGWStake.sol\":13372:13385  startMonthIdx */\n      dup3\n        /* \"GGWStake.sol\":13387:13388  0 */\n      0x00\n        /* \"GGWStake.sol\":13348:13371  _findLastCompletedMonth */\n      tag_253\n        /* \"GGWStake.sol\":13348:13389  _findLastCompletedMonth(startMonthIdx, 0) */\n      jump\t// in\n    tag_252:\n        /* \"GGWStake.sol\":13326:13389  uint256 endMonthIdx = _findLastCompletedMonth(startMonthIdx, 0) */\n      swap1\n      pop\n        /* \"GGWStake.sol\":13419:13432  startMonthIdx */\n      dup2\n        /* \"GGWStake.sol\":13404:13415  endMonthIdx */\n      dup2\n        /* \"GGWStake.sol\":13404:13432  endMonthIdx <= startMonthIdx */\n      gt\n        /* \"GGWStake.sol\":13400:13442  if (endMonthIdx <= startMonthIdx) return 0 */\n      tag_254\n      jumpi\n        /* \"GGWStake.sol\":13441:13442  0 */\n      0x00\n        /* \"GGWStake.sol\":13434:13442  return 0 */\n      swap4\n      pop\n      pop\n      pop\n      pop\n      jump(tag_246)\n        /* \"GGWStake.sol\":13400:13442  if (endMonthIdx <= startMonthIdx) return 0 */\n    tag_254:\n        /* \"GGWStake.sol\":13455:13469  uint256 reward */\n      0x00\n        /* \"GGWStake.sol\":13472:13473  0 */\n      0x00\n        /* \"GGWStake.sol\":13455:13473  uint256 reward = 0 */\n      swap1\n      pop\n        /* \"GGWStake.sol\":13484:13498  uint256 amount */\n      0x00\n        /* \"GGWStake.sol\":13501:13504  dep */\n      dup5\n        /* \"GGWStake.sol\":13501:13511  dep.amount */\n      0x20\n      add\n      mload\n        /* \"GGWStake.sol\":13484:13511  uint256 amount = dep.amount */\n      swap1\n      pop\n        /* \"GGWStake.sol\":13529:13538  uint256 i */\n      0x00\n        /* \"GGWStake.sol\":13541:13554  startMonthIdx */\n      dup5\n        /* \"GGWStake.sol\":13529:13554  uint256 i = startMonthIdx */\n      swap1\n      pop\n        /* \"GGWStake.sol\":13524:15400  for (uint256 i = startMonthIdx; i < endMonthIdx; i++) {... */\n    tag_255:\n        /* \"GGWStake.sol\":13560:13571  endMonthIdx */\n      dup4\n        /* \"GGWStake.sol\":13556:13557  i */\n      dup2\n        /* \"GGWStake.sol\":13556:13571  i < endMonthIdx */\n      lt\n        /* \"GGWStake.sol\":13524:15400  for (uint256 i = startMonthIdx; i < endMonthIdx; i++) {... */\n      iszero\n      tag_256\n      jumpi\n        /* \"GGWStake.sol\":13593:13617  MonthConfig memory month */\n      0x00\n        /* \"GGWStake.sol\":13620:13626  months */\n      0x0b\n        /* \"GGWStake.sol\":13627:13628  i */\n      dup3\n        /* \"GGWStake.sol\":13620:13629  months[i] */\n      dup2\n      sload\n      dup2\n      lt\n      tag_258\n      jumpi\n      tag_259\n      tag_201\n      jump\t// in\n    tag_259:\n    tag_258:\n      swap1\n      0x00\n      mstore\n      keccak256(0x00, 0x20)\n      swap1\n      0x03\n      mul\n      add\n        /* \"GGWStake.sol\":13593:13629  MonthConfig memory month = months[i] */\n      mload(0x40)\n      dup1\n      0x60\n      add\n      0x40\n      mstore\n      swap1\n      dup2\n      0x00\n      dup3\n      add\n      sload\n      dup2\n      mstore\n      0x20\n      add\n      0x01\n      dup3\n      add\n      sload\n      dup2\n      mstore\n      0x20\n      add\n      0x02\n      dup3\n      add\n      sload\n      dup2\n      mstore\n      pop\n      pop\n      swap1\n      pop\n        /* \"GGWStake.sol\":13644:13659  uint256 rateBps */\n      0x00\n        /* \"GGWStake.sol\":13662:13685  _getEffectiveRateBps(i) */\n      tag_261\n        /* \"GGWStake.sol\":13683:13684  i */\n      dup4\n        /* \"GGWStake.sol\":13662:13682  _getEffectiveRateBps */\n      tag_262\n        /* \"GGWStake.sol\":13662:13685  _getEffectiveRateBps(i) */\n      jump\t// in\n    tag_261:\n        /* \"GGWStake.sol\":13644:13685  uint256 rateBps = _getEffectiveRateBps(i) */\n      swap1\n      pop\n        /* \"GGWStake.sol\":13700:13721  uint256 monthlyReward */\n      0x00\n        /* \"GGWStake.sol\":13745:13751  10_000 */\n      0x2710\n        /* \"GGWStake.sol\":13734:13741  rateBps */\n      dup3\n        /* \"GGWStake.sol\":13725:13731  amount */\n      dup7\n        /* \"GGWStake.sol\":13725:13741  amount * rateBps */\n      tag_263\n      swap2\n      swap1\n      tag_264\n      jump\t// in\n    tag_263:\n        /* \"GGWStake.sol\":13724:13751  (amount * rateBps) / 10_000 */\n      tag_265\n      swap2\n      swap1\n      tag_266\n      jump\t// in\n    tag_265:\n        /* \"GGWStake.sol\":13700:13751  uint256 monthlyReward = (amount * rateBps) / 10_000 */\n      swap1\n      pop\n        /* \"GGWStake.sol\":13884:13887  dep */\n      dup9\n        /* \"GGWStake.sol\":13884:13898  dep.monthIndex */\n      0x40\n      add\n      mload\n        /* \"GGWStake.sol\":13879:13880  i */\n      dup5\n        /* \"GGWStake.sol\":13879:13898  i == dep.monthIndex */\n      sub\n        /* \"GGWStake.sol\":13875:15389  if (i == dep.monthIndex) {... */\n      tag_267\n      jumpi\n        /* \"GGWStake.sol\":14022:14040  uint256 monthStart */\n      0x00\n        /* \"GGWStake.sol\":14043:14048  month */\n      dup4\n        /* \"GGWStake.sol\":14043:14054  month.start */\n      0x00\n      add\n      mload\n        /* \"GGWStake.sol\":14022:14054  uint256 monthStart = month.start */\n      swap1\n      pop\n        /* \"GGWStake.sol\":14073:14089  uint256 monthEnd */\n      0x00\n        /* \"GGWStake.sol\":14092:14097  month */\n      dup5\n        /* \"GGWStake.sol\":14092:14101  month.end */\n      0x20\n      add\n      mload\n        /* \"GGWStake.sol\":14073:14101  uint256 monthEnd = month.end */\n      swap1\n      pop\n        /* \"GGWStake.sol\":14120:14139  uint256 monthLength */\n      0x00\n        /* \"GGWStake.sol\":14153:14163  monthStart */\n      dup3\n        /* \"GGWStake.sol\":14142:14150  monthEnd */\n      dup3\n        /* \"GGWStake.sol\":14142:14163  monthEnd - monthStart */\n      tag_268\n      swap2\n      swap1\n      tag_198\n      jump\t// in\n    tag_268:\n        /* \"GGWStake.sol\":14120:14163  uint256 monthLength = monthEnd - monthStart */\n      swap1\n      pop\n        /* \"GGWStake.sol\":14297:14319  uint256 effectiveStart */\n      0x00\n        /* \"GGWStake.sol\":14341:14351  monthStart */\n      dup4\n        /* \"GGWStake.sol\":14322:14325  dep */\n      dup14\n        /* \"GGWStake.sol\":14322:14338  dep.depositStart */\n      0x60\n      add\n      mload\n        /* \"GGWStake.sol\":14322:14351  dep.depositStart > monthStart */\n      gt\n        /* \"GGWStake.sol\":14322:14383  dep.depositStart > monthStart ? dep.depositStart : monthStart */\n      tag_269\n      jumpi\n        /* \"GGWStake.sol\":14373:14383  monthStart */\n      dup4\n        /* \"GGWStake.sol\":14322:14383  dep.depositStart > monthStart ? dep.depositStart : monthStart */\n      jump(tag_270)\n    tag_269:\n        /* \"GGWStake.sol\":14354:14357  dep */\n      dup13\n        /* \"GGWStake.sol\":14354:14370  dep.depositStart */\n      0x60\n      add\n      mload\n        /* \"GGWStake.sol\":14322:14383  dep.depositStart > monthStart ? dep.depositStart : monthStart */\n    tag_270:\n        /* \"GGWStake.sol\":14297:14383  uint256 effectiveStart = dep.depositStart > monthStart ? dep.depositStart : monthStart */\n      swap1\n      pop\n        /* \"GGWStake.sol\":14556:14576  uint256 effectiveEnd */\n      0x00\n        /* \"GGWStake.sol\":14579:14587  monthEnd */\n      dup4\n        /* \"GGWStake.sol\":14556:14587  uint256 effectiveEnd = monthEnd */\n      swap1\n      pop\n        /* \"GGWStake.sol\":14630:14642  effectiveEnd */\n      dup1\n        /* \"GGWStake.sol\":14612:14626  effectiveStart */\n      dup3\n        /* \"GGWStake.sol\":14612:14642  effectiveStart >= effectiveEnd */\n      lt\n        /* \"GGWStake.sol\":14608:14855  if (effectiveStart >= effectiveEnd) {... */\n      tag_271\n      jumpi\n        /* \"GGWStake.sol\":14827:14835  continue */\n      pop\n      pop\n      pop\n      pop\n      pop\n      pop\n      pop\n      pop\n      jump(tag_257)\n        /* \"GGWStake.sol\":14608:14855  if (effectiveStart >= effectiveEnd) {... */\n    tag_271:\n        /* \"GGWStake.sol\":14875:14896  uint256 activeSeconds */\n      0x00\n        /* \"GGWStake.sol\":14914:14928  effectiveStart */\n      dup3\n        /* \"GGWStake.sol\":14899:14911  effectiveEnd */\n      dup3\n        /* \"GGWStake.sol\":14899:14928  effectiveEnd - effectiveStart */\n      tag_272\n      swap2\n      swap1\n      tag_198\n      jump\t// in\n    tag_272:\n        /* \"GGWStake.sol\":14875:14928  uint256 activeSeconds = effectiveEnd - effectiveStart */\n      swap1\n      pop\n        /* \"GGWStake.sol\":15222:15233  monthLength */\n      dup4\n        /* \"GGWStake.sol\":15205:15218  activeSeconds */\n      dup2\n        /* \"GGWStake.sol\":15189:15202  monthlyReward */\n      dup9\n        /* \"GGWStake.sol\":15189:15218  monthlyReward * activeSeconds */\n      tag_273\n      swap2\n      swap1\n      tag_264\n      jump\t// in\n    tag_273:\n        /* \"GGWStake.sol\":15188:15233  (monthlyReward * activeSeconds) / monthLength */\n      tag_274\n      swap2\n      swap1\n      tag_266\n      jump\t// in\n    tag_274:\n        /* \"GGWStake.sol\":15178:15233  reward += (monthlyReward * activeSeconds) / monthLength */\n      dup13\n      tag_275\n      swap2\n      swap1\n      tag_207\n      jump\t// in\n    tag_275:\n      swap12\n      pop\n        /* \"GGWStake.sol\":13900:15249  {... */\n      pop\n      pop\n      pop\n      pop\n      pop\n      pop\n        /* \"GGWStake.sol\":13875:15389  if (i == dep.monthIndex) {... */\n      jump(tag_276)\n    tag_267:\n        /* \"GGWStake.sol\":15360:15373  monthlyReward */\n      dup1\n        /* \"GGWStake.sol\":15350:15373  reward += monthlyReward */\n      dup7\n      tag_277\n      swap2\n      swap1\n      tag_207\n      jump\t// in\n    tag_277:\n      swap6\n      pop\n        /* \"GGWStake.sol\":13875:15389  if (i == dep.monthIndex) {... */\n    tag_276:\n        /* \"GGWStake.sol\":13578:15400  {... */\n      pop\n      pop\n      pop\n        /* \"GGWStake.sol\":13524:15400  for (uint256 i = startMonthIdx; i < endMonthIdx; i++) {... */\n    tag_257:\n        /* \"GGWStake.sol\":13573:13576  i++ */\n      dup1\n      dup1\n      0x01\n      add\n      swap2\n      pop\n      pop\n        /* \"GGWStake.sol\":13524:15400  for (uint256 i = startMonthIdx; i < endMonthIdx; i++) {... */\n      jump(tag_255)\n    tag_256:\n      pop\n        /* \"GGWStake.sol\":15419:15425  reward */\n      dup2\n        /* \"GGWStake.sol\":15412:15425  return reward */\n      swap6\n      pop\n      pop\n      pop\n      pop\n      pop\n      pop\n        /* \"GGWStake.sol\":13058:15433  function calculatePendingRewardForDeposit(uint256 depositId) public view returns (uint256) {... */\n    tag_246:\n      swap2\n      swap1\n      pop\n      jump\t// out\n        /* \"GGWStake.sol\":2911:3430  function addMonthsBatch(... */\n    tag_95:\n        /* \"GGWStake.sol\":311:316  owner */\n      0x01\n      0x00\n      swap1\n      sload\n      swap1\n      0x0100\n      exp\n      swap1\n      div\n      0xffffffffffffffffffffffffffffffffffffffff\n      and\n        /* \"GGWStake.sol\":297:316  msg.sender == owner */\n      0xffffffffffffffffffffffffffffffffffffffff\n      and\n        /* \"GGWStake.sol\":297:307  msg.sender */\n      caller\n        /* \"GGWStake.sol\":297:316  msg.sender == owner */\n      0xffffffffffffffffffffffffffffffffffffffff\n      and\n      eq\n        /* \"GGWStake.sol\":289:331  require(msg.sender == owner, \"Only owner\") */\n      tag_279\n      jumpi\n      mload(0x40)\n      0x08c379a000000000000000000000000000000000000000000000000000000000\n      dup2\n      mstore\n      0x04\n      add\n      tag_280\n      swap1\n      tag_181\n      jump\t// in\n    tag_280:\n      mload(0x40)\n      dup1\n      swap2\n      sub\n      swap1\n      revert\n    tag_279:\n        /* \"GGWStake.sol\":3102:3106  ends */\n      dup4\n      dup4\n        /* \"GGWStake.sol\":3102:3113  ends.length */\n      swap1\n      pop\n        /* \"GGWStake.sol\":3085:3091  starts */\n      dup7\n      dup7\n        /* \"GGWStake.sol\":3085:3098  starts.length */\n      swap1\n      pop\n        /* \"GGWStake.sol\":3085:3113  starts.length == ends.length */\n      eq\n        /* \"GGWStake.sol\":3085:3146  starts.length == ends.length && starts.length == rates.length */\n      dup1\n      iszero\n      tag_282\n      jumpi\n      pop\n        /* \"GGWStake.sol\":3134:3139  rates */\n      dup2\n      dup2\n        /* \"GGWStake.sol\":3134:3146  rates.length */\n      swap1\n      pop\n        /* \"GGWStake.sol\":3117:3123  starts */\n      dup7\n      dup7\n        /* \"GGWStake.sol\":3117:3130  starts.length */\n      swap1\n      pop\n        /* \"GGWStake.sol\":3117:3146  starts.length == rates.length */\n      eq\n        /* \"GGWStake.sol\":3085:3146  starts.length == ends.length && starts.length == rates.length */\n    tag_282:\n        /* \"GGWStake.sol\":3077:3166  require(starts.length == ends.length && starts.length == rates.length, \"Length mismatch\") */\n      tag_283\n      jumpi\n      mload(0x40)\n      0x08c379a000000000000000000000000000000000000000000000000000000000\n      dup2\n      mstore\n      0x04\n      add\n      tag_284\n      swap1\n      tag_285\n      jump\t// in\n    tag_284:\n      mload(0x40)\n      dup1\n      swap2\n      sub\n      swap1\n      revert\n    tag_283:\n        /* \"GGWStake.sol\":3201:3202  0 */\n      0x00\n        /* \"GGWStake.sol\":3185:3191  starts */\n      dup7\n      dup7\n        /* \"GGWStake.sol\":3185:3198  starts.length */\n      swap1\n      pop\n        /* \"GGWStake.sol\":3185:3202  starts.length > 0 */\n      gt\n        /* \"GGWStake.sol\":3177:3212  require(starts.length > 0, \"Empty\") */\n      tag_286\n      jumpi\n      mload(0x40)\n      0x08c379a000000000000000000000000000000000000000000000000000000000\n      dup2\n      mstore\n      0x04\n      add\n      tag_287\n      swap1\n      tag_288\n      jump\t// in\n    tag_287:\n      mload(0x40)\n      dup1\n      swap2\n      sub\n      swap1\n      revert\n    tag_286:\n        /* \"GGWStake.sol\":3230:3239  uint256 i */\n      0x00\n        /* \"GGWStake.sol\":3242:3243  0 */\n      0x00\n        /* \"GGWStake.sol\":3230:3243  uint256 i = 0 */\n      swap1\n      pop\n        /* \"GGWStake.sol\":3225:3341  for (uint256 i = 0; i < starts.length; i++) {... */\n    tag_289:\n        /* \"GGWStake.sol\":3249:3255  starts */\n      dup7\n      dup7\n        /* \"GGWStake.sol\":3249:3262  starts.length */\n      swap1\n      pop\n        /* \"GGWStake.sol\":3245:3246  i */\n      dup2\n        /* \"GGWStake.sol\":3245:3262  i < starts.length */\n      lt\n        /* \"GGWStake.sol\":3225:3341  for (uint256 i = 0; i < starts.length; i++) {... */\n      iszero\n      tag_290\n      jumpi\n        /* \"GGWStake.sol\":3284:3329  _addSingleMonth(starts[i], ends[i], rates[i]) */\n      tag_292\n        /* \"GGWStake.sol\":3300:3306  starts */\n      dup8\n      dup8\n        /* \"GGWStake.sol\":3307:3308  i */\n      dup4\n        /* \"GGWStake.sol\":3300:3309  starts[i] */\n      dup2\n      dup2\n      lt\n      tag_293\n      jumpi\n      tag_294\n      tag_201\n      jump\t// in\n    tag_294:\n    tag_293:\n      swap1\n      pop\n      0x20\n      mul\n      add\n      calldataload\n        /* \"GGWStake.sol\":3311:3315  ends */\n      dup7\n      dup7\n        /* \"GGWStake.sol\":3316:3317  i */\n      dup5\n        /* \"GGWStake.sol\":3311:3318  ends[i] */\n      dup2\n      dup2\n      lt\n      tag_295\n      jumpi\n      tag_296\n      tag_201\n      jump\t// in\n    tag_296:\n    tag_295:\n      swap1\n      pop\n      0x20\n      mul\n      add\n      calldataload\n        /* \"GGWStake.sol\":3320:3325  rates */\n      dup6\n      dup6\n        /* \"GGWStake.sol\":3326:3327  i */\n      dup6\n        /* \"GGWStake.sol\":3320:3328  rates[i] */\n      dup2\n      dup2\n      lt\n      tag_297\n      jumpi\n      tag_298\n      tag_201\n      jump\t// in\n    tag_298:\n    tag_297:\n      swap1\n      pop\n      0x20\n      mul\n      add\n      calldataload\n        /* \"GGWStake.sol\":3284:3299  _addSingleMonth */\n      tag_240\n        /* \"GGWStake.sol\":3284:3329  _addSingleMonth(starts[i], ends[i], rates[i]) */\n      jump\t// in\n    tag_292:\n        /* \"GGWStake.sol\":3264:3267  i++ */\n      dup1\n      dup1\n      0x01\n      add\n      swap2\n      pop\n      pop\n        /* \"GGWStake.sol\":3225:3341  for (uint256 i = 0; i < starts.length; i++) {... */\n      jump(tag_289)\n    tag_290:\n      pop\n        /* \"GGWStake.sol\":3356:3422  MonthsBatchAdded(months.length - starts.length, months.length - 1) */\n      0xab080e234ebab87937f1d48c107ecb8ab6361d9012a0670705e920b9cffe1011\n        /* \"GGWStake.sol\":3389:3395  starts */\n      dup7\n      dup7\n        /* \"GGWStake.sol\":3389:3402  starts.length */\n      swap1\n      pop\n        /* \"GGWStake.sol\":3373:3379  months */\n      0x0b\n        /* \"GGWStake.sol\":3373:3386  months.length */\n      dup1\n      sload\n      swap1\n      pop\n        /* \"GGWStake.sol\":3373:3402  months.length - starts.length */\n      tag_299\n      swap2\n      swap1\n      tag_198\n      jump\t// in\n    tag_299:\n        /* \"GGWStake.sol\":3420:3421  1 */\n      0x01\n        /* \"GGWStake.sol\":3404:3410  months */\n      0x0b\n        /* \"GGWStake.sol\":3404:3417  months.length */\n      dup1\n      sload\n      swap1\n      pop\n        /* \"GGWStake.sol\":3404:3421  months.length - 1 */\n      tag_300\n      swap2\n      swap1\n      tag_198\n      jump\t// in\n    tag_300:\n        /* \"GGWStake.sol\":3356:3422  MonthsBatchAdded(months.length - starts.length, months.length - 1) */\n      mload(0x40)\n      tag_301\n      swap3\n      swap2\n      swap1\n      tag_302\n      jump\t// in\n    tag_301:\n      mload(0x40)\n      dup1\n      swap2\n      sub\n      swap1\n      log1\n        /* \"GGWStake.sol\":2911:3430  function addMonthsBatch(... */\n      pop\n      pop\n      pop\n      pop\n      pop\n      pop\n      jump\t// out\n        /* \"GGWStake.sol\":1209:1259  mapping(uint256 => uint256) public rewardsByMonths */\n    tag_98:\n      mstore(0x20, 0x0a)\n      dup1\n      0x00\n      mstore\n      keccak256(0x00, 0x40)\n      0x00\n      swap2\n      pop\n      swap1\n      pop\n      sload\n      dup2\n      jump\t// out\n        /* \"GGWStake.sol\":1325:1379  mapping (uint256 => uint256) public monthDepositsCount */\n    tag_102:\n      mstore(0x20, 0x0c)\n      dup1\n      0x00\n      mstore\n      keccak256(0x00, 0x40)\n      0x00\n      swap2\n      pop\n      swap1\n      pop\n      sload\n      dup2\n      jump\t// out\n        /* \"GGWStake.sol\":933:971  mapping(address => bool) public isUser */\n    tag_106:\n      mstore(0x20, 0x04)\n      dup1\n      0x00\n      mstore\n      keccak256(0x00, 0x40)\n      0x00\n      swap2\n      pop\n      sload\n      swap1\n      0x0100\n      exp\n      swap1\n      div\n      0xff\n      and\n      dup2\n      jump\t// out\n        /* \"GGWStake.sol\":4864:4984  function setMinLockMonths(uint256 newMinLockMonths) public onlyOwner {... */\n    tag_111:\n        /* \"GGWStake.sol\":311:316  owner */\n      0x01\n      0x00\n      swap1\n      sload\n      swap1\n      0x0100\n      exp\n      swap1\n      div\n      0xffffffffffffffffffffffffffffffffffffffff\n      and\n        /* \"GGWStake.sol\":297:316  msg.sender == owner */\n      0xffffffffffffffffffffffffffffffffffffffff\n      and\n        /* \"GGWStake.sol\":297:307  msg.sender */\n      caller\n        /* \"GGWStake.sol\":297:316  msg.sender == owner */\n      0xffffffffffffffffffffffffffffffffffffffff\n      and\n      eq\n        /* \"GGWStake.sol\":289:331  require(msg.sender == owner, \"Only owner\") */\n      tag_304\n      jumpi\n      mload(0x40)\n      0x08c379a000000000000000000000000000000000000000000000000000000000\n      dup2\n      mstore\n      0x04\n      add\n      tag_305\n      swap1\n      tag_181\n      jump\t// in\n    tag_305:\n      mload(0x40)\n      dup1\n      swap2\n      sub\n      swap1\n      revert\n    tag_304:\n        /* \"GGWStake.sol\":4960:4976  newMinLockMonths */\n      dup1\n        /* \"GGWStake.sol\":4944:4957  minLockMonths */\n      0x0e\n        /* \"GGWStake.sol\":4944:4976  minLockMonths = newMinLockMonths */\n      dup2\n      swap1\n      sstore\n      pop\n        /* \"GGWStake.sol\":4864:4984  function setMinLockMonths(uint256 newMinLockMonths) public onlyOwner {... */\n      pop\n      jump\t// out\n        /* \"GGWStake.sol\":1137:1166  uint256 public openedDeposits */\n    tag_113:\n      sload(0x08)\n      dup2\n      jump\t// out\n        /* \"GGWStake.sol\":7203:8169  function withdrawPrincipalAndRewards(uint256 depositId) external nonReentrant {... */\n    tag_117:\n        /* \"@openzeppelin/contracts/utils/ReentrancyGuard.sol\":2500:2521  _nonReentrantBefore() */\n      tag_308\n        /* \"@openzeppelin/contracts/utils/ReentrancyGuard.sol\":2500:2519  _nonReentrantBefore */\n      tag_309\n        /* \"@openzeppelin/contracts/utils/ReentrancyGuard.sol\":2500:2521  _nonReentrantBefore() */\n      jump\t// in\n    tag_308:\n        /* \"GGWStake.sol\":7292:7311  Deposit storage dep */\n      0x00\n        /* \"GGWStake.sol\":7314:7322  deposits */\n      0x07\n        /* \"GGWStake.sol\":7323:7332  depositId */\n      dup3\n        /* \"GGWStake.sol\":7314:7333  deposits[depositId] */\n      dup2\n      sload\n      dup2\n      lt\n      tag_311\n      jumpi\n      tag_312\n      tag_201\n      jump\t// in\n    tag_312:\n    tag_311:\n      swap1\n      0x00\n      mstore\n      keccak256(0x00, 0x20)\n      swap1\n      0x08\n      mul\n      add\n        /* \"GGWStake.sol\":7292:7333  Deposit storage dep = deposits[depositId] */\n      swap1\n      pop\n        /* \"GGWStake.sol\":7352:7355  dep */\n      dup1\n        /* \"GGWStake.sol\":7352:7362  dep.active */\n      0x07\n      add\n      0x00\n      swap1\n      sload\n      swap1\n      0x0100\n      exp\n      swap1\n      div\n      0xff\n      and\n        /* \"GGWStake.sol\":7344:7375  require(dep.active, \"Inactive\") */\n      tag_314\n      jumpi\n      mload(0x40)\n      0x08c379a000000000000000000000000000000000000000000000000000000000\n      dup2\n      mstore\n      0x04\n      add\n      tag_315\n      swap1\n      tag_316\n      jump\t// in\n    tag_315:\n      mload(0x40)\n      dup1\n      swap2\n      sub\n      swap1\n      revert\n    tag_314:\n        /* \"GGWStake.sol\":7407:7417  msg.sender */\n      caller\n        /* \"GGWStake.sol\":7394:7417  dep.owner == msg.sender */\n      0xffffffffffffffffffffffffffffffffffffffff\n      and\n        /* \"GGWStake.sol\":7394:7397  dep */\n      dup2\n        /* \"GGWStake.sol\":7394:7403  dep.owner */\n      0x00\n      add\n      0x00\n      swap1\n      sload\n      swap1\n      0x0100\n      exp\n      swap1\n      div\n      0xffffffffffffffffffffffffffffffffffffffff\n      and\n        /* \"GGWStake.sol\":7394:7417  dep.owner == msg.sender */\n      0xffffffffffffffffffffffffffffffffffffffff\n      and\n      eq\n        /* \"GGWStake.sol\":7386:7431  require(dep.owner == msg.sender, \"Not owner\") */\n      tag_317\n      jumpi\n      mload(0x40)\n      0x08c379a000000000000000000000000000000000000000000000000000000000\n      dup2\n      mstore\n      0x04\n      add\n      tag_318\n      swap1\n      tag_319\n      jump\t// in\n    tag_318:\n      mload(0x40)\n      dup1\n      swap2\n      sub\n      swap1\n      revert\n    tag_317:\n        /* \"GGWStake.sol\":7444:7462  uint256 currentIdx */\n      0x00\n        /* \"GGWStake.sol\":7465:7488  _getCurrentMonthIndex() */\n      tag_320\n        /* \"GGWStake.sol\":7465:7486  _getCurrentMonthIndex */\n      tag_321\n        /* \"GGWStake.sol\":7465:7488  _getCurrentMonthIndex() */\n      jump\t// in\n    tag_320:\n        /* \"GGWStake.sol\":7444:7488  uint256 currentIdx = _getCurrentMonthIndex() */\n      swap1\n      pop\n        /* \"GGWStake.sol\":7521:7524  dep */\n      dup2\n        /* \"GGWStake.sol\":7521:7541  dep.unlockMonthIndex */\n      0x05\n      add\n      sload\n        /* \"GGWStake.sol\":7507:7517  currentIdx */\n      dup2\n        /* \"GGWStake.sol\":7507:7541  currentIdx >= dep.unlockMonthIndex */\n      lt\n      iszero\n        /* \"GGWStake.sol\":7499:7552  require(currentIdx >= dep.unlockMonthIndex, \"Locked\") */\n      tag_322\n      jumpi\n      mload(0x40)\n      0x08c379a000000000000000000000000000000000000000000000000000000000\n      dup2\n      mstore\n      0x04\n      add\n      tag_323\n      swap1\n      tag_324\n      jump\t// in\n    tag_323:\n      mload(0x40)\n      dup1\n      swap2\n      sub\n      swap1\n      revert\n    tag_322:\n        /* \"GGWStake.sol\":7565:7579  uint256 reward */\n      0x00\n        /* \"GGWStake.sol\":7582:7625  calculatePendingRewardForDeposit(depositId) */\n      tag_325\n        /* \"GGWStake.sol\":7615:7624  depositId */\n      dup5\n        /* \"GGWStake.sol\":7582:7614  calculatePendingRewardForDeposit */\n      tag_90\n        /* \"GGWStake.sol\":7582:7625  calculatePendingRewardForDeposit(depositId) */\n      jump\t// in\n    tag_325:\n        /* \"GGWStake.sol\":7565:7625  uint256 reward = calculatePendingRewardForDeposit(depositId) */\n      swap1\n      pop\n        /* \"GGWStake.sol\":7636:7649  uint256 total */\n      0x00\n        /* \"GGWStake.sol\":7665:7671  reward */\n      dup2\n        /* \"GGWStake.sol\":7652:7655  dep */\n      dup5\n        /* \"GGWStake.sol\":7652:7662  dep.amount */\n      0x01\n      add\n      sload\n        /* \"GGWStake.sol\":7652:7671  dep.amount + reward */\n      tag_326\n      swap2\n      swap1\n      tag_207\n      jump\t// in\n    tag_326:\n        /* \"GGWStake.sol\":7636:7671  uint256 total = dep.amount + reward */\n      swap1\n      pop\n        /* \"GGWStake.sol\":7702:7705  dep */\n      dup4\n        /* \"GGWStake.sol\":7702:7712  dep.amount */\n      0x01\n      add\n      sload\n        /* \"GGWStake.sol\":7684:7698  depositsAmount */\n      0x09\n      0x00\n        /* \"GGWStake.sol\":7684:7712  depositsAmount -= dep.amount */\n      dup3\n      dup3\n      sload\n      tag_327\n      swap2\n      swap1\n      tag_198\n      jump\t// in\n    tag_327:\n      swap3\n      pop\n      pop\n      dup2\n      swap1\n      sstore\n      pop\n        /* \"GGWStake.sol\":7738:7739  0 */\n      0x00\n        /* \"GGWStake.sol\":7725:7728  dep */\n      dup5\n        /* \"GGWStake.sol\":7725:7735  dep.amount */\n      0x01\n      add\n        /* \"GGWStake.sol\":7725:7739  dep.amount = 0 */\n      dup2\n      swap1\n      sstore\n      pop\n        /* \"GGWStake.sol\":7763:7768  false */\n      0x00\n        /* \"GGWStake.sol\":7750:7753  dep */\n      dup5\n        /* \"GGWStake.sol\":7750:7760  dep.active */\n      0x07\n      add\n      0x00\n        /* \"GGWStake.sol\":7750:7768  dep.active = false */\n      0x0100\n      exp\n      dup2\n      sload\n      dup2\n      0xff\n      mul\n      not\n      and\n      swap1\n      dup4\n      iszero\n      iszero\n      mul\n      or\n      swap1\n      sstore\n      pop\n        /* \"GGWStake.sol\":7799:7814  block.timestamp */\n      timestamp\n        /* \"GGWStake.sol\":7779:7782  dep */\n      dup5\n        /* \"GGWStake.sol\":7779:7796  dep.depositClosed */\n      0x04\n      add\n        /* \"GGWStake.sol\":7779:7814  dep.depositClosed = block.timestamp */\n      dup2\n      swap1\n      sstore\n      pop\n        /* \"GGWStake.sol\":7827:7841  uint256 endIdx */\n      0x00\n        /* \"GGWStake.sol\":7844:7895  _findLastCompletedMonth(dep.lastAccruedMonthIdx, 0) */\n      tag_328\n        /* \"GGWStake.sol\":7868:7871  dep */\n      dup6\n        /* \"GGWStake.sol\":7868:7891  dep.lastAccruedMonthIdx */\n      0x06\n      add\n      sload\n        /* \"GGWStake.sol\":7893:7894  0 */\n      0x00\n        /* \"GGWStake.sol\":7844:7867  _findLastCompletedMonth */\n      tag_253\n        /* \"GGWStake.sol\":7844:7895  _findLastCompletedMonth(dep.lastAccruedMonthIdx, 0) */\n      jump\t// in\n    tag_328:\n        /* \"GGWStake.sol\":7827:7895  uint256 endIdx = _findLastCompletedMonth(dep.lastAccruedMonthIdx, 0) */\n      swap1\n      pop\n        /* \"GGWStake.sol\":7932:7938  endIdx */\n      dup1\n        /* \"GGWStake.sol\":7906:7909  dep */\n      dup6\n        /* \"GGWStake.sol\":7906:7929  dep.lastAccruedMonthIdx */\n      0x06\n      add\n        /* \"GGWStake.sol\":7906:7938  dep.lastAccruedMonthIdx = endIdx */\n      dup2\n      swap1\n      sstore\n      pop\n        /* \"GGWStake.sol\":7971:7981  currentIdx */\n      dup4\n        /* \"GGWStake.sol\":7949:7968  lastKnownMonthIndex */\n      0x06\n        /* \"GGWStake.sol\":7949:7981  lastKnownMonthIndex = currentIdx */\n      dup2\n      swap1\n      sstore\n      pop\n        /* \"GGWStake.sol\":7992:8006  openedDeposits */\n      0x08\n      0x00\n        /* \"GGWStake.sol\":7992:8008  openedDeposits-- */\n      dup2\n      sload\n      dup1\n      swap3\n      swap2\n      swap1\n      tag_329\n      swap1\n      tag_330\n      jump\t// in\n    tag_329:\n      swap2\n      swap1\n      pop\n      sstore\n      pop\n        /* \"GGWStake.sol\":8037:8049  stakingToken */\n      immutable(\"0x1a65db4f2ea95c4a38ef67ec9eb02656311df27569f1d2e5f15fb9ffe8498721\")\n        /* \"GGWStake.sol\":8037:8058  stakingToken.transfer */\n      0xffffffffffffffffffffffffffffffffffffffff\n      and\n      0xa9059cbb\n        /* \"GGWStake.sol\":8059:8069  msg.sender */\n      caller\n        /* \"GGWStake.sol\":8071:8076  total */\n      dup5\n        /* \"GGWStake.sol\":8037:8077  stakingToken.transfer(msg.sender, total) */\n      mload(0x40)\n      dup4\n      0xffffffff\n      and\n      0xe0\n      shl\n      dup2\n      mstore\n      0x04\n      add\n      tag_331\n      swap3\n      swap2\n      swap1\n      tag_332\n      jump\t// in\n    tag_331:\n      0x20\n      mload(0x40)\n      dup1\n      dup4\n      sub\n      dup2\n      0x00\n      dup8\n      gas\n      call\n      iszero\n      dup1\n      iszero\n      tag_334\n      jumpi\n      returndatacopy(0x00, 0x00, returndatasize)\n      revert(0x00, returndatasize)\n    tag_334:\n      pop\n      pop\n      pop\n      pop\n      mload(0x40)\n      returndatasize\n      not(0x1f)\n      0x1f\n      dup3\n      add\n      and\n      dup3\n      add\n      dup1\n      0x40\n      mstore\n      pop\n      dup2\n      add\n      swap1\n      tag_335\n      swap2\n      swap1\n      tag_336\n      jump\t// in\n    tag_335:\n        /* \"GGWStake.sol\":8029:8097  require(stakingToken.transfer(msg.sender, total), \"Transfer failed\") */\n      tag_337\n      jumpi\n      mload(0x40)\n      0x08c379a000000000000000000000000000000000000000000000000000000000\n      dup2\n      mstore\n      0x04\n      add\n      tag_338\n      swap1\n      tag_339\n      jump\t// in\n    tag_338:\n      mload(0x40)\n      dup1\n      swap2\n      sub\n      swap1\n      revert\n    tag_337:\n        /* \"GGWStake.sol\":8132:8142  msg.sender */\n      caller\n        /* \"GGWStake.sol\":8113:8161  PrincipalWithdrawn(msg.sender, depositId, total) */\n      0xffffffffffffffffffffffffffffffffffffffff\n      and\n      0x217ea3989b9d3112d2133a930216f444b7fbcaeaa4d5bc0220d099fdc928e71e\n        /* \"GGWStake.sol\":8144:8153  depositId */\n      dup8\n        /* \"GGWStake.sol\":8155:8160  total */\n      dup5\n        /* \"GGWStake.sol\":8113:8161  PrincipalWithdrawn(msg.sender, depositId, total) */\n      mload(0x40)\n      tag_340\n      swap3\n      swap2\n      swap1\n      tag_302\n      jump\t// in\n    tag_340:\n      mload(0x40)\n      dup1\n      swap2\n      sub\n      swap1\n      log2\n        /* \"GGWStake.sol\":7281:8169  {... */\n      pop\n      pop\n      pop\n      pop\n      pop\n        /* \"@openzeppelin/contracts/utils/ReentrancyGuard.sol\":2542:2562  _nonReentrantAfter() */\n      tag_341\n        /* \"@openzeppelin/contracts/utils/ReentrancyGuard.sol\":2542:2560  _nonReentrantAfter */\n      tag_342\n        /* \"@openzeppelin/contracts/utils/ReentrancyGuard.sol\":2542:2562  _nonReentrantAfter() */\n      jump\t// in\n    tag_341:\n        /* \"GGWStake.sol\":7203:8169  function withdrawPrincipalAndRewards(uint256 depositId) external nonReentrant {... */\n      pop\n      jump\t// out\n        /* \"GGWStake.sol\":8406:10949  function calculateReward(... */\n    tag_120:\n        /* \"GGWStake.sol\":8576:8583  uint256 */\n      0x00\n        /* \"GGWStake.sol\":8610:8611  0 */\n      0x00\n        /* \"GGWStake.sol\":8600:8606  amount */\n      dup6\n        /* \"GGWStake.sol\":8600:8611  amount == 0 */\n      eq\n        /* \"GGWStake.sol\":8600:8630  amount == 0 || lockMonths == 0 */\n      dup1\n      tag_344\n      jumpi\n      pop\n        /* \"GGWStake.sol\":8629:8630  0 */\n      0x00\n        /* \"GGWStake.sol\":8615:8625  lockMonths */\n      dup4\n        /* \"GGWStake.sol\":8615:8630  lockMonths == 0 */\n      eq\n        /* \"GGWStake.sol\":8600:8630  amount == 0 || lockMonths == 0 */\n    tag_344:\n        /* \"GGWStake.sol\":8600:8664  amount == 0 || lockMonths == 0 || startMonthIdx >= months.length */\n      dup1\n      tag_345\n      jumpi\n      pop\n        /* \"GGWStake.sol\":8651:8657  months */\n      0x0b\n        /* \"GGWStake.sol\":8651:8664  months.length */\n      dup1\n      sload\n      swap1\n      pop\n        /* \"GGWStake.sol\":8634:8647  startMonthIdx */\n      dup5\n        /* \"GGWStake.sol\":8634:8664  startMonthIdx >= months.length */\n      lt\n      iszero\n        /* \"GGWStake.sol\":8600:8664  amount == 0 || lockMonths == 0 || startMonthIdx >= months.length */\n    tag_345:\n        /* \"GGWStake.sol\":8596:8701  if (amount == 0 || lockMonths == 0 || startMonthIdx >= months.length) {... */\n      iszero\n      tag_346\n      jumpi\n        /* \"GGWStake.sol\":8688:8689  0 */\n      0x00\n        /* \"GGWStake.sol\":8681:8689  return 0 */\n      swap1\n      pop\n      jump(tag_343)\n        /* \"GGWStake.sol\":8596:8701  if (amount == 0 || lockMonths == 0 || startMonthIdx >= months.length) {... */\n    tag_346:\n        /* \"GGWStake.sol\":8713:8732  uint256 endMonthIdx */\n      0x00\n        /* \"GGWStake.sol\":8751:8761  lockMonths */\n      dup4\n        /* \"GGWStake.sol\":8735:8748  startMonthIdx */\n      dup6\n        /* \"GGWStake.sol\":8735:8761  startMonthIdx + lockMonths */\n      tag_347\n      swap2\n      swap1\n      tag_207\n      jump\t// in\n    tag_347:\n        /* \"GGWStake.sol\":8713:8761  uint256 endMonthIdx = startMonthIdx + lockMonths */\n      swap1\n      pop\n        /* \"GGWStake.sol\":8790:8796  months */\n      0x0b\n        /* \"GGWStake.sol\":8790:8803  months.length */\n      dup1\n      sload\n      swap1\n      pop\n        /* \"GGWStake.sol\":8776:8787  endMonthIdx */\n      dup2\n        /* \"GGWStake.sol\":8776:8803  endMonthIdx > months.length */\n      gt\n        /* \"GGWStake.sol\":8772:8916  if (endMonthIdx > months.length) {... */\n      iszero\n      tag_348\n      jumpi\n        /* \"GGWStake.sol\":8834:8840  months */\n      0x0b\n        /* \"GGWStake.sol\":8834:8847  months.length */\n      dup1\n      sload\n      swap1\n      pop\n        /* \"GGWStake.sol\":8820:8847  endMonthIdx = months.length */\n      swap1\n      pop\n        /* \"GGWStake.sol\":8881:8894  startMonthIdx */\n      dup5\n        /* \"GGWStake.sol\":8866:8877  endMonthIdx */\n      dup2\n        /* \"GGWStake.sol\":8866:8894  endMonthIdx <= startMonthIdx */\n      gt\n        /* \"GGWStake.sol\":8862:8904  if (endMonthIdx <= startMonthIdx) return 0 */\n      tag_349\n      jumpi\n        /* \"GGWStake.sol\":8903:8904  0 */\n      0x00\n        /* \"GGWStake.sol\":8896:8904  return 0 */\n      swap2\n      pop\n      pop\n      jump(tag_343)\n        /* \"GGWStake.sol\":8862:8904  if (endMonthIdx <= startMonthIdx) return 0 */\n    tag_349:\n        /* \"GGWStake.sol\":8772:8916  if (endMonthIdx > months.length) {... */\n    tag_348:\n        /* \"GGWStake.sol\":8946:8947  0 */\n      0x00\n        /* \"GGWStake.sol\":8930:8942  depositStart */\n      dup4\n        /* \"GGWStake.sol\":8930:8947  depositStart == 0 */\n      sub\n        /* \"GGWStake.sol\":8926:8979  if (depositStart == 0) depositStart = block.timestamp */\n      tag_350\n      jumpi\n        /* \"GGWStake.sol\":8964:8979  block.timestamp */\n      timestamp\n        /* \"GGWStake.sol\":8949:8979  depositStart = block.timestamp */\n      swap3\n      pop\n        /* \"GGWStake.sol\":8926:8979  if (depositStart == 0) depositStart = block.timestamp */\n    tag_350:\n        /* \"GGWStake.sol\":9542:9559  uint256 actualEnd */\n      0x00\n        /* \"GGWStake.sol\":9562:9573  endMonthIdx */\n      dup2\n        /* \"GGWStake.sol\":9542:9573  uint256 actualEnd = endMonthIdx */\n      swap1\n      pop\n        /* \"GGWStake.sol\":9657:9671  uint256 reward */\n      0x00\n        /* \"GGWStake.sol\":9674:9675  0 */\n      0x00\n        /* \"GGWStake.sol\":9657:9675  uint256 reward = 0 */\n      swap1\n      pop\n        /* \"GGWStake.sol\":9693:9702  uint256 i */\n      0x00\n        /* \"GGWStake.sol\":9705:9718  startMonthIdx */\n      dup8\n        /* \"GGWStake.sol\":9693:9718  uint256 i = startMonthIdx */\n      swap1\n      pop\n        /* \"GGWStake.sol\":9688:10916  for (uint256 i = startMonthIdx; i < actualEnd; i++) {... */\n    tag_351:\n        /* \"GGWStake.sol\":9724:9733  actualEnd */\n      dup3\n        /* \"GGWStake.sol\":9720:9721  i */\n      dup2\n        /* \"GGWStake.sol\":9720:9733  i < actualEnd */\n      lt\n        /* \"GGWStake.sol\":9688:10916  for (uint256 i = startMonthIdx; i < actualEnd; i++) {... */\n      iszero\n      tag_352\n      jumpi\n        /* \"GGWStake.sol\":9764:9770  months */\n      0x0b\n        /* \"GGWStake.sol\":9764:9777  months.length */\n      dup1\n      sload\n      swap1\n      pop\n        /* \"GGWStake.sol\":9759:9760  i */\n      dup2\n        /* \"GGWStake.sol\":9759:9777  i >= months.length */\n      lt\n        /* \"GGWStake.sol\":9755:9784  if (i >= months.length) break */\n      iszero\n        /* \"GGWStake.sol\":9779:9784  break */\n      tag_352\n        /* \"GGWStake.sol\":9755:9784  if (i >= months.length) break */\n      jumpi\n        /* \"GGWStake.sol\":9801:9825  MonthConfig memory month */\n      0x00\n        /* \"GGWStake.sol\":9828:9834  months */\n      0x0b\n        /* \"GGWStake.sol\":9835:9836  i */\n      dup3\n        /* \"GGWStake.sol\":9828:9837  months[i] */\n      dup2\n      sload\n      dup2\n      lt\n      tag_355\n      jumpi\n      tag_356\n      tag_201\n      jump\t// in\n    tag_356:\n    tag_355:\n      swap1\n      0x00\n      mstore\n      keccak256(0x00, 0x20)\n      swap1\n      0x03\n      mul\n      add\n        /* \"GGWStake.sol\":9801:9837  MonthConfig memory month = months[i] */\n      mload(0x40)\n      dup1\n      0x60\n      add\n      0x40\n      mstore\n      swap1\n      dup2\n      0x00\n      dup3\n      add\n      sload\n      dup2\n      mstore\n      0x20\n      add\n      0x01\n      dup3\n      add\n      sload\n      dup2\n      mstore\n      0x20\n      add\n      0x02\n      dup3\n      add\n      sload\n      dup2\n      mstore\n      pop\n      pop\n      swap1\n      pop\n        /* \"GGWStake.sol\":9852:9867  uint256 rateBps */\n      0x00\n        /* \"GGWStake.sol\":9870:9893  _getEffectiveRateBps(i) */\n      tag_358\n        /* \"GGWStake.sol\":9891:9892  i */\n      dup4\n        /* \"GGWStake.sol\":9870:9890  _getEffectiveRateBps */\n      tag_262\n        /* \"GGWStake.sol\":9870:9893  _getEffectiveRateBps(i) */\n      jump\t// in\n    tag_358:\n        /* \"GGWStake.sol\":9852:9893  uint256 rateBps = _getEffectiveRateBps(i) */\n      swap1\n      pop\n        /* \"GGWStake.sol\":9908:9929  uint256 monthlyReward */\n      0x00\n        /* \"GGWStake.sol\":9953:9959  10_000 */\n      0x2710\n        /* \"GGWStake.sol\":9942:9949  rateBps */\n      dup3\n        /* \"GGWStake.sol\":9933:9939  amount */\n      dup14\n        /* \"GGWStake.sol\":9933:9949  amount * rateBps */\n      tag_359\n      swap2\n      swap1\n      tag_264\n      jump\t// in\n    tag_359:\n        /* \"GGWStake.sol\":9932:9959  (amount * rateBps) / 10_000 */\n      tag_360\n      swap2\n      swap1\n      tag_266\n      jump\t// in\n    tag_360:\n        /* \"GGWStake.sol\":9908:9959  uint256 monthlyReward = (amount * rateBps) / 10_000 */\n      swap1\n      pop\n        /* \"GGWStake.sol\":9985:9998  startMonthIdx */\n      dup11\n        /* \"GGWStake.sol\":9980:9981  i */\n      dup5\n        /* \"GGWStake.sol\":9980:9998  i == startMonthIdx */\n      sub\n        /* \"GGWStake.sol\":9976:10905  if (i == startMonthIdx) {... */\n      tag_361\n      jumpi\n        /* \"GGWStake.sol\":10117:10135  uint256 monthStart */\n      0x00\n        /* \"GGWStake.sol\":10138:10143  month */\n      dup4\n        /* \"GGWStake.sol\":10138:10149  month.start */\n      0x00\n      add\n      mload\n        /* \"GGWStake.sol\":10117:10149  uint256 monthStart = month.start */\n      swap1\n      pop\n        /* \"GGWStake.sol\":10168:10184  uint256 monthEnd */\n      0x00\n        /* \"GGWStake.sol\":10187:10192  month */\n      dup5\n        /* \"GGWStake.sol\":10187:10196  month.end */\n      0x20\n      add\n      mload\n        /* \"GGWStake.sol\":10168:10196  uint256 monthEnd = month.end */\n      swap1\n      pop\n        /* \"GGWStake.sol\":10215:10234  uint256 monthLength */\n      0x00\n        /* \"GGWStake.sol\":10248:10258  monthStart */\n      dup3\n        /* \"GGWStake.sol\":10237:10245  monthEnd */\n      dup3\n        /* \"GGWStake.sol\":10237:10258  monthEnd - monthStart */\n      tag_362\n      swap2\n      swap1\n      tag_198\n      jump\t// in\n    tag_362:\n        /* \"GGWStake.sol\":10215:10258  uint256 monthLength = monthEnd - monthStart */\n      swap1\n      pop\n        /* \"GGWStake.sol\":10279:10301  uint256 effectiveStart */\n      0x00\n        /* \"GGWStake.sol\":10319:10329  monthStart */\n      dup4\n        /* \"GGWStake.sol\":10304:10316  depositStart */\n      dup14\n        /* \"GGWStake.sol\":10304:10329  depositStart > monthStart */\n      gt\n        /* \"GGWStake.sol\":10304:10357  depositStart > monthStart ? depositStart : monthStart */\n      tag_363\n      jumpi\n        /* \"GGWStake.sol\":10347:10357  monthStart */\n      dup4\n        /* \"GGWStake.sol\":10304:10357  depositStart > monthStart ? depositStart : monthStart */\n      jump(tag_364)\n    tag_363:\n        /* \"GGWStake.sol\":10332:10344  depositStart */\n      dup13\n        /* \"GGWStake.sol\":10304:10357  depositStart > monthStart ? depositStart : monthStart */\n    tag_364:\n        /* \"GGWStake.sol\":10279:10357  uint256 effectiveStart = depositStart > monthStart ? depositStart : monthStart */\n      swap1\n      pop\n        /* \"GGWStake.sol\":10376:10396  uint256 effectiveEnd */\n      0x00\n        /* \"GGWStake.sol\":10399:10407  monthEnd */\n      dup4\n        /* \"GGWStake.sol\":10376:10407  uint256 effectiveEnd = monthEnd */\n      swap1\n      pop\n        /* \"GGWStake.sol\":10518:10530  effectiveEnd */\n      dup1\n        /* \"GGWStake.sol\":10500:10514  effectiveStart */\n      dup3\n        /* \"GGWStake.sol\":10500:10530  effectiveStart >= effectiveEnd */\n      lt\n        /* \"GGWStake.sol\":10496:10583  if (effectiveStart >= effectiveEnd) {... */\n      tag_365\n      jumpi\n        /* \"GGWStake.sol\":10555:10563  continue */\n      pop\n      pop\n      pop\n      pop\n      pop\n      pop\n      pop\n      pop\n      jump(tag_353)\n        /* \"GGWStake.sol\":10496:10583  if (effectiveStart >= effectiveEnd) {... */\n    tag_365:\n        /* \"GGWStake.sol\":10603:10624  uint256 activeSeconds */\n      0x00\n        /* \"GGWStake.sol\":10642:10656  effectiveStart */\n      dup3\n        /* \"GGWStake.sol\":10627:10639  effectiveEnd */\n      dup3\n        /* \"GGWStake.sol\":10627:10656  effectiveEnd - effectiveStart */\n      tag_366\n      swap2\n      swap1\n      tag_198\n      jump\t// in\n    tag_366:\n        /* \"GGWStake.sol\":10603:10656  uint256 activeSeconds = effectiveEnd - effectiveStart */\n      swap1\n      pop\n        /* \"GGWStake.sol\":10694:10695  0 */\n      0x00\n        /* \"GGWStake.sol\":10679:10690  monthLength */\n      dup5\n        /* \"GGWStake.sol\":10679:10695  monthLength == 0 */\n      sub\n        /* \"GGWStake.sol\":10675:10705  if (monthLength == 0) continue */\n      tag_367\n      jumpi\n        /* \"GGWStake.sol\":10697:10705  continue */\n      pop\n      pop\n      pop\n      pop\n      pop\n      pop\n      pop\n      pop\n      pop\n      jump(tag_353)\n        /* \"GGWStake.sol\":10675:10705  if (monthLength == 0) continue */\n    tag_367:\n        /* \"GGWStake.sol\":10770:10781  monthLength */\n      dup4\n        /* \"GGWStake.sol\":10753:10766  activeSeconds */\n      dup2\n        /* \"GGWStake.sol\":10737:10750  monthlyReward */\n      dup9\n        /* \"GGWStake.sol\":10737:10766  monthlyReward * activeSeconds */\n      tag_368\n      swap2\n      swap1\n      tag_264\n      jump\t// in\n    tag_368:\n        /* \"GGWStake.sol\":10736:10781  (monthlyReward * activeSeconds) / monthLength */\n      tag_369\n      swap2\n      swap1\n      tag_266\n      jump\t// in\n    tag_369:\n        /* \"GGWStake.sol\":10726:10781  reward += (monthlyReward * activeSeconds) / monthLength */\n      dup12\n      tag_370\n      swap2\n      swap1\n      tag_207\n      jump\t// in\n    tag_370:\n      swap11\n      pop\n        /* \"GGWStake.sol\":10000:10797  {... */\n      pop\n      pop\n      pop\n      pop\n      pop\n      pop\n        /* \"GGWStake.sol\":9976:10905  if (i == startMonthIdx) {... */\n      jump(tag_371)\n    tag_361:\n        /* \"GGWStake.sol\":10876:10889  monthlyReward */\n      dup1\n        /* \"GGWStake.sol\":10866:10889  reward += monthlyReward */\n      dup6\n      tag_372\n      swap2\n      swap1\n      tag_207\n      jump\t// in\n    tag_372:\n      swap5\n      pop\n        /* \"GGWStake.sol\":9976:10905  if (i == startMonthIdx) {... */\n    tag_371:\n        /* \"GGWStake.sol\":9740:10916  {... */\n      pop\n      pop\n      pop\n        /* \"GGWStake.sol\":9688:10916  for (uint256 i = startMonthIdx; i < actualEnd; i++) {... */\n    tag_353:\n        /* \"GGWStake.sol\":9735:9738  i++ */\n      dup1\n      dup1\n      0x01\n      add\n      swap2\n      pop\n      pop\n        /* \"GGWStake.sol\":9688:10916  for (uint256 i = startMonthIdx; i < actualEnd; i++) {... */\n      jump(tag_351)\n    tag_352:\n      pop\n        /* \"GGWStake.sol\":10935:10941  reward */\n      dup1\n        /* \"GGWStake.sol\":10928:10941  return reward */\n      swap4\n      pop\n      pop\n      pop\n      pop\n        /* \"GGWStake.sol\":8406:10949  function calculateReward(... */\n    tag_343:\n      swap5\n      swap4\n      pop\n      pop\n      pop\n      pop\n      jump\t// out\n        /* \"GGWStake.sol\":788:824  IERC20 public immutable stakingToken */\n    tag_123:\n      immutable(\"0x1a65db4f2ea95c4a38ef67ec9eb02656311df27569f1d2e5f15fb9ffe8498721\")\n      dup2\n      jump\t// out\n        /* \"GGWStake.sol\":226:246  address public owner */\n    tag_127:\n      0x01\n      0x00\n      swap1\n      sload\n      swap1\n      0x0100\n      exp\n      swap1\n      div\n      0xffffffffffffffffffffffffffffffffffffffff\n      and\n      dup2\n      jump\t// out\n        /* \"GGWStake.sol\":2460:2662  function setGlobalRateBps(uint256 _rateBps) external onlyOwner {... */\n    tag_132:\n        /* \"GGWStake.sol\":311:316  owner */\n      0x01\n      0x00\n      swap1\n      sload\n      swap1\n      0x0100\n      exp\n      swap1\n      div\n      0xffffffffffffffffffffffffffffffffffffffff\n      and\n        /* \"GGWStake.sol\":297:316  msg.sender == owner */\n      0xffffffffffffffffffffffffffffffffffffffff\n      and\n        /* \"GGWStake.sol\":297:307  msg.sender */\n      caller\n        /* \"GGWStake.sol\":297:316  msg.sender == owner */\n      0xffffffffffffffffffffffffffffffffffffffff\n      and\n      eq\n        /* \"GGWStake.sol\":289:331  require(msg.sender == owner, \"Only owner\") */\n      tag_374\n      jumpi\n      mload(0x40)\n      0x08c379a000000000000000000000000000000000000000000000000000000000\n      dup2\n      mstore\n      0x04\n      add\n      tag_375\n      swap1\n      tag_181\n      jump\t// in\n    tag_375:\n      mload(0x40)\n      dup1\n      swap2\n      sub\n      swap1\n      revert\n    tag_374:\n        /* \"GGWStake.sol\":2554:2560  10_000 */\n      0x2710\n        /* \"GGWStake.sol\":2542:2550  _rateBps */\n      dup2\n        /* \"GGWStake.sol\":2542:2560  _rateBps <= 10_000 */\n      gt\n      iszero\n        /* \"GGWStake.sol\":2534:2576  require(_rateBps <= 10_000, \"Rate > 100%\") */\n      tag_377\n      jumpi\n      mload(0x40)\n      0x08c379a000000000000000000000000000000000000000000000000000000000\n      dup2\n      mstore\n      0x04\n      add\n      tag_378\n      swap1\n      tag_192\n      jump\t// in\n    tag_378:\n      mload(0x40)\n      dup1\n      swap2\n      sub\n      swap1\n      revert\n    tag_377:\n        /* \"GGWStake.sol\":2603:2611  _rateBps */\n      dup1\n        /* \"GGWStake.sol\":2587:2600  globalRateBps */\n      0x02\n        /* \"GGWStake.sol\":2587:2611  globalRateBps = _rateBps */\n      dup2\n      swap1\n      sstore\n      pop\n        /* \"GGWStake.sol\":2627:2654  GlobalRateUpdated(_rateBps) */\n      0x71ca8c1a2bc00717637fb3e9d048da574b351106cfcf0832e2dfe20f4e633dcf\n        /* \"GGWStake.sol\":2645:2653  _rateBps */\n      dup2\n        /* \"GGWStake.sol\":2627:2654  GlobalRateUpdated(_rateBps) */\n      mload(0x40)\n      tag_379\n      swap2\n      swap1\n      tag_48\n      jump\t// in\n    tag_379:\n      mload(0x40)\n      dup1\n      swap2\n      sub\n      swap1\n      log1\n        /* \"GGWStake.sol\":2460:2662  function setGlobalRateBps(uint256 _rateBps) external onlyOwner {... */\n      pop\n      jump\t// out\n        /* \"GGWStake.sol\":2210:2308  function getTotalUsers() external view returns (uint256) {... */\n    tag_134:\n        /* \"GGWStake.sol\":2258:2265  uint256 */\n      0x00\n        /* \"GGWStake.sol\":2285:2293  allUsers */\n      0x03\n        /* \"GGWStake.sol\":2285:2300  allUsers.length */\n      dup1\n      sload\n      swap1\n      pop\n        /* \"GGWStake.sol\":2278:2300  return allUsers.length */\n      swap1\n      pop\n        /* \"GGWStake.sol\":2210:2308  function getTotalUsers() external view returns (uint256) {... */\n      swap1\n      jump\t// out\n        /* \"GGWStake.sol\":1386:1441  mapping (uint256 => uint256) public monthDepositsAmount */\n    tag_138:\n      mstore(0x20, 0x0d)\n      dup1\n      0x00\n      mstore\n      keccak256(0x00, 0x40)\n      0x00\n      swap2\n      pop\n      swap1\n      pop\n      sload\n      dup2\n      jump\t// out\n        /* \"GGWStake.sol\":901:926  address[] public allUsers */\n    tag_142:\n      0x03\n      dup2\n      dup2\n      sload\n      dup2\n      lt\n      tag_381\n      jumpi\n      0x00\n      dup1\n      revert\n    tag_381:\n      swap1\n      0x00\n      mstore\n      keccak256(0x00, 0x20)\n      add\n      0x00\n      swap2\n      pop\n      sload\n      swap1\n      0x0100\n      exp\n      swap1\n      div\n      0xffffffffffffffffffffffffffffffffffffffff\n      and\n      dup2\n      jump\t// out\n        /* \"GGWStake.sol\":4044:4289  function deleteLastMonth() external onlyOwner {... */\n    tag_145:\n        /* \"GGWStake.sol\":311:316  owner */\n      0x01\n      0x00\n      swap1\n      sload\n      swap1\n      0x0100\n      exp\n      swap1\n      div\n      0xffffffffffffffffffffffffffffffffffffffff\n      and\n        /* \"GGWStake.sol\":297:316  msg.sender == owner */\n      0xffffffffffffffffffffffffffffffffffffffff\n      and\n        /* \"GGWStake.sol\":297:307  msg.sender */\n      caller\n        /* \"GGWStake.sol\":297:316  msg.sender == owner */\n      0xffffffffffffffffffffffffffffffffffffffff\n      and\n      eq\n        /* \"GGWStake.sol\":289:331  require(msg.sender == owner, \"Only owner\") */\n      tag_384\n      jumpi\n      mload(0x40)\n      0x08c379a000000000000000000000000000000000000000000000000000000000\n      dup2\n      mstore\n      0x04\n      add\n      tag_385\n      swap1\n      tag_181\n      jump\t// in\n    tag_385:\n      mload(0x40)\n      dup1\n      swap2\n      sub\n      swap1\n      revert\n    tag_384:\n        /* \"GGWStake.sol\":4125:4126  0 */\n      0x00\n        /* \"GGWStake.sol\":4109:4115  months */\n      0x0b\n        /* \"GGWStake.sol\":4109:4122  months.length */\n      dup1\n      sload\n      swap1\n      pop\n        /* \"GGWStake.sol\":4109:4126  months.length > 0 */\n      gt\n        /* \"GGWStake.sol\":4101:4135  require(months.length > 0, \"None\") */\n      tag_387\n      jumpi\n      mload(0x40)\n      0x08c379a000000000000000000000000000000000000000000000000000000000\n      dup2\n      mstore\n      0x04\n      add\n      tag_388\n      swap1\n      tag_389\n      jump\t// in\n    tag_388:\n      mload(0x40)\n      dup1\n      swap2\n      sub\n      swap1\n      revert\n    tag_387:\n        /* \"GGWStake.sol\":4188:4203  block.timestamp */\n      timestamp\n        /* \"GGWStake.sol\":4154:4160  months */\n      0x0b\n        /* \"GGWStake.sol\":4177:4178  1 */\n      0x01\n        /* \"GGWStake.sol\":4161:4167  months */\n      0x0b\n        /* \"GGWStake.sol\":4161:4174  months.length */\n      dup1\n      sload\n      swap1\n      pop\n        /* \"GGWStake.sol\":4161:4178  months.length - 1 */\n      tag_390\n      swap2\n      swap1\n      tag_198\n      jump\t// in\n    tag_390:\n        /* \"GGWStake.sol\":4154:4179  months[months.length - 1] */\n      dup2\n      sload\n      dup2\n      lt\n      tag_391\n      jumpi\n      tag_392\n      tag_201\n      jump\t// in\n    tag_392:\n    tag_391:\n      swap1\n      0x00\n      mstore\n      keccak256(0x00, 0x20)\n      swap1\n      0x03\n      mul\n      add\n        /* \"GGWStake.sol\":4154:4185  months[months.length - 1].start */\n      0x00\n      add\n      sload\n        /* \"GGWStake.sol\":4154:4203  months[months.length - 1].start > block.timestamp */\n      gt\n        /* \"GGWStake.sol\":4146:4215  require(months[months.length - 1].start > block.timestamp, \"Started\") */\n      tag_394\n      jumpi\n      mload(0x40)\n      0x08c379a000000000000000000000000000000000000000000000000000000000\n      dup2\n      mstore\n      0x04\n      add\n      tag_395\n      swap1\n      tag_195\n      jump\t// in\n    tag_395:\n      mload(0x40)\n      dup1\n      swap2\n      sub\n      swap1\n      revert\n    tag_394:\n        /* \"GGWStake.sol\":4226:4232  months */\n      0x0b\n        /* \"GGWStake.sol\":4226:4238  months.pop() */\n      dup1\n      sload\n      dup1\n      tag_396\n      jumpi\n      tag_397\n      tag_398\n      jump\t// in\n    tag_397:\n    tag_396:\n      0x01\n      swap1\n      sub\n      dup2\n      dup2\n      swap1\n      0x00\n      mstore\n      keccak256(0x00, 0x20)\n      swap1\n      0x03\n      mul\n      add\n      0x00\n      0x00\n      dup3\n      add\n      0x00\n      swap1\n      sstore\n      0x01\n      dup3\n      add\n      0x00\n      swap1\n      sstore\n      0x02\n      dup3\n      add\n      0x00\n      swap1\n      sstore\n      pop\n      pop\n      swap1\n      sstore\n        /* \"GGWStake.sol\":4254:4281  MonthDeleted(months.length) */\n      0xd84ba012185e6b11c267bbf53304405446699fded2a2a85c6c6523d2cd3fd790\n        /* \"GGWStake.sol\":4267:4273  months */\n      0x0b\n        /* \"GGWStake.sol\":4267:4280  months.length */\n      dup1\n      sload\n      swap1\n      pop\n        /* \"GGWStake.sol\":4254:4281  MonthDeleted(months.length) */\n      mload(0x40)\n      tag_400\n      swap2\n      swap1\n      tag_48\n      jump\t// in\n    tag_400:\n      mload(0x40)\n      dup1\n      swap2\n      sub\n      swap1\n      log1\n        /* \"GGWStake.sol\":4044:4289  function deleteLastMonth() external onlyOwner {... */\n      jump\t// out\n        /* \"GGWStake.sol\":1105:1130  Deposit[] public deposits */\n    tag_148:\n      0x07\n      dup2\n      dup2\n      sload\n      dup2\n      lt\n      tag_401\n      jumpi\n      0x00\n      dup1\n      revert\n    tag_401:\n      swap1\n      0x00\n      mstore\n      keccak256(0x00, 0x20)\n      swap1\n      0x08\n      mul\n      add\n      0x00\n      swap2\n      pop\n      swap1\n      pop\n      dup1\n      0x00\n      add\n      0x00\n      swap1\n      sload\n      swap1\n      0x0100\n      exp\n      swap1\n      div\n      0xffffffffffffffffffffffffffffffffffffffff\n      and\n      swap1\n      dup1\n      0x01\n      add\n      sload\n      swap1\n      dup1\n      0x02\n      add\n      sload\n      swap1\n      dup1\n      0x03\n      add\n      sload\n      swap1\n      dup1\n      0x04\n      add\n      sload\n      swap1\n      dup1\n      0x05\n      add\n      sload\n      swap1\n      dup1\n      0x06\n      add\n      sload\n      swap1\n      dup1\n      0x07\n      add\n      0x00\n      swap1\n      sload\n      swap1\n      0x0100\n      exp\n      swap1\n      div\n      0xff\n      and\n      swap1\n      pop\n      dup9\n      jump\t// out\n        /* \"GGWStake.sol\":5027:6486  function createDeposit(uint256 amount, uint256 lockMonths) external nonReentrant {... */\n    tag_154:\n        /* \"@openzeppelin/contracts/utils/ReentrancyGuard.sol\":2500:2521  _nonReentrantBefore() */\n      tag_404\n        /* \"@openzeppelin/contracts/utils/ReentrancyGuard.sol\":2500:2519  _nonReentrantBefore */\n      tag_309\n        /* \"@openzeppelin/contracts/utils/ReentrancyGuard.sol\":2500:2521  _nonReentrantBefore() */\n      jump\t// in\n    tag_404:\n        /* \"GGWStake.sol\":5137:5150  minLockAmount */\n      sload(0x0f)\n        /* \"GGWStake.sol\":5127:5133  amount */\n      dup3\n        /* \"GGWStake.sol\":5127:5150  amount >= minLockAmount */\n      lt\n      iszero\n        /* \"GGWStake.sol\":5119:5165  require(amount >= minLockAmount, \"Min amount\") */\n      tag_406\n      jumpi\n      mload(0x40)\n      0x08c379a000000000000000000000000000000000000000000000000000000000\n      dup2\n      mstore\n      0x04\n      add\n      tag_407\n      swap1\n      tag_408\n      jump\t// in\n    tag_407:\n      mload(0x40)\n      dup1\n      swap2\n      sub\n      swap1\n      revert\n    tag_406:\n        /* \"GGWStake.sol\":5198:5211  minLockMonths */\n      sload(0x0e)\n        /* \"GGWStake.sol\":5184:5194  lockMonths */\n      dup2\n        /* \"GGWStake.sol\":5184:5211  lockMonths >= minLockMonths */\n      lt\n      iszero\n        /* \"GGWStake.sol\":5176:5235  require(lockMonths >= minLockMonths, \"Lock must be greaer\") */\n      tag_409\n      jumpi\n      mload(0x40)\n      0x08c379a000000000000000000000000000000000000000000000000000000000\n      dup2\n      mstore\n      0x04\n      add\n      tag_410\n      swap1\n      tag_411\n      jump\t// in\n    tag_410:\n      mload(0x40)\n      dup1\n      swap2\n      sub\n      swap1\n      revert\n    tag_409:\n        /* \"GGWStake.sol\":5270:5271  0 */\n      0x00\n        /* \"GGWStake.sol\":5254:5260  months */\n      0x0b\n        /* \"GGWStake.sol\":5254:5267  months.length */\n      dup1\n      sload\n      swap1\n      pop\n        /* \"GGWStake.sol\":5254:5271  months.length > 0 */\n      gt\n        /* \"GGWStake.sol\":5246:5285  require(months.length > 0, \"No months\") */\n      tag_412\n      jumpi\n      mload(0x40)\n      0x08c379a000000000000000000000000000000000000000000000000000000000\n      dup2\n      mstore\n      0x04\n      add\n      tag_413\n      swap1\n      tag_414\n      jump\t// in\n    tag_413:\n      mload(0x40)\n      dup1\n      swap2\n      sub\n      swap1\n      revert\n    tag_412:\n        /* \"GGWStake.sol\":5298:5316  uint256 currentIdx */\n      0x00\n        /* \"GGWStake.sol\":5319:5342  _getCurrentMonthIndex() */\n      tag_415\n        /* \"GGWStake.sol\":5319:5340  _getCurrentMonthIndex */\n      tag_321\n        /* \"GGWStake.sol\":5319:5342  _getCurrentMonthIndex() */\n      jump\t// in\n    tag_415:\n        /* \"GGWStake.sol\":5298:5342  uint256 currentIdx = _getCurrentMonthIndex() */\n      swap1\n      pop\n        /* \"GGWStake.sol\":5374:5380  months */\n      0x0b\n        /* \"GGWStake.sol\":5374:5387  months.length */\n      dup1\n      sload\n      swap1\n      pop\n        /* \"GGWStake.sol\":5361:5371  currentIdx */\n      dup2\n        /* \"GGWStake.sol\":5361:5387  currentIdx < months.length */\n      lt\n        /* \"GGWStake.sol\":5353:5408  require(currentIdx < months.length, \"Time not covered\") */\n      tag_416\n      jumpi\n      mload(0x40)\n      0x08c379a000000000000000000000000000000000000000000000000000000000\n      dup2\n      mstore\n      0x04\n      add\n      tag_417\n      swap1\n      tag_418\n      jump\t// in\n    tag_417:\n      mload(0x40)\n      dup1\n      swap2\n      sub\n      swap1\n      revert\n    tag_416:\n        /* \"GGWStake.sol\":5421:5445  uint256 unlockMonthIndex */\n      0x00\n        /* \"GGWStake.sol\":5461:5471  lockMonths */\n      dup3\n        /* \"GGWStake.sol\":5448:5458  currentIdx */\n      dup3\n        /* \"GGWStake.sol\":5448:5471  currentIdx + lockMonths */\n      tag_419\n      swap2\n      swap1\n      tag_207\n      jump\t// in\n    tag_419:\n        /* \"GGWStake.sol\":5421:5471  uint256 unlockMonthIndex = currentIdx + lockMonths */\n      swap1\n      pop\n        /* \"GGWStake.sol\":5510:5516  months */\n      0x0b\n        /* \"GGWStake.sol\":5510:5523  months.length */\n      dup1\n      sload\n      swap1\n      pop\n        /* \"GGWStake.sol\":5490:5506  unlockMonthIndex */\n      dup2\n        /* \"GGWStake.sol\":5490:5523  unlockMonthIndex <= months.length */\n      gt\n      iszero\n        /* \"GGWStake.sol\":5482:5565  require(unlockMonthIndex <= months.length, \"Lock period exceeds configured months\") */\n      tag_420\n      jumpi\n      mload(0x40)\n      0x08c379a000000000000000000000000000000000000000000000000000000000\n      dup2\n      mstore\n      0x04\n      add\n      tag_421\n      swap1\n      tag_422\n      jump\t// in\n    tag_421:\n      mload(0x40)\n      dup1\n      swap2\n      sub\n      swap1\n      revert\n    tag_420:\n        /* \"GGWStake.sol\":5578:5590  address user */\n      0x00\n        /* \"GGWStake.sol\":5593:5603  msg.sender */\n      caller\n        /* \"GGWStake.sol\":5578:5603  address user = msg.sender */\n      swap1\n      pop\n        /* \"GGWStake.sol\":5622:5634  stakingToken */\n      immutable(\"0x1a65db4f2ea95c4a38ef67ec9eb02656311df27569f1d2e5f15fb9ffe8498721\")\n        /* \"GGWStake.sol\":5622:5647  stakingToken.transferFrom */\n      0xffffffffffffffffffffffffffffffffffffffff\n      and\n      0x23b872dd\n        /* \"GGWStake.sol\":5648:5652  user */\n      dup3\n        /* \"GGWStake.sol\":5662:5666  this */\n      address\n        /* \"GGWStake.sol\":5669:5675  amount */\n      dup9\n        /* \"GGWStake.sol\":5622:5676  stakingToken.transferFrom(user, address(this), amount) */\n      mload(0x40)\n      dup5\n      0xffffffff\n      and\n      0xe0\n      shl\n      dup2\n      mstore\n      0x04\n      add\n      tag_423\n      swap4\n      swap3\n      swap2\n      swap1\n      tag_424\n      jump\t// in\n    tag_423:\n      0x20\n      mload(0x40)\n      dup1\n      dup4\n      sub\n      dup2\n      0x00\n      dup8\n      gas\n      call\n      iszero\n      dup1\n      iszero\n      tag_426\n      jumpi\n      returndatacopy(0x00, 0x00, returndatasize)\n      revert(0x00, returndatasize)\n    tag_426:\n      pop\n      pop\n      pop\n      pop\n      mload(0x40)\n      returndatasize\n      not(0x1f)\n      0x1f\n      dup3\n      add\n      and\n      dup3\n      add\n      dup1\n      0x40\n      mstore\n      pop\n      dup2\n      add\n      swap1\n      tag_427\n      swap2\n      swap1\n      tag_336\n      jump\t// in\n    tag_427:\n        /* \"GGWStake.sol\":5614:5696  require(stakingToken.transferFrom(user, address(this), amount), \"Transfer failed\") */\n      tag_428\n      jumpi\n      mload(0x40)\n      0x08c379a000000000000000000000000000000000000000000000000000000000\n      dup2\n      mstore\n      0x04\n      add\n      tag_429\n      swap1\n      tag_339\n      jump\t// in\n    tag_429:\n      mload(0x40)\n      dup1\n      swap2\n      sub\n      swap1\n      revert\n    tag_428:\n        /* \"GGWStake.sol\":5757:5763  isUser */\n      0x04\n        /* \"GGWStake.sol\":5757:5769  isUser[user] */\n      0x00\n        /* \"GGWStake.sol\":5764:5768  user */\n      dup3\n        /* \"GGWStake.sol\":5757:5769  isUser[user] */\n      0xffffffffffffffffffffffffffffffffffffffff\n      and\n      0xffffffffffffffffffffffffffffffffffffffff\n      and\n      dup2\n      mstore\n      0x20\n      add\n      swap1\n      dup2\n      mstore\n      0x20\n      add\n      0x00\n      keccak256\n      0x00\n      swap1\n      sload\n      swap1\n      0x0100\n      exp\n      swap1\n      div\n      0xff\n      and\n        /* \"GGWStake.sol\":5752:5851  if (!isUser[user]) {... */\n      tag_430\n      jumpi\n        /* \"GGWStake.sol\":5801:5805  true */\n      0x01\n        /* \"GGWStake.sol\":5786:5792  isUser */\n      0x04\n        /* \"GGWStake.sol\":5786:5798  isUser[user] */\n      0x00\n        /* \"GGWStake.sol\":5793:5797  user */\n      dup4\n        /* \"GGWStake.sol\":5786:5798  isUser[user] */\n      0xffffffffffffffffffffffffffffffffffffffff\n      and\n      0xffffffffffffffffffffffffffffffffffffffff\n      and\n      dup2\n      mstore\n      0x20\n      add\n      swap1\n      dup2\n      mstore\n      0x20\n      add\n      0x00\n      keccak256\n      0x00\n        /* \"GGWStake.sol\":5786:5805  isUser[user] = true */\n      0x0100\n      exp\n      dup2\n      sload\n      dup2\n      0xff\n      mul\n      not\n      and\n      swap1\n      dup4\n      iszero\n      iszero\n      mul\n      or\n      swap1\n      sstore\n      pop\n        /* \"GGWStake.sol\":5820:5828  allUsers */\n      0x03\n        /* \"GGWStake.sol\":5834:5838  user */\n      dup2\n        /* \"GGWStake.sol\":5820:5839  allUsers.push(user) */\n      swap1\n      dup1\n      0x01\n      dup2\n      sload\n      add\n      dup1\n      dup3\n      sstore\n      dup1\n      swap2\n      pop\n      pop\n      0x01\n      swap1\n      sub\n      swap1\n      0x00\n      mstore\n      keccak256(0x00, 0x20)\n      add\n      0x00\n      swap1\n      swap2\n      swap1\n      swap2\n      swap1\n      swap2\n      0x0100\n      exp\n      dup2\n      sload\n      dup2\n      0xffffffffffffffffffffffffffffffffffffffff\n      mul\n      not\n      and\n      swap1\n      dup4\n      0xffffffffffffffffffffffffffffffffffffffff\n      and\n      mul\n      or\n      swap1\n      sstore\n      pop\n        /* \"GGWStake.sol\":5752:5851  if (!isUser[user]) {... */\n    tag_430:\n        /* \"GGWStake.sol\":5863:5871  deposits */\n      0x07\n        /* \"GGWStake.sol\":5877:6186  Deposit({... */\n      mload(0x40)\n      dup1\n      0x0100\n      add\n      0x40\n      mstore\n      dup1\n        /* \"GGWStake.sol\":5907:5911  user */\n      dup4\n        /* \"GGWStake.sol\":5877:6186  Deposit({... */\n      0xffffffffffffffffffffffffffffffffffffffff\n      and\n      dup2\n      mstore\n      0x20\n      add\n        /* \"GGWStake.sol\":5934:5940  amount */\n      dup8\n        /* \"GGWStake.sol\":5877:6186  Deposit({... */\n      dup2\n      mstore\n      0x20\n      add\n        /* \"GGWStake.sol\":5967:5977  currentIdx */\n      dup6\n        /* \"GGWStake.sol\":5877:6186  Deposit({... */\n      dup2\n      mstore\n      0x20\n      add\n        /* \"GGWStake.sol\":6006:6021  block.timestamp */\n      timestamp\n        /* \"GGWStake.sol\":5877:6186  Deposit({... */\n      dup2\n      mstore\n      0x20\n      add\n        /* \"GGWStake.sol\":6051:6052  0 */\n      0x00\n        /* \"GGWStake.sol\":5877:6186  Deposit({... */\n      dup2\n      mstore\n      0x20\n      add\n        /* \"GGWStake.sol\":6085:6101  unlockMonthIndex */\n      dup5\n        /* \"GGWStake.sol\":5877:6186  Deposit({... */\n      dup2\n      mstore\n      0x20\n      add\n        /* \"GGWStake.sol\":6137:6147  currentIdx */\n      dup6\n        /* \"GGWStake.sol\":5877:6186  Deposit({... */\n      dup2\n      mstore\n      0x20\n      add\n        /* \"GGWStake.sol\":6170:6174  true */\n      0x01\n        /* \"GGWStake.sol\":5877:6186  Deposit({... */\n      iszero\n      iszero\n      dup2\n      mstore\n      pop\n        /* \"GGWStake.sol\":5863:6187  deposits.push(Deposit({... */\n      swap1\n      dup1\n      0x01\n      dup2\n      sload\n      add\n      dup1\n      dup3\n      sstore\n      dup1\n      swap2\n      pop\n      pop\n      0x01\n      swap1\n      sub\n      swap1\n      0x00\n      mstore\n      keccak256(0x00, 0x20)\n      swap1\n      0x08\n      mul\n      add\n      0x00\n      swap1\n      swap2\n      swap1\n      swap2\n      swap1\n      swap2\n      pop\n      0x00\n      dup3\n      add\n      mload\n      dup2\n      0x00\n      add\n      exp(0x0100, 0x00)\n      dup2\n      sload\n      dup2\n      0xffffffffffffffffffffffffffffffffffffffff\n      mul\n      not\n      and\n      swap1\n      dup4\n      0xffffffffffffffffffffffffffffffffffffffff\n      and\n      mul\n      or\n      swap1\n      sstore\n      pop\n      0x20\n      dup3\n      add\n      mload\n      dup2\n      0x01\n      add\n      sstore\n      0x40\n      dup3\n      add\n      mload\n      dup2\n      0x02\n      add\n      sstore\n      0x60\n      dup3\n      add\n      mload\n      dup2\n      0x03\n      add\n      sstore\n      0x80\n      dup3\n      add\n      mload\n      dup2\n      0x04\n      add\n      sstore\n      0xa0\n      dup3\n      add\n      mload\n      dup2\n      0x05\n      add\n      sstore\n      0xc0\n      dup3\n      add\n      mload\n      dup2\n      0x06\n      add\n      sstore\n      0xe0\n      dup3\n      add\n      mload\n      dup2\n      0x07\n      add\n      exp(0x0100, 0x00)\n      dup2\n      sload\n      dup2\n      0xff\n      mul\n      not\n      and\n      swap1\n      dup4\n      iszero\n      iszero\n      mul\n      or\n      swap1\n      sstore\n      pop\n      pop\n      pop\n        /* \"GGWStake.sol\":6200:6217  uint256 depositId */\n      0x00\n        /* \"GGWStake.sol\":6238:6239  1 */\n      0x01\n        /* \"GGWStake.sol\":6220:6228  deposits */\n      0x07\n        /* \"GGWStake.sol\":6220:6235  deposits.length */\n      dup1\n      sload\n      swap1\n      pop\n        /* \"GGWStake.sol\":6220:6239  deposits.length - 1 */\n      tag_433\n      swap2\n      swap1\n      tag_198\n      jump\t// in\n    tag_433:\n        /* \"GGWStake.sol\":6200:6239  uint256 depositId = deposits.length - 1 */\n      swap1\n      pop\n        /* \"GGWStake.sol\":6250:6262  userDeposits */\n      0x05\n        /* \"GGWStake.sol\":6250:6268  userDeposits[user] */\n      0x00\n        /* \"GGWStake.sol\":6263:6267  user */\n      dup4\n        /* \"GGWStake.sol\":6250:6268  userDeposits[user] */\n      0xffffffffffffffffffffffffffffffffffffffff\n      and\n      0xffffffffffffffffffffffffffffffffffffffff\n      and\n      dup2\n      mstore\n      0x20\n      add\n      swap1\n      dup2\n      mstore\n      0x20\n      add\n      0x00\n      keccak256\n        /* \"GGWStake.sol\":6274:6283  depositId */\n      dup2\n        /* \"GGWStake.sol\":6250:6284  userDeposits[user].push(depositId) */\n      swap1\n      dup1\n      0x01\n      dup2\n      sload\n      add\n      dup1\n      dup3\n      sstore\n      dup1\n      swap2\n      pop\n      pop\n      0x01\n      swap1\n      sub\n      swap1\n      0x00\n      mstore\n      keccak256(0x00, 0x20)\n      add\n      0x00\n      swap1\n      swap2\n      swap1\n      swap2\n      swap1\n      swap2\n      pop\n      sstore\n        /* \"GGWStake.sol\":6319:6329  currentIdx */\n      dup4\n        /* \"GGWStake.sol\":6297:6316  lastKnownMonthIndex */\n      0x06\n        /* \"GGWStake.sol\":6297:6329  lastKnownMonthIndex = currentIdx */\n      dup2\n      swap1\n      sstore\n      pop\n        /* \"GGWStake.sol\":6360:6366  amount */\n      dup6\n        /* \"GGWStake.sol\":6342:6356  depositsAmount */\n      0x09\n      0x00\n        /* \"GGWStake.sol\":6342:6366  depositsAmount += amount */\n      dup3\n      dup3\n      sload\n      tag_435\n      swap2\n      swap1\n      tag_207\n      jump\t// in\n    tag_435:\n      swap3\n      pop\n      pop\n      dup2\n      swap1\n      sstore\n      pop\n        /* \"GGWStake.sol\":6377:6391  openedDeposits */\n      0x08\n      0x00\n        /* \"GGWStake.sol\":6377:6393  openedDeposits++ */\n      dup2\n      sload\n      dup1\n      swap3\n      swap2\n      swap1\n      tag_436\n      swap1\n      tag_437\n      jump\t// in\n    tag_436:\n      swap2\n      swap1\n      pop\n      sstore\n      pop\n        /* \"GGWStake.sol\":6424:6428  user */\n      dup2\n        /* \"GGWStake.sol\":6409:6478  DepositCreated(user, depositId, amount, lockMonths, unlockMonthIndex) */\n      0xffffffffffffffffffffffffffffffffffffffff\n      and\n      0x554f20505671494900b631b0e443e9e7a59743ec9889b05e28d8ac9ea158266b\n        /* \"GGWStake.sol\":6430:6439  depositId */\n      dup3\n        /* \"GGWStake.sol\":6441:6447  amount */\n      dup9\n        /* \"GGWStake.sol\":6449:6459  lockMonths */\n      dup9\n        /* \"GGWStake.sol\":6461:6477  unlockMonthIndex */\n      dup8\n        /* \"GGWStake.sol\":6409:6478  DepositCreated(user, depositId, amount, lockMonths, unlockMonthIndex) */\n      mload(0x40)\n      tag_438\n      swap5\n      swap4\n      swap3\n      swap2\n      swap1\n      tag_439\n      jump\t// in\n    tag_438:\n      mload(0x40)\n      dup1\n      swap2\n      sub\n      swap1\n      log2\n        /* \"GGWStake.sol\":5108:6486  {... */\n      pop\n      pop\n      pop\n      pop\n        /* \"@openzeppelin/contracts/utils/ReentrancyGuard.sol\":2542:2562  _nonReentrantAfter() */\n      tag_440\n        /* \"@openzeppelin/contracts/utils/ReentrancyGuard.sol\":2542:2560  _nonReentrantAfter */\n      tag_342\n        /* \"@openzeppelin/contracts/utils/ReentrancyGuard.sol\":2542:2562  _nonReentrantAfter() */\n      jump\t// in\n    tag_440:\n        /* \"GGWStake.sol\":5027:6486  function createDeposit(uint256 amount, uint256 lockMonths) external nonReentrant {... */\n      pop\n      pop\n      jump\t// out\n        /* \"GGWStake.sol\":16807:17045  function recoverToken(address token, uint256 amount) external onlyOwner {... */\n    tag_157:\n        /* \"GGWStake.sol\":311:316  owner */\n      0x01\n      0x00\n      swap1\n      sload\n      swap1\n      0x0100\n      exp\n      swap1\n      div\n      0xffffffffffffffffffffffffffffffffffffffff\n      and\n        /* \"GGWStake.sol\":297:316  msg.sender == owner */\n      0xffffffffffffffffffffffffffffffffffffffff\n      and\n        /* \"GGWStake.sol\":297:307  msg.sender */\n      caller\n        /* \"GGWStake.sol\":297:316  msg.sender == owner */\n      0xffffffffffffffffffffffffffffffffffffffff\n      and\n      eq\n        /* \"GGWStake.sol\":289:331  require(msg.sender == owner, \"Only owner\") */\n      tag_442\n      jumpi\n      mload(0x40)\n      0x08c379a000000000000000000000000000000000000000000000000000000000\n      dup2\n      mstore\n      0x04\n      add\n      tag_443\n      swap1\n      tag_181\n      jump\t// in\n    tag_443:\n      mload(0x40)\n      dup1\n      swap2\n      sub\n      swap1\n      revert\n    tag_442:\n        /* \"GGWStake.sol\":16915:16927  stakingToken */\n      immutable(\"0x1a65db4f2ea95c4a38ef67ec9eb02656311df27569f1d2e5f15fb9ffe8498721\")\n        /* \"GGWStake.sol\":16898:16928  token != address(stakingToken) */\n      0xffffffffffffffffffffffffffffffffffffffff\n      and\n        /* \"GGWStake.sol\":16898:16903  token */\n      dup3\n        /* \"GGWStake.sol\":16898:16928  token != address(stakingToken) */\n      0xffffffffffffffffffffffffffffffffffffffff\n      and\n      sub\n        /* \"GGWStake.sol\":16890:16961  require(token != address(stakingToken), \"Cannot recover staking token\") */\n      tag_445\n      jumpi\n      mload(0x40)\n      0x08c379a000000000000000000000000000000000000000000000000000000000\n      dup2\n      mstore\n      0x04\n      add\n      tag_446\n      swap1\n      tag_447\n      jump\t// in\n    tag_446:\n      mload(0x40)\n      dup1\n      swap2\n      sub\n      swap1\n      revert\n    tag_445:\n        /* \"GGWStake.sol\":16987:16992  token */\n      dup2\n        /* \"GGWStake.sol\":16980:17002  IERC20(token).transfer */\n      0xffffffffffffffffffffffffffffffffffffffff\n      and\n      0xa9059cbb\n        /* \"GGWStake.sol\":17003:17008  owner */\n      0x01\n      0x00\n      swap1\n      sload\n      swap1\n      0x0100\n      exp\n      swap1\n      div\n      0xffffffffffffffffffffffffffffffffffffffff\n      and\n        /* \"GGWStake.sol\":17010:17016  amount */\n      dup4\n        /* \"GGWStake.sol\":16980:17017  IERC20(token).transfer(owner, amount) */\n      mload(0x40)\n      dup4\n      0xffffffff\n      and\n      0xe0\n      shl\n      dup2\n      mstore\n      0x04\n      add\n      tag_448\n      swap3\n      swap2\n      swap1\n      tag_332\n      jump\t// in\n    tag_448:\n      0x20\n      mload(0x40)\n      dup1\n      dup4\n      sub\n      dup2\n      0x00\n      dup8\n      gas\n      call\n      iszero\n      dup1\n      iszero\n      tag_450\n      jumpi\n      returndatacopy(0x00, 0x00, returndatasize)\n      revert(0x00, returndatasize)\n    tag_450:\n      pop\n      pop\n      pop\n      pop\n      mload(0x40)\n      returndatasize\n      not(0x1f)\n      0x1f\n      dup3\n      add\n      and\n      dup3\n      add\n      dup1\n      0x40\n      mstore\n      pop\n      dup2\n      add\n      swap1\n      tag_451\n      swap2\n      swap1\n      tag_336\n      jump\t// in\n    tag_451:\n        /* \"GGWStake.sol\":16972:17037  require(IERC20(token).transfer(owner, amount), \"Recovery failed\") */\n      tag_452\n      jumpi\n      mload(0x40)\n      0x08c379a000000000000000000000000000000000000000000000000000000000\n      dup2\n      mstore\n      0x04\n      add\n      tag_453\n      swap1\n      tag_454\n      jump\t// in\n    tag_453:\n      mload(0x40)\n      dup1\n      swap2\n      sub\n      swap1\n      revert\n    tag_452:\n        /* \"GGWStake.sol\":16807:17045  function recoverToken(address token, uint256 amount) external onlyOwner {... */\n      pop\n      pop\n      jump\t// out\n        /* \"GGWStake.sol\":6525:7195  function withdrawRewardsOnly(uint256 depositId) external nonReentrant {... */\n    tag_160:\n        /* \"@openzeppelin/contracts/utils/ReentrancyGuard.sol\":2500:2521  _nonReentrantBefore() */\n      tag_456\n        /* \"@openzeppelin/contracts/utils/ReentrancyGuard.sol\":2500:2519  _nonReentrantBefore */\n      tag_309\n        /* \"@openzeppelin/contracts/utils/ReentrancyGuard.sol\":2500:2521  _nonReentrantBefore() */\n      jump\t// in\n    tag_456:\n        /* \"GGWStake.sol\":6606:6625  Deposit storage dep */\n      0x00\n        /* \"GGWStake.sol\":6628:6636  deposits */\n      0x07\n        /* \"GGWStake.sol\":6637:6646  depositId */\n      dup3\n        /* \"GGWStake.sol\":6628:6647  deposits[depositId] */\n      dup2\n      sload\n      dup2\n      lt\n      tag_458\n      jumpi\n      tag_459\n      tag_201\n      jump\t// in\n    tag_459:\n    tag_458:\n      swap1\n      0x00\n      mstore\n      keccak256(0x00, 0x20)\n      swap1\n      0x08\n      mul\n      add\n        /* \"GGWStake.sol\":6606:6647  Deposit storage dep = deposits[depositId] */\n      swap1\n      pop\n        /* \"GGWStake.sol\":6666:6669  dep */\n      dup1\n        /* \"GGWStake.sol\":6666:6676  dep.active */\n      0x07\n      add\n      0x00\n      swap1\n      sload\n      swap1\n      0x0100\n      exp\n      swap1\n      div\n      0xff\n      and\n        /* \"GGWStake.sol\":6658:6689  require(dep.active, \"Inactive\") */\n      tag_461\n      jumpi\n      mload(0x40)\n      0x08c379a000000000000000000000000000000000000000000000000000000000\n      dup2\n      mstore\n      0x04\n      add\n      tag_462\n      swap1\n      tag_316\n      jump\t// in\n    tag_462:\n      mload(0x40)\n      dup1\n      swap2\n      sub\n      swap1\n      revert\n    tag_461:\n        /* \"GGWStake.sol\":6721:6731  msg.sender */\n      caller\n        /* \"GGWStake.sol\":6708:6731  dep.owner == msg.sender */\n      0xffffffffffffffffffffffffffffffffffffffff\n      and\n        /* \"GGWStake.sol\":6708:6711  dep */\n      dup2\n        /* \"GGWStake.sol\":6708:6717  dep.owner */\n      0x00\n      add\n      0x00\n      swap1\n      sload\n      swap1\n      0x0100\n      exp\n      swap1\n      div\n      0xffffffffffffffffffffffffffffffffffffffff\n      and\n        /* \"GGWStake.sol\":6708:6731  dep.owner == msg.sender */\n      0xffffffffffffffffffffffffffffffffffffffff\n      and\n      eq\n        /* \"GGWStake.sol\":6700:6745  require(dep.owner == msg.sender, \"Not owner\") */\n      tag_463\n      jumpi\n      mload(0x40)\n      0x08c379a000000000000000000000000000000000000000000000000000000000\n      dup2\n      mstore\n      0x04\n      add\n      tag_464\n      swap1\n      tag_319\n      jump\t// in\n    tag_464:\n      mload(0x40)\n      dup1\n      swap2\n      sub\n      swap1\n      revert\n    tag_463:\n        /* \"GGWStake.sol\":6758:6772  uint256 reward */\n      0x00\n        /* \"GGWStake.sol\":6775:6818  calculatePendingRewardForDeposit(depositId) */\n      tag_465\n        /* \"GGWStake.sol\":6808:6817  depositId */\n      dup4\n        /* \"GGWStake.sol\":6775:6807  calculatePendingRewardForDeposit */\n      tag_90\n        /* \"GGWStake.sol\":6775:6818  calculatePendingRewardForDeposit(depositId) */\n      jump\t// in\n    tag_465:\n        /* \"GGWStake.sol\":6758:6818  uint256 reward = calculatePendingRewardForDeposit(depositId) */\n      swap1\n      pop\n        /* \"GGWStake.sol\":6846:6847  0 */\n      0x00\n        /* \"GGWStake.sol\":6837:6843  reward */\n      dup2\n        /* \"GGWStake.sol\":6837:6847  reward > 0 */\n      gt\n        /* \"GGWStake.sol\":6829:6862  require(reward > 0, \"No rewards\") */\n      tag_466\n      jumpi\n      mload(0x40)\n      0x08c379a000000000000000000000000000000000000000000000000000000000\n      dup2\n      mstore\n      0x04\n      add\n      tag_467\n      swap1\n      tag_468\n      jump\t// in\n    tag_467:\n      mload(0x40)\n      dup1\n      swap2\n      sub\n      swap1\n      revert\n    tag_466:\n        /* \"GGWStake.sol\":6875:6889  uint256 endIdx */\n      0x00\n        /* \"GGWStake.sol\":6892:6943  _findLastCompletedMonth(dep.lastAccruedMonthIdx, 0) */\n      tag_469\n        /* \"GGWStake.sol\":6916:6919  dep */\n      dup4\n        /* \"GGWStake.sol\":6916:6939  dep.lastAccruedMonthIdx */\n      0x06\n      add\n      sload\n        /* \"GGWStake.sol\":6941:6942  0 */\n      0x00\n        /* \"GGWStake.sol\":6892:6915  _findLastCompletedMonth */\n      tag_253\n        /* \"GGWStake.sol\":6892:6943  _findLastCompletedMonth(dep.lastAccruedMonthIdx, 0) */\n      jump\t// in\n    tag_469:\n        /* \"GGWStake.sol\":6875:6943  uint256 endIdx = _findLastCompletedMonth(dep.lastAccruedMonthIdx, 0) */\n      swap1\n      pop\n        /* \"GGWStake.sol\":6980:6986  endIdx */\n      dup1\n        /* \"GGWStake.sol\":6954:6957  dep */\n      dup4\n        /* \"GGWStake.sol\":6954:6977  dep.lastAccruedMonthIdx */\n      0x06\n      add\n        /* \"GGWStake.sol\":6954:6986  dep.lastAccruedMonthIdx = endIdx */\n      dup2\n      swap1\n      sstore\n      pop\n        /* \"GGWStake.sol\":7007:7019  stakingToken */\n      immutable(\"0x1a65db4f2ea95c4a38ef67ec9eb02656311df27569f1d2e5f15fb9ffe8498721\")\n        /* \"GGWStake.sol\":7007:7028  stakingToken.transfer */\n      0xffffffffffffffffffffffffffffffffffffffff\n      and\n      0xa9059cbb\n        /* \"GGWStake.sol\":7029:7039  msg.sender */\n      caller\n        /* \"GGWStake.sol\":7041:7047  reward */\n      dup5\n        /* \"GGWStake.sol\":7007:7048  stakingToken.transfer(msg.sender, reward) */\n      mload(0x40)\n      dup4\n      0xffffffff\n      and\n      0xe0\n      shl\n      dup2\n      mstore\n      0x04\n      add\n      tag_470\n      swap3\n      swap2\n      swap1\n      tag_332\n      jump\t// in\n    tag_470:\n      0x20\n      mload(0x40)\n      dup1\n      dup4\n      sub\n      dup2\n      0x00\n      dup8\n      gas\n      call\n      iszero\n      dup1\n      iszero\n      tag_472\n      jumpi\n      returndatacopy(0x00, 0x00, returndatasize)\n      revert(0x00, returndatasize)\n    tag_472:\n      pop\n      pop\n      pop\n      pop\n      mload(0x40)\n      returndatasize\n      not(0x1f)\n      0x1f\n      dup3\n      add\n      and\n      dup3\n      add\n      dup1\n      0x40\n      mstore\n      pop\n      dup2\n      add\n      swap1\n      tag_473\n      swap2\n      swap1\n      tag_336\n      jump\t// in\n    tag_473:\n        /* \"GGWStake.sol\":6999:7068  require(stakingToken.transfer(msg.sender, reward), \"Transfer failed\") */\n      tag_474\n      jumpi\n      mload(0x40)\n      0x08c379a000000000000000000000000000000000000000000000000000000000\n      dup2\n      mstore\n      0x04\n      add\n      tag_475\n      swap1\n      tag_339\n      jump\t// in\n    tag_475:\n      mload(0x40)\n      dup1\n      swap2\n      sub\n      swap1\n      revert\n    tag_474:\n        /* \"GGWStake.sol\":7101:7124  _getCurrentMonthIndex() */\n      tag_476\n        /* \"GGWStake.sol\":7101:7122  _getCurrentMonthIndex */\n      tag_321\n        /* \"GGWStake.sol\":7101:7124  _getCurrentMonthIndex() */\n      jump\t// in\n    tag_476:\n        /* \"GGWStake.sol\":7079:7098  lastKnownMonthIndex */\n      0x06\n        /* \"GGWStake.sol\":7079:7124  lastKnownMonthIndex = _getCurrentMonthIndex() */\n      dup2\n      swap1\n      sstore\n      pop\n        /* \"GGWStake.sol\":7157:7167  msg.sender */\n      caller\n        /* \"GGWStake.sol\":7140:7187  RewardsWithdrawn(msg.sender, depositId, reward) */\n      0xffffffffffffffffffffffffffffffffffffffff\n      and\n      0xfa73d3ab3a92ed3f2b694757d8e4b2f3c293654b11b9c79111f8971f861b22b2\n        /* \"GGWStake.sol\":7169:7178  depositId */\n      dup6\n        /* \"GGWStake.sol\":7180:7186  reward */\n      dup5\n        /* \"GGWStake.sol\":7140:7187  RewardsWithdrawn(msg.sender, depositId, reward) */\n      mload(0x40)\n      tag_477\n      swap3\n      swap2\n      swap1\n      tag_302\n      jump\t// in\n    tag_477:\n      mload(0x40)\n      dup1\n      swap2\n      sub\n      swap1\n      log2\n        /* \"GGWStake.sol\":6595:7195  {... */\n      pop\n      pop\n      pop\n        /* \"@openzeppelin/contracts/utils/ReentrancyGuard.sol\":2542:2562  _nonReentrantAfter() */\n      tag_478\n        /* \"@openzeppelin/contracts/utils/ReentrancyGuard.sol\":2542:2560  _nonReentrantAfter */\n      tag_342\n        /* \"@openzeppelin/contracts/utils/ReentrancyGuard.sol\":2542:2562  _nonReentrantAfter() */\n      jump\t// in\n    tag_478:\n        /* \"GGWStake.sol\":6525:7195  function withdrawRewardsOnly(uint256 depositId) external nonReentrant {... */\n      pop\n      jump\t// out\n        /* \"GGWStake.sol\":11249:13052  function calculateRewardByMonths(... */\n    tag_163:\n        /* \"GGWStake.sol\":11395:11402  uint256 */\n      0x00\n        /* \"GGWStake.sol\":11429:11430  0 */\n      0x00\n        /* \"GGWStake.sol\":11419:11425  amount */\n      dup5\n        /* \"GGWStake.sol\":11419:11430  amount == 0 */\n      eq\n        /* \"GGWStake.sol\":11419:11449  amount == 0 || lockMonths == 0 */\n      dup1\n      tag_480\n      jumpi\n      pop\n        /* \"GGWStake.sol\":11448:11449  0 */\n      0x00\n        /* \"GGWStake.sol\":11434:11444  lockMonths */\n      dup4\n        /* \"GGWStake.sol\":11434:11449  lockMonths == 0 */\n      eq\n        /* \"GGWStake.sol\":11419:11449  amount == 0 || lockMonths == 0 */\n    tag_480:\n        /* \"GGWStake.sol\":11415:11459  if (amount == 0 || lockMonths == 0) return 0 */\n      iszero\n      tag_481\n      jumpi\n        /* \"GGWStake.sol\":11458:11459  0 */\n      0x00\n        /* \"GGWStake.sol\":11451:11459  return 0 */\n      swap1\n      pop\n      jump(tag_479)\n        /* \"GGWStake.sol\":11415:11459  if (amount == 0 || lockMonths == 0) return 0 */\n    tag_481:\n        /* \"GGWStake.sol\":11590:11591  0 */\n      0x00\n        /* \"GGWStake.sol\":11574:11586  depositStart */\n      dup3\n        /* \"GGWStake.sol\":11574:11591  depositStart == 0 */\n      sub\n        /* \"GGWStake.sol\":11570:11623  if (depositStart == 0) depositStart = block.timestamp */\n      tag_482\n      jumpi\n        /* \"GGWStake.sol\":11608:11623  block.timestamp */\n      timestamp\n        /* \"GGWStake.sol\":11593:11623  depositStart = block.timestamp */\n      swap2\n      pop\n        /* \"GGWStake.sol\":11570:11623  if (depositStart == 0) depositStart = block.timestamp */\n    tag_482:\n        /* \"GGWStake.sol\":11634:11655  uint256 startMonthIdx */\n      0x00\n        /* \"GGWStake.sol\":11658:11695  _getCurrentMonthIndexAt(depositStart) */\n      tag_483\n        /* \"GGWStake.sol\":11682:11694  depositStart */\n      dup4\n        /* \"GGWStake.sol\":11658:11681  _getCurrentMonthIndexAt */\n      tag_484\n        /* \"GGWStake.sol\":11658:11695  _getCurrentMonthIndexAt(depositStart) */\n      jump\t// in\n    tag_483:\n        /* \"GGWStake.sol\":11634:11695  uint256 startMonthIdx = _getCurrentMonthIndexAt(depositStart) */\n      swap1\n      pop\n        /* \"GGWStake.sol\":11727:11733  months */\n      0x0b\n        /* \"GGWStake.sol\":11727:11740  months.length */\n      dup1\n      sload\n      swap1\n      pop\n        /* \"GGWStake.sol\":11710:11723  startMonthIdx */\n      dup2\n        /* \"GGWStake.sol\":11710:11740  startMonthIdx >= months.length */\n      lt\n        /* \"GGWStake.sol\":11706:11750  if (startMonthIdx >= months.length) return 0 */\n      tag_485\n      jumpi\n        /* \"GGWStake.sol\":11749:11750  0 */\n      0x00\n        /* \"GGWStake.sol\":11742:11750  return 0 */\n      swap2\n      pop\n      pop\n      jump(tag_479)\n        /* \"GGWStake.sol\":11706:11750  if (startMonthIdx >= months.length) return 0 */\n    tag_485:\n        /* \"GGWStake.sol\":11763:11782  uint256 endMonthIdx */\n      0x00\n        /* \"GGWStake.sol\":11801:11811  lockMonths */\n      dup5\n        /* \"GGWStake.sol\":11785:11798  startMonthIdx */\n      dup3\n        /* \"GGWStake.sol\":11785:11811  startMonthIdx + lockMonths */\n      tag_486\n      swap2\n      swap1\n      tag_207\n      jump\t// in\n    tag_486:\n        /* \"GGWStake.sol\":11763:11811  uint256 endMonthIdx = startMonthIdx + lockMonths */\n      swap1\n      pop\n        /* \"GGWStake.sol\":11840:11846  months */\n      0x0b\n        /* \"GGWStake.sol\":11840:11853  months.length */\n      dup1\n      sload\n      swap1\n      pop\n        /* \"GGWStake.sol\":11826:11837  endMonthIdx */\n      dup2\n        /* \"GGWStake.sol\":11826:11853  endMonthIdx > months.length */\n      gt\n        /* \"GGWStake.sol\":11822:11909  if (endMonthIdx > months.length) {... */\n      iszero\n      tag_487\n      jumpi\n        /* \"GGWStake.sol\":11884:11890  months */\n      0x0b\n        /* \"GGWStake.sol\":11884:11897  months.length */\n      dup1\n      sload\n      swap1\n      pop\n        /* \"GGWStake.sol\":11870:11897  endMonthIdx = months.length */\n      swap1\n      pop\n        /* \"GGWStake.sol\":11822:11909  if (endMonthIdx > months.length) {... */\n    tag_487:\n        /* \"GGWStake.sol\":11938:11951  startMonthIdx */\n      dup2\n        /* \"GGWStake.sol\":11923:11934  endMonthIdx */\n      dup2\n        /* \"GGWStake.sol\":11923:11951  endMonthIdx <= startMonthIdx */\n      gt\n        /* \"GGWStake.sol\":11919:11961  if (endMonthIdx <= startMonthIdx) return 0 */\n      tag_488\n      jumpi\n        /* \"GGWStake.sol\":11960:11961  0 */\n      0x00\n        /* \"GGWStake.sol\":11953:11961  return 0 */\n      swap3\n      pop\n      pop\n      pop\n      jump(tag_479)\n        /* \"GGWStake.sol\":11919:11961  if (endMonthIdx <= startMonthIdx) return 0 */\n    tag_488:\n        /* \"GGWStake.sol\":11974:11988  uint256 reward */\n      0x00\n        /* \"GGWStake.sol\":11991:11992  0 */\n      0x00\n        /* \"GGWStake.sol\":11974:11992  uint256 reward = 0 */\n      swap1\n      pop\n        /* \"GGWStake.sol\":12010:12019  uint256 i */\n      0x00\n        /* \"GGWStake.sol\":12022:12035  startMonthIdx */\n      dup4\n        /* \"GGWStake.sol\":12010:12035  uint256 i = startMonthIdx */\n      swap1\n      pop\n        /* \"GGWStake.sol\":12005:13019  for (uint256 i = startMonthIdx; i < endMonthIdx; i++) {... */\n    tag_489:\n        /* \"GGWStake.sol\":12041:12052  endMonthIdx */\n      dup3\n        /* \"GGWStake.sol\":12037:12038  i */\n      dup2\n        /* \"GGWStake.sol\":12037:12052  i < endMonthIdx */\n      lt\n        /* \"GGWStake.sol\":12005:13019  for (uint256 i = startMonthIdx; i < endMonthIdx; i++) {... */\n      iszero\n      tag_490\n      jumpi\n        /* \"GGWStake.sol\":12074:12098  MonthConfig memory month */\n      0x00\n        /* \"GGWStake.sol\":12101:12107  months */\n      0x0b\n        /* \"GGWStake.sol\":12108:12109  i */\n      dup3\n        /* \"GGWStake.sol\":12101:12110  months[i] */\n      dup2\n      sload\n      dup2\n      lt\n      tag_492\n      jumpi\n      tag_493\n      tag_201\n      jump\t// in\n    tag_493:\n    tag_492:\n      swap1\n      0x00\n      mstore\n      keccak256(0x00, 0x20)\n      swap1\n      0x03\n      mul\n      add\n        /* \"GGWStake.sol\":12074:12110  MonthConfig memory month = months[i] */\n      mload(0x40)\n      dup1\n      0x60\n      add\n      0x40\n      mstore\n      swap1\n      dup2\n      0x00\n      dup3\n      add\n      sload\n      dup2\n      mstore\n      0x20\n      add\n      0x01\n      dup3\n      add\n      sload\n      dup2\n      mstore\n      0x20\n      add\n      0x02\n      dup3\n      add\n      sload\n      dup2\n      mstore\n      pop\n      pop\n      swap1\n      pop\n        /* \"GGWStake.sol\":12125:12140  uint256 rateBps */\n      0x00\n        /* \"GGWStake.sol\":12143:12166  _getEffectiveRateBps(i) */\n      tag_495\n        /* \"GGWStake.sol\":12164:12165  i */\n      dup4\n        /* \"GGWStake.sol\":12143:12163  _getEffectiveRateBps */\n      tag_262\n        /* \"GGWStake.sol\":12143:12166  _getEffectiveRateBps(i) */\n      jump\t// in\n    tag_495:\n        /* \"GGWStake.sol\":12125:12166  uint256 rateBps = _getEffectiveRateBps(i) */\n      swap1\n      pop\n        /* \"GGWStake.sol\":12181:12202  uint256 monthlyReward */\n      0x00\n        /* \"GGWStake.sol\":12226:12232  10_000 */\n      0x2710\n        /* \"GGWStake.sol\":12215:12222  rateBps */\n      dup3\n        /* \"GGWStake.sol\":12206:12212  amount */\n      dup13\n        /* \"GGWStake.sol\":12206:12222  amount * rateBps */\n      tag_496\n      swap2\n      swap1\n      tag_264\n      jump\t// in\n    tag_496:\n        /* \"GGWStake.sol\":12205:12232  (amount * rateBps) / 10_000 */\n      tag_497\n      swap2\n      swap1\n      tag_266\n      jump\t// in\n    tag_497:\n        /* \"GGWStake.sol\":12181:12232  uint256 monthlyReward = (amount * rateBps) / 10_000 */\n      swap1\n      pop\n        /* \"GGWStake.sol\":12258:12271  startMonthIdx */\n      dup7\n        /* \"GGWStake.sol\":12253:12254  i */\n      dup5\n        /* \"GGWStake.sol\":12253:12271  i == startMonthIdx */\n      sub\n        /* \"GGWStake.sol\":12249:13008  if (i == startMonthIdx) {... */\n      tag_498\n      jumpi\n        /* \"GGWStake.sol\":12357:12379  uint256 effectiveStart */\n      0x00\n        /* \"GGWStake.sol\":12397:12402  month */\n      dup4\n        /* \"GGWStake.sol\":12397:12408  month.start */\n      0x00\n      add\n      mload\n        /* \"GGWStake.sol\":12382:12394  depositStart */\n      dup11\n        /* \"GGWStake.sol\":12382:12408  depositStart > month.start */\n      gt\n        /* \"GGWStake.sol\":12382:12437  depositStart > month.start ? depositStart : month.start */\n      tag_499\n      jumpi\n        /* \"GGWStake.sol\":12426:12431  month */\n      dup4\n        /* \"GGWStake.sol\":12426:12437  month.start */\n      0x00\n      add\n      mload\n        /* \"GGWStake.sol\":12382:12437  depositStart > month.start ? depositStart : month.start */\n      jump(tag_500)\n    tag_499:\n        /* \"GGWStake.sol\":12411:12423  depositStart */\n      dup10\n        /* \"GGWStake.sol\":12382:12437  depositStart > month.start ? depositStart : month.start */\n    tag_500:\n        /* \"GGWStake.sol\":12357:12437  uint256 effectiveStart = depositStart > month.start ? depositStart : month.start */\n      swap1\n      pop\n        /* \"GGWStake.sol\":12456:12476  uint256 effectiveEnd */\n      0x00\n        /* \"GGWStake.sol\":12479:12484  month */\n      dup5\n        /* \"GGWStake.sol\":12479:12488  month.end */\n      0x20\n      add\n      mload\n        /* \"GGWStake.sol\":12456:12488  uint256 effectiveEnd = month.end */\n      swap1\n      pop\n        /* \"GGWStake.sol\":12597:12609  effectiveEnd */\n      dup1\n        /* \"GGWStake.sol\":12579:12593  effectiveStart */\n      dup3\n        /* \"GGWStake.sol\":12579:12609  effectiveStart >= effectiveEnd */\n      lt\n        /* \"GGWStake.sol\":12575:12619  if (effectiveStart >= effectiveEnd) continue */\n      tag_501\n      jumpi\n        /* \"GGWStake.sol\":12611:12619  continue */\n      pop\n      pop\n      pop\n      pop\n      pop\n      jump(tag_491)\n        /* \"GGWStake.sol\":12575:12619  if (effectiveStart >= effectiveEnd) continue */\n    tag_501:\n        /* \"GGWStake.sol\":12640:12661  uint256 activeSeconds */\n      0x00\n        /* \"GGWStake.sol\":12679:12693  effectiveStart */\n      dup3\n        /* \"GGWStake.sol\":12664:12676  effectiveEnd */\n      dup3\n        /* \"GGWStake.sol\":12664:12693  effectiveEnd - effectiveStart */\n      tag_502\n      swap2\n      swap1\n      tag_198\n      jump\t// in\n    tag_502:\n        /* \"GGWStake.sol\":12640:12693  uint256 activeSeconds = effectiveEnd - effectiveStart */\n      swap1\n      pop\n        /* \"GGWStake.sol\":12712:12731  uint256 monthLength */\n      0x00\n        /* \"GGWStake.sol\":12746:12751  month */\n      dup7\n        /* \"GGWStake.sol\":12746:12757  month.start */\n      0x00\n      add\n      mload\n        /* \"GGWStake.sol\":12734:12739  month */\n      dup8\n        /* \"GGWStake.sol\":12734:12743  month.end */\n      0x20\n      add\n      mload\n        /* \"GGWStake.sol\":12734:12757  month.end - month.start */\n      tag_503\n      swap2\n      swap1\n      tag_198\n      jump\t// in\n    tag_503:\n        /* \"GGWStake.sol\":12712:12757  uint256 monthLength = month.end - month.start */\n      swap1\n      pop\n        /* \"GGWStake.sol\":12795:12796  0 */\n      0x00\n        /* \"GGWStake.sol\":12780:12791  monthLength */\n      dup2\n        /* \"GGWStake.sol\":12780:12796  monthLength == 0 */\n      sub\n        /* \"GGWStake.sol\":12776:12806  if (monthLength == 0) continue */\n      tag_504\n      jumpi\n        /* \"GGWStake.sol\":12798:12806  continue */\n      pop\n      pop\n      pop\n      pop\n      pop\n      pop\n      pop\n      jump(tag_491)\n        /* \"GGWStake.sol\":12776:12806  if (monthLength == 0) continue */\n    tag_504:\n        /* \"GGWStake.sol\":12871:12882  monthLength */\n      dup1\n        /* \"GGWStake.sol\":12854:12867  activeSeconds */\n      dup3\n        /* \"GGWStake.sol\":12838:12851  monthlyReward */\n      dup7\n        /* \"GGWStake.sol\":12838:12867  monthlyReward * activeSeconds */\n      tag_505\n      swap2\n      swap1\n      tag_264\n      jump\t// in\n    tag_505:\n        /* \"GGWStake.sol\":12837:12882  (monthlyReward * activeSeconds) / monthLength */\n      tag_506\n      swap2\n      swap1\n      tag_266\n      jump\t// in\n    tag_506:\n        /* \"GGWStake.sol\":12827:12882  reward += (monthlyReward * activeSeconds) / monthLength */\n      dup10\n      tag_507\n      swap2\n      swap1\n      tag_207\n      jump\t// in\n    tag_507:\n      swap9\n      pop\n        /* \"GGWStake.sol\":12273:12898  {... */\n      pop\n      pop\n      pop\n      pop\n        /* \"GGWStake.sol\":12249:13008  if (i == startMonthIdx) {... */\n      jump(tag_508)\n    tag_498:\n        /* \"GGWStake.sol\":12979:12992  monthlyReward */\n      dup1\n        /* \"GGWStake.sol\":12969:12992  reward += monthlyReward */\n      dup6\n      tag_509\n      swap2\n      swap1\n      tag_207\n      jump\t// in\n    tag_509:\n      swap5\n      pop\n        /* \"GGWStake.sol\":12249:13008  if (i == startMonthIdx) {... */\n    tag_508:\n        /* \"GGWStake.sol\":12059:13019  {... */\n      pop\n      pop\n      pop\n        /* \"GGWStake.sol\":12005:13019  for (uint256 i = startMonthIdx; i < endMonthIdx; i++) {... */\n    tag_491:\n        /* \"GGWStake.sol\":12054:12057  i++ */\n      dup1\n      dup1\n      0x01\n      add\n      swap2\n      pop\n      pop\n        /* \"GGWStake.sol\":12005:13019  for (uint256 i = startMonthIdx; i < endMonthIdx; i++) {... */\n      jump(tag_489)\n    tag_490:\n      pop\n        /* \"GGWStake.sol\":13038:13044  reward */\n      dup1\n        /* \"GGWStake.sol\":13031:13044  return reward */\n      swap4\n      pop\n      pop\n      pop\n      pop\n        /* \"GGWStake.sol\":11249:13052  function calculateRewardByMonths(... */\n    tag_479:\n      swap4\n      swap3\n      pop\n      pop\n      pop\n      jump\t// out\n        /* \"GGWStake.sol\":1837:1935  function getAllUsers() external view returns (address[] memory) {... */\n    tag_166:\n        /* \"GGWStake.sol\":1883:1899  address[] memory */\n      0x60\n        /* \"GGWStake.sol\":1919:1927  allUsers */\n      0x03\n        /* \"GGWStake.sol\":1912:1927  return allUsers */\n      dup1\n      sload\n      dup1\n      0x20\n      mul\n      0x20\n      add\n      mload(0x40)\n      swap1\n      dup2\n      add\n      0x40\n      mstore\n      dup1\n      swap3\n      swap2\n      swap1\n      dup2\n      dup2\n      mstore\n      0x20\n      add\n      dup3\n      dup1\n      sload\n      dup1\n      iszero\n      tag_511\n      jumpi\n      0x20\n      mul\n      dup3\n      add\n      swap2\n      swap1\n      0x00\n      mstore\n      keccak256(0x00, 0x20)\n      swap1\n    tag_512:\n      dup2\n      0x00\n      swap1\n      sload\n      swap1\n      0x0100\n      exp\n      swap1\n      div\n      0xffffffffffffffffffffffffffffffffffffffff\n      and\n      0xffffffffffffffffffffffffffffffffffffffff\n      and\n      dup2\n      mstore\n      0x20\n      add\n      swap1\n      0x01\n      add\n      swap1\n      dup1\n      dup4\n      gt\n      tag_512\n      jumpi\n    tag_511:\n      pop\n      pop\n      pop\n      pop\n      pop\n      swap1\n      pop\n        /* \"GGWStake.sol\":1837:1935  function getAllUsers() external view returns (address[] memory) {... */\n      swap1\n      jump\t// out\n        /* \"GGWStake.sol\":831:859  uint256 public globalRateBps */\n    tag_170:\n      sload(0x02)\n      dup2\n      jump\t// out\n        /* \"GGWStake.sol\":4654:4686  uint256 public minLockMonths = 1 */\n    tag_173:\n      sload(0x0e)\n      dup2\n      jump\t// out\n        /* \"GGWStake.sol\":1173:1202  uint256 public depositsAmount */\n    tag_176:\n      sload(0x09)\n      dup2\n      jump\t// out\n        /* \"GGWStake.sol\":4297:4646  function _addSingleMonth(uint256 start, uint256 end, uint256 rateBps) internal {... */\n    tag_240:\n        /* \"GGWStake.sol\":4403:4406  end */\n      dup2\n        /* \"GGWStake.sol\":4395:4400  start */\n      dup4\n        /* \"GGWStake.sol\":4395:4406  start < end */\n      lt\n        /* \"GGWStake.sol\":4387:4424  require(start < end, \"Invalid range\") */\n      tag_514\n      jumpi\n      mload(0x40)\n      0x08c379a000000000000000000000000000000000000000000000000000000000\n      dup2\n      mstore\n      0x04\n      add\n      tag_515\n      swap1\n      tag_188\n      jump\t// in\n    tag_515:\n      mload(0x40)\n      dup1\n      swap2\n      sub\n      swap1\n      revert\n    tag_514:\n        /* \"GGWStake.sol\":4450:4451  0 */\n      0x00\n        /* \"GGWStake.sol\":4439:4446  rateBps */\n      dup2\n        /* \"GGWStake.sol\":4439:4451  rateBps != 0 */\n      eq\n        /* \"GGWStake.sol\":4435:4494  if (rateBps != 0) require(rateBps <= 10_000, \"Rate > 100%\") */\n      tag_516\n      jumpi\n        /* \"GGWStake.sol\":4472:4478  10_000 */\n      0x2710\n        /* \"GGWStake.sol\":4461:4468  rateBps */\n      dup2\n        /* \"GGWStake.sol\":4461:4478  rateBps <= 10_000 */\n      gt\n      iszero\n        /* \"GGWStake.sol\":4453:4494  require(rateBps <= 10_000, \"Rate > 100%\") */\n      tag_517\n      jumpi\n      mload(0x40)\n      0x08c379a000000000000000000000000000000000000000000000000000000000\n      dup2\n      mstore\n      0x04\n      add\n      tag_518\n      swap1\n      tag_192\n      jump\t// in\n    tag_518:\n      mload(0x40)\n      dup1\n      swap2\n      sub\n      swap1\n      revert\n    tag_517:\n        /* \"GGWStake.sol\":4435:4494  if (rateBps != 0) require(rateBps <= 10_000, \"Rate > 100%\") */\n    tag_516:\n        /* \"GGWStake.sol\":4525:4526  0 */\n      0x00\n        /* \"GGWStake.sol\":4509:4515  months */\n      0x0b\n        /* \"GGWStake.sol\":4509:4522  months.length */\n      dup1\n      sload\n      swap1\n      pop\n        /* \"GGWStake.sol\":4509:4526  months.length > 0 */\n      gt\n        /* \"GGWStake.sol\":4505:4582  if (months.length > 0) require(start >= months[months.length - 1].end, \"Seq\") */\n      iszero\n      tag_519\n      jumpi\n        /* \"GGWStake.sol\":4545:4551  months */\n      0x0b\n        /* \"GGWStake.sol\":4568:4569  1 */\n      0x01\n        /* \"GGWStake.sol\":4552:4558  months */\n      0x0b\n        /* \"GGWStake.sol\":4552:4565  months.length */\n      dup1\n      sload\n      swap1\n      pop\n        /* \"GGWStake.sol\":4552:4569  months.length - 1 */\n      tag_520\n      swap2\n      swap1\n      tag_198\n      jump\t// in\n    tag_520:\n        /* \"GGWStake.sol\":4545:4570  months[months.length - 1] */\n      dup2\n      sload\n      dup2\n      lt\n      tag_521\n      jumpi\n      tag_522\n      tag_201\n      jump\t// in\n    tag_522:\n    tag_521:\n      swap1\n      0x00\n      mstore\n      keccak256(0x00, 0x20)\n      swap1\n      0x03\n      mul\n      add\n        /* \"GGWStake.sol\":4545:4574  months[months.length - 1].end */\n      0x01\n      add\n      sload\n        /* \"GGWStake.sol\":4536:4541  start */\n      dup4\n        /* \"GGWStake.sol\":4536:4574  start >= months[months.length - 1].end */\n      lt\n      iszero\n        /* \"GGWStake.sol\":4528:4582  require(start >= months[months.length - 1].end, \"Seq\") */\n      tag_524\n      jumpi\n      mload(0x40)\n      0x08c379a000000000000000000000000000000000000000000000000000000000\n      dup2\n      mstore\n      0x04\n      add\n      tag_525\n      swap1\n      tag_205\n      jump\t// in\n    tag_525:\n      mload(0x40)\n      dup1\n      swap2\n      sub\n      swap1\n      revert\n    tag_524:\n        /* \"GGWStake.sol\":4505:4582  if (months.length > 0) require(start >= months[months.length - 1].end, \"Seq\") */\n    tag_519:\n        /* \"GGWStake.sol\":4593:4599  months */\n      0x0b\n        /* \"GGWStake.sol\":4605:4637  MonthConfig(start, end, rateBps) */\n      mload(0x40)\n      dup1\n      0x60\n      add\n      0x40\n      mstore\n      dup1\n        /* \"GGWStake.sol\":4617:4622  start */\n      dup6\n        /* \"GGWStake.sol\":4605:4637  MonthConfig(start, end, rateBps) */\n      dup2\n      mstore\n      0x20\n      add\n        /* \"GGWStake.sol\":4624:4627  end */\n      dup5\n        /* \"GGWStake.sol\":4605:4637  MonthConfig(start, end, rateBps) */\n      dup2\n      mstore\n      0x20\n      add\n        /* \"GGWStake.sol\":4629:4636  rateBps */\n      dup4\n        /* \"GGWStake.sol\":4605:4637  MonthConfig(start, end, rateBps) */\n      dup2\n      mstore\n      pop\n        /* \"GGWStake.sol\":4593:4638  months.push(MonthConfig(start, end, rateBps)) */\n      swap1\n      dup1\n      0x01\n      dup2\n      sload\n      add\n      dup1\n      dup3\n      sstore\n      dup1\n      swap2\n      pop\n      pop\n      0x01\n      swap1\n      sub\n      swap1\n      0x00\n      mstore\n      keccak256(0x00, 0x20)\n      swap1\n      0x03\n      mul\n      add\n      0x00\n      swap1\n      swap2\n      swap1\n      swap2\n      swap1\n      swap2\n      pop\n      0x00\n      dup3\n      add\n      mload\n      dup2\n      0x00\n      add\n      sstore\n      0x20\n      dup3\n      add\n      mload\n      dup2\n      0x01\n      add\n      sstore\n      0x40\n      dup3\n      add\n      mload\n      dup2\n      0x02\n      add\n      sstore\n      pop\n      pop\n        /* \"GGWStake.sol\":4297:4646  function _addSingleMonth(uint256 start, uint256 end, uint256 rateBps) internal {... */\n      pop\n      pop\n      pop\n      jump\t// out\n        /* \"GGWStake.sol\":15782:16083  function _findLastCompletedMonth(uint256 fromIndex, uint256 ts) internal view returns (uint256) {... */\n    tag_253:\n        /* \"GGWStake.sol\":15869:15876  uint256 */\n      0x00\n        /* \"GGWStake.sol\":15899:15900  0 */\n      0x00\n        /* \"GGWStake.sol\":15893:15895  ts */\n      dup3\n        /* \"GGWStake.sol\":15893:15900  ts == 0 */\n      sub\n        /* \"GGWStake.sol\":15889:15922  if (ts == 0) ts = block.timestamp */\n      tag_528\n      jumpi\n        /* \"GGWStake.sol\":15907:15922  block.timestamp */\n      timestamp\n        /* \"GGWStake.sol\":15902:15922  ts = block.timestamp */\n      swap2\n      pop\n        /* \"GGWStake.sol\":15889:15922  if (ts == 0) ts = block.timestamp */\n    tag_528:\n        /* \"GGWStake.sol\":15933:15942  uint256 i */\n      0x00\n        /* \"GGWStake.sol\":15945:15954  fromIndex */\n      dup4\n        /* \"GGWStake.sol\":15933:15954  uint256 i = fromIndex */\n      swap1\n      pop\n        /* \"GGWStake.sol\":15965:16057  while (i < months.length && months[i].end <=ts) {... */\n    tag_529:\n        /* \"GGWStake.sol\":15976:15982  months */\n      0x0b\n        /* \"GGWStake.sol\":15976:15989  months.length */\n      dup1\n      sload\n      swap1\n      pop\n        /* \"GGWStake.sol\":15972:15973  i */\n      dup2\n        /* \"GGWStake.sol\":15972:15989  i < months.length */\n      lt\n        /* \"GGWStake.sol\":15972:16011  i < months.length && months[i].end <=ts */\n      dup1\n      iszero\n      tag_531\n      jumpi\n      pop\n        /* \"GGWStake.sol\":16009:16011  ts */\n      dup3\n        /* \"GGWStake.sol\":15993:15999  months */\n      0x0b\n        /* \"GGWStake.sol\":16000:16001  i */\n      dup3\n        /* \"GGWStake.sol\":15993:16002  months[i] */\n      dup2\n      sload\n      dup2\n      lt\n      tag_532\n      jumpi\n      tag_533\n      tag_201\n      jump\t// in\n    tag_533:\n    tag_532:\n      swap1\n      0x00\n      mstore\n      keccak256(0x00, 0x20)\n      swap1\n      0x03\n      mul\n      add\n        /* \"GGWStake.sol\":15993:16006  months[i].end */\n      0x01\n      add\n      sload\n        /* \"GGWStake.sol\":15993:16011  months[i].end <=ts */\n      gt\n      iszero\n        /* \"GGWStake.sol\":15972:16011  i < months.length && months[i].end <=ts */\n    tag_531:\n        /* \"GGWStake.sol\":15965:16057  while (i < months.length && months[i].end <=ts) {... */\n      iszero\n      tag_530\n      jumpi\n        /* \"GGWStake.sol\":16040:16043  i++ */\n      dup1\n      dup1\n      0x01\n      add\n      swap2\n      pop\n      pop\n        /* \"GGWStake.sol\":15965:16057  while (i < months.length && months[i].end <=ts) {... */\n      jump(tag_529)\n    tag_530:\n        /* \"GGWStake.sol\":16074:16075  i */\n      dup1\n        /* \"GGWStake.sol\":16067:16075  return i */\n      swap2\n      pop\n      pop\n        /* \"GGWStake.sol\":15782:16083  function _findLastCompletedMonth(uint256 fromIndex, uint256 ts) internal view returns (uint256) {... */\n      swap3\n      swap2\n      pop\n      pop\n      jump\t// out\n        /* \"GGWStake.sol\":8204:8396  function _getEffectiveRateBps(uint256 monthIndex) internal view returns (uint256) {... */\n    tag_262:\n        /* \"GGWStake.sol\":8277:8284  uint256 */\n      0x00\n        /* \"GGWStake.sol\":8297:8309  uint256 rate */\n      0x00\n        /* \"GGWStake.sol\":8312:8318  months */\n      0x0b\n        /* \"GGWStake.sol\":8319:8329  monthIndex */\n      dup4\n        /* \"GGWStake.sol\":8312:8330  months[monthIndex] */\n      dup2\n      sload\n      dup2\n      lt\n      tag_536\n      jumpi\n      tag_537\n      tag_201\n      jump\t// in\n    tag_537:\n    tag_536:\n      swap1\n      0x00\n      mstore\n      keccak256(0x00, 0x20)\n      swap1\n      0x03\n      mul\n      add\n        /* \"GGWStake.sol\":8312:8338  months[monthIndex].rateBps */\n      0x02\n      add\n      sload\n        /* \"GGWStake.sol\":8297:8338  uint256 rate = months[monthIndex].rateBps */\n      swap1\n      pop\n        /* \"GGWStake.sol\":8364:8365  0 */\n      0x00\n        /* \"GGWStake.sol\":8356:8360  rate */\n      dup2\n        /* \"GGWStake.sol\":8356:8365  rate == 0 */\n      eq\n        /* \"GGWStake.sol\":8356:8388  rate == 0 ? globalRateBps : rate */\n      tag_539\n      jumpi\n        /* \"GGWStake.sol\":8384:8388  rate */\n      dup1\n        /* \"GGWStake.sol\":8356:8388  rate == 0 ? globalRateBps : rate */\n      jump(tag_540)\n    tag_539:\n        /* \"GGWStake.sol\":8368:8381  globalRateBps */\n      sload(0x02)\n        /* \"GGWStake.sol\":8356:8388  rate == 0 ? globalRateBps : rate */\n    tag_540:\n        /* \"GGWStake.sol\":8349:8388  return rate == 0 ? globalRateBps : rate */\n      swap2\n      pop\n      pop\n        /* \"GGWStake.sol\":8204:8396  function _getEffectiveRateBps(uint256 monthIndex) internal view returns (uint256) {... */\n      swap2\n      swap1\n      pop\n      jump\t// out\n        /* \"@openzeppelin/contracts/utils/ReentrancyGuard.sol\":2575:2882  function _nonReentrantBefore() private {... */\n    tag_309:\n        /* \"@openzeppelin/contracts/utils/ReentrancyGuard.sol\":1899:1900  2 */\n      0x02\n        /* \"@openzeppelin/contracts/utils/ReentrancyGuard.sol\":2702:2709  _status */\n      sload(0x00)\n        /* \"@openzeppelin/contracts/utils/ReentrancyGuard.sol\":2702:2720  _status == ENTERED */\n      sub\n        /* \"@openzeppelin/contracts/utils/ReentrancyGuard.sol\":2698:2784  if (_status == ENTERED) {... */\n      tag_542\n      jumpi\n        /* \"@openzeppelin/contracts/utils/ReentrancyGuard.sol\":2743:2773  ReentrancyGuardReentrantCall() */\n      mload(0x40)\n      0x3ee5aeb500000000000000000000000000000000000000000000000000000000\n      dup2\n      mstore\n      0x04\n      add\n      mload(0x40)\n      dup1\n      swap2\n      sub\n      swap1\n      revert\n        /* \"@openzeppelin/contracts/utils/ReentrancyGuard.sol\":2698:2784  if (_status == ENTERED) {... */\n    tag_542:\n        /* \"@openzeppelin/contracts/utils/ReentrancyGuard.sol\":1899:1900  2 */\n      0x02\n        /* \"@openzeppelin/contracts/utils/ReentrancyGuard.sol\":2858:2865  _status */\n      0x00\n        /* \"@openzeppelin/contracts/utils/ReentrancyGuard.sol\":2858:2875  _status = ENTERED */\n      dup2\n      swap1\n      sstore\n      pop\n        /* \"@openzeppelin/contracts/utils/ReentrancyGuard.sol\":2575:2882  function _nonReentrantBefore() private {... */\n      jump\t// out\n        /* \"GGWStake.sol\":15441:15774  function _getCurrentMonthIndex() internal view returns (uint256) {... */\n    tag_321:\n        /* \"GGWStake.sol\":15497:15504  uint256 */\n      0x00\n        /* \"GGWStake.sol\":15517:15527  uint256 ts */\n      0x00\n        /* \"GGWStake.sol\":15530:15545  block.timestamp */\n      timestamp\n        /* \"GGWStake.sol\":15517:15545  uint256 ts = block.timestamp */\n      swap1\n      pop\n        /* \"GGWStake.sol\":15561:15570  uint256 i */\n      0x00\n        /* \"GGWStake.sol\":15573:15592  lastKnownMonthIndex */\n      sload(0x06)\n        /* \"GGWStake.sol\":15561:15592  uint256 i = lastKnownMonthIndex */\n      swap1\n      pop\n        /* \"GGWStake.sol\":15556:15736  for (uint256 i = lastKnownMonthIndex; i < months.length; i++) {... */\n    tag_544:\n        /* \"GGWStake.sol\":15598:15604  months */\n      0x0b\n        /* \"GGWStake.sol\":15598:15611  months.length */\n      dup1\n      sload\n      swap1\n      pop\n        /* \"GGWStake.sol\":15594:15595  i */\n      dup2\n        /* \"GGWStake.sol\":15594:15611  i < months.length */\n      lt\n        /* \"GGWStake.sol\":15556:15736  for (uint256 i = lastKnownMonthIndex; i < months.length; i++) {... */\n      iszero\n      tag_545\n      jumpi\n        /* \"GGWStake.sol\":15643:15649  months */\n      0x0b\n        /* \"GGWStake.sol\":15650:15651  i */\n      dup2\n        /* \"GGWStake.sol\":15643:15652  months[i] */\n      dup2\n      sload\n      dup2\n      lt\n      tag_547\n      jumpi\n      tag_548\n      tag_201\n      jump\t// in\n    tag_548:\n    tag_547:\n      swap1\n      0x00\n      mstore\n      keccak256(0x00, 0x20)\n      swap1\n      0x03\n      mul\n      add\n        /* \"GGWStake.sol\":15643:15658  months[i].start */\n      0x00\n      add\n      sload\n        /* \"GGWStake.sol\":15637:15639  ts */\n      dup3\n        /* \"GGWStake.sol\":15637:15658  ts >= months[i].start */\n      lt\n      iszero\n        /* \"GGWStake.sol\":15637:15680  ts >= months[i].start && ts < months[i].end */\n      dup1\n      iszero\n      tag_550\n      jumpi\n      pop\n        /* \"GGWStake.sol\":15667:15673  months */\n      0x0b\n        /* \"GGWStake.sol\":15674:15675  i */\n      dup2\n        /* \"GGWStake.sol\":15667:15676  months[i] */\n      dup2\n      sload\n      dup2\n      lt\n      tag_551\n      jumpi\n      tag_552\n      tag_201\n      jump\t// in\n    tag_552:\n    tag_551:\n      swap1\n      0x00\n      mstore\n      keccak256(0x00, 0x20)\n      swap1\n      0x03\n      mul\n      add\n        /* \"GGWStake.sol\":15667:15680  months[i].end */\n      0x01\n      add\n      sload\n        /* \"GGWStake.sol\":15662:15664  ts */\n      dup3\n        /* \"GGWStake.sol\":15662:15680  ts < months[i].end */\n      lt\n        /* \"GGWStake.sol\":15637:15680  ts >= months[i].start && ts < months[i].end */\n    tag_550:\n        /* \"GGWStake.sol\":15633:15725  if (ts >= months[i].start && ts < months[i].end) {... */\n      iszero\n      tag_554\n      jumpi\n        /* \"GGWStake.sol\":15708:15709  i */\n      dup1\n        /* \"GGWStake.sol\":15701:15709  return i */\n      swap3\n      pop\n      pop\n      pop\n      jump(tag_543)\n        /* \"GGWStake.sol\":15633:15725  if (ts >= months[i].start && ts < months[i].end) {... */\n    tag_554:\n        /* \"GGWStake.sol\":15613:15616  i++ */\n      dup1\n      dup1\n      0x01\n      add\n      swap2\n      pop\n      pop\n        /* \"GGWStake.sol\":15556:15736  for (uint256 i = lastKnownMonthIndex; i < months.length; i++) {... */\n      jump(tag_544)\n    tag_545:\n      pop\n        /* \"GGWStake.sol\":15753:15759  months */\n      0x0b\n        /* \"GGWStake.sol\":15753:15766  months.length */\n      dup1\n      sload\n      swap1\n      pop\n        /* \"GGWStake.sol\":15746:15766  return months.length */\n      swap2\n      pop\n      pop\n        /* \"GGWStake.sol\":15441:15774  function _getCurrentMonthIndex() internal view returns (uint256) {... */\n    tag_543:\n      swap1\n      jump\t// out\n        /* \"@openzeppelin/contracts/utils/ReentrancyGuard.sol\":2888:3096  function _nonReentrantAfter() private {... */\n    tag_342:\n        /* \"@openzeppelin/contracts/utils/ReentrancyGuard.sol\":1857:1858  1 */\n      0x01\n        /* \"@openzeppelin/contracts/utils/ReentrancyGuard.sol\":3068:3075  _status */\n      0x00\n        /* \"@openzeppelin/contracts/utils/ReentrancyGuard.sol\":3068:3089  _status = NOT_ENTERED */\n      dup2\n      swap1\n      sstore\n      pop\n        /* \"@openzeppelin/contracts/utils/ReentrancyGuard.sol\":2888:3096  function _nonReentrantAfter() private {... */\n      jump\t// out\n        /* \"GGWStake.sol\":10955:11243  function _getCurrentMonthIndexAt(uint256 ts) internal view returns (uint256) {... */\n    tag_484:\n        /* \"GGWStake.sol\":11023:11030  uint256 */\n      0x00\n        /* \"GGWStake.sol\":11048:11057  uint256 i */\n      0x00\n        /* \"GGWStake.sol\":11060:11061  0 */\n      0x00\n        /* \"GGWStake.sol\":11048:11061  uint256 i = 0 */\n      swap1\n      pop\n        /* \"GGWStake.sol\":11043:11205  for (uint256 i = 0; i < months.length; i++) {... */\n    tag_557:\n        /* \"GGWStake.sol\":11067:11073  months */\n      0x0b\n        /* \"GGWStake.sol\":11067:11080  months.length */\n      dup1\n      sload\n      swap1\n      pop\n        /* \"GGWStake.sol\":11063:11064  i */\n      dup2\n        /* \"GGWStake.sol\":11063:11080  i < months.length */\n      lt\n        /* \"GGWStake.sol\":11043:11205  for (uint256 i = 0; i < months.length; i++) {... */\n      iszero\n      tag_558\n      jumpi\n        /* \"GGWStake.sol\":11112:11118  months */\n      0x0b\n        /* \"GGWStake.sol\":11119:11120  i */\n      dup2\n        /* \"GGWStake.sol\":11112:11121  months[i] */\n      dup2\n      sload\n      dup2\n      lt\n      tag_560\n      jumpi\n      tag_561\n      tag_201\n      jump\t// in\n    tag_561:\n    tag_560:\n      swap1\n      0x00\n      mstore\n      keccak256(0x00, 0x20)\n      swap1\n      0x03\n      mul\n      add\n        /* \"GGWStake.sol\":11112:11127  months[i].start */\n      0x00\n      add\n      sload\n        /* \"GGWStake.sol\":11106:11108  ts */\n      dup4\n        /* \"GGWStake.sol\":11106:11127  ts >= months[i].start */\n      lt\n      iszero\n        /* \"GGWStake.sol\":11106:11149  ts >= months[i].start && ts < months[i].end */\n      dup1\n      iszero\n      tag_563\n      jumpi\n      pop\n        /* \"GGWStake.sol\":11136:11142  months */\n      0x0b\n        /* \"GGWStake.sol\":11143:11144  i */\n      dup2\n        /* \"GGWStake.sol\":11136:11145  months[i] */\n      dup2\n      sload\n      dup2\n      lt\n      tag_564\n      jumpi\n      tag_565\n      tag_201\n      jump\t// in\n    tag_565:\n    tag_564:\n      swap1\n      0x00\n      mstore\n      keccak256(0x00, 0x20)\n      swap1\n      0x03\n      mul\n      add\n        /* \"GGWStake.sol\":11136:11149  months[i].end */\n      0x01\n      add\n      sload\n        /* \"GGWStake.sol\":11131:11133  ts */\n      dup4\n        /* \"GGWStake.sol\":11131:11149  ts < months[i].end */\n      lt\n        /* \"GGWStake.sol\":11106:11149  ts >= months[i].start && ts < months[i].end */\n    tag_563:\n        /* \"GGWStake.sol\":11102:11194  if (ts >= months[i].start && ts < months[i].end) {... */\n      iszero\n      tag_567\n      jumpi\n        /* \"GGWStake.sol\":11177:11178  i */\n      dup1\n        /* \"GGWStake.sol\":11170:11178  return i */\n      swap2\n      pop\n      pop\n      jump(tag_556)\n        /* \"GGWStake.sol\":11102:11194  if (ts >= months[i].start && ts < months[i].end) {... */\n    tag_567:\n        /* \"GGWStake.sol\":11082:11085  i++ */\n      dup1\n      dup1\n      0x01\n      add\n      swap2\n      pop\n      pop\n        /* \"GGWStake.sol\":11043:11205  for (uint256 i = 0; i < months.length; i++) {... */\n      jump(tag_557)\n    tag_558:\n      pop\n        /* \"GGWStake.sol\":11222:11228  months */\n      0x0b\n        /* \"GGWStake.sol\":11222:11235  months.length */\n      dup1\n      sload\n      swap1\n      pop\n        /* \"GGWStake.sol\":11215:11235  return months.length */\n      swap1\n      pop\n        /* \"GGWStake.sol\":10955:11243  function _getCurrentMonthIndexAt(uint256 ts) internal view returns (uint256) {... */\n    tag_556:\n      swap2\n      swap1\n      pop\n      jump\t// out\n    tag_228:\n      mload(0x40)\n      dup1\n      0x0100\n      add\n      0x40\n      mstore\n      dup1\n      and(0xffffffffffffffffffffffffffffffffffffffff, 0x00)\n      dup2\n      mstore\n      0x20\n      add\n      0x00\n      dup2\n      mstore\n      0x20\n      add\n      0x00\n      dup2\n      mstore\n      0x20\n      add\n      0x00\n      dup2\n      mstore\n      0x20\n      add\n      0x00\n      dup2\n      mstore\n      0x20\n      add\n      0x00\n      dup2\n      mstore\n      0x20\n      add\n      0x00\n      dup2\n      mstore\n      0x20\n      add\n      iszero(iszero(0x00))\n      dup2\n      mstore\n      pop\n      swap1\n      jump\t// out\n        /* \"#utility.yul\":7:84   */\n    tag_568:\n        /* \"#utility.yul\":44:51   */\n      0x00\n        /* \"#utility.yul\":73:78   */\n      dup2\n        /* \"#utility.yul\":62:78   */\n      swap1\n      pop\n        /* \"#utility.yul\":7:84   */\n      swap2\n      swap1\n      pop\n      jump\t// out\n        /* \"#utility.yul\":90:208   */\n    tag_569:\n        /* \"#utility.yul\":177:201   */\n      tag_659\n        /* \"#utility.yul\":195:200   */\n      dup2\n        /* \"#utility.yul\":177:201   */\n      tag_568\n      jump\t// in\n    tag_659:\n        /* \"#utility.yul\":172:175   */\n      dup3\n        /* \"#utility.yul\":165:202   */\n      mstore\n        /* \"#utility.yul\":90:208   */\n      pop\n      pop\n      jump\t// out\n        /* \"#utility.yul\":214:436   */\n    tag_48:\n        /* \"#utility.yul\":307:311   */\n      0x00\n        /* \"#utility.yul\":345:347   */\n      0x20\n        /* \"#utility.yul\":334:343   */\n      dup3\n        /* \"#utility.yul\":330:348   */\n      add\n        /* \"#utility.yul\":322:348   */\n      swap1\n      pop\n        /* \"#utility.yul\":358:429   */\n      tag_661\n        /* \"#utility.yul\":426:427   */\n      0x00\n        /* \"#utility.yul\":415:424   */\n      dup4\n        /* \"#utility.yul\":411:428   */\n      add\n        /* \"#utility.yul\":402:408   */\n      dup5\n        /* \"#utility.yul\":358:429   */\n      tag_569\n      jump\t// in\n    tag_661:\n        /* \"#utility.yul\":214:436   */\n      swap3\n      swap2\n      pop\n      pop\n      jump\t// out\n        /* \"#utility.yul\":523:640   */\n    tag_571:\n        /* \"#utility.yul\":632:633   */\n      0x00\n        /* \"#utility.yul\":629:630   */\n      0x00\n        /* \"#utility.yul\":622:634   */\n      revert\n        /* \"#utility.yul\":646:763   */\n    tag_572:\n        /* \"#utility.yul\":755:756   */\n      0x00\n        /* \"#utility.yul\":752:753   */\n      0x00\n        /* \"#utility.yul\":745:757   */\n      revert\n        /* \"#utility.yul\":769:891   */\n    tag_573:\n        /* \"#utility.yul\":842:866   */\n      tag_666\n        /* \"#utility.yul\":860:865   */\n      dup2\n        /* \"#utility.yul\":842:866   */\n      tag_568\n      jump\t// in\n    tag_666:\n        /* \"#utility.yul\":835:840   */\n      dup2\n        /* \"#utility.yul\":832:867   */\n      eq\n        /* \"#utility.yul\":822:885   */\n      tag_667\n      jumpi\n        /* \"#utility.yul\":881:882   */\n      0x00\n        /* \"#utility.yul\":878:879   */\n      0x00\n        /* \"#utility.yul\":871:883   */\n      revert\n        /* \"#utility.yul\":822:885   */\n    tag_667:\n        /* \"#utility.yul\":769:891   */\n      pop\n      jump\t// out\n        /* \"#utility.yul\":897:1036   */\n    tag_574:\n        /* \"#utility.yul\":943:948   */\n      0x00\n        /* \"#utility.yul\":981:987   */\n      dup2\n        /* \"#utility.yul\":968:988   */\n      calldataload\n        /* \"#utility.yul\":959:988   */\n      swap1\n      pop\n        /* \"#utility.yul\":997:1030   */\n      tag_669\n        /* \"#utility.yul\":1024:1029   */\n      dup2\n        /* \"#utility.yul\":997:1030   */\n      tag_573\n      jump\t// in\n    tag_669:\n        /* \"#utility.yul\":897:1036   */\n      swap3\n      swap2\n      pop\n      pop\n      jump\t// out\n        /* \"#utility.yul\":1042:1807   */\n    tag_51:\n        /* \"#utility.yul\":1128:1134   */\n      0x00\n        /* \"#utility.yul\":1136:1142   */\n      0x00\n        /* \"#utility.yul\":1144:1150   */\n      0x00\n        /* \"#utility.yul\":1152:1158   */\n      0x00\n        /* \"#utility.yul\":1201:1204   */\n      0x80\n        /* \"#utility.yul\":1189:1198   */\n      dup6\n        /* \"#utility.yul\":1180:1187   */\n      dup8\n        /* \"#utility.yul\":1176:1199   */\n      sub\n        /* \"#utility.yul\":1172:1205   */\n      slt\n        /* \"#utility.yul\":1169:1289   */\n      iszero\n      tag_671\n      jumpi\n        /* \"#utility.yul\":1208:1287   */\n      tag_672\n      tag_571\n      jump\t// in\n    tag_672:\n        /* \"#utility.yul\":1169:1289   */\n    tag_671:\n        /* \"#utility.yul\":1328:1329   */\n      0x00\n        /* \"#utility.yul\":1353:1406   */\n      tag_673\n        /* \"#utility.yul\":1398:1405   */\n      dup8\n        /* \"#utility.yul\":1389:1395   */\n      dup3\n        /* \"#utility.yul\":1378:1387   */\n      dup9\n        /* \"#utility.yul\":1374:1396   */\n      add\n        /* \"#utility.yul\":1353:1406   */\n      tag_574\n      jump\t// in\n    tag_673:\n        /* \"#utility.yul\":1343:1406   */\n      swap5\n      pop\n        /* \"#utility.yul\":1299:1416   */\n      pop\n        /* \"#utility.yul\":1455:1457   */\n      0x20\n        /* \"#utility.yul\":1481:1534   */\n      tag_674\n        /* \"#utility.yul\":1526:1533   */\n      dup8\n        /* \"#utility.yul\":1517:1523   */\n      dup3\n        /* \"#utility.yul\":1506:1515   */\n      dup9\n        /* \"#utility.yul\":1502:1524   */\n      add\n        /* \"#utility.yul\":1481:1534   */\n      tag_574\n      jump\t// in\n    tag_674:\n        /* \"#utility.yul\":1471:1534   */\n      swap4\n      pop\n        /* \"#utility.yul\":1426:1544   */\n      pop\n        /* \"#utility.yul\":1583:1585   */\n      0x40\n        /* \"#utility.yul\":1609:1662   */\n      tag_675\n        /* \"#utility.yul\":1654:1661   */\n      dup8\n        /* \"#utility.yul\":1645:1651   */\n      dup3\n        /* \"#utility.yul\":1634:1643   */\n      dup9\n        /* \"#utility.yul\":1630:1652   */\n      add\n        /* \"#utility.yul\":1609:1662   */\n      tag_574\n      jump\t// in\n    tag_675:\n        /* \"#utility.yul\":1599:1662   */\n      swap3\n      pop\n        /* \"#utility.yul\":1554:1672   */\n      pop\n        /* \"#utility.yul\":1711:1713   */\n      0x60\n        /* \"#utility.yul\":1737:1790   */\n      tag_676\n        /* \"#utility.yul\":1782:1789   */\n      dup8\n        /* \"#utility.yul\":1773:1779   */\n      dup3\n        /* \"#utility.yul\":1762:1771   */\n      dup9\n        /* \"#utility.yul\":1758:1780   */\n      add\n        /* \"#utility.yul\":1737:1790   */\n      tag_574\n      jump\t// in\n    tag_676:\n        /* \"#utility.yul\":1727:1790   */\n      swap2\n      pop\n        /* \"#utility.yul\":1682:1800   */\n      pop\n        /* \"#utility.yul\":1042:1807   */\n      swap3\n      swap6\n      swap2\n      swap5\n      pop\n      swap3\n      pop\n      jump\t// out\n        /* \"#utility.yul\":1813:1939   */\n    tag_575:\n        /* \"#utility.yul\":1850:1857   */\n      0x00\n        /* \"#utility.yul\":1890:1932   */\n      0xffffffffffffffffffffffffffffffffffffffff\n        /* \"#utility.yul\":1883:1888   */\n      dup3\n        /* \"#utility.yul\":1879:1933   */\n      and\n        /* \"#utility.yul\":1868:1933   */\n      swap1\n      pop\n        /* \"#utility.yul\":1813:1939   */\n      swap2\n      swap1\n      pop\n      jump\t// out\n        /* \"#utility.yul\":1945:2041   */\n    tag_576:\n        /* \"#utility.yul\":1982:1989   */\n      0x00\n        /* \"#utility.yul\":2011:2035   */\n      tag_679\n        /* \"#utility.yul\":2029:2034   */\n      dup3\n        /* \"#utility.yul\":2011:2035   */\n      tag_575\n      jump\t// in\n    tag_679:\n        /* \"#utility.yul\":2000:2035   */\n      swap1\n      pop\n        /* \"#utility.yul\":1945:2041   */\n      swap2\n      swap1\n      pop\n      jump\t// out\n        /* \"#utility.yul\":2047:2169   */\n    tag_577:\n        /* \"#utility.yul\":2120:2144   */\n      tag_681\n        /* \"#utility.yul\":2138:2143   */\n      dup2\n        /* \"#utility.yul\":2120:2144   */\n      tag_576\n      jump\t// in\n    tag_681:\n        /* \"#utility.yul\":2113:2118   */\n      dup2\n        /* \"#utility.yul\":2110:2145   */\n      eq\n        /* \"#utility.yul\":2100:2163   */\n      tag_682\n      jumpi\n        /* \"#utility.yul\":2159:2160   */\n      0x00\n        /* \"#utility.yul\":2156:2157   */\n      0x00\n        /* \"#utility.yul\":2149:2161   */\n      revert\n        /* \"#utility.yul\":2100:2163   */\n    tag_682:\n        /* \"#utility.yul\":2047:2169   */\n      pop\n      jump\t// out\n        /* \"#utility.yul\":2175:2314   */\n    tag_578:\n        /* \"#utility.yul\":2221:2226   */\n      0x00\n        /* \"#utility.yul\":2259:2265   */\n      dup2\n        /* \"#utility.yul\":2246:2266   */\n      calldataload\n        /* \"#utility.yul\":2237:2266   */\n      swap1\n      pop\n        /* \"#utility.yul\":2275:2308   */\n      tag_684\n        /* \"#utility.yul\":2302:2307   */\n      dup2\n        /* \"#utility.yul\":2275:2308   */\n      tag_577\n      jump\t// in\n    tag_684:\n        /* \"#utility.yul\":2175:2314   */\n      swap3\n      swap2\n      pop\n      pop\n      jump\t// out\n        /* \"#utility.yul\":2320:2794   */\n    tag_58:\n        /* \"#utility.yul\":2388:2394   */\n      0x00\n        /* \"#utility.yul\":2396:2402   */\n      0x00\n        /* \"#utility.yul\":2445:2447   */\n      0x40\n        /* \"#utility.yul\":2433:2442   */\n      dup4\n        /* \"#utility.yul\":2424:2431   */\n      dup6\n        /* \"#utility.yul\":2420:2443   */\n      sub\n        /* \"#utility.yul\":2416:2448   */\n      slt\n        /* \"#utility.yul\":2413:2532   */\n      iszero\n      tag_686\n      jumpi\n        /* \"#utility.yul\":2451:2530   */\n      tag_687\n      tag_571\n      jump\t// in\n    tag_687:\n        /* \"#utility.yul\":2413:2532   */\n    tag_686:\n        /* \"#utility.yul\":2571:2572   */\n      0x00\n        /* \"#utility.yul\":2596:2649   */\n      tag_688\n        /* \"#utility.yul\":2641:2648   */\n      dup6\n        /* \"#utility.yul\":2632:2638   */\n      dup3\n        /* \"#utility.yul\":2621:2630   */\n      dup7\n        /* \"#utility.yul\":2617:2639   */\n      add\n        /* \"#utility.yul\":2596:2649   */\n      tag_578\n      jump\t// in\n    tag_688:\n        /* \"#utility.yul\":2586:2649   */\n      swap3\n      pop\n        /* \"#utility.yul\":2542:2659   */\n      pop\n        /* \"#utility.yul\":2698:2700   */\n      0x20\n        /* \"#utility.yul\":2724:2777   */\n      tag_689\n        /* \"#utility.yul\":2769:2776   */\n      dup6\n        /* \"#utility.yul\":2760:2766   */\n      dup3\n        /* \"#utility.yul\":2749:2758   */\n      dup7\n        /* \"#utility.yul\":2745:2767   */\n      add\n        /* \"#utility.yul\":2724:2777   */\n      tag_574\n      jump\t// in\n    tag_689:\n        /* \"#utility.yul\":2714:2777   */\n      swap2\n      pop\n        /* \"#utility.yul\":2669:2787   */\n      pop\n        /* \"#utility.yul\":2320:2794   */\n      swap3\n      pop\n      swap3\n      swap1\n      pop\n      jump\t// out\n        /* \"#utility.yul\":2800:3129   */\n    tag_63:\n        /* \"#utility.yul\":2859:2865   */\n      0x00\n        /* \"#utility.yul\":2908:2910   */\n      0x20\n        /* \"#utility.yul\":2896:2905   */\n      dup3\n        /* \"#utility.yul\":2887:2894   */\n      dup5\n        /* \"#utility.yul\":2883:2906   */\n      sub\n        /* \"#utility.yul\":2879:2911   */\n      slt\n        /* \"#utility.yul\":2876:2995   */\n      iszero\n      tag_691\n      jumpi\n        /* \"#utility.yul\":2914:2993   */\n      tag_692\n      tag_571\n      jump\t// in\n    tag_692:\n        /* \"#utility.yul\":2876:2995   */\n    tag_691:\n        /* \"#utility.yul\":3034:3035   */\n      0x00\n        /* \"#utility.yul\":3059:3112   */\n      tag_693\n        /* \"#utility.yul\":3104:3111   */\n      dup5\n        /* \"#utility.yul\":3095:3101   */\n      dup3\n        /* \"#utility.yul\":3084:3093   */\n      dup6\n        /* \"#utility.yul\":3080:3102   */\n      add\n        /* \"#utility.yul\":3059:3112   */\n      tag_574\n      jump\t// in\n    tag_693:\n        /* \"#utility.yul\":3049:3112   */\n      swap2\n      pop\n        /* \"#utility.yul\":3005:3122   */\n      pop\n        /* \"#utility.yul\":2800:3129   */\n      swap3\n      swap2\n      pop\n      pop\n      jump\t// out\n        /* \"#utility.yul\":3135:3243   */\n    tag_579:\n        /* \"#utility.yul\":3212:3236   */\n      tag_695\n        /* \"#utility.yul\":3230:3235   */\n      dup2\n        /* \"#utility.yul\":3212:3236   */\n      tag_576\n      jump\t// in\n    tag_695:\n        /* \"#utility.yul\":3207:3210   */\n      dup3\n        /* \"#utility.yul\":3200:3237   */\n      mstore\n        /* \"#utility.yul\":3135:3243   */\n      pop\n      pop\n      jump\t// out\n        /* \"#utility.yul\":3249:3357   */\n    tag_580:\n        /* \"#utility.yul\":3326:3350   */\n      tag_697\n        /* \"#utility.yul\":3344:3349   */\n      dup2\n        /* \"#utility.yul\":3326:3350   */\n      tag_568\n      jump\t// in\n    tag_697:\n        /* \"#utility.yul\":3321:3324   */\n      dup3\n        /* \"#utility.yul\":3314:3351   */\n      mstore\n        /* \"#utility.yul\":3249:3357   */\n      pop\n      pop\n      jump\t// out\n        /* \"#utility.yul\":3363:3453   */\n    tag_581:\n        /* \"#utility.yul\":3397:3404   */\n      0x00\n        /* \"#utility.yul\":3440:3445   */\n      dup2\n        /* \"#utility.yul\":3433:3446   */\n      iszero\n        /* \"#utility.yul\":3426:3447   */\n      iszero\n        /* \"#utility.yul\":3415:3447   */\n      swap1\n      pop\n        /* \"#utility.yul\":3363:3453   */\n      swap2\n      swap1\n      pop\n      jump\t// out\n        /* \"#utility.yul\":3459:3558   */\n    tag_582:\n        /* \"#utility.yul\":3530:3551   */\n      tag_700\n        /* \"#utility.yul\":3545:3550   */\n      dup2\n        /* \"#utility.yul\":3530:3551   */\n      tag_581\n      jump\t// in\n    tag_700:\n        /* \"#utility.yul\":3525:3528   */\n      dup3\n        /* \"#utility.yul\":3518:3552   */\n      mstore\n        /* \"#utility.yul\":3459:3558   */\n      pop\n      pop\n      jump\t// out\n        /* \"#utility.yul\":3622:5222   */\n    tag_583:\n        /* \"#utility.yul\":3767:3773   */\n      0x0100\n        /* \"#utility.yul\":3762:3765   */\n      dup3\n        /* \"#utility.yul\":3758:3774   */\n      add\n        /* \"#utility.yul\":3857:3861   */\n      0x00\n        /* \"#utility.yul\":3850:3855   */\n      dup3\n        /* \"#utility.yul\":3846:3862   */\n      add\n        /* \"#utility.yul\":3840:3863   */\n      mload\n        /* \"#utility.yul\":3876:3939   */\n      tag_702\n        /* \"#utility.yul\":3933:3937   */\n      0x00\n        /* \"#utility.yul\":3928:3931   */\n      dup6\n        /* \"#utility.yul\":3924:3938   */\n      add\n        /* \"#utility.yul\":3910:3922   */\n      dup3\n        /* \"#utility.yul\":3876:3939   */\n      tag_579\n      jump\t// in\n    tag_702:\n        /* \"#utility.yul\":3784:3949   */\n      pop\n        /* \"#utility.yul\":4033:4037   */\n      0x20\n        /* \"#utility.yul\":4026:4031   */\n      dup3\n        /* \"#utility.yul\":4022:4038   */\n      add\n        /* \"#utility.yul\":4016:4039   */\n      mload\n        /* \"#utility.yul\":4052:4115   */\n      tag_703\n        /* \"#utility.yul\":4109:4113   */\n      0x20\n        /* \"#utility.yul\":4104:4107   */\n      dup6\n        /* \"#utility.yul\":4100:4114   */\n      add\n        /* \"#utility.yul\":4086:4098   */\n      dup3\n        /* \"#utility.yul\":4052:4115   */\n      tag_580\n      jump\t// in\n    tag_703:\n        /* \"#utility.yul\":3959:4125   */\n      pop\n        /* \"#utility.yul\":4213:4217   */\n      0x40\n        /* \"#utility.yul\":4206:4211   */\n      dup3\n        /* \"#utility.yul\":4202:4218   */\n      add\n        /* \"#utility.yul\":4196:4219   */\n      mload\n        /* \"#utility.yul\":4232:4295   */\n      tag_704\n        /* \"#utility.yul\":4289:4293   */\n      0x40\n        /* \"#utility.yul\":4284:4287   */\n      dup6\n        /* \"#utility.yul\":4280:4294   */\n      add\n        /* \"#utility.yul\":4266:4278   */\n      dup3\n        /* \"#utility.yul\":4232:4295   */\n      tag_580\n      jump\t// in\n    tag_704:\n        /* \"#utility.yul\":4135:4305   */\n      pop\n        /* \"#utility.yul\":4395:4399   */\n      0x60\n        /* \"#utility.yul\":4388:4393   */\n      dup3\n        /* \"#utility.yul\":4384:4400   */\n      add\n        /* \"#utility.yul\":4378:4401   */\n      mload\n        /* \"#utility.yul\":4414:4477   */\n      tag_705\n        /* \"#utility.yul\":4471:4475   */\n      0x60\n        /* \"#utility.yul\":4466:4469   */\n      dup6\n        /* \"#utility.yul\":4462:4476   */\n      add\n        /* \"#utility.yul\":4448:4460   */\n      dup3\n        /* \"#utility.yul\":4414:4477   */\n      tag_580\n      jump\t// in\n    tag_705:\n        /* \"#utility.yul\":4315:4487   */\n      pop\n        /* \"#utility.yul\":4578:4582   */\n      0x80\n        /* \"#utility.yul\":4571:4576   */\n      dup3\n        /* \"#utility.yul\":4567:4583   */\n      add\n        /* \"#utility.yul\":4561:4584   */\n      mload\n        /* \"#utility.yul\":4597:4660   */\n      tag_706\n        /* \"#utility.yul\":4654:4658   */\n      0x80\n        /* \"#utility.yul\":4649:4652   */\n      dup6\n        /* \"#utility.yul\":4645:4659   */\n      add\n        /* \"#utility.yul\":4631:4643   */\n      dup3\n        /* \"#utility.yul\":4597:4660   */\n      tag_580\n      jump\t// in\n    tag_706:\n        /* \"#utility.yul\":4497:4670   */\n      pop\n        /* \"#utility.yul\":4764:4768   */\n      0xa0\n        /* \"#utility.yul\":4757:4762   */\n      dup3\n        /* \"#utility.yul\":4753:4769   */\n      add\n        /* \"#utility.yul\":4747:4770   */\n      mload\n        /* \"#utility.yul\":4783:4846   */\n      tag_707\n        /* \"#utility.yul\":4840:4844   */\n      0xa0\n        /* \"#utility.yul\":4835:4838   */\n      dup6\n        /* \"#utility.yul\":4831:4845   */\n      add\n        /* \"#utility.yul\":4817:4829   */\n      dup3\n        /* \"#utility.yul\":4783:4846   */\n      tag_580\n      jump\t// in\n    tag_707:\n        /* \"#utility.yul\":4680:4856   */\n      pop\n        /* \"#utility.yul\":4953:4957   */\n      0xc0\n        /* \"#utility.yul\":4946:4951   */\n      dup3\n        /* \"#utility.yul\":4942:4958   */\n      add\n        /* \"#utility.yul\":4936:4959   */\n      mload\n        /* \"#utility.yul\":4972:5035   */\n      tag_708\n        /* \"#utility.yul\":5029:5033   */\n      0xc0\n        /* \"#utility.yul\":5024:5027   */\n      dup6\n        /* \"#utility.yul\":5020:5034   */\n      add\n        /* \"#utility.yul\":5006:5018   */\n      dup3\n        /* \"#utility.yul\":4972:5035   */\n      tag_580\n      jump\t// in\n    tag_708:\n        /* \"#utility.yul\":4866:5045   */\n      pop\n        /* \"#utility.yul\":5129:5133   */\n      0xe0\n        /* \"#utility.yul\":5122:5127   */\n      dup3\n        /* \"#utility.yul\":5118:5134   */\n      add\n        /* \"#utility.yul\":5112:5135   */\n      mload\n        /* \"#utility.yul\":5148:5205   */\n      tag_709\n        /* \"#utility.yul\":5199:5203   */\n      0xe0\n        /* \"#utility.yul\":5194:5197   */\n      dup6\n        /* \"#utility.yul\":5190:5204   */\n      add\n        /* \"#utility.yul\":5176:5188   */\n      dup3\n        /* \"#utility.yul\":5148:5205   */\n      tag_582\n      jump\t// in\n    tag_709:\n        /* \"#utility.yul\":5055:5215   */\n      pop\n        /* \"#utility.yul\":3736:5222   */\n      pop\n        /* \"#utility.yul\":3622:5222   */\n      pop\n      pop\n      jump\t// out\n        /* \"#utility.yul\":5228:5547   */\n    tag_72:\n        /* \"#utility.yul\":5369:5373   */\n      0x00\n        /* \"#utility.yul\":5407:5410   */\n      0x0100\n        /* \"#utility.yul\":5396:5405   */\n      dup3\n        /* \"#utility.yul\":5392:5411   */\n      add\n        /* \"#utility.yul\":5384:5411   */\n      swap1\n      pop\n        /* \"#utility.yul\":5421:5540   */\n      tag_711\n        /* \"#utility.yul\":5537:5538   */\n      0x00\n        /* \"#utility.yul\":5526:5535   */\n      dup4\n        /* \"#utility.yul\":5522:5539   */\n      add\n        /* \"#utility.yul\":5513:5519   */\n      dup5\n        /* \"#utility.yul\":5421:5540   */\n      tag_583\n      jump\t// in\n    tag_711:\n        /* \"#utility.yul\":5228:5547   */\n      swap3\n      swap2\n      pop\n      pop\n      jump\t// out\n        /* \"#utility.yul\":5553:5995   */\n    tag_77:\n        /* \"#utility.yul\":5702:5706   */\n      0x00\n        /* \"#utility.yul\":5740:5742   */\n      0x60\n        /* \"#utility.yul\":5729:5738   */\n      dup3\n        /* \"#utility.yul\":5725:5743   */\n      add\n        /* \"#utility.yul\":5717:5743   */\n      swap1\n      pop\n        /* \"#utility.yul\":5753:5824   */\n      tag_713\n        /* \"#utility.yul\":5821:5822   */\n      0x00\n        /* \"#utility.yul\":5810:5819   */\n      dup4\n        /* \"#utility.yul\":5806:5823   */\n      add\n        /* \"#utility.yul\":5797:5803   */\n      dup7\n        /* \"#utility.yul\":5753:5824   */\n      tag_569\n      jump\t// in\n    tag_713:\n        /* \"#utility.yul\":5834:5906   */\n      tag_714\n        /* \"#utility.yul\":5902:5904   */\n      0x20\n        /* \"#utility.yul\":5891:5900   */\n      dup4\n        /* \"#utility.yul\":5887:5905   */\n      add\n        /* \"#utility.yul\":5878:5884   */\n      dup6\n        /* \"#utility.yul\":5834:5906   */\n      tag_569\n      jump\t// in\n    tag_714:\n        /* \"#utility.yul\":5916:5988   */\n      tag_715\n        /* \"#utility.yul\":5984:5986   */\n      0x40\n        /* \"#utility.yul\":5973:5982   */\n      dup4\n        /* \"#utility.yul\":5969:5987   */\n      add\n        /* \"#utility.yul\":5960:5966   */\n      dup5\n        /* \"#utility.yul\":5916:5988   */\n      tag_569\n      jump\t// in\n    tag_715:\n        /* \"#utility.yul\":5553:5995   */\n      swap5\n      swap4\n      pop\n      pop\n      pop\n      pop\n      jump\t// out\n        /* \"#utility.yul\":6001:6620   */\n    tag_80:\n        /* \"#utility.yul\":6078:6084   */\n      0x00\n        /* \"#utility.yul\":6086:6092   */\n      0x00\n        /* \"#utility.yul\":6094:6100   */\n      0x00\n        /* \"#utility.yul\":6143:6145   */\n      0x60\n        /* \"#utility.yul\":6131:6140   */\n      dup5\n        /* \"#utility.yul\":6122:6129   */\n      dup7\n        /* \"#utility.yul\":6118:6141   */\n      sub\n        /* \"#utility.yul\":6114:6146   */\n      slt\n        /* \"#utility.yul\":6111:6230   */\n      iszero\n      tag_717\n      jumpi\n        /* \"#utility.yul\":6149:6228   */\n      tag_718\n      tag_571\n      jump\t// in\n    tag_718:\n        /* \"#utility.yul\":6111:6230   */\n    tag_717:\n        /* \"#utility.yul\":6269:6270   */\n      0x00\n        /* \"#utility.yul\":6294:6347   */\n      tag_719\n        /* \"#utility.yul\":6339:6346   */\n      dup7\n        /* \"#utility.yul\":6330:6336   */\n      dup3\n        /* \"#utility.yul\":6319:6328   */\n      dup8\n        /* \"#utility.yul\":6315:6337   */\n      add\n        /* \"#utility.yul\":6294:6347   */\n      tag_574\n      jump\t// in\n    tag_719:\n        /* \"#utility.yul\":6284:6347   */\n      swap4\n      pop\n        /* \"#utility.yul\":6240:6357   */\n      pop\n        /* \"#utility.yul\":6396:6398   */\n      0x20\n        /* \"#utility.yul\":6422:6475   */\n      tag_720\n        /* \"#utility.yul\":6467:6474   */\n      dup7\n        /* \"#utility.yul\":6458:6464   */\n      dup3\n        /* \"#utility.yul\":6447:6456   */\n      dup8\n        /* \"#utility.yul\":6443:6465   */\n      add\n        /* \"#utility.yul\":6422:6475   */\n      tag_574\n      jump\t// in\n    tag_720:\n        /* \"#utility.yul\":6412:6475   */\n      swap3\n      pop\n        /* \"#utility.yul\":6367:6485   */\n      pop\n        /* \"#utility.yul\":6524:6526   */\n      0x40\n        /* \"#utility.yul\":6550:6603   */\n      tag_721\n        /* \"#utility.yul\":6595:6602   */\n      dup7\n        /* \"#utility.yul\":6586:6592   */\n      dup3\n        /* \"#utility.yul\":6575:6584   */\n      dup8\n        /* \"#utility.yul\":6571:6593   */\n      add\n        /* \"#utility.yul\":6550:6603   */\n      tag_574\n      jump\t// in\n    tag_721:\n        /* \"#utility.yul\":6540:6603   */\n      swap2\n      pop\n        /* \"#utility.yul\":6495:6613   */\n      pop\n        /* \"#utility.yul\":6001:6620   */\n      swap3\n      pop\n      swap3\n      pop\n      swap3\n      jump\t// out\n        /* \"#utility.yul\":6626:6955   */\n    tag_84:\n        /* \"#utility.yul\":6685:6691   */\n      0x00\n        /* \"#utility.yul\":6734:6736   */\n      0x20\n        /* \"#utility.yul\":6722:6731   */\n      dup3\n        /* \"#utility.yul\":6713:6720   */\n      dup5\n        /* \"#utility.yul\":6709:6732   */\n      sub\n        /* \"#utility.yul\":6705:6737   */\n      slt\n        /* \"#utility.yul\":6702:6821   */\n      iszero\n      tag_723\n      jumpi\n        /* \"#utility.yul\":6740:6819   */\n      tag_724\n      tag_571\n      jump\t// in\n    tag_724:\n        /* \"#utility.yul\":6702:6821   */\n    tag_723:\n        /* \"#utility.yul\":6860:6861   */\n      0x00\n        /* \"#utility.yul\":6885:6938   */\n      tag_725\n        /* \"#utility.yul\":6930:6937   */\n      dup5\n        /* \"#utility.yul\":6921:6927   */\n      dup3\n        /* \"#utility.yul\":6910:6919   */\n      dup6\n        /* \"#utility.yul\":6906:6928   */\n      add\n        /* \"#utility.yul\":6885:6938   */\n      tag_578\n      jump\t// in\n    tag_725:\n        /* \"#utility.yul\":6875:6938   */\n      swap2\n      pop\n        /* \"#utility.yul\":6831:6948   */\n      pop\n        /* \"#utility.yul\":6626:6955   */\n      swap3\n      swap2\n      pop\n      pop\n      jump\t// out\n        /* \"#utility.yul\":6961:7075   */\n    tag_584:\n        /* \"#utility.yul\":7028:7034   */\n      0x00\n        /* \"#utility.yul\":7062:7067   */\n      dup2\n        /* \"#utility.yul\":7056:7068   */\n      mload\n        /* \"#utility.yul\":7046:7068   */\n      swap1\n      pop\n        /* \"#utility.yul\":6961:7075   */\n      swap2\n      swap1\n      pop\n      jump\t// out\n        /* \"#utility.yul\":7081:7265   */\n    tag_585:\n        /* \"#utility.yul\":7180:7191   */\n      0x00\n        /* \"#utility.yul\":7214:7220   */\n      dup3\n        /* \"#utility.yul\":7209:7212   */\n      dup3\n        /* \"#utility.yul\":7202:7221   */\n      mstore\n        /* \"#utility.yul\":7254:7258   */\n      0x20\n        /* \"#utility.yul\":7249:7252   */\n      dup3\n        /* \"#utility.yul\":7245:7259   */\n      add\n        /* \"#utility.yul\":7230:7259   */\n      swap1\n      pop\n        /* \"#utility.yul\":7081:7265   */\n      swap3\n      swap2\n      pop\n      pop\n      jump\t// out\n        /* \"#utility.yul\":7271:7403   */\n    tag_586:\n        /* \"#utility.yul\":7338:7342   */\n      0x00\n        /* \"#utility.yul\":7361:7364   */\n      dup2\n        /* \"#utility.yul\":7353:7364   */\n      swap1\n      pop\n        /* \"#utility.yul\":7391:7395   */\n      0x20\n        /* \"#utility.yul\":7386:7389   */\n      dup3\n        /* \"#utility.yul\":7382:7396   */\n      add\n        /* \"#utility.yul\":7374:7396   */\n      swap1\n      pop\n        /* \"#utility.yul\":7271:7403   */\n      swap2\n      swap1\n      pop\n      jump\t// out\n        /* \"#utility.yul\":7409:7588   */\n    tag_587:\n        /* \"#utility.yul\":7478:7488   */\n      0x00\n        /* \"#utility.yul\":7499:7545   */\n      tag_730\n        /* \"#utility.yul\":7541:7544   */\n      dup4\n        /* \"#utility.yul\":7533:7539   */\n      dup4\n        /* \"#utility.yul\":7499:7545   */\n      tag_580\n      jump\t// in\n    tag_730:\n        /* \"#utility.yul\":7577:7581   */\n      0x20\n        /* \"#utility.yul\":7572:7575   */\n      dup4\n        /* \"#utility.yul\":7568:7582   */\n      add\n        /* \"#utility.yul\":7554:7582   */\n      swap1\n      pop\n        /* \"#utility.yul\":7409:7588   */\n      swap3\n      swap2\n      pop\n      pop\n      jump\t// out\n        /* \"#utility.yul\":7594:7707   */\n    tag_588:\n        /* \"#utility.yul\":7664:7668   */\n      0x00\n        /* \"#utility.yul\":7696:7700   */\n      0x20\n        /* \"#utility.yul\":7691:7694   */\n      dup3\n        /* \"#utility.yul\":7687:7701   */\n      add\n        /* \"#utility.yul\":7679:7701   */\n      swap1\n      pop\n        /* \"#utility.yul\":7594:7707   */\n      swap2\n      swap1\n      pop\n      jump\t// out\n        /* \"#utility.yul\":7743:8475   */\n    tag_589:\n        /* \"#utility.yul\":7862:7865   */\n      0x00\n        /* \"#utility.yul\":7891:7945   */\n      tag_733\n        /* \"#utility.yul\":7939:7944   */\n      dup3\n        /* \"#utility.yul\":7891:7945   */\n      tag_584\n      jump\t// in\n    tag_733:\n        /* \"#utility.yul\":7961:8047   */\n      tag_734\n        /* \"#utility.yul\":8040:8046   */\n      dup2\n        /* \"#utility.yul\":8035:8038   */\n      dup6\n        /* \"#utility.yul\":7961:8047   */\n      tag_585\n      jump\t// in\n    tag_734:\n        /* \"#utility.yul\":7954:8047   */\n      swap4\n      pop\n        /* \"#utility.yul\":8071:8127   */\n      tag_735\n        /* \"#utility.yul\":8121:8126   */\n      dup4\n        /* \"#utility.yul\":8071:8127   */\n      tag_586\n      jump\t// in\n    tag_735:\n        /* \"#utility.yul\":8150:8157   */\n      dup1\n        /* \"#utility.yul\":8181:8182   */\n      0x00\n        /* \"#utility.yul\":8166:8450   */\n    tag_736:\n        /* \"#utility.yul\":8191:8197   */\n      dup4\n        /* \"#utility.yul\":8188:8189   */\n      dup2\n        /* \"#utility.yul\":8185:8198   */\n      lt\n        /* \"#utility.yul\":8166:8450   */\n      iszero\n      tag_738\n      jumpi\n        /* \"#utility.yul\":8267:8273   */\n      dup2\n        /* \"#utility.yul\":8261:8274   */\n      mload\n        /* \"#utility.yul\":8294:8357   */\n      tag_739\n        /* \"#utility.yul\":8353:8356   */\n      dup9\n        /* \"#utility.yul\":8338:8351   */\n      dup3\n        /* \"#utility.yul\":8294:8357   */\n      tag_587\n      jump\t// in\n    tag_739:\n        /* \"#utility.yul\":8287:8357   */\n      swap8\n      pop\n        /* \"#utility.yul\":8380:8440   */\n      tag_740\n        /* \"#utility.yul\":8433:8439   */\n      dup4\n        /* \"#utility.yul\":8380:8440   */\n      tag_588\n      jump\t// in\n    tag_740:\n        /* \"#utility.yul\":8370:8440   */\n      swap3\n      pop\n        /* \"#utility.yul\":8226:8450   */\n      pop\n        /* \"#utility.yul\":8213:8214   */\n      0x01\n        /* \"#utility.yul\":8210:8211   */\n      dup2\n        /* \"#utility.yul\":8206:8215   */\n      add\n        /* \"#utility.yul\":8201:8215   */\n      swap1\n      pop\n        /* \"#utility.yul\":8166:8450   */\n      jump(tag_736)\n    tag_738:\n        /* \"#utility.yul\":8170:8184   */\n      pop\n        /* \"#utility.yul\":8466:8469   */\n      dup6\n        /* \"#utility.yul\":8459:8469   */\n      swap4\n      pop\n        /* \"#utility.yul\":7867:8475   */\n      pop\n      pop\n      pop\n        /* \"#utility.yul\":7743:8475   */\n      swap3\n      swap2\n      pop\n      pop\n      jump\t// out\n        /* \"#utility.yul\":8481:8854   */\n    tag_87:\n        /* \"#utility.yul\":8624:8628   */\n      0x00\n        /* \"#utility.yul\":8662:8664   */\n      0x20\n        /* \"#utility.yul\":8651:8660   */\n      dup3\n        /* \"#utility.yul\":8647:8665   */\n      add\n        /* \"#utility.yul\":8639:8665   */\n      swap1\n      pop\n        /* \"#utility.yul\":8711:8720   */\n      dup2\n        /* \"#utility.yul\":8705:8709   */\n      dup2\n        /* \"#utility.yul\":8701:8721   */\n      sub\n        /* \"#utility.yul\":8697:8698   */\n      0x00\n        /* \"#utility.yul\":8686:8695   */\n      dup4\n        /* \"#utility.yul\":8682:8699   */\n      add\n        /* \"#utility.yul\":8675:8722   */\n      mstore\n        /* \"#utility.yul\":8739:8847   */\n      tag_742\n        /* \"#utility.yul\":8842:8846   */\n      dup2\n        /* \"#utility.yul\":8833:8839   */\n      dup5\n        /* \"#utility.yul\":8739:8847   */\n      tag_589\n      jump\t// in\n    tag_742:\n        /* \"#utility.yul\":8731:8847   */\n      swap1\n      pop\n        /* \"#utility.yul\":8481:8854   */\n      swap3\n      swap2\n      pop\n      pop\n      jump\t// out\n        /* \"#utility.yul\":8860:8977   */\n    tag_590:\n        /* \"#utility.yul\":8969:8970   */\n      0x00\n        /* \"#utility.yul\":8966:8967   */\n      0x00\n        /* \"#utility.yul\":8959:8971   */\n      revert\n        /* \"#utility.yul\":8983:9100   */\n    tag_591:\n        /* \"#utility.yul\":9092:9093   */\n      0x00\n        /* \"#utility.yul\":9089:9090   */\n      0x00\n        /* \"#utility.yul\":9082:9094   */\n      revert\n        /* \"#utility.yul\":9106:9223   */\n    tag_592:\n        /* \"#utility.yul\":9215:9216   */\n      0x00\n        /* \"#utility.yul\":9212:9213   */\n      0x00\n        /* \"#utility.yul\":9205:9217   */\n      revert\n        /* \"#utility.yul\":9246:9814   */\n    tag_593:\n        /* \"#utility.yul\":9319:9327   */\n      0x00\n        /* \"#utility.yul\":9329:9335   */\n      0x00\n        /* \"#utility.yul\":9379:9382   */\n      dup4\n        /* \"#utility.yul\":9372:9376   */\n      0x1f\n        /* \"#utility.yul\":9364:9370   */\n      dup5\n        /* \"#utility.yul\":9360:9377   */\n      add\n        /* \"#utility.yul\":9356:9383   */\n      slt\n        /* \"#utility.yul\":9346:9468   */\n      tag_747\n      jumpi\n        /* \"#utility.yul\":9387:9466   */\n      tag_748\n      tag_590\n      jump\t// in\n    tag_748:\n        /* \"#utility.yul\":9346:9468   */\n    tag_747:\n        /* \"#utility.yul\":9500:9506   */\n      dup3\n        /* \"#utility.yul\":9487:9507   */\n      calldataload\n        /* \"#utility.yul\":9477:9507   */\n      swap1\n      pop\n        /* \"#utility.yul\":9530:9548   */\n      0xffffffffffffffff\n        /* \"#utility.yul\":9522:9528   */\n      dup2\n        /* \"#utility.yul\":9519:9549   */\n      gt\n        /* \"#utility.yul\":9516:9633   */\n      iszero\n      tag_749\n      jumpi\n        /* \"#utility.yul\":9552:9631   */\n      tag_750\n      tag_591\n      jump\t// in\n    tag_750:\n        /* \"#utility.yul\":9516:9633   */\n    tag_749:\n        /* \"#utility.yul\":9666:9670   */\n      0x20\n        /* \"#utility.yul\":9658:9664   */\n      dup4\n        /* \"#utility.yul\":9654:9671   */\n      add\n        /* \"#utility.yul\":9642:9671   */\n      swap2\n      pop\n        /* \"#utility.yul\":9720:9723   */\n      dup4\n        /* \"#utility.yul\":9712:9716   */\n      0x20\n        /* \"#utility.yul\":9704:9710   */\n      dup3\n        /* \"#utility.yul\":9700:9717   */\n      mul\n        /* \"#utility.yul\":9690:9698   */\n      dup4\n        /* \"#utility.yul\":9686:9718   */\n      add\n        /* \"#utility.yul\":9683:9724   */\n      gt\n        /* \"#utility.yul\":9680:9808   */\n      iszero\n      tag_751\n      jumpi\n        /* \"#utility.yul\":9727:9806   */\n      tag_752\n      tag_592\n      jump\t// in\n    tag_752:\n        /* \"#utility.yul\":9680:9808   */\n    tag_751:\n        /* \"#utility.yul\":9246:9814   */\n      swap3\n      pop\n      swap3\n      swap1\n      pop\n      jump\t// out\n        /* \"#utility.yul\":9820:11129   */\n    tag_94:\n        /* \"#utility.yul\":9978:9984   */\n      0x00\n        /* \"#utility.yul\":9986:9992   */\n      0x00\n        /* \"#utility.yul\":9994:10000   */\n      0x00\n        /* \"#utility.yul\":10002:10008   */\n      0x00\n        /* \"#utility.yul\":10010:10016   */\n      0x00\n        /* \"#utility.yul\":10018:10024   */\n      0x00\n        /* \"#utility.yul\":10067:10069   */\n      0x60\n        /* \"#utility.yul\":10055:10064   */\n      dup8\n        /* \"#utility.yul\":10046:10053   */\n      dup10\n        /* \"#utility.yul\":10042:10065   */\n      sub\n        /* \"#utility.yul\":10038:10070   */\n      slt\n        /* \"#utility.yul\":10035:10154   */\n      iszero\n      tag_754\n      jumpi\n        /* \"#utility.yul\":10073:10152   */\n      tag_755\n      tag_571\n      jump\t// in\n    tag_755:\n        /* \"#utility.yul\":10035:10154   */\n    tag_754:\n        /* \"#utility.yul\":10221:10222   */\n      0x00\n        /* \"#utility.yul\":10210:10219   */\n      dup8\n        /* \"#utility.yul\":10206:10223   */\n      add\n        /* \"#utility.yul\":10193:10224   */\n      calldataload\n        /* \"#utility.yul\":10251:10269   */\n      0xffffffffffffffff\n        /* \"#utility.yul\":10243:10249   */\n      dup2\n        /* \"#utility.yul\":10240:10270   */\n      gt\n        /* \"#utility.yul\":10237:10354   */\n      iszero\n      tag_756\n      jumpi\n        /* \"#utility.yul\":10273:10352   */\n      tag_757\n      tag_572\n      jump\t// in\n    tag_757:\n        /* \"#utility.yul\":10237:10354   */\n    tag_756:\n        /* \"#utility.yul\":10386:10466   */\n      tag_758\n        /* \"#utility.yul\":10458:10465   */\n      dup10\n        /* \"#utility.yul\":10449:10455   */\n      dup3\n        /* \"#utility.yul\":10438:10447   */\n      dup11\n        /* \"#utility.yul\":10434:10456   */\n      add\n        /* \"#utility.yul\":10386:10466   */\n      tag_593\n      jump\t// in\n    tag_758:\n        /* \"#utility.yul\":10368:10466   */\n      swap7\n      pop\n      swap7\n      pop\n        /* \"#utility.yul\":10164:10476   */\n      pop\n        /* \"#utility.yul\":10543:10545   */\n      0x20\n        /* \"#utility.yul\":10532:10541   */\n      dup8\n        /* \"#utility.yul\":10528:10546   */\n      add\n        /* \"#utility.yul\":10515:10547   */\n      calldataload\n        /* \"#utility.yul\":10574:10592   */\n      0xffffffffffffffff\n        /* \"#utility.yul\":10566:10572   */\n      dup2\n        /* \"#utility.yul\":10563:10593   */\n      gt\n        /* \"#utility.yul\":10560:10677   */\n      iszero\n      tag_759\n      jumpi\n        /* \"#utility.yul\":10596:10675   */\n      tag_760\n      tag_572\n      jump\t// in\n    tag_760:\n        /* \"#utility.yul\":10560:10677   */\n    tag_759:\n        /* \"#utility.yul\":10709:10789   */\n      tag_761\n        /* \"#utility.yul\":10781:10788   */\n      dup10\n        /* \"#utility.yul\":10772:10778   */\n      dup3\n        /* \"#utility.yul\":10761:10770   */\n      dup11\n        /* \"#utility.yul\":10757:10779   */\n      add\n        /* \"#utility.yul\":10709:10789   */\n      tag_593\n      jump\t// in\n    tag_761:\n        /* \"#utility.yul\":10691:10789   */\n      swap5\n      pop\n      swap5\n      pop\n        /* \"#utility.yul\":10486:10799   */\n      pop\n        /* \"#utility.yul\":10866:10868   */\n      0x40\n        /* \"#utility.yul\":10855:10864   */\n      dup8\n        /* \"#utility.yul\":10851:10869   */\n      add\n        /* \"#utility.yul\":10838:10870   */\n      calldataload\n        /* \"#utility.yul\":10897:10915   */\n      0xffffffffffffffff\n        /* \"#utility.yul\":10889:10895   */\n      dup2\n        /* \"#utility.yul\":10886:10916   */\n      gt\n        /* \"#utility.yul\":10883:11000   */\n      iszero\n      tag_762\n      jumpi\n        /* \"#utility.yul\":10919:10998   */\n      tag_763\n      tag_572\n      jump\t// in\n    tag_763:\n        /* \"#utility.yul\":10883:11000   */\n    tag_762:\n        /* \"#utility.yul\":11032:11112   */\n      tag_764\n        /* \"#utility.yul\":11104:11111   */\n      dup10\n        /* \"#utility.yul\":11095:11101   */\n      dup3\n        /* \"#utility.yul\":11084:11093   */\n      dup11\n        /* \"#utility.yul\":11080:11102   */\n      add\n        /* \"#utility.yul\":11032:11112   */\n      tag_593\n      jump\t// in\n    tag_764:\n        /* \"#utility.yul\":11014:11112   */\n      swap3\n      pop\n      swap3\n      pop\n        /* \"#utility.yul\":10809:11122   */\n      pop\n        /* \"#utility.yul\":9820:11129   */\n      swap3\n      swap6\n      pop\n      swap3\n      swap6\n      pop\n      swap3\n      swap6\n      jump\t// out\n        /* \"#utility.yul\":11135:11244   */\n    tag_594:\n        /* \"#utility.yul\":11216:11237   */\n      tag_766\n        /* \"#utility.yul\":11231:11236   */\n      dup2\n        /* \"#utility.yul\":11216:11237   */\n      tag_581\n      jump\t// in\n    tag_766:\n        /* \"#utility.yul\":11211:11214   */\n      dup3\n        /* \"#utility.yul\":11204:11238   */\n      mstore\n        /* \"#utility.yul\":11135:11244   */\n      pop\n      pop\n      jump\t// out\n        /* \"#utility.yul\":11250:11460   */\n    tag_108:\n        /* \"#utility.yul\":11337:11341   */\n      0x00\n        /* \"#utility.yul\":11375:11377   */\n      0x20\n        /* \"#utility.yul\":11364:11373   */\n      dup3\n        /* \"#utility.yul\":11360:11378   */\n      add\n        /* \"#utility.yul\":11352:11378   */\n      swap1\n      pop\n        /* \"#utility.yul\":11388:11453   */\n      tag_768\n        /* \"#utility.yul\":11450:11451   */\n      0x00\n        /* \"#utility.yul\":11439:11448   */\n      dup4\n        /* \"#utility.yul\":11435:11452   */\n      add\n        /* \"#utility.yul\":11426:11432   */\n      dup5\n        /* \"#utility.yul\":11388:11453   */\n      tag_594\n      jump\t// in\n    tag_768:\n        /* \"#utility.yul\":11250:11460   */\n      swap3\n      swap2\n      pop\n      pop\n      jump\t// out\n        /* \"#utility.yul\":11466:11526   */\n    tag_595:\n        /* \"#utility.yul\":11494:11497   */\n      0x00\n        /* \"#utility.yul\":11515:11520   */\n      dup2\n        /* \"#utility.yul\":11508:11520   */\n      swap1\n      pop\n        /* \"#utility.yul\":11466:11526   */\n      swap2\n      swap1\n      pop\n      jump\t// out\n        /* \"#utility.yul\":11532:11674   */\n    tag_596:\n        /* \"#utility.yul\":11582:11591   */\n      0x00\n        /* \"#utility.yul\":11615:11668   */\n      tag_771\n        /* \"#utility.yul\":11633:11667   */\n      tag_772\n        /* \"#utility.yul\":11642:11666   */\n      tag_773\n        /* \"#utility.yul\":11660:11665   */\n      dup5\n        /* \"#utility.yul\":11642:11666   */\n      tag_575\n      jump\t// in\n    tag_773:\n        /* \"#utility.yul\":11633:11667   */\n      tag_595\n      jump\t// in\n    tag_772:\n        /* \"#utility.yul\":11615:11668   */\n      tag_575\n      jump\t// in\n    tag_771:\n        /* \"#utility.yul\":11602:11668   */\n      swap1\n      pop\n        /* \"#utility.yul\":11532:11674   */\n      swap2\n      swap1\n      pop\n      jump\t// out\n        /* \"#utility.yul\":11680:11806   */\n    tag_597:\n        /* \"#utility.yul\":11730:11739   */\n      0x00\n        /* \"#utility.yul\":11763:11800   */\n      tag_775\n        /* \"#utility.yul\":11794:11799   */\n      dup3\n        /* \"#utility.yul\":11763:11800   */\n      tag_596\n      jump\t// in\n    tag_775:\n        /* \"#utility.yul\":11750:11800   */\n      swap1\n      pop\n        /* \"#utility.yul\":11680:11806   */\n      swap2\n      swap1\n      pop\n      jump\t// out\n        /* \"#utility.yul\":11812:11951   */\n    tag_598:\n        /* \"#utility.yul\":11875:11884   */\n      0x00\n        /* \"#utility.yul\":11908:11945   */\n      tag_777\n        /* \"#utility.yul\":11939:11944   */\n      dup3\n        /* \"#utility.yul\":11908:11945   */\n      tag_597\n      jump\t// in\n    tag_777:\n        /* \"#utility.yul\":11895:11945   */\n      swap1\n      pop\n        /* \"#utility.yul\":11812:11951   */\n      swap2\n      swap1\n      pop\n      jump\t// out\n        /* \"#utility.yul\":11957:12114   */\n    tag_599:\n        /* \"#utility.yul\":12057:12107   */\n      tag_779\n        /* \"#utility.yul\":12101:12106   */\n      dup2\n        /* \"#utility.yul\":12057:12107   */\n      tag_598\n      jump\t// in\n    tag_779:\n        /* \"#utility.yul\":12052:12055   */\n      dup3\n        /* \"#utility.yul\":12045:12108   */\n      mstore\n        /* \"#utility.yul\":11957:12114   */\n      pop\n      pop\n      jump\t// out\n        /* \"#utility.yul\":12120:12368   */\n    tag_125:\n        /* \"#utility.yul\":12226:12230   */\n      0x00\n        /* \"#utility.yul\":12264:12266   */\n      0x20\n        /* \"#utility.yul\":12253:12262   */\n      dup3\n        /* \"#utility.yul\":12249:12267   */\n      add\n        /* \"#utility.yul\":12241:12267   */\n      swap1\n      pop\n        /* \"#utility.yul\":12277:12361   */\n      tag_781\n        /* \"#utility.yul\":12358:12359   */\n      0x00\n        /* \"#utility.yul\":12347:12356   */\n      dup4\n        /* \"#utility.yul\":12343:12360   */\n      add\n        /* \"#utility.yul\":12334:12340   */\n      dup5\n        /* \"#utility.yul\":12277:12361   */\n      tag_599\n      jump\t// in\n    tag_781:\n        /* \"#utility.yul\":12120:12368   */\n      swap3\n      swap2\n      pop\n      pop\n      jump\t// out\n        /* \"#utility.yul\":12374:12492   */\n    tag_600:\n        /* \"#utility.yul\":12461:12485   */\n      tag_783\n        /* \"#utility.yul\":12479:12484   */\n      dup2\n        /* \"#utility.yul\":12461:12485   */\n      tag_576\n      jump\t// in\n    tag_783:\n        /* \"#utility.yul\":12456:12459   */\n      dup3\n        /* \"#utility.yul\":12449:12486   */\n      mstore\n        /* \"#utility.yul\":12374:12492   */\n      pop\n      pop\n      jump\t// out\n        /* \"#utility.yul\":12498:12720   */\n    tag_129:\n        /* \"#utility.yul\":12591:12595   */\n      0x00\n        /* \"#utility.yul\":12629:12631   */\n      0x20\n        /* \"#utility.yul\":12618:12627   */\n      dup3\n        /* \"#utility.yul\":12614:12632   */\n      add\n        /* \"#utility.yul\":12606:12632   */\n      swap1\n      pop\n        /* \"#utility.yul\":12642:12713   */\n      tag_785\n        /* \"#utility.yul\":12710:12711   */\n      0x00\n        /* \"#utility.yul\":12699:12708   */\n      dup4\n        /* \"#utility.yul\":12695:12712   */\n      add\n        /* \"#utility.yul\":12686:12692   */\n      dup5\n        /* \"#utility.yul\":12642:12713   */\n      tag_600\n      jump\t// in\n    tag_785:\n        /* \"#utility.yul\":12498:12720   */\n      swap3\n      swap2\n      pop\n      pop\n      jump\t// out\n        /* \"#utility.yul\":12726:13711   */\n    tag_150:\n        /* \"#utility.yul\":13009:13013   */\n      0x00\n        /* \"#utility.yul\":13047:13050   */\n      0x0100\n        /* \"#utility.yul\":13036:13045   */\n      dup3\n        /* \"#utility.yul\":13032:13051   */\n      add\n        /* \"#utility.yul\":13024:13051   */\n      swap1\n      pop\n        /* \"#utility.yul\":13061:13132   */\n      tag_787\n        /* \"#utility.yul\":13129:13130   */\n      0x00\n        /* \"#utility.yul\":13118:13127   */\n      dup4\n        /* \"#utility.yul\":13114:13131   */\n      add\n        /* \"#utility.yul\":13105:13111   */\n      dup12\n        /* \"#utility.yul\":13061:13132   */\n      tag_600\n      jump\t// in\n    tag_787:\n        /* \"#utility.yul\":13142:13214   */\n      tag_788\n        /* \"#utility.yul\":13210:13212   */\n      0x20\n        /* \"#utility.yul\":13199:13208   */\n      dup4\n        /* \"#utility.yul\":13195:13213   */\n      add\n        /* \"#utility.yul\":13186:13192   */\n      dup11\n        /* \"#utility.yul\":13142:13214   */\n      tag_569\n      jump\t// in\n    tag_788:\n        /* \"#utility.yul\":13224:13296   */\n      tag_789\n        /* \"#utility.yul\":13292:13294   */\n      0x40\n        /* \"#utility.yul\":13281:13290   */\n      dup4\n        /* \"#utility.yul\":13277:13295   */\n      add\n        /* \"#utility.yul\":13268:13274   */\n      dup10\n        /* \"#utility.yul\":13224:13296   */\n      tag_569\n      jump\t// in\n    tag_789:\n        /* \"#utility.yul\":13306:13378   */\n      tag_790\n        /* \"#utility.yul\":13374:13376   */\n      0x60\n        /* \"#utility.yul\":13363:13372   */\n      dup4\n        /* \"#utility.yul\":13359:13377   */\n      add\n        /* \"#utility.yul\":13350:13356   */\n      dup9\n        /* \"#utility.yul\":13306:13378   */\n      tag_569\n      jump\t// in\n    tag_790:\n        /* \"#utility.yul\":13388:13461   */\n      tag_791\n        /* \"#utility.yul\":13456:13459   */\n      0x80\n        /* \"#utility.yul\":13445:13454   */\n      dup4\n        /* \"#utility.yul\":13441:13460   */\n      add\n        /* \"#utility.yul\":13432:13438   */\n      dup8\n        /* \"#utility.yul\":13388:13461   */\n      tag_569\n      jump\t// in\n    tag_791:\n        /* \"#utility.yul\":13471:13544   */\n      tag_792\n        /* \"#utility.yul\":13539:13542   */\n      0xa0\n        /* \"#utility.yul\":13528:13537   */\n      dup4\n        /* \"#utility.yul\":13524:13543   */\n      add\n        /* \"#utility.yul\":13515:13521   */\n      dup7\n        /* \"#utility.yul\":13471:13544   */\n      tag_569\n      jump\t// in\n    tag_792:\n        /* \"#utility.yul\":13554:13627   */\n      tag_793\n        /* \"#utility.yul\":13622:13625   */\n      0xc0\n        /* \"#utility.yul\":13611:13620   */\n      dup4\n        /* \"#utility.yul\":13607:13626   */\n      add\n        /* \"#utility.yul\":13598:13604   */\n      dup6\n        /* \"#utility.yul\":13554:13627   */\n      tag_569\n      jump\t// in\n    tag_793:\n        /* \"#utility.yul\":13637:13704   */\n      tag_794\n        /* \"#utility.yul\":13699:13702   */\n      0xe0\n        /* \"#utility.yul\":13688:13697   */\n      dup4\n        /* \"#utility.yul\":13684:13703   */\n      add\n        /* \"#utility.yul\":13675:13681   */\n      dup5\n        /* \"#utility.yul\":13637:13704   */\n      tag_594\n      jump\t// in\n    tag_794:\n        /* \"#utility.yul\":12726:13711   */\n      swap10\n      swap9\n      pop\n      pop\n      pop\n      pop\n      pop\n      pop\n      pop\n      pop\n      pop\n      jump\t// out\n        /* \"#utility.yul\":13717:14191   */\n    tag_153:\n        /* \"#utility.yul\":13785:13791   */\n      0x00\n        /* \"#utility.yul\":13793:13799   */\n      0x00\n        /* \"#utility.yul\":13842:13844   */\n      0x40\n        /* \"#utility.yul\":13830:13839   */\n      dup4\n        /* \"#utility.yul\":13821:13828   */\n      dup6\n        /* \"#utility.yul\":13817:13840   */\n      sub\n        /* \"#utility.yul\":13813:13845   */\n      slt\n        /* \"#utility.yul\":13810:13929   */\n      iszero\n      tag_796\n      jumpi\n        /* \"#utility.yul\":13848:13927   */\n      tag_797\n      tag_571\n      jump\t// in\n    tag_797:\n        /* \"#utility.yul\":13810:13929   */\n    tag_796:\n        /* \"#utility.yul\":13968:13969   */\n      0x00\n        /* \"#utility.yul\":13993:14046   */\n      tag_798\n        /* \"#utility.yul\":14038:14045   */\n      dup6\n        /* \"#utility.yul\":14029:14035   */\n      dup3\n        /* \"#utility.yul\":14018:14027   */\n      dup7\n        /* \"#utility.yul\":14014:14036   */\n      add\n        /* \"#utility.yul\":13993:14046   */\n      tag_574\n      jump\t// in\n    tag_798:\n        /* \"#utility.yul\":13983:14046   */\n      swap3\n      pop\n        /* \"#utility.yul\":13939:14056   */\n      pop\n        /* \"#utility.yul\":14095:14097   */\n      0x20\n        /* \"#utility.yul\":14121:14174   */\n      tag_799\n        /* \"#utility.yul\":14166:14173   */\n      dup6\n        /* \"#utility.yul\":14157:14163   */\n      dup3\n        /* \"#utility.yul\":14146:14155   */\n      dup7\n        /* \"#utility.yul\":14142:14164   */\n      add\n        /* \"#utility.yul\":14121:14174   */\n      tag_574\n      jump\t// in\n    tag_799:\n        /* \"#utility.yul\":14111:14174   */\n      swap2\n      pop\n        /* \"#utility.yul\":14066:14184   */\n      pop\n        /* \"#utility.yul\":13717:14191   */\n      swap3\n      pop\n      swap3\n      swap1\n      pop\n      jump\t// out\n        /* \"#utility.yul\":14197:14311   */\n    tag_601:\n        /* \"#utility.yul\":14264:14270   */\n      0x00\n        /* \"#utility.yul\":14298:14303   */\n      dup2\n        /* \"#utility.yul\":14292:14304   */\n      mload\n        /* \"#utility.yul\":14282:14304   */\n      swap1\n      pop\n        /* \"#utility.yul\":14197:14311   */\n      swap2\n      swap1\n      pop\n      jump\t// out\n        /* \"#utility.yul\":14317:14501   */\n    tag_602:\n        /* \"#utility.yul\":14416:14427   */\n      0x00\n        /* \"#utility.yul\":14450:14456   */\n      dup3\n        /* \"#utility.yul\":14445:14448   */\n      dup3\n        /* \"#utility.yul\":14438:14457   */\n      mstore\n        /* \"#utility.yul\":14490:14494   */\n      0x20\n        /* \"#utility.yul\":14485:14488   */\n      dup3\n        /* \"#utility.yul\":14481:14495   */\n      add\n        /* \"#utility.yul\":14466:14495   */\n      swap1\n      pop\n        /* \"#utility.yul\":14317:14501   */\n      swap3\n      swap2\n      pop\n      pop\n      jump\t// out\n        /* \"#utility.yul\":14507:14639   */\n    tag_603:\n        /* \"#utility.yul\":14574:14578   */\n      0x00\n        /* \"#utility.yul\":14597:14600   */\n      dup2\n        /* \"#utility.yul\":14589:14600   */\n      swap1\n      pop\n        /* \"#utility.yul\":14627:14631   */\n      0x20\n        /* \"#utility.yul\":14622:14625   */\n      dup3\n        /* \"#utility.yul\":14618:14632   */\n      add\n        /* \"#utility.yul\":14610:14632   */\n      swap1\n      pop\n        /* \"#utility.yul\":14507:14639   */\n      swap2\n      swap1\n      pop\n      jump\t// out\n        /* \"#utility.yul\":14645:14824   */\n    tag_604:\n        /* \"#utility.yul\":14714:14724   */\n      0x00\n        /* \"#utility.yul\":14735:14781   */\n      tag_804\n        /* \"#utility.yul\":14777:14780   */\n      dup4\n        /* \"#utility.yul\":14769:14775   */\n      dup4\n        /* \"#utility.yul\":14735:14781   */\n      tag_579\n      jump\t// in\n    tag_804:\n        /* \"#utility.yul\":14813:14817   */\n      0x20\n        /* \"#utility.yul\":14808:14811   */\n      dup4\n        /* \"#utility.yul\":14804:14818   */\n      add\n        /* \"#utility.yul\":14790:14818   */\n      swap1\n      pop\n        /* \"#utility.yul\":14645:14824   */\n      swap3\n      swap2\n      pop\n      pop\n      jump\t// out\n        /* \"#utility.yul\":14830:14943   */\n    tag_605:\n        /* \"#utility.yul\":14900:14904   */\n      0x00\n        /* \"#utility.yul\":14932:14936   */\n      0x20\n        /* \"#utility.yul\":14927:14930   */\n      dup3\n        /* \"#utility.yul\":14923:14937   */\n      add\n        /* \"#utility.yul\":14915:14937   */\n      swap1\n      pop\n        /* \"#utility.yul\":14830:14943   */\n      swap2\n      swap1\n      pop\n      jump\t// out\n        /* \"#utility.yul\":14979:15711   */\n    tag_606:\n        /* \"#utility.yul\":15098:15101   */\n      0x00\n        /* \"#utility.yul\":15127:15181   */\n      tag_807\n        /* \"#utility.yul\":15175:15180   */\n      dup3\n        /* \"#utility.yul\":15127:15181   */\n      tag_601\n      jump\t// in\n    tag_807:\n        /* \"#utility.yul\":15197:15283   */\n      tag_808\n        /* \"#utility.yul\":15276:15282   */\n      dup2\n        /* \"#utility.yul\":15271:15274   */\n      dup6\n        /* \"#utility.yul\":15197:15283   */\n      tag_602\n      jump\t// in\n    tag_808:\n        /* \"#utility.yul\":15190:15283   */\n      swap4\n      pop\n        /* \"#utility.yul\":15307:15363   */\n      tag_809\n        /* \"#utility.yul\":15357:15362   */\n      dup4\n        /* \"#utility.yul\":15307:15363   */\n      tag_603\n      jump\t// in\n    tag_809:\n        /* \"#utility.yul\":15386:15393   */\n      dup1\n        /* \"#utility.yul\":15417:15418   */\n      0x00\n        /* \"#utility.yul\":15402:15686   */\n    tag_810:\n        /* \"#utility.yul\":15427:15433   */\n      dup4\n        /* \"#utility.yul\":15424:15425   */\n      dup2\n        /* \"#utility.yul\":15421:15434   */\n      lt\n        /* \"#utility.yul\":15402:15686   */\n      iszero\n      tag_812\n      jumpi\n        /* \"#utility.yul\":15503:15509   */\n      dup2\n        /* \"#utility.yul\":15497:15510   */\n      mload\n        /* \"#utility.yul\":15530:15593   */\n      tag_813\n        /* \"#utility.yul\":15589:15592   */\n      dup9\n        /* \"#utility.yul\":15574:15587   */\n      dup3\n        /* \"#utility.yul\":15530:15593   */\n      tag_604\n      jump\t// in\n    tag_813:\n        /* \"#utility.yul\":15523:15593   */\n      swap8\n      pop\n        /* \"#utility.yul\":15616:15676   */\n      tag_814\n        /* \"#utility.yul\":15669:15675   */\n      dup4\n        /* \"#utility.yul\":15616:15676   */\n      tag_605\n      jump\t// in\n    tag_814:\n        /* \"#utility.yul\":15606:15676   */\n      swap3\n      pop\n        /* \"#utility.yul\":15462:15686   */\n      pop\n        /* \"#utility.yul\":15449:15450   */\n      0x01\n        /* \"#utility.yul\":15446:15447   */\n      dup2\n        /* \"#utility.yul\":15442:15451   */\n      add\n        /* \"#utility.yul\":15437:15451   */\n      swap1\n      pop\n        /* \"#utility.yul\":15402:15686   */\n      jump(tag_810)\n    tag_812:\n        /* \"#utility.yul\":15406:15420   */\n      pop\n        /* \"#utility.yul\":15702:15705   */\n      dup6\n        /* \"#utility.yul\":15695:15705   */\n      swap4\n      pop\n        /* \"#utility.yul\":15103:15711   */\n      pop\n      pop\n      pop\n        /* \"#utility.yul\":14979:15711   */\n      swap3\n      swap2\n      pop\n      pop\n      jump\t// out\n        /* \"#utility.yul\":15717:16090   */\n    tag_168:\n        /* \"#utility.yul\":15860:15864   */\n      0x00\n        /* \"#utility.yul\":15898:15900   */\n      0x20\n        /* \"#utility.yul\":15887:15896   */\n      dup3\n        /* \"#utility.yul\":15883:15901   */\n      add\n        /* \"#utility.yul\":15875:15901   */\n      swap1\n      pop\n        /* \"#utility.yul\":15947:15956   */\n      dup2\n        /* \"#utility.yul\":15941:15945   */\n      dup2\n        /* \"#utility.yul\":15937:15957   */\n      sub\n        /* \"#utility.yul\":15933:15934   */\n      0x00\n        /* \"#utility.yul\":15922:15931   */\n      dup4\n        /* \"#utility.yul\":15918:15935   */\n      add\n        /* \"#utility.yul\":15911:15958   */\n      mstore\n        /* \"#utility.yul\":15975:16083   */\n      tag_816\n        /* \"#utility.yul\":16078:16082   */\n      dup2\n        /* \"#utility.yul\":16069:16075   */\n      dup5\n        /* \"#utility.yul\":15975:16083   */\n      tag_606\n      jump\t// in\n    tag_816:\n        /* \"#utility.yul\":15967:16083   */\n      swap1\n      pop\n        /* \"#utility.yul\":15717:16090   */\n      swap3\n      swap2\n      pop\n      pop\n      jump\t// out\n        /* \"#utility.yul\":16096:16265   */\n    tag_607:\n        /* \"#utility.yul\":16180:16191   */\n      0x00\n        /* \"#utility.yul\":16214:16220   */\n      dup3\n        /* \"#utility.yul\":16209:16212   */\n      dup3\n        /* \"#utility.yul\":16202:16221   */\n      mstore\n        /* \"#utility.yul\":16254:16258   */\n      0x20\n        /* \"#utility.yul\":16249:16252   */\n      dup3\n        /* \"#utility.yul\":16245:16259   */\n      add\n        /* \"#utility.yul\":16230:16259   */\n      swap1\n      pop\n        /* \"#utility.yul\":16096:16265   */\n      swap3\n      swap2\n      pop\n      pop\n      jump\t// out\n        /* \"#utility.yul\":16271:16431   */\n    tag_608:\n        /* \"#utility.yul\":16411:16423   */\n      0x4f6e6c79206f776e657200000000000000000000000000000000000000000000\n        /* \"#utility.yul\":16407:16408   */\n      0x00\n        /* \"#utility.yul\":16399:16405   */\n      dup3\n        /* \"#utility.yul\":16395:16409   */\n      add\n        /* \"#utility.yul\":16388:16424   */\n      mstore\n        /* \"#utility.yul\":16271:16431   */\n      pop\n      jump\t// out\n        /* \"#utility.yul\":16437:16803   */\n    tag_609:\n        /* \"#utility.yul\":16579:16582   */\n      0x00\n        /* \"#utility.yul\":16600:16667   */\n      tag_820\n        /* \"#utility.yul\":16664:16666   */\n      0x0a\n        /* \"#utility.yul\":16659:16662   */\n      dup4\n        /* \"#utility.yul\":16600:16667   */\n      tag_607\n      jump\t// in\n    tag_820:\n        /* \"#utility.yul\":16593:16667   */\n      swap2\n      pop\n        /* \"#utility.yul\":16676:16769   */\n      tag_821\n        /* \"#utility.yul\":16765:16768   */\n      dup3\n        /* \"#utility.yul\":16676:16769   */\n      tag_608\n      jump\t// in\n    tag_821:\n        /* \"#utility.yul\":16794:16796   */\n      0x20\n        /* \"#utility.yul\":16789:16792   */\n      dup3\n        /* \"#utility.yul\":16785:16797   */\n      add\n        /* \"#utility.yul\":16778:16797   */\n      swap1\n      pop\n        /* \"#utility.yul\":16437:16803   */\n      swap2\n      swap1\n      pop\n      jump\t// out\n        /* \"#utility.yul\":16809:17228   */\n    tag_181:\n        /* \"#utility.yul\":16975:16979   */\n      0x00\n        /* \"#utility.yul\":17013:17015   */\n      0x20\n        /* \"#utility.yul\":17002:17011   */\n      dup3\n        /* \"#utility.yul\":16998:17016   */\n      add\n        /* \"#utility.yul\":16990:17016   */\n      swap1\n      pop\n        /* \"#utility.yul\":17062:17071   */\n      dup2\n        /* \"#utility.yul\":17056:17060   */\n      dup2\n        /* \"#utility.yul\":17052:17072   */\n      sub\n        /* \"#utility.yul\":17048:17049   */\n      0x00\n        /* \"#utility.yul\":17037:17046   */\n      dup4\n        /* \"#utility.yul\":17033:17050   */\n      add\n        /* \"#utility.yul\":17026:17073   */\n      mstore\n        /* \"#utility.yul\":17090:17221   */\n      tag_823\n        /* \"#utility.yul\":17216:17220   */\n      dup2\n        /* \"#utility.yul\":17090:17221   */\n      tag_609\n      jump\t// in\n    tag_823:\n        /* \"#utility.yul\":17082:17221   */\n      swap1\n      pop\n        /* \"#utility.yul\":16809:17228   */\n      swap2\n      swap1\n      pop\n      jump\t// out\n        /* \"#utility.yul\":17234:17393   */\n    tag_610:\n        /* \"#utility.yul\":17374:17385   */\n      0x496e646578204f4f420000000000000000000000000000000000000000000000\n        /* \"#utility.yul\":17370:17371   */\n      0x00\n        /* \"#utility.yul\":17362:17368   */\n      dup3\n        /* \"#utility.yul\":17358:17372   */\n      add\n        /* \"#utility.yul\":17351:17386   */\n      mstore\n        /* \"#utility.yul\":17234:17393   */\n      pop\n      jump\t// out\n        /* \"#utility.yul\":17399:17764   */\n    tag_611:\n        /* \"#utility.yul\":17541:17544   */\n      0x00\n        /* \"#utility.yul\":17562:17628   */\n      tag_826\n        /* \"#utility.yul\":17626:17627   */\n      0x09\n        /* \"#utility.yul\":17621:17624   */\n      dup4\n        /* \"#utility.yul\":17562:17628   */\n      tag_607\n      jump\t// in\n    tag_826:\n        /* \"#utility.yul\":17555:17628   */\n      swap2\n      pop\n        /* \"#utility.yul\":17637:17730   */\n      tag_827\n        /* \"#utility.yul\":17726:17729   */\n      dup3\n        /* \"#utility.yul\":17637:17730   */\n      tag_610\n      jump\t// in\n    tag_827:\n        /* \"#utility.yul\":17755:17757   */\n      0x20\n        /* \"#utility.yul\":17750:17753   */\n      dup3\n        /* \"#utility.yul\":17746:17758   */\n      add\n        /* \"#utility.yul\":17739:17758   */\n      swap1\n      pop\n        /* \"#utility.yul\":17399:17764   */\n      swap2\n      swap1\n      pop\n      jump\t// out\n        /* \"#utility.yul\":17770:18189   */\n    tag_185:\n        /* \"#utility.yul\":17936:17940   */\n      0x00\n        /* \"#utility.yul\":17974:17976   */\n      0x20\n        /* \"#utility.yul\":17963:17972   */\n      dup3\n        /* \"#utility.yul\":17959:17977   */\n      add\n        /* \"#utility.yul\":17951:17977   */\n      swap1\n      pop\n        /* \"#utility.yul\":18023:18032   */\n      dup2\n        /* \"#utility.yul\":18017:18021   */\n      dup2\n        /* \"#utility.yul\":18013:18033   */\n      sub\n        /* \"#utility.yul\":18009:18010   */\n      0x00\n        /* \"#utility.yul\":17998:18007   */\n      dup4\n        /* \"#utility.yul\":17994:18011   */\n      add\n        /* \"#utility.yul\":17987:18034   */\n      mstore\n        /* \"#utility.yul\":18051:18182   */\n      tag_829\n        /* \"#utility.yul\":18177:18181   */\n      dup2\n        /* \"#utility.yul\":18051:18182   */\n      tag_611\n      jump\t// in\n    tag_829:\n        /* \"#utility.yul\":18043:18182   */\n      swap1\n      pop\n        /* \"#utility.yul\":17770:18189   */\n      swap2\n      swap1\n      pop\n      jump\t// out\n        /* \"#utility.yul\":18195:18358   */\n    tag_612:\n        /* \"#utility.yul\":18335:18350   */\n      0x496e76616c69642072616e676500000000000000000000000000000000000000\n        /* \"#utility.yul\":18331:18332   */\n      0x00\n        /* \"#utility.yul\":18323:18329   */\n      dup3\n        /* \"#utility.yul\":18319:18333   */\n      add\n        /* \"#utility.yul\":18312:18351   */\n      mstore\n        /* \"#utility.yul\":18195:18358   */\n      pop\n      jump\t// out\n        /* \"#utility.yul\":18364:18730   */\n    tag_613:\n        /* \"#utility.yul\":18506:18509   */\n      0x00\n        /* \"#utility.yul\":18527:18594   */\n      tag_832\n        /* \"#utility.yul\":18591:18593   */\n      0x0d\n        /* \"#utility.yul\":18586:18589   */\n      dup4\n        /* \"#utility.yul\":18527:18594   */\n      tag_607\n      jump\t// in\n    tag_832:\n        /* \"#utility.yul\":18520:18594   */\n      swap2\n      pop\n        /* \"#utility.yul\":18603:18696   */\n      tag_833\n        /* \"#utility.yul\":18692:18695   */\n      dup3\n        /* \"#utility.yul\":18603:18696   */\n      tag_612\n      jump\t// in\n    tag_833:\n        /* \"#utility.yul\":18721:18723   */\n      0x20\n        /* \"#utility.yul\":18716:18719   */\n      dup3\n        /* \"#utility.yul\":18712:18724   */\n      add\n        /* \"#utility.yul\":18705:18724   */\n      swap1\n      pop\n        /* \"#utility.yul\":18364:18730   */\n      swap2\n      swap1\n      pop\n      jump\t// out\n        /* \"#utility.yul\":18736:19155   */\n    tag_188:\n        /* \"#utility.yul\":18902:18906   */\n      0x00\n        /* \"#utility.yul\":18940:18942   */\n      0x20\n        /* \"#utility.yul\":18929:18938   */\n      dup3\n        /* \"#utility.yul\":18925:18943   */\n      add\n        /* \"#utility.yul\":18917:18943   */\n      swap1\n      pop\n        /* \"#utility.yul\":18989:18998   */\n      dup2\n        /* \"#utility.yul\":18983:18987   */\n      dup2\n        /* \"#utility.yul\":18979:18999   */\n      sub\n        /* \"#utility.yul\":18975:18976   */\n      0x00\n        /* \"#utility.yul\":18964:18973   */\n      dup4\n        /* \"#utility.yul\":18960:18977   */\n      add\n        /* \"#utility.yul\":18953:19000   */\n      mstore\n        /* \"#utility.yul\":19017:19148   */\n      tag_835\n        /* \"#utility.yul\":19143:19147   */\n      dup2\n        /* \"#utility.yul\":19017:19148   */\n      tag_613\n      jump\t// in\n    tag_835:\n        /* \"#utility.yul\":19009:19148   */\n      swap1\n      pop\n        /* \"#utility.yul\":18736:19155   */\n      swap2\n      swap1\n      pop\n      jump\t// out\n        /* \"#utility.yul\":19161:19322   */\n    tag_614:\n        /* \"#utility.yul\":19301:19314   */\n      0x52617465203e2031303025000000000000000000000000000000000000000000\n        /* \"#utility.yul\":19297:19298   */\n      0x00\n        /* \"#utility.yul\":19289:19295   */\n      dup3\n        /* \"#utility.yul\":19285:19299   */\n      add\n        /* \"#utility.yul\":19278:19315   */\n      mstore\n        /* \"#utility.yul\":19161:19322   */\n      pop\n      jump\t// out\n        /* \"#utility.yul\":19328:19694   */\n    tag_615:\n        /* \"#utility.yul\":19470:19473   */\n      0x00\n        /* \"#utility.yul\":19491:19558   */\n      tag_838\n        /* \"#utility.yul\":19555:19557   */\n      0x0b\n        /* \"#utility.yul\":19550:19553   */\n      dup4\n        /* \"#utility.yul\":19491:19558   */\n      tag_607\n      jump\t// in\n    tag_838:\n        /* \"#utility.yul\":19484:19558   */\n      swap2\n      pop\n        /* \"#utility.yul\":19567:19660   */\n      tag_839\n        /* \"#utility.yul\":19656:19659   */\n      dup3\n        /* \"#utility.yul\":19567:19660   */\n      tag_614\n      jump\t// in\n    tag_839:\n        /* \"#utility.yul\":19685:19687   */\n      0x20\n        /* \"#utility.yul\":19680:19683   */\n      dup3\n        /* \"#utility.yul\":19676:19688   */\n      add\n        /* \"#utility.yul\":19669:19688   */\n      swap1\n      pop\n        /* \"#utility.yul\":19328:19694   */\n      swap2\n      swap1\n      pop\n      jump\t// out\n        /* \"#utility.yul\":19700:20119   */\n    tag_192:\n        /* \"#utility.yul\":19866:19870   */\n      0x00\n        /* \"#utility.yul\":19904:19906   */\n      0x20\n        /* \"#utility.yul\":19893:19902   */\n      dup3\n        /* \"#utility.yul\":19889:19907   */\n      add\n        /* \"#utility.yul\":19881:19907   */\n      swap1\n      pop\n        /* \"#utility.yul\":19953:19962   */\n      dup2\n        /* \"#utility.yul\":19947:19951   */\n      dup2\n        /* \"#utility.yul\":19943:19963   */\n      sub\n        /* \"#utility.yul\":19939:19940   */\n      0x00\n        /* \"#utility.yul\":19928:19937   */\n      dup4\n        /* \"#utility.yul\":19924:19941   */\n      add\n        /* \"#utility.yul\":19917:19964   */\n      mstore\n        /* \"#utility.yul\":19981:20112   */\n      tag_841\n        /* \"#utility.yul\":20107:20111   */\n      dup2\n        /* \"#utility.yul\":19981:20112   */\n      tag_615\n      jump\t// in\n    tag_841:\n        /* \"#utility.yul\":19973:20112   */\n      swap1\n      pop\n        /* \"#utility.yul\":19700:20119   */\n      swap2\n      swap1\n      pop\n      jump\t// out\n        /* \"#utility.yul\":20125:20282   */\n    tag_616:\n        /* \"#utility.yul\":20265:20274   */\n      0x5374617274656400000000000000000000000000000000000000000000000000\n        /* \"#utility.yul\":20261:20262   */\n      0x00\n        /* \"#utility.yul\":20253:20259   */\n      dup3\n        /* \"#utility.yul\":20249:20263   */\n      add\n        /* \"#utility.yul\":20242:20275   */\n      mstore\n        /* \"#utility.yul\":20125:20282   */\n      pop\n      jump\t// out\n        /* \"#utility.yul\":20288:20653   */\n    tag_617:\n        /* \"#utility.yul\":20430:20433   */\n      0x00\n        /* \"#utility.yul\":20451:20517   */\n      tag_844\n        /* \"#utility.yul\":20515:20516   */\n      0x07\n        /* \"#utility.yul\":20510:20513   */\n      dup4\n        /* \"#utility.yul\":20451:20517   */\n      tag_607\n      jump\t// in\n    tag_844:\n        /* \"#utility.yul\":20444:20517   */\n      swap2\n      pop\n        /* \"#utility.yul\":20526:20619   */\n      tag_845\n        /* \"#utility.yul\":20615:20618   */\n      dup3\n        /* \"#utility.yul\":20526:20619   */\n      tag_616\n      jump\t// in\n    tag_845:\n        /* \"#utility.yul\":20644:20646   */\n      0x20\n        /* \"#utility.yul\":20639:20642   */\n      dup3\n        /* \"#utility.yul\":20635:20647   */\n      add\n        /* \"#utility.yul\":20628:20647   */\n      swap1\n      pop\n        /* \"#utility.yul\":20288:20653   */\n      swap2\n      swap1\n      pop\n      jump\t// out\n        /* \"#utility.yul\":20659:21078   */\n    tag_195:\n        /* \"#utility.yul\":20825:20829   */\n      0x00\n        /* \"#utility.yul\":20863:20865   */\n      0x20\n        /* \"#utility.yul\":20852:20861   */\n      dup3\n        /* \"#utility.yul\":20848:20866   */\n      add\n        /* \"#utility.yul\":20840:20866   */\n      swap1\n      pop\n        /* \"#utility.yul\":20912:20921   */\n      dup2\n        /* \"#utility.yul\":20906:20910   */\n      dup2\n        /* \"#utility.yul\":20902:20922   */\n      sub\n        /* \"#utility.yul\":20898:20899   */\n      0x00\n        /* \"#utility.yul\":20887:20896   */\n      dup4\n        /* \"#utility.yul\":20883:20900   */\n      add\n        /* \"#utility.yul\":20876:20923   */\n      mstore\n        /* \"#utility.yul\":20940:21071   */\n      tag_847\n        /* \"#utility.yul\":21066:21070   */\n      dup2\n        /* \"#utility.yul\":20940:21071   */\n      tag_617\n      jump\t// in\n    tag_847:\n        /* \"#utility.yul\":20932:21071   */\n      swap1\n      pop\n        /* \"#utility.yul\":20659:21078   */\n      swap2\n      swap1\n      pop\n      jump\t// out\n        /* \"#utility.yul\":21084:21264   */\n    tag_618:\n        /* \"#utility.yul\":21132:21209   */\n      0x4e487b7100000000000000000000000000000000000000000000000000000000\n        /* \"#utility.yul\":21129:21130   */\n      0x00\n        /* \"#utility.yul\":21122:21210   */\n      mstore\n        /* \"#utility.yul\":21229:21233   */\n      0x11\n        /* \"#utility.yul\":21226:21227   */\n      0x04\n        /* \"#utility.yul\":21219:21234   */\n      mstore\n        /* \"#utility.yul\":21253:21257   */\n      0x24\n        /* \"#utility.yul\":21250:21251   */\n      0x00\n        /* \"#utility.yul\":21243:21258   */\n      revert\n        /* \"#utility.yul\":21270:21464   */\n    tag_198:\n        /* \"#utility.yul\":21310:21314   */\n      0x00\n        /* \"#utility.yul\":21330:21350   */\n      tag_850\n        /* \"#utility.yul\":21348:21349   */\n      dup3\n        /* \"#utility.yul\":21330:21350   */\n      tag_568\n      jump\t// in\n    tag_850:\n        /* \"#utility.yul\":21325:21350   */\n      swap2\n      pop\n        /* \"#utility.yul\":21364:21384   */\n      tag_851\n        /* \"#utility.yul\":21382:21383   */\n      dup4\n        /* \"#utility.yul\":21364:21384   */\n      tag_568\n      jump\t// in\n    tag_851:\n        /* \"#utility.yul\":21359:21384   */\n      swap3\n      pop\n        /* \"#utility.yul\":21408:21409   */\n      dup3\n        /* \"#utility.yul\":21405:21406   */\n      dup3\n        /* \"#utility.yul\":21401:21410   */\n      sub\n        /* \"#utility.yul\":21393:21410   */\n      swap1\n      pop\n        /* \"#utility.yul\":21432:21433   */\n      dup2\n        /* \"#utility.yul\":21426:21430   */\n      dup2\n        /* \"#utility.yul\":21423:21434   */\n      gt\n        /* \"#utility.yul\":21420:21457   */\n      iszero\n      tag_852\n      jumpi\n        /* \"#utility.yul\":21437:21455   */\n      tag_853\n      tag_618\n      jump\t// in\n    tag_853:\n        /* \"#utility.yul\":21420:21457   */\n    tag_852:\n        /* \"#utility.yul\":21270:21464   */\n      swap3\n      swap2\n      pop\n      pop\n      jump\t// out\n        /* \"#utility.yul\":21470:21650   */\n    tag_201:\n        /* \"#utility.yul\":21518:21595   */\n      0x4e487b7100000000000000000000000000000000000000000000000000000000\n        /* \"#utility.yul\":21515:21516   */\n      0x00\n        /* \"#utility.yul\":21508:21596   */\n      mstore\n        /* \"#utility.yul\":21615:21619   */\n      0x32\n        /* \"#utility.yul\":21612:21613   */\n      0x04\n        /* \"#utility.yul\":21605:21620   */\n      mstore\n        /* \"#utility.yul\":21639:21643   */\n      0x24\n        /* \"#utility.yul\":21636:21637   */\n      0x00\n        /* \"#utility.yul\":21629:21644   */\n      revert\n        /* \"#utility.yul\":21656:21809   */\n    tag_619:\n        /* \"#utility.yul\":21796:21801   */\n      0x5365710000000000000000000000000000000000000000000000000000000000\n        /* \"#utility.yul\":21792:21793   */\n      0x00\n        /* \"#utility.yul\":21784:21790   */\n      dup3\n        /* \"#utility.yul\":21780:21794   */\n      add\n        /* \"#utility.yul\":21773:21802   */\n      mstore\n        /* \"#utility.yul\":21656:21809   */\n      pop\n      jump\t// out\n        /* \"#utility.yul\":21815:22180   */\n    tag_620:\n        /* \"#utility.yul\":21957:21960   */\n      0x00\n        /* \"#utility.yul\":21978:22044   */\n      tag_857\n        /* \"#utility.yul\":22042:22043   */\n      0x03\n        /* \"#utility.yul\":22037:22040   */\n      dup4\n        /* \"#utility.yul\":21978:22044   */\n      tag_607\n      jump\t// in\n    tag_857:\n        /* \"#utility.yul\":21971:22044   */\n      swap2\n      pop\n        /* \"#utility.yul\":22053:22146   */\n      tag_858\n        /* \"#utility.yul\":22142:22145   */\n      dup3\n        /* \"#utility.yul\":22053:22146   */\n      tag_619\n      jump\t// in\n    tag_858:\n        /* \"#utility.yul\":22171:22173   */\n      0x20\n        /* \"#utility.yul\":22166:22169   */\n      dup3\n        /* \"#utility.yul\":22162:22174   */\n      add\n        /* \"#utility.yul\":22155:22174   */\n      swap1\n      pop\n        /* \"#utility.yul\":21815:22180   */\n      swap2\n      swap1\n      pop\n      jump\t// out\n        /* \"#utility.yul\":22186:22605   */\n    tag_205:\n        /* \"#utility.yul\":22352:22356   */\n      0x00\n        /* \"#utility.yul\":22390:22392   */\n      0x20\n        /* \"#utility.yul\":22379:22388   */\n      dup3\n        /* \"#utility.yul\":22375:22393   */\n      add\n        /* \"#utility.yul\":22367:22393   */\n      swap1\n      pop\n        /* \"#utility.yul\":22439:22448   */\n      dup2\n        /* \"#utility.yul\":22433:22437   */\n      dup2\n        /* \"#utility.yul\":22429:22449   */\n      sub\n        /* \"#utility.yul\":22425:22426   */\n      0x00\n        /* \"#utility.yul\":22414:22423   */\n      dup4\n        /* \"#utility.yul\":22410:22427   */\n      add\n        /* \"#utility.yul\":22403:22450   */\n      mstore\n        /* \"#utility.yul\":22467:22598   */\n      tag_860\n        /* \"#utility.yul\":22593:22597   */\n      dup2\n        /* \"#utility.yul\":22467:22598   */\n      tag_620\n      jump\t// in\n    tag_860:\n        /* \"#utility.yul\":22459:22598   */\n      swap1\n      pop\n        /* \"#utility.yul\":22186:22605   */\n      swap2\n      swap1\n      pop\n      jump\t// out\n        /* \"#utility.yul\":22611:22802   */\n    tag_207:\n        /* \"#utility.yul\":22651:22654   */\n      0x00\n        /* \"#utility.yul\":22670:22690   */\n      tag_862\n        /* \"#utility.yul\":22688:22689   */\n      dup3\n        /* \"#utility.yul\":22670:22690   */\n      tag_568\n      jump\t// in\n    tag_862:\n        /* \"#utility.yul\":22665:22690   */\n      swap2\n      pop\n        /* \"#utility.yul\":22704:22724   */\n      tag_863\n        /* \"#utility.yul\":22722:22723   */\n      dup4\n        /* \"#utility.yul\":22704:22724   */\n      tag_568\n      jump\t// in\n    tag_863:\n        /* \"#utility.yul\":22699:22724   */\n      swap3\n      pop\n        /* \"#utility.yul\":22747:22748   */\n      dup3\n        /* \"#utility.yul\":22744:22745   */\n      dup3\n        /* \"#utility.yul\":22740:22749   */\n      add\n        /* \"#utility.yul\":22733:22749   */\n      swap1\n      pop\n        /* \"#utility.yul\":22768:22771   */\n      dup1\n        /* \"#utility.yul\":22765:22766   */\n      dup3\n        /* \"#utility.yul\":22762:22772   */\n      gt\n        /* \"#utility.yul\":22759:22795   */\n      iszero\n      tag_864\n      jumpi\n        /* \"#utility.yul\":22775:22793   */\n      tag_865\n      tag_618\n      jump\t// in\n    tag_865:\n        /* \"#utility.yul\":22759:22795   */\n    tag_864:\n        /* \"#utility.yul\":22611:22802   */\n      swap3\n      swap2\n      pop\n      pop\n      jump\t// out\n        /* \"#utility.yul\":22808:22965   */\n    tag_621:\n        /* \"#utility.yul\":22948:22957   */\n      0x4f7665726c617000000000000000000000000000000000000000000000000000\n        /* \"#utility.yul\":22944:22945   */\n      0x00\n        /* \"#utility.yul\":22936:22942   */\n      dup3\n        /* \"#utility.yul\":22932:22946   */\n      add\n        /* \"#utility.yul\":22925:22958   */\n      mstore\n        /* \"#utility.yul\":22808:22965   */\n      pop\n      jump\t// out\n        /* \"#utility.yul\":22971:23336   */\n    tag_622:\n        /* \"#utility.yul\":23113:23116   */\n      0x00\n        /* \"#utility.yul\":23134:23200   */\n      tag_868\n        /* \"#utility.yul\":23198:23199   */\n      0x07\n        /* \"#utility.yul\":23193:23196   */\n      dup4\n        /* \"#utility.yul\":23134:23200   */\n      tag_607\n      jump\t// in\n    tag_868:\n        /* \"#utility.yul\":23127:23200   */\n      swap2\n      pop\n        /* \"#utility.yul\":23209:23302   */\n      tag_869\n        /* \"#utility.yul\":23298:23301   */\n      dup3\n        /* \"#utility.yul\":23209:23302   */\n      tag_621\n      jump\t// in\n    tag_869:\n        /* \"#utility.yul\":23327:23329   */\n      0x20\n        /* \"#utility.yul\":23322:23325   */\n      dup3\n        /* \"#utility.yul\":23318:23330   */\n      add\n        /* \"#utility.yul\":23311:23330   */\n      swap1\n      pop\n        /* \"#utility.yul\":22971:23336   */\n      swap2\n      swap1\n      pop\n      jump\t// out\n        /* \"#utility.yul\":23342:23761   */\n    tag_215:\n        /* \"#utility.yul\":23508:23512   */\n      0x00\n        /* \"#utility.yul\":23546:23548   */\n      0x20\n        /* \"#utility.yul\":23535:23544   */\n      dup3\n        /* \"#utility.yul\":23531:23549   */\n      add\n        /* \"#utility.yul\":23523:23549   */\n      swap1\n      pop\n        /* \"#utility.yul\":23595:23604   */\n      dup2\n        /* \"#utility.yul\":23589:23593   */\n      dup2\n        /* \"#utility.yul\":23585:23605   */\n      sub\n        /* \"#utility.yul\":23581:23582   */\n      0x00\n        /* \"#utility.yul\":23570:23579   */\n      dup4\n        /* \"#utility.yul\":23566:23583   */\n      add\n        /* \"#utility.yul\":23559:23606   */\n      mstore\n        /* \"#utility.yul\":23623:23754   */\n      tag_871\n        /* \"#utility.yul\":23749:23753   */\n      dup2\n        /* \"#utility.yul\":23623:23754   */\n      tag_622\n      jump\t// in\n    tag_871:\n        /* \"#utility.yul\":23615:23754   */\n      swap1\n      pop\n        /* \"#utility.yul\":23342:23761   */\n      swap2\n      swap1\n      pop\n      jump\t// out\n        /* \"#utility.yul\":23767:24177   */\n    tag_264:\n        /* \"#utility.yul\":23807:23814   */\n      0x00\n        /* \"#utility.yul\":23830:23850   */\n      tag_873\n        /* \"#utility.yul\":23848:23849   */\n      dup3\n        /* \"#utility.yul\":23830:23850   */\n      tag_568\n      jump\t// in\n    tag_873:\n        /* \"#utility.yul\":23825:23850   */\n      swap2\n      pop\n        /* \"#utility.yul\":23864:23884   */\n      tag_874\n        /* \"#utility.yul\":23882:23883   */\n      dup4\n        /* \"#utility.yul\":23864:23884   */\n      tag_568\n      jump\t// in\n    tag_874:\n        /* \"#utility.yul\":23859:23884   */\n      swap3\n      pop\n        /* \"#utility.yul\":23919:23920   */\n      dup3\n        /* \"#utility.yul\":23916:23917   */\n      dup3\n        /* \"#utility.yul\":23912:23921   */\n      mul\n        /* \"#utility.yul\":23941:23971   */\n      tag_875\n        /* \"#utility.yul\":23959:23970   */\n      dup2\n        /* \"#utility.yul\":23941:23971   */\n      tag_568\n      jump\t// in\n    tag_875:\n        /* \"#utility.yul\":23930:23971   */\n      swap2\n      pop\n        /* \"#utility.yul\":24120:24121   */\n      dup3\n        /* \"#utility.yul\":24111:24118   */\n      dup3\n        /* \"#utility.yul\":24107:24122   */\n      div\n        /* \"#utility.yul\":24104:24105   */\n      dup5\n        /* \"#utility.yul\":24101:24123   */\n      eq\n        /* \"#utility.yul\":24081:24082   */\n      dup4\n        /* \"#utility.yul\":24074:24083   */\n      iszero\n        /* \"#utility.yul\":24054:24137   */\n      or\n        /* \"#utility.yul\":24031:24170   */\n      tag_876\n      jumpi\n        /* \"#utility.yul\":24150:24168   */\n      tag_877\n      tag_618\n      jump\t// in\n    tag_877:\n        /* \"#utility.yul\":24031:24170   */\n    tag_876:\n        /* \"#utility.yul\":23815:24177   */\n      pop\n        /* \"#utility.yul\":23767:24177   */\n      swap3\n      swap2\n      pop\n      pop\n      jump\t// out\n        /* \"#utility.yul\":24183:24363   */\n    tag_623:\n        /* \"#utility.yul\":24231:24308   */\n      0x4e487b7100000000000000000000000000000000000000000000000000000000\n        /* \"#utility.yul\":24228:24229   */\n      0x00\n        /* \"#utility.yul\":24221:24309   */\n      mstore\n        /* \"#utility.yul\":24328:24332   */\n      0x12\n        /* \"#utility.yul\":24325:24326   */\n      0x04\n        /* \"#utility.yul\":24318:24333   */\n      mstore\n        /* \"#utility.yul\":24352:24356   */\n      0x24\n        /* \"#utility.yul\":24349:24350   */\n      0x00\n        /* \"#utility.yul\":24342:24357   */\n      revert\n        /* \"#utility.yul\":24369:24554   */\n    tag_266:\n        /* \"#utility.yul\":24409:24410   */\n      0x00\n        /* \"#utility.yul\":24426:24446   */\n      tag_880\n        /* \"#utility.yul\":24444:24445   */\n      dup3\n        /* \"#utility.yul\":24426:24446   */\n      tag_568\n      jump\t// in\n    tag_880:\n        /* \"#utility.yul\":24421:24446   */\n      swap2\n      pop\n        /* \"#utility.yul\":24460:24480   */\n      tag_881\n        /* \"#utility.yul\":24478:24479   */\n      dup4\n        /* \"#utility.yul\":24460:24480   */\n      tag_568\n      jump\t// in\n    tag_881:\n        /* \"#utility.yul\":24455:24480   */\n      swap3\n      pop\n        /* \"#utility.yul\":24499:24500   */\n      dup3\n        /* \"#utility.yul\":24489:24524   */\n      tag_882\n      jumpi\n        /* \"#utility.yul\":24504:24522   */\n      tag_883\n      tag_623\n      jump\t// in\n    tag_883:\n        /* \"#utility.yul\":24489:24524   */\n    tag_882:\n        /* \"#utility.yul\":24546:24547   */\n      dup3\n        /* \"#utility.yul\":24543:24544   */\n      dup3\n        /* \"#utility.yul\":24539:24548   */\n      div\n        /* \"#utility.yul\":24534:24548   */\n      swap1\n      pop\n        /* \"#utility.yul\":24369:24554   */\n      swap3\n      swap2\n      pop\n      pop\n      jump\t// out\n        /* \"#utility.yul\":24560:24725   */\n    tag_624:\n        /* \"#utility.yul\":24700:24717   */\n      0x4c656e677468206d69736d617463680000000000000000000000000000000000\n        /* \"#utility.yul\":24696:24697   */\n      0x00\n        /* \"#utility.yul\":24688:24694   */\n      dup3\n        /* \"#utility.yul\":24684:24698   */\n      add\n        /* \"#utility.yul\":24677:24718   */\n      mstore\n        /* \"#utility.yul\":24560:24725   */\n      pop\n      jump\t// out\n        /* \"#utility.yul\":24731:25097   */\n    tag_625:\n        /* \"#utility.yul\":24873:24876   */\n      0x00\n        /* \"#utility.yul\":24894:24961   */\n      tag_886\n        /* \"#utility.yul\":24958:24960   */\n      0x0f\n        /* \"#utility.yul\":24953:24956   */\n      dup4\n        /* \"#utility.yul\":24894:24961   */\n      tag_607\n      jump\t// in\n    tag_886:\n        /* \"#utility.yul\":24887:24961   */\n      swap2\n      pop\n        /* \"#utility.yul\":24970:25063   */\n      tag_887\n        /* \"#utility.yul\":25059:25062   */\n      dup3\n        /* \"#utility.yul\":24970:25063   */\n      tag_624\n      jump\t// in\n    tag_887:\n        /* \"#utility.yul\":25088:25090   */\n      0x20\n        /* \"#utility.yul\":25083:25086   */\n      dup3\n        /* \"#utility.yul\":25079:25091   */\n      add\n        /* \"#utility.yul\":25072:25091   */\n      swap1\n      pop\n        /* \"#utility.yul\":24731:25097   */\n      swap2\n      swap1\n      pop\n      jump\t// out\n        /* \"#utility.yul\":25103:25522   */\n    tag_285:\n        /* \"#utility.yul\":25269:25273   */\n      0x00\n        /* \"#utility.yul\":25307:25309   */\n      0x20\n        /* \"#utility.yul\":25296:25305   */\n      dup3\n        /* \"#utility.yul\":25292:25310   */\n      add\n        /* \"#utility.yul\":25284:25310   */\n      swap1\n      pop\n        /* \"#utility.yul\":25356:25365   */\n      dup2\n        /* \"#utility.yul\":25350:25354   */\n      dup2\n        /* \"#utility.yul\":25346:25366   */\n      sub\n        /* \"#utility.yul\":25342:25343   */\n      0x00\n        /* \"#utility.yul\":25331:25340   */\n      dup4\n        /* \"#utility.yul\":25327:25344   */\n      add\n        /* \"#utility.yul\":25320:25367   */\n      mstore\n        /* \"#utility.yul\":25384:25515   */\n      tag_889\n        /* \"#utility.yul\":25510:25514   */\n      dup2\n        /* \"#utility.yul\":25384:25515   */\n      tag_625\n      jump\t// in\n    tag_889:\n        /* \"#utility.yul\":25376:25515   */\n      swap1\n      pop\n        /* \"#utility.yul\":25103:25522   */\n      swap2\n      swap1\n      pop\n      jump\t// out\n        /* \"#utility.yul\":25528:25683   */\n    tag_626:\n        /* \"#utility.yul\":25668:25675   */\n      0x456d707479000000000000000000000000000000000000000000000000000000\n        /* \"#utility.yul\":25664:25665   */\n      0x00\n        /* \"#utility.yul\":25656:25662   */\n      dup3\n        /* \"#utility.yul\":25652:25666   */\n      add\n        /* \"#utility.yul\":25645:25676   */\n      mstore\n        /* \"#utility.yul\":25528:25683   */\n      pop\n      jump\t// out\n        /* \"#utility.yul\":25689:26054   */\n    tag_627:\n        /* \"#utility.yul\":25831:25834   */\n      0x00\n        /* \"#utility.yul\":25852:25918   */\n      tag_892\n        /* \"#utility.yul\":25916:25917   */\n      0x05\n        /* \"#utility.yul\":25911:25914   */\n      dup4\n        /* \"#utility.yul\":25852:25918   */\n      tag_607\n      jump\t// in\n    tag_892:\n        /* \"#utility.yul\":25845:25918   */\n      swap2\n      pop\n        /* \"#utility.yul\":25927:26020   */\n      tag_893\n        /* \"#utility.yul\":26016:26019   */\n      dup3\n        /* \"#utility.yul\":25927:26020   */\n      tag_626\n      jump\t// in\n    tag_893:\n        /* \"#utility.yul\":26045:26047   */\n      0x20\n        /* \"#utility.yul\":26040:26043   */\n      dup3\n        /* \"#utility.yul\":26036:26048   */\n      add\n        /* \"#utility.yul\":26029:26048   */\n      swap1\n      pop\n        /* \"#utility.yul\":25689:26054   */\n      swap2\n      swap1\n      pop\n      jump\t// out\n        /* \"#utility.yul\":26060:26479   */\n    tag_288:\n        /* \"#utility.yul\":26226:26230   */\n      0x00\n        /* \"#utility.yul\":26264:26266   */\n      0x20\n        /* \"#utility.yul\":26253:26262   */\n      dup3\n        /* \"#utility.yul\":26249:26267   */\n      add\n        /* \"#utility.yul\":26241:26267   */\n      swap1\n      pop\n        /* \"#utility.yul\":26313:26322   */\n      dup2\n        /* \"#utility.yul\":26307:26311   */\n      dup2\n        /* \"#utility.yul\":26303:26323   */\n      sub\n        /* \"#utility.yul\":26299:26300   */\n      0x00\n        /* \"#utility.yul\":26288:26297   */\n      dup4\n        /* \"#utility.yul\":26284:26301   */\n      add\n        /* \"#utility.yul\":26277:26324   */\n      mstore\n        /* \"#utility.yul\":26341:26472   */\n      tag_895\n        /* \"#utility.yul\":26467:26471   */\n      dup2\n        /* \"#utility.yul\":26341:26472   */\n      tag_627\n      jump\t// in\n    tag_895:\n        /* \"#utility.yul\":26333:26472   */\n      swap1\n      pop\n        /* \"#utility.yul\":26060:26479   */\n      swap2\n      swap1\n      pop\n      jump\t// out\n        /* \"#utility.yul\":26485:26817   */\n    tag_302:\n        /* \"#utility.yul\":26606:26610   */\n      0x00\n        /* \"#utility.yul\":26644:26646   */\n      0x40\n        /* \"#utility.yul\":26633:26642   */\n      dup3\n        /* \"#utility.yul\":26629:26647   */\n      add\n        /* \"#utility.yul\":26621:26647   */\n      swap1\n      pop\n        /* \"#utility.yul\":26657:26728   */\n      tag_897\n        /* \"#utility.yul\":26725:26726   */\n      0x00\n        /* \"#utility.yul\":26714:26723   */\n      dup4\n        /* \"#utility.yul\":26710:26727   */\n      add\n        /* \"#utility.yul\":26701:26707   */\n      dup6\n        /* \"#utility.yul\":26657:26728   */\n      tag_569\n      jump\t// in\n    tag_897:\n        /* \"#utility.yul\":26738:26810   */\n      tag_898\n        /* \"#utility.yul\":26806:26808   */\n      0x20\n        /* \"#utility.yul\":26795:26804   */\n      dup4\n        /* \"#utility.yul\":26791:26809   */\n      add\n        /* \"#utility.yul\":26782:26788   */\n      dup5\n        /* \"#utility.yul\":26738:26810   */\n      tag_569\n      jump\t// in\n    tag_898:\n        /* \"#utility.yul\":26485:26817   */\n      swap4\n      swap3\n      pop\n      pop\n      pop\n      jump\t// out\n        /* \"#utility.yul\":26823:26981   */\n    tag_628:\n        /* \"#utility.yul\":26963:26973   */\n      0x496e616374697665000000000000000000000000000000000000000000000000\n        /* \"#utility.yul\":26959:26960   */\n      0x00\n        /* \"#utility.yul\":26951:26957   */\n      dup3\n        /* \"#utility.yul\":26947:26961   */\n      add\n        /* \"#utility.yul\":26940:26974   */\n      mstore\n        /* \"#utility.yul\":26823:26981   */\n      pop\n      jump\t// out\n        /* \"#utility.yul\":26987:27352   */\n    tag_629:\n        /* \"#utility.yul\":27129:27132   */\n      0x00\n        /* \"#utility.yul\":27150:27216   */\n      tag_901\n        /* \"#utility.yul\":27214:27215   */\n      0x08\n        /* \"#utility.yul\":27209:27212   */\n      dup4\n        /* \"#utility.yul\":27150:27216   */\n      tag_607\n      jump\t// in\n    tag_901:\n        /* \"#utility.yul\":27143:27216   */\n      swap2\n      pop\n        /* \"#utility.yul\":27225:27318   */\n      tag_902\n        /* \"#utility.yul\":27314:27317   */\n      dup3\n        /* \"#utility.yul\":27225:27318   */\n      tag_628\n      jump\t// in\n    tag_902:\n        /* \"#utility.yul\":27343:27345   */\n      0x20\n        /* \"#utility.yul\":27338:27341   */\n      dup3\n        /* \"#utility.yul\":27334:27346   */\n      add\n        /* \"#utility.yul\":27327:27346   */\n      swap1\n      pop\n        /* \"#utility.yul\":26987:27352   */\n      swap2\n      swap1\n      pop\n      jump\t// out\n        /* \"#utility.yul\":27358:27777   */\n    tag_316:\n        /* \"#utility.yul\":27524:27528   */\n      0x00\n        /* \"#utility.yul\":27562:27564   */\n      0x20\n        /* \"#utility.yul\":27551:27560   */\n      dup3\n        /* \"#utility.yul\":27547:27565   */\n      add\n        /* \"#utility.yul\":27539:27565   */\n      swap1\n      pop\n        /* \"#utility.yul\":27611:27620   */\n      dup2\n        /* \"#utility.yul\":27605:27609   */\n      dup2\n        /* \"#utility.yul\":27601:27621   */\n      sub\n        /* \"#utility.yul\":27597:27598   */\n      0x00\n        /* \"#utility.yul\":27586:27595   */\n      dup4\n        /* \"#utility.yul\":27582:27599   */\n      add\n        /* \"#utility.yul\":27575:27622   */\n      mstore\n        /* \"#utility.yul\":27639:27770   */\n      tag_904\n        /* \"#utility.yul\":27765:27769   */\n      dup2\n        /* \"#utility.yul\":27639:27770   */\n      tag_629\n      jump\t// in\n    tag_904:\n        /* \"#utility.yul\":27631:27770   */\n      swap1\n      pop\n        /* \"#utility.yul\":27358:27777   */\n      swap2\n      swap1\n      pop\n      jump\t// out\n        /* \"#utility.yul\":27783:27942   */\n    tag_630:\n        /* \"#utility.yul\":27923:27934   */\n      0x4e6f74206f776e65720000000000000000000000000000000000000000000000\n        /* \"#utility.yul\":27919:27920   */\n      0x00\n        /* \"#utility.yul\":27911:27917   */\n      dup3\n        /* \"#utility.yul\":27907:27921   */\n      add\n        /* \"#utility.yul\":27900:27935   */\n      mstore\n        /* \"#utility.yul\":27783:27942   */\n      pop\n      jump\t// out\n        /* \"#utility.yul\":27948:28313   */\n    tag_631:\n        /* \"#utility.yul\":28090:28093   */\n      0x00\n        /* \"#utility.yul\":28111:28177   */\n      tag_907\n        /* \"#utility.yul\":28175:28176   */\n      0x09\n        /* \"#utility.yul\":28170:28173   */\n      dup4\n        /* \"#utility.yul\":28111:28177   */\n      tag_607\n      jump\t// in\n    tag_907:\n        /* \"#utility.yul\":28104:28177   */\n      swap2\n      pop\n        /* \"#utility.yul\":28186:28279   */\n      tag_908\n        /* \"#utility.yul\":28275:28278   */\n      dup3\n        /* \"#utility.yul\":28186:28279   */\n      tag_630\n      jump\t// in\n    tag_908:\n        /* \"#utility.yul\":28304:28306   */\n      0x20\n        /* \"#utility.yul\":28299:28302   */\n      dup3\n        /* \"#utility.yul\":28295:28307   */\n      add\n        /* \"#utility.yul\":28288:28307   */\n      swap1\n      pop\n        /* \"#utility.yul\":27948:28313   */\n      swap2\n      swap1\n      pop\n      jump\t// out\n        /* \"#utility.yul\":28319:28738   */\n    tag_319:\n        /* \"#utility.yul\":28485:28489   */\n      0x00\n        /* \"#utility.yul\":28523:28525   */\n      0x20\n        /* \"#utility.yul\":28512:28521   */\n      dup3\n        /* \"#utility.yul\":28508:28526   */\n      add\n        /* \"#utility.yul\":28500:28526   */\n      swap1\n      pop\n        /* \"#utility.yul\":28572:28581   */\n      dup2\n        /* \"#utility.yul\":28566:28570   */\n      dup2\n        /* \"#utility.yul\":28562:28582   */\n      sub\n        /* \"#utility.yul\":28558:28559   */\n      0x00\n        /* \"#utility.yul\":28547:28556   */\n      dup4\n        /* \"#utility.yul\":28543:28560   */\n      add\n        /* \"#utility.yul\":28536:28583   */\n      mstore\n        /* \"#utility.yul\":28600:28731   */\n      tag_910\n        /* \"#utility.yul\":28726:28730   */\n      dup2\n        /* \"#utility.yul\":28600:28731   */\n      tag_631\n      jump\t// in\n    tag_910:\n        /* \"#utility.yul\":28592:28731   */\n      swap1\n      pop\n        /* \"#utility.yul\":28319:28738   */\n      swap2\n      swap1\n      pop\n      jump\t// out\n        /* \"#utility.yul\":28744:28900   */\n    tag_632:\n        /* \"#utility.yul\":28884:28892   */\n      0x4c6f636b65640000000000000000000000000000000000000000000000000000\n        /* \"#utility.yul\":28880:28881   */\n      0x00\n        /* \"#utility.yul\":28872:28878   */\n      dup3\n        /* \"#utility.yul\":28868:28882   */\n      add\n        /* \"#utility.yul\":28861:28893   */\n      mstore\n        /* \"#utility.yul\":28744:28900   */\n      pop\n      jump\t// out\n        /* \"#utility.yul\":28906:29271   */\n    tag_633:\n        /* \"#utility.yul\":29048:29051   */\n      0x00\n        /* \"#utility.yul\":29069:29135   */\n      tag_913\n        /* \"#utility.yul\":29133:29134   */\n      0x06\n        /* \"#utility.yul\":29128:29131   */\n      dup4\n        /* \"#utility.yul\":29069:29135   */\n      tag_607\n      jump\t// in\n    tag_913:\n        /* \"#utility.yul\":29062:29135   */\n      swap2\n      pop\n        /* \"#utility.yul\":29144:29237   */\n      tag_914\n        /* \"#utility.yul\":29233:29236   */\n      dup3\n        /* \"#utility.yul\":29144:29237   */\n      tag_632\n      jump\t// in\n    tag_914:\n        /* \"#utility.yul\":29262:29264   */\n      0x20\n        /* \"#utility.yul\":29257:29260   */\n      dup3\n        /* \"#utility.yul\":29253:29265   */\n      add\n        /* \"#utility.yul\":29246:29265   */\n      swap1\n      pop\n        /* \"#utility.yul\":28906:29271   */\n      swap2\n      swap1\n      pop\n      jump\t// out\n        /* \"#utility.yul\":29277:29696   */\n    tag_324:\n        /* \"#utility.yul\":29443:29447   */\n      0x00\n        /* \"#utility.yul\":29481:29483   */\n      0x20\n        /* \"#utility.yul\":29470:29479   */\n      dup3\n        /* \"#utility.yul\":29466:29484   */\n      add\n        /* \"#utility.yul\":29458:29484   */\n      swap1\n      pop\n        /* \"#utility.yul\":29530:29539   */\n      dup2\n        /* \"#utility.yul\":29524:29528   */\n      dup2\n        /* \"#utility.yul\":29520:29540   */\n      sub\n        /* \"#utility.yul\":29516:29517   */\n      0x00\n        /* \"#utility.yul\":29505:29514   */\n      dup4\n        /* \"#utility.yul\":29501:29518   */\n      add\n        /* \"#utility.yul\":29494:29541   */\n      mstore\n        /* \"#utility.yul\":29558:29689   */\n      tag_916\n        /* \"#utility.yul\":29684:29688   */\n      dup2\n        /* \"#utility.yul\":29558:29689   */\n      tag_633\n      jump\t// in\n    tag_916:\n        /* \"#utility.yul\":29550:29689   */\n      swap1\n      pop\n        /* \"#utility.yul\":29277:29696   */\n      swap2\n      swap1\n      pop\n      jump\t// out\n        /* \"#utility.yul\":29702:29873   */\n    tag_330:\n        /* \"#utility.yul\":29741:29744   */\n      0x00\n        /* \"#utility.yul\":29764:29788   */\n      tag_918\n        /* \"#utility.yul\":29782:29787   */\n      dup3\n        /* \"#utility.yul\":29764:29788   */\n      tag_568\n      jump\t// in\n    tag_918:\n        /* \"#utility.yul\":29755:29788   */\n      swap2\n      pop\n        /* \"#utility.yul\":29810:29814   */\n      0x00\n        /* \"#utility.yul\":29803:29808   */\n      dup3\n        /* \"#utility.yul\":29800:29815   */\n      sub\n        /* \"#utility.yul\":29797:29838   */\n      tag_919\n      jumpi\n        /* \"#utility.yul\":29818:29836   */\n      tag_920\n      tag_618\n      jump\t// in\n    tag_920:\n        /* \"#utility.yul\":29797:29838   */\n    tag_919:\n        /* \"#utility.yul\":29865:29866   */\n      0x01\n        /* \"#utility.yul\":29858:29863   */\n      dup3\n        /* \"#utility.yul\":29854:29867   */\n      sub\n        /* \"#utility.yul\":29847:29867   */\n      swap1\n      pop\n        /* \"#utility.yul\":29702:29873   */\n      swap2\n      swap1\n      pop\n      jump\t// out\n        /* \"#utility.yul\":29879:30211   */\n    tag_332:\n        /* \"#utility.yul\":30000:30004   */\n      0x00\n        /* \"#utility.yul\":30038:30040   */\n      0x40\n        /* \"#utility.yul\":30027:30036   */\n      dup3\n        /* \"#utility.yul\":30023:30041   */\n      add\n        /* \"#utility.yul\":30015:30041   */\n      swap1\n      pop\n        /* \"#utility.yul\":30051:30122   */\n      tag_922\n        /* \"#utility.yul\":30119:30120   */\n      0x00\n        /* \"#utility.yul\":30108:30117   */\n      dup4\n        /* \"#utility.yul\":30104:30121   */\n      add\n        /* \"#utility.yul\":30095:30101   */\n      dup6\n        /* \"#utility.yul\":30051:30122   */\n      tag_600\n      jump\t// in\n    tag_922:\n        /* \"#utility.yul\":30132:30204   */\n      tag_923\n        /* \"#utility.yul\":30200:30202   */\n      0x20\n        /* \"#utility.yul\":30189:30198   */\n      dup4\n        /* \"#utility.yul\":30185:30203   */\n      add\n        /* \"#utility.yul\":30176:30182   */\n      dup5\n        /* \"#utility.yul\":30132:30204   */\n      tag_569\n      jump\t// in\n    tag_923:\n        /* \"#utility.yul\":29879:30211   */\n      swap4\n      swap3\n      pop\n      pop\n      pop\n      jump\t// out\n        /* \"#utility.yul\":30217:30333   */\n    tag_634:\n        /* \"#utility.yul\":30287:30308   */\n      tag_925\n        /* \"#utility.yul\":30302:30307   */\n      dup2\n        /* \"#utility.yul\":30287:30308   */\n      tag_581\n      jump\t// in\n    tag_925:\n        /* \"#utility.yul\":30280:30285   */\n      dup2\n        /* \"#utility.yul\":30277:30309   */\n      eq\n        /* \"#utility.yul\":30267:30327   */\n      tag_926\n      jumpi\n        /* \"#utility.yul\":30323:30324   */\n      0x00\n        /* \"#utility.yul\":30320:30321   */\n      0x00\n        /* \"#utility.yul\":30313:30325   */\n      revert\n        /* \"#utility.yul\":30267:30327   */\n    tag_926:\n        /* \"#utility.yul\":30217:30333   */\n      pop\n      jump\t// out\n        /* \"#utility.yul\":30339:30476   */\n    tag_635:\n        /* \"#utility.yul\":30393:30398   */\n      0x00\n        /* \"#utility.yul\":30424:30430   */\n      dup2\n        /* \"#utility.yul\":30418:30431   */\n      mload\n        /* \"#utility.yul\":30409:30431   */\n      swap1\n      pop\n        /* \"#utility.yul\":30440:30470   */\n      tag_928\n        /* \"#utility.yul\":30464:30469   */\n      dup2\n        /* \"#utility.yul\":30440:30470   */\n      tag_634\n      jump\t// in\n    tag_928:\n        /* \"#utility.yul\":30339:30476   */\n      swap3\n      swap2\n      pop\n      pop\n      jump\t// out\n        /* \"#utility.yul\":30482:30827   */\n    tag_336:\n        /* \"#utility.yul\":30549:30555   */\n      0x00\n        /* \"#utility.yul\":30598:30600   */\n      0x20\n        /* \"#utility.yul\":30586:30595   */\n      dup3\n        /* \"#utility.yul\":30577:30584   */\n      dup5\n        /* \"#utility.yul\":30573:30596   */\n      sub\n        /* \"#utility.yul\":30569:30601   */\n      slt\n        /* \"#utility.yul\":30566:30685   */\n      iszero\n      tag_930\n      jumpi\n        /* \"#utility.yul\":30604:30683   */\n      tag_931\n      tag_571\n      jump\t// in\n    tag_931:\n        /* \"#utility.yul\":30566:30685   */\n    tag_930:\n        /* \"#utility.yul\":30724:30725   */\n      0x00\n        /* \"#utility.yul\":30749:30810   */\n      tag_932\n        /* \"#utility.yul\":30802:30809   */\n      dup5\n        /* \"#utility.yul\":30793:30799   */\n      dup3\n        /* \"#utility.yul\":30782:30791   */\n      dup6\n        /* \"#utility.yul\":30778:30800   */\n      add\n        /* \"#utility.yul\":30749:30810   */\n      tag_635\n      jump\t// in\n    tag_932:\n        /* \"#utility.yul\":30739:30810   */\n      swap2\n      pop\n        /* \"#utility.yul\":30695:30820   */\n      pop\n        /* \"#utility.yul\":30482:30827   */\n      swap3\n      swap2\n      pop\n      pop\n      jump\t// out\n        /* \"#utility.yul\":30833:30998   */\n    tag_636:\n        /* \"#utility.yul\":30973:30990   */\n      0x5472616e73666572206661696c65640000000000000000000000000000000000\n        /* \"#utility.yul\":30969:30970   */\n      0x00\n        /* \"#utility.yul\":30961:30967   */\n      dup3\n        /* \"#utility.yul\":30957:30971   */\n      add\n        /* \"#utility.yul\":30950:30991   */\n      mstore\n        /* \"#utility.yul\":30833:30998   */\n      pop\n      jump\t// out\n        /* \"#utility.yul\":31004:31370   */\n    tag_637:\n        /* \"#utility.yul\":31146:31149   */\n      0x00\n        /* \"#utility.yul\":31167:31234   */\n      tag_935\n        /* \"#utility.yul\":31231:31233   */\n      0x0f\n        /* \"#utility.yul\":31226:31229   */\n      dup4\n        /* \"#utility.yul\":31167:31234   */\n      tag_607\n      jump\t// in\n    tag_935:\n        /* \"#utility.yul\":31160:31234   */\n      swap2\n      pop\n        /* \"#utility.yul\":31243:31336   */\n      tag_936\n        /* \"#utility.yul\":31332:31335   */\n      dup3\n        /* \"#utility.yul\":31243:31336   */\n      tag_636\n      jump\t// in\n    tag_936:\n        /* \"#utility.yul\":31361:31363   */\n      0x20\n        /* \"#utility.yul\":31356:31359   */\n      dup3\n        /* \"#utility.yul\":31352:31364   */\n      add\n        /* \"#utility.yul\":31345:31364   */\n      swap1\n      pop\n        /* \"#utility.yul\":31004:31370   */\n      swap2\n      swap1\n      pop\n      jump\t// out\n        /* \"#utility.yul\":31376:31795   */\n    tag_339:\n        /* \"#utility.yul\":31542:31546   */\n      0x00\n        /* \"#utility.yul\":31580:31582   */\n      0x20\n        /* \"#utility.yul\":31569:31578   */\n      dup3\n        /* \"#utility.yul\":31565:31583   */\n      add\n        /* \"#utility.yul\":31557:31583   */\n      swap1\n      pop\n        /* \"#utility.yul\":31629:31638   */\n      dup2\n        /* \"#utility.yul\":31623:31627   */\n      dup2\n        /* \"#utility.yul\":31619:31639   */\n      sub\n        /* \"#utility.yul\":31615:31616   */\n      0x00\n        /* \"#utility.yul\":31604:31613   */\n      dup4\n        /* \"#utility.yul\":31600:31617   */\n      add\n        /* \"#utility.yul\":31593:31640   */\n      mstore\n        /* \"#utility.yul\":31657:31788   */\n      tag_938\n        /* \"#utility.yul\":31783:31787   */\n      dup2\n        /* \"#utility.yul\":31657:31788   */\n      tag_637\n      jump\t// in\n    tag_938:\n        /* \"#utility.yul\":31649:31788   */\n      swap1\n      pop\n        /* \"#utility.yul\":31376:31795   */\n      swap2\n      swap1\n      pop\n      jump\t// out\n        /* \"#utility.yul\":31801:31955   */\n    tag_638:\n        /* \"#utility.yul\":31941:31947   */\n      0x4e6f6e6500000000000000000000000000000000000000000000000000000000\n        /* \"#utility.yul\":31937:31938   */\n      0x00\n        /* \"#utility.yul\":31929:31935   */\n      dup3\n        /* \"#utility.yul\":31925:31939   */\n      add\n        /* \"#utility.yul\":31918:31948   */\n      mstore\n        /* \"#utility.yul\":31801:31955   */\n      pop\n      jump\t// out\n        /* \"#utility.yul\":31961:32326   */\n    tag_639:\n        /* \"#utility.yul\":32103:32106   */\n      0x00\n        /* \"#utility.yul\":32124:32190   */\n      tag_941\n        /* \"#utility.yul\":32188:32189   */\n      0x04\n        /* \"#utility.yul\":32183:32186   */\n      dup4\n        /* \"#utility.yul\":32124:32190   */\n      tag_607\n      jump\t// in\n    tag_941:\n        /* \"#utility.yul\":32117:32190   */\n      swap2\n      pop\n        /* \"#utility.yul\":32199:32292   */\n      tag_942\n        /* \"#utility.yul\":32288:32291   */\n      dup3\n        /* \"#utility.yul\":32199:32292   */\n      tag_638\n      jump\t// in\n    tag_942:\n        /* \"#utility.yul\":32317:32319   */\n      0x20\n        /* \"#utility.yul\":32312:32315   */\n      dup3\n        /* \"#utility.yul\":32308:32320   */\n      add\n        /* \"#utility.yul\":32301:32320   */\n      swap1\n      pop\n        /* \"#utility.yul\":31961:32326   */\n      swap2\n      swap1\n      pop\n      jump\t// out\n        /* \"#utility.yul\":32332:32751   */\n    tag_389:\n        /* \"#utility.yul\":32498:32502   */\n      0x00\n        /* \"#utility.yul\":32536:32538   */\n      0x20\n        /* \"#utility.yul\":32525:32534   */\n      dup3\n        /* \"#utility.yul\":32521:32539   */\n      add\n        /* \"#utility.yul\":32513:32539   */\n      swap1\n      pop\n        /* \"#utility.yul\":32585:32594   */\n      dup2\n        /* \"#utility.yul\":32579:32583   */\n      dup2\n        /* \"#utility.yul\":32575:32595   */\n      sub\n        /* \"#utility.yul\":32571:32572   */\n      0x00\n        /* \"#utility.yul\":32560:32569   */\n      dup4\n        /* \"#utility.yul\":32556:32573   */\n      add\n        /* \"#utility.yul\":32549:32596   */\n      mstore\n        /* \"#utility.yul\":32613:32744   */\n      tag_944\n        /* \"#utility.yul\":32739:32743   */\n      dup2\n        /* \"#utility.yul\":32613:32744   */\n      tag_639\n      jump\t// in\n    tag_944:\n        /* \"#utility.yul\":32605:32744   */\n      swap1\n      pop\n        /* \"#utility.yul\":32332:32751   */\n      swap2\n      swap1\n      pop\n      jump\t// out\n        /* \"#utility.yul\":32757:32937   */\n    tag_398:\n        /* \"#utility.yul\":32805:32882   */\n      0x4e487b7100000000000000000000000000000000000000000000000000000000\n        /* \"#utility.yul\":32802:32803   */\n      0x00\n        /* \"#utility.yul\":32795:32883   */\n      mstore\n        /* \"#utility.yul\":32902:32906   */\n      0x31\n        /* \"#utility.yul\":32899:32900   */\n      0x04\n        /* \"#utility.yul\":32892:32907   */\n      mstore\n        /* \"#utility.yul\":32926:32930   */\n      0x24\n        /* \"#utility.yul\":32923:32924   */\n      0x00\n        /* \"#utility.yul\":32916:32931   */\n      revert\n        /* \"#utility.yul\":32943:33103   */\n    tag_640:\n        /* \"#utility.yul\":33083:33095   */\n      0x4d696e20616d6f756e7400000000000000000000000000000000000000000000\n        /* \"#utility.yul\":33079:33080   */\n      0x00\n        /* \"#utility.yul\":33071:33077   */\n      dup3\n        /* \"#utility.yul\":33067:33081   */\n      add\n        /* \"#utility.yul\":33060:33096   */\n      mstore\n        /* \"#utility.yul\":32943:33103   */\n      pop\n      jump\t// out\n        /* \"#utility.yul\":33109:33475   */\n    tag_641:\n        /* \"#utility.yul\":33251:33254   */\n      0x00\n        /* \"#utility.yul\":33272:33339   */\n      tag_948\n        /* \"#utility.yul\":33336:33338   */\n      0x0a\n        /* \"#utility.yul\":33331:33334   */\n      dup4\n        /* \"#utility.yul\":33272:33339   */\n      tag_607\n      jump\t// in\n    tag_948:\n        /* \"#utility.yul\":33265:33339   */\n      swap2\n      pop\n        /* \"#utility.yul\":33348:33441   */\n      tag_949\n        /* \"#utility.yul\":33437:33440   */\n      dup3\n        /* \"#utility.yul\":33348:33441   */\n      tag_640\n      jump\t// in\n    tag_949:\n        /* \"#utility.yul\":33466:33468   */\n      0x20\n        /* \"#utility.yul\":33461:33464   */\n      dup3\n        /* \"#utility.yul\":33457:33469   */\n      add\n        /* \"#utility.yul\":33450:33469   */\n      swap1\n      pop\n        /* \"#utility.yul\":33109:33475   */\n      swap2\n      swap1\n      pop\n      jump\t// out\n        /* \"#utility.yul\":33481:33900   */\n    tag_408:\n        /* \"#utility.yul\":33647:33651   */\n      0x00\n        /* \"#utility.yul\":33685:33687   */\n      0x20\n        /* \"#utility.yul\":33674:33683   */\n      dup3\n        /* \"#utility.yul\":33670:33688   */\n      add\n        /* \"#utility.yul\":33662:33688   */\n      swap1\n      pop\n        /* \"#utility.yul\":33734:33743   */\n      dup2\n        /* \"#utility.yul\":33728:33732   */\n      dup2\n        /* \"#utility.yul\":33724:33744   */\n      sub\n        /* \"#utility.yul\":33720:33721   */\n      0x00\n        /* \"#utility.yul\":33709:33718   */\n      dup4\n        /* \"#utility.yul\":33705:33722   */\n      add\n        /* \"#utility.yul\":33698:33745   */\n      mstore\n        /* \"#utility.yul\":33762:33893   */\n      tag_951\n        /* \"#utility.yul\":33888:33892   */\n      dup2\n        /* \"#utility.yul\":33762:33893   */\n      tag_641\n      jump\t// in\n    tag_951:\n        /* \"#utility.yul\":33754:33893   */\n      swap1\n      pop\n        /* \"#utility.yul\":33481:33900   */\n      swap2\n      swap1\n      pop\n      jump\t// out\n        /* \"#utility.yul\":33906:34075   */\n    tag_642:\n        /* \"#utility.yul\":34046:34067   */\n      0x4c6f636b206d7573742062652067726561657200000000000000000000000000\n        /* \"#utility.yul\":34042:34043   */\n      0x00\n        /* \"#utility.yul\":34034:34040   */\n      dup3\n        /* \"#utility.yul\":34030:34044   */\n      add\n        /* \"#utility.yul\":34023:34068   */\n      mstore\n        /* \"#utility.yul\":33906:34075   */\n      pop\n      jump\t// out\n        /* \"#utility.yul\":34081:34447   */\n    tag_643:\n        /* \"#utility.yul\":34223:34226   */\n      0x00\n        /* \"#utility.yul\":34244:34311   */\n      tag_954\n        /* \"#utility.yul\":34308:34310   */\n      0x13\n        /* \"#utility.yul\":34303:34306   */\n      dup4\n        /* \"#utility.yul\":34244:34311   */\n      tag_607\n      jump\t// in\n    tag_954:\n        /* \"#utility.yul\":34237:34311   */\n      swap2\n      pop\n        /* \"#utility.yul\":34320:34413   */\n      tag_955\n        /* \"#utility.yul\":34409:34412   */\n      dup3\n        /* \"#utility.yul\":34320:34413   */\n      tag_642\n      jump\t// in\n    tag_955:\n        /* \"#utility.yul\":34438:34440   */\n      0x20\n        /* \"#utility.yul\":34433:34436   */\n      dup3\n        /* \"#utility.yul\":34429:34441   */\n      add\n        /* \"#utility.yul\":34422:34441   */\n      swap1\n      pop\n        /* \"#utility.yul\":34081:34447   */\n      swap2\n      swap1\n      pop\n      jump\t// out\n        /* \"#utility.yul\":34453:34872   */\n    tag_411:\n        /* \"#utility.yul\":34619:34623   */\n      0x00\n        /* \"#utility.yul\":34657:34659   */\n      0x20\n        /* \"#utility.yul\":34646:34655   */\n      dup3\n        /* \"#utility.yul\":34642:34660   */\n      add\n        /* \"#utility.yul\":34634:34660   */\n      swap1\n      pop\n        /* \"#utility.yul\":34706:34715   */\n      dup2\n        /* \"#utility.yul\":34700:34704   */\n      dup2\n        /* \"#utility.yul\":34696:34716   */\n      sub\n        /* \"#utility.yul\":34692:34693   */\n      0x00\n        /* \"#utility.yul\":34681:34690   */\n      dup4\n        /* \"#utility.yul\":34677:34694   */\n      add\n        /* \"#utility.yul\":34670:34717   */\n      mstore\n        /* \"#utility.yul\":34734:34865   */\n      tag_957\n        /* \"#utility.yul\":34860:34864   */\n      dup2\n        /* \"#utility.yul\":34734:34865   */\n      tag_643\n      jump\t// in\n    tag_957:\n        /* \"#utility.yul\":34726:34865   */\n      swap1\n      pop\n        /* \"#utility.yul\":34453:34872   */\n      swap2\n      swap1\n      pop\n      jump\t// out\n        /* \"#utility.yul\":34878:35037   */\n    tag_644:\n        /* \"#utility.yul\":35018:35029   */\n      0x4e6f206d6f6e7468730000000000000000000000000000000000000000000000\n        /* \"#utility.yul\":35014:35015   */\n      0x00\n        /* \"#utility.yul\":35006:35012   */\n      dup3\n        /* \"#utility.yul\":35002:35016   */\n      add\n        /* \"#utility.yul\":34995:35030   */\n      mstore\n        /* \"#utility.yul\":34878:35037   */\n      pop\n      jump\t// out\n        /* \"#utility.yul\":35043:35408   */\n    tag_645:\n        /* \"#utility.yul\":35185:35188   */\n      0x00\n        /* \"#utility.yul\":35206:35272   */\n      tag_960\n        /* \"#utility.yul\":35270:35271   */\n      0x09\n        /* \"#utility.yul\":35265:35268   */\n      dup4\n        /* \"#utility.yul\":35206:35272   */\n      tag_607\n      jump\t// in\n    tag_960:\n        /* \"#utility.yul\":35199:35272   */\n      swap2\n      pop\n        /* \"#utility.yul\":35281:35374   */\n      tag_961\n        /* \"#utility.yul\":35370:35373   */\n      dup3\n        /* \"#utility.yul\":35281:35374   */\n      tag_644\n      jump\t// in\n    tag_961:\n        /* \"#utility.yul\":35399:35401   */\n      0x20\n        /* \"#utility.yul\":35394:35397   */\n      dup3\n        /* \"#utility.yul\":35390:35402   */\n      add\n        /* \"#utility.yul\":35383:35402   */\n      swap1\n      pop\n        /* \"#utility.yul\":35043:35408   */\n      swap2\n      swap1\n      pop\n      jump\t// out\n        /* \"#utility.yul\":35414:35833   */\n    tag_414:\n        /* \"#utility.yul\":35580:35584   */\n      0x00\n        /* \"#utility.yul\":35618:35620   */\n      0x20\n        /* \"#utility.yul\":35607:35616   */\n      dup3\n        /* \"#utility.yul\":35603:35621   */\n      add\n        /* \"#utility.yul\":35595:35621   */\n      swap1\n      pop\n        /* \"#utility.yul\":35667:35676   */\n      dup2\n        /* \"#utility.yul\":35661:35665   */\n      dup2\n        /* \"#utility.yul\":35657:35677   */\n      sub\n        /* \"#utility.yul\":35653:35654   */\n      0x00\n        /* \"#utility.yul\":35642:35651   */\n      dup4\n        /* \"#utility.yul\":35638:35655   */\n      add\n        /* \"#utility.yul\":35631:35678   */\n      mstore\n        /* \"#utility.yul\":35695:35826   */\n      tag_963\n        /* \"#utility.yul\":35821:35825   */\n      dup2\n        /* \"#utility.yul\":35695:35826   */\n      tag_645\n      jump\t// in\n    tag_963:\n        /* \"#utility.yul\":35687:35826   */\n      swap1\n      pop\n        /* \"#utility.yul\":35414:35833   */\n      swap2\n      swap1\n      pop\n      jump\t// out\n        /* \"#utility.yul\":35839:36005   */\n    tag_646:\n        /* \"#utility.yul\":35979:35997   */\n      0x54696d65206e6f7420636f766572656400000000000000000000000000000000\n        /* \"#utility.yul\":35975:35976   */\n      0x00\n        /* \"#utility.yul\":35967:35973   */\n      dup3\n        /* \"#utility.yul\":35963:35977   */\n      add\n        /* \"#utility.yul\":35956:35998   */\n      mstore\n        /* \"#utility.yul\":35839:36005   */\n      pop\n      jump\t// out\n        /* \"#utility.yul\":36011:36377   */\n    tag_647:\n        /* \"#utility.yul\":36153:36156   */\n      0x00\n        /* \"#utility.yul\":36174:36241   */\n      tag_966\n        /* \"#utility.yul\":36238:36240   */\n      0x10\n        /* \"#utility.yul\":36233:36236   */\n      dup4\n        /* \"#utility.yul\":36174:36241   */\n      tag_607\n      jump\t// in\n    tag_966:\n        /* \"#utility.yul\":36167:36241   */\n      swap2\n      pop\n        /* \"#utility.yul\":36250:36343   */\n      tag_967\n        /* \"#utility.yul\":36339:36342   */\n      dup3\n        /* \"#utility.yul\":36250:36343   */\n      tag_646\n      jump\t// in\n    tag_967:\n        /* \"#utility.yul\":36368:36370   */\n      0x20\n        /* \"#utility.yul\":36363:36366   */\n      dup3\n        /* \"#utility.yul\":36359:36371   */\n      add\n        /* \"#utility.yul\":36352:36371   */\n      swap1\n      pop\n        /* \"#utility.yul\":36011:36377   */\n      swap2\n      swap1\n      pop\n      jump\t// out\n        /* \"#utility.yul\":36383:36802   */\n    tag_418:\n        /* \"#utility.yul\":36549:36553   */\n      0x00\n        /* \"#utility.yul\":36587:36589   */\n      0x20\n        /* \"#utility.yul\":36576:36585   */\n      dup3\n        /* \"#utility.yul\":36572:36590   */\n      add\n        /* \"#utility.yul\":36564:36590   */\n      swap1\n      pop\n        /* \"#utility.yul\":36636:36645   */\n      dup2\n        /* \"#utility.yul\":36630:36634   */\n      dup2\n        /* \"#utility.yul\":36626:36646   */\n      sub\n        /* \"#utility.yul\":36622:36623   */\n      0x00\n        /* \"#utility.yul\":36611:36620   */\n      dup4\n        /* \"#utility.yul\":36607:36624   */\n      add\n        /* \"#utility.yul\":36600:36647   */\n      mstore\n        /* \"#utility.yul\":36664:36795   */\n      tag_969\n        /* \"#utility.yul\":36790:36794   */\n      dup2\n        /* \"#utility.yul\":36664:36795   */\n      tag_647\n      jump\t// in\n    tag_969:\n        /* \"#utility.yul\":36656:36795   */\n      swap1\n      pop\n        /* \"#utility.yul\":36383:36802   */\n      swap2\n      swap1\n      pop\n      jump\t// out\n        /* \"#utility.yul\":36808:37032   */\n    tag_648:\n        /* \"#utility.yul\":36948:36982   */\n      0x4c6f636b20706572696f64206578636565647320636f6e66696775726564206d\n        /* \"#utility.yul\":36944:36945   */\n      0x00\n        /* \"#utility.yul\":36936:36942   */\n      dup3\n        /* \"#utility.yul\":36932:36946   */\n      add\n        /* \"#utility.yul\":36925:36983   */\n      mstore\n        /* \"#utility.yul\":37017:37024   */\n      0x6f6e746873000000000000000000000000000000000000000000000000000000\n        /* \"#utility.yul\":37012:37014   */\n      0x20\n        /* \"#utility.yul\":37004:37010   */\n      dup3\n        /* \"#utility.yul\":37000:37015   */\n      add\n        /* \"#utility.yul\":36993:37025   */\n      mstore\n        /* \"#utility.yul\":36808:37032   */\n      pop\n      jump\t// out\n        /* \"#utility.yul\":37038:37404   */\n    tag_649:\n        /* \"#utility.yul\":37180:37183   */\n      0x00\n        /* \"#utility.yul\":37201:37268   */\n      tag_972\n        /* \"#utility.yul\":37265:37267   */\n      0x25\n        /* \"#utility.yul\":37260:37263   */\n      dup4\n        /* \"#utility.yul\":37201:37268   */\n      tag_607\n      jump\t// in\n    tag_972:\n        /* \"#utility.yul\":37194:37268   */\n      swap2\n      pop\n        /* \"#utility.yul\":37277:37370   */\n      tag_973\n        /* \"#utility.yul\":37366:37369   */\n      dup3\n        /* \"#utility.yul\":37277:37370   */\n      tag_648\n      jump\t// in\n    tag_973:\n        /* \"#utility.yul\":37395:37397   */\n      0x40\n        /* \"#utility.yul\":37390:37393   */\n      dup3\n        /* \"#utility.yul\":37386:37398   */\n      add\n        /* \"#utility.yul\":37379:37398   */\n      swap1\n      pop\n        /* \"#utility.yul\":37038:37404   */\n      swap2\n      swap1\n      pop\n      jump\t// out\n        /* \"#utility.yul\":37410:37829   */\n    tag_422:\n        /* \"#utility.yul\":37576:37580   */\n      0x00\n        /* \"#utility.yul\":37614:37616   */\n      0x20\n        /* \"#utility.yul\":37603:37612   */\n      dup3\n        /* \"#utility.yul\":37599:37617   */\n      add\n        /* \"#utility.yul\":37591:37617   */\n      swap1\n      pop\n        /* \"#utility.yul\":37663:37672   */\n      dup2\n        /* \"#utility.yul\":37657:37661   */\n      dup2\n        /* \"#utility.yul\":37653:37673   */\n      sub\n        /* \"#utility.yul\":37649:37650   */\n      0x00\n        /* \"#utility.yul\":37638:37647   */\n      dup4\n        /* \"#utility.yul\":37634:37651   */\n      add\n        /* \"#utility.yul\":37627:37674   */\n      mstore\n        /* \"#utility.yul\":37691:37822   */\n      tag_975\n        /* \"#utility.yul\":37817:37821   */\n      dup2\n        /* \"#utility.yul\":37691:37822   */\n      tag_649\n      jump\t// in\n    tag_975:\n        /* \"#utility.yul\":37683:37822   */\n      swap1\n      pop\n        /* \"#utility.yul\":37410:37829   */\n      swap2\n      swap1\n      pop\n      jump\t// out\n        /* \"#utility.yul\":37835:38277   */\n    tag_424:\n        /* \"#utility.yul\":37984:37988   */\n      0x00\n        /* \"#utility.yul\":38022:38024   */\n      0x60\n        /* \"#utility.yul\":38011:38020   */\n      dup3\n        /* \"#utility.yul\":38007:38025   */\n      add\n        /* \"#utility.yul\":37999:38025   */\n      swap1\n      pop\n        /* \"#utility.yul\":38035:38106   */\n      tag_977\n        /* \"#utility.yul\":38103:38104   */\n      0x00\n        /* \"#utility.yul\":38092:38101   */\n      dup4\n        /* \"#utility.yul\":38088:38105   */\n      add\n        /* \"#utility.yul\":38079:38085   */\n      dup7\n        /* \"#utility.yul\":38035:38106   */\n      tag_600\n      jump\t// in\n    tag_977:\n        /* \"#utility.yul\":38116:38188   */\n      tag_978\n        /* \"#utility.yul\":38184:38186   */\n      0x20\n        /* \"#utility.yul\":38173:38182   */\n      dup4\n        /* \"#utility.yul\":38169:38187   */\n      add\n        /* \"#utility.yul\":38160:38166   */\n      dup6\n        /* \"#utility.yul\":38116:38188   */\n      tag_600\n      jump\t// in\n    tag_978:\n        /* \"#utility.yul\":38198:38270   */\n      tag_979\n        /* \"#utility.yul\":38266:38268   */\n      0x40\n        /* \"#utility.yul\":38255:38264   */\n      dup4\n        /* \"#utility.yul\":38251:38269   */\n      add\n        /* \"#utility.yul\":38242:38248   */\n      dup5\n        /* \"#utility.yul\":38198:38270   */\n      tag_569\n      jump\t// in\n    tag_979:\n        /* \"#utility.yul\":37835:38277   */\n      swap5\n      swap4\n      pop\n      pop\n      pop\n      pop\n      jump\t// out\n        /* \"#utility.yul\":38283:38516   */\n    tag_437:\n        /* \"#utility.yul\":38322:38325   */\n      0x00\n        /* \"#utility.yul\":38345:38369   */\n      tag_981\n        /* \"#utility.yul\":38363:38368   */\n      dup3\n        /* \"#utility.yul\":38345:38369   */\n      tag_568\n      jump\t// in\n    tag_981:\n        /* \"#utility.yul\":38336:38369   */\n      swap2\n      pop\n        /* \"#utility.yul\":38391:38457   */\n      0xffffffffffffffffffffffffffffffffffffffffffffffffffffffffffffffff\n        /* \"#utility.yul\":38384:38389   */\n      dup3\n        /* \"#utility.yul\":38381:38458   */\n      sub\n        /* \"#utility.yul\":38378:38481   */\n      tag_982\n      jumpi\n        /* \"#utility.yul\":38461:38479   */\n      tag_983\n      tag_618\n      jump\t// in\n    tag_983:\n        /* \"#utility.yul\":38378:38481   */\n    tag_982:\n        /* \"#utility.yul\":38508:38509   */\n      0x01\n        /* \"#utility.yul\":38501:38506   */\n      dup3\n        /* \"#utility.yul\":38497:38510   */\n      add\n        /* \"#utility.yul\":38490:38510   */\n      swap1\n      pop\n        /* \"#utility.yul\":38283:38516   */\n      swap2\n      swap1\n      pop\n      jump\t// out\n        /* \"#utility.yul\":38522:39075   */\n    tag_439:\n        /* \"#utility.yul\":38699:38703   */\n      0x00\n        /* \"#utility.yul\":38737:38740   */\n      0x80\n        /* \"#utility.yul\":38726:38735   */\n      dup3\n        /* \"#utility.yul\":38722:38741   */\n      add\n        /* \"#utility.yul\":38714:38741   */\n      swap1\n      pop\n        /* \"#utility.yul\":38751:38822   */\n      tag_985\n        /* \"#utility.yul\":38819:38820   */\n      0x00\n        /* \"#utility.yul\":38808:38817   */\n      dup4\n        /* \"#utility.yul\":38804:38821   */\n      add\n        /* \"#utility.yul\":38795:38801   */\n      dup8\n        /* \"#utility.yul\":38751:38822   */\n      tag_569\n      jump\t// in\n    tag_985:\n        /* \"#utility.yul\":38832:38904   */\n      tag_986\n        /* \"#utility.yul\":38900:38902   */\n      0x20\n        /* \"#utility.yul\":38889:38898   */\n      dup4\n        /* \"#utility.yul\":38885:38903   */\n      add\n        /* \"#utility.yul\":38876:38882   */\n      dup7\n        /* \"#utility.yul\":38832:38904   */\n      tag_569\n      jump\t// in\n    tag_986:\n        /* \"#utility.yul\":38914:38986   */\n      tag_987\n        /* \"#utility.yul\":38982:38984   */\n      0x40\n        /* \"#utility.yul\":38971:38980   */\n      dup4\n        /* \"#utility.yul\":38967:38985   */\n      add\n        /* \"#utility.yul\":38958:38964   */\n      dup6\n        /* \"#utility.yul\":38914:38986   */\n      tag_569\n      jump\t// in\n    tag_987:\n        /* \"#utility.yul\":38996:39068   */\n      tag_988\n        /* \"#utility.yul\":39064:39066   */\n      0x60\n        /* \"#utility.yul\":39053:39062   */\n      dup4\n        /* \"#utility.yul\":39049:39067   */\n      add\n        /* \"#utility.yul\":39040:39046   */\n      dup5\n        /* \"#utility.yul\":38996:39068   */\n      tag_569\n      jump\t// in\n    tag_988:\n        /* \"#utility.yul\":38522:39075   */\n      swap6\n      swap5\n      pop\n      pop\n      pop\n      pop\n      pop\n      jump\t// out\n        /* \"#utility.yul\":39081:39259   */\n    tag_650:\n        /* \"#utility.yul\":39221:39251   */\n      0x43616e6e6f74207265636f766572207374616b696e6720746f6b656e00000000\n        /* \"#utility.yul\":39217:39218   */\n      0x00\n        /* \"#utility.yul\":39209:39215   */\n      dup3\n        /* \"#utility.yul\":39205:39219   */\n      add\n        /* \"#utility.yul\":39198:39252   */\n      mstore\n        /* \"#utility.yul\":39081:39259   */\n      pop\n      jump\t// out\n        /* \"#utility.yul\":39265:39631   */\n    tag_651:\n        /* \"#utility.yul\":39407:39410   */\n      0x00\n        /* \"#utility.yul\":39428:39495   */\n      tag_991\n        /* \"#utility.yul\":39492:39494   */\n      0x1c\n        /* \"#utility.yul\":39487:39490   */\n      dup4\n        /* \"#utility.yul\":39428:39495   */\n      tag_607\n      jump\t// in\n    tag_991:\n        /* \"#utility.yul\":39421:39495   */\n      swap2\n      pop\n        /* \"#utility.yul\":39504:39597   */\n      tag_992\n        /* \"#utility.yul\":39593:39596   */\n      dup3\n        /* \"#utility.yul\":39504:39597   */\n      tag_650\n      jump\t// in\n    tag_992:\n        /* \"#utility.yul\":39622:39624   */\n      0x20\n        /* \"#utility.yul\":39617:39620   */\n      dup3\n        /* \"#utility.yul\":39613:39625   */\n      add\n        /* \"#utility.yul\":39606:39625   */\n      swap1\n      pop\n        /* \"#utility.yul\":39265:39631   */\n      swap2\n      swap1\n      pop\n      jump\t// out\n        /* \"#utility.yul\":39637:40056   */\n    tag_447:\n        /* \"#utility.yul\":39803:39807   */\n      0x00\n        /* \"#utility.yul\":39841:39843   */\n      0x20\n        /* \"#utility.yul\":39830:39839   */\n      dup3\n        /* \"#utility.yul\":39826:39844   */\n      add\n        /* \"#utility.yul\":39818:39844   */\n      swap1\n      pop\n        /* \"#utility.yul\":39890:39899   */\n      dup2\n        /* \"#utility.yul\":39884:39888   */\n      dup2\n        /* \"#utility.yul\":39880:39900   */\n      sub\n        /* \"#utility.yul\":39876:39877   */\n      0x00\n        /* \"#utility.yul\":39865:39874   */\n      dup4\n        /* \"#utility.yul\":39861:39878   */\n      add\n        /* \"#utility.yul\":39854:39901   */\n      mstore\n        /* \"#utility.yul\":39918:40049   */\n      tag_994\n        /* \"#utility.yul\":40044:40048   */\n      dup2\n        /* \"#utility.yul\":39918:40049   */\n      tag_651\n      jump\t// in\n    tag_994:\n        /* \"#utility.yul\":39910:40049   */\n      swap1\n      pop\n        /* \"#utility.yul\":39637:40056   */\n      swap2\n      swap1\n      pop\n      jump\t// out\n        /* \"#utility.yul\":40062:40227   */\n    tag_652:\n        /* \"#utility.yul\":40202:40219   */\n      0x5265636f76657279206661696c65640000000000000000000000000000000000\n        /* \"#utility.yul\":40198:40199   */\n      0x00\n        /* \"#utility.yul\":40190:40196   */\n      dup3\n        /* \"#utility.yul\":40186:40200   */\n      add\n        /* \"#utility.yul\":40179:40220   */\n      mstore\n        /* \"#utility.yul\":40062:40227   */\n      pop\n      jump\t// out\n        /* \"#utility.yul\":40233:40599   */\n    tag_653:\n        /* \"#utility.yul\":40375:40378   */\n      0x00\n        /* \"#utility.yul\":40396:40463   */\n      tag_997\n        /* \"#utility.yul\":40460:40462   */\n      0x0f\n        /* \"#utility.yul\":40455:40458   */\n      dup4\n        /* \"#utility.yul\":40396:40463   */\n      tag_607\n      jump\t// in\n    tag_997:\n        /* \"#utility.yul\":40389:40463   */\n      swap2\n      pop\n        /* \"#utility.yul\":40472:40565   */\n      tag_998\n        /* \"#utility.yul\":40561:40564   */\n      dup3\n        /* \"#utility.yul\":40472:40565   */\n      tag_652\n      jump\t// in\n    tag_998:\n        /* \"#utility.yul\":40590:40592   */\n      0x20\n        /* \"#utility.yul\":40585:40588   */\n      dup3\n        /* \"#utility.yul\":40581:40593   */\n      add\n        /* \"#utility.yul\":40574:40593   */\n      swap1\n      pop\n        /* \"#utility.yul\":40233:40599   */\n      swap2\n      swap1\n      pop\n      jump\t// out\n        /* \"#utility.yul\":40605:41024   */\n    tag_454:\n        /* \"#utility.yul\":40771:40775   */\n      0x00\n        /* \"#utility.yul\":40809:40811   */\n      0x20\n        /* \"#utility.yul\":40798:40807   */\n      dup3\n        /* \"#utility.yul\":40794:40812   */\n      add\n        /* \"#utility.yul\":40786:40812   */\n      swap1\n      pop\n        /* \"#utility.yul\":40858:40867   */\n      dup2\n        /* \"#utility.yul\":40852:40856   */\n      dup2\n        /* \"#utility.yul\":40848:40868   */\n      sub\n        /* \"#utility.yul\":40844:40845   */\n      0x00\n        /* \"#utility.yul\":40833:40842   */\n      dup4\n        /* \"#utility.yul\":40829:40846   */\n      add\n        /* \"#utility.yul\":40822:40869   */\n      mstore\n        /* \"#utility.yul\":40886:41017   */\n      tag_1000\n        /* \"#utility.yul\":41012:41016   */\n      dup2\n        /* \"#utility.yul\":40886:41017   */\n      tag_653\n      jump\t// in\n    tag_1000:\n        /* \"#utility.yul\":40878:41017   */\n      swap1\n      pop\n        /* \"#utility.yul\":40605:41024   */\n      swap2\n      swap1\n      pop\n      jump\t// out\n        /* \"#utility.yul\":41030:41190   */\n    tag_654:\n        /* \"#utility.yul\":41170:41182   */\n      0x4e6f207265776172647300000000000000000000000000000000000000000000\n        /* \"#utility.yul\":41166:41167   */\n      0x00\n        /* \"#utility.yul\":41158:41164   */\n      dup3\n        /* \"#utility.yul\":41154:41168   */\n      add\n        /* \"#utility.yul\":41147:41183   */\n      mstore\n        /* \"#utility.yul\":41030:41190   */\n      pop\n      jump\t// out\n        /* \"#utility.yul\":41196:41562   */\n    tag_655:\n        /* \"#utility.yul\":41338:41341   */\n      0x00\n        /* \"#utility.yul\":41359:41426   */\n      tag_1003\n        /* \"#utility.yul\":41423:41425   */\n      0x0a\n        /* \"#utility.yul\":41418:41421   */\n      dup4\n        /* \"#utility.yul\":41359:41426   */\n      tag_607\n      jump\t// in\n    tag_1003:\n        /* \"#utility.yul\":41352:41426   */\n      swap2\n      pop\n        /* \"#utility.yul\":41435:41528   */\n      tag_1004\n        /* \"#utility.yul\":41524:41527   */\n      dup3\n        /* \"#utility.yul\":41435:41528   */\n      tag_654\n      jump\t// in\n    tag_1004:\n        /* \"#utility.yul\":41553:41555   */\n      0x20\n        /* \"#utility.yul\":41548:41551   */\n      dup3\n        /* \"#utility.yul\":41544:41556   */\n      add\n        /* \"#utility.yul\":41537:41556   */\n      swap1\n      pop\n        /* \"#utility.yul\":41196:41562   */\n      swap2\n      swap1\n      pop\n      jump\t// out\n        /* \"#utility.yul\":41568:41987   */\n    tag_468:\n        /* \"#utility.yul\":41734:41738   */\n      0x00\n        /* \"#utility.yul\":41772:41774   */\n      0x20\n        /* \"#utility.yul\":41761:41770   */\n      dup3\n        /* \"#utility.yul\":41757:41775   */\n      add\n        /* \"#utility.yul\":41749:41775   */\n      swap1\n      pop\n        /* \"#utility.yul\":41821:41830   */\n      dup2\n        /* \"#utility.yul\":41815:41819   */\n      dup2\n        /* \"#utility.yul\":41811:41831   */\n      sub\n        /* \"#utility.yul\":41807:41808   */\n      0x00\n        /* \"#utility.yul\":41796:41805   */\n      dup4\n        /* \"#utility.yul\":41792:41809   */\n      add\n        /* \"#utility.yul\":41785:41832   */\n      mstore\n        /* \"#utility.yul\":41849:41980   */\n      tag_1006\n        /* \"#utility.yul\":41975:41979   */\n      dup2\n        /* \"#utility.yul\":41849:41980   */\n      tag_655\n      jump\t// in\n    tag_1006:\n        /* \"#utility.yul\":41841:41980   */\n      swap1\n      pop\n        /* \"#utility.yul\":41568:41987   */\n      swap2\n      swap1\n      pop\n      jump\t// out\n\n    auxdata: 0xa2646970667358221220b2e5b5108c6620296a5c072b1a80ea74b8cb9308f1e7b05a73d3d38d3b12e41964736f6c634300081e0033\n}\n",
				"bytecode": {
					"linkReferences": {},
					"object": "60a06040525f6006556001600e55670de0b6b3a7640000600f55348015610024575f5ffd5b506040516143d93803806143d983398181016040528101906100469190610213565b60015f819055505f73ffffffffffffffffffffffffffffffffffffffff168273ffffffffffffffffffffffffffffffffffffffff16036100bb576040517f08c379a00000000000000000000000000000000000000000000000000000000081526004016100b2906102ab565b60405180910390fd5b612710811115610100576040517f08c379a00000000000000000000000000000000000000000000000000000000081526004016100f790610313565b60405180910390fd5b3360015f6101000a81548173ffffffffffffffffffffffffffffffffffffffff021916908373ffffffffffffffffffffffffffffffffffffffff1602179055508173ffffffffffffffffffffffffffffffffffffffff1660808173ffffffffffffffffffffffffffffffffffffffff1681525050806002819055505050610331565b5f5ffd5b5f73ffffffffffffffffffffffffffffffffffffffff82169050919050565b5f6101af82610186565b9050919050565b6101bf816101a5565b81146101c9575f5ffd5b50565b5f815190506101da816101b6565b92915050565b5f819050919050565b6101f2816101e0565b81146101fc575f5ffd5b50565b5f8151905061020d816101e9565b92915050565b5f5f6040838503121561022957610228610182565b5b5f610236858286016101cc565b9250506020610247858286016101ff565b9150509250929050565b5f82825260208201905092915050565b7f546f6b656e3a207a65726f0000000000000000000000000000000000000000005f82015250565b5f610295600b83610251565b91506102a082610261565b602082019050919050565b5f6020820190508181035f8301526102c281610289565b9050919050565b7f52617465203e20313030250000000000000000000000000000000000000000005f82015250565b5f6102fd600b83610251565b9150610308826102c9565b602082019050919050565b5f6020820190508181035f83015261032a816102f1565b9050919050565b6080516140746103655f395f81816115170152818161182301528181611da701528181612242015261252201526140745ff3fe608060405234801561000f575f5ffd5b506004361061020e575f3560e01c80636241ca7911610123578063b02c43d0116100ab578063dd4824a81161007a578063dd4824a81461064f578063e2842d791461067f578063f4f8c8471461069d578063f8799e1a146106bb578063fe4ab90a146106d95761020e565b8063b02c43d0146105c4578063b18e71f2146105fb578063b29a814014610617578063d3d83445146106335761020e565b80639521abc6116100f25780639521abc6146105205780639be572f61461053c5780639d13fa011461055a578063a2bdedf41461058a578063a9783cd7146105ba5761020e565b80636241ca79146104985780637196d3e2146104b457806372f702f3146104e45780638da5cb5b146105025761020e565b806323b28a54116101a6578063387160031161017557806338716003146103ce57806341aff23e146103fe5780634209fff11461042e5780634b4d7aa81461045e5780635301731f1461047a5761020e565b806323b28a54146103365780632a5bf6d2146103525780632e0e3064146103825780632ffb3d2a146103b25761020e565b80630f68ae40116101e25780630f68ae401461029a578063168a4822146102b65780631bfc7761146102d45780631d0205b8146103045761020e565b80620d63861461021257806305a163b614610230578063088042751461024c57806308f433331461026a575b5f5ffd5b61021a6106f7565b6040516102279190612cd1565b60405180910390f35b61024a60048036038101906102459190612d1c565b6106fd565b005b610254610a46565b6040516102619190612cd1565b60405180910390f35b610284600480360381019061027f9190612dda565b610a4c565b6040516102919190612cd1565b60405180910390f35b6102b460048036038101906102af9190612e18565b610a77565b005b6102be610b10565b6040516102cb9190612cd1565b60405180910390f35b6102ee60048036038101906102e99190612e18565b610b1c565b6040516102fb9190612f1b565b60405180910390f35b61031e60048036038101906103199190612e18565b610c01565b60405161032d93929190612f35565b60405180910390f35b610350600480360381019061034b9190612f6a565b610c36565b005b61036c60048036038101906103679190612fba565b610d22565b604051610379919061308d565b60405180910390f35b61039c60048036038101906103979190612e18565b610db5565b6040516103a99190612cd1565b60405180910390f35b6103cc60048036038101906103c7919061310e565b61102c565b005b6103e860048036038101906103e39190612e18565b611232565b6040516103f59190612cd1565b60405180910390f35b61041860048036038101906104139190612e18565b611247565b6040516104259190612cd1565b60405180910390f35b61044860048036038101906104439190612fba565b61125c565b60405161045591906131cd565b60405180910390f35b61047860048036038101906104739190612e18565b611279565b005b610482611312565b60405161048f9190612cd1565b60405180910390f35b6104b260048036038101906104ad9190612e18565b611318565b005b6104ce60048036038101906104c99190612d1c565b61164f565b6040516104db9190612cd1565b60405180910390f35b6104ec611821565b6040516104f99190613241565b60405180910390f35b61050a611845565b6040516105179190613269565b60405180910390f35b61053a60048036038101906105359190612e18565b61186a565b005b61054461197f565b6040516105519190612cd1565b60405180910390f35b610574600480360381019061056f9190612e18565b61198b565b6040516105819190612cd1565b60405180910390f35b6105a4600480360381019061059f9190612e18565b6119a0565b6040516105b19190613269565b60405180910390f35b6105c26119db565b005b6105de60048036038101906105d99190612e18565b611ba1565b6040516105f2989796959493929190613282565b60405180910390f35b610615600480360381019061061091906132fe565b611c1f565b005b610631600480360381019061062c9190612dda565b6121b1565b005b61064d60048036038101906106489190612e18565b6123ad565b005b61066960048036038101906106649190612f6a565b612666565b6040516106769190612cd1565b60405180910390f35b610687612833565b60405161069491906133e4565b60405180910390f35b6106a56128be565b6040516106b29190612cd1565b60405180910390f35b6106c36128c4565b6040516106d09190612cd1565b60405180910390f35b6106e16128ca565b6040516106ee9190612cd1565b60405180910390f35b60065481565b60015f9054906101000a900473ffffffffffffffffffffffffffffffffffffffff1673ffffffffffffffffffffffffffffffffffffffff163373ffffffffffffffffffffffffffffffffffffffff161461078c576040517f08c379a00000000000000000000000000000000000000000000000000000000081526004016107839061345e565b60405180910390fd5b600b8054905084106107d3576040517f08c379a00000000000000000000000000000000000000000000000000000000081526004016107ca906134c6565b60405180910390fd5b818310610815576040517f08c379a000000000000000000000000000000000000000000000000000000000815260040161080c9061352e565b60405180910390fd5b5f811461086257612710811115610861576040517f08c379a000000000000000000000000000000000000000000000000000000000815260040161085890613596565b60405180910390fd5b5b4283116108a4576040517f08c379a000000000000000000000000000000000000000000000000000000000815260040161089b906135fe565b60405180910390fd5b5f84111561091f57600b6001856108bb9190613649565b815481106108cc576108cb61367c565b5b905f5260205f2090600302016001015483101561091e576040517f08c379a0000000000000000000000000000000000000000000000000000000008152600401610915906136f3565b60405180910390fd5b5b600b805490506001856109329190613711565b10156109aa57600b6001856109479190613711565b815481106109585761095761367c565b5b905f5260205f2090600302015f01548211156109a9576040517f08c379a00000000000000000000000000000000000000000000000000000000081526004016109a09061378e565b60405180910390fd5b5b604051806060016040528084815260200183815260200182815250600b85815481106109d9576109d861367c565b5b905f5260205f2090600302015f820151815f01556020820151816001015560408201518160020155905050837f68f039af08c3a62dae4b7e4244543803dce43c9c5a2ad9ef05fea8366f4c8623848484604051610a3893929190612f35565b60405180910390a250505050565b600f5481565b6005602052815f5260405f208181548110610a65575f80fd5b905f5260205f20015f91509150505481565b60015f9054906101000a900473ffffffffffffffffffffffffffffffffffffffff1673ffffffffffffffffffffffffffffffffffffffff163373ffffffffffffffffffffffffffffffffffffffff1614610b06576040517f08c379a0000000000000000000000000000000000000000000000000000000008152600401610afd9061345e565b60405180910390fd5b80600f8190555050565b5f600780549050905090565b610b24612c64565b60078281548110610b3857610b3761367c565b5b905f5260205f209060080201604051806101000160405290815f82015f9054906101000a900473ffffffffffffffffffffffffffffffffffffffff1673ffffffffffffffffffffffffffffffffffffffff1673ffffffffffffffffffffffffffffffffffffffff168152602001600182015481526020016002820154815260200160038201548152602001600482015481526020016005820154815260200160068201548152602001600782015f9054906101000a900460ff1615151515815250509050919050565b600b8181548110610c10575f80fd5b905f5260205f2090600302015f91509050805f0154908060010154908060020154905083565b60015f9054906101000a900473ffffffffffffffffffffffffffffffffffffffff1673ffffffffffffffffffffffffffffffffffffffff163373ffffffffffffffffffffffffffffffffffffffff1614610cc5576040517f08c379a0000000000000000000000000000000000000000000000000000000008152600401610cbc9061345e565b60405180910390fd5b610cd08383836128d0565b6001600b80549050610ce29190613649565b7f901d51af3f40466612c7be89ba349f0b5aa321186bb4de023367f1ca25acdced848484604051610d1593929190612f35565b60405180910390a2505050565b606060055f8373ffffffffffffffffffffffffffffffffffffffff1673ffffffffffffffffffffffffffffffffffffffff1681526020019081526020015f20805480602002602001604051908101604052809291908181526020018280548015610da957602002820191905f5260205f20905b815481526020019060010190808311610d95575b50505050509050919050565b5f5f60078381548110610dcb57610dca61367c565b5b905f5260205f209060080201604051806101000160405290815f82015f9054906101000a900473ffffffffffffffffffffffffffffffffffffffff1673ffffffffffffffffffffffffffffffffffffffff1673ffffffffffffffffffffffffffffffffffffffff168152602001600182015481526020016002820154815260200160038201548152602001600482015481526020016005820154815260200160068201548152602001600782015f9054906101000a900460ff16151515158152505090505f81602001511480610ea357508060e00151155b15610eb1575f915050611027565b5f8160c0015190505f610ec4825f612a4a565b9050818111610ed8575f9350505050611027565b5f5f90505f846020015190505f8490505b8381101561101d575f600b8281548110610f0657610f0561367c565b5b905f5260205f2090600302016040518060600160405290815f82015481526020016001820154815260200160028201548152505090505f610f4683612aae565b90505f6127108286610f5891906137ac565b610f62919061381a565b905088604001518403610ffd575f835f015190505f846020015190505f8282610f8b9190613649565b90505f838d6060015111610f9f5783610fa5565b8c606001515b90505f839050808210610fbf575050505050505050611010565b5f8282610fcc9190613649565b9050838188610fdb91906137ac565b610fe5919061381a565b8c610ff09190613711565b9b5050505050505061100c565b80866110099190613711565b95505b5050505b8080600101915050610ee9565b5081955050505050505b919050565b60015f9054906101000a900473ffffffffffffffffffffffffffffffffffffffff1673ffffffffffffffffffffffffffffffffffffffff163373ffffffffffffffffffffffffffffffffffffffff16146110bb576040517f08c379a00000000000000000000000000000000000000000000000000000000081526004016110b29061345e565b60405180910390fd5b83839050868690501480156110d557508181905086869050145b611114576040517f08c379a000000000000000000000000000000000000000000000000000000000815260040161110b90613894565b60405180910390fd5b5f8686905011611159576040517f08c379a0000000000000000000000000000000000000000000000000000000008152600401611150906138fc565b60405180910390fd5b5f5f90505b868690508110156111cc576111bf87878381811061117f5761117e61367c565b5b905060200201358686848181106111995761119861367c565b5b905060200201358585858181106111b3576111b261367c565b5b905060200201356128d0565b808060010191505061115e565b507fab080e234ebab87937f1d48c107ecb8ab6361d9012a0670705e920b9cffe101186869050600b805490506112029190613649565b6001600b805490506112149190613649565b60405161122292919061391a565b60405180910390a1505050505050565b600a602052805f5260405f205f915090505481565b600c602052805f5260405f205f915090505481565b6004602052805f5260405f205f915054906101000a900460ff1681565b60015f9054906101000a900473ffffffffffffffffffffffffffffffffffffffff1673ffffffffffffffffffffffffffffffffffffffff163373ffffffffffffffffffffffffffffffffffffffff1614611308576040517f08c379a00000000000000000000000000000000000000000000000000000000081526004016112ff9061345e565b60405180910390fd5b80600e8190555050565b60085481565b611320612aef565b5f600782815481106113355761133461367c565b5b905f5260205f2090600802019050806007015f9054906101000a900460ff16611393576040517f08c379a000000000000000000000000000000000000000000000000000000000815260040161138a9061398b565b60405180910390fd5b3373ffffffffffffffffffffffffffffffffffffffff16815f015f9054906101000a900473ffffffffffffffffffffffffffffffffffffffff1673ffffffffffffffffffffffffffffffffffffffff1614611423576040517f08c379a000000000000000000000000000000000000000000000000000000000815260040161141a906139f3565b60405180910390fd5b5f61142c612b33565b90508160050154811015611475576040517f08c379a000000000000000000000000000000000000000000000000000000000815260040161146c90613a5b565b60405180910390fd5b5f61147f84610db5565b90505f8184600101546114929190613711565b9050836001015460095f8282546114a99190613649565b925050819055505f84600101819055505f846007015f6101000a81548160ff0219169083151502179055504284600401819055505f6114ec85600601545f612a4a565b90508085600601819055508360068190555060085f81548092919061151090613a79565b91905055507f000000000000000000000000000000000000000000000000000000000000000073ffffffffffffffffffffffffffffffffffffffff1663a9059cbb33846040518363ffffffff1660e01b8152600401611570929190613aa0565b6020604051808303815f875af115801561158c573d5f5f3e3d5ffd5b505050506040513d601f19601f820116820180604052508101906115b09190613af1565b6115ef576040517f08c379a00000000000000000000000000000000000000000000000000000000081526004016115e690613b66565b60405180910390fd5b3373ffffffffffffffffffffffffffffffffffffffff167f217ea3989b9d3112d2133a930216f444b7fbcaeaa4d5bc0220d099fdc928e71e878460405161163792919061391a565b60405180910390a2505050505061164c612bca565b50565b5f5f85148061165d57505f83145b8061166d5750600b805490508410155b1561167a575f9050611819565b5f83856116879190613711565b9050600b805490508111156116af57600b8054905090508481116116ae575f915050611819565b5b5f83036116ba574292505b5f8190505f5f90505f8790505b8281101561181157600b80549050811015611811575f600b82815481106116f1576116f061367c565b5b905f5260205f2090600302016040518060600160405290815f82015481526020016001820154815260200160028201548152505090505f61173183612aae565b90505f612710828d61174391906137ac565b61174d919061381a565b90508a84036117f1575f835f015190505f846020015190505f82826117729190613649565b90505f838d116117825783611784565b8c5b90505f83905080821061179e575050505050505050611804565b5f82826117ab9190613649565b90505f84036117c257505050505050505050611804565b8381886117cf91906137ac565b6117d9919061381a565b8b6117e49190613711565b9a50505050505050611800565b80856117fd9190613711565b94505b5050505b80806001019150506116c7565b508093505050505b949350505050565b7f000000000000000000000000000000000000000000000000000000000000000081565b60015f9054906101000a900473ffffffffffffffffffffffffffffffffffffffff1681565b60015f9054906101000a900473ffffffffffffffffffffffffffffffffffffffff1673ffffffffffffffffffffffffffffffffffffffff163373ffffffffffffffffffffffffffffffffffffffff16146118f9576040517f08c379a00000000000000000000000000000000000000000000000000000000081526004016118f09061345e565b60405180910390fd5b61271081111561193e576040517f08c379a000000000000000000000000000000000000000000000000000000000815260040161193590613596565b60405180910390fd5b806002819055507f71ca8c1a2bc00717637fb3e9d048da574b351106cfcf0832e2dfe20f4e633dcf816040516119749190612cd1565b60405180910390a150565b5f600380549050905090565b600d602052805f5260405f205f915090505481565b600381815481106119af575f80fd5b905f5260205f20015f915054906101000a900473ffffffffffffffffffffffffffffffffffffffff1681565b60015f9054906101000a900473ffffffffffffffffffffffffffffffffffffffff1673ffffffffffffffffffffffffffffffffffffffff163373ffffffffffffffffffffffffffffffffffffffff1614611a6a576040517f08c379a0000000000000000000000000000000000000000000000000000000008152600401611a619061345e565b60405180910390fd5b5f600b8054905011611ab1576040517f08c379a0000000000000000000000000000000000000000000000000000000008152600401611aa890613bce565b60405180910390fd5b42600b6001600b80549050611ac69190613649565b81548110611ad757611ad661367c565b5b905f5260205f2090600302015f015411611b26576040517f08c379a0000000000000000000000000000000000000000000000000000000008152600401611b1d906135fe565b60405180910390fd5b600b805480611b3857611b37613bec565b5b600190038181905f5260205f2090600302015f5f82015f9055600182015f9055600282015f9055505090557fd84ba012185e6b11c267bbf53304405446699fded2a2a85c6c6523d2cd3fd790600b80549050604051611b979190612cd1565b60405180910390a1565b60078181548110611bb0575f80fd5b905f5260205f2090600802015f91509050805f015f9054906101000a900473ffffffffffffffffffffffffffffffffffffffff1690806001015490806002015490806003015490806004015490806005015490806006015490806007015f9054906101000a900460ff16905088565b611c27612aef565b600f54821015611c6c576040517f08c379a0000000000000000000000000000000000000000000000000000000008152600401611c6390613c63565b60405180910390fd5b600e54811015611cb1576040517f08c379a0000000000000000000000000000000000000000000000000000000008152600401611ca890613ccb565b60405180910390fd5b5f600b8054905011611cf8576040517f08c379a0000000000000000000000000000000000000000000000000000000008152600401611cef90613d33565b60405180910390fd5b5f611d01612b33565b9050600b805490508110611d4a576040517f08c379a0000000000000000000000000000000000000000000000000000000008152600401611d4190613d9b565b60405180910390fd5b5f8282611d579190613711565b9050600b80549050811115611da1576040517f08c379a0000000000000000000000000000000000000000000000000000000008152600401611d9890613e29565b60405180910390fd5b5f3390507f000000000000000000000000000000000000000000000000000000000000000073ffffffffffffffffffffffffffffffffffffffff166323b872dd8230886040518463ffffffff1660e01b8152600401611e0293929190613e47565b6020604051808303815f875af1158015611e1e573d5f5f3e3d5ffd5b505050506040513d601f19601f82011682018060405250810190611e429190613af1565b611e81576040517f08c379a0000000000000000000000000000000000000000000000000000000008152600401611e7890613b66565b60405180910390fd5b60045f8273ffffffffffffffffffffffffffffffffffffffff1673ffffffffffffffffffffffffffffffffffffffff1681526020019081526020015f205f9054906101000a900460ff16611f8557600160045f8373ffffffffffffffffffffffffffffffffffffffff1673ffffffffffffffffffffffffffffffffffffffff1681526020019081526020015f205f6101000a81548160ff021916908315150217905550600381908060018154018082558091505060019003905f5260205f20015f9091909190916101000a81548173ffffffffffffffffffffffffffffffffffffffff021916908373ffffffffffffffffffffffffffffffffffffffff1602179055505b60076040518061010001604052808373ffffffffffffffffffffffffffffffffffffffff1681526020018781526020018581526020014281526020015f815260200184815260200185815260200160011515815250908060018154018082558091505060019003905f5260205f2090600802015f909190919091505f820151815f015f6101000a81548173ffffffffffffffffffffffffffffffffffffffff021916908373ffffffffffffffffffffffffffffffffffffffff1602179055506020820151816001015560408201518160020155606082015181600301556080820151816004015560a0820151816005015560c0820151816006015560e0820151816007015f6101000a81548160ff02191690831515021790555050505f60016007805490506120b49190613649565b905060055f8373ffffffffffffffffffffffffffffffffffffffff1673ffffffffffffffffffffffffffffffffffffffff1681526020019081526020015f2081908060018154018082558091505060019003905f5260205f20015f9091909190915055836006819055508560095f82825461212f9190613711565b9250508190555060085f81548092919061214890613e7c565b91905055508173ffffffffffffffffffffffffffffffffffffffff167f554f20505671494900b631b0e443e9e7a59743ec9889b05e28d8ac9ea158266b828888876040516121999493929190613ec3565b60405180910390a2505050506121ad612bca565b5050565b60015f9054906101000a900473ffffffffffffffffffffffffffffffffffffffff1673ffffffffffffffffffffffffffffffffffffffff163373ffffffffffffffffffffffffffffffffffffffff1614612240576040517f08c379a00000000000000000000000000000000000000000000000000000000081526004016122379061345e565b60405180910390fd5b7f000000000000000000000000000000000000000000000000000000000000000073ffffffffffffffffffffffffffffffffffffffff168273ffffffffffffffffffffffffffffffffffffffff16036122ce576040517f08c379a00000000000000000000000000000000000000000000000000000000081526004016122c590613f50565b60405180910390fd5b8173ffffffffffffffffffffffffffffffffffffffff1663a9059cbb60015f9054906101000a900473ffffffffffffffffffffffffffffffffffffffff16836040518363ffffffff1660e01b815260040161232a929190613aa0565b6020604051808303815f875af1158015612346573d5f5f3e3d5ffd5b505050506040513d601f19601f8201168201806040525081019061236a9190613af1565b6123a9576040517f08c379a00000000000000000000000000000000000000000000000000000000081526004016123a090613fb8565b60405180910390fd5b5050565b6123b5612aef565b5f600782815481106123ca576123c961367c565b5b905f5260205f2090600802019050806007015f9054906101000a900460ff16612428576040517f08c379a000000000000000000000000000000000000000000000000000000000815260040161241f9061398b565b60405180910390fd5b3373ffffffffffffffffffffffffffffffffffffffff16815f015f9054906101000a900473ffffffffffffffffffffffffffffffffffffffff1673ffffffffffffffffffffffffffffffffffffffff16146124b8576040517f08c379a00000000000000000000000000000000000000000000000000000000081526004016124af906139f3565b60405180910390fd5b5f6124c283610db5565b90505f8111612506576040517f08c379a00000000000000000000000000000000000000000000000000000000081526004016124fd90614020565b60405180910390fd5b5f61251583600601545f612a4a565b90508083600601819055507f000000000000000000000000000000000000000000000000000000000000000073ffffffffffffffffffffffffffffffffffffffff1663a9059cbb33846040518363ffffffff1660e01b815260040161257b929190613aa0565b6020604051808303815f875af1158015612597573d5f5f3e3d5ffd5b505050506040513d601f19601f820116820180604052508101906125bb9190613af1565b6125fa576040517f08c379a00000000000000000000000000000000000000000000000000000000081526004016125f190613b66565b60405180910390fd5b612602612b33565b6006819055503373ffffffffffffffffffffffffffffffffffffffff167ffa73d3ab3a92ed3f2b694757d8e4b2f3c293654b11b9c79111f8971f861b22b2858460405161265092919061391a565b60405180910390a2505050612663612bca565b50565b5f5f84148061267457505f83145b15612681575f905061282c565b5f820361268c574291505b5f61269683612bd3565b9050600b8054905081106126ad575f91505061282c565b5f84826126ba9190613711565b9050600b805490508111156126d257600b8054905090505b8181116126e3575f9250505061282c565b5f5f90505f8390505b82811015612824575f600b82815481106127095761270861367c565b5b905f5260205f2090600302016040518060600160405290815f82015481526020016001820154815260200160028201548152505090505f61274983612aae565b90505f612710828c61275b91906137ac565b612765919061381a565b9050868403612804575f835f01518a1161278257835f0151612784565b895b90505f8460200151905080821061279f575050505050612817565b5f82826127ac9190613649565b90505f865f015187602001516127c29190613649565b90505f81036127d75750505050505050612817565b8082866127e491906137ac565b6127ee919061381a565b896127f99190613711565b985050505050612813565b80856128109190613711565b94505b5050505b80806001019150506126ec565b508093505050505b9392505050565b606060038054806020026020016040519081016040528092919081815260200182805480156128b457602002820191905f5260205f20905b815f9054906101000a900473ffffffffffffffffffffffffffffffffffffffff1673ffffffffffffffffffffffffffffffffffffffff168152602001906001019080831161286b575b5050505050905090565b60025481565b600e5481565b60095481565b818310612912576040517f08c379a00000000000000000000000000000000000000000000000000000000081526004016129099061352e565b60405180910390fd5b5f811461295f5761271081111561295e576040517f08c379a000000000000000000000000000000000000000000000000000000000815260040161295590613596565b60405180910390fd5b5b5f600b8054905011156129e457600b6001600b805490506129809190613649565b815481106129915761299061367c565b5b905f5260205f209060030201600101548310156129e3576040517f08c379a00000000000000000000000000000000000000000000000000000000081526004016129da906136f3565b60405180910390fd5b5b600b604051806060016040528085815260200184815260200183815250908060018154018082558091505060019003905f5260205f2090600302015f909190919091505f820151815f015560208201518160010155604082015181600201555050505050565b5f5f8203612a56574291505b5f8390505b600b8054905081108015612a92575082600b8281548110612a7f57612a7e61367c565b5b905f5260205f2090600302016001015411155b15612aa4578080600101915050612a5b565b8091505092915050565b5f5f600b8381548110612ac457612ac361367c565b5b905f5260205f2090600302016002015490505f8114612ae35780612ae7565b6002545b915050919050565b60025f5403612b2a576040517f3ee5aeb500000000000000000000000000000000000000000000000000000000815260040160405180910390fd5b60025f81905550565b5f5f4290505f60065490505b600b80549050811015612bbc57600b8181548110612b6057612b5f61367c565b5b905f5260205f2090600302015f01548210158015612ba05750600b8181548110612b8d57612b8c61367c565b5b905f5260205f2090600302016001015482105b15612baf578092505050612bc7565b8080600101915050612b3f565b50600b805490509150505b90565b60015f81905550565b5f5f5f90505b600b80549050811015612c5557600b8181548110612bfa57612bf961367c565b5b905f5260205f2090600302015f01548310158015612c3a5750600b8181548110612c2757612c2661367c565b5b905f5260205f2090600302016001015483105b15612c485780915050612c5f565b8080600101915050612bd9565b50600b8054905090505b919050565b6040518061010001604052805f73ffffffffffffffffffffffffffffffffffffffff1681526020015f81526020015f81526020015f81526020015f81526020015f81526020015f81526020015f151581525090565b5f819050919050565b612ccb81612cb9565b82525050565b5f602082019050612ce45f830184612cc2565b92915050565b5f5ffd5b5f5ffd5b612cfb81612cb9565b8114612d05575f5ffd5b50565b5f81359050612d1681612cf2565b92915050565b5f5f5f5f60808587031215612d3457612d33612cea565b5b5f612d4187828801612d08565b9450506020612d5287828801612d08565b9350506040612d6387828801612d08565b9250506060612d7487828801612d08565b91505092959194509250565b5f73ffffffffffffffffffffffffffffffffffffffff82169050919050565b5f612da982612d80565b9050919050565b612db981612d9f565b8114612dc3575f5ffd5b50565b5f81359050612dd481612db0565b92915050565b5f5f60408385031215612df057612def612cea565b5b5f612dfd85828601612dc6565b9250506020612e0e85828601612d08565b9150509250929050565b5f60208284031215612e2d57612e2c612cea565b5b5f612e3a84828501612d08565b91505092915050565b612e4c81612d9f565b82525050565b612e5b81612cb9565b82525050565b5f8115159050919050565b612e7581612e61565b82525050565b61010082015f820151612e905f850182612e43565b506020820151612ea36020850182612e52565b506040820151612eb66040850182612e52565b506060820151612ec96060850182612e52565b506080820151612edc6080850182612e52565b5060a0820151612eef60a0850182612e52565b5060c0820151612f0260c0850182612e52565b5060e0820151612f1560e0850182612e6c565b50505050565b5f61010082019050612f2f5f830184612e7b565b92915050565b5f606082019050612f485f830186612cc2565b612f556020830185612cc2565b612f626040830184612cc2565b949350505050565b5f5f5f60608486031215612f8157612f80612cea565b5b5f612f8e86828701612d08565b9350506020612f9f86828701612d08565b9250506040612fb086828701612d08565b9150509250925092565b5f60208284031215612fcf57612fce612cea565b5b5f612fdc84828501612dc6565b91505092915050565b5f81519050919050565b5f82825260208201905092915050565b5f819050602082019050919050565b5f6130198383612e52565b60208301905092915050565b5f602082019050919050565b5f61303b82612fe5565b6130458185612fef565b935061305083612fff565b805f5b83811015613080578151613067888261300e565b975061307283613025565b925050600181019050613053565b5085935050505092915050565b5f6020820190508181035f8301526130a58184613031565b905092915050565b5f5ffd5b5f5ffd5b5f5ffd5b5f5f83601f8401126130ce576130cd6130ad565b5b8235905067ffffffffffffffff8111156130eb576130ea6130b1565b5b602083019150836020820283011115613107576131066130b5565b5b9250929050565b5f5f5f5f5f5f6060878903121561312857613127612cea565b5b5f87013567ffffffffffffffff81111561314557613144612cee565b5b61315189828a016130b9565b9650965050602087013567ffffffffffffffff81111561317457613173612cee565b5b61318089828a016130b9565b9450945050604087013567ffffffffffffffff8111156131a3576131a2612cee565b5b6131af89828a016130b9565b92509250509295509295509295565b6131c781612e61565b82525050565b5f6020820190506131e05f8301846131be565b92915050565b5f819050919050565b5f6132096132046131ff84612d80565b6131e6565b612d80565b9050919050565b5f61321a826131ef565b9050919050565b5f61322b82613210565b9050919050565b61323b81613221565b82525050565b5f6020820190506132545f830184613232565b92915050565b61326381612d9f565b82525050565b5f60208201905061327c5f83018461325a565b92915050565b5f610100820190506132965f83018b61325a565b6132a3602083018a612cc2565b6132b06040830189612cc2565b6132bd6060830188612cc2565b6132ca6080830187612cc2565b6132d760a0830186612cc2565b6132e460c0830185612cc2565b6132f160e08301846131be565b9998505050505050505050565b5f5f6040838503121561331457613313612cea565b5b5f61332185828601612d08565b925050602061333285828601612d08565b9150509250929050565b5f81519050919050565b5f82825260208201905092915050565b5f819050602082019050919050565b5f6133708383612e43565b60208301905092915050565b5f602082019050919050565b5f6133928261333c565b61339c8185613346565b93506133a783613356565b805f5b838110156133d75781516133be8882613365565b97506133c98361337c565b9250506001810190506133aa565b5085935050505092915050565b5f6020820190508181035f8301526133fc8184613388565b905092915050565b5f82825260208201905092915050565b7f4f6e6c79206f776e6572000000000000000000000000000000000000000000005f82015250565b5f613448600a83613404565b915061345382613414565b602082019050919050565b5f6020820190508181035f8301526134758161343c565b9050919050565b7f496e646578204f4f4200000000000000000000000000000000000000000000005f82015250565b5f6134b0600983613404565b91506134bb8261347c565b602082019050919050565b5f6020820190508181035f8301526134dd816134a4565b9050919050565b7f496e76616c69642072616e6765000000000000000000000000000000000000005f82015250565b5f613518600d83613404565b9150613523826134e4565b602082019050919050565b5f6020820190508181035f8301526135458161350c565b9050919050565b7f52617465203e20313030250000000000000000000000000000000000000000005f82015250565b5f613580600b83613404565b915061358b8261354c565b602082019050919050565b5f6020820190508181035f8301526135ad81613574565b9050919050565b7f53746172746564000000000000000000000000000000000000000000000000005f82015250565b5f6135e8600783613404565b91506135f3826135b4565b602082019050919050565b5f6020820190508181035f830152613615816135dc565b9050919050565b7f4e487b71000000000000000000000000000000000000000000000000000000005f52601160045260245ffd5b5f61365382612cb9565b915061365e83612cb9565b92508282039050818111156136765761367561361c565b5b92915050565b7f4e487b71000000000000000000000000000000000000000000000000000000005f52603260045260245ffd5b7f53657100000000000000000000000000000000000000000000000000000000005f82015250565b5f6136dd600383613404565b91506136e8826136a9565b602082019050919050565b5f6020820190508181035f83015261370a816136d1565b9050919050565b5f61371b82612cb9565b915061372683612cb9565b925082820190508082111561373e5761373d61361c565b5b92915050565b7f4f7665726c6170000000000000000000000000000000000000000000000000005f82015250565b5f613778600783613404565b915061378382613744565b602082019050919050565b5f6020820190508181035f8301526137a58161376c565b9050919050565b5f6137b682612cb9565b91506137c183612cb9565b92508282026137cf81612cb9565b915082820484148315176137e6576137e561361c565b5b5092915050565b7f4e487b71000000000000000000000000000000000000000000000000000000005f52601260045260245ffd5b5f61382482612cb9565b915061382f83612cb9565b92508261383f5761383e6137ed565b5b828204905092915050565b7f4c656e677468206d69736d6174636800000000000000000000000000000000005f82015250565b5f61387e600f83613404565b91506138898261384a565b602082019050919050565b5f6020820190508181035f8301526138ab81613872565b9050919050565b7f456d7074790000000000000000000000000000000000000000000000000000005f82015250565b5f6138e6600583613404565b91506138f1826138b2565b602082019050919050565b5f6020820190508181035f830152613913816138da565b9050919050565b5f60408201905061392d5f830185612cc2565b61393a6020830184612cc2565b9392505050565b7f496e6163746976650000000000000000000000000000000000000000000000005f82015250565b5f613975600883613404565b915061398082613941565b602082019050919050565b5f6020820190508181035f8301526139a281613969565b9050919050565b7f4e6f74206f776e657200000000000000000000000000000000000000000000005f82015250565b5f6139dd600983613404565b91506139e8826139a9565b602082019050919050565b5f6020820190508181035f830152613a0a816139d1565b9050919050565b7f4c6f636b656400000000000000000000000000000000000000000000000000005f82015250565b5f613a45600683613404565b9150613a5082613a11565b602082019050919050565b5f6020820190508181035f830152613a7281613a39565b9050919050565b5f613a8382612cb9565b91505f8203613a9557613a9461361c565b5b600182039050919050565b5f604082019050613ab35f83018561325a565b613ac06020830184612cc2565b9392505050565b613ad081612e61565b8114613ada575f5ffd5b50565b5f81519050613aeb81613ac7565b92915050565b5f60208284031215613b0657613b05612cea565b5b5f613b1384828501613add565b91505092915050565b7f5472616e73666572206661696c656400000000000000000000000000000000005f82015250565b5f613b50600f83613404565b9150613b5b82613b1c565b602082019050919050565b5f6020820190508181035f830152613b7d81613b44565b9050919050565b7f4e6f6e65000000000000000000000000000000000000000000000000000000005f82015250565b5f613bb8600483613404565b9150613bc382613b84565b602082019050919050565b5f6020820190508181035f830152613be581613bac565b9050919050565b7f4e487b71000000000000000000000000000000000000000000000000000000005f52603160045260245ffd5b7f4d696e20616d6f756e74000000000000000000000000000000000000000000005f82015250565b5f613c4d600a83613404565b9150613c5882613c19565b602082019050919050565b5f6020820190508181035f830152613c7a81613c41565b9050919050565b7f4c6f636b206d75737420626520677265616572000000000000000000000000005f82015250565b5f613cb5601383613404565b9150613cc082613c81565b602082019050919050565b5f6020820190508181035f830152613ce281613ca9565b9050919050565b7f4e6f206d6f6e74687300000000000000000000000000000000000000000000005f82015250565b5f613d1d600983613404565b9150613d2882613ce9565b602082019050919050565b5f6020820190508181035f830152613d4a81613d11565b9050919050565b7f54696d65206e6f7420636f7665726564000000000000000000000000000000005f82015250565b5f613d85601083613404565b9150613d9082613d51565b602082019050919050565b5f6020820190508181035f830152613db281613d79565b9050919050565b7f4c6f636b20706572696f64206578636565647320636f6e66696775726564206d5f8201527f6f6e746873000000000000000000000000000000000000000000000000000000602082015250565b5f613e13602583613404565b9150613e1e82613db9565b604082019050919050565b5f6020820190508181035f830152613e4081613e07565b9050919050565b5f606082019050613e5a5f83018661325a565b613e67602083018561325a565b613e746040830184612cc2565b949350505050565b5f613e8682612cb9565b91507fffffffffffffffffffffffffffffffffffffffffffffffffffffffffffffffff8203613eb857613eb761361c565b5b600182019050919050565b5f608082019050613ed65f830187612cc2565b613ee36020830186612cc2565b613ef06040830185612cc2565b613efd6060830184612cc2565b95945050505050565b7f43616e6e6f74207265636f766572207374616b696e6720746f6b656e000000005f82015250565b5f613f3a601c83613404565b9150613f4582613f06565b602082019050919050565b5f6020820190508181035f830152613f6781613f2e565b9050919050565b7f5265636f76657279206661696c656400000000000000000000000000000000005f82015250565b5f613fa2600f83613404565b9150613fad82613f6e565b602082019050919050565b5f6020820190508181035f830152613fcf81613f96565b9050919050565b7f4e6f2072657761726473000000000000000000000000000000000000000000005f82015250565b5f61400a600a83613404565b915061401582613fd6565b602082019050919050565b5f6020820190508181035f83015261403781613ffe565b905091905056fea2646970667358221220b2e5b5108c6620296a5c072b1a80ea74b8cb9308f1e7b05a73d3d38d3b12e41964736f6c634300081e0033",
					"opcodes": "PUSH1 0xA0 PUSH1 0x40 MSTORE PUSH0 PUSH1 0x6 SSTORE PUSH1 0x1 PUSH1 0xE SSTORE PUSH8 0xDE0B6B3A7640000 PUSH1 0xF SSTORE CALLVALUE DUP1 ISZERO PUSH2 0x24 JUMPI PUSH0 PUSH0 REVERT JUMPDEST POP PUSH1 0x40 MLOAD PUSH2 0x43D9 CODESIZE SUB DUP1 PUSH2 0x43D9 DUP4 CODECOPY DUP2 DUP2 ADD PUSH1 0x40 MSTORE DUP2 ADD SWAP1 PUSH2 0x46 SWAP2 SWAP1 PUSH2 0x213 JUMP JUMPDEST PUSH1 0x1 PUSH0 DUP2 SWAP1 SSTORE POP PUSH0 PUSH20 0xFFFFFFFFFFFFFFFFFFFFFFFFFFFFFFFFFFFFFFFF AND DUP3 PUSH20 0xFFFFFFFFFFFFFFFFFFFFFFFFFFFFFFFFFFFFFFFF AND SUB PUSH2 0xBB JUMPI PUSH1 0x40 MLOAD PUSH32 0x8C379A000000000000000000000000000000000000000000000000000000000 DUP2 MSTORE PUSH1 0x4 ADD PUSH2 0xB2 SWAP1 PUSH2 0x2AB JUMP JUMPDEST PUSH1 0x40 MLOAD DUP1 SWAP2 SUB SWAP1 REVERT JUMPDEST PUSH2 0x2710 DUP2 GT ISZERO PUSH2 0x100 JUMPI PUSH1 0x40 MLOAD PUSH32 0x8C379A000000000000000000000000000000000000000000000000000000000 DUP2 MSTORE PUSH1 0x4 ADD PUSH2 0xF7 SWAP1 PUSH2 0x313 JUMP JUMPDEST PUSH1 0x40 MLOAD DUP1 SWAP2 SUB SWAP1 REVERT JUMPDEST CALLER PUSH1 0x1 PUSH0 PUSH2 0x100 EXP DUP2 SLOAD DUP2 PUSH20 0xFFFFFFFFFFFFFFFFFFFFFFFFFFFFFFFFFFFFFFFF MUL NOT AND SWAP1 DUP4 PUSH20 0xFFFFFFFFFFFFFFFFFFFFFFFFFFFFFFFFFFFFFFFF AND MUL OR SWAP1 SSTORE POP DUP2 PUSH20 0xFFFFFFFFFFFFFFFFFFFFFFFFFFFFFFFFFFFFFFFF AND PUSH1 0x80 DUP2 PUSH20 0xFFFFFFFFFFFFFFFFFFFFFFFFFFFFFFFFFFFFFFFF AND DUP2 MSTORE POP POP DUP1 PUSH1 0x2 DUP2 SWAP1 SSTORE POP POP POP PUSH2 0x331 JUMP JUMPDEST PUSH0 PUSH0 REVERT JUMPDEST PUSH0 PUSH20 0xFFFFFFFFFFFFFFFFFFFFFFFFFFFFFFFFFFFFFFFF DUP3 AND SWAP1 POP SWAP2 SWAP1 POP JUMP JUMPDEST PUSH0 PUSH2 0x1AF DUP3 PUSH2 0x186 JUMP JUMPDEST SWAP1 POP SWAP2 SWAP1 POP JUMP JUMPDEST PUSH2 0x1BF DUP2 PUSH2 0x1A5 JUMP JUMPDEST DUP2 EQ PUSH2 0x1C9 JUMPI PUSH0 PUSH0 REVERT JUMPDEST POP JUMP JUMPDEST PUSH0 DUP2 MLOAD SWAP1 POP PUSH2 0x1DA DUP2 PUSH2 0x1B6 JUMP JUMPDEST SWAP3 SWAP2 POP POP JUMP JUMPDEST PUSH0 DUP2 SWAP1 POP SWAP2 SWAP1 POP JUMP JUMPDEST PUSH2 0x1F2 DUP2 PUSH2 0x1E0 JUMP JUMPDEST DUP2 EQ PUSH2 0x1FC JUMPI PUSH0 PUSH0 REVERT JUMPDEST POP JUMP JUMPDEST PUSH0 DUP2 MLOAD SWAP1 POP PUSH2 0x20D DUP2 PUSH2 0x1E9 JUMP JUMPDEST SWAP3 SWAP2 POP POP JUMP JUMPDEST PUSH0 PUSH0 PUSH1 0x40 DUP4 DUP6 SUB SLT ISZERO PUSH2 0x229 JUMPI PUSH2 0x228 PUSH2 0x182 JUMP JUMPDEST JUMPDEST PUSH0 PUSH2 0x236 DUP6 DUP3 DUP7 ADD PUSH2 0x1CC JUMP JUMPDEST SWAP3 POP POP PUSH1 0x20 PUSH2 0x247 DUP6 DUP3 DUP7 ADD PUSH2 0x1FF JUMP JUMPDEST SWAP2 POP POP SWAP3 POP SWAP3 SWAP1 POP JUMP JUMPDEST PUSH0 DUP3 DUP3 MSTORE PUSH1 0x20 DUP3 ADD SWAP1 POP SWAP3 SWAP2 POP POP JUMP JUMPDEST PUSH32 0x546F6B656E3A207A65726F000000000000000000000000000000000000000000 PUSH0 DUP3 ADD MSTORE POP JUMP JUMPDEST PUSH0 PUSH2 0x295 PUSH1 0xB DUP4 PUSH2 0x251 JUMP JUMPDEST SWAP2 POP PUSH2 0x2A0 DUP3 PUSH2 0x261 JUMP JUMPDEST PUSH1 0x20 DUP3 ADD SWAP1 POP SWAP2 SWAP1 POP JUMP JUMPDEST PUSH0 PUSH1 0x20 DUP3 ADD SWAP1 POP DUP2 DUP2 SUB PUSH0 DUP4 ADD MSTORE PUSH2 0x2C2 DUP2 PUSH2 0x289 JUMP JUMPDEST SWAP1 POP SWAP2 SWAP1 POP JUMP JUMPDEST PUSH32 0x52617465203E2031303025000000000000000000000000000000000000000000 PUSH0 DUP3 ADD MSTORE POP JUMP JUMPDEST PUSH0 PUSH2 0x2FD PUSH1 0xB DUP4 PUSH2 0x251 JUMP JUMPDEST SWAP2 POP PUSH2 0x308 DUP3 PUSH2 0x2C9 JUMP JUMPDEST PUSH1 0x20 DUP3 ADD SWAP1 POP SWAP2 SWAP1 POP JUMP JUMPDEST PUSH0 PUSH1 0x20 DUP3 ADD SWAP1 POP DUP2 DUP2 SUB PUSH0 DUP4 ADD MSTORE PUSH2 0x32A DUP2 PUSH2 0x2F1 JUMP JUMPDEST SWAP1 POP SWAP2 SWAP1 POP JUMP JUMPDEST PUSH1 0x80 MLOAD PUSH2 0x4074 PUSH2 0x365 PUSH0 CODECOPY PUSH0 DUP2 DUP2 PUSH2 0x1517 ADD MSTORE DUP2 DUP2 PUSH2 0x1823 ADD MSTORE DUP2 DUP2 PUSH2 0x1DA7 ADD MSTORE DUP2 DUP2 PUSH2 0x2242 ADD MSTORE PUSH2 0x2522 ADD MSTORE PUSH2 0x4074 PUSH0 RETURN INVALID PUSH1 0x80 PUSH1 0x40 MSTORE CALLVALUE DUP1 ISZERO PUSH2 0xF JUMPI PUSH0 PUSH0 REVERT JUMPDEST POP PUSH1 0x4 CALLDATASIZE LT PUSH2 0x20E JUMPI PUSH0 CALLDATALOAD PUSH1 0xE0 SHR DUP1 PUSH4 0x6241CA79 GT PUSH2 0x123 JUMPI DUP1 PUSH4 0xB02C43D0 GT PUSH2 0xAB JUMPI DUP1 PUSH4 0xDD4824A8 GT PUSH2 0x7A JUMPI DUP1 PUSH4 0xDD4824A8 EQ PUSH2 0x64F JUMPI DUP1 PUSH4 0xE2842D79 EQ PUSH2 0x67F JUMPI DUP1 PUSH4 0xF4F8C847 EQ PUSH2 0x69D JUMPI DUP1 PUSH4 0xF8799E1A EQ PUSH2 0x6BB JUMPI DUP1 PUSH4 0xFE4AB90A EQ PUSH2 0x6D9 JUMPI PUSH2 0x20E JUMP JUMPDEST DUP1 PUSH4 0xB02C43D0 EQ PUSH2 0x5C4 JUMPI DUP1 PUSH4 0xB18E71F2 EQ PUSH2 0x5FB JUMPI DUP1 PUSH4 0xB29A8140 EQ PUSH2 0x617 JUMPI DUP1 PUSH4 0xD3D83445 EQ PUSH2 0x633 JUMPI PUSH2 0x20E JUMP JUMPDEST DUP1 PUSH4 0x9521ABC6 GT PUSH2 0xF2 JUMPI DUP1 PUSH4 0x9521ABC6 EQ PUSH2 0x520 JUMPI DUP1 PUSH4 0x9BE572F6 EQ PUSH2 0x53C JUMPI DUP1 PUSH4 0x9D13FA01 EQ PUSH2 0x55A JUMPI DUP1 PUSH4 0xA2BDEDF4 EQ PUSH2 0x58A JUMPI DUP1 PUSH4 0xA9783CD7 EQ PUSH2 0x5BA JUMPI PUSH2 0x20E JUMP JUMPDEST DUP1 PUSH4 0x6241CA79 EQ PUSH2 0x498 JUMPI DUP1 PUSH4 0x7196D3E2 EQ PUSH2 0x4B4 JUMPI DUP1 PUSH4 0x72F702F3 EQ PUSH2 0x4E4 JUMPI DUP1 PUSH4 0x8DA5CB5B EQ PUSH2 0x502 JUMPI PUSH2 0x20E JUMP JUMPDEST DUP1 PUSH4 0x23B28A54 GT PUSH2 0x1A6 JUMPI DUP1 PUSH4 0x38716003 GT PUSH2 0x175 JUMPI DUP1 PUSH4 0x38716003 EQ PUSH2 0x3CE JUMPI DUP1 PUSH4 0x41AFF23E EQ PUSH2 0x3FE JUMPI DUP1 PUSH4 0x4209FFF1 EQ PUSH2 0x42E JUMPI DUP1 PUSH4 0x4B4D7AA8 EQ PUSH2 0x45E JUMPI DUP1 PUSH4 0x5301731F EQ PUSH2 0x47A JUMPI PUSH2 0x20E JUMP JUMPDEST DUP1 PUSH4 0x23B28A54 EQ PUSH2 0x336 JUMPI DUP1 PUSH4 0x2A5BF6D2 EQ PUSH2 0x352 JUMPI DUP1 PUSH4 0x2E0E3064 EQ PUSH2 0x382 JUMPI DUP1 PUSH4 0x2FFB3D2A EQ PUSH2 0x3B2 JUMPI PUSH2 0x20E JUMP JUMPDEST DUP1 PUSH4 0xF68AE40 GT PUSH2 0x1E2 JUMPI DUP1 PUSH4 0xF68AE40 EQ PUSH2 0x29A JUMPI DUP1 PUSH4 0x168A4822 EQ PUSH2 0x2B6 JUMPI DUP1 PUSH4 0x1BFC7761 EQ PUSH2 0x2D4 JUMPI DUP1 PUSH4 0x1D0205B8 EQ PUSH2 0x304 JUMPI PUSH2 0x20E JUMP JUMPDEST DUP1 PUSH3 0xD6386 EQ PUSH2 0x212 JUMPI DUP1 PUSH4 0x5A163B6 EQ PUSH2 0x230 JUMPI DUP1 PUSH4 0x8804275 EQ PUSH2 0x24C JUMPI DUP1 PUSH4 0x8F43333 EQ PUSH2 0x26A JUMPI JUMPDEST PUSH0 PUSH0 REVERT JUMPDEST PUSH2 0x21A PUSH2 0x6F7 JUMP JUMPDEST PUSH1 0x40 MLOAD PUSH2 0x227 SWAP2 SWAP1 PUSH2 0x2CD1 JUMP JUMPDEST PUSH1 0x40 MLOAD DUP1 SWAP2 SUB SWAP1 RETURN JUMPDEST PUSH2 0x24A PUSH1 0x4 DUP1 CALLDATASIZE SUB DUP2 ADD SWAP1 PUSH2 0x245 SWAP2 SWAP1 PUSH2 0x2D1C JUMP JUMPDEST PUSH2 0x6FD JUMP JUMPDEST STOP JUMPDEST PUSH2 0x254 PUSH2 0xA46 JUMP JUMPDEST PUSH1 0x40 MLOAD PUSH2 0x261 SWAP2 SWAP1 PUSH2 0x2CD1 JUMP JUMPDEST PUSH1 0x40 MLOAD DUP1 SWAP2 SUB SWAP1 RETURN JUMPDEST PUSH2 0x284 PUSH1 0x4 DUP1 CALLDATASIZE SUB DUP2 ADD SWAP1 PUSH2 0x27F SWAP2 SWAP1 PUSH2 0x2DDA JUMP JUMPDEST PUSH2 0xA4C JUMP JUMPDEST PUSH1 0x40 MLOAD PUSH2 0x291 SWAP2 SWAP1 PUSH2 0x2CD1 JUMP JUMPDEST PUSH1 0x40 MLOAD DUP1 SWAP2 SUB SWAP1 RETURN JUMPDEST PUSH2 0x2B4 PUSH1 0x4 DUP1 CALLDATASIZE SUB DUP2 ADD SWAP1 PUSH2 0x2AF SWAP2 SWAP1 PUSH2 0x2E18 JUMP JUMPDEST PUSH2 0xA77 JUMP JUMPDEST STOP JUMPDEST PUSH2 0x2BE PUSH2 0xB10 JUMP JUMPDEST PUSH1 0x40 MLOAD PUSH2 0x2CB SWAP2 SWAP1 PUSH2 0x2CD1 JUMP JUMPDEST PUSH1 0x40 MLOAD DUP1 SWAP2 SUB SWAP1 RETURN JUMPDEST PUSH2 0x2EE PUSH1 0x4 DUP1 CALLDATASIZE SUB DUP2 ADD SWAP1 PUSH2 0x2E9 SWAP2 SWAP1 PUSH2 0x2E18 JUMP JUMPDEST PUSH2 0xB1C JUMP JUMPDEST PUSH1 0x40 MLOAD PUSH2 0x2FB SWAP2 SWAP1 PUSH2 0x2F1B JUMP JUMPDEST PUSH1 0x40 MLOAD DUP1 SWAP2 SUB SWAP1 RETURN JUMPDEST PUSH2 0x31E PUSH1 0x4 DUP1 CALLDATASIZE SUB DUP2 ADD SWAP1 PUSH2 0x319 SWAP2 SWAP1 PUSH2 0x2E18 JUMP JUMPDEST PUSH2 0xC01 JUMP JUMPDEST PUSH1 0x40 MLOAD PUSH2 0x32D SWAP4 SWAP3 SWAP2 SWAP1 PUSH2 0x2F35 JUMP JUMPDEST PUSH1 0x40 MLOAD DUP1 SWAP2 SUB SWAP1 RETURN JUMPDEST PUSH2 0x350 PUSH1 0x4 DUP1 CALLDATASIZE SUB DUP2 ADD SWAP1 PUSH2 0x34B SWAP2 SWAP1 PUSH2 0x2F6A JUMP JUMPDEST PUSH2 0xC36 JUMP JUMPDEST STOP JUMPDEST PUSH2 0x36C PUSH1 0x4 DUP1 CALLDATASIZE SUB DUP2 ADD SWAP1 PUSH2 0x367 SWAP2 SWAP1 PUSH2 0x2FBA JUMP JUMPDEST PUSH2 0xD22 JUMP JUMPDEST PUSH1 0x40 MLOAD PUSH2 0x379 SWAP2 SWAP1 PUSH2 0x308D JUMP JUMPDEST PUSH1 0x40 MLOAD DUP1 SWAP2 SUB SWAP1 RETURN JUMPDEST PUSH2 0x39C PUSH1 0x4 DUP1 CALLDATASIZE SUB DUP2 ADD SWAP1 PUSH2 0x397 SWAP2 SWAP1 PUSH2 0x2E18 JUMP JUMPDEST PUSH2 0xDB5 JUMP JUMPDEST PUSH1 0x40 MLOAD PUSH2 0x3A9 SWAP2 SWAP1 PUSH2 0x2CD1 JUMP JUMPDEST PUSH1 0x40 MLOAD DUP1 SWAP2 SUB SWAP1 RETURN JUMPDEST PUSH2 0x3CC PUSH1 0x4 DUP1 CALLDATASIZE SUB DUP2 ADD SWAP1 PUSH2 0x3C7 SWAP2 SWAP1 PUSH2 0x310E JUMP JUMPDEST PUSH2 0x102C JUMP JUMPDEST STOP JUMPDEST PUSH2 0x3E8 PUSH1 0x4 DUP1 CALLDATASIZE SUB DUP2 ADD SWAP1 PUSH2 0x3E3 SWAP2 SWAP1 PUSH2 0x2E18 JUMP JUMPDEST PUSH2 0x1232 JUMP JUMPDEST PUSH1 0x40 MLOAD PUSH2 0x3F5 SWAP2 SWAP1 PUSH2 0x2CD1 JUMP JUMPDEST PUSH1 0x40 MLOAD DUP1 SWAP2 SUB SWAP1 RETURN JUMPDEST PUSH2 0x418 PUSH1 0x4 DUP1 CALLDATASIZE SUB DUP2 ADD SWAP1 PUSH2 0x413 SWAP2 SWAP1 PUSH2 0x2E18 JUMP JUMPDEST PUSH2 0x1247 JUMP JUMPDEST PUSH1 0x40 MLOAD PUSH2 0x425 SWAP2 SWAP1 PUSH2 0x2CD1 JUMP JUMPDEST PUSH1 0x40 MLOAD DUP1 SWAP2 SUB SWAP1 RETURN JUMPDEST PUSH2 0x448 PUSH1 0x4 DUP1 CALLDATASIZE SUB DUP2 ADD SWAP1 PUSH2 0x443 SWAP2 SWAP1 PUSH2 0x2FBA JUMP JUMPDEST PUSH2 0x125C JUMP JUMPDEST PUSH1 0x40 MLOAD PUSH2 0x455 SWAP2 SWAP1 PUSH2 0x31CD JUMP JUMPDEST PUSH1 0x40 MLOAD DUP1 SWAP2 SUB SWAP1 RETURN JUMPDEST PUSH2 0x478 PUSH1 0x4 DUP1 CALLDATASIZE SUB DUP2 ADD SWAP1 PUSH2 0x473 SWAP2 SWAP1 PUSH2 0x2E18 JUMP JUMPDEST PUSH2 0x1279 JUMP JUMPDEST STOP JUMPDEST PUSH2 0x482 PUSH2 0x1312 JUMP JUMPDEST PUSH1 0x40 MLOAD PUSH2 0x48F SWAP2 SWAP1 PUSH2 0x2CD1 JUMP JUMPDEST PUSH1 0x40 MLOAD DUP1 SWAP2 SUB SWAP1 RETURN JUMPDEST PUSH2 0x4B2 PUSH1 0x4 DUP1 CALLDATASIZE SUB DUP2 ADD SWAP1 PUSH2 0x4AD SWAP2 SWAP1 PUSH2 0x2E18 JUMP JUMPDEST PUSH2 0x1318 JUMP JUMPDEST STOP JUMPDEST PUSH2 0x4CE PUSH1 0x4 DUP1 CALLDATASIZE SUB DUP2 ADD SWAP1 PUSH2 0x4C9 SWAP2 SWAP1 PUSH2 0x2D1C JUMP JUMPDEST PUSH2 0x164F JUMP JUMPDEST PUSH1 0x40 MLOAD PUSH2 0x4DB SWAP2 SWAP1 PUSH2 0x2CD1 JUMP JUMPDEST PUSH1 0x40 MLOAD DUP1 SWAP2 SUB SWAP1 RETURN JUMPDEST PUSH2 0x4EC PUSH2 0x1821 JUMP JUMPDEST PUSH1 0x40 MLOAD PUSH2 0x4F9 SWAP2 SWAP1 PUSH2 0x3241 JUMP JUMPDEST PUSH1 0x40 MLOAD DUP1 SWAP2 SUB SWAP1 RETURN JUMPDEST PUSH2 0x50A PUSH2 0x1845 JUMP JUMPDEST PUSH1 0x40 MLOAD PUSH2 0x517 SWAP2 SWAP1 PUSH2 0x3269 JUMP JUMPDEST PUSH1 0x40 MLOAD DUP1 SWAP2 SUB SWAP1 RETURN JUMPDEST PUSH2 0x53A PUSH1 0x4 DUP1 CALLDATASIZE SUB DUP2 ADD SWAP1 PUSH2 0x535 SWAP2 SWAP1 PUSH2 0x2E18 JUMP JUMPDEST PUSH2 0x186A JUMP JUMPDEST STOP JUMPDEST PUSH2 0x544 PUSH2 0x197F JUMP JUMPDEST PUSH1 0x40 MLOAD PUSH2 0x551 SWAP2 SWAP1 PUSH2 0x2CD1 JUMP JUMPDEST PUSH1 0x40 MLOAD DUP1 SWAP2 SUB SWAP1 RETURN JUMPDEST PUSH2 0x574 PUSH1 0x4 DUP1 CALLDATASIZE SUB DUP2 ADD SWAP1 PUSH2 0x56F SWAP2 SWAP1 PUSH2 0x2E18 JUMP JUMPDEST PUSH2 0x198B JUMP JUMPDEST PUSH1 0x40 MLOAD PUSH2 0x581 SWAP2 SWAP1 PUSH2 0x2CD1 JUMP JUMPDEST PUSH1 0x40 MLOAD DUP1 SWAP2 SUB SWAP1 RETURN JUMPDEST PUSH2 0x5A4 PUSH1 0x4 DUP1 CALLDATASIZE SUB DUP2 ADD SWAP1 PUSH2 0x59F SWAP2 SWAP1 PUSH2 0x2E18 JUMP JUMPDEST PUSH2 0x19A0 JUMP JUMPDEST PUSH1 0x40 MLOAD PUSH2 0x5B1 SWAP2 SWAP1 PUSH2 0x3269 JUMP JUMPDEST PUSH1 0x40 MLOAD DUP1 SWAP2 SUB SWAP1 RETURN JUMPDEST PUSH2 0x5C2 PUSH2 0x19DB JUMP JUMPDEST STOP JUMPDEST PUSH2 0x5DE PUSH1 0x4 DUP1 CALLDATASIZE SUB DUP2 ADD SWAP1 PUSH2 0x5D9 SWAP2 SWAP1 PUSH2 0x2E18 JUMP JUMPDEST PUSH2 0x1BA1 JUMP JUMPDEST PUSH1 0x40 MLOAD PUSH2 0x5F2 SWAP9 SWAP8 SWAP7 SWAP6 SWAP5 SWAP4 SWAP3 SWAP2 SWAP1 PUSH2 0x3282 JUMP JUMPDEST PUSH1 0x40 MLOAD DUP1 SWAP2 SUB SWAP1 RETURN JUMPDEST PUSH2 0x615 PUSH1 0x4 DUP1 CALLDATASIZE SUB DUP2 ADD SWAP1 PUSH2 0x610 SWAP2 SWAP1 PUSH2 0x32FE JUMP JUMPDEST PUSH2 0x1C1F JUMP JUMPDEST STOP JUMPDEST PUSH2 0x631 PUSH1 0x4 DUP1 CALLDATASIZE SUB DUP2 ADD SWAP1 PUSH2 0x62C SWAP2 SWAP1 PUSH2 0x2DDA JUMP JUMPDEST PUSH2 0x21B1 JUMP JUMPDEST STOP JUMPDEST PUSH2 0x64D PUSH1 0x4 DUP1 CALLDATASIZE SUB DUP2 ADD SWAP1 PUSH2 0x648 SWAP2 SWAP1 PUSH2 0x2E18 JUMP JUMPDEST PUSH2 0x23AD JUMP JUMPDEST STOP JUMPDEST PUSH2 0x669 PUSH1 0x4 DUP1 CALLDATASIZE SUB DUP2 ADD SWAP1 PUSH2 0x664 SWAP2 SWAP1 PUSH2 0x2F6A JUMP JUMPDEST PUSH2 0x2666 JUMP JUMPDEST PUSH1 0x40 MLOAD PUSH2 0x676 SWAP2 SWAP1 PUSH2 0x2CD1 JUMP JUMPDEST PUSH1 0x40 MLOAD DUP1 SWAP2 SUB SWAP1 RETURN JUMPDEST PUSH2 0x687 PUSH2 0x2833 JUMP JUMPDEST PUSH1 0x40 MLOAD PUSH2 0x694 SWAP2 SWAP1 PUSH2 0x33E4 JUMP JUMPDEST PUSH1 0x40 MLOAD DUP1 SWAP2 SUB SWAP1 RETURN JUMPDEST PUSH2 0x6A5 PUSH2 0x28BE JUMP JUMPDEST PUSH1 0x40 MLOAD PUSH2 0x6B2 SWAP2 SWAP1 PUSH2 0x2CD1 JUMP JUMPDEST PUSH1 0x40 MLOAD DUP1 SWAP2 SUB SWAP1 RETURN JUMPDEST PUSH2 0x6C3 PUSH2 0x28C4 JUMP JUMPDEST PUSH1 0x40 MLOAD PUSH2 0x6D0 SWAP2 SWAP1 PUSH2 0x2CD1 JUMP JUMPDEST PUSH1 0x40 MLOAD DUP1 SWAP2 SUB SWAP1 RETURN JUMPDEST PUSH2 0x6E1 PUSH2 0x28CA JUMP JUMPDEST PUSH1 0x40 MLOAD PUSH2 0x6EE SWAP2 SWAP1 PUSH2 0x2CD1 JUMP JUMPDEST PUSH1 0x40 MLOAD DUP1 SWAP2 SUB SWAP1 RETURN JUMPDEST PUSH1 0x6 SLOAD DUP2 JUMP JUMPDEST PUSH1 0x1 PUSH0 SWAP1 SLOAD SWAP1 PUSH2 0x100 EXP SWAP1 DIV PUSH20 0xFFFFFFFFFFFFFFFFFFFFFFFFFFFFFFFFFFFFFFFF AND PUSH20 0xFFFFFFFFFFFFFFFFFFFFFFFFFFFFFFFFFFFFFFFF AND CALLER PUSH20 0xFFFFFFFFFFFFFFFFFFFFFFFFFFFFFFFFFFFFFFFF AND EQ PUSH2 0x78C JUMPI PUSH1 0x40 MLOAD PUSH32 0x8C379A000000000000000000000000000000000000000000000000000000000 DUP2 MSTORE PUSH1 0x4 ADD PUSH2 0x783 SWAP1 PUSH2 0x345E JUMP JUMPDEST PUSH1 0x40 MLOAD DUP1 SWAP2 SUB SWAP1 REVERT JUMPDEST PUSH1 0xB DUP1 SLOAD SWAP1 POP DUP5 LT PUSH2 0x7D3 JUMPI PUSH1 0x40 MLOAD PUSH32 0x8C379A000000000000000000000000000000000000000000000000000000000 DUP2 MSTORE PUSH1 0x4 ADD PUSH2 0x7CA SWAP1 PUSH2 0x34C6 JUMP JUMPDEST PUSH1 0x40 MLOAD DUP1 SWAP2 SUB SWAP1 REVERT JUMPDEST DUP2 DUP4 LT PUSH2 0x815 JUMPI PUSH1 0x40 MLOAD PUSH32 0x8C379A000000000000000000000000000000000000000000000000000000000 DUP2 MSTORE PUSH1 0x4 ADD PUSH2 0x80C SWAP1 PUSH2 0x352E JUMP JUMPDEST PUSH1 0x40 MLOAD DUP1 SWAP2 SUB SWAP1 REVERT JUMPDEST PUSH0 DUP2 EQ PUSH2 0x862 JUMPI PUSH2 0x2710 DUP2 GT ISZERO PUSH2 0x861 JUMPI PUSH1 0x40 MLOAD PUSH32 0x8C379A000000000000000000000000000000000000000000000000000000000 DUP2 MSTORE PUSH1 0x4 ADD PUSH2 0x858 SWAP1 PUSH2 0x3596 JUMP JUMPDEST PUSH1 0x40 MLOAD DUP1 SWAP2 SUB SWAP1 REVERT JUMPDEST JUMPDEST TIMESTAMP DUP4 GT PUSH2 0x8A4 JUMPI PUSH1 0x40 MLOAD PUSH32 0x8C379A000000000000000000000000000000000000000000000000000000000 DUP2 MSTORE PUSH1 0x4 ADD PUSH2 0x89B SWAP1 PUSH2 0x35FE JUMP JUMPDEST PUSH1 0x40 MLOAD DUP1 SWAP2 SUB SWAP1 REVERT JUMPDEST PUSH0 DUP5 GT ISZERO PUSH2 0x91F JUMPI PUSH1 0xB PUSH1 0x1 DUP6 PUSH2 0x8BB SWAP2 SWAP1 PUSH2 0x3649 JUMP JUMPDEST DUP2 SLOAD DUP2 LT PUSH2 0x8CC JUMPI PUSH2 0x8CB PUSH2 0x367C JUMP JUMPDEST JUMPDEST SWAP1 PUSH0 MSTORE PUSH1 0x20 PUSH0 KECCAK256 SWAP1 PUSH1 0x3 MUL ADD PUSH1 0x1 ADD SLOAD DUP4 LT ISZERO PUSH2 0x91E JUMPI PUSH1 0x40 MLOAD PUSH32 0x8C379A000000000000000000000000000000000000000000000000000000000 DUP2 MSTORE PUSH1 0x4 ADD PUSH2 0x915 SWAP1 PUSH2 0x36F3 JUMP JUMPDEST PUSH1 0x40 MLOAD DUP1 SWAP2 SUB SWAP1 REVERT JUMPDEST JUMPDEST PUSH1 0xB DUP1 SLOAD SWAP1 POP PUSH1 0x1 DUP6 PUSH2 0x932 SWAP2 SWAP1 PUSH2 0x3711 JUMP JUMPDEST LT ISZERO PUSH2 0x9AA JUMPI PUSH1 0xB PUSH1 0x1 DUP6 PUSH2 0x947 SWAP2 SWAP1 PUSH2 0x3711 JUMP JUMPDEST DUP2 SLOAD DUP2 LT PUSH2 0x958 JUMPI PUSH2 0x957 PUSH2 0x367C JUMP JUMPDEST JUMPDEST SWAP1 PUSH0 MSTORE PUSH1 0x20 PUSH0 KECCAK256 SWAP1 PUSH1 0x3 MUL ADD PUSH0 ADD SLOAD DUP3 GT ISZERO PUSH2 0x9A9 JUMPI PUSH1 0x40 MLOAD PUSH32 0x8C379A000000000000000000000000000000000000000000000000000000000 DUP2 MSTORE PUSH1 0x4 ADD PUSH2 0x9A0 SWAP1 PUSH2 0x378E JUMP JUMPDEST PUSH1 0x40 MLOAD DUP1 SWAP2 SUB SWAP1 REVERT JUMPDEST JUMPDEST PUSH1 0x40 MLOAD DUP1 PUSH1 0x60 ADD PUSH1 0x40 MSTORE DUP1 DUP5 DUP2 MSTORE PUSH1 0x20 ADD DUP4 DUP2 MSTORE PUSH1 0x20 ADD DUP3 DUP2 MSTORE POP PUSH1 0xB DUP6 DUP2 SLOAD DUP2 LT PUSH2 0x9D9 JUMPI PUSH2 0x9D8 PUSH2 0x367C JUMP JUMPDEST JUMPDEST SWAP1 PUSH0 MSTORE PUSH1 0x20 PUSH0 KECCAK256 SWAP1 PUSH1 0x3 MUL ADD PUSH0 DUP3 ADD MLOAD DUP2 PUSH0 ADD SSTORE PUSH1 0x20 DUP3 ADD MLOAD DUP2 PUSH1 0x1 ADD SSTORE PUSH1 0x40 DUP3 ADD MLOAD DUP2 PUSH1 0x2 ADD SSTORE SWAP1 POP POP DUP4 PUSH32 0x68F039AF08C3A62DAE4B7E4244543803DCE43C9C5A2AD9EF05FEA8366F4C8623 DUP5 DUP5 DUP5 PUSH1 0x40 MLOAD PUSH2 0xA38 SWAP4 SWAP3 SWAP2 SWAP1 PUSH2 0x2F35 JUMP JUMPDEST PUSH1 0x40 MLOAD DUP1 SWAP2 SUB SWAP1 LOG2 POP POP POP POP JUMP JUMPDEST PUSH1 0xF SLOAD DUP2 JUMP JUMPDEST PUSH1 0x5 PUSH1 0x20 MSTORE DUP2 PUSH0 MSTORE PUSH1 0x40 PUSH0 KECCAK256 DUP2 DUP2 SLOAD DUP2 LT PUSH2 0xA65 JUMPI PUSH0 DUP1 REVERT JUMPDEST SWAP1 PUSH0 MSTORE PUSH1 0x20 PUSH0 KECCAK256 ADD PUSH0 SWAP2 POP SWAP2 POP POP SLOAD DUP2 JUMP JUMPDEST PUSH1 0x1 PUSH0 SWAP1 SLOAD SWAP1 PUSH2 0x100 EXP SWAP1 DIV PUSH20 0xFFFFFFFFFFFFFFFFFFFFFFFFFFFFFFFFFFFFFFFF AND PUSH20 0xFFFFFFFFFFFFFFFFFFFFFFFFFFFFFFFFFFFFFFFF AND CALLER PUSH20 0xFFFFFFFFFFFFFFFFFFFFFFFFFFFFFFFFFFFFFFFF AND EQ PUSH2 0xB06 JUMPI PUSH1 0x40 MLOAD PUSH32 0x8C379A000000000000000000000000000000000000000000000000000000000 DUP2 MSTORE PUSH1 0x4 ADD PUSH2 0xAFD SWAP1 PUSH2 0x345E JUMP JUMPDEST PUSH1 0x40 MLOAD DUP1 SWAP2 SUB SWAP1 REVERT JUMPDEST DUP1 PUSH1 0xF DUP2 SWAP1 SSTORE POP POP JUMP JUMPDEST PUSH0 PUSH1 0x7 DUP1 SLOAD SWAP1 POP SWAP1 POP SWAP1 JUMP JUMPDEST PUSH2 0xB24 PUSH2 0x2C64 JUMP JUMPDEST PUSH1 0x7 DUP3 DUP2 SLOAD DUP2 LT PUSH2 0xB38 JUMPI PUSH2 0xB37 PUSH2 0x367C JUMP JUMPDEST JUMPDEST SWAP1 PUSH0 MSTORE PUSH1 0x20 PUSH0 KECCAK256 SWAP1 PUSH1 0x8 MUL ADD PUSH1 0x40 MLOAD DUP1 PUSH2 0x100 ADD PUSH1 0x40 MSTORE SWAP1 DUP2 PUSH0 DUP3 ADD PUSH0 SWAP1 SLOAD SWAP1 PUSH2 0x100 EXP SWAP1 DIV PUSH20 0xFFFFFFFFFFFFFFFFFFFFFFFFFFFFFFFFFFFFFFFF AND PUSH20 0xFFFFFFFFFFFFFFFFFFFFFFFFFFFFFFFFFFFFFFFF AND PUSH20 0xFFFFFFFFFFFFFFFFFFFFFFFFFFFFFFFFFFFFFFFF AND DUP2 MSTORE PUSH1 0x20 ADD PUSH1 0x1 DUP3 ADD SLOAD DUP2 MSTORE PUSH1 0x20 ADD PUSH1 0x2 DUP3 ADD SLOAD DUP2 MSTORE PUSH1 0x20 ADD PUSH1 0x3 DUP3 ADD SLOAD DUP2 MSTORE PUSH1 0x20 ADD PUSH1 0x4 DUP3 ADD SLOAD DUP2 MSTORE PUSH1 0x20 ADD PUSH1 0x5 DUP3 ADD SLOAD DUP2 MSTORE PUSH1 0x20 ADD PUSH1 0x6 DUP3 ADD SLOAD DUP2 MSTORE PUSH1 0x20 ADD PUSH1 0x7 DUP3 ADD PUSH0 SWAP1 SLOAD SWAP1 PUSH2 0x100 EXP SWAP1 DIV PUSH1 0xFF AND ISZERO ISZERO ISZERO ISZERO DUP2 MSTORE POP POP SWAP1 POP SWAP2 SWAP1 POP JUMP JUMPDEST PUSH1 0xB DUP2 DUP2 SLOAD DUP2 LT PUSH2 0xC10 JUMPI PUSH0 DUP1 REVERT JUMPDEST SWAP1 PUSH0 MSTORE PUSH1 0x20 PUSH0 KECCAK256 SWAP1 PUSH1 0x3 MUL ADD PUSH0 SWAP2 POP SWAP1 POP DUP1 PUSH0 ADD SLOAD SWAP1 DUP1 PUSH1 0x1 ADD SLOAD SWAP1 DUP1 PUSH1 0x2 ADD SLOAD SWAP1 POP DUP4 JUMP JUMPDEST PUSH1 0x1 PUSH0 SWAP1 SLOAD SWAP1 PUSH2 0x100 EXP SWAP1 DIV PUSH20 0xFFFFFFFFFFFFFFFFFFFFFFFFFFFFFFFFFFFFFFFF AND PUSH20 0xFFFFFFFFFFFFFFFFFFFFFFFFFFFFFFFFFFFFFFFF AND CALLER PUSH20 0xFFFFFFFFFFFFFFFFFFFFFFFFFFFFFFFFFFFFFFFF AND EQ PUSH2 0xCC5 JUMPI PUSH1 0x40 MLOAD PUSH32 0x8C379A000000000000000000000000000000000000000000000000000000000 DUP2 MSTORE PUSH1 0x4 ADD PUSH2 0xCBC SWAP1 PUSH2 0x345E JUMP JUMPDEST PUSH1 0x40 MLOAD DUP1 SWAP2 SUB SWAP1 REVERT JUMPDEST PUSH2 0xCD0 DUP4 DUP4 DUP4 PUSH2 0x28D0 JUMP JUMPDEST PUSH1 0x1 PUSH1 0xB DUP1 SLOAD SWAP1 POP PUSH2 0xCE2 SWAP2 SWAP1 PUSH2 0x3649 JUMP JUMPDEST PUSH32 0x901D51AF3F40466612C7BE89BA349F0B5AA321186BB4DE023367F1CA25ACDCED DUP5 DUP5 DUP5 PUSH1 0x40 MLOAD PUSH2 0xD15 SWAP4 SWAP3 SWAP2 SWAP1 PUSH2 0x2F35 JUMP JUMPDEST PUSH1 0x40 MLOAD DUP1 SWAP2 SUB SWAP1 LOG2 POP POP POP JUMP JUMPDEST PUSH1 0x60 PUSH1 0x5 PUSH0 DUP4 PUSH20 0xFFFFFFFFFFFFFFFFFFFFFFFFFFFFFFFFFFFFFFFF AND PUSH20 0xFFFFFFFFFFFFFFFFFFFFFFFFFFFFFFFFFFFFFFFF AND DUP2 MSTORE PUSH1 0x20 ADD SWAP1 DUP2 MSTORE PUSH1 0x20 ADD PUSH0 KECCAK256 DUP1 SLOAD DUP1 PUSH1 0x20 MUL PUSH1 0x20 ADD PUSH1 0x40 MLOAD SWAP1 DUP2 ADD PUSH1 0x40 MSTORE DUP1 SWAP3 SWAP2 SWAP1 DUP2 DUP2 MSTORE PUSH1 0x20 ADD DUP3 DUP1 SLOAD DUP1 ISZERO PUSH2 0xDA9 JUMPI PUSH1 0x20 MUL DUP3 ADD SWAP2 SWAP1 PUSH0 MSTORE PUSH1 0x20 PUSH0 KECCAK256 SWAP1 JUMPDEST DUP2 SLOAD DUP2 MSTORE PUSH1 0x20 ADD SWAP1 PUSH1 0x1 ADD SWAP1 DUP1 DUP4 GT PUSH2 0xD95 JUMPI JUMPDEST POP POP POP POP POP SWAP1 POP SWAP2 SWAP1 POP JUMP JUMPDEST PUSH0 PUSH0 PUSH1 0x7 DUP4 DUP2 SLOAD DUP2 LT PUSH2 0xDCB JUMPI PUSH2 0xDCA PUSH2 0x367C JUMP JUMPDEST JUMPDEST SWAP1 PUSH0 MSTORE PUSH1 0x20 PUSH0 KECCAK256 SWAP1 PUSH1 0x8 MUL ADD PUSH1 0x40 MLOAD DUP1 PUSH2 0x100 ADD PUSH1 0x40 MSTORE SWAP1 DUP2 PUSH0 DUP3 ADD PUSH0 SWAP1 SLOAD SWAP1 PUSH2 0x100 EXP SWAP1 DIV PUSH20 0xFFFFFFFFFFFFFFFFFFFFFFFFFFFFFFFFFFFFFFFF AND PUSH20 0xFFFFFFFFFFFFFFFFFFFFFFFFFFFFFFFFFFFFFFFF AND PUSH20 0xFFFFFFFFFFFFFFFFFFFFFFFFFFFFFFFFFFFFFFFF AND DUP2 MSTORE PUSH1 0x20 ADD PUSH1 0x1 DUP3 ADD SLOAD DUP2 MSTORE PUSH1 0x20 ADD PUSH1 0x2 DUP3 ADD SLOAD DUP2 MSTORE PUSH1 0x20 ADD PUSH1 0x3 DUP3 ADD SLOAD DUP2 MSTORE PUSH1 0x20 ADD PUSH1 0x4 DUP3 ADD SLOAD DUP2 MSTORE PUSH1 0x20 ADD PUSH1 0x5 DUP3 ADD SLOAD DUP2 MSTORE PUSH1 0x20 ADD PUSH1 0x6 DUP3 ADD SLOAD DUP2 MSTORE PUSH1 0x20 ADD PUSH1 0x7 DUP3 ADD PUSH0 SWAP1 SLOAD SWAP1 PUSH2 0x100 EXP SWAP1 DIV PUSH1 0xFF AND ISZERO ISZERO ISZERO ISZERO DUP2 MSTORE POP POP SWAP1 POP PUSH0 DUP2 PUSH1 0x20 ADD MLOAD EQ DUP1 PUSH2 0xEA3 JUMPI POP DUP1 PUSH1 0xE0 ADD MLOAD ISZERO JUMPDEST ISZERO PUSH2 0xEB1 JUMPI PUSH0 SWAP2 POP POP PUSH2 0x1027 JUMP JUMPDEST PUSH0 DUP2 PUSH1 0xC0 ADD MLOAD SWAP1 POP PUSH0 PUSH2 0xEC4 DUP3 PUSH0 PUSH2 0x2A4A JUMP JUMPDEST SWAP1 POP DUP2 DUP2 GT PUSH2 0xED8 JUMPI PUSH0 SWAP4 POP POP POP POP PUSH2 0x1027 JUMP JUMPDEST PUSH0 PUSH0 SWAP1 POP PUSH0 DUP5 PUSH1 0x20 ADD MLOAD SWAP1 POP PUSH0 DUP5 SWAP1 POP JUMPDEST DUP4 DUP2 LT ISZERO PUSH2 0x101D JUMPI PUSH0 PUSH1 0xB DUP3 DUP2 SLOAD DUP2 LT PUSH2 0xF06 JUMPI PUSH2 0xF05 PUSH2 0x367C JUMP JUMPDEST JUMPDEST SWAP1 PUSH0 MSTORE PUSH1 0x20 PUSH0 KECCAK256 SWAP1 PUSH1 0x3 MUL ADD PUSH1 0x40 MLOAD DUP1 PUSH1 0x60 ADD PUSH1 0x40 MSTORE SWAP1 DUP2 PUSH0 DUP3 ADD SLOAD DUP2 MSTORE PUSH1 0x20 ADD PUSH1 0x1 DUP3 ADD SLOAD DUP2 MSTORE PUSH1 0x20 ADD PUSH1 0x2 DUP3 ADD SLOAD DUP2 MSTORE POP POP SWAP1 POP PUSH0 PUSH2 0xF46 DUP4 PUSH2 0x2AAE JUMP JUMPDEST SWAP1 POP PUSH0 PUSH2 0x2710 DUP3 DUP7 PUSH2 0xF58 SWAP2 SWAP1 PUSH2 0x37AC JUMP JUMPDEST PUSH2 0xF62 SWAP2 SWAP1 PUSH2 0x381A JUMP JUMPDEST SWAP1 POP DUP9 PUSH1 0x40 ADD MLOAD DUP5 SUB PUSH2 0xFFD JUMPI PUSH0 DUP4 PUSH0 ADD MLOAD SWAP1 POP PUSH0 DUP5 PUSH1 0x20 ADD MLOAD SWAP1 POP PUSH0 DUP3 DUP3 PUSH2 0xF8B SWAP2 SWAP1 PUSH2 0x3649 JUMP JUMPDEST SWAP1 POP PUSH0 DUP4 DUP14 PUSH1 0x60 ADD MLOAD GT PUSH2 0xF9F JUMPI DUP4 PUSH2 0xFA5 JUMP JUMPDEST DUP13 PUSH1 0x60 ADD MLOAD JUMPDEST SWAP1 POP PUSH0 DUP4 SWAP1 POP DUP1 DUP3 LT PUSH2 0xFBF JUMPI POP POP POP POP POP POP POP POP PUSH2 0x1010 JUMP JUMPDEST PUSH0 DUP3 DUP3 PUSH2 0xFCC SWAP2 SWAP1 PUSH2 0x3649 JUMP JUMPDEST SWAP1 POP DUP4 DUP2 DUP9 PUSH2 0xFDB SWAP2 SWAP1 PUSH2 0x37AC JUMP JUMPDEST PUSH2 0xFE5 SWAP2 SWAP1 PUSH2 0x381A JUMP JUMPDEST DUP13 PUSH2 0xFF0 SWAP2 SWAP1 PUSH2 0x3711 JUMP JUMPDEST SWAP12 POP POP POP POP POP POP POP PUSH2 0x100C JUMP JUMPDEST DUP1 DUP7 PUSH2 0x1009 SWAP2 SWAP1 PUSH2 0x3711 JUMP JUMPDEST SWAP6 POP JUMPDEST POP POP POP JUMPDEST DUP1 DUP1 PUSH1 0x1 ADD SWAP2 POP POP PUSH2 0xEE9 JUMP JUMPDEST POP DUP2 SWAP6 POP POP POP POP POP POP JUMPDEST SWAP2 SWAP1 POP JUMP JUMPDEST PUSH1 0x1 PUSH0 SWAP1 SLOAD SWAP1 PUSH2 0x100 EXP SWAP1 DIV PUSH20 0xFFFFFFFFFFFFFFFFFFFFFFFFFFFFFFFFFFFFFFFF AND PUSH20 0xFFFFFFFFFFFFFFFFFFFFFFFFFFFFFFFFFFFFFFFF AND CALLER PUSH20 0xFFFFFFFFFFFFFFFFFFFFFFFFFFFFFFFFFFFFFFFF AND EQ PUSH2 0x10BB JUMPI PUSH1 0x40 MLOAD PUSH32 0x8C379A000000000000000000000000000000000000000000000000000000000 DUP2 MSTORE PUSH1 0x4 ADD PUSH2 0x10B2 SWAP1 PUSH2 0x345E JUMP JUMPDEST PUSH1 0x40 MLOAD DUP1 SWAP2 SUB SWAP1 REVERT JUMPDEST DUP4 DUP4 SWAP1 POP DUP7 DUP7 SWAP1 POP EQ DUP1 ISZERO PUSH2 0x10D5 JUMPI POP DUP2 DUP2 SWAP1 POP DUP7 DUP7 SWAP1 POP EQ JUMPDEST PUSH2 0x1114 JUMPI PUSH1 0x40 MLOAD PUSH32 0x8C379A000000000000000000000000000000000000000000000000000000000 DUP2 MSTORE PUSH1 0x4 ADD PUSH2 0x110B SWAP1 PUSH2 0x3894 JUMP JUMPDEST PUSH1 0x40 MLOAD DUP1 SWAP2 SUB SWAP1 REVERT JUMPDEST PUSH0 DUP7 DUP7 SWAP1 POP GT PUSH2 0x1159 JUMPI PUSH1 0x40 MLOAD PUSH32 0x8C379A000000000000000000000000000000000000000000000000000000000 DUP2 MSTORE PUSH1 0x4 ADD PUSH2 0x1150 SWAP1 PUSH2 0x38FC JUMP JUMPDEST PUSH1 0x40 MLOAD DUP1 SWAP2 SUB SWAP1 REVERT JUMPDEST PUSH0 PUSH0 SWAP1 POP JUMPDEST DUP7 DUP7 SWAP1 POP DUP2 LT ISZERO PUSH2 0x11CC JUMPI PUSH2 0x11BF DUP8 DUP8 DUP4 DUP2 DUP2 LT PUSH2 0x117F JUMPI PUSH2 0x117E PUSH2 0x367C JUMP JUMPDEST JUMPDEST SWAP1 POP PUSH1 0x20 MUL ADD CALLDATALOAD DUP7 DUP7 DUP5 DUP2 DUP2 LT PUSH2 0x1199 JUMPI PUSH2 0x1198 PUSH2 0x367C JUMP JUMPDEST JUMPDEST SWAP1 POP PUSH1 0x20 MUL ADD CALLDATALOAD DUP6 DUP6 DUP6 DUP2 DUP2 LT PUSH2 0x11B3 JUMPI PUSH2 0x11B2 PUSH2 0x367C JUMP JUMPDEST JUMPDEST SWAP1 POP PUSH1 0x20 MUL ADD CALLDATALOAD PUSH2 0x28D0 JUMP JUMPDEST DUP1 DUP1 PUSH1 0x1 ADD SWAP2 POP POP PUSH2 0x115E JUMP JUMPDEST POP PUSH32 0xAB080E234EBAB87937F1D48C107ECB8AB6361D9012A0670705E920B9CFFE1011 DUP7 DUP7 SWAP1 POP PUSH1 0xB DUP1 SLOAD SWAP1 POP PUSH2 0x1202 SWAP2 SWAP1 PUSH2 0x3649 JUMP JUMPDEST PUSH1 0x1 PUSH1 0xB DUP1 SLOAD SWAP1 POP PUSH2 0x1214 SWAP2 SWAP1 PUSH2 0x3649 JUMP JUMPDEST PUSH1 0x40 MLOAD PUSH2 0x1222 SWAP3 SWAP2 SWAP1 PUSH2 0x391A JUMP JUMPDEST PUSH1 0x40 MLOAD DUP1 SWAP2 SUB SWAP1 LOG1 POP POP POP POP POP POP JUMP JUMPDEST PUSH1 0xA PUSH1 0x20 MSTORE DUP1 PUSH0 MSTORE PUSH1 0x40 PUSH0 KECCAK256 PUSH0 SWAP2 POP SWAP1 POP SLOAD DUP2 JUMP JUMPDEST PUSH1 0xC PUSH1 0x20 MSTORE DUP1 PUSH0 MSTORE PUSH1 0x40 PUSH0 KECCAK256 PUSH0 SWAP2 POP SWAP1 POP SLOAD DUP2 JUMP JUMPDEST PUSH1 0x4 PUSH1 0x20 MSTORE DUP1 PUSH0 MSTORE PUSH1 0x40 PUSH0 KECCAK256 PUSH0 SWAP2 POP SLOAD SWAP1 PUSH2 0x100 EXP SWAP1 DIV PUSH1 0xFF AND DUP2 JUMP JUMPDEST PUSH1 0x1 PUSH0 SWAP1 SLOAD SWAP1 PUSH2 0x100 EXP SWAP1 DIV PUSH20 0xFFFFFFFFFFFFFFFFFFFFFFFFFFFFFFFFFFFFFFFF AND PUSH20 0xFFFFFFFFFFFFFFFFFFFFFFFFFFFFFFFFFFFFFFFF AND CALLER PUSH20 0xFFFFFFFFFFFFFFFFFFFFFFFFFFFFFFFFFFFFFFFF AND EQ PUSH2 0x1308 JUMPI PUSH1 0x40 MLOAD PUSH32 0x8C379A000000000000000000000000000000000000000000000000000000000 DUP2 MSTORE PUSH1 0x4 ADD PUSH2 0x12FF SWAP1 PUSH2 0x345E JUMP JUMPDEST PUSH1 0x40 MLOAD DUP1 SWAP2 SUB SWAP1 REVERT JUMPDEST DUP1 PUSH1 0xE DUP2 SWAP1 SSTORE POP POP JUMP JUMPDEST PUSH1 0x8 SLOAD DUP2 JUMP JUMPDEST PUSH2 0x1320 PUSH2 0x2AEF JUMP JUMPDEST PUSH0 PUSH1 0x7 DUP3 DUP2 SLOAD DUP2 LT PUSH2 0x1335 JUMPI PUSH2 0x1334 PUSH2 0x367C JUMP JUMPDEST JUMPDEST SWAP1 PUSH0 MSTORE PUSH1 0x20 PUSH0 KECCAK256 SWAP1 PUSH1 0x8 MUL ADD SWAP1 POP DUP1 PUSH1 0x7 ADD PUSH0 SWAP1 SLOAD SWAP1 PUSH2 0x100 EXP SWAP1 DIV PUSH1 0xFF AND PUSH2 0x1393 JUMPI PUSH1 0x40 MLOAD PUSH32 0x8C379A000000000000000000000000000000000000000000000000000000000 DUP2 MSTORE PUSH1 0x4 ADD PUSH2 0x138A SWAP1 PUSH2 0x398B JUMP JUMPDEST PUSH1 0x40 MLOAD DUP1 SWAP2 SUB SWAP1 REVERT JUMPDEST CALLER PUSH20 0xFFFFFFFFFFFFFFFFFFFFFFFFFFFFFFFFFFFFFFFF AND DUP2 PUSH0 ADD PUSH0 SWAP1 SLOAD SWAP1 PUSH2 0x100 EXP SWAP1 DIV PUSH20 0xFFFFFFFFFFFFFFFFFFFFFFFFFFFFFFFFFFFFFFFF AND PUSH20 0xFFFFFFFFFFFFFFFFFFFFFFFFFFFFFFFFFFFFFFFF AND EQ PUSH2 0x1423 JUMPI PUSH1 0x40 MLOAD PUSH32 0x8C379A000000000000000000000000000000000000000000000000000000000 DUP2 MSTORE PUSH1 0x4 ADD PUSH2 0x141A SWAP1 PUSH2 0x39F3 JUMP JUMPDEST PUSH1 0x40 MLOAD DUP1 SWAP2 SUB SWAP1 REVERT JUMPDEST PUSH0 PUSH2 0x142C PUSH2 0x2B33 JUMP JUMPDEST SWAP1 POP DUP2 PUSH1 0x5 ADD SLOAD DUP2 LT ISZERO PUSH2 0x1475 JUMPI PUSH1 0x40 MLOAD PUSH32 0x8C379A000000000000000000000000000000000000000000000000000000000 DUP2 MSTORE PUSH1 0x4 ADD PUSH2 0x146C SWAP1 PUSH2 0x3A5B JUMP JUMPDEST PUSH1 0x40 MLOAD DUP1 SWAP2 SUB SWAP1 REVERT JUMPDEST PUSH0 PUSH2 0x147F DUP5 PUSH2 0xDB5 JUMP JUMPDEST SWAP1 POP PUSH0 DUP2 DUP5 PUSH1 0x1 ADD SLOAD PUSH2 0x1492 SWAP2 SWAP1 PUSH2 0x3711 JUMP JUMPDEST SWAP1 POP DUP4 PUSH1 0x1 ADD SLOAD PUSH1 0x9 PUSH0 DUP3 DUP3 SLOAD PUSH2 0x14A9 SWAP2 SWAP1 PUSH2 0x3649 JUMP JUMPDEST SWAP3 POP POP DUP2 SWAP1 SSTORE POP PUSH0 DUP5 PUSH1 0x1 ADD DUP2 SWAP1 SSTORE POP PUSH0 DUP5 PUSH1 0x7 ADD PUSH0 PUSH2 0x100 EXP DUP2 SLOAD DUP2 PUSH1 0xFF MUL NOT AND SWAP1 DUP4 ISZERO ISZERO MUL OR SWAP1 SSTORE POP TIMESTAMP DUP5 PUSH1 0x4 ADD DUP2 SWAP1 SSTORE POP PUSH0 PUSH2 0x14EC DUP6 PUSH1 0x6 ADD SLOAD PUSH0 PUSH2 0x2A4A JUMP JUMPDEST SWAP1 POP DUP1 DUP6 PUSH1 0x6 ADD DUP2 SWAP1 SSTORE POP DUP4 PUSH1 0x6 DUP2 SWAP1 SSTORE POP PUSH1 0x8 PUSH0 DUP2 SLOAD DUP1 SWAP3 SWAP2 SWAP1 PUSH2 0x1510 SWAP1 PUSH2 0x3A79 JUMP JUMPDEST SWAP2 SWAP1 POP SSTORE POP PUSH32 0x0 PUSH20 0xFFFFFFFFFFFFFFFFFFFFFFFFFFFFFFFFFFFFFFFF AND PUSH4 0xA9059CBB CALLER DUP5 PUSH1 0x40 MLOAD DUP4 PUSH4 0xFFFFFFFF AND PUSH1 0xE0 SHL DUP2 MSTORE PUSH1 0x4 ADD PUSH2 0x1570 SWAP3 SWAP2 SWAP1 PUSH2 0x3AA0 JUMP JUMPDEST PUSH1 0x20 PUSH1 0x40 MLOAD DUP1 DUP4 SUB DUP2 PUSH0 DUP8 GAS CALL ISZERO DUP1 ISZERO PUSH2 0x158C JUMPI RETURNDATASIZE PUSH0 PUSH0 RETURNDATACOPY RETURNDATASIZE PUSH0 REVERT JUMPDEST POP POP POP POP PUSH1 0x40 MLOAD RETURNDATASIZE PUSH1 0x1F NOT PUSH1 0x1F DUP3 ADD AND DUP3 ADD DUP1 PUSH1 0x40 MSTORE POP DUP2 ADD SWAP1 PUSH2 0x15B0 SWAP2 SWAP1 PUSH2 0x3AF1 JUMP JUMPDEST PUSH2 0x15EF JUMPI PUSH1 0x40 MLOAD PUSH32 0x8C379A000000000000000000000000000000000000000000000000000000000 DUP2 MSTORE PUSH1 0x4 ADD PUSH2 0x15E6 SWAP1 PUSH2 0x3B66 JUMP JUMPDEST PUSH1 0x40 MLOAD DUP1 SWAP2 SUB SWAP1 REVERT JUMPDEST CALLER PUSH20 0xFFFFFFFFFFFFFFFFFFFFFFFFFFFFFFFFFFFFFFFF AND PUSH32 0x217EA3989B9D3112D2133A930216F444B7FBCAEAA4D5BC0220D099FDC928E71E DUP8 DUP5 PUSH1 0x40 MLOAD PUSH2 0x1637 SWAP3 SWAP2 SWAP1 PUSH2 0x391A JUMP JUMPDEST PUSH1 0x40 MLOAD DUP1 SWAP2 SUB SWAP1 LOG2 POP POP POP POP POP PUSH2 0x164C PUSH2 0x2BCA JUMP JUMPDEST POP JUMP JUMPDEST PUSH0 PUSH0 DUP6 EQ DUP1 PUSH2 0x165D JUMPI POP PUSH0 DUP4 EQ JUMPDEST DUP1 PUSH2 0x166D JUMPI POP PUSH1 0xB DUP1 SLOAD SWAP1 POP DUP5 LT ISZERO JUMPDEST ISZERO PUSH2 0x167A JUMPI PUSH0 SWAP1 POP PUSH2 0x1819 JUMP JUMPDEST PUSH0 DUP4 DUP6 PUSH2 0x1687 SWAP2 SWAP1 PUSH2 0x3711 JUMP JUMPDEST SWAP1 POP PUSH1 0xB DUP1 SLOAD SWAP1 POP DUP2 GT ISZERO PUSH2 0x16AF JUMPI PUSH1 0xB DUP1 SLOAD SWAP1 POP SWAP1 POP DUP5 DUP2 GT PUSH2 0x16AE JUMPI PUSH0 SWAP2 POP POP PUSH2 0x1819 JUMP JUMPDEST JUMPDEST PUSH0 DUP4 SUB PUSH2 0x16BA JUMPI TIMESTAMP SWAP3 POP JUMPDEST PUSH0 DUP2 SWAP1 POP PUSH0 PUSH0 SWAP1 POP PUSH0 DUP8 SWAP1 POP JUMPDEST DUP3 DUP2 LT ISZERO PUSH2 0x1811 JUMPI PUSH1 0xB DUP1 SLOAD SWAP1 POP DUP2 LT ISZERO PUSH2 0x1811 JUMPI PUSH0 PUSH1 0xB DUP3 DUP2 SLOAD DUP2 LT PUSH2 0x16F1 JUMPI PUSH2 0x16F0 PUSH2 0x367C JUMP JUMPDEST JUMPDEST SWAP1 PUSH0 MSTORE PUSH1 0x20 PUSH0 KECCAK256 SWAP1 PUSH1 0x3 MUL ADD PUSH1 0x40 MLOAD DUP1 PUSH1 0x60 ADD PUSH1 0x40 MSTORE SWAP1 DUP2 PUSH0 DUP3 ADD SLOAD DUP2 MSTORE PUSH1 0x20 ADD PUSH1 0x1 DUP3 ADD SLOAD DUP2 MSTORE PUSH1 0x20 ADD PUSH1 0x2 DUP3 ADD SLOAD DUP2 MSTORE POP POP SWAP1 POP PUSH0 PUSH2 0x1731 DUP4 PUSH2 0x2AAE JUMP JUMPDEST SWAP1 POP PUSH0 PUSH2 0x2710 DUP3 DUP14 PUSH2 0x1743 SWAP2 SWAP1 PUSH2 0x37AC JUMP JUMPDEST PUSH2 0x174D SWAP2 SWAP1 PUSH2 0x381A JUMP JUMPDEST SWAP1 POP DUP11 DUP5 SUB PUSH2 0x17F1 JUMPI PUSH0 DUP4 PUSH0 ADD MLOAD SWAP1 POP PUSH0 DUP5 PUSH1 0x20 ADD MLOAD SWAP1 POP PUSH0 DUP3 DUP3 PUSH2 0x1772 SWAP2 SWAP1 PUSH2 0x3649 JUMP JUMPDEST SWAP1 POP PUSH0 DUP4 DUP14 GT PUSH2 0x1782 JUMPI DUP4 PUSH2 0x1784 JUMP JUMPDEST DUP13 JUMPDEST SWAP1 POP PUSH0 DUP4 SWAP1 POP DUP1 DUP3 LT PUSH2 0x179E JUMPI POP POP POP POP POP POP POP POP PUSH2 0x1804 JUMP JUMPDEST PUSH0 DUP3 DUP3 PUSH2 0x17AB SWAP2 SWAP1 PUSH2 0x3649 JUMP JUMPDEST SWAP1 POP PUSH0 DUP5 SUB PUSH2 0x17C2 JUMPI POP POP POP POP POP POP POP POP POP PUSH2 0x1804 JUMP JUMPDEST DUP4 DUP2 DUP9 PUSH2 0x17CF SWAP2 SWAP1 PUSH2 0x37AC JUMP JUMPDEST PUSH2 0x17D9 SWAP2 SWAP1 PUSH2 0x381A JUMP JUMPDEST DUP12 PUSH2 0x17E4 SWAP2 SWAP1 PUSH2 0x3711 JUMP JUMPDEST SWAP11 POP POP POP POP POP POP POP PUSH2 0x1800 JUMP JUMPDEST DUP1 DUP6 PUSH2 0x17FD SWAP2 SWAP1 PUSH2 0x3711 JUMP JUMPDEST SWAP5 POP JUMPDEST POP POP POP JUMPDEST DUP1 DUP1 PUSH1 0x1 ADD SWAP2 POP POP PUSH2 0x16C7 JUMP JUMPDEST POP DUP1 SWAP4 POP POP POP POP JUMPDEST SWAP5 SWAP4 POP POP POP POP JUMP JUMPDEST PUSH32 0x0 DUP2 JUMP JUMPDEST PUSH1 0x1 PUSH0 SWAP1 SLOAD SWAP1 PUSH2 0x100 EXP SWAP1 DIV PUSH20 0xFFFFFFFFFFFFFFFFFFFFFFFFFFFFFFFFFFFFFFFF AND DUP2 JUMP JUMPDEST PUSH1 0x1 PUSH0 SWAP1 SLOAD SWAP1 PUSH2 0x100 EXP SWAP1 DIV PUSH20 0xFFFFFFFFFFFFFFFFFFFFFFFFFFFFFFFFFFFFFFFF AND PUSH20 0xFFFFFFFFFFFFFFFFFFFFFFFFFFFFFFFFFFFFFFFF AND CALLER PUSH20 0xFFFFFFFFFFFFFFFFFFFFFFFFFFFFFFFFFFFFFFFF AND EQ PUSH2 0x18F9 JUMPI PUSH1 0x40 MLOAD PUSH32 0x8C379A000000000000000000000000000000000000000000000000000000000 DUP2 MSTORE PUSH1 0x4 ADD PUSH2 0x18F0 SWAP1 PUSH2 0x345E JUMP JUMPDEST PUSH1 0x40 MLOAD DUP1 SWAP2 SUB SWAP1 REVERT JUMPDEST PUSH2 0x2710 DUP2 GT ISZERO PUSH2 0x193E JUMPI PUSH1 0x40 MLOAD PUSH32 0x8C379A000000000000000000000000000000000000000000000000000000000 DUP2 MSTORE PUSH1 0x4 ADD PUSH2 0x1935 SWAP1 PUSH2 0x3596 JUMP JUMPDEST PUSH1 0x40 MLOAD DUP1 SWAP2 SUB SWAP1 REVERT JUMPDEST DUP1 PUSH1 0x2 DUP2 SWAP1 SSTORE POP PUSH32 0x71CA8C1A2BC00717637FB3E9D048DA574B351106CFCF0832E2DFE20F4E633DCF DUP2 PUSH1 0x40 MLOAD PUSH2 0x1974 SWAP2 SWAP1 PUSH2 0x2CD1 JUMP JUMPDEST PUSH1 0x40 MLOAD DUP1 SWAP2 SUB SWAP1 LOG1 POP JUMP JUMPDEST PUSH0 PUSH1 0x3 DUP1 SLOAD SWAP1 POP SWAP1 POP SWAP1 JUMP JUMPDEST PUSH1 0xD PUSH1 0x20 MSTORE DUP1 PUSH0 MSTORE PUSH1 0x40 PUSH0 KECCAK256 PUSH0 SWAP2 POP SWAP1 POP SLOAD DUP2 JUMP JUMPDEST PUSH1 0x3 DUP2 DUP2 SLOAD DUP2 LT PUSH2 0x19AF JUMPI PUSH0 DUP1 REVERT JUMPDEST SWAP1 PUSH0 MSTORE PUSH1 0x20 PUSH0 KECCAK256 ADD PUSH0 SWAP2 POP SLOAD SWAP1 PUSH2 0x100 EXP SWAP1 DIV PUSH20 0xFFFFFFFFFFFFFFFFFFFFFFFFFFFFFFFFFFFFFFFF AND DUP2 JUMP JUMPDEST PUSH1 0x1 PUSH0 SWAP1 SLOAD SWAP1 PUSH2 0x100 EXP SWAP1 DIV PUSH20 0xFFFFFFFFFFFFFFFFFFFFFFFFFFFFFFFFFFFFFFFF AND PUSH20 0xFFFFFFFFFFFFFFFFFFFFFFFFFFFFFFFFFFFFFFFF AND CALLER PUSH20 0xFFFFFFFFFFFFFFFFFFFFFFFFFFFFFFFFFFFFFFFF AND EQ PUSH2 0x1A6A JUMPI PUSH1 0x40 MLOAD PUSH32 0x8C379A000000000000000000000000000000000000000000000000000000000 DUP2 MSTORE PUSH1 0x4 ADD PUSH2 0x1A61 SWAP1 PUSH2 0x345E JUMP JUMPDEST PUSH1 0x40 MLOAD DUP1 SWAP2 SUB SWAP1 REVERT JUMPDEST PUSH0 PUSH1 0xB DUP1 SLOAD SWAP1 POP GT PUSH2 0x1AB1 JUMPI PUSH1 0x40 MLOAD PUSH32 0x8C379A000000000000000000000000000000000000000000000000000000000 DUP2 MSTORE PUSH1 0x4 ADD PUSH2 0x1AA8 SWAP1 PUSH2 0x3BCE JUMP JUMPDEST PUSH1 0x40 MLOAD DUP1 SWAP2 SUB SWAP1 REVERT JUMPDEST TIMESTAMP PUSH1 0xB PUSH1 0x1 PUSH1 0xB DUP1 SLOAD SWAP1 POP PUSH2 0x1AC6 SWAP2 SWAP1 PUSH2 0x3649 JUMP JUMPDEST DUP2 SLOAD DUP2 LT PUSH2 0x1AD7 JUMPI PUSH2 0x1AD6 PUSH2 0x367C JUMP JUMPDEST JUMPDEST SWAP1 PUSH0 MSTORE PUSH1 0x20 PUSH0 KECCAK256 SWAP1 PUSH1 0x3 MUL ADD PUSH0 ADD SLOAD GT PUSH2 0x1B26 JUMPI PUSH1 0x40 MLOAD PUSH32 0x8C379A000000000000000000000000000000000000000000000000000000000 DUP2 MSTORE PUSH1 0x4 ADD PUSH2 0x1B1D SWAP1 PUSH2 0x35FE JUMP JUMPDEST PUSH1 0x40 MLOAD DUP1 SWAP2 SUB SWAP1 REVERT JUMPDEST PUSH1 0xB DUP1 SLOAD DUP1 PUSH2 0x1B38 JUMPI PUSH2 0x1B37 PUSH2 0x3BEC JUMP JUMPDEST JUMPDEST PUSH1 0x1 SWAP1 SUB DUP2 DUP2 SWAP1 PUSH0 MSTORE PUSH1 0x20 PUSH0 KECCAK256 SWAP1 PUSH1 0x3 MUL ADD PUSH0 PUSH0 DUP3 ADD PUSH0 SWAP1 SSTORE PUSH1 0x1 DUP3 ADD PUSH0 SWAP1 SSTORE PUSH1 0x2 DUP3 ADD PUSH0 SWAP1 SSTORE POP POP SWAP1 SSTORE PUSH32 0xD84BA012185E6B11C267BBF53304405446699FDED2A2A85C6C6523D2CD3FD790 PUSH1 0xB DUP1 SLOAD SWAP1 POP PUSH1 0x40 MLOAD PUSH2 0x1B97 SWAP2 SWAP1 PUSH2 0x2CD1 JUMP JUMPDEST PUSH1 0x40 MLOAD DUP1 SWAP2 SUB SWAP1 LOG1 JUMP JUMPDEST PUSH1 0x7 DUP2 DUP2 SLOAD DUP2 LT PUSH2 0x1BB0 JUMPI PUSH0 DUP1 REVERT JUMPDEST SWAP1 PUSH0 MSTORE PUSH1 0x20 PUSH0 KECCAK256 SWAP1 PUSH1 0x8 MUL ADD PUSH0 SWAP2 POP SWAP1 POP DUP1 PUSH0 ADD PUSH0 SWAP1 SLOAD SWAP1 PUSH2 0x100 EXP SWAP1 DIV PUSH20 0xFFFFFFFFFFFFFFFFFFFFFFFFFFFFFFFFFFFFFFFF AND SWAP1 DUP1 PUSH1 0x1 ADD SLOAD SWAP1 DUP1 PUSH1 0x2 ADD SLOAD SWAP1 DUP1 PUSH1 0x3 ADD SLOAD SWAP1 DUP1 PUSH1 0x4 ADD SLOAD SWAP1 DUP1 PUSH1 0x5 ADD SLOAD SWAP1 DUP1 PUSH1 0x6 ADD SLOAD SWAP1 DUP1 PUSH1 0x7 ADD PUSH0 SWAP1 SLOAD SWAP1 PUSH2 0x100 EXP SWAP1 DIV PUSH1 0xFF AND SWAP1 POP DUP9 JUMP JUMPDEST PUSH2 0x1C27 PUSH2 0x2AEF JUMP JUMPDEST PUSH1 0xF SLOAD DUP3 LT ISZERO PUSH2 0x1C6C JUMPI PUSH1 0x40 MLOAD PUSH32 0x8C379A000000000000000000000000000000000000000000000000000000000 DUP2 MSTORE PUSH1 0x4 ADD PUSH2 0x1C63 SWAP1 PUSH2 0x3C63 JUMP JUMPDEST PUSH1 0x40 MLOAD DUP1 SWAP2 SUB SWAP1 REVERT JUMPDEST PUSH1 0xE SLOAD DUP2 LT ISZERO PUSH2 0x1CB1 JUMPI PUSH1 0x40 MLOAD PUSH32 0x8C379A000000000000000000000000000000000000000000000000000000000 DUP2 MSTORE PUSH1 0x4 ADD PUSH2 0x1CA8 SWAP1 PUSH2 0x3CCB JUMP JUMPDEST PUSH1 0x40 MLOAD DUP1 SWAP2 SUB SWAP1 REVERT JUMPDEST PUSH0 PUSH1 0xB DUP1 SLOAD SWAP1 POP GT PUSH2 0x1CF8 JUMPI PUSH1 0x40 MLOAD PUSH32 0x8C379A000000000000000000000000000000000000000000000000000000000 DUP2 MSTORE PUSH1 0x4 ADD PUSH2 0x1CEF SWAP1 PUSH2 0x3D33 JUMP JUMPDEST PUSH1 0x40 MLOAD DUP1 SWAP2 SUB SWAP1 REVERT JUMPDEST PUSH0 PUSH2 0x1D01 PUSH2 0x2B33 JUMP JUMPDEST SWAP1 POP PUSH1 0xB DUP1 SLOAD SWAP1 POP DUP2 LT PUSH2 0x1D4A JUMPI PUSH1 0x40 MLOAD PUSH32 0x8C379A000000000000000000000000000000000000000000000000000000000 DUP2 MSTORE PUSH1 0x4 ADD PUSH2 0x1D41 SWAP1 PUSH2 0x3D9B JUMP JUMPDEST PUSH1 0x40 MLOAD DUP1 SWAP2 SUB SWAP1 REVERT JUMPDEST PUSH0 DUP3 DUP3 PUSH2 0x1D57 SWAP2 SWAP1 PUSH2 0x3711 JUMP JUMPDEST SWAP1 POP PUSH1 0xB DUP1 SLOAD SWAP1 POP DUP2 GT ISZERO PUSH2 0x1DA1 JUMPI PUSH1 0x40 MLOAD PUSH32 0x8C379A000000000000000000000000000000000000000000000000000000000 DUP2 MSTORE PUSH1 0x4 ADD PUSH2 0x1D98 SWAP1 PUSH2 0x3E29 JUMP JUMPDEST PUSH1 0x40 MLOAD DUP1 SWAP2 SUB SWAP1 REVERT JUMPDEST PUSH0 CALLER SWAP1 POP PUSH32 0x0 PUSH20 0xFFFFFFFFFFFFFFFFFFFFFFFFFFFFFFFFFFFFFFFF AND PUSH4 0x23B872DD DUP3 ADDRESS DUP9 PUSH1 0x40 MLOAD DUP5 PUSH4 0xFFFFFFFF AND PUSH1 0xE0 SHL DUP2 MSTORE PUSH1 0x4 ADD PUSH2 0x1E02 SWAP4 SWAP3 SWAP2 SWAP1 PUSH2 0x3E47 JUMP JUMPDEST PUSH1 0x20 PUSH1 0x40 MLOAD DUP1 DUP4 SUB DUP2 PUSH0 DUP8 GAS CALL ISZERO DUP1 ISZERO PUSH2 0x1E1E JUMPI RETURNDATASIZE PUSH0 PUSH0 RETURNDATACOPY RETURNDATASIZE PUSH0 REVERT JUMPDEST POP POP POP POP PUSH1 0x40 MLOAD RETURNDATASIZE PUSH1 0x1F NOT PUSH1 0x1F DUP3 ADD AND DUP3 ADD DUP1 PUSH1 0x40 MSTORE POP DUP2 ADD SWAP1 PUSH2 0x1E42 SWAP2 SWAP1 PUSH2 0x3AF1 JUMP JUMPDEST PUSH2 0x1E81 JUMPI PUSH1 0x40 MLOAD PUSH32 0x8C379A000000000000000000000000000000000000000000000000000000000 DUP2 MSTORE PUSH1 0x4 ADD PUSH2 0x1E78 SWAP1 PUSH2 0x3B66 JUMP JUMPDEST PUSH1 0x40 MLOAD DUP1 SWAP2 SUB SWAP1 REVERT JUMPDEST PUSH1 0x4 PUSH0 DUP3 PUSH20 0xFFFFFFFFFFFFFFFFFFFFFFFFFFFFFFFFFFFFFFFF AND PUSH20 0xFFFFFFFFFFFFFFFFFFFFFFFFFFFFFFFFFFFFFFFF AND DUP2 MSTORE PUSH1 0x20 ADD SWAP1 DUP2 MSTORE PUSH1 0x20 ADD PUSH0 KECCAK256 PUSH0 SWAP1 SLOAD SWAP1 PUSH2 0x100 EXP SWAP1 DIV PUSH1 0xFF AND PUSH2 0x1F85 JUMPI PUSH1 0x1 PUSH1 0x4 PUSH0 DUP4 PUSH20 0xFFFFFFFFFFFFFFFFFFFFFFFFFFFFFFFFFFFFFFFF AND PUSH20 0xFFFFFFFFFFFFFFFFFFFFFFFFFFFFFFFFFFFFFFFF AND DUP2 MSTORE PUSH1 0x20 ADD SWAP1 DUP2 MSTORE PUSH1 0x20 ADD PUSH0 KECCAK256 PUSH0 PUSH2 0x100 EXP DUP2 SLOAD DUP2 PUSH1 0xFF MUL NOT AND SWAP1 DUP4 ISZERO ISZERO MUL OR SWAP1 SSTORE POP PUSH1 0x3 DUP2 SWAP1 DUP1 PUSH1 0x1 DUP2 SLOAD ADD DUP1 DUP3 SSTORE DUP1 SWAP2 POP POP PUSH1 0x1 SWAP1 SUB SWAP1 PUSH0 MSTORE PUSH1 0x20 PUSH0 KECCAK256 ADD PUSH0 SWAP1 SWAP2 SWAP1 SWAP2 SWAP1 SWAP2 PUSH2 0x100 EXP DUP2 SLOAD DUP2 PUSH20 0xFFFFFFFFFFFFFFFFFFFFFFFFFFFFFFFFFFFFFFFF MUL NOT AND SWAP1 DUP4 PUSH20 0xFFFFFFFFFFFFFFFFFFFFFFFFFFFFFFFFFFFFFFFF AND MUL OR SWAP1 SSTORE POP JUMPDEST PUSH1 0x7 PUSH1 0x40 MLOAD DUP1 PUSH2 0x100 ADD PUSH1 0x40 MSTORE DUP1 DUP4 PUSH20 0xFFFFFFFFFFFFFFFFFFFFFFFFFFFFFFFFFFFFFFFF AND DUP2 MSTORE PUSH1 0x20 ADD DUP8 DUP2 MSTORE PUSH1 0x20 ADD DUP6 DUP2 MSTORE PUSH1 0x20 ADD TIMESTAMP DUP2 MSTORE PUSH1 0x20 ADD PUSH0 DUP2 MSTORE PUSH1 0x20 ADD DUP5 DUP2 MSTORE PUSH1 0x20 ADD DUP6 DUP2 MSTORE PUSH1 0x20 ADD PUSH1 0x1 ISZERO ISZERO DUP2 MSTORE POP SWAP1 DUP1 PUSH1 0x1 DUP2 SLOAD ADD DUP1 DUP3 SSTORE DUP1 SWAP2 POP POP PUSH1 0x1 SWAP1 SUB SWAP1 PUSH0 MSTORE PUSH1 0x20 PUSH0 KECCAK256 SWAP1 PUSH1 0x8 MUL ADD PUSH0 SWAP1 SWAP2 SWAP1 SWAP2 SWAP1 SWAP2 POP PUSH0 DUP3 ADD MLOAD DUP2 PUSH0 ADD PUSH0 PUSH2 0x100 EXP DUP2 SLOAD DUP2 PUSH20 0xFFFFFFFFFFFFFFFFFFFFFFFFFFFFFFFFFFFFFFFF MUL NOT AND SWAP1 DUP4 PUSH20 0xFFFFFFFFFFFFFFFFFFFFFFFFFFFFFFFFFFFFFFFF AND MUL OR SWAP1 SSTORE POP PUSH1 0x20 DUP3 ADD MLOAD DUP2 PUSH1 0x1 ADD SSTORE PUSH1 0x40 DUP3 ADD MLOAD DUP2 PUSH1 0x2 ADD SSTORE PUSH1 0x60 DUP3 ADD MLOAD DUP2 PUSH1 0x3 ADD SSTORE PUSH1 0x80 DUP3 ADD MLOAD DUP2 PUSH1 0x4 ADD SSTORE PUSH1 0xA0 DUP3 ADD MLOAD DUP2 PUSH1 0x5 ADD SSTORE PUSH1 0xC0 DUP3 ADD MLOAD DUP2 PUSH1 0x6 ADD SSTORE PUSH1 0xE0 DUP3 ADD MLOAD DUP2 PUSH1 0x7 ADD PUSH0 PUSH2 0x100 EXP DUP2 SLOAD DUP2 PUSH1 0xFF MUL NOT AND SWAP1 DUP4 ISZERO ISZERO MUL OR SWAP1 SSTORE POP POP POP PUSH0 PUSH1 0x1 PUSH1 0x7 DUP1 SLOAD SWAP1 POP PUSH2 0x20B4 SWAP2 SWAP1 PUSH2 0x3649 JUMP JUMPDEST SWAP1 POP PUSH1 0x5 PUSH0 DUP4 PUSH20 0xFFFFFFFFFFFFFFFFFFFFFFFFFFFFFFFFFFFFFFFF AND PUSH20 0xFFFFFFFFFFFFFFFFFFFFFFFFFFFFFFFFFFFFFFFF AND DUP2 MSTORE PUSH1 0x20 ADD SWAP1 DUP2 MSTORE PUSH1 0x20 ADD PUSH0 KECCAK256 DUP2 SWAP1 DUP1 PUSH1 0x1 DUP2 SLOAD ADD DUP1 DUP3 SSTORE DUP1 SWAP2 POP POP PUSH1 0x1 SWAP1 SUB SWAP1 PUSH0 MSTORE PUSH1 0x20 PUSH0 KECCAK256 ADD PUSH0 SWAP1 SWAP2 SWAP1 SWAP2 SWAP1 SWAP2 POP SSTORE DUP4 PUSH1 0x6 DUP2 SWAP1 SSTORE POP DUP6 PUSH1 0x9 PUSH0 DUP3 DUP3 SLOAD PUSH2 0x212F SWAP2 SWAP1 PUSH2 0x3711 JUMP JUMPDEST SWAP3 POP POP DUP2 SWAP1 SSTORE POP PUSH1 0x8 PUSH0 DUP2 SLOAD DUP1 SWAP3 SWAP2 SWAP1 PUSH2 0x2148 SWAP1 PUSH2 0x3E7C JUMP JUMPDEST SWAP2 SWAP1 POP SSTORE POP DUP2 PUSH20 0xFFFFFFFFFFFFFFFFFFFFFFFFFFFFFFFFFFFFFFFF AND PUSH32 0x554F20505671494900B631B0E443E9E7A59743EC9889B05E28D8AC9EA158266B DUP3 DUP9 DUP9 DUP8 PUSH1 0x40 MLOAD PUSH2 0x2199 SWAP5 SWAP4 SWAP3 SWAP2 SWAP1 PUSH2 0x3EC3 JUMP JUMPDEST PUSH1 0x40 MLOAD DUP1 SWAP2 SUB SWAP1 LOG2 POP POP POP POP PUSH2 0x21AD PUSH2 0x2BCA JUMP JUMPDEST POP POP JUMP JUMPDEST PUSH1 0x1 PUSH0 SWAP1 SLOAD SWAP1 PUSH2 0x100 EXP SWAP1 DIV PUSH20 0xFFFFFFFFFFFFFFFFFFFFFFFFFFFFFFFFFFFFFFFF AND PUSH20 0xFFFFFFFFFFFFFFFFFFFFFFFFFFFFFFFFFFFFFFFF AND CALLER PUSH20 0xFFFFFFFFFFFFFFFFFFFFFFFFFFFFFFFFFFFFFFFF AND EQ PUSH2 0x2240 JUMPI PUSH1 0x40 MLOAD PUSH32 0x8C379A000000000000000000000000000000000000000000000000000000000 DUP2 MSTORE PUSH1 0x4 ADD PUSH2 0x2237 SWAP1 PUSH2 0x345E JUMP JUMPDEST PUSH1 0x40 MLOAD DUP1 SWAP2 SUB SWAP1 REVERT JUMPDEST PUSH32 0x0 PUSH20 0xFFFFFFFFFFFFFFFFFFFFFFFFFFFFFFFFFFFFFFFF AND DUP3 PUSH20 0xFFFFFFFFFFFFFFFFFFFFFFFFFFFFFFFFFFFFFFFF AND SUB PUSH2 0x22CE JUMPI PUSH1 0x40 MLOAD PUSH32 0x8C379A000000000000000000000000000000000000000000000000000000000 DUP2 MSTORE PUSH1 0x4 ADD PUSH2 0x22C5 SWAP1 PUSH2 0x3F50 JUMP JUMPDEST PUSH1 0x40 MLOAD DUP1 SWAP2 SUB SWAP1 REVERT JUMPDEST DUP2 PUSH20 0xFFFFFFFFFFFFFFFFFFFFFFFFFFFFFFFFFFFFFFFF AND PUSH4 0xA9059CBB PUSH1 0x1 PUSH0 SWAP1 SLOAD SWAP1 PUSH2 0x100 EXP SWAP1 DIV PUSH20 0xFFFFFFFFFFFFFFFFFFFFFFFFFFFFFFFFFFFFFFFF AND DUP4 PUSH1 0x40 MLOAD DUP4 PUSH4 0xFFFFFFFF AND PUSH1 0xE0 SHL DUP2 MSTORE PUSH1 0x4 ADD PUSH2 0x232A SWAP3 SWAP2 SWAP1 PUSH2 0x3AA0 JUMP JUMPDEST PUSH1 0x20 PUSH1 0x40 MLOAD DUP1 DUP4 SUB DUP2 PUSH0 DUP8 GAS CALL ISZERO DUP1 ISZERO PUSH2 0x2346 JUMPI RETURNDATASIZE PUSH0 PUSH0 RETURNDATACOPY RETURNDATASIZE PUSH0 REVERT JUMPDEST POP POP POP POP PUSH1 0x40 MLOAD RETURNDATASIZE PUSH1 0x1F NOT PUSH1 0x1F DUP3 ADD AND DUP3 ADD DUP1 PUSH1 0x40 MSTORE POP DUP2 ADD SWAP1 PUSH2 0x236A SWAP2 SWAP1 PUSH2 0x3AF1 JUMP JUMPDEST PUSH2 0x23A9 JUMPI PUSH1 0x40 MLOAD PUSH32 0x8C379A000000000000000000000000000000000000000000000000000000000 DUP2 MSTORE PUSH1 0x4 ADD PUSH2 0x23A0 SWAP1 PUSH2 0x3FB8 JUMP JUMPDEST PUSH1 0x40 MLOAD DUP1 SWAP2 SUB SWAP1 REVERT JUMPDEST POP POP JUMP JUMPDEST PUSH2 0x23B5 PUSH2 0x2AEF JUMP JUMPDEST PUSH0 PUSH1 0x7 DUP3 DUP2 SLOAD DUP2 LT PUSH2 0x23CA JUMPI PUSH2 0x23C9 PUSH2 0x367C JUMP JUMPDEST JUMPDEST SWAP1 PUSH0 MSTORE PUSH1 0x20 PUSH0 KECCAK256 SWAP1 PUSH1 0x8 MUL ADD SWAP1 POP DUP1 PUSH1 0x7 ADD PUSH0 SWAP1 SLOAD SWAP1 PUSH2 0x100 EXP SWAP1 DIV PUSH1 0xFF AND PUSH2 0x2428 JUMPI PUSH1 0x40 MLOAD PUSH32 0x8C379A000000000000000000000000000000000000000000000000000000000 DUP2 MSTORE PUSH1 0x4 ADD PUSH2 0x241F SWAP1 PUSH2 0x398B JUMP JUMPDEST PUSH1 0x40 MLOAD DUP1 SWAP2 SUB SWAP1 REVERT JUMPDEST CALLER PUSH20 0xFFFFFFFFFFFFFFFFFFFFFFFFFFFFFFFFFFFFFFFF AND DUP2 PUSH0 ADD PUSH0 SWAP1 SLOAD SWAP1 PUSH2 0x100 EXP SWAP1 DIV PUSH20 0xFFFFFFFFFFFFFFFFFFFFFFFFFFFFFFFFFFFFFFFF AND PUSH20 0xFFFFFFFFFFFFFFFFFFFFFFFFFFFFFFFFFFFFFFFF AND EQ PUSH2 0x24B8 JUMPI PUSH1 0x40 MLOAD PUSH32 0x8C379A000000000000000000000000000000000000000000000000000000000 DUP2 MSTORE PUSH1 0x4 ADD PUSH2 0x24AF SWAP1 PUSH2 0x39F3 JUMP JUMPDEST PUSH1 0x40 MLOAD DUP1 SWAP2 SUB SWAP1 REVERT JUMPDEST PUSH0 PUSH2 0x24C2 DUP4 PUSH2 0xDB5 JUMP JUMPDEST SWAP1 POP PUSH0 DUP2 GT PUSH2 0x2506 JUMPI PUSH1 0x40 MLOAD PUSH32 0x8C379A000000000000000000000000000000000000000000000000000000000 DUP2 MSTORE PUSH1 0x4 ADD PUSH2 0x24FD SWAP1 PUSH2 0x4020 JUMP JUMPDEST PUSH1 0x40 MLOAD DUP1 SWAP2 SUB SWAP1 REVERT JUMPDEST PUSH0 PUSH2 0x2515 DUP4 PUSH1 0x6 ADD SLOAD PUSH0 PUSH2 0x2A4A JUMP JUMPDEST SWAP1 POP DUP1 DUP4 PUSH1 0x6 ADD DUP2 SWAP1 SSTORE POP PUSH32 0x0 PUSH20 0xFFFFFFFFFFFFFFFFFFFFFFFFFFFFFFFFFFFFFFFF AND PUSH4 0xA9059CBB CALLER DUP5 PUSH1 0x40 MLOAD DUP4 PUSH4 0xFFFFFFFF AND PUSH1 0xE0 SHL DUP2 MSTORE PUSH1 0x4 ADD PUSH2 0x257B SWAP3 SWAP2 SWAP1 PUSH2 0x3AA0 JUMP JUMPDEST PUSH1 0x20 PUSH1 0x40 MLOAD DUP1 DUP4 SUB DUP2 PUSH0 DUP8 GAS CALL ISZERO DUP1 ISZERO PUSH2 0x2597 JUMPI RETURNDATASIZE PUSH0 PUSH0 RETURNDATACOPY RETURNDATASIZE PUSH0 REVERT JUMPDEST POP POP POP POP PUSH1 0x40 MLOAD RETURNDATASIZE PUSH1 0x1F NOT PUSH1 0x1F DUP3 ADD AND DUP3 ADD DUP1 PUSH1 0x40 MSTORE POP DUP2 ADD SWAP1 PUSH2 0x25BB SWAP2 SWAP1 PUSH2 0x3AF1 JUMP JUMPDEST PUSH2 0x25FA JUMPI PUSH1 0x40 MLOAD PUSH32 0x8C379A000000000000000000000000000000000000000000000000000000000 DUP2 MSTORE PUSH1 0x4 ADD PUSH2 0x25F1 SWAP1 PUSH2 0x3B66 JUMP JUMPDEST PUSH1 0x40 MLOAD DUP1 SWAP2 SUB SWAP1 REVERT JUMPDEST PUSH2 0x2602 PUSH2 0x2B33 JUMP JUMPDEST PUSH1 0x6 DUP2 SWAP1 SSTORE POP CALLER PUSH20 0xFFFFFFFFFFFFFFFFFFFFFFFFFFFFFFFFFFFFFFFF AND PUSH32 0xFA73D3AB3A92ED3F2B694757D8E4B2F3C293654B11B9C79111F8971F861B22B2 DUP6 DUP5 PUSH1 0x40 MLOAD PUSH2 0x2650 SWAP3 SWAP2 SWAP1 PUSH2 0x391A JUMP JUMPDEST PUSH1 0x40 MLOAD DUP1 SWAP2 SUB SWAP1 LOG2 POP POP POP PUSH2 0x2663 PUSH2 0x2BCA JUMP JUMPDEST POP JUMP JUMPDEST PUSH0 PUSH0 DUP5 EQ DUP1 PUSH2 0x2674 JUMPI POP PUSH0 DUP4 EQ JUMPDEST ISZERO PUSH2 0x2681 JUMPI PUSH0 SWAP1 POP PUSH2 0x282C JUMP JUMPDEST PUSH0 DUP3 SUB PUSH2 0x268C JUMPI TIMESTAMP SWAP2 POP JUMPDEST PUSH0 PUSH2 0x2696 DUP4 PUSH2 0x2BD3 JUMP JUMPDEST SWAP1 POP PUSH1 0xB DUP1 SLOAD SWAP1 POP DUP2 LT PUSH2 0x26AD JUMPI PUSH0 SWAP2 POP POP PUSH2 0x282C JUMP JUMPDEST PUSH0 DUP5 DUP3 PUSH2 0x26BA SWAP2 SWAP1 PUSH2 0x3711 JUMP JUMPDEST SWAP1 POP PUSH1 0xB DUP1 SLOAD SWAP1 POP DUP2 GT ISZERO PUSH2 0x26D2 JUMPI PUSH1 0xB DUP1 SLOAD SWAP1 POP SWAP1 POP JUMPDEST DUP2 DUP2 GT PUSH2 0x26E3 JUMPI PUSH0 SWAP3 POP POP POP PUSH2 0x282C JUMP JUMPDEST PUSH0 PUSH0 SWAP1 POP PUSH0 DUP4 SWAP1 POP JUMPDEST DUP3 DUP2 LT ISZERO PUSH2 0x2824 JUMPI PUSH0 PUSH1 0xB DUP3 DUP2 SLOAD DUP2 LT PUSH2 0x2709 JUMPI PUSH2 0x2708 PUSH2 0x367C JUMP JUMPDEST JUMPDEST SWAP1 PUSH0 MSTORE PUSH1 0x20 PUSH0 KECCAK256 SWAP1 PUSH1 0x3 MUL ADD PUSH1 0x40 MLOAD DUP1 PUSH1 0x60 ADD PUSH1 0x40 MSTORE SWAP1 DUP2 PUSH0 DUP3 ADD SLOAD DUP2 MSTORE PUSH1 0x20 ADD PUSH1 0x1 DUP3 ADD SLOAD DUP2 MSTORE PUSH1 0x20 ADD PUSH1 0x2 DUP3 ADD SLOAD DUP2 MSTORE POP POP SWAP1 POP PUSH0 PUSH2 0x2749 DUP4 PUSH2 0x2AAE JUMP JUMPDEST SWAP1 POP PUSH0 PUSH2 0x2710 DUP3 DUP13 PUSH2 0x275B SWAP2 SWAP1 PUSH2 0x37AC JUMP JUMPDEST PUSH2 0x2765 SWAP2 SWAP1 PUSH2 0x381A JUMP JUMPDEST SWAP1 POP DUP7 DUP5 SUB PUSH2 0x2804 JUMPI PUSH0 DUP4 PUSH0 ADD MLOAD DUP11 GT PUSH2 0x2782 JUMPI DUP4 PUSH0 ADD MLOAD PUSH2 0x2784 JUMP JUMPDEST DUP10 JUMPDEST SWAP1 POP PUSH0 DUP5 PUSH1 0x20 ADD MLOAD SWAP1 POP DUP1 DUP3 LT PUSH2 0x279F JUMPI POP POP POP POP POP PUSH2 0x2817 JUMP JUMPDEST PUSH0 DUP3 DUP3 PUSH2 0x27AC SWAP2 SWAP1 PUSH2 0x3649 JUMP JUMPDEST SWAP1 POP PUSH0 DUP7 PUSH0 ADD MLOAD DUP8 PUSH1 0x20 ADD MLOAD PUSH2 0x27C2 SWAP2 SWAP1 PUSH2 0x3649 JUMP JUMPDEST SWAP1 POP PUSH0 DUP2 SUB PUSH2 0x27D7 JUMPI POP POP POP POP POP POP POP PUSH2 0x2817 JUMP JUMPDEST DUP1 DUP3 DUP7 PUSH2 0x27E4 SWAP2 SWAP1 PUSH2 0x37AC JUMP JUMPDEST PUSH2 0x27EE SWAP2 SWAP1 PUSH2 0x381A JUMP JUMPDEST DUP10 PUSH2 0x27F9 SWAP2 SWAP1 PUSH2 0x3711 JUMP JUMPDEST SWAP9 POP POP POP POP POP PUSH2 0x2813 JUMP JUMPDEST DUP1 DUP6 PUSH2 0x2810 SWAP2 SWAP1 PUSH2 0x3711 JUMP JUMPDEST SWAP5 POP JUMPDEST POP POP POP JUMPDEST DUP1 DUP1 PUSH1 0x1 ADD SWAP2 POP POP PUSH2 0x26EC JUMP JUMPDEST POP DUP1 SWAP4 POP POP POP POP JUMPDEST SWAP4 SWAP3 POP POP POP JUMP JUMPDEST PUSH1 0x60 PUSH1 0x3 DUP1 SLOAD DUP1 PUSH1 0x20 MUL PUSH1 0x20 ADD PUSH1 0x40 MLOAD SWAP1 DUP2 ADD PUSH1 0x40 MSTORE DUP1 SWAP3 SWAP2 SWAP1 DUP2 DUP2 MSTORE PUSH1 0x20 ADD DUP3 DUP1 SLOAD DUP1 ISZERO PUSH2 0x28B4 JUMPI PUSH1 0x20 MUL DUP3 ADD SWAP2 SWAP1 PUSH0 MSTORE PUSH1 0x20 PUSH0 KECCAK256 SWAP1 JUMPDEST DUP2 PUSH0 SWAP1 SLOAD SWAP1 PUSH2 0x100 EXP SWAP1 DIV PUSH20 0xFFFFFFFFFFFFFFFFFFFFFFFFFFFFFFFFFFFFFFFF AND PUSH20 0xFFFFFFFFFFFFFFFFFFFFFFFFFFFFFFFFFFFFFFFF AND DUP2 MSTORE PUSH1 0x20 ADD SWAP1 PUSH1 0x1 ADD SWAP1 DUP1 DUP4 GT PUSH2 0x286B JUMPI JUMPDEST POP POP POP POP POP SWAP1 POP SWAP1 JUMP JUMPDEST PUSH1 0x2 SLOAD DUP2 JUMP JUMPDEST PUSH1 0xE SLOAD DUP2 JUMP JUMPDEST PUSH1 0x9 SLOAD DUP2 JUMP JUMPDEST DUP2 DUP4 LT PUSH2 0x2912 JUMPI PUSH1 0x40 MLOAD PUSH32 0x8C379A000000000000000000000000000000000000000000000000000000000 DUP2 MSTORE PUSH1 0x4 ADD PUSH2 0x2909 SWAP1 PUSH2 0x352E JUMP JUMPDEST PUSH1 0x40 MLOAD DUP1 SWAP2 SUB SWAP1 REVERT JUMPDEST PUSH0 DUP2 EQ PUSH2 0x295F JUMPI PUSH2 0x2710 DUP2 GT ISZERO PUSH2 0x295E JUMPI PUSH1 0x40 MLOAD PUSH32 0x8C379A000000000000000000000000000000000000000000000000000000000 DUP2 MSTORE PUSH1 0x4 ADD PUSH2 0x2955 SWAP1 PUSH2 0x3596 JUMP JUMPDEST PUSH1 0x40 MLOAD DUP1 SWAP2 SUB SWAP1 REVERT JUMPDEST JUMPDEST PUSH0 PUSH1 0xB DUP1 SLOAD SWAP1 POP GT ISZERO PUSH2 0x29E4 JUMPI PUSH1 0xB PUSH1 0x1 PUSH1 0xB DUP1 SLOAD SWAP1 POP PUSH2 0x2980 SWAP2 SWAP1 PUSH2 0x3649 JUMP JUMPDEST DUP2 SLOAD DUP2 LT PUSH2 0x2991 JUMPI PUSH2 0x2990 PUSH2 0x367C JUMP JUMPDEST JUMPDEST SWAP1 PUSH0 MSTORE PUSH1 0x20 PUSH0 KECCAK256 SWAP1 PUSH1 0x3 MUL ADD PUSH1 0x1 ADD SLOAD DUP4 LT ISZERO PUSH2 0x29E3 JUMPI PUSH1 0x40 MLOAD PUSH32 0x8C379A000000000000000000000000000000000000000000000000000000000 DUP2 MSTORE PUSH1 0x4 ADD PUSH2 0x29DA SWAP1 PUSH2 0x36F3 JUMP JUMPDEST PUSH1 0x40 MLOAD DUP1 SWAP2 SUB SWAP1 REVERT JUMPDEST JUMPDEST PUSH1 0xB PUSH1 0x40 MLOAD DUP1 PUSH1 0x60 ADD PUSH1 0x40 MSTORE DUP1 DUP6 DUP2 MSTORE PUSH1 0x20 ADD DUP5 DUP2 MSTORE PUSH1 0x20 ADD DUP4 DUP2 MSTORE POP SWAP1 DUP1 PUSH1 0x1 DUP2 SLOAD ADD DUP1 DUP3 SSTORE DUP1 SWAP2 POP POP PUSH1 0x1 SWAP1 SUB SWAP1 PUSH0 MSTORE PUSH1 0x20 PUSH0 KECCAK256 SWAP1 PUSH1 0x3 MUL ADD PUSH0 SWAP1 SWAP2 SWAP1 SWAP2 SWAP1 SWAP2 POP PUSH0 DUP3 ADD MLOAD DUP2 PUSH0 ADD SSTORE PUSH1 0x20 DUP3 ADD MLOAD DUP2 PUSH1 0x1 ADD SSTORE PUSH1 0x40 DUP3 ADD MLOAD DUP2 PUSH1 0x2 ADD SSTORE POP POP POP POP POP JUMP JUMPDEST PUSH0 PUSH0 DUP3 SUB PUSH2 0x2A56 JUMPI TIMESTAMP SWAP2 POP JUMPDEST PUSH0 DUP4 SWAP1 POP JUMPDEST PUSH1 0xB DUP1 SLOAD SWAP1 POP DUP2 LT DUP1 ISZERO PUSH2 0x2A92 JUMPI POP DUP3 PUSH1 0xB DUP3 DUP2 SLOAD DUP2 LT PUSH2 0x2A7F JUMPI PUSH2 0x2A7E PUSH2 0x367C JUMP JUMPDEST JUMPDEST SWAP1 PUSH0 MSTORE PUSH1 0x20 PUSH0 KECCAK256 SWAP1 PUSH1 0x3 MUL ADD PUSH1 0x1 ADD SLOAD GT ISZERO JUMPDEST ISZERO PUSH2 0x2AA4 JUMPI DUP1 DUP1 PUSH1 0x1 ADD SWAP2 POP POP PUSH2 0x2A5B JUMP JUMPDEST DUP1 SWAP2 POP POP SWAP3 SWAP2 POP POP JUMP JUMPDEST PUSH0 PUSH0 PUSH1 0xB DUP4 DUP2 SLOAD DUP2 LT PUSH2 0x2AC4 JUMPI PUSH2 0x2AC3 PUSH2 0x367C JUMP JUMPDEST JUMPDEST SWAP1 PUSH0 MSTORE PUSH1 0x20 PUSH0 KECCAK256 SWAP1 PUSH1 0x3 MUL ADD PUSH1 0x2 ADD SLOAD SWAP1 POP PUSH0 DUP2 EQ PUSH2 0x2AE3 JUMPI DUP1 PUSH2 0x2AE7 JUMP JUMPDEST PUSH1 0x2 SLOAD JUMPDEST SWAP2 POP POP SWAP2 SWAP1 POP JUMP JUMPDEST PUSH1 0x2 PUSH0 SLOAD SUB PUSH2 0x2B2A JUMPI PUSH1 0x40 MLOAD PUSH32 0x3EE5AEB500000000000000000000000000000000000000000000000000000000 DUP2 MSTORE PUSH1 0x4 ADD PUSH1 0x40 MLOAD DUP1 SWAP2 SUB SWAP1 REVERT JUMPDEST PUSH1 0x2 PUSH0 DUP2 SWAP1 SSTORE POP JUMP JUMPDEST PUSH0 PUSH0 TIMESTAMP SWAP1 POP PUSH0 PUSH1 0x6 SLOAD SWAP1 POP JUMPDEST PUSH1 0xB DUP1 SLOAD SWAP1 POP DUP2 LT ISZERO PUSH2 0x2BBC JUMPI PUSH1 0xB DUP2 DUP2 SLOAD DUP2 LT PUSH2 0x2B60 JUMPI PUSH2 0x2B5F PUSH2 0x367C JUMP JUMPDEST JUMPDEST SWAP1 PUSH0 MSTORE PUSH1 0x20 PUSH0 KECCAK256 SWAP1 PUSH1 0x3 MUL ADD PUSH0 ADD SLOAD DUP3 LT ISZERO DUP1 ISZERO PUSH2 0x2BA0 JUMPI POP PUSH1 0xB DUP2 DUP2 SLOAD DUP2 LT PUSH2 0x2B8D JUMPI PUSH2 0x2B8C PUSH2 0x367C JUMP JUMPDEST JUMPDEST SWAP1 PUSH0 MSTORE PUSH1 0x20 PUSH0 KECCAK256 SWAP1 PUSH1 0x3 MUL ADD PUSH1 0x1 ADD SLOAD DUP3 LT JUMPDEST ISZERO PUSH2 0x2BAF JUMPI DUP1 SWAP3 POP POP POP PUSH2 0x2BC7 JUMP JUMPDEST DUP1 DUP1 PUSH1 0x1 ADD SWAP2 POP POP PUSH2 0x2B3F JUMP JUMPDEST POP PUSH1 0xB DUP1 SLOAD SWAP1 POP SWAP2 POP POP JUMPDEST SWAP1 JUMP JUMPDEST PUSH1 0x1 PUSH0 DUP2 SWAP1 SSTORE POP JUMP JUMPDEST PUSH0 PUSH0 PUSH0 SWAP1 POP JUMPDEST PUSH1 0xB DUP1 SLOAD SWAP1 POP DUP2 LT ISZERO PUSH2 0x2C55 JUMPI PUSH1 0xB DUP2 DUP2 SLOAD DUP2 LT PUSH2 0x2BFA JUMPI PUSH2 0x2BF9 PUSH2 0x367C JUMP JUMPDEST JUMPDEST SWAP1 PUSH0 MSTORE PUSH1 0x20 PUSH0 KECCAK256 SWAP1 PUSH1 0x3 MUL ADD PUSH0 ADD SLOAD DUP4 LT ISZERO DUP1 ISZERO PUSH2 0x2C3A JUMPI POP PUSH1 0xB DUP2 DUP2 SLOAD DUP2 LT PUSH2 0x2C27 JUMPI PUSH2 0x2C26 PUSH2 0x367C JUMP JUMPDEST JUMPDEST SWAP1 PUSH0 MSTORE PUSH1 0x20 PUSH0 KECCAK256 SWAP1 PUSH1 0x3 MUL ADD PUSH1 0x1 ADD SLOAD DUP4 LT JUMPDEST ISZERO PUSH2 0x2C48 JUMPI DUP1 SWAP2 POP POP PUSH2 0x2C5F JUMP JUMPDEST DUP1 DUP1 PUSH1 0x1 ADD SWAP2 POP POP PUSH2 0x2BD9 JUMP JUMPDEST POP PUSH1 0xB DUP1 SLOAD SWAP1 POP SWAP1 POP JUMPDEST SWAP2 SWAP1 POP JUMP JUMPDEST PUSH1 0x40 MLOAD DUP1 PUSH2 0x100 ADD PUSH1 0x40 MSTORE DUP1 PUSH0 PUSH20 0xFFFFFFFFFFFFFFFFFFFFFFFFFFFFFFFFFFFFFFFF AND DUP2 MSTORE PUSH1 0x20 ADD PUSH0 DUP2 MSTORE PUSH1 0x20 ADD PUSH0 DUP2 MSTORE PUSH1 0x20 ADD PUSH0 DUP2 MSTORE PUSH1 0x20 ADD PUSH0 DUP2 MSTORE PUSH1 0x20 ADD PUSH0 DUP2 MSTORE PUSH1 0x20 ADD PUSH0 DUP2 MSTORE PUSH1 0x20 ADD PUSH0 ISZERO ISZERO DUP2 MSTORE POP SWAP1 JUMP JUMPDEST PUSH0 DUP2 SWAP1 POP SWAP2 SWAP1 POP JUMP JUMPDEST PUSH2 0x2CCB DUP2 PUSH2 0x2CB9 JUMP JUMPDEST DUP3 MSTORE POP POP JUMP JUMPDEST PUSH0 PUSH1 0x20 DUP3 ADD SWAP1 POP PUSH2 0x2CE4 PUSH0 DUP4 ADD DUP5 PUSH2 0x2CC2 JUMP JUMPDEST SWAP3 SWAP2 POP POP JUMP JUMPDEST PUSH0 PUSH0 REVERT JUMPDEST PUSH0 PUSH0 REVERT JUMPDEST PUSH2 0x2CFB DUP2 PUSH2 0x2CB9 JUMP JUMPDEST DUP2 EQ PUSH2 0x2D05 JUMPI PUSH0 PUSH0 REVERT JUMPDEST POP JUMP JUMPDEST PUSH0 DUP2 CALLDATALOAD SWAP1 POP PUSH2 0x2D16 DUP2 PUSH2 0x2CF2 JUMP JUMPDEST SWAP3 SWAP2 POP POP JUMP JUMPDEST PUSH0 PUSH0 PUSH0 PUSH0 PUSH1 0x80 DUP6 DUP8 SUB SLT ISZERO PUSH2 0x2D34 JUMPI PUSH2 0x2D33 PUSH2 0x2CEA JUMP JUMPDEST JUMPDEST PUSH0 PUSH2 0x2D41 DUP8 DUP3 DUP9 ADD PUSH2 0x2D08 JUMP JUMPDEST SWAP5 POP POP PUSH1 0x20 PUSH2 0x2D52 DUP8 DUP3 DUP9 ADD PUSH2 0x2D08 JUMP JUMPDEST SWAP4 POP POP PUSH1 0x40 PUSH2 0x2D63 DUP8 DUP3 DUP9 ADD PUSH2 0x2D08 JUMP JUMPDEST SWAP3 POP POP PUSH1 0x60 PUSH2 0x2D74 DUP8 DUP3 DUP9 ADD PUSH2 0x2D08 JUMP JUMPDEST SWAP2 POP POP SWAP3 SWAP6 SWAP2 SWAP5 POP SWAP3 POP JUMP JUMPDEST PUSH0 PUSH20 0xFFFFFFFFFFFFFFFFFFFFFFFFFFFFFFFFFFFFFFFF DUP3 AND SWAP1 POP SWAP2 SWAP1 POP JUMP JUMPDEST PUSH0 PUSH2 0x2DA9 DUP3 PUSH2 0x2D80 JUMP JUMPDEST SWAP1 POP SWAP2 SWAP1 POP JUMP JUMPDEST PUSH2 0x2DB9 DUP2 PUSH2 0x2D9F JUMP JUMPDEST DUP2 EQ PUSH2 0x2DC3 JUMPI PUSH0 PUSH0 REVERT JUMPDEST POP JUMP JUMPDEST PUSH0 DUP2 CALLDATALOAD SWAP1 POP PUSH2 0x2DD4 DUP2 PUSH2 0x2DB0 JUMP JUMPDEST SWAP3 SWAP2 POP POP JUMP JUMPDEST PUSH0 PUSH0 PUSH1 0x40 DUP4 DUP6 SUB SLT ISZERO PUSH2 0x2DF0 JUMPI PUSH2 0x2DEF PUSH2 0x2CEA JUMP JUMPDEST JUMPDEST PUSH0 PUSH2 0x2DFD DUP6 DUP3 DUP7 ADD PUSH2 0x2DC6 JUMP JUMPDEST SWAP3 POP POP PUSH1 0x20 PUSH2 0x2E0E DUP6 DUP3 DUP7 ADD PUSH2 0x2D08 JUMP JUMPDEST SWAP2 POP POP SWAP3 POP SWAP3 SWAP1 POP JUMP JUMPDEST PUSH0 PUSH1 0x20 DUP3 DUP5 SUB SLT ISZERO PUSH2 0x2E2D JUMPI PUSH2 0x2E2C PUSH2 0x2CEA JUMP JUMPDEST JUMPDEST PUSH0 PUSH2 0x2E3A DUP5 DUP3 DUP6 ADD PUSH2 0x2D08 JUMP JUMPDEST SWAP2 POP POP SWAP3 SWAP2 POP POP JUMP JUMPDEST PUSH2 0x2E4C DUP2 PUSH2 0x2D9F JUMP JUMPDEST DUP3 MSTORE POP POP JUMP JUMPDEST PUSH2 0x2E5B DUP2 PUSH2 0x2CB9 JUMP JUMPDEST DUP3 MSTORE POP POP JUMP JUMPDEST PUSH0 DUP2 ISZERO ISZERO SWAP1 POP SWAP2 SWAP1 POP JUMP JUMPDEST PUSH2 0x2E75 DUP2 PUSH2 0x2E61 JUMP JUMPDEST DUP3 MSTORE POP POP JUMP JUMPDEST PUSH2 0x100 DUP3 ADD PUSH0 DUP3 ADD MLOAD PUSH2 0x2E90 PUSH0 DUP6 ADD DUP3 PUSH2 0x2E43 JUMP JUMPDEST POP PUSH1 0x20 DUP3 ADD MLOAD PUSH2 0x2EA3 PUSH1 0x20 DUP6 ADD DUP3 PUSH2 0x2E52 JUMP JUMPDEST POP PUSH1 0x40 DUP3 ADD MLOAD PUSH2 0x2EB6 PUSH1 0x40 DUP6 ADD DUP3 PUSH2 0x2E52 JUMP JUMPDEST POP PUSH1 0x60 DUP3 ADD MLOAD PUSH2 0x2EC9 PUSH1 0x60 DUP6 ADD DUP3 PUSH2 0x2E52 JUMP JUMPDEST POP PUSH1 0x80 DUP3 ADD MLOAD PUSH2 0x2EDC PUSH1 0x80 DUP6 ADD DUP3 PUSH2 0x2E52 JUMP JUMPDEST POP PUSH1 0xA0 DUP3 ADD MLOAD PUSH2 0x2EEF PUSH1 0xA0 DUP6 ADD DUP3 PUSH2 0x2E52 JUMP JUMPDEST POP PUSH1 0xC0 DUP3 ADD MLOAD PUSH2 0x2F02 PUSH1 0xC0 DUP6 ADD DUP3 PUSH2 0x2E52 JUMP JUMPDEST POP PUSH1 0xE0 DUP3 ADD MLOAD PUSH2 0x2F15 PUSH1 0xE0 DUP6 ADD DUP3 PUSH2 0x2E6C JUMP JUMPDEST POP POP POP POP JUMP JUMPDEST PUSH0 PUSH2 0x100 DUP3 ADD SWAP1 POP PUSH2 0x2F2F PUSH0 DUP4 ADD DUP5 PUSH2 0x2E7B JUMP JUMPDEST SWAP3 SWAP2 POP POP JUMP JUMPDEST PUSH0 PUSH1 0x60 DUP3 ADD SWAP1 POP PUSH2 0x2F48 PUSH0 DUP4 ADD DUP7 PUSH2 0x2CC2 JUMP JUMPDEST PUSH2 0x2F55 PUSH1 0x20 DUP4 ADD DUP6 PUSH2 0x2CC2 JUMP JUMPDEST PUSH2 0x2F62 PUSH1 0x40 DUP4 ADD DUP5 PUSH2 0x2CC2 JUMP JUMPDEST SWAP5 SWAP4 POP POP POP POP JUMP JUMPDEST PUSH0 PUSH0 PUSH0 PUSH1 0x60 DUP5 DUP7 SUB SLT ISZERO PUSH2 0x2F81 JUMPI PUSH2 0x2F80 PUSH2 0x2CEA JUMP JUMPDEST JUMPDEST PUSH0 PUSH2 0x2F8E DUP7 DUP3 DUP8 ADD PUSH2 0x2D08 JUMP JUMPDEST SWAP4 POP POP PUSH1 0x20 PUSH2 0x2F9F DUP7 DUP3 DUP8 ADD PUSH2 0x2D08 JUMP JUMPDEST SWAP3 POP POP PUSH1 0x40 PUSH2 0x2FB0 DUP7 DUP3 DUP8 ADD PUSH2 0x2D08 JUMP JUMPDEST SWAP2 POP POP SWAP3 POP SWAP3 POP SWAP3 JUMP JUMPDEST PUSH0 PUSH1 0x20 DUP3 DUP5 SUB SLT ISZERO PUSH2 0x2FCF JUMPI PUSH2 0x2FCE PUSH2 0x2CEA JUMP JUMPDEST JUMPDEST PUSH0 PUSH2 0x2FDC DUP5 DUP3 DUP6 ADD PUSH2 0x2DC6 JUMP JUMPDEST SWAP2 POP POP SWAP3 SWAP2 POP POP JUMP JUMPDEST PUSH0 DUP2 MLOAD SWAP1 POP SWAP2 SWAP1 POP JUMP JUMPDEST PUSH0 DUP3 DUP3 MSTORE PUSH1 0x20 DUP3 ADD SWAP1 POP SWAP3 SWAP2 POP POP JUMP JUMPDEST PUSH0 DUP2 SWAP1 POP PUSH1 0x20 DUP3 ADD SWAP1 POP SWAP2 SWAP1 POP JUMP JUMPDEST PUSH0 PUSH2 0x3019 DUP4 DUP4 PUSH2 0x2E52 JUMP JUMPDEST PUSH1 0x20 DUP4 ADD SWAP1 POP SWAP3 SWAP2 POP POP JUMP JUMPDEST PUSH0 PUSH1 0x20 DUP3 ADD SWAP1 POP SWAP2 SWAP1 POP JUMP JUMPDEST PUSH0 PUSH2 0x303B DUP3 PUSH2 0x2FE5 JUMP JUMPDEST PUSH2 0x3045 DUP2 DUP6 PUSH2 0x2FEF JUMP JUMPDEST SWAP4 POP PUSH2 0x3050 DUP4 PUSH2 0x2FFF JUMP JUMPDEST DUP1 PUSH0 JUMPDEST DUP4 DUP2 LT ISZERO PUSH2 0x3080 JUMPI DUP2 MLOAD PUSH2 0x3067 DUP9 DUP3 PUSH2 0x300E JUMP JUMPDEST SWAP8 POP PUSH2 0x3072 DUP4 PUSH2 0x3025 JUMP JUMPDEST SWAP3 POP POP PUSH1 0x1 DUP2 ADD SWAP1 POP PUSH2 0x3053 JUMP JUMPDEST POP DUP6 SWAP4 POP POP POP POP SWAP3 SWAP2 POP POP JUMP JUMPDEST PUSH0 PUSH1 0x20 DUP3 ADD SWAP1 POP DUP2 DUP2 SUB PUSH0 DUP4 ADD MSTORE PUSH2 0x30A5 DUP2 DUP5 PUSH2 0x3031 JUMP JUMPDEST SWAP1 POP SWAP3 SWAP2 POP POP JUMP JUMPDEST PUSH0 PUSH0 REVERT JUMPDEST PUSH0 PUSH0 REVERT JUMPDEST PUSH0 PUSH0 REVERT JUMPDEST PUSH0 PUSH0 DUP4 PUSH1 0x1F DUP5 ADD SLT PUSH2 0x30CE JUMPI PUSH2 0x30CD PUSH2 0x30AD JUMP JUMPDEST JUMPDEST DUP3 CALLDATALOAD SWAP1 POP PUSH8 0xFFFFFFFFFFFFFFFF DUP2 GT ISZERO PUSH2 0x30EB JUMPI PUSH2 0x30EA PUSH2 0x30B1 JUMP JUMPDEST JUMPDEST PUSH1 0x20 DUP4 ADD SWAP2 POP DUP4 PUSH1 0x20 DUP3 MUL DUP4 ADD GT ISZERO PUSH2 0x3107 JUMPI PUSH2 0x3106 PUSH2 0x30B5 JUMP JUMPDEST JUMPDEST SWAP3 POP SWAP3 SWAP1 POP JUMP JUMPDEST PUSH0 PUSH0 PUSH0 PUSH0 PUSH0 PUSH0 PUSH1 0x60 DUP8 DUP10 SUB SLT ISZERO PUSH2 0x3128 JUMPI PUSH2 0x3127 PUSH2 0x2CEA JUMP JUMPDEST JUMPDEST PUSH0 DUP8 ADD CALLDATALOAD PUSH8 0xFFFFFFFFFFFFFFFF DUP2 GT ISZERO PUSH2 0x3145 JUMPI PUSH2 0x3144 PUSH2 0x2CEE JUMP JUMPDEST JUMPDEST PUSH2 0x3151 DUP10 DUP3 DUP11 ADD PUSH2 0x30B9 JUMP JUMPDEST SWAP7 POP SWAP7 POP POP PUSH1 0x20 DUP8 ADD CALLDATALOAD PUSH8 0xFFFFFFFFFFFFFFFF DUP2 GT ISZERO PUSH2 0x3174 JUMPI PUSH2 0x3173 PUSH2 0x2CEE JUMP JUMPDEST JUMPDEST PUSH2 0x3180 DUP10 DUP3 DUP11 ADD PUSH2 0x30B9 JUMP JUMPDEST SWAP5 POP SWAP5 POP POP PUSH1 0x40 DUP8 ADD CALLDATALOAD PUSH8 0xFFFFFFFFFFFFFFFF DUP2 GT ISZERO PUSH2 0x31A3 JUMPI PUSH2 0x31A2 PUSH2 0x2CEE JUMP JUMPDEST JUMPDEST PUSH2 0x31AF DUP10 DUP3 DUP11 ADD PUSH2 0x30B9 JUMP JUMPDEST SWAP3 POP SWAP3 POP POP SWAP3 SWAP6 POP SWAP3 SWAP6 POP SWAP3 SWAP6 JUMP JUMPDEST PUSH2 0x31C7 DUP2 PUSH2 0x2E61 JUMP JUMPDEST DUP3 MSTORE POP POP JUMP JUMPDEST PUSH0 PUSH1 0x20 DUP3 ADD SWAP1 POP PUSH2 0x31E0 PUSH0 DUP4 ADD DUP5 PUSH2 0x31BE JUMP JUMPDEST SWAP3 SWAP2 POP POP JUMP JUMPDEST PUSH0 DUP2 SWAP1 POP SWAP2 SWAP1 POP JUMP JUMPDEST PUSH0 PUSH2 0x3209 PUSH2 0x3204 PUSH2 0x31FF DUP5 PUSH2 0x2D80 JUMP JUMPDEST PUSH2 0x31E6 JUMP JUMPDEST PUSH2 0x2D80 JUMP JUMPDEST SWAP1 POP SWAP2 SWAP1 POP JUMP JUMPDEST PUSH0 PUSH2 0x321A DUP3 PUSH2 0x31EF JUMP JUMPDEST SWAP1 POP SWAP2 SWAP1 POP JUMP JUMPDEST PUSH0 PUSH2 0x322B DUP3 PUSH2 0x3210 JUMP JUMPDEST SWAP1 POP SWAP2 SWAP1 POP JUMP JUMPDEST PUSH2 0x323B DUP2 PUSH2 0x3221 JUMP JUMPDEST DUP3 MSTORE POP POP JUMP JUMPDEST PUSH0 PUSH1 0x20 DUP3 ADD SWAP1 POP PUSH2 0x3254 PUSH0 DUP4 ADD DUP5 PUSH2 0x3232 JUMP JUMPDEST SWAP3 SWAP2 POP POP JUMP JUMPDEST PUSH2 0x3263 DUP2 PUSH2 0x2D9F JUMP JUMPDEST DUP3 MSTORE POP POP JUMP JUMPDEST PUSH0 PUSH1 0x20 DUP3 ADD SWAP1 POP PUSH2 0x327C PUSH0 DUP4 ADD DUP5 PUSH2 0x325A JUMP JUMPDEST SWAP3 SWAP2 POP POP JUMP JUMPDEST PUSH0 PUSH2 0x100 DUP3 ADD SWAP1 POP PUSH2 0x3296 PUSH0 DUP4 ADD DUP12 PUSH2 0x325A JUMP JUMPDEST PUSH2 0x32A3 PUSH1 0x20 DUP4 ADD DUP11 PUSH2 0x2CC2 JUMP JUMPDEST PUSH2 0x32B0 PUSH1 0x40 DUP4 ADD DUP10 PUSH2 0x2CC2 JUMP JUMPDEST PUSH2 0x32BD PUSH1 0x60 DUP4 ADD DUP9 PUSH2 0x2CC2 JUMP JUMPDEST PUSH2 0x32CA PUSH1 0x80 DUP4 ADD DUP8 PUSH2 0x2CC2 JUMP JUMPDEST PUSH2 0x32D7 PUSH1 0xA0 DUP4 ADD DUP7 PUSH2 0x2CC2 JUMP JUMPDEST PUSH2 0x32E4 PUSH1 0xC0 DUP4 ADD DUP6 PUSH2 0x2CC2 JUMP JUMPDEST PUSH2 0x32F1 PUSH1 0xE0 DUP4 ADD DUP5 PUSH2 0x31BE JUMP JUMPDEST SWAP10 SWAP9 POP POP POP POP POP POP POP POP POP JUMP JUMPDEST PUSH0 PUSH0 PUSH1 0x40 DUP4 DUP6 SUB SLT ISZERO PUSH2 0x3314 JUMPI PUSH2 0x3313 PUSH2 0x2CEA JUMP JUMPDEST JUMPDEST PUSH0 PUSH2 0x3321 DUP6 DUP3 DUP7 ADD PUSH2 0x2D08 JUMP JUMPDEST SWAP3 POP POP PUSH1 0x20 PUSH2 0x3332 DUP6 DUP3 DUP7 ADD PUSH2 0x2D08 JUMP JUMPDEST SWAP2 POP POP SWAP3 POP SWAP3 SWAP1 POP JUMP JUMPDEST PUSH0 DUP2 MLOAD SWAP1 POP SWAP2 SWAP1 POP JUMP JUMPDEST PUSH0 DUP3 DUP3 MSTORE PUSH1 0x20 DUP3 ADD SWAP1 POP SWAP3 SWAP2 POP POP JUMP JUMPDEST PUSH0 DUP2 SWAP1 POP PUSH1 0x20 DUP3 ADD SWAP1 POP SWAP2 SWAP1 POP JUMP JUMPDEST PUSH0 PUSH2 0x3370 DUP4 DUP4 PUSH2 0x2E43 JUMP JUMPDEST PUSH1 0x20 DUP4 ADD SWAP1 POP SWAP3 SWAP2 POP POP JUMP JUMPDEST PUSH0 PUSH1 0x20 DUP3 ADD SWAP1 POP SWAP2 SWAP1 POP JUMP JUMPDEST PUSH0 PUSH2 0x3392 DUP3 PUSH2 0x333C JUMP JUMPDEST PUSH2 0x339C DUP2 DUP6 PUSH2 0x3346 JUMP JUMPDEST SWAP4 POP PUSH2 0x33A7 DUP4 PUSH2 0x3356 JUMP JUMPDEST DUP1 PUSH0 JUMPDEST DUP4 DUP2 LT ISZERO PUSH2 0x33D7 JUMPI DUP2 MLOAD PUSH2 0x33BE DUP9 DUP3 PUSH2 0x3365 JUMP JUMPDEST SWAP8 POP PUSH2 0x33C9 DUP4 PUSH2 0x337C JUMP JUMPDEST SWAP3 POP POP PUSH1 0x1 DUP2 ADD SWAP1 POP PUSH2 0x33AA JUMP JUMPDEST POP DUP6 SWAP4 POP POP POP POP SWAP3 SWAP2 POP POP JUMP JUMPDEST PUSH0 PUSH1 0x20 DUP3 ADD SWAP1 POP DUP2 DUP2 SUB PUSH0 DUP4 ADD MSTORE PUSH2 0x33FC DUP2 DUP5 PUSH2 0x3388 JUMP JUMPDEST SWAP1 POP SWAP3 SWAP2 POP POP JUMP JUMPDEST PUSH0 DUP3 DUP3 MSTORE PUSH1 0x20 DUP3 ADD SWAP1 POP SWAP3 SWAP2 POP POP JUMP JUMPDEST PUSH32 0x4F6E6C79206F776E657200000000000000000000000000000000000000000000 PUSH0 DUP3 ADD MSTORE POP JUMP JUMPDEST PUSH0 PUSH2 0x3448 PUSH1 0xA DUP4 PUSH2 0x3404 JUMP JUMPDEST SWAP2 POP PUSH2 0x3453 DUP3 PUSH2 0x3414 JUMP JUMPDEST PUSH1 0x20 DUP3 ADD SWAP1 POP SWAP2 SWAP1 POP JUMP JUMPDEST PUSH0 PUSH1 0x20 DUP3 ADD SWAP1 POP DUP2 DUP2 SUB PUSH0 DUP4 ADD MSTORE PUSH2 0x3475 DUP2 PUSH2 0x343C JUMP JUMPDEST SWAP1 POP SWAP2 SWAP1 POP JUMP JUMPDEST PUSH32 0x496E646578204F4F420000000000000000000000000000000000000000000000 PUSH0 DUP3 ADD MSTORE POP JUMP JUMPDEST PUSH0 PUSH2 0x34B0 PUSH1 0x9 DUP4 PUSH2 0x3404 JUMP JUMPDEST SWAP2 POP PUSH2 0x34BB DUP3 PUSH2 0x347C JUMP JUMPDEST PUSH1 0x20 DUP3 ADD SWAP1 POP SWAP2 SWAP1 POP JUMP JUMPDEST PUSH0 PUSH1 0x20 DUP3 ADD SWAP1 POP DUP2 DUP2 SUB PUSH0 DUP4 ADD MSTORE PUSH2 0x34DD DUP2 PUSH2 0x34A4 JUMP JUMPDEST SWAP1 POP SWAP2 SWAP1 POP JUMP JUMPDEST PUSH32 0x496E76616C69642072616E676500000000000000000000000000000000000000 PUSH0 DUP3 ADD MSTORE POP JUMP JUMPDEST PUSH0 PUSH2 0x3518 PUSH1 0xD DUP4 PUSH2 0x3404 JUMP JUMPDEST SWAP2 POP PUSH2 0x3523 DUP3 PUSH2 0x34E4 JUMP JUMPDEST PUSH1 0x20 DUP3 ADD SWAP1 POP SWAP2 SWAP1 POP JUMP JUMPDEST PUSH0 PUSH1 0x20 DUP3 ADD SWAP1 POP DUP2 DUP2 SUB PUSH0 DUP4 ADD MSTORE PUSH2 0x3545 DUP2 PUSH2 0x350C JUMP JUMPDEST SWAP1 POP SWAP2 SWAP1 POP JUMP JUMPDEST PUSH32 0x52617465203E2031303025000000000000000000000000000000000000000000 PUSH0 DUP3 ADD MSTORE POP JUMP JUMPDEST PUSH0 PUSH2 0x3580 PUSH1 0xB DUP4 PUSH2 0x3404 JUMP JUMPDEST SWAP2 POP PUSH2 0x358B DUP3 PUSH2 0x354C JUMP JUMPDEST PUSH1 0x20 DUP3 ADD SWAP1 POP SWAP2 SWAP1 POP JUMP JUMPDEST PUSH0 PUSH1 0x20 DUP3 ADD SWAP1 POP DUP2 DUP2 SUB PUSH0 DUP4 ADD MSTORE PUSH2 0x35AD DUP2 PUSH2 0x3574 JUMP JUMPDEST SWAP1 POP SWAP2 SWAP1 POP JUMP JUMPDEST PUSH32 0x5374617274656400000000000000000000000000000000000000000000000000 PUSH0 DUP3 ADD MSTORE POP JUMP JUMPDEST PUSH0 PUSH2 0x35E8 PUSH1 0x7 DUP4 PUSH2 0x3404 JUMP JUMPDEST SWAP2 POP PUSH2 0x35F3 DUP3 PUSH2 0x35B4 JUMP JUMPDEST PUSH1 0x20 DUP3 ADD SWAP1 POP SWAP2 SWAP1 POP JUMP JUMPDEST PUSH0 PUSH1 0x20 DUP3 ADD SWAP1 POP DUP2 DUP2 SUB PUSH0 DUP4 ADD MSTORE PUSH2 0x3615 DUP2 PUSH2 0x35DC JUMP JUMPDEST SWAP1 POP SWAP2 SWAP1 POP JUMP JUMPDEST PUSH32 0x4E487B7100000000000000000000000000000000000000000000000000000000 PUSH0 MSTORE PUSH1 0x11 PUSH1 0x4 MSTORE PUSH1 0x24 PUSH0 REVERT JUMPDEST PUSH0 PUSH2 0x3653 DUP3 PUSH2 0x2CB9 JUMP JUMPDEST SWAP2 POP PUSH2 0x365E DUP4 PUSH2 0x2CB9 JUMP JUMPDEST SWAP3 POP DUP3 DUP3 SUB SWAP1 POP DUP2 DUP2 GT ISZERO PUSH2 0x3676 JUMPI PUSH2 0x3675 PUSH2 0x361C JUMP JUMPDEST JUMPDEST SWAP3 SWAP2 POP POP JUMP JUMPDEST PUSH32 0x4E487B7100000000000000000000000000000000000000000000000000000000 PUSH0 MSTORE PUSH1 0x32 PUSH1 0x4 MSTORE PUSH1 0x24 PUSH0 REVERT JUMPDEST PUSH32 0x5365710000000000000000000000000000000000000000000000000000000000 PUSH0 DUP3 ADD MSTORE POP JUMP JUMPDEST PUSH0 PUSH2 0x36DD PUSH1 0x3 DUP4 PUSH2 0x3404 JUMP JUMPDEST SWAP2 POP PUSH2 0x36E8 DUP3 PUSH2 0x36A9 JUMP JUMPDEST PUSH1 0x20 DUP3 ADD SWAP1 POP SWAP2 SWAP1 POP JUMP JUMPDEST PUSH0 PUSH1 0x20 DUP3 ADD SWAP1 POP DUP2 DUP2 SUB PUSH0 DUP4 ADD MSTORE PUSH2 0x370A DUP2 PUSH2 0x36D1 JUMP JUMPDEST SWAP1 POP SWAP2 SWAP1 POP JUMP JUMPDEST PUSH0 PUSH2 0x371B DUP3 PUSH2 0x2CB9 JUMP JUMPDEST SWAP2 POP PUSH2 0x3726 DUP4 PUSH2 0x2CB9 JUMP JUMPDEST SWAP3 POP DUP3 DUP3 ADD SWAP1 POP DUP1 DUP3 GT ISZERO PUSH2 0x373E JUMPI PUSH2 0x373D PUSH2 0x361C JUMP JUMPDEST JUMPDEST SWAP3 SWAP2 POP POP JUMP JUMPDEST PUSH32 0x4F7665726C617000000000000000000000000000000000000000000000000000 PUSH0 DUP3 ADD MSTORE POP JUMP JUMPDEST PUSH0 PUSH2 0x3778 PUSH1 0x7 DUP4 PUSH2 0x3404 JUMP JUMPDEST SWAP2 POP PUSH2 0x3783 DUP3 PUSH2 0x3744 JUMP JUMPDEST PUSH1 0x20 DUP3 ADD SWAP1 POP SWAP2 SWAP1 POP JUMP JUMPDEST PUSH0 PUSH1 0x20 DUP3 ADD SWAP1 POP DUP2 DUP2 SUB PUSH0 DUP4 ADD MSTORE PUSH2 0x37A5 DUP2 PUSH2 0x376C JUMP JUMPDEST SWAP1 POP SWAP2 SWAP1 POP JUMP JUMPDEST PUSH0 PUSH2 0x37B6 DUP3 PUSH2 0x2CB9 JUMP JUMPDEST SWAP2 POP PUSH2 0x37C1 DUP4 PUSH2 0x2CB9 JUMP JUMPDEST SWAP3 POP DUP3 DUP3 MUL PUSH2 0x37CF DUP2 PUSH2 0x2CB9 JUMP JUMPDEST SWAP2 POP DUP3 DUP3 DIV DUP5 EQ DUP4 ISZERO OR PUSH2 0x37E6 JUMPI PUSH2 0x37E5 PUSH2 0x361C JUMP JUMPDEST JUMPDEST POP SWAP3 SWAP2 POP POP JUMP JUMPDEST PUSH32 0x4E487B7100000000000000000000000000000000000000000000000000000000 PUSH0 MSTORE PUSH1 0x12 PUSH1 0x4 MSTORE PUSH1 0x24 PUSH0 REVERT JUMPDEST PUSH0 PUSH2 0x3824 DUP3 PUSH2 0x2CB9 JUMP JUMPDEST SWAP2 POP PUSH2 0x382F DUP4 PUSH2 0x2CB9 JUMP JUMPDEST SWAP3 POP DUP3 PUSH2 0x383F JUMPI PUSH2 0x383E PUSH2 0x37ED JUMP JUMPDEST JUMPDEST DUP3 DUP3 DIV SWAP1 POP SWAP3 SWAP2 POP POP JUMP JUMPDEST PUSH32 0x4C656E677468206D69736D617463680000000000000000000000000000000000 PUSH0 DUP3 ADD MSTORE POP JUMP JUMPDEST PUSH0 PUSH2 0x387E PUSH1 0xF DUP4 PUSH2 0x3404 JUMP JUMPDEST SWAP2 POP PUSH2 0x3889 DUP3 PUSH2 0x384A JUMP JUMPDEST PUSH1 0x20 DUP3 ADD SWAP1 POP SWAP2 SWAP1 POP JUMP JUMPDEST PUSH0 PUSH1 0x20 DUP3 ADD SWAP1 POP DUP2 DUP2 SUB PUSH0 DUP4 ADD MSTORE PUSH2 0x38AB DUP2 PUSH2 0x3872 JUMP JUMPDEST SWAP1 POP SWAP2 SWAP1 POP JUMP JUMPDEST PUSH32 0x456D707479000000000000000000000000000000000000000000000000000000 PUSH0 DUP3 ADD MSTORE POP JUMP JUMPDEST PUSH0 PUSH2 0x38E6 PUSH1 0x5 DUP4 PUSH2 0x3404 JUMP JUMPDEST SWAP2 POP PUSH2 0x38F1 DUP3 PUSH2 0x38B2 JUMP JUMPDEST PUSH1 0x20 DUP3 ADD SWAP1 POP SWAP2 SWAP1 POP JUMP JUMPDEST PUSH0 PUSH1 0x20 DUP3 ADD SWAP1 POP DUP2 DUP2 SUB PUSH0 DUP4 ADD MSTORE PUSH2 0x3913 DUP2 PUSH2 0x38DA JUMP JUMPDEST SWAP1 POP SWAP2 SWAP1 POP JUMP JUMPDEST PUSH0 PUSH1 0x40 DUP3 ADD SWAP1 POP PUSH2 0x392D PUSH0 DUP4 ADD DUP6 PUSH2 0x2CC2 JUMP JUMPDEST PUSH2 0x393A PUSH1 0x20 DUP4 ADD DUP5 PUSH2 0x2CC2 JUMP JUMPDEST SWAP4 SWAP3 POP POP POP JUMP JUMPDEST PUSH32 0x496E616374697665000000000000000000000000000000000000000000000000 PUSH0 DUP3 ADD MSTORE POP JUMP JUMPDEST PUSH0 PUSH2 0x3975 PUSH1 0x8 DUP4 PUSH2 0x3404 JUMP JUMPDEST SWAP2 POP PUSH2 0x3980 DUP3 PUSH2 0x3941 JUMP JUMPDEST PUSH1 0x20 DUP3 ADD SWAP1 POP SWAP2 SWAP1 POP JUMP JUMPDEST PUSH0 PUSH1 0x20 DUP3 ADD SWAP1 POP DUP2 DUP2 SUB PUSH0 DUP4 ADD MSTORE PUSH2 0x39A2 DUP2 PUSH2 0x3969 JUMP JUMPDEST SWAP1 POP SWAP2 SWAP1 POP JUMP JUMPDEST PUSH32 0x4E6F74206F776E65720000000000000000000000000000000000000000000000 PUSH0 DUP3 ADD MSTORE POP JUMP JUMPDEST PUSH0 PUSH2 0x39DD PUSH1 0x9 DUP4 PUSH2 0x3404 JUMP JUMPDEST SWAP2 POP PUSH2 0x39E8 DUP3 PUSH2 0x39A9 JUMP JUMPDEST PUSH1 0x20 DUP3 ADD SWAP1 POP SWAP2 SWAP1 POP JUMP JUMPDEST PUSH0 PUSH1 0x20 DUP3 ADD SWAP1 POP DUP2 DUP2 SUB PUSH0 DUP4 ADD MSTORE PUSH2 0x3A0A DUP2 PUSH2 0x39D1 JUMP JUMPDEST SWAP1 POP SWAP2 SWAP1 POP JUMP JUMPDEST PUSH32 0x4C6F636B65640000000000000000000000000000000000000000000000000000 PUSH0 DUP3 ADD MSTORE POP JUMP JUMPDEST PUSH0 PUSH2 0x3A45 PUSH1 0x6 DUP4 PUSH2 0x3404 JUMP JUMPDEST SWAP2 POP PUSH2 0x3A50 DUP3 PUSH2 0x3A11 JUMP JUMPDEST PUSH1 0x20 DUP3 ADD SWAP1 POP SWAP2 SWAP1 POP JUMP JUMPDEST PUSH0 PUSH1 0x20 DUP3 ADD SWAP1 POP DUP2 DUP2 SUB PUSH0 DUP4 ADD MSTORE PUSH2 0x3A72 DUP2 PUSH2 0x3A39 JUMP JUMPDEST SWAP1 POP SWAP2 SWAP1 POP JUMP JUMPDEST PUSH0 PUSH2 0x3A83 DUP3 PUSH2 0x2CB9 JUMP JUMPDEST SWAP2 POP PUSH0 DUP3 SUB PUSH2 0x3A95 JUMPI PUSH2 0x3A94 PUSH2 0x361C JUMP JUMPDEST JUMPDEST PUSH1 0x1 DUP3 SUB SWAP1 POP SWAP2 SWAP1 POP JUMP JUMPDEST PUSH0 PUSH1 0x40 DUP3 ADD SWAP1 POP PUSH2 0x3AB3 PUSH0 DUP4 ADD DUP6 PUSH2 0x325A JUMP JUMPDEST PUSH2 0x3AC0 PUSH1 0x20 DUP4 ADD DUP5 PUSH2 0x2CC2 JUMP JUMPDEST SWAP4 SWAP3 POP POP POP JUMP JUMPDEST PUSH2 0x3AD0 DUP2 PUSH2 0x2E61 JUMP JUMPDEST DUP2 EQ PUSH2 0x3ADA JUMPI PUSH0 PUSH0 REVERT JUMPDEST POP JUMP JUMPDEST PUSH0 DUP2 MLOAD SWAP1 POP PUSH2 0x3AEB DUP2 PUSH2 0x3AC7 JUMP JUMPDEST SWAP3 SWAP2 POP POP JUMP JUMPDEST PUSH0 PUSH1 0x20 DUP3 DUP5 SUB SLT ISZERO PUSH2 0x3B06 JUMPI PUSH2 0x3B05 PUSH2 0x2CEA JUMP JUMPDEST JUMPDEST PUSH0 PUSH2 0x3B13 DUP5 DUP3 DUP6 ADD PUSH2 0x3ADD JUMP JUMPDEST SWAP2 POP POP SWAP3 SWAP2 POP POP JUMP JUMPDEST PUSH32 0x5472616E73666572206661696C65640000000000000000000000000000000000 PUSH0 DUP3 ADD MSTORE POP JUMP JUMPDEST PUSH0 PUSH2 0x3B50 PUSH1 0xF DUP4 PUSH2 0x3404 JUMP JUMPDEST SWAP2 POP PUSH2 0x3B5B DUP3 PUSH2 0x3B1C JUMP JUMPDEST PUSH1 0x20 DUP3 ADD SWAP1 POP SWAP2 SWAP1 POP JUMP JUMPDEST PUSH0 PUSH1 0x20 DUP3 ADD SWAP1 POP DUP2 DUP2 SUB PUSH0 DUP4 ADD MSTORE PUSH2 0x3B7D DUP2 PUSH2 0x3B44 JUMP JUMPDEST SWAP1 POP SWAP2 SWAP1 POP JUMP JUMPDEST PUSH32 0x4E6F6E6500000000000000000000000000000000000000000000000000000000 PUSH0 DUP3 ADD MSTORE POP JUMP JUMPDEST PUSH0 PUSH2 0x3BB8 PUSH1 0x4 DUP4 PUSH2 0x3404 JUMP JUMPDEST SWAP2 POP PUSH2 0x3BC3 DUP3 PUSH2 0x3B84 JUMP JUMPDEST PUSH1 0x20 DUP3 ADD SWAP1 POP SWAP2 SWAP1 POP JUMP JUMPDEST PUSH0 PUSH1 0x20 DUP3 ADD SWAP1 POP DUP2 DUP2 SUB PUSH0 DUP4 ADD MSTORE PUSH2 0x3BE5 DUP2 PUSH2 0x3BAC JUMP JUMPDEST SWAP1 POP SWAP2 SWAP1 POP JUMP JUMPDEST PUSH32 0x4E487B7100000000000000000000000000000000000000000000000000000000 PUSH0 MSTORE PUSH1 0x31 PUSH1 0x4 MSTORE PUSH1 0x24 PUSH0 REVERT JUMPDEST PUSH32 0x4D696E20616D6F756E7400000000000000000000000000000000000000000000 PUSH0 DUP3 ADD MSTORE POP JUMP JUMPDEST PUSH0 PUSH2 0x3C4D PUSH1 0xA DUP4 PUSH2 0x3404 JUMP JUMPDEST SWAP2 POP PUSH2 0x3C58 DUP3 PUSH2 0x3C19 JUMP JUMPDEST PUSH1 0x20 DUP3 ADD SWAP1 POP SWAP2 SWAP1 POP JUMP JUMPDEST PUSH0 PUSH1 0x20 DUP3 ADD SWAP1 POP DUP2 DUP2 SUB PUSH0 DUP4 ADD MSTORE PUSH2 0x3C7A DUP2 PUSH2 0x3C41 JUMP JUMPDEST SWAP1 POP SWAP2 SWAP1 POP JUMP JUMPDEST PUSH32 0x4C6F636B206D7573742062652067726561657200000000000000000000000000 PUSH0 DUP3 ADD MSTORE POP JUMP JUMPDEST PUSH0 PUSH2 0x3CB5 PUSH1 0x13 DUP4 PUSH2 0x3404 JUMP JUMPDEST SWAP2 POP PUSH2 0x3CC0 DUP3 PUSH2 0x3C81 JUMP JUMPDEST PUSH1 0x20 DUP3 ADD SWAP1 POP SWAP2 SWAP1 POP JUMP JUMPDEST PUSH0 PUSH1 0x20 DUP3 ADD SWAP1 POP DUP2 DUP2 SUB PUSH0 DUP4 ADD MSTORE PUSH2 0x3CE2 DUP2 PUSH2 0x3CA9 JUMP JUMPDEST SWAP1 POP SWAP2 SWAP1 POP JUMP JUMPDEST PUSH32 0x4E6F206D6F6E7468730000000000000000000000000000000000000000000000 PUSH0 DUP3 ADD MSTORE POP JUMP JUMPDEST PUSH0 PUSH2 0x3D1D PUSH1 0x9 DUP4 PUSH2 0x3404 JUMP JUMPDEST SWAP2 POP PUSH2 0x3D28 DUP3 PUSH2 0x3CE9 JUMP JUMPDEST PUSH1 0x20 DUP3 ADD SWAP1 POP SWAP2 SWAP1 POP JUMP JUMPDEST PUSH0 PUSH1 0x20 DUP3 ADD SWAP1 POP DUP2 DUP2 SUB PUSH0 DUP4 ADD MSTORE PUSH2 0x3D4A DUP2 PUSH2 0x3D11 JUMP JUMPDEST SWAP1 POP SWAP2 SWAP1 POP JUMP JUMPDEST PUSH32 0x54696D65206E6F7420636F766572656400000000000000000000000000000000 PUSH0 DUP3 ADD MSTORE POP JUMP JUMPDEST PUSH0 PUSH2 0x3D85 PUSH1 0x10 DUP4 PUSH2 0x3404 JUMP JUMPDEST SWAP2 POP PUSH2 0x3D90 DUP3 PUSH2 0x3D51 JUMP JUMPDEST PUSH1 0x20 DUP3 ADD SWAP1 POP SWAP2 SWAP1 POP JUMP JUMPDEST PUSH0 PUSH1 0x20 DUP3 ADD SWAP1 POP DUP2 DUP2 SUB PUSH0 DUP4 ADD MSTORE PUSH2 0x3DB2 DUP2 PUSH2 0x3D79 JUMP JUMPDEST SWAP1 POP SWAP2 SWAP1 POP JUMP JUMPDEST PUSH32 0x4C6F636B20706572696F64206578636565647320636F6E66696775726564206D PUSH0 DUP3 ADD MSTORE PUSH32 0x6F6E746873000000000000000000000000000000000000000000000000000000 PUSH1 0x20 DUP3 ADD MSTORE POP JUMP JUMPDEST PUSH0 PUSH2 0x3E13 PUSH1 0x25 DUP4 PUSH2 0x3404 JUMP JUMPDEST SWAP2 POP PUSH2 0x3E1E DUP3 PUSH2 0x3DB9 JUMP JUMPDEST PUSH1 0x40 DUP3 ADD SWAP1 POP SWAP2 SWAP1 POP JUMP JUMPDEST PUSH0 PUSH1 0x20 DUP3 ADD SWAP1 POP DUP2 DUP2 SUB PUSH0 DUP4 ADD MSTORE PUSH2 0x3E40 DUP2 PUSH2 0x3E07 JUMP JUMPDEST SWAP1 POP SWAP2 SWAP1 POP JUMP JUMPDEST PUSH0 PUSH1 0x60 DUP3 ADD SWAP1 POP PUSH2 0x3E5A PUSH0 DUP4 ADD DUP7 PUSH2 0x325A JUMP JUMPDEST PUSH2 0x3E67 PUSH1 0x20 DUP4 ADD DUP6 PUSH2 0x325A JUMP JUMPDEST PUSH2 0x3E74 PUSH1 0x40 DUP4 ADD DUP5 PUSH2 0x2CC2 JUMP JUMPDEST SWAP5 SWAP4 POP POP POP POP JUMP JUMPDEST PUSH0 PUSH2 0x3E86 DUP3 PUSH2 0x2CB9 JUMP JUMPDEST SWAP2 POP PUSH32 0xFFFFFFFFFFFFFFFFFFFFFFFFFFFFFFFFFFFFFFFFFFFFFFFFFFFFFFFFFFFFFFFF DUP3 SUB PUSH2 0x3EB8 JUMPI PUSH2 0x3EB7 PUSH2 0x361C JUMP JUMPDEST JUMPDEST PUSH1 0x1 DUP3 ADD SWAP1 POP SWAP2 SWAP1 POP JUMP JUMPDEST PUSH0 PUSH1 0x80 DUP3 ADD SWAP1 POP PUSH2 0x3ED6 PUSH0 DUP4 ADD DUP8 PUSH2 0x2CC2 JUMP JUMPDEST PUSH2 0x3EE3 PUSH1 0x20 DUP4 ADD DUP7 PUSH2 0x2CC2 JUMP JUMPDEST PUSH2 0x3EF0 PUSH1 0x40 DUP4 ADD DUP6 PUSH2 0x2CC2 JUMP JUMPDEST PUSH2 0x3EFD PUSH1 0x60 DUP4 ADD DUP5 PUSH2 0x2CC2 JUMP JUMPDEST SWAP6 SWAP5 POP POP POP POP POP JUMP JUMPDEST PUSH32 0x43616E6E6F74207265636F766572207374616B696E6720746F6B656E00000000 PUSH0 DUP3 ADD MSTORE POP JUMP JUMPDEST PUSH0 PUSH2 0x3F3A PUSH1 0x1C DUP4 PUSH2 0x3404 JUMP JUMPDEST SWAP2 POP PUSH2 0x3F45 DUP3 PUSH2 0x3F06 JUMP JUMPDEST PUSH1 0x20 DUP3 ADD SWAP1 POP SWAP2 SWAP1 POP JUMP JUMPDEST PUSH0 PUSH1 0x20 DUP3 ADD SWAP1 POP DUP2 DUP2 SUB PUSH0 DUP4 ADD MSTORE PUSH2 0x3F67 DUP2 PUSH2 0x3F2E JUMP JUMPDEST SWAP1 POP SWAP2 SWAP1 POP JUMP JUMPDEST PUSH32 0x5265636F76657279206661696C65640000000000000000000000000000000000 PUSH0 DUP3 ADD MSTORE POP JUMP JUMPDEST PUSH0 PUSH2 0x3FA2 PUSH1 0xF DUP4 PUSH2 0x3404 JUMP JUMPDEST SWAP2 POP PUSH2 0x3FAD DUP3 PUSH2 0x3F6E JUMP JUMPDEST PUSH1 0x20 DUP3 ADD SWAP1 POP SWAP2 SWAP1 POP JUMP JUMPDEST PUSH0 PUSH1 0x20 DUP3 ADD SWAP1 POP DUP2 DUP2 SUB PUSH0 DUP4 ADD MSTORE PUSH2 0x3FCF DUP2 PUSH2 0x3F96 JUMP JUMPDEST SWAP1 POP SWAP2 SWAP1 POP JUMP JUMPDEST PUSH32 0x4E6F207265776172647300000000000000000000000000000000000000000000 PUSH0 DUP3 ADD MSTORE POP JUMP JUMPDEST PUSH0 PUSH2 0x400A PUSH1 0xA DUP4 PUSH2 0x3404 JUMP JUMPDEST SWAP2 POP PUSH2 0x4015 DUP3 PUSH2 0x3FD6 JUMP JUMPDEST PUSH1 0x20 DUP3 ADD SWAP1 POP SWAP2 SWAP1 POP JUMP JUMPDEST PUSH0 PUSH1 0x20 DUP3 ADD SWAP1 POP DUP2 DUP2 SUB PUSH0 DUP4 ADD MSTORE PUSH2 0x4037 DUP2 PUSH2 0x3FFE JUMP JUMPDEST SWAP1 POP SWAP2 SWAP1 POP JUMP INVALID LOG2 PUSH5 0x6970667358 0x22 SLT KECCAK256 0xB2 JUMPF 0xB510 DUP13 PUSH7 0x20296A5C072B1A DUP1 0xEA PUSH21 0xB8CB9308F1E7B05A73D3D38D3B12E41964736F6C63 NUMBER STOP ADDMOD 0x1E STOP CALLER "
				},
				"gasEstimates": {
					"creation": {
						"codeDepositCost": "3300000",
						"executionCost": "infinite",
						"totalCost": "infinite"
					},
					"external": {
						"addMonth(uint256,uint256,uint256)": "infinite",
						"addMonthsBatch(uint256[],uint256[],uint256[])": "infinite",
						"allUsers(uint256)": "5055",
						"calculatePendingRewardForDeposit(uint256)": "infinite",
						"calculateReward(uint256,uint256,uint256,uint256)": "infinite",
						"calculateRewardByMonths(uint256,uint256,uint256)": "infinite",
						"createDeposit(uint256,uint256)": "infinite",
						"deleteLastMonth()": "infinite",
						"deposits(uint256)": "infinite",
						"depositsAmount()": "2557",
						"editMonth(uint256,uint256,uint256,uint256)": "infinite",
						"getAllUsers()": "infinite",
						"getDepositById(uint256)": "infinite",
						"getTotalDeposits()": "2508",
						"getTotalUsers()": "2507",
						"getUserDeposits(address)": "infinite",
						"globalRateBps()": "2513",
						"isUser(address)": "2922",
						"lastKnownMonthIndex()": "2472",
						"minLockAmount()": "2516",
						"minLockMonths()": "2535",
						"monthDepositsAmount(uint256)": "infinite",
						"monthDepositsCount(uint256)": "infinite",
						"months(uint256)": "infinite",
						"openedDeposits()": "2558",
						"owner()": "2620",
						"recoverToken(address,uint256)": "infinite",
						"rewardsByMonths(uint256)": "infinite",
						"setGlobalRateBps(uint256)": "infinite",
						"setMinLockAmount(uint256)": "24730",
						"setMinLockMonths(uint256)": "24795",
						"stakingToken()": "infinite",
						"userDeposits(address,uint256)": "infinite",
						"withdrawPrincipalAndRewards(uint256)": "infinite",
						"withdrawRewardsOnly(uint256)": "infinite"
					},
					"internal": {
						"_addSingleMonth(uint256,uint256,uint256)": "infinite",
						"_findLastCompletedMonth(uint256,uint256)": "infinite",
						"_getCurrentMonthIndex()": "infinite",
						"_getCurrentMonthIndexAt(uint256)": "infinite",
						"_getEffectiveRateBps(uint256)": "6460"
					}
				},
				"methodIdentifiers": {
					"addMonth(uint256,uint256,uint256)": "23b28a54",
					"addMonthsBatch(uint256[],uint256[],uint256[])": "2ffb3d2a",
					"allUsers(uint256)": "a2bdedf4",
					"calculatePendingRewardForDeposit(uint256)": "2e0e3064",
					"calculateReward(uint256,uint256,uint256,uint256)": "7196d3e2",
					"calculateRewardByMonths(uint256,uint256,uint256)": "dd4824a8",
					"createDeposit(uint256,uint256)": "b18e71f2",
					"deleteLastMonth()": "a9783cd7",
					"deposits(uint256)": "b02c43d0",
					"depositsAmount()": "fe4ab90a",
					"editMonth(uint256,uint256,uint256,uint256)": "05a163b6",
					"getAllUsers()": "e2842d79",
					"getDepositById(uint256)": "1bfc7761",
					"getTotalDeposits()": "168a4822",
					"getTotalUsers()": "9be572f6",
					"getUserDeposits(address)": "2a5bf6d2",
					"globalRateBps()": "f4f8c847",
					"isUser(address)": "4209fff1",
					"lastKnownMonthIndex()": "000d6386",
					"minLockAmount()": "08804275",
					"minLockMonths()": "f8799e1a",
					"monthDepositsAmount(uint256)": "9d13fa01",
					"monthDepositsCount(uint256)": "41aff23e",
					"months(uint256)": "1d0205b8",
					"openedDeposits()": "5301731f",
					"owner()": "8da5cb5b",
					"recoverToken(address,uint256)": "b29a8140",
					"rewardsByMonths(uint256)": "38716003",
					"setGlobalRateBps(uint256)": "9521abc6",
					"setMinLockAmount(uint256)": "0f68ae40",
					"setMinLockMonths(uint256)": "4b4d7aa8",
					"stakingToken()": "72f702f3",
					"userDeposits(address,uint256)": "08f43333",
					"withdrawPrincipalAndRewards(uint256)": "6241ca79",
					"withdrawRewardsOnly(uint256)": "d3d83445"
				}
			},
			"storageLayout": {
				"storage": [
					{
						"astId": 88,
						"contract": "GGWStake.sol:GGWStake",
						"label": "_status",
						"offset": 0,
						"slot": "0",
						"type": "t_uint256"
					},
					{
						"astId": 154,
						"contract": "GGWStake.sol:GGWStake",
						"label": "owner",
						"offset": 0,
						"slot": "1",
						"type": "t_address"
					},
					{
						"astId": 195,
						"contract": "GGWStake.sol:GGWStake",
						"label": "globalRateBps",
						"offset": 0,
						"slot": "2",
						"type": "t_uint256"
					},
					{
						"astId": 198,
						"contract": "GGWStake.sol:GGWStake",
						"label": "allUsers",
						"offset": 0,
						"slot": "3",
						"type": "t_array(t_address)dyn_storage"
					},
					{
						"astId": 202,
						"contract": "GGWStake.sol:GGWStake",
						"label": "isUser",
						"offset": 0,
						"slot": "4",
						"type": "t_mapping(t_address,t_bool)"
					},
					{
						"astId": 207,
						"contract": "GGWStake.sol:GGWStake",
						"label": "userDeposits",
						"offset": 0,
						"slot": "5",
						"type": "t_mapping(t_address,t_array(t_uint256)dyn_storage)"
					},
					{
						"astId": 210,
						"contract": "GGWStake.sol:GGWStake",
						"label": "lastKnownMonthIndex",
						"offset": 0,
						"slot": "6",
						"type": "t_uint256"
					},
					{
						"astId": 214,
						"contract": "GGWStake.sol:GGWStake",
						"label": "deposits",
						"offset": 0,
						"slot": "7",
						"type": "t_array(t_struct(Deposit)183_storage)dyn_storage"
					},
					{
						"astId": 216,
						"contract": "GGWStake.sol:GGWStake",
						"label": "openedDeposits",
						"offset": 0,
						"slot": "8",
						"type": "t_uint256"
					},
					{
						"astId": 218,
						"contract": "GGWStake.sol:GGWStake",
						"label": "depositsAmount",
						"offset": 0,
						"slot": "9",
						"type": "t_uint256"
					},
					{
						"astId": 222,
						"contract": "GGWStake.sol:GGWStake",
						"label": "rewardsByMonths",
						"offset": 0,
						"slot": "10",
						"type": "t_mapping(t_uint256,t_uint256)"
					},
					{
						"astId": 226,
						"contract": "GGWStake.sol:GGWStake",
						"label": "months",
						"offset": 0,
						"slot": "11",
						"type": "t_array(t_struct(MonthConfig)190_storage)dyn_storage"
					},
					{
						"astId": 230,
						"contract": "GGWStake.sol:GGWStake",
						"label": "monthDepositsCount",
						"offset": 0,
						"slot": "12",
						"type": "t_mapping(t_uint256,t_uint256)"
					},
					{
						"astId": 234,
						"contract": "GGWStake.sol:GGWStake",
						"label": "monthDepositsAmount",
						"offset": 0,
						"slot": "13",
						"type": "t_mapping(t_uint256,t_uint256)"
					},
					{
						"astId": 650,
						"contract": "GGWStake.sol:GGWStake",
						"label": "minLockMonths",
						"offset": 0,
						"slot": "14",
						"type": "t_uint256"
					},
					{
						"astId": 653,
						"contract": "GGWStake.sol:GGWStake",
						"label": "minLockAmount",
						"offset": 0,
						"slot": "15",
						"type": "t_uint256"
					}
				],
				"types": {
					"t_address": {
						"encoding": "inplace",
						"label": "address",
						"numberOfBytes": "20"
					},
					"t_array(t_address)dyn_storage": {
						"base": "t_address",
						"encoding": "dynamic_array",
						"label": "address[]",
						"numberOfBytes": "32"
					},
					"t_array(t_struct(Deposit)183_storage)dyn_storage": {
						"base": "t_struct(Deposit)183_storage",
						"encoding": "dynamic_array",
						"label": "struct GGWStake.Deposit[]",
						"numberOfBytes": "32"
					},
					"t_array(t_struct(MonthConfig)190_storage)dyn_storage": {
						"base": "t_struct(MonthConfig)190_storage",
						"encoding": "dynamic_array",
						"label": "struct GGWStake.MonthConfig[]",
						"numberOfBytes": "32"
					},
					"t_array(t_uint256)dyn_storage": {
						"base": "t_uint256",
						"encoding": "dynamic_array",
						"label": "uint256[]",
						"numberOfBytes": "32"
					},
					"t_bool": {
						"encoding": "inplace",
						"label": "bool",
						"numberOfBytes": "1"
					},
					"t_mapping(t_address,t_array(t_uint256)dyn_storage)": {
						"encoding": "mapping",
						"key": "t_address",
						"label": "mapping(address => uint256[])",
						"numberOfBytes": "32",
						"value": "t_array(t_uint256)dyn_storage"
					},
					"t_mapping(t_address,t_bool)": {
						"encoding": "mapping",
						"key": "t_address",
						"label": "mapping(address => bool)",
						"numberOfBytes": "32",
						"value": "t_bool"
					},
					"t_mapping(t_uint256,t_uint256)": {
						"encoding": "mapping",
						"key": "t_uint256",
						"label": "mapping(uint256 => uint256)",
						"numberOfBytes": "32",
						"value": "t_uint256"
					},
					"t_struct(Deposit)183_storage": {
						"encoding": "inplace",
						"label": "struct GGWStake.Deposit",
						"members": [
							{
								"astId": 168,
								"contract": "GGWStake.sol:GGWStake",
								"label": "owner",
								"offset": 0,
								"slot": "0",
								"type": "t_address"
							},
							{
								"astId": 170,
								"contract": "GGWStake.sol:GGWStake",
								"label": "amount",
								"offset": 0,
								"slot": "1",
								"type": "t_uint256"
							},
							{
								"astId": 172,
								"contract": "GGWStake.sol:GGWStake",
								"label": "monthIndex",
								"offset": 0,
								"slot": "2",
								"type": "t_uint256"
							},
							{
								"astId": 174,
								"contract": "GGWStake.sol:GGWStake",
								"label": "depositStart",
								"offset": 0,
								"slot": "3",
								"type": "t_uint256"
							},
							{
								"astId": 176,
								"contract": "GGWStake.sol:GGWStake",
								"label": "depositClosed",
								"offset": 0,
								"slot": "4",
								"type": "t_uint256"
							},
							{
								"astId": 178,
								"contract": "GGWStake.sol:GGWStake",
								"label": "unlockMonthIndex",
								"offset": 0,
								"slot": "5",
								"type": "t_uint256"
							},
							{
								"astId": 180,
								"contract": "GGWStake.sol:GGWStake",
								"label": "lastAccruedMonthIdx",
								"offset": 0,
								"slot": "6",
								"type": "t_uint256"
							},
							{
								"astId": 182,
								"contract": "GGWStake.sol:GGWStake",
								"label": "active",
								"offset": 0,
								"slot": "7",
								"type": "t_bool"
							}
						],
						"numberOfBytes": "256"
					},
					"t_struct(MonthConfig)190_storage": {
						"encoding": "inplace",
						"label": "struct GGWStake.MonthConfig",
						"members": [
							{
								"astId": 185,
								"contract": "GGWStake.sol:GGWStake",
								"label": "start",
								"offset": 0,
								"slot": "0",
								"type": "t_uint256"
							},
							{
								"astId": 187,
								"contract": "GGWStake.sol:GGWStake",
								"label": "end",
								"offset": 0,
								"slot": "1",
								"type": "t_uint256"
							},
							{
								"astId": 189,
								"contract": "GGWStake.sol:GGWStake",
								"label": "rateBps",
								"offset": 0,
								"slot": "2",
								"type": "t_uint256"
							}
						],
						"numberOfBytes": "96"
					},
					"t_uint256": {
						"encoding": "inplace",
						"label": "uint256",
						"numberOfBytes": "32"
					}
				}
			},
			"userdoc": {
				"kind": "user",
				"methods": {},
				"version": 1
			}
		}
	}
}