{
	"data": {
		"bytecode": {
			"linkReferences": {},
			"object": "60a06040525f6006556001600e55670de0b6b3a7640000600f55348015610024575f5ffd5b506040516143d93803806143d983398181016040528101906100469190610213565b60015f819055505f73ffffffffffffffffffffffffffffffffffffffff168273ffffffffffffffffffffffffffffffffffffffff16036100bb576040517f08c379a00000000000000000000000000000000000000000000000000000000081526004016100b2906102ab565b60405180910390fd5b612710811115610100576040517f08c379a00000000000000000000000000000000000000000000000000000000081526004016100f790610313565b60405180910390fd5b3360015f6101000a81548173ffffffffffffffffffffffffffffffffffffffff021916908373ffffffffffffffffffffffffffffffffffffffff1602179055508173ffffffffffffffffffffffffffffffffffffffff1660808173ffffffffffffffffffffffffffffffffffffffff1681525050806002819055505050610331565b5f5ffd5b5f73ffffffffffffffffffffffffffffffffffffffff82169050919050565b5f6101af82610186565b9050919050565b6101bf816101a5565b81146101c9575f5ffd5b50565b5f815190506101da816101b6565b92915050565b5f819050919050565b6101f2816101e0565b81146101fc575f5ffd5b50565b5f8151905061020d816101e9565b92915050565b5f5f6040838503121561022957610228610182565b5b5f610236858286016101cc565b9250506020610247858286016101ff565b9150509250929050565b5f82825260208201905092915050565b7f546f6b656e3a207a65726f0000000000000000000000000000000000000000005f82015250565b5f610295600b83610251565b91506102a082610261565b602082019050919050565b5f6020820190508181035f8301526102c281610289565b9050919050565b7f52617465203e20313030250000000000000000000000000000000000000000005f82015250565b5f6102fd600b83610251565b9150610308826102c9565b602082019050919050565b5f6020820190508181035f83015261032a816102f1565b9050919050565b6080516140746103655f395f81816115170152818161182301528181611da701528181612242015261252201526140745ff3fe608060405234801561000f575f5ffd5b506004361061020e575f3560e01c80636241ca7911610123578063b02c43d0116100ab578063dd4824a81161007a578063dd4824a81461064f578063e2842d791461067f578063f4f8c8471461069d578063f8799e1a146106bb578063fe4ab90a146106d95761020e565b8063b02c43d0146105c4578063b18e71f2146105fb578063b29a814014610617578063d3d83445146106335761020e565b80639521abc6116100f25780639521abc6146105205780639be572f61461053c5780639d13fa011461055a578063a2bdedf41461058a578063a9783cd7146105ba5761020e565b80636241ca79146104985780637196d3e2146104b457806372f702f3146104e45780638da5cb5b146105025761020e565b806323b28a54116101a6578063387160031161017557806338716003146103ce57806341aff23e146103fe5780634209fff11461042e5780634b4d7aa81461045e5780635301731f1461047a5761020e565b806323b28a54146103365780632a5bf6d2146103525780632e0e3064146103825780632ffb3d2a146103b25761020e565b80630f68ae40116101e25780630f68ae401461029a578063168a4822146102b65780631bfc7761146102d45780631d0205b8146103045761020e565b80620d63861461021257806305a163b614610230578063088042751461024c57806308f433331461026a575b5f5ffd5b61021a6106f7565b6040516102279190612cd1565b60405180910390f35b61024a60048036038101906102459190612d1c565b6106fd565b005b610254610a46565b6040516102619190612cd1565b60405180910390f35b610284600480360381019061027f9190612dda565b610a4c565b6040516102919190612cd1565b60405180910390f35b6102b460048036038101906102af9190612e18565b610a77565b005b6102be610b10565b6040516102cb9190612cd1565b60405180910390f35b6102ee60048036038101906102e99190612e18565b610b1c565b6040516102fb9190612f1b565b60405180910390f35b61031e60048036038101906103199190612e18565b610c01565b60405161032d93929190612f35565b60405180910390f35b610350600480360381019061034b9190612f6a565b610c36565b005b61036c60048036038101906103679190612fba565b610d22565b604051610379919061308d565b60405180910390f35b61039c60048036038101906103979190612e18565b610db5565b6040516103a99190612cd1565b60405180910390f35b6103cc60048036038101906103c7919061310e565b61102c565b005b6103e860048036038101906103e39190612e18565b611232565b6040516103f59190612cd1565b60405180910390f35b61041860048036038101906104139190612e18565b611247565b6040516104259190612cd1565b60405180910390f35b61044860048036038101906104439190612fba565b61125c565b60405161045591906131cd565b60405180910390f35b61047860048036038101906104739190612e18565b611279565b005b610482611312565b60405161048f9190612cd1565b60405180910390f35b6104b260048036038101906104ad9190612e18565b611318565b005b6104ce60048036038101906104c99190612d1c565b61164f565b6040516104db9190612cd1565b60405180910390f35b6104ec611821565b6040516104f99190613241565b60405180910390f35b61050a611845565b6040516105179190613269565b60405180910390f35b61053a60048036038101906105359190612e18565b61186a565b005b61054461197f565b6040516105519190612cd1565b60405180910390f35b610574600480360381019061056f9190612e18565b61198b565b6040516105819190612cd1565b60405180910390f35b6105a4600480360381019061059f9190612e18565b6119a0565b6040516105b19190613269565b60405180910390f35b6105c26119db565b005b6105de60048036038101906105d99190612e18565b611ba1565b6040516105f2989796959493929190613282565b60405180910390f35b610615600480360381019061061091906132fe565b611c1f565b005b610631600480360381019061062c9190612dda565b6121b1565b005b61064d60048036038101906106489190612e18565b6123ad565b005b61066960048036038101906106649190612f6a565b612666565b6040516106769190612cd1565b60405180910390f35b610687612833565b60405161069491906133e4565b60405180910390f35b6106a56128be565b6040516106b29190612cd1565b60405180910390f35b6106c36128c4565b6040516106d09190612cd1565b60405180910390f35b6106e16128ca565b6040516106ee9190612cd1565b60405180910390f35b60065481565b60015f9054906101000a900473ffffffffffffffffffffffffffffffffffffffff1673ffffffffffffffffffffffffffffffffffffffff163373ffffffffffffffffffffffffffffffffffffffff161461078c576040517f08c379a00000000000000000000000000000000000000000000000000000000081526004016107839061345e565b60405180910390fd5b600b8054905084106107d3576040517f08c379a00000000000000000000000000000000000000000000000000000000081526004016107ca906134c6565b60405180910390fd5b818310610815576040517f08c379a000000000000000000000000000000000000000000000000000000000815260040161080c9061352e565b60405180910390fd5b5f811461086257612710811115610861576040517f08c379a000000000000000000000000000000000000000000000000000000000815260040161085890613596565b60405180910390fd5b5b4283116108a4576040517f08c379a000000000000000000000000000000000000000000000000000000000815260040161089b906135fe565b60405180910390fd5b5f84111561091f57600b6001856108bb9190613649565b815481106108cc576108cb61367c565b5b905f5260205f2090600302016001015483101561091e576040517f08c379a0000000000000000000000000000000000000000000000000000000008152600401610915906136f3565b60405180910390fd5b5b600b805490506001856109329190613711565b10156109aa57600b6001856109479190613711565b815481106109585761095761367c565b5b905f5260205f2090600302015f01548211156109a9576040517f08c379a00000000000000000000000000000000000000000000000000000000081526004016109a09061378e565b60405180910390fd5b5b604051806060016040528084815260200183815260200182815250600b85815481106109d9576109d861367c565b5b905f5260205f2090600302015f820151815f01556020820151816001015560408201518160020155905050837f68f039af08c3a62dae4b7e4244543803dce43c9c5a2ad9ef05fea8366f4c8623848484604051610a3893929190612f35565b60405180910390a250505050565b600f5481565b6005602052815f5260405f208181548110610a65575f80fd5b905f5260205f20015f91509150505481565b60015f9054906101000a900473ffffffffffffffffffffffffffffffffffffffff1673ffffffffffffffffffffffffffffffffffffffff163373ffffffffffffffffffffffffffffffffffffffff1614610b06576040517f08c379a0000000000000000000000000000000000000000000000000000000008152600401610afd9061345e565b60405180910390fd5b80600f8190555050565b5f600780549050905090565b610b24612c64565b60078281548110610b3857610b3761367c565b5b905f5260205f209060080201604051806101000160405290815f82015f9054906101000a900473ffffffffffffffffffffffffffffffffffffffff1673ffffffffffffffffffffffffffffffffffffffff1673ffffffffffffffffffffffffffffffffffffffff168152602001600182015481526020016002820154815260200160038201548152602001600482015481526020016005820154815260200160068201548152602001600782015f9054906101000a900460ff1615151515815250509050919050565b600b8181548110610c10575f80fd5b905f5260205f2090600302015f91509050805f0154908060010154908060020154905083565b60015f9054906101000a900473ffffffffffffffffffffffffffffffffffffffff1673ffffffffffffffffffffffffffffffffffffffff163373ffffffffffffffffffffffffffffffffffffffff1614610cc5576040517f08c379a0000000000000000000000000000000000000000000000000000000008152600401610cbc9061345e565b60405180910390fd5b610cd08383836128d0565b6001600b80549050610ce29190613649565b7f901d51af3f40466612c7be89ba349f0b5aa321186bb4de023367f1ca25acdced848484604051610d1593929190612f35565b60405180910390a2505050565b606060055f8373ffffffffffffffffffffffffffffffffffffffff1673ffffffffffffffffffffffffffffffffffffffff1681526020019081526020015f20805480602002602001604051908101604052809291908181526020018280548015610da957602002820191905f5260205f20905b815481526020019060010190808311610d95575b50505050509050919050565b5f5f60078381548110610dcb57610dca61367c565b5b905f5260205f209060080201604051806101000160405290815f82015f9054906101000a900473ffffffffffffffffffffffffffffffffffffffff1673ffffffffffffffffffffffffffffffffffffffff1673ffffffffffffffffffffffffffffffffffffffff168152602001600182015481526020016002820154815260200160038201548152602001600482015481526020016005820154815260200160068201548152602001600782015f9054906101000a900460ff16151515158152505090505f81602001511480610ea357508060e00151155b15610eb1575f915050611027565b5f8160c0015190505f610ec4825f612a4a565b9050818111610ed8575f9350505050611027565b5f5f90505f846020015190505f8490505b8381101561101d575f600b8281548110610f0657610f0561367c565b5b905f5260205f2090600302016040518060600160405290815f82015481526020016001820154815260200160028201548152505090505f610f4683612aae565b90505f6127108286610f5891906137ac565b610f62919061381a565b905088604001518403610ffd575f835f015190505f846020015190505f8282610f8b9190613649565b90505f838d6060015111610f9f5783610fa5565b8c606001515b90505f839050808210610fbf575050505050505050611010565b5f8282610fcc9190613649565b9050838188610fdb91906137ac565b610fe5919061381a565b8c610ff09190613711565b9b5050505050505061100c565b80866110099190613711565b95505b5050505b8080600101915050610ee9565b5081955050505050505b919050565b60015f9054906101000a900473ffffffffffffffffffffffffffffffffffffffff1673ffffffffffffffffffffffffffffffffffffffff163373ffffffffffffffffffffffffffffffffffffffff16146110bb576040517f08c379a00000000000000000000000000000000000000000000000000000000081526004016110b29061345e565b60405180910390fd5b83839050868690501480156110d557508181905086869050145b611114576040517f08c379a000000000000000000000000000000000000000000000000000000000815260040161110b90613894565b60405180910390fd5b5f8686905011611159576040517f08c379a0000000000000000000000000000000000000000000000000000000008152600401611150906138fc565b60405180910390fd5b5f5f90505b868690508110156111cc576111bf87878381811061117f5761117e61367c565b5b905060200201358686848181106111995761119861367c565b5b905060200201358585858181106111b3576111b261367c565b5b905060200201356128d0565b808060010191505061115e565b507fab080e234ebab87937f1d48c107ecb8ab6361d9012a0670705e920b9cffe101186869050600b805490506112029190613649565b6001600b805490506112149190613649565b60405161122292919061391a565b60405180910390a1505050505050565b600a602052805f5260405f205f915090505481565b600c602052805f5260405f205f915090505481565b6004602052805f5260405f205f915054906101000a900460ff1681565b60015f9054906101000a900473ffffffffffffffffffffffffffffffffffffffff1673ffffffffffffffffffffffffffffffffffffffff163373ffffffffffffffffffffffffffffffffffffffff1614611308576040517f08c379a00000000000000000000000000000000000000000000000000000000081526004016112ff9061345e565b60405180910390fd5b80600e8190555050565b60085481565b611320612aef565b5f600782815481106113355761133461367c565b5b905f5260205f2090600802019050806007015f9054906101000a900460ff16611393576040517f08c379a000000000000000000000000000000000000000000000000000000000815260040161138a9061398b565b60405180910390fd5b3373ffffffffffffffffffffffffffffffffffffffff16815f015f9054906101000a900473ffffffffffffffffffffffffffffffffffffffff1673ffffffffffffffffffffffffffffffffffffffff1614611423576040517f08c379a000000000000000000000000000000000000000000000000000000000815260040161141a906139f3565b60405180910390fd5b5f61142c612b33565b90508160050154811015611475576040517f08c379a000000000000000000000000000000000000000000000000000000000815260040161146c90613a5b565b60405180910390fd5b5f61147f84610db5565b90505f8184600101546114929190613711565b9050836001015460095f8282546114a99190613649565b925050819055505f84600101819055505f846007015f6101000a81548160ff0219169083151502179055504284600401819055505f6114ec85600601545f612a4a565b90508085600601819055508360068190555060085f81548092919061151090613a79565b91905055507f000000000000000000000000000000000000000000000000000000000000000073ffffffffffffffffffffffffffffffffffffffff1663a9059cbb33846040518363ffffffff1660e01b8152600401611570929190613aa0565b6020604051808303815f875af115801561158c573d5f5f3e3d5ffd5b505050506040513d601f19601f820116820180604052508101906115b09190613af1565b6115ef576040517f08c379a00000000000000000000000000000000000000000000000000000000081526004016115e690613b66565b60405180910390fd5b3373ffffffffffffffffffffffffffffffffffffffff167f217ea3989b9d3112d2133a930216f444b7fbcaeaa4d5bc0220d099fdc928e71e878460405161163792919061391a565b60405180910390a2505050505061164c612bca565b50565b5f5f85148061165d57505f83145b8061166d5750600b805490508410155b1561167a575f9050611819565b5f83856116879190613711565b9050600b805490508111156116af57600b8054905090508481116116ae575f915050611819565b5b5f83036116ba574292505b5f8190505f5f90505f8790505b8281101561181157600b80549050811015611811575f600b82815481106116f1576116f061367c565b5b905f5260205f2090600302016040518060600160405290815f82015481526020016001820154815260200160028201548152505090505f61173183612aae565b90505f612710828d61174391906137ac565b61174d919061381a565b90508a84036117f1575f835f015190505f846020015190505f82826117729190613649565b90505f838d116117825783611784565b8c5b90505f83905080821061179e575050505050505050611804565b5f82826117ab9190613649565b90505f84036117c257505050505050505050611804565b8381886117cf91906137ac565b6117d9919061381a565b8b6117e49190613711565b9a50505050505050611800565b80856117fd9190613711565b94505b5050505b80806001019150506116c7565b508093505050505b949350505050565b7f000000000000000000000000000000000000000000000000000000000000000081565b60015f9054906101000a900473ffffffffffffffffffffffffffffffffffffffff1681565b60015f9054906101000a900473ffffffffffffffffffffffffffffffffffffffff1673ffffffffffffffffffffffffffffffffffffffff163373ffffffffffffffffffffffffffffffffffffffff16146118f9576040517f08c379a00000000000000000000000000000000000000000000000000000000081526004016118f09061345e565b60405180910390fd5b61271081111561193e576040517f08c379a000000000000000000000000000000000000000000000000000000000815260040161193590613596565b60405180910390fd5b806002819055507f71ca8c1a2bc00717637fb3e9d048da574b351106cfcf0832e2dfe20f4e633dcf816040516119749190612cd1565b60405180910390a150565b5f600380549050905090565b600d602052805f5260405f205f915090505481565b600381815481106119af575f80fd5b905f5260205f20015f915054906101000a900473ffffffffffffffffffffffffffffffffffffffff1681565b60015f9054906101000a900473ffffffffffffffffffffffffffffffffffffffff1673ffffffffffffffffffffffffffffffffffffffff163373ffffffffffffffffffffffffffffffffffffffff1614611a6a576040517f08c379a0000000000000000000000000000000000000000000000000000000008152600401611a619061345e565b60405180910390fd5b5f600b8054905011611ab1576040517f08c379a0000000000000000000000000000000000000000000000000000000008152600401611aa890613bce565b60405180910390fd5b42600b6001600b80549050611ac69190613649565b81548110611ad757611ad661367c565b5b905f5260205f2090600302015f015411611b26576040517f08c379a0000000000000000000000000000000000000000000000000000000008152600401611b1d906135fe565b60405180910390fd5b600b805480611b3857611b37613bec565b5b600190038181905f5260205f2090600302015f5f82015f9055600182015f9055600282015f9055505090557fd84ba012185e6b11c267bbf53304405446699fded2a2a85c6c6523d2cd3fd790600b80549050604051611b979190612cd1565b60405180910390a1565b60078181548110611bb0575f80fd5b905f5260205f2090600802015f91509050805f015f9054906101000a900473ffffffffffffffffffffffffffffffffffffffff1690806001015490806002015490806003015490806004015490806005015490806006015490806007015f9054906101000a900460ff16905088565b611c27612aef565b600f54821015611c6c576040517f08c379a0000000000000000000000000000000000000000000000000000000008152600401611c6390613c63565b60405180910390fd5b600e54811015611cb1576040517f08c379a0000000000000000000000000000000000000000000000000000000008152600401611ca890613ccb565b60405180910390fd5b5f600b8054905011611cf8576040517f08c379a0000000000000000000000000000000000000000000000000000000008152600401611cef90613d33565b60405180910390fd5b5f611d01612b33565b9050600b805490508110611d4a576040517f08c379a0000000000000000000000000000000000000000000000000000000008152600401611d4190613d9b565b60405180910390fd5b5f8282611d579190613711565b9050600b80549050811115611da1576040517f08c379a0000000000000000000000000000000000000000000000000000000008152600401611d9890613e29565b60405180910390fd5b5f3390507f000000000000000000000000000000000000000000000000000000000000000073ffffffffffffffffffffffffffffffffffffffff166323b872dd8230886040518463ffffffff1660e01b8152600401611e0293929190613e47565b6020604051808303815f875af1158015611e1e573d5f5f3e3d5ffd5b505050506040513d601f19601f82011682018060405250810190611e429190613af1565b611e81576040517f08c379a0000000000000000000000000000000000000000000000000000000008152600401611e7890613b66565b60405180910390fd5b60045f8273ffffffffffffffffffffffffffffffffffffffff1673ffffffffffffffffffffffffffffffffffffffff1681526020019081526020015f205f9054906101000a900460ff16611f8557600160045f8373ffffffffffffffffffffffffffffffffffffffff1673ffffffffffffffffffffffffffffffffffffffff1681526020019081526020015f205f6101000a81548160ff021916908315150217905550600381908060018154018082558091505060019003905f5260205f20015f9091909190916101000a81548173ffffffffffffffffffffffffffffffffffffffff021916908373ffffffffffffffffffffffffffffffffffffffff1602179055505b60076040518061010001604052808373ffffffffffffffffffffffffffffffffffffffff1681526020018781526020018581526020014281526020015f815260200184815260200185815260200160011515815250908060018154018082558091505060019003905f5260205f2090600802015f909190919091505f820151815f015f6101000a81548173ffffffffffffffffffffffffffffffffffffffff021916908373ffffffffffffffffffffffffffffffffffffffff1602179055506020820151816001015560408201518160020155606082015181600301556080820151816004015560a0820151816005015560c0820151816006015560e0820151816007015f6101000a81548160ff02191690831515021790555050505f60016007805490506120b49190613649565b905060055f8373ffffffffffffffffffffffffffffffffffffffff1673ffffffffffffffffffffffffffffffffffffffff1681526020019081526020015f2081908060018154018082558091505060019003905f5260205f20015f9091909190915055836006819055508560095f82825461212f9190613711565b9250508190555060085f81548092919061214890613e7c565b91905055508173ffffffffffffffffffffffffffffffffffffffff167f554f20505671494900b631b0e443e9e7a59743ec9889b05e28d8ac9ea158266b828888876040516121999493929190613ec3565b60405180910390a2505050506121ad612bca565b5050565b60015f9054906101000a900473ffffffffffffffffffffffffffffffffffffffff1673ffffffffffffffffffffffffffffffffffffffff163373ffffffffffffffffffffffffffffffffffffffff1614612240576040517f08c379a00000000000000000000000000000000000000000000000000000000081526004016122379061345e565b60405180910390fd5b7f000000000000000000000000000000000000000000000000000000000000000073ffffffffffffffffffffffffffffffffffffffff168273ffffffffffffffffffffffffffffffffffffffff16036122ce576040517f08c379a00000000000000000000000000000000000000000000000000000000081526004016122c590613f50565b60405180910390fd5b8173ffffffffffffffffffffffffffffffffffffffff1663a9059cbb60015f9054906101000a900473ffffffffffffffffffffffffffffffffffffffff16836040518363ffffffff1660e01b815260040161232a929190613aa0565b6020604051808303815f875af1158015612346573d5f5f3e3d5ffd5b505050506040513d601f19601f8201168201806040525081019061236a9190613af1565b6123a9576040517f08c379a00000000000000000000000000000000000000000000000000000000081526004016123a090613fb8565b60405180910390fd5b5050565b6123b5612aef565b5f600782815481106123ca576123c961367c565b5b905f5260205f2090600802019050806007015f9054906101000a900460ff16612428576040517f08c379a000000000000000000000000000000000000000000000000000000000815260040161241f9061398b565b60405180910390fd5b3373ffffffffffffffffffffffffffffffffffffffff16815f015f9054906101000a900473ffffffffffffffffffffffffffffffffffffffff1673ffffffffffffffffffffffffffffffffffffffff16146124b8576040517f08c379a00000000000000000000000000000000000000000000000000000000081526004016124af906139f3565b60405180910390fd5b5f6124c283610db5565b90505f8111612506576040517f08c379a00000000000000000000000000000000000000000000000000000000081526004016124fd90614020565b60405180910390fd5b5f61251583600601545f612a4a565b90508083600601819055507f000000000000000000000000000000000000000000000000000000000000000073ffffffffffffffffffffffffffffffffffffffff1663a9059cbb33846040518363ffffffff1660e01b815260040161257b929190613aa0565b6020604051808303815f875af1158015612597573d5f5f3e3d5ffd5b505050506040513d601f19601f820116820180604052508101906125bb9190613af1565b6125fa576040517f08c379a00000000000000000000000000000000000000000000000000000000081526004016125f190613b66565b60405180910390fd5b612602612b33565b6006819055503373ffffffffffffffffffffffffffffffffffffffff167ffa73d3ab3a92ed3f2b694757d8e4b2f3c293654b11b9c79111f8971f861b22b2858460405161265092919061391a565b60405180910390a2505050612663612bca565b50565b5f5f84148061267457505f83145b15612681575f905061282c565b5f820361268c574291505b5f61269683612bd3565b9050600b8054905081106126ad575f91505061282c565b5f84826126ba9190613711565b9050600b805490508111156126d257600b8054905090505b8181116126e3575f9250505061282c565b5f5f90505f8390505b82811015612824575f600b82815481106127095761270861367c565b5b905f5260205f2090600302016040518060600160405290815f82015481526020016001820154815260200160028201548152505090505f61274983612aae565b90505f612710828c61275b91906137ac565b612765919061381a565b9050868403612804575f835f01518a1161278257835f0151612784565b895b90505f8460200151905080821061279f575050505050612817565b5f82826127ac9190613649565b90505f865f015187602001516127c29190613649565b90505f81036127d75750505050505050612817565b8082866127e491906137ac565b6127ee919061381a565b896127f99190613711565b985050505050612813565b80856128109190613711565b94505b5050505b80806001019150506126ec565b508093505050505b9392505050565b606060038054806020026020016040519081016040528092919081815260200182805480156128b457602002820191905f5260205f20905b815f9054906101000a900473ffffffffffffffffffffffffffffffffffffffff1673ffffffffffffffffffffffffffffffffffffffff168152602001906001019080831161286b575b5050505050905090565b60025481565b600e5481565b60095481565b818310612912576040517f08c379a00000000000000000000000000000000000000000000000000000000081526004016129099061352e565b60405180910390fd5b5f811461295f5761271081111561295e576040517f08c379a000000000000000000000000000000000000000000000000000000000815260040161295590613596565b60405180910390fd5b5b5f600b8054905011156129e457600b6001600b805490506129809190613649565b815481106129915761299061367c565b5b905f5260205f209060030201600101548310156129e3576040517f08c379a00000000000000000000000000000000000000000000000000000000081526004016129da906136f3565b60405180910390fd5b5b600b604051806060016040528085815260200184815260200183815250908060018154018082558091505060019003905f5260205f2090600302015f909190919091505f820151815f015560208201518160010155604082015181600201555050505050565b5f5f8203612a56574291505b5f8390505b600b8054905081108015612a92575082600b8281548110612a7f57612a7e61367c565b5b905f5260205f2090600302016001015411155b15612aa4578080600101915050612a5b565b8091505092915050565b5f5f600b8381548110612ac457612ac361367c565b5b905f5260205f2090600302016002015490505f8114612ae35780612ae7565b6002545b915050919050565b60025f5403612b2a576040517f3ee5aeb500000000000000000000000000000000000000000000000000000000815260040160405180910390fd5b60025f81905550565b5f5f4290505f60065490505b600b80549050811015612bbc57600b8181548110612b6057612b5f61367c565b5b905f5260205f2090600302015f01548210158015612ba05750600b8181548110612b8d57612b8c61367c565b5b905f5260205f2090600302016001015482105b15612baf578092505050612bc7565b8080600101915050612b3f565b50600b805490509150505b90565b60015f81905550565b5f5f5f90505b600b80549050811015612c5557600b8181548110612bfa57612bf961367c565b5b905f5260205f2090600302015f01548310158015612c3a5750600b8181548110612c2757612c2661367c565b5b905f5260205f2090600302016001015483105b15612c485780915050612c5f565b8080600101915050612bd9565b50600b8054905090505b919050565b6040518061010001604052805f73ffffffffffffffffffffffffffffffffffffffff1681526020015f81526020015f81526020015f81526020015f81526020015f81526020015f81526020015f151581525090565b5f819050919050565b612ccb81612cb9565b82525050565b5f602082019050612ce45f830184612cc2565b92915050565b5f5ffd5b5f5ffd5b612cfb81612cb9565b8114612d05575f5ffd5b50565b5f81359050612d1681612cf2565b92915050565b5f5f5f5f60808587031215612d3457612d33612cea565b5b5f612d4187828801612d08565b9450506020612d5287828801612d08565b9350506040612d6387828801612d08565b9250506060612d7487828801612d08565b91505092959194509250565b5f73ffffffffffffffffffffffffffffffffffffffff82169050919050565b5f612da982612d80565b9050919050565b612db981612d9f565b8114612dc3575f5ffd5b50565b5f81359050612dd481612db0565b92915050565b5f5f60408385031215612df057612def612cea565b5b5f612dfd85828601612dc6565b9250506020612e0e85828601612d08565b9150509250929050565b5f60208284031215612e2d57612e2c612cea565b5b5f612e3a84828501612d08565b91505092915050565b612e4c81612d9f565b82525050565b612e5b81612cb9565b82525050565b5f8115159050919050565b612e7581612e61565b82525050565b61010082015f820151612e905f850182612e43565b506020820151612ea36020850182612e52565b506040820151612eb66040850182612e52565b506060820151612ec96060850182612e52565b506080820151612edc6080850182612e52565b5060a0820151612eef60a0850182612e52565b5060c0820151612f0260c0850182612e52565b5060e0820151612f1560e0850182612e6c565b50505050565b5f61010082019050612f2f5f830184612e7b565b92915050565b5f606082019050612f485f830186612cc2565b612f556020830185612cc2565b612f626040830184612cc2565b949350505050565b5f5f5f60608486031215612f8157612f80612cea565b5b5f612f8e86828701612d08565b9350506020612f9f86828701612d08565b9250506040612fb086828701612d08565b9150509250925092565b5f60208284031215612fcf57612fce612cea565b5b5f612fdc84828501612dc6565b91505092915050565b5f81519050919050565b5f82825260208201905092915050565b5f819050602082019050919050565b5f6130198383612e52565b60208301905092915050565b5f602082019050919050565b5f61303b82612fe5565b6130458185612fef565b935061305083612fff565b805f5b83811015613080578151613067888261300e565b975061307283613025565b925050600181019050613053565b5085935050505092915050565b5f6020820190508181035f8301526130a58184613031565b905092915050565b5f5ffd5b5f5ffd5b5f5ffd5b5f5f83601f8401126130ce576130cd6130ad565b5b8235905067ffffffffffffffff8111156130eb576130ea6130b1565b5b602083019150836020820283011115613107576131066130b5565b5b9250929050565b5f5f5f5f5f5f6060878903121561312857613127612cea565b5b5f87013567ffffffffffffffff81111561314557613144612cee565b5b61315189828a016130b9565b9650965050602087013567ffffffffffffffff81111561317457613173612cee565b5b61318089828a016130b9565b9450945050604087013567ffffffffffffffff8111156131a3576131a2612cee565b5b6131af89828a016130b9565b92509250509295509295509295565b6131c781612e61565b82525050565b5f6020820190506131e05f8301846131be565b92915050565b5f819050919050565b5f6132096132046131ff84612d80565b6131e6565b612d80565b9050919050565b5f61321a826131ef565b9050919050565b5f61322b82613210565b9050919050565b61323b81613221565b82525050565b5f6020820190506132545f830184613232565b92915050565b61326381612d9f565b82525050565b5f60208201905061327c5f83018461325a565b92915050565b5f610100820190506132965f83018b61325a565b6132a3602083018a612cc2565b6132b06040830189612cc2565b6132bd6060830188612cc2565b6132ca6080830187612cc2565b6132d760a0830186612cc2565b6132e460c0830185612cc2565b6132f160e08301846131be565b9998505050505050505050565b5f5f6040838503121561331457613313612cea565b5b5f61332185828601612d08565b925050602061333285828601612d08565b9150509250929050565b5f81519050919050565b5f82825260208201905092915050565b5f819050602082019050919050565b5f6133708383612e43565b60208301905092915050565b5f602082019050919050565b5f6133928261333c565b61339c8185613346565b93506133a783613356565b805f5b838110156133d75781516133be8882613365565b97506133c98361337c565b9250506001810190506133aa565b5085935050505092915050565b5f6020820190508181035f8301526133fc8184613388565b905092915050565b5f82825260208201905092915050565b7f4f6e6c79206f776e6572000000000000000000000000000000000000000000005f82015250565b5f613448600a83613404565b915061345382613414565b602082019050919050565b5f6020820190508181035f8301526134758161343c565b9050919050565b7f496e646578204f4f4200000000000000000000000000000000000000000000005f82015250565b5f6134b0600983613404565b91506134bb8261347c565b602082019050919050565b5f6020820190508181035f8301526134dd816134a4565b9050919050565b7f496e76616c69642072616e6765000000000000000000000000000000000000005f82015250565b5f613518600d83613404565b9150613523826134e4565b602082019050919050565b5f6020820190508181035f8301526135458161350c565b9050919050565b7f52617465203e20313030250000000000000000000000000000000000000000005f82015250565b5f613580600b83613404565b915061358b8261354c565b602082019050919050565b5f6020820190508181035f8301526135ad81613574565b9050919050565b7f53746172746564000000000000000000000000000000000000000000000000005f82015250565b5f6135e8600783613404565b91506135f3826135b4565b602082019050919050565b5f6020820190508181035f830152613615816135dc565b9050919050565b7f4e487b71000000000000000000000000000000000000000000000000000000005f52601160045260245ffd5b5f61365382612cb9565b915061365e83612cb9565b92508282039050818111156136765761367561361c565b5b92915050565b7f4e487b71000000000000000000000000000000000000000000000000000000005f52603260045260245ffd5b7f53657100000000000000000000000000000000000000000000000000000000005f82015250565b5f6136dd600383613404565b91506136e8826136a9565b602082019050919050565b5f6020820190508181035f83015261370a816136d1565b9050919050565b5f61371b82612cb9565b915061372683612cb9565b925082820190508082111561373e5761373d61361c565b5b92915050565b7f4f7665726c6170000000000000000000000000000000000000000000000000005f82015250565b5f613778600783613404565b915061378382613744565b602082019050919050565b5f6020820190508181035f8301526137a58161376c565b9050919050565b5f6137b682612cb9565b91506137c183612cb9565b92508282026137cf81612cb9565b915082820484148315176137e6576137e561361c565b5b5092915050565b7f4e487b71000000000000000000000000000000000000000000000000000000005f52601260045260245ffd5b5f61382482612cb9565b915061382f83612cb9565b92508261383f5761383e6137ed565b5b828204905092915050565b7f4c656e677468206d69736d6174636800000000000000000000000000000000005f82015250565b5f61387e600f83613404565b91506138898261384a565b602082019050919050565b5f6020820190508181035f8301526138ab81613872565b9050919050565b7f456d7074790000000000000000000000000000000000000000000000000000005f82015250565b5f6138e6600583613404565b91506138f1826138b2565b602082019050919050565b5f6020820190508181035f830152613913816138da565b9050919050565b5f60408201905061392d5f830185612cc2565b61393a6020830184612cc2565b9392505050565b7f496e6163746976650000000000000000000000000000000000000000000000005f82015250565b5f613975600883613404565b915061398082613941565b602082019050919050565b5f6020820190508181035f8301526139a281613969565b9050919050565b7f4e6f74206f776e657200000000000000000000000000000000000000000000005f82015250565b5f6139dd600983613404565b91506139e8826139a9565b602082019050919050565b5f6020820190508181035f830152613a0a816139d1565b9050919050565b7f4c6f636b656400000000000000000000000000000000000000000000000000005f82015250565b5f613a45600683613404565b9150613a5082613a11565b602082019050919050565b5f6020820190508181035f830152613a7281613a39565b9050919050565b5f613a8382612cb9565b91505f8203613a9557613a9461361c565b5b600182039050919050565b5f604082019050613ab35f83018561325a565b613ac06020830184612cc2565b9392505050565b613ad081612e61565b8114613ada575f5ffd5b50565b5f81519050613aeb81613ac7565b92915050565b5f60208284031215613b0657613b05612cea565b5b5f613b1384828501613add565b91505092915050565b7f5472616e73666572206661696c656400000000000000000000000000000000005f82015250565b5f613b50600f83613404565b9150613b5b82613b1c565b602082019050919050565b5f6020820190508181035f830152613b7d81613b44565b9050919050565b7f4e6f6e65000000000000000000000000000000000000000000000000000000005f82015250565b5f613bb8600483613404565b9150613bc382613b84565b602082019050919050565b5f6020820190508181035f830152613be581613bac565b9050919050565b7f4e487b71000000000000000000000000000000000000000000000000000000005f52603160045260245ffd5b7f4d696e20616d6f756e74000000000000000000000000000000000000000000005f82015250565b5f613c4d600a83613404565b9150613c5882613c19565b602082019050919050565b5f6020820190508181035f830152613c7a81613c41565b9050919050565b7f4c6f636b206d75737420626520677265616572000000000000000000000000005f82015250565b5f613cb5601383613404565b9150613cc082613c81565b602082019050919050565b5f6020820190508181035f830152613ce281613ca9565b9050919050565b7f4e6f206d6f6e74687300000000000000000000000000000000000000000000005f82015250565b5f613d1d600983613404565b9150613d2882613ce9565b602082019050919050565b5f6020820190508181035f830152613d4a81613d11565b9050919050565b7f54696d65206e6f7420636f7665726564000000000000000000000000000000005f82015250565b5f613d85601083613404565b9150613d9082613d51565b602082019050919050565b5f6020820190508181035f830152613db281613d79565b9050919050565b7f4c6f636b20706572696f64206578636565647320636f6e66696775726564206d5f8201527f6f6e746873000000000000000000000000000000000000000000000000000000602082015250565b5f613e13602583613404565b9150613e1e82613db9565b604082019050919050565b5f6020820190508181035f830152613e4081613e07565b9050919050565b5f606082019050613e5a5f83018661325a565b613e67602083018561325a565b613e746040830184612cc2565b949350505050565b5f613e8682612cb9565b91507fffffffffffffffffffffffffffffffffffffffffffffffffffffffffffffffff8203613eb857613eb761361c565b5b600182019050919050565b5f608082019050613ed65f830187612cc2565b613ee36020830186612cc2565b613ef06040830185612cc2565b613efd6060830184612cc2565b95945050505050565b7f43616e6e6f74207265636f766572207374616b696e6720746f6b656e000000005f82015250565b5f613f3a601c83613404565b9150613f4582613f06565b602082019050919050565b5f6020820190508181035f830152613f6781613f2e565b9050919050565b7f5265636f76657279206661696c656400000000000000000000000000000000005f82015250565b5f613fa2600f83613404565b9150613fad82613f6e565b602082019050919050565b5f6020820190508181035f830152613fcf81613f96565b9050919050565b7f4e6f2072657761726473000000000000000000000000000000000000000000005f82015250565b5f61400a600a83613404565b915061401582613fd6565b602082019050919050565b5f6020820190508181035f83015261403781613ffe565b905091905056fea2646970667358221220b2e5b5108c6620296a5c072b1a80ea74b8cb9308f1e7b05a73d3d38d3b12e41964736f6c634300081e0033",
			"opcodes": "PUSH1 0xA0 PUSH1 0x40 MSTORE PUSH0 PUSH1 0x6 SSTORE PUSH1 0x1 PUSH1 0xE SSTORE PUSH8 0xDE0B6B3A7640000 PUSH1 0xF SSTORE CALLVALUE DUP1 ISZERO PUSH2 0x24 JUMPI PUSH0 PUSH0 REVERT JUMPDEST POP PUSH1 0x40 MLOAD PUSH2 0x43D9 CODESIZE SUB DUP1 PUSH2 0x43D9 DUP4 CODECOPY DUP2 DUP2 ADD PUSH1 0x40 MSTORE DUP2 ADD SWAP1 PUSH2 0x46 SWAP2 SWAP1 PUSH2 0x213 JUMP JUMPDEST PUSH1 0x1 PUSH0 DUP2 SWAP1 SSTORE POP PUSH0 PUSH20 0xFFFFFFFFFFFFFFFFFFFFFFFFFFFFFFFFFFFFFFFF AND DUP3 PUSH20 0xFFFFFFFFFFFFFFFFFFFFFFFFFFFFFFFFFFFFFFFF AND SUB PUSH2 0xBB JUMPI PUSH1 0x40 MLOAD PUSH32 0x8C379A000000000000000000000000000000000000000000000000000000000 DUP2 MSTORE PUSH1 0x4 ADD PUSH2 0xB2 SWAP1 PUSH2 0x2AB JUMP JUMPDEST PUSH1 0x40 MLOAD DUP1 SWAP2 SUB SWAP1 REVERT JUMPDEST PUSH2 0x2710 DUP2 GT ISZERO PUSH2 0x100 JUMPI PUSH1 0x40 MLOAD PUSH32 0x8C379A000000000000000000000000000000000000000000000000000000000 DUP2 MSTORE PUSH1 0x4 ADD PUSH2 0xF7 SWAP1 PUSH2 0x313 JUMP JUMPDEST PUSH1 0x40 MLOAD DUP1 SWAP2 SUB SWAP1 REVERT JUMPDEST CALLER PUSH1 0x1 PUSH0 PUSH2 0x100 EXP DUP2 SLOAD DUP2 PUSH20 0xFFFFFFFFFFFFFFFFFFFFFFFFFFFFFFFFFFFFFFFF MUL NOT AND SWAP1 DUP4 PUSH20 0xFFFFFFFFFFFFFFFFFFFFFFFFFFFFFFFFFFFFFFFF AND MUL OR SWAP1 SSTORE POP DUP2 PUSH20 0xFFFFFFFFFFFFFFFFFFFFFFFFFFFFFFFFFFFFFFFF AND PUSH1 0x80 DUP2 PUSH20 0xFFFFFFFFFFFFFFFFFFFFFFFFFFFFFFFFFFFFFFFF AND DUP2 MSTORE POP POP DUP1 PUSH1 0x2 DUP2 SWAP1 SSTORE POP POP POP PUSH2 0x331 JUMP JUMPDEST PUSH0 PUSH0 REVERT JUMPDEST PUSH0 PUSH20 0xFFFFFFFFFFFFFFFFFFFFFFFFFFFFFFFFFFFFFFFF DUP3 AND SWAP1 POP SWAP2 SWAP1 POP JUMP JUMPDEST PUSH0 PUSH2 0x1AF DUP3 PUSH2 0x186 JUMP JUMPDEST SWAP1 POP SWAP2 SWAP1 POP JUMP JUMPDEST PUSH2 0x1BF DUP2 PUSH2 0x1A5 JUMP JUMPDEST DUP2 EQ PUSH2 0x1C9 JUMPI PUSH0 PUSH0 REVERT JUMPDEST POP JUMP JUMPDEST PUSH0 DUP2 MLOAD SWAP1 POP PUSH2 0x1DA DUP2 PUSH2 0x1B6 JUMP JUMPDEST SWAP3 SWAP2 POP POP JUMP JUMPDEST PUSH0 DUP2 SWAP1 POP SWAP2 SWAP1 POP JUMP JUMPDEST PUSH2 0x1F2 DUP2 PUSH2 0x1E0 JUMP JUMPDEST DUP2 EQ PUSH2 0x1FC JUMPI PUSH0 PUSH0 REVERT JUMPDEST POP JUMP JUMPDEST PUSH0 DUP2 MLOAD SWAP1 POP PUSH2 0x20D DUP2 PUSH2 0x1E9 JUMP JUMPDEST SWAP3 SWAP2 POP POP JUMP JUMPDEST PUSH0 PUSH0 PUSH1 0x40 DUP4 DUP6 SUB SLT ISZERO PUSH2 0x229 JUMPI PUSH2 0x228 PUSH2 0x182 JUMP JUMPDEST JUMPDEST PUSH0 PUSH2 0x236 DUP6 DUP3 DUP7 ADD PUSH2 0x1CC JUMP JUMPDEST SWAP3 POP POP PUSH1 0x20 PUSH2 0x247 DUP6 DUP3 DUP7 ADD PUSH2 0x1FF JUMP JUMPDEST SWAP2 POP POP SWAP3 POP SWAP3 SWAP1 POP JUMP JUMPDEST PUSH0 DUP3 DUP3 MSTORE PUSH1 0x20 DUP3 ADD SWAP1 POP SWAP3 SWAP2 POP POP JUMP JUMPDEST PUSH32 0x546F6B656E3A207A65726F000000000000000000000000000000000000000000 PUSH0 DUP3 ADD MSTORE POP JUMP JUMPDEST PUSH0 PUSH2 0x295 PUSH1 0xB DUP4 PUSH2 0x251 JUMP JUMPDEST SWAP2 POP PUSH2 0x2A0 DUP3 PUSH2 0x261 JUMP JUMPDEST PUSH1 0x20 DUP3 ADD SWAP1 POP SWAP2 SWAP1 POP JUMP JUMPDEST PUSH0 PUSH1 0x20 DUP3 ADD SWAP1 POP DUP2 DUP2 SUB PUSH0 DUP4 ADD MSTORE PUSH2 0x2C2 DUP2 PUSH2 0x289 JUMP JUMPDEST SWAP1 POP SWAP2 SWAP1 POP JUMP JUMPDEST PUSH32 0x52617465203E2031303025000000000000000000000000000000000000000000 PUSH0 DUP3 ADD MSTORE POP JUMP JUMPDEST PUSH0 PUSH2 0x2FD PUSH1 0xB DUP4 PUSH2 0x251 JUMP JUMPDEST SWAP2 POP PUSH2 0x308 DUP3 PUSH2 0x2C9 JUMP JUMPDEST PUSH1 0x20 DUP3 ADD SWAP1 POP SWAP2 SWAP1 POP JUMP JUMPDEST PUSH0 PUSH1 0x20 DUP3 ADD SWAP1 POP DUP2 DUP2 SUB PUSH0 DUP4 ADD MSTORE PUSH2 0x32A DUP2 PUSH2 0x2F1 JUMP JUMPDEST SWAP1 POP SWAP2 SWAP1 POP JUMP JUMPDEST PUSH1 0x80 MLOAD PUSH2 0x4074 PUSH2 0x365 PUSH0 CODECOPY PUSH0 DUP2 DUP2 PUSH2 0x1517 ADD MSTORE DUP2 DUP2 PUSH2 0x1823 ADD MSTORE DUP2 DUP2 PUSH2 0x1DA7 ADD MSTORE DUP2 DUP2 PUSH2 0x2242 ADD MSTORE PUSH2 0x2522 ADD MSTORE PUSH2 0x4074 PUSH0 RETURN INVALID PUSH1 0x80 PUSH1 0x40 MSTORE CALLVALUE DUP1 ISZERO PUSH2 0xF JUMPI PUSH0 PUSH0 REVERT JUMPDEST POP PUSH1 0x4 CALLDATASIZE LT PUSH2 0x20E JUMPI PUSH0 CALLDATALOAD PUSH1 0xE0 SHR DUP1 PUSH4 0x6241CA79 GT PUSH2 0x123 JUMPI DUP1 PUSH4 0xB02C43D0 GT PUSH2 0xAB JUMPI DUP1 PUSH4 0xDD4824A8 GT PUSH2 0x7A JUMPI DUP1 PUSH4 0xDD4824A8 EQ PUSH2 0x64F JUMPI DUP1 PUSH4 0xE2842D79 EQ PUSH2 0x67F JUMPI DUP1 PUSH4 0xF4F8C847 EQ PUSH2 0x69D JUMPI DUP1 PUSH4 0xF8799E1A EQ PUSH2 0x6BB JUMPI DUP1 PUSH4 0xFE4AB90A EQ PUSH2 0x6D9 JUMPI PUSH2 0x20E JUMP JUMPDEST DUP1 PUSH4 0xB02C43D0 EQ PUSH2 0x5C4 JUMPI DUP1 PUSH4 0xB18E71F2 EQ PUSH2 0x5FB JUMPI DUP1 PUSH4 0xB29A8140 EQ PUSH2 0x617 JUMPI DUP1 PUSH4 0xD3D83445 EQ PUSH2 0x633 JUMPI PUSH2 0x20E JUMP JUMPDEST DUP1 PUSH4 0x9521ABC6 GT PUSH2 0xF2 JUMPI DUP1 PUSH4 0x9521ABC6 EQ PUSH2 0x520 JUMPI DUP1 PUSH4 0x9BE572F6 EQ PUSH2 0x53C JUMPI DUP1 PUSH4 0x9D13FA01 EQ PUSH2 0x55A JUMPI DUP1 PUSH4 0xA2BDEDF4 EQ PUSH2 0x58A JUMPI DUP1 PUSH4 0xA9783CD7 EQ PUSH2 0x5BA JUMPI PUSH2 0x20E JUMP JUMPDEST DUP1 PUSH4 0x6241CA79 EQ PUSH2 0x498 JUMPI DUP1 PUSH4 0x7196D3E2 EQ PUSH2 0x4B4 JUMPI DUP1 PUSH4 0x72F702F3 EQ PUSH2 0x4E4 JUMPI DUP1 PUSH4 0x8DA5CB5B EQ PUSH2 0x502 JUMPI PUSH2 0x20E JUMP JUMPDEST DUP1 PUSH4 0x23B28A54 GT PUSH2 0x1A6 JUMPI DUP1 PUSH4 0x38716003 GT PUSH2 0x175 JUMPI DUP1 PUSH4 0x38716003 EQ PUSH2 0x3CE JUMPI DUP1 PUSH4 0x41AFF23E EQ PUSH2 0x3FE JUMPI DUP1 PUSH4 0x4209FFF1 EQ PUSH2 0x42E JUMPI DUP1 PUSH4 0x4B4D7AA8 EQ PUSH2 0x45E JUMPI DUP1 PUSH4 0x5301731F EQ PUSH2 0x47A JUMPI PUSH2 0x20E JUMP JUMPDEST DUP1 PUSH4 0x23B28A54 EQ PUSH2 0x336 JUMPI DUP1 PUSH4 0x2A5BF6D2 EQ PUSH2 0x352 JUMPI DUP1 PUSH4 0x2E0E3064 EQ PUSH2 0x382 JUMPI DUP1 PUSH4 0x2FFB3D2A EQ PUSH2 0x3B2 JUMPI PUSH2 0x20E JUMP JUMPDEST DUP1 PUSH4 0xF68AE40 GT PUSH2 0x1E2 JUMPI DUP1 PUSH4 0xF68AE40 EQ PUSH2 0x29A JUMPI DUP1 PUSH4 0x168A4822 EQ PUSH2 0x2B6 JUMPI DUP1 PUSH4 0x1BFC7761 EQ PUSH2 0x2D4 JUMPI DUP1 PUSH4 0x1D0205B8 EQ PUSH2 0x304 JUMPI PUSH2 0x20E JUMP JUMPDEST DUP1 PUSH3 0xD6386 EQ PUSH2 0x212 JUMPI DUP1 PUSH4 0x5A163B6 EQ PUSH2 0x230 JUMPI DUP1 PUSH4 0x8804275 EQ PUSH2 0x24C JUMPI DUP1 PUSH4 0x8F43333 EQ PUSH2 0x26A JUMPI JUMPDEST PUSH0 PUSH0 REVERT JUMPDEST PUSH2 0x21A PUSH2 0x6F7 JUMP JUMPDEST PUSH1 0x40 MLOAD PUSH2 0x227 SWAP2 SWAP1 PUSH2 0x2CD1 JUMP JUMPDEST PUSH1 0x40 MLOAD DUP1 SWAP2 SUB SWAP1 RETURN JUMPDEST PUSH2 0x24A PUSH1 0x4 DUP1 CALLDATASIZE SUB DUP2 ADD SWAP1 PUSH2 0x245 SWAP2 SWAP1 PUSH2 0x2D1C JUMP JUMPDEST PUSH2 0x6FD JUMP JUMPDEST STOP JUMPDEST PUSH2 0x254 PUSH2 0xA46 JUMP JUMPDEST PUSH1 0x40 MLOAD PUSH2 0x261 SWAP2 SWAP1 PUSH2 0x2CD1 JUMP JUMPDEST PUSH1 0x40 MLOAD DUP1 SWAP2 SUB SWAP1 RETURN JUMPDEST PUSH2 0x284 PUSH1 0x4 DUP1 CALLDATASIZE SUB DUP2 ADD SWAP1 PUSH2 0x27F SWAP2 SWAP1 PUSH2 0x2DDA JUMP JUMPDEST PUSH2 0xA4C JUMP JUMPDEST PUSH1 0x40 MLOAD PUSH2 0x291 SWAP2 SWAP1 PUSH2 0x2CD1 JUMP JUMPDEST PUSH1 0x40 MLOAD DUP1 SWAP2 SUB SWAP1 RETURN JUMPDEST PUSH2 0x2B4 PUSH1 0x4 DUP1 CALLDATASIZE SUB DUP2 ADD SWAP1 PUSH2 0x2AF SWAP2 SWAP1 PUSH2 0x2E18 JUMP JUMPDEST PUSH2 0xA77 JUMP JUMPDEST STOP JUMPDEST PUSH2 0x2BE PUSH2 0xB10 JUMP JUMPDEST PUSH1 0x40 MLOAD PUSH2 0x2CB SWAP2 SWAP1 PUSH2 0x2CD1 JUMP JUMPDEST PUSH1 0x40 MLOAD DUP1 SWAP2 SUB SWAP1 RETURN JUMPDEST PUSH2 0x2EE PUSH1 0x4 DUP1 CALLDATASIZE SUB DUP2 ADD SWAP1 PUSH2 0x2E9 SWAP2 SWAP1 PUSH2 0x2E18 JUMP JUMPDEST PUSH2 0xB1C JUMP JUMPDEST PUSH1 0x40 MLOAD PUSH2 0x2FB SWAP2 SWAP1 PUSH2 0x2F1B JUMP JUMPDEST PUSH1 0x40 MLOAD DUP1 SWAP2 SUB SWAP1 RETURN JUMPDEST PUSH2 0x31E PUSH1 0x4 DUP1 CALLDATASIZE SUB DUP2 ADD SWAP1 PUSH2 0x319 SWAP2 SWAP1 PUSH2 0x2E18 JUMP JUMPDEST PUSH2 0xC01 JUMP JUMPDEST PUSH1 0x40 MLOAD PUSH2 0x32D SWAP4 SWAP3 SWAP2 SWAP1 PUSH2 0x2F35 JUMP JUMPDEST PUSH1 0x40 MLOAD DUP1 SWAP2 SUB SWAP1 RETURN JUMPDEST PUSH2 0x350 PUSH1 0x4 DUP1 CALLDATASIZE SUB DUP2 ADD SWAP1 PUSH2 0x34B SWAP2 SWAP1 PUSH2 0x2F6A JUMP JUMPDEST PUSH2 0xC36 JUMP JUMPDEST STOP JUMPDEST PUSH2 0x36C PUSH1 0x4 DUP1 CALLDATASIZE SUB DUP2 ADD SWAP1 PUSH2 0x367 SWAP2 SWAP1 PUSH2 0x2FBA JUMP JUMPDEST PUSH2 0xD22 JUMP JUMPDEST PUSH1 0x40 MLOAD PUSH2 0x379 SWAP2 SWAP1 PUSH2 0x308D JUMP JUMPDEST PUSH1 0x40 MLOAD DUP1 SWAP2 SUB SWAP1 RETURN JUMPDEST PUSH2 0x39C PUSH1 0x4 DUP1 CALLDATASIZE SUB DUP2 ADD SWAP1 PUSH2 0x397 SWAP2 SWAP1 PUSH2 0x2E18 JUMP JUMPDEST PUSH2 0xDB5 JUMP JUMPDEST PUSH1 0x40 MLOAD PUSH2 0x3A9 SWAP2 SWAP1 PUSH2 0x2CD1 JUMP JUMPDEST PUSH1 0x40 MLOAD DUP1 SWAP2 SUB SWAP1 RETURN JUMPDEST PUSH2 0x3CC PUSH1 0x4 DUP1 CALLDATASIZE SUB DUP2 ADD SWAP1 PUSH2 0x3C7 SWAP2 SWAP1 PUSH2 0x310E JUMP JUMPDEST PUSH2 0x102C JUMP JUMPDEST STOP JUMPDEST PUSH2 0x3E8 PUSH1 0x4 DUP1 CALLDATASIZE SUB DUP2 ADD SWAP1 PUSH2 0x3E3 SWAP2 SWAP1 PUSH2 0x2E18 JUMP JUMPDEST PUSH2 0x1232 JUMP JUMPDEST PUSH1 0x40 MLOAD PUSH2 0x3F5 SWAP2 SWAP1 PUSH2 0x2CD1 JUMP JUMPDEST PUSH1 0x40 MLOAD DUP1 SWAP2 SUB SWAP1 RETURN JUMPDEST PUSH2 0x418 PUSH1 0x4 DUP1 CALLDATASIZE SUB DUP2 ADD SWAP1 PUSH2 0x413 SWAP2 SWAP1 PUSH2 0x2E18 JUMP JUMPDEST PUSH2 0x1247 JUMP JUMPDEST PUSH1 0x40 MLOAD PUSH2 0x425 SWAP2 SWAP1 PUSH2 0x2CD1 JUMP JUMPDEST PUSH1 0x40 MLOAD DUP1 SWAP2 SUB SWAP1 RETURN JUMPDEST PUSH2 0x448 PUSH1 0x4 DUP1 CALLDATASIZE SUB DUP2 ADD SWAP1 PUSH2 0x443 SWAP2 SWAP1 PUSH2 0x2FBA JUMP JUMPDEST PUSH2 0x125C JUMP JUMPDEST PUSH1 0x40 MLOAD PUSH2 0x455 SWAP2 SWAP1 PUSH2 0x31CD JUMP JUMPDEST PUSH1 0x40 MLOAD DUP1 SWAP2 SUB SWAP1 RETURN JUMPDEST PUSH2 0x478 PUSH1 0x4 DUP1 CALLDATASIZE SUB DUP2 ADD SWAP1 PUSH2 0x473 SWAP2 SWAP1 PUSH2 0x2E18 JUMP JUMPDEST PUSH2 0x1279 JUMP JUMPDEST STOP JUMPDEST PUSH2 0x482 PUSH2 0x1312 JUMP JUMPDEST PUSH1 0x40 MLOAD PUSH2 0x48F SWAP2 SWAP1 PUSH2 0x2CD1 JUMP JUMPDEST PUSH1 0x40 MLOAD DUP1 SWAP2 SUB SWAP1 RETURN JUMPDEST PUSH2 0x4B2 PUSH1 0x4 DUP1 CALLDATASIZE SUB DUP2 ADD SWAP1 PUSH2 0x4AD SWAP2 SWAP1 PUSH2 0x2E18 JUMP JUMPDEST PUSH2 0x1318 JUMP JUMPDEST STOP JUMPDEST PUSH2 0x4CE PUSH1 0x4 DUP1 CALLDATASIZE SUB DUP2 ADD SWAP1 PUSH2 0x4C9 SWAP2 SWAP1 PUSH2 0x2D1C JUMP JUMPDEST PUSH2 0x164F JUMP JUMPDEST PUSH1 0x40 MLOAD PUSH2 0x4DB SWAP2 SWAP1 PUSH2 0x2CD1 JUMP JUMPDEST PUSH1 0x40 MLOAD DUP1 SWAP2 SUB SWAP1 RETURN JUMPDEST PUSH2 0x4EC PUSH2 0x1821 JUMP JUMPDEST PUSH1 0x40 MLOAD PUSH2 0x4F9 SWAP2 SWAP1 PUSH2 0x3241 JUMP JUMPDEST PUSH1 0x40 MLOAD DUP1 SWAP2 SUB SWAP1 RETURN JUMPDEST PUSH2 0x50A PUSH2 0x1845 JUMP JUMPDEST PUSH1 0x40 MLOAD PUSH2 0x517 SWAP2 SWAP1 PUSH2 0x3269 JUMP JUMPDEST PUSH1 0x40 MLOAD DUP1 SWAP2 SUB SWAP1 RETURN JUMPDEST PUSH2 0x53A PUSH1 0x4 DUP1 CALLDATASIZE SUB DUP2 ADD SWAP1 PUSH2 0x535 SWAP2 SWAP1 PUSH2 0x2E18 JUMP JUMPDEST PUSH2 0x186A JUMP JUMPDEST STOP JUMPDEST PUSH2 0x544 PUSH2 0x197F JUMP JUMPDEST PUSH1 0x40 MLOAD PUSH2 0x551 SWAP2 SWAP1 PUSH2 0x2CD1 JUMP JUMPDEST PUSH1 0x40 MLOAD DUP1 SWAP2 SUB SWAP1 RETURN JUMPDEST PUSH2 0x574 PUSH1 0x4 DUP1 CALLDATASIZE SUB DUP2 ADD SWAP1 PUSH2 0x56F SWAP2 SWAP1 PUSH2 0x2E18 JUMP JUMPDEST PUSH2 0x198B JUMP JUMPDEST PUSH1 0x40 MLOAD PUSH2 0x581 SWAP2 SWAP1 PUSH2 0x2CD1 JUMP JUMPDEST PUSH1 0x40 MLOAD DUP1 SWAP2 SUB SWAP1 RETURN JUMPDEST PUSH2 0x5A4 PUSH1 0x4 DUP1 CALLDATASIZE SUB DUP2 ADD SWAP1 PUSH2 0x59F SWAP2 SWAP1 PUSH2 0x2E18 JUMP JUMPDEST PUSH2 0x19A0 JUMP JUMPDEST PUSH1 0x40 MLOAD PUSH2 0x5B1 SWAP2 SWAP1 PUSH2 0x3269 JUMP JUMPDEST PUSH1 0x40 MLOAD DUP1 SWAP2 SUB SWAP1 RETURN JUMPDEST PUSH2 0x5C2 PUSH2 0x19DB JUMP JUMPDEST STOP JUMPDEST PUSH2 0x5DE PUSH1 0x4 DUP1 CALLDATASIZE SUB DUP2 ADD SWAP1 PUSH2 0x5D9 SWAP2 SWAP1 PUSH2 0x2E18 JUMP JUMPDEST PUSH2 0x1BA1 JUMP JUMPDEST PUSH1 0x40 MLOAD PUSH2 0x5F2 SWAP9 SWAP8 SWAP7 SWAP6 SWAP5 SWAP4 SWAP3 SWAP2 SWAP1 PUSH2 0x3282 JUMP JUMPDEST PUSH1 0x40 MLOAD DUP1 SWAP2 SUB SWAP1 RETURN JUMPDEST PUSH2 0x615 PUSH1 0x4 DUP1 CALLDATASIZE SUB DUP2 ADD SWAP1 PUSH2 0x610 SWAP2 SWAP1 PUSH2 0x32FE JUMP JUMPDEST PUSH2 0x1C1F JUMP JUMPDEST STOP JUMPDEST PUSH2 0x631 PUSH1 0x4 DUP1 CALLDATASIZE SUB DUP2 ADD SWAP1 PUSH2 0x62C SWAP2 SWAP1 PUSH2 0x2DDA JUMP JUMPDEST PUSH2 0x21B1 JUMP JUMPDEST STOP JUMPDEST PUSH2 0x64D PUSH1 0x4 DUP1 CALLDATASIZE SUB DUP2 ADD SWAP1 PUSH2 0x648 SWAP2 SWAP1 PUSH2 0x2E18 JUMP JUMPDEST PUSH2 0x23AD JUMP JUMPDEST STOP JUMPDEST PUSH2 0x669 PUSH1 0x4 DUP1 CALLDATASIZE SUB DUP2 ADD SWAP1 PUSH2 0x664 SWAP2 SWAP1 PUSH2 0x2F6A JUMP JUMPDEST PUSH2 0x2666 JUMP JUMPDEST PUSH1 0x40 MLOAD PUSH2 0x676 SWAP2 SWAP1 PUSH2 0x2CD1 JUMP JUMPDEST PUSH1 0x40 MLOAD DUP1 SWAP2 SUB SWAP1 RETURN JUMPDEST PUSH2 0x687 PUSH2 0x2833 JUMP JUMPDEST PUSH1 0x40 MLOAD PUSH2 0x694 SWAP2 SWAP1 PUSH2 0x33E4 JUMP JUMPDEST PUSH1 0x40 MLOAD DUP1 SWAP2 SUB SWAP1 RETURN JUMPDEST PUSH2 0x6A5 PUSH2 0x28BE JUMP JUMPDEST PUSH1 0x40 MLOAD PUSH2 0x6B2 SWAP2 SWAP1 PUSH2 0x2CD1 JUMP JUMPDEST PUSH1 0x40 MLOAD DUP1 SWAP2 SUB SWAP1 RETURN JUMPDEST PUSH2 0x6C3 PUSH2 0x28C4 JUMP JUMPDEST PUSH1 0x40 MLOAD PUSH2 0x6D0 SWAP2 SWAP1 PUSH2 0x2CD1 JUMP JUMPDEST PUSH1 0x40 MLOAD DUP1 SWAP2 SUB SWAP1 RETURN JUMPDEST PUSH2 0x6E1 PUSH2 0x28CA JUMP JUMPDEST PUSH1 0x40 MLOAD PUSH2 0x6EE SWAP2 SWAP1 PUSH2 0x2CD1 JUMP JUMPDEST PUSH1 0x40 MLOAD DUP1 SWAP2 SUB SWAP1 RETURN JUMPDEST PUSH1 0x6 SLOAD DUP2 JUMP JUMPDEST PUSH1 0x1 PUSH0 SWAP1 SLOAD SWAP1 PUSH2 0x100 EXP SWAP1 DIV PUSH20 0xFFFFFFFFFFFFFFFFFFFFFFFFFFFFFFFFFFFFFFFF AND PUSH20 0xFFFFFFFFFFFFFFFFFFFFFFFFFFFFFFFFFFFFFFFF AND CALLER PUSH20 0xFFFFFFFFFFFFFFFFFFFFFFFFFFFFFFFFFFFFFFFF AND EQ PUSH2 0x78C JUMPI PUSH1 0x40 MLOAD PUSH32 0x8C379A000000000000000000000000000000000000000000000000000000000 DUP2 MSTORE PUSH1 0x4 ADD PUSH2 0x783 SWAP1 PUSH2 0x345E JUMP JUMPDEST PUSH1 0x40 MLOAD DUP1 SWAP2 SUB SWAP1 REVERT JUMPDEST PUSH1 0xB DUP1 SLOAD SWAP1 POP DUP5 LT PUSH2 0x7D3 JUMPI PUSH1 0x40 MLOAD PUSH32 0x8C379A000000000000000000000000000000000000000000000000000000000 DUP2 MSTORE PUSH1 0x4 ADD PUSH2 0x7CA SWAP1 PUSH2 0x34C6 JUMP JUMPDEST PUSH1 0x40 MLOAD DUP1 SWAP2 SUB SWAP1 REVERT JUMPDEST DUP2 DUP4 LT PUSH2 0x815 JUMPI PUSH1 0x40 MLOAD PUSH32 0x8C379A000000000000000000000000000000000000000000000000000000000 DUP2 MSTORE PUSH1 0x4 ADD PUSH2 0x80C SWAP1 PUSH2 0x352E JUMP JUMPDEST PUSH1 0x40 MLOAD DUP1 SWAP2 SUB SWAP1 REVERT JUMPDEST PUSH0 DUP2 EQ PUSH2 0x862 JUMPI PUSH2 0x2710 DUP2 GT ISZERO PUSH2 0x861 JUMPI PUSH1 0x40 MLOAD PUSH32 0x8C379A000000000000000000000000000000000000000000000000000000000 DUP2 MSTORE PUSH1 0x4 ADD PUSH2 0x858 SWAP1 PUSH2 0x3596 JUMP JUMPDEST PUSH1 0x40 MLOAD DUP1 SWAP2 SUB SWAP1 REVERT JUMPDEST JUMPDEST TIMESTAMP DUP4 GT PUSH2 0x8A4 JUMPI PUSH1 0x40 MLOAD PUSH32 0x8C379A000000000000000000000000000000000000000000000000000000000 DUP2 MSTORE PUSH1 0x4 ADD PUSH2 0x89B SWAP1 PUSH2 0x35FE JUMP JUMPDEST PUSH1 0x40 MLOAD DUP1 SWAP2 SUB SWAP1 REVERT JUMPDEST PUSH0 DUP5 GT ISZERO PUSH2 0x91F JUMPI PUSH1 0xB PUSH1 0x1 DUP6 PUSH2 0x8BB SWAP2 SWAP1 PUSH2 0x3649 JUMP JUMPDEST DUP2 SLOAD DUP2 LT PUSH2 0x8CC JUMPI PUSH2 0x8CB PUSH2 0x367C JUMP JUMPDEST JUMPDEST SWAP1 PUSH0 MSTORE PUSH1 0x20 PUSH0 KECCAK256 SWAP1 PUSH1 0x3 MUL ADD PUSH1 0x1 ADD SLOAD DUP4 LT ISZERO PUSH2 0x91E JUMPI PUSH1 0x40 MLOAD PUSH32 0x8C379A000000000000000000000000000000000000000000000000000000000 DUP2 MSTORE PUSH1 0x4 ADD PUSH2 0x915 SWAP1 PUSH2 0x36F3 JUMP JUMPDEST PUSH1 0x40 MLOAD DUP1 SWAP2 SUB SWAP1 REVERT JUMPDEST JUMPDEST PUSH1 0xB DUP1 SLOAD SWAP1 POP PUSH1 0x1 DUP6 PUSH2 0x932 SWAP2 SWAP1 PUSH2 0x3711 JUMP JUMPDEST LT ISZERO PUSH2 0x9AA JUMPI PUSH1 0xB PUSH1 0x1 DUP6 PUSH2 0x947 SWAP2 SWAP1 PUSH2 0x3711 JUMP JUMPDEST DUP2 SLOAD DUP2 LT PUSH2 0x958 JUMPI PUSH2 0x957 PUSH2 0x367C JUMP JUMPDEST JUMPDEST SWAP1 PUSH0 MSTORE PUSH1 0x20 PUSH0 KECCAK256 SWAP1 PUSH1 0x3 MUL ADD PUSH0 ADD SLOAD DUP3 GT ISZERO PUSH2 0x9A9 JUMPI PUSH1 0x40 MLOAD PUSH32 0x8C379A000000000000000000000000000000000000000000000000000000000 DUP2 MSTORE PUSH1 0x4 ADD PUSH2 0x9A0 SWAP1 PUSH2 0x378E JUMP JUMPDEST PUSH1 0x40 MLOAD DUP1 SWAP2 SUB SWAP1 REVERT JUMPDEST JUMPDEST PUSH1 0x40 MLOAD DUP1 PUSH1 0x60 ADD PUSH1 0x40 MSTORE DUP1 DUP5 DUP2 MSTORE PUSH1 0x20 ADD DUP4 DUP2 MSTORE PUSH1 0x20 ADD DUP3 DUP2 MSTORE POP PUSH1 0xB DUP6 DUP2 SLOAD DUP2 LT PUSH2 0x9D9 JUMPI PUSH2 0x9D8 PUSH2 0x367C JUMP JUMPDEST JUMPDEST SWAP1 PUSH0 MSTORE PUSH1 0x20 PUSH0 KECCAK256 SWAP1 PUSH1 0x3 MUL ADD PUSH0 DUP3 ADD MLOAD DUP2 PUSH0 ADD SSTORE PUSH1 0x20 DUP3 ADD MLOAD DUP2 PUSH1 0x1 ADD SSTORE PUSH1 0x40 DUP3 ADD MLOAD DUP2 PUSH1 0x2 ADD SSTORE SWAP1 POP POP DUP4 PUSH32 0x68F039AF08C3A62DAE4B7E4244543803DCE43C9C5A2AD9EF05FEA8366F4C8623 DUP5 DUP5 DUP5 PUSH1 0x40 MLOAD PUSH2 0xA38 SWAP4 SWAP3 SWAP2 SWAP1 PUSH2 0x2F35 JUMP JUMPDEST PUSH1 0x40 MLOAD DUP1 SWAP2 SUB SWAP1 LOG2 POP POP POP POP JUMP JUMPDEST PUSH1 0xF SLOAD DUP2 JUMP JUMPDEST PUSH1 0x5 PUSH1 0x20 MSTORE DUP2 PUSH0 MSTORE PUSH1 0x40 PUSH0 KECCAK256 DUP2 DUP2 SLOAD DUP2 LT PUSH2 0xA65 JUMPI PUSH0 DUP1 REVERT JUMPDEST SWAP1 PUSH0 MSTORE PUSH1 0x20 PUSH0 KECCAK256 ADD PUSH0 SWAP2 POP SWAP2 POP POP SLOAD DUP2 JUMP JUMPDEST PUSH1 0x1 PUSH0 SWAP1 SLOAD SWAP1 PUSH2 0x100 EXP SWAP1 DIV PUSH20 0xFFFFFFFFFFFFFFFFFFFFFFFFFFFFFFFFFFFFFFFF AND PUSH20 0xFFFFFFFFFFFFFFFFFFFFFFFFFFFFFFFFFFFFFFFF AND CALLER PUSH20 0xFFFFFFFFFFFFFFFFFFFFFFFFFFFFFFFFFFFFFFFF AND EQ PUSH2 0xB06 JUMPI PUSH1 0x40 MLOAD PUSH32 0x8C379A000000000000000000000000000000000000000000000000000000000 DUP2 MSTORE PUSH1 0x4 ADD PUSH2 0xAFD SWAP1 PUSH2 0x345E JUMP JUMPDEST PUSH1 0x40 MLOAD DUP1 SWAP2 SUB SWAP1 REVERT JUMPDEST DUP1 PUSH1 0xF DUP2 SWAP1 SSTORE POP POP JUMP JUMPDEST PUSH0 PUSH1 0x7 DUP1 SLOAD SWAP1 POP SWAP1 POP SWAP1 JUMP JUMPDEST PUSH2 0xB24 PUSH2 0x2C64 JUMP JUMPDEST PUSH1 0x7 DUP3 DUP2 SLOAD DUP2 LT PUSH2 0xB38 JUMPI PUSH2 0xB37 PUSH2 0x367C JUMP JUMPDEST JUMPDEST SWAP1 PUSH0 MSTORE PUSH1 0x20 PUSH0 KECCAK256 SWAP1 PUSH1 0x8 MUL ADD PUSH1 0x40 MLOAD DUP1 PUSH2 0x100 ADD PUSH1 0x40 MSTORE SWAP1 DUP2 PUSH0 DUP3 ADD PUSH0 SWAP1 SLOAD SWAP1 PUSH2 0x100 EXP SWAP1 DIV PUSH20 0xFFFFFFFFFFFFFFFFFFFFFFFFFFFFFFFFFFFFFFFF AND PUSH20 0xFFFFFFFFFFFFFFFFFFFFFFFFFFFFFFFFFFFFFFFF AND PUSH20 0xFFFFFFFFFFFFFFFFFFFFFFFFFFFFFFFFFFFFFFFF AND DUP2 MSTORE PUSH1 0x20 ADD PUSH1 0x1 DUP3 ADD SLOAD DUP2 MSTORE PUSH1 0x20 ADD PUSH1 0x2 DUP3 ADD SLOAD DUP2 MSTORE PUSH1 0x20 ADD PUSH1 0x3 DUP3 ADD SLOAD DUP2 MSTORE PUSH1 0x20 ADD PUSH1 0x4 DUP3 ADD SLOAD DUP2 MSTORE PUSH1 0x20 ADD PUSH1 0x5 DUP3 ADD SLOAD DUP2 MSTORE PUSH1 0x20 ADD PUSH1 0x6 DUP3 ADD SLOAD DUP2 MSTORE PUSH1 0x20 ADD PUSH1 0x7 DUP3 ADD PUSH0 SWAP1 SLOAD SWAP1 PUSH2 0x100 EXP SWAP1 DIV PUSH1 0xFF AND ISZERO ISZERO ISZERO ISZERO DUP2 MSTORE POP POP SWAP1 POP SWAP2 SWAP1 POP JUMP JUMPDEST PUSH1 0xB DUP2 DUP2 SLOAD DUP2 LT PUSH2 0xC10 JUMPI PUSH0 DUP1 REVERT JUMPDEST SWAP1 PUSH0 MSTORE PUSH1 0x20 PUSH0 KECCAK256 SWAP1 PUSH1 0x3 MUL ADD PUSH0 SWAP2 POP SWAP1 POP DUP1 PUSH0 ADD SLOAD SWAP1 DUP1 PUSH1 0x1 ADD SLOAD SWAP1 DUP1 PUSH1 0x2 ADD SLOAD SWAP1 POP DUP4 JUMP JUMPDEST PUSH1 0x1 PUSH0 SWAP1 SLOAD SWAP1 PUSH2 0x100 EXP SWAP1 DIV PUSH20 0xFFFFFFFFFFFFFFFFFFFFFFFFFFFFFFFFFFFFFFFF AND PUSH20 0xFFFFFFFFFFFFFFFFFFFFFFFFFFFFFFFFFFFFFFFF AND CALLER PUSH20 0xFFFFFFFFFFFFFFFFFFFFFFFFFFFFFFFFFFFFFFFF AND EQ PUSH2 0xCC5 JUMPI PUSH1 0x40 MLOAD PUSH32 0x8C379A000000000000000000000000000000000000000000000000000000000 DUP2 MSTORE PUSH1 0x4 ADD PUSH2 0xCBC SWAP1 PUSH2 0x345E JUMP JUMPDEST PUSH1 0x40 MLOAD DUP1 SWAP2 SUB SWAP1 REVERT JUMPDEST PUSH2 0xCD0 DUP4 DUP4 DUP4 PUSH2 0x28D0 JUMP JUMPDEST PUSH1 0x1 PUSH1 0xB DUP1 SLOAD SWAP1 POP PUSH2 0xCE2 SWAP2 SWAP1 PUSH2 0x3649 JUMP JUMPDEST PUSH32 0x901D51AF3F40466612C7BE89BA349F0B5AA321186BB4DE023367F1CA25ACDCED DUP5 DUP5 DUP5 PUSH1 0x40 MLOAD PUSH2 0xD15 SWAP4 SWAP3 SWAP2 SWAP1 PUSH2 0x2F35 JUMP JUMPDEST PUSH1 0x40 MLOAD DUP1 SWAP2 SUB SWAP1 LOG2 POP POP POP JUMP JUMPDEST PUSH1 0x60 PUSH1 0x5 PUSH0 DUP4 PUSH20 0xFFFFFFFFFFFFFFFFFFFFFFFFFFFFFFFFFFFFFFFF AND PUSH20 0xFFFFFFFFFFFFFFFFFFFFFFFFFFFFFFFFFFFFFFFF AND DUP2 MSTORE PUSH1 0x20 ADD SWAP1 DUP2 MSTORE PUSH1 0x20 ADD PUSH0 KECCAK256 DUP1 SLOAD DUP1 PUSH1 0x20 MUL PUSH1 0x20 ADD PUSH1 0x40 MLOAD SWAP1 DUP2 ADD PUSH1 0x40 MSTORE DUP1 SWAP3 SWAP2 SWAP1 DUP2 DUP2 MSTORE PUSH1 0x20 ADD DUP3 DUP1 SLOAD DUP1 ISZERO PUSH2 0xDA9 JUMPI PUSH1 0x20 MUL DUP3 ADD SWAP2 SWAP1 PUSH0 MSTORE PUSH1 0x20 PUSH0 KECCAK256 SWAP1 JUMPDEST DUP2 SLOAD DUP2 MSTORE PUSH1 0x20 ADD SWAP1 PUSH1 0x1 ADD SWAP1 DUP1 DUP4 GT PUSH2 0xD95 JUMPI JUMPDEST POP POP POP POP POP SWAP1 POP SWAP2 SWAP1 POP JUMP JUMPDEST PUSH0 PUSH0 PUSH1 0x7 DUP4 DUP2 SLOAD DUP2 LT PUSH2 0xDCB JUMPI PUSH2 0xDCA PUSH2 0x367C JUMP JUMPDEST JUMPDEST SWAP1 PUSH0 MSTORE PUSH1 0x20 PUSH0 KECCAK256 SWAP1 PUSH1 0x8 MUL ADD PUSH1 0x40 MLOAD DUP1 PUSH2 0x100 ADD PUSH1 0x40 MSTORE SWAP1 DUP2 PUSH0 DUP3 ADD PUSH0 SWAP1 SLOAD SWAP1 PUSH2 0x100 EXP SWAP1 DIV PUSH20 0xFFFFFFFFFFFFFFFFFFFFFFFFFFFFFFFFFFFFFFFF AND PUSH20 0xFFFFFFFFFFFFFFFFFFFFFFFFFFFFFFFFFFFFFFFF AND PUSH20 0xFFFFFFFFFFFFFFFFFFFFFFFFFFFFFFFFFFFFFFFF AND DUP2 MSTORE PUSH1 0x20 ADD PUSH1 0x1 DUP3 ADD SLOAD DUP2 MSTORE PUSH1 0x20 ADD PUSH1 0x2 DUP3 ADD SLOAD DUP2 MSTORE PUSH1 0x20 ADD PUSH1 0x3 DUP3 ADD SLOAD DUP2 MSTORE PUSH1 0x20 ADD PUSH1 0x4 DUP3 ADD SLOAD DUP2 MSTORE PUSH1 0x20 ADD PUSH1 0x5 DUP3 ADD SLOAD DUP2 MSTORE PUSH1 0x20 ADD PUSH1 0x6 DUP3 ADD SLOAD DUP2 MSTORE PUSH1 0x20 ADD PUSH1 0x7 DUP3 ADD PUSH0 SWAP1 SLOAD SWAP1 PUSH2 0x100 EXP SWAP1 DIV PUSH1 0xFF AND ISZERO ISZERO ISZERO ISZERO DUP2 MSTORE POP POP SWAP1 POP PUSH0 DUP2 PUSH1 0x20 ADD MLOAD EQ DUP1 PUSH2 0xEA3 JUMPI POP DUP1 PUSH1 0xE0 ADD MLOAD ISZERO JUMPDEST ISZERO PUSH2 0xEB1 JUMPI PUSH0 SWAP2 POP POP PUSH2 0x1027 JUMP JUMPDEST PUSH0 DUP2 PUSH1 0xC0 ADD MLOAD SWAP1 POP PUSH0 PUSH2 0xEC4 DUP3 PUSH0 PUSH2 0x2A4A JUMP JUMPDEST SWAP1 POP DUP2 DUP2 GT PUSH2 0xED8 JUMPI PUSH0 SWAP4 POP POP POP POP PUSH2 0x1027 JUMP JUMPDEST PUSH0 PUSH0 SWAP1 POP PUSH0 DUP5 PUSH1 0x20 ADD MLOAD SWAP1 POP PUSH0 DUP5 SWAP1 POP JUMPDEST DUP4 DUP2 LT ISZERO PUSH2 0x101D JUMPI PUSH0 PUSH1 0xB DUP3 DUP2 SLOAD DUP2 LT PUSH2 0xF06 JUMPI PUSH2 0xF05 PUSH2 0x367C JUMP JUMPDEST JUMPDEST SWAP1 PUSH0 MSTORE PUSH1 0x20 PUSH0 KECCAK256 SWAP1 PUSH1 0x3 MUL ADD PUSH1 0x40 MLOAD DUP1 PUSH1 0x60 ADD PUSH1 0x40 MSTORE SWAP1 DUP2 PUSH0 DUP3 ADD SLOAD DUP2 MSTORE PUSH1 0x20 ADD PUSH1 0x1 DUP3 ADD SLOAD DUP2 MSTORE PUSH1 0x20 ADD PUSH1 0x2 DUP3 ADD SLOAD DUP2 MSTORE POP POP SWAP1 POP PUSH0 PUSH2 0xF46 DUP4 PUSH2 0x2AAE JUMP JUMPDEST SWAP1 POP PUSH0 PUSH2 0x2710 DUP3 DUP7 PUSH2 0xF58 SWAP2 SWAP1 PUSH2 0x37AC JUMP JUMPDEST PUSH2 0xF62 SWAP2 SWAP1 PUSH2 0x381A JUMP JUMPDEST SWAP1 POP DUP9 PUSH1 0x40 ADD MLOAD DUP5 SUB PUSH2 0xFFD JUMPI PUSH0 DUP4 PUSH0 ADD MLOAD SWAP1 POP PUSH0 DUP5 PUSH1 0x20 ADD MLOAD SWAP1 POP PUSH0 DUP3 DUP3 PUSH2 0xF8B SWAP2 SWAP1 PUSH2 0x3649 JUMP JUMPDEST SWAP1 POP PUSH0 DUP4 DUP14 PUSH1 0x60 ADD MLOAD GT PUSH2 0xF9F JUMPI DUP4 PUSH2 0xFA5 JUMP JUMPDEST DUP13 PUSH1 0x60 ADD MLOAD JUMPDEST SWAP1 POP PUSH0 DUP4 SWAP1 POP DUP1 DUP3 LT PUSH2 0xFBF JUMPI POP POP POP POP POP POP POP POP PUSH2 0x1010 JUMP JUMPDEST PUSH0 DUP3 DUP3 PUSH2 0xFCC SWAP2 SWAP1 PUSH2 0x3649 JUMP JUMPDEST SWAP1 POP DUP4 DUP2 DUP9 PUSH2 0xFDB SWAP2 SWAP1 PUSH2 0x37AC JUMP JUMPDEST PUSH2 0xFE5 SWAP2 SWAP1 PUSH2 0x381A JUMP JUMPDEST DUP13 PUSH2 0xFF0 SWAP2 SWAP1 PUSH2 0x3711 JUMP JUMPDEST SWAP12 POP POP POP POP POP POP POP PUSH2 0x100C JUMP JUMPDEST DUP1 DUP7 PUSH2 0x1009 SWAP2 SWAP1 PUSH2 0x3711 JUMP JUMPDEST SWAP6 POP JUMPDEST POP POP POP JUMPDEST DUP1 DUP1 PUSH1 0x1 ADD SWAP2 POP POP PUSH2 0xEE9 JUMP JUMPDEST POP DUP2 SWAP6 POP POP POP POP POP POP JUMPDEST SWAP2 SWAP1 POP JUMP JUMPDEST PUSH1 0x1 PUSH0 SWAP1 SLOAD SWAP1 PUSH2 0x100 EXP SWAP1 DIV PUSH20 0xFFFFFFFFFFFFFFFFFFFFFFFFFFFFFFFFFFFFFFFF AND PUSH20 0xFFFFFFFFFFFFFFFFFFFFFFFFFFFFFFFFFFFFFFFF AND CALLER PUSH20 0xFFFFFFFFFFFFFFFFFFFFFFFFFFFFFFFFFFFFFFFF AND EQ PUSH2 0x10BB JUMPI PUSH1 0x40 MLOAD PUSH32 0x8C379A000000000000000000000000000000000000000000000000000000000 DUP2 MSTORE PUSH1 0x4 ADD PUSH2 0x10B2 SWAP1 PUSH2 0x345E JUMP JUMPDEST PUSH1 0x40 MLOAD DUP1 SWAP2 SUB SWAP1 REVERT JUMPDEST DUP4 DUP4 SWAP1 POP DUP7 DUP7 SWAP1 POP EQ DUP1 ISZERO PUSH2 0x10D5 JUMPI POP DUP2 DUP2 SWAP1 POP DUP7 DUP7 SWAP1 POP EQ JUMPDEST PUSH2 0x1114 JUMPI PUSH1 0x40 MLOAD PUSH32 0x8C379A000000000000000000000000000000000000000000000000000000000 DUP2 MSTORE PUSH1 0x4 ADD PUSH2 0x110B SWAP1 PUSH2 0x3894 JUMP JUMPDEST PUSH1 0x40 MLOAD DUP1 SWAP2 SUB SWAP1 REVERT JUMPDEST PUSH0 DUP7 DUP7 SWAP1 POP GT PUSH2 0x1159 JUMPI PUSH1 0x40 MLOAD PUSH32 0x8C379A000000000000000000000000000000000000000000000000000000000 DUP2 MSTORE PUSH1 0x4 ADD PUSH2 0x1150 SWAP1 PUSH2 0x38FC JUMP JUMPDEST PUSH1 0x40 MLOAD DUP1 SWAP2 SUB SWAP1 REVERT JUMPDEST PUSH0 PUSH0 SWAP1 POP JUMPDEST DUP7 DUP7 SWAP1 POP DUP2 LT ISZERO PUSH2 0x11CC JUMPI PUSH2 0x11BF DUP8 DUP8 DUP4 DUP2 DUP2 LT PUSH2 0x117F JUMPI PUSH2 0x117E PUSH2 0x367C JUMP JUMPDEST JUMPDEST SWAP1 POP PUSH1 0x20 MUL ADD CALLDATALOAD DUP7 DUP7 DUP5 DUP2 DUP2 LT PUSH2 0x1199 JUMPI PUSH2 0x1198 PUSH2 0x367C JUMP JUMPDEST JUMPDEST SWAP1 POP PUSH1 0x20 MUL ADD CALLDATALOAD DUP6 DUP6 DUP6 DUP2 DUP2 LT PUSH2 0x11B3 JUMPI PUSH2 0x11B2 PUSH2 0x367C JUMP JUMPDEST JUMPDEST SWAP1 POP PUSH1 0x20 MUL ADD CALLDATALOAD PUSH2 0x28D0 JUMP JUMPDEST DUP1 DUP1 PUSH1 0x1 ADD SWAP2 POP POP PUSH2 0x115E JUMP JUMPDEST POP PUSH32 0xAB080E234EBAB87937F1D48C107ECB8AB6361D9012A0670705E920B9CFFE1011 DUP7 DUP7 SWAP1 POP PUSH1 0xB DUP1 SLOAD SWAP1 POP PUSH2 0x1202 SWAP2 SWAP1 PUSH2 0x3649 JUMP JUMPDEST PUSH1 0x1 PUSH1 0xB DUP1 SLOAD SWAP1 POP PUSH2 0x1214 SWAP2 SWAP1 PUSH2 0x3649 JUMP JUMPDEST PUSH1 0x40 MLOAD PUSH2 0x1222 SWAP3 SWAP2 SWAP1 PUSH2 0x391A JUMP JUMPDEST PUSH1 0x40 MLOAD DUP1 SWAP2 SUB SWAP1 LOG1 POP POP POP POP POP POP JUMP JUMPDEST PUSH1 0xA PUSH1 0x20 MSTORE DUP1 PUSH0 MSTORE PUSH1 0x40 PUSH0 KECCAK256 PUSH0 SWAP2 POP SWAP1 POP SLOAD DUP2 JUMP JUMPDEST PUSH1 0xC PUSH1 0x20 MSTORE DUP1 PUSH0 MSTORE PUSH1 0x40 PUSH0 KECCAK256 PUSH0 SWAP2 POP SWAP1 POP SLOAD DUP2 JUMP JUMPDEST PUSH1 0x4 PUSH1 0x20 MSTORE DUP1 PUSH0 MSTORE PUSH1 0x40 PUSH0 KECCAK256 PUSH0 SWAP2 POP SLOAD SWAP1 PUSH2 0x100 EXP SWAP1 DIV PUSH1 0xFF AND DUP2 JUMP JUMPDEST PUSH1 0x1 PUSH0 SWAP1 SLOAD SWAP1 PUSH2 0x100 EXP SWAP1 DIV PUSH20 0xFFFFFFFFFFFFFFFFFFFFFFFFFFFFFFFFFFFFFFFF AND PUSH20 0xFFFFFFFFFFFFFFFFFFFFFFFFFFFFFFFFFFFFFFFF AND CALLER PUSH20 0xFFFFFFFFFFFFFFFFFFFFFFFFFFFFFFFFFFFFFFFF AND EQ PUSH2 0x1308 JUMPI PUSH1 0x40 MLOAD PUSH32 0x8C379A000000000000000000000000000000000000000000000000000000000 DUP2 MSTORE PUSH1 0x4 ADD PUSH2 0x12FF SWAP1 PUSH2 0x345E JUMP JUMPDEST PUSH1 0x40 MLOAD DUP1 SWAP2 SUB SWAP1 REVERT JUMPDEST DUP1 PUSH1 0xE DUP2 SWAP1 SSTORE POP POP JUMP JUMPDEST PUSH1 0x8 SLOAD DUP2 JUMP JUMPDEST PUSH2 0x1320 PUSH2 0x2AEF JUMP JUMPDEST PUSH0 PUSH1 0x7 DUP3 DUP2 SLOAD DUP2 LT PUSH2 0x1335 JUMPI PUSH2 0x1334 PUSH2 0x367C JUMP JUMPDEST JUMPDEST SWAP1 PUSH0 MSTORE PUSH1 0x20 PUSH0 KECCAK256 SWAP1 PUSH1 0x8 MUL ADD SWAP1 POP DUP1 PUSH1 0x7 ADD PUSH0 SWAP1 SLOAD SWAP1 PUSH2 0x100 EXP SWAP1 DIV PUSH1 0xFF AND PUSH2 0x1393 JUMPI PUSH1 0x40 MLOAD PUSH32 0x8C379A000000000000000000000000000000000000000000000000000000000 DUP2 MSTORE PUSH1 0x4 ADD PUSH2 0x138A SWAP1 PUSH2 0x398B JUMP JUMPDEST PUSH1 0x40 MLOAD DUP1 SWAP2 SUB SWAP1 REVERT JUMPDEST CALLER PUSH20 0xFFFFFFFFFFFFFFFFFFFFFFFFFFFFFFFFFFFFFFFF AND DUP2 PUSH0 ADD PUSH0 SWAP1 SLOAD SWAP1 PUSH2 0x100 EXP SWAP1 DIV PUSH20 0xFFFFFFFFFFFFFFFFFFFFFFFFFFFFFFFFFFFFFFFF AND PUSH20 0xFFFFFFFFFFFFFFFFFFFFFFFFFFFFFFFFFFFFFFFF AND EQ PUSH2 0x1423 JUMPI PUSH1 0x40 MLOAD PUSH32 0x8C379A000000000000000000000000000000000000000000000000000000000 DUP2 MSTORE PUSH1 0x4 ADD PUSH2 0x141A SWAP1 PUSH2 0x39F3 JUMP JUMPDEST PUSH1 0x40 MLOAD DUP1 SWAP2 SUB SWAP1 REVERT JUMPDEST PUSH0 PUSH2 0x142C PUSH2 0x2B33 JUMP JUMPDEST SWAP1 POP DUP2 PUSH1 0x5 ADD SLOAD DUP2 LT ISZERO PUSH2 0x1475 JUMPI PUSH1 0x40 MLOAD PUSH32 0x8C379A000000000000000000000000000000000000000000000000000000000 DUP2 MSTORE PUSH1 0x4 ADD PUSH2 0x146C SWAP1 PUSH2 0x3A5B JUMP JUMPDEST PUSH1 0x40 MLOAD DUP1 SWAP2 SUB SWAP1 REVERT JUMPDEST PUSH0 PUSH2 0x147F DUP5 PUSH2 0xDB5 JUMP JUMPDEST SWAP1 POP PUSH0 DUP2 DUP5 PUSH1 0x1 ADD SLOAD PUSH2 0x1492 SWAP2 SWAP1 PUSH2 0x3711 JUMP JUMPDEST SWAP1 POP DUP4 PUSH1 0x1 ADD SLOAD PUSH1 0x9 PUSH0 DUP3 DUP3 SLOAD PUSH2 0x14A9 SWAP2 SWAP1 PUSH2 0x3649 JUMP JUMPDEST SWAP3 POP POP DUP2 SWAP1 SSTORE POP PUSH0 DUP5 PUSH1 0x1 ADD DUP2 SWAP1 SSTORE POP PUSH0 DUP5 PUSH1 0x7 ADD PUSH0 PUSH2 0x100 EXP DUP2 SLOAD DUP2 PUSH1 0xFF MUL NOT AND SWAP1 DUP4 ISZERO ISZERO MUL OR SWAP1 SSTORE POP TIMESTAMP DUP5 PUSH1 0x4 ADD DUP2 SWAP1 SSTORE POP PUSH0 PUSH2 0x14EC DUP6 PUSH1 0x6 ADD SLOAD PUSH0 PUSH2 0x2A4A JUMP JUMPDEST SWAP1 POP DUP1 DUP6 PUSH1 0x6 ADD DUP2 SWAP1 SSTORE POP DUP4 PUSH1 0x6 DUP2 SWAP1 SSTORE POP PUSH1 0x8 PUSH0 DUP2 SLOAD DUP1 SWAP3 SWAP2 SWAP1 PUSH2 0x1510 SWAP1 PUSH2 0x3A79 JUMP JUMPDEST SWAP2 SWAP1 POP SSTORE POP PUSH32 0x0 PUSH20 0xFFFFFFFFFFFFFFFFFFFFFFFFFFFFFFFFFFFFFFFF AND PUSH4 0xA9059CBB CALLER DUP5 PUSH1 0x40 MLOAD DUP4 PUSH4 0xFFFFFFFF AND PUSH1 0xE0 SHL DUP2 MSTORE PUSH1 0x4 ADD PUSH2 0x1570 SWAP3 SWAP2 SWAP1 PUSH2 0x3AA0 JUMP JUMPDEST PUSH1 0x20 PUSH1 0x40 MLOAD DUP1 DUP4 SUB DUP2 PUSH0 DUP8 GAS CALL ISZERO DUP1 ISZERO PUSH2 0x158C JUMPI RETURNDATASIZE PUSH0 PUSH0 RETURNDATACOPY RETURNDATASIZE PUSH0 REVERT JUMPDEST POP POP POP POP PUSH1 0x40 MLOAD RETURNDATASIZE PUSH1 0x1F NOT PUSH1 0x1F DUP3 ADD AND DUP3 ADD DUP1 PUSH1 0x40 MSTORE POP DUP2 ADD SWAP1 PUSH2 0x15B0 SWAP2 SWAP1 PUSH2 0x3AF1 JUMP JUMPDEST PUSH2 0x15EF JUMPI PUSH1 0x40 MLOAD PUSH32 0x8C379A000000000000000000000000000000000000000000000000000000000 DUP2 MSTORE PUSH1 0x4 ADD PUSH2 0x15E6 SWAP1 PUSH2 0x3B66 JUMP JUMPDEST PUSH1 0x40 MLOAD DUP1 SWAP2 SUB SWAP1 REVERT JUMPDEST CALLER PUSH20 0xFFFFFFFFFFFFFFFFFFFFFFFFFFFFFFFFFFFFFFFF AND PUSH32 0x217EA3989B9D3112D2133A930216F444B7FBCAEAA4D5BC0220D099FDC928E71E DUP8 DUP5 PUSH1 0x40 MLOAD PUSH2 0x1637 SWAP3 SWAP2 SWAP1 PUSH2 0x391A JUMP JUMPDEST PUSH1 0x40 MLOAD DUP1 SWAP2 SUB SWAP1 LOG2 POP POP POP POP POP PUSH2 0x164C PUSH2 0x2BCA JUMP JUMPDEST POP JUMP JUMPDEST PUSH0 PUSH0 DUP6 EQ DUP1 PUSH2 0x165D JUMPI POP PUSH0 DUP4 EQ JUMPDEST DUP1 PUSH2 0x166D JUMPI POP PUSH1 0xB DUP1 SLOAD SWAP1 POP DUP5 LT ISZERO JUMPDEST ISZERO PUSH2 0x167A JUMPI PUSH0 SWAP1 POP PUSH2 0x1819 JUMP JUMPDEST PUSH0 DUP4 DUP6 PUSH2 0x1687 SWAP2 SWAP1 PUSH2 0x3711 JUMP JUMPDEST SWAP1 POP PUSH1 0xB DUP1 SLOAD SWAP1 POP DUP2 GT ISZERO PUSH2 0x16AF JUMPI PUSH1 0xB DUP1 SLOAD SWAP1 POP SWAP1 POP DUP5 DUP2 GT PUSH2 0x16AE JUMPI PUSH0 SWAP2 POP POP PUSH2 0x1819 JUMP JUMPDEST JUMPDEST PUSH0 DUP4 SUB PUSH2 0x16BA JUMPI TIMESTAMP SWAP3 POP JUMPDEST PUSH0 DUP2 SWAP1 POP PUSH0 PUSH0 SWAP1 POP PUSH0 DUP8 SWAP1 POP JUMPDEST DUP3 DUP2 LT ISZERO PUSH2 0x1811 JUMPI PUSH1 0xB DUP1 SLOAD SWAP1 POP DUP2 LT ISZERO PUSH2 0x1811 JUMPI PUSH0 PUSH1 0xB DUP3 DUP2 SLOAD DUP2 LT PUSH2 0x16F1 JUMPI PUSH2 0x16F0 PUSH2 0x367C JUMP JUMPDEST JUMPDEST SWAP1 PUSH0 MSTORE PUSH1 0x20 PUSH0 KECCAK256 SWAP1 PUSH1 0x3 MUL ADD PUSH1 0x40 MLOAD DUP1 PUSH1 0x60 ADD PUSH1 0x40 MSTORE SWAP1 DUP2 PUSH0 DUP3 ADD SLOAD DUP2 MSTORE PUSH1 0x20 ADD PUSH1 0x1 DUP3 ADD SLOAD DUP2 MSTORE PUSH1 0x20 ADD PUSH1 0x2 DUP3 ADD SLOAD DUP2 MSTORE POP POP SWAP1 POP PUSH0 PUSH2 0x1731 DUP4 PUSH2 0x2AAE JUMP JUMPDEST SWAP1 POP PUSH0 PUSH2 0x2710 DUP3 DUP14 PUSH2 0x1743 SWAP2 SWAP1 PUSH2 0x37AC JUMP JUMPDEST PUSH2 0x174D SWAP2 SWAP1 PUSH2 0x381A JUMP JUMPDEST SWAP1 POP DUP11 DUP5 SUB PUSH2 0x17F1 JUMPI PUSH0 DUP4 PUSH0 ADD MLOAD SWAP1 POP PUSH0 DUP5 PUSH1 0x20 ADD MLOAD SWAP1 POP PUSH0 DUP3 DUP3 PUSH2 0x1772 SWAP2 SWAP1 PUSH2 0x3649 JUMP JUMPDEST SWAP1 POP PUSH0 DUP4 DUP14 GT PUSH2 0x1782 JUMPI DUP4 PUSH2 0x1784 JUMP JUMPDEST DUP13 JUMPDEST SWAP1 POP PUSH0 DUP4 SWAP1 POP DUP1 DUP3 LT PUSH2 0x179E JUMPI POP POP POP POP POP POP POP POP PUSH2 0x1804 JUMP JUMPDEST PUSH0 DUP3 DUP3 PUSH2 0x17AB SWAP2 SWAP1 PUSH2 0x3649 JUMP JUMPDEST SWAP1 POP PUSH0 DUP5 SUB PUSH2 0x17C2 JUMPI POP POP POP POP POP POP POP POP POP PUSH2 0x1804 JUMP JUMPDEST DUP4 DUP2 DUP9 PUSH2 0x17CF SWAP2 SWAP1 PUSH2 0x37AC JUMP JUMPDEST PUSH2 0x17D9 SWAP2 SWAP1 PUSH2 0x381A JUMP JUMPDEST DUP12 PUSH2 0x17E4 SWAP2 SWAP1 PUSH2 0x3711 JUMP JUMPDEST SWAP11 POP POP POP POP POP POP POP PUSH2 0x1800 JUMP JUMPDEST DUP1 DUP6 PUSH2 0x17FD SWAP2 SWAP1 PUSH2 0x3711 JUMP JUMPDEST SWAP5 POP JUMPDEST POP POP POP JUMPDEST DUP1 DUP1 PUSH1 0x1 ADD SWAP2 POP POP PUSH2 0x16C7 JUMP JUMPDEST POP DUP1 SWAP4 POP POP POP POP JUMPDEST SWAP5 SWAP4 POP POP POP POP JUMP JUMPDEST PUSH32 0x0 DUP2 JUMP JUMPDEST PUSH1 0x1 PUSH0 SWAP1 SLOAD SWAP1 PUSH2 0x100 EXP SWAP1 DIV PUSH20 0xFFFFFFFFFFFFFFFFFFFFFFFFFFFFFFFFFFFFFFFF AND DUP2 JUMP JUMPDEST PUSH1 0x1 PUSH0 SWAP1 SLOAD SWAP1 PUSH2 0x100 EXP SWAP1 DIV PUSH20 0xFFFFFFFFFFFFFFFFFFFFFFFFFFFFFFFFFFFFFFFF AND PUSH20 0xFFFFFFFFFFFFFFFFFFFFFFFFFFFFFFFFFFFFFFFF AND CALLER PUSH20 0xFFFFFFFFFFFFFFFFFFFFFFFFFFFFFFFFFFFFFFFF AND EQ PUSH2 0x18F9 JUMPI PUSH1 0x40 MLOAD PUSH32 0x8C379A000000000000000000000000000000000000000000000000000000000 DUP2 MSTORE PUSH1 0x4 ADD PUSH2 0x18F0 SWAP1 PUSH2 0x345E JUMP JUMPDEST PUSH1 0x40 MLOAD DUP1 SWAP2 SUB SWAP1 REVERT JUMPDEST PUSH2 0x2710 DUP2 GT ISZERO PUSH2 0x193E JUMPI PUSH1 0x40 MLOAD PUSH32 0x8C379A000000000000000000000000000000000000000000000000000000000 DUP2 MSTORE PUSH1 0x4 ADD PUSH2 0x1935 SWAP1 PUSH2 0x3596 JUMP JUMPDEST PUSH1 0x40 MLOAD DUP1 SWAP2 SUB SWAP1 REVERT JUMPDEST DUP1 PUSH1 0x2 DUP2 SWAP1 SSTORE POP PUSH32 0x71CA8C1A2BC00717637FB3E9D048DA574B351106CFCF0832E2DFE20F4E633DCF DUP2 PUSH1 0x40 MLOAD PUSH2 0x1974 SWAP2 SWAP1 PUSH2 0x2CD1 JUMP JUMPDEST PUSH1 0x40 MLOAD DUP1 SWAP2 SUB SWAP1 LOG1 POP JUMP JUMPDEST PUSH0 PUSH1 0x3 DUP1 SLOAD SWAP1 POP SWAP1 POP SWAP1 JUMP JUMPDEST PUSH1 0xD PUSH1 0x20 MSTORE DUP1 PUSH0 MSTORE PUSH1 0x40 PUSH0 KECCAK256 PUSH0 SWAP2 POP SWAP1 POP SLOAD DUP2 JUMP JUMPDEST PUSH1 0x3 DUP2 DUP2 SLOAD DUP2 LT PUSH2 0x19AF JUMPI PUSH0 DUP1 REVERT JUMPDEST SWAP1 PUSH0 MSTORE PUSH1 0x20 PUSH0 KECCAK256 ADD PUSH0 SWAP2 POP SLOAD SWAP1 PUSH2 0x100 EXP SWAP1 DIV PUSH20 0xFFFFFFFFFFFFFFFFFFFFFFFFFFFFFFFFFFFFFFFF AND DUP2 JUMP JUMPDEST PUSH1 0x1 PUSH0 SWAP1 SLOAD SWAP1 PUSH2 0x100 EXP SWAP1 DIV PUSH20 0xFFFFFFFFFFFFFFFFFFFFFFFFFFFFFFFFFFFFFFFF AND PUSH20 0xFFFFFFFFFFFFFFFFFFFFFFFFFFFFFFFFFFFFFFFF AND CALLER PUSH20 0xFFFFFFFFFFFFFFFFFFFFFFFFFFFFFFFFFFFFFFFF AND EQ PUSH2 0x1A6A JUMPI PUSH1 0x40 MLOAD PUSH32 0x8C379A000000000000000000000000000000000000000000000000000000000 DUP2 MSTORE PUSH1 0x4 ADD PUSH2 0x1A61 SWAP1 PUSH2 0x345E JUMP JUMPDEST PUSH1 0x40 MLOAD DUP1 SWAP2 SUB SWAP1 REVERT JUMPDEST PUSH0 PUSH1 0xB DUP1 SLOAD SWAP1 POP GT PUSH2 0x1AB1 JUMPI PUSH1 0x40 MLOAD PUSH32 0x8C379A000000000000000000000000000000000000000000000000000000000 DUP2 MSTORE PUSH1 0x4 ADD PUSH2 0x1AA8 SWAP1 PUSH2 0x3BCE JUMP JUMPDEST PUSH1 0x40 MLOAD DUP1 SWAP2 SUB SWAP1 REVERT JUMPDEST TIMESTAMP PUSH1 0xB PUSH1 0x1 PUSH1 0xB DUP1 SLOAD SWAP1 POP PUSH2 0x1AC6 SWAP2 SWAP1 PUSH2 0x3649 JUMP JUMPDEST DUP2 SLOAD DUP2 LT PUSH2 0x1AD7 JUMPI PUSH2 0x1AD6 PUSH2 0x367C JUMP JUMPDEST JUMPDEST SWAP1 PUSH0 MSTORE PUSH1 0x20 PUSH0 KECCAK256 SWAP1 PUSH1 0x3 MUL ADD PUSH0 ADD SLOAD GT PUSH2 0x1B26 JUMPI PUSH1 0x40 MLOAD PUSH32 0x8C379A000000000000000000000000000000000000000000000000000000000 DUP2 MSTORE PUSH1 0x4 ADD PUSH2 0x1B1D SWAP1 PUSH2 0x35FE JUMP JUMPDEST PUSH1 0x40 MLOAD DUP1 SWAP2 SUB SWAP1 REVERT JUMPDEST PUSH1 0xB DUP1 SLOAD DUP1 PUSH2 0x1B38 JUMPI PUSH2 0x1B37 PUSH2 0x3BEC JUMP JUMPDEST JUMPDEST PUSH1 0x1 SWAP1 SUB DUP2 DUP2 SWAP1 PUSH0 MSTORE PUSH1 0x20 PUSH0 KECCAK256 SWAP1 PUSH1 0x3 MUL ADD PUSH0 PUSH0 DUP3 ADD PUSH0 SWAP1 SSTORE PUSH1 0x1 DUP3 ADD PUSH0 SWAP1 SSTORE PUSH1 0x2 DUP3 ADD PUSH0 SWAP1 SSTORE POP POP SWAP1 SSTORE PUSH32 0xD84BA012185E6B11C267BBF53304405446699FDED2A2A85C6C6523D2CD3FD790 PUSH1 0xB DUP1 SLOAD SWAP1 POP PUSH1 0x40 MLOAD PUSH2 0x1B97 SWAP2 SWAP1 PUSH2 0x2CD1 JUMP JUMPDEST PUSH1 0x40 MLOAD DUP1 SWAP2 SUB SWAP1 LOG1 JUMP JUMPDEST PUSH1 0x7 DUP2 DUP2 SLOAD DUP2 LT PUSH2 0x1BB0 JUMPI PUSH0 DUP1 REVERT JUMPDEST SWAP1 PUSH0 MSTORE PUSH1 0x20 PUSH0 KECCAK256 SWAP1 PUSH1 0x8 MUL ADD PUSH0 SWAP2 POP SWAP1 POP DUP1 PUSH0 ADD PUSH0 SWAP1 SLOAD SWAP1 PUSH2 0x100 EXP SWAP1 DIV PUSH20 0xFFFFFFFFFFFFFFFFFFFFFFFFFFFFFFFFFFFFFFFF AND SWAP1 DUP1 PUSH1 0x1 ADD SLOAD SWAP1 DUP1 PUSH1 0x2 ADD SLOAD SWAP1 DUP1 PUSH1 0x3 ADD SLOAD SWAP1 DUP1 PUSH1 0x4 ADD SLOAD SWAP1 DUP1 PUSH1 0x5 ADD SLOAD SWAP1 DUP1 PUSH1 0x6 ADD SLOAD SWAP1 DUP1 PUSH1 0x7 ADD PUSH0 SWAP1 SLOAD SWAP1 PUSH2 0x100 EXP SWAP1 DIV PUSH1 0xFF AND SWAP1 POP DUP9 JUMP JUMPDEST PUSH2 0x1C27 PUSH2 0x2AEF JUMP JUMPDEST PUSH1 0xF SLOAD DUP3 LT ISZERO PUSH2 0x1C6C JUMPI PUSH1 0x40 MLOAD PUSH32 0x8C379A000000000000000000000000000000000000000000000000000000000 DUP2 MSTORE PUSH1 0x4 ADD PUSH2 0x1C63 SWAP1 PUSH2 0x3C63 JUMP JUMPDEST PUSH1 0x40 MLOAD DUP1 SWAP2 SUB SWAP1 REVERT JUMPDEST PUSH1 0xE SLOAD DUP2 LT ISZERO PUSH2 0x1CB1 JUMPI PUSH1 0x40 MLOAD PUSH32 0x8C379A000000000000000000000000000000000000000000000000000000000 DUP2 MSTORE PUSH1 0x4 ADD PUSH2 0x1CA8 SWAP1 PUSH2 0x3CCB JUMP JUMPDEST PUSH1 0x40 MLOAD DUP1 SWAP2 SUB SWAP1 REVERT JUMPDEST PUSH0 PUSH1 0xB DUP1 SLOAD SWAP1 POP GT PUSH2 0x1CF8 JUMPI PUSH1 0x40 MLOAD PUSH32 0x8C379A000000000000000000000000000000000000000000000000000000000 DUP2 MSTORE PUSH1 0x4 ADD PUSH2 0x1CEF SWAP1 PUSH2 0x3D33 JUMP JUMPDEST PUSH1 0x40 MLOAD DUP1 SWAP2 SUB SWAP1 REVERT JUMPDEST PUSH0 PUSH2 0x1D01 PUSH2 0x2B33 JUMP JUMPDEST SWAP1 POP PUSH1 0xB DUP1 SLOAD SWAP1 POP DUP2 LT PUSH2 0x1D4A JUMPI PUSH1 0x40 MLOAD PUSH32 0x8C379A000000000000000000000000000000000000000000000000000000000 DUP2 MSTORE PUSH1 0x4 ADD PUSH2 0x1D41 SWAP1 PUSH2 0x3D9B JUMP JUMPDEST PUSH1 0x40 MLOAD DUP1 SWAP2 SUB SWAP1 REVERT JUMPDEST PUSH0 DUP3 DUP3 PUSH2 0x1D57 SWAP2 SWAP1 PUSH2 0x3711 JUMP JUMPDEST SWAP1 POP PUSH1 0xB DUP1 SLOAD SWAP1 POP DUP2 GT ISZERO PUSH2 0x1DA1 JUMPI PUSH1 0x40 MLOAD PUSH32 0x8C379A000000000000000000000000000000000000000000000000000000000 DUP2 MSTORE PUSH1 0x4 ADD PUSH2 0x1D98 SWAP1 PUSH2 0x3E29 JUMP JUMPDEST PUSH1 0x40 MLOAD DUP1 SWAP2 SUB SWAP1 REVERT JUMPDEST PUSH0 CALLER SWAP1 POP PUSH32 0x0 PUSH20 0xFFFFFFFFFFFFFFFFFFFFFFFFFFFFFFFFFFFFFFFF AND PUSH4 0x23B872DD DUP3 ADDRESS DUP9 PUSH1 0x40 MLOAD DUP5 PUSH4 0xFFFFFFFF AND PUSH1 0xE0 SHL DUP2 MSTORE PUSH1 0x4 ADD PUSH2 0x1E02 SWAP4 SWAP3 SWAP2 SWAP1 PUSH2 0x3E47 JUMP JUMPDEST PUSH1 0x20 PUSH1 0x40 MLOAD DUP1 DUP4 SUB DUP2 PUSH0 DUP8 GAS CALL ISZERO DUP1 ISZERO PUSH2 0x1E1E JUMPI RETURNDATASIZE PUSH0 PUSH0 RETURNDATACOPY RETURNDATASIZE PUSH0 REVERT JUMPDEST POP POP POP POP PUSH1 0x40 MLOAD RETURNDATASIZE PUSH1 0x1F NOT PUSH1 0x1F DUP3 ADD AND DUP3 ADD DUP1 PUSH1 0x40 MSTORE POP DUP2 ADD SWAP1 PUSH2 0x1E42 SWAP2 SWAP1 PUSH2 0x3AF1 JUMP JUMPDEST PUSH2 0x1E81 JUMPI PUSH1 0x40 MLOAD PUSH32 0x8C379A000000000000000000000000000000000000000000000000000000000 DUP2 MSTORE PUSH1 0x4 ADD PUSH2 0x1E78 SWAP1 PUSH2 0x3B66 JUMP JUMPDEST PUSH1 0x40 MLOAD DUP1 SWAP2 SUB SWAP1 REVERT JUMPDEST PUSH1 0x4 PUSH0 DUP3 PUSH20 0xFFFFFFFFFFFFFFFFFFFFFFFFFFFFFFFFFFFFFFFF AND PUSH20 0xFFFFFFFFFFFFFFFFFFFFFFFFFFFFFFFFFFFFFFFF AND DUP2 MSTORE PUSH1 0x20 ADD SWAP1 DUP2 MSTORE PUSH1 0x20 ADD PUSH0 KECCAK256 PUSH0 SWAP1 SLOAD SWAP1 PUSH2 0x100 EXP SWAP1 DIV PUSH1 0xFF AND PUSH2 0x1F85 JUMPI PUSH1 0x1 PUSH1 0x4 PUSH0 DUP4 PUSH20 0xFFFFFFFFFFFFFFFFFFFFFFFFFFFFFFFFFFFFFFFF AND PUSH20 0xFFFFFFFFFFFFFFFFFFFFFFFFFFFFFFFFFFFFFFFF AND DUP2 MSTORE PUSH1 0x20 ADD SWAP1 DUP2 MSTORE PUSH1 0x20 ADD PUSH0 KECCAK256 PUSH0 PUSH2 0x100 EXP DUP2 SLOAD DUP2 PUSH1 0xFF MUL NOT AND SWAP1 DUP4 ISZERO ISZERO MUL OR SWAP1 SSTORE POP PUSH1 0x3 DUP2 SWAP1 DUP1 PUSH1 0x1 DUP2 SLOAD ADD DUP1 DUP3 SSTORE DUP1 SWAP2 POP POP PUSH1 0x1 SWAP1 SUB SWAP1 PUSH0 MSTORE PUSH1 0x20 PUSH0 KECCAK256 ADD PUSH0 SWAP1 SWAP2 SWAP1 SWAP2 SWAP1 SWAP2 PUSH2 0x100 EXP DUP2 SLOAD DUP2 PUSH20 0xFFFFFFFFFFFFFFFFFFFFFFFFFFFFFFFFFFFFFFFF MUL NOT AND SWAP1 DUP4 PUSH20 0xFFFFFFFFFFFFFFFFFFFFFFFFFFFFFFFFFFFFFFFF AND MUL OR SWAP1 SSTORE POP JUMPDEST PUSH1 0x7 PUSH1 0x40 MLOAD DUP1 PUSH2 0x100 ADD PUSH1 0x40 MSTORE DUP1 DUP4 PUSH20 0xFFFFFFFFFFFFFFFFFFFFFFFFFFFFFFFFFFFFFFFF AND DUP2 MSTORE PUSH1 0x20 ADD DUP8 DUP2 MSTORE PUSH1 0x20 ADD DUP6 DUP2 MSTORE PUSH1 0x20 ADD TIMESTAMP DUP2 MSTORE PUSH1 0x20 ADD PUSH0 DUP2 MSTORE PUSH1 0x20 ADD DUP5 DUP2 MSTORE PUSH1 0x20 ADD DUP6 DUP2 MSTORE PUSH1 0x20 ADD PUSH1 0x1 ISZERO ISZERO DUP2 MSTORE POP SWAP1 DUP1 PUSH1 0x1 DUP2 SLOAD ADD DUP1 DUP3 SSTORE DUP1 SWAP2 POP POP PUSH1 0x1 SWAP1 SUB SWAP1 PUSH0 MSTORE PUSH1 0x20 PUSH0 KECCAK256 SWAP1 PUSH1 0x8 MUL ADD PUSH0 SWAP1 SWAP2 SWAP1 SWAP2 SWAP1 SWAP2 POP PUSH0 DUP3 ADD MLOAD DUP2 PUSH0 ADD PUSH0 PUSH2 0x100 EXP DUP2 SLOAD DUP2 PUSH20 0xFFFFFFFFFFFFFFFFFFFFFFFFFFFFFFFFFFFFFFFF MUL NOT AND SWAP1 DUP4 PUSH20 0xFFFFFFFFFFFFFFFFFFFFFFFFFFFFFFFFFFFFFFFF AND MUL OR SWAP1 SSTORE POP PUSH1 0x20 DUP3 ADD MLOAD DUP2 PUSH1 0x1 ADD SSTORE PUSH1 0x40 DUP3 ADD MLOAD DUP2 PUSH1 0x2 ADD SSTORE PUSH1 0x60 DUP3 ADD MLOAD DUP2 PUSH1 0x3 ADD SSTORE PUSH1 0x80 DUP3 ADD MLOAD DUP2 PUSH1 0x4 ADD SSTORE PUSH1 0xA0 DUP3 ADD MLOAD DUP2 PUSH1 0x5 ADD SSTORE PUSH1 0xC0 DUP3 ADD MLOAD DUP2 PUSH1 0x6 ADD SSTORE PUSH1 0xE0 DUP3 ADD MLOAD DUP2 PUSH1 0x7 ADD PUSH0 PUSH2 0x100 EXP DUP2 SLOAD DUP2 PUSH1 0xFF MUL NOT AND SWAP1 DUP4 ISZERO ISZERO MUL OR SWAP1 SSTORE POP POP POP PUSH0 PUSH1 0x1 PUSH1 0x7 DUP1 SLOAD SWAP1 POP PUSH2 0x20B4 SWAP2 SWAP1 PUSH2 0x3649 JUMP JUMPDEST SWAP1 POP PUSH1 0x5 PUSH0 DUP4 PUSH20 0xFFFFFFFFFFFFFFFFFFFFFFFFFFFFFFFFFFFFFFFF AND PUSH20 0xFFFFFFFFFFFFFFFFFFFFFFFFFFFFFFFFFFFFFFFF AND DUP2 MSTORE PUSH1 0x20 ADD SWAP1 DUP2 MSTORE PUSH1 0x20 ADD PUSH0 KECCAK256 DUP2 SWAP1 DUP1 PUSH1 0x1 DUP2 SLOAD ADD DUP1 DUP3 SSTORE DUP1 SWAP2 POP POP PUSH1 0x1 SWAP1 SUB SWAP1 PUSH0 MSTORE PUSH1 0x20 PUSH0 KECCAK256 ADD PUSH0 SWAP1 SWAP2 SWAP1 SWAP2 SWAP1 SWAP2 POP SSTORE DUP4 PUSH1 0x6 DUP2 SWAP1 SSTORE POP DUP6 PUSH1 0x9 PUSH0 DUP3 DUP3 SLOAD PUSH2 0x212F SWAP2 SWAP1 PUSH2 0x3711 JUMP JUMPDEST SWAP3 POP POP DUP2 SWAP1 SSTORE POP PUSH1 0x8 PUSH0 DUP2 SLOAD DUP1 SWAP3 SWAP2 SWAP1 PUSH2 0x2148 SWAP1 PUSH2 0x3E7C JUMP JUMPDEST SWAP2 SWAP1 POP SSTORE POP DUP2 PUSH20 0xFFFFFFFFFFFFFFFFFFFFFFFFFFFFFFFFFFFFFFFF AND PUSH32 0x554F20505671494900B631B0E443E9E7A59743EC9889B05E28D8AC9EA158266B DUP3 DUP9 DUP9 DUP8 PUSH1 0x40 MLOAD PUSH2 0x2199 SWAP5 SWAP4 SWAP3 SWAP2 SWAP1 PUSH2 0x3EC3 JUMP JUMPDEST PUSH1 0x40 MLOAD DUP1 SWAP2 SUB SWAP1 LOG2 POP POP POP POP PUSH2 0x21AD PUSH2 0x2BCA JUMP JUMPDEST POP POP JUMP JUMPDEST PUSH1 0x1 PUSH0 SWAP1 SLOAD SWAP1 PUSH2 0x100 EXP SWAP1 DIV PUSH20 0xFFFFFFFFFFFFFFFFFFFFFFFFFFFFFFFFFFFFFFFF AND PUSH20 0xFFFFFFFFFFFFFFFFFFFFFFFFFFFFFFFFFFFFFFFF AND CALLER PUSH20 0xFFFFFFFFFFFFFFFFFFFFFFFFFFFFFFFFFFFFFFFF AND EQ PUSH2 0x2240 JUMPI PUSH1 0x40 MLOAD PUSH32 0x8C379A000000000000000000000000000000000000000000000000000000000 DUP2 MSTORE PUSH1 0x4 ADD PUSH2 0x2237 SWAP1 PUSH2 0x345E JUMP JUMPDEST PUSH1 0x40 MLOAD DUP1 SWAP2 SUB SWAP1 REVERT JUMPDEST PUSH32 0x0 PUSH20 0xFFFFFFFFFFFFFFFFFFFFFFFFFFFFFFFFFFFFFFFF AND DUP3 PUSH20 0xFFFFFFFFFFFFFFFFFFFFFFFFFFFFFFFFFFFFFFFF AND SUB PUSH2 0x22CE JUMPI PUSH1 0x40 MLOAD PUSH32 0x8C379A000000000000000000000000000000000000000000000000000000000 DUP2 MSTORE PUSH1 0x4 ADD PUSH2 0x22C5 SWAP1 PUSH2 0x3F50 JUMP JUMPDEST PUSH1 0x40 MLOAD DUP1 SWAP2 SUB SWAP1 REVERT JUMPDEST DUP2 PUSH20 0xFFFFFFFFFFFFFFFFFFFFFFFFFFFFFFFFFFFFFFFF AND PUSH4 0xA9059CBB PUSH1 0x1 PUSH0 SWAP1 SLOAD SWAP1 PUSH2 0x100 EXP SWAP1 DIV PUSH20 0xFFFFFFFFFFFFFFFFFFFFFFFFFFFFFFFFFFFFFFFF AND DUP4 PUSH1 0x40 MLOAD DUP4 PUSH4 0xFFFFFFFF AND PUSH1 0xE0 SHL DUP2 MSTORE PUSH1 0x4 ADD PUSH2 0x232A SWAP3 SWAP2 SWAP1 PUSH2 0x3AA0 JUMP JUMPDEST PUSH1 0x20 PUSH1 0x40 MLOAD DUP1 DUP4 SUB DUP2 PUSH0 DUP8 GAS CALL ISZERO DUP1 ISZERO PUSH2 0x2346 JUMPI RETURNDATASIZE PUSH0 PUSH0 RETURNDATACOPY RETURNDATASIZE PUSH0 REVERT JUMPDEST POP POP POP POP PUSH1 0x40 MLOAD RETURNDATASIZE PUSH1 0x1F NOT PUSH1 0x1F DUP3 ADD AND DUP3 ADD DUP1 PUSH1 0x40 MSTORE POP DUP2 ADD SWAP1 PUSH2 0x236A SWAP2 SWAP1 PUSH2 0x3AF1 JUMP JUMPDEST PUSH2 0x23A9 JUMPI PUSH1 0x40 MLOAD PUSH32 0x8C379A000000000000000000000000000000000000000000000000000000000 DUP2 MSTORE PUSH1 0x4 ADD PUSH2 0x23A0 SWAP1 PUSH2 0x3FB8 JUMP JUMPDEST PUSH1 0x40 MLOAD DUP1 SWAP2 SUB SWAP1 REVERT JUMPDEST POP POP JUMP JUMPDEST PUSH2 0x23B5 PUSH2 0x2AEF JUMP JUMPDEST PUSH0 PUSH1 0x7 DUP3 DUP2 SLOAD DUP2 LT PUSH2 0x23CA JUMPI PUSH2 0x23C9 PUSH2 0x367C JUMP JUMPDEST JUMPDEST SWAP1 PUSH0 MSTORE PUSH1 0x20 PUSH0 KECCAK256 SWAP1 PUSH1 0x8 MUL ADD SWAP1 POP DUP1 PUSH1 0x7 ADD PUSH0 SWAP1 SLOAD SWAP1 PUSH2 0x100 EXP SWAP1 DIV PUSH1 0xFF AND PUSH2 0x2428 JUMPI PUSH1 0x40 MLOAD PUSH32 0x8C379A000000000000000000000000000000000000000000000000000000000 DUP2 MSTORE PUSH1 0x4 ADD PUSH2 0x241F SWAP1 PUSH2 0x398B JUMP JUMPDEST PUSH1 0x40 MLOAD DUP1 SWAP2 SUB SWAP1 REVERT JUMPDEST CALLER PUSH20 0xFFFFFFFFFFFFFFFFFFFFFFFFFFFFFFFFFFFFFFFF AND DUP2 PUSH0 ADD PUSH0 SWAP1 SLOAD SWAP1 PUSH2 0x100 EXP SWAP1 DIV PUSH20 0xFFFFFFFFFFFFFFFFFFFFFFFFFFFFFFFFFFFFFFFF AND PUSH20 0xFFFFFFFFFFFFFFFFFFFFFFFFFFFFFFFFFFFFFFFF AND EQ PUSH2 0x24B8 JUMPI PUSH1 0x40 MLOAD PUSH32 0x8C379A000000000000000000000000000000000000000000000000000000000 DUP2 MSTORE PUSH1 0x4 ADD PUSH2 0x24AF SWAP1 PUSH2 0x39F3 JUMP JUMPDEST PUSH1 0x40 MLOAD DUP1 SWAP2 SUB SWAP1 REVERT JUMPDEST PUSH0 PUSH2 0x24C2 DUP4 PUSH2 0xDB5 JUMP JUMPDEST SWAP1 POP PUSH0 DUP2 GT PUSH2 0x2506 JUMPI PUSH1 0x40 MLOAD PUSH32 0x8C379A000000000000000000000000000000000000000000000000000000000 DUP2 MSTORE PUSH1 0x4 ADD PUSH2 0x24FD SWAP1 PUSH2 0x4020 JUMP JUMPDEST PUSH1 0x40 MLOAD DUP1 SWAP2 SUB SWAP1 REVERT JUMPDEST PUSH0 PUSH2 0x2515 DUP4 PUSH1 0x6 ADD SLOAD PUSH0 PUSH2 0x2A4A JUMP JUMPDEST SWAP1 POP DUP1 DUP4 PUSH1 0x6 ADD DUP2 SWAP1 SSTORE POP PUSH32 0x0 PUSH20 0xFFFFFFFFFFFFFFFFFFFFFFFFFFFFFFFFFFFFFFFF AND PUSH4 0xA9059CBB CALLER DUP5 PUSH1 0x40 MLOAD DUP4 PUSH4 0xFFFFFFFF AND PUSH1 0xE0 SHL DUP2 MSTORE PUSH1 0x4 ADD PUSH2 0x257B SWAP3 SWAP2 SWAP1 PUSH2 0x3AA0 JUMP JUMPDEST PUSH1 0x20 PUSH1 0x40 MLOAD DUP1 DUP4 SUB DUP2 PUSH0 DUP8 GAS CALL ISZERO DUP1 ISZERO PUSH2 0x2597 JUMPI RETURNDATASIZE PUSH0 PUSH0 RETURNDATACOPY RETURNDATASIZE PUSH0 REVERT JUMPDEST POP POP POP POP PUSH1 0x40 MLOAD RETURNDATASIZE PUSH1 0x1F NOT PUSH1 0x1F DUP3 ADD AND DUP3 ADD DUP1 PUSH1 0x40 MSTORE POP DUP2 ADD SWAP1 PUSH2 0x25BB SWAP2 SWAP1 PUSH2 0x3AF1 JUMP JUMPDEST PUSH2 0x25FA JUMPI PUSH1 0x40 MLOAD PUSH32 0x8C379A000000000000000000000000000000000000000000000000000000000 DUP2 MSTORE PUSH1 0x4 ADD PUSH2 0x25F1 SWAP1 PUSH2 0x3B66 JUMP JUMPDEST PUSH1 0x40 MLOAD DUP1 SWAP2 SUB SWAP1 REVERT JUMPDEST PUSH2 0x2602 PUSH2 0x2B33 JUMP JUMPDEST PUSH1 0x6 DUP2 SWAP1 SSTORE POP CALLER PUSH20 0xFFFFFFFFFFFFFFFFFFFFFFFFFFFFFFFFFFFFFFFF AND PUSH32 0xFA73D3AB3A92ED3F2B694757D8E4B2F3C293654B11B9C79111F8971F861B22B2 DUP6 DUP5 PUSH1 0x40 MLOAD PUSH2 0x2650 SWAP3 SWAP2 SWAP1 PUSH2 0x391A JUMP JUMPDEST PUSH1 0x40 MLOAD DUP1 SWAP2 SUB SWAP1 LOG2 POP POP POP PUSH2 0x2663 PUSH2 0x2BCA JUMP JUMPDEST POP JUMP JUMPDEST PUSH0 PUSH0 DUP5 EQ DUP1 PUSH2 0x2674 JUMPI POP PUSH0 DUP4 EQ JUMPDEST ISZERO PUSH2 0x2681 JUMPI PUSH0 SWAP1 POP PUSH2 0x282C JUMP JUMPDEST PUSH0 DUP3 SUB PUSH2 0x268C JUMPI TIMESTAMP SWAP2 POP JUMPDEST PUSH0 PUSH2 0x2696 DUP4 PUSH2 0x2BD3 JUMP JUMPDEST SWAP1 POP PUSH1 0xB DUP1 SLOAD SWAP1 POP DUP2 LT PUSH2 0x26AD JUMPI PUSH0 SWAP2 POP POP PUSH2 0x282C JUMP JUMPDEST PUSH0 DUP5 DUP3 PUSH2 0x26BA SWAP2 SWAP1 PUSH2 0x3711 JUMP JUMPDEST SWAP1 POP PUSH1 0xB DUP1 SLOAD SWAP1 POP DUP2 GT ISZERO PUSH2 0x26D2 JUMPI PUSH1 0xB DUP1 SLOAD SWAP1 POP SWAP1 POP JUMPDEST DUP2 DUP2 GT PUSH2 0x26E3 JUMPI PUSH0 SWAP3 POP POP POP PUSH2 0x282C JUMP JUMPDEST PUSH0 PUSH0 SWAP1 POP PUSH0 DUP4 SWAP1 POP JUMPDEST DUP3 DUP2 LT ISZERO PUSH2 0x2824 JUMPI PUSH0 PUSH1 0xB DUP3 DUP2 SLOAD DUP2 LT PUSH2 0x2709 JUMPI PUSH2 0x2708 PUSH2 0x367C JUMP JUMPDEST JUMPDEST SWAP1 PUSH0 MSTORE PUSH1 0x20 PUSH0 KECCAK256 SWAP1 PUSH1 0x3 MUL ADD PUSH1 0x40 MLOAD DUP1 PUSH1 0x60 ADD PUSH1 0x40 MSTORE SWAP1 DUP2 PUSH0 DUP3 ADD SLOAD DUP2 MSTORE PUSH1 0x20 ADD PUSH1 0x1 DUP3 ADD SLOAD DUP2 MSTORE PUSH1 0x20 ADD PUSH1 0x2 DUP3 ADD SLOAD DUP2 MSTORE POP POP SWAP1 POP PUSH0 PUSH2 0x2749 DUP4 PUSH2 0x2AAE JUMP JUMPDEST SWAP1 POP PUSH0 PUSH2 0x2710 DUP3 DUP13 PUSH2 0x275B SWAP2 SWAP1 PUSH2 0x37AC JUMP JUMPDEST PUSH2 0x2765 SWAP2 SWAP1 PUSH2 0x381A JUMP JUMPDEST SWAP1 POP DUP7 DUP5 SUB PUSH2 0x2804 JUMPI PUSH0 DUP4 PUSH0 ADD MLOAD DUP11 GT PUSH2 0x2782 JUMPI DUP4 PUSH0 ADD MLOAD PUSH2 0x2784 JUMP JUMPDEST DUP10 JUMPDEST SWAP1 POP PUSH0 DUP5 PUSH1 0x20 ADD MLOAD SWAP1 POP DUP1 DUP3 LT PUSH2 0x279F JUMPI POP POP POP POP POP PUSH2 0x2817 JUMP JUMPDEST PUSH0 DUP3 DUP3 PUSH2 0x27AC SWAP2 SWAP1 PUSH2 0x3649 JUMP JUMPDEST SWAP1 POP PUSH0 DUP7 PUSH0 ADD MLOAD DUP8 PUSH1 0x20 ADD MLOAD PUSH2 0x27C2 SWAP2 SWAP1 PUSH2 0x3649 JUMP JUMPDEST SWAP1 POP PUSH0 DUP2 SUB PUSH2 0x27D7 JUMPI POP POP POP POP POP POP POP PUSH2 0x2817 JUMP JUMPDEST DUP1 DUP3 DUP7 PUSH2 0x27E4 SWAP2 SWAP1 PUSH2 0x37AC JUMP JUMPDEST PUSH2 0x27EE SWAP2 SWAP1 PUSH2 0x381A JUMP JUMPDEST DUP10 PUSH2 0x27F9 SWAP2 SWAP1 PUSH2 0x3711 JUMP JUMPDEST SWAP9 POP POP POP POP POP PUSH2 0x2813 JUMP JUMPDEST DUP1 DUP6 PUSH2 0x2810 SWAP2 SWAP1 PUSH2 0x3711 JUMP JUMPDEST SWAP5 POP JUMPDEST POP POP POP JUMPDEST DUP1 DUP1 PUSH1 0x1 ADD SWAP2 POP POP PUSH2 0x26EC JUMP JUMPDEST POP DUP1 SWAP4 POP POP POP POP JUMPDEST SWAP4 SWAP3 POP POP POP JUMP JUMPDEST PUSH1 0x60 PUSH1 0x3 DUP1 SLOAD DUP1 PUSH1 0x20 MUL PUSH1 0x20 ADD PUSH1 0x40 MLOAD SWAP1 DUP2 ADD PUSH1 0x40 MSTORE DUP1 SWAP3 SWAP2 SWAP1 DUP2 DUP2 MSTORE PUSH1 0x20 ADD DUP3 DUP1 SLOAD DUP1 ISZERO PUSH2 0x28B4 JUMPI PUSH1 0x20 MUL DUP3 ADD SWAP2 SWAP1 PUSH0 MSTORE PUSH1 0x20 PUSH0 KECCAK256 SWAP1 JUMPDEST DUP2 PUSH0 SWAP1 SLOAD SWAP1 PUSH2 0x100 EXP SWAP1 DIV PUSH20 0xFFFFFFFFFFFFFFFFFFFFFFFFFFFFFFFFFFFFFFFF AND PUSH20 0xFFFFFFFFFFFFFFFFFFFFFFFFFFFFFFFFFFFFFFFF AND DUP2 MSTORE PUSH1 0x20 ADD SWAP1 PUSH1 0x1 ADD SWAP1 DUP1 DUP4 GT PUSH2 0x286B JUMPI JUMPDEST POP POP POP POP POP SWAP1 POP SWAP1 JUMP JUMPDEST PUSH1 0x2 SLOAD DUP2 JUMP JUMPDEST PUSH1 0xE SLOAD DUP2 JUMP JUMPDEST PUSH1 0x9 SLOAD DUP2 JUMP JUMPDEST DUP2 DUP4 LT PUSH2 0x2912 JUMPI PUSH1 0x40 MLOAD PUSH32 0x8C379A000000000000000000000000000000000000000000000000000000000 DUP2 MSTORE PUSH1 0x4 ADD PUSH2 0x2909 SWAP1 PUSH2 0x352E JUMP JUMPDEST PUSH1 0x40 MLOAD DUP1 SWAP2 SUB SWAP1 REVERT JUMPDEST PUSH0 DUP2 EQ PUSH2 0x295F JUMPI PUSH2 0x2710 DUP2 GT ISZERO PUSH2 0x295E JUMPI PUSH1 0x40 MLOAD PUSH32 0x8C379A000000000000000000000000000000000000000000000000000000000 DUP2 MSTORE PUSH1 0x4 ADD PUSH2 0x2955 SWAP1 PUSH2 0x3596 JUMP JUMPDEST PUSH1 0x40 MLOAD DUP1 SWAP2 SUB SWAP1 REVERT JUMPDEST JUMPDEST PUSH0 PUSH1 0xB DUP1 SLOAD SWAP1 POP GT ISZERO PUSH2 0x29E4 JUMPI PUSH1 0xB PUSH1 0x1 PUSH1 0xB DUP1 SLOAD SWAP1 POP PUSH2 0x2980 SWAP2 SWAP1 PUSH2 0x3649 JUMP JUMPDEST DUP2 SLOAD DUP2 LT PUSH2 0x2991 JUMPI PUSH2 0x2990 PUSH2 0x367C JUMP JUMPDEST JUMPDEST SWAP1 PUSH0 MSTORE PUSH1 0x20 PUSH0 KECCAK256 SWAP1 PUSH1 0x3 MUL ADD PUSH1 0x1 ADD SLOAD DUP4 LT ISZERO PUSH2 0x29E3 JUMPI PUSH1 0x40 MLOAD PUSH32 0x8C379A000000000000000000000000000000000000000000000000000000000 DUP2 MSTORE PUSH1 0x4 ADD PUSH2 0x29DA SWAP1 PUSH2 0x36F3 JUMP JUMPDEST PUSH1 0x40 MLOAD DUP1 SWAP2 SUB SWAP1 REVERT JUMPDEST JUMPDEST PUSH1 0xB PUSH1 0x40 MLOAD DUP1 PUSH1 0x60 ADD PUSH1 0x40 MSTORE DUP1 DUP6 DUP2 MSTORE PUSH1 0x20 ADD DUP5 DUP2 MSTORE PUSH1 0x20 ADD DUP4 DUP2 MSTORE POP SWAP1 DUP1 PUSH1 0x1 DUP2 SLOAD ADD DUP1 DUP3 SSTORE DUP1 SWAP2 POP POP PUSH1 0x1 SWAP1 SUB SWAP1 PUSH0 MSTORE PUSH1 0x20 PUSH0 KECCAK256 SWAP1 PUSH1 0x3 MUL ADD PUSH0 SWAP1 SWAP2 SWAP1 SWAP2 SWAP1 SWAP2 POP PUSH0 DUP3 ADD MLOAD DUP2 PUSH0 ADD SSTORE PUSH1 0x20 DUP3 ADD MLOAD DUP2 PUSH1 0x1 ADD SSTORE PUSH1 0x40 DUP3 ADD MLOAD DUP2 PUSH1 0x2 ADD SSTORE POP POP POP POP POP JUMP JUMPDEST PUSH0 PUSH0 DUP3 SUB PUSH2 0x2A56 JUMPI TIMESTAMP SWAP2 POP JUMPDEST PUSH0 DUP4 SWAP1 POP JUMPDEST PUSH1 0xB DUP1 SLOAD SWAP1 POP DUP2 LT DUP1 ISZERO PUSH2 0x2A92 JUMPI POP DUP3 PUSH1 0xB DUP3 DUP2 SLOAD DUP2 LT PUSH2 0x2A7F JUMPI PUSH2 0x2A7E PUSH2 0x367C JUMP JUMPDEST JUMPDEST SWAP1 PUSH0 MSTORE PUSH1 0x20 PUSH0 KECCAK256 SWAP1 PUSH1 0x3 MUL ADD PUSH1 0x1 ADD SLOAD GT ISZERO JUMPDEST ISZERO PUSH2 0x2AA4 JUMPI DUP1 DUP1 PUSH1 0x1 ADD SWAP2 POP POP PUSH2 0x2A5B JUMP JUMPDEST DUP1 SWAP2 POP POP SWAP3 SWAP2 POP POP JUMP JUMPDEST PUSH0 PUSH0 PUSH1 0xB DUP4 DUP2 SLOAD DUP2 LT PUSH2 0x2AC4 JUMPI PUSH2 0x2AC3 PUSH2 0x367C JUMP JUMPDEST JUMPDEST SWAP1 PUSH0 MSTORE PUSH1 0x20 PUSH0 KECCAK256 SWAP1 PUSH1 0x3 MUL ADD PUSH1 0x2 ADD SLOAD SWAP1 POP PUSH0 DUP2 EQ PUSH2 0x2AE3 JUMPI DUP1 PUSH2 0x2AE7 JUMP JUMPDEST PUSH1 0x2 SLOAD JUMPDEST SWAP2 POP POP SWAP2 SWAP1 POP JUMP JUMPDEST PUSH1 0x2 PUSH0 SLOAD SUB PUSH2 0x2B2A JUMPI PUSH1 0x40 MLOAD PUSH32 0x3EE5AEB500000000000000000000000000000000000000000000000000000000 DUP2 MSTORE PUSH1 0x4 ADD PUSH1 0x40 MLOAD DUP1 SWAP2 SUB SWAP1 REVERT JUMPDEST PUSH1 0x2 PUSH0 DUP2 SWAP1 SSTORE POP JUMP JUMPDEST PUSH0 PUSH0 TIMESTAMP SWAP1 POP PUSH0 PUSH1 0x6 SLOAD SWAP1 POP JUMPDEST PUSH1 0xB DUP1 SLOAD SWAP1 POP DUP2 LT ISZERO PUSH2 0x2BBC JUMPI PUSH1 0xB DUP2 DUP2 SLOAD DUP2 LT PUSH2 0x2B60 JUMPI PUSH2 0x2B5F PUSH2 0x367C JUMP JUMPDEST JUMPDEST SWAP1 PUSH0 MSTORE PUSH1 0x20 PUSH0 KECCAK256 SWAP1 PUSH1 0x3 MUL ADD PUSH0 ADD SLOAD DUP3 LT ISZERO DUP1 ISZERO PUSH2 0x2BA0 JUMPI POP PUSH1 0xB DUP2 DUP2 SLOAD DUP2 LT PUSH2 0x2B8D JUMPI PUSH2 0x2B8C PUSH2 0x367C JUMP JUMPDEST JUMPDEST SWAP1 PUSH0 MSTORE PUSH1 0x20 PUSH0 KECCAK256 SWAP1 PUSH1 0x3 MUL ADD PUSH1 0x1 ADD SLOAD DUP3 LT JUMPDEST ISZERO PUSH2 0x2BAF JUMPI DUP1 SWAP3 POP POP POP PUSH2 0x2BC7 JUMP JUMPDEST DUP1 DUP1 PUSH1 0x1 ADD SWAP2 POP POP PUSH2 0x2B3F JUMP JUMPDEST POP PUSH1 0xB DUP1 SLOAD SWAP1 POP SWAP2 POP POP JUMPDEST SWAP1 JUMP JUMPDEST PUSH1 0x1 PUSH0 DUP2 SWAP1 SSTORE POP JUMP JUMPDEST PUSH0 PUSH0 PUSH0 SWAP1 POP JUMPDEST PUSH1 0xB DUP1 SLOAD SWAP1 POP DUP2 LT ISZERO PUSH2 0x2C55 JUMPI PUSH1 0xB DUP2 DUP2 SLOAD DUP2 LT PUSH2 0x2BFA JUMPI PUSH2 0x2BF9 PUSH2 0x367C JUMP JUMPDEST JUMPDEST SWAP1 PUSH0 MSTORE PUSH1 0x20 PUSH0 KECCAK256 SWAP1 PUSH1 0x3 MUL ADD PUSH0 ADD SLOAD DUP4 LT ISZERO DUP1 ISZERO PUSH2 0x2C3A JUMPI POP PUSH1 0xB DUP2 DUP2 SLOAD DUP2 LT PUSH2 0x2C27 JUMPI PUSH2 0x2C26 PUSH2 0x367C JUMP JUMPDEST JUMPDEST SWAP1 PUSH0 MSTORE PUSH1 0x20 PUSH0 KECCAK256 SWAP1 PUSH1 0x3 MUL ADD PUSH1 0x1 ADD SLOAD DUP4 LT JUMPDEST ISZERO PUSH2 0x2C48 JUMPI DUP1 SWAP2 POP POP PUSH2 0x2C5F JUMP JUMPDEST DUP1 DUP1 PUSH1 0x1 ADD SWAP2 POP POP PUSH2 0x2BD9 JUMP JUMPDEST POP PUSH1 0xB DUP1 SLOAD SWAP1 POP SWAP1 POP JUMPDEST SWAP2 SWAP1 POP JUMP JUMPDEST PUSH1 0x40 MLOAD DUP1 PUSH2 0x100 ADD PUSH1 0x40 MSTORE DUP1 PUSH0 PUSH20 0xFFFFFFFFFFFFFFFFFFFFFFFFFFFFFFFFFFFFFFFF AND DUP2 MSTORE PUSH1 0x20 ADD PUSH0 DUP2 MSTORE PUSH1 0x20 ADD PUSH0 DUP2 MSTORE PUSH1 0x20 ADD PUSH0 DUP2 MSTORE PUSH1 0x20 ADD PUSH0 DUP2 MSTORE PUSH1 0x20 ADD PUSH0 DUP2 MSTORE PUSH1 0x20 ADD PUSH0 DUP2 MSTORE PUSH1 0x20 ADD PUSH0 ISZERO ISZERO DUP2 MSTORE POP SWAP1 JUMP JUMPDEST PUSH0 DUP2 SWAP1 POP SWAP2 SWAP1 POP JUMP JUMPDEST PUSH2 0x2CCB DUP2 PUSH2 0x2CB9 JUMP JUMPDEST DUP3 MSTORE POP POP JUMP JUMPDEST PUSH0 PUSH1 0x20 DUP3 ADD SWAP1 POP PUSH2 0x2CE4 PUSH0 DUP4 ADD DUP5 PUSH2 0x2CC2 JUMP JUMPDEST SWAP3 SWAP2 POP POP JUMP JUMPDEST PUSH0 PUSH0 REVERT JUMPDEST PUSH0 PUSH0 REVERT JUMPDEST PUSH2 0x2CFB DUP2 PUSH2 0x2CB9 JUMP JUMPDEST DUP2 EQ PUSH2 0x2D05 JUMPI PUSH0 PUSH0 REVERT JUMPDEST POP JUMP JUMPDEST PUSH0 DUP2 CALLDATALOAD SWAP1 POP PUSH2 0x2D16 DUP2 PUSH2 0x2CF2 JUMP JUMPDEST SWAP3 SWAP2 POP POP JUMP JUMPDEST PUSH0 PUSH0 PUSH0 PUSH0 PUSH1 0x80 DUP6 DUP8 SUB SLT ISZERO PUSH2 0x2D34 JUMPI PUSH2 0x2D33 PUSH2 0x2CEA JUMP JUMPDEST JUMPDEST PUSH0 PUSH2 0x2D41 DUP8 DUP3 DUP9 ADD PUSH2 0x2D08 JUMP JUMPDEST SWAP5 POP POP PUSH1 0x20 PUSH2 0x2D52 DUP8 DUP3 DUP9 ADD PUSH2 0x2D08 JUMP JUMPDEST SWAP4 POP POP PUSH1 0x40 PUSH2 0x2D63 DUP8 DUP3 DUP9 ADD PUSH2 0x2D08 JUMP JUMPDEST SWAP3 POP POP PUSH1 0x60 PUSH2 0x2D74 DUP8 DUP3 DUP9 ADD PUSH2 0x2D08 JUMP JUMPDEST SWAP2 POP POP SWAP3 SWAP6 SWAP2 SWAP5 POP SWAP3 POP JUMP JUMPDEST PUSH0 PUSH20 0xFFFFFFFFFFFFFFFFFFFFFFFFFFFFFFFFFFFFFFFF DUP3 AND SWAP1 POP SWAP2 SWAP1 POP JUMP JUMPDEST PUSH0 PUSH2 0x2DA9 DUP3 PUSH2 0x2D80 JUMP JUMPDEST SWAP1 POP SWAP2 SWAP1 POP JUMP JUMPDEST PUSH2 0x2DB9 DUP2 PUSH2 0x2D9F JUMP JUMPDEST DUP2 EQ PUSH2 0x2DC3 JUMPI PUSH0 PUSH0 REVERT JUMPDEST POP JUMP JUMPDEST PUSH0 DUP2 CALLDATALOAD SWAP1 POP PUSH2 0x2DD4 DUP2 PUSH2 0x2DB0 JUMP JUMPDEST SWAP3 SWAP2 POP POP JUMP JUMPDEST PUSH0 PUSH0 PUSH1 0x40 DUP4 DUP6 SUB SLT ISZERO PUSH2 0x2DF0 JUMPI PUSH2 0x2DEF PUSH2 0x2CEA JUMP JUMPDEST JUMPDEST PUSH0 PUSH2 0x2DFD DUP6 DUP3 DUP7 ADD PUSH2 0x2DC6 JUMP JUMPDEST SWAP3 POP POP PUSH1 0x20 PUSH2 0x2E0E DUP6 DUP3 DUP7 ADD PUSH2 0x2D08 JUMP JUMPDEST SWAP2 POP POP SWAP3 POP SWAP3 SWAP1 POP JUMP JUMPDEST PUSH0 PUSH1 0x20 DUP3 DUP5 SUB SLT ISZERO PUSH2 0x2E2D JUMPI PUSH2 0x2E2C PUSH2 0x2CEA JUMP JUMPDEST JUMPDEST PUSH0 PUSH2 0x2E3A DUP5 DUP3 DUP6 ADD PUSH2 0x2D08 JUMP JUMPDEST SWAP2 POP POP SWAP3 SWAP2 POP POP JUMP JUMPDEST PUSH2 0x2E4C DUP2 PUSH2 0x2D9F JUMP JUMPDEST DUP3 MSTORE POP POP JUMP JUMPDEST PUSH2 0x2E5B DUP2 PUSH2 0x2CB9 JUMP JUMPDEST DUP3 MSTORE POP POP JUMP JUMPDEST PUSH0 DUP2 ISZERO ISZERO SWAP1 POP SWAP2 SWAP1 POP JUMP JUMPDEST PUSH2 0x2E75 DUP2 PUSH2 0x2E61 JUMP JUMPDEST DUP3 MSTORE POP POP JUMP JUMPDEST PUSH2 0x100 DUP3 ADD PUSH0 DUP3 ADD MLOAD PUSH2 0x2E90 PUSH0 DUP6 ADD DUP3 PUSH2 0x2E43 JUMP JUMPDEST POP PUSH1 0x20 DUP3 ADD MLOAD PUSH2 0x2EA3 PUSH1 0x20 DUP6 ADD DUP3 PUSH2 0x2E52 JUMP JUMPDEST POP PUSH1 0x40 DUP3 ADD MLOAD PUSH2 0x2EB6 PUSH1 0x40 DUP6 ADD DUP3 PUSH2 0x2E52 JUMP JUMPDEST POP PUSH1 0x60 DUP3 ADD MLOAD PUSH2 0x2EC9 PUSH1 0x60 DUP6 ADD DUP3 PUSH2 0x2E52 JUMP JUMPDEST POP PUSH1 0x80 DUP3 ADD MLOAD PUSH2 0x2EDC PUSH1 0x80 DUP6 ADD DUP3 PUSH2 0x2E52 JUMP JUMPDEST POP PUSH1 0xA0 DUP3 ADD MLOAD PUSH2 0x2EEF PUSH1 0xA0 DUP6 ADD DUP3 PUSH2 0x2E52 JUMP JUMPDEST POP PUSH1 0xC0 DUP3 ADD MLOAD PUSH2 0x2F02 PUSH1 0xC0 DUP6 ADD DUP3 PUSH2 0x2E52 JUMP JUMPDEST POP PUSH1 0xE0 DUP3 ADD MLOAD PUSH2 0x2F15 PUSH1 0xE0 DUP6 ADD DUP3 PUSH2 0x2E6C JUMP JUMPDEST POP POP POP POP JUMP JUMPDEST PUSH0 PUSH2 0x100 DUP3 ADD SWAP1 POP PUSH2 0x2F2F PUSH0 DUP4 ADD DUP5 PUSH2 0x2E7B JUMP JUMPDEST SWAP3 SWAP2 POP POP JUMP JUMPDEST PUSH0 PUSH1 0x60 DUP3 ADD SWAP1 POP PUSH2 0x2F48 PUSH0 DUP4 ADD DUP7 PUSH2 0x2CC2 JUMP JUMPDEST PUSH2 0x2F55 PUSH1 0x20 DUP4 ADD DUP6 PUSH2 0x2CC2 JUMP JUMPDEST PUSH2 0x2F62 PUSH1 0x40 DUP4 ADD DUP5 PUSH2 0x2CC2 JUMP JUMPDEST SWAP5 SWAP4 POP POP POP POP JUMP JUMPDEST PUSH0 PUSH0 PUSH0 PUSH1 0x60 DUP5 DUP7 SUB SLT ISZERO PUSH2 0x2F81 JUMPI PUSH2 0x2F80 PUSH2 0x2CEA JUMP JUMPDEST JUMPDEST PUSH0 PUSH2 0x2F8E DUP7 DUP3 DUP8 ADD PUSH2 0x2D08 JUMP JUMPDEST SWAP4 POP POP PUSH1 0x20 PUSH2 0x2F9F DUP7 DUP3 DUP8 ADD PUSH2 0x2D08 JUMP JUMPDEST SWAP3 POP POP PUSH1 0x40 PUSH2 0x2FB0 DUP7 DUP3 DUP8 ADD PUSH2 0x2D08 JUMP JUMPDEST SWAP2 POP POP SWAP3 POP SWAP3 POP SWAP3 JUMP JUMPDEST PUSH0 PUSH1 0x20 DUP3 DUP5 SUB SLT ISZERO PUSH2 0x2FCF JUMPI PUSH2 0x2FCE PUSH2 0x2CEA JUMP JUMPDEST JUMPDEST PUSH0 PUSH2 0x2FDC DUP5 DUP3 DUP6 ADD PUSH2 0x2DC6 JUMP JUMPDEST SWAP2 POP POP SWAP3 SWAP2 POP POP JUMP JUMPDEST PUSH0 DUP2 MLOAD SWAP1 POP SWAP2 SWAP1 POP JUMP JUMPDEST PUSH0 DUP3 DUP3 MSTORE PUSH1 0x20 DUP3 ADD SWAP1 POP SWAP3 SWAP2 POP POP JUMP JUMPDEST PUSH0 DUP2 SWAP1 POP PUSH1 0x20 DUP3 ADD SWAP1 POP SWAP2 SWAP1 POP JUMP JUMPDEST PUSH0 PUSH2 0x3019 DUP4 DUP4 PUSH2 0x2E52 JUMP JUMPDEST PUSH1 0x20 DUP4 ADD SWAP1 POP SWAP3 SWAP2 POP POP JUMP JUMPDEST PUSH0 PUSH1 0x20 DUP3 ADD SWAP1 POP SWAP2 SWAP1 POP JUMP JUMPDEST PUSH0 PUSH2 0x303B DUP3 PUSH2 0x2FE5 JUMP JUMPDEST PUSH2 0x3045 DUP2 DUP6 PUSH2 0x2FEF JUMP JUMPDEST SWAP4 POP PUSH2 0x3050 DUP4 PUSH2 0x2FFF JUMP JUMPDEST DUP1 PUSH0 JUMPDEST DUP4 DUP2 LT ISZERO PUSH2 0x3080 JUMPI DUP2 MLOAD PUSH2 0x3067 DUP9 DUP3 PUSH2 0x300E JUMP JUMPDEST SWAP8 POP PUSH2 0x3072 DUP4 PUSH2 0x3025 JUMP JUMPDEST SWAP3 POP POP PUSH1 0x1 DUP2 ADD SWAP1 POP PUSH2 0x3053 JUMP JUMPDEST POP DUP6 SWAP4 POP POP POP POP SWAP3 SWAP2 POP POP JUMP JUMPDEST PUSH0 PUSH1 0x20 DUP3 ADD SWAP1 POP DUP2 DUP2 SUB PUSH0 DUP4 ADD MSTORE PUSH2 0x30A5 DUP2 DUP5 PUSH2 0x3031 JUMP JUMPDEST SWAP1 POP SWAP3 SWAP2 POP POP JUMP JUMPDEST PUSH0 PUSH0 REVERT JUMPDEST PUSH0 PUSH0 REVERT JUMPDEST PUSH0 PUSH0 REVERT JUMPDEST PUSH0 PUSH0 DUP4 PUSH1 0x1F DUP5 ADD SLT PUSH2 0x30CE JUMPI PUSH2 0x30CD PUSH2 0x30AD JUMP JUMPDEST JUMPDEST DUP3 CALLDATALOAD SWAP1 POP PUSH8 0xFFFFFFFFFFFFFFFF DUP2 GT ISZERO PUSH2 0x30EB JUMPI PUSH2 0x30EA PUSH2 0x30B1 JUMP JUMPDEST JUMPDEST PUSH1 0x20 DUP4 ADD SWAP2 POP DUP4 PUSH1 0x20 DUP3 MUL DUP4 ADD GT ISZERO PUSH2 0x3107 JUMPI PUSH2 0x3106 PUSH2 0x30B5 JUMP JUMPDEST JUMPDEST SWAP3 POP SWAP3 SWAP1 POP JUMP JUMPDEST PUSH0 PUSH0 PUSH0 PUSH0 PUSH0 PUSH0 PUSH1 0x60 DUP8 DUP10 SUB SLT ISZERO PUSH2 0x3128 JUMPI PUSH2 0x3127 PUSH2 0x2CEA JUMP JUMPDEST JUMPDEST PUSH0 DUP8 ADD CALLDATALOAD PUSH8 0xFFFFFFFFFFFFFFFF DUP2 GT ISZERO PUSH2 0x3145 JUMPI PUSH2 0x3144 PUSH2 0x2CEE JUMP JUMPDEST JUMPDEST PUSH2 0x3151 DUP10 DUP3 DUP11 ADD PUSH2 0x30B9 JUMP JUMPDEST SWAP7 POP SWAP7 POP POP PUSH1 0x20 DUP8 ADD CALLDATALOAD PUSH8 0xFFFFFFFFFFFFFFFF DUP2 GT ISZERO PUSH2 0x3174 JUMPI PUSH2 0x3173 PUSH2 0x2CEE JUMP JUMPDEST JUMPDEST PUSH2 0x3180 DUP10 DUP3 DUP11 ADD PUSH2 0x30B9 JUMP JUMPDEST SWAP5 POP SWAP5 POP POP PUSH1 0x40 DUP8 ADD CALLDATALOAD PUSH8 0xFFFFFFFFFFFFFFFF DUP2 GT ISZERO PUSH2 0x31A3 JUMPI PUSH2 0x31A2 PUSH2 0x2CEE JUMP JUMPDEST JUMPDEST PUSH2 0x31AF DUP10 DUP3 DUP11 ADD PUSH2 0x30B9 JUMP JUMPDEST SWAP3 POP SWAP3 POP POP SWAP3 SWAP6 POP SWAP3 SWAP6 POP SWAP3 SWAP6 JUMP JUMPDEST PUSH2 0x31C7 DUP2 PUSH2 0x2E61 JUMP JUMPDEST DUP3 MSTORE POP POP JUMP JUMPDEST PUSH0 PUSH1 0x20 DUP3 ADD SWAP1 POP PUSH2 0x31E0 PUSH0 DUP4 ADD DUP5 PUSH2 0x31BE JUMP JUMPDEST SWAP3 SWAP2 POP POP JUMP JUMPDEST PUSH0 DUP2 SWAP1 POP SWAP2 SWAP1 POP JUMP JUMPDEST PUSH0 PUSH2 0x3209 PUSH2 0x3204 PUSH2 0x31FF DUP5 PUSH2 0x2D80 JUMP JUMPDEST PUSH2 0x31E6 JUMP JUMPDEST PUSH2 0x2D80 JUMP JUMPDEST SWAP1 POP SWAP2 SWAP1 POP JUMP JUMPDEST PUSH0 PUSH2 0x321A DUP3 PUSH2 0x31EF JUMP JUMPDEST SWAP1 POP SWAP2 SWAP1 POP JUMP JUMPDEST PUSH0 PUSH2 0x322B DUP3 PUSH2 0x3210 JUMP JUMPDEST SWAP1 POP SWAP2 SWAP1 POP JUMP JUMPDEST PUSH2 0x323B DUP2 PUSH2 0x3221 JUMP JUMPDEST DUP3 MSTORE POP POP JUMP JUMPDEST PUSH0 PUSH1 0x20 DUP3 ADD SWAP1 POP PUSH2 0x3254 PUSH0 DUP4 ADD DUP5 PUSH2 0x3232 JUMP JUMPDEST SWAP3 SWAP2 POP POP JUMP JUMPDEST PUSH2 0x3263 DUP2 PUSH2 0x2D9F JUMP JUMPDEST DUP3 MSTORE POP POP JUMP JUMPDEST PUSH0 PUSH1 0x20 DUP3 ADD SWAP1 POP PUSH2 0x327C PUSH0 DUP4 ADD DUP5 PUSH2 0x325A JUMP JUMPDEST SWAP3 SWAP2 POP POP JUMP JUMPDEST PUSH0 PUSH2 0x100 DUP3 ADD SWAP1 POP PUSH2 0x3296 PUSH0 DUP4 ADD DUP12 PUSH2 0x325A JUMP JUMPDEST PUSH2 0x32A3 PUSH1 0x20 DUP4 ADD DUP11 PUSH2 0x2CC2 JUMP JUMPDEST PUSH2 0x32B0 PUSH1 0x40 DUP4 ADD DUP10 PUSH2 0x2CC2 JUMP JUMPDEST PUSH2 0x32BD PUSH1 0x60 DUP4 ADD DUP9 PUSH2 0x2CC2 JUMP JUMPDEST PUSH2 0x32CA PUSH1 0x80 DUP4 ADD DUP8 PUSH2 0x2CC2 JUMP JUMPDEST PUSH2 0x32D7 PUSH1 0xA0 DUP4 ADD DUP7 PUSH2 0x2CC2 JUMP JUMPDEST PUSH2 0x32E4 PUSH1 0xC0 DUP4 ADD DUP6 PUSH2 0x2CC2 JUMP JUMPDEST PUSH2 0x32F1 PUSH1 0xE0 DUP4 ADD DUP5 PUSH2 0x31BE JUMP JUMPDEST SWAP10 SWAP9 POP POP POP POP POP POP POP POP POP JUMP JUMPDEST PUSH0 PUSH0 PUSH1 0x40 DUP4 DUP6 SUB SLT ISZERO PUSH2 0x3314 JUMPI PUSH2 0x3313 PUSH2 0x2CEA JUMP JUMPDEST JUMPDEST PUSH0 PUSH2 0x3321 DUP6 DUP3 DUP7 ADD PUSH2 0x2D08 JUMP JUMPDEST SWAP3 POP POP PUSH1 0x20 PUSH2 0x3332 DUP6 DUP3 DUP7 ADD PUSH2 0x2D08 JUMP JUMPDEST SWAP2 POP POP SWAP3 POP SWAP3 SWAP1 POP JUMP JUMPDEST PUSH0 DUP2 MLOAD SWAP1 POP SWAP2 SWAP1 POP JUMP JUMPDEST PUSH0 DUP3 DUP3 MSTORE PUSH1 0x20 DUP3 ADD SWAP1 POP SWAP3 SWAP2 POP POP JUMP JUMPDEST PUSH0 DUP2 SWAP1 POP PUSH1 0x20 DUP3 ADD SWAP1 POP SWAP2 SWAP1 POP JUMP JUMPDEST PUSH0 PUSH2 0x3370 DUP4 DUP4 PUSH2 0x2E43 JUMP JUMPDEST PUSH1 0x20 DUP4 ADD SWAP1 POP SWAP3 SWAP2 POP POP JUMP JUMPDEST PUSH0 PUSH1 0x20 DUP3 ADD SWAP1 POP SWAP2 SWAP1 POP JUMP JUMPDEST PUSH0 PUSH2 0x3392 DUP3 PUSH2 0x333C JUMP JUMPDEST PUSH2 0x339C DUP2 DUP6 PUSH2 0x3346 JUMP JUMPDEST SWAP4 POP PUSH2 0x33A7 DUP4 PUSH2 0x3356 JUMP JUMPDEST DUP1 PUSH0 JUMPDEST DUP4 DUP2 LT ISZERO PUSH2 0x33D7 JUMPI DUP2 MLOAD PUSH2 0x33BE DUP9 DUP3 PUSH2 0x3365 JUMP JUMPDEST SWAP8 POP PUSH2 0x33C9 DUP4 PUSH2 0x337C JUMP JUMPDEST SWAP3 POP POP PUSH1 0x1 DUP2 ADD SWAP1 POP PUSH2 0x33AA JUMP JUMPDEST POP DUP6 SWAP4 POP POP POP POP SWAP3 SWAP2 POP POP JUMP JUMPDEST PUSH0 PUSH1 0x20 DUP3 ADD SWAP1 POP DUP2 DUP2 SUB PUSH0 DUP4 ADD MSTORE PUSH2 0x33FC DUP2 DUP5 PUSH2 0x3388 JUMP JUMPDEST SWAP1 POP SWAP3 SWAP2 POP POP JUMP JUMPDEST PUSH0 DUP3 DUP3 MSTORE PUSH1 0x20 DUP3 ADD SWAP1 POP SWAP3 SWAP2 POP POP JUMP JUMPDEST PUSH32 0x4F6E6C79206F776E657200000000000000000000000000000000000000000000 PUSH0 DUP3 ADD MSTORE POP JUMP JUMPDEST PUSH0 PUSH2 0x3448 PUSH1 0xA DUP4 PUSH2 0x3404 JUMP JUMPDEST SWAP2 POP PUSH2 0x3453 DUP3 PUSH2 0x3414 JUMP JUMPDEST PUSH1 0x20 DUP3 ADD SWAP1 POP SWAP2 SWAP1 POP JUMP JUMPDEST PUSH0 PUSH1 0x20 DUP3 ADD SWAP1 POP DUP2 DUP2 SUB PUSH0 DUP4 ADD MSTORE PUSH2 0x3475 DUP2 PUSH2 0x343C JUMP JUMPDEST SWAP1 POP SWAP2 SWAP1 POP JUMP JUMPDEST PUSH32 0x496E646578204F4F420000000000000000000000000000000000000000000000 PUSH0 DUP3 ADD MSTORE POP JUMP JUMPDEST PUSH0 PUSH2 0x34B0 PUSH1 0x9 DUP4 PUSH2 0x3404 JUMP JUMPDEST SWAP2 POP PUSH2 0x34BB DUP3 PUSH2 0x347C JUMP JUMPDEST PUSH1 0x20 DUP3 ADD SWAP1 POP SWAP2 SWAP1 POP JUMP JUMPDEST PUSH0 PUSH1 0x20 DUP3 ADD SWAP1 POP DUP2 DUP2 SUB PUSH0 DUP4 ADD MSTORE PUSH2 0x34DD DUP2 PUSH2 0x34A4 JUMP JUMPDEST SWAP1 POP SWAP2 SWAP1 POP JUMP JUMPDEST PUSH32 0x496E76616C69642072616E676500000000000000000000000000000000000000 PUSH0 DUP3 ADD MSTORE POP JUMP JUMPDEST PUSH0 PUSH2 0x3518 PUSH1 0xD DUP4 PUSH2 0x3404 JUMP JUMPDEST SWAP2 POP PUSH2 0x3523 DUP3 PUSH2 0x34E4 JUMP JUMPDEST PUSH1 0x20 DUP3 ADD SWAP1 POP SWAP2 SWAP1 POP JUMP JUMPDEST PUSH0 PUSH1 0x20 DUP3 ADD SWAP1 POP DUP2 DUP2 SUB PUSH0 DUP4 ADD MSTORE PUSH2 0x3545 DUP2 PUSH2 0x350C JUMP JUMPDEST SWAP1 POP SWAP2 SWAP1 POP JUMP JUMPDEST PUSH32 0x52617465203E2031303025000000000000000000000000000000000000000000 PUSH0 DUP3 ADD MSTORE POP JUMP JUMPDEST PUSH0 PUSH2 0x3580 PUSH1 0xB DUP4 PUSH2 0x3404 JUMP JUMPDEST SWAP2 POP PUSH2 0x358B DUP3 PUSH2 0x354C JUMP JUMPDEST PUSH1 0x20 DUP3 ADD SWAP1 POP SWAP2 SWAP1 POP JUMP JUMPDEST PUSH0 PUSH1 0x20 DUP3 ADD SWAP1 POP DUP2 DUP2 SUB PUSH0 DUP4 ADD MSTORE PUSH2 0x35AD DUP2 PUSH2 0x3574 JUMP JUMPDEST SWAP1 POP SWAP2 SWAP1 POP JUMP JUMPDEST PUSH32 0x5374617274656400000000000000000000000000000000000000000000000000 PUSH0 DUP3 ADD MSTORE POP JUMP JUMPDEST PUSH0 PUSH2 0x35E8 PUSH1 0x7 DUP4 PUSH2 0x3404 JUMP JUMPDEST SWAP2 POP PUSH2 0x35F3 DUP3 PUSH2 0x35B4 JUMP JUMPDEST PUSH1 0x20 DUP3 ADD SWAP1 POP SWAP2 SWAP1 POP JUMP JUMPDEST PUSH0 PUSH1 0x20 DUP3 ADD SWAP1 POP DUP2 DUP2 SUB PUSH0 DUP4 ADD MSTORE PUSH2 0x3615 DUP2 PUSH2 0x35DC JUMP JUMPDEST SWAP1 POP SWAP2 SWAP1 POP JUMP JUMPDEST PUSH32 0x4E487B7100000000000000000000000000000000000000000000000000000000 PUSH0 MSTORE PUSH1 0x11 PUSH1 0x4 MSTORE PUSH1 0x24 PUSH0 REVERT JUMPDEST PUSH0 PUSH2 0x3653 DUP3 PUSH2 0x2CB9 JUMP JUMPDEST SWAP2 POP PUSH2 0x365E DUP4 PUSH2 0x2CB9 JUMP JUMPDEST SWAP3 POP DUP3 DUP3 SUB SWAP1 POP DUP2 DUP2 GT ISZERO PUSH2 0x3676 JUMPI PUSH2 0x3675 PUSH2 0x361C JUMP JUMPDEST JUMPDEST SWAP3 SWAP2 POP POP JUMP JUMPDEST PUSH32 0x4E487B7100000000000000000000000000000000000000000000000000000000 PUSH0 MSTORE PUSH1 0x32 PUSH1 0x4 MSTORE PUSH1 0x24 PUSH0 REVERT JUMPDEST PUSH32 0x5365710000000000000000000000000000000000000000000000000000000000 PUSH0 DUP3 ADD MSTORE POP JUMP JUMPDEST PUSH0 PUSH2 0x36DD PUSH1 0x3 DUP4 PUSH2 0x3404 JUMP JUMPDEST SWAP2 POP PUSH2 0x36E8 DUP3 PUSH2 0x36A9 JUMP JUMPDEST PUSH1 0x20 DUP3 ADD SWAP1 POP SWAP2 SWAP1 POP JUMP JUMPDEST PUSH0 PUSH1 0x20 DUP3 ADD SWAP1 POP DUP2 DUP2 SUB PUSH0 DUP4 ADD MSTORE PUSH2 0x370A DUP2 PUSH2 0x36D1 JUMP JUMPDEST SWAP1 POP SWAP2 SWAP1 POP JUMP JUMPDEST PUSH0 PUSH2 0x371B DUP3 PUSH2 0x2CB9 JUMP JUMPDEST SWAP2 POP PUSH2 0x3726 DUP4 PUSH2 0x2CB9 JUMP JUMPDEST SWAP3 POP DUP3 DUP3 ADD SWAP1 POP DUP1 DUP3 GT ISZERO PUSH2 0x373E JUMPI PUSH2 0x373D PUSH2 0x361C JUMP JUMPDEST JUMPDEST SWAP3 SWAP2 POP POP JUMP JUMPDEST PUSH32 0x4F7665726C617000000000000000000000000000000000000000000000000000 PUSH0 DUP3 ADD MSTORE POP JUMP JUMPDEST PUSH0 PUSH2 0x3778 PUSH1 0x7 DUP4 PUSH2 0x3404 JUMP JUMPDEST SWAP2 POP PUSH2 0x3783 DUP3 PUSH2 0x3744 JUMP JUMPDEST PUSH1 0x20 DUP3 ADD SWAP1 POP SWAP2 SWAP1 POP JUMP JUMPDEST PUSH0 PUSH1 0x20 DUP3 ADD SWAP1 POP DUP2 DUP2 SUB PUSH0 DUP4 ADD MSTORE PUSH2 0x37A5 DUP2 PUSH2 0x376C JUMP JUMPDEST SWAP1 POP SWAP2 SWAP1 POP JUMP JUMPDEST PUSH0 PUSH2 0x37B6 DUP3 PUSH2 0x2CB9 JUMP JUMPDEST SWAP2 POP PUSH2 0x37C1 DUP4 PUSH2 0x2CB9 JUMP JUMPDEST SWAP3 POP DUP3 DUP3 MUL PUSH2 0x37CF DUP2 PUSH2 0x2CB9 JUMP JUMPDEST SWAP2 POP DUP3 DUP3 DIV DUP5 EQ DUP4 ISZERO OR PUSH2 0x37E6 JUMPI PUSH2 0x37E5 PUSH2 0x361C JUMP JUMPDEST JUMPDEST POP SWAP3 SWAP2 POP POP JUMP JUMPDEST PUSH32 0x4E487B7100000000000000000000000000000000000000000000000000000000 PUSH0 MSTORE PUSH1 0x12 PUSH1 0x4 MSTORE PUSH1 0x24 PUSH0 REVERT JUMPDEST PUSH0 PUSH2 0x3824 DUP3 PUSH2 0x2CB9 JUMP JUMPDEST SWAP2 POP PUSH2 0x382F DUP4 PUSH2 0x2CB9 JUMP JUMPDEST SWAP3 POP DUP3 PUSH2 0x383F JUMPI PUSH2 0x383E PUSH2 0x37ED JUMP JUMPDEST JUMPDEST DUP3 DUP3 DIV SWAP1 POP SWAP3 SWAP2 POP POP JUMP JUMPDEST PUSH32 0x4C656E677468206D69736D617463680000000000000000000000000000000000 PUSH0 DUP3 ADD MSTORE POP JUMP JUMPDEST PUSH0 PUSH2 0x387E PUSH1 0xF DUP4 PUSH2 0x3404 JUMP JUMPDEST SWAP2 POP PUSH2 0x3889 DUP3 PUSH2 0x384A JUMP JUMPDEST PUSH1 0x20 DUP3 ADD SWAP1 POP SWAP2 SWAP1 POP JUMP JUMPDEST PUSH0 PUSH1 0x20 DUP3 ADD SWAP1 POP DUP2 DUP2 SUB PUSH0 DUP4 ADD MSTORE PUSH2 0x38AB DUP2 PUSH2 0x3872 JUMP JUMPDEST SWAP1 POP SWAP2 SWAP1 POP JUMP JUMPDEST PUSH32 0x456D707479000000000000000000000000000000000000000000000000000000 PUSH0 DUP3 ADD MSTORE POP JUMP JUMPDEST PUSH0 PUSH2 0x38E6 PUSH1 0x5 DUP4 PUSH2 0x3404 JUMP JUMPDEST SWAP2 POP PUSH2 0x38F1 DUP3 PUSH2 0x38B2 JUMP JUMPDEST PUSH1 0x20 DUP3 ADD SWAP1 POP SWAP2 SWAP1 POP JUMP JUMPDEST PUSH0 PUSH1 0x20 DUP3 ADD SWAP1 POP DUP2 DUP2 SUB PUSH0 DUP4 ADD MSTORE PUSH2 0x3913 DUP2 PUSH2 0x38DA JUMP JUMPDEST SWAP1 POP SWAP2 SWAP1 POP JUMP JUMPDEST PUSH0 PUSH1 0x40 DUP3 ADD SWAP1 POP PUSH2 0x392D PUSH0 DUP4 ADD DUP6 PUSH2 0x2CC2 JUMP JUMPDEST PUSH2 0x393A PUSH1 0x20 DUP4 ADD DUP5 PUSH2 0x2CC2 JUMP JUMPDEST SWAP4 SWAP3 POP POP POP JUMP JUMPDEST PUSH32 0x496E616374697665000000000000000000000000000000000000000000000000 PUSH0 DUP3 ADD MSTORE POP JUMP JUMPDEST PUSH0 PUSH2 0x3975 PUSH1 0x8 DUP4 PUSH2 0x3404 JUMP JUMPDEST SWAP2 POP PUSH2 0x3980 DUP3 PUSH2 0x3941 JUMP JUMPDEST PUSH1 0x20 DUP3 ADD SWAP1 POP SWAP2 SWAP1 POP JUMP JUMPDEST PUSH0 PUSH1 0x20 DUP3 ADD SWAP1 POP DUP2 DUP2 SUB PUSH0 DUP4 ADD MSTORE PUSH2 0x39A2 DUP2 PUSH2 0x3969 JUMP JUMPDEST SWAP1 POP SWAP2 SWAP1 POP JUMP JUMPDEST PUSH32 0x4E6F74206F776E65720000000000000000000000000000000000000000000000 PUSH0 DUP3 ADD MSTORE POP JUMP JUMPDEST PUSH0 PUSH2 0x39DD PUSH1 0x9 DUP4 PUSH2 0x3404 JUMP JUMPDEST SWAP2 POP PUSH2 0x39E8 DUP3 PUSH2 0x39A9 JUMP JUMPDEST PUSH1 0x20 DUP3 ADD SWAP1 POP SWAP2 SWAP1 POP JUMP JUMPDEST PUSH0 PUSH1 0x20 DUP3 ADD SWAP1 POP DUP2 DUP2 SUB PUSH0 DUP4 ADD MSTORE PUSH2 0x3A0A DUP2 PUSH2 0x39D1 JUMP JUMPDEST SWAP1 POP SWAP2 SWAP1 POP JUMP JUMPDEST PUSH32 0x4C6F636B65640000000000000000000000000000000000000000000000000000 PUSH0 DUP3 ADD MSTORE POP JUMP JUMPDEST PUSH0 PUSH2 0x3A45 PUSH1 0x6 DUP4 PUSH2 0x3404 JUMP JUMPDEST SWAP2 POP PUSH2 0x3A50 DUP3 PUSH2 0x3A11 JUMP JUMPDEST PUSH1 0x20 DUP3 ADD SWAP1 POP SWAP2 SWAP1 POP JUMP JUMPDEST PUSH0 PUSH1 0x20 DUP3 ADD SWAP1 POP DUP2 DUP2 SUB PUSH0 DUP4 ADD MSTORE PUSH2 0x3A72 DUP2 PUSH2 0x3A39 JUMP JUMPDEST SWAP1 POP SWAP2 SWAP1 POP JUMP JUMPDEST PUSH0 PUSH2 0x3A83 DUP3 PUSH2 0x2CB9 JUMP JUMPDEST SWAP2 POP PUSH0 DUP3 SUB PUSH2 0x3A95 JUMPI PUSH2 0x3A94 PUSH2 0x361C JUMP JUMPDEST JUMPDEST PUSH1 0x1 DUP3 SUB SWAP1 POP SWAP2 SWAP1 POP JUMP JUMPDEST PUSH0 PUSH1 0x40 DUP3 ADD SWAP1 POP PUSH2 0x3AB3 PUSH0 DUP4 ADD DUP6 PUSH2 0x325A JUMP JUMPDEST PUSH2 0x3AC0 PUSH1 0x20 DUP4 ADD DUP5 PUSH2 0x2CC2 JUMP JUMPDEST SWAP4 SWAP3 POP POP POP JUMP JUMPDEST PUSH2 0x3AD0 DUP2 PUSH2 0x2E61 JUMP JUMPDEST DUP2 EQ PUSH2 0x3ADA JUMPI PUSH0 PUSH0 REVERT JUMPDEST POP JUMP JUMPDEST PUSH0 DUP2 MLOAD SWAP1 POP PUSH2 0x3AEB DUP2 PUSH2 0x3AC7 JUMP JUMPDEST SWAP3 SWAP2 POP POP JUMP JUMPDEST PUSH0 PUSH1 0x20 DUP3 DUP5 SUB SLT ISZERO PUSH2 0x3B06 JUMPI PUSH2 0x3B05 PUSH2 0x2CEA JUMP JUMPDEST JUMPDEST PUSH0 PUSH2 0x3B13 DUP5 DUP3 DUP6 ADD PUSH2 0x3ADD JUMP JUMPDEST SWAP2 POP POP SWAP3 SWAP2 POP POP JUMP JUMPDEST PUSH32 0x5472616E73666572206661696C65640000000000000000000000000000000000 PUSH0 DUP3 ADD MSTORE POP JUMP JUMPDEST PUSH0 PUSH2 0x3B50 PUSH1 0xF DUP4 PUSH2 0x3404 JUMP JUMPDEST SWAP2 POP PUSH2 0x3B5B DUP3 PUSH2 0x3B1C JUMP JUMPDEST PUSH1 0x20 DUP3 ADD SWAP1 POP SWAP2 SWAP1 POP JUMP JUMPDEST PUSH0 PUSH1 0x20 DUP3 ADD SWAP1 POP DUP2 DUP2 SUB PUSH0 DUP4 ADD MSTORE PUSH2 0x3B7D DUP2 PUSH2 0x3B44 JUMP JUMPDEST SWAP1 POP SWAP2 SWAP1 POP JUMP JUMPDEST PUSH32 0x4E6F6E6500000000000000000000000000000000000000000000000000000000 PUSH0 DUP3 ADD MSTORE POP JUMP JUMPDEST PUSH0 PUSH2 0x3BB8 PUSH1 0x4 DUP4 PUSH2 0x3404 JUMP JUMPDEST SWAP2 POP PUSH2 0x3BC3 DUP3 PUSH2 0x3B84 JUMP JUMPDEST PUSH1 0x20 DUP3 ADD SWAP1 POP SWAP2 SWAP1 POP JUMP JUMPDEST PUSH0 PUSH1 0x20 DUP3 ADD SWAP1 POP DUP2 DUP2 SUB PUSH0 DUP4 ADD MSTORE PUSH2 0x3BE5 DUP2 PUSH2 0x3BAC JUMP JUMPDEST SWAP1 POP SWAP2 SWAP1 POP JUMP JUMPDEST PUSH32 0x4E487B7100000000000000000000000000000000000000000000000000000000 PUSH0 MSTORE PUSH1 0x31 PUSH1 0x4 MSTORE PUSH1 0x24 PUSH0 REVERT JUMPDEST PUSH32 0x4D696E20616D6F756E7400000000000000000000000000000000000000000000 PUSH0 DUP3 ADD MSTORE POP JUMP JUMPDEST PUSH0 PUSH2 0x3C4D PUSH1 0xA DUP4 PUSH2 0x3404 JUMP JUMPDEST SWAP2 POP PUSH2 0x3C58 DUP3 PUSH2 0x3C19 JUMP JUMPDEST PUSH1 0x20 DUP3 ADD SWAP1 POP SWAP2 SWAP1 POP JUMP JUMPDEST PUSH0 PUSH1 0x20 DUP3 ADD SWAP1 POP DUP2 DUP2 SUB PUSH0 DUP4 ADD MSTORE PUSH2 0x3C7A DUP2 PUSH2 0x3C41 JUMP JUMPDEST SWAP1 POP SWAP2 SWAP1 POP JUMP JUMPDEST PUSH32 0x4C6F636B206D7573742062652067726561657200000000000000000000000000 PUSH0 DUP3 ADD MSTORE POP JUMP JUMPDEST PUSH0 PUSH2 0x3CB5 PUSH1 0x13 DUP4 PUSH2 0x3404 JUMP JUMPDEST SWAP2 POP PUSH2 0x3CC0 DUP3 PUSH2 0x3C81 JUMP JUMPDEST PUSH1 0x20 DUP3 ADD SWAP1 POP SWAP2 SWAP1 POP JUMP JUMPDEST PUSH0 PUSH1 0x20 DUP3 ADD SWAP1 POP DUP2 DUP2 SUB PUSH0 DUP4 ADD MSTORE PUSH2 0x3CE2 DUP2 PUSH2 0x3CA9 JUMP JUMPDEST SWAP1 POP SWAP2 SWAP1 POP JUMP JUMPDEST PUSH32 0x4E6F206D6F6E7468730000000000000000000000000000000000000000000000 PUSH0 DUP3 ADD MSTORE POP JUMP JUMPDEST PUSH0 PUSH2 0x3D1D PUSH1 0x9 DUP4 PUSH2 0x3404 JUMP JUMPDEST SWAP2 POP PUSH2 0x3D28 DUP3 PUSH2 0x3CE9 JUMP JUMPDEST PUSH1 0x20 DUP3 ADD SWAP1 POP SWAP2 SWAP1 POP JUMP JUMPDEST PUSH0 PUSH1 0x20 DUP3 ADD SWAP1 POP DUP2 DUP2 SUB PUSH0 DUP4 ADD MSTORE PUSH2 0x3D4A DUP2 PUSH2 0x3D11 JUMP JUMPDEST SWAP1 POP SWAP2 SWAP1 POP JUMP JUMPDEST PUSH32 0x54696D65206E6F7420636F766572656400000000000000000000000000000000 PUSH0 DUP3 ADD MSTORE POP JUMP JUMPDEST PUSH0 PUSH2 0x3D85 PUSH1 0x10 DUP4 PUSH2 0x3404 JUMP JUMPDEST SWAP2 POP PUSH2 0x3D90 DUP3 PUSH2 0x3D51 JUMP JUMPDEST PUSH1 0x20 DUP3 ADD SWAP1 POP SWAP2 SWAP1 POP JUMP JUMPDEST PUSH0 PUSH1 0x20 DUP3 ADD SWAP1 POP DUP2 DUP2 SUB PUSH0 DUP4 ADD MSTORE PUSH2 0x3DB2 DUP2 PUSH2 0x3D79 JUMP JUMPDEST SWAP1 POP SWAP2 SWAP1 POP JUMP JUMPDEST PUSH32 0x4C6F636B20706572696F64206578636565647320636F6E66696775726564206D PUSH0 DUP3 ADD MSTORE PUSH32 0x6F6E746873000000000000000000000000000000000000000000000000000000 PUSH1 0x20 DUP3 ADD MSTORE POP JUMP JUMPDEST PUSH0 PUSH2 0x3E13 PUSH1 0x25 DUP4 PUSH2 0x3404 JUMP JUMPDEST SWAP2 POP PUSH2 0x3E1E DUP3 PUSH2 0x3DB9 JUMP JUMPDEST PUSH1 0x40 DUP3 ADD SWAP1 POP SWAP2 SWAP1 POP JUMP JUMPDEST PUSH0 PUSH1 0x20 DUP3 ADD SWAP1 POP DUP2 DUP2 SUB PUSH0 DUP4 ADD MSTORE PUSH2 0x3E40 DUP2 PUSH2 0x3E07 JUMP JUMPDEST SWAP1 POP SWAP2 SWAP1 POP JUMP JUMPDEST PUSH0 PUSH1 0x60 DUP3 ADD SWAP1 POP PUSH2 0x3E5A PUSH0 DUP4 ADD DUP7 PUSH2 0x325A JUMP JUMPDEST PUSH2 0x3E67 PUSH1 0x20 DUP4 ADD DUP6 PUSH2 0x325A JUMP JUMPDEST PUSH2 0x3E74 PUSH1 0x40 DUP4 ADD DUP5 PUSH2 0x2CC2 JUMP JUMPDEST SWAP5 SWAP4 POP POP POP POP JUMP JUMPDEST PUSH0 PUSH2 0x3E86 DUP3 PUSH2 0x2CB9 JUMP JUMPDEST SWAP2 POP PUSH32 0xFFFFFFFFFFFFFFFFFFFFFFFFFFFFFFFFFFFFFFFFFFFFFFFFFFFFFFFFFFFFFFFF DUP3 SUB PUSH2 0x3EB8 JUMPI PUSH2 0x3EB7 PUSH2 0x361C JUMP JUMPDEST JUMPDEST PUSH1 0x1 DUP3 ADD SWAP1 POP SWAP2 SWAP1 POP JUMP JUMPDEST PUSH0 PUSH1 0x80 DUP3 ADD SWAP1 POP PUSH2 0x3ED6 PUSH0 DUP4 ADD DUP8 PUSH2 0x2CC2 JUMP JUMPDEST PUSH2 0x3EE3 PUSH1 0x20 DUP4 ADD DUP7 PUSH2 0x2CC2 JUMP JUMPDEST PUSH2 0x3EF0 PUSH1 0x40 DUP4 ADD DUP6 PUSH2 0x2CC2 JUMP JUMPDEST PUSH2 0x3EFD PUSH1 0x60 DUP4 ADD DUP5 PUSH2 0x2CC2 JUMP JUMPDEST SWAP6 SWAP5 POP POP POP POP POP JUMP JUMPDEST PUSH32 0x43616E6E6F74207265636F766572207374616B696E6720746F6B656E00000000 PUSH0 DUP3 ADD MSTORE POP JUMP JUMPDEST PUSH0 PUSH2 0x3F3A PUSH1 0x1C DUP4 PUSH2 0x3404 JUMP JUMPDEST SWAP2 POP PUSH2 0x3F45 DUP3 PUSH2 0x3F06 JUMP JUMPDEST PUSH1 0x20 DUP3 ADD SWAP1 POP SWAP2 SWAP1 POP JUMP JUMPDEST PUSH0 PUSH1 0x20 DUP3 ADD SWAP1 POP DUP2 DUP2 SUB PUSH0 DUP4 ADD MSTORE PUSH2 0x3F67 DUP2 PUSH2 0x3F2E JUMP JUMPDEST SWAP1 POP SWAP2 SWAP1 POP JUMP JUMPDEST PUSH32 0x5265636F76657279206661696C65640000000000000000000000000000000000 PUSH0 DUP3 ADD MSTORE POP JUMP JUMPDEST PUSH0 PUSH2 0x3FA2 PUSH1 0xF DUP4 PUSH2 0x3404 JUMP JUMPDEST SWAP2 POP PUSH2 0x3FAD DUP3 PUSH2 0x3F6E JUMP JUMPDEST PUSH1 0x20 DUP3 ADD SWAP1 POP SWAP2 SWAP1 POP JUMP JUMPDEST PUSH0 PUSH1 0x20 DUP3 ADD SWAP1 POP DUP2 DUP2 SUB PUSH0 DUP4 ADD MSTORE PUSH2 0x3FCF DUP2 PUSH2 0x3F96 JUMP JUMPDEST SWAP1 POP SWAP2 SWAP1 POP JUMP JUMPDEST PUSH32 0x4E6F207265776172647300000000000000000000000000000000000000000000 PUSH0 DUP3 ADD MSTORE POP JUMP JUMPDEST PUSH0 PUSH2 0x400A PUSH1 0xA DUP4 PUSH2 0x3404 JUMP JUMPDEST SWAP2 POP PUSH2 0x4015 DUP3 PUSH2 0x3FD6 JUMP JUMPDEST PUSH1 0x20 DUP3 ADD SWAP1 POP SWAP2 SWAP1 POP JUMP JUMPDEST PUSH0 PUSH1 0x20 DUP3 ADD SWAP1 POP DUP2 DUP2 SUB PUSH0 DUP4 ADD MSTORE PUSH2 0x4037 DUP2 PUSH2 0x3FFE JUMP JUMPDEST SWAP1 POP SWAP2 SWAP1 POP JUMP INVALID LOG2 PUSH5 0x6970667358 0x22 SLT KECCAK256 0xB2 JUMPF 0xB510 DUP13 PUSH7 0x20296A5C072B1A DUP1 0xEA PUSH21 0xB8CB9308F1E7B05A73D3D38D3B12E41964736F6C63 NUMBER STOP ADDMOD 0x1E STOP CALLER "
		},
		"gasEstimates": {
			"creation": {
				"codeDepositCost": "3300000",
				"executionCost": "infinite",
				"totalCost": "infinite"
			},
			"external": {
				"addMonth(uint256,uint256,uint256)": "infinite",
				"addMonthsBatch(uint256[],uint256[],uint256[])": "infinite",
				"allUsers(uint256)": "5055",
				"calculatePendingRewardForDeposit(uint256)": "infinite",
				"calculateReward(uint256,uint256,uint256,uint256)": "infinite",
				"calculateRewardByMonths(uint256,uint256,uint256)": "infinite",
				"createDeposit(uint256,uint256)": "infinite",
				"deleteLastMonth()": "infinite",
				"deposits(uint256)": "infinite",
				"depositsAmount()": "2557",
				"editMonth(uint256,uint256,uint256,uint256)": "infinite",
				"getAllUsers()": "infinite",
				"getDepositById(uint256)": "infinite",
				"getTotalDeposits()": "2508",
				"getTotalUsers()": "2507",
				"getUserDeposits(address)": "infinite",
				"globalRateBps()": "2513",
				"isUser(address)": "2922",
				"lastKnownMonthIndex()": "2472",
				"minLockAmount()": "2516",
				"minLockMonths()": "2535",
				"monthDepositsAmount(uint256)": "infinite",
				"monthDepositsCount(uint256)": "infinite",
				"months(uint256)": "infinite",
				"openedDeposits()": "2558",
				"owner()": "2620",
				"recoverToken(address,uint256)": "infinite",
				"rewardsByMonths(uint256)": "infinite",
				"setGlobalRateBps(uint256)": "infinite",
				"setMinLockAmount(uint256)": "24730",
				"setMinLockMonths(uint256)": "24795",
				"stakingToken()": "infinite",
				"userDeposits(address,uint256)": "infinite",
				"withdrawPrincipalAndRewards(uint256)": "infinite",
				"withdrawRewardsOnly(uint256)": "infinite"
			},
			"internal": {
				"_addSingleMonth(uint256,uint256,uint256)": "infinite",
				"_findLastCompletedMonth(uint256,uint256)": "infinite",
				"_getCurrentMonthIndex()": "infinite",
				"_getCurrentMonthIndexAt(uint256)": "infinite",
				"_getEffectiveRateBps(uint256)": "6460"
			}
		},
		"methodIdentifiers": {
			"addMonth(uint256,uint256,uint256)": "23b28a54",
			"addMonthsBatch(uint256[],uint256[],uint256[])": "2ffb3d2a",
			"allUsers(uint256)": "a2bdedf4",
			"calculatePendingRewardForDeposit(uint256)": "2e0e3064",
			"calculateReward(uint256,uint256,uint256,uint256)": "7196d3e2",
			"calculateRewardByMonths(uint256,uint256,uint256)": "dd4824a8",
			"createDeposit(uint256,uint256)": "b18e71f2",
			"deleteLastMonth()": "a9783cd7",
			"deposits(uint256)": "b02c43d0",
			"depositsAmount()": "fe4ab90a",
			"editMonth(uint256,uint256,uint256,uint256)": "05a163b6",
			"getAllUsers()": "e2842d79",
			"getDepositById(uint256)": "1bfc7761",
			"getTotalDeposits()": "168a4822",
			"getTotalUsers()": "9be572f6",
			"getUserDeposits(address)": "2a5bf6d2",
			"globalRateBps()": "f4f8c847",
			"isUser(address)": "4209fff1",
			"lastKnownMonthIndex()": "000d6386",
			"minLockAmount()": "08804275",
			"minLockMonths()": "f8799e1a",
			"monthDepositsAmount(uint256)": "9d13fa01",
			"monthDepositsCount(uint256)": "41aff23e",
			"months(uint256)": "1d0205b8",
			"openedDeposits()": "5301731f",
			"owner()": "8da5cb5b",
			"recoverToken(address,uint256)": "b29a8140",
			"rewardsByMonths(uint256)": "38716003",
			"setGlobalRateBps(uint256)": "9521abc6",
			"setMinLockAmount(uint256)": "0f68ae40",
			"setMinLockMonths(uint256)": "4b4d7aa8",
			"stakingToken()": "72f702f3",
			"userDeposits(address,uint256)": "08f43333",
			"withdrawPrincipalAndRewards(uint256)": "6241ca79",
			"withdrawRewardsOnly(uint256)": "d3d83445"
		}
	},
	"abi": [
		{
			"inputs": [
				{
					"internalType": "address",
					"name": "_stakingToken",
					"type": "address"
				},
				{
					"internalType": "uint256",
					"name": "_globalRateBps",
					"type": "uint256"
				}
			],
			"stateMutability": "nonpayable",
			"type": "constructor"
		},
		{
			"inputs": [],
			"name": "ReentrancyGuardReentrantCall",
			"type": "error"
		},
		{
			"anonymous": false,
			"inputs": [
				{
					"indexed": true,
					"internalType": "address",
					"name": "user",
					"type": "address"
				},
				{
					"indexed": false,
					"internalType": "uint256",
					"name": "depositId",
					"type": "uint256"
				},
				{
					"indexed": false,
					"internalType": "uint256",
					"name": "amount",
					"type": "uint256"
				},
				{
					"indexed": false,
					"internalType": "uint256",
					"name": "lockMonths",
					"type": "uint256"
				},
				{
					"indexed": false,
					"internalType": "uint256",
					"name": "unlockMonthIndex",
					"type": "uint256"
				}
			],
			"name": "DepositCreated",
			"type": "event"
		},
		{
			"anonymous": false,
			"inputs": [
				{
					"indexed": false,
					"internalType": "uint256",
					"name": "rateBps",
					"type": "uint256"
				}
			],
			"name": "GlobalRateUpdated",
			"type": "event"
		},
		{
			"anonymous": false,
			"inputs": [
				{
					"indexed": true,
					"internalType": "uint256",
					"name": "monthIndex",
					"type": "uint256"
				},
				{
					"indexed": false,
					"internalType": "uint256",
					"name": "start",
					"type": "uint256"
				},
				{
					"indexed": false,
					"internalType": "uint256",
					"name": "end",
					"type": "uint256"
				},
				{
					"indexed": false,
					"internalType": "uint256",
					"name": "rateBps",
					"type": "uint256"
				}
			],
			"name": "MonthAdded",
			"type": "event"
		},
		{
			"anonymous": false,
			"inputs": [
				{
					"indexed": false,
					"internalType": "uint256",
					"name": "lengthAfterDeletion",
					"type": "uint256"
				}
			],
			"name": "MonthDeleted",
			"type": "event"
		},
		{
			"anonymous": false,
			"inputs": [
				{
					"indexed": true,
					"internalType": "uint256",
					"name": "monthIndex",
					"type": "uint256"
				},
				{
					"indexed": false,
					"internalType": "uint256",
					"name": "start",
					"type": "uint256"
				},
				{
					"indexed": false,
					"internalType": "uint256",
					"name": "end",
					"type": "uint256"
				},
				{
					"indexed": false,
					"internalType": "uint256",
					"name": "rateBps",
					"type": "uint256"
				}
			],
			"name": "MonthEdited",
			"type": "event"
		},
		{
			"anonymous": false,
			"inputs": [
				{
					"indexed": false,
					"internalType": "uint256",
					"name": "startIndex",
					"type": "uint256"
				},
				{
					"indexed": false,
					"internalType": "uint256",
					"name": "endIndex",
					"type": "uint256"
				}
			],
			"name": "MonthsBatchAdded",
			"type": "event"
		},
		{
			"anonymous": false,
			"inputs": [
				{
					"indexed": true,
					"internalType": "address",
					"name": "user",
					"type": "address"
				},
				{
					"indexed": false,
					"internalType": "uint256",
					"name": "depositId",
					"type": "uint256"
				},
				{
					"indexed": false,
					"internalType": "uint256",
					"name": "amount",
					"type": "uint256"
				}
			],
			"name": "PrincipalWithdrawn",
			"type": "event"
		},
		{
			"anonymous": false,
			"inputs": [
				{
					"indexed": true,
					"internalType": "address",
					"name": "user",
					"type": "address"
				},
				{
					"indexed": false,
					"internalType": "uint256",
					"name": "depositId",
					"type": "uint256"
				},
				{
					"indexed": false,
					"internalType": "uint256",
					"name": "reward",
					"type": "uint256"
				}
			],
			"name": "RewardsWithdrawn",
			"type": "event"
		},
		{
			"inputs": [
				{
					"internalType": "uint256",
					"name": "start",
					"type": "uint256"
				},
				{
					"internalType": "uint256",
					"name": "end",
					"type": "uint256"
				},
				{
					"internalType": "uint256",
					"name": "rateBps",
					"type": "uint256"
				}
			],
			"name": "addMonth",
			"outputs": [],
			"stateMutability": "nonpayable",
			"type": "function"
		},
		{
			"inputs": [
				{
					"internalType": "uint256[]",
					"name": "starts",
					"type": "uint256[]"
				},
				{
					"internalType": "uint256[]",
					"name": "ends",
					"type": "uint256[]"
				},
				{
					"internalType": "uint256[]",
					"name": "rates",
					"type": "uint256[]"
				}
			],
			"name": "addMonthsBatch",
			"outputs": [],
			"stateMutability": "nonpayable",
			"type": "function"
		},
		{
			"inputs": [
				{
					"internalType": "uint256",
					"name": "",
					"type": "uint256"
				}
			],
			"name": "allUsers",
			"outputs": [
				{
					"internalType": "address",
					"name": "",
					"type": "address"
				}
			],
			"stateMutability": "view",
			"type": "function"
		},
		{
			"inputs": [
				{
					"internalType": "uint256",
					"name": "depositId",
					"type": "uint256"
				}
			],
			"name": "calculatePendingRewardForDeposit",
			"outputs": [
				{
					"internalType": "uint256",
					"name": "",
					"type": "uint256"
				}
			],
			"stateMutability": "view",
			"type": "function"
		},
		{
			"inputs": [
				{
					"internalType": "uint256",
					"name": "amount",
					"type": "uint256"
				},
				{
					"internalType": "uint256",
					"name": "startMonthIdx",
					"type": "uint256"
				},
				{
					"internalType": "uint256",
					"name": "lockMonths",
					"type": "uint256"
				},
				{
					"internalType": "uint256",
					"name": "depositStart",
					"type": "uint256"
				}
			],
			"name": "calculateReward",
			"outputs": [
				{
					"internalType": "uint256",
					"name": "",
					"type": "uint256"
				}
			],
			"stateMutability": "view",
			"type": "function"
		},
		{
			"inputs": [
				{
					"internalType": "uint256",
					"name": "amount",
					"type": "uint256"
				},
				{
					"internalType": "uint256",
					"name": "lockMonths",
					"type": "uint256"
				},
				{
					"internalType": "uint256",
					"name": "depositStart",
					"type": "uint256"
				}
			],
			"name": "calculateRewardByMonths",
			"outputs": [
				{
					"internalType": "uint256",
					"name": "",
					"type": "uint256"
				}
			],
			"stateMutability": "view",
			"type": "function"
		},
		{
			"inputs": [
				{
					"internalType": "uint256",
					"name": "amount",
					"type": "uint256"
				},
				{
					"internalType": "uint256",
					"name": "lockMonths",
					"type": "uint256"
				}
			],
			"name": "createDeposit",
			"outputs": [],
			"stateMutability": "nonpayable",
			"type": "function"
		},
		{
			"inputs": [],
			"name": "deleteLastMonth",
			"outputs": [],
			"stateMutability": "nonpayable",
			"type": "function"
		},
		{
			"inputs": [
				{
					"internalType": "uint256",
					"name": "",
					"type": "uint256"
				}
			],
			"name": "deposits",
			"outputs": [
				{
					"internalType": "address",
					"name": "owner",
					"type": "address"
				},
				{
					"internalType": "uint256",
					"name": "amount",
					"type": "uint256"
				},
				{
					"internalType": "uint256",
					"name": "monthIndex",
					"type": "uint256"
				},
				{
					"internalType": "uint256",
					"name": "depositStart",
					"type": "uint256"
				},
				{
					"internalType": "uint256",
					"name": "depositClosed",
					"type": "uint256"
				},
				{
					"internalType": "uint256",
					"name": "unlockMonthIndex",
					"type": "uint256"
				},
				{
					"internalType": "uint256",
					"name": "lastAccruedMonthIdx",
					"type": "uint256"
				},
				{
					"internalType": "bool",
					"name": "active",
					"type": "bool"
				}
			],
			"stateMutability": "view",
			"type": "function"
		},
		{
			"inputs": [],
			"name": "depositsAmount",
			"outputs": [
				{
					"internalType": "uint256",
					"name": "",
					"type": "uint256"
				}
			],
			"stateMutability": "view",
			"type": "function"
		},
		{
			"inputs": [
				{
					"internalType": "uint256",
					"name": "idx",
					"type": "uint256"
				},
				{
					"internalType": "uint256",
					"name": "start",
					"type": "uint256"
				},
				{
					"internalType": "uint256",
					"name": "end",
					"type": "uint256"
				},
				{
					"internalType": "uint256",
					"name": "rateBps",
					"type": "uint256"
				}
			],
			"name": "editMonth",
			"outputs": [],
			"stateMutability": "nonpayable",
			"type": "function"
		},
		{
			"inputs": [],
			"name": "getAllUsers",
			"outputs": [
				{
					"internalType": "address[]",
					"name": "",
					"type": "address[]"
				}
			],
			"stateMutability": "view",
			"type": "function"
		},
		{
			"inputs": [
				{
					"internalType": "uint256",
					"name": "depositId",
					"type": "uint256"
				}
			],
			"name": "getDepositById",
			"outputs": [
				{
					"components": [
						{
							"internalType": "address",
							"name": "owner",
							"type": "address"
						},
						{
							"internalType": "uint256",
							"name": "amount",
							"type": "uint256"
						},
						{
							"internalType": "uint256",
							"name": "monthIndex",
							"type": "uint256"
						},
						{
							"internalType": "uint256",
							"name": "depositStart",
							"type": "uint256"
						},
						{
							"internalType": "uint256",
							"name": "depositClosed",
							"type": "uint256"
						},
						{
							"internalType": "uint256",
							"name": "unlockMonthIndex",
							"type": "uint256"
						},
						{
							"internalType": "uint256",
							"name": "lastAccruedMonthIdx",
							"type": "uint256"
						},
						{
							"internalType": "bool",
							"name": "active",
							"type": "bool"
						}
					],
					"internalType": "struct GGWStake.Deposit",
					"name": "",
					"type": "tuple"
				}
			],
			"stateMutability": "view",
			"type": "function"
		},
		{
			"inputs": [],
			"name": "getTotalDeposits",
			"outputs": [
				{
					"internalType": "uint256",
					"name": "",
					"type": "uint256"
				}
			],
			"stateMutability": "view",
			"type": "function"
		},
		{
			"inputs": [],
			"name": "getTotalUsers",
			"outputs": [
				{
					"internalType": "uint256",
					"name": "",
					"type": "uint256"
				}
			],
			"stateMutability": "view",
			"type": "function"
		},
		{
			"inputs": [
				{
					"internalType": "address",
					"name": "user",
					"type": "address"
				}
			],
			"name": "getUserDeposits",
			"outputs": [
				{
					"internalType": "uint256[]",
					"name": "",
					"type": "uint256[]"
				}
			],
			"stateMutability": "view",
			"type": "function"
		},
		{
			"inputs": [],
			"name": "globalRateBps",
			"outputs": [
				{
					"internalType": "uint256",
					"name": "",
					"type": "uint256"
				}
			],
			"stateMutability": "view",
			"type": "function"
		},
		{
			"inputs": [
				{
					"internalType": "address",
					"name": "",
					"type": "address"
				}
			],
			"name": "isUser",
			"outputs": [
				{
					"internalType": "bool",
					"name": "",
					"type": "bool"
				}
			],
			"stateMutability": "view",
			"type": "function"
		},
		{
			"inputs": [],
			"name": "lastKnownMonthIndex",
			"outputs": [
				{
					"internalType": "uint256",
					"name": "",
					"type": "uint256"
				}
			],
			"stateMutability": "view",
			"type": "function"
		},
		{
			"inputs": [],
			"name": "minLockAmount",
			"outputs": [
				{
					"internalType": "uint256",
					"name": "",
					"type": "uint256"
				}
			],
			"stateMutability": "view",
			"type": "function"
		},
		{
			"inputs": [],
			"name": "minLockMonths",
			"outputs": [
				{
					"internalType": "uint256",
					"name": "",
					"type": "uint256"
				}
			],
			"stateMutability": "view",
			"type": "function"
		},
		{
			"inputs": [
				{
					"internalType": "uint256",
					"name": "",
					"type": "uint256"
				}
			],
			"name": "monthDepositsAmount",
			"outputs": [
				{
					"internalType": "uint256",
					"name": "",
					"type": "uint256"
				}
			],
			"stateMutability": "view",
			"type": "function"
		},
		{
			"inputs": [
				{
					"internalType": "uint256",
					"name": "",
					"type": "uint256"
				}
			],
			"name": "monthDepositsCount",
			"outputs": [
				{
					"internalType": "uint256",
					"name": "",
					"type": "uint256"
				}
			],
			"stateMutability": "view",
			"type": "function"
		},
		{
			"inputs": [
				{
					"internalType": "uint256",
					"name": "",
					"type": "uint256"
				}
			],
			"name": "months",
			"outputs": [
				{
					"internalType": "uint256",
					"name": "start",
					"type": "uint256"
				},
				{
					"internalType": "uint256",
					"name": "end",
					"type": "uint256"
				},
				{
					"internalType": "uint256",
					"name": "rateBps",
					"type": "uint256"
				}
			],
			"stateMutability": "view",
			"type": "function"
		},
		{
			"inputs": [],
			"name": "openedDeposits",
			"outputs": [
				{
					"internalType": "uint256",
					"name": "",
					"type": "uint256"
				}
			],
			"stateMutability": "view",
			"type": "function"
		},
		{
			"inputs": [],
			"name": "owner",
			"outputs": [
				{
					"internalType": "address",
					"name": "",
					"type": "address"
				}
			],
			"stateMutability": "view",
			"type": "function"
		},
		{
			"inputs": [
				{
					"internalType": "address",
					"name": "token",
					"type": "address"
				},
				{
					"internalType": "uint256",
					"name": "amount",
					"type": "uint256"
				}
			],
			"name": "recoverToken",
			"outputs": [],
			"stateMutability": "nonpayable",
			"type": "function"
		},
		{
			"inputs": [
				{
					"internalType": "uint256",
					"name": "",
					"type": "uint256"
				}
			],
			"name": "rewardsByMonths",
			"outputs": [
				{
					"internalType": "uint256",
					"name": "",
					"type": "uint256"
				}
			],
			"stateMutability": "view",
			"type": "function"
		},
		{
			"inputs": [
				{
					"internalType": "uint256",
					"name": "_rateBps",
					"type": "uint256"
				}
			],
			"name": "setGlobalRateBps",
			"outputs": [],
			"stateMutability": "nonpayable",
			"type": "function"
		},
		{
			"inputs": [
				{
					"internalType": "uint256",
					"name": "newMinLockAmount",
					"type": "uint256"
				}
			],
			"name": "setMinLockAmount",
			"outputs": [],
			"stateMutability": "nonpayable",
			"type": "function"
		},
		{
			"inputs": [
				{
					"internalType": "uint256",
					"name": "newMinLockMonths",
					"type": "uint256"
				}
			],
			"name": "setMinLockMonths",
			"outputs": [],
			"stateMutability": "nonpayable",
			"type": "function"
		},
		{
			"inputs": [],
			"name": "stakingToken",
			"outputs": [
				{
					"internalType": "contract IERC20",
					"name": "",
					"type": "address"
				}
			],
			"stateMutability": "view",
			"type": "function"
		},
		{
			"inputs": [
				{
					"internalType": "address",
					"name": "",
					"type": "address"
				},
				{
					"internalType": "uint256",
					"name": "",
					"type": "uint256"
				}
			],
			"name": "userDeposits",
			"outputs": [
				{
					"internalType": "uint256",
					"name": "",
					"type": "uint256"
				}
			],
			"stateMutability": "view",
			"type": "function"
		},
		{
			"inputs": [
				{
					"internalType": "uint256",
					"name": "depositId",
					"type": "uint256"
				}
			],
			"name": "withdrawPrincipalAndRewards",
			"outputs": [],
			"stateMutability": "nonpayable",
			"type": "function"
		},
		{
			"inputs": [
				{
					"internalType": "uint256",
					"name": "depositId",
					"type": "uint256"
				}
			],
			"name": "withdrawRewardsOnly",
			"outputs": [],
			"stateMutability": "nonpayable",
			"type": "function"
		}
	]
}