{
	"data": {
		"bytecode": {
			"linkReferences": {},
			"object": "60a06040526001600555670de0b6b3a76400006006555f600a55348015610024575f5ffd5b50604051614e2b380380614e2b83398101604081905261004391610109565b60015f556001600160a01b0382166100905760405162461bcd60e51b815260206004820152600b60248201526a546f6b656e3a207a65726f60a81b60448201526064015b60405180910390fd5b6127108111156100d05760405162461bcd60e51b815260206004820152600b60248201526a52617465203e203130302560a81b6044820152606401610087565b60018054336001600160a01b031991821681179092556002805490911690911790556001600160a01b0391909116608052600455610140565b5f5f6040838503121561011a575f5ffd5b82516001600160a01b0381168114610130575f5ffd5b6020939093015192949293505050565b608051614c786101b35f395f81816106cb01528181611071015281816116a20152818161172a015281816117b101528181611838015281816122bb015281816125280152818161290901528181612b0d01528181612f4b015281816130a7015281816135a50152613ab40152614c785ff3fe608060405234801561000f575f5ffd5b50600436106103d4575f3560e01c80637dc0d1d011610200578063b29a81401161011f578063d3d83445116100b4578063e2842d7911610084578063e2842d7914610907578063f2fde38b1461090f578063f4f8c84714610922578063f8799e1a1461092b578063fe4ab90a14610934575f5ffd5b8063d3d83445146108b1578063d6a13301146108c4578063d7d43c78146108ec578063dd4824a8146108f4575f5ffd5b8063ccaac244116100ef578063ccaac2441461086e578063ccbd00071461088d578063d188e3ae14610896578063d37528301461089e575f5ffd5b8063b29a81401461081f578063b42a275e14610832578063be2ff4a91461083b578063c491eecd1461084e575f5ffd5b80639be572f611610195578063a5c62cb411610165578063a5c62cb4146107cf578063a9783cd7146107d7578063b02c43d0146107df578063b18e71f21461080c575f5ffd5b80639be572f6146107955780639d13fa011461079d578063a2bdedf4146107bc578063a4a1e26314610795575f5ffd5b806391ba50cd116101d057806391ba50cd14610754578063936d4ffa1461076757806394c92f6d1461076f5780639521abc614610782575f5ffd5b80637dc0d1d0146107135780638c90926f146107265780638da5cb5b1461072e57806390693ca714610741575f5ffd5b806323e0ceb2116102f75780634698b8831161028c578063647fc56c1161025c578063647fc56c146106a05780637196d3e2146106b357806372f702f3146106c657806372fada5c146106ed5780637adbf97314610700575f5ffd5b80634698b883146106475780634b4d7aa81461065a5780634eff3d3d1461066d5780636241ca791461068d575f5ffd5b80634106ee75116102c75780634106ee75146105c657806341aff23e146105e65780634209fff11461060557806345982a6614610627575f5ffd5b806323e0ceb21461056c5780632e0e30641461058b5780632ffb3d2a1461059e57806336261236146105b1575f5ffd5b8063168a48221161036d5780631d0205b81161033d5780631d0205b8146104f95780631fb3bd93146105275780632290d5771461053a57806323b28a5414610559575f5ffd5b8063168a4822146104965780631bfc77611461049e5780631c5dc54c146104be5780631cc39d57146104c7575f5ffd5b806308f43333116103a857806308f43333146104255780630f68ae401461043857806310aef8121461044b578063137760e41461046b575f5ffd5b80620d6386146103d857806305a163b6146103f457806306f960bb14610409578063088042751461041c575b5f5ffd5b6103e1600a5481565b6040519081526020015b60405180910390f35b61040761040236600461425c565b61093d565b005b6104076104173660046142b3565b610bcc565b6103e160065481565b6103e16104333660046142ff565b610c81565b610407610446366004614327565b610cac565b61045e610459366004614382565b610cdb565b6040516103eb919061442c565b60035461047e906001600160a01b031681565b6040516001600160a01b0390911681526020016103eb565b600b546103e1565b6104b16104ac366004614327565b610dcb565b6040516103eb919061453b565b6103e160125481565b6104e96104d5366004614327565b600d6020525f908152604090205460ff1681565b60405190151581526020016103eb565b61050c610507366004614327565b610ec0565b604080519384526020840192909252908201526060016103eb565b610407610535366004614327565b610ef1565b6103e1610548366004614327565b600c6020525f908152604090205481565b61040761056736600461454a565b61116c565b6103e161057a366004614327565b600f6020525f908152604090205481565b6103e1610599366004614327565b6111f6565b6104076105ac3660046145ba565b61146a565b6105b96115da565b6040516103eb9190614684565b6105d96105d4366004614790565b6118af565b6040516103eb91906147b0565b6103e16105f4366004614327565b60156020525f908152604090205481565b6104e96106133660046147f3565b60086020525f908152604090205460ff1681565b61063a610635366004614790565b611aeb565b6040516103eb919061480c565b6105d961065536600461484c565b611c0c565b610407610668366004614327565b611ea2565b61068061067b366004614790565b611ed1565b6040516103eb919061487c565b61040761069b366004614327565b6120bd565b6104076106ae366004614327565b612392565b6103e16106c136600461425c565b612616565b61047e7f000000000000000000000000000000000000000000000000000000000000000081565b6104076106fb366004614327565b6127af565b61040761070e3660046147f3565b6129e9565b60025461047e906001600160a01b031681565b6103e1612a35565b60015461047e906001600160a01b031681565b6103e161074f366004614327565b612a5d565b610407610762366004614327565b612a7c565b6014546103e1565b61040761077d3660046147f3565b612bb4565b610407610790366004614327565b612c00565b6007546103e1565b6103e16107ab366004614327565b60166020525f908152604090205481565b61047e6107ca366004614327565b612c87565b6103e1612caf565b610407612d30565b6107f26107ed366004614327565b612e6e565b6040516103eb9e9d9c9b9a999897969594939291906148f7565b61040761081a366004614790565b612efc565b61040761082d3660046142ff565b612f1f565b6103e160135481565b610407610849366004614327565b61303f565b61086161085c3660046147f3565b61315b565b6040516103eb9190614982565b6103e161087c366004614327565b60176020525f908152604090205481565b6103e160105481565b6103e16131c4565b6105d96108ac366004614790565b61320f565b6104076108bf366004614327565b613415565b6103e16108d23660046147f3565b6001600160a01b03165f9081526009602052604090205490565b600e546103e1565b6103e161090236600461454a565b613676565b61063a613818565b61040761091d3660046147f3565b613878565b6103e160045481565b6103e160055481565b6103e160115481565b6001546001600160a01b031633146109705760405162461bcd60e51b8152600401610967906149b9565b60405180910390fd5b60145484106109ad5760405162461bcd60e51b815260206004820152600960248201526824b73232bc1027a7a160b91b6044820152606401610967565b8183106109ec5760405162461bcd60e51b815260206004820152600d60248201526c496e76616c69642072616e676560981b6044820152606401610967565b8015610a1457612710811115610a145760405162461bcd60e51b8152600401610967906149dd565b428311610a4d5760405162461bcd60e51b815260206004820152600760248201526614dd185c9d195960ca1b6044820152606401610967565b8315610ab5576014610a60600186614a16565b81548110610a7057610a70614a29565b905f5260205f20906003020160010154831015610ab55760405162461bcd60e51b815260206004820152600360248201526253657160e81b6044820152606401610967565b601454610ac3856001614a3d565b1015610b2e576014610ad6856001614a3d565b81548110610ae657610ae6614a29565b905f5260205f2090600302015f0154821115610b2e5760405162461bcd60e51b815260206004820152600760248201526604f7665726c61760cc1b6044820152606401610967565b60405180606001604052808481526020018381526020018281525060148581548110610b5c57610b5c614a29565b5f9182526020918290208351600390920201908155828201516001820155604092830151600290910155815185815290810184905290810182905284907f68f039af08c3a62dae4b7e4244543803dce43c9c5a2ad9ef05fea8366f4c86239060600160405180910390a250505050565b610bd46138ea565b6001546001600160a01b0316331480610bf757506002546001600160a01b031633145b610c3a5760405162461bcd60e51b81526020600482015260146024820152734f6e6c79206f776e6572206f72206f7261636c6560601b6044820152606401610967565b8115610c6257612710811115610c625760405162461bcd60e51b8152600401610967906149dd565b610c7185858585856001613912565b610c7a60015f55565b5050505050565b6009602052815f5260405f208181548110610c9a575f80fd5b905f5260205f20015f91509150505481565b6001546001600160a01b03163314610cd65760405162461bcd60e51b8152600401610967906149b9565b600655565b606081516001600160401b03811115610cf657610cf661433e565b604051908082528060200260200182016040528015610d3a57816020015b604080518082019091525f8082526020820152815260200190600190039081610d145790505b5090505f5b8251811015610dc5576040518060400160405280848381518110610d6557610d65614a29565b60200260200101518152602001600c5f868581518110610d8757610d87614a29565b602002602001015181526020019081526020015f2054815250828281518110610db257610db2614a29565b6020908102919091010152600101610d3f565b50919050565b610dd36141ec565b600b8281548110610de657610de6614a29565b5f918252602091829020604080516101c081018252600d9093029091018054835260018101546001600160a01b0316938301939093526002830154908201526003820154606082015260048201546080820152600582015460a0820152600682015460c0820152600782015460e0820152600882015461010080830191909152600983015460ff808216151561012085015291900481161515610140830152600a830154610160830152600b830154161515610180820152600c909101546101a08201529050610eb5826111f6565b610100820152919050565b60148181548110610ecf575f80fd5b5f91825260209091206003909102018054600182015460029092015490925083565b610ef96138ea565b5f600b8281548110610f0d57610f0d614a29565b5f9182526020909120600d90910201600981015490915060ff1615610f605760405162461bcd60e51b815260206004820152600960248201526849732061637469766560b81b6044820152606401610967565b60018101546001600160a01b03163314610f8c5760405162461bcd60e51b815260040161096790614a50565b6009810154610100900460ff16610fd15760405162461bcd60e51b8152602060048201526009602482015268139bdd081cd85d995960ba1b6044820152606401610967565b80600a01546013541015610ff75760405162461bcd60e51b815260040161096790614a73565b5f81600a015490508060135f8282546110109190614a16565b925050819055508060125f8282546110289190614a3d565b90915550505f838152600c60205260408120805483929061104a908490614a3d565b909155505080156110ff5760405163a9059cbb60e01b8152336004820152602481018290527f00000000000000000000000000000000000000000000000000000000000000006001600160a01b03169063a9059cbb906044016020604051808303815f875af11580156110bf573d5f5f3e3d5ffd5b505050506040513d601f19601f820116820180604052508101906110e39190614a97565b6110ff5760405162461bcd60e51b815260040161096790614ab2565b60098201805461ff00191690555f600a8301556001820154825460408051918252602082018490526001600160a01b03909216917f89944602fcc483994090377f9abd25a68ee71ae7ef66db82411cc0739ab35cd8910160405180910390a2505061116960015f55565b50565b6001546001600160a01b031633146111965760405162461bcd60e51b8152600401610967906149b9565b6111a1838383613ece565b6014546111b090600190614a16565b60408051858152602081018590529081018390527f901d51af3f40466612c7be89ba349f0b5aa321186bb4de023367f1ca25acdced9060600160405180910390a2505050565b5f5f600b838154811061120b5761120b614a29565b5f918252602091829020604080516101c081018252600d9093029091018054835260018101546001600160a01b0316938301939093526002830154908201526003820154606082015260048201546080820152600582015460a0820152600682015460c0820152600782015460e0820152600882015461010080830191909152600983015460ff80821615156101208501529190048116158015610140840152600a840154610160840152600b8401549091161515610180830152600c909201546101a082015291506112e357610160015192915050565b604081015115806112f75750806101200151155b1561130457505f92915050565b60e08101515f6113148282614044565b905081811161132757505f949350505050565b60408301515f90835b8381101561145e575f6014828154811061134c5761134c614a29565b905f5260205f2090600302016040518060600160405290815f82015481526020016001820154815260200160028201548152505090505f87610180015161139b5761139683614092565b6113a2565b876101a001515b90505f6127106113b28387614adb565b6113bc9190614af2565b90508860600151840361144557825160208401515f6113db8383614a16565b90505f838d60800151116113ef57836113f5565b8c608001515b90508280821061140c575050505050505050611456565b5f6114178383614a16565b9050836114248289614adb565b61142e9190614af2565b611438908d614a3d565b9b50505050505050611452565b61144f8187614a3d565b95505b5050505b600101611330565b50909695505050505050565b6001546001600160a01b031633146114945760405162461bcd60e51b8152600401610967906149b9565b84831480156114a257508481145b6114e05760405162461bcd60e51b815260206004820152600f60248201526e098cadccee8d040dad2e6dac2e8c6d608b1b6044820152606401610967565b846115155760405162461bcd60e51b8152602060048201526005602482015264456d70747960d81b6044820152606401610967565b5f5b8581101561157a5761157287878381811061153457611534614a29565b9050602002013586868481811061154d5761154d614a29565b9050602002013585858581811061156657611566614a29565b90506020020135613ece565b600101611517565b506014547fab080e234ebab87937f1d48c107ecb8ab6361d9012a0670705e920b9cffe1011906115ab908790614a16565b6014546115ba90600190614a16565b6040805192835260208301919091520160405180910390a1505050505050565b61165e6040518061022001604052805f81526020015f81526020015f81526020015f81526020015f81526020015f81526020015f60ff16815260200160608152602001606081526020015f6001600160a01b031681526020015f81526020015f81526020015f81526020015f81526020015f81526020015f81526020015f81525090565b60405180610220016040528060078054905081526020016010548152602001600b8054905081526020016011548152602001601254815260200160135481526020017f00000000000000000000000000000000000000000000000000000000000000006001600160a01b031663313ce5676040518163ffffffff1660e01b8152600401602060405180830381865afa1580156116fc573d5f5f3e3d5ffd5b505050506040513d601f19601f820116820180604052508101906117209190614b11565b60ff1681526020017f00000000000000000000000000000000000000000000000000000000000000006001600160a01b03166306fdde036040518163ffffffff1660e01b81526004015f60405180830381865afa158015611783573d5f5f3e3d5ffd5b505050506040513d5f823e601f3d908101601f191682016040526117aa9190810190614b31565b81526020017f00000000000000000000000000000000000000000000000000000000000000006001600160a01b03166395d89b416040518163ffffffff1660e01b81526004015f60405180830381865afa15801561180a573d5f5f3e3d5ffd5b505050506040513d5f823e601f3d908101601f191682016040526118319190810190614b31565b81526020017f00000000000000000000000000000000000000000000000000000000000000006001600160a01b03168152602001600454815260200160055481526020016006548152602001611885612a35565b81526020016118926131c4565b815260200161189f612caf565b8152601454602090910152919050565b6060815f036118be57600e5491505b5f6118c98385614a3d565b600e549091508411156118dc5750611ae5565b600e548111156118eb5750600e545b6118f58482614a16565b6001600160401b0381111561190c5761190c61433e565b60405190808252806020026020018201604052801561194557816020015b6119326141ec565b81526020019060019003908161192a5790505b5091505f5b6119548583614a16565b811015611ae257600b600e60018784600e805490506119739190614a16565b61197d9190614a16565b6119879190614a16565b8154811061199757611997614a29565b905f5260205f200154815481106119b0576119b0614a29565b5f918252602091829020604080516101c081018252600d9093029091018054835260018101546001600160a01b0316938301939093526002830154908201526003820154606082015260048201546080820152600582015460a0820152600682015460c0820152600782015460e0820152600882015461010080830191909152600983015460ff808216151561012085015291900481161515610140830152600a830154610160830152600b830154161515610180820152600c909101546101a08201528351849083908110611a8857611a88614a29565b6020026020010181905250611ab8838281518110611aa857611aa8614a29565b60200260200101515f01516111f6565b838281518110611aca57611aca614a29565b6020908102919091010151610100015260010161194a565b50505b92915050565b6060815f03611afa5760075491505b5f611b058385614a3d565b600754909150841115611b185750611ae5565b600754811115611b2757506007545b611b318482614a16565b6001600160401b03811115611b4857611b4861433e565b604051908082528060200260200182016040528015611b71578160200160208202803683370190505b5091505f5b611b808583614a16565b811015611ae257600780546001908790611b9b908590614a16565b611ba59190614a16565b611baf9190614a16565b81548110611bbf57611bbf614a29565b905f5260205f20015f9054906101000a90046001600160a01b0316838281518110611bec57611bec614a29565b6001600160a01b0390921660209283029190910190910152600101611b76565b6060815f03611c30576001600160a01b0384165f9081526009602052604090205491505b5f611c3b8385614a3d565b6001600160a01b0386165f90815260096020526040902054909150841115611c635750611e9b565b6001600160a01b0385165f90815260096020526040902054811115611c9c57506001600160a01b0384165f908152600960205260409020545b611ca68482614a16565b6001600160401b03811115611cbd57611cbd61433e565b604051908082528060200260200182016040528015611cf657816020015b611ce36141ec565b815260200190600190039081611cdb5790505b5091505f5b611d058583614a16565b811015611e98576001600160a01b0386165f9081526009602052604090208054600b91906001908890611d39908690614a16565b611d439190614a16565b611d4d9190614a16565b81548110611d5d57611d5d614a29565b905f5260205f20015481548110611d7657611d76614a29565b5f918252602091829020604080516101c081018252600d9093029091018054835260018101546001600160a01b0316938301939093526002830154908201526003820154606082015260048201546080820152600582015460a0820152600682015460c0820152600782015460e0820152600882015461010080830191909152600983015460ff808216151561012085015291900481161515610140830152600a830154610160830152600b830154161515610180820152600c909101546101a08201528351849083908110611e4e57611e4e614a29565b6020026020010181905250611e6e838281518110611aa857611aa8614a29565b838281518110611e8057611e80614a29565b60209081029190910101516101000152600101611cfb565b50505b9392505050565b6001546001600160a01b03163314611ecc5760405162461bcd60e51b8152600401610967906149b9565b600555565b6060815f03611ee05760145491505b5f611eeb8385614a3d565b601454909150841115611efe5750611ae5565b601454811115611f0d57506014545b611f178482614a16565b6001600160401b03811115611f2e57611f2e61433e565b604051908082528060200260200182016040528015611f9857816020015b611f856040518060e001604052805f81526020015f81526020015f81526020015f81526020015f81526020015f81526020015f81525090565b815260200190600190039081611f4c5790505b5091505f5b611fa78583614a16565b811015611ae2575f60018683601480549050611fc39190614a16565b611fcd9190614a16565b611fd79190614a16565b90506040518060e0016040528082815260200160148381548110611ffd57611ffd614a29565b905f5260205f2090600302015f015481526020016014838154811061202457612024614a29565b905f5260205f2090600302016001015481526020016014838154811061204c5761204c614a29565b5f91825260208083206002600390930201919091015483528482526015815260408083205484830152858352601682528083205481850152858352601790915290205460609091015284518590849081106120a9576120a9614a29565b602090810291909101015250600101611f9d565b6120c56138ea565b5f600b82815481106120d9576120d9614a29565b5f9182526020909120600d90910201600981015490915060ff1661210f5760405162461bcd60e51b815260040161096790614bc3565b60018101546001600160a01b0316331461213b5760405162461bcd60e51b815260040161096790614a50565b5f612144612caf565b905081600601548110156121835760405162461bcd60e51b8152602060048201526006602482015265131bd8dad95960d21b6044820152606401610967565b5f61218d846111f6565b90508060135410156121b15760405162461bcd60e51b815260040161096790614a73565b5f8184600201546121c29190614a3d565b9050836002015460115f8282546121d99190614a16565b909155505060098401805460ff1916905542600585015560078401545f906122019082614044565b60078601819055600a859055601080549192505f61221e83614be5565b91905055508260135f8282546122349190614a16565b925050819055508260125f82825461224c9190614a3d565b90915550505f868152600c60205260408120805485929061226e908490614a3d565b9091555061227d9050866140d0565b5f848152601760205260408120805485929061229a908490614a3d565b909155505060405163a9059cbb60e01b8152336004820152602481018390527f00000000000000000000000000000000000000000000000000000000000000006001600160a01b03169063a9059cbb906044016020604051808303815f875af1158015612309573d5f5f3e3d5ffd5b505050506040513d601f19601f8201168201806040525081019061232d9190614a97565b6123495760405162461bcd60e51b815260040161096790614ab2565b604080518781526020810184905233917f217ea3989b9d3112d2133a930216f444b7fbcaeaa4d5bc0220d099fdc928e71e910160405180910390a2505050505061116960015f55565b61239a6138ea565b5f600b82815481106123ae576123ae614a29565b5f9182526020909120600d90910201600981015490915060ff166123e45760405162461bcd60e51b815260040161096790614bc3565b60018101546001600160a01b031633146124105760405162461bcd60e51b815260040161096790614a50565b5f612419612caf565b905081600601548110156124585760405162461bcd60e51b8152602060048201526006602482015265131bd8dad95960d21b6044820152606401610967565b5f612462846111f6565b9050826002015460115f8282546124799190614a16565b909155505060098301805461ffff1916610100179055600a80840182905542600585015582905560108054905f6124af83614be5565b91905055506124bd846140d0565b5f82815260176020526040812080548392906124da908490614a3d565b925050819055508060125f8282546124f29190614a3d565b90915550506001830154600284015460405163a9059cbb60e01b81526001600160a01b03928316600482015260248101919091527f00000000000000000000000000000000000000000000000000000000000000009091169063a9059cbb906044016020604051808303815f875af1158015612570573d5f5f3e3d5ffd5b505050506040513d601f19601f820116820180604052508101906125949190614a97565b6125b05760405162461bcd60e51b815260040161096790614ab2565b60018301548354600285015460408051928352602083019190915281018390526001600160a01b03909116907f2bb9e1005bd12abff0a36b08286208299f11bac0718c4590fd6f4eabd7667cf9906060015b60405180910390a250505061116960015f55565b5f841580612622575082155b8061262f57506014548410155b1561263b57505f6127a7565b5f6126468486614a3d565b6014549091508111156126675750601454848111612667575f9150506127a7565b825f03612672574292505b805f865b828110156127a1576014548110156127a1575f6014828154811061269c5761269c614a29565b905f5260205f2090600302016040518060600160405290815f82015481526020016001820154815260200160028201548152505090505f6126dc83614092565b90505f6127106126ec838e614adb565b6126f69190614af2565b90508a840361278857825160208401515f6127118383614a16565b90505f838d116127215783612723565b8c5b90508280821061273a575050505050505050612799565b5f6127458383614a16565b9050835f0361275c57505050505050505050612799565b836127678289614adb565b6127719190614af2565b61277b908c614a3d565b9a50505050505050612795565b6127928186614a3d565b94505b5050505b600101612676565b50925050505b949350505050565b6127b76138ea565b6001546001600160a01b031633146127e15760405162461bcd60e51b8152600401610967906149b9565b5f600b82815481106127f5576127f5614a29565b5f9182526020909120600d90910201600981015490915060ff1661284e5760405162461bcd60e51b815260206004820152601060248201526f4465706f73697420696e61637469766560801b6044820152606401610967565b80545f908152600d602052604090205460ff166128ad5760405162461bcd60e51b815260206004820152601f60248201527f43616e206f6e6c792063616e63656c206f7261636c65206465706f73697473006044820152606401610967565b60098101805460ff1916905560108054905f6128c883614be5565b9190505550806002015460115f8282546128e29190614a16565b9091555050600281015460405163a9059cbb60e01b815233600482015260248101919091527f00000000000000000000000000000000000000000000000000000000000000006001600160a01b03169063a9059cbb906044016020604051808303815f875af1158015612957573d5f5f3e3d5ffd5b505050506040513d601f19601f8201168201806040525081019061297b9190614a97565b6129975760405162461bcd60e51b815260040161096790614ab2565b8054600282015460405133927f24c9e122007bd4087408943168fbcd65248594530e482b6a9abe4484767eb0c3926129d792918252602082015260400190565b60405180910390a25061116960015f55565b6001546001600160a01b03163314612a135760405162461bcd60e51b8152600401610967906149b9565b600280546001600160a01b0319166001600160a01b0392909216919091179055565b5f5f600454905061271081601154612a4d9190614adb565b612a579190614af2565b91505090565b600e8181548110612a6c575f80fd5b5f91825260209091200154905081565b6001546001600160a01b0316331480612a9f57506003546001600160a01b031633145b612aeb5760405162461bcd60e51b815260206004820152601960248201527f4f6e6c79206f776e6572206f72207374616b65206f72636c65000000000000006044820152606401610967565b6040516323b872dd60e01b8152336004820152306024820152604481018290527f00000000000000000000000000000000000000000000000000000000000000006001600160a01b0316906323b872dd906064016020604051808303815f875af1158015612b5b573d5f5f3e3d5ffd5b505050506040513d601f19601f82011682018060405250810190612b7f9190614a97565b612b9b5760405162461bcd60e51b815260040161096790614bfa565b8060135f828254612bac9190614a3d565b909155505050565b6001546001600160a01b03163314612bde5760405162461bcd60e51b8152600401610967906149b9565b600380546001600160a01b0319166001600160a01b0392909216919091179055565b6001546001600160a01b03163314612c2a5760405162461bcd60e51b8152600401610967906149b9565b612710811115612c4c5760405162461bcd60e51b8152600401610967906149dd565b60048190556040518181527f71ca8c1a2bc00717637fb3e9d048da574b351106cfcf0832e2dfe20f4e633dcf9060200160405180910390a150565b60078181548110612c96575f80fd5b5f918252602090912001546001600160a01b0316905081565b600a545f9042905b601454811015612d265760148181548110612cd457612cd4614a29565b905f5260205f2090600302015f01548210158015612d13575060148181548110612d0057612d00614a29565b905f5260205f2090600302016001015482105b15612d1e5792915050565b600101612cb7565b5050601454919050565b6001546001600160a01b03163314612d5a5760405162461bcd60e51b8152600401610967906149b9565b601454612d925760405162461bcd60e51b8152600401610967906020808252600490820152634e6f6e6560e01b604082015260600190565b60148054429190612da590600190614a16565b81548110612db557612db5614a29565b905f5260205f2090600302015f015411612dfb5760405162461bcd60e51b815260206004820152600760248201526614dd185c9d195960ca1b6044820152606401610967565b6014805480612e0c57612e0c614c16565b5f8281526020812060035f1990930192830201818155600181018290556002015590556014546040517fd84ba012185e6b11c267bbf53304405446699fded2a2a85c6c6523d2cd3fd79091612e649190815260200190565b60405180910390a1565b600b8181548110612e7d575f80fd5b5f9182526020909120600d9091020180546001820154600283015460038401546004850154600586015460068701546007880154600889015460098a0154600a8b0154600b8c0154600c909c01549a9c506001600160a01b039099169a979996989597949693959294919360ff8083169461010090930481169316908e565b612f046138ea565b612f123383835f5f5f613912565b612f1b60015f55565b5050565b6001546001600160a01b03163314612f495760405162461bcd60e51b8152600401610967906149b9565b7f00000000000000000000000000000000000000000000000000000000000000006001600160a01b0316826001600160a01b031603612f9a5760405162461bcd60e51b815260040161096790614bfa565b60015460405163a9059cbb60e01b81526001600160a01b039182166004820152602481018390529083169063a9059cbb906044016020604051808303815f875af1158015612fea573d5f5f3e3d5ffd5b505050506040513d601f19601f8201168201806040525081019061300e9190614a97565b612f1b5760405162461bcd60e51b8152602060048201526002602482015261229960f11b6044820152606401610967565b6001546001600160a01b031633146130695760405162461bcd60e51b8152600401610967906149b9565b80601354101561308b5760405162461bcd60e51b815260040161096790614bfa565b60405163a9059cbb60e01b8152336004820152602481018290527f00000000000000000000000000000000000000000000000000000000000000006001600160a01b03169063a9059cbb906044016020604051808303815f875af11580156130f5573d5f5f3e3d5ffd5b505050506040513d601f19601f820116820180604052508101906131199190614a97565b61314a5760405162461bcd60e51b8152602060048201526002602482015261229960f11b6044820152606401610967565b8060135f828254612bac9190614a16565b6001600160a01b0381165f908152600960209081526040918290208054835181840281018401909452808452606093928301828280156131b857602002820191905f5260205f20905b8154815260200190600101908083116131a4575b50505050509050919050565b5f5f6131ce612caf565b60145490915081106131e1575f91505090565b5f6131eb82614092565b9050612710816011546131fe9190614adb565b6132089190614af2565b9250505090565b6060815f0361321e57600b5491505b5f6132298385614a3d565b600b5490915084111561323c5750611ae5565b600b5481111561324b5750600b545b6132558482614a16565b6001600160401b0381111561326c5761326c61433e565b6040519080825280602002602001820160405280156132a557816020015b6132926141ec565b81526020019060019003908161328a5790505b5091505f5b6132b48583614a16565b811015611ae257600b805460019087906132cf908590614a16565b6132d99190614a16565b6132e39190614a16565b815481106132f3576132f3614a29565b5f918252602091829020604080516101c081018252600d9093029091018054835260018101546001600160a01b0316938301939093526002830154908201526003820154606082015260048201546080820152600582015460a0820152600682015460c0820152600782015460e0820152600882015461010080830191909152600983015460ff808216151561012085015291900481161515610140830152600a830154610160830152600b830154161515610180820152600c909101546101a082015283518490839081106133cb576133cb614a29565b60200260200101819052506133eb838281518110611aa857611aa8614a29565b8382815181106133fd576133fd614a29565b602090810291909101015161010001526001016132aa565b61341d6138ea565b5f600b828154811061343157613431614a29565b5f9182526020909120600d90910201600981015490915060ff166134675760405162461bcd60e51b815260040161096790614bc3565b60018101546001600160a01b031633146134935760405162461bcd60e51b815260040161096790614a50565b5f61349d836111f6565b90505f81116134db5760405162461bcd60e51b815260206004820152600a6024820152694e6f207265776172647360b01b6044820152606401610967565b8060135410156134fd5760405162461bcd60e51b815260040161096790614a73565b5f61350c83600701545f614044565b90508083600701819055508160135f8282546135289190614a16565b925050819055508160125f8282546135409190614a3d565b90915550505f848152600c602052604081208054849290613562908490614a3d565b90915550505f8181526017602052604081208054849290613584908490614a3d565b909155505060405163a9059cbb60e01b8152336004820152602481018390527f00000000000000000000000000000000000000000000000000000000000000006001600160a01b03169063a9059cbb906044016020604051808303815f875af11580156135f3573d5f5f3e3d5ffd5b505050506040513d601f19601f820116820180604052508101906136179190614a97565b6136335760405162461bcd60e51b815260040161096790614ab2565b61363b612caf565b600a55604080518581526020810184905233917ffa73d3ab3a92ed3f2b694757d8e4b2f3c293654b11b9c79111f8971f861b22b29101612602565b5f831580613682575082155b1561368e57505f611e9b565b815f03613699574291505b5f6136a38361417a565b60145490915081106136b8575f915050611e9b565b5f6136c38583614a3d565b6014549091508111156136d557506014545b8181116136e6575f92505050611e9b565b5f825b8281101561380d575f6014828154811061370557613705614a29565b905f5260205f2090600302016040518060600160405290815f82015481526020016001820154815260200160028201548152505090505f61374583614092565b90505f612710613755838d614adb565b61375f9190614af2565b90508684036137f45782515f908a1161377957835161377b565b895b6020850151909150808210613794575050505050613805565b5f61379f8383614a16565b90505f865f015187602001516137b59190614a16565b9050805f036137ca5750505050505050613805565b806137d58387614adb565b6137df9190614af2565b6137e9908a614a3d565b985050505050613801565b6137fe8186614a3d565b94505b5050505b6001016136e9565b509695505050505050565b6060600780548060200260200160405190810160405280929190818152602001828054801561386e57602002820191905f5260205f20905b81546001600160a01b03168152600190910190602001808311613850575b5050505050905090565b6001546001600160a01b031633146138a25760405162461bcd60e51b8152600401610967906149b9565b6001600160a01b0381166138c85760405162461bcd60e51b815260040161096790614bfa565b600180546001600160a01b0319166001600160a01b0392909216919091179055565b60025f540361390c57604051633ee5aeb560e01b815260040160405180910390fd5b60025f55565b6006548510156139515760405162461bcd60e51b815260206004820152600a602482015269135a5b88185b5bdd5b9d60b21b6044820152606401610967565b6005548410156139995760405162461bcd60e51b81526020600482015260136024820152722637b1b59036bab9ba1031329033b932b0b2b960691b6044820152606401610967565b6014546139d45760405162461bcd60e51b81526020600482015260096024820152684e6f206d6f6e74687360b81b6044820152606401610967565b5f6139dd612caf565b6014549091508110613a245760405162461bcd60e51b815260206004820152601060248201526f151a5b59481b9bdd0818dbdd995c995960821b6044820152606401610967565b5f613a2f8683614a3d565b601454909150811115613a925760405162461bcd60e51b815260206004820152602560248201527f4c6f636b20706572696f64206578636565647320636f6e66696775726564206d6044820152646f6e74687360d81b6064820152608401610967565b6040516323b872dd60e01b8152336004820152306024820152604481018890527f00000000000000000000000000000000000000000000000000000000000000006001600160a01b0316906323b872dd906064016020604051808303815f875af1158015613b02573d5f5f3e3d5ffd5b505050506040513d601f19601f82011682018060405250810190613b269190614a97565b613b425760405162461bcd60e51b815260040161096790614ab2565b6001600160a01b0388165f9081526008602052604090205460ff16613bc6576001600160a01b0388165f818152600860205260408120805460ff191660019081179091556007805491820181559091527fa66cc928b5edb82af9bd49922954155ab7b0942694bea4ce44661d9a8736c6880180546001600160a01b03191690911790555b600b604051806101c00160405280600b8054905081526020018a6001600160a01b031681526020018981526020018481526020014281526020015f81526020018381526020018481526020015f81526020016001151581526020015f151581526020015f8152602001871515815260200186815250908060018154018082558091505060019003905f5260205f2090600d02015f909190919091505f820151815f01556020820151816001015f6101000a8154816001600160a01b0302191690836001600160a01b0316021790555060408201518160020155606082015181600301556080820151816004015560a0820151816005015560c0820151816006015560e082015181600701556101008201518160080155610120820151816009015f6101000a81548160ff0219169083151502179055506101408201518160090160016101000a81548160ff02191690831515021790555061016082015181600a015561018082015181600b015f6101000a81548160ff0219169083151502179055506101a082015181600c015550505f6001600b80549050613d689190614a16565b5f818152600d60209081526040808320805460ff19168915151790556001600160a01b038d168352600982528220805460018101825590835290822001829055600a859055601180549293508a92909190613dc4908490614a3d565b909155505060108054905f613dd883614c2a565b9091555050600e8054600181810183555f8390527fbb7b4a454dc3493923482f07822329ed19e8244eff582cc204f8554c3620c3fd9091018390559054613e1f9190614a16565b5f828152600f602090815260408083209390935585825260159052908120805491613e4983614c2a565b90915550505f83815260166020526040812080548a9290613e6b908490614a3d565b909155505060408051828152602081018a9052908101889052606081018390526001600160a01b038a16907f554f20505671494900b631b0e443e9e7a59743ec9889b05e28d8ac9ea158266b9060800160405180910390a2505050505050505050565b818310613f0d5760405162461bcd60e51b815260206004820152600d60248201526c496e76616c69642072616e676560981b6044820152606401610967565b8015613f3557612710811115613f355760405162461bcd60e51b8152600401610967906149dd565b60145415613fa25760148054613f4d90600190614a16565b81548110613f5d57613f5d614a29565b905f5260205f20906003020160010154831015613fa25760405162461bcd60e51b815260206004820152600360248201526253657160e81b6044820152606401610967565b60408051606081018252938452602084019283528301908152601480546001810182555f9190915292517fce6d7b5282bd9a3661ae061feed1dbda4e52ab073b1f9285be6e155d9c38d4ec60039094029384015590517fce6d7b5282bd9a3661ae061feed1dbda4e52ab073b1f9285be6e155d9c38d4ed830155517fce6d7b5282bd9a3661ae061feed1dbda4e52ab073b1f9285be6e155d9c38d4ee90910155565b5f815f03614050574291505b825b601454811080156140855750826014828154811061407257614072614a29565b905f5260205f2090600302016001015411155b15611e9b57600101614052565b5f5f601483815481106140a7576140a7614a29565b905f5260205f209060030201600201549050805f146140c65780611e9b565b6004549392505050565b5f818152600f6020526040812054600e80549192916140f190600190614a16565b8154811061410157614101614a29565b905f5260205f200154905080600e838154811061412057614120614a29565b5f918252602080832090910192909255828152600f90915260409020829055600e80548061415057614150614c16565b5f828152602080822083015f19908101839055909201909255938152600f90935250506040812055565b5f805b601454811015612d26576014818154811061419a5761419a614a29565b905f5260205f2090600302015f015483101580156141d95750601481815481106141c6576141c6614a29565b905f5260205f2090600302016001015483105b156141e45792915050565b60010161417d565b604051806101c001604052805f81526020015f6001600160a01b031681526020015f81526020015f81526020015f81526020015f81526020015f81526020015f81526020015f81526020015f151581526020015f151581526020015f81526020015f151581526020015f81525090565b5f5f5f5f6080858703121561426f575f5ffd5b5050823594602084013594506040840135936060013592509050565b80356001600160a01b03811681146142a1575f5ffd5b919050565b8015158114611169575f5ffd5b5f5f5f5f5f60a086880312156142c7575f5ffd5b6142d08661428b565b9450602086013593506040860135925060608601356142ee816142a6565b949793965091946080013592915050565b5f5f60408385031215614310575f5ffd5b6143198361428b565b946020939093013593505050565b5f60208284031215614337575f5ffd5b5035919050565b634e487b7160e01b5f52604160045260245ffd5b604051601f8201601f191681016001600160401b038111828210171561437a5761437a61433e565b604052919050565b5f60208284031215614392575f5ffd5b81356001600160401b038111156143a7575f5ffd5b8201601f810184136143b7575f5ffd5b80356001600160401b038111156143d0576143d061433e565b8060051b6143e060208201614352565b918252602081840181019290810190878411156143fb575f5ffd5b6020850194505b8385101561442157843580835260209586019590935090910190614402565b979650505050505050565b602080825282518282018190525f918401906040840190835b8181101561446f578351805184526020908101518185015290930192604090920191600101614445565b509095945050505050565b80518252602081015161449860208401826001600160a01b03169052565b5060408101516040830152606081015160608301526080810151608083015260a081015160a083015260c081015160c083015260e081015160e08301526101008101516101008301526101208101516144f661012084018215159052565b5061014081015161450c61014084018215159052565b5061016081015161016083015261018081015161452e61018084018215159052565b506101a090810151910152565b6101c08101611ae5828461447a565b5f5f5f6060848603121561455c575f5ffd5b505081359360208301359350604090920135919050565b5f5f83601f840112614583575f5ffd5b5081356001600160401b03811115614599575f5ffd5b6020830191508360208260051b85010111156145b3575f5ffd5b9250929050565b5f5f5f5f5f5f606087890312156145cf575f5ffd5b86356001600160401b038111156145e4575f5ffd5b6145f089828a01614573565b90975095505060208701356001600160401b0381111561460e575f5ffd5b61461a89828a01614573565b90955093505060408701356001600160401b03811115614638575f5ffd5b61464489828a01614573565b979a9699509497509295939492505050565b5f81518084528060208401602086015e5f602082860101526020601f19601f83011685010191505092915050565b6020815281516020820152602082015160408201526040820151606082015260608201516080820152608082015160a082015260a082015160c08201525f60c08301516146d660e084018260ff169052565b5060e08301516102206101008401526146f3610240840182614656565b9050610100840151601f19848303016101208501526147128282614656565b9150506101208401516147316101408501826001600160a01b03169052565b506101408401516101608401526101608401516101808401526101808401516101a08401526101a08401516101c08401526101c08401516101e08401526101e08401516102008401526102008401516102208401528091505092915050565b5f5f604083850312156147a1575f5ffd5b50508035926020909101359150565b602080825282518282018190525f918401906040840190835b8181101561446f576147dc83855161447a565b602093909301926101c092909201916001016147c9565b5f60208284031215614803575f5ffd5b611e9b8261428b565b602080825282518282018190525f918401906040840190835b8181101561446f5783516001600160a01b0316835260209384019390920191600101614825565b5f5f5f6060848603121561485e575f5ffd5b6148678461428b565b95602085013595506040909401359392505050565b602080825282518282018190525f918401906040840190835b8181101561446f578351805184526020810151602085015260408101516040850152606081015160608501526080810151608085015260a081015160a085015260c081015160c08501525060e083019250602084019350600181019050614895565b8e81526001600160a01b038e166020820152604081018d9052606081018c9052608081018b905260a081018a905260c0810189905260e0810188905261010081018790528515156101208201528415156101408201526101c081018461016083015261496861018083018515159052565b826101a08301529f9e505050505050505050505050505050565b602080825282518282018190525f918401906040840190835b8181101561446f57835183526020938401939092019160010161499b565b6020808252600a908201526927b7363c9037bbb732b960b11b604082015260600190565b6020808252600b908201526a52617465203e203130302560a81b604082015260600190565b634e487b7160e01b5f52601160045260245ffd5b81810381811115611ae557611ae5614a02565b634e487b7160e01b5f52603260045260245ffd5b80820180821115611ae557611ae5614a02565b6020808252600990820152682737ba1037bbb732b960b91b604082015260600190565b6020808252600a9082015269456d7074792062616e6b60b01b604082015260600190565b5f60208284031215614aa7575f5ffd5b8151611e9b816142a6565b6020808252600f908201526e151c985b9cd9995c8819985a5b1959608a1b604082015260600190565b8082028115828204841417611ae557611ae5614a02565b5f82614b0c57634e487b7160e01b5f52601260045260245ffd5b500490565b5f60208284031215614b21575f5ffd5b815160ff81168114611e9b575f5ffd5b5f60208284031215614b41575f5ffd5b81516001600160401b03811115614b56575f5ffd5b8201601f81018413614b66575f5ffd5b80516001600160401b03811115614b7f57614b7f61433e565b614b92601f8201601f1916602001614352565b818152856020838501011115614ba6575f5ffd5b8160208401602083015e5f91810160200191909152949350505050565b602080825260089082015267496e61637469766560c01b604082015260600190565b5f81614bf357614bf3614a02565b505f190190565b602080825260029082015261453160f01b604082015260600190565b634e487b7160e01b5f52603160045260245ffd5b5f60018201614c3b57614c3b614a02565b506001019056fea2646970667358221220f4dc60511228ac8f368ac123b6c24a9737bffba1cff958c1b0d102c6b072433b64736f6c634300081e0033",
			"opcodes": "PUSH1 0xA0 PUSH1 0x40 MSTORE PUSH1 0x1 PUSH1 0x5 SSTORE PUSH8 0xDE0B6B3A7640000 PUSH1 0x6 SSTORE PUSH0 PUSH1 0xA SSTORE CALLVALUE DUP1 ISZERO PUSH2 0x24 JUMPI PUSH0 PUSH0 REVERT JUMPDEST POP PUSH1 0x40 MLOAD PUSH2 0x4E2B CODESIZE SUB DUP1 PUSH2 0x4E2B DUP4 CODECOPY DUP2 ADD PUSH1 0x40 DUP2 SWAP1 MSTORE PUSH2 0x43 SWAP2 PUSH2 0x109 JUMP JUMPDEST PUSH1 0x1 PUSH0 SSTORE PUSH1 0x1 PUSH1 0x1 PUSH1 0xA0 SHL SUB DUP3 AND PUSH2 0x90 JUMPI PUSH1 0x40 MLOAD PUSH3 0x461BCD PUSH1 0xE5 SHL DUP2 MSTORE PUSH1 0x20 PUSH1 0x4 DUP3 ADD MSTORE PUSH1 0xB PUSH1 0x24 DUP3 ADD MSTORE PUSH11 0x546F6B656E3A207A65726F PUSH1 0xA8 SHL PUSH1 0x44 DUP3 ADD MSTORE PUSH1 0x64 ADD JUMPDEST PUSH1 0x40 MLOAD DUP1 SWAP2 SUB SWAP1 REVERT JUMPDEST PUSH2 0x2710 DUP2 GT ISZERO PUSH2 0xD0 JUMPI PUSH1 0x40 MLOAD PUSH3 0x461BCD PUSH1 0xE5 SHL DUP2 MSTORE PUSH1 0x20 PUSH1 0x4 DUP3 ADD MSTORE PUSH1 0xB PUSH1 0x24 DUP3 ADD MSTORE PUSH11 0x52617465203E2031303025 PUSH1 0xA8 SHL PUSH1 0x44 DUP3 ADD MSTORE PUSH1 0x64 ADD PUSH2 0x87 JUMP JUMPDEST PUSH1 0x1 DUP1 SLOAD CALLER PUSH1 0x1 PUSH1 0x1 PUSH1 0xA0 SHL SUB NOT SWAP2 DUP3 AND DUP2 OR SWAP1 SWAP3 SSTORE PUSH1 0x2 DUP1 SLOAD SWAP1 SWAP2 AND SWAP1 SWAP2 OR SWAP1 SSTORE PUSH1 0x1 PUSH1 0x1 PUSH1 0xA0 SHL SUB SWAP2 SWAP1 SWAP2 AND PUSH1 0x80 MSTORE PUSH1 0x4 SSTORE PUSH2 0x140 JUMP JUMPDEST PUSH0 PUSH0 PUSH1 0x40 DUP4 DUP6 SUB SLT ISZERO PUSH2 0x11A JUMPI PUSH0 PUSH0 REVERT JUMPDEST DUP3 MLOAD PUSH1 0x1 PUSH1 0x1 PUSH1 0xA0 SHL SUB DUP2 AND DUP2 EQ PUSH2 0x130 JUMPI PUSH0 PUSH0 REVERT JUMPDEST PUSH1 0x20 SWAP4 SWAP1 SWAP4 ADD MLOAD SWAP3 SWAP5 SWAP3 SWAP4 POP POP POP JUMP JUMPDEST PUSH1 0x80 MLOAD PUSH2 0x4C78 PUSH2 0x1B3 PUSH0 CODECOPY PUSH0 DUP2 DUP2 PUSH2 0x6CB ADD MSTORE DUP2 DUP2 PUSH2 0x1071 ADD MSTORE DUP2 DUP2 PUSH2 0x16A2 ADD MSTORE DUP2 DUP2 PUSH2 0x172A ADD MSTORE DUP2 DUP2 PUSH2 0x17B1 ADD MSTORE DUP2 DUP2 PUSH2 0x1838 ADD MSTORE DUP2 DUP2 PUSH2 0x22BB ADD MSTORE DUP2 DUP2 PUSH2 0x2528 ADD MSTORE DUP2 DUP2 PUSH2 0x2909 ADD MSTORE DUP2 DUP2 PUSH2 0x2B0D ADD MSTORE DUP2 DUP2 PUSH2 0x2F4B ADD MSTORE DUP2 DUP2 PUSH2 0x30A7 ADD MSTORE DUP2 DUP2 PUSH2 0x35A5 ADD MSTORE PUSH2 0x3AB4 ADD MSTORE PUSH2 0x4C78 PUSH0 RETURN INVALID PUSH1 0x80 PUSH1 0x40 MSTORE CALLVALUE DUP1 ISZERO PUSH2 0xF JUMPI PUSH0 PUSH0 REVERT JUMPDEST POP PUSH1 0x4 CALLDATASIZE LT PUSH2 0x3D4 JUMPI PUSH0 CALLDATALOAD PUSH1 0xE0 SHR DUP1 PUSH4 0x7DC0D1D0 GT PUSH2 0x200 JUMPI DUP1 PUSH4 0xB29A8140 GT PUSH2 0x11F JUMPI DUP1 PUSH4 0xD3D83445 GT PUSH2 0xB4 JUMPI DUP1 PUSH4 0xE2842D79 GT PUSH2 0x84 JUMPI DUP1 PUSH4 0xE2842D79 EQ PUSH2 0x907 JUMPI DUP1 PUSH4 0xF2FDE38B EQ PUSH2 0x90F JUMPI DUP1 PUSH4 0xF4F8C847 EQ PUSH2 0x922 JUMPI DUP1 PUSH4 0xF8799E1A EQ PUSH2 0x92B JUMPI DUP1 PUSH4 0xFE4AB90A EQ PUSH2 0x934 JUMPI PUSH0 PUSH0 REVERT JUMPDEST DUP1 PUSH4 0xD3D83445 EQ PUSH2 0x8B1 JUMPI DUP1 PUSH4 0xD6A13301 EQ PUSH2 0x8C4 JUMPI DUP1 PUSH4 0xD7D43C78 EQ PUSH2 0x8EC JUMPI DUP1 PUSH4 0xDD4824A8 EQ PUSH2 0x8F4 JUMPI PUSH0 PUSH0 REVERT JUMPDEST DUP1 PUSH4 0xCCAAC244 GT PUSH2 0xEF JUMPI DUP1 PUSH4 0xCCAAC244 EQ PUSH2 0x86E JUMPI DUP1 PUSH4 0xCCBD0007 EQ PUSH2 0x88D JUMPI DUP1 PUSH4 0xD188E3AE EQ PUSH2 0x896 JUMPI DUP1 PUSH4 0xD3752830 EQ PUSH2 0x89E JUMPI PUSH0 PUSH0 REVERT JUMPDEST DUP1 PUSH4 0xB29A8140 EQ PUSH2 0x81F JUMPI DUP1 PUSH4 0xB42A275E EQ PUSH2 0x832 JUMPI DUP1 PUSH4 0xBE2FF4A9 EQ PUSH2 0x83B JUMPI DUP1 PUSH4 0xC491EECD EQ PUSH2 0x84E JUMPI PUSH0 PUSH0 REVERT JUMPDEST DUP1 PUSH4 0x9BE572F6 GT PUSH2 0x195 JUMPI DUP1 PUSH4 0xA5C62CB4 GT PUSH2 0x165 JUMPI DUP1 PUSH4 0xA5C62CB4 EQ PUSH2 0x7CF JUMPI DUP1 PUSH4 0xA9783CD7 EQ PUSH2 0x7D7 JUMPI DUP1 PUSH4 0xB02C43D0 EQ PUSH2 0x7DF JUMPI DUP1 PUSH4 0xB18E71F2 EQ PUSH2 0x80C JUMPI PUSH0 PUSH0 REVERT JUMPDEST DUP1 PUSH4 0x9BE572F6 EQ PUSH2 0x795 JUMPI DUP1 PUSH4 0x9D13FA01 EQ PUSH2 0x79D JUMPI DUP1 PUSH4 0xA2BDEDF4 EQ PUSH2 0x7BC JUMPI DUP1 PUSH4 0xA4A1E263 EQ PUSH2 0x795 JUMPI PUSH0 PUSH0 REVERT JUMPDEST DUP1 PUSH4 0x91BA50CD GT PUSH2 0x1D0 JUMPI DUP1 PUSH4 0x91BA50CD EQ PUSH2 0x754 JUMPI DUP1 PUSH4 0x936D4FFA EQ PUSH2 0x767 JUMPI DUP1 PUSH4 0x94C92F6D EQ PUSH2 0x76F JUMPI DUP1 PUSH4 0x9521ABC6 EQ PUSH2 0x782 JUMPI PUSH0 PUSH0 REVERT JUMPDEST DUP1 PUSH4 0x7DC0D1D0 EQ PUSH2 0x713 JUMPI DUP1 PUSH4 0x8C90926F EQ PUSH2 0x726 JUMPI DUP1 PUSH4 0x8DA5CB5B EQ PUSH2 0x72E JUMPI DUP1 PUSH4 0x90693CA7 EQ PUSH2 0x741 JUMPI PUSH0 PUSH0 REVERT JUMPDEST DUP1 PUSH4 0x23E0CEB2 GT PUSH2 0x2F7 JUMPI DUP1 PUSH4 0x4698B883 GT PUSH2 0x28C JUMPI DUP1 PUSH4 0x647FC56C GT PUSH2 0x25C JUMPI DUP1 PUSH4 0x647FC56C EQ PUSH2 0x6A0 JUMPI DUP1 PUSH4 0x7196D3E2 EQ PUSH2 0x6B3 JUMPI DUP1 PUSH4 0x72F702F3 EQ PUSH2 0x6C6 JUMPI DUP1 PUSH4 0x72FADA5C EQ PUSH2 0x6ED JUMPI DUP1 PUSH4 0x7ADBF973 EQ PUSH2 0x700 JUMPI PUSH0 PUSH0 REVERT JUMPDEST DUP1 PUSH4 0x4698B883 EQ PUSH2 0x647 JUMPI DUP1 PUSH4 0x4B4D7AA8 EQ PUSH2 0x65A JUMPI DUP1 PUSH4 0x4EFF3D3D EQ PUSH2 0x66D JUMPI DUP1 PUSH4 0x6241CA79 EQ PUSH2 0x68D JUMPI PUSH0 PUSH0 REVERT JUMPDEST DUP1 PUSH4 0x4106EE75 GT PUSH2 0x2C7 JUMPI DUP1 PUSH4 0x4106EE75 EQ PUSH2 0x5C6 JUMPI DUP1 PUSH4 0x41AFF23E EQ PUSH2 0x5E6 JUMPI DUP1 PUSH4 0x4209FFF1 EQ PUSH2 0x605 JUMPI DUP1 PUSH4 0x45982A66 EQ PUSH2 0x627 JUMPI PUSH0 PUSH0 REVERT JUMPDEST DUP1 PUSH4 0x23E0CEB2 EQ PUSH2 0x56C JUMPI DUP1 PUSH4 0x2E0E3064 EQ PUSH2 0x58B JUMPI DUP1 PUSH4 0x2FFB3D2A EQ PUSH2 0x59E JUMPI DUP1 PUSH4 0x36261236 EQ PUSH2 0x5B1 JUMPI PUSH0 PUSH0 REVERT JUMPDEST DUP1 PUSH4 0x168A4822 GT PUSH2 0x36D JUMPI DUP1 PUSH4 0x1D0205B8 GT PUSH2 0x33D JUMPI DUP1 PUSH4 0x1D0205B8 EQ PUSH2 0x4F9 JUMPI DUP1 PUSH4 0x1FB3BD93 EQ PUSH2 0x527 JUMPI DUP1 PUSH4 0x2290D577 EQ PUSH2 0x53A JUMPI DUP1 PUSH4 0x23B28A54 EQ PUSH2 0x559 JUMPI PUSH0 PUSH0 REVERT JUMPDEST DUP1 PUSH4 0x168A4822 EQ PUSH2 0x496 JUMPI DUP1 PUSH4 0x1BFC7761 EQ PUSH2 0x49E JUMPI DUP1 PUSH4 0x1C5DC54C EQ PUSH2 0x4BE JUMPI DUP1 PUSH4 0x1CC39D57 EQ PUSH2 0x4C7 JUMPI PUSH0 PUSH0 REVERT JUMPDEST DUP1 PUSH4 0x8F43333 GT PUSH2 0x3A8 JUMPI DUP1 PUSH4 0x8F43333 EQ PUSH2 0x425 JUMPI DUP1 PUSH4 0xF68AE40 EQ PUSH2 0x438 JUMPI DUP1 PUSH4 0x10AEF812 EQ PUSH2 0x44B JUMPI DUP1 PUSH4 0x137760E4 EQ PUSH2 0x46B JUMPI PUSH0 PUSH0 REVERT JUMPDEST DUP1 PUSH3 0xD6386 EQ PUSH2 0x3D8 JUMPI DUP1 PUSH4 0x5A163B6 EQ PUSH2 0x3F4 JUMPI DUP1 PUSH4 0x6F960BB EQ PUSH2 0x409 JUMPI DUP1 PUSH4 0x8804275 EQ PUSH2 0x41C JUMPI JUMPDEST PUSH0 PUSH0 REVERT JUMPDEST PUSH2 0x3E1 PUSH1 0xA SLOAD DUP2 JUMP JUMPDEST PUSH1 0x40 MLOAD SWAP1 DUP2 MSTORE PUSH1 0x20 ADD JUMPDEST PUSH1 0x40 MLOAD DUP1 SWAP2 SUB SWAP1 RETURN JUMPDEST PUSH2 0x407 PUSH2 0x402 CALLDATASIZE PUSH1 0x4 PUSH2 0x425C JUMP JUMPDEST PUSH2 0x93D JUMP JUMPDEST STOP JUMPDEST PUSH2 0x407 PUSH2 0x417 CALLDATASIZE PUSH1 0x4 PUSH2 0x42B3 JUMP JUMPDEST PUSH2 0xBCC JUMP JUMPDEST PUSH2 0x3E1 PUSH1 0x6 SLOAD DUP2 JUMP JUMPDEST PUSH2 0x3E1 PUSH2 0x433 CALLDATASIZE PUSH1 0x4 PUSH2 0x42FF JUMP JUMPDEST PUSH2 0xC81 JUMP JUMPDEST PUSH2 0x407 PUSH2 0x446 CALLDATASIZE PUSH1 0x4 PUSH2 0x4327 JUMP JUMPDEST PUSH2 0xCAC JUMP JUMPDEST PUSH2 0x45E PUSH2 0x459 CALLDATASIZE PUSH1 0x4 PUSH2 0x4382 JUMP JUMPDEST PUSH2 0xCDB JUMP JUMPDEST PUSH1 0x40 MLOAD PUSH2 0x3EB SWAP2 SWAP1 PUSH2 0x442C JUMP JUMPDEST PUSH1 0x3 SLOAD PUSH2 0x47E SWAP1 PUSH1 0x1 PUSH1 0x1 PUSH1 0xA0 SHL SUB AND DUP2 JUMP JUMPDEST PUSH1 0x40 MLOAD PUSH1 0x1 PUSH1 0x1 PUSH1 0xA0 SHL SUB SWAP1 SWAP2 AND DUP2 MSTORE PUSH1 0x20 ADD PUSH2 0x3EB JUMP JUMPDEST PUSH1 0xB SLOAD PUSH2 0x3E1 JUMP JUMPDEST PUSH2 0x4B1 PUSH2 0x4AC CALLDATASIZE PUSH1 0x4 PUSH2 0x4327 JUMP JUMPDEST PUSH2 0xDCB JUMP JUMPDEST PUSH1 0x40 MLOAD PUSH2 0x3EB SWAP2 SWAP1 PUSH2 0x453B JUMP JUMPDEST PUSH2 0x3E1 PUSH1 0x12 SLOAD DUP2 JUMP JUMPDEST PUSH2 0x4E9 PUSH2 0x4D5 CALLDATASIZE PUSH1 0x4 PUSH2 0x4327 JUMP JUMPDEST PUSH1 0xD PUSH1 0x20 MSTORE PUSH0 SWAP1 DUP2 MSTORE PUSH1 0x40 SWAP1 KECCAK256 SLOAD PUSH1 0xFF AND DUP2 JUMP JUMPDEST PUSH1 0x40 MLOAD SWAP1 ISZERO ISZERO DUP2 MSTORE PUSH1 0x20 ADD PUSH2 0x3EB JUMP JUMPDEST PUSH2 0x50C PUSH2 0x507 CALLDATASIZE PUSH1 0x4 PUSH2 0x4327 JUMP JUMPDEST PUSH2 0xEC0 JUMP JUMPDEST PUSH1 0x40 DUP1 MLOAD SWAP4 DUP5 MSTORE PUSH1 0x20 DUP5 ADD SWAP3 SWAP1 SWAP3 MSTORE SWAP1 DUP3 ADD MSTORE PUSH1 0x60 ADD PUSH2 0x3EB JUMP JUMPDEST PUSH2 0x407 PUSH2 0x535 CALLDATASIZE PUSH1 0x4 PUSH2 0x4327 JUMP JUMPDEST PUSH2 0xEF1 JUMP JUMPDEST PUSH2 0x3E1 PUSH2 0x548 CALLDATASIZE PUSH1 0x4 PUSH2 0x4327 JUMP JUMPDEST PUSH1 0xC PUSH1 0x20 MSTORE PUSH0 SWAP1 DUP2 MSTORE PUSH1 0x40 SWAP1 KECCAK256 SLOAD DUP2 JUMP JUMPDEST PUSH2 0x407 PUSH2 0x567 CALLDATASIZE PUSH1 0x4 PUSH2 0x454A JUMP JUMPDEST PUSH2 0x116C JUMP JUMPDEST PUSH2 0x3E1 PUSH2 0x57A CALLDATASIZE PUSH1 0x4 PUSH2 0x4327 JUMP JUMPDEST PUSH1 0xF PUSH1 0x20 MSTORE PUSH0 SWAP1 DUP2 MSTORE PUSH1 0x40 SWAP1 KECCAK256 SLOAD DUP2 JUMP JUMPDEST PUSH2 0x3E1 PUSH2 0x599 CALLDATASIZE PUSH1 0x4 PUSH2 0x4327 JUMP JUMPDEST PUSH2 0x11F6 JUMP JUMPDEST PUSH2 0x407 PUSH2 0x5AC CALLDATASIZE PUSH1 0x4 PUSH2 0x45BA JUMP JUMPDEST PUSH2 0x146A JUMP JUMPDEST PUSH2 0x5B9 PUSH2 0x15DA JUMP JUMPDEST PUSH1 0x40 MLOAD PUSH2 0x3EB SWAP2 SWAP1 PUSH2 0x4684 JUMP JUMPDEST PUSH2 0x5D9 PUSH2 0x5D4 CALLDATASIZE PUSH1 0x4 PUSH2 0x4790 JUMP JUMPDEST PUSH2 0x18AF JUMP JUMPDEST PUSH1 0x40 MLOAD PUSH2 0x3EB SWAP2 SWAP1 PUSH2 0x47B0 JUMP JUMPDEST PUSH2 0x3E1 PUSH2 0x5F4 CALLDATASIZE PUSH1 0x4 PUSH2 0x4327 JUMP JUMPDEST PUSH1 0x15 PUSH1 0x20 MSTORE PUSH0 SWAP1 DUP2 MSTORE PUSH1 0x40 SWAP1 KECCAK256 SLOAD DUP2 JUMP JUMPDEST PUSH2 0x4E9 PUSH2 0x613 CALLDATASIZE PUSH1 0x4 PUSH2 0x47F3 JUMP JUMPDEST PUSH1 0x8 PUSH1 0x20 MSTORE PUSH0 SWAP1 DUP2 MSTORE PUSH1 0x40 SWAP1 KECCAK256 SLOAD PUSH1 0xFF AND DUP2 JUMP JUMPDEST PUSH2 0x63A PUSH2 0x635 CALLDATASIZE PUSH1 0x4 PUSH2 0x4790 JUMP JUMPDEST PUSH2 0x1AEB JUMP JUMPDEST PUSH1 0x40 MLOAD PUSH2 0x3EB SWAP2 SWAP1 PUSH2 0x480C JUMP JUMPDEST PUSH2 0x5D9 PUSH2 0x655 CALLDATASIZE PUSH1 0x4 PUSH2 0x484C JUMP JUMPDEST PUSH2 0x1C0C JUMP JUMPDEST PUSH2 0x407 PUSH2 0x668 CALLDATASIZE PUSH1 0x4 PUSH2 0x4327 JUMP JUMPDEST PUSH2 0x1EA2 JUMP JUMPDEST PUSH2 0x680 PUSH2 0x67B CALLDATASIZE PUSH1 0x4 PUSH2 0x4790 JUMP JUMPDEST PUSH2 0x1ED1 JUMP JUMPDEST PUSH1 0x40 MLOAD PUSH2 0x3EB SWAP2 SWAP1 PUSH2 0x487C JUMP JUMPDEST PUSH2 0x407 PUSH2 0x69B CALLDATASIZE PUSH1 0x4 PUSH2 0x4327 JUMP JUMPDEST PUSH2 0x20BD JUMP JUMPDEST PUSH2 0x407 PUSH2 0x6AE CALLDATASIZE PUSH1 0x4 PUSH2 0x4327 JUMP JUMPDEST PUSH2 0x2392 JUMP JUMPDEST PUSH2 0x3E1 PUSH2 0x6C1 CALLDATASIZE PUSH1 0x4 PUSH2 0x425C JUMP JUMPDEST PUSH2 0x2616 JUMP JUMPDEST PUSH2 0x47E PUSH32 0x0 DUP2 JUMP JUMPDEST PUSH2 0x407 PUSH2 0x6FB CALLDATASIZE PUSH1 0x4 PUSH2 0x4327 JUMP JUMPDEST PUSH2 0x27AF JUMP JUMPDEST PUSH2 0x407 PUSH2 0x70E CALLDATASIZE PUSH1 0x4 PUSH2 0x47F3 JUMP JUMPDEST PUSH2 0x29E9 JUMP JUMPDEST PUSH1 0x2 SLOAD PUSH2 0x47E SWAP1 PUSH1 0x1 PUSH1 0x1 PUSH1 0xA0 SHL SUB AND DUP2 JUMP JUMPDEST PUSH2 0x3E1 PUSH2 0x2A35 JUMP JUMPDEST PUSH1 0x1 SLOAD PUSH2 0x47E SWAP1 PUSH1 0x1 PUSH1 0x1 PUSH1 0xA0 SHL SUB AND DUP2 JUMP JUMPDEST PUSH2 0x3E1 PUSH2 0x74F CALLDATASIZE PUSH1 0x4 PUSH2 0x4327 JUMP JUMPDEST PUSH2 0x2A5D JUMP JUMPDEST PUSH2 0x407 PUSH2 0x762 CALLDATASIZE PUSH1 0x4 PUSH2 0x4327 JUMP JUMPDEST PUSH2 0x2A7C JUMP JUMPDEST PUSH1 0x14 SLOAD PUSH2 0x3E1 JUMP JUMPDEST PUSH2 0x407 PUSH2 0x77D CALLDATASIZE PUSH1 0x4 PUSH2 0x47F3 JUMP JUMPDEST PUSH2 0x2BB4 JUMP JUMPDEST PUSH2 0x407 PUSH2 0x790 CALLDATASIZE PUSH1 0x4 PUSH2 0x4327 JUMP JUMPDEST PUSH2 0x2C00 JUMP JUMPDEST PUSH1 0x7 SLOAD PUSH2 0x3E1 JUMP JUMPDEST PUSH2 0x3E1 PUSH2 0x7AB CALLDATASIZE PUSH1 0x4 PUSH2 0x4327 JUMP JUMPDEST PUSH1 0x16 PUSH1 0x20 MSTORE PUSH0 SWAP1 DUP2 MSTORE PUSH1 0x40 SWAP1 KECCAK256 SLOAD DUP2 JUMP JUMPDEST PUSH2 0x47E PUSH2 0x7CA CALLDATASIZE PUSH1 0x4 PUSH2 0x4327 JUMP JUMPDEST PUSH2 0x2C87 JUMP JUMPDEST PUSH2 0x3E1 PUSH2 0x2CAF JUMP JUMPDEST PUSH2 0x407 PUSH2 0x2D30 JUMP JUMPDEST PUSH2 0x7F2 PUSH2 0x7ED CALLDATASIZE PUSH1 0x4 PUSH2 0x4327 JUMP JUMPDEST PUSH2 0x2E6E JUMP JUMPDEST PUSH1 0x40 MLOAD PUSH2 0x3EB SWAP15 SWAP14 SWAP13 SWAP12 SWAP11 SWAP10 SWAP9 SWAP8 SWAP7 SWAP6 SWAP5 SWAP4 SWAP3 SWAP2 SWAP1 PUSH2 0x48F7 JUMP JUMPDEST PUSH2 0x407 PUSH2 0x81A CALLDATASIZE PUSH1 0x4 PUSH2 0x4790 JUMP JUMPDEST PUSH2 0x2EFC JUMP JUMPDEST PUSH2 0x407 PUSH2 0x82D CALLDATASIZE PUSH1 0x4 PUSH2 0x42FF JUMP JUMPDEST PUSH2 0x2F1F JUMP JUMPDEST PUSH2 0x3E1 PUSH1 0x13 SLOAD DUP2 JUMP JUMPDEST PUSH2 0x407 PUSH2 0x849 CALLDATASIZE PUSH1 0x4 PUSH2 0x4327 JUMP JUMPDEST PUSH2 0x303F JUMP JUMPDEST PUSH2 0x861 PUSH2 0x85C CALLDATASIZE PUSH1 0x4 PUSH2 0x47F3 JUMP JUMPDEST PUSH2 0x315B JUMP JUMPDEST PUSH1 0x40 MLOAD PUSH2 0x3EB SWAP2 SWAP1 PUSH2 0x4982 JUMP JUMPDEST PUSH2 0x3E1 PUSH2 0x87C CALLDATASIZE PUSH1 0x4 PUSH2 0x4327 JUMP JUMPDEST PUSH1 0x17 PUSH1 0x20 MSTORE PUSH0 SWAP1 DUP2 MSTORE PUSH1 0x40 SWAP1 KECCAK256 SLOAD DUP2 JUMP JUMPDEST PUSH2 0x3E1 PUSH1 0x10 SLOAD DUP2 JUMP JUMPDEST PUSH2 0x3E1 PUSH2 0x31C4 JUMP JUMPDEST PUSH2 0x5D9 PUSH2 0x8AC CALLDATASIZE PUSH1 0x4 PUSH2 0x4790 JUMP JUMPDEST PUSH2 0x320F JUMP JUMPDEST PUSH2 0x407 PUSH2 0x8BF CALLDATASIZE PUSH1 0x4 PUSH2 0x4327 JUMP JUMPDEST PUSH2 0x3415 JUMP JUMPDEST PUSH2 0x3E1 PUSH2 0x8D2 CALLDATASIZE PUSH1 0x4 PUSH2 0x47F3 JUMP JUMPDEST PUSH1 0x1 PUSH1 0x1 PUSH1 0xA0 SHL SUB AND PUSH0 SWAP1 DUP2 MSTORE PUSH1 0x9 PUSH1 0x20 MSTORE PUSH1 0x40 SWAP1 KECCAK256 SLOAD SWAP1 JUMP JUMPDEST PUSH1 0xE SLOAD PUSH2 0x3E1 JUMP JUMPDEST PUSH2 0x3E1 PUSH2 0x902 CALLDATASIZE PUSH1 0x4 PUSH2 0x454A JUMP JUMPDEST PUSH2 0x3676 JUMP JUMPDEST PUSH2 0x63A PUSH2 0x3818 JUMP JUMPDEST PUSH2 0x407 PUSH2 0x91D CALLDATASIZE PUSH1 0x4 PUSH2 0x47F3 JUMP JUMPDEST PUSH2 0x3878 JUMP JUMPDEST PUSH2 0x3E1 PUSH1 0x4 SLOAD DUP2 JUMP JUMPDEST PUSH2 0x3E1 PUSH1 0x5 SLOAD DUP2 JUMP JUMPDEST PUSH2 0x3E1 PUSH1 0x11 SLOAD DUP2 JUMP JUMPDEST PUSH1 0x1 SLOAD PUSH1 0x1 PUSH1 0x1 PUSH1 0xA0 SHL SUB AND CALLER EQ PUSH2 0x970 JUMPI PUSH1 0x40 MLOAD PUSH3 0x461BCD PUSH1 0xE5 SHL DUP2 MSTORE PUSH1 0x4 ADD PUSH2 0x967 SWAP1 PUSH2 0x49B9 JUMP JUMPDEST PUSH1 0x40 MLOAD DUP1 SWAP2 SUB SWAP1 REVERT JUMPDEST PUSH1 0x14 SLOAD DUP5 LT PUSH2 0x9AD JUMPI PUSH1 0x40 MLOAD PUSH3 0x461BCD PUSH1 0xE5 SHL DUP2 MSTORE PUSH1 0x20 PUSH1 0x4 DUP3 ADD MSTORE PUSH1 0x9 PUSH1 0x24 DUP3 ADD MSTORE PUSH9 0x24B73232BC1027A7A1 PUSH1 0xB9 SHL PUSH1 0x44 DUP3 ADD MSTORE PUSH1 0x64 ADD PUSH2 0x967 JUMP JUMPDEST DUP2 DUP4 LT PUSH2 0x9EC JUMPI PUSH1 0x40 MLOAD PUSH3 0x461BCD PUSH1 0xE5 SHL DUP2 MSTORE PUSH1 0x20 PUSH1 0x4 DUP3 ADD MSTORE PUSH1 0xD PUSH1 0x24 DUP3 ADD MSTORE PUSH13 0x496E76616C69642072616E6765 PUSH1 0x98 SHL PUSH1 0x44 DUP3 ADD MSTORE PUSH1 0x64 ADD PUSH2 0x967 JUMP JUMPDEST DUP1 ISZERO PUSH2 0xA14 JUMPI PUSH2 0x2710 DUP2 GT ISZERO PUSH2 0xA14 JUMPI PUSH1 0x40 MLOAD PUSH3 0x461BCD PUSH1 0xE5 SHL DUP2 MSTORE PUSH1 0x4 ADD PUSH2 0x967 SWAP1 PUSH2 0x49DD JUMP JUMPDEST TIMESTAMP DUP4 GT PUSH2 0xA4D JUMPI PUSH1 0x40 MLOAD PUSH3 0x461BCD PUSH1 0xE5 SHL DUP2 MSTORE PUSH1 0x20 PUSH1 0x4 DUP3 ADD MSTORE PUSH1 0x7 PUSH1 0x24 DUP3 ADD MSTORE PUSH7 0x14DD185C9D1959 PUSH1 0xCA SHL PUSH1 0x44 DUP3 ADD MSTORE PUSH1 0x64 ADD PUSH2 0x967 JUMP JUMPDEST DUP4 ISZERO PUSH2 0xAB5 JUMPI PUSH1 0x14 PUSH2 0xA60 PUSH1 0x1 DUP7 PUSH2 0x4A16 JUMP JUMPDEST DUP2 SLOAD DUP2 LT PUSH2 0xA70 JUMPI PUSH2 0xA70 PUSH2 0x4A29 JUMP JUMPDEST SWAP1 PUSH0 MSTORE PUSH1 0x20 PUSH0 KECCAK256 SWAP1 PUSH1 0x3 MUL ADD PUSH1 0x1 ADD SLOAD DUP4 LT ISZERO PUSH2 0xAB5 JUMPI PUSH1 0x40 MLOAD PUSH3 0x461BCD PUSH1 0xE5 SHL DUP2 MSTORE PUSH1 0x20 PUSH1 0x4 DUP3 ADD MSTORE PUSH1 0x3 PUSH1 0x24 DUP3 ADD MSTORE PUSH3 0x536571 PUSH1 0xE8 SHL PUSH1 0x44 DUP3 ADD MSTORE PUSH1 0x64 ADD PUSH2 0x967 JUMP JUMPDEST PUSH1 0x14 SLOAD PUSH2 0xAC3 DUP6 PUSH1 0x1 PUSH2 0x4A3D JUMP JUMPDEST LT ISZERO PUSH2 0xB2E JUMPI PUSH1 0x14 PUSH2 0xAD6 DUP6 PUSH1 0x1 PUSH2 0x4A3D JUMP JUMPDEST DUP2 SLOAD DUP2 LT PUSH2 0xAE6 JUMPI PUSH2 0xAE6 PUSH2 0x4A29 JUMP JUMPDEST SWAP1 PUSH0 MSTORE PUSH1 0x20 PUSH0 KECCAK256 SWAP1 PUSH1 0x3 MUL ADD PUSH0 ADD SLOAD DUP3 GT ISZERO PUSH2 0xB2E JUMPI PUSH1 0x40 MLOAD PUSH3 0x461BCD PUSH1 0xE5 SHL DUP2 MSTORE PUSH1 0x20 PUSH1 0x4 DUP3 ADD MSTORE PUSH1 0x7 PUSH1 0x24 DUP3 ADD MSTORE PUSH7 0x4F7665726C617 PUSH1 0xCC SHL PUSH1 0x44 DUP3 ADD MSTORE PUSH1 0x64 ADD PUSH2 0x967 JUMP JUMPDEST PUSH1 0x40 MLOAD DUP1 PUSH1 0x60 ADD PUSH1 0x40 MSTORE DUP1 DUP5 DUP2 MSTORE PUSH1 0x20 ADD DUP4 DUP2 MSTORE PUSH1 0x20 ADD DUP3 DUP2 MSTORE POP PUSH1 0x14 DUP6 DUP2 SLOAD DUP2 LT PUSH2 0xB5C JUMPI PUSH2 0xB5C PUSH2 0x4A29 JUMP JUMPDEST PUSH0 SWAP2 DUP3 MSTORE PUSH1 0x20 SWAP2 DUP3 SWAP1 KECCAK256 DUP4 MLOAD PUSH1 0x3 SWAP1 SWAP3 MUL ADD SWAP1 DUP2 SSTORE DUP3 DUP3 ADD MLOAD PUSH1 0x1 DUP3 ADD SSTORE PUSH1 0x40 SWAP3 DUP4 ADD MLOAD PUSH1 0x2 SWAP1 SWAP2 ADD SSTORE DUP2 MLOAD DUP6 DUP2 MSTORE SWAP1 DUP2 ADD DUP5 SWAP1 MSTORE SWAP1 DUP2 ADD DUP3 SWAP1 MSTORE DUP5 SWAP1 PUSH32 0x68F039AF08C3A62DAE4B7E4244543803DCE43C9C5A2AD9EF05FEA8366F4C8623 SWAP1 PUSH1 0x60 ADD PUSH1 0x40 MLOAD DUP1 SWAP2 SUB SWAP1 LOG2 POP POP POP POP JUMP JUMPDEST PUSH2 0xBD4 PUSH2 0x38EA JUMP JUMPDEST PUSH1 0x1 SLOAD PUSH1 0x1 PUSH1 0x1 PUSH1 0xA0 SHL SUB AND CALLER EQ DUP1 PUSH2 0xBF7 JUMPI POP PUSH1 0x2 SLOAD PUSH1 0x1 PUSH1 0x1 PUSH1 0xA0 SHL SUB AND CALLER EQ JUMPDEST PUSH2 0xC3A JUMPI PUSH1 0x40 MLOAD PUSH3 0x461BCD PUSH1 0xE5 SHL DUP2 MSTORE PUSH1 0x20 PUSH1 0x4 DUP3 ADD MSTORE PUSH1 0x14 PUSH1 0x24 DUP3 ADD MSTORE PUSH20 0x4F6E6C79206F776E6572206F72206F7261636C65 PUSH1 0x60 SHL PUSH1 0x44 DUP3 ADD MSTORE PUSH1 0x64 ADD PUSH2 0x967 JUMP JUMPDEST DUP2 ISZERO PUSH2 0xC62 JUMPI PUSH2 0x2710 DUP2 GT ISZERO PUSH2 0xC62 JUMPI PUSH1 0x40 MLOAD PUSH3 0x461BCD PUSH1 0xE5 SHL DUP2 MSTORE PUSH1 0x4 ADD PUSH2 0x967 SWAP1 PUSH2 0x49DD JUMP JUMPDEST PUSH2 0xC71 DUP6 DUP6 DUP6 DUP6 DUP6 PUSH1 0x1 PUSH2 0x3912 JUMP JUMPDEST PUSH2 0xC7A PUSH1 0x1 PUSH0 SSTORE JUMP JUMPDEST POP POP POP POP POP JUMP JUMPDEST PUSH1 0x9 PUSH1 0x20 MSTORE DUP2 PUSH0 MSTORE PUSH1 0x40 PUSH0 KECCAK256 DUP2 DUP2 SLOAD DUP2 LT PUSH2 0xC9A JUMPI PUSH0 DUP1 REVERT JUMPDEST SWAP1 PUSH0 MSTORE PUSH1 0x20 PUSH0 KECCAK256 ADD PUSH0 SWAP2 POP SWAP2 POP POP SLOAD DUP2 JUMP JUMPDEST PUSH1 0x1 SLOAD PUSH1 0x1 PUSH1 0x1 PUSH1 0xA0 SHL SUB AND CALLER EQ PUSH2 0xCD6 JUMPI PUSH1 0x40 MLOAD PUSH3 0x461BCD PUSH1 0xE5 SHL DUP2 MSTORE PUSH1 0x4 ADD PUSH2 0x967 SWAP1 PUSH2 0x49B9 JUMP JUMPDEST PUSH1 0x6 SSTORE JUMP JUMPDEST PUSH1 0x60 DUP2 MLOAD PUSH1 0x1 PUSH1 0x1 PUSH1 0x40 SHL SUB DUP2 GT ISZERO PUSH2 0xCF6 JUMPI PUSH2 0xCF6 PUSH2 0x433E JUMP JUMPDEST PUSH1 0x40 MLOAD SWAP1 DUP1 DUP3 MSTORE DUP1 PUSH1 0x20 MUL PUSH1 0x20 ADD DUP3 ADD PUSH1 0x40 MSTORE DUP1 ISZERO PUSH2 0xD3A JUMPI DUP2 PUSH1 0x20 ADD JUMPDEST PUSH1 0x40 DUP1 MLOAD DUP1 DUP3 ADD SWAP1 SWAP2 MSTORE PUSH0 DUP1 DUP3 MSTORE PUSH1 0x20 DUP3 ADD MSTORE DUP2 MSTORE PUSH1 0x20 ADD SWAP1 PUSH1 0x1 SWAP1 SUB SWAP1 DUP2 PUSH2 0xD14 JUMPI SWAP1 POP JUMPDEST POP SWAP1 POP PUSH0 JUMPDEST DUP3 MLOAD DUP2 LT ISZERO PUSH2 0xDC5 JUMPI PUSH1 0x40 MLOAD DUP1 PUSH1 0x40 ADD PUSH1 0x40 MSTORE DUP1 DUP5 DUP4 DUP2 MLOAD DUP2 LT PUSH2 0xD65 JUMPI PUSH2 0xD65 PUSH2 0x4A29 JUMP JUMPDEST PUSH1 0x20 MUL PUSH1 0x20 ADD ADD MLOAD DUP2 MSTORE PUSH1 0x20 ADD PUSH1 0xC PUSH0 DUP7 DUP6 DUP2 MLOAD DUP2 LT PUSH2 0xD87 JUMPI PUSH2 0xD87 PUSH2 0x4A29 JUMP JUMPDEST PUSH1 0x20 MUL PUSH1 0x20 ADD ADD MLOAD DUP2 MSTORE PUSH1 0x20 ADD SWAP1 DUP2 MSTORE PUSH1 0x20 ADD PUSH0 KECCAK256 SLOAD DUP2 MSTORE POP DUP3 DUP3 DUP2 MLOAD DUP2 LT PUSH2 0xDB2 JUMPI PUSH2 0xDB2 PUSH2 0x4A29 JUMP JUMPDEST PUSH1 0x20 SWAP1 DUP2 MUL SWAP2 SWAP1 SWAP2 ADD ADD MSTORE PUSH1 0x1 ADD PUSH2 0xD3F JUMP JUMPDEST POP SWAP2 SWAP1 POP JUMP JUMPDEST PUSH2 0xDD3 PUSH2 0x41EC JUMP JUMPDEST PUSH1 0xB DUP3 DUP2 SLOAD DUP2 LT PUSH2 0xDE6 JUMPI PUSH2 0xDE6 PUSH2 0x4A29 JUMP JUMPDEST PUSH0 SWAP2 DUP3 MSTORE PUSH1 0x20 SWAP2 DUP3 SWAP1 KECCAK256 PUSH1 0x40 DUP1 MLOAD PUSH2 0x1C0 DUP2 ADD DUP3 MSTORE PUSH1 0xD SWAP1 SWAP4 MUL SWAP1 SWAP2 ADD DUP1 SLOAD DUP4 MSTORE PUSH1 0x1 DUP2 ADD SLOAD PUSH1 0x1 PUSH1 0x1 PUSH1 0xA0 SHL SUB AND SWAP4 DUP4 ADD SWAP4 SWAP1 SWAP4 MSTORE PUSH1 0x2 DUP4 ADD SLOAD SWAP1 DUP3 ADD MSTORE PUSH1 0x3 DUP3 ADD SLOAD PUSH1 0x60 DUP3 ADD MSTORE PUSH1 0x4 DUP3 ADD SLOAD PUSH1 0x80 DUP3 ADD MSTORE PUSH1 0x5 DUP3 ADD SLOAD PUSH1 0xA0 DUP3 ADD MSTORE PUSH1 0x6 DUP3 ADD SLOAD PUSH1 0xC0 DUP3 ADD MSTORE PUSH1 0x7 DUP3 ADD SLOAD PUSH1 0xE0 DUP3 ADD MSTORE PUSH1 0x8 DUP3 ADD SLOAD PUSH2 0x100 DUP1 DUP4 ADD SWAP2 SWAP1 SWAP2 MSTORE PUSH1 0x9 DUP4 ADD SLOAD PUSH1 0xFF DUP1 DUP3 AND ISZERO ISZERO PUSH2 0x120 DUP6 ADD MSTORE SWAP2 SWAP1 DIV DUP2 AND ISZERO ISZERO PUSH2 0x140 DUP4 ADD MSTORE PUSH1 0xA DUP4 ADD SLOAD PUSH2 0x160 DUP4 ADD MSTORE PUSH1 0xB DUP4 ADD SLOAD AND ISZERO ISZERO PUSH2 0x180 DUP3 ADD MSTORE PUSH1 0xC SWAP1 SWAP2 ADD SLOAD PUSH2 0x1A0 DUP3 ADD MSTORE SWAP1 POP PUSH2 0xEB5 DUP3 PUSH2 0x11F6 JUMP JUMPDEST PUSH2 0x100 DUP3 ADD MSTORE SWAP2 SWAP1 POP JUMP JUMPDEST PUSH1 0x14 DUP2 DUP2 SLOAD DUP2 LT PUSH2 0xECF JUMPI PUSH0 DUP1 REVERT JUMPDEST PUSH0 SWAP2 DUP3 MSTORE PUSH1 0x20 SWAP1 SWAP2 KECCAK256 PUSH1 0x3 SWAP1 SWAP2 MUL ADD DUP1 SLOAD PUSH1 0x1 DUP3 ADD SLOAD PUSH1 0x2 SWAP1 SWAP3 ADD SLOAD SWAP1 SWAP3 POP DUP4 JUMP JUMPDEST PUSH2 0xEF9 PUSH2 0x38EA JUMP JUMPDEST PUSH0 PUSH1 0xB DUP3 DUP2 SLOAD DUP2 LT PUSH2 0xF0D JUMPI PUSH2 0xF0D PUSH2 0x4A29 JUMP JUMPDEST PUSH0 SWAP2 DUP3 MSTORE PUSH1 0x20 SWAP1 SWAP2 KECCAK256 PUSH1 0xD SWAP1 SWAP2 MUL ADD PUSH1 0x9 DUP2 ADD SLOAD SWAP1 SWAP2 POP PUSH1 0xFF AND ISZERO PUSH2 0xF60 JUMPI PUSH1 0x40 MLOAD PUSH3 0x461BCD PUSH1 0xE5 SHL DUP2 MSTORE PUSH1 0x20 PUSH1 0x4 DUP3 ADD MSTORE PUSH1 0x9 PUSH1 0x24 DUP3 ADD MSTORE PUSH9 0x497320616374697665 PUSH1 0xB8 SHL PUSH1 0x44 DUP3 ADD MSTORE PUSH1 0x64 ADD PUSH2 0x967 JUMP JUMPDEST PUSH1 0x1 DUP2 ADD SLOAD PUSH1 0x1 PUSH1 0x1 PUSH1 0xA0 SHL SUB AND CALLER EQ PUSH2 0xF8C JUMPI PUSH1 0x40 MLOAD PUSH3 0x461BCD PUSH1 0xE5 SHL DUP2 MSTORE PUSH1 0x4 ADD PUSH2 0x967 SWAP1 PUSH2 0x4A50 JUMP JUMPDEST PUSH1 0x9 DUP2 ADD SLOAD PUSH2 0x100 SWAP1 DIV PUSH1 0xFF AND PUSH2 0xFD1 JUMPI PUSH1 0x40 MLOAD PUSH3 0x461BCD PUSH1 0xE5 SHL DUP2 MSTORE PUSH1 0x20 PUSH1 0x4 DUP3 ADD MSTORE PUSH1 0x9 PUSH1 0x24 DUP3 ADD MSTORE PUSH9 0x139BDD081CD85D9959 PUSH1 0xBA SHL PUSH1 0x44 DUP3 ADD MSTORE PUSH1 0x64 ADD PUSH2 0x967 JUMP JUMPDEST DUP1 PUSH1 0xA ADD SLOAD PUSH1 0x13 SLOAD LT ISZERO PUSH2 0xFF7 JUMPI PUSH1 0x40 MLOAD PUSH3 0x461BCD PUSH1 0xE5 SHL DUP2 MSTORE PUSH1 0x4 ADD PUSH2 0x967 SWAP1 PUSH2 0x4A73 JUMP JUMPDEST PUSH0 DUP2 PUSH1 0xA ADD SLOAD SWAP1 POP DUP1 PUSH1 0x13 PUSH0 DUP3 DUP3 SLOAD PUSH2 0x1010 SWAP2 SWAP1 PUSH2 0x4A16 JUMP JUMPDEST SWAP3 POP POP DUP2 SWAP1 SSTORE POP DUP1 PUSH1 0x12 PUSH0 DUP3 DUP3 SLOAD PUSH2 0x1028 SWAP2 SWAP1 PUSH2 0x4A3D JUMP JUMPDEST SWAP1 SWAP2 SSTORE POP POP PUSH0 DUP4 DUP2 MSTORE PUSH1 0xC PUSH1 0x20 MSTORE PUSH1 0x40 DUP2 KECCAK256 DUP1 SLOAD DUP4 SWAP3 SWAP1 PUSH2 0x104A SWAP1 DUP5 SWAP1 PUSH2 0x4A3D JUMP JUMPDEST SWAP1 SWAP2 SSTORE POP POP DUP1 ISZERO PUSH2 0x10FF JUMPI PUSH1 0x40 MLOAD PUSH4 0xA9059CBB PUSH1 0xE0 SHL DUP2 MSTORE CALLER PUSH1 0x4 DUP3 ADD MSTORE PUSH1 0x24 DUP2 ADD DUP3 SWAP1 MSTORE PUSH32 0x0 PUSH1 0x1 PUSH1 0x1 PUSH1 0xA0 SHL SUB AND SWAP1 PUSH4 0xA9059CBB SWAP1 PUSH1 0x44 ADD PUSH1 0x20 PUSH1 0x40 MLOAD DUP1 DUP4 SUB DUP2 PUSH0 DUP8 GAS CALL ISZERO DUP1 ISZERO PUSH2 0x10BF JUMPI RETURNDATASIZE PUSH0 PUSH0 RETURNDATACOPY RETURNDATASIZE PUSH0 REVERT JUMPDEST POP POP POP POP PUSH1 0x40 MLOAD RETURNDATASIZE PUSH1 0x1F NOT PUSH1 0x1F DUP3 ADD AND DUP3 ADD DUP1 PUSH1 0x40 MSTORE POP DUP2 ADD SWAP1 PUSH2 0x10E3 SWAP2 SWAP1 PUSH2 0x4A97 JUMP JUMPDEST PUSH2 0x10FF JUMPI PUSH1 0x40 MLOAD PUSH3 0x461BCD PUSH1 0xE5 SHL DUP2 MSTORE PUSH1 0x4 ADD PUSH2 0x967 SWAP1 PUSH2 0x4AB2 JUMP JUMPDEST PUSH1 0x9 DUP3 ADD DUP1 SLOAD PUSH2 0xFF00 NOT AND SWAP1 SSTORE PUSH0 PUSH1 0xA DUP4 ADD SSTORE PUSH1 0x1 DUP3 ADD SLOAD DUP3 SLOAD PUSH1 0x40 DUP1 MLOAD SWAP2 DUP3 MSTORE PUSH1 0x20 DUP3 ADD DUP5 SWAP1 MSTORE PUSH1 0x1 PUSH1 0x1 PUSH1 0xA0 SHL SUB SWAP1 SWAP3 AND SWAP2 PUSH32 0x89944602FCC483994090377F9ABD25A68EE71AE7EF66DB82411CC0739AB35CD8 SWAP2 ADD PUSH1 0x40 MLOAD DUP1 SWAP2 SUB SWAP1 LOG2 POP POP PUSH2 0x1169 PUSH1 0x1 PUSH0 SSTORE JUMP JUMPDEST POP JUMP JUMPDEST PUSH1 0x1 SLOAD PUSH1 0x1 PUSH1 0x1 PUSH1 0xA0 SHL SUB AND CALLER EQ PUSH2 0x1196 JUMPI PUSH1 0x40 MLOAD PUSH3 0x461BCD PUSH1 0xE5 SHL DUP2 MSTORE PUSH1 0x4 ADD PUSH2 0x967 SWAP1 PUSH2 0x49B9 JUMP JUMPDEST PUSH2 0x11A1 DUP4 DUP4 DUP4 PUSH2 0x3ECE JUMP JUMPDEST PUSH1 0x14 SLOAD PUSH2 0x11B0 SWAP1 PUSH1 0x1 SWAP1 PUSH2 0x4A16 JUMP JUMPDEST PUSH1 0x40 DUP1 MLOAD DUP6 DUP2 MSTORE PUSH1 0x20 DUP2 ADD DUP6 SWAP1 MSTORE SWAP1 DUP2 ADD DUP4 SWAP1 MSTORE PUSH32 0x901D51AF3F40466612C7BE89BA349F0B5AA321186BB4DE023367F1CA25ACDCED SWAP1 PUSH1 0x60 ADD PUSH1 0x40 MLOAD DUP1 SWAP2 SUB SWAP1 LOG2 POP POP POP JUMP JUMPDEST PUSH0 PUSH0 PUSH1 0xB DUP4 DUP2 SLOAD DUP2 LT PUSH2 0x120B JUMPI PUSH2 0x120B PUSH2 0x4A29 JUMP JUMPDEST PUSH0 SWAP2 DUP3 MSTORE PUSH1 0x20 SWAP2 DUP3 SWAP1 KECCAK256 PUSH1 0x40 DUP1 MLOAD PUSH2 0x1C0 DUP2 ADD DUP3 MSTORE PUSH1 0xD SWAP1 SWAP4 MUL SWAP1 SWAP2 ADD DUP1 SLOAD DUP4 MSTORE PUSH1 0x1 DUP2 ADD SLOAD PUSH1 0x1 PUSH1 0x1 PUSH1 0xA0 SHL SUB AND SWAP4 DUP4 ADD SWAP4 SWAP1 SWAP4 MSTORE PUSH1 0x2 DUP4 ADD SLOAD SWAP1 DUP3 ADD MSTORE PUSH1 0x3 DUP3 ADD SLOAD PUSH1 0x60 DUP3 ADD MSTORE PUSH1 0x4 DUP3 ADD SLOAD PUSH1 0x80 DUP3 ADD MSTORE PUSH1 0x5 DUP3 ADD SLOAD PUSH1 0xA0 DUP3 ADD MSTORE PUSH1 0x6 DUP3 ADD SLOAD PUSH1 0xC0 DUP3 ADD MSTORE PUSH1 0x7 DUP3 ADD SLOAD PUSH1 0xE0 DUP3 ADD MSTORE PUSH1 0x8 DUP3 ADD SLOAD PUSH2 0x100 DUP1 DUP4 ADD SWAP2 SWAP1 SWAP2 MSTORE PUSH1 0x9 DUP4 ADD SLOAD PUSH1 0xFF DUP1 DUP3 AND ISZERO ISZERO PUSH2 0x120 DUP6 ADD MSTORE SWAP2 SWAP1 DIV DUP2 AND ISZERO DUP1 ISZERO PUSH2 0x140 DUP5 ADD MSTORE PUSH1 0xA DUP5 ADD SLOAD PUSH2 0x160 DUP5 ADD MSTORE PUSH1 0xB DUP5 ADD SLOAD SWAP1 SWAP2 AND ISZERO ISZERO PUSH2 0x180 DUP4 ADD MSTORE PUSH1 0xC SWAP1 SWAP3 ADD SLOAD PUSH2 0x1A0 DUP3 ADD MSTORE SWAP2 POP PUSH2 0x12E3 JUMPI PUSH2 0x160 ADD MLOAD SWAP3 SWAP2 POP POP JUMP JUMPDEST PUSH1 0x40 DUP2 ADD MLOAD ISZERO DUP1 PUSH2 0x12F7 JUMPI POP DUP1 PUSH2 0x120 ADD MLOAD ISZERO JUMPDEST ISZERO PUSH2 0x1304 JUMPI POP PUSH0 SWAP3 SWAP2 POP POP JUMP JUMPDEST PUSH1 0xE0 DUP2 ADD MLOAD PUSH0 PUSH2 0x1314 DUP3 DUP3 PUSH2 0x4044 JUMP JUMPDEST SWAP1 POP DUP2 DUP2 GT PUSH2 0x1327 JUMPI POP PUSH0 SWAP5 SWAP4 POP POP POP POP JUMP JUMPDEST PUSH1 0x40 DUP4 ADD MLOAD PUSH0 SWAP1 DUP4 JUMPDEST DUP4 DUP2 LT ISZERO PUSH2 0x145E JUMPI PUSH0 PUSH1 0x14 DUP3 DUP2 SLOAD DUP2 LT PUSH2 0x134C JUMPI PUSH2 0x134C PUSH2 0x4A29 JUMP JUMPDEST SWAP1 PUSH0 MSTORE PUSH1 0x20 PUSH0 KECCAK256 SWAP1 PUSH1 0x3 MUL ADD PUSH1 0x40 MLOAD DUP1 PUSH1 0x60 ADD PUSH1 0x40 MSTORE SWAP1 DUP2 PUSH0 DUP3 ADD SLOAD DUP2 MSTORE PUSH1 0x20 ADD PUSH1 0x1 DUP3 ADD SLOAD DUP2 MSTORE PUSH1 0x20 ADD PUSH1 0x2 DUP3 ADD SLOAD DUP2 MSTORE POP POP SWAP1 POP PUSH0 DUP8 PUSH2 0x180 ADD MLOAD PUSH2 0x139B JUMPI PUSH2 0x1396 DUP4 PUSH2 0x4092 JUMP JUMPDEST PUSH2 0x13A2 JUMP JUMPDEST DUP8 PUSH2 0x1A0 ADD MLOAD JUMPDEST SWAP1 POP PUSH0 PUSH2 0x2710 PUSH2 0x13B2 DUP4 DUP8 PUSH2 0x4ADB JUMP JUMPDEST PUSH2 0x13BC SWAP2 SWAP1 PUSH2 0x4AF2 JUMP JUMPDEST SWAP1 POP DUP9 PUSH1 0x60 ADD MLOAD DUP5 SUB PUSH2 0x1445 JUMPI DUP3 MLOAD PUSH1 0x20 DUP5 ADD MLOAD PUSH0 PUSH2 0x13DB DUP4 DUP4 PUSH2 0x4A16 JUMP JUMPDEST SWAP1 POP PUSH0 DUP4 DUP14 PUSH1 0x80 ADD MLOAD GT PUSH2 0x13EF JUMPI DUP4 PUSH2 0x13F5 JUMP JUMPDEST DUP13 PUSH1 0x80 ADD MLOAD JUMPDEST SWAP1 POP DUP3 DUP1 DUP3 LT PUSH2 0x140C JUMPI POP POP POP POP POP POP POP POP PUSH2 0x1456 JUMP JUMPDEST PUSH0 PUSH2 0x1417 DUP4 DUP4 PUSH2 0x4A16 JUMP JUMPDEST SWAP1 POP DUP4 PUSH2 0x1424 DUP3 DUP10 PUSH2 0x4ADB JUMP JUMPDEST PUSH2 0x142E SWAP2 SWAP1 PUSH2 0x4AF2 JUMP JUMPDEST PUSH2 0x1438 SWAP1 DUP14 PUSH2 0x4A3D JUMP JUMPDEST SWAP12 POP POP POP POP POP POP POP PUSH2 0x1452 JUMP JUMPDEST PUSH2 0x144F DUP2 DUP8 PUSH2 0x4A3D JUMP JUMPDEST SWAP6 POP JUMPDEST POP POP POP JUMPDEST PUSH1 0x1 ADD PUSH2 0x1330 JUMP JUMPDEST POP SWAP1 SWAP7 SWAP6 POP POP POP POP POP POP JUMP JUMPDEST PUSH1 0x1 SLOAD PUSH1 0x1 PUSH1 0x1 PUSH1 0xA0 SHL SUB AND CALLER EQ PUSH2 0x1494 JUMPI PUSH1 0x40 MLOAD PUSH3 0x461BCD PUSH1 0xE5 SHL DUP2 MSTORE PUSH1 0x4 ADD PUSH2 0x967 SWAP1 PUSH2 0x49B9 JUMP JUMPDEST DUP5 DUP4 EQ DUP1 ISZERO PUSH2 0x14A2 JUMPI POP DUP5 DUP2 EQ JUMPDEST PUSH2 0x14E0 JUMPI PUSH1 0x40 MLOAD PUSH3 0x461BCD PUSH1 0xE5 SHL DUP2 MSTORE PUSH1 0x20 PUSH1 0x4 DUP3 ADD MSTORE PUSH1 0xF PUSH1 0x24 DUP3 ADD MSTORE PUSH15 0x98CADCCEE8D040DAD2E6DAC2E8C6D PUSH1 0x8B SHL PUSH1 0x44 DUP3 ADD MSTORE PUSH1 0x64 ADD PUSH2 0x967 JUMP JUMPDEST DUP5 PUSH2 0x1515 JUMPI PUSH1 0x40 MLOAD PUSH3 0x461BCD PUSH1 0xE5 SHL DUP2 MSTORE PUSH1 0x20 PUSH1 0x4 DUP3 ADD MSTORE PUSH1 0x5 PUSH1 0x24 DUP3 ADD MSTORE PUSH5 0x456D707479 PUSH1 0xD8 SHL PUSH1 0x44 DUP3 ADD MSTORE PUSH1 0x64 ADD PUSH2 0x967 JUMP JUMPDEST PUSH0 JUMPDEST DUP6 DUP2 LT ISZERO PUSH2 0x157A JUMPI PUSH2 0x1572 DUP8 DUP8 DUP4 DUP2 DUP2 LT PUSH2 0x1534 JUMPI PUSH2 0x1534 PUSH2 0x4A29 JUMP JUMPDEST SWAP1 POP PUSH1 0x20 MUL ADD CALLDATALOAD DUP7 DUP7 DUP5 DUP2 DUP2 LT PUSH2 0x154D JUMPI PUSH2 0x154D PUSH2 0x4A29 JUMP JUMPDEST SWAP1 POP PUSH1 0x20 MUL ADD CALLDATALOAD DUP6 DUP6 DUP6 DUP2 DUP2 LT PUSH2 0x1566 JUMPI PUSH2 0x1566 PUSH2 0x4A29 JUMP JUMPDEST SWAP1 POP PUSH1 0x20 MUL ADD CALLDATALOAD PUSH2 0x3ECE JUMP JUMPDEST PUSH1 0x1 ADD PUSH2 0x1517 JUMP JUMPDEST POP PUSH1 0x14 SLOAD PUSH32 0xAB080E234EBAB87937F1D48C107ECB8AB6361D9012A0670705E920B9CFFE1011 SWAP1 PUSH2 0x15AB SWAP1 DUP8 SWAP1 PUSH2 0x4A16 JUMP JUMPDEST PUSH1 0x14 SLOAD PUSH2 0x15BA SWAP1 PUSH1 0x1 SWAP1 PUSH2 0x4A16 JUMP JUMPDEST PUSH1 0x40 DUP1 MLOAD SWAP3 DUP4 MSTORE PUSH1 0x20 DUP4 ADD SWAP2 SWAP1 SWAP2 MSTORE ADD PUSH1 0x40 MLOAD DUP1 SWAP2 SUB SWAP1 LOG1 POP POP POP POP POP POP JUMP JUMPDEST PUSH2 0x165E PUSH1 0x40 MLOAD DUP1 PUSH2 0x220 ADD PUSH1 0x40 MSTORE DUP1 PUSH0 DUP2 MSTORE PUSH1 0x20 ADD PUSH0 DUP2 MSTORE PUSH1 0x20 ADD PUSH0 DUP2 MSTORE PUSH1 0x20 ADD PUSH0 DUP2 MSTORE PUSH1 0x20 ADD PUSH0 DUP2 MSTORE PUSH1 0x20 ADD PUSH0 DUP2 MSTORE PUSH1 0x20 ADD PUSH0 PUSH1 0xFF AND DUP2 MSTORE PUSH1 0x20 ADD PUSH1 0x60 DUP2 MSTORE PUSH1 0x20 ADD PUSH1 0x60 DUP2 MSTORE PUSH1 0x20 ADD PUSH0 PUSH1 0x1 PUSH1 0x1 PUSH1 0xA0 SHL SUB AND DUP2 MSTORE PUSH1 0x20 ADD PUSH0 DUP2 MSTORE PUSH1 0x20 ADD PUSH0 DUP2 MSTORE PUSH1 0x20 ADD PUSH0 DUP2 MSTORE PUSH1 0x20 ADD PUSH0 DUP2 MSTORE PUSH1 0x20 ADD PUSH0 DUP2 MSTORE PUSH1 0x20 ADD PUSH0 DUP2 MSTORE PUSH1 0x20 ADD PUSH0 DUP2 MSTORE POP SWAP1 JUMP JUMPDEST PUSH1 0x40 MLOAD DUP1 PUSH2 0x220 ADD PUSH1 0x40 MSTORE DUP1 PUSH1 0x7 DUP1 SLOAD SWAP1 POP DUP2 MSTORE PUSH1 0x20 ADD PUSH1 0x10 SLOAD DUP2 MSTORE PUSH1 0x20 ADD PUSH1 0xB DUP1 SLOAD SWAP1 POP DUP2 MSTORE PUSH1 0x20 ADD PUSH1 0x11 SLOAD DUP2 MSTORE PUSH1 0x20 ADD PUSH1 0x12 SLOAD DUP2 MSTORE PUSH1 0x20 ADD PUSH1 0x13 SLOAD DUP2 MSTORE PUSH1 0x20 ADD PUSH32 0x0 PUSH1 0x1 PUSH1 0x1 PUSH1 0xA0 SHL SUB AND PUSH4 0x313CE567 PUSH1 0x40 MLOAD DUP2 PUSH4 0xFFFFFFFF AND PUSH1 0xE0 SHL DUP2 MSTORE PUSH1 0x4 ADD PUSH1 0x20 PUSH1 0x40 MLOAD DUP1 DUP4 SUB DUP2 DUP7 GAS STATICCALL ISZERO DUP1 ISZERO PUSH2 0x16FC JUMPI RETURNDATASIZE PUSH0 PUSH0 RETURNDATACOPY RETURNDATASIZE PUSH0 REVERT JUMPDEST POP POP POP POP PUSH1 0x40 MLOAD RETURNDATASIZE PUSH1 0x1F NOT PUSH1 0x1F DUP3 ADD AND DUP3 ADD DUP1 PUSH1 0x40 MSTORE POP DUP2 ADD SWAP1 PUSH2 0x1720 SWAP2 SWAP1 PUSH2 0x4B11 JUMP JUMPDEST PUSH1 0xFF AND DUP2 MSTORE PUSH1 0x20 ADD PUSH32 0x0 PUSH1 0x1 PUSH1 0x1 PUSH1 0xA0 SHL SUB AND PUSH4 0x6FDDE03 PUSH1 0x40 MLOAD DUP2 PUSH4 0xFFFFFFFF AND PUSH1 0xE0 SHL DUP2 MSTORE PUSH1 0x4 ADD PUSH0 PUSH1 0x40 MLOAD DUP1 DUP4 SUB DUP2 DUP7 GAS STATICCALL ISZERO DUP1 ISZERO PUSH2 0x1783 JUMPI RETURNDATASIZE PUSH0 PUSH0 RETURNDATACOPY RETURNDATASIZE PUSH0 REVERT JUMPDEST POP POP POP POP PUSH1 0x40 MLOAD RETURNDATASIZE PUSH0 DUP3 RETURNDATACOPY PUSH1 0x1F RETURNDATASIZE SWAP1 DUP2 ADD PUSH1 0x1F NOT AND DUP3 ADD PUSH1 0x40 MSTORE PUSH2 0x17AA SWAP2 SWAP1 DUP2 ADD SWAP1 PUSH2 0x4B31 JUMP JUMPDEST DUP2 MSTORE PUSH1 0x20 ADD PUSH32 0x0 PUSH1 0x1 PUSH1 0x1 PUSH1 0xA0 SHL SUB AND PUSH4 0x95D89B41 PUSH1 0x40 MLOAD DUP2 PUSH4 0xFFFFFFFF AND PUSH1 0xE0 SHL DUP2 MSTORE PUSH1 0x4 ADD PUSH0 PUSH1 0x40 MLOAD DUP1 DUP4 SUB DUP2 DUP7 GAS STATICCALL ISZERO DUP1 ISZERO PUSH2 0x180A JUMPI RETURNDATASIZE PUSH0 PUSH0 RETURNDATACOPY RETURNDATASIZE PUSH0 REVERT JUMPDEST POP POP POP POP PUSH1 0x40 MLOAD RETURNDATASIZE PUSH0 DUP3 RETURNDATACOPY PUSH1 0x1F RETURNDATASIZE SWAP1 DUP2 ADD PUSH1 0x1F NOT AND DUP3 ADD PUSH1 0x40 MSTORE PUSH2 0x1831 SWAP2 SWAP1 DUP2 ADD SWAP1 PUSH2 0x4B31 JUMP JUMPDEST DUP2 MSTORE PUSH1 0x20 ADD PUSH32 0x0 PUSH1 0x1 PUSH1 0x1 PUSH1 0xA0 SHL SUB AND DUP2 MSTORE PUSH1 0x20 ADD PUSH1 0x4 SLOAD DUP2 MSTORE PUSH1 0x20 ADD PUSH1 0x5 SLOAD DUP2 MSTORE PUSH1 0x20 ADD PUSH1 0x6 SLOAD DUP2 MSTORE PUSH1 0x20 ADD PUSH2 0x1885 PUSH2 0x2A35 JUMP JUMPDEST DUP2 MSTORE PUSH1 0x20 ADD PUSH2 0x1892 PUSH2 0x31C4 JUMP JUMPDEST DUP2 MSTORE PUSH1 0x20 ADD PUSH2 0x189F PUSH2 0x2CAF JUMP JUMPDEST DUP2 MSTORE PUSH1 0x14 SLOAD PUSH1 0x20 SWAP1 SWAP2 ADD MSTORE SWAP2 SWAP1 POP JUMP JUMPDEST PUSH1 0x60 DUP2 PUSH0 SUB PUSH2 0x18BE JUMPI PUSH1 0xE SLOAD SWAP2 POP JUMPDEST PUSH0 PUSH2 0x18C9 DUP4 DUP6 PUSH2 0x4A3D JUMP JUMPDEST PUSH1 0xE SLOAD SWAP1 SWAP2 POP DUP5 GT ISZERO PUSH2 0x18DC JUMPI POP PUSH2 0x1AE5 JUMP JUMPDEST PUSH1 0xE SLOAD DUP2 GT ISZERO PUSH2 0x18EB JUMPI POP PUSH1 0xE SLOAD JUMPDEST PUSH2 0x18F5 DUP5 DUP3 PUSH2 0x4A16 JUMP JUMPDEST PUSH1 0x1 PUSH1 0x1 PUSH1 0x40 SHL SUB DUP2 GT ISZERO PUSH2 0x190C JUMPI PUSH2 0x190C PUSH2 0x433E JUMP JUMPDEST PUSH1 0x40 MLOAD SWAP1 DUP1 DUP3 MSTORE DUP1 PUSH1 0x20 MUL PUSH1 0x20 ADD DUP3 ADD PUSH1 0x40 MSTORE DUP1 ISZERO PUSH2 0x1945 JUMPI DUP2 PUSH1 0x20 ADD JUMPDEST PUSH2 0x1932 PUSH2 0x41EC JUMP JUMPDEST DUP2 MSTORE PUSH1 0x20 ADD SWAP1 PUSH1 0x1 SWAP1 SUB SWAP1 DUP2 PUSH2 0x192A JUMPI SWAP1 POP JUMPDEST POP SWAP2 POP PUSH0 JUMPDEST PUSH2 0x1954 DUP6 DUP4 PUSH2 0x4A16 JUMP JUMPDEST DUP2 LT ISZERO PUSH2 0x1AE2 JUMPI PUSH1 0xB PUSH1 0xE PUSH1 0x1 DUP8 DUP5 PUSH1 0xE DUP1 SLOAD SWAP1 POP PUSH2 0x1973 SWAP2 SWAP1 PUSH2 0x4A16 JUMP JUMPDEST PUSH2 0x197D SWAP2 SWAP1 PUSH2 0x4A16 JUMP JUMPDEST PUSH2 0x1987 SWAP2 SWAP1 PUSH2 0x4A16 JUMP JUMPDEST DUP2 SLOAD DUP2 LT PUSH2 0x1997 JUMPI PUSH2 0x1997 PUSH2 0x4A29 JUMP JUMPDEST SWAP1 PUSH0 MSTORE PUSH1 0x20 PUSH0 KECCAK256 ADD SLOAD DUP2 SLOAD DUP2 LT PUSH2 0x19B0 JUMPI PUSH2 0x19B0 PUSH2 0x4A29 JUMP JUMPDEST PUSH0 SWAP2 DUP3 MSTORE PUSH1 0x20 SWAP2 DUP3 SWAP1 KECCAK256 PUSH1 0x40 DUP1 MLOAD PUSH2 0x1C0 DUP2 ADD DUP3 MSTORE PUSH1 0xD SWAP1 SWAP4 MUL SWAP1 SWAP2 ADD DUP1 SLOAD DUP4 MSTORE PUSH1 0x1 DUP2 ADD SLOAD PUSH1 0x1 PUSH1 0x1 PUSH1 0xA0 SHL SUB AND SWAP4 DUP4 ADD SWAP4 SWAP1 SWAP4 MSTORE PUSH1 0x2 DUP4 ADD SLOAD SWAP1 DUP3 ADD MSTORE PUSH1 0x3 DUP3 ADD SLOAD PUSH1 0x60 DUP3 ADD MSTORE PUSH1 0x4 DUP3 ADD SLOAD PUSH1 0x80 DUP3 ADD MSTORE PUSH1 0x5 DUP3 ADD SLOAD PUSH1 0xA0 DUP3 ADD MSTORE PUSH1 0x6 DUP3 ADD SLOAD PUSH1 0xC0 DUP3 ADD MSTORE PUSH1 0x7 DUP3 ADD SLOAD PUSH1 0xE0 DUP3 ADD MSTORE PUSH1 0x8 DUP3 ADD SLOAD PUSH2 0x100 DUP1 DUP4 ADD SWAP2 SWAP1 SWAP2 MSTORE PUSH1 0x9 DUP4 ADD SLOAD PUSH1 0xFF DUP1 DUP3 AND ISZERO ISZERO PUSH2 0x120 DUP6 ADD MSTORE SWAP2 SWAP1 DIV DUP2 AND ISZERO ISZERO PUSH2 0x140 DUP4 ADD MSTORE PUSH1 0xA DUP4 ADD SLOAD PUSH2 0x160 DUP4 ADD MSTORE PUSH1 0xB DUP4 ADD SLOAD AND ISZERO ISZERO PUSH2 0x180 DUP3 ADD MSTORE PUSH1 0xC SWAP1 SWAP2 ADD SLOAD PUSH2 0x1A0 DUP3 ADD MSTORE DUP4 MLOAD DUP5 SWAP1 DUP4 SWAP1 DUP2 LT PUSH2 0x1A88 JUMPI PUSH2 0x1A88 PUSH2 0x4A29 JUMP JUMPDEST PUSH1 0x20 MUL PUSH1 0x20 ADD ADD DUP2 SWAP1 MSTORE POP PUSH2 0x1AB8 DUP4 DUP3 DUP2 MLOAD DUP2 LT PUSH2 0x1AA8 JUMPI PUSH2 0x1AA8 PUSH2 0x4A29 JUMP JUMPDEST PUSH1 0x20 MUL PUSH1 0x20 ADD ADD MLOAD PUSH0 ADD MLOAD PUSH2 0x11F6 JUMP JUMPDEST DUP4 DUP3 DUP2 MLOAD DUP2 LT PUSH2 0x1ACA JUMPI PUSH2 0x1ACA PUSH2 0x4A29 JUMP JUMPDEST PUSH1 0x20 SWAP1 DUP2 MUL SWAP2 SWAP1 SWAP2 ADD ADD MLOAD PUSH2 0x100 ADD MSTORE PUSH1 0x1 ADD PUSH2 0x194A JUMP JUMPDEST POP POP JUMPDEST SWAP3 SWAP2 POP POP JUMP JUMPDEST PUSH1 0x60 DUP2 PUSH0 SUB PUSH2 0x1AFA JUMPI PUSH1 0x7 SLOAD SWAP2 POP JUMPDEST PUSH0 PUSH2 0x1B05 DUP4 DUP6 PUSH2 0x4A3D JUMP JUMPDEST PUSH1 0x7 SLOAD SWAP1 SWAP2 POP DUP5 GT ISZERO PUSH2 0x1B18 JUMPI POP PUSH2 0x1AE5 JUMP JUMPDEST PUSH1 0x7 SLOAD DUP2 GT ISZERO PUSH2 0x1B27 JUMPI POP PUSH1 0x7 SLOAD JUMPDEST PUSH2 0x1B31 DUP5 DUP3 PUSH2 0x4A16 JUMP JUMPDEST PUSH1 0x1 PUSH1 0x1 PUSH1 0x40 SHL SUB DUP2 GT ISZERO PUSH2 0x1B48 JUMPI PUSH2 0x1B48 PUSH2 0x433E JUMP JUMPDEST PUSH1 0x40 MLOAD SWAP1 DUP1 DUP3 MSTORE DUP1 PUSH1 0x20 MUL PUSH1 0x20 ADD DUP3 ADD PUSH1 0x40 MSTORE DUP1 ISZERO PUSH2 0x1B71 JUMPI DUP2 PUSH1 0x20 ADD PUSH1 0x20 DUP3 MUL DUP1 CALLDATASIZE DUP4 CALLDATACOPY ADD SWAP1 POP JUMPDEST POP SWAP2 POP PUSH0 JUMPDEST PUSH2 0x1B80 DUP6 DUP4 PUSH2 0x4A16 JUMP JUMPDEST DUP2 LT ISZERO PUSH2 0x1AE2 JUMPI PUSH1 0x7 DUP1 SLOAD PUSH1 0x1 SWAP1 DUP8 SWAP1 PUSH2 0x1B9B SWAP1 DUP6 SWAP1 PUSH2 0x4A16 JUMP JUMPDEST PUSH2 0x1BA5 SWAP2 SWAP1 PUSH2 0x4A16 JUMP JUMPDEST PUSH2 0x1BAF SWAP2 SWAP1 PUSH2 0x4A16 JUMP JUMPDEST DUP2 SLOAD DUP2 LT PUSH2 0x1BBF JUMPI PUSH2 0x1BBF PUSH2 0x4A29 JUMP JUMPDEST SWAP1 PUSH0 MSTORE PUSH1 0x20 PUSH0 KECCAK256 ADD PUSH0 SWAP1 SLOAD SWAP1 PUSH2 0x100 EXP SWAP1 DIV PUSH1 0x1 PUSH1 0x1 PUSH1 0xA0 SHL SUB AND DUP4 DUP3 DUP2 MLOAD DUP2 LT PUSH2 0x1BEC JUMPI PUSH2 0x1BEC PUSH2 0x4A29 JUMP JUMPDEST PUSH1 0x1 PUSH1 0x1 PUSH1 0xA0 SHL SUB SWAP1 SWAP3 AND PUSH1 0x20 SWAP3 DUP4 MUL SWAP2 SWAP1 SWAP2 ADD SWAP1 SWAP2 ADD MSTORE PUSH1 0x1 ADD PUSH2 0x1B76 JUMP JUMPDEST PUSH1 0x60 DUP2 PUSH0 SUB PUSH2 0x1C30 JUMPI PUSH1 0x1 PUSH1 0x1 PUSH1 0xA0 SHL SUB DUP5 AND PUSH0 SWAP1 DUP2 MSTORE PUSH1 0x9 PUSH1 0x20 MSTORE PUSH1 0x40 SWAP1 KECCAK256 SLOAD SWAP2 POP JUMPDEST PUSH0 PUSH2 0x1C3B DUP4 DUP6 PUSH2 0x4A3D JUMP JUMPDEST PUSH1 0x1 PUSH1 0x1 PUSH1 0xA0 SHL SUB DUP7 AND PUSH0 SWAP1 DUP2 MSTORE PUSH1 0x9 PUSH1 0x20 MSTORE PUSH1 0x40 SWAP1 KECCAK256 SLOAD SWAP1 SWAP2 POP DUP5 GT ISZERO PUSH2 0x1C63 JUMPI POP PUSH2 0x1E9B JUMP JUMPDEST PUSH1 0x1 PUSH1 0x1 PUSH1 0xA0 SHL SUB DUP6 AND PUSH0 SWAP1 DUP2 MSTORE PUSH1 0x9 PUSH1 0x20 MSTORE PUSH1 0x40 SWAP1 KECCAK256 SLOAD DUP2 GT ISZERO PUSH2 0x1C9C JUMPI POP PUSH1 0x1 PUSH1 0x1 PUSH1 0xA0 SHL SUB DUP5 AND PUSH0 SWAP1 DUP2 MSTORE PUSH1 0x9 PUSH1 0x20 MSTORE PUSH1 0x40 SWAP1 KECCAK256 SLOAD JUMPDEST PUSH2 0x1CA6 DUP5 DUP3 PUSH2 0x4A16 JUMP JUMPDEST PUSH1 0x1 PUSH1 0x1 PUSH1 0x40 SHL SUB DUP2 GT ISZERO PUSH2 0x1CBD JUMPI PUSH2 0x1CBD PUSH2 0x433E JUMP JUMPDEST PUSH1 0x40 MLOAD SWAP1 DUP1 DUP3 MSTORE DUP1 PUSH1 0x20 MUL PUSH1 0x20 ADD DUP3 ADD PUSH1 0x40 MSTORE DUP1 ISZERO PUSH2 0x1CF6 JUMPI DUP2 PUSH1 0x20 ADD JUMPDEST PUSH2 0x1CE3 PUSH2 0x41EC JUMP JUMPDEST DUP2 MSTORE PUSH1 0x20 ADD SWAP1 PUSH1 0x1 SWAP1 SUB SWAP1 DUP2 PUSH2 0x1CDB JUMPI SWAP1 POP JUMPDEST POP SWAP2 POP PUSH0 JUMPDEST PUSH2 0x1D05 DUP6 DUP4 PUSH2 0x4A16 JUMP JUMPDEST DUP2 LT ISZERO PUSH2 0x1E98 JUMPI PUSH1 0x1 PUSH1 0x1 PUSH1 0xA0 SHL SUB DUP7 AND PUSH0 SWAP1 DUP2 MSTORE PUSH1 0x9 PUSH1 0x20 MSTORE PUSH1 0x40 SWAP1 KECCAK256 DUP1 SLOAD PUSH1 0xB SWAP2 SWAP1 PUSH1 0x1 SWAP1 DUP9 SWAP1 PUSH2 0x1D39 SWAP1 DUP7 SWAP1 PUSH2 0x4A16 JUMP JUMPDEST PUSH2 0x1D43 SWAP2 SWAP1 PUSH2 0x4A16 JUMP JUMPDEST PUSH2 0x1D4D SWAP2 SWAP1 PUSH2 0x4A16 JUMP JUMPDEST DUP2 SLOAD DUP2 LT PUSH2 0x1D5D JUMPI PUSH2 0x1D5D PUSH2 0x4A29 JUMP JUMPDEST SWAP1 PUSH0 MSTORE PUSH1 0x20 PUSH0 KECCAK256 ADD SLOAD DUP2 SLOAD DUP2 LT PUSH2 0x1D76 JUMPI PUSH2 0x1D76 PUSH2 0x4A29 JUMP JUMPDEST PUSH0 SWAP2 DUP3 MSTORE PUSH1 0x20 SWAP2 DUP3 SWAP1 KECCAK256 PUSH1 0x40 DUP1 MLOAD PUSH2 0x1C0 DUP2 ADD DUP3 MSTORE PUSH1 0xD SWAP1 SWAP4 MUL SWAP1 SWAP2 ADD DUP1 SLOAD DUP4 MSTORE PUSH1 0x1 DUP2 ADD SLOAD PUSH1 0x1 PUSH1 0x1 PUSH1 0xA0 SHL SUB AND SWAP4 DUP4 ADD SWAP4 SWAP1 SWAP4 MSTORE PUSH1 0x2 DUP4 ADD SLOAD SWAP1 DUP3 ADD MSTORE PUSH1 0x3 DUP3 ADD SLOAD PUSH1 0x60 DUP3 ADD MSTORE PUSH1 0x4 DUP3 ADD SLOAD PUSH1 0x80 DUP3 ADD MSTORE PUSH1 0x5 DUP3 ADD SLOAD PUSH1 0xA0 DUP3 ADD MSTORE PUSH1 0x6 DUP3 ADD SLOAD PUSH1 0xC0 DUP3 ADD MSTORE PUSH1 0x7 DUP3 ADD SLOAD PUSH1 0xE0 DUP3 ADD MSTORE PUSH1 0x8 DUP3 ADD SLOAD PUSH2 0x100 DUP1 DUP4 ADD SWAP2 SWAP1 SWAP2 MSTORE PUSH1 0x9 DUP4 ADD SLOAD PUSH1 0xFF DUP1 DUP3 AND ISZERO ISZERO PUSH2 0x120 DUP6 ADD MSTORE SWAP2 SWAP1 DIV DUP2 AND ISZERO ISZERO PUSH2 0x140 DUP4 ADD MSTORE PUSH1 0xA DUP4 ADD SLOAD PUSH2 0x160 DUP4 ADD MSTORE PUSH1 0xB DUP4 ADD SLOAD AND ISZERO ISZERO PUSH2 0x180 DUP3 ADD MSTORE PUSH1 0xC SWAP1 SWAP2 ADD SLOAD PUSH2 0x1A0 DUP3 ADD MSTORE DUP4 MLOAD DUP5 SWAP1 DUP4 SWAP1 DUP2 LT PUSH2 0x1E4E JUMPI PUSH2 0x1E4E PUSH2 0x4A29 JUMP JUMPDEST PUSH1 0x20 MUL PUSH1 0x20 ADD ADD DUP2 SWAP1 MSTORE POP PUSH2 0x1E6E DUP4 DUP3 DUP2 MLOAD DUP2 LT PUSH2 0x1AA8 JUMPI PUSH2 0x1AA8 PUSH2 0x4A29 JUMP JUMPDEST DUP4 DUP3 DUP2 MLOAD DUP2 LT PUSH2 0x1E80 JUMPI PUSH2 0x1E80 PUSH2 0x4A29 JUMP JUMPDEST PUSH1 0x20 SWAP1 DUP2 MUL SWAP2 SWAP1 SWAP2 ADD ADD MLOAD PUSH2 0x100 ADD MSTORE PUSH1 0x1 ADD PUSH2 0x1CFB JUMP JUMPDEST POP POP JUMPDEST SWAP4 SWAP3 POP POP POP JUMP JUMPDEST PUSH1 0x1 SLOAD PUSH1 0x1 PUSH1 0x1 PUSH1 0xA0 SHL SUB AND CALLER EQ PUSH2 0x1ECC JUMPI PUSH1 0x40 MLOAD PUSH3 0x461BCD PUSH1 0xE5 SHL DUP2 MSTORE PUSH1 0x4 ADD PUSH2 0x967 SWAP1 PUSH2 0x49B9 JUMP JUMPDEST PUSH1 0x5 SSTORE JUMP JUMPDEST PUSH1 0x60 DUP2 PUSH0 SUB PUSH2 0x1EE0 JUMPI PUSH1 0x14 SLOAD SWAP2 POP JUMPDEST PUSH0 PUSH2 0x1EEB DUP4 DUP6 PUSH2 0x4A3D JUMP JUMPDEST PUSH1 0x14 SLOAD SWAP1 SWAP2 POP DUP5 GT ISZERO PUSH2 0x1EFE JUMPI POP PUSH2 0x1AE5 JUMP JUMPDEST PUSH1 0x14 SLOAD DUP2 GT ISZERO PUSH2 0x1F0D JUMPI POP PUSH1 0x14 SLOAD JUMPDEST PUSH2 0x1F17 DUP5 DUP3 PUSH2 0x4A16 JUMP JUMPDEST PUSH1 0x1 PUSH1 0x1 PUSH1 0x40 SHL SUB DUP2 GT ISZERO PUSH2 0x1F2E JUMPI PUSH2 0x1F2E PUSH2 0x433E JUMP JUMPDEST PUSH1 0x40 MLOAD SWAP1 DUP1 DUP3 MSTORE DUP1 PUSH1 0x20 MUL PUSH1 0x20 ADD DUP3 ADD PUSH1 0x40 MSTORE DUP1 ISZERO PUSH2 0x1F98 JUMPI DUP2 PUSH1 0x20 ADD JUMPDEST PUSH2 0x1F85 PUSH1 0x40 MLOAD DUP1 PUSH1 0xE0 ADD PUSH1 0x40 MSTORE DUP1 PUSH0 DUP2 MSTORE PUSH1 0x20 ADD PUSH0 DUP2 MSTORE PUSH1 0x20 ADD PUSH0 DUP2 MSTORE PUSH1 0x20 ADD PUSH0 DUP2 MSTORE PUSH1 0x20 ADD PUSH0 DUP2 MSTORE PUSH1 0x20 ADD PUSH0 DUP2 MSTORE PUSH1 0x20 ADD PUSH0 DUP2 MSTORE POP SWAP1 JUMP JUMPDEST DUP2 MSTORE PUSH1 0x20 ADD SWAP1 PUSH1 0x1 SWAP1 SUB SWAP1 DUP2 PUSH2 0x1F4C JUMPI SWAP1 POP JUMPDEST POP SWAP2 POP PUSH0 JUMPDEST PUSH2 0x1FA7 DUP6 DUP4 PUSH2 0x4A16 JUMP JUMPDEST DUP2 LT ISZERO PUSH2 0x1AE2 JUMPI PUSH0 PUSH1 0x1 DUP7 DUP4 PUSH1 0x14 DUP1 SLOAD SWAP1 POP PUSH2 0x1FC3 SWAP2 SWAP1 PUSH2 0x4A16 JUMP JUMPDEST PUSH2 0x1FCD SWAP2 SWAP1 PUSH2 0x4A16 JUMP JUMPDEST PUSH2 0x1FD7 SWAP2 SWAP1 PUSH2 0x4A16 JUMP JUMPDEST SWAP1 POP PUSH1 0x40 MLOAD DUP1 PUSH1 0xE0 ADD PUSH1 0x40 MSTORE DUP1 DUP3 DUP2 MSTORE PUSH1 0x20 ADD PUSH1 0x14 DUP4 DUP2 SLOAD DUP2 LT PUSH2 0x1FFD JUMPI PUSH2 0x1FFD PUSH2 0x4A29 JUMP JUMPDEST SWAP1 PUSH0 MSTORE PUSH1 0x20 PUSH0 KECCAK256 SWAP1 PUSH1 0x3 MUL ADD PUSH0 ADD SLOAD DUP2 MSTORE PUSH1 0x20 ADD PUSH1 0x14 DUP4 DUP2 SLOAD DUP2 LT PUSH2 0x2024 JUMPI PUSH2 0x2024 PUSH2 0x4A29 JUMP JUMPDEST SWAP1 PUSH0 MSTORE PUSH1 0x20 PUSH0 KECCAK256 SWAP1 PUSH1 0x3 MUL ADD PUSH1 0x1 ADD SLOAD DUP2 MSTORE PUSH1 0x20 ADD PUSH1 0x14 DUP4 DUP2 SLOAD DUP2 LT PUSH2 0x204C JUMPI PUSH2 0x204C PUSH2 0x4A29 JUMP JUMPDEST PUSH0 SWAP2 DUP3 MSTORE PUSH1 0x20 DUP1 DUP4 KECCAK256 PUSH1 0x2 PUSH1 0x3 SWAP1 SWAP4 MUL ADD SWAP2 SWAP1 SWAP2 ADD SLOAD DUP4 MSTORE DUP5 DUP3 MSTORE PUSH1 0x15 DUP2 MSTORE PUSH1 0x40 DUP1 DUP4 KECCAK256 SLOAD DUP5 DUP4 ADD MSTORE DUP6 DUP4 MSTORE PUSH1 0x16 DUP3 MSTORE DUP1 DUP4 KECCAK256 SLOAD DUP2 DUP6 ADD MSTORE DUP6 DUP4 MSTORE PUSH1 0x17 SWAP1 SWAP2 MSTORE SWAP1 KECCAK256 SLOAD PUSH1 0x60 SWAP1 SWAP2 ADD MSTORE DUP5 MLOAD DUP6 SWAP1 DUP5 SWAP1 DUP2 LT PUSH2 0x20A9 JUMPI PUSH2 0x20A9 PUSH2 0x4A29 JUMP JUMPDEST PUSH1 0x20 SWAP1 DUP2 MUL SWAP2 SWAP1 SWAP2 ADD ADD MSTORE POP PUSH1 0x1 ADD PUSH2 0x1F9D JUMP JUMPDEST PUSH2 0x20C5 PUSH2 0x38EA JUMP JUMPDEST PUSH0 PUSH1 0xB DUP3 DUP2 SLOAD DUP2 LT PUSH2 0x20D9 JUMPI PUSH2 0x20D9 PUSH2 0x4A29 JUMP JUMPDEST PUSH0 SWAP2 DUP3 MSTORE PUSH1 0x20 SWAP1 SWAP2 KECCAK256 PUSH1 0xD SWAP1 SWAP2 MUL ADD PUSH1 0x9 DUP2 ADD SLOAD SWAP1 SWAP2 POP PUSH1 0xFF AND PUSH2 0x210F JUMPI PUSH1 0x40 MLOAD PUSH3 0x461BCD PUSH1 0xE5 SHL DUP2 MSTORE PUSH1 0x4 ADD PUSH2 0x967 SWAP1 PUSH2 0x4BC3 JUMP JUMPDEST PUSH1 0x1 DUP2 ADD SLOAD PUSH1 0x1 PUSH1 0x1 PUSH1 0xA0 SHL SUB AND CALLER EQ PUSH2 0x213B JUMPI PUSH1 0x40 MLOAD PUSH3 0x461BCD PUSH1 0xE5 SHL DUP2 MSTORE PUSH1 0x4 ADD PUSH2 0x967 SWAP1 PUSH2 0x4A50 JUMP JUMPDEST PUSH0 PUSH2 0x2144 PUSH2 0x2CAF JUMP JUMPDEST SWAP1 POP DUP2 PUSH1 0x6 ADD SLOAD DUP2 LT ISZERO PUSH2 0x2183 JUMPI PUSH1 0x40 MLOAD PUSH3 0x461BCD PUSH1 0xE5 SHL DUP2 MSTORE PUSH1 0x20 PUSH1 0x4 DUP3 ADD MSTORE PUSH1 0x6 PUSH1 0x24 DUP3 ADD MSTORE PUSH6 0x131BD8DAD959 PUSH1 0xD2 SHL PUSH1 0x44 DUP3 ADD MSTORE PUSH1 0x64 ADD PUSH2 0x967 JUMP JUMPDEST PUSH0 PUSH2 0x218D DUP5 PUSH2 0x11F6 JUMP JUMPDEST SWAP1 POP DUP1 PUSH1 0x13 SLOAD LT ISZERO PUSH2 0x21B1 JUMPI PUSH1 0x40 MLOAD PUSH3 0x461BCD PUSH1 0xE5 SHL DUP2 MSTORE PUSH1 0x4 ADD PUSH2 0x967 SWAP1 PUSH2 0x4A73 JUMP JUMPDEST PUSH0 DUP2 DUP5 PUSH1 0x2 ADD SLOAD PUSH2 0x21C2 SWAP2 SWAP1 PUSH2 0x4A3D JUMP JUMPDEST SWAP1 POP DUP4 PUSH1 0x2 ADD SLOAD PUSH1 0x11 PUSH0 DUP3 DUP3 SLOAD PUSH2 0x21D9 SWAP2 SWAP1 PUSH2 0x4A16 JUMP JUMPDEST SWAP1 SWAP2 SSTORE POP POP PUSH1 0x9 DUP5 ADD DUP1 SLOAD PUSH1 0xFF NOT AND SWAP1 SSTORE TIMESTAMP PUSH1 0x5 DUP6 ADD SSTORE PUSH1 0x7 DUP5 ADD SLOAD PUSH0 SWAP1 PUSH2 0x2201 SWAP1 DUP3 PUSH2 0x4044 JUMP JUMPDEST PUSH1 0x7 DUP7 ADD DUP2 SWAP1 SSTORE PUSH1 0xA DUP6 SWAP1 SSTORE PUSH1 0x10 DUP1 SLOAD SWAP2 SWAP3 POP PUSH0 PUSH2 0x221E DUP4 PUSH2 0x4BE5 JUMP JUMPDEST SWAP2 SWAP1 POP SSTORE POP DUP3 PUSH1 0x13 PUSH0 DUP3 DUP3 SLOAD PUSH2 0x2234 SWAP2 SWAP1 PUSH2 0x4A16 JUMP JUMPDEST SWAP3 POP POP DUP2 SWAP1 SSTORE POP DUP3 PUSH1 0x12 PUSH0 DUP3 DUP3 SLOAD PUSH2 0x224C SWAP2 SWAP1 PUSH2 0x4A3D JUMP JUMPDEST SWAP1 SWAP2 SSTORE POP POP PUSH0 DUP7 DUP2 MSTORE PUSH1 0xC PUSH1 0x20 MSTORE PUSH1 0x40 DUP2 KECCAK256 DUP1 SLOAD DUP6 SWAP3 SWAP1 PUSH2 0x226E SWAP1 DUP5 SWAP1 PUSH2 0x4A3D JUMP JUMPDEST SWAP1 SWAP2 SSTORE POP PUSH2 0x227D SWAP1 POP DUP7 PUSH2 0x40D0 JUMP JUMPDEST PUSH0 DUP5 DUP2 MSTORE PUSH1 0x17 PUSH1 0x20 MSTORE PUSH1 0x40 DUP2 KECCAK256 DUP1 SLOAD DUP6 SWAP3 SWAP1 PUSH2 0x229A SWAP1 DUP5 SWAP1 PUSH2 0x4A3D JUMP JUMPDEST SWAP1 SWAP2 SSTORE POP POP PUSH1 0x40 MLOAD PUSH4 0xA9059CBB PUSH1 0xE0 SHL DUP2 MSTORE CALLER PUSH1 0x4 DUP3 ADD MSTORE PUSH1 0x24 DUP2 ADD DUP4 SWAP1 MSTORE PUSH32 0x0 PUSH1 0x1 PUSH1 0x1 PUSH1 0xA0 SHL SUB AND SWAP1 PUSH4 0xA9059CBB SWAP1 PUSH1 0x44 ADD PUSH1 0x20 PUSH1 0x40 MLOAD DUP1 DUP4 SUB DUP2 PUSH0 DUP8 GAS CALL ISZERO DUP1 ISZERO PUSH2 0x2309 JUMPI RETURNDATASIZE PUSH0 PUSH0 RETURNDATACOPY RETURNDATASIZE PUSH0 REVERT JUMPDEST POP POP POP POP PUSH1 0x40 MLOAD RETURNDATASIZE PUSH1 0x1F NOT PUSH1 0x1F DUP3 ADD AND DUP3 ADD DUP1 PUSH1 0x40 MSTORE POP DUP2 ADD SWAP1 PUSH2 0x232D SWAP2 SWAP1 PUSH2 0x4A97 JUMP JUMPDEST PUSH2 0x2349 JUMPI PUSH1 0x40 MLOAD PUSH3 0x461BCD PUSH1 0xE5 SHL DUP2 MSTORE PUSH1 0x4 ADD PUSH2 0x967 SWAP1 PUSH2 0x4AB2 JUMP JUMPDEST PUSH1 0x40 DUP1 MLOAD DUP8 DUP2 MSTORE PUSH1 0x20 DUP2 ADD DUP5 SWAP1 MSTORE CALLER SWAP2 PUSH32 0x217EA3989B9D3112D2133A930216F444B7FBCAEAA4D5BC0220D099FDC928E71E SWAP2 ADD PUSH1 0x40 MLOAD DUP1 SWAP2 SUB SWAP1 LOG2 POP POP POP POP POP PUSH2 0x1169 PUSH1 0x1 PUSH0 SSTORE JUMP JUMPDEST PUSH2 0x239A PUSH2 0x38EA JUMP JUMPDEST PUSH0 PUSH1 0xB DUP3 DUP2 SLOAD DUP2 LT PUSH2 0x23AE JUMPI PUSH2 0x23AE PUSH2 0x4A29 JUMP JUMPDEST PUSH0 SWAP2 DUP3 MSTORE PUSH1 0x20 SWAP1 SWAP2 KECCAK256 PUSH1 0xD SWAP1 SWAP2 MUL ADD PUSH1 0x9 DUP2 ADD SLOAD SWAP1 SWAP2 POP PUSH1 0xFF AND PUSH2 0x23E4 JUMPI PUSH1 0x40 MLOAD PUSH3 0x461BCD PUSH1 0xE5 SHL DUP2 MSTORE PUSH1 0x4 ADD PUSH2 0x967 SWAP1 PUSH2 0x4BC3 JUMP JUMPDEST PUSH1 0x1 DUP2 ADD SLOAD PUSH1 0x1 PUSH1 0x1 PUSH1 0xA0 SHL SUB AND CALLER EQ PUSH2 0x2410 JUMPI PUSH1 0x40 MLOAD PUSH3 0x461BCD PUSH1 0xE5 SHL DUP2 MSTORE PUSH1 0x4 ADD PUSH2 0x967 SWAP1 PUSH2 0x4A50 JUMP JUMPDEST PUSH0 PUSH2 0x2419 PUSH2 0x2CAF JUMP JUMPDEST SWAP1 POP DUP2 PUSH1 0x6 ADD SLOAD DUP2 LT ISZERO PUSH2 0x2458 JUMPI PUSH1 0x40 MLOAD PUSH3 0x461BCD PUSH1 0xE5 SHL DUP2 MSTORE PUSH1 0x20 PUSH1 0x4 DUP3 ADD MSTORE PUSH1 0x6 PUSH1 0x24 DUP3 ADD MSTORE PUSH6 0x131BD8DAD959 PUSH1 0xD2 SHL PUSH1 0x44 DUP3 ADD MSTORE PUSH1 0x64 ADD PUSH2 0x967 JUMP JUMPDEST PUSH0 PUSH2 0x2462 DUP5 PUSH2 0x11F6 JUMP JUMPDEST SWAP1 POP DUP3 PUSH1 0x2 ADD SLOAD PUSH1 0x11 PUSH0 DUP3 DUP3 SLOAD PUSH2 0x2479 SWAP2 SWAP1 PUSH2 0x4A16 JUMP JUMPDEST SWAP1 SWAP2 SSTORE POP POP PUSH1 0x9 DUP4 ADD DUP1 SLOAD PUSH2 0xFFFF NOT AND PUSH2 0x100 OR SWAP1 SSTORE PUSH1 0xA DUP1 DUP5 ADD DUP3 SWAP1 SSTORE TIMESTAMP PUSH1 0x5 DUP6 ADD SSTORE DUP3 SWAP1 SSTORE PUSH1 0x10 DUP1 SLOAD SWAP1 PUSH0 PUSH2 0x24AF DUP4 PUSH2 0x4BE5 JUMP JUMPDEST SWAP2 SWAP1 POP SSTORE POP PUSH2 0x24BD DUP5 PUSH2 0x40D0 JUMP JUMPDEST PUSH0 DUP3 DUP2 MSTORE PUSH1 0x17 PUSH1 0x20 MSTORE PUSH1 0x40 DUP2 KECCAK256 DUP1 SLOAD DUP4 SWAP3 SWAP1 PUSH2 0x24DA SWAP1 DUP5 SWAP1 PUSH2 0x4A3D JUMP JUMPDEST SWAP3 POP POP DUP2 SWAP1 SSTORE POP DUP1 PUSH1 0x12 PUSH0 DUP3 DUP3 SLOAD PUSH2 0x24F2 SWAP2 SWAP1 PUSH2 0x4A3D JUMP JUMPDEST SWAP1 SWAP2 SSTORE POP POP PUSH1 0x1 DUP4 ADD SLOAD PUSH1 0x2 DUP5 ADD SLOAD PUSH1 0x40 MLOAD PUSH4 0xA9059CBB PUSH1 0xE0 SHL DUP2 MSTORE PUSH1 0x1 PUSH1 0x1 PUSH1 0xA0 SHL SUB SWAP3 DUP4 AND PUSH1 0x4 DUP3 ADD MSTORE PUSH1 0x24 DUP2 ADD SWAP2 SWAP1 SWAP2 MSTORE PUSH32 0x0 SWAP1 SWAP2 AND SWAP1 PUSH4 0xA9059CBB SWAP1 PUSH1 0x44 ADD PUSH1 0x20 PUSH1 0x40 MLOAD DUP1 DUP4 SUB DUP2 PUSH0 DUP8 GAS CALL ISZERO DUP1 ISZERO PUSH2 0x2570 JUMPI RETURNDATASIZE PUSH0 PUSH0 RETURNDATACOPY RETURNDATASIZE PUSH0 REVERT JUMPDEST POP POP POP POP PUSH1 0x40 MLOAD RETURNDATASIZE PUSH1 0x1F NOT PUSH1 0x1F DUP3 ADD AND DUP3 ADD DUP1 PUSH1 0x40 MSTORE POP DUP2 ADD SWAP1 PUSH2 0x2594 SWAP2 SWAP1 PUSH2 0x4A97 JUMP JUMPDEST PUSH2 0x25B0 JUMPI PUSH1 0x40 MLOAD PUSH3 0x461BCD PUSH1 0xE5 SHL DUP2 MSTORE PUSH1 0x4 ADD PUSH2 0x967 SWAP1 PUSH2 0x4AB2 JUMP JUMPDEST PUSH1 0x1 DUP4 ADD SLOAD DUP4 SLOAD PUSH1 0x2 DUP6 ADD SLOAD PUSH1 0x40 DUP1 MLOAD SWAP3 DUP4 MSTORE PUSH1 0x20 DUP4 ADD SWAP2 SWAP1 SWAP2 MSTORE DUP2 ADD DUP4 SWAP1 MSTORE PUSH1 0x1 PUSH1 0x1 PUSH1 0xA0 SHL SUB SWAP1 SWAP2 AND SWAP1 PUSH32 0x2BB9E1005BD12ABFF0A36B08286208299F11BAC0718C4590FD6F4EABD7667CF9 SWAP1 PUSH1 0x60 ADD JUMPDEST PUSH1 0x40 MLOAD DUP1 SWAP2 SUB SWAP1 LOG2 POP POP POP PUSH2 0x1169 PUSH1 0x1 PUSH0 SSTORE JUMP JUMPDEST PUSH0 DUP5 ISZERO DUP1 PUSH2 0x2622 JUMPI POP DUP3 ISZERO JUMPDEST DUP1 PUSH2 0x262F JUMPI POP PUSH1 0x14 SLOAD DUP5 LT ISZERO JUMPDEST ISZERO PUSH2 0x263B JUMPI POP PUSH0 PUSH2 0x27A7 JUMP JUMPDEST PUSH0 PUSH2 0x2646 DUP5 DUP7 PUSH2 0x4A3D JUMP JUMPDEST PUSH1 0x14 SLOAD SWAP1 SWAP2 POP DUP2 GT ISZERO PUSH2 0x2667 JUMPI POP PUSH1 0x14 SLOAD DUP5 DUP2 GT PUSH2 0x2667 JUMPI PUSH0 SWAP2 POP POP PUSH2 0x27A7 JUMP JUMPDEST DUP3 PUSH0 SUB PUSH2 0x2672 JUMPI TIMESTAMP SWAP3 POP JUMPDEST DUP1 PUSH0 DUP7 JUMPDEST DUP3 DUP2 LT ISZERO PUSH2 0x27A1 JUMPI PUSH1 0x14 SLOAD DUP2 LT ISZERO PUSH2 0x27A1 JUMPI PUSH0 PUSH1 0x14 DUP3 DUP2 SLOAD DUP2 LT PUSH2 0x269C JUMPI PUSH2 0x269C PUSH2 0x4A29 JUMP JUMPDEST SWAP1 PUSH0 MSTORE PUSH1 0x20 PUSH0 KECCAK256 SWAP1 PUSH1 0x3 MUL ADD PUSH1 0x40 MLOAD DUP1 PUSH1 0x60 ADD PUSH1 0x40 MSTORE SWAP1 DUP2 PUSH0 DUP3 ADD SLOAD DUP2 MSTORE PUSH1 0x20 ADD PUSH1 0x1 DUP3 ADD SLOAD DUP2 MSTORE PUSH1 0x20 ADD PUSH1 0x2 DUP3 ADD SLOAD DUP2 MSTORE POP POP SWAP1 POP PUSH0 PUSH2 0x26DC DUP4 PUSH2 0x4092 JUMP JUMPDEST SWAP1 POP PUSH0 PUSH2 0x2710 PUSH2 0x26EC DUP4 DUP15 PUSH2 0x4ADB JUMP JUMPDEST PUSH2 0x26F6 SWAP2 SWAP1 PUSH2 0x4AF2 JUMP JUMPDEST SWAP1 POP DUP11 DUP5 SUB PUSH2 0x2788 JUMPI DUP3 MLOAD PUSH1 0x20 DUP5 ADD MLOAD PUSH0 PUSH2 0x2711 DUP4 DUP4 PUSH2 0x4A16 JUMP JUMPDEST SWAP1 POP PUSH0 DUP4 DUP14 GT PUSH2 0x2721 JUMPI DUP4 PUSH2 0x2723 JUMP JUMPDEST DUP13 JUMPDEST SWAP1 POP DUP3 DUP1 DUP3 LT PUSH2 0x273A JUMPI POP POP POP POP POP POP POP POP PUSH2 0x2799 JUMP JUMPDEST PUSH0 PUSH2 0x2745 DUP4 DUP4 PUSH2 0x4A16 JUMP JUMPDEST SWAP1 POP DUP4 PUSH0 SUB PUSH2 0x275C JUMPI POP POP POP POP POP POP POP POP POP PUSH2 0x2799 JUMP JUMPDEST DUP4 PUSH2 0x2767 DUP3 DUP10 PUSH2 0x4ADB JUMP JUMPDEST PUSH2 0x2771 SWAP2 SWAP1 PUSH2 0x4AF2 JUMP JUMPDEST PUSH2 0x277B SWAP1 DUP13 PUSH2 0x4A3D JUMP JUMPDEST SWAP11 POP POP POP POP POP POP POP PUSH2 0x2795 JUMP JUMPDEST PUSH2 0x2792 DUP2 DUP7 PUSH2 0x4A3D JUMP JUMPDEST SWAP5 POP JUMPDEST POP POP POP JUMPDEST PUSH1 0x1 ADD PUSH2 0x2676 JUMP JUMPDEST POP SWAP3 POP POP POP JUMPDEST SWAP5 SWAP4 POP POP POP POP JUMP JUMPDEST PUSH2 0x27B7 PUSH2 0x38EA JUMP JUMPDEST PUSH1 0x1 SLOAD PUSH1 0x1 PUSH1 0x1 PUSH1 0xA0 SHL SUB AND CALLER EQ PUSH2 0x27E1 JUMPI PUSH1 0x40 MLOAD PUSH3 0x461BCD PUSH1 0xE5 SHL DUP2 MSTORE PUSH1 0x4 ADD PUSH2 0x967 SWAP1 PUSH2 0x49B9 JUMP JUMPDEST PUSH0 PUSH1 0xB DUP3 DUP2 SLOAD DUP2 LT PUSH2 0x27F5 JUMPI PUSH2 0x27F5 PUSH2 0x4A29 JUMP JUMPDEST PUSH0 SWAP2 DUP3 MSTORE PUSH1 0x20 SWAP1 SWAP2 KECCAK256 PUSH1 0xD SWAP1 SWAP2 MUL ADD PUSH1 0x9 DUP2 ADD SLOAD SWAP1 SWAP2 POP PUSH1 0xFF AND PUSH2 0x284E JUMPI PUSH1 0x40 MLOAD PUSH3 0x461BCD PUSH1 0xE5 SHL DUP2 MSTORE PUSH1 0x20 PUSH1 0x4 DUP3 ADD MSTORE PUSH1 0x10 PUSH1 0x24 DUP3 ADD MSTORE PUSH16 0x4465706F73697420696E616374697665 PUSH1 0x80 SHL PUSH1 0x44 DUP3 ADD MSTORE PUSH1 0x64 ADD PUSH2 0x967 JUMP JUMPDEST DUP1 SLOAD PUSH0 SWAP1 DUP2 MSTORE PUSH1 0xD PUSH1 0x20 MSTORE PUSH1 0x40 SWAP1 KECCAK256 SLOAD PUSH1 0xFF AND PUSH2 0x28AD JUMPI PUSH1 0x40 MLOAD PUSH3 0x461BCD PUSH1 0xE5 SHL DUP2 MSTORE PUSH1 0x20 PUSH1 0x4 DUP3 ADD MSTORE PUSH1 0x1F PUSH1 0x24 DUP3 ADD MSTORE PUSH32 0x43616E206F6E6C792063616E63656C206F7261636C65206465706F7369747300 PUSH1 0x44 DUP3 ADD MSTORE PUSH1 0x64 ADD PUSH2 0x967 JUMP JUMPDEST PUSH1 0x9 DUP2 ADD DUP1 SLOAD PUSH1 0xFF NOT AND SWAP1 SSTORE PUSH1 0x10 DUP1 SLOAD SWAP1 PUSH0 PUSH2 0x28C8 DUP4 PUSH2 0x4BE5 JUMP JUMPDEST SWAP2 SWAP1 POP SSTORE POP DUP1 PUSH1 0x2 ADD SLOAD PUSH1 0x11 PUSH0 DUP3 DUP3 SLOAD PUSH2 0x28E2 SWAP2 SWAP1 PUSH2 0x4A16 JUMP JUMPDEST SWAP1 SWAP2 SSTORE POP POP PUSH1 0x2 DUP2 ADD SLOAD PUSH1 0x40 MLOAD PUSH4 0xA9059CBB PUSH1 0xE0 SHL DUP2 MSTORE CALLER PUSH1 0x4 DUP3 ADD MSTORE PUSH1 0x24 DUP2 ADD SWAP2 SWAP1 SWAP2 MSTORE PUSH32 0x0 PUSH1 0x1 PUSH1 0x1 PUSH1 0xA0 SHL SUB AND SWAP1 PUSH4 0xA9059CBB SWAP1 PUSH1 0x44 ADD PUSH1 0x20 PUSH1 0x40 MLOAD DUP1 DUP4 SUB DUP2 PUSH0 DUP8 GAS CALL ISZERO DUP1 ISZERO PUSH2 0x2957 JUMPI RETURNDATASIZE PUSH0 PUSH0 RETURNDATACOPY RETURNDATASIZE PUSH0 REVERT JUMPDEST POP POP POP POP PUSH1 0x40 MLOAD RETURNDATASIZE PUSH1 0x1F NOT PUSH1 0x1F DUP3 ADD AND DUP3 ADD DUP1 PUSH1 0x40 MSTORE POP DUP2 ADD SWAP1 PUSH2 0x297B SWAP2 SWAP1 PUSH2 0x4A97 JUMP JUMPDEST PUSH2 0x2997 JUMPI PUSH1 0x40 MLOAD PUSH3 0x461BCD PUSH1 0xE5 SHL DUP2 MSTORE PUSH1 0x4 ADD PUSH2 0x967 SWAP1 PUSH2 0x4AB2 JUMP JUMPDEST DUP1 SLOAD PUSH1 0x2 DUP3 ADD SLOAD PUSH1 0x40 MLOAD CALLER SWAP3 PUSH32 0x24C9E122007BD4087408943168FBCD65248594530E482B6A9ABE4484767EB0C3 SWAP3 PUSH2 0x29D7 SWAP3 SWAP2 DUP3 MSTORE PUSH1 0x20 DUP3 ADD MSTORE PUSH1 0x40 ADD SWAP1 JUMP JUMPDEST PUSH1 0x40 MLOAD DUP1 SWAP2 SUB SWAP1 LOG2 POP PUSH2 0x1169 PUSH1 0x1 PUSH0 SSTORE JUMP JUMPDEST PUSH1 0x1 SLOAD PUSH1 0x1 PUSH1 0x1 PUSH1 0xA0 SHL SUB AND CALLER EQ PUSH2 0x2A13 JUMPI PUSH1 0x40 MLOAD PUSH3 0x461BCD PUSH1 0xE5 SHL DUP2 MSTORE PUSH1 0x4 ADD PUSH2 0x967 SWAP1 PUSH2 0x49B9 JUMP JUMPDEST PUSH1 0x2 DUP1 SLOAD PUSH1 0x1 PUSH1 0x1 PUSH1 0xA0 SHL SUB NOT AND PUSH1 0x1 PUSH1 0x1 PUSH1 0xA0 SHL SUB SWAP3 SWAP1 SWAP3 AND SWAP2 SWAP1 SWAP2 OR SWAP1 SSTORE JUMP JUMPDEST PUSH0 PUSH0 PUSH1 0x4 SLOAD SWAP1 POP PUSH2 0x2710 DUP2 PUSH1 0x11 SLOAD PUSH2 0x2A4D SWAP2 SWAP1 PUSH2 0x4ADB JUMP JUMPDEST PUSH2 0x2A57 SWAP2 SWAP1 PUSH2 0x4AF2 JUMP JUMPDEST SWAP2 POP POP SWAP1 JUMP JUMPDEST PUSH1 0xE DUP2 DUP2 SLOAD DUP2 LT PUSH2 0x2A6C JUMPI PUSH0 DUP1 REVERT JUMPDEST PUSH0 SWAP2 DUP3 MSTORE PUSH1 0x20 SWAP1 SWAP2 KECCAK256 ADD SLOAD SWAP1 POP DUP2 JUMP JUMPDEST PUSH1 0x1 SLOAD PUSH1 0x1 PUSH1 0x1 PUSH1 0xA0 SHL SUB AND CALLER EQ DUP1 PUSH2 0x2A9F JUMPI POP PUSH1 0x3 SLOAD PUSH1 0x1 PUSH1 0x1 PUSH1 0xA0 SHL SUB AND CALLER EQ JUMPDEST PUSH2 0x2AEB JUMPI PUSH1 0x40 MLOAD PUSH3 0x461BCD PUSH1 0xE5 SHL DUP2 MSTORE PUSH1 0x20 PUSH1 0x4 DUP3 ADD MSTORE PUSH1 0x19 PUSH1 0x24 DUP3 ADD MSTORE PUSH32 0x4F6E6C79206F776E6572206F72207374616B65206F72636C6500000000000000 PUSH1 0x44 DUP3 ADD MSTORE PUSH1 0x64 ADD PUSH2 0x967 JUMP JUMPDEST PUSH1 0x40 MLOAD PUSH4 0x23B872DD PUSH1 0xE0 SHL DUP2 MSTORE CALLER PUSH1 0x4 DUP3 ADD MSTORE ADDRESS PUSH1 0x24 DUP3 ADD MSTORE PUSH1 0x44 DUP2 ADD DUP3 SWAP1 MSTORE PUSH32 0x0 PUSH1 0x1 PUSH1 0x1 PUSH1 0xA0 SHL SUB AND SWAP1 PUSH4 0x23B872DD SWAP1 PUSH1 0x64 ADD PUSH1 0x20 PUSH1 0x40 MLOAD DUP1 DUP4 SUB DUP2 PUSH0 DUP8 GAS CALL ISZERO DUP1 ISZERO PUSH2 0x2B5B JUMPI RETURNDATASIZE PUSH0 PUSH0 RETURNDATACOPY RETURNDATASIZE PUSH0 REVERT JUMPDEST POP POP POP POP PUSH1 0x40 MLOAD RETURNDATASIZE PUSH1 0x1F NOT PUSH1 0x1F DUP3 ADD AND DUP3 ADD DUP1 PUSH1 0x40 MSTORE POP DUP2 ADD SWAP1 PUSH2 0x2B7F SWAP2 SWAP1 PUSH2 0x4A97 JUMP JUMPDEST PUSH2 0x2B9B JUMPI PUSH1 0x40 MLOAD PUSH3 0x461BCD PUSH1 0xE5 SHL DUP2 MSTORE PUSH1 0x4 ADD PUSH2 0x967 SWAP1 PUSH2 0x4BFA JUMP JUMPDEST DUP1 PUSH1 0x13 PUSH0 DUP3 DUP3 SLOAD PUSH2 0x2BAC SWAP2 SWAP1 PUSH2 0x4A3D JUMP JUMPDEST SWAP1 SWAP2 SSTORE POP POP POP JUMP JUMPDEST PUSH1 0x1 SLOAD PUSH1 0x1 PUSH1 0x1 PUSH1 0xA0 SHL SUB AND CALLER EQ PUSH2 0x2BDE JUMPI PUSH1 0x40 MLOAD PUSH3 0x461BCD PUSH1 0xE5 SHL DUP2 MSTORE PUSH1 0x4 ADD PUSH2 0x967 SWAP1 PUSH2 0x49B9 JUMP JUMPDEST PUSH1 0x3 DUP1 SLOAD PUSH1 0x1 PUSH1 0x1 PUSH1 0xA0 SHL SUB NOT AND PUSH1 0x1 PUSH1 0x1 PUSH1 0xA0 SHL SUB SWAP3 SWAP1 SWAP3 AND SWAP2 SWAP1 SWAP2 OR SWAP1 SSTORE JUMP JUMPDEST PUSH1 0x1 SLOAD PUSH1 0x1 PUSH1 0x1 PUSH1 0xA0 SHL SUB AND CALLER EQ PUSH2 0x2C2A JUMPI PUSH1 0x40 MLOAD PUSH3 0x461BCD PUSH1 0xE5 SHL DUP2 MSTORE PUSH1 0x4 ADD PUSH2 0x967 SWAP1 PUSH2 0x49B9 JUMP JUMPDEST PUSH2 0x2710 DUP2 GT ISZERO PUSH2 0x2C4C JUMPI PUSH1 0x40 MLOAD PUSH3 0x461BCD PUSH1 0xE5 SHL DUP2 MSTORE PUSH1 0x4 ADD PUSH2 0x967 SWAP1 PUSH2 0x49DD JUMP JUMPDEST PUSH1 0x4 DUP2 SWAP1 SSTORE PUSH1 0x40 MLOAD DUP2 DUP2 MSTORE PUSH32 0x71CA8C1A2BC00717637FB3E9D048DA574B351106CFCF0832E2DFE20F4E633DCF SWAP1 PUSH1 0x20 ADD PUSH1 0x40 MLOAD DUP1 SWAP2 SUB SWAP1 LOG1 POP JUMP JUMPDEST PUSH1 0x7 DUP2 DUP2 SLOAD DUP2 LT PUSH2 0x2C96 JUMPI PUSH0 DUP1 REVERT JUMPDEST PUSH0 SWAP2 DUP3 MSTORE PUSH1 0x20 SWAP1 SWAP2 KECCAK256 ADD SLOAD PUSH1 0x1 PUSH1 0x1 PUSH1 0xA0 SHL SUB AND SWAP1 POP DUP2 JUMP JUMPDEST PUSH1 0xA SLOAD PUSH0 SWAP1 TIMESTAMP SWAP1 JUMPDEST PUSH1 0x14 SLOAD DUP2 LT ISZERO PUSH2 0x2D26 JUMPI PUSH1 0x14 DUP2 DUP2 SLOAD DUP2 LT PUSH2 0x2CD4 JUMPI PUSH2 0x2CD4 PUSH2 0x4A29 JUMP JUMPDEST SWAP1 PUSH0 MSTORE PUSH1 0x20 PUSH0 KECCAK256 SWAP1 PUSH1 0x3 MUL ADD PUSH0 ADD SLOAD DUP3 LT ISZERO DUP1 ISZERO PUSH2 0x2D13 JUMPI POP PUSH1 0x14 DUP2 DUP2 SLOAD DUP2 LT PUSH2 0x2D00 JUMPI PUSH2 0x2D00 PUSH2 0x4A29 JUMP JUMPDEST SWAP1 PUSH0 MSTORE PUSH1 0x20 PUSH0 KECCAK256 SWAP1 PUSH1 0x3 MUL ADD PUSH1 0x1 ADD SLOAD DUP3 LT JUMPDEST ISZERO PUSH2 0x2D1E JUMPI SWAP3 SWAP2 POP POP JUMP JUMPDEST PUSH1 0x1 ADD PUSH2 0x2CB7 JUMP JUMPDEST POP POP PUSH1 0x14 SLOAD SWAP2 SWAP1 POP JUMP JUMPDEST PUSH1 0x1 SLOAD PUSH1 0x1 PUSH1 0x1 PUSH1 0xA0 SHL SUB AND CALLER EQ PUSH2 0x2D5A JUMPI PUSH1 0x40 MLOAD PUSH3 0x461BCD PUSH1 0xE5 SHL DUP2 MSTORE PUSH1 0x4 ADD PUSH2 0x967 SWAP1 PUSH2 0x49B9 JUMP JUMPDEST PUSH1 0x14 SLOAD PUSH2 0x2D92 JUMPI PUSH1 0x40 MLOAD PUSH3 0x461BCD PUSH1 0xE5 SHL DUP2 MSTORE PUSH1 0x4 ADD PUSH2 0x967 SWAP1 PUSH1 0x20 DUP1 DUP3 MSTORE PUSH1 0x4 SWAP1 DUP3 ADD MSTORE PUSH4 0x4E6F6E65 PUSH1 0xE0 SHL PUSH1 0x40 DUP3 ADD MSTORE PUSH1 0x60 ADD SWAP1 JUMP JUMPDEST PUSH1 0x14 DUP1 SLOAD TIMESTAMP SWAP2 SWAP1 PUSH2 0x2DA5 SWAP1 PUSH1 0x1 SWAP1 PUSH2 0x4A16 JUMP JUMPDEST DUP2 SLOAD DUP2 LT PUSH2 0x2DB5 JUMPI PUSH2 0x2DB5 PUSH2 0x4A29 JUMP JUMPDEST SWAP1 PUSH0 MSTORE PUSH1 0x20 PUSH0 KECCAK256 SWAP1 PUSH1 0x3 MUL ADD PUSH0 ADD SLOAD GT PUSH2 0x2DFB JUMPI PUSH1 0x40 MLOAD PUSH3 0x461BCD PUSH1 0xE5 SHL DUP2 MSTORE PUSH1 0x20 PUSH1 0x4 DUP3 ADD MSTORE PUSH1 0x7 PUSH1 0x24 DUP3 ADD MSTORE PUSH7 0x14DD185C9D1959 PUSH1 0xCA SHL PUSH1 0x44 DUP3 ADD MSTORE PUSH1 0x64 ADD PUSH2 0x967 JUMP JUMPDEST PUSH1 0x14 DUP1 SLOAD DUP1 PUSH2 0x2E0C JUMPI PUSH2 0x2E0C PUSH2 0x4C16 JUMP JUMPDEST PUSH0 DUP3 DUP2 MSTORE PUSH1 0x20 DUP2 KECCAK256 PUSH1 0x3 PUSH0 NOT SWAP1 SWAP4 ADD SWAP3 DUP4 MUL ADD DUP2 DUP2 SSTORE PUSH1 0x1 DUP2 ADD DUP3 SWAP1 SSTORE PUSH1 0x2 ADD SSTORE SWAP1 SSTORE PUSH1 0x14 SLOAD PUSH1 0x40 MLOAD PUSH32 0xD84BA012185E6B11C267BBF53304405446699FDED2A2A85C6C6523D2CD3FD790 SWAP2 PUSH2 0x2E64 SWAP2 SWAP1 DUP2 MSTORE PUSH1 0x20 ADD SWAP1 JUMP JUMPDEST PUSH1 0x40 MLOAD DUP1 SWAP2 SUB SWAP1 LOG1 JUMP JUMPDEST PUSH1 0xB DUP2 DUP2 SLOAD DUP2 LT PUSH2 0x2E7D JUMPI PUSH0 DUP1 REVERT JUMPDEST PUSH0 SWAP2 DUP3 MSTORE PUSH1 0x20 SWAP1 SWAP2 KECCAK256 PUSH1 0xD SWAP1 SWAP2 MUL ADD DUP1 SLOAD PUSH1 0x1 DUP3 ADD SLOAD PUSH1 0x2 DUP4 ADD SLOAD PUSH1 0x3 DUP5 ADD SLOAD PUSH1 0x4 DUP6 ADD SLOAD PUSH1 0x5 DUP7 ADD SLOAD PUSH1 0x6 DUP8 ADD SLOAD PUSH1 0x7 DUP9 ADD SLOAD PUSH1 0x8 DUP10 ADD SLOAD PUSH1 0x9 DUP11 ADD SLOAD PUSH1 0xA DUP12 ADD SLOAD PUSH1 0xB DUP13 ADD SLOAD PUSH1 0xC SWAP1 SWAP13 ADD SLOAD SWAP11 SWAP13 POP PUSH1 0x1 PUSH1 0x1 PUSH1 0xA0 SHL SUB SWAP1 SWAP10 AND SWAP11 SWAP8 SWAP10 SWAP7 SWAP9 SWAP6 SWAP8 SWAP5 SWAP7 SWAP4 SWAP6 SWAP3 SWAP5 SWAP2 SWAP4 PUSH1 0xFF DUP1 DUP4 AND SWAP5 PUSH2 0x100 SWAP1 SWAP4 DIV DUP2 AND SWAP4 AND SWAP1 DUP15 JUMP JUMPDEST PUSH2 0x2F04 PUSH2 0x38EA JUMP JUMPDEST PUSH2 0x2F12 CALLER DUP4 DUP4 PUSH0 PUSH0 PUSH0 PUSH2 0x3912 JUMP JUMPDEST PUSH2 0x2F1B PUSH1 0x1 PUSH0 SSTORE JUMP JUMPDEST POP POP JUMP JUMPDEST PUSH1 0x1 SLOAD PUSH1 0x1 PUSH1 0x1 PUSH1 0xA0 SHL SUB AND CALLER EQ PUSH2 0x2F49 JUMPI PUSH1 0x40 MLOAD PUSH3 0x461BCD PUSH1 0xE5 SHL DUP2 MSTORE PUSH1 0x4 ADD PUSH2 0x967 SWAP1 PUSH2 0x49B9 JUMP JUMPDEST PUSH32 0x0 PUSH1 0x1 PUSH1 0x1 PUSH1 0xA0 SHL SUB AND DUP3 PUSH1 0x1 PUSH1 0x1 PUSH1 0xA0 SHL SUB AND SUB PUSH2 0x2F9A JUMPI PUSH1 0x40 MLOAD PUSH3 0x461BCD PUSH1 0xE5 SHL DUP2 MSTORE PUSH1 0x4 ADD PUSH2 0x967 SWAP1 PUSH2 0x4BFA JUMP JUMPDEST PUSH1 0x1 SLOAD PUSH1 0x40 MLOAD PUSH4 0xA9059CBB PUSH1 0xE0 SHL DUP2 MSTORE PUSH1 0x1 PUSH1 0x1 PUSH1 0xA0 SHL SUB SWAP2 DUP3 AND PUSH1 0x4 DUP3 ADD MSTORE PUSH1 0x24 DUP2 ADD DUP4 SWAP1 MSTORE SWAP1 DUP4 AND SWAP1 PUSH4 0xA9059CBB SWAP1 PUSH1 0x44 ADD PUSH1 0x20 PUSH1 0x40 MLOAD DUP1 DUP4 SUB DUP2 PUSH0 DUP8 GAS CALL ISZERO DUP1 ISZERO PUSH2 0x2FEA JUMPI RETURNDATASIZE PUSH0 PUSH0 RETURNDATACOPY RETURNDATASIZE PUSH0 REVERT JUMPDEST POP POP POP POP PUSH1 0x40 MLOAD RETURNDATASIZE PUSH1 0x1F NOT PUSH1 0x1F DUP3 ADD AND DUP3 ADD DUP1 PUSH1 0x40 MSTORE POP DUP2 ADD SWAP1 PUSH2 0x300E SWAP2 SWAP1 PUSH2 0x4A97 JUMP JUMPDEST PUSH2 0x2F1B JUMPI PUSH1 0x40 MLOAD PUSH3 0x461BCD PUSH1 0xE5 SHL DUP2 MSTORE PUSH1 0x20 PUSH1 0x4 DUP3 ADD MSTORE PUSH1 0x2 PUSH1 0x24 DUP3 ADD MSTORE PUSH2 0x2299 PUSH1 0xF1 SHL PUSH1 0x44 DUP3 ADD MSTORE PUSH1 0x64 ADD PUSH2 0x967 JUMP JUMPDEST PUSH1 0x1 SLOAD PUSH1 0x1 PUSH1 0x1 PUSH1 0xA0 SHL SUB AND CALLER EQ PUSH2 0x3069 JUMPI PUSH1 0x40 MLOAD PUSH3 0x461BCD PUSH1 0xE5 SHL DUP2 MSTORE PUSH1 0x4 ADD PUSH2 0x967 SWAP1 PUSH2 0x49B9 JUMP JUMPDEST DUP1 PUSH1 0x13 SLOAD LT ISZERO PUSH2 0x308B JUMPI PUSH1 0x40 MLOAD PUSH3 0x461BCD PUSH1 0xE5 SHL DUP2 MSTORE PUSH1 0x4 ADD PUSH2 0x967 SWAP1 PUSH2 0x4BFA JUMP JUMPDEST PUSH1 0x40 MLOAD PUSH4 0xA9059CBB PUSH1 0xE0 SHL DUP2 MSTORE CALLER PUSH1 0x4 DUP3 ADD MSTORE PUSH1 0x24 DUP2 ADD DUP3 SWAP1 MSTORE PUSH32 0x0 PUSH1 0x1 PUSH1 0x1 PUSH1 0xA0 SHL SUB AND SWAP1 PUSH4 0xA9059CBB SWAP1 PUSH1 0x44 ADD PUSH1 0x20 PUSH1 0x40 MLOAD DUP1 DUP4 SUB DUP2 PUSH0 DUP8 GAS CALL ISZERO DUP1 ISZERO PUSH2 0x30F5 JUMPI RETURNDATASIZE PUSH0 PUSH0 RETURNDATACOPY RETURNDATASIZE PUSH0 REVERT JUMPDEST POP POP POP POP PUSH1 0x40 MLOAD RETURNDATASIZE PUSH1 0x1F NOT PUSH1 0x1F DUP3 ADD AND DUP3 ADD DUP1 PUSH1 0x40 MSTORE POP DUP2 ADD SWAP1 PUSH2 0x3119 SWAP2 SWAP1 PUSH2 0x4A97 JUMP JUMPDEST PUSH2 0x314A JUMPI PUSH1 0x40 MLOAD PUSH3 0x461BCD PUSH1 0xE5 SHL DUP2 MSTORE PUSH1 0x20 PUSH1 0x4 DUP3 ADD MSTORE PUSH1 0x2 PUSH1 0x24 DUP3 ADD MSTORE PUSH2 0x2299 PUSH1 0xF1 SHL PUSH1 0x44 DUP3 ADD MSTORE PUSH1 0x64 ADD PUSH2 0x967 JUMP JUMPDEST DUP1 PUSH1 0x13 PUSH0 DUP3 DUP3 SLOAD PUSH2 0x2BAC SWAP2 SWAP1 PUSH2 0x4A16 JUMP JUMPDEST PUSH1 0x1 PUSH1 0x1 PUSH1 0xA0 SHL SUB DUP2 AND PUSH0 SWAP1 DUP2 MSTORE PUSH1 0x9 PUSH1 0x20 SWAP1 DUP2 MSTORE PUSH1 0x40 SWAP2 DUP3 SWAP1 KECCAK256 DUP1 SLOAD DUP4 MLOAD DUP2 DUP5 MUL DUP2 ADD DUP5 ADD SWAP1 SWAP5 MSTORE DUP1 DUP5 MSTORE PUSH1 0x60 SWAP4 SWAP3 DUP4 ADD DUP3 DUP3 DUP1 ISZERO PUSH2 0x31B8 JUMPI PUSH1 0x20 MUL DUP3 ADD SWAP2 SWAP1 PUSH0 MSTORE PUSH1 0x20 PUSH0 KECCAK256 SWAP1 JUMPDEST DUP2 SLOAD DUP2 MSTORE PUSH1 0x20 ADD SWAP1 PUSH1 0x1 ADD SWAP1 DUP1 DUP4 GT PUSH2 0x31A4 JUMPI JUMPDEST POP POP POP POP POP SWAP1 POP SWAP2 SWAP1 POP JUMP JUMPDEST PUSH0 PUSH0 PUSH2 0x31CE PUSH2 0x2CAF JUMP JUMPDEST PUSH1 0x14 SLOAD SWAP1 SWAP2 POP DUP2 LT PUSH2 0x31E1 JUMPI PUSH0 SWAP2 POP POP SWAP1 JUMP JUMPDEST PUSH0 PUSH2 0x31EB DUP3 PUSH2 0x4092 JUMP JUMPDEST SWAP1 POP PUSH2 0x2710 DUP2 PUSH1 0x11 SLOAD PUSH2 0x31FE SWAP2 SWAP1 PUSH2 0x4ADB JUMP JUMPDEST PUSH2 0x3208 SWAP2 SWAP1 PUSH2 0x4AF2 JUMP JUMPDEST SWAP3 POP POP POP SWAP1 JUMP JUMPDEST PUSH1 0x60 DUP2 PUSH0 SUB PUSH2 0x321E JUMPI PUSH1 0xB SLOAD SWAP2 POP JUMPDEST PUSH0 PUSH2 0x3229 DUP4 DUP6 PUSH2 0x4A3D JUMP JUMPDEST PUSH1 0xB SLOAD SWAP1 SWAP2 POP DUP5 GT ISZERO PUSH2 0x323C JUMPI POP PUSH2 0x1AE5 JUMP JUMPDEST PUSH1 0xB SLOAD DUP2 GT ISZERO PUSH2 0x324B JUMPI POP PUSH1 0xB SLOAD JUMPDEST PUSH2 0x3255 DUP5 DUP3 PUSH2 0x4A16 JUMP JUMPDEST PUSH1 0x1 PUSH1 0x1 PUSH1 0x40 SHL SUB DUP2 GT ISZERO PUSH2 0x326C JUMPI PUSH2 0x326C PUSH2 0x433E JUMP JUMPDEST PUSH1 0x40 MLOAD SWAP1 DUP1 DUP3 MSTORE DUP1 PUSH1 0x20 MUL PUSH1 0x20 ADD DUP3 ADD PUSH1 0x40 MSTORE DUP1 ISZERO PUSH2 0x32A5 JUMPI DUP2 PUSH1 0x20 ADD JUMPDEST PUSH2 0x3292 PUSH2 0x41EC JUMP JUMPDEST DUP2 MSTORE PUSH1 0x20 ADD SWAP1 PUSH1 0x1 SWAP1 SUB SWAP1 DUP2 PUSH2 0x328A JUMPI SWAP1 POP JUMPDEST POP SWAP2 POP PUSH0 JUMPDEST PUSH2 0x32B4 DUP6 DUP4 PUSH2 0x4A16 JUMP JUMPDEST DUP2 LT ISZERO PUSH2 0x1AE2 JUMPI PUSH1 0xB DUP1 SLOAD PUSH1 0x1 SWAP1 DUP8 SWAP1 PUSH2 0x32CF SWAP1 DUP6 SWAP1 PUSH2 0x4A16 JUMP JUMPDEST PUSH2 0x32D9 SWAP2 SWAP1 PUSH2 0x4A16 JUMP JUMPDEST PUSH2 0x32E3 SWAP2 SWAP1 PUSH2 0x4A16 JUMP JUMPDEST DUP2 SLOAD DUP2 LT PUSH2 0x32F3 JUMPI PUSH2 0x32F3 PUSH2 0x4A29 JUMP JUMPDEST PUSH0 SWAP2 DUP3 MSTORE PUSH1 0x20 SWAP2 DUP3 SWAP1 KECCAK256 PUSH1 0x40 DUP1 MLOAD PUSH2 0x1C0 DUP2 ADD DUP3 MSTORE PUSH1 0xD SWAP1 SWAP4 MUL SWAP1 SWAP2 ADD DUP1 SLOAD DUP4 MSTORE PUSH1 0x1 DUP2 ADD SLOAD PUSH1 0x1 PUSH1 0x1 PUSH1 0xA0 SHL SUB AND SWAP4 DUP4 ADD SWAP4 SWAP1 SWAP4 MSTORE PUSH1 0x2 DUP4 ADD SLOAD SWAP1 DUP3 ADD MSTORE PUSH1 0x3 DUP3 ADD SLOAD PUSH1 0x60 DUP3 ADD MSTORE PUSH1 0x4 DUP3 ADD SLOAD PUSH1 0x80 DUP3 ADD MSTORE PUSH1 0x5 DUP3 ADD SLOAD PUSH1 0xA0 DUP3 ADD MSTORE PUSH1 0x6 DUP3 ADD SLOAD PUSH1 0xC0 DUP3 ADD MSTORE PUSH1 0x7 DUP3 ADD SLOAD PUSH1 0xE0 DUP3 ADD MSTORE PUSH1 0x8 DUP3 ADD SLOAD PUSH2 0x100 DUP1 DUP4 ADD SWAP2 SWAP1 SWAP2 MSTORE PUSH1 0x9 DUP4 ADD SLOAD PUSH1 0xFF DUP1 DUP3 AND ISZERO ISZERO PUSH2 0x120 DUP6 ADD MSTORE SWAP2 SWAP1 DIV DUP2 AND ISZERO ISZERO PUSH2 0x140 DUP4 ADD MSTORE PUSH1 0xA DUP4 ADD SLOAD PUSH2 0x160 DUP4 ADD MSTORE PUSH1 0xB DUP4 ADD SLOAD AND ISZERO ISZERO PUSH2 0x180 DUP3 ADD MSTORE PUSH1 0xC SWAP1 SWAP2 ADD SLOAD PUSH2 0x1A0 DUP3 ADD MSTORE DUP4 MLOAD DUP5 SWAP1 DUP4 SWAP1 DUP2 LT PUSH2 0x33CB JUMPI PUSH2 0x33CB PUSH2 0x4A29 JUMP JUMPDEST PUSH1 0x20 MUL PUSH1 0x20 ADD ADD DUP2 SWAP1 MSTORE POP PUSH2 0x33EB DUP4 DUP3 DUP2 MLOAD DUP2 LT PUSH2 0x1AA8 JUMPI PUSH2 0x1AA8 PUSH2 0x4A29 JUMP JUMPDEST DUP4 DUP3 DUP2 MLOAD DUP2 LT PUSH2 0x33FD JUMPI PUSH2 0x33FD PUSH2 0x4A29 JUMP JUMPDEST PUSH1 0x20 SWAP1 DUP2 MUL SWAP2 SWAP1 SWAP2 ADD ADD MLOAD PUSH2 0x100 ADD MSTORE PUSH1 0x1 ADD PUSH2 0x32AA JUMP JUMPDEST PUSH2 0x341D PUSH2 0x38EA JUMP JUMPDEST PUSH0 PUSH1 0xB DUP3 DUP2 SLOAD DUP2 LT PUSH2 0x3431 JUMPI PUSH2 0x3431 PUSH2 0x4A29 JUMP JUMPDEST PUSH0 SWAP2 DUP3 MSTORE PUSH1 0x20 SWAP1 SWAP2 KECCAK256 PUSH1 0xD SWAP1 SWAP2 MUL ADD PUSH1 0x9 DUP2 ADD SLOAD SWAP1 SWAP2 POP PUSH1 0xFF AND PUSH2 0x3467 JUMPI PUSH1 0x40 MLOAD PUSH3 0x461BCD PUSH1 0xE5 SHL DUP2 MSTORE PUSH1 0x4 ADD PUSH2 0x967 SWAP1 PUSH2 0x4BC3 JUMP JUMPDEST PUSH1 0x1 DUP2 ADD SLOAD PUSH1 0x1 PUSH1 0x1 PUSH1 0xA0 SHL SUB AND CALLER EQ PUSH2 0x3493 JUMPI PUSH1 0x40 MLOAD PUSH3 0x461BCD PUSH1 0xE5 SHL DUP2 MSTORE PUSH1 0x4 ADD PUSH2 0x967 SWAP1 PUSH2 0x4A50 JUMP JUMPDEST PUSH0 PUSH2 0x349D DUP4 PUSH2 0x11F6 JUMP JUMPDEST SWAP1 POP PUSH0 DUP2 GT PUSH2 0x34DB JUMPI PUSH1 0x40 MLOAD PUSH3 0x461BCD PUSH1 0xE5 SHL DUP2 MSTORE PUSH1 0x20 PUSH1 0x4 DUP3 ADD MSTORE PUSH1 0xA PUSH1 0x24 DUP3 ADD MSTORE PUSH10 0x4E6F2072657761726473 PUSH1 0xB0 SHL PUSH1 0x44 DUP3 ADD MSTORE PUSH1 0x64 ADD PUSH2 0x967 JUMP JUMPDEST DUP1 PUSH1 0x13 SLOAD LT ISZERO PUSH2 0x34FD JUMPI PUSH1 0x40 MLOAD PUSH3 0x461BCD PUSH1 0xE5 SHL DUP2 MSTORE PUSH1 0x4 ADD PUSH2 0x967 SWAP1 PUSH2 0x4A73 JUMP JUMPDEST PUSH0 PUSH2 0x350C DUP4 PUSH1 0x7 ADD SLOAD PUSH0 PUSH2 0x4044 JUMP JUMPDEST SWAP1 POP DUP1 DUP4 PUSH1 0x7 ADD DUP2 SWAP1 SSTORE POP DUP2 PUSH1 0x13 PUSH0 DUP3 DUP3 SLOAD PUSH2 0x3528 SWAP2 SWAP1 PUSH2 0x4A16 JUMP JUMPDEST SWAP3 POP POP DUP2 SWAP1 SSTORE POP DUP2 PUSH1 0x12 PUSH0 DUP3 DUP3 SLOAD PUSH2 0x3540 SWAP2 SWAP1 PUSH2 0x4A3D JUMP JUMPDEST SWAP1 SWAP2 SSTORE POP POP PUSH0 DUP5 DUP2 MSTORE PUSH1 0xC PUSH1 0x20 MSTORE PUSH1 0x40 DUP2 KECCAK256 DUP1 SLOAD DUP5 SWAP3 SWAP1 PUSH2 0x3562 SWAP1 DUP5 SWAP1 PUSH2 0x4A3D JUMP JUMPDEST SWAP1 SWAP2 SSTORE POP POP PUSH0 DUP2 DUP2 MSTORE PUSH1 0x17 PUSH1 0x20 MSTORE PUSH1 0x40 DUP2 KECCAK256 DUP1 SLOAD DUP5 SWAP3 SWAP1 PUSH2 0x3584 SWAP1 DUP5 SWAP1 PUSH2 0x4A3D JUMP JUMPDEST SWAP1 SWAP2 SSTORE POP POP PUSH1 0x40 MLOAD PUSH4 0xA9059CBB PUSH1 0xE0 SHL DUP2 MSTORE CALLER PUSH1 0x4 DUP3 ADD MSTORE PUSH1 0x24 DUP2 ADD DUP4 SWAP1 MSTORE PUSH32 0x0 PUSH1 0x1 PUSH1 0x1 PUSH1 0xA0 SHL SUB AND SWAP1 PUSH4 0xA9059CBB SWAP1 PUSH1 0x44 ADD PUSH1 0x20 PUSH1 0x40 MLOAD DUP1 DUP4 SUB DUP2 PUSH0 DUP8 GAS CALL ISZERO DUP1 ISZERO PUSH2 0x35F3 JUMPI RETURNDATASIZE PUSH0 PUSH0 RETURNDATACOPY RETURNDATASIZE PUSH0 REVERT JUMPDEST POP POP POP POP PUSH1 0x40 MLOAD RETURNDATASIZE PUSH1 0x1F NOT PUSH1 0x1F DUP3 ADD AND DUP3 ADD DUP1 PUSH1 0x40 MSTORE POP DUP2 ADD SWAP1 PUSH2 0x3617 SWAP2 SWAP1 PUSH2 0x4A97 JUMP JUMPDEST PUSH2 0x3633 JUMPI PUSH1 0x40 MLOAD PUSH3 0x461BCD PUSH1 0xE5 SHL DUP2 MSTORE PUSH1 0x4 ADD PUSH2 0x967 SWAP1 PUSH2 0x4AB2 JUMP JUMPDEST PUSH2 0x363B PUSH2 0x2CAF JUMP JUMPDEST PUSH1 0xA SSTORE PUSH1 0x40 DUP1 MLOAD DUP6 DUP2 MSTORE PUSH1 0x20 DUP2 ADD DUP5 SWAP1 MSTORE CALLER SWAP2 PUSH32 0xFA73D3AB3A92ED3F2B694757D8E4B2F3C293654B11B9C79111F8971F861B22B2 SWAP2 ADD PUSH2 0x2602 JUMP JUMPDEST PUSH0 DUP4 ISZERO DUP1 PUSH2 0x3682 JUMPI POP DUP3 ISZERO JUMPDEST ISZERO PUSH2 0x368E JUMPI POP PUSH0 PUSH2 0x1E9B JUMP JUMPDEST DUP2 PUSH0 SUB PUSH2 0x3699 JUMPI TIMESTAMP SWAP2 POP JUMPDEST PUSH0 PUSH2 0x36A3 DUP4 PUSH2 0x417A JUMP JUMPDEST PUSH1 0x14 SLOAD SWAP1 SWAP2 POP DUP2 LT PUSH2 0x36B8 JUMPI PUSH0 SWAP2 POP POP PUSH2 0x1E9B JUMP JUMPDEST PUSH0 PUSH2 0x36C3 DUP6 DUP4 PUSH2 0x4A3D JUMP JUMPDEST PUSH1 0x14 SLOAD SWAP1 SWAP2 POP DUP2 GT ISZERO PUSH2 0x36D5 JUMPI POP PUSH1 0x14 SLOAD JUMPDEST DUP2 DUP2 GT PUSH2 0x36E6 JUMPI PUSH0 SWAP3 POP POP POP PUSH2 0x1E9B JUMP JUMPDEST PUSH0 DUP3 JUMPDEST DUP3 DUP2 LT ISZERO PUSH2 0x380D JUMPI PUSH0 PUSH1 0x14 DUP3 DUP2 SLOAD DUP2 LT PUSH2 0x3705 JUMPI PUSH2 0x3705 PUSH2 0x4A29 JUMP JUMPDEST SWAP1 PUSH0 MSTORE PUSH1 0x20 PUSH0 KECCAK256 SWAP1 PUSH1 0x3 MUL ADD PUSH1 0x40 MLOAD DUP1 PUSH1 0x60 ADD PUSH1 0x40 MSTORE SWAP1 DUP2 PUSH0 DUP3 ADD SLOAD DUP2 MSTORE PUSH1 0x20 ADD PUSH1 0x1 DUP3 ADD SLOAD DUP2 MSTORE PUSH1 0x20 ADD PUSH1 0x2 DUP3 ADD SLOAD DUP2 MSTORE POP POP SWAP1 POP PUSH0 PUSH2 0x3745 DUP4 PUSH2 0x4092 JUMP JUMPDEST SWAP1 POP PUSH0 PUSH2 0x2710 PUSH2 0x3755 DUP4 DUP14 PUSH2 0x4ADB JUMP JUMPDEST PUSH2 0x375F SWAP2 SWAP1 PUSH2 0x4AF2 JUMP JUMPDEST SWAP1 POP DUP7 DUP5 SUB PUSH2 0x37F4 JUMPI DUP3 MLOAD PUSH0 SWAP1 DUP11 GT PUSH2 0x3779 JUMPI DUP4 MLOAD PUSH2 0x377B JUMP JUMPDEST DUP10 JUMPDEST PUSH1 0x20 DUP6 ADD MLOAD SWAP1 SWAP2 POP DUP1 DUP3 LT PUSH2 0x3794 JUMPI POP POP POP POP POP PUSH2 0x3805 JUMP JUMPDEST PUSH0 PUSH2 0x379F DUP4 DUP4 PUSH2 0x4A16 JUMP JUMPDEST SWAP1 POP PUSH0 DUP7 PUSH0 ADD MLOAD DUP8 PUSH1 0x20 ADD MLOAD PUSH2 0x37B5 SWAP2 SWAP1 PUSH2 0x4A16 JUMP JUMPDEST SWAP1 POP DUP1 PUSH0 SUB PUSH2 0x37CA JUMPI POP POP POP POP POP POP POP PUSH2 0x3805 JUMP JUMPDEST DUP1 PUSH2 0x37D5 DUP4 DUP8 PUSH2 0x4ADB JUMP JUMPDEST PUSH2 0x37DF SWAP2 SWAP1 PUSH2 0x4AF2 JUMP JUMPDEST PUSH2 0x37E9 SWAP1 DUP11 PUSH2 0x4A3D JUMP JUMPDEST SWAP9 POP POP POP POP POP PUSH2 0x3801 JUMP JUMPDEST PUSH2 0x37FE DUP2 DUP7 PUSH2 0x4A3D JUMP JUMPDEST SWAP5 POP JUMPDEST POP POP POP JUMPDEST PUSH1 0x1 ADD PUSH2 0x36E9 JUMP JUMPDEST POP SWAP7 SWAP6 POP POP POP POP POP POP JUMP JUMPDEST PUSH1 0x60 PUSH1 0x7 DUP1 SLOAD DUP1 PUSH1 0x20 MUL PUSH1 0x20 ADD PUSH1 0x40 MLOAD SWAP1 DUP2 ADD PUSH1 0x40 MSTORE DUP1 SWAP3 SWAP2 SWAP1 DUP2 DUP2 MSTORE PUSH1 0x20 ADD DUP3 DUP1 SLOAD DUP1 ISZERO PUSH2 0x386E JUMPI PUSH1 0x20 MUL DUP3 ADD SWAP2 SWAP1 PUSH0 MSTORE PUSH1 0x20 PUSH0 KECCAK256 SWAP1 JUMPDEST DUP2 SLOAD PUSH1 0x1 PUSH1 0x1 PUSH1 0xA0 SHL SUB AND DUP2 MSTORE PUSH1 0x1 SWAP1 SWAP2 ADD SWAP1 PUSH1 0x20 ADD DUP1 DUP4 GT PUSH2 0x3850 JUMPI JUMPDEST POP POP POP POP POP SWAP1 POP SWAP1 JUMP JUMPDEST PUSH1 0x1 SLOAD PUSH1 0x1 PUSH1 0x1 PUSH1 0xA0 SHL SUB AND CALLER EQ PUSH2 0x38A2 JUMPI PUSH1 0x40 MLOAD PUSH3 0x461BCD PUSH1 0xE5 SHL DUP2 MSTORE PUSH1 0x4 ADD PUSH2 0x967 SWAP1 PUSH2 0x49B9 JUMP JUMPDEST PUSH1 0x1 PUSH1 0x1 PUSH1 0xA0 SHL SUB DUP2 AND PUSH2 0x38C8 JUMPI PUSH1 0x40 MLOAD PUSH3 0x461BCD PUSH1 0xE5 SHL DUP2 MSTORE PUSH1 0x4 ADD PUSH2 0x967 SWAP1 PUSH2 0x4BFA JUMP JUMPDEST PUSH1 0x1 DUP1 SLOAD PUSH1 0x1 PUSH1 0x1 PUSH1 0xA0 SHL SUB NOT AND PUSH1 0x1 PUSH1 0x1 PUSH1 0xA0 SHL SUB SWAP3 SWAP1 SWAP3 AND SWAP2 SWAP1 SWAP2 OR SWAP1 SSTORE JUMP JUMPDEST PUSH1 0x2 PUSH0 SLOAD SUB PUSH2 0x390C JUMPI PUSH1 0x40 MLOAD PUSH4 0x3EE5AEB5 PUSH1 0xE0 SHL DUP2 MSTORE PUSH1 0x4 ADD PUSH1 0x40 MLOAD DUP1 SWAP2 SUB SWAP1 REVERT JUMPDEST PUSH1 0x2 PUSH0 SSTORE JUMP JUMPDEST PUSH1 0x6 SLOAD DUP6 LT ISZERO PUSH2 0x3951 JUMPI PUSH1 0x40 MLOAD PUSH3 0x461BCD PUSH1 0xE5 SHL DUP2 MSTORE PUSH1 0x20 PUSH1 0x4 DUP3 ADD MSTORE PUSH1 0xA PUSH1 0x24 DUP3 ADD MSTORE PUSH10 0x135A5B88185B5BDD5B9D PUSH1 0xB2 SHL PUSH1 0x44 DUP3 ADD MSTORE PUSH1 0x64 ADD PUSH2 0x967 JUMP JUMPDEST PUSH1 0x5 SLOAD DUP5 LT ISZERO PUSH2 0x3999 JUMPI PUSH1 0x40 MLOAD PUSH3 0x461BCD PUSH1 0xE5 SHL DUP2 MSTORE PUSH1 0x20 PUSH1 0x4 DUP3 ADD MSTORE PUSH1 0x13 PUSH1 0x24 DUP3 ADD MSTORE PUSH19 0x2637B1B59036BAB9BA1031329033B932B0B2B9 PUSH1 0x69 SHL PUSH1 0x44 DUP3 ADD MSTORE PUSH1 0x64 ADD PUSH2 0x967 JUMP JUMPDEST PUSH1 0x14 SLOAD PUSH2 0x39D4 JUMPI PUSH1 0x40 MLOAD PUSH3 0x461BCD PUSH1 0xE5 SHL DUP2 MSTORE PUSH1 0x20 PUSH1 0x4 DUP3 ADD MSTORE PUSH1 0x9 PUSH1 0x24 DUP3 ADD MSTORE PUSH9 0x4E6F206D6F6E746873 PUSH1 0xB8 SHL PUSH1 0x44 DUP3 ADD MSTORE PUSH1 0x64 ADD PUSH2 0x967 JUMP JUMPDEST PUSH0 PUSH2 0x39DD PUSH2 0x2CAF JUMP JUMPDEST PUSH1 0x14 SLOAD SWAP1 SWAP2 POP DUP2 LT PUSH2 0x3A24 JUMPI PUSH1 0x40 MLOAD PUSH3 0x461BCD PUSH1 0xE5 SHL DUP2 MSTORE PUSH1 0x20 PUSH1 0x4 DUP3 ADD MSTORE PUSH1 0x10 PUSH1 0x24 DUP3 ADD MSTORE PUSH16 0x151A5B59481B9BDD0818DBDD995C9959 PUSH1 0x82 SHL PUSH1 0x44 DUP3 ADD MSTORE PUSH1 0x64 ADD PUSH2 0x967 JUMP JUMPDEST PUSH0 PUSH2 0x3A2F DUP7 DUP4 PUSH2 0x4A3D JUMP JUMPDEST PUSH1 0x14 SLOAD SWAP1 SWAP2 POP DUP2 GT ISZERO PUSH2 0x3A92 JUMPI PUSH1 0x40 MLOAD PUSH3 0x461BCD PUSH1 0xE5 SHL DUP2 MSTORE PUSH1 0x20 PUSH1 0x4 DUP3 ADD MSTORE PUSH1 0x25 PUSH1 0x24 DUP3 ADD MSTORE PUSH32 0x4C6F636B20706572696F64206578636565647320636F6E66696775726564206D PUSH1 0x44 DUP3 ADD MSTORE PUSH5 0x6F6E746873 PUSH1 0xD8 SHL PUSH1 0x64 DUP3 ADD MSTORE PUSH1 0x84 ADD PUSH2 0x967 JUMP JUMPDEST PUSH1 0x40 MLOAD PUSH4 0x23B872DD PUSH1 0xE0 SHL DUP2 MSTORE CALLER PUSH1 0x4 DUP3 ADD MSTORE ADDRESS PUSH1 0x24 DUP3 ADD MSTORE PUSH1 0x44 DUP2 ADD DUP9 SWAP1 MSTORE PUSH32 0x0 PUSH1 0x1 PUSH1 0x1 PUSH1 0xA0 SHL SUB AND SWAP1 PUSH4 0x23B872DD SWAP1 PUSH1 0x64 ADD PUSH1 0x20 PUSH1 0x40 MLOAD DUP1 DUP4 SUB DUP2 PUSH0 DUP8 GAS CALL ISZERO DUP1 ISZERO PUSH2 0x3B02 JUMPI RETURNDATASIZE PUSH0 PUSH0 RETURNDATACOPY RETURNDATASIZE PUSH0 REVERT JUMPDEST POP POP POP POP PUSH1 0x40 MLOAD RETURNDATASIZE PUSH1 0x1F NOT PUSH1 0x1F DUP3 ADD AND DUP3 ADD DUP1 PUSH1 0x40 MSTORE POP DUP2 ADD SWAP1 PUSH2 0x3B26 SWAP2 SWAP1 PUSH2 0x4A97 JUMP JUMPDEST PUSH2 0x3B42 JUMPI PUSH1 0x40 MLOAD PUSH3 0x461BCD PUSH1 0xE5 SHL DUP2 MSTORE PUSH1 0x4 ADD PUSH2 0x967 SWAP1 PUSH2 0x4AB2 JUMP JUMPDEST PUSH1 0x1 PUSH1 0x1 PUSH1 0xA0 SHL SUB DUP9 AND PUSH0 SWAP1 DUP2 MSTORE PUSH1 0x8 PUSH1 0x20 MSTORE PUSH1 0x40 SWAP1 KECCAK256 SLOAD PUSH1 0xFF AND PUSH2 0x3BC6 JUMPI PUSH1 0x1 PUSH1 0x1 PUSH1 0xA0 SHL SUB DUP9 AND PUSH0 DUP2 DUP2 MSTORE PUSH1 0x8 PUSH1 0x20 MSTORE PUSH1 0x40 DUP2 KECCAK256 DUP1 SLOAD PUSH1 0xFF NOT AND PUSH1 0x1 SWAP1 DUP2 OR SWAP1 SWAP2 SSTORE PUSH1 0x7 DUP1 SLOAD SWAP2 DUP3 ADD DUP2 SSTORE SWAP1 SWAP2 MSTORE PUSH32 0xA66CC928B5EDB82AF9BD49922954155AB7B0942694BEA4CE44661D9A8736C688 ADD DUP1 SLOAD PUSH1 0x1 PUSH1 0x1 PUSH1 0xA0 SHL SUB NOT AND SWAP1 SWAP2 OR SWAP1 SSTORE JUMPDEST PUSH1 0xB PUSH1 0x40 MLOAD DUP1 PUSH2 0x1C0 ADD PUSH1 0x40 MSTORE DUP1 PUSH1 0xB DUP1 SLOAD SWAP1 POP DUP2 MSTORE PUSH1 0x20 ADD DUP11 PUSH1 0x1 PUSH1 0x1 PUSH1 0xA0 SHL SUB AND DUP2 MSTORE PUSH1 0x20 ADD DUP10 DUP2 MSTORE PUSH1 0x20 ADD DUP5 DUP2 MSTORE PUSH1 0x20 ADD TIMESTAMP DUP2 MSTORE PUSH1 0x20 ADD PUSH0 DUP2 MSTORE PUSH1 0x20 ADD DUP4 DUP2 MSTORE PUSH1 0x20 ADD DUP5 DUP2 MSTORE PUSH1 0x20 ADD PUSH0 DUP2 MSTORE PUSH1 0x20 ADD PUSH1 0x1 ISZERO ISZERO DUP2 MSTORE PUSH1 0x20 ADD PUSH0 ISZERO ISZERO DUP2 MSTORE PUSH1 0x20 ADD PUSH0 DUP2 MSTORE PUSH1 0x20 ADD DUP8 ISZERO ISZERO DUP2 MSTORE PUSH1 0x20 ADD DUP7 DUP2 MSTORE POP SWAP1 DUP1 PUSH1 0x1 DUP2 SLOAD ADD DUP1 DUP3 SSTORE DUP1 SWAP2 POP POP PUSH1 0x1 SWAP1 SUB SWAP1 PUSH0 MSTORE PUSH1 0x20 PUSH0 KECCAK256 SWAP1 PUSH1 0xD MUL ADD PUSH0 SWAP1 SWAP2 SWAP1 SWAP2 SWAP1 SWAP2 POP PUSH0 DUP3 ADD MLOAD DUP2 PUSH0 ADD SSTORE PUSH1 0x20 DUP3 ADD MLOAD DUP2 PUSH1 0x1 ADD PUSH0 PUSH2 0x100 EXP DUP2 SLOAD DUP2 PUSH1 0x1 PUSH1 0x1 PUSH1 0xA0 SHL SUB MUL NOT AND SWAP1 DUP4 PUSH1 0x1 PUSH1 0x1 PUSH1 0xA0 SHL SUB AND MUL OR SWAP1 SSTORE POP PUSH1 0x40 DUP3 ADD MLOAD DUP2 PUSH1 0x2 ADD SSTORE PUSH1 0x60 DUP3 ADD MLOAD DUP2 PUSH1 0x3 ADD SSTORE PUSH1 0x80 DUP3 ADD MLOAD DUP2 PUSH1 0x4 ADD SSTORE PUSH1 0xA0 DUP3 ADD MLOAD DUP2 PUSH1 0x5 ADD SSTORE PUSH1 0xC0 DUP3 ADD MLOAD DUP2 PUSH1 0x6 ADD SSTORE PUSH1 0xE0 DUP3 ADD MLOAD DUP2 PUSH1 0x7 ADD SSTORE PUSH2 0x100 DUP3 ADD MLOAD DUP2 PUSH1 0x8 ADD SSTORE PUSH2 0x120 DUP3 ADD MLOAD DUP2 PUSH1 0x9 ADD PUSH0 PUSH2 0x100 EXP DUP2 SLOAD DUP2 PUSH1 0xFF MUL NOT AND SWAP1 DUP4 ISZERO ISZERO MUL OR SWAP1 SSTORE POP PUSH2 0x140 DUP3 ADD MLOAD DUP2 PUSH1 0x9 ADD PUSH1 0x1 PUSH2 0x100 EXP DUP2 SLOAD DUP2 PUSH1 0xFF MUL NOT AND SWAP1 DUP4 ISZERO ISZERO MUL OR SWAP1 SSTORE POP PUSH2 0x160 DUP3 ADD MLOAD DUP2 PUSH1 0xA ADD SSTORE PUSH2 0x180 DUP3 ADD MLOAD DUP2 PUSH1 0xB ADD PUSH0 PUSH2 0x100 EXP DUP2 SLOAD DUP2 PUSH1 0xFF MUL NOT AND SWAP1 DUP4 ISZERO ISZERO MUL OR SWAP1 SSTORE POP PUSH2 0x1A0 DUP3 ADD MLOAD DUP2 PUSH1 0xC ADD SSTORE POP POP PUSH0 PUSH1 0x1 PUSH1 0xB DUP1 SLOAD SWAP1 POP PUSH2 0x3D68 SWAP2 SWAP1 PUSH2 0x4A16 JUMP JUMPDEST PUSH0 DUP2 DUP2 MSTORE PUSH1 0xD PUSH1 0x20 SWAP1 DUP2 MSTORE PUSH1 0x40 DUP1 DUP4 KECCAK256 DUP1 SLOAD PUSH1 0xFF NOT AND DUP10 ISZERO ISZERO OR SWAP1 SSTORE PUSH1 0x1 PUSH1 0x1 PUSH1 0xA0 SHL SUB DUP14 AND DUP4 MSTORE PUSH1 0x9 DUP3 MSTORE DUP3 KECCAK256 DUP1 SLOAD PUSH1 0x1 DUP2 ADD DUP3 SSTORE SWAP1 DUP4 MSTORE SWAP1 DUP3 KECCAK256 ADD DUP3 SWAP1 SSTORE PUSH1 0xA DUP6 SWAP1 SSTORE PUSH1 0x11 DUP1 SLOAD SWAP3 SWAP4 POP DUP11 SWAP3 SWAP1 SWAP2 SWAP1 PUSH2 0x3DC4 SWAP1 DUP5 SWAP1 PUSH2 0x4A3D JUMP JUMPDEST SWAP1 SWAP2 SSTORE POP POP PUSH1 0x10 DUP1 SLOAD SWAP1 PUSH0 PUSH2 0x3DD8 DUP4 PUSH2 0x4C2A JUMP JUMPDEST SWAP1 SWAP2 SSTORE POP POP PUSH1 0xE DUP1 SLOAD PUSH1 0x1 DUP2 DUP2 ADD DUP4 SSTORE PUSH0 DUP4 SWAP1 MSTORE PUSH32 0xBB7B4A454DC3493923482F07822329ED19E8244EFF582CC204F8554C3620C3FD SWAP1 SWAP2 ADD DUP4 SWAP1 SSTORE SWAP1 SLOAD PUSH2 0x3E1F SWAP2 SWAP1 PUSH2 0x4A16 JUMP JUMPDEST PUSH0 DUP3 DUP2 MSTORE PUSH1 0xF PUSH1 0x20 SWAP1 DUP2 MSTORE PUSH1 0x40 DUP1 DUP4 KECCAK256 SWAP4 SWAP1 SWAP4 SSTORE DUP6 DUP3 MSTORE PUSH1 0x15 SWAP1 MSTORE SWAP1 DUP2 KECCAK256 DUP1 SLOAD SWAP2 PUSH2 0x3E49 DUP4 PUSH2 0x4C2A JUMP JUMPDEST SWAP1 SWAP2 SSTORE POP POP PUSH0 DUP4 DUP2 MSTORE PUSH1 0x16 PUSH1 0x20 MSTORE PUSH1 0x40 DUP2 KECCAK256 DUP1 SLOAD DUP11 SWAP3 SWAP1 PUSH2 0x3E6B SWAP1 DUP5 SWAP1 PUSH2 0x4A3D JUMP JUMPDEST SWAP1 SWAP2 SSTORE POP POP PUSH1 0x40 DUP1 MLOAD DUP3 DUP2 MSTORE PUSH1 0x20 DUP2 ADD DUP11 SWAP1 MSTORE SWAP1 DUP2 ADD DUP9 SWAP1 MSTORE PUSH1 0x60 DUP2 ADD DUP4 SWAP1 MSTORE PUSH1 0x1 PUSH1 0x1 PUSH1 0xA0 SHL SUB DUP11 AND SWAP1 PUSH32 0x554F20505671494900B631B0E443E9E7A59743EC9889B05E28D8AC9EA158266B SWAP1 PUSH1 0x80 ADD PUSH1 0x40 MLOAD DUP1 SWAP2 SUB SWAP1 LOG2 POP POP POP POP POP POP POP POP POP JUMP JUMPDEST DUP2 DUP4 LT PUSH2 0x3F0D JUMPI PUSH1 0x40 MLOAD PUSH3 0x461BCD PUSH1 0xE5 SHL DUP2 MSTORE PUSH1 0x20 PUSH1 0x4 DUP3 ADD MSTORE PUSH1 0xD PUSH1 0x24 DUP3 ADD MSTORE PUSH13 0x496E76616C69642072616E6765 PUSH1 0x98 SHL PUSH1 0x44 DUP3 ADD MSTORE PUSH1 0x64 ADD PUSH2 0x967 JUMP JUMPDEST DUP1 ISZERO PUSH2 0x3F35 JUMPI PUSH2 0x2710 DUP2 GT ISZERO PUSH2 0x3F35 JUMPI PUSH1 0x40 MLOAD PUSH3 0x461BCD PUSH1 0xE5 SHL DUP2 MSTORE PUSH1 0x4 ADD PUSH2 0x967 SWAP1 PUSH2 0x49DD JUMP JUMPDEST PUSH1 0x14 SLOAD ISZERO PUSH2 0x3FA2 JUMPI PUSH1 0x14 DUP1 SLOAD PUSH2 0x3F4D SWAP1 PUSH1 0x1 SWAP1 PUSH2 0x4A16 JUMP JUMPDEST DUP2 SLOAD DUP2 LT PUSH2 0x3F5D JUMPI PUSH2 0x3F5D PUSH2 0x4A29 JUMP JUMPDEST SWAP1 PUSH0 MSTORE PUSH1 0x20 PUSH0 KECCAK256 SWAP1 PUSH1 0x3 MUL ADD PUSH1 0x1 ADD SLOAD DUP4 LT ISZERO PUSH2 0x3FA2 JUMPI PUSH1 0x40 MLOAD PUSH3 0x461BCD PUSH1 0xE5 SHL DUP2 MSTORE PUSH1 0x20 PUSH1 0x4 DUP3 ADD MSTORE PUSH1 0x3 PUSH1 0x24 DUP3 ADD MSTORE PUSH3 0x536571 PUSH1 0xE8 SHL PUSH1 0x44 DUP3 ADD MSTORE PUSH1 0x64 ADD PUSH2 0x967 JUMP JUMPDEST PUSH1 0x40 DUP1 MLOAD PUSH1 0x60 DUP2 ADD DUP3 MSTORE SWAP4 DUP5 MSTORE PUSH1 0x20 DUP5 ADD SWAP3 DUP4 MSTORE DUP4 ADD SWAP1 DUP2 MSTORE PUSH1 0x14 DUP1 SLOAD PUSH1 0x1 DUP2 ADD DUP3 SSTORE PUSH0 SWAP2 SWAP1 SWAP2 MSTORE SWAP3 MLOAD PUSH32 0xCE6D7B5282BD9A3661AE061FEED1DBDA4E52AB073B1F9285BE6E155D9C38D4EC PUSH1 0x3 SWAP1 SWAP5 MUL SWAP4 DUP5 ADD SSTORE SWAP1 MLOAD PUSH32 0xCE6D7B5282BD9A3661AE061FEED1DBDA4E52AB073B1F9285BE6E155D9C38D4ED DUP4 ADD SSTORE MLOAD PUSH32 0xCE6D7B5282BD9A3661AE061FEED1DBDA4E52AB073B1F9285BE6E155D9C38D4EE SWAP1 SWAP2 ADD SSTORE JUMP JUMPDEST PUSH0 DUP2 PUSH0 SUB PUSH2 0x4050 JUMPI TIMESTAMP SWAP2 POP JUMPDEST DUP3 JUMPDEST PUSH1 0x14 SLOAD DUP2 LT DUP1 ISZERO PUSH2 0x4085 JUMPI POP DUP3 PUSH1 0x14 DUP3 DUP2 SLOAD DUP2 LT PUSH2 0x4072 JUMPI PUSH2 0x4072 PUSH2 0x4A29 JUMP JUMPDEST SWAP1 PUSH0 MSTORE PUSH1 0x20 PUSH0 KECCAK256 SWAP1 PUSH1 0x3 MUL ADD PUSH1 0x1 ADD SLOAD GT ISZERO JUMPDEST ISZERO PUSH2 0x1E9B JUMPI PUSH1 0x1 ADD PUSH2 0x4052 JUMP JUMPDEST PUSH0 PUSH0 PUSH1 0x14 DUP4 DUP2 SLOAD DUP2 LT PUSH2 0x40A7 JUMPI PUSH2 0x40A7 PUSH2 0x4A29 JUMP JUMPDEST SWAP1 PUSH0 MSTORE PUSH1 0x20 PUSH0 KECCAK256 SWAP1 PUSH1 0x3 MUL ADD PUSH1 0x2 ADD SLOAD SWAP1 POP DUP1 PUSH0 EQ PUSH2 0x40C6 JUMPI DUP1 PUSH2 0x1E9B JUMP JUMPDEST PUSH1 0x4 SLOAD SWAP4 SWAP3 POP POP POP JUMP JUMPDEST PUSH0 DUP2 DUP2 MSTORE PUSH1 0xF PUSH1 0x20 MSTORE PUSH1 0x40 DUP2 KECCAK256 SLOAD PUSH1 0xE DUP1 SLOAD SWAP2 SWAP3 SWAP2 PUSH2 0x40F1 SWAP1 PUSH1 0x1 SWAP1 PUSH2 0x4A16 JUMP JUMPDEST DUP2 SLOAD DUP2 LT PUSH2 0x4101 JUMPI PUSH2 0x4101 PUSH2 0x4A29 JUMP JUMPDEST SWAP1 PUSH0 MSTORE PUSH1 0x20 PUSH0 KECCAK256 ADD SLOAD SWAP1 POP DUP1 PUSH1 0xE DUP4 DUP2 SLOAD DUP2 LT PUSH2 0x4120 JUMPI PUSH2 0x4120 PUSH2 0x4A29 JUMP JUMPDEST PUSH0 SWAP2 DUP3 MSTORE PUSH1 0x20 DUP1 DUP4 KECCAK256 SWAP1 SWAP2 ADD SWAP3 SWAP1 SWAP3 SSTORE DUP3 DUP2 MSTORE PUSH1 0xF SWAP1 SWAP2 MSTORE PUSH1 0x40 SWAP1 KECCAK256 DUP3 SWAP1 SSTORE PUSH1 0xE DUP1 SLOAD DUP1 PUSH2 0x4150 JUMPI PUSH2 0x4150 PUSH2 0x4C16 JUMP JUMPDEST PUSH0 DUP3 DUP2 MSTORE PUSH1 0x20 DUP1 DUP3 KECCAK256 DUP4 ADD PUSH0 NOT SWAP1 DUP2 ADD DUP4 SWAP1 SSTORE SWAP1 SWAP3 ADD SWAP1 SWAP3 SSTORE SWAP4 DUP2 MSTORE PUSH1 0xF SWAP1 SWAP4 MSTORE POP POP PUSH1 0x40 DUP2 KECCAK256 SSTORE JUMP JUMPDEST PUSH0 DUP1 JUMPDEST PUSH1 0x14 SLOAD DUP2 LT ISZERO PUSH2 0x2D26 JUMPI PUSH1 0x14 DUP2 DUP2 SLOAD DUP2 LT PUSH2 0x419A JUMPI PUSH2 0x419A PUSH2 0x4A29 JUMP JUMPDEST SWAP1 PUSH0 MSTORE PUSH1 0x20 PUSH0 KECCAK256 SWAP1 PUSH1 0x3 MUL ADD PUSH0 ADD SLOAD DUP4 LT ISZERO DUP1 ISZERO PUSH2 0x41D9 JUMPI POP PUSH1 0x14 DUP2 DUP2 SLOAD DUP2 LT PUSH2 0x41C6 JUMPI PUSH2 0x41C6 PUSH2 0x4A29 JUMP JUMPDEST SWAP1 PUSH0 MSTORE PUSH1 0x20 PUSH0 KECCAK256 SWAP1 PUSH1 0x3 MUL ADD PUSH1 0x1 ADD SLOAD DUP4 LT JUMPDEST ISZERO PUSH2 0x41E4 JUMPI SWAP3 SWAP2 POP POP JUMP JUMPDEST PUSH1 0x1 ADD PUSH2 0x417D JUMP JUMPDEST PUSH1 0x40 MLOAD DUP1 PUSH2 0x1C0 ADD PUSH1 0x40 MSTORE DUP1 PUSH0 DUP2 MSTORE PUSH1 0x20 ADD PUSH0 PUSH1 0x1 PUSH1 0x1 PUSH1 0xA0 SHL SUB AND DUP2 MSTORE PUSH1 0x20 ADD PUSH0 DUP2 MSTORE PUSH1 0x20 ADD PUSH0 DUP2 MSTORE PUSH1 0x20 ADD PUSH0 DUP2 MSTORE PUSH1 0x20 ADD PUSH0 DUP2 MSTORE PUSH1 0x20 ADD PUSH0 DUP2 MSTORE PUSH1 0x20 ADD PUSH0 DUP2 MSTORE PUSH1 0x20 ADD PUSH0 DUP2 MSTORE PUSH1 0x20 ADD PUSH0 ISZERO ISZERO DUP2 MSTORE PUSH1 0x20 ADD PUSH0 ISZERO ISZERO DUP2 MSTORE PUSH1 0x20 ADD PUSH0 DUP2 MSTORE PUSH1 0x20 ADD PUSH0 ISZERO ISZERO DUP2 MSTORE PUSH1 0x20 ADD PUSH0 DUP2 MSTORE POP SWAP1 JUMP JUMPDEST PUSH0 PUSH0 PUSH0 PUSH0 PUSH1 0x80 DUP6 DUP8 SUB SLT ISZERO PUSH2 0x426F JUMPI PUSH0 PUSH0 REVERT JUMPDEST POP POP DUP3 CALLDATALOAD SWAP5 PUSH1 0x20 DUP5 ADD CALLDATALOAD SWAP5 POP PUSH1 0x40 DUP5 ADD CALLDATALOAD SWAP4 PUSH1 0x60 ADD CALLDATALOAD SWAP3 POP SWAP1 POP JUMP JUMPDEST DUP1 CALLDATALOAD PUSH1 0x1 PUSH1 0x1 PUSH1 0xA0 SHL SUB DUP2 AND DUP2 EQ PUSH2 0x42A1 JUMPI PUSH0 PUSH0 REVERT JUMPDEST SWAP2 SWAP1 POP JUMP JUMPDEST DUP1 ISZERO ISZERO DUP2 EQ PUSH2 0x1169 JUMPI PUSH0 PUSH0 REVERT JUMPDEST PUSH0 PUSH0 PUSH0 PUSH0 PUSH0 PUSH1 0xA0 DUP7 DUP9 SUB SLT ISZERO PUSH2 0x42C7 JUMPI PUSH0 PUSH0 REVERT JUMPDEST PUSH2 0x42D0 DUP7 PUSH2 0x428B JUMP JUMPDEST SWAP5 POP PUSH1 0x20 DUP7 ADD CALLDATALOAD SWAP4 POP PUSH1 0x40 DUP7 ADD CALLDATALOAD SWAP3 POP PUSH1 0x60 DUP7 ADD CALLDATALOAD PUSH2 0x42EE DUP2 PUSH2 0x42A6 JUMP JUMPDEST SWAP5 SWAP8 SWAP4 SWAP7 POP SWAP2 SWAP5 PUSH1 0x80 ADD CALLDATALOAD SWAP3 SWAP2 POP POP JUMP JUMPDEST PUSH0 PUSH0 PUSH1 0x40 DUP4 DUP6 SUB SLT ISZERO PUSH2 0x4310 JUMPI PUSH0 PUSH0 REVERT JUMPDEST PUSH2 0x4319 DUP4 PUSH2 0x428B JUMP JUMPDEST SWAP5 PUSH1 0x20 SWAP4 SWAP1 SWAP4 ADD CALLDATALOAD SWAP4 POP POP POP JUMP JUMPDEST PUSH0 PUSH1 0x20 DUP3 DUP5 SUB SLT ISZERO PUSH2 0x4337 JUMPI PUSH0 PUSH0 REVERT JUMPDEST POP CALLDATALOAD SWAP2 SWAP1 POP JUMP JUMPDEST PUSH4 0x4E487B71 PUSH1 0xE0 SHL PUSH0 MSTORE PUSH1 0x41 PUSH1 0x4 MSTORE PUSH1 0x24 PUSH0 REVERT JUMPDEST PUSH1 0x40 MLOAD PUSH1 0x1F DUP3 ADD PUSH1 0x1F NOT AND DUP2 ADD PUSH1 0x1 PUSH1 0x1 PUSH1 0x40 SHL SUB DUP2 GT DUP3 DUP3 LT OR ISZERO PUSH2 0x437A JUMPI PUSH2 0x437A PUSH2 0x433E JUMP JUMPDEST PUSH1 0x40 MSTORE SWAP2 SWAP1 POP JUMP JUMPDEST PUSH0 PUSH1 0x20 DUP3 DUP5 SUB SLT ISZERO PUSH2 0x4392 JUMPI PUSH0 PUSH0 REVERT JUMPDEST DUP2 CALLDATALOAD PUSH1 0x1 PUSH1 0x1 PUSH1 0x40 SHL SUB DUP2 GT ISZERO PUSH2 0x43A7 JUMPI PUSH0 PUSH0 REVERT JUMPDEST DUP3 ADD PUSH1 0x1F DUP2 ADD DUP5 SGT PUSH2 0x43B7 JUMPI PUSH0 PUSH0 REVERT JUMPDEST DUP1 CALLDATALOAD PUSH1 0x1 PUSH1 0x1 PUSH1 0x40 SHL SUB DUP2 GT ISZERO PUSH2 0x43D0 JUMPI PUSH2 0x43D0 PUSH2 0x433E JUMP JUMPDEST DUP1 PUSH1 0x5 SHL PUSH2 0x43E0 PUSH1 0x20 DUP3 ADD PUSH2 0x4352 JUMP JUMPDEST SWAP2 DUP3 MSTORE PUSH1 0x20 DUP2 DUP5 ADD DUP2 ADD SWAP3 SWAP1 DUP2 ADD SWAP1 DUP8 DUP5 GT ISZERO PUSH2 0x43FB JUMPI PUSH0 PUSH0 REVERT JUMPDEST PUSH1 0x20 DUP6 ADD SWAP5 POP JUMPDEST DUP4 DUP6 LT ISZERO PUSH2 0x4421 JUMPI DUP5 CALLDATALOAD DUP1 DUP4 MSTORE PUSH1 0x20 SWAP6 DUP7 ADD SWAP6 SWAP1 SWAP4 POP SWAP1 SWAP2 ADD SWAP1 PUSH2 0x4402 JUMP JUMPDEST SWAP8 SWAP7 POP POP POP POP POP POP POP JUMP JUMPDEST PUSH1 0x20 DUP1 DUP3 MSTORE DUP3 MLOAD DUP3 DUP3 ADD DUP2 SWAP1 MSTORE PUSH0 SWAP2 DUP5 ADD SWAP1 PUSH1 0x40 DUP5 ADD SWAP1 DUP4 JUMPDEST DUP2 DUP2 LT ISZERO PUSH2 0x446F JUMPI DUP4 MLOAD DUP1 MLOAD DUP5 MSTORE PUSH1 0x20 SWAP1 DUP2 ADD MLOAD DUP2 DUP6 ADD MSTORE SWAP1 SWAP4 ADD SWAP3 PUSH1 0x40 SWAP1 SWAP3 ADD SWAP2 PUSH1 0x1 ADD PUSH2 0x4445 JUMP JUMPDEST POP SWAP1 SWAP6 SWAP5 POP POP POP POP POP JUMP JUMPDEST DUP1 MLOAD DUP3 MSTORE PUSH1 0x20 DUP2 ADD MLOAD PUSH2 0x4498 PUSH1 0x20 DUP5 ADD DUP3 PUSH1 0x1 PUSH1 0x1 PUSH1 0xA0 SHL SUB AND SWAP1 MSTORE JUMP JUMPDEST POP PUSH1 0x40 DUP2 ADD MLOAD PUSH1 0x40 DUP4 ADD MSTORE PUSH1 0x60 DUP2 ADD MLOAD PUSH1 0x60 DUP4 ADD MSTORE PUSH1 0x80 DUP2 ADD MLOAD PUSH1 0x80 DUP4 ADD MSTORE PUSH1 0xA0 DUP2 ADD MLOAD PUSH1 0xA0 DUP4 ADD MSTORE PUSH1 0xC0 DUP2 ADD MLOAD PUSH1 0xC0 DUP4 ADD MSTORE PUSH1 0xE0 DUP2 ADD MLOAD PUSH1 0xE0 DUP4 ADD MSTORE PUSH2 0x100 DUP2 ADD MLOAD PUSH2 0x100 DUP4 ADD MSTORE PUSH2 0x120 DUP2 ADD MLOAD PUSH2 0x44F6 PUSH2 0x120 DUP5 ADD DUP3 ISZERO ISZERO SWAP1 MSTORE JUMP JUMPDEST POP PUSH2 0x140 DUP2 ADD MLOAD PUSH2 0x450C PUSH2 0x140 DUP5 ADD DUP3 ISZERO ISZERO SWAP1 MSTORE JUMP JUMPDEST POP PUSH2 0x160 DUP2 ADD MLOAD PUSH2 0x160 DUP4 ADD MSTORE PUSH2 0x180 DUP2 ADD MLOAD PUSH2 0x452E PUSH2 0x180 DUP5 ADD DUP3 ISZERO ISZERO SWAP1 MSTORE JUMP JUMPDEST POP PUSH2 0x1A0 SWAP1 DUP2 ADD MLOAD SWAP2 ADD MSTORE JUMP JUMPDEST PUSH2 0x1C0 DUP2 ADD PUSH2 0x1AE5 DUP3 DUP5 PUSH2 0x447A JUMP JUMPDEST PUSH0 PUSH0 PUSH0 PUSH1 0x60 DUP5 DUP7 SUB SLT ISZERO PUSH2 0x455C JUMPI PUSH0 PUSH0 REVERT JUMPDEST POP POP DUP2 CALLDATALOAD SWAP4 PUSH1 0x20 DUP4 ADD CALLDATALOAD SWAP4 POP PUSH1 0x40 SWAP1 SWAP3 ADD CALLDATALOAD SWAP2 SWAP1 POP JUMP JUMPDEST PUSH0 PUSH0 DUP4 PUSH1 0x1F DUP5 ADD SLT PUSH2 0x4583 JUMPI PUSH0 PUSH0 REVERT JUMPDEST POP DUP2 CALLDATALOAD PUSH1 0x1 PUSH1 0x1 PUSH1 0x40 SHL SUB DUP2 GT ISZERO PUSH2 0x4599 JUMPI PUSH0 PUSH0 REVERT JUMPDEST PUSH1 0x20 DUP4 ADD SWAP2 POP DUP4 PUSH1 0x20 DUP3 PUSH1 0x5 SHL DUP6 ADD ADD GT ISZERO PUSH2 0x45B3 JUMPI PUSH0 PUSH0 REVERT JUMPDEST SWAP3 POP SWAP3 SWAP1 POP JUMP JUMPDEST PUSH0 PUSH0 PUSH0 PUSH0 PUSH0 PUSH0 PUSH1 0x60 DUP8 DUP10 SUB SLT ISZERO PUSH2 0x45CF JUMPI PUSH0 PUSH0 REVERT JUMPDEST DUP7 CALLDATALOAD PUSH1 0x1 PUSH1 0x1 PUSH1 0x40 SHL SUB DUP2 GT ISZERO PUSH2 0x45E4 JUMPI PUSH0 PUSH0 REVERT JUMPDEST PUSH2 0x45F0 DUP10 DUP3 DUP11 ADD PUSH2 0x4573 JUMP JUMPDEST SWAP1 SWAP8 POP SWAP6 POP POP PUSH1 0x20 DUP8 ADD CALLDATALOAD PUSH1 0x1 PUSH1 0x1 PUSH1 0x40 SHL SUB DUP2 GT ISZERO PUSH2 0x460E JUMPI PUSH0 PUSH0 REVERT JUMPDEST PUSH2 0x461A DUP10 DUP3 DUP11 ADD PUSH2 0x4573 JUMP JUMPDEST SWAP1 SWAP6 POP SWAP4 POP POP PUSH1 0x40 DUP8 ADD CALLDATALOAD PUSH1 0x1 PUSH1 0x1 PUSH1 0x40 SHL SUB DUP2 GT ISZERO PUSH2 0x4638 JUMPI PUSH0 PUSH0 REVERT JUMPDEST PUSH2 0x4644 DUP10 DUP3 DUP11 ADD PUSH2 0x4573 JUMP JUMPDEST SWAP8 SWAP11 SWAP7 SWAP10 POP SWAP5 SWAP8 POP SWAP3 SWAP6 SWAP4 SWAP5 SWAP3 POP POP POP JUMP JUMPDEST PUSH0 DUP2 MLOAD DUP1 DUP5 MSTORE DUP1 PUSH1 0x20 DUP5 ADD PUSH1 0x20 DUP7 ADD MCOPY PUSH0 PUSH1 0x20 DUP3 DUP7 ADD ADD MSTORE PUSH1 0x20 PUSH1 0x1F NOT PUSH1 0x1F DUP4 ADD AND DUP6 ADD ADD SWAP2 POP POP SWAP3 SWAP2 POP POP JUMP JUMPDEST PUSH1 0x20 DUP2 MSTORE DUP2 MLOAD PUSH1 0x20 DUP3 ADD MSTORE PUSH1 0x20 DUP3 ADD MLOAD PUSH1 0x40 DUP3 ADD MSTORE PUSH1 0x40 DUP3 ADD MLOAD PUSH1 0x60 DUP3 ADD MSTORE PUSH1 0x60 DUP3 ADD MLOAD PUSH1 0x80 DUP3 ADD MSTORE PUSH1 0x80 DUP3 ADD MLOAD PUSH1 0xA0 DUP3 ADD MSTORE PUSH1 0xA0 DUP3 ADD MLOAD PUSH1 0xC0 DUP3 ADD MSTORE PUSH0 PUSH1 0xC0 DUP4 ADD MLOAD PUSH2 0x46D6 PUSH1 0xE0 DUP5 ADD DUP3 PUSH1 0xFF AND SWAP1 MSTORE JUMP JUMPDEST POP PUSH1 0xE0 DUP4 ADD MLOAD PUSH2 0x220 PUSH2 0x100 DUP5 ADD MSTORE PUSH2 0x46F3 PUSH2 0x240 DUP5 ADD DUP3 PUSH2 0x4656 JUMP JUMPDEST SWAP1 POP PUSH2 0x100 DUP5 ADD MLOAD PUSH1 0x1F NOT DUP5 DUP4 SUB ADD PUSH2 0x120 DUP6 ADD MSTORE PUSH2 0x4712 DUP3 DUP3 PUSH2 0x4656 JUMP JUMPDEST SWAP2 POP POP PUSH2 0x120 DUP5 ADD MLOAD PUSH2 0x4731 PUSH2 0x140 DUP6 ADD DUP3 PUSH1 0x1 PUSH1 0x1 PUSH1 0xA0 SHL SUB AND SWAP1 MSTORE JUMP JUMPDEST POP PUSH2 0x140 DUP5 ADD MLOAD PUSH2 0x160 DUP5 ADD MSTORE PUSH2 0x160 DUP5 ADD MLOAD PUSH2 0x180 DUP5 ADD MSTORE PUSH2 0x180 DUP5 ADD MLOAD PUSH2 0x1A0 DUP5 ADD MSTORE PUSH2 0x1A0 DUP5 ADD MLOAD PUSH2 0x1C0 DUP5 ADD MSTORE PUSH2 0x1C0 DUP5 ADD MLOAD PUSH2 0x1E0 DUP5 ADD MSTORE PUSH2 0x1E0 DUP5 ADD MLOAD PUSH2 0x200 DUP5 ADD MSTORE PUSH2 0x200 DUP5 ADD MLOAD PUSH2 0x220 DUP5 ADD MSTORE DUP1 SWAP2 POP POP SWAP3 SWAP2 POP POP JUMP JUMPDEST PUSH0 PUSH0 PUSH1 0x40 DUP4 DUP6 SUB SLT ISZERO PUSH2 0x47A1 JUMPI PUSH0 PUSH0 REVERT JUMPDEST POP POP DUP1 CALLDATALOAD SWAP3 PUSH1 0x20 SWAP1 SWAP2 ADD CALLDATALOAD SWAP2 POP JUMP JUMPDEST PUSH1 0x20 DUP1 DUP3 MSTORE DUP3 MLOAD DUP3 DUP3 ADD DUP2 SWAP1 MSTORE PUSH0 SWAP2 DUP5 ADD SWAP1 PUSH1 0x40 DUP5 ADD SWAP1 DUP4 JUMPDEST DUP2 DUP2 LT ISZERO PUSH2 0x446F JUMPI PUSH2 0x47DC DUP4 DUP6 MLOAD PUSH2 0x447A JUMP JUMPDEST PUSH1 0x20 SWAP4 SWAP1 SWAP4 ADD SWAP3 PUSH2 0x1C0 SWAP3 SWAP1 SWAP3 ADD SWAP2 PUSH1 0x1 ADD PUSH2 0x47C9 JUMP JUMPDEST PUSH0 PUSH1 0x20 DUP3 DUP5 SUB SLT ISZERO PUSH2 0x4803 JUMPI PUSH0 PUSH0 REVERT JUMPDEST PUSH2 0x1E9B DUP3 PUSH2 0x428B JUMP JUMPDEST PUSH1 0x20 DUP1 DUP3 MSTORE DUP3 MLOAD DUP3 DUP3 ADD DUP2 SWAP1 MSTORE PUSH0 SWAP2 DUP5 ADD SWAP1 PUSH1 0x40 DUP5 ADD SWAP1 DUP4 JUMPDEST DUP2 DUP2 LT ISZERO PUSH2 0x446F JUMPI DUP4 MLOAD PUSH1 0x1 PUSH1 0x1 PUSH1 0xA0 SHL SUB AND DUP4 MSTORE PUSH1 0x20 SWAP4 DUP5 ADD SWAP4 SWAP1 SWAP3 ADD SWAP2 PUSH1 0x1 ADD PUSH2 0x4825 JUMP JUMPDEST PUSH0 PUSH0 PUSH0 PUSH1 0x60 DUP5 DUP7 SUB SLT ISZERO PUSH2 0x485E JUMPI PUSH0 PUSH0 REVERT JUMPDEST PUSH2 0x4867 DUP5 PUSH2 0x428B JUMP JUMPDEST SWAP6 PUSH1 0x20 DUP6 ADD CALLDATALOAD SWAP6 POP PUSH1 0x40 SWAP1 SWAP5 ADD CALLDATALOAD SWAP4 SWAP3 POP POP POP JUMP JUMPDEST PUSH1 0x20 DUP1 DUP3 MSTORE DUP3 MLOAD DUP3 DUP3 ADD DUP2 SWAP1 MSTORE PUSH0 SWAP2 DUP5 ADD SWAP1 PUSH1 0x40 DUP5 ADD SWAP1 DUP4 JUMPDEST DUP2 DUP2 LT ISZERO PUSH2 0x446F JUMPI DUP4 MLOAD DUP1 MLOAD DUP5 MSTORE PUSH1 0x20 DUP2 ADD MLOAD PUSH1 0x20 DUP6 ADD MSTORE PUSH1 0x40 DUP2 ADD MLOAD PUSH1 0x40 DUP6 ADD MSTORE PUSH1 0x60 DUP2 ADD MLOAD PUSH1 0x60 DUP6 ADD MSTORE PUSH1 0x80 DUP2 ADD MLOAD PUSH1 0x80 DUP6 ADD MSTORE PUSH1 0xA0 DUP2 ADD MLOAD PUSH1 0xA0 DUP6 ADD MSTORE PUSH1 0xC0 DUP2 ADD MLOAD PUSH1 0xC0 DUP6 ADD MSTORE POP PUSH1 0xE0 DUP4 ADD SWAP3 POP PUSH1 0x20 DUP5 ADD SWAP4 POP PUSH1 0x1 DUP2 ADD SWAP1 POP PUSH2 0x4895 JUMP JUMPDEST DUP15 DUP2 MSTORE PUSH1 0x1 PUSH1 0x1 PUSH1 0xA0 SHL SUB DUP15 AND PUSH1 0x20 DUP3 ADD MSTORE PUSH1 0x40 DUP2 ADD DUP14 SWAP1 MSTORE PUSH1 0x60 DUP2 ADD DUP13 SWAP1 MSTORE PUSH1 0x80 DUP2 ADD DUP12 SWAP1 MSTORE PUSH1 0xA0 DUP2 ADD DUP11 SWAP1 MSTORE PUSH1 0xC0 DUP2 ADD DUP10 SWAP1 MSTORE PUSH1 0xE0 DUP2 ADD DUP9 SWAP1 MSTORE PUSH2 0x100 DUP2 ADD DUP8 SWAP1 MSTORE DUP6 ISZERO ISZERO PUSH2 0x120 DUP3 ADD MSTORE DUP5 ISZERO ISZERO PUSH2 0x140 DUP3 ADD MSTORE PUSH2 0x1C0 DUP2 ADD DUP5 PUSH2 0x160 DUP4 ADD MSTORE PUSH2 0x4968 PUSH2 0x180 DUP4 ADD DUP6 ISZERO ISZERO SWAP1 MSTORE JUMP JUMPDEST DUP3 PUSH2 0x1A0 DUP4 ADD MSTORE SWAP16 SWAP15 POP POP POP POP POP POP POP POP POP POP POP POP POP POP POP JUMP JUMPDEST PUSH1 0x20 DUP1 DUP3 MSTORE DUP3 MLOAD DUP3 DUP3 ADD DUP2 SWAP1 MSTORE PUSH0 SWAP2 DUP5 ADD SWAP1 PUSH1 0x40 DUP5 ADD SWAP1 DUP4 JUMPDEST DUP2 DUP2 LT ISZERO PUSH2 0x446F JUMPI DUP4 MLOAD DUP4 MSTORE PUSH1 0x20 SWAP4 DUP5 ADD SWAP4 SWAP1 SWAP3 ADD SWAP2 PUSH1 0x1 ADD PUSH2 0x499B JUMP JUMPDEST PUSH1 0x20 DUP1 DUP3 MSTORE PUSH1 0xA SWAP1 DUP3 ADD MSTORE PUSH10 0x27B7363C9037BBB732B9 PUSH1 0xB1 SHL PUSH1 0x40 DUP3 ADD MSTORE PUSH1 0x60 ADD SWAP1 JUMP JUMPDEST PUSH1 0x20 DUP1 DUP3 MSTORE PUSH1 0xB SWAP1 DUP3 ADD MSTORE PUSH11 0x52617465203E2031303025 PUSH1 0xA8 SHL PUSH1 0x40 DUP3 ADD MSTORE PUSH1 0x60 ADD SWAP1 JUMP JUMPDEST PUSH4 0x4E487B71 PUSH1 0xE0 SHL PUSH0 MSTORE PUSH1 0x11 PUSH1 0x4 MSTORE PUSH1 0x24 PUSH0 REVERT JUMPDEST DUP2 DUP2 SUB DUP2 DUP2 GT ISZERO PUSH2 0x1AE5 JUMPI PUSH2 0x1AE5 PUSH2 0x4A02 JUMP JUMPDEST PUSH4 0x4E487B71 PUSH1 0xE0 SHL PUSH0 MSTORE PUSH1 0x32 PUSH1 0x4 MSTORE PUSH1 0x24 PUSH0 REVERT JUMPDEST DUP1 DUP3 ADD DUP1 DUP3 GT ISZERO PUSH2 0x1AE5 JUMPI PUSH2 0x1AE5 PUSH2 0x4A02 JUMP JUMPDEST PUSH1 0x20 DUP1 DUP3 MSTORE PUSH1 0x9 SWAP1 DUP3 ADD MSTORE PUSH9 0x2737BA1037BBB732B9 PUSH1 0xB9 SHL PUSH1 0x40 DUP3 ADD MSTORE PUSH1 0x60 ADD SWAP1 JUMP JUMPDEST PUSH1 0x20 DUP1 DUP3 MSTORE PUSH1 0xA SWAP1 DUP3 ADD MSTORE PUSH10 0x456D7074792062616E6B PUSH1 0xB0 SHL PUSH1 0x40 DUP3 ADD MSTORE PUSH1 0x60 ADD SWAP1 JUMP JUMPDEST PUSH0 PUSH1 0x20 DUP3 DUP5 SUB SLT ISZERO PUSH2 0x4AA7 JUMPI PUSH0 PUSH0 REVERT JUMPDEST DUP2 MLOAD PUSH2 0x1E9B DUP2 PUSH2 0x42A6 JUMP JUMPDEST PUSH1 0x20 DUP1 DUP3 MSTORE PUSH1 0xF SWAP1 DUP3 ADD MSTORE PUSH15 0x151C985B9CD9995C8819985A5B1959 PUSH1 0x8A SHL PUSH1 0x40 DUP3 ADD MSTORE PUSH1 0x60 ADD SWAP1 JUMP JUMPDEST DUP1 DUP3 MUL DUP2 ISZERO DUP3 DUP3 DIV DUP5 EQ OR PUSH2 0x1AE5 JUMPI PUSH2 0x1AE5 PUSH2 0x4A02 JUMP JUMPDEST PUSH0 DUP3 PUSH2 0x4B0C JUMPI PUSH4 0x4E487B71 PUSH1 0xE0 SHL PUSH0 MSTORE PUSH1 0x12 PUSH1 0x4 MSTORE PUSH1 0x24 PUSH0 REVERT JUMPDEST POP DIV SWAP1 JUMP JUMPDEST PUSH0 PUSH1 0x20 DUP3 DUP5 SUB SLT ISZERO PUSH2 0x4B21 JUMPI PUSH0 PUSH0 REVERT JUMPDEST DUP2 MLOAD PUSH1 0xFF DUP2 AND DUP2 EQ PUSH2 0x1E9B JUMPI PUSH0 PUSH0 REVERT JUMPDEST PUSH0 PUSH1 0x20 DUP3 DUP5 SUB SLT ISZERO PUSH2 0x4B41 JUMPI PUSH0 PUSH0 REVERT JUMPDEST DUP2 MLOAD PUSH1 0x1 PUSH1 0x1 PUSH1 0x40 SHL SUB DUP2 GT ISZERO PUSH2 0x4B56 JUMPI PUSH0 PUSH0 REVERT JUMPDEST DUP3 ADD PUSH1 0x1F DUP2 ADD DUP5 SGT PUSH2 0x4B66 JUMPI PUSH0 PUSH0 REVERT JUMPDEST DUP1 MLOAD PUSH1 0x1 PUSH1 0x1 PUSH1 0x40 SHL SUB DUP2 GT ISZERO PUSH2 0x4B7F JUMPI PUSH2 0x4B7F PUSH2 0x433E JUMP JUMPDEST PUSH2 0x4B92 PUSH1 0x1F DUP3 ADD PUSH1 0x1F NOT AND PUSH1 0x20 ADD PUSH2 0x4352 JUMP JUMPDEST DUP2 DUP2 MSTORE DUP6 PUSH1 0x20 DUP4 DUP6 ADD ADD GT ISZERO PUSH2 0x4BA6 JUMPI PUSH0 PUSH0 REVERT JUMPDEST DUP2 PUSH1 0x20 DUP5 ADD PUSH1 0x20 DUP4 ADD MCOPY PUSH0 SWAP2 DUP2 ADD PUSH1 0x20 ADD SWAP2 SWAP1 SWAP2 MSTORE SWAP5 SWAP4 POP POP POP POP JUMP JUMPDEST PUSH1 0x20 DUP1 DUP3 MSTORE PUSH1 0x8 SWAP1 DUP3 ADD MSTORE PUSH8 0x496E616374697665 PUSH1 0xC0 SHL PUSH1 0x40 DUP3 ADD MSTORE PUSH1 0x60 ADD SWAP1 JUMP JUMPDEST PUSH0 DUP2 PUSH2 0x4BF3 JUMPI PUSH2 0x4BF3 PUSH2 0x4A02 JUMP JUMPDEST POP PUSH0 NOT ADD SWAP1 JUMP JUMPDEST PUSH1 0x20 DUP1 DUP3 MSTORE PUSH1 0x2 SWAP1 DUP3 ADD MSTORE PUSH2 0x4531 PUSH1 0xF0 SHL PUSH1 0x40 DUP3 ADD MSTORE PUSH1 0x60 ADD SWAP1 JUMP JUMPDEST PUSH4 0x4E487B71 PUSH1 0xE0 SHL PUSH0 MSTORE PUSH1 0x31 PUSH1 0x4 MSTORE PUSH1 0x24 PUSH0 REVERT JUMPDEST PUSH0 PUSH1 0x1 DUP3 ADD PUSH2 0x4C3B JUMPI PUSH2 0x4C3B PUSH2 0x4A02 JUMP JUMPDEST POP PUSH1 0x1 ADD SWAP1 JUMP INVALID LOG2 PUSH5 0x6970667358 0x22 SLT KECCAK256 DELEGATECALL 0xDC PUSH1 0x51 SLT 0x28 0xAC DUP16 CALLDATASIZE DUP11 0xC1 0x23 0xB6 0xC2 BLOBBASEFEE SWAP8 CALLDATACOPY 0xBF EXTSTATICCALL LOG1 0xCF EXTDELEGATECALL PC 0xC1 0xB0 DATALOADN 0x2C6 0xB0 PUSH19 0x433B64736F6C634300081E0033000000000000 "
		},
		"gasEstimates": {
			"creation": {
				"codeDepositCost": "3915200",
				"executionCost": "infinite",
				"totalCost": "infinite"
			},
			"external": {
				"_getCurrentMonthIndex()": "infinite",
				"activeDeposits(uint256)": "4696",
				"activeDepositsCount()": "2372",
				"activeDepositsIndex(uint256)": "2493",
				"addMonth(uint256,uint256,uint256)": "infinite",
				"addMonthsBatch(uint256[],uint256[],uint256[])": "infinite",
				"addTokensToBank(uint256)": "infinite",
				"allUsers(uint256)": "4723",
				"bankAmount()": "2373",
				"byOracle(uint256)": "2582",
				"calculatePendingRewardForDeposit(uint256)": "infinite",
				"calculateReward(uint256,uint256,uint256,uint256)": "infinite",
				"calculateRewardByMonths(uint256,uint256,uint256)": "infinite",
				"cancelDeposit(uint256)": "infinite",
				"createDeposit(uint256,uint256)": "infinite",
				"createDepositFor(address,uint256,uint256,bool,uint256)": "infinite",
				"deleteLastMonth()": "53504",
				"deposits(uint256)": "30529",
				"depositsAmount()": "2437",
				"depositsRewardEarned(uint256)": "2536",
				"editMonth(uint256,uint256,uint256,uint256)": "infinite",
				"estimateRequiredBankReserve()": "4661",
				"estimateRequiredBankReservePrecise()": "infinite",
				"getActiveDeposits(uint256,uint256)": "infinite",
				"getActiveDepositsCount()": "2391",
				"getAllUsers()": "infinite",
				"getDepositById(uint256)": "infinite",
				"getDeposits(uint256,uint256)": "infinite",
				"getDepositsRewardEarned(uint256[])": "infinite",
				"getMonths(uint256,uint256)": "infinite",
				"getMonthsCount()": "2370",
				"getSavedReward(uint256)": "infinite",
				"getSummaryInfo()": "infinite",
				"getTotalDeposits()": "2349",
				"getTotalUsers()": "2348",
				"getUserDeposits(address,uint256,uint256)": "infinite",
				"getUserDepositsCount(address)": "2612",
				"getUserDepositsIds(address)": "infinite",
				"getUsers(uint256,uint256)": "infinite",
				"getUsersCount()": "2414",
				"globalRateBps()": "2393",
				"isUser(address)": "2640",
				"lastKnownMonthIndex()": "2353",
				"minLockAmount()": "2419",
				"minLockMonths()": "2415",
				"monthDepositsAmount(uint256)": "2514",
				"monthDepositsCount(uint256)": "2514",
				"monthRewardsAmount(uint256)": "2491",
				"months(uint256)": "8923",
				"oracle()": "2405",
				"owner()": "2449",
				"recoverToken(address,uint256)": "infinite",
				"rewardsPayed()": "2396",
				"safeDeposit(uint256)": "infinite",
				"setGlobalRateBps(uint256)": "25687",
				"setMinLockAmount(uint256)": "24553",
				"setMinLockMonths(uint256)": "24552",
				"setOracle(address)": "26864",
				"setStakeOracle(address)": "26821",
				"stakeOracle()": "2471",
				"stakingToken()": "infinite",
				"transferOwnership(address)": "26832",
				"userDeposits(address,uint256)": "4794",
				"withdrawBank(uint256)": "infinite",
				"withdrawPrincipalAndRewards(uint256)": "infinite",
				"withdrawRewardsOnly(uint256)": "infinite"
			},
			"internal": {
				"_addSingleMonth(uint256,uint256,uint256)": "infinite",
				"_createDeposit(address,uint256,uint256,bool,uint256,bool)": "infinite",
				"_findLastCompletedMonth(uint256,uint256)": "infinite",
				"_getCurrentMonthIndexAt(uint256)": "infinite",
				"_getEffectiveRateBps(uint256)": "6456",
				"_removeFromActiveDeposits(uint256)": "89530"
			}
		},
		"methodIdentifiers": {
			"_getCurrentMonthIndex()": "a5c62cb4",
			"activeDeposits(uint256)": "90693ca7",
			"activeDepositsCount()": "ccbd0007",
			"activeDepositsIndex(uint256)": "23e0ceb2",
			"addMonth(uint256,uint256,uint256)": "23b28a54",
			"addMonthsBatch(uint256[],uint256[],uint256[])": "2ffb3d2a",
			"addTokensToBank(uint256)": "91ba50cd",
			"allUsers(uint256)": "a2bdedf4",
			"bankAmount()": "b42a275e",
			"byOracle(uint256)": "1cc39d57",
			"calculatePendingRewardForDeposit(uint256)": "2e0e3064",
			"calculateReward(uint256,uint256,uint256,uint256)": "7196d3e2",
			"calculateRewardByMonths(uint256,uint256,uint256)": "dd4824a8",
			"cancelDeposit(uint256)": "72fada5c",
			"createDeposit(uint256,uint256)": "b18e71f2",
			"createDepositFor(address,uint256,uint256,bool,uint256)": "06f960bb",
			"deleteLastMonth()": "a9783cd7",
			"deposits(uint256)": "b02c43d0",
			"depositsAmount()": "fe4ab90a",
			"depositsRewardEarned(uint256)": "2290d577",
			"editMonth(uint256,uint256,uint256,uint256)": "05a163b6",
			"estimateRequiredBankReserve()": "8c90926f",
			"estimateRequiredBankReservePrecise()": "d188e3ae",
			"getActiveDeposits(uint256,uint256)": "4106ee75",
			"getActiveDepositsCount()": "d7d43c78",
			"getAllUsers()": "e2842d79",
			"getDepositById(uint256)": "1bfc7761",
			"getDeposits(uint256,uint256)": "d3752830",
			"getDepositsRewardEarned(uint256[])": "10aef812",
			"getMonths(uint256,uint256)": "4eff3d3d",
			"getMonthsCount()": "936d4ffa",
			"getSavedReward(uint256)": "1fb3bd93",
			"getSummaryInfo()": "36261236",
			"getTotalDeposits()": "168a4822",
			"getTotalUsers()": "9be572f6",
			"getUserDeposits(address,uint256,uint256)": "4698b883",
			"getUserDepositsCount(address)": "d6a13301",
			"getUserDepositsIds(address)": "c491eecd",
			"getUsers(uint256,uint256)": "45982a66",
			"getUsersCount()": "a4a1e263",
			"globalRateBps()": "f4f8c847",
			"isUser(address)": "4209fff1",
			"lastKnownMonthIndex()": "000d6386",
			"minLockAmount()": "08804275",
			"minLockMonths()": "f8799e1a",
			"monthDepositsAmount(uint256)": "9d13fa01",
			"monthDepositsCount(uint256)": "41aff23e",
			"monthRewardsAmount(uint256)": "ccaac244",
			"months(uint256)": "1d0205b8",
			"oracle()": "7dc0d1d0",
			"owner()": "8da5cb5b",
			"recoverToken(address,uint256)": "b29a8140",
			"rewardsPayed()": "1c5dc54c",
			"safeDeposit(uint256)": "647fc56c",
			"setGlobalRateBps(uint256)": "9521abc6",
			"setMinLockAmount(uint256)": "0f68ae40",
			"setMinLockMonths(uint256)": "4b4d7aa8",
			"setOracle(address)": "7adbf973",
			"setStakeOracle(address)": "94c92f6d",
			"stakeOracle()": "137760e4",
			"stakingToken()": "72f702f3",
			"transferOwnership(address)": "f2fde38b",
			"userDeposits(address,uint256)": "08f43333",
			"withdrawBank(uint256)": "be2ff4a9",
			"withdrawPrincipalAndRewards(uint256)": "6241ca79",
			"withdrawRewardsOnly(uint256)": "d3d83445"
		}
	},
	"abi": [
		{
			"inputs": [
				{
					"internalType": "address",
					"name": "_stakingToken",
					"type": "address"
				},
				{
					"internalType": "uint256",
					"name": "_globalRateBps",
					"type": "uint256"
				}
			],
			"stateMutability": "nonpayable",
			"type": "constructor"
		},
		{
			"inputs": [],
			"name": "ReentrancyGuardReentrantCall",
			"type": "error"
		},
		{
			"anonymous": false,
			"inputs": [
				{
					"indexed": false,
					"internalType": "uint256",
					"name": "depositId",
					"type": "uint256"
				},
				{
					"indexed": true,
					"internalType": "address",
					"name": "recipient",
					"type": "address"
				},
				{
					"indexed": false,
					"internalType": "uint256",
					"name": "amount",
					"type": "uint256"
				}
			],
			"name": "DepositCancelled",
			"type": "event"
		},
		{
			"anonymous": false,
			"inputs": [
				{
					"indexed": true,
					"internalType": "address",
					"name": "user",
					"type": "address"
				},
				{
					"indexed": false,
					"internalType": "uint256",
					"name": "depositId",
					"type": "uint256"
				},
				{
					"indexed": false,
					"internalType": "uint256",
					"name": "amount",
					"type": "uint256"
				},
				{
					"indexed": false,
					"internalType": "uint256",
					"name": "lockMonths",
					"type": "uint256"
				},
				{
					"indexed": false,
					"internalType": "uint256",
					"name": "unlockMonthIndex",
					"type": "uint256"
				}
			],
			"name": "DepositCreated",
			"type": "event"
		},
		{
			"anonymous": false,
			"inputs": [
				{
					"indexed": false,
					"internalType": "uint256",
					"name": "rateBps",
					"type": "uint256"
				}
			],
			"name": "GlobalRateUpdated",
			"type": "event"
		},
		{
			"anonymous": false,
			"inputs": [
				{
					"indexed": true,
					"internalType": "uint256",
					"name": "monthIndex",
					"type": "uint256"
				},
				{
					"indexed": false,
					"internalType": "uint256",
					"name": "start",
					"type": "uint256"
				},
				{
					"indexed": false,
					"internalType": "uint256",
					"name": "end",
					"type": "uint256"
				},
				{
					"indexed": false,
					"internalType": "uint256",
					"name": "rateBps",
					"type": "uint256"
				}
			],
			"name": "MonthAdded",
			"type": "event"
		},
		{
			"anonymous": false,
			"inputs": [
				{
					"indexed": false,
					"internalType": "uint256",
					"name": "lengthAfterDeletion",
					"type": "uint256"
				}
			],
			"name": "MonthDeleted",
			"type": "event"
		},
		{
			"anonymous": false,
			"inputs": [
				{
					"indexed": true,
					"internalType": "uint256",
					"name": "monthIndex",
					"type": "uint256"
				},
				{
					"indexed": false,
					"internalType": "uint256",
					"name": "start",
					"type": "uint256"
				},
				{
					"indexed": false,
					"internalType": "uint256",
					"name": "end",
					"type": "uint256"
				},
				{
					"indexed": false,
					"internalType": "uint256",
					"name": "rateBps",
					"type": "uint256"
				}
			],
			"name": "MonthEdited",
			"type": "event"
		},
		{
			"anonymous": false,
			"inputs": [
				{
					"indexed": false,
					"internalType": "uint256",
					"name": "startIndex",
					"type": "uint256"
				},
				{
					"indexed": false,
					"internalType": "uint256",
					"name": "endIndex",
					"type": "uint256"
				}
			],
			"name": "MonthsBatchAdded",
			"type": "event"
		},
		{
			"anonymous": false,
			"inputs": [
				{
					"indexed": true,
					"internalType": "address",
					"name": "user",
					"type": "address"
				},
				{
					"indexed": false,
					"internalType": "uint256",
					"name": "depositId",
					"type": "uint256"
				},
				{
					"indexed": false,
					"internalType": "uint256",
					"name": "amount",
					"type": "uint256"
				}
			],
			"name": "PrincipalWithdrawn",
			"type": "event"
		},
		{
			"anonymous": false,
			"inputs": [
				{
					"indexed": true,
					"internalType": "address",
					"name": "user",
					"type": "address"
				},
				{
					"indexed": false,
					"internalType": "uint256",
					"name": "depositId",
					"type": "uint256"
				},
				{
					"indexed": false,
					"internalType": "uint256",
					"name": "reward",
					"type": "uint256"
				}
			],
			"name": "RewardsWithdrawn",
			"type": "event"
		},
		{
			"anonymous": false,
			"inputs": [
				{
					"indexed": true,
					"internalType": "address",
					"name": "user",
					"type": "address"
				},
				{
					"indexed": false,
					"internalType": "uint256",
					"name": "depositId",
					"type": "uint256"
				},
				{
					"indexed": false,
					"internalType": "uint256",
					"name": "amount",
					"type": "uint256"
				},
				{
					"indexed": false,
					"internalType": "uint256",
					"name": "savedReward",
					"type": "uint256"
				}
			],
			"name": "SafeDeposit",
			"type": "event"
		},
		{
			"anonymous": false,
			"inputs": [
				{
					"indexed": true,
					"internalType": "address",
					"name": "user",
					"type": "address"
				},
				{
					"indexed": false,
					"internalType": "uint256",
					"name": "depositId",
					"type": "uint256"
				},
				{
					"indexed": false,
					"internalType": "uint256",
					"name": "reward",
					"type": "uint256"
				}
			],
			"name": "SavedRewardClaimed",
			"type": "event"
		},
		{
			"inputs": [],
			"name": "_getCurrentMonthIndex",
			"outputs": [
				{
					"internalType": "uint256",
					"name": "",
					"type": "uint256"
				}
			],
			"stateMutability": "view",
			"type": "function"
		},
		{
			"inputs": [
				{
					"internalType": "uint256",
					"name": "",
					"type": "uint256"
				}
			],
			"name": "activeDeposits",
			"outputs": [
				{
					"internalType": "uint256",
					"name": "",
					"type": "uint256"
				}
			],
			"stateMutability": "view",
			"type": "function"
		},
		{
			"inputs": [],
			"name": "activeDepositsCount",
			"outputs": [
				{
					"internalType": "uint256",
					"name": "",
					"type": "uint256"
				}
			],
			"stateMutability": "view",
			"type": "function"
		},
		{
			"inputs": [
				{
					"internalType": "uint256",
					"name": "",
					"type": "uint256"
				}
			],
			"name": "activeDepositsIndex",
			"outputs": [
				{
					"internalType": "uint256",
					"name": "",
					"type": "uint256"
				}
			],
			"stateMutability": "view",
			"type": "function"
		},
		{
			"inputs": [
				{
					"internalType": "uint256",
					"name": "start",
					"type": "uint256"
				},
				{
					"internalType": "uint256",
					"name": "end",
					"type": "uint256"
				},
				{
					"internalType": "uint256",
					"name": "rateBps",
					"type": "uint256"
				}
			],
			"name": "addMonth",
			"outputs": [],
			"stateMutability": "nonpayable",
			"type": "function"
		},
		{
			"inputs": [
				{
					"internalType": "uint256[]",
					"name": "starts",
					"type": "uint256[]"
				},
				{
					"internalType": "uint256[]",
					"name": "ends",
					"type": "uint256[]"
				},
				{
					"internalType": "uint256[]",
					"name": "rates",
					"type": "uint256[]"
				}
			],
			"name": "addMonthsBatch",
			"outputs": [],
			"stateMutability": "nonpayable",
			"type": "function"
		},
		{
			"inputs": [
				{
					"internalType": "uint256",
					"name": "amount",
					"type": "uint256"
				}
			],
			"name": "addTokensToBank",
			"outputs": [],
			"stateMutability": "nonpayable",
			"type": "function"
		},
		{
			"inputs": [
				{
					"internalType": "uint256",
					"name": "",
					"type": "uint256"
				}
			],
			"name": "allUsers",
			"outputs": [
				{
					"internalType": "address",
					"name": "",
					"type": "address"
				}
			],
			"stateMutability": "view",
			"type": "function"
		},
		{
			"inputs": [],
			"name": "bankAmount",
			"outputs": [
				{
					"internalType": "uint256",
					"name": "",
					"type": "uint256"
				}
			],
			"stateMutability": "view",
			"type": "function"
		},
		{
			"inputs": [
				{
					"internalType": "uint256",
					"name": "",
					"type": "uint256"
				}
			],
			"name": "byOracle",
			"outputs": [
				{
					"internalType": "bool",
					"name": "",
					"type": "bool"
				}
			],
			"stateMutability": "view",
			"type": "function"
		},
		{
			"inputs": [
				{
					"internalType": "uint256",
					"name": "depositId",
					"type": "uint256"
				}
			],
			"name": "calculatePendingRewardForDeposit",
			"outputs": [
				{
					"internalType": "uint256",
					"name": "",
					"type": "uint256"
				}
			],
			"stateMutability": "view",
			"type": "function"
		},
		{
			"inputs": [
				{
					"internalType": "uint256",
					"name": "amount",
					"type": "uint256"
				},
				{
					"internalType": "uint256",
					"name": "startMonthIdx",
					"type": "uint256"
				},
				{
					"internalType": "uint256",
					"name": "lockMonths",
					"type": "uint256"
				},
				{
					"internalType": "uint256",
					"name": "depositStart",
					"type": "uint256"
				}
			],
			"name": "calculateReward",
			"outputs": [
				{
					"internalType": "uint256",
					"name": "",
					"type": "uint256"
				}
			],
			"stateMutability": "view",
			"type": "function"
		},
		{
			"inputs": [
				{
					"internalType": "uint256",
					"name": "amount",
					"type": "uint256"
				},
				{
					"internalType": "uint256",
					"name": "lockMonths",
					"type": "uint256"
				},
				{
					"internalType": "uint256",
					"name": "depositStart",
					"type": "uint256"
				}
			],
			"name": "calculateRewardByMonths",
			"outputs": [
				{
					"internalType": "uint256",
					"name": "",
					"type": "uint256"
				}
			],
			"stateMutability": "view",
			"type": "function"
		},
		{
			"inputs": [
				{
					"internalType": "uint256",
					"name": "depositId",
					"type": "uint256"
				}
			],
			"name": "cancelDeposit",
			"outputs": [],
			"stateMutability": "nonpayable",
			"type": "function"
		},
		{
			"inputs": [
				{
					"internalType": "uint256",
					"name": "amount",
					"type": "uint256"
				},
				{
					"internalType": "uint256",
					"name": "lockMonths",
					"type": "uint256"
				}
			],
			"name": "createDeposit",
			"outputs": [],
			"stateMutability": "nonpayable",
			"type": "function"
		},
		{
			"inputs": [
				{
					"internalType": "address",
					"name": "user",
					"type": "address"
				},
				{
					"internalType": "uint256",
					"name": "amount",
					"type": "uint256"
				},
				{
					"internalType": "uint256",
					"name": "lockMonths",
					"type": "uint256"
				},
				{
					"internalType": "bool",
					"name": "ownRate",
					"type": "bool"
				},
				{
					"internalType": "uint256",
					"name": "rate",
					"type": "uint256"
				}
			],
			"name": "createDepositFor",
			"outputs": [],
			"stateMutability": "nonpayable",
			"type": "function"
		},
		{
			"inputs": [],
			"name": "deleteLastMonth",
			"outputs": [],
			"stateMutability": "nonpayable",
			"type": "function"
		},
		{
			"inputs": [
				{
					"internalType": "uint256",
					"name": "",
					"type": "uint256"
				}
			],
			"name": "deposits",
			"outputs": [
				{
					"internalType": "uint256",
					"name": "depositId",
					"type": "uint256"
				},
				{
					"internalType": "address",
					"name": "owner",
					"type": "address"
				},
				{
					"internalType": "uint256",
					"name": "amount",
					"type": "uint256"
				},
				{
					"internalType": "uint256",
					"name": "monthIndex",
					"type": "uint256"
				},
				{
					"internalType": "uint256",
					"name": "depositStart",
					"type": "uint256"
				},
				{
					"internalType": "uint256",
					"name": "depositClosed",
					"type": "uint256"
				},
				{
					"internalType": "uint256",
					"name": "unlockMonthIndex",
					"type": "uint256"
				},
				{
					"internalType": "uint256",
					"name": "lastAccruedMonthIdx",
					"type": "uint256"
				},
				{
					"internalType": "uint256",
					"name": "pendingReward",
					"type": "uint256"
				},
				{
					"internalType": "bool",
					"name": "active",
					"type": "bool"
				},
				{
					"internalType": "bool",
					"name": "isSaved",
					"type": "bool"
				},
				{
					"internalType": "uint256",
					"name": "savedReward",
					"type": "uint256"
				},
				{
					"internalType": "bool",
					"name": "ownRate",
					"type": "bool"
				},
				{
					"internalType": "uint256",
					"name": "rate",
					"type": "uint256"
				}
			],
			"stateMutability": "view",
			"type": "function"
		},
		{
			"inputs": [],
			"name": "depositsAmount",
			"outputs": [
				{
					"internalType": "uint256",
					"name": "",
					"type": "uint256"
				}
			],
			"stateMutability": "view",
			"type": "function"
		},
		{
			"inputs": [
				{
					"internalType": "uint256",
					"name": "",
					"type": "uint256"
				}
			],
			"name": "depositsRewardEarned",
			"outputs": [
				{
					"internalType": "uint256",
					"name": "",
					"type": "uint256"
				}
			],
			"stateMutability": "view",
			"type": "function"
		},
		{
			"inputs": [
				{
					"internalType": "uint256",
					"name": "idx",
					"type": "uint256"
				},
				{
					"internalType": "uint256",
					"name": "start",
					"type": "uint256"
				},
				{
					"internalType": "uint256",
					"name": "end",
					"type": "uint256"
				},
				{
					"internalType": "uint256",
					"name": "rateBps",
					"type": "uint256"
				}
			],
			"name": "editMonth",
			"outputs": [],
			"stateMutability": "nonpayable",
			"type": "function"
		},
		{
			"inputs": [],
			"name": "estimateRequiredBankReserve",
			"outputs": [
				{
					"internalType": "uint256",
					"name": "estimatedMonthlyRewards",
					"type": "uint256"
				}
			],
			"stateMutability": "view",
			"type": "function"
		},
		{
			"inputs": [],
			"name": "estimateRequiredBankReservePrecise",
			"outputs": [
				{
					"internalType": "uint256",
					"name": "",
					"type": "uint256"
				}
			],
			"stateMutability": "view",
			"type": "function"
		},
		{
			"inputs": [
				{
					"internalType": "uint256",
					"name": "_offset",
					"type": "uint256"
				},
				{
					"internalType": "uint256",
					"name": "_limit",
					"type": "uint256"
				}
			],
			"name": "getActiveDeposits",
			"outputs": [
				{
					"components": [
						{
							"internalType": "uint256",
							"name": "depositId",
							"type": "uint256"
						},
						{
							"internalType": "address",
							"name": "owner",
							"type": "address"
						},
						{
							"internalType": "uint256",
							"name": "amount",
							"type": "uint256"
						},
						{
							"internalType": "uint256",
							"name": "monthIndex",
							"type": "uint256"
						},
						{
							"internalType": "uint256",
							"name": "depositStart",
							"type": "uint256"
						},
						{
							"internalType": "uint256",
							"name": "depositClosed",
							"type": "uint256"
						},
						{
							"internalType": "uint256",
							"name": "unlockMonthIndex",
							"type": "uint256"
						},
						{
							"internalType": "uint256",
							"name": "lastAccruedMonthIdx",
							"type": "uint256"
						},
						{
							"internalType": "uint256",
							"name": "pendingReward",
							"type": "uint256"
						},
						{
							"internalType": "bool",
							"name": "active",
							"type": "bool"
						},
						{
							"internalType": "bool",
							"name": "isSaved",
							"type": "bool"
						},
						{
							"internalType": "uint256",
							"name": "savedReward",
							"type": "uint256"
						},
						{
							"internalType": "bool",
							"name": "ownRate",
							"type": "bool"
						},
						{
							"internalType": "uint256",
							"name": "rate",
							"type": "uint256"
						}
					],
					"internalType": "struct GGWStake.Deposit[]",
					"name": "ret",
					"type": "tuple[]"
				}
			],
			"stateMutability": "view",
			"type": "function"
		},
		{
			"inputs": [],
			"name": "getActiveDepositsCount",
			"outputs": [
				{
					"internalType": "uint256",
					"name": "",
					"type": "uint256"
				}
			],
			"stateMutability": "view",
			"type": "function"
		},
		{
			"inputs": [],
			"name": "getAllUsers",
			"outputs": [
				{
					"internalType": "address[]",
					"name": "",
					"type": "address[]"
				}
			],
			"stateMutability": "view",
			"type": "function"
		},
		{
			"inputs": [
				{
					"internalType": "uint256",
					"name": "depositId",
					"type": "uint256"
				}
			],
			"name": "getDepositById",
			"outputs": [
				{
					"components": [
						{
							"internalType": "uint256",
							"name": "depositId",
							"type": "uint256"
						},
						{
							"internalType": "address",
							"name": "owner",
							"type": "address"
						},
						{
							"internalType": "uint256",
							"name": "amount",
							"type": "uint256"
						},
						{
							"internalType": "uint256",
							"name": "monthIndex",
							"type": "uint256"
						},
						{
							"internalType": "uint256",
							"name": "depositStart",
							"type": "uint256"
						},
						{
							"internalType": "uint256",
							"name": "depositClosed",
							"type": "uint256"
						},
						{
							"internalType": "uint256",
							"name": "unlockMonthIndex",
							"type": "uint256"
						},
						{
							"internalType": "uint256",
							"name": "lastAccruedMonthIdx",
							"type": "uint256"
						},
						{
							"internalType": "uint256",
							"name": "pendingReward",
							"type": "uint256"
						},
						{
							"internalType": "bool",
							"name": "active",
							"type": "bool"
						},
						{
							"internalType": "bool",
							"name": "isSaved",
							"type": "bool"
						},
						{
							"internalType": "uint256",
							"name": "savedReward",
							"type": "uint256"
						},
						{
							"internalType": "bool",
							"name": "ownRate",
							"type": "bool"
						},
						{
							"internalType": "uint256",
							"name": "rate",
							"type": "uint256"
						}
					],
					"internalType": "struct GGWStake.Deposit",
					"name": "ret",
					"type": "tuple"
				}
			],
			"stateMutability": "view",
			"type": "function"
		},
		{
			"inputs": [
				{
					"internalType": "uint256",
					"name": "_offset",
					"type": "uint256"
				},
				{
					"internalType": "uint256",
					"name": "_limit",
					"type": "uint256"
				}
			],
			"name": "getDeposits",
			"outputs": [
				{
					"components": [
						{
							"internalType": "uint256",
							"name": "depositId",
							"type": "uint256"
						},
						{
							"internalType": "address",
							"name": "owner",
							"type": "address"
						},
						{
							"internalType": "uint256",
							"name": "amount",
							"type": "uint256"
						},
						{
							"internalType": "uint256",
							"name": "monthIndex",
							"type": "uint256"
						},
						{
							"internalType": "uint256",
							"name": "depositStart",
							"type": "uint256"
						},
						{
							"internalType": "uint256",
							"name": "depositClosed",
							"type": "uint256"
						},
						{
							"internalType": "uint256",
							"name": "unlockMonthIndex",
							"type": "uint256"
						},
						{
							"internalType": "uint256",
							"name": "lastAccruedMonthIdx",
							"type": "uint256"
						},
						{
							"internalType": "uint256",
							"name": "pendingReward",
							"type": "uint256"
						},
						{
							"internalType": "bool",
							"name": "active",
							"type": "bool"
						},
						{
							"internalType": "bool",
							"name": "isSaved",
							"type": "bool"
						},
						{
							"internalType": "uint256",
							"name": "savedReward",
							"type": "uint256"
						},
						{
							"internalType": "bool",
							"name": "ownRate",
							"type": "bool"
						},
						{
							"internalType": "uint256",
							"name": "rate",
							"type": "uint256"
						}
					],
					"internalType": "struct GGWStake.Deposit[]",
					"name": "ret",
					"type": "tuple[]"
				}
			],
			"stateMutability": "view",
			"type": "function"
		},
		{
			"inputs": [
				{
					"internalType": "uint256[]",
					"name": "depositsIds",
					"type": "uint256[]"
				}
			],
			"name": "getDepositsRewardEarned",
			"outputs": [
				{
					"components": [
						{
							"internalType": "uint256",
							"name": "depositId",
							"type": "uint256"
						},
						{
							"internalType": "uint256",
							"name": "earned",
							"type": "uint256"
						}
					],
					"internalType": "struct GGWStake.DepositRewardEarned[]",
					"name": "ret",
					"type": "tuple[]"
				}
			],
			"stateMutability": "view",
			"type": "function"
		},
		{
			"inputs": [
				{
					"internalType": "uint256",
					"name": "_offset",
					"type": "uint256"
				},
				{
					"internalType": "uint256",
					"name": "_limit",
					"type": "uint256"
				}
			],
			"name": "getMonths",
			"outputs": [
				{
					"components": [
						{
							"internalType": "uint256",
							"name": "monthId",
							"type": "uint256"
						},
						{
							"internalType": "uint256",
							"name": "start",
							"type": "uint256"
						},
						{
							"internalType": "uint256",
							"name": "end",
							"type": "uint256"
						},
						{
							"internalType": "uint256",
							"name": "rateBps",
							"type": "uint256"
						},
						{
							"internalType": "uint256",
							"name": "depositsCount",
							"type": "uint256"
						},
						{
							"internalType": "uint256",
							"name": "depositsAmount",
							"type": "uint256"
						},
						{
							"internalType": "uint256",
							"name": "rewardsAmount",
							"type": "uint256"
						}
					],
					"internalType": "struct GGWStake.MonthSummaryInfo[]",
					"name": "ret",
					"type": "tuple[]"
				}
			],
			"stateMutability": "view",
			"type": "function"
		},
		{
			"inputs": [],
			"name": "getMonthsCount",
			"outputs": [
				{
					"internalType": "uint256",
					"name": "",
					"type": "uint256"
				}
			],
			"stateMutability": "view",
			"type": "function"
		},
		{
			"inputs": [
				{
					"internalType": "uint256",
					"name": "depositId",
					"type": "uint256"
				}
			],
			"name": "getSavedReward",
			"outputs": [],
			"stateMutability": "nonpayable",
			"type": "function"
		},
		{
			"inputs": [],
			"name": "getSummaryInfo",
			"outputs": [
				{
					"components": [
						{
							"internalType": "uint256",
							"name": "usersCount",
							"type": "uint256"
						},
						{
							"internalType": "uint256",
							"name": "activeDepositsCount",
							"type": "uint256"
						},
						{
							"internalType": "uint256",
							"name": "depositsCount",
							"type": "uint256"
						},
						{
							"internalType": "uint256",
							"name": "depositsAmount",
							"type": "uint256"
						},
						{
							"internalType": "uint256",
							"name": "rewardsPayed",
							"type": "uint256"
						},
						{
							"internalType": "uint256",
							"name": "bankAmount",
							"type": "uint256"
						},
						{
							"internalType": "uint8",
							"name": "tokenDecimals",
							"type": "uint8"
						},
						{
							"internalType": "string",
							"name": "tokenName",
							"type": "string"
						},
						{
							"internalType": "string",
							"name": "tokenSymbol",
							"type": "string"
						},
						{
							"internalType": "address",
							"name": "tokenAddress",
							"type": "address"
						},
						{
							"internalType": "uint256",
							"name": "globalRateBps",
							"type": "uint256"
						},
						{
							"internalType": "uint256",
							"name": "minLockMonths",
							"type": "uint256"
						},
						{
							"internalType": "uint256",
							"name": "minLockAmount",
							"type": "uint256"
						},
						{
							"internalType": "uint256",
							"name": "estimateRequiredBankReserve",
							"type": "uint256"
						},
						{
							"internalType": "uint256",
							"name": "estimateRequiredBankReservePrecise",
							"type": "uint256"
						},
						{
							"internalType": "uint256",
							"name": "currentMonth",
							"type": "uint256"
						},
						{
							"internalType": "uint256",
							"name": "monthsCount",
							"type": "uint256"
						}
					],
					"internalType": "struct GGWStake.SummaryInfo",
					"name": "",
					"type": "tuple"
				}
			],
			"stateMutability": "view",
			"type": "function"
		},
		{
			"inputs": [],
			"name": "getTotalDeposits",
			"outputs": [
				{
					"internalType": "uint256",
					"name": "",
					"type": "uint256"
				}
			],
			"stateMutability": "view",
			"type": "function"
		},
		{
			"inputs": [],
			"name": "getTotalUsers",
			"outputs": [
				{
					"internalType": "uint256",
					"name": "",
					"type": "uint256"
				}
			],
			"stateMutability": "view",
			"type": "function"
		},
		{
			"inputs": [
				{
					"internalType": "address",
					"name": "user",
					"type": "address"
				},
				{
					"internalType": "uint256",
					"name": "_offset",
					"type": "uint256"
				},
				{
					"internalType": "uint256",
					"name": "_limit",
					"type": "uint256"
				}
			],
			"name": "getUserDeposits",
			"outputs": [
				{
					"components": [
						{
							"internalType": "uint256",
							"name": "depositId",
							"type": "uint256"
						},
						{
							"internalType": "address",
							"name": "owner",
							"type": "address"
						},
						{
							"internalType": "uint256",
							"name": "amount",
							"type": "uint256"
						},
						{
							"internalType": "uint256",
							"name": "monthIndex",
							"type": "uint256"
						},
						{
							"internalType": "uint256",
							"name": "depositStart",
							"type": "uint256"
						},
						{
							"internalType": "uint256",
							"name": "depositClosed",
							"type": "uint256"
						},
						{
							"internalType": "uint256",
							"name": "unlockMonthIndex",
							"type": "uint256"
						},
						{
							"internalType": "uint256",
							"name": "lastAccruedMonthIdx",
							"type": "uint256"
						},
						{
							"internalType": "uint256",
							"name": "pendingReward",
							"type": "uint256"
						},
						{
							"internalType": "bool",
							"name": "active",
							"type": "bool"
						},
						{
							"internalType": "bool",
							"name": "isSaved",
							"type": "bool"
						},
						{
							"internalType": "uint256",
							"name": "savedReward",
							"type": "uint256"
						},
						{
							"internalType": "bool",
							"name": "ownRate",
							"type": "bool"
						},
						{
							"internalType": "uint256",
							"name": "rate",
							"type": "uint256"
						}
					],
					"internalType": "struct GGWStake.Deposit[]",
					"name": "ret",
					"type": "tuple[]"
				}
			],
			"stateMutability": "view",
			"type": "function"
		},
		{
			"inputs": [
				{
					"internalType": "address",
					"name": "user",
					"type": "address"
				}
			],
			"name": "getUserDepositsCount",
			"outputs": [
				{
					"internalType": "uint256",
					"name": "",
					"type": "uint256"
				}
			],
			"stateMutability": "view",
			"type": "function"
		},
		{
			"inputs": [
				{
					"internalType": "address",
					"name": "user",
					"type": "address"
				}
			],
			"name": "getUserDepositsIds",
			"outputs": [
				{
					"internalType": "uint256[]",
					"name": "",
					"type": "uint256[]"
				}
			],
			"stateMutability": "view",
			"type": "function"
		},
		{
			"inputs": [
				{
					"internalType": "uint256",
					"name": "_offset",
					"type": "uint256"
				},
				{
					"internalType": "uint256",
					"name": "_limit",
					"type": "uint256"
				}
			],
			"name": "getUsers",
			"outputs": [
				{
					"internalType": "address[]",
					"name": "ret",
					"type": "address[]"
				}
			],
			"stateMutability": "view",
			"type": "function"
		},
		{
			"inputs": [],
			"name": "getUsersCount",
			"outputs": [
				{
					"internalType": "uint256",
					"name": "",
					"type": "uint256"
				}
			],
			"stateMutability": "view",
			"type": "function"
		},
		{
			"inputs": [],
			"name": "globalRateBps",
			"outputs": [
				{
					"internalType": "uint256",
					"name": "",
					"type": "uint256"
				}
			],
			"stateMutability": "view",
			"type": "function"
		},
		{
			"inputs": [
				{
					"internalType": "address",
					"name": "",
					"type": "address"
				}
			],
			"name": "isUser",
			"outputs": [
				{
					"internalType": "bool",
					"name": "",
					"type": "bool"
				}
			],
			"stateMutability": "view",
			"type": "function"
		},
		{
			"inputs": [],
			"name": "lastKnownMonthIndex",
			"outputs": [
				{
					"internalType": "uint256",
					"name": "",
					"type": "uint256"
				}
			],
			"stateMutability": "view",
			"type": "function"
		},
		{
			"inputs": [],
			"name": "minLockAmount",
			"outputs": [
				{
					"internalType": "uint256",
					"name": "",
					"type": "uint256"
				}
			],
			"stateMutability": "view",
			"type": "function"
		},
		{
			"inputs": [],
			"name": "minLockMonths",
			"outputs": [
				{
					"internalType": "uint256",
					"name": "",
					"type": "uint256"
				}
			],
			"stateMutability": "view",
			"type": "function"
		},
		{
			"inputs": [
				{
					"internalType": "uint256",
					"name": "",
					"type": "uint256"
				}
			],
			"name": "monthDepositsAmount",
			"outputs": [
				{
					"internalType": "uint256",
					"name": "",
					"type": "uint256"
				}
			],
			"stateMutability": "view",
			"type": "function"
		},
		{
			"inputs": [
				{
					"internalType": "uint256",
					"name": "",
					"type": "uint256"
				}
			],
			"name": "monthDepositsCount",
			"outputs": [
				{
					"internalType": "uint256",
					"name": "",
					"type": "uint256"
				}
			],
			"stateMutability": "view",
			"type": "function"
		},
		{
			"inputs": [
				{
					"internalType": "uint256",
					"name": "",
					"type": "uint256"
				}
			],
			"name": "monthRewardsAmount",
			"outputs": [
				{
					"internalType": "uint256",
					"name": "",
					"type": "uint256"
				}
			],
			"stateMutability": "view",
			"type": "function"
		},
		{
			"inputs": [
				{
					"internalType": "uint256",
					"name": "",
					"type": "uint256"
				}
			],
			"name": "months",
			"outputs": [
				{
					"internalType": "uint256",
					"name": "start",
					"type": "uint256"
				},
				{
					"internalType": "uint256",
					"name": "end",
					"type": "uint256"
				},
				{
					"internalType": "uint256",
					"name": "rateBps",
					"type": "uint256"
				}
			],
			"stateMutability": "view",
			"type": "function"
		},
		{
			"inputs": [],
			"name": "oracle",
			"outputs": [
				{
					"internalType": "address",
					"name": "",
					"type": "address"
				}
			],
			"stateMutability": "view",
			"type": "function"
		},
		{
			"inputs": [],
			"name": "owner",
			"outputs": [
				{
					"internalType": "address",
					"name": "",
					"type": "address"
				}
			],
			"stateMutability": "view",
			"type": "function"
		},
		{
			"inputs": [
				{
					"internalType": "address",
					"name": "token",
					"type": "address"
				},
				{
					"internalType": "uint256",
					"name": "amount",
					"type": "uint256"
				}
			],
			"name": "recoverToken",
			"outputs": [],
			"stateMutability": "nonpayable",
			"type": "function"
		},
		{
			"inputs": [],
			"name": "rewardsPayed",
			"outputs": [
				{
					"internalType": "uint256",
					"name": "",
					"type": "uint256"
				}
			],
			"stateMutability": "view",
			"type": "function"
		},
		{
			"inputs": [
				{
					"internalType": "uint256",
					"name": "depositId",
					"type": "uint256"
				}
			],
			"name": "safeDeposit",
			"outputs": [],
			"stateMutability": "nonpayable",
			"type": "function"
		},
		{
			"inputs": [
				{
					"internalType": "uint256",
					"name": "_rateBps",
					"type": "uint256"
				}
			],
			"name": "setGlobalRateBps",
			"outputs": [],
			"stateMutability": "nonpayable",
			"type": "function"
		},
		{
			"inputs": [
				{
					"internalType": "uint256",
					"name": "newMinLockAmount",
					"type": "uint256"
				}
			],
			"name": "setMinLockAmount",
			"outputs": [],
			"stateMutability": "nonpayable",
			"type": "function"
		},
		{
			"inputs": [
				{
					"internalType": "uint256",
					"name": "newMinLockMonths",
					"type": "uint256"
				}
			],
			"name": "setMinLockMonths",
			"outputs": [],
			"stateMutability": "nonpayable",
			"type": "function"
		},
		{
			"inputs": [
				{
					"internalType": "address",
					"name": "newOracle",
					"type": "address"
				}
			],
			"name": "setOracle",
			"outputs": [],
			"stateMutability": "nonpayable",
			"type": "function"
		},
		{
			"inputs": [
				{
					"internalType": "address",
					"name": "newStakeOracle",
					"type": "address"
				}
			],
			"name": "setStakeOracle",
			"outputs": [],
			"stateMutability": "nonpayable",
			"type": "function"
		},
		{
			"inputs": [],
			"name": "stakeOracle",
			"outputs": [
				{
					"internalType": "address",
					"name": "",
					"type": "address"
				}
			],
			"stateMutability": "view",
			"type": "function"
		},
		{
			"inputs": [],
			"name": "stakingToken",
			"outputs": [
				{
					"internalType": "contract IERC20",
					"name": "",
					"type": "address"
				}
			],
			"stateMutability": "view",
			"type": "function"
		},
		{
			"inputs": [
				{
					"internalType": "address",
					"name": "newOwner",
					"type": "address"
				}
			],
			"name": "transferOwnership",
			"outputs": [],
			"stateMutability": "nonpayable",
			"type": "function"
		},
		{
			"inputs": [
				{
					"internalType": "address",
					"name": "",
					"type": "address"
				},
				{
					"internalType": "uint256",
					"name": "",
					"type": "uint256"
				}
			],
			"name": "userDeposits",
			"outputs": [
				{
					"internalType": "uint256",
					"name": "",
					"type": "uint256"
				}
			],
			"stateMutability": "view",
			"type": "function"
		},
		{
			"inputs": [
				{
					"internalType": "uint256",
					"name": "amount",
					"type": "uint256"
				}
			],
			"name": "withdrawBank",
			"outputs": [],
			"stateMutability": "nonpayable",
			"type": "function"
		},
		{
			"inputs": [
				{
					"internalType": "uint256",
					"name": "depositId",
					"type": "uint256"
				}
			],
			"name": "withdrawPrincipalAndRewards",
			"outputs": [],
			"stateMutability": "nonpayable",
			"type": "function"
		},
		{
			"inputs": [
				{
					"internalType": "uint256",
					"name": "depositId",
					"type": "uint256"
				}
			],
			"name": "withdrawRewardsOnly",
			"outputs": [],
			"stateMutability": "nonpayable",
			"type": "function"
		}
	]
}