{
	"data": {
		"bytecode": {
			"linkReferences": {},
			"object": "60a06040526001600455670de0b6b3a76400006005555f600955348015610024575f5ffd5b506040516142f13803806142f183398101604081905261004391610109565b60015f556001600160a01b0382166100905760405162461bcd60e51b815260206004820152600b60248201526a546f6b656e3a207a65726f60a81b60448201526064015b60405180910390fd5b6127108111156100d05760405162461bcd60e51b815260206004820152600b60248201526a52617465203e203130302560a81b6044820152606401610087565b60018054336001600160a01b031991821681179092556002805490911690911790556001600160a01b0391909116608052600355610140565b5f5f6040838503121561011a575f5ffd5b82516001600160a01b0381168114610130575f5ffd5b6020939093015192949293505050565b60805161415a6101975f395f81816105d401528181610e5d01528181611bc801528181611e35015281816121f0015281816123dc0152818161274d015281816128a901528181612d860152613295015261415a5ff3fe608060405234801561000f575f5ffd5b506004361061037c575f3560e01c80638c90926f116101d4578063be2ff4a911610109578063d6a13301116100a9578063f2fde38b11610079578063f2fde38b1461080d578063f4f8c84714610820578063f8799e1a14610829578063fe4ab90a14610832575f5ffd5b8063d6a13301146107c2578063d7d43c78146107ea578063dd4824a8146107f2578063e2842d7914610805575f5ffd5b8063ccbd0007116100e4578063ccbd00071461078b578063d188e3ae14610794578063d37528301461079c578063d3d83445146107af575f5ffd5b8063be2ff4a914610739578063c491eecd1461074c578063ccaac2441461076c575f5ffd5b8063a2bdedf411610174578063b02c43d01161014f578063b02c43d0146106dd578063b18e71f21461070a578063b29a81401461071d578063b42a275e14610730575f5ffd5b8063a2bdedf4146106c2578063a4a1e2631461069b578063a9783cd7146106d5575f5ffd5b806391ba50cd116101af57806391ba50cd146106755780639521abc6146106885780639be572f61461069b5780639d13fa01146106a3575f5ffd5b80638c90926f146106475780638da5cb5b1461064f57806390693ca714610662575f5ffd5b80632e0e3064116102b55780634b4d7aa81161025557806372f702f31161022557806372f702f3146105cf57806372fada5c1461060e5780637adbf973146106215780637dc0d1d014610634575f5ffd5b80634b4d7aa8146105835780636241ca7914610596578063647fc56c146105a95780637196d3e2146105bc575f5ffd5b806341aff23e1161029057806341aff23e1461050f5780634209fff11461052e57806345982a66146105505780634698b88314610570575f5ffd5b80632e0e3064146104c95780632ffb3d2a146104dc5780634106ee75146104ef575f5ffd5b80631bfc7761116103205780631d0205b8116102fb5780631d0205b8146104565780631fb3bd931461048457806323b28a541461049757806323e0ceb2146104aa575f5ffd5b80631bfc7761146103fb5780631c5dc54c1461041b5780631cc39d5714610424575f5ffd5b8063088042751161035b57806308804275146103c457806308f43333146103cd5780630f68ae40146103e0578063168a4822146103f3575f5ffd5b80620d63861461038057806305a163b61461039c57806306f960bb146103b1575b5f5ffd5b61038960095481565b6040519081526020015b60405180910390f35b6103af6103aa366004613abe565b61083b565b005b6103af6103bf366004613b15565b610aca565b61038960055481565b6103896103db366004613b61565b610b7f565b6103af6103ee366004613b89565b610baa565b600a54610389565b61040e610409366004613b89565b610bd9565b6040516103939190613c61565b61038960105481565b610446610432366004613b89565b600b6020525f908152604090205460ff1681565b6040519015158152602001610393565b610469610464366004613b89565b610cce565b60408051938452602084019290925290820152606001610393565b6103af610492366004613b89565b610cff565b6103af6104a5366004613c70565b610f59565b6103896104b8366004613b89565b600d6020525f908152604090205481565b6103896104d7366004613b89565b610fe3565b6103af6104ea366004613ce1565b611257565b6105026104fd366004613d80565b6113c7565b6040516103939190613da0565b61038961051d366004613b89565b60136020525f908152604090205481565b61044661053c366004613dee565b60076020525f908152604090205460ff1681565b61056361055e366004613d80565b611604565b6040516103939190613e07565b61050261057e366004613e47565b611726565b6103af610591366004613b89565b6119bd565b6103af6105a4366004613b89565b6119ec565b6103af6105b7366004613b89565b611c9f565b6103896105ca366004613abe565b611f23565b6105f67f000000000000000000000000000000000000000000000000000000000000000081565b6040516001600160a01b039091168152602001610393565b6103af61061c366004613b89565b6120bc565b6103af61062f366004613dee565b6122c1565b6002546105f6906001600160a01b031681565b61038961230d565b6001546105f6906001600160a01b031681565b610389610670366004613b89565b612335565b6103af610683366004613b89565b612354565b6103af610696366004613b89565b612483565b600654610389565b6103896106b1366004613b89565b60146020525f908152604090205481565b6105f66106d0366004613b89565b61250a565b6103af612532565b6106f06106eb366004613b89565b612670565b6040516103939e9d9c9b9a99989796959493929190613e77565b6103af610718366004613d80565b6126fe565b6103af61072b366004613b61565b612721565b61038960115481565b6103af610747366004613b89565b612841565b61075f61075a366004613dee565b61295d565b6040516103939190613f02565b61038961077a366004613b89565b60156020525f908152604090205481565b610389600e5481565b6103896129c6565b6105026107aa366004613d80565b612a11565b6103af6107bd366004613b89565b612c18565b6103896107d0366004613dee565b6001600160a01b03165f9081526008602052604090205490565b600c54610389565b610389610800366004613c70565b612e57565b610563612ff9565b6103af61081b366004613dee565b613059565b61038960035481565b61038960045481565b610389600f5481565b6001546001600160a01b0316331461086e5760405162461bcd60e51b815260040161086590613f39565b60405180910390fd5b60125484106108ab5760405162461bcd60e51b815260206004820152600960248201526824b73232bc1027a7a160b91b6044820152606401610865565b8183106108ea5760405162461bcd60e51b815260206004820152600d60248201526c496e76616c69642072616e676560981b6044820152606401610865565b8015610912576127108111156109125760405162461bcd60e51b815260040161086590613f5d565b42831161094b5760405162461bcd60e51b815260206004820152600760248201526614dd185c9d195960ca1b6044820152606401610865565b83156109b357601261095e600186613f96565b8154811061096e5761096e613fa9565b905f5260205f209060030201600101548310156109b35760405162461bcd60e51b815260206004820152600360248201526253657160e81b6044820152606401610865565b6012546109c1856001613fbd565b1015610a2c5760126109d4856001613fbd565b815481106109e4576109e4613fa9565b905f5260205f2090600302015f0154821115610a2c5760405162461bcd60e51b815260206004820152600760248201526604f7665726c61760cc1b6044820152606401610865565b60405180606001604052808481526020018381526020018281525060128581548110610a5a57610a5a613fa9565b5f9182526020918290208351600390920201908155828201516001820155604092830151600290910155815185815290810184905290810182905284907f68f039af08c3a62dae4b7e4244543803dce43c9c5a2ad9ef05fea8366f4c86239060600160405180910390a250505050565b610ad26130cb565b6001546001600160a01b0316331480610af557506002546001600160a01b031633145b610b385760405162461bcd60e51b81526020600482015260146024820152734f6e6c79206f776e6572206f72206f7261636c6560601b6044820152606401610865565b8115610b6057612710811115610b605760405162461bcd60e51b815260040161086590613f5d565b610b6f858585858560016130f3565b610b7860015f55565b5050505050565b6008602052815f5260405f208181548110610b98575f80fd5b905f5260205f20015f91509150505481565b6001546001600160a01b03163314610bd45760405162461bcd60e51b815260040161086590613f39565b600555565b610be1613a4e565b600a8281548110610bf457610bf4613fa9565b5f918252602091829020604080516101c081018252600d9093029091018054835260018101546001600160a01b0316938301939093526002830154908201526003820154606082015260048201546080820152600582015460a0820152600682015460c0820152600782015460e0820152600882015461010080830191909152600983015460ff808216151561012085015291900481161515610140830152600a830154610160830152600b830154161515610180820152600c909101546101a08201529050610cc382610fe3565b610100820152919050565b60128181548110610cdd575f80fd5b5f91825260209091206003909102018054600182015460029092015490925083565b610d076130cb565b5f600a8281548110610d1b57610d1b613fa9565b5f9182526020909120600d90910201600981015490915060ff1615610d6e5760405162461bcd60e51b815260206004820152600960248201526849732061637469766560b81b6044820152606401610865565b60018101546001600160a01b03163314610d9a5760405162461bcd60e51b815260040161086590613fd0565b6009810154610100900460ff16610ddf5760405162461bcd60e51b8152602060048201526009602482015268139bdd081cd85d995960ba1b6044820152606401610865565b80600a01546011541015610e055760405162461bcd60e51b815260040161086590613ff3565b5f81600a015490508060115f828254610e1e9190613f96565b925050819055508060105f828254610e369190613fbd565b90915550508015610eeb5760405163a9059cbb60e01b8152336004820152602481018290527f00000000000000000000000000000000000000000000000000000000000000006001600160a01b03169063a9059cbb906044016020604051808303815f875af1158015610eab573d5f5f3e3d5ffd5b505050506040513d601f19601f82011682018060405250810190610ecf9190614017565b610eeb5760405162461bcd60e51b815260040161086590614032565b60098201805461ff00191690555f600a8301556001820154825460408051918252602082018490526001600160a01b03909216917f89944602fcc483994090377f9abd25a68ee71ae7ef66db82411cc0739ab35cd891015b60405180910390a25050610f5660015f55565b50565b6001546001600160a01b03163314610f835760405162461bcd60e51b815260040161086590613f39565b610f8e8383836136af565b601254610f9d90600190613f96565b60408051858152602081018590529081018390527f901d51af3f40466612c7be89ba349f0b5aa321186bb4de023367f1ca25acdced9060600160405180910390a2505050565b5f5f600a8381548110610ff857610ff8613fa9565b5f918252602091829020604080516101c081018252600d9093029091018054835260018101546001600160a01b0316938301939093526002830154908201526003820154606082015260048201546080820152600582015460a0820152600682015460c0820152600782015460e0820152600882015461010080830191909152600983015460ff80821615156101208501529190048116158015610140840152600a840154610160840152600b8401549091161515610180830152600c909201546101a082015291506110d057610160015192915050565b604081015115806110e45750806101200151155b156110f157505f92915050565b60e08101515f6111018282613825565b905081811161111457505f949350505050565b60408301515f90835b8381101561124b575f6012828154811061113957611139613fa9565b905f5260205f2090600302016040518060600160405290815f82015481526020016001820154815260200160028201548152505090505f8761018001516111885761118383613873565b61118f565b876101a001515b90505f61271061119f838761405b565b6111a99190614072565b90508860600151840361123257825160208401515f6111c88383613f96565b90505f838d60800151116111dc57836111e2565b8c608001515b9050828082106111f9575050505050505050611243565b5f6112048383613f96565b905083611211828961405b565b61121b9190614072565b611225908d613fbd565b9b5050505050505061123f565b61123c8187613fbd565b95505b5050505b60010161111d565b50909695505050505050565b6001546001600160a01b031633146112815760405162461bcd60e51b815260040161086590613f39565b848314801561128f57508481145b6112cd5760405162461bcd60e51b815260206004820152600f60248201526e098cadccee8d040dad2e6dac2e8c6d608b1b6044820152606401610865565b846113025760405162461bcd60e51b8152602060048201526005602482015264456d70747960d81b6044820152606401610865565b5f5b858110156113675761135f87878381811061132157611321613fa9565b9050602002013586868481811061133a5761133a613fa9565b9050602002013585858581811061135357611353613fa9565b905060200201356136af565b600101611304565b506012547fab080e234ebab87937f1d48c107ecb8ab6361d9012a0670705e920b9cffe101190611398908790613f96565b6012546113a790600190613f96565b6040805192835260208301919091520160405180910390a1505050505050565b6060815f036113d657600c5491505b5f6113e18385613fbd565b600c549091508411156113f457506115fe565b600c548111156114035750600c545b61140d8482613f96565b67ffffffffffffffff81111561142557611425614091565b60405190808252806020026020018201604052801561145e57816020015b61144b613a4e565b8152602001906001900390816114435790505b5091505f5b61146d8583613f96565b8110156115fb57600a600c60018784600c8054905061148c9190613f96565b6114969190613f96565b6114a09190613f96565b815481106114b0576114b0613fa9565b905f5260205f200154815481106114c9576114c9613fa9565b5f918252602091829020604080516101c081018252600d9093029091018054835260018101546001600160a01b0316938301939093526002830154908201526003820154606082015260048201546080820152600582015460a0820152600682015460c0820152600782015460e0820152600882015461010080830191909152600983015460ff808216151561012085015291900481161515610140830152600a830154610160830152600b830154161515610180820152600c909101546101a082015283518490839081106115a1576115a1613fa9565b60200260200101819052506115d18382815181106115c1576115c1613fa9565b60200260200101515f0151610fe3565b8382815181106115e3576115e3613fa9565b60209081029190910101516101000152600101611463565b50505b92915050565b6060815f036116135760065491505b5f61161e8385613fbd565b60065490915084111561163157506115fe565b60065481111561164057506006545b61164a8482613f96565b67ffffffffffffffff81111561166257611662614091565b60405190808252806020026020018201604052801561168b578160200160208202803683370190505b5091505f5b61169a8583613f96565b8110156115fb576006805460019087906116b5908590613f96565b6116bf9190613f96565b6116c99190613f96565b815481106116d9576116d9613fa9565b905f5260205f20015f9054906101000a90046001600160a01b031683828151811061170657611706613fa9565b6001600160a01b0390921660209283029190910190910152600101611690565b6060815f0361174a576001600160a01b0384165f9081526008602052604090205491505b5f6117558385613fbd565b6001600160a01b0386165f9081526008602052604090205490915084111561177d57506119b6565b6001600160a01b0385165f908152600860205260409020548111156117b657506001600160a01b0384165f908152600860205260409020545b6117c08482613f96565b67ffffffffffffffff8111156117d8576117d8614091565b60405190808252806020026020018201604052801561181157816020015b6117fe613a4e565b8152602001906001900390816117f65790505b5091505f5b6118208583613f96565b8110156119b3576001600160a01b0386165f9081526008602052604090208054600a91906001908890611854908690613f96565b61185e9190613f96565b6118689190613f96565b8154811061187857611878613fa9565b905f5260205f2001548154811061189157611891613fa9565b5f918252602091829020604080516101c081018252600d9093029091018054835260018101546001600160a01b0316938301939093526002830154908201526003820154606082015260048201546080820152600582015460a0820152600682015460c0820152600782015460e0820152600882015461010080830191909152600983015460ff808216151561012085015291900481161515610140830152600a830154610160830152600b830154161515610180820152600c909101546101a0820152835184908390811061196957611969613fa9565b60200260200101819052506119898382815181106115c1576115c1613fa9565b83828151811061199b5761199b613fa9565b60209081029190910101516101000152600101611816565b50505b9392505050565b6001546001600160a01b031633146119e75760405162461bcd60e51b815260040161086590613f39565b600455565b6119f46130cb565b5f600a8281548110611a0857611a08613fa9565b5f9182526020909120600d90910201600981015490915060ff16611a3e5760405162461bcd60e51b8152600401610865906140a5565b60018101546001600160a01b03163314611a6a5760405162461bcd60e51b815260040161086590613fd0565b5f611a736138b1565b90508160060154811015611ab25760405162461bcd60e51b8152602060048201526006602482015265131bd8dad95960d21b6044820152606401610865565b5f611abc84610fe3565b9050806011541015611ae05760405162461bcd60e51b815260040161086590613ff3565b5f818460020154611af19190613fbd565b90508360020154600f5f828254611b089190613f96565b909155505060098401805460ff1916905542600585015560078401545f90611b309082613825565b600786018190556009859055600e80549192505f611b4d836140c7565b91905055508260115f828254611b639190613f96565b925050819055508260105f828254611b7b9190613fbd565b90915550611b8a905086613932565b5f8481526015602052604081208054859290611ba7908490613fbd565b909155505060405163a9059cbb60e01b8152336004820152602481018390527f00000000000000000000000000000000000000000000000000000000000000006001600160a01b03169063a9059cbb906044016020604051808303815f875af1158015611c16573d5f5f3e3d5ffd5b505050506040513d601f19601f82011682018060405250810190611c3a9190614017565b611c565760405162461bcd60e51b815260040161086590614032565b604080518781526020810184905233917f217ea3989b9d3112d2133a930216f444b7fbcaeaa4d5bc0220d099fdc928e71e910160405180910390a25050505050610f5660015f55565b611ca76130cb565b5f600a8281548110611cbb57611cbb613fa9565b5f9182526020909120600d90910201600981015490915060ff16611cf15760405162461bcd60e51b8152600401610865906140a5565b60018101546001600160a01b03163314611d1d5760405162461bcd60e51b815260040161086590613fd0565b5f611d266138b1565b90508160060154811015611d655760405162461bcd60e51b8152602060048201526006602482015265131bd8dad95960d21b6044820152606401610865565b5f611d6f84610fe3565b90508260020154600f5f828254611d869190613f96565b90915550506009808401805461ffff1916610100179055600a8401829055426005850155829055600e8054905f611dbc836140c7565b9190505550611dca84613932565b5f8281526015602052604081208054839290611de7908490613fbd565b925050819055508060105f828254611dff9190613fbd565b90915550506001830154600284015460405163a9059cbb60e01b81526001600160a01b03928316600482015260248101919091527f00000000000000000000000000000000000000000000000000000000000000009091169063a9059cbb906044016020604051808303815f875af1158015611e7d573d5f5f3e3d5ffd5b505050506040513d601f19601f82011682018060405250810190611ea19190614017565b611ebd5760405162461bcd60e51b815260040161086590614032565b60018301548354600285015460408051928352602083019190915281018390526001600160a01b03909116907f2bb9e1005bd12abff0a36b08286208299f11bac0718c4590fd6f4eabd7667cf9906060015b60405180910390a2505050610f5660015f55565b5f841580611f2f575082155b80611f3c57506012548410155b15611f4857505f6120b4565b5f611f538486613fbd565b601254909150811115611f745750601254848111611f74575f9150506120b4565b825f03611f7f574292505b805f865b828110156120ae576012548110156120ae575f60128281548110611fa957611fa9613fa9565b905f5260205f2090600302016040518060600160405290815f82015481526020016001820154815260200160028201548152505090505f611fe983613873565b90505f612710611ff9838e61405b565b6120039190614072565b90508a840361209557825160208401515f61201e8383613f96565b90505f838d1161202e5783612030565b8c5b9050828082106120475750505050505050506120a6565b5f6120528383613f96565b9050835f03612069575050505050505050506120a6565b83612074828961405b565b61207e9190614072565b612088908c613fbd565b9a505050505050506120a2565b61209f8186613fbd565b94505b5050505b600101611f83565b50925050505b949350505050565b6120c46130cb565b6001546001600160a01b031633146120ee5760405162461bcd60e51b815260040161086590613f39565b5f600a828154811061210257612102613fa9565b5f9182526020909120600d90910201600981015490915060ff1661215b5760405162461bcd60e51b815260206004820152601060248201526f4465706f73697420696e61637469766560801b6044820152606401610865565b80545f908152600b602052604081205460ff161561217a57503361218a565b5060018101546001600160a01b03165b60098201805460ff19169055600e8054905f6121a5836140c7565b91905055508160020154600f5f8282546121bf9190613f96565b9091555050600282015460405163a9059cbb60e01b81526001600160a01b03838116600483015260248201929092527f00000000000000000000000000000000000000000000000000000000000000009091169063a9059cbb906044016020604051808303815f875af1158015612238573d5f5f3e3d5ffd5b505050506040513d601f19601f8201168201806040525081019061225c9190614017565b6122785760405162461bcd60e51b815260040161086590614032565b815460028301546040516001600160a01b038416927f24c9e122007bd4087408943168fbcd65248594530e482b6a9abe4484767eb0c392610f4392918252602082015260400190565b6001546001600160a01b031633146122eb5760405162461bcd60e51b815260040161086590613f39565b600280546001600160a01b0319166001600160a01b0392909216919091179055565b5f5f600354905061271081600f54612325919061405b565b61232f9190614072565b91505090565b600c8181548110612344575f80fd5b5f91825260209091200154905081565b6001546001600160a01b031633148061237757506002546001600160a01b031633145b6123ba5760405162461bcd60e51b81526020600482015260146024820152734f6e6c79206f776e6572206f72206f7261636c6560601b6044820152606401610865565b6040516323b872dd60e01b8152336004820152306024820152604481018290527f00000000000000000000000000000000000000000000000000000000000000006001600160a01b0316906323b872dd906064016020604051808303815f875af115801561242a573d5f5f3e3d5ffd5b505050506040513d601f19601f8201168201806040525081019061244e9190614017565b61246a5760405162461bcd60e51b8152600401610865906140dc565b8060115f82825461247b9190613fbd565b909155505050565b6001546001600160a01b031633146124ad5760405162461bcd60e51b815260040161086590613f39565b6127108111156124cf5760405162461bcd60e51b815260040161086590613f5d565b60038190556040518181527f71ca8c1a2bc00717637fb3e9d048da574b351106cfcf0832e2dfe20f4e633dcf9060200160405180910390a150565b60068181548110612519575f80fd5b5f918252602090912001546001600160a01b0316905081565b6001546001600160a01b0316331461255c5760405162461bcd60e51b815260040161086590613f39565b6012546125945760405162461bcd60e51b8152600401610865906020808252600490820152634e6f6e6560e01b604082015260600190565b601280544291906125a790600190613f96565b815481106125b7576125b7613fa9565b905f5260205f2090600302015f0154116125fd5760405162461bcd60e51b815260206004820152600760248201526614dd185c9d195960ca1b6044820152606401610865565b601280548061260e5761260e6140f8565b5f8281526020812060035f1990930192830201818155600181018290556002015590556012546040517fd84ba012185e6b11c267bbf53304405446699fded2a2a85c6c6523d2cd3fd790916126669190815260200190565b60405180910390a1565b600a818154811061267f575f80fd5b5f9182526020909120600d9091020180546001820154600283015460038401546004850154600586015460068701546007880154600889015460098a0154600a8b0154600b8c0154600c909c01549a9c506001600160a01b039099169a979996989597949693959294919360ff8083169461010090930481169316908e565b6127066130cb565b6127143383835f5f5f6130f3565b61271d60015f55565b5050565b6001546001600160a01b0316331461274b5760405162461bcd60e51b815260040161086590613f39565b7f00000000000000000000000000000000000000000000000000000000000000006001600160a01b0316826001600160a01b03160361279c5760405162461bcd60e51b8152600401610865906140dc565b60015460405163a9059cbb60e01b81526001600160a01b039182166004820152602481018390529083169063a9059cbb906044016020604051808303815f875af11580156127ec573d5f5f3e3d5ffd5b505050506040513d601f19601f820116820180604052508101906128109190614017565b61271d5760405162461bcd60e51b8152602060048201526002602482015261229960f11b6044820152606401610865565b6001546001600160a01b0316331461286b5760405162461bcd60e51b815260040161086590613f39565b80601154101561288d5760405162461bcd60e51b8152600401610865906140dc565b60405163a9059cbb60e01b8152336004820152602481018290527f00000000000000000000000000000000000000000000000000000000000000006001600160a01b03169063a9059cbb906044016020604051808303815f875af11580156128f7573d5f5f3e3d5ffd5b505050506040513d601f19601f8201168201806040525081019061291b9190614017565b61294c5760405162461bcd60e51b8152602060048201526002602482015261229960f11b6044820152606401610865565b8060115f82825461247b9190613f96565b6001600160a01b0381165f908152600860209081526040918290208054835181840281018401909452808452606093928301828280156129ba57602002820191905f5260205f20905b8154815260200190600101908083116129a6575b50505050509050919050565b5f5f6129d06138b1565b60125490915081106129e3575f91505090565b5f6129ed82613873565b905061271081600f54612a00919061405b565b612a0a9190614072565b9250505090565b6060815f03612a2057600a5491505b5f612a2b8385613fbd565b600a54909150841115612a3e57506115fe565b600a54811115612a4d5750600a545b612a578482613f96565b67ffffffffffffffff811115612a6f57612a6f614091565b604051908082528060200260200182016040528015612aa857816020015b612a95613a4e565b815260200190600190039081612a8d5790505b5091505f5b612ab78583613f96565b8110156115fb57600a80546001908790612ad2908590613f96565b612adc9190613f96565b612ae69190613f96565b81548110612af657612af6613fa9565b5f918252602091829020604080516101c081018252600d9093029091018054835260018101546001600160a01b0316938301939093526002830154908201526003820154606082015260048201546080820152600582015460a0820152600682015460c0820152600782015460e0820152600882015461010080830191909152600983015460ff808216151561012085015291900481161515610140830152600a830154610160830152600b830154161515610180820152600c909101546101a08201528351849083908110612bce57612bce613fa9565b6020026020010181905250612bee8382815181106115c1576115c1613fa9565b838281518110612c0057612c00613fa9565b60209081029190910101516101000152600101612aad565b612c206130cb565b5f600a8281548110612c3457612c34613fa9565b5f9182526020909120600d90910201600981015490915060ff16612c6a5760405162461bcd60e51b8152600401610865906140a5565b60018101546001600160a01b03163314612c965760405162461bcd60e51b815260040161086590613fd0565b5f612ca083610fe3565b90505f8111612cde5760405162461bcd60e51b815260206004820152600a6024820152694e6f207265776172647360b01b6044820152606401610865565b806011541015612d005760405162461bcd60e51b815260040161086590613ff3565b5f612d0f83600701545f613825565b90508083600701819055508160115f828254612d2b9190613f96565b925050819055508160105f828254612d439190613fbd565b90915550505f8181526015602052604081208054849290612d65908490613fbd565b909155505060405163a9059cbb60e01b8152336004820152602481018390527f00000000000000000000000000000000000000000000000000000000000000006001600160a01b03169063a9059cbb906044016020604051808303815f875af1158015612dd4573d5f5f3e3d5ffd5b505050506040513d601f19601f82011682018060405250810190612df89190614017565b612e145760405162461bcd60e51b815260040161086590614032565b612e1c6138b1565b600955604080518581526020810184905233917ffa73d3ab3a92ed3f2b694757d8e4b2f3c293654b11b9c79111f8971f861b22b29101611f0f565b5f831580612e63575082155b15612e6f57505f6119b6565b815f03612e7a574291505b5f612e84836139dc565b6012549091508110612e99575f9150506119b6565b5f612ea48583613fbd565b601254909150811115612eb657506012545b818111612ec7575f925050506119b6565b5f825b82811015612fee575f60128281548110612ee657612ee6613fa9565b905f5260205f2090600302016040518060600160405290815f82015481526020016001820154815260200160028201548152505090505f612f2683613873565b90505f612710612f36838d61405b565b612f409190614072565b9050868403612fd55782515f908a11612f5a578351612f5c565b895b6020850151909150808210612f75575050505050612fe6565b5f612f808383613f96565b90505f865f01518760200151612f969190613f96565b9050805f03612fab5750505050505050612fe6565b80612fb6838761405b565b612fc09190614072565b612fca908a613fbd565b985050505050612fe2565b612fdf8186613fbd565b94505b5050505b600101612eca565b509695505050505050565b6060600680548060200260200160405190810160405280929190818152602001828054801561304f57602002820191905f5260205f20905b81546001600160a01b03168152600190910190602001808311613031575b5050505050905090565b6001546001600160a01b031633146130835760405162461bcd60e51b815260040161086590613f39565b6001600160a01b0381166130a95760405162461bcd60e51b8152600401610865906140dc565b600180546001600160a01b0319166001600160a01b0392909216919091179055565b60025f54036130ed57604051633ee5aeb560e01b815260040160405180910390fd5b60025f55565b6005548510156131325760405162461bcd60e51b815260206004820152600a602482015269135a5b88185b5bdd5b9d60b21b6044820152606401610865565b60045484101561317a5760405162461bcd60e51b81526020600482015260136024820152722637b1b59036bab9ba1031329033b932b0b2b960691b6044820152606401610865565b6012546131b55760405162461bcd60e51b81526020600482015260096024820152684e6f206d6f6e74687360b81b6044820152606401610865565b5f6131be6138b1565b60125490915081106132055760405162461bcd60e51b815260206004820152601060248201526f151a5b59481b9bdd0818dbdd995c995960821b6044820152606401610865565b5f6132108683613fbd565b6012549091508111156132735760405162461bcd60e51b815260206004820152602560248201527f4c6f636b20706572696f64206578636565647320636f6e66696775726564206d6044820152646f6e74687360d81b6064820152608401610865565b6040516323b872dd60e01b8152336004820152306024820152604481018890527f00000000000000000000000000000000000000000000000000000000000000006001600160a01b0316906323b872dd906064016020604051808303815f875af11580156132e3573d5f5f3e3d5ffd5b505050506040513d601f19601f820116820180604052508101906133079190614017565b6133235760405162461bcd60e51b815260040161086590614032565b6001600160a01b0388165f9081526007602052604090205460ff166133a7576001600160a01b0388165f818152600760205260408120805460ff191660019081179091556006805491820181559091527ff652222313e28459528d920b65115c16c04f3efc82aaedc97be59f3f377c0d3f0180546001600160a01b03191690911790555b600a604051806101c00160405280600a8054905081526020018a6001600160a01b031681526020018981526020018481526020014281526020015f81526020018381526020018481526020015f81526020016001151581526020015f151581526020015f8152602001871515815260200186815250908060018154018082558091505060019003905f5260205f2090600d02015f909190919091505f820151815f01556020820151816001015f6101000a8154816001600160a01b0302191690836001600160a01b0316021790555060408201518160020155606082015181600301556080820151816004015560a0820151816005015560c0820151816006015560e082015181600701556101008201518160080155610120820151816009015f6101000a81548160ff0219169083151502179055506101408201518160090160016101000a81548160ff02191690831515021790555061016082015181600a015561018082015181600b015f6101000a81548160ff0219169083151502179055506101a082015181600c015550505f6001600a805490506135499190613f96565b5f818152600b60209081526040808320805460ff19168915151790556001600160a01b038d1683526008825282208054600181018255908352908220018290556009859055600f80549293508a929091906135a5908490613fbd565b9091555050600e8054905f6135b98361410c565b9091555050600c8054600181810183555f8390527fdf6966c971051c3d54ec59162606531493a51404a002842f56009d7e5cf4a8c790910183905590546136009190613f96565b5f828152600d60209081526040808320939093558582526013905290812080549161362a8361410c565b90915550505f83815260146020526040812080548a929061364c908490613fbd565b909155505060408051828152602081018a9052908101889052606081018390526001600160a01b038a16907f554f20505671494900b631b0e443e9e7a59743ec9889b05e28d8ac9ea158266b9060800160405180910390a2505050505050505050565b8183106136ee5760405162461bcd60e51b815260206004820152600d60248201526c496e76616c69642072616e676560981b6044820152606401610865565b8015613716576127108111156137165760405162461bcd60e51b815260040161086590613f5d565b60125415613783576012805461372e90600190613f96565b8154811061373e5761373e613fa9565b905f5260205f209060030201600101548310156137835760405162461bcd60e51b815260206004820152600360248201526253657160e81b6044820152606401610865565b60408051606081018252938452602084019283528301908152601280546001810182555f9190915292517fbb8a6a4669ba250d26cd7a459eca9d215f8307e33aebe50379bc5a3617ec344460039094029384015590517fbb8a6a4669ba250d26cd7a459eca9d215f8307e33aebe50379bc5a3617ec3445830155517fbb8a6a4669ba250d26cd7a459eca9d215f8307e33aebe50379bc5a3617ec344690910155565b5f815f03613831574291505b825b601254811080156138665750826012828154811061385357613853613fa9565b905f5260205f2090600302016001015411155b156119b657600101613833565b5f5f6012838154811061388857613888613fa9565b905f5260205f209060030201600201549050805f146138a757806119b6565b6003549392505050565b6009545f9042905b60125481101561392857601281815481106138d6576138d6613fa9565b905f5260205f2090600302015f0154821015801561391557506012818154811061390257613902613fa9565b905f5260205f2090600302016001015482105b156139205792915050565b6001016138b9565b5050601254919050565b5f818152600d6020526040812054600c805491929161395390600190613f96565b8154811061396357613963613fa9565b905f5260205f200154905080600c838154811061398257613982613fa9565b5f918252602080832090910192909255828152600d90915260409020829055600c8054806139b2576139b26140f8565b5f828152602080822083015f19908101839055909201909255938152600d90935250506040812055565b5f805b60125481101561392857601281815481106139fc576139fc613fa9565b905f5260205f2090600302015f01548310158015613a3b575060128181548110613a2857613a28613fa9565b905f5260205f2090600302016001015483105b15613a465792915050565b6001016139df565b604051806101c001604052805f81526020015f6001600160a01b031681526020015f81526020015f81526020015f81526020015f81526020015f81526020015f81526020015f81526020015f151581526020015f151581526020015f81526020015f151581526020015f81525090565b5f5f5f5f60808587031215613ad1575f5ffd5b5050823594602084013594506040840135936060013592509050565b80356001600160a01b0381168114613b03575f5ffd5b919050565b8015158114610f56575f5ffd5b5f5f5f5f5f60a08688031215613b29575f5ffd5b613b3286613aed565b945060208601359350604086013592506060860135613b5081613b08565b949793965091946080013592915050565b5f5f60408385031215613b72575f5ffd5b613b7b83613aed565b946020939093013593505050565b5f60208284031215613b99575f5ffd5b5035919050565b805182526020810151613bbe60208401826001600160a01b03169052565b5060408101516040830152606081015160608301526080810151608083015260a081015160a083015260c081015160c083015260e081015160e0830152610100810151610100830152610120810151613c1c61012084018215159052565b50610140810151613c3261014084018215159052565b50610160810151610160830152610180810151613c5461018084018215159052565b506101a090810151910152565b6101c081016115fe8284613ba0565b5f5f5f60608486031215613c82575f5ffd5b505081359360208301359350604090920135919050565b5f5f83601f840112613ca9575f5ffd5b50813567ffffffffffffffff811115613cc0575f5ffd5b6020830191508360208260051b8501011115613cda575f5ffd5b9250929050565b5f5f5f5f5f5f60608789031215613cf6575f5ffd5b863567ffffffffffffffff811115613d0c575f5ffd5b613d1889828a01613c99565b909750955050602087013567ffffffffffffffff811115613d37575f5ffd5b613d4389828a01613c99565b909550935050604087013567ffffffffffffffff811115613d62575f5ffd5b613d6e89828a01613c99565b979a9699509497509295939492505050565b5f5f60408385031215613d91575f5ffd5b50508035926020909101359150565b602080825282518282018190525f918401906040840190835b81811015613de357613dcc838551613ba0565b602093909301926101c09290920191600101613db9565b509095945050505050565b5f60208284031215613dfe575f5ffd5b6119b682613aed565b602080825282518282018190525f918401906040840190835b81811015613de35783516001600160a01b0316835260209384019390920191600101613e20565b5f5f5f60608486031215613e59575f5ffd5b613e6284613aed565b95602085013595506040909401359392505050565b8e81526001600160a01b038e166020820152604081018d9052606081018c9052608081018b905260a081018a905260c0810189905260e0810188905261010081018790528515156101208201528415156101408201526101c0810184610160830152613ee861018083018515159052565b826101a08301529f9e505050505050505050505050505050565b602080825282518282018190525f918401906040840190835b81811015613de3578351835260209384019390920191600101613f1b565b6020808252600a908201526927b7363c9037bbb732b960b11b604082015260600190565b6020808252600b908201526a52617465203e203130302560a81b604082015260600190565b634e487b7160e01b5f52601160045260245ffd5b818103818111156115fe576115fe613f82565b634e487b7160e01b5f52603260045260245ffd5b808201808211156115fe576115fe613f82565b6020808252600990820152682737ba1037bbb732b960b91b604082015260600190565b6020808252600a9082015269456d7074792062616e6b60b01b604082015260600190565b5f60208284031215614027575f5ffd5b81516119b681613b08565b6020808252600f908201526e151c985b9cd9995c8819985a5b1959608a1b604082015260600190565b80820281158282048414176115fe576115fe613f82565b5f8261408c57634e487b7160e01b5f52601260045260245ffd5b500490565b634e487b7160e01b5f52604160045260245ffd5b602080825260089082015267496e61637469766560c01b604082015260600190565b5f816140d5576140d5613f82565b505f190190565b602080825260029082015261453160f01b604082015260600190565b634e487b7160e01b5f52603160045260245ffd5b5f6001820161411d5761411d613f82565b506001019056fea26469706673582212207245fff46b33d81f0225fa0d30cea59c1e0baddee2c11eef2dcb6bacfdaa30d364736f6c634300081e0033",
			"opcodes": "PUSH1 0xA0 PUSH1 0x40 MSTORE PUSH1 0x1 PUSH1 0x4 SSTORE PUSH8 0xDE0B6B3A7640000 PUSH1 0x5 SSTORE PUSH0 PUSH1 0x9 SSTORE CALLVALUE DUP1 ISZERO PUSH2 0x24 JUMPI PUSH0 PUSH0 REVERT JUMPDEST POP PUSH1 0x40 MLOAD PUSH2 0x42F1 CODESIZE SUB DUP1 PUSH2 0x42F1 DUP4 CODECOPY DUP2 ADD PUSH1 0x40 DUP2 SWAP1 MSTORE PUSH2 0x43 SWAP2 PUSH2 0x109 JUMP JUMPDEST PUSH1 0x1 PUSH0 SSTORE PUSH1 0x1 PUSH1 0x1 PUSH1 0xA0 SHL SUB DUP3 AND PUSH2 0x90 JUMPI PUSH1 0x40 MLOAD PUSH3 0x461BCD PUSH1 0xE5 SHL DUP2 MSTORE PUSH1 0x20 PUSH1 0x4 DUP3 ADD MSTORE PUSH1 0xB PUSH1 0x24 DUP3 ADD MSTORE PUSH11 0x546F6B656E3A207A65726F PUSH1 0xA8 SHL PUSH1 0x44 DUP3 ADD MSTORE PUSH1 0x64 ADD JUMPDEST PUSH1 0x40 MLOAD DUP1 SWAP2 SUB SWAP1 REVERT JUMPDEST PUSH2 0x2710 DUP2 GT ISZERO PUSH2 0xD0 JUMPI PUSH1 0x40 MLOAD PUSH3 0x461BCD PUSH1 0xE5 SHL DUP2 MSTORE PUSH1 0x20 PUSH1 0x4 DUP3 ADD MSTORE PUSH1 0xB PUSH1 0x24 DUP3 ADD MSTORE PUSH11 0x52617465203E2031303025 PUSH1 0xA8 SHL PUSH1 0x44 DUP3 ADD MSTORE PUSH1 0x64 ADD PUSH2 0x87 JUMP JUMPDEST PUSH1 0x1 DUP1 SLOAD CALLER PUSH1 0x1 PUSH1 0x1 PUSH1 0xA0 SHL SUB NOT SWAP2 DUP3 AND DUP2 OR SWAP1 SWAP3 SSTORE PUSH1 0x2 DUP1 SLOAD SWAP1 SWAP2 AND SWAP1 SWAP2 OR SWAP1 SSTORE PUSH1 0x1 PUSH1 0x1 PUSH1 0xA0 SHL SUB SWAP2 SWAP1 SWAP2 AND PUSH1 0x80 MSTORE PUSH1 0x3 SSTORE PUSH2 0x140 JUMP JUMPDEST PUSH0 PUSH0 PUSH1 0x40 DUP4 DUP6 SUB SLT ISZERO PUSH2 0x11A JUMPI PUSH0 PUSH0 REVERT JUMPDEST DUP3 MLOAD PUSH1 0x1 PUSH1 0x1 PUSH1 0xA0 SHL SUB DUP2 AND DUP2 EQ PUSH2 0x130 JUMPI PUSH0 PUSH0 REVERT JUMPDEST PUSH1 0x20 SWAP4 SWAP1 SWAP4 ADD MLOAD SWAP3 SWAP5 SWAP3 SWAP4 POP POP POP JUMP JUMPDEST PUSH1 0x80 MLOAD PUSH2 0x415A PUSH2 0x197 PUSH0 CODECOPY PUSH0 DUP2 DUP2 PUSH2 0x5D4 ADD MSTORE DUP2 DUP2 PUSH2 0xE5D ADD MSTORE DUP2 DUP2 PUSH2 0x1BC8 ADD MSTORE DUP2 DUP2 PUSH2 0x1E35 ADD MSTORE DUP2 DUP2 PUSH2 0x21F0 ADD MSTORE DUP2 DUP2 PUSH2 0x23DC ADD MSTORE DUP2 DUP2 PUSH2 0x274D ADD MSTORE DUP2 DUP2 PUSH2 0x28A9 ADD MSTORE DUP2 DUP2 PUSH2 0x2D86 ADD MSTORE PUSH2 0x3295 ADD MSTORE PUSH2 0x415A PUSH0 RETURN INVALID PUSH1 0x80 PUSH1 0x40 MSTORE CALLVALUE DUP1 ISZERO PUSH2 0xF JUMPI PUSH0 PUSH0 REVERT JUMPDEST POP PUSH1 0x4 CALLDATASIZE LT PUSH2 0x37C JUMPI PUSH0 CALLDATALOAD PUSH1 0xE0 SHR DUP1 PUSH4 0x8C90926F GT PUSH2 0x1D4 JUMPI DUP1 PUSH4 0xBE2FF4A9 GT PUSH2 0x109 JUMPI DUP1 PUSH4 0xD6A13301 GT PUSH2 0xA9 JUMPI DUP1 PUSH4 0xF2FDE38B GT PUSH2 0x79 JUMPI DUP1 PUSH4 0xF2FDE38B EQ PUSH2 0x80D JUMPI DUP1 PUSH4 0xF4F8C847 EQ PUSH2 0x820 JUMPI DUP1 PUSH4 0xF8799E1A EQ PUSH2 0x829 JUMPI DUP1 PUSH4 0xFE4AB90A EQ PUSH2 0x832 JUMPI PUSH0 PUSH0 REVERT JUMPDEST DUP1 PUSH4 0xD6A13301 EQ PUSH2 0x7C2 JUMPI DUP1 PUSH4 0xD7D43C78 EQ PUSH2 0x7EA JUMPI DUP1 PUSH4 0xDD4824A8 EQ PUSH2 0x7F2 JUMPI DUP1 PUSH4 0xE2842D79 EQ PUSH2 0x805 JUMPI PUSH0 PUSH0 REVERT JUMPDEST DUP1 PUSH4 0xCCBD0007 GT PUSH2 0xE4 JUMPI DUP1 PUSH4 0xCCBD0007 EQ PUSH2 0x78B JUMPI DUP1 PUSH4 0xD188E3AE EQ PUSH2 0x794 JUMPI DUP1 PUSH4 0xD3752830 EQ PUSH2 0x79C JUMPI DUP1 PUSH4 0xD3D83445 EQ PUSH2 0x7AF JUMPI PUSH0 PUSH0 REVERT JUMPDEST DUP1 PUSH4 0xBE2FF4A9 EQ PUSH2 0x739 JUMPI DUP1 PUSH4 0xC491EECD EQ PUSH2 0x74C JUMPI DUP1 PUSH4 0xCCAAC244 EQ PUSH2 0x76C JUMPI PUSH0 PUSH0 REVERT JUMPDEST DUP1 PUSH4 0xA2BDEDF4 GT PUSH2 0x174 JUMPI DUP1 PUSH4 0xB02C43D0 GT PUSH2 0x14F JUMPI DUP1 PUSH4 0xB02C43D0 EQ PUSH2 0x6DD JUMPI DUP1 PUSH4 0xB18E71F2 EQ PUSH2 0x70A JUMPI DUP1 PUSH4 0xB29A8140 EQ PUSH2 0x71D JUMPI DUP1 PUSH4 0xB42A275E EQ PUSH2 0x730 JUMPI PUSH0 PUSH0 REVERT JUMPDEST DUP1 PUSH4 0xA2BDEDF4 EQ PUSH2 0x6C2 JUMPI DUP1 PUSH4 0xA4A1E263 EQ PUSH2 0x69B JUMPI DUP1 PUSH4 0xA9783CD7 EQ PUSH2 0x6D5 JUMPI PUSH0 PUSH0 REVERT JUMPDEST DUP1 PUSH4 0x91BA50CD GT PUSH2 0x1AF JUMPI DUP1 PUSH4 0x91BA50CD EQ PUSH2 0x675 JUMPI DUP1 PUSH4 0x9521ABC6 EQ PUSH2 0x688 JUMPI DUP1 PUSH4 0x9BE572F6 EQ PUSH2 0x69B JUMPI DUP1 PUSH4 0x9D13FA01 EQ PUSH2 0x6A3 JUMPI PUSH0 PUSH0 REVERT JUMPDEST DUP1 PUSH4 0x8C90926F EQ PUSH2 0x647 JUMPI DUP1 PUSH4 0x8DA5CB5B EQ PUSH2 0x64F JUMPI DUP1 PUSH4 0x90693CA7 EQ PUSH2 0x662 JUMPI PUSH0 PUSH0 REVERT JUMPDEST DUP1 PUSH4 0x2E0E3064 GT PUSH2 0x2B5 JUMPI DUP1 PUSH4 0x4B4D7AA8 GT PUSH2 0x255 JUMPI DUP1 PUSH4 0x72F702F3 GT PUSH2 0x225 JUMPI DUP1 PUSH4 0x72F702F3 EQ PUSH2 0x5CF JUMPI DUP1 PUSH4 0x72FADA5C EQ PUSH2 0x60E JUMPI DUP1 PUSH4 0x7ADBF973 EQ PUSH2 0x621 JUMPI DUP1 PUSH4 0x7DC0D1D0 EQ PUSH2 0x634 JUMPI PUSH0 PUSH0 REVERT JUMPDEST DUP1 PUSH4 0x4B4D7AA8 EQ PUSH2 0x583 JUMPI DUP1 PUSH4 0x6241CA79 EQ PUSH2 0x596 JUMPI DUP1 PUSH4 0x647FC56C EQ PUSH2 0x5A9 JUMPI DUP1 PUSH4 0x7196D3E2 EQ PUSH2 0x5BC JUMPI PUSH0 PUSH0 REVERT JUMPDEST DUP1 PUSH4 0x41AFF23E GT PUSH2 0x290 JUMPI DUP1 PUSH4 0x41AFF23E EQ PUSH2 0x50F JUMPI DUP1 PUSH4 0x4209FFF1 EQ PUSH2 0x52E JUMPI DUP1 PUSH4 0x45982A66 EQ PUSH2 0x550 JUMPI DUP1 PUSH4 0x4698B883 EQ PUSH2 0x570 JUMPI PUSH0 PUSH0 REVERT JUMPDEST DUP1 PUSH4 0x2E0E3064 EQ PUSH2 0x4C9 JUMPI DUP1 PUSH4 0x2FFB3D2A EQ PUSH2 0x4DC JUMPI DUP1 PUSH4 0x4106EE75 EQ PUSH2 0x4EF JUMPI PUSH0 PUSH0 REVERT JUMPDEST DUP1 PUSH4 0x1BFC7761 GT PUSH2 0x320 JUMPI DUP1 PUSH4 0x1D0205B8 GT PUSH2 0x2FB JUMPI DUP1 PUSH4 0x1D0205B8 EQ PUSH2 0x456 JUMPI DUP1 PUSH4 0x1FB3BD93 EQ PUSH2 0x484 JUMPI DUP1 PUSH4 0x23B28A54 EQ PUSH2 0x497 JUMPI DUP1 PUSH4 0x23E0CEB2 EQ PUSH2 0x4AA JUMPI PUSH0 PUSH0 REVERT JUMPDEST DUP1 PUSH4 0x1BFC7761 EQ PUSH2 0x3FB JUMPI DUP1 PUSH4 0x1C5DC54C EQ PUSH2 0x41B JUMPI DUP1 PUSH4 0x1CC39D57 EQ PUSH2 0x424 JUMPI PUSH0 PUSH0 REVERT JUMPDEST DUP1 PUSH4 0x8804275 GT PUSH2 0x35B JUMPI DUP1 PUSH4 0x8804275 EQ PUSH2 0x3C4 JUMPI DUP1 PUSH4 0x8F43333 EQ PUSH2 0x3CD JUMPI DUP1 PUSH4 0xF68AE40 EQ PUSH2 0x3E0 JUMPI DUP1 PUSH4 0x168A4822 EQ PUSH2 0x3F3 JUMPI PUSH0 PUSH0 REVERT JUMPDEST DUP1 PUSH3 0xD6386 EQ PUSH2 0x380 JUMPI DUP1 PUSH4 0x5A163B6 EQ PUSH2 0x39C JUMPI DUP1 PUSH4 0x6F960BB EQ PUSH2 0x3B1 JUMPI JUMPDEST PUSH0 PUSH0 REVERT JUMPDEST PUSH2 0x389 PUSH1 0x9 SLOAD DUP2 JUMP JUMPDEST PUSH1 0x40 MLOAD SWAP1 DUP2 MSTORE PUSH1 0x20 ADD JUMPDEST PUSH1 0x40 MLOAD DUP1 SWAP2 SUB SWAP1 RETURN JUMPDEST PUSH2 0x3AF PUSH2 0x3AA CALLDATASIZE PUSH1 0x4 PUSH2 0x3ABE JUMP JUMPDEST PUSH2 0x83B JUMP JUMPDEST STOP JUMPDEST PUSH2 0x3AF PUSH2 0x3BF CALLDATASIZE PUSH1 0x4 PUSH2 0x3B15 JUMP JUMPDEST PUSH2 0xACA JUMP JUMPDEST PUSH2 0x389 PUSH1 0x5 SLOAD DUP2 JUMP JUMPDEST PUSH2 0x389 PUSH2 0x3DB CALLDATASIZE PUSH1 0x4 PUSH2 0x3B61 JUMP JUMPDEST PUSH2 0xB7F JUMP JUMPDEST PUSH2 0x3AF PUSH2 0x3EE CALLDATASIZE PUSH1 0x4 PUSH2 0x3B89 JUMP JUMPDEST PUSH2 0xBAA JUMP JUMPDEST PUSH1 0xA SLOAD PUSH2 0x389 JUMP JUMPDEST PUSH2 0x40E PUSH2 0x409 CALLDATASIZE PUSH1 0x4 PUSH2 0x3B89 JUMP JUMPDEST PUSH2 0xBD9 JUMP JUMPDEST PUSH1 0x40 MLOAD PUSH2 0x393 SWAP2 SWAP1 PUSH2 0x3C61 JUMP JUMPDEST PUSH2 0x389 PUSH1 0x10 SLOAD DUP2 JUMP JUMPDEST PUSH2 0x446 PUSH2 0x432 CALLDATASIZE PUSH1 0x4 PUSH2 0x3B89 JUMP JUMPDEST PUSH1 0xB PUSH1 0x20 MSTORE PUSH0 SWAP1 DUP2 MSTORE PUSH1 0x40 SWAP1 KECCAK256 SLOAD PUSH1 0xFF AND DUP2 JUMP JUMPDEST PUSH1 0x40 MLOAD SWAP1 ISZERO ISZERO DUP2 MSTORE PUSH1 0x20 ADD PUSH2 0x393 JUMP JUMPDEST PUSH2 0x469 PUSH2 0x464 CALLDATASIZE PUSH1 0x4 PUSH2 0x3B89 JUMP JUMPDEST PUSH2 0xCCE JUMP JUMPDEST PUSH1 0x40 DUP1 MLOAD SWAP4 DUP5 MSTORE PUSH1 0x20 DUP5 ADD SWAP3 SWAP1 SWAP3 MSTORE SWAP1 DUP3 ADD MSTORE PUSH1 0x60 ADD PUSH2 0x393 JUMP JUMPDEST PUSH2 0x3AF PUSH2 0x492 CALLDATASIZE PUSH1 0x4 PUSH2 0x3B89 JUMP JUMPDEST PUSH2 0xCFF JUMP JUMPDEST PUSH2 0x3AF PUSH2 0x4A5 CALLDATASIZE PUSH1 0x4 PUSH2 0x3C70 JUMP JUMPDEST PUSH2 0xF59 JUMP JUMPDEST PUSH2 0x389 PUSH2 0x4B8 CALLDATASIZE PUSH1 0x4 PUSH2 0x3B89 JUMP JUMPDEST PUSH1 0xD PUSH1 0x20 MSTORE PUSH0 SWAP1 DUP2 MSTORE PUSH1 0x40 SWAP1 KECCAK256 SLOAD DUP2 JUMP JUMPDEST PUSH2 0x389 PUSH2 0x4D7 CALLDATASIZE PUSH1 0x4 PUSH2 0x3B89 JUMP JUMPDEST PUSH2 0xFE3 JUMP JUMPDEST PUSH2 0x3AF PUSH2 0x4EA CALLDATASIZE PUSH1 0x4 PUSH2 0x3CE1 JUMP JUMPDEST PUSH2 0x1257 JUMP JUMPDEST PUSH2 0x502 PUSH2 0x4FD CALLDATASIZE PUSH1 0x4 PUSH2 0x3D80 JUMP JUMPDEST PUSH2 0x13C7 JUMP JUMPDEST PUSH1 0x40 MLOAD PUSH2 0x393 SWAP2 SWAP1 PUSH2 0x3DA0 JUMP JUMPDEST PUSH2 0x389 PUSH2 0x51D CALLDATASIZE PUSH1 0x4 PUSH2 0x3B89 JUMP JUMPDEST PUSH1 0x13 PUSH1 0x20 MSTORE PUSH0 SWAP1 DUP2 MSTORE PUSH1 0x40 SWAP1 KECCAK256 SLOAD DUP2 JUMP JUMPDEST PUSH2 0x446 PUSH2 0x53C CALLDATASIZE PUSH1 0x4 PUSH2 0x3DEE JUMP JUMPDEST PUSH1 0x7 PUSH1 0x20 MSTORE PUSH0 SWAP1 DUP2 MSTORE PUSH1 0x40 SWAP1 KECCAK256 SLOAD PUSH1 0xFF AND DUP2 JUMP JUMPDEST PUSH2 0x563 PUSH2 0x55E CALLDATASIZE PUSH1 0x4 PUSH2 0x3D80 JUMP JUMPDEST PUSH2 0x1604 JUMP JUMPDEST PUSH1 0x40 MLOAD PUSH2 0x393 SWAP2 SWAP1 PUSH2 0x3E07 JUMP JUMPDEST PUSH2 0x502 PUSH2 0x57E CALLDATASIZE PUSH1 0x4 PUSH2 0x3E47 JUMP JUMPDEST PUSH2 0x1726 JUMP JUMPDEST PUSH2 0x3AF PUSH2 0x591 CALLDATASIZE PUSH1 0x4 PUSH2 0x3B89 JUMP JUMPDEST PUSH2 0x19BD JUMP JUMPDEST PUSH2 0x3AF PUSH2 0x5A4 CALLDATASIZE PUSH1 0x4 PUSH2 0x3B89 JUMP JUMPDEST PUSH2 0x19EC JUMP JUMPDEST PUSH2 0x3AF PUSH2 0x5B7 CALLDATASIZE PUSH1 0x4 PUSH2 0x3B89 JUMP JUMPDEST PUSH2 0x1C9F JUMP JUMPDEST PUSH2 0x389 PUSH2 0x5CA CALLDATASIZE PUSH1 0x4 PUSH2 0x3ABE JUMP JUMPDEST PUSH2 0x1F23 JUMP JUMPDEST PUSH2 0x5F6 PUSH32 0x0 DUP2 JUMP JUMPDEST PUSH1 0x40 MLOAD PUSH1 0x1 PUSH1 0x1 PUSH1 0xA0 SHL SUB SWAP1 SWAP2 AND DUP2 MSTORE PUSH1 0x20 ADD PUSH2 0x393 JUMP JUMPDEST PUSH2 0x3AF PUSH2 0x61C CALLDATASIZE PUSH1 0x4 PUSH2 0x3B89 JUMP JUMPDEST PUSH2 0x20BC JUMP JUMPDEST PUSH2 0x3AF PUSH2 0x62F CALLDATASIZE PUSH1 0x4 PUSH2 0x3DEE JUMP JUMPDEST PUSH2 0x22C1 JUMP JUMPDEST PUSH1 0x2 SLOAD PUSH2 0x5F6 SWAP1 PUSH1 0x1 PUSH1 0x1 PUSH1 0xA0 SHL SUB AND DUP2 JUMP JUMPDEST PUSH2 0x389 PUSH2 0x230D JUMP JUMPDEST PUSH1 0x1 SLOAD PUSH2 0x5F6 SWAP1 PUSH1 0x1 PUSH1 0x1 PUSH1 0xA0 SHL SUB AND DUP2 JUMP JUMPDEST PUSH2 0x389 PUSH2 0x670 CALLDATASIZE PUSH1 0x4 PUSH2 0x3B89 JUMP JUMPDEST PUSH2 0x2335 JUMP JUMPDEST PUSH2 0x3AF PUSH2 0x683 CALLDATASIZE PUSH1 0x4 PUSH2 0x3B89 JUMP JUMPDEST PUSH2 0x2354 JUMP JUMPDEST PUSH2 0x3AF PUSH2 0x696 CALLDATASIZE PUSH1 0x4 PUSH2 0x3B89 JUMP JUMPDEST PUSH2 0x2483 JUMP JUMPDEST PUSH1 0x6 SLOAD PUSH2 0x389 JUMP JUMPDEST PUSH2 0x389 PUSH2 0x6B1 CALLDATASIZE PUSH1 0x4 PUSH2 0x3B89 JUMP JUMPDEST PUSH1 0x14 PUSH1 0x20 MSTORE PUSH0 SWAP1 DUP2 MSTORE PUSH1 0x40 SWAP1 KECCAK256 SLOAD DUP2 JUMP JUMPDEST PUSH2 0x5F6 PUSH2 0x6D0 CALLDATASIZE PUSH1 0x4 PUSH2 0x3B89 JUMP JUMPDEST PUSH2 0x250A JUMP JUMPDEST PUSH2 0x3AF PUSH2 0x2532 JUMP JUMPDEST PUSH2 0x6F0 PUSH2 0x6EB CALLDATASIZE PUSH1 0x4 PUSH2 0x3B89 JUMP JUMPDEST PUSH2 0x2670 JUMP JUMPDEST PUSH1 0x40 MLOAD PUSH2 0x393 SWAP15 SWAP14 SWAP13 SWAP12 SWAP11 SWAP10 SWAP9 SWAP8 SWAP7 SWAP6 SWAP5 SWAP4 SWAP3 SWAP2 SWAP1 PUSH2 0x3E77 JUMP JUMPDEST PUSH2 0x3AF PUSH2 0x718 CALLDATASIZE PUSH1 0x4 PUSH2 0x3D80 JUMP JUMPDEST PUSH2 0x26FE JUMP JUMPDEST PUSH2 0x3AF PUSH2 0x72B CALLDATASIZE PUSH1 0x4 PUSH2 0x3B61 JUMP JUMPDEST PUSH2 0x2721 JUMP JUMPDEST PUSH2 0x389 PUSH1 0x11 SLOAD DUP2 JUMP JUMPDEST PUSH2 0x3AF PUSH2 0x747 CALLDATASIZE PUSH1 0x4 PUSH2 0x3B89 JUMP JUMPDEST PUSH2 0x2841 JUMP JUMPDEST PUSH2 0x75F PUSH2 0x75A CALLDATASIZE PUSH1 0x4 PUSH2 0x3DEE JUMP JUMPDEST PUSH2 0x295D JUMP JUMPDEST PUSH1 0x40 MLOAD PUSH2 0x393 SWAP2 SWAP1 PUSH2 0x3F02 JUMP JUMPDEST PUSH2 0x389 PUSH2 0x77A CALLDATASIZE PUSH1 0x4 PUSH2 0x3B89 JUMP JUMPDEST PUSH1 0x15 PUSH1 0x20 MSTORE PUSH0 SWAP1 DUP2 MSTORE PUSH1 0x40 SWAP1 KECCAK256 SLOAD DUP2 JUMP JUMPDEST PUSH2 0x389 PUSH1 0xE SLOAD DUP2 JUMP JUMPDEST PUSH2 0x389 PUSH2 0x29C6 JUMP JUMPDEST PUSH2 0x502 PUSH2 0x7AA CALLDATASIZE PUSH1 0x4 PUSH2 0x3D80 JUMP JUMPDEST PUSH2 0x2A11 JUMP JUMPDEST PUSH2 0x3AF PUSH2 0x7BD CALLDATASIZE PUSH1 0x4 PUSH2 0x3B89 JUMP JUMPDEST PUSH2 0x2C18 JUMP JUMPDEST PUSH2 0x389 PUSH2 0x7D0 CALLDATASIZE PUSH1 0x4 PUSH2 0x3DEE JUMP JUMPDEST PUSH1 0x1 PUSH1 0x1 PUSH1 0xA0 SHL SUB AND PUSH0 SWAP1 DUP2 MSTORE PUSH1 0x8 PUSH1 0x20 MSTORE PUSH1 0x40 SWAP1 KECCAK256 SLOAD SWAP1 JUMP JUMPDEST PUSH1 0xC SLOAD PUSH2 0x389 JUMP JUMPDEST PUSH2 0x389 PUSH2 0x800 CALLDATASIZE PUSH1 0x4 PUSH2 0x3C70 JUMP JUMPDEST PUSH2 0x2E57 JUMP JUMPDEST PUSH2 0x563 PUSH2 0x2FF9 JUMP JUMPDEST PUSH2 0x3AF PUSH2 0x81B CALLDATASIZE PUSH1 0x4 PUSH2 0x3DEE JUMP JUMPDEST PUSH2 0x3059 JUMP JUMPDEST PUSH2 0x389 PUSH1 0x3 SLOAD DUP2 JUMP JUMPDEST PUSH2 0x389 PUSH1 0x4 SLOAD DUP2 JUMP JUMPDEST PUSH2 0x389 PUSH1 0xF SLOAD DUP2 JUMP JUMPDEST PUSH1 0x1 SLOAD PUSH1 0x1 PUSH1 0x1 PUSH1 0xA0 SHL SUB AND CALLER EQ PUSH2 0x86E JUMPI PUSH1 0x40 MLOAD PUSH3 0x461BCD PUSH1 0xE5 SHL DUP2 MSTORE PUSH1 0x4 ADD PUSH2 0x865 SWAP1 PUSH2 0x3F39 JUMP JUMPDEST PUSH1 0x40 MLOAD DUP1 SWAP2 SUB SWAP1 REVERT JUMPDEST PUSH1 0x12 SLOAD DUP5 LT PUSH2 0x8AB JUMPI PUSH1 0x40 MLOAD PUSH3 0x461BCD PUSH1 0xE5 SHL DUP2 MSTORE PUSH1 0x20 PUSH1 0x4 DUP3 ADD MSTORE PUSH1 0x9 PUSH1 0x24 DUP3 ADD MSTORE PUSH9 0x24B73232BC1027A7A1 PUSH1 0xB9 SHL PUSH1 0x44 DUP3 ADD MSTORE PUSH1 0x64 ADD PUSH2 0x865 JUMP JUMPDEST DUP2 DUP4 LT PUSH2 0x8EA JUMPI PUSH1 0x40 MLOAD PUSH3 0x461BCD PUSH1 0xE5 SHL DUP2 MSTORE PUSH1 0x20 PUSH1 0x4 DUP3 ADD MSTORE PUSH1 0xD PUSH1 0x24 DUP3 ADD MSTORE PUSH13 0x496E76616C69642072616E6765 PUSH1 0x98 SHL PUSH1 0x44 DUP3 ADD MSTORE PUSH1 0x64 ADD PUSH2 0x865 JUMP JUMPDEST DUP1 ISZERO PUSH2 0x912 JUMPI PUSH2 0x2710 DUP2 GT ISZERO PUSH2 0x912 JUMPI PUSH1 0x40 MLOAD PUSH3 0x461BCD PUSH1 0xE5 SHL DUP2 MSTORE PUSH1 0x4 ADD PUSH2 0x865 SWAP1 PUSH2 0x3F5D JUMP JUMPDEST TIMESTAMP DUP4 GT PUSH2 0x94B JUMPI PUSH1 0x40 MLOAD PUSH3 0x461BCD PUSH1 0xE5 SHL DUP2 MSTORE PUSH1 0x20 PUSH1 0x4 DUP3 ADD MSTORE PUSH1 0x7 PUSH1 0x24 DUP3 ADD MSTORE PUSH7 0x14DD185C9D1959 PUSH1 0xCA SHL PUSH1 0x44 DUP3 ADD MSTORE PUSH1 0x64 ADD PUSH2 0x865 JUMP JUMPDEST DUP4 ISZERO PUSH2 0x9B3 JUMPI PUSH1 0x12 PUSH2 0x95E PUSH1 0x1 DUP7 PUSH2 0x3F96 JUMP JUMPDEST DUP2 SLOAD DUP2 LT PUSH2 0x96E JUMPI PUSH2 0x96E PUSH2 0x3FA9 JUMP JUMPDEST SWAP1 PUSH0 MSTORE PUSH1 0x20 PUSH0 KECCAK256 SWAP1 PUSH1 0x3 MUL ADD PUSH1 0x1 ADD SLOAD DUP4 LT ISZERO PUSH2 0x9B3 JUMPI PUSH1 0x40 MLOAD PUSH3 0x461BCD PUSH1 0xE5 SHL DUP2 MSTORE PUSH1 0x20 PUSH1 0x4 DUP3 ADD MSTORE PUSH1 0x3 PUSH1 0x24 DUP3 ADD MSTORE PUSH3 0x536571 PUSH1 0xE8 SHL PUSH1 0x44 DUP3 ADD MSTORE PUSH1 0x64 ADD PUSH2 0x865 JUMP JUMPDEST PUSH1 0x12 SLOAD PUSH2 0x9C1 DUP6 PUSH1 0x1 PUSH2 0x3FBD JUMP JUMPDEST LT ISZERO PUSH2 0xA2C JUMPI PUSH1 0x12 PUSH2 0x9D4 DUP6 PUSH1 0x1 PUSH2 0x3FBD JUMP JUMPDEST DUP2 SLOAD DUP2 LT PUSH2 0x9E4 JUMPI PUSH2 0x9E4 PUSH2 0x3FA9 JUMP JUMPDEST SWAP1 PUSH0 MSTORE PUSH1 0x20 PUSH0 KECCAK256 SWAP1 PUSH1 0x3 MUL ADD PUSH0 ADD SLOAD DUP3 GT ISZERO PUSH2 0xA2C JUMPI PUSH1 0x40 MLOAD PUSH3 0x461BCD PUSH1 0xE5 SHL DUP2 MSTORE PUSH1 0x20 PUSH1 0x4 DUP3 ADD MSTORE PUSH1 0x7 PUSH1 0x24 DUP3 ADD MSTORE PUSH7 0x4F7665726C617 PUSH1 0xCC SHL PUSH1 0x44 DUP3 ADD MSTORE PUSH1 0x64 ADD PUSH2 0x865 JUMP JUMPDEST PUSH1 0x40 MLOAD DUP1 PUSH1 0x60 ADD PUSH1 0x40 MSTORE DUP1 DUP5 DUP2 MSTORE PUSH1 0x20 ADD DUP4 DUP2 MSTORE PUSH1 0x20 ADD DUP3 DUP2 MSTORE POP PUSH1 0x12 DUP6 DUP2 SLOAD DUP2 LT PUSH2 0xA5A JUMPI PUSH2 0xA5A PUSH2 0x3FA9 JUMP JUMPDEST PUSH0 SWAP2 DUP3 MSTORE PUSH1 0x20 SWAP2 DUP3 SWAP1 KECCAK256 DUP4 MLOAD PUSH1 0x3 SWAP1 SWAP3 MUL ADD SWAP1 DUP2 SSTORE DUP3 DUP3 ADD MLOAD PUSH1 0x1 DUP3 ADD SSTORE PUSH1 0x40 SWAP3 DUP4 ADD MLOAD PUSH1 0x2 SWAP1 SWAP2 ADD SSTORE DUP2 MLOAD DUP6 DUP2 MSTORE SWAP1 DUP2 ADD DUP5 SWAP1 MSTORE SWAP1 DUP2 ADD DUP3 SWAP1 MSTORE DUP5 SWAP1 PUSH32 0x68F039AF08C3A62DAE4B7E4244543803DCE43C9C5A2AD9EF05FEA8366F4C8623 SWAP1 PUSH1 0x60 ADD PUSH1 0x40 MLOAD DUP1 SWAP2 SUB SWAP1 LOG2 POP POP POP POP JUMP JUMPDEST PUSH2 0xAD2 PUSH2 0x30CB JUMP JUMPDEST PUSH1 0x1 SLOAD PUSH1 0x1 PUSH1 0x1 PUSH1 0xA0 SHL SUB AND CALLER EQ DUP1 PUSH2 0xAF5 JUMPI POP PUSH1 0x2 SLOAD PUSH1 0x1 PUSH1 0x1 PUSH1 0xA0 SHL SUB AND CALLER EQ JUMPDEST PUSH2 0xB38 JUMPI PUSH1 0x40 MLOAD PUSH3 0x461BCD PUSH1 0xE5 SHL DUP2 MSTORE PUSH1 0x20 PUSH1 0x4 DUP3 ADD MSTORE PUSH1 0x14 PUSH1 0x24 DUP3 ADD MSTORE PUSH20 0x4F6E6C79206F776E6572206F72206F7261636C65 PUSH1 0x60 SHL PUSH1 0x44 DUP3 ADD MSTORE PUSH1 0x64 ADD PUSH2 0x865 JUMP JUMPDEST DUP2 ISZERO PUSH2 0xB60 JUMPI PUSH2 0x2710 DUP2 GT ISZERO PUSH2 0xB60 JUMPI PUSH1 0x40 MLOAD PUSH3 0x461BCD PUSH1 0xE5 SHL DUP2 MSTORE PUSH1 0x4 ADD PUSH2 0x865 SWAP1 PUSH2 0x3F5D JUMP JUMPDEST PUSH2 0xB6F DUP6 DUP6 DUP6 DUP6 DUP6 PUSH1 0x1 PUSH2 0x30F3 JUMP JUMPDEST PUSH2 0xB78 PUSH1 0x1 PUSH0 SSTORE JUMP JUMPDEST POP POP POP POP POP JUMP JUMPDEST PUSH1 0x8 PUSH1 0x20 MSTORE DUP2 PUSH0 MSTORE PUSH1 0x40 PUSH0 KECCAK256 DUP2 DUP2 SLOAD DUP2 LT PUSH2 0xB98 JUMPI PUSH0 DUP1 REVERT JUMPDEST SWAP1 PUSH0 MSTORE PUSH1 0x20 PUSH0 KECCAK256 ADD PUSH0 SWAP2 POP SWAP2 POP POP SLOAD DUP2 JUMP JUMPDEST PUSH1 0x1 SLOAD PUSH1 0x1 PUSH1 0x1 PUSH1 0xA0 SHL SUB AND CALLER EQ PUSH2 0xBD4 JUMPI PUSH1 0x40 MLOAD PUSH3 0x461BCD PUSH1 0xE5 SHL DUP2 MSTORE PUSH1 0x4 ADD PUSH2 0x865 SWAP1 PUSH2 0x3F39 JUMP JUMPDEST PUSH1 0x5 SSTORE JUMP JUMPDEST PUSH2 0xBE1 PUSH2 0x3A4E JUMP JUMPDEST PUSH1 0xA DUP3 DUP2 SLOAD DUP2 LT PUSH2 0xBF4 JUMPI PUSH2 0xBF4 PUSH2 0x3FA9 JUMP JUMPDEST PUSH0 SWAP2 DUP3 MSTORE PUSH1 0x20 SWAP2 DUP3 SWAP1 KECCAK256 PUSH1 0x40 DUP1 MLOAD PUSH2 0x1C0 DUP2 ADD DUP3 MSTORE PUSH1 0xD SWAP1 SWAP4 MUL SWAP1 SWAP2 ADD DUP1 SLOAD DUP4 MSTORE PUSH1 0x1 DUP2 ADD SLOAD PUSH1 0x1 PUSH1 0x1 PUSH1 0xA0 SHL SUB AND SWAP4 DUP4 ADD SWAP4 SWAP1 SWAP4 MSTORE PUSH1 0x2 DUP4 ADD SLOAD SWAP1 DUP3 ADD MSTORE PUSH1 0x3 DUP3 ADD SLOAD PUSH1 0x60 DUP3 ADD MSTORE PUSH1 0x4 DUP3 ADD SLOAD PUSH1 0x80 DUP3 ADD MSTORE PUSH1 0x5 DUP3 ADD SLOAD PUSH1 0xA0 DUP3 ADD MSTORE PUSH1 0x6 DUP3 ADD SLOAD PUSH1 0xC0 DUP3 ADD MSTORE PUSH1 0x7 DUP3 ADD SLOAD PUSH1 0xE0 DUP3 ADD MSTORE PUSH1 0x8 DUP3 ADD SLOAD PUSH2 0x100 DUP1 DUP4 ADD SWAP2 SWAP1 SWAP2 MSTORE PUSH1 0x9 DUP4 ADD SLOAD PUSH1 0xFF DUP1 DUP3 AND ISZERO ISZERO PUSH2 0x120 DUP6 ADD MSTORE SWAP2 SWAP1 DIV DUP2 AND ISZERO ISZERO PUSH2 0x140 DUP4 ADD MSTORE PUSH1 0xA DUP4 ADD SLOAD PUSH2 0x160 DUP4 ADD MSTORE PUSH1 0xB DUP4 ADD SLOAD AND ISZERO ISZERO PUSH2 0x180 DUP3 ADD MSTORE PUSH1 0xC SWAP1 SWAP2 ADD SLOAD PUSH2 0x1A0 DUP3 ADD MSTORE SWAP1 POP PUSH2 0xCC3 DUP3 PUSH2 0xFE3 JUMP JUMPDEST PUSH2 0x100 DUP3 ADD MSTORE SWAP2 SWAP1 POP JUMP JUMPDEST PUSH1 0x12 DUP2 DUP2 SLOAD DUP2 LT PUSH2 0xCDD JUMPI PUSH0 DUP1 REVERT JUMPDEST PUSH0 SWAP2 DUP3 MSTORE PUSH1 0x20 SWAP1 SWAP2 KECCAK256 PUSH1 0x3 SWAP1 SWAP2 MUL ADD DUP1 SLOAD PUSH1 0x1 DUP3 ADD SLOAD PUSH1 0x2 SWAP1 SWAP3 ADD SLOAD SWAP1 SWAP3 POP DUP4 JUMP JUMPDEST PUSH2 0xD07 PUSH2 0x30CB JUMP JUMPDEST PUSH0 PUSH1 0xA DUP3 DUP2 SLOAD DUP2 LT PUSH2 0xD1B JUMPI PUSH2 0xD1B PUSH2 0x3FA9 JUMP JUMPDEST PUSH0 SWAP2 DUP3 MSTORE PUSH1 0x20 SWAP1 SWAP2 KECCAK256 PUSH1 0xD SWAP1 SWAP2 MUL ADD PUSH1 0x9 DUP2 ADD SLOAD SWAP1 SWAP2 POP PUSH1 0xFF AND ISZERO PUSH2 0xD6E JUMPI PUSH1 0x40 MLOAD PUSH3 0x461BCD PUSH1 0xE5 SHL DUP2 MSTORE PUSH1 0x20 PUSH1 0x4 DUP3 ADD MSTORE PUSH1 0x9 PUSH1 0x24 DUP3 ADD MSTORE PUSH9 0x497320616374697665 PUSH1 0xB8 SHL PUSH1 0x44 DUP3 ADD MSTORE PUSH1 0x64 ADD PUSH2 0x865 JUMP JUMPDEST PUSH1 0x1 DUP2 ADD SLOAD PUSH1 0x1 PUSH1 0x1 PUSH1 0xA0 SHL SUB AND CALLER EQ PUSH2 0xD9A JUMPI PUSH1 0x40 MLOAD PUSH3 0x461BCD PUSH1 0xE5 SHL DUP2 MSTORE PUSH1 0x4 ADD PUSH2 0x865 SWAP1 PUSH2 0x3FD0 JUMP JUMPDEST PUSH1 0x9 DUP2 ADD SLOAD PUSH2 0x100 SWAP1 DIV PUSH1 0xFF AND PUSH2 0xDDF JUMPI PUSH1 0x40 MLOAD PUSH3 0x461BCD PUSH1 0xE5 SHL DUP2 MSTORE PUSH1 0x20 PUSH1 0x4 DUP3 ADD MSTORE PUSH1 0x9 PUSH1 0x24 DUP3 ADD MSTORE PUSH9 0x139BDD081CD85D9959 PUSH1 0xBA SHL PUSH1 0x44 DUP3 ADD MSTORE PUSH1 0x64 ADD PUSH2 0x865 JUMP JUMPDEST DUP1 PUSH1 0xA ADD SLOAD PUSH1 0x11 SLOAD LT ISZERO PUSH2 0xE05 JUMPI PUSH1 0x40 MLOAD PUSH3 0x461BCD PUSH1 0xE5 SHL DUP2 MSTORE PUSH1 0x4 ADD PUSH2 0x865 SWAP1 PUSH2 0x3FF3 JUMP JUMPDEST PUSH0 DUP2 PUSH1 0xA ADD SLOAD SWAP1 POP DUP1 PUSH1 0x11 PUSH0 DUP3 DUP3 SLOAD PUSH2 0xE1E SWAP2 SWAP1 PUSH2 0x3F96 JUMP JUMPDEST SWAP3 POP POP DUP2 SWAP1 SSTORE POP DUP1 PUSH1 0x10 PUSH0 DUP3 DUP3 SLOAD PUSH2 0xE36 SWAP2 SWAP1 PUSH2 0x3FBD JUMP JUMPDEST SWAP1 SWAP2 SSTORE POP POP DUP1 ISZERO PUSH2 0xEEB JUMPI PUSH1 0x40 MLOAD PUSH4 0xA9059CBB PUSH1 0xE0 SHL DUP2 MSTORE CALLER PUSH1 0x4 DUP3 ADD MSTORE PUSH1 0x24 DUP2 ADD DUP3 SWAP1 MSTORE PUSH32 0x0 PUSH1 0x1 PUSH1 0x1 PUSH1 0xA0 SHL SUB AND SWAP1 PUSH4 0xA9059CBB SWAP1 PUSH1 0x44 ADD PUSH1 0x20 PUSH1 0x40 MLOAD DUP1 DUP4 SUB DUP2 PUSH0 DUP8 GAS CALL ISZERO DUP1 ISZERO PUSH2 0xEAB JUMPI RETURNDATASIZE PUSH0 PUSH0 RETURNDATACOPY RETURNDATASIZE PUSH0 REVERT JUMPDEST POP POP POP POP PUSH1 0x40 MLOAD RETURNDATASIZE PUSH1 0x1F NOT PUSH1 0x1F DUP3 ADD AND DUP3 ADD DUP1 PUSH1 0x40 MSTORE POP DUP2 ADD SWAP1 PUSH2 0xECF SWAP2 SWAP1 PUSH2 0x4017 JUMP JUMPDEST PUSH2 0xEEB JUMPI PUSH1 0x40 MLOAD PUSH3 0x461BCD PUSH1 0xE5 SHL DUP2 MSTORE PUSH1 0x4 ADD PUSH2 0x865 SWAP1 PUSH2 0x4032 JUMP JUMPDEST PUSH1 0x9 DUP3 ADD DUP1 SLOAD PUSH2 0xFF00 NOT AND SWAP1 SSTORE PUSH0 PUSH1 0xA DUP4 ADD SSTORE PUSH1 0x1 DUP3 ADD SLOAD DUP3 SLOAD PUSH1 0x40 DUP1 MLOAD SWAP2 DUP3 MSTORE PUSH1 0x20 DUP3 ADD DUP5 SWAP1 MSTORE PUSH1 0x1 PUSH1 0x1 PUSH1 0xA0 SHL SUB SWAP1 SWAP3 AND SWAP2 PUSH32 0x89944602FCC483994090377F9ABD25A68EE71AE7EF66DB82411CC0739AB35CD8 SWAP2 ADD JUMPDEST PUSH1 0x40 MLOAD DUP1 SWAP2 SUB SWAP1 LOG2 POP POP PUSH2 0xF56 PUSH1 0x1 PUSH0 SSTORE JUMP JUMPDEST POP JUMP JUMPDEST PUSH1 0x1 SLOAD PUSH1 0x1 PUSH1 0x1 PUSH1 0xA0 SHL SUB AND CALLER EQ PUSH2 0xF83 JUMPI PUSH1 0x40 MLOAD PUSH3 0x461BCD PUSH1 0xE5 SHL DUP2 MSTORE PUSH1 0x4 ADD PUSH2 0x865 SWAP1 PUSH2 0x3F39 JUMP JUMPDEST PUSH2 0xF8E DUP4 DUP4 DUP4 PUSH2 0x36AF JUMP JUMPDEST PUSH1 0x12 SLOAD PUSH2 0xF9D SWAP1 PUSH1 0x1 SWAP1 PUSH2 0x3F96 JUMP JUMPDEST PUSH1 0x40 DUP1 MLOAD DUP6 DUP2 MSTORE PUSH1 0x20 DUP2 ADD DUP6 SWAP1 MSTORE SWAP1 DUP2 ADD DUP4 SWAP1 MSTORE PUSH32 0x901D51AF3F40466612C7BE89BA349F0B5AA321186BB4DE023367F1CA25ACDCED SWAP1 PUSH1 0x60 ADD PUSH1 0x40 MLOAD DUP1 SWAP2 SUB SWAP1 LOG2 POP POP POP JUMP JUMPDEST PUSH0 PUSH0 PUSH1 0xA DUP4 DUP2 SLOAD DUP2 LT PUSH2 0xFF8 JUMPI PUSH2 0xFF8 PUSH2 0x3FA9 JUMP JUMPDEST PUSH0 SWAP2 DUP3 MSTORE PUSH1 0x20 SWAP2 DUP3 SWAP1 KECCAK256 PUSH1 0x40 DUP1 MLOAD PUSH2 0x1C0 DUP2 ADD DUP3 MSTORE PUSH1 0xD SWAP1 SWAP4 MUL SWAP1 SWAP2 ADD DUP1 SLOAD DUP4 MSTORE PUSH1 0x1 DUP2 ADD SLOAD PUSH1 0x1 PUSH1 0x1 PUSH1 0xA0 SHL SUB AND SWAP4 DUP4 ADD SWAP4 SWAP1 SWAP4 MSTORE PUSH1 0x2 DUP4 ADD SLOAD SWAP1 DUP3 ADD MSTORE PUSH1 0x3 DUP3 ADD SLOAD PUSH1 0x60 DUP3 ADD MSTORE PUSH1 0x4 DUP3 ADD SLOAD PUSH1 0x80 DUP3 ADD MSTORE PUSH1 0x5 DUP3 ADD SLOAD PUSH1 0xA0 DUP3 ADD MSTORE PUSH1 0x6 DUP3 ADD SLOAD PUSH1 0xC0 DUP3 ADD MSTORE PUSH1 0x7 DUP3 ADD SLOAD PUSH1 0xE0 DUP3 ADD MSTORE PUSH1 0x8 DUP3 ADD SLOAD PUSH2 0x100 DUP1 DUP4 ADD SWAP2 SWAP1 SWAP2 MSTORE PUSH1 0x9 DUP4 ADD SLOAD PUSH1 0xFF DUP1 DUP3 AND ISZERO ISZERO PUSH2 0x120 DUP6 ADD MSTORE SWAP2 SWAP1 DIV DUP2 AND ISZERO DUP1 ISZERO PUSH2 0x140 DUP5 ADD MSTORE PUSH1 0xA DUP5 ADD SLOAD PUSH2 0x160 DUP5 ADD MSTORE PUSH1 0xB DUP5 ADD SLOAD SWAP1 SWAP2 AND ISZERO ISZERO PUSH2 0x180 DUP4 ADD MSTORE PUSH1 0xC SWAP1 SWAP3 ADD SLOAD PUSH2 0x1A0 DUP3 ADD MSTORE SWAP2 POP PUSH2 0x10D0 JUMPI PUSH2 0x160 ADD MLOAD SWAP3 SWAP2 POP POP JUMP JUMPDEST PUSH1 0x40 DUP2 ADD MLOAD ISZERO DUP1 PUSH2 0x10E4 JUMPI POP DUP1 PUSH2 0x120 ADD MLOAD ISZERO JUMPDEST ISZERO PUSH2 0x10F1 JUMPI POP PUSH0 SWAP3 SWAP2 POP POP JUMP JUMPDEST PUSH1 0xE0 DUP2 ADD MLOAD PUSH0 PUSH2 0x1101 DUP3 DUP3 PUSH2 0x3825 JUMP JUMPDEST SWAP1 POP DUP2 DUP2 GT PUSH2 0x1114 JUMPI POP PUSH0 SWAP5 SWAP4 POP POP POP POP JUMP JUMPDEST PUSH1 0x40 DUP4 ADD MLOAD PUSH0 SWAP1 DUP4 JUMPDEST DUP4 DUP2 LT ISZERO PUSH2 0x124B JUMPI PUSH0 PUSH1 0x12 DUP3 DUP2 SLOAD DUP2 LT PUSH2 0x1139 JUMPI PUSH2 0x1139 PUSH2 0x3FA9 JUMP JUMPDEST SWAP1 PUSH0 MSTORE PUSH1 0x20 PUSH0 KECCAK256 SWAP1 PUSH1 0x3 MUL ADD PUSH1 0x40 MLOAD DUP1 PUSH1 0x60 ADD PUSH1 0x40 MSTORE SWAP1 DUP2 PUSH0 DUP3 ADD SLOAD DUP2 MSTORE PUSH1 0x20 ADD PUSH1 0x1 DUP3 ADD SLOAD DUP2 MSTORE PUSH1 0x20 ADD PUSH1 0x2 DUP3 ADD SLOAD DUP2 MSTORE POP POP SWAP1 POP PUSH0 DUP8 PUSH2 0x180 ADD MLOAD PUSH2 0x1188 JUMPI PUSH2 0x1183 DUP4 PUSH2 0x3873 JUMP JUMPDEST PUSH2 0x118F JUMP JUMPDEST DUP8 PUSH2 0x1A0 ADD MLOAD JUMPDEST SWAP1 POP PUSH0 PUSH2 0x2710 PUSH2 0x119F DUP4 DUP8 PUSH2 0x405B JUMP JUMPDEST PUSH2 0x11A9 SWAP2 SWAP1 PUSH2 0x4072 JUMP JUMPDEST SWAP1 POP DUP9 PUSH1 0x60 ADD MLOAD DUP5 SUB PUSH2 0x1232 JUMPI DUP3 MLOAD PUSH1 0x20 DUP5 ADD MLOAD PUSH0 PUSH2 0x11C8 DUP4 DUP4 PUSH2 0x3F96 JUMP JUMPDEST SWAP1 POP PUSH0 DUP4 DUP14 PUSH1 0x80 ADD MLOAD GT PUSH2 0x11DC JUMPI DUP4 PUSH2 0x11E2 JUMP JUMPDEST DUP13 PUSH1 0x80 ADD MLOAD JUMPDEST SWAP1 POP DUP3 DUP1 DUP3 LT PUSH2 0x11F9 JUMPI POP POP POP POP POP POP POP POP PUSH2 0x1243 JUMP JUMPDEST PUSH0 PUSH2 0x1204 DUP4 DUP4 PUSH2 0x3F96 JUMP JUMPDEST SWAP1 POP DUP4 PUSH2 0x1211 DUP3 DUP10 PUSH2 0x405B JUMP JUMPDEST PUSH2 0x121B SWAP2 SWAP1 PUSH2 0x4072 JUMP JUMPDEST PUSH2 0x1225 SWAP1 DUP14 PUSH2 0x3FBD JUMP JUMPDEST SWAP12 POP POP POP POP POP POP POP PUSH2 0x123F JUMP JUMPDEST PUSH2 0x123C DUP2 DUP8 PUSH2 0x3FBD JUMP JUMPDEST SWAP6 POP JUMPDEST POP POP POP JUMPDEST PUSH1 0x1 ADD PUSH2 0x111D JUMP JUMPDEST POP SWAP1 SWAP7 SWAP6 POP POP POP POP POP POP JUMP JUMPDEST PUSH1 0x1 SLOAD PUSH1 0x1 PUSH1 0x1 PUSH1 0xA0 SHL SUB AND CALLER EQ PUSH2 0x1281 JUMPI PUSH1 0x40 MLOAD PUSH3 0x461BCD PUSH1 0xE5 SHL DUP2 MSTORE PUSH1 0x4 ADD PUSH2 0x865 SWAP1 PUSH2 0x3F39 JUMP JUMPDEST DUP5 DUP4 EQ DUP1 ISZERO PUSH2 0x128F JUMPI POP DUP5 DUP2 EQ JUMPDEST PUSH2 0x12CD JUMPI PUSH1 0x40 MLOAD PUSH3 0x461BCD PUSH1 0xE5 SHL DUP2 MSTORE PUSH1 0x20 PUSH1 0x4 DUP3 ADD MSTORE PUSH1 0xF PUSH1 0x24 DUP3 ADD MSTORE PUSH15 0x98CADCCEE8D040DAD2E6DAC2E8C6D PUSH1 0x8B SHL PUSH1 0x44 DUP3 ADD MSTORE PUSH1 0x64 ADD PUSH2 0x865 JUMP JUMPDEST DUP5 PUSH2 0x1302 JUMPI PUSH1 0x40 MLOAD PUSH3 0x461BCD PUSH1 0xE5 SHL DUP2 MSTORE PUSH1 0x20 PUSH1 0x4 DUP3 ADD MSTORE PUSH1 0x5 PUSH1 0x24 DUP3 ADD MSTORE PUSH5 0x456D707479 PUSH1 0xD8 SHL PUSH1 0x44 DUP3 ADD MSTORE PUSH1 0x64 ADD PUSH2 0x865 JUMP JUMPDEST PUSH0 JUMPDEST DUP6 DUP2 LT ISZERO PUSH2 0x1367 JUMPI PUSH2 0x135F DUP8 DUP8 DUP4 DUP2 DUP2 LT PUSH2 0x1321 JUMPI PUSH2 0x1321 PUSH2 0x3FA9 JUMP JUMPDEST SWAP1 POP PUSH1 0x20 MUL ADD CALLDATALOAD DUP7 DUP7 DUP5 DUP2 DUP2 LT PUSH2 0x133A JUMPI PUSH2 0x133A PUSH2 0x3FA9 JUMP JUMPDEST SWAP1 POP PUSH1 0x20 MUL ADD CALLDATALOAD DUP6 DUP6 DUP6 DUP2 DUP2 LT PUSH2 0x1353 JUMPI PUSH2 0x1353 PUSH2 0x3FA9 JUMP JUMPDEST SWAP1 POP PUSH1 0x20 MUL ADD CALLDATALOAD PUSH2 0x36AF JUMP JUMPDEST PUSH1 0x1 ADD PUSH2 0x1304 JUMP JUMPDEST POP PUSH1 0x12 SLOAD PUSH32 0xAB080E234EBAB87937F1D48C107ECB8AB6361D9012A0670705E920B9CFFE1011 SWAP1 PUSH2 0x1398 SWAP1 DUP8 SWAP1 PUSH2 0x3F96 JUMP JUMPDEST PUSH1 0x12 SLOAD PUSH2 0x13A7 SWAP1 PUSH1 0x1 SWAP1 PUSH2 0x3F96 JUMP JUMPDEST PUSH1 0x40 DUP1 MLOAD SWAP3 DUP4 MSTORE PUSH1 0x20 DUP4 ADD SWAP2 SWAP1 SWAP2 MSTORE ADD PUSH1 0x40 MLOAD DUP1 SWAP2 SUB SWAP1 LOG1 POP POP POP POP POP POP JUMP JUMPDEST PUSH1 0x60 DUP2 PUSH0 SUB PUSH2 0x13D6 JUMPI PUSH1 0xC SLOAD SWAP2 POP JUMPDEST PUSH0 PUSH2 0x13E1 DUP4 DUP6 PUSH2 0x3FBD JUMP JUMPDEST PUSH1 0xC SLOAD SWAP1 SWAP2 POP DUP5 GT ISZERO PUSH2 0x13F4 JUMPI POP PUSH2 0x15FE JUMP JUMPDEST PUSH1 0xC SLOAD DUP2 GT ISZERO PUSH2 0x1403 JUMPI POP PUSH1 0xC SLOAD JUMPDEST PUSH2 0x140D DUP5 DUP3 PUSH2 0x3F96 JUMP JUMPDEST PUSH8 0xFFFFFFFFFFFFFFFF DUP2 GT ISZERO PUSH2 0x1425 JUMPI PUSH2 0x1425 PUSH2 0x4091 JUMP JUMPDEST PUSH1 0x40 MLOAD SWAP1 DUP1 DUP3 MSTORE DUP1 PUSH1 0x20 MUL PUSH1 0x20 ADD DUP3 ADD PUSH1 0x40 MSTORE DUP1 ISZERO PUSH2 0x145E JUMPI DUP2 PUSH1 0x20 ADD JUMPDEST PUSH2 0x144B PUSH2 0x3A4E JUMP JUMPDEST DUP2 MSTORE PUSH1 0x20 ADD SWAP1 PUSH1 0x1 SWAP1 SUB SWAP1 DUP2 PUSH2 0x1443 JUMPI SWAP1 POP JUMPDEST POP SWAP2 POP PUSH0 JUMPDEST PUSH2 0x146D DUP6 DUP4 PUSH2 0x3F96 JUMP JUMPDEST DUP2 LT ISZERO PUSH2 0x15FB JUMPI PUSH1 0xA PUSH1 0xC PUSH1 0x1 DUP8 DUP5 PUSH1 0xC DUP1 SLOAD SWAP1 POP PUSH2 0x148C SWAP2 SWAP1 PUSH2 0x3F96 JUMP JUMPDEST PUSH2 0x1496 SWAP2 SWAP1 PUSH2 0x3F96 JUMP JUMPDEST PUSH2 0x14A0 SWAP2 SWAP1 PUSH2 0x3F96 JUMP JUMPDEST DUP2 SLOAD DUP2 LT PUSH2 0x14B0 JUMPI PUSH2 0x14B0 PUSH2 0x3FA9 JUMP JUMPDEST SWAP1 PUSH0 MSTORE PUSH1 0x20 PUSH0 KECCAK256 ADD SLOAD DUP2 SLOAD DUP2 LT PUSH2 0x14C9 JUMPI PUSH2 0x14C9 PUSH2 0x3FA9 JUMP JUMPDEST PUSH0 SWAP2 DUP3 MSTORE PUSH1 0x20 SWAP2 DUP3 SWAP1 KECCAK256 PUSH1 0x40 DUP1 MLOAD PUSH2 0x1C0 DUP2 ADD DUP3 MSTORE PUSH1 0xD SWAP1 SWAP4 MUL SWAP1 SWAP2 ADD DUP1 SLOAD DUP4 MSTORE PUSH1 0x1 DUP2 ADD SLOAD PUSH1 0x1 PUSH1 0x1 PUSH1 0xA0 SHL SUB AND SWAP4 DUP4 ADD SWAP4 SWAP1 SWAP4 MSTORE PUSH1 0x2 DUP4 ADD SLOAD SWAP1 DUP3 ADD MSTORE PUSH1 0x3 DUP3 ADD SLOAD PUSH1 0x60 DUP3 ADD MSTORE PUSH1 0x4 DUP3 ADD SLOAD PUSH1 0x80 DUP3 ADD MSTORE PUSH1 0x5 DUP3 ADD SLOAD PUSH1 0xA0 DUP3 ADD MSTORE PUSH1 0x6 DUP3 ADD SLOAD PUSH1 0xC0 DUP3 ADD MSTORE PUSH1 0x7 DUP3 ADD SLOAD PUSH1 0xE0 DUP3 ADD MSTORE PUSH1 0x8 DUP3 ADD SLOAD PUSH2 0x100 DUP1 DUP4 ADD SWAP2 SWAP1 SWAP2 MSTORE PUSH1 0x9 DUP4 ADD SLOAD PUSH1 0xFF DUP1 DUP3 AND ISZERO ISZERO PUSH2 0x120 DUP6 ADD MSTORE SWAP2 SWAP1 DIV DUP2 AND ISZERO ISZERO PUSH2 0x140 DUP4 ADD MSTORE PUSH1 0xA DUP4 ADD SLOAD PUSH2 0x160 DUP4 ADD MSTORE PUSH1 0xB DUP4 ADD SLOAD AND ISZERO ISZERO PUSH2 0x180 DUP3 ADD MSTORE PUSH1 0xC SWAP1 SWAP2 ADD SLOAD PUSH2 0x1A0 DUP3 ADD MSTORE DUP4 MLOAD DUP5 SWAP1 DUP4 SWAP1 DUP2 LT PUSH2 0x15A1 JUMPI PUSH2 0x15A1 PUSH2 0x3FA9 JUMP JUMPDEST PUSH1 0x20 MUL PUSH1 0x20 ADD ADD DUP2 SWAP1 MSTORE POP PUSH2 0x15D1 DUP4 DUP3 DUP2 MLOAD DUP2 LT PUSH2 0x15C1 JUMPI PUSH2 0x15C1 PUSH2 0x3FA9 JUMP JUMPDEST PUSH1 0x20 MUL PUSH1 0x20 ADD ADD MLOAD PUSH0 ADD MLOAD PUSH2 0xFE3 JUMP JUMPDEST DUP4 DUP3 DUP2 MLOAD DUP2 LT PUSH2 0x15E3 JUMPI PUSH2 0x15E3 PUSH2 0x3FA9 JUMP JUMPDEST PUSH1 0x20 SWAP1 DUP2 MUL SWAP2 SWAP1 SWAP2 ADD ADD MLOAD PUSH2 0x100 ADD MSTORE PUSH1 0x1 ADD PUSH2 0x1463 JUMP JUMPDEST POP POP JUMPDEST SWAP3 SWAP2 POP POP JUMP JUMPDEST PUSH1 0x60 DUP2 PUSH0 SUB PUSH2 0x1613 JUMPI PUSH1 0x6 SLOAD SWAP2 POP JUMPDEST PUSH0 PUSH2 0x161E DUP4 DUP6 PUSH2 0x3FBD JUMP JUMPDEST PUSH1 0x6 SLOAD SWAP1 SWAP2 POP DUP5 GT ISZERO PUSH2 0x1631 JUMPI POP PUSH2 0x15FE JUMP JUMPDEST PUSH1 0x6 SLOAD DUP2 GT ISZERO PUSH2 0x1640 JUMPI POP PUSH1 0x6 SLOAD JUMPDEST PUSH2 0x164A DUP5 DUP3 PUSH2 0x3F96 JUMP JUMPDEST PUSH8 0xFFFFFFFFFFFFFFFF DUP2 GT ISZERO PUSH2 0x1662 JUMPI PUSH2 0x1662 PUSH2 0x4091 JUMP JUMPDEST PUSH1 0x40 MLOAD SWAP1 DUP1 DUP3 MSTORE DUP1 PUSH1 0x20 MUL PUSH1 0x20 ADD DUP3 ADD PUSH1 0x40 MSTORE DUP1 ISZERO PUSH2 0x168B JUMPI DUP2 PUSH1 0x20 ADD PUSH1 0x20 DUP3 MUL DUP1 CALLDATASIZE DUP4 CALLDATACOPY ADD SWAP1 POP JUMPDEST POP SWAP2 POP PUSH0 JUMPDEST PUSH2 0x169A DUP6 DUP4 PUSH2 0x3F96 JUMP JUMPDEST DUP2 LT ISZERO PUSH2 0x15FB JUMPI PUSH1 0x6 DUP1 SLOAD PUSH1 0x1 SWAP1 DUP8 SWAP1 PUSH2 0x16B5 SWAP1 DUP6 SWAP1 PUSH2 0x3F96 JUMP JUMPDEST PUSH2 0x16BF SWAP2 SWAP1 PUSH2 0x3F96 JUMP JUMPDEST PUSH2 0x16C9 SWAP2 SWAP1 PUSH2 0x3F96 JUMP JUMPDEST DUP2 SLOAD DUP2 LT PUSH2 0x16D9 JUMPI PUSH2 0x16D9 PUSH2 0x3FA9 JUMP JUMPDEST SWAP1 PUSH0 MSTORE PUSH1 0x20 PUSH0 KECCAK256 ADD PUSH0 SWAP1 SLOAD SWAP1 PUSH2 0x100 EXP SWAP1 DIV PUSH1 0x1 PUSH1 0x1 PUSH1 0xA0 SHL SUB AND DUP4 DUP3 DUP2 MLOAD DUP2 LT PUSH2 0x1706 JUMPI PUSH2 0x1706 PUSH2 0x3FA9 JUMP JUMPDEST PUSH1 0x1 PUSH1 0x1 PUSH1 0xA0 SHL SUB SWAP1 SWAP3 AND PUSH1 0x20 SWAP3 DUP4 MUL SWAP2 SWAP1 SWAP2 ADD SWAP1 SWAP2 ADD MSTORE PUSH1 0x1 ADD PUSH2 0x1690 JUMP JUMPDEST PUSH1 0x60 DUP2 PUSH0 SUB PUSH2 0x174A JUMPI PUSH1 0x1 PUSH1 0x1 PUSH1 0xA0 SHL SUB DUP5 AND PUSH0 SWAP1 DUP2 MSTORE PUSH1 0x8 PUSH1 0x20 MSTORE PUSH1 0x40 SWAP1 KECCAK256 SLOAD SWAP2 POP JUMPDEST PUSH0 PUSH2 0x1755 DUP4 DUP6 PUSH2 0x3FBD JUMP JUMPDEST PUSH1 0x1 PUSH1 0x1 PUSH1 0xA0 SHL SUB DUP7 AND PUSH0 SWAP1 DUP2 MSTORE PUSH1 0x8 PUSH1 0x20 MSTORE PUSH1 0x40 SWAP1 KECCAK256 SLOAD SWAP1 SWAP2 POP DUP5 GT ISZERO PUSH2 0x177D JUMPI POP PUSH2 0x19B6 JUMP JUMPDEST PUSH1 0x1 PUSH1 0x1 PUSH1 0xA0 SHL SUB DUP6 AND PUSH0 SWAP1 DUP2 MSTORE PUSH1 0x8 PUSH1 0x20 MSTORE PUSH1 0x40 SWAP1 KECCAK256 SLOAD DUP2 GT ISZERO PUSH2 0x17B6 JUMPI POP PUSH1 0x1 PUSH1 0x1 PUSH1 0xA0 SHL SUB DUP5 AND PUSH0 SWAP1 DUP2 MSTORE PUSH1 0x8 PUSH1 0x20 MSTORE PUSH1 0x40 SWAP1 KECCAK256 SLOAD JUMPDEST PUSH2 0x17C0 DUP5 DUP3 PUSH2 0x3F96 JUMP JUMPDEST PUSH8 0xFFFFFFFFFFFFFFFF DUP2 GT ISZERO PUSH2 0x17D8 JUMPI PUSH2 0x17D8 PUSH2 0x4091 JUMP JUMPDEST PUSH1 0x40 MLOAD SWAP1 DUP1 DUP3 MSTORE DUP1 PUSH1 0x20 MUL PUSH1 0x20 ADD DUP3 ADD PUSH1 0x40 MSTORE DUP1 ISZERO PUSH2 0x1811 JUMPI DUP2 PUSH1 0x20 ADD JUMPDEST PUSH2 0x17FE PUSH2 0x3A4E JUMP JUMPDEST DUP2 MSTORE PUSH1 0x20 ADD SWAP1 PUSH1 0x1 SWAP1 SUB SWAP1 DUP2 PUSH2 0x17F6 JUMPI SWAP1 POP JUMPDEST POP SWAP2 POP PUSH0 JUMPDEST PUSH2 0x1820 DUP6 DUP4 PUSH2 0x3F96 JUMP JUMPDEST DUP2 LT ISZERO PUSH2 0x19B3 JUMPI PUSH1 0x1 PUSH1 0x1 PUSH1 0xA0 SHL SUB DUP7 AND PUSH0 SWAP1 DUP2 MSTORE PUSH1 0x8 PUSH1 0x20 MSTORE PUSH1 0x40 SWAP1 KECCAK256 DUP1 SLOAD PUSH1 0xA SWAP2 SWAP1 PUSH1 0x1 SWAP1 DUP9 SWAP1 PUSH2 0x1854 SWAP1 DUP7 SWAP1 PUSH2 0x3F96 JUMP JUMPDEST PUSH2 0x185E SWAP2 SWAP1 PUSH2 0x3F96 JUMP JUMPDEST PUSH2 0x1868 SWAP2 SWAP1 PUSH2 0x3F96 JUMP JUMPDEST DUP2 SLOAD DUP2 LT PUSH2 0x1878 JUMPI PUSH2 0x1878 PUSH2 0x3FA9 JUMP JUMPDEST SWAP1 PUSH0 MSTORE PUSH1 0x20 PUSH0 KECCAK256 ADD SLOAD DUP2 SLOAD DUP2 LT PUSH2 0x1891 JUMPI PUSH2 0x1891 PUSH2 0x3FA9 JUMP JUMPDEST PUSH0 SWAP2 DUP3 MSTORE PUSH1 0x20 SWAP2 DUP3 SWAP1 KECCAK256 PUSH1 0x40 DUP1 MLOAD PUSH2 0x1C0 DUP2 ADD DUP3 MSTORE PUSH1 0xD SWAP1 SWAP4 MUL SWAP1 SWAP2 ADD DUP1 SLOAD DUP4 MSTORE PUSH1 0x1 DUP2 ADD SLOAD PUSH1 0x1 PUSH1 0x1 PUSH1 0xA0 SHL SUB AND SWAP4 DUP4 ADD SWAP4 SWAP1 SWAP4 MSTORE PUSH1 0x2 DUP4 ADD SLOAD SWAP1 DUP3 ADD MSTORE PUSH1 0x3 DUP3 ADD SLOAD PUSH1 0x60 DUP3 ADD MSTORE PUSH1 0x4 DUP3 ADD SLOAD PUSH1 0x80 DUP3 ADD MSTORE PUSH1 0x5 DUP3 ADD SLOAD PUSH1 0xA0 DUP3 ADD MSTORE PUSH1 0x6 DUP3 ADD SLOAD PUSH1 0xC0 DUP3 ADD MSTORE PUSH1 0x7 DUP3 ADD SLOAD PUSH1 0xE0 DUP3 ADD MSTORE PUSH1 0x8 DUP3 ADD SLOAD PUSH2 0x100 DUP1 DUP4 ADD SWAP2 SWAP1 SWAP2 MSTORE PUSH1 0x9 DUP4 ADD SLOAD PUSH1 0xFF DUP1 DUP3 AND ISZERO ISZERO PUSH2 0x120 DUP6 ADD MSTORE SWAP2 SWAP1 DIV DUP2 AND ISZERO ISZERO PUSH2 0x140 DUP4 ADD MSTORE PUSH1 0xA DUP4 ADD SLOAD PUSH2 0x160 DUP4 ADD MSTORE PUSH1 0xB DUP4 ADD SLOAD AND ISZERO ISZERO PUSH2 0x180 DUP3 ADD MSTORE PUSH1 0xC SWAP1 SWAP2 ADD SLOAD PUSH2 0x1A0 DUP3 ADD MSTORE DUP4 MLOAD DUP5 SWAP1 DUP4 SWAP1 DUP2 LT PUSH2 0x1969 JUMPI PUSH2 0x1969 PUSH2 0x3FA9 JUMP JUMPDEST PUSH1 0x20 MUL PUSH1 0x20 ADD ADD DUP2 SWAP1 MSTORE POP PUSH2 0x1989 DUP4 DUP3 DUP2 MLOAD DUP2 LT PUSH2 0x15C1 JUMPI PUSH2 0x15C1 PUSH2 0x3FA9 JUMP JUMPDEST DUP4 DUP3 DUP2 MLOAD DUP2 LT PUSH2 0x199B JUMPI PUSH2 0x199B PUSH2 0x3FA9 JUMP JUMPDEST PUSH1 0x20 SWAP1 DUP2 MUL SWAP2 SWAP1 SWAP2 ADD ADD MLOAD PUSH2 0x100 ADD MSTORE PUSH1 0x1 ADD PUSH2 0x1816 JUMP JUMPDEST POP POP JUMPDEST SWAP4 SWAP3 POP POP POP JUMP JUMPDEST PUSH1 0x1 SLOAD PUSH1 0x1 PUSH1 0x1 PUSH1 0xA0 SHL SUB AND CALLER EQ PUSH2 0x19E7 JUMPI PUSH1 0x40 MLOAD PUSH3 0x461BCD PUSH1 0xE5 SHL DUP2 MSTORE PUSH1 0x4 ADD PUSH2 0x865 SWAP1 PUSH2 0x3F39 JUMP JUMPDEST PUSH1 0x4 SSTORE JUMP JUMPDEST PUSH2 0x19F4 PUSH2 0x30CB JUMP JUMPDEST PUSH0 PUSH1 0xA DUP3 DUP2 SLOAD DUP2 LT PUSH2 0x1A08 JUMPI PUSH2 0x1A08 PUSH2 0x3FA9 JUMP JUMPDEST PUSH0 SWAP2 DUP3 MSTORE PUSH1 0x20 SWAP1 SWAP2 KECCAK256 PUSH1 0xD SWAP1 SWAP2 MUL ADD PUSH1 0x9 DUP2 ADD SLOAD SWAP1 SWAP2 POP PUSH1 0xFF AND PUSH2 0x1A3E JUMPI PUSH1 0x40 MLOAD PUSH3 0x461BCD PUSH1 0xE5 SHL DUP2 MSTORE PUSH1 0x4 ADD PUSH2 0x865 SWAP1 PUSH2 0x40A5 JUMP JUMPDEST PUSH1 0x1 DUP2 ADD SLOAD PUSH1 0x1 PUSH1 0x1 PUSH1 0xA0 SHL SUB AND CALLER EQ PUSH2 0x1A6A JUMPI PUSH1 0x40 MLOAD PUSH3 0x461BCD PUSH1 0xE5 SHL DUP2 MSTORE PUSH1 0x4 ADD PUSH2 0x865 SWAP1 PUSH2 0x3FD0 JUMP JUMPDEST PUSH0 PUSH2 0x1A73 PUSH2 0x38B1 JUMP JUMPDEST SWAP1 POP DUP2 PUSH1 0x6 ADD SLOAD DUP2 LT ISZERO PUSH2 0x1AB2 JUMPI PUSH1 0x40 MLOAD PUSH3 0x461BCD PUSH1 0xE5 SHL DUP2 MSTORE PUSH1 0x20 PUSH1 0x4 DUP3 ADD MSTORE PUSH1 0x6 PUSH1 0x24 DUP3 ADD MSTORE PUSH6 0x131BD8DAD959 PUSH1 0xD2 SHL PUSH1 0x44 DUP3 ADD MSTORE PUSH1 0x64 ADD PUSH2 0x865 JUMP JUMPDEST PUSH0 PUSH2 0x1ABC DUP5 PUSH2 0xFE3 JUMP JUMPDEST SWAP1 POP DUP1 PUSH1 0x11 SLOAD LT ISZERO PUSH2 0x1AE0 JUMPI PUSH1 0x40 MLOAD PUSH3 0x461BCD PUSH1 0xE5 SHL DUP2 MSTORE PUSH1 0x4 ADD PUSH2 0x865 SWAP1 PUSH2 0x3FF3 JUMP JUMPDEST PUSH0 DUP2 DUP5 PUSH1 0x2 ADD SLOAD PUSH2 0x1AF1 SWAP2 SWAP1 PUSH2 0x3FBD JUMP JUMPDEST SWAP1 POP DUP4 PUSH1 0x2 ADD SLOAD PUSH1 0xF PUSH0 DUP3 DUP3 SLOAD PUSH2 0x1B08 SWAP2 SWAP1 PUSH2 0x3F96 JUMP JUMPDEST SWAP1 SWAP2 SSTORE POP POP PUSH1 0x9 DUP5 ADD DUP1 SLOAD PUSH1 0xFF NOT AND SWAP1 SSTORE TIMESTAMP PUSH1 0x5 DUP6 ADD SSTORE PUSH1 0x7 DUP5 ADD SLOAD PUSH0 SWAP1 PUSH2 0x1B30 SWAP1 DUP3 PUSH2 0x3825 JUMP JUMPDEST PUSH1 0x7 DUP7 ADD DUP2 SWAP1 SSTORE PUSH1 0x9 DUP6 SWAP1 SSTORE PUSH1 0xE DUP1 SLOAD SWAP2 SWAP3 POP PUSH0 PUSH2 0x1B4D DUP4 PUSH2 0x40C7 JUMP JUMPDEST SWAP2 SWAP1 POP SSTORE POP DUP3 PUSH1 0x11 PUSH0 DUP3 DUP3 SLOAD PUSH2 0x1B63 SWAP2 SWAP1 PUSH2 0x3F96 JUMP JUMPDEST SWAP3 POP POP DUP2 SWAP1 SSTORE POP DUP3 PUSH1 0x10 PUSH0 DUP3 DUP3 SLOAD PUSH2 0x1B7B SWAP2 SWAP1 PUSH2 0x3FBD JUMP JUMPDEST SWAP1 SWAP2 SSTORE POP PUSH2 0x1B8A SWAP1 POP DUP7 PUSH2 0x3932 JUMP JUMPDEST PUSH0 DUP5 DUP2 MSTORE PUSH1 0x15 PUSH1 0x20 MSTORE PUSH1 0x40 DUP2 KECCAK256 DUP1 SLOAD DUP6 SWAP3 SWAP1 PUSH2 0x1BA7 SWAP1 DUP5 SWAP1 PUSH2 0x3FBD JUMP JUMPDEST SWAP1 SWAP2 SSTORE POP POP PUSH1 0x40 MLOAD PUSH4 0xA9059CBB PUSH1 0xE0 SHL DUP2 MSTORE CALLER PUSH1 0x4 DUP3 ADD MSTORE PUSH1 0x24 DUP2 ADD DUP4 SWAP1 MSTORE PUSH32 0x0 PUSH1 0x1 PUSH1 0x1 PUSH1 0xA0 SHL SUB AND SWAP1 PUSH4 0xA9059CBB SWAP1 PUSH1 0x44 ADD PUSH1 0x20 PUSH1 0x40 MLOAD DUP1 DUP4 SUB DUP2 PUSH0 DUP8 GAS CALL ISZERO DUP1 ISZERO PUSH2 0x1C16 JUMPI RETURNDATASIZE PUSH0 PUSH0 RETURNDATACOPY RETURNDATASIZE PUSH0 REVERT JUMPDEST POP POP POP POP PUSH1 0x40 MLOAD RETURNDATASIZE PUSH1 0x1F NOT PUSH1 0x1F DUP3 ADD AND DUP3 ADD DUP1 PUSH1 0x40 MSTORE POP DUP2 ADD SWAP1 PUSH2 0x1C3A SWAP2 SWAP1 PUSH2 0x4017 JUMP JUMPDEST PUSH2 0x1C56 JUMPI PUSH1 0x40 MLOAD PUSH3 0x461BCD PUSH1 0xE5 SHL DUP2 MSTORE PUSH1 0x4 ADD PUSH2 0x865 SWAP1 PUSH2 0x4032 JUMP JUMPDEST PUSH1 0x40 DUP1 MLOAD DUP8 DUP2 MSTORE PUSH1 0x20 DUP2 ADD DUP5 SWAP1 MSTORE CALLER SWAP2 PUSH32 0x217EA3989B9D3112D2133A930216F444B7FBCAEAA4D5BC0220D099FDC928E71E SWAP2 ADD PUSH1 0x40 MLOAD DUP1 SWAP2 SUB SWAP1 LOG2 POP POP POP POP POP PUSH2 0xF56 PUSH1 0x1 PUSH0 SSTORE JUMP JUMPDEST PUSH2 0x1CA7 PUSH2 0x30CB JUMP JUMPDEST PUSH0 PUSH1 0xA DUP3 DUP2 SLOAD DUP2 LT PUSH2 0x1CBB JUMPI PUSH2 0x1CBB PUSH2 0x3FA9 JUMP JUMPDEST PUSH0 SWAP2 DUP3 MSTORE PUSH1 0x20 SWAP1 SWAP2 KECCAK256 PUSH1 0xD SWAP1 SWAP2 MUL ADD PUSH1 0x9 DUP2 ADD SLOAD SWAP1 SWAP2 POP PUSH1 0xFF AND PUSH2 0x1CF1 JUMPI PUSH1 0x40 MLOAD PUSH3 0x461BCD PUSH1 0xE5 SHL DUP2 MSTORE PUSH1 0x4 ADD PUSH2 0x865 SWAP1 PUSH2 0x40A5 JUMP JUMPDEST PUSH1 0x1 DUP2 ADD SLOAD PUSH1 0x1 PUSH1 0x1 PUSH1 0xA0 SHL SUB AND CALLER EQ PUSH2 0x1D1D JUMPI PUSH1 0x40 MLOAD PUSH3 0x461BCD PUSH1 0xE5 SHL DUP2 MSTORE PUSH1 0x4 ADD PUSH2 0x865 SWAP1 PUSH2 0x3FD0 JUMP JUMPDEST PUSH0 PUSH2 0x1D26 PUSH2 0x38B1 JUMP JUMPDEST SWAP1 POP DUP2 PUSH1 0x6 ADD SLOAD DUP2 LT ISZERO PUSH2 0x1D65 JUMPI PUSH1 0x40 MLOAD PUSH3 0x461BCD PUSH1 0xE5 SHL DUP2 MSTORE PUSH1 0x20 PUSH1 0x4 DUP3 ADD MSTORE PUSH1 0x6 PUSH1 0x24 DUP3 ADD MSTORE PUSH6 0x131BD8DAD959 PUSH1 0xD2 SHL PUSH1 0x44 DUP3 ADD MSTORE PUSH1 0x64 ADD PUSH2 0x865 JUMP JUMPDEST PUSH0 PUSH2 0x1D6F DUP5 PUSH2 0xFE3 JUMP JUMPDEST SWAP1 POP DUP3 PUSH1 0x2 ADD SLOAD PUSH1 0xF PUSH0 DUP3 DUP3 SLOAD PUSH2 0x1D86 SWAP2 SWAP1 PUSH2 0x3F96 JUMP JUMPDEST SWAP1 SWAP2 SSTORE POP POP PUSH1 0x9 DUP1 DUP5 ADD DUP1 SLOAD PUSH2 0xFFFF NOT AND PUSH2 0x100 OR SWAP1 SSTORE PUSH1 0xA DUP5 ADD DUP3 SWAP1 SSTORE TIMESTAMP PUSH1 0x5 DUP6 ADD SSTORE DUP3 SWAP1 SSTORE PUSH1 0xE DUP1 SLOAD SWAP1 PUSH0 PUSH2 0x1DBC DUP4 PUSH2 0x40C7 JUMP JUMPDEST SWAP2 SWAP1 POP SSTORE POP PUSH2 0x1DCA DUP5 PUSH2 0x3932 JUMP JUMPDEST PUSH0 DUP3 DUP2 MSTORE PUSH1 0x15 PUSH1 0x20 MSTORE PUSH1 0x40 DUP2 KECCAK256 DUP1 SLOAD DUP4 SWAP3 SWAP1 PUSH2 0x1DE7 SWAP1 DUP5 SWAP1 PUSH2 0x3FBD JUMP JUMPDEST SWAP3 POP POP DUP2 SWAP1 SSTORE POP DUP1 PUSH1 0x10 PUSH0 DUP3 DUP3 SLOAD PUSH2 0x1DFF SWAP2 SWAP1 PUSH2 0x3FBD JUMP JUMPDEST SWAP1 SWAP2 SSTORE POP POP PUSH1 0x1 DUP4 ADD SLOAD PUSH1 0x2 DUP5 ADD SLOAD PUSH1 0x40 MLOAD PUSH4 0xA9059CBB PUSH1 0xE0 SHL DUP2 MSTORE PUSH1 0x1 PUSH1 0x1 PUSH1 0xA0 SHL SUB SWAP3 DUP4 AND PUSH1 0x4 DUP3 ADD MSTORE PUSH1 0x24 DUP2 ADD SWAP2 SWAP1 SWAP2 MSTORE PUSH32 0x0 SWAP1 SWAP2 AND SWAP1 PUSH4 0xA9059CBB SWAP1 PUSH1 0x44 ADD PUSH1 0x20 PUSH1 0x40 MLOAD DUP1 DUP4 SUB DUP2 PUSH0 DUP8 GAS CALL ISZERO DUP1 ISZERO PUSH2 0x1E7D JUMPI RETURNDATASIZE PUSH0 PUSH0 RETURNDATACOPY RETURNDATASIZE PUSH0 REVERT JUMPDEST POP POP POP POP PUSH1 0x40 MLOAD RETURNDATASIZE PUSH1 0x1F NOT PUSH1 0x1F DUP3 ADD AND DUP3 ADD DUP1 PUSH1 0x40 MSTORE POP DUP2 ADD SWAP1 PUSH2 0x1EA1 SWAP2 SWAP1 PUSH2 0x4017 JUMP JUMPDEST PUSH2 0x1EBD JUMPI PUSH1 0x40 MLOAD PUSH3 0x461BCD PUSH1 0xE5 SHL DUP2 MSTORE PUSH1 0x4 ADD PUSH2 0x865 SWAP1 PUSH2 0x4032 JUMP JUMPDEST PUSH1 0x1 DUP4 ADD SLOAD DUP4 SLOAD PUSH1 0x2 DUP6 ADD SLOAD PUSH1 0x40 DUP1 MLOAD SWAP3 DUP4 MSTORE PUSH1 0x20 DUP4 ADD SWAP2 SWAP1 SWAP2 MSTORE DUP2 ADD DUP4 SWAP1 MSTORE PUSH1 0x1 PUSH1 0x1 PUSH1 0xA0 SHL SUB SWAP1 SWAP2 AND SWAP1 PUSH32 0x2BB9E1005BD12ABFF0A36B08286208299F11BAC0718C4590FD6F4EABD7667CF9 SWAP1 PUSH1 0x60 ADD JUMPDEST PUSH1 0x40 MLOAD DUP1 SWAP2 SUB SWAP1 LOG2 POP POP POP PUSH2 0xF56 PUSH1 0x1 PUSH0 SSTORE JUMP JUMPDEST PUSH0 DUP5 ISZERO DUP1 PUSH2 0x1F2F JUMPI POP DUP3 ISZERO JUMPDEST DUP1 PUSH2 0x1F3C JUMPI POP PUSH1 0x12 SLOAD DUP5 LT ISZERO JUMPDEST ISZERO PUSH2 0x1F48 JUMPI POP PUSH0 PUSH2 0x20B4 JUMP JUMPDEST PUSH0 PUSH2 0x1F53 DUP5 DUP7 PUSH2 0x3FBD JUMP JUMPDEST PUSH1 0x12 SLOAD SWAP1 SWAP2 POP DUP2 GT ISZERO PUSH2 0x1F74 JUMPI POP PUSH1 0x12 SLOAD DUP5 DUP2 GT PUSH2 0x1F74 JUMPI PUSH0 SWAP2 POP POP PUSH2 0x20B4 JUMP JUMPDEST DUP3 PUSH0 SUB PUSH2 0x1F7F JUMPI TIMESTAMP SWAP3 POP JUMPDEST DUP1 PUSH0 DUP7 JUMPDEST DUP3 DUP2 LT ISZERO PUSH2 0x20AE JUMPI PUSH1 0x12 SLOAD DUP2 LT ISZERO PUSH2 0x20AE JUMPI PUSH0 PUSH1 0x12 DUP3 DUP2 SLOAD DUP2 LT PUSH2 0x1FA9 JUMPI PUSH2 0x1FA9 PUSH2 0x3FA9 JUMP JUMPDEST SWAP1 PUSH0 MSTORE PUSH1 0x20 PUSH0 KECCAK256 SWAP1 PUSH1 0x3 MUL ADD PUSH1 0x40 MLOAD DUP1 PUSH1 0x60 ADD PUSH1 0x40 MSTORE SWAP1 DUP2 PUSH0 DUP3 ADD SLOAD DUP2 MSTORE PUSH1 0x20 ADD PUSH1 0x1 DUP3 ADD SLOAD DUP2 MSTORE PUSH1 0x20 ADD PUSH1 0x2 DUP3 ADD SLOAD DUP2 MSTORE POP POP SWAP1 POP PUSH0 PUSH2 0x1FE9 DUP4 PUSH2 0x3873 JUMP JUMPDEST SWAP1 POP PUSH0 PUSH2 0x2710 PUSH2 0x1FF9 DUP4 DUP15 PUSH2 0x405B JUMP JUMPDEST PUSH2 0x2003 SWAP2 SWAP1 PUSH2 0x4072 JUMP JUMPDEST SWAP1 POP DUP11 DUP5 SUB PUSH2 0x2095 JUMPI DUP3 MLOAD PUSH1 0x20 DUP5 ADD MLOAD PUSH0 PUSH2 0x201E DUP4 DUP4 PUSH2 0x3F96 JUMP JUMPDEST SWAP1 POP PUSH0 DUP4 DUP14 GT PUSH2 0x202E JUMPI DUP4 PUSH2 0x2030 JUMP JUMPDEST DUP13 JUMPDEST SWAP1 POP DUP3 DUP1 DUP3 LT PUSH2 0x2047 JUMPI POP POP POP POP POP POP POP POP PUSH2 0x20A6 JUMP JUMPDEST PUSH0 PUSH2 0x2052 DUP4 DUP4 PUSH2 0x3F96 JUMP JUMPDEST SWAP1 POP DUP4 PUSH0 SUB PUSH2 0x2069 JUMPI POP POP POP POP POP POP POP POP POP PUSH2 0x20A6 JUMP JUMPDEST DUP4 PUSH2 0x2074 DUP3 DUP10 PUSH2 0x405B JUMP JUMPDEST PUSH2 0x207E SWAP2 SWAP1 PUSH2 0x4072 JUMP JUMPDEST PUSH2 0x2088 SWAP1 DUP13 PUSH2 0x3FBD JUMP JUMPDEST SWAP11 POP POP POP POP POP POP POP PUSH2 0x20A2 JUMP JUMPDEST PUSH2 0x209F DUP2 DUP7 PUSH2 0x3FBD JUMP JUMPDEST SWAP5 POP JUMPDEST POP POP POP JUMPDEST PUSH1 0x1 ADD PUSH2 0x1F83 JUMP JUMPDEST POP SWAP3 POP POP POP JUMPDEST SWAP5 SWAP4 POP POP POP POP JUMP JUMPDEST PUSH2 0x20C4 PUSH2 0x30CB JUMP JUMPDEST PUSH1 0x1 SLOAD PUSH1 0x1 PUSH1 0x1 PUSH1 0xA0 SHL SUB AND CALLER EQ PUSH2 0x20EE JUMPI PUSH1 0x40 MLOAD PUSH3 0x461BCD PUSH1 0xE5 SHL DUP2 MSTORE PUSH1 0x4 ADD PUSH2 0x865 SWAP1 PUSH2 0x3F39 JUMP JUMPDEST PUSH0 PUSH1 0xA DUP3 DUP2 SLOAD DUP2 LT PUSH2 0x2102 JUMPI PUSH2 0x2102 PUSH2 0x3FA9 JUMP JUMPDEST PUSH0 SWAP2 DUP3 MSTORE PUSH1 0x20 SWAP1 SWAP2 KECCAK256 PUSH1 0xD SWAP1 SWAP2 MUL ADD PUSH1 0x9 DUP2 ADD SLOAD SWAP1 SWAP2 POP PUSH1 0xFF AND PUSH2 0x215B JUMPI PUSH1 0x40 MLOAD PUSH3 0x461BCD PUSH1 0xE5 SHL DUP2 MSTORE PUSH1 0x20 PUSH1 0x4 DUP3 ADD MSTORE PUSH1 0x10 PUSH1 0x24 DUP3 ADD MSTORE PUSH16 0x4465706F73697420696E616374697665 PUSH1 0x80 SHL PUSH1 0x44 DUP3 ADD MSTORE PUSH1 0x64 ADD PUSH2 0x865 JUMP JUMPDEST DUP1 SLOAD PUSH0 SWAP1 DUP2 MSTORE PUSH1 0xB PUSH1 0x20 MSTORE PUSH1 0x40 DUP2 KECCAK256 SLOAD PUSH1 0xFF AND ISZERO PUSH2 0x217A JUMPI POP CALLER PUSH2 0x218A JUMP JUMPDEST POP PUSH1 0x1 DUP2 ADD SLOAD PUSH1 0x1 PUSH1 0x1 PUSH1 0xA0 SHL SUB AND JUMPDEST PUSH1 0x9 DUP3 ADD DUP1 SLOAD PUSH1 0xFF NOT AND SWAP1 SSTORE PUSH1 0xE DUP1 SLOAD SWAP1 PUSH0 PUSH2 0x21A5 DUP4 PUSH2 0x40C7 JUMP JUMPDEST SWAP2 SWAP1 POP SSTORE POP DUP2 PUSH1 0x2 ADD SLOAD PUSH1 0xF PUSH0 DUP3 DUP3 SLOAD PUSH2 0x21BF SWAP2 SWAP1 PUSH2 0x3F96 JUMP JUMPDEST SWAP1 SWAP2 SSTORE POP POP PUSH1 0x2 DUP3 ADD SLOAD PUSH1 0x40 MLOAD PUSH4 0xA9059CBB PUSH1 0xE0 SHL DUP2 MSTORE PUSH1 0x1 PUSH1 0x1 PUSH1 0xA0 SHL SUB DUP4 DUP2 AND PUSH1 0x4 DUP4 ADD MSTORE PUSH1 0x24 DUP3 ADD SWAP3 SWAP1 SWAP3 MSTORE PUSH32 0x0 SWAP1 SWAP2 AND SWAP1 PUSH4 0xA9059CBB SWAP1 PUSH1 0x44 ADD PUSH1 0x20 PUSH1 0x40 MLOAD DUP1 DUP4 SUB DUP2 PUSH0 DUP8 GAS CALL ISZERO DUP1 ISZERO PUSH2 0x2238 JUMPI RETURNDATASIZE PUSH0 PUSH0 RETURNDATACOPY RETURNDATASIZE PUSH0 REVERT JUMPDEST POP POP POP POP PUSH1 0x40 MLOAD RETURNDATASIZE PUSH1 0x1F NOT PUSH1 0x1F DUP3 ADD AND DUP3 ADD DUP1 PUSH1 0x40 MSTORE POP DUP2 ADD SWAP1 PUSH2 0x225C SWAP2 SWAP1 PUSH2 0x4017 JUMP JUMPDEST PUSH2 0x2278 JUMPI PUSH1 0x40 MLOAD PUSH3 0x461BCD PUSH1 0xE5 SHL DUP2 MSTORE PUSH1 0x4 ADD PUSH2 0x865 SWAP1 PUSH2 0x4032 JUMP JUMPDEST DUP2 SLOAD PUSH1 0x2 DUP4 ADD SLOAD PUSH1 0x40 MLOAD PUSH1 0x1 PUSH1 0x1 PUSH1 0xA0 SHL SUB DUP5 AND SWAP3 PUSH32 0x24C9E122007BD4087408943168FBCD65248594530E482B6A9ABE4484767EB0C3 SWAP3 PUSH2 0xF43 SWAP3 SWAP2 DUP3 MSTORE PUSH1 0x20 DUP3 ADD MSTORE PUSH1 0x40 ADD SWAP1 JUMP JUMPDEST PUSH1 0x1 SLOAD PUSH1 0x1 PUSH1 0x1 PUSH1 0xA0 SHL SUB AND CALLER EQ PUSH2 0x22EB JUMPI PUSH1 0x40 MLOAD PUSH3 0x461BCD PUSH1 0xE5 SHL DUP2 MSTORE PUSH1 0x4 ADD PUSH2 0x865 SWAP1 PUSH2 0x3F39 JUMP JUMPDEST PUSH1 0x2 DUP1 SLOAD PUSH1 0x1 PUSH1 0x1 PUSH1 0xA0 SHL SUB NOT AND PUSH1 0x1 PUSH1 0x1 PUSH1 0xA0 SHL SUB SWAP3 SWAP1 SWAP3 AND SWAP2 SWAP1 SWAP2 OR SWAP1 SSTORE JUMP JUMPDEST PUSH0 PUSH0 PUSH1 0x3 SLOAD SWAP1 POP PUSH2 0x2710 DUP2 PUSH1 0xF SLOAD PUSH2 0x2325 SWAP2 SWAP1 PUSH2 0x405B JUMP JUMPDEST PUSH2 0x232F SWAP2 SWAP1 PUSH2 0x4072 JUMP JUMPDEST SWAP2 POP POP SWAP1 JUMP JUMPDEST PUSH1 0xC DUP2 DUP2 SLOAD DUP2 LT PUSH2 0x2344 JUMPI PUSH0 DUP1 REVERT JUMPDEST PUSH0 SWAP2 DUP3 MSTORE PUSH1 0x20 SWAP1 SWAP2 KECCAK256 ADD SLOAD SWAP1 POP DUP2 JUMP JUMPDEST PUSH1 0x1 SLOAD PUSH1 0x1 PUSH1 0x1 PUSH1 0xA0 SHL SUB AND CALLER EQ DUP1 PUSH2 0x2377 JUMPI POP PUSH1 0x2 SLOAD PUSH1 0x1 PUSH1 0x1 PUSH1 0xA0 SHL SUB AND CALLER EQ JUMPDEST PUSH2 0x23BA JUMPI PUSH1 0x40 MLOAD PUSH3 0x461BCD PUSH1 0xE5 SHL DUP2 MSTORE PUSH1 0x20 PUSH1 0x4 DUP3 ADD MSTORE PUSH1 0x14 PUSH1 0x24 DUP3 ADD MSTORE PUSH20 0x4F6E6C79206F776E6572206F72206F7261636C65 PUSH1 0x60 SHL PUSH1 0x44 DUP3 ADD MSTORE PUSH1 0x64 ADD PUSH2 0x865 JUMP JUMPDEST PUSH1 0x40 MLOAD PUSH4 0x23B872DD PUSH1 0xE0 SHL DUP2 MSTORE CALLER PUSH1 0x4 DUP3 ADD MSTORE ADDRESS PUSH1 0x24 DUP3 ADD MSTORE PUSH1 0x44 DUP2 ADD DUP3 SWAP1 MSTORE PUSH32 0x0 PUSH1 0x1 PUSH1 0x1 PUSH1 0xA0 SHL SUB AND SWAP1 PUSH4 0x23B872DD SWAP1 PUSH1 0x64 ADD PUSH1 0x20 PUSH1 0x40 MLOAD DUP1 DUP4 SUB DUP2 PUSH0 DUP8 GAS CALL ISZERO DUP1 ISZERO PUSH2 0x242A JUMPI RETURNDATASIZE PUSH0 PUSH0 RETURNDATACOPY RETURNDATASIZE PUSH0 REVERT JUMPDEST POP POP POP POP PUSH1 0x40 MLOAD RETURNDATASIZE PUSH1 0x1F NOT PUSH1 0x1F DUP3 ADD AND DUP3 ADD DUP1 PUSH1 0x40 MSTORE POP DUP2 ADD SWAP1 PUSH2 0x244E SWAP2 SWAP1 PUSH2 0x4017 JUMP JUMPDEST PUSH2 0x246A JUMPI PUSH1 0x40 MLOAD PUSH3 0x461BCD PUSH1 0xE5 SHL DUP2 MSTORE PUSH1 0x4 ADD PUSH2 0x865 SWAP1 PUSH2 0x40DC JUMP JUMPDEST DUP1 PUSH1 0x11 PUSH0 DUP3 DUP3 SLOAD PUSH2 0x247B SWAP2 SWAP1 PUSH2 0x3FBD JUMP JUMPDEST SWAP1 SWAP2 SSTORE POP POP POP JUMP JUMPDEST PUSH1 0x1 SLOAD PUSH1 0x1 PUSH1 0x1 PUSH1 0xA0 SHL SUB AND CALLER EQ PUSH2 0x24AD JUMPI PUSH1 0x40 MLOAD PUSH3 0x461BCD PUSH1 0xE5 SHL DUP2 MSTORE PUSH1 0x4 ADD PUSH2 0x865 SWAP1 PUSH2 0x3F39 JUMP JUMPDEST PUSH2 0x2710 DUP2 GT ISZERO PUSH2 0x24CF JUMPI PUSH1 0x40 MLOAD PUSH3 0x461BCD PUSH1 0xE5 SHL DUP2 MSTORE PUSH1 0x4 ADD PUSH2 0x865 SWAP1 PUSH2 0x3F5D JUMP JUMPDEST PUSH1 0x3 DUP2 SWAP1 SSTORE PUSH1 0x40 MLOAD DUP2 DUP2 MSTORE PUSH32 0x71CA8C1A2BC00717637FB3E9D048DA574B351106CFCF0832E2DFE20F4E633DCF SWAP1 PUSH1 0x20 ADD PUSH1 0x40 MLOAD DUP1 SWAP2 SUB SWAP1 LOG1 POP JUMP JUMPDEST PUSH1 0x6 DUP2 DUP2 SLOAD DUP2 LT PUSH2 0x2519 JUMPI PUSH0 DUP1 REVERT JUMPDEST PUSH0 SWAP2 DUP3 MSTORE PUSH1 0x20 SWAP1 SWAP2 KECCAK256 ADD SLOAD PUSH1 0x1 PUSH1 0x1 PUSH1 0xA0 SHL SUB AND SWAP1 POP DUP2 JUMP JUMPDEST PUSH1 0x1 SLOAD PUSH1 0x1 PUSH1 0x1 PUSH1 0xA0 SHL SUB AND CALLER EQ PUSH2 0x255C JUMPI PUSH1 0x40 MLOAD PUSH3 0x461BCD PUSH1 0xE5 SHL DUP2 MSTORE PUSH1 0x4 ADD PUSH2 0x865 SWAP1 PUSH2 0x3F39 JUMP JUMPDEST PUSH1 0x12 SLOAD PUSH2 0x2594 JUMPI PUSH1 0x40 MLOAD PUSH3 0x461BCD PUSH1 0xE5 SHL DUP2 MSTORE PUSH1 0x4 ADD PUSH2 0x865 SWAP1 PUSH1 0x20 DUP1 DUP3 MSTORE PUSH1 0x4 SWAP1 DUP3 ADD MSTORE PUSH4 0x4E6F6E65 PUSH1 0xE0 SHL PUSH1 0x40 DUP3 ADD MSTORE PUSH1 0x60 ADD SWAP1 JUMP JUMPDEST PUSH1 0x12 DUP1 SLOAD TIMESTAMP SWAP2 SWAP1 PUSH2 0x25A7 SWAP1 PUSH1 0x1 SWAP1 PUSH2 0x3F96 JUMP JUMPDEST DUP2 SLOAD DUP2 LT PUSH2 0x25B7 JUMPI PUSH2 0x25B7 PUSH2 0x3FA9 JUMP JUMPDEST SWAP1 PUSH0 MSTORE PUSH1 0x20 PUSH0 KECCAK256 SWAP1 PUSH1 0x3 MUL ADD PUSH0 ADD SLOAD GT PUSH2 0x25FD JUMPI PUSH1 0x40 MLOAD PUSH3 0x461BCD PUSH1 0xE5 SHL DUP2 MSTORE PUSH1 0x20 PUSH1 0x4 DUP3 ADD MSTORE PUSH1 0x7 PUSH1 0x24 DUP3 ADD MSTORE PUSH7 0x14DD185C9D1959 PUSH1 0xCA SHL PUSH1 0x44 DUP3 ADD MSTORE PUSH1 0x64 ADD PUSH2 0x865 JUMP JUMPDEST PUSH1 0x12 DUP1 SLOAD DUP1 PUSH2 0x260E JUMPI PUSH2 0x260E PUSH2 0x40F8 JUMP JUMPDEST PUSH0 DUP3 DUP2 MSTORE PUSH1 0x20 DUP2 KECCAK256 PUSH1 0x3 PUSH0 NOT SWAP1 SWAP4 ADD SWAP3 DUP4 MUL ADD DUP2 DUP2 SSTORE PUSH1 0x1 DUP2 ADD DUP3 SWAP1 SSTORE PUSH1 0x2 ADD SSTORE SWAP1 SSTORE PUSH1 0x12 SLOAD PUSH1 0x40 MLOAD PUSH32 0xD84BA012185E6B11C267BBF53304405446699FDED2A2A85C6C6523D2CD3FD790 SWAP2 PUSH2 0x2666 SWAP2 SWAP1 DUP2 MSTORE PUSH1 0x20 ADD SWAP1 JUMP JUMPDEST PUSH1 0x40 MLOAD DUP1 SWAP2 SUB SWAP1 LOG1 JUMP JUMPDEST PUSH1 0xA DUP2 DUP2 SLOAD DUP2 LT PUSH2 0x267F JUMPI PUSH0 DUP1 REVERT JUMPDEST PUSH0 SWAP2 DUP3 MSTORE PUSH1 0x20 SWAP1 SWAP2 KECCAK256 PUSH1 0xD SWAP1 SWAP2 MUL ADD DUP1 SLOAD PUSH1 0x1 DUP3 ADD SLOAD PUSH1 0x2 DUP4 ADD SLOAD PUSH1 0x3 DUP5 ADD SLOAD PUSH1 0x4 DUP6 ADD SLOAD PUSH1 0x5 DUP7 ADD SLOAD PUSH1 0x6 DUP8 ADD SLOAD PUSH1 0x7 DUP9 ADD SLOAD PUSH1 0x8 DUP10 ADD SLOAD PUSH1 0x9 DUP11 ADD SLOAD PUSH1 0xA DUP12 ADD SLOAD PUSH1 0xB DUP13 ADD SLOAD PUSH1 0xC SWAP1 SWAP13 ADD SLOAD SWAP11 SWAP13 POP PUSH1 0x1 PUSH1 0x1 PUSH1 0xA0 SHL SUB SWAP1 SWAP10 AND SWAP11 SWAP8 SWAP10 SWAP7 SWAP9 SWAP6 SWAP8 SWAP5 SWAP7 SWAP4 SWAP6 SWAP3 SWAP5 SWAP2 SWAP4 PUSH1 0xFF DUP1 DUP4 AND SWAP5 PUSH2 0x100 SWAP1 SWAP4 DIV DUP2 AND SWAP4 AND SWAP1 DUP15 JUMP JUMPDEST PUSH2 0x2706 PUSH2 0x30CB JUMP JUMPDEST PUSH2 0x2714 CALLER DUP4 DUP4 PUSH0 PUSH0 PUSH0 PUSH2 0x30F3 JUMP JUMPDEST PUSH2 0x271D PUSH1 0x1 PUSH0 SSTORE JUMP JUMPDEST POP POP JUMP JUMPDEST PUSH1 0x1 SLOAD PUSH1 0x1 PUSH1 0x1 PUSH1 0xA0 SHL SUB AND CALLER EQ PUSH2 0x274B JUMPI PUSH1 0x40 MLOAD PUSH3 0x461BCD PUSH1 0xE5 SHL DUP2 MSTORE PUSH1 0x4 ADD PUSH2 0x865 SWAP1 PUSH2 0x3F39 JUMP JUMPDEST PUSH32 0x0 PUSH1 0x1 PUSH1 0x1 PUSH1 0xA0 SHL SUB AND DUP3 PUSH1 0x1 PUSH1 0x1 PUSH1 0xA0 SHL SUB AND SUB PUSH2 0x279C JUMPI PUSH1 0x40 MLOAD PUSH3 0x461BCD PUSH1 0xE5 SHL DUP2 MSTORE PUSH1 0x4 ADD PUSH2 0x865 SWAP1 PUSH2 0x40DC JUMP JUMPDEST PUSH1 0x1 SLOAD PUSH1 0x40 MLOAD PUSH4 0xA9059CBB PUSH1 0xE0 SHL DUP2 MSTORE PUSH1 0x1 PUSH1 0x1 PUSH1 0xA0 SHL SUB SWAP2 DUP3 AND PUSH1 0x4 DUP3 ADD MSTORE PUSH1 0x24 DUP2 ADD DUP4 SWAP1 MSTORE SWAP1 DUP4 AND SWAP1 PUSH4 0xA9059CBB SWAP1 PUSH1 0x44 ADD PUSH1 0x20 PUSH1 0x40 MLOAD DUP1 DUP4 SUB DUP2 PUSH0 DUP8 GAS CALL ISZERO DUP1 ISZERO PUSH2 0x27EC JUMPI RETURNDATASIZE PUSH0 PUSH0 RETURNDATACOPY RETURNDATASIZE PUSH0 REVERT JUMPDEST POP POP POP POP PUSH1 0x40 MLOAD RETURNDATASIZE PUSH1 0x1F NOT PUSH1 0x1F DUP3 ADD AND DUP3 ADD DUP1 PUSH1 0x40 MSTORE POP DUP2 ADD SWAP1 PUSH2 0x2810 SWAP2 SWAP1 PUSH2 0x4017 JUMP JUMPDEST PUSH2 0x271D JUMPI PUSH1 0x40 MLOAD PUSH3 0x461BCD PUSH1 0xE5 SHL DUP2 MSTORE PUSH1 0x20 PUSH1 0x4 DUP3 ADD MSTORE PUSH1 0x2 PUSH1 0x24 DUP3 ADD MSTORE PUSH2 0x2299 PUSH1 0xF1 SHL PUSH1 0x44 DUP3 ADD MSTORE PUSH1 0x64 ADD PUSH2 0x865 JUMP JUMPDEST PUSH1 0x1 SLOAD PUSH1 0x1 PUSH1 0x1 PUSH1 0xA0 SHL SUB AND CALLER EQ PUSH2 0x286B JUMPI PUSH1 0x40 MLOAD PUSH3 0x461BCD PUSH1 0xE5 SHL DUP2 MSTORE PUSH1 0x4 ADD PUSH2 0x865 SWAP1 PUSH2 0x3F39 JUMP JUMPDEST DUP1 PUSH1 0x11 SLOAD LT ISZERO PUSH2 0x288D JUMPI PUSH1 0x40 MLOAD PUSH3 0x461BCD PUSH1 0xE5 SHL DUP2 MSTORE PUSH1 0x4 ADD PUSH2 0x865 SWAP1 PUSH2 0x40DC JUMP JUMPDEST PUSH1 0x40 MLOAD PUSH4 0xA9059CBB PUSH1 0xE0 SHL DUP2 MSTORE CALLER PUSH1 0x4 DUP3 ADD MSTORE PUSH1 0x24 DUP2 ADD DUP3 SWAP1 MSTORE PUSH32 0x0 PUSH1 0x1 PUSH1 0x1 PUSH1 0xA0 SHL SUB AND SWAP1 PUSH4 0xA9059CBB SWAP1 PUSH1 0x44 ADD PUSH1 0x20 PUSH1 0x40 MLOAD DUP1 DUP4 SUB DUP2 PUSH0 DUP8 GAS CALL ISZERO DUP1 ISZERO PUSH2 0x28F7 JUMPI RETURNDATASIZE PUSH0 PUSH0 RETURNDATACOPY RETURNDATASIZE PUSH0 REVERT JUMPDEST POP POP POP POP PUSH1 0x40 MLOAD RETURNDATASIZE PUSH1 0x1F NOT PUSH1 0x1F DUP3 ADD AND DUP3 ADD DUP1 PUSH1 0x40 MSTORE POP DUP2 ADD SWAP1 PUSH2 0x291B SWAP2 SWAP1 PUSH2 0x4017 JUMP JUMPDEST PUSH2 0x294C JUMPI PUSH1 0x40 MLOAD PUSH3 0x461BCD PUSH1 0xE5 SHL DUP2 MSTORE PUSH1 0x20 PUSH1 0x4 DUP3 ADD MSTORE PUSH1 0x2 PUSH1 0x24 DUP3 ADD MSTORE PUSH2 0x2299 PUSH1 0xF1 SHL PUSH1 0x44 DUP3 ADD MSTORE PUSH1 0x64 ADD PUSH2 0x865 JUMP JUMPDEST DUP1 PUSH1 0x11 PUSH0 DUP3 DUP3 SLOAD PUSH2 0x247B SWAP2 SWAP1 PUSH2 0x3F96 JUMP JUMPDEST PUSH1 0x1 PUSH1 0x1 PUSH1 0xA0 SHL SUB DUP2 AND PUSH0 SWAP1 DUP2 MSTORE PUSH1 0x8 PUSH1 0x20 SWAP1 DUP2 MSTORE PUSH1 0x40 SWAP2 DUP3 SWAP1 KECCAK256 DUP1 SLOAD DUP4 MLOAD DUP2 DUP5 MUL DUP2 ADD DUP5 ADD SWAP1 SWAP5 MSTORE DUP1 DUP5 MSTORE PUSH1 0x60 SWAP4 SWAP3 DUP4 ADD DUP3 DUP3 DUP1 ISZERO PUSH2 0x29BA JUMPI PUSH1 0x20 MUL DUP3 ADD SWAP2 SWAP1 PUSH0 MSTORE PUSH1 0x20 PUSH0 KECCAK256 SWAP1 JUMPDEST DUP2 SLOAD DUP2 MSTORE PUSH1 0x20 ADD SWAP1 PUSH1 0x1 ADD SWAP1 DUP1 DUP4 GT PUSH2 0x29A6 JUMPI JUMPDEST POP POP POP POP POP SWAP1 POP SWAP2 SWAP1 POP JUMP JUMPDEST PUSH0 PUSH0 PUSH2 0x29D0 PUSH2 0x38B1 JUMP JUMPDEST PUSH1 0x12 SLOAD SWAP1 SWAP2 POP DUP2 LT PUSH2 0x29E3 JUMPI PUSH0 SWAP2 POP POP SWAP1 JUMP JUMPDEST PUSH0 PUSH2 0x29ED DUP3 PUSH2 0x3873 JUMP JUMPDEST SWAP1 POP PUSH2 0x2710 DUP2 PUSH1 0xF SLOAD PUSH2 0x2A00 SWAP2 SWAP1 PUSH2 0x405B JUMP JUMPDEST PUSH2 0x2A0A SWAP2 SWAP1 PUSH2 0x4072 JUMP JUMPDEST SWAP3 POP POP POP SWAP1 JUMP JUMPDEST PUSH1 0x60 DUP2 PUSH0 SUB PUSH2 0x2A20 JUMPI PUSH1 0xA SLOAD SWAP2 POP JUMPDEST PUSH0 PUSH2 0x2A2B DUP4 DUP6 PUSH2 0x3FBD JUMP JUMPDEST PUSH1 0xA SLOAD SWAP1 SWAP2 POP DUP5 GT ISZERO PUSH2 0x2A3E JUMPI POP PUSH2 0x15FE JUMP JUMPDEST PUSH1 0xA SLOAD DUP2 GT ISZERO PUSH2 0x2A4D JUMPI POP PUSH1 0xA SLOAD JUMPDEST PUSH2 0x2A57 DUP5 DUP3 PUSH2 0x3F96 JUMP JUMPDEST PUSH8 0xFFFFFFFFFFFFFFFF DUP2 GT ISZERO PUSH2 0x2A6F JUMPI PUSH2 0x2A6F PUSH2 0x4091 JUMP JUMPDEST PUSH1 0x40 MLOAD SWAP1 DUP1 DUP3 MSTORE DUP1 PUSH1 0x20 MUL PUSH1 0x20 ADD DUP3 ADD PUSH1 0x40 MSTORE DUP1 ISZERO PUSH2 0x2AA8 JUMPI DUP2 PUSH1 0x20 ADD JUMPDEST PUSH2 0x2A95 PUSH2 0x3A4E JUMP JUMPDEST DUP2 MSTORE PUSH1 0x20 ADD SWAP1 PUSH1 0x1 SWAP1 SUB SWAP1 DUP2 PUSH2 0x2A8D JUMPI SWAP1 POP JUMPDEST POP SWAP2 POP PUSH0 JUMPDEST PUSH2 0x2AB7 DUP6 DUP4 PUSH2 0x3F96 JUMP JUMPDEST DUP2 LT ISZERO PUSH2 0x15FB JUMPI PUSH1 0xA DUP1 SLOAD PUSH1 0x1 SWAP1 DUP8 SWAP1 PUSH2 0x2AD2 SWAP1 DUP6 SWAP1 PUSH2 0x3F96 JUMP JUMPDEST PUSH2 0x2ADC SWAP2 SWAP1 PUSH2 0x3F96 JUMP JUMPDEST PUSH2 0x2AE6 SWAP2 SWAP1 PUSH2 0x3F96 JUMP JUMPDEST DUP2 SLOAD DUP2 LT PUSH2 0x2AF6 JUMPI PUSH2 0x2AF6 PUSH2 0x3FA9 JUMP JUMPDEST PUSH0 SWAP2 DUP3 MSTORE PUSH1 0x20 SWAP2 DUP3 SWAP1 KECCAK256 PUSH1 0x40 DUP1 MLOAD PUSH2 0x1C0 DUP2 ADD DUP3 MSTORE PUSH1 0xD SWAP1 SWAP4 MUL SWAP1 SWAP2 ADD DUP1 SLOAD DUP4 MSTORE PUSH1 0x1 DUP2 ADD SLOAD PUSH1 0x1 PUSH1 0x1 PUSH1 0xA0 SHL SUB AND SWAP4 DUP4 ADD SWAP4 SWAP1 SWAP4 MSTORE PUSH1 0x2 DUP4 ADD SLOAD SWAP1 DUP3 ADD MSTORE PUSH1 0x3 DUP3 ADD SLOAD PUSH1 0x60 DUP3 ADD MSTORE PUSH1 0x4 DUP3 ADD SLOAD PUSH1 0x80 DUP3 ADD MSTORE PUSH1 0x5 DUP3 ADD SLOAD PUSH1 0xA0 DUP3 ADD MSTORE PUSH1 0x6 DUP3 ADD SLOAD PUSH1 0xC0 DUP3 ADD MSTORE PUSH1 0x7 DUP3 ADD SLOAD PUSH1 0xE0 DUP3 ADD MSTORE PUSH1 0x8 DUP3 ADD SLOAD PUSH2 0x100 DUP1 DUP4 ADD SWAP2 SWAP1 SWAP2 MSTORE PUSH1 0x9 DUP4 ADD SLOAD PUSH1 0xFF DUP1 DUP3 AND ISZERO ISZERO PUSH2 0x120 DUP6 ADD MSTORE SWAP2 SWAP1 DIV DUP2 AND ISZERO ISZERO PUSH2 0x140 DUP4 ADD MSTORE PUSH1 0xA DUP4 ADD SLOAD PUSH2 0x160 DUP4 ADD MSTORE PUSH1 0xB DUP4 ADD SLOAD AND ISZERO ISZERO PUSH2 0x180 DUP3 ADD MSTORE PUSH1 0xC SWAP1 SWAP2 ADD SLOAD PUSH2 0x1A0 DUP3 ADD MSTORE DUP4 MLOAD DUP5 SWAP1 DUP4 SWAP1 DUP2 LT PUSH2 0x2BCE JUMPI PUSH2 0x2BCE PUSH2 0x3FA9 JUMP JUMPDEST PUSH1 0x20 MUL PUSH1 0x20 ADD ADD DUP2 SWAP1 MSTORE POP PUSH2 0x2BEE DUP4 DUP3 DUP2 MLOAD DUP2 LT PUSH2 0x15C1 JUMPI PUSH2 0x15C1 PUSH2 0x3FA9 JUMP JUMPDEST DUP4 DUP3 DUP2 MLOAD DUP2 LT PUSH2 0x2C00 JUMPI PUSH2 0x2C00 PUSH2 0x3FA9 JUMP JUMPDEST PUSH1 0x20 SWAP1 DUP2 MUL SWAP2 SWAP1 SWAP2 ADD ADD MLOAD PUSH2 0x100 ADD MSTORE PUSH1 0x1 ADD PUSH2 0x2AAD JUMP JUMPDEST PUSH2 0x2C20 PUSH2 0x30CB JUMP JUMPDEST PUSH0 PUSH1 0xA DUP3 DUP2 SLOAD DUP2 LT PUSH2 0x2C34 JUMPI PUSH2 0x2C34 PUSH2 0x3FA9 JUMP JUMPDEST PUSH0 SWAP2 DUP3 MSTORE PUSH1 0x20 SWAP1 SWAP2 KECCAK256 PUSH1 0xD SWAP1 SWAP2 MUL ADD PUSH1 0x9 DUP2 ADD SLOAD SWAP1 SWAP2 POP PUSH1 0xFF AND PUSH2 0x2C6A JUMPI PUSH1 0x40 MLOAD PUSH3 0x461BCD PUSH1 0xE5 SHL DUP2 MSTORE PUSH1 0x4 ADD PUSH2 0x865 SWAP1 PUSH2 0x40A5 JUMP JUMPDEST PUSH1 0x1 DUP2 ADD SLOAD PUSH1 0x1 PUSH1 0x1 PUSH1 0xA0 SHL SUB AND CALLER EQ PUSH2 0x2C96 JUMPI PUSH1 0x40 MLOAD PUSH3 0x461BCD PUSH1 0xE5 SHL DUP2 MSTORE PUSH1 0x4 ADD PUSH2 0x865 SWAP1 PUSH2 0x3FD0 JUMP JUMPDEST PUSH0 PUSH2 0x2CA0 DUP4 PUSH2 0xFE3 JUMP JUMPDEST SWAP1 POP PUSH0 DUP2 GT PUSH2 0x2CDE JUMPI PUSH1 0x40 MLOAD PUSH3 0x461BCD PUSH1 0xE5 SHL DUP2 MSTORE PUSH1 0x20 PUSH1 0x4 DUP3 ADD MSTORE PUSH1 0xA PUSH1 0x24 DUP3 ADD MSTORE PUSH10 0x4E6F2072657761726473 PUSH1 0xB0 SHL PUSH1 0x44 DUP3 ADD MSTORE PUSH1 0x64 ADD PUSH2 0x865 JUMP JUMPDEST DUP1 PUSH1 0x11 SLOAD LT ISZERO PUSH2 0x2D00 JUMPI PUSH1 0x40 MLOAD PUSH3 0x461BCD PUSH1 0xE5 SHL DUP2 MSTORE PUSH1 0x4 ADD PUSH2 0x865 SWAP1 PUSH2 0x3FF3 JUMP JUMPDEST PUSH0 PUSH2 0x2D0F DUP4 PUSH1 0x7 ADD SLOAD PUSH0 PUSH2 0x3825 JUMP JUMPDEST SWAP1 POP DUP1 DUP4 PUSH1 0x7 ADD DUP2 SWAP1 SSTORE POP DUP2 PUSH1 0x11 PUSH0 DUP3 DUP3 SLOAD PUSH2 0x2D2B SWAP2 SWAP1 PUSH2 0x3F96 JUMP JUMPDEST SWAP3 POP POP DUP2 SWAP1 SSTORE POP DUP2 PUSH1 0x10 PUSH0 DUP3 DUP3 SLOAD PUSH2 0x2D43 SWAP2 SWAP1 PUSH2 0x3FBD JUMP JUMPDEST SWAP1 SWAP2 SSTORE POP POP PUSH0 DUP2 DUP2 MSTORE PUSH1 0x15 PUSH1 0x20 MSTORE PUSH1 0x40 DUP2 KECCAK256 DUP1 SLOAD DUP5 SWAP3 SWAP1 PUSH2 0x2D65 SWAP1 DUP5 SWAP1 PUSH2 0x3FBD JUMP JUMPDEST SWAP1 SWAP2 SSTORE POP POP PUSH1 0x40 MLOAD PUSH4 0xA9059CBB PUSH1 0xE0 SHL DUP2 MSTORE CALLER PUSH1 0x4 DUP3 ADD MSTORE PUSH1 0x24 DUP2 ADD DUP4 SWAP1 MSTORE PUSH32 0x0 PUSH1 0x1 PUSH1 0x1 PUSH1 0xA0 SHL SUB AND SWAP1 PUSH4 0xA9059CBB SWAP1 PUSH1 0x44 ADD PUSH1 0x20 PUSH1 0x40 MLOAD DUP1 DUP4 SUB DUP2 PUSH0 DUP8 GAS CALL ISZERO DUP1 ISZERO PUSH2 0x2DD4 JUMPI RETURNDATASIZE PUSH0 PUSH0 RETURNDATACOPY RETURNDATASIZE PUSH0 REVERT JUMPDEST POP POP POP POP PUSH1 0x40 MLOAD RETURNDATASIZE PUSH1 0x1F NOT PUSH1 0x1F DUP3 ADD AND DUP3 ADD DUP1 PUSH1 0x40 MSTORE POP DUP2 ADD SWAP1 PUSH2 0x2DF8 SWAP2 SWAP1 PUSH2 0x4017 JUMP JUMPDEST PUSH2 0x2E14 JUMPI PUSH1 0x40 MLOAD PUSH3 0x461BCD PUSH1 0xE5 SHL DUP2 MSTORE PUSH1 0x4 ADD PUSH2 0x865 SWAP1 PUSH2 0x4032 JUMP JUMPDEST PUSH2 0x2E1C PUSH2 0x38B1 JUMP JUMPDEST PUSH1 0x9 SSTORE PUSH1 0x40 DUP1 MLOAD DUP6 DUP2 MSTORE PUSH1 0x20 DUP2 ADD DUP5 SWAP1 MSTORE CALLER SWAP2 PUSH32 0xFA73D3AB3A92ED3F2B694757D8E4B2F3C293654B11B9C79111F8971F861B22B2 SWAP2 ADD PUSH2 0x1F0F JUMP JUMPDEST PUSH0 DUP4 ISZERO DUP1 PUSH2 0x2E63 JUMPI POP DUP3 ISZERO JUMPDEST ISZERO PUSH2 0x2E6F JUMPI POP PUSH0 PUSH2 0x19B6 JUMP JUMPDEST DUP2 PUSH0 SUB PUSH2 0x2E7A JUMPI TIMESTAMP SWAP2 POP JUMPDEST PUSH0 PUSH2 0x2E84 DUP4 PUSH2 0x39DC JUMP JUMPDEST PUSH1 0x12 SLOAD SWAP1 SWAP2 POP DUP2 LT PUSH2 0x2E99 JUMPI PUSH0 SWAP2 POP POP PUSH2 0x19B6 JUMP JUMPDEST PUSH0 PUSH2 0x2EA4 DUP6 DUP4 PUSH2 0x3FBD JUMP JUMPDEST PUSH1 0x12 SLOAD SWAP1 SWAP2 POP DUP2 GT ISZERO PUSH2 0x2EB6 JUMPI POP PUSH1 0x12 SLOAD JUMPDEST DUP2 DUP2 GT PUSH2 0x2EC7 JUMPI PUSH0 SWAP3 POP POP POP PUSH2 0x19B6 JUMP JUMPDEST PUSH0 DUP3 JUMPDEST DUP3 DUP2 LT ISZERO PUSH2 0x2FEE JUMPI PUSH0 PUSH1 0x12 DUP3 DUP2 SLOAD DUP2 LT PUSH2 0x2EE6 JUMPI PUSH2 0x2EE6 PUSH2 0x3FA9 JUMP JUMPDEST SWAP1 PUSH0 MSTORE PUSH1 0x20 PUSH0 KECCAK256 SWAP1 PUSH1 0x3 MUL ADD PUSH1 0x40 MLOAD DUP1 PUSH1 0x60 ADD PUSH1 0x40 MSTORE SWAP1 DUP2 PUSH0 DUP3 ADD SLOAD DUP2 MSTORE PUSH1 0x20 ADD PUSH1 0x1 DUP3 ADD SLOAD DUP2 MSTORE PUSH1 0x20 ADD PUSH1 0x2 DUP3 ADD SLOAD DUP2 MSTORE POP POP SWAP1 POP PUSH0 PUSH2 0x2F26 DUP4 PUSH2 0x3873 JUMP JUMPDEST SWAP1 POP PUSH0 PUSH2 0x2710 PUSH2 0x2F36 DUP4 DUP14 PUSH2 0x405B JUMP JUMPDEST PUSH2 0x2F40 SWAP2 SWAP1 PUSH2 0x4072 JUMP JUMPDEST SWAP1 POP DUP7 DUP5 SUB PUSH2 0x2FD5 JUMPI DUP3 MLOAD PUSH0 SWAP1 DUP11 GT PUSH2 0x2F5A JUMPI DUP4 MLOAD PUSH2 0x2F5C JUMP JUMPDEST DUP10 JUMPDEST PUSH1 0x20 DUP6 ADD MLOAD SWAP1 SWAP2 POP DUP1 DUP3 LT PUSH2 0x2F75 JUMPI POP POP POP POP POP PUSH2 0x2FE6 JUMP JUMPDEST PUSH0 PUSH2 0x2F80 DUP4 DUP4 PUSH2 0x3F96 JUMP JUMPDEST SWAP1 POP PUSH0 DUP7 PUSH0 ADD MLOAD DUP8 PUSH1 0x20 ADD MLOAD PUSH2 0x2F96 SWAP2 SWAP1 PUSH2 0x3F96 JUMP JUMPDEST SWAP1 POP DUP1 PUSH0 SUB PUSH2 0x2FAB JUMPI POP POP POP POP POP POP POP PUSH2 0x2FE6 JUMP JUMPDEST DUP1 PUSH2 0x2FB6 DUP4 DUP8 PUSH2 0x405B JUMP JUMPDEST PUSH2 0x2FC0 SWAP2 SWAP1 PUSH2 0x4072 JUMP JUMPDEST PUSH2 0x2FCA SWAP1 DUP11 PUSH2 0x3FBD JUMP JUMPDEST SWAP9 POP POP POP POP POP PUSH2 0x2FE2 JUMP JUMPDEST PUSH2 0x2FDF DUP2 DUP7 PUSH2 0x3FBD JUMP JUMPDEST SWAP5 POP JUMPDEST POP POP POP JUMPDEST PUSH1 0x1 ADD PUSH2 0x2ECA JUMP JUMPDEST POP SWAP7 SWAP6 POP POP POP POP POP POP JUMP JUMPDEST PUSH1 0x60 PUSH1 0x6 DUP1 SLOAD DUP1 PUSH1 0x20 MUL PUSH1 0x20 ADD PUSH1 0x40 MLOAD SWAP1 DUP2 ADD PUSH1 0x40 MSTORE DUP1 SWAP3 SWAP2 SWAP1 DUP2 DUP2 MSTORE PUSH1 0x20 ADD DUP3 DUP1 SLOAD DUP1 ISZERO PUSH2 0x304F JUMPI PUSH1 0x20 MUL DUP3 ADD SWAP2 SWAP1 PUSH0 MSTORE PUSH1 0x20 PUSH0 KECCAK256 SWAP1 JUMPDEST DUP2 SLOAD PUSH1 0x1 PUSH1 0x1 PUSH1 0xA0 SHL SUB AND DUP2 MSTORE PUSH1 0x1 SWAP1 SWAP2 ADD SWAP1 PUSH1 0x20 ADD DUP1 DUP4 GT PUSH2 0x3031 JUMPI JUMPDEST POP POP POP POP POP SWAP1 POP SWAP1 JUMP JUMPDEST PUSH1 0x1 SLOAD PUSH1 0x1 PUSH1 0x1 PUSH1 0xA0 SHL SUB AND CALLER EQ PUSH2 0x3083 JUMPI PUSH1 0x40 MLOAD PUSH3 0x461BCD PUSH1 0xE5 SHL DUP2 MSTORE PUSH1 0x4 ADD PUSH2 0x865 SWAP1 PUSH2 0x3F39 JUMP JUMPDEST PUSH1 0x1 PUSH1 0x1 PUSH1 0xA0 SHL SUB DUP2 AND PUSH2 0x30A9 JUMPI PUSH1 0x40 MLOAD PUSH3 0x461BCD PUSH1 0xE5 SHL DUP2 MSTORE PUSH1 0x4 ADD PUSH2 0x865 SWAP1 PUSH2 0x40DC JUMP JUMPDEST PUSH1 0x1 DUP1 SLOAD PUSH1 0x1 PUSH1 0x1 PUSH1 0xA0 SHL SUB NOT AND PUSH1 0x1 PUSH1 0x1 PUSH1 0xA0 SHL SUB SWAP3 SWAP1 SWAP3 AND SWAP2 SWAP1 SWAP2 OR SWAP1 SSTORE JUMP JUMPDEST PUSH1 0x2 PUSH0 SLOAD SUB PUSH2 0x30ED JUMPI PUSH1 0x40 MLOAD PUSH4 0x3EE5AEB5 PUSH1 0xE0 SHL DUP2 MSTORE PUSH1 0x4 ADD PUSH1 0x40 MLOAD DUP1 SWAP2 SUB SWAP1 REVERT JUMPDEST PUSH1 0x2 PUSH0 SSTORE JUMP JUMPDEST PUSH1 0x5 SLOAD DUP6 LT ISZERO PUSH2 0x3132 JUMPI PUSH1 0x40 MLOAD PUSH3 0x461BCD PUSH1 0xE5 SHL DUP2 MSTORE PUSH1 0x20 PUSH1 0x4 DUP3 ADD MSTORE PUSH1 0xA PUSH1 0x24 DUP3 ADD MSTORE PUSH10 0x135A5B88185B5BDD5B9D PUSH1 0xB2 SHL PUSH1 0x44 DUP3 ADD MSTORE PUSH1 0x64 ADD PUSH2 0x865 JUMP JUMPDEST PUSH1 0x4 SLOAD DUP5 LT ISZERO PUSH2 0x317A JUMPI PUSH1 0x40 MLOAD PUSH3 0x461BCD PUSH1 0xE5 SHL DUP2 MSTORE PUSH1 0x20 PUSH1 0x4 DUP3 ADD MSTORE PUSH1 0x13 PUSH1 0x24 DUP3 ADD MSTORE PUSH19 0x2637B1B59036BAB9BA1031329033B932B0B2B9 PUSH1 0x69 SHL PUSH1 0x44 DUP3 ADD MSTORE PUSH1 0x64 ADD PUSH2 0x865 JUMP JUMPDEST PUSH1 0x12 SLOAD PUSH2 0x31B5 JUMPI PUSH1 0x40 MLOAD PUSH3 0x461BCD PUSH1 0xE5 SHL DUP2 MSTORE PUSH1 0x20 PUSH1 0x4 DUP3 ADD MSTORE PUSH1 0x9 PUSH1 0x24 DUP3 ADD MSTORE PUSH9 0x4E6F206D6F6E746873 PUSH1 0xB8 SHL PUSH1 0x44 DUP3 ADD MSTORE PUSH1 0x64 ADD PUSH2 0x865 JUMP JUMPDEST PUSH0 PUSH2 0x31BE PUSH2 0x38B1 JUMP JUMPDEST PUSH1 0x12 SLOAD SWAP1 SWAP2 POP DUP2 LT PUSH2 0x3205 JUMPI PUSH1 0x40 MLOAD PUSH3 0x461BCD PUSH1 0xE5 SHL DUP2 MSTORE PUSH1 0x20 PUSH1 0x4 DUP3 ADD MSTORE PUSH1 0x10 PUSH1 0x24 DUP3 ADD MSTORE PUSH16 0x151A5B59481B9BDD0818DBDD995C9959 PUSH1 0x82 SHL PUSH1 0x44 DUP3 ADD MSTORE PUSH1 0x64 ADD PUSH2 0x865 JUMP JUMPDEST PUSH0 PUSH2 0x3210 DUP7 DUP4 PUSH2 0x3FBD JUMP JUMPDEST PUSH1 0x12 SLOAD SWAP1 SWAP2 POP DUP2 GT ISZERO PUSH2 0x3273 JUMPI PUSH1 0x40 MLOAD PUSH3 0x461BCD PUSH1 0xE5 SHL DUP2 MSTORE PUSH1 0x20 PUSH1 0x4 DUP3 ADD MSTORE PUSH1 0x25 PUSH1 0x24 DUP3 ADD MSTORE PUSH32 0x4C6F636B20706572696F64206578636565647320636F6E66696775726564206D PUSH1 0x44 DUP3 ADD MSTORE PUSH5 0x6F6E746873 PUSH1 0xD8 SHL PUSH1 0x64 DUP3 ADD MSTORE PUSH1 0x84 ADD PUSH2 0x865 JUMP JUMPDEST PUSH1 0x40 MLOAD PUSH4 0x23B872DD PUSH1 0xE0 SHL DUP2 MSTORE CALLER PUSH1 0x4 DUP3 ADD MSTORE ADDRESS PUSH1 0x24 DUP3 ADD MSTORE PUSH1 0x44 DUP2 ADD DUP9 SWAP1 MSTORE PUSH32 0x0 PUSH1 0x1 PUSH1 0x1 PUSH1 0xA0 SHL SUB AND SWAP1 PUSH4 0x23B872DD SWAP1 PUSH1 0x64 ADD PUSH1 0x20 PUSH1 0x40 MLOAD DUP1 DUP4 SUB DUP2 PUSH0 DUP8 GAS CALL ISZERO DUP1 ISZERO PUSH2 0x32E3 JUMPI RETURNDATASIZE PUSH0 PUSH0 RETURNDATACOPY RETURNDATASIZE PUSH0 REVERT JUMPDEST POP POP POP POP PUSH1 0x40 MLOAD RETURNDATASIZE PUSH1 0x1F NOT PUSH1 0x1F DUP3 ADD AND DUP3 ADD DUP1 PUSH1 0x40 MSTORE POP DUP2 ADD SWAP1 PUSH2 0x3307 SWAP2 SWAP1 PUSH2 0x4017 JUMP JUMPDEST PUSH2 0x3323 JUMPI PUSH1 0x40 MLOAD PUSH3 0x461BCD PUSH1 0xE5 SHL DUP2 MSTORE PUSH1 0x4 ADD PUSH2 0x865 SWAP1 PUSH2 0x4032 JUMP JUMPDEST PUSH1 0x1 PUSH1 0x1 PUSH1 0xA0 SHL SUB DUP9 AND PUSH0 SWAP1 DUP2 MSTORE PUSH1 0x7 PUSH1 0x20 MSTORE PUSH1 0x40 SWAP1 KECCAK256 SLOAD PUSH1 0xFF AND PUSH2 0x33A7 JUMPI PUSH1 0x1 PUSH1 0x1 PUSH1 0xA0 SHL SUB DUP9 AND PUSH0 DUP2 DUP2 MSTORE PUSH1 0x7 PUSH1 0x20 MSTORE PUSH1 0x40 DUP2 KECCAK256 DUP1 SLOAD PUSH1 0xFF NOT AND PUSH1 0x1 SWAP1 DUP2 OR SWAP1 SWAP2 SSTORE PUSH1 0x6 DUP1 SLOAD SWAP2 DUP3 ADD DUP2 SSTORE SWAP1 SWAP2 MSTORE PUSH32 0xF652222313E28459528D920B65115C16C04F3EFC82AAEDC97BE59F3F377C0D3F ADD DUP1 SLOAD PUSH1 0x1 PUSH1 0x1 PUSH1 0xA0 SHL SUB NOT AND SWAP1 SWAP2 OR SWAP1 SSTORE JUMPDEST PUSH1 0xA PUSH1 0x40 MLOAD DUP1 PUSH2 0x1C0 ADD PUSH1 0x40 MSTORE DUP1 PUSH1 0xA DUP1 SLOAD SWAP1 POP DUP2 MSTORE PUSH1 0x20 ADD DUP11 PUSH1 0x1 PUSH1 0x1 PUSH1 0xA0 SHL SUB AND DUP2 MSTORE PUSH1 0x20 ADD DUP10 DUP2 MSTORE PUSH1 0x20 ADD DUP5 DUP2 MSTORE PUSH1 0x20 ADD TIMESTAMP DUP2 MSTORE PUSH1 0x20 ADD PUSH0 DUP2 MSTORE PUSH1 0x20 ADD DUP4 DUP2 MSTORE PUSH1 0x20 ADD DUP5 DUP2 MSTORE PUSH1 0x20 ADD PUSH0 DUP2 MSTORE PUSH1 0x20 ADD PUSH1 0x1 ISZERO ISZERO DUP2 MSTORE PUSH1 0x20 ADD PUSH0 ISZERO ISZERO DUP2 MSTORE PUSH1 0x20 ADD PUSH0 DUP2 MSTORE PUSH1 0x20 ADD DUP8 ISZERO ISZERO DUP2 MSTORE PUSH1 0x20 ADD DUP7 DUP2 MSTORE POP SWAP1 DUP1 PUSH1 0x1 DUP2 SLOAD ADD DUP1 DUP3 SSTORE DUP1 SWAP2 POP POP PUSH1 0x1 SWAP1 SUB SWAP1 PUSH0 MSTORE PUSH1 0x20 PUSH0 KECCAK256 SWAP1 PUSH1 0xD MUL ADD PUSH0 SWAP1 SWAP2 SWAP1 SWAP2 SWAP1 SWAP2 POP PUSH0 DUP3 ADD MLOAD DUP2 PUSH0 ADD SSTORE PUSH1 0x20 DUP3 ADD MLOAD DUP2 PUSH1 0x1 ADD PUSH0 PUSH2 0x100 EXP DUP2 SLOAD DUP2 PUSH1 0x1 PUSH1 0x1 PUSH1 0xA0 SHL SUB MUL NOT AND SWAP1 DUP4 PUSH1 0x1 PUSH1 0x1 PUSH1 0xA0 SHL SUB AND MUL OR SWAP1 SSTORE POP PUSH1 0x40 DUP3 ADD MLOAD DUP2 PUSH1 0x2 ADD SSTORE PUSH1 0x60 DUP3 ADD MLOAD DUP2 PUSH1 0x3 ADD SSTORE PUSH1 0x80 DUP3 ADD MLOAD DUP2 PUSH1 0x4 ADD SSTORE PUSH1 0xA0 DUP3 ADD MLOAD DUP2 PUSH1 0x5 ADD SSTORE PUSH1 0xC0 DUP3 ADD MLOAD DUP2 PUSH1 0x6 ADD SSTORE PUSH1 0xE0 DUP3 ADD MLOAD DUP2 PUSH1 0x7 ADD SSTORE PUSH2 0x100 DUP3 ADD MLOAD DUP2 PUSH1 0x8 ADD SSTORE PUSH2 0x120 DUP3 ADD MLOAD DUP2 PUSH1 0x9 ADD PUSH0 PUSH2 0x100 EXP DUP2 SLOAD DUP2 PUSH1 0xFF MUL NOT AND SWAP1 DUP4 ISZERO ISZERO MUL OR SWAP1 SSTORE POP PUSH2 0x140 DUP3 ADD MLOAD DUP2 PUSH1 0x9 ADD PUSH1 0x1 PUSH2 0x100 EXP DUP2 SLOAD DUP2 PUSH1 0xFF MUL NOT AND SWAP1 DUP4 ISZERO ISZERO MUL OR SWAP1 SSTORE POP PUSH2 0x160 DUP3 ADD MLOAD DUP2 PUSH1 0xA ADD SSTORE PUSH2 0x180 DUP3 ADD MLOAD DUP2 PUSH1 0xB ADD PUSH0 PUSH2 0x100 EXP DUP2 SLOAD DUP2 PUSH1 0xFF MUL NOT AND SWAP1 DUP4 ISZERO ISZERO MUL OR SWAP1 SSTORE POP PUSH2 0x1A0 DUP3 ADD MLOAD DUP2 PUSH1 0xC ADD SSTORE POP POP PUSH0 PUSH1 0x1 PUSH1 0xA DUP1 SLOAD SWAP1 POP PUSH2 0x3549 SWAP2 SWAP1 PUSH2 0x3F96 JUMP JUMPDEST PUSH0 DUP2 DUP2 MSTORE PUSH1 0xB PUSH1 0x20 SWAP1 DUP2 MSTORE PUSH1 0x40 DUP1 DUP4 KECCAK256 DUP1 SLOAD PUSH1 0xFF NOT AND DUP10 ISZERO ISZERO OR SWAP1 SSTORE PUSH1 0x1 PUSH1 0x1 PUSH1 0xA0 SHL SUB DUP14 AND DUP4 MSTORE PUSH1 0x8 DUP3 MSTORE DUP3 KECCAK256 DUP1 SLOAD PUSH1 0x1 DUP2 ADD DUP3 SSTORE SWAP1 DUP4 MSTORE SWAP1 DUP3 KECCAK256 ADD DUP3 SWAP1 SSTORE PUSH1 0x9 DUP6 SWAP1 SSTORE PUSH1 0xF DUP1 SLOAD SWAP3 SWAP4 POP DUP11 SWAP3 SWAP1 SWAP2 SWAP1 PUSH2 0x35A5 SWAP1 DUP5 SWAP1 PUSH2 0x3FBD JUMP JUMPDEST SWAP1 SWAP2 SSTORE POP POP PUSH1 0xE DUP1 SLOAD SWAP1 PUSH0 PUSH2 0x35B9 DUP4 PUSH2 0x410C JUMP JUMPDEST SWAP1 SWAP2 SSTORE POP POP PUSH1 0xC DUP1 SLOAD PUSH1 0x1 DUP2 DUP2 ADD DUP4 SSTORE PUSH0 DUP4 SWAP1 MSTORE PUSH32 0xDF6966C971051C3D54EC59162606531493A51404A002842F56009D7E5CF4A8C7 SWAP1 SWAP2 ADD DUP4 SWAP1 SSTORE SWAP1 SLOAD PUSH2 0x3600 SWAP2 SWAP1 PUSH2 0x3F96 JUMP JUMPDEST PUSH0 DUP3 DUP2 MSTORE PUSH1 0xD PUSH1 0x20 SWAP1 DUP2 MSTORE PUSH1 0x40 DUP1 DUP4 KECCAK256 SWAP4 SWAP1 SWAP4 SSTORE DUP6 DUP3 MSTORE PUSH1 0x13 SWAP1 MSTORE SWAP1 DUP2 KECCAK256 DUP1 SLOAD SWAP2 PUSH2 0x362A DUP4 PUSH2 0x410C JUMP JUMPDEST SWAP1 SWAP2 SSTORE POP POP PUSH0 DUP4 DUP2 MSTORE PUSH1 0x14 PUSH1 0x20 MSTORE PUSH1 0x40 DUP2 KECCAK256 DUP1 SLOAD DUP11 SWAP3 SWAP1 PUSH2 0x364C SWAP1 DUP5 SWAP1 PUSH2 0x3FBD JUMP JUMPDEST SWAP1 SWAP2 SSTORE POP POP PUSH1 0x40 DUP1 MLOAD DUP3 DUP2 MSTORE PUSH1 0x20 DUP2 ADD DUP11 SWAP1 MSTORE SWAP1 DUP2 ADD DUP9 SWAP1 MSTORE PUSH1 0x60 DUP2 ADD DUP4 SWAP1 MSTORE PUSH1 0x1 PUSH1 0x1 PUSH1 0xA0 SHL SUB DUP11 AND SWAP1 PUSH32 0x554F20505671494900B631B0E443E9E7A59743EC9889B05E28D8AC9EA158266B SWAP1 PUSH1 0x80 ADD PUSH1 0x40 MLOAD DUP1 SWAP2 SUB SWAP1 LOG2 POP POP POP POP POP POP POP POP POP JUMP JUMPDEST DUP2 DUP4 LT PUSH2 0x36EE JUMPI PUSH1 0x40 MLOAD PUSH3 0x461BCD PUSH1 0xE5 SHL DUP2 MSTORE PUSH1 0x20 PUSH1 0x4 DUP3 ADD MSTORE PUSH1 0xD PUSH1 0x24 DUP3 ADD MSTORE PUSH13 0x496E76616C69642072616E6765 PUSH1 0x98 SHL PUSH1 0x44 DUP3 ADD MSTORE PUSH1 0x64 ADD PUSH2 0x865 JUMP JUMPDEST DUP1 ISZERO PUSH2 0x3716 JUMPI PUSH2 0x2710 DUP2 GT ISZERO PUSH2 0x3716 JUMPI PUSH1 0x40 MLOAD PUSH3 0x461BCD PUSH1 0xE5 SHL DUP2 MSTORE PUSH1 0x4 ADD PUSH2 0x865 SWAP1 PUSH2 0x3F5D JUMP JUMPDEST PUSH1 0x12 SLOAD ISZERO PUSH2 0x3783 JUMPI PUSH1 0x12 DUP1 SLOAD PUSH2 0x372E SWAP1 PUSH1 0x1 SWAP1 PUSH2 0x3F96 JUMP JUMPDEST DUP2 SLOAD DUP2 LT PUSH2 0x373E JUMPI PUSH2 0x373E PUSH2 0x3FA9 JUMP JUMPDEST SWAP1 PUSH0 MSTORE PUSH1 0x20 PUSH0 KECCAK256 SWAP1 PUSH1 0x3 MUL ADD PUSH1 0x1 ADD SLOAD DUP4 LT ISZERO PUSH2 0x3783 JUMPI PUSH1 0x40 MLOAD PUSH3 0x461BCD PUSH1 0xE5 SHL DUP2 MSTORE PUSH1 0x20 PUSH1 0x4 DUP3 ADD MSTORE PUSH1 0x3 PUSH1 0x24 DUP3 ADD MSTORE PUSH3 0x536571 PUSH1 0xE8 SHL PUSH1 0x44 DUP3 ADD MSTORE PUSH1 0x64 ADD PUSH2 0x865 JUMP JUMPDEST PUSH1 0x40 DUP1 MLOAD PUSH1 0x60 DUP2 ADD DUP3 MSTORE SWAP4 DUP5 MSTORE PUSH1 0x20 DUP5 ADD SWAP3 DUP4 MSTORE DUP4 ADD SWAP1 DUP2 MSTORE PUSH1 0x12 DUP1 SLOAD PUSH1 0x1 DUP2 ADD DUP3 SSTORE PUSH0 SWAP2 SWAP1 SWAP2 MSTORE SWAP3 MLOAD PUSH32 0xBB8A6A4669BA250D26CD7A459ECA9D215F8307E33AEBE50379BC5A3617EC3444 PUSH1 0x3 SWAP1 SWAP5 MUL SWAP4 DUP5 ADD SSTORE SWAP1 MLOAD PUSH32 0xBB8A6A4669BA250D26CD7A459ECA9D215F8307E33AEBE50379BC5A3617EC3445 DUP4 ADD SSTORE MLOAD PUSH32 0xBB8A6A4669BA250D26CD7A459ECA9D215F8307E33AEBE50379BC5A3617EC3446 SWAP1 SWAP2 ADD SSTORE JUMP JUMPDEST PUSH0 DUP2 PUSH0 SUB PUSH2 0x3831 JUMPI TIMESTAMP SWAP2 POP JUMPDEST DUP3 JUMPDEST PUSH1 0x12 SLOAD DUP2 LT DUP1 ISZERO PUSH2 0x3866 JUMPI POP DUP3 PUSH1 0x12 DUP3 DUP2 SLOAD DUP2 LT PUSH2 0x3853 JUMPI PUSH2 0x3853 PUSH2 0x3FA9 JUMP JUMPDEST SWAP1 PUSH0 MSTORE PUSH1 0x20 PUSH0 KECCAK256 SWAP1 PUSH1 0x3 MUL ADD PUSH1 0x1 ADD SLOAD GT ISZERO JUMPDEST ISZERO PUSH2 0x19B6 JUMPI PUSH1 0x1 ADD PUSH2 0x3833 JUMP JUMPDEST PUSH0 PUSH0 PUSH1 0x12 DUP4 DUP2 SLOAD DUP2 LT PUSH2 0x3888 JUMPI PUSH2 0x3888 PUSH2 0x3FA9 JUMP JUMPDEST SWAP1 PUSH0 MSTORE PUSH1 0x20 PUSH0 KECCAK256 SWAP1 PUSH1 0x3 MUL ADD PUSH1 0x2 ADD SLOAD SWAP1 POP DUP1 PUSH0 EQ PUSH2 0x38A7 JUMPI DUP1 PUSH2 0x19B6 JUMP JUMPDEST PUSH1 0x3 SLOAD SWAP4 SWAP3 POP POP POP JUMP JUMPDEST PUSH1 0x9 SLOAD PUSH0 SWAP1 TIMESTAMP SWAP1 JUMPDEST PUSH1 0x12 SLOAD DUP2 LT ISZERO PUSH2 0x3928 JUMPI PUSH1 0x12 DUP2 DUP2 SLOAD DUP2 LT PUSH2 0x38D6 JUMPI PUSH2 0x38D6 PUSH2 0x3FA9 JUMP JUMPDEST SWAP1 PUSH0 MSTORE PUSH1 0x20 PUSH0 KECCAK256 SWAP1 PUSH1 0x3 MUL ADD PUSH0 ADD SLOAD DUP3 LT ISZERO DUP1 ISZERO PUSH2 0x3915 JUMPI POP PUSH1 0x12 DUP2 DUP2 SLOAD DUP2 LT PUSH2 0x3902 JUMPI PUSH2 0x3902 PUSH2 0x3FA9 JUMP JUMPDEST SWAP1 PUSH0 MSTORE PUSH1 0x20 PUSH0 KECCAK256 SWAP1 PUSH1 0x3 MUL ADD PUSH1 0x1 ADD SLOAD DUP3 LT JUMPDEST ISZERO PUSH2 0x3920 JUMPI SWAP3 SWAP2 POP POP JUMP JUMPDEST PUSH1 0x1 ADD PUSH2 0x38B9 JUMP JUMPDEST POP POP PUSH1 0x12 SLOAD SWAP2 SWAP1 POP JUMP JUMPDEST PUSH0 DUP2 DUP2 MSTORE PUSH1 0xD PUSH1 0x20 MSTORE PUSH1 0x40 DUP2 KECCAK256 SLOAD PUSH1 0xC DUP1 SLOAD SWAP2 SWAP3 SWAP2 PUSH2 0x3953 SWAP1 PUSH1 0x1 SWAP1 PUSH2 0x3F96 JUMP JUMPDEST DUP2 SLOAD DUP2 LT PUSH2 0x3963 JUMPI PUSH2 0x3963 PUSH2 0x3FA9 JUMP JUMPDEST SWAP1 PUSH0 MSTORE PUSH1 0x20 PUSH0 KECCAK256 ADD SLOAD SWAP1 POP DUP1 PUSH1 0xC DUP4 DUP2 SLOAD DUP2 LT PUSH2 0x3982 JUMPI PUSH2 0x3982 PUSH2 0x3FA9 JUMP JUMPDEST PUSH0 SWAP2 DUP3 MSTORE PUSH1 0x20 DUP1 DUP4 KECCAK256 SWAP1 SWAP2 ADD SWAP3 SWAP1 SWAP3 SSTORE DUP3 DUP2 MSTORE PUSH1 0xD SWAP1 SWAP2 MSTORE PUSH1 0x40 SWAP1 KECCAK256 DUP3 SWAP1 SSTORE PUSH1 0xC DUP1 SLOAD DUP1 PUSH2 0x39B2 JUMPI PUSH2 0x39B2 PUSH2 0x40F8 JUMP JUMPDEST PUSH0 DUP3 DUP2 MSTORE PUSH1 0x20 DUP1 DUP3 KECCAK256 DUP4 ADD PUSH0 NOT SWAP1 DUP2 ADD DUP4 SWAP1 SSTORE SWAP1 SWAP3 ADD SWAP1 SWAP3 SSTORE SWAP4 DUP2 MSTORE PUSH1 0xD SWAP1 SWAP4 MSTORE POP POP PUSH1 0x40 DUP2 KECCAK256 SSTORE JUMP JUMPDEST PUSH0 DUP1 JUMPDEST PUSH1 0x12 SLOAD DUP2 LT ISZERO PUSH2 0x3928 JUMPI PUSH1 0x12 DUP2 DUP2 SLOAD DUP2 LT PUSH2 0x39FC JUMPI PUSH2 0x39FC PUSH2 0x3FA9 JUMP JUMPDEST SWAP1 PUSH0 MSTORE PUSH1 0x20 PUSH0 KECCAK256 SWAP1 PUSH1 0x3 MUL ADD PUSH0 ADD SLOAD DUP4 LT ISZERO DUP1 ISZERO PUSH2 0x3A3B JUMPI POP PUSH1 0x12 DUP2 DUP2 SLOAD DUP2 LT PUSH2 0x3A28 JUMPI PUSH2 0x3A28 PUSH2 0x3FA9 JUMP JUMPDEST SWAP1 PUSH0 MSTORE PUSH1 0x20 PUSH0 KECCAK256 SWAP1 PUSH1 0x3 MUL ADD PUSH1 0x1 ADD SLOAD DUP4 LT JUMPDEST ISZERO PUSH2 0x3A46 JUMPI SWAP3 SWAP2 POP POP JUMP JUMPDEST PUSH1 0x1 ADD PUSH2 0x39DF JUMP JUMPDEST PUSH1 0x40 MLOAD DUP1 PUSH2 0x1C0 ADD PUSH1 0x40 MSTORE DUP1 PUSH0 DUP2 MSTORE PUSH1 0x20 ADD PUSH0 PUSH1 0x1 PUSH1 0x1 PUSH1 0xA0 SHL SUB AND DUP2 MSTORE PUSH1 0x20 ADD PUSH0 DUP2 MSTORE PUSH1 0x20 ADD PUSH0 DUP2 MSTORE PUSH1 0x20 ADD PUSH0 DUP2 MSTORE PUSH1 0x20 ADD PUSH0 DUP2 MSTORE PUSH1 0x20 ADD PUSH0 DUP2 MSTORE PUSH1 0x20 ADD PUSH0 DUP2 MSTORE PUSH1 0x20 ADD PUSH0 DUP2 MSTORE PUSH1 0x20 ADD PUSH0 ISZERO ISZERO DUP2 MSTORE PUSH1 0x20 ADD PUSH0 ISZERO ISZERO DUP2 MSTORE PUSH1 0x20 ADD PUSH0 DUP2 MSTORE PUSH1 0x20 ADD PUSH0 ISZERO ISZERO DUP2 MSTORE PUSH1 0x20 ADD PUSH0 DUP2 MSTORE POP SWAP1 JUMP JUMPDEST PUSH0 PUSH0 PUSH0 PUSH0 PUSH1 0x80 DUP6 DUP8 SUB SLT ISZERO PUSH2 0x3AD1 JUMPI PUSH0 PUSH0 REVERT JUMPDEST POP POP DUP3 CALLDATALOAD SWAP5 PUSH1 0x20 DUP5 ADD CALLDATALOAD SWAP5 POP PUSH1 0x40 DUP5 ADD CALLDATALOAD SWAP4 PUSH1 0x60 ADD CALLDATALOAD SWAP3 POP SWAP1 POP JUMP JUMPDEST DUP1 CALLDATALOAD PUSH1 0x1 PUSH1 0x1 PUSH1 0xA0 SHL SUB DUP2 AND DUP2 EQ PUSH2 0x3B03 JUMPI PUSH0 PUSH0 REVERT JUMPDEST SWAP2 SWAP1 POP JUMP JUMPDEST DUP1 ISZERO ISZERO DUP2 EQ PUSH2 0xF56 JUMPI PUSH0 PUSH0 REVERT JUMPDEST PUSH0 PUSH0 PUSH0 PUSH0 PUSH0 PUSH1 0xA0 DUP7 DUP9 SUB SLT ISZERO PUSH2 0x3B29 JUMPI PUSH0 PUSH0 REVERT JUMPDEST PUSH2 0x3B32 DUP7 PUSH2 0x3AED JUMP JUMPDEST SWAP5 POP PUSH1 0x20 DUP7 ADD CALLDATALOAD SWAP4 POP PUSH1 0x40 DUP7 ADD CALLDATALOAD SWAP3 POP PUSH1 0x60 DUP7 ADD CALLDATALOAD PUSH2 0x3B50 DUP2 PUSH2 0x3B08 JUMP JUMPDEST SWAP5 SWAP8 SWAP4 SWAP7 POP SWAP2 SWAP5 PUSH1 0x80 ADD CALLDATALOAD SWAP3 SWAP2 POP POP JUMP JUMPDEST PUSH0 PUSH0 PUSH1 0x40 DUP4 DUP6 SUB SLT ISZERO PUSH2 0x3B72 JUMPI PUSH0 PUSH0 REVERT JUMPDEST PUSH2 0x3B7B DUP4 PUSH2 0x3AED JUMP JUMPDEST SWAP5 PUSH1 0x20 SWAP4 SWAP1 SWAP4 ADD CALLDATALOAD SWAP4 POP POP POP JUMP JUMPDEST PUSH0 PUSH1 0x20 DUP3 DUP5 SUB SLT ISZERO PUSH2 0x3B99 JUMPI PUSH0 PUSH0 REVERT JUMPDEST POP CALLDATALOAD SWAP2 SWAP1 POP JUMP JUMPDEST DUP1 MLOAD DUP3 MSTORE PUSH1 0x20 DUP2 ADD MLOAD PUSH2 0x3BBE PUSH1 0x20 DUP5 ADD DUP3 PUSH1 0x1 PUSH1 0x1 PUSH1 0xA0 SHL SUB AND SWAP1 MSTORE JUMP JUMPDEST POP PUSH1 0x40 DUP2 ADD MLOAD PUSH1 0x40 DUP4 ADD MSTORE PUSH1 0x60 DUP2 ADD MLOAD PUSH1 0x60 DUP4 ADD MSTORE PUSH1 0x80 DUP2 ADD MLOAD PUSH1 0x80 DUP4 ADD MSTORE PUSH1 0xA0 DUP2 ADD MLOAD PUSH1 0xA0 DUP4 ADD MSTORE PUSH1 0xC0 DUP2 ADD MLOAD PUSH1 0xC0 DUP4 ADD MSTORE PUSH1 0xE0 DUP2 ADD MLOAD PUSH1 0xE0 DUP4 ADD MSTORE PUSH2 0x100 DUP2 ADD MLOAD PUSH2 0x100 DUP4 ADD MSTORE PUSH2 0x120 DUP2 ADD MLOAD PUSH2 0x3C1C PUSH2 0x120 DUP5 ADD DUP3 ISZERO ISZERO SWAP1 MSTORE JUMP JUMPDEST POP PUSH2 0x140 DUP2 ADD MLOAD PUSH2 0x3C32 PUSH2 0x140 DUP5 ADD DUP3 ISZERO ISZERO SWAP1 MSTORE JUMP JUMPDEST POP PUSH2 0x160 DUP2 ADD MLOAD PUSH2 0x160 DUP4 ADD MSTORE PUSH2 0x180 DUP2 ADD MLOAD PUSH2 0x3C54 PUSH2 0x180 DUP5 ADD DUP3 ISZERO ISZERO SWAP1 MSTORE JUMP JUMPDEST POP PUSH2 0x1A0 SWAP1 DUP2 ADD MLOAD SWAP2 ADD MSTORE JUMP JUMPDEST PUSH2 0x1C0 DUP2 ADD PUSH2 0x15FE DUP3 DUP5 PUSH2 0x3BA0 JUMP JUMPDEST PUSH0 PUSH0 PUSH0 PUSH1 0x60 DUP5 DUP7 SUB SLT ISZERO PUSH2 0x3C82 JUMPI PUSH0 PUSH0 REVERT JUMPDEST POP POP DUP2 CALLDATALOAD SWAP4 PUSH1 0x20 DUP4 ADD CALLDATALOAD SWAP4 POP PUSH1 0x40 SWAP1 SWAP3 ADD CALLDATALOAD SWAP2 SWAP1 POP JUMP JUMPDEST PUSH0 PUSH0 DUP4 PUSH1 0x1F DUP5 ADD SLT PUSH2 0x3CA9 JUMPI PUSH0 PUSH0 REVERT JUMPDEST POP DUP2 CALLDATALOAD PUSH8 0xFFFFFFFFFFFFFFFF DUP2 GT ISZERO PUSH2 0x3CC0 JUMPI PUSH0 PUSH0 REVERT JUMPDEST PUSH1 0x20 DUP4 ADD SWAP2 POP DUP4 PUSH1 0x20 DUP3 PUSH1 0x5 SHL DUP6 ADD ADD GT ISZERO PUSH2 0x3CDA JUMPI PUSH0 PUSH0 REVERT JUMPDEST SWAP3 POP SWAP3 SWAP1 POP JUMP JUMPDEST PUSH0 PUSH0 PUSH0 PUSH0 PUSH0 PUSH0 PUSH1 0x60 DUP8 DUP10 SUB SLT ISZERO PUSH2 0x3CF6 JUMPI PUSH0 PUSH0 REVERT JUMPDEST DUP7 CALLDATALOAD PUSH8 0xFFFFFFFFFFFFFFFF DUP2 GT ISZERO PUSH2 0x3D0C JUMPI PUSH0 PUSH0 REVERT JUMPDEST PUSH2 0x3D18 DUP10 DUP3 DUP11 ADD PUSH2 0x3C99 JUMP JUMPDEST SWAP1 SWAP8 POP SWAP6 POP POP PUSH1 0x20 DUP8 ADD CALLDATALOAD PUSH8 0xFFFFFFFFFFFFFFFF DUP2 GT ISZERO PUSH2 0x3D37 JUMPI PUSH0 PUSH0 REVERT JUMPDEST PUSH2 0x3D43 DUP10 DUP3 DUP11 ADD PUSH2 0x3C99 JUMP JUMPDEST SWAP1 SWAP6 POP SWAP4 POP POP PUSH1 0x40 DUP8 ADD CALLDATALOAD PUSH8 0xFFFFFFFFFFFFFFFF DUP2 GT ISZERO PUSH2 0x3D62 JUMPI PUSH0 PUSH0 REVERT JUMPDEST PUSH2 0x3D6E DUP10 DUP3 DUP11 ADD PUSH2 0x3C99 JUMP JUMPDEST SWAP8 SWAP11 SWAP7 SWAP10 POP SWAP5 SWAP8 POP SWAP3 SWAP6 SWAP4 SWAP5 SWAP3 POP POP POP JUMP JUMPDEST PUSH0 PUSH0 PUSH1 0x40 DUP4 DUP6 SUB SLT ISZERO PUSH2 0x3D91 JUMPI PUSH0 PUSH0 REVERT JUMPDEST POP POP DUP1 CALLDATALOAD SWAP3 PUSH1 0x20 SWAP1 SWAP2 ADD CALLDATALOAD SWAP2 POP JUMP JUMPDEST PUSH1 0x20 DUP1 DUP3 MSTORE DUP3 MLOAD DUP3 DUP3 ADD DUP2 SWAP1 MSTORE PUSH0 SWAP2 DUP5 ADD SWAP1 PUSH1 0x40 DUP5 ADD SWAP1 DUP4 JUMPDEST DUP2 DUP2 LT ISZERO PUSH2 0x3DE3 JUMPI PUSH2 0x3DCC DUP4 DUP6 MLOAD PUSH2 0x3BA0 JUMP JUMPDEST PUSH1 0x20 SWAP4 SWAP1 SWAP4 ADD SWAP3 PUSH2 0x1C0 SWAP3 SWAP1 SWAP3 ADD SWAP2 PUSH1 0x1 ADD PUSH2 0x3DB9 JUMP JUMPDEST POP SWAP1 SWAP6 SWAP5 POP POP POP POP POP JUMP JUMPDEST PUSH0 PUSH1 0x20 DUP3 DUP5 SUB SLT ISZERO PUSH2 0x3DFE JUMPI PUSH0 PUSH0 REVERT JUMPDEST PUSH2 0x19B6 DUP3 PUSH2 0x3AED JUMP JUMPDEST PUSH1 0x20 DUP1 DUP3 MSTORE DUP3 MLOAD DUP3 DUP3 ADD DUP2 SWAP1 MSTORE PUSH0 SWAP2 DUP5 ADD SWAP1 PUSH1 0x40 DUP5 ADD SWAP1 DUP4 JUMPDEST DUP2 DUP2 LT ISZERO PUSH2 0x3DE3 JUMPI DUP4 MLOAD PUSH1 0x1 PUSH1 0x1 PUSH1 0xA0 SHL SUB AND DUP4 MSTORE PUSH1 0x20 SWAP4 DUP5 ADD SWAP4 SWAP1 SWAP3 ADD SWAP2 PUSH1 0x1 ADD PUSH2 0x3E20 JUMP JUMPDEST PUSH0 PUSH0 PUSH0 PUSH1 0x60 DUP5 DUP7 SUB SLT ISZERO PUSH2 0x3E59 JUMPI PUSH0 PUSH0 REVERT JUMPDEST PUSH2 0x3E62 DUP5 PUSH2 0x3AED JUMP JUMPDEST SWAP6 PUSH1 0x20 DUP6 ADD CALLDATALOAD SWAP6 POP PUSH1 0x40 SWAP1 SWAP5 ADD CALLDATALOAD SWAP4 SWAP3 POP POP POP JUMP JUMPDEST DUP15 DUP2 MSTORE PUSH1 0x1 PUSH1 0x1 PUSH1 0xA0 SHL SUB DUP15 AND PUSH1 0x20 DUP3 ADD MSTORE PUSH1 0x40 DUP2 ADD DUP14 SWAP1 MSTORE PUSH1 0x60 DUP2 ADD DUP13 SWAP1 MSTORE PUSH1 0x80 DUP2 ADD DUP12 SWAP1 MSTORE PUSH1 0xA0 DUP2 ADD DUP11 SWAP1 MSTORE PUSH1 0xC0 DUP2 ADD DUP10 SWAP1 MSTORE PUSH1 0xE0 DUP2 ADD DUP9 SWAP1 MSTORE PUSH2 0x100 DUP2 ADD DUP8 SWAP1 MSTORE DUP6 ISZERO ISZERO PUSH2 0x120 DUP3 ADD MSTORE DUP5 ISZERO ISZERO PUSH2 0x140 DUP3 ADD MSTORE PUSH2 0x1C0 DUP2 ADD DUP5 PUSH2 0x160 DUP4 ADD MSTORE PUSH2 0x3EE8 PUSH2 0x180 DUP4 ADD DUP6 ISZERO ISZERO SWAP1 MSTORE JUMP JUMPDEST DUP3 PUSH2 0x1A0 DUP4 ADD MSTORE SWAP16 SWAP15 POP POP POP POP POP POP POP POP POP POP POP POP POP POP POP JUMP JUMPDEST PUSH1 0x20 DUP1 DUP3 MSTORE DUP3 MLOAD DUP3 DUP3 ADD DUP2 SWAP1 MSTORE PUSH0 SWAP2 DUP5 ADD SWAP1 PUSH1 0x40 DUP5 ADD SWAP1 DUP4 JUMPDEST DUP2 DUP2 LT ISZERO PUSH2 0x3DE3 JUMPI DUP4 MLOAD DUP4 MSTORE PUSH1 0x20 SWAP4 DUP5 ADD SWAP4 SWAP1 SWAP3 ADD SWAP2 PUSH1 0x1 ADD PUSH2 0x3F1B JUMP JUMPDEST PUSH1 0x20 DUP1 DUP3 MSTORE PUSH1 0xA SWAP1 DUP3 ADD MSTORE PUSH10 0x27B7363C9037BBB732B9 PUSH1 0xB1 SHL PUSH1 0x40 DUP3 ADD MSTORE PUSH1 0x60 ADD SWAP1 JUMP JUMPDEST PUSH1 0x20 DUP1 DUP3 MSTORE PUSH1 0xB SWAP1 DUP3 ADD MSTORE PUSH11 0x52617465203E2031303025 PUSH1 0xA8 SHL PUSH1 0x40 DUP3 ADD MSTORE PUSH1 0x60 ADD SWAP1 JUMP JUMPDEST PUSH4 0x4E487B71 PUSH1 0xE0 SHL PUSH0 MSTORE PUSH1 0x11 PUSH1 0x4 MSTORE PUSH1 0x24 PUSH0 REVERT JUMPDEST DUP2 DUP2 SUB DUP2 DUP2 GT ISZERO PUSH2 0x15FE JUMPI PUSH2 0x15FE PUSH2 0x3F82 JUMP JUMPDEST PUSH4 0x4E487B71 PUSH1 0xE0 SHL PUSH0 MSTORE PUSH1 0x32 PUSH1 0x4 MSTORE PUSH1 0x24 PUSH0 REVERT JUMPDEST DUP1 DUP3 ADD DUP1 DUP3 GT ISZERO PUSH2 0x15FE JUMPI PUSH2 0x15FE PUSH2 0x3F82 JUMP JUMPDEST PUSH1 0x20 DUP1 DUP3 MSTORE PUSH1 0x9 SWAP1 DUP3 ADD MSTORE PUSH9 0x2737BA1037BBB732B9 PUSH1 0xB9 SHL PUSH1 0x40 DUP3 ADD MSTORE PUSH1 0x60 ADD SWAP1 JUMP JUMPDEST PUSH1 0x20 DUP1 DUP3 MSTORE PUSH1 0xA SWAP1 DUP3 ADD MSTORE PUSH10 0x456D7074792062616E6B PUSH1 0xB0 SHL PUSH1 0x40 DUP3 ADD MSTORE PUSH1 0x60 ADD SWAP1 JUMP JUMPDEST PUSH0 PUSH1 0x20 DUP3 DUP5 SUB SLT ISZERO PUSH2 0x4027 JUMPI PUSH0 PUSH0 REVERT JUMPDEST DUP2 MLOAD PUSH2 0x19B6 DUP2 PUSH2 0x3B08 JUMP JUMPDEST PUSH1 0x20 DUP1 DUP3 MSTORE PUSH1 0xF SWAP1 DUP3 ADD MSTORE PUSH15 0x151C985B9CD9995C8819985A5B1959 PUSH1 0x8A SHL PUSH1 0x40 DUP3 ADD MSTORE PUSH1 0x60 ADD SWAP1 JUMP JUMPDEST DUP1 DUP3 MUL DUP2 ISZERO DUP3 DUP3 DIV DUP5 EQ OR PUSH2 0x15FE JUMPI PUSH2 0x15FE PUSH2 0x3F82 JUMP JUMPDEST PUSH0 DUP3 PUSH2 0x408C JUMPI PUSH4 0x4E487B71 PUSH1 0xE0 SHL PUSH0 MSTORE PUSH1 0x12 PUSH1 0x4 MSTORE PUSH1 0x24 PUSH0 REVERT JUMPDEST POP DIV SWAP1 JUMP JUMPDEST PUSH4 0x4E487B71 PUSH1 0xE0 SHL PUSH0 MSTORE PUSH1 0x41 PUSH1 0x4 MSTORE PUSH1 0x24 PUSH0 REVERT JUMPDEST PUSH1 0x20 DUP1 DUP3 MSTORE PUSH1 0x8 SWAP1 DUP3 ADD MSTORE PUSH8 0x496E616374697665 PUSH1 0xC0 SHL PUSH1 0x40 DUP3 ADD MSTORE PUSH1 0x60 ADD SWAP1 JUMP JUMPDEST PUSH0 DUP2 PUSH2 0x40D5 JUMPI PUSH2 0x40D5 PUSH2 0x3F82 JUMP JUMPDEST POP PUSH0 NOT ADD SWAP1 JUMP JUMPDEST PUSH1 0x20 DUP1 DUP3 MSTORE PUSH1 0x2 SWAP1 DUP3 ADD MSTORE PUSH2 0x4531 PUSH1 0xF0 SHL PUSH1 0x40 DUP3 ADD MSTORE PUSH1 0x60 ADD SWAP1 JUMP JUMPDEST PUSH4 0x4E487B71 PUSH1 0xE0 SHL PUSH0 MSTORE PUSH1 0x31 PUSH1 0x4 MSTORE PUSH1 0x24 PUSH0 REVERT JUMPDEST PUSH0 PUSH1 0x1 DUP3 ADD PUSH2 0x411D JUMPI PUSH2 0x411D PUSH2 0x3F82 JUMP JUMPDEST POP PUSH1 0x1 ADD SWAP1 JUMP INVALID LOG2 PUSH5 0x6970667358 0x22 SLT KECCAK256 PUSH19 0x45FFF46B33D81F0225FA0D30CEA59C1E0BADDE 0xE2 0xC1 0x1E 0xEF 0x2D 0xCB PUSH12 0xACFDAA30D364736F6C634300 ADDMOD 0x1E STOP CALLER "
		},
		"gasEstimates": {
			"creation": {
				"codeDepositCost": "3346000",
				"executionCost": "infinite",
				"totalCost": "infinite"
			},
			"external": {
				"activeDeposits(uint256)": "4674",
				"activeDepositsCount()": "2350",
				"activeDepositsIndex(uint256)": "2558",
				"addMonth(uint256,uint256,uint256)": "infinite",
				"addMonthsBatch(uint256[],uint256[],uint256[])": "infinite",
				"addTokensToBank(uint256)": "infinite",
				"allUsers(uint256)": "4679",
				"bankAmount()": "2416",
				"byOracle(uint256)": "2560",
				"calculatePendingRewardForDeposit(uint256)": "infinite",
				"calculateReward(uint256,uint256,uint256,uint256)": "infinite",
				"calculateRewardByMonths(uint256,uint256,uint256)": "infinite",
				"cancelDeposit(uint256)": "infinite",
				"createDeposit(uint256,uint256)": "infinite",
				"createDepositFor(address,uint256,uint256,bool,uint256)": "infinite",
				"deleteLastMonth()": "53527",
				"deposits(uint256)": "30485",
				"depositsAmount()": "2415",
				"editMonth(uint256,uint256,uint256,uint256)": "infinite",
				"estimateRequiredBankReserve()": "4639",
				"estimateRequiredBankReservePrecise()": "infinite",
				"getActiveDeposits(uint256,uint256)": "infinite",
				"getActiveDepositsCount()": "2369",
				"getAllUsers()": "infinite",
				"getDepositById(uint256)": "infinite",
				"getDeposits(uint256,uint256)": "infinite",
				"getSavedReward(uint256)": "infinite",
				"getTotalDeposits()": "2415",
				"getTotalUsers()": "2392",
				"getUserDeposits(address,uint256,uint256)": "infinite",
				"getUserDepositsCount(address)": "2590",
				"getUserDepositsIds(address)": "infinite",
				"getUsers(uint256,uint256)": "infinite",
				"getUsersCount()": "2370",
				"globalRateBps()": "2371",
				"isUser(address)": "2618",
				"lastKnownMonthIndex()": "2353",
				"minLockAmount()": "2352",
				"minLockMonths()": "2393",
				"monthDepositsAmount(uint256)": "2558",
				"monthDepositsCount(uint256)": "2492",
				"monthRewardsAmount(uint256)": "2536",
				"months(uint256)": "8923",
				"oracle()": "2469",
				"owner()": "2427",
				"recoverToken(address,uint256)": "infinite",
				"rewardsPayed()": "2374",
				"safeDeposit(uint256)": "infinite",
				"setGlobalRateBps(uint256)": "25643",
				"setMinLockAmount(uint256)": "24575",
				"setMinLockMonths(uint256)": "24530",
				"setOracle(address)": "26820",
				"stakingToken()": "infinite",
				"transferOwnership(address)": "26810",
				"userDeposits(address,uint256)": "4816",
				"withdrawBank(uint256)": "infinite",
				"withdrawPrincipalAndRewards(uint256)": "infinite",
				"withdrawRewardsOnly(uint256)": "infinite"
			},
			"internal": {
				"_addSingleMonth(uint256,uint256,uint256)": "infinite",
				"_createDeposit(address,uint256,uint256,bool,uint256,bool)": "infinite",
				"_findLastCompletedMonth(uint256,uint256)": "infinite",
				"_getCurrentMonthIndex()": "infinite",
				"_getCurrentMonthIndexAt(uint256)": "infinite",
				"_getEffectiveRateBps(uint256)": "6456",
				"_removeFromActiveDeposits(uint256)": "89530"
			}
		},
		"methodIdentifiers": {
			"activeDeposits(uint256)": "90693ca7",
			"activeDepositsCount()": "ccbd0007",
			"activeDepositsIndex(uint256)": "23e0ceb2",
			"addMonth(uint256,uint256,uint256)": "23b28a54",
			"addMonthsBatch(uint256[],uint256[],uint256[])": "2ffb3d2a",
			"addTokensToBank(uint256)": "91ba50cd",
			"allUsers(uint256)": "a2bdedf4",
			"bankAmount()": "b42a275e",
			"byOracle(uint256)": "1cc39d57",
			"calculatePendingRewardForDeposit(uint256)": "2e0e3064",
			"calculateReward(uint256,uint256,uint256,uint256)": "7196d3e2",
			"calculateRewardByMonths(uint256,uint256,uint256)": "dd4824a8",
			"cancelDeposit(uint256)": "72fada5c",
			"createDeposit(uint256,uint256)": "b18e71f2",
			"createDepositFor(address,uint256,uint256,bool,uint256)": "06f960bb",
			"deleteLastMonth()": "a9783cd7",
			"deposits(uint256)": "b02c43d0",
			"depositsAmount()": "fe4ab90a",
			"editMonth(uint256,uint256,uint256,uint256)": "05a163b6",
			"estimateRequiredBankReserve()": "8c90926f",
			"estimateRequiredBankReservePrecise()": "d188e3ae",
			"getActiveDeposits(uint256,uint256)": "4106ee75",
			"getActiveDepositsCount()": "d7d43c78",
			"getAllUsers()": "e2842d79",
			"getDepositById(uint256)": "1bfc7761",
			"getDeposits(uint256,uint256)": "d3752830",
			"getSavedReward(uint256)": "1fb3bd93",
			"getTotalDeposits()": "168a4822",
			"getTotalUsers()": "9be572f6",
			"getUserDeposits(address,uint256,uint256)": "4698b883",
			"getUserDepositsCount(address)": "d6a13301",
			"getUserDepositsIds(address)": "c491eecd",
			"getUsers(uint256,uint256)": "45982a66",
			"getUsersCount()": "a4a1e263",
			"globalRateBps()": "f4f8c847",
			"isUser(address)": "4209fff1",
			"lastKnownMonthIndex()": "000d6386",
			"minLockAmount()": "08804275",
			"minLockMonths()": "f8799e1a",
			"monthDepositsAmount(uint256)": "9d13fa01",
			"monthDepositsCount(uint256)": "41aff23e",
			"monthRewardsAmount(uint256)": "ccaac244",
			"months(uint256)": "1d0205b8",
			"oracle()": "7dc0d1d0",
			"owner()": "8da5cb5b",
			"recoverToken(address,uint256)": "b29a8140",
			"rewardsPayed()": "1c5dc54c",
			"safeDeposit(uint256)": "647fc56c",
			"setGlobalRateBps(uint256)": "9521abc6",
			"setMinLockAmount(uint256)": "0f68ae40",
			"setMinLockMonths(uint256)": "4b4d7aa8",
			"setOracle(address)": "7adbf973",
			"stakingToken()": "72f702f3",
			"transferOwnership(address)": "f2fde38b",
			"userDeposits(address,uint256)": "08f43333",
			"withdrawBank(uint256)": "be2ff4a9",
			"withdrawPrincipalAndRewards(uint256)": "6241ca79",
			"withdrawRewardsOnly(uint256)": "d3d83445"
		}
	},
	"abi": [
		{
			"inputs": [
				{
					"internalType": "address",
					"name": "_stakingToken",
					"type": "address"
				},
				{
					"internalType": "uint256",
					"name": "_globalRateBps",
					"type": "uint256"
				}
			],
			"stateMutability": "nonpayable",
			"type": "constructor"
		},
		{
			"inputs": [],
			"name": "ReentrancyGuardReentrantCall",
			"type": "error"
		},
		{
			"anonymous": false,
			"inputs": [
				{
					"indexed": false,
					"internalType": "uint256",
					"name": "depositId",
					"type": "uint256"
				},
				{
					"indexed": true,
					"internalType": "address",
					"name": "recipient",
					"type": "address"
				},
				{
					"indexed": false,
					"internalType": "uint256",
					"name": "amount",
					"type": "uint256"
				}
			],
			"name": "DepositCancelled",
			"type": "event"
		},
		{
			"anonymous": false,
			"inputs": [
				{
					"indexed": true,
					"internalType": "address",
					"name": "user",
					"type": "address"
				},
				{
					"indexed": false,
					"internalType": "uint256",
					"name": "depositId",
					"type": "uint256"
				},
				{
					"indexed": false,
					"internalType": "uint256",
					"name": "amount",
					"type": "uint256"
				},
				{
					"indexed": false,
					"internalType": "uint256",
					"name": "lockMonths",
					"type": "uint256"
				},
				{
					"indexed": false,
					"internalType": "uint256",
					"name": "unlockMonthIndex",
					"type": "uint256"
				}
			],
			"name": "DepositCreated",
			"type": "event"
		},
		{
			"anonymous": false,
			"inputs": [
				{
					"indexed": false,
					"internalType": "uint256",
					"name": "rateBps",
					"type": "uint256"
				}
			],
			"name": "GlobalRateUpdated",
			"type": "event"
		},
		{
			"anonymous": false,
			"inputs": [
				{
					"indexed": true,
					"internalType": "uint256",
					"name": "monthIndex",
					"type": "uint256"
				},
				{
					"indexed": false,
					"internalType": "uint256",
					"name": "start",
					"type": "uint256"
				},
				{
					"indexed": false,
					"internalType": "uint256",
					"name": "end",
					"type": "uint256"
				},
				{
					"indexed": false,
					"internalType": "uint256",
					"name": "rateBps",
					"type": "uint256"
				}
			],
			"name": "MonthAdded",
			"type": "event"
		},
		{
			"anonymous": false,
			"inputs": [
				{
					"indexed": false,
					"internalType": "uint256",
					"name": "lengthAfterDeletion",
					"type": "uint256"
				}
			],
			"name": "MonthDeleted",
			"type": "event"
		},
		{
			"anonymous": false,
			"inputs": [
				{
					"indexed": true,
					"internalType": "uint256",
					"name": "monthIndex",
					"type": "uint256"
				},
				{
					"indexed": false,
					"internalType": "uint256",
					"name": "start",
					"type": "uint256"
				},
				{
					"indexed": false,
					"internalType": "uint256",
					"name": "end",
					"type": "uint256"
				},
				{
					"indexed": false,
					"internalType": "uint256",
					"name": "rateBps",
					"type": "uint256"
				}
			],
			"name": "MonthEdited",
			"type": "event"
		},
		{
			"anonymous": false,
			"inputs": [
				{
					"indexed": false,
					"internalType": "uint256",
					"name": "startIndex",
					"type": "uint256"
				},
				{
					"indexed": false,
					"internalType": "uint256",
					"name": "endIndex",
					"type": "uint256"
				}
			],
			"name": "MonthsBatchAdded",
			"type": "event"
		},
		{
			"anonymous": false,
			"inputs": [
				{
					"indexed": true,
					"internalType": "address",
					"name": "user",
					"type": "address"
				},
				{
					"indexed": false,
					"internalType": "uint256",
					"name": "depositId",
					"type": "uint256"
				},
				{
					"indexed": false,
					"internalType": "uint256",
					"name": "amount",
					"type": "uint256"
				}
			],
			"name": "PrincipalWithdrawn",
			"type": "event"
		},
		{
			"anonymous": false,
			"inputs": [
				{
					"indexed": true,
					"internalType": "address",
					"name": "user",
					"type": "address"
				},
				{
					"indexed": false,
					"internalType": "uint256",
					"name": "depositId",
					"type": "uint256"
				},
				{
					"indexed": false,
					"internalType": "uint256",
					"name": "reward",
					"type": "uint256"
				}
			],
			"name": "RewardsWithdrawn",
			"type": "event"
		},
		{
			"anonymous": false,
			"inputs": [
				{
					"indexed": true,
					"internalType": "address",
					"name": "user",
					"type": "address"
				},
				{
					"indexed": false,
					"internalType": "uint256",
					"name": "depositId",
					"type": "uint256"
				},
				{
					"indexed": false,
					"internalType": "uint256",
					"name": "amount",
					"type": "uint256"
				},
				{
					"indexed": false,
					"internalType": "uint256",
					"name": "savedReward",
					"type": "uint256"
				}
			],
			"name": "SafeDeposit",
			"type": "event"
		},
		{
			"anonymous": false,
			"inputs": [
				{
					"indexed": true,
					"internalType": "address",
					"name": "user",
					"type": "address"
				},
				{
					"indexed": false,
					"internalType": "uint256",
					"name": "depositId",
					"type": "uint256"
				},
				{
					"indexed": false,
					"internalType": "uint256",
					"name": "reward",
					"type": "uint256"
				}
			],
			"name": "SavedRewardClaimed",
			"type": "event"
		},
		{
			"inputs": [
				{
					"internalType": "uint256",
					"name": "",
					"type": "uint256"
				}
			],
			"name": "activeDeposits",
			"outputs": [
				{
					"internalType": "uint256",
					"name": "",
					"type": "uint256"
				}
			],
			"stateMutability": "view",
			"type": "function"
		},
		{
			"inputs": [],
			"name": "activeDepositsCount",
			"outputs": [
				{
					"internalType": "uint256",
					"name": "",
					"type": "uint256"
				}
			],
			"stateMutability": "view",
			"type": "function"
		},
		{
			"inputs": [
				{
					"internalType": "uint256",
					"name": "",
					"type": "uint256"
				}
			],
			"name": "activeDepositsIndex",
			"outputs": [
				{
					"internalType": "uint256",
					"name": "",
					"type": "uint256"
				}
			],
			"stateMutability": "view",
			"type": "function"
		},
		{
			"inputs": [
				{
					"internalType": "uint256",
					"name": "start",
					"type": "uint256"
				},
				{
					"internalType": "uint256",
					"name": "end",
					"type": "uint256"
				},
				{
					"internalType": "uint256",
					"name": "rateBps",
					"type": "uint256"
				}
			],
			"name": "addMonth",
			"outputs": [],
			"stateMutability": "nonpayable",
			"type": "function"
		},
		{
			"inputs": [
				{
					"internalType": "uint256[]",
					"name": "starts",
					"type": "uint256[]"
				},
				{
					"internalType": "uint256[]",
					"name": "ends",
					"type": "uint256[]"
				},
				{
					"internalType": "uint256[]",
					"name": "rates",
					"type": "uint256[]"
				}
			],
			"name": "addMonthsBatch",
			"outputs": [],
			"stateMutability": "nonpayable",
			"type": "function"
		},
		{
			"inputs": [
				{
					"internalType": "uint256",
					"name": "amount",
					"type": "uint256"
				}
			],
			"name": "addTokensToBank",
			"outputs": [],
			"stateMutability": "nonpayable",
			"type": "function"
		},
		{
			"inputs": [
				{
					"internalType": "uint256",
					"name": "",
					"type": "uint256"
				}
			],
			"name": "allUsers",
			"outputs": [
				{
					"internalType": "address",
					"name": "",
					"type": "address"
				}
			],
			"stateMutability": "view",
			"type": "function"
		},
		{
			"inputs": [],
			"name": "bankAmount",
			"outputs": [
				{
					"internalType": "uint256",
					"name": "",
					"type": "uint256"
				}
			],
			"stateMutability": "view",
			"type": "function"
		},
		{
			"inputs": [
				{
					"internalType": "uint256",
					"name": "",
					"type": "uint256"
				}
			],
			"name": "byOracle",
			"outputs": [
				{
					"internalType": "bool",
					"name": "",
					"type": "bool"
				}
			],
			"stateMutability": "view",
			"type": "function"
		},
		{
			"inputs": [
				{
					"internalType": "uint256",
					"name": "depositId",
					"type": "uint256"
				}
			],
			"name": "calculatePendingRewardForDeposit",
			"outputs": [
				{
					"internalType": "uint256",
					"name": "",
					"type": "uint256"
				}
			],
			"stateMutability": "view",
			"type": "function"
		},
		{
			"inputs": [
				{
					"internalType": "uint256",
					"name": "amount",
					"type": "uint256"
				},
				{
					"internalType": "uint256",
					"name": "startMonthIdx",
					"type": "uint256"
				},
				{
					"internalType": "uint256",
					"name": "lockMonths",
					"type": "uint256"
				},
				{
					"internalType": "uint256",
					"name": "depositStart",
					"type": "uint256"
				}
			],
			"name": "calculateReward",
			"outputs": [
				{
					"internalType": "uint256",
					"name": "",
					"type": "uint256"
				}
			],
			"stateMutability": "view",
			"type": "function"
		},
		{
			"inputs": [
				{
					"internalType": "uint256",
					"name": "amount",
					"type": "uint256"
				},
				{
					"internalType": "uint256",
					"name": "lockMonths",
					"type": "uint256"
				},
				{
					"internalType": "uint256",
					"name": "depositStart",
					"type": "uint256"
				}
			],
			"name": "calculateRewardByMonths",
			"outputs": [
				{
					"internalType": "uint256",
					"name": "",
					"type": "uint256"
				}
			],
			"stateMutability": "view",
			"type": "function"
		},
		{
			"inputs": [
				{
					"internalType": "uint256",
					"name": "depositId",
					"type": "uint256"
				}
			],
			"name": "cancelDeposit",
			"outputs": [],
			"stateMutability": "nonpayable",
			"type": "function"
		},
		{
			"inputs": [
				{
					"internalType": "uint256",
					"name": "amount",
					"type": "uint256"
				},
				{
					"internalType": "uint256",
					"name": "lockMonths",
					"type": "uint256"
				}
			],
			"name": "createDeposit",
			"outputs": [],
			"stateMutability": "nonpayable",
			"type": "function"
		},
		{
			"inputs": [
				{
					"internalType": "address",
					"name": "user",
					"type": "address"
				},
				{
					"internalType": "uint256",
					"name": "amount",
					"type": "uint256"
				},
				{
					"internalType": "uint256",
					"name": "lockMonths",
					"type": "uint256"
				},
				{
					"internalType": "bool",
					"name": "ownRate",
					"type": "bool"
				},
				{
					"internalType": "uint256",
					"name": "rate",
					"type": "uint256"
				}
			],
			"name": "createDepositFor",
			"outputs": [],
			"stateMutability": "nonpayable",
			"type": "function"
		},
		{
			"inputs": [],
			"name": "deleteLastMonth",
			"outputs": [],
			"stateMutability": "nonpayable",
			"type": "function"
		},
		{
			"inputs": [
				{
					"internalType": "uint256",
					"name": "",
					"type": "uint256"
				}
			],
			"name": "deposits",
			"outputs": [
				{
					"internalType": "uint256",
					"name": "depositId",
					"type": "uint256"
				},
				{
					"internalType": "address",
					"name": "owner",
					"type": "address"
				},
				{
					"internalType": "uint256",
					"name": "amount",
					"type": "uint256"
				},
				{
					"internalType": "uint256",
					"name": "monthIndex",
					"type": "uint256"
				},
				{
					"internalType": "uint256",
					"name": "depositStart",
					"type": "uint256"
				},
				{
					"internalType": "uint256",
					"name": "depositClosed",
					"type": "uint256"
				},
				{
					"internalType": "uint256",
					"name": "unlockMonthIndex",
					"type": "uint256"
				},
				{
					"internalType": "uint256",
					"name": "lastAccruedMonthIdx",
					"type": "uint256"
				},
				{
					"internalType": "uint256",
					"name": "pendingReward",
					"type": "uint256"
				},
				{
					"internalType": "bool",
					"name": "active",
					"type": "bool"
				},
				{
					"internalType": "bool",
					"name": "isSaved",
					"type": "bool"
				},
				{
					"internalType": "uint256",
					"name": "savedReward",
					"type": "uint256"
				},
				{
					"internalType": "bool",
					"name": "ownRate",
					"type": "bool"
				},
				{
					"internalType": "uint256",
					"name": "rate",
					"type": "uint256"
				}
			],
			"stateMutability": "view",
			"type": "function"
		},
		{
			"inputs": [],
			"name": "depositsAmount",
			"outputs": [
				{
					"internalType": "uint256",
					"name": "",
					"type": "uint256"
				}
			],
			"stateMutability": "view",
			"type": "function"
		},
		{
			"inputs": [
				{
					"internalType": "uint256",
					"name": "idx",
					"type": "uint256"
				},
				{
					"internalType": "uint256",
					"name": "start",
					"type": "uint256"
				},
				{
					"internalType": "uint256",
					"name": "end",
					"type": "uint256"
				},
				{
					"internalType": "uint256",
					"name": "rateBps",
					"type": "uint256"
				}
			],
			"name": "editMonth",
			"outputs": [],
			"stateMutability": "nonpayable",
			"type": "function"
		},
		{
			"inputs": [],
			"name": "estimateRequiredBankReserve",
			"outputs": [
				{
					"internalType": "uint256",
					"name": "estimatedMonthlyRewards",
					"type": "uint256"
				}
			],
			"stateMutability": "view",
			"type": "function"
		},
		{
			"inputs": [],
			"name": "estimateRequiredBankReservePrecise",
			"outputs": [
				{
					"internalType": "uint256",
					"name": "",
					"type": "uint256"
				}
			],
			"stateMutability": "view",
			"type": "function"
		},
		{
			"inputs": [
				{
					"internalType": "uint256",
					"name": "_offset",
					"type": "uint256"
				},
				{
					"internalType": "uint256",
					"name": "_limit",
					"type": "uint256"
				}
			],
			"name": "getActiveDeposits",
			"outputs": [
				{
					"components": [
						{
							"internalType": "uint256",
							"name": "depositId",
							"type": "uint256"
						},
						{
							"internalType": "address",
							"name": "owner",
							"type": "address"
						},
						{
							"internalType": "uint256",
							"name": "amount",
							"type": "uint256"
						},
						{
							"internalType": "uint256",
							"name": "monthIndex",
							"type": "uint256"
						},
						{
							"internalType": "uint256",
							"name": "depositStart",
							"type": "uint256"
						},
						{
							"internalType": "uint256",
							"name": "depositClosed",
							"type": "uint256"
						},
						{
							"internalType": "uint256",
							"name": "unlockMonthIndex",
							"type": "uint256"
						},
						{
							"internalType": "uint256",
							"name": "lastAccruedMonthIdx",
							"type": "uint256"
						},
						{
							"internalType": "uint256",
							"name": "pendingReward",
							"type": "uint256"
						},
						{
							"internalType": "bool",
							"name": "active",
							"type": "bool"
						},
						{
							"internalType": "bool",
							"name": "isSaved",
							"type": "bool"
						},
						{
							"internalType": "uint256",
							"name": "savedReward",
							"type": "uint256"
						},
						{
							"internalType": "bool",
							"name": "ownRate",
							"type": "bool"
						},
						{
							"internalType": "uint256",
							"name": "rate",
							"type": "uint256"
						}
					],
					"internalType": "struct GGWStake.Deposit[]",
					"name": "ret",
					"type": "tuple[]"
				}
			],
			"stateMutability": "view",
			"type": "function"
		},
		{
			"inputs": [],
			"name": "getActiveDepositsCount",
			"outputs": [
				{
					"internalType": "uint256",
					"name": "",
					"type": "uint256"
				}
			],
			"stateMutability": "view",
			"type": "function"
		},
		{
			"inputs": [],
			"name": "getAllUsers",
			"outputs": [
				{
					"internalType": "address[]",
					"name": "",
					"type": "address[]"
				}
			],
			"stateMutability": "view",
			"type": "function"
		},
		{
			"inputs": [
				{
					"internalType": "uint256",
					"name": "depositId",
					"type": "uint256"
				}
			],
			"name": "getDepositById",
			"outputs": [
				{
					"components": [
						{
							"internalType": "uint256",
							"name": "depositId",
							"type": "uint256"
						},
						{
							"internalType": "address",
							"name": "owner",
							"type": "address"
						},
						{
							"internalType": "uint256",
							"name": "amount",
							"type": "uint256"
						},
						{
							"internalType": "uint256",
							"name": "monthIndex",
							"type": "uint256"
						},
						{
							"internalType": "uint256",
							"name": "depositStart",
							"type": "uint256"
						},
						{
							"internalType": "uint256",
							"name": "depositClosed",
							"type": "uint256"
						},
						{
							"internalType": "uint256",
							"name": "unlockMonthIndex",
							"type": "uint256"
						},
						{
							"internalType": "uint256",
							"name": "lastAccruedMonthIdx",
							"type": "uint256"
						},
						{
							"internalType": "uint256",
							"name": "pendingReward",
							"type": "uint256"
						},
						{
							"internalType": "bool",
							"name": "active",
							"type": "bool"
						},
						{
							"internalType": "bool",
							"name": "isSaved",
							"type": "bool"
						},
						{
							"internalType": "uint256",
							"name": "savedReward",
							"type": "uint256"
						},
						{
							"internalType": "bool",
							"name": "ownRate",
							"type": "bool"
						},
						{
							"internalType": "uint256",
							"name": "rate",
							"type": "uint256"
						}
					],
					"internalType": "struct GGWStake.Deposit",
					"name": "ret",
					"type": "tuple"
				}
			],
			"stateMutability": "view",
			"type": "function"
		},
		{
			"inputs": [
				{
					"internalType": "uint256",
					"name": "_offset",
					"type": "uint256"
				},
				{
					"internalType": "uint256",
					"name": "_limit",
					"type": "uint256"
				}
			],
			"name": "getDeposits",
			"outputs": [
				{
					"components": [
						{
							"internalType": "uint256",
							"name": "depositId",
							"type": "uint256"
						},
						{
							"internalType": "address",
							"name": "owner",
							"type": "address"
						},
						{
							"internalType": "uint256",
							"name": "amount",
							"type": "uint256"
						},
						{
							"internalType": "uint256",
							"name": "monthIndex",
							"type": "uint256"
						},
						{
							"internalType": "uint256",
							"name": "depositStart",
							"type": "uint256"
						},
						{
							"internalType": "uint256",
							"name": "depositClosed",
							"type": "uint256"
						},
						{
							"internalType": "uint256",
							"name": "unlockMonthIndex",
							"type": "uint256"
						},
						{
							"internalType": "uint256",
							"name": "lastAccruedMonthIdx",
							"type": "uint256"
						},
						{
							"internalType": "uint256",
							"name": "pendingReward",
							"type": "uint256"
						},
						{
							"internalType": "bool",
							"name": "active",
							"type": "bool"
						},
						{
							"internalType": "bool",
							"name": "isSaved",
							"type": "bool"
						},
						{
							"internalType": "uint256",
							"name": "savedReward",
							"type": "uint256"
						},
						{
							"internalType": "bool",
							"name": "ownRate",
							"type": "bool"
						},
						{
							"internalType": "uint256",
							"name": "rate",
							"type": "uint256"
						}
					],
					"internalType": "struct GGWStake.Deposit[]",
					"name": "ret",
					"type": "tuple[]"
				}
			],
			"stateMutability": "view",
			"type": "function"
		},
		{
			"inputs": [
				{
					"internalType": "uint256",
					"name": "depositId",
					"type": "uint256"
				}
			],
			"name": "getSavedReward",
			"outputs": [],
			"stateMutability": "nonpayable",
			"type": "function"
		},
		{
			"inputs": [],
			"name": "getTotalDeposits",
			"outputs": [
				{
					"internalType": "uint256",
					"name": "",
					"type": "uint256"
				}
			],
			"stateMutability": "view",
			"type": "function"
		},
		{
			"inputs": [],
			"name": "getTotalUsers",
			"outputs": [
				{
					"internalType": "uint256",
					"name": "",
					"type": "uint256"
				}
			],
			"stateMutability": "view",
			"type": "function"
		},
		{
			"inputs": [
				{
					"internalType": "address",
					"name": "user",
					"type": "address"
				},
				{
					"internalType": "uint256",
					"name": "_offset",
					"type": "uint256"
				},
				{
					"internalType": "uint256",
					"name": "_limit",
					"type": "uint256"
				}
			],
			"name": "getUserDeposits",
			"outputs": [
				{
					"components": [
						{
							"internalType": "uint256",
							"name": "depositId",
							"type": "uint256"
						},
						{
							"internalType": "address",
							"name": "owner",
							"type": "address"
						},
						{
							"internalType": "uint256",
							"name": "amount",
							"type": "uint256"
						},
						{
							"internalType": "uint256",
							"name": "monthIndex",
							"type": "uint256"
						},
						{
							"internalType": "uint256",
							"name": "depositStart",
							"type": "uint256"
						},
						{
							"internalType": "uint256",
							"name": "depositClosed",
							"type": "uint256"
						},
						{
							"internalType": "uint256",
							"name": "unlockMonthIndex",
							"type": "uint256"
						},
						{
							"internalType": "uint256",
							"name": "lastAccruedMonthIdx",
							"type": "uint256"
						},
						{
							"internalType": "uint256",
							"name": "pendingReward",
							"type": "uint256"
						},
						{
							"internalType": "bool",
							"name": "active",
							"type": "bool"
						},
						{
							"internalType": "bool",
							"name": "isSaved",
							"type": "bool"
						},
						{
							"internalType": "uint256",
							"name": "savedReward",
							"type": "uint256"
						},
						{
							"internalType": "bool",
							"name": "ownRate",
							"type": "bool"
						},
						{
							"internalType": "uint256",
							"name": "rate",
							"type": "uint256"
						}
					],
					"internalType": "struct GGWStake.Deposit[]",
					"name": "ret",
					"type": "tuple[]"
				}
			],
			"stateMutability": "view",
			"type": "function"
		},
		{
			"inputs": [
				{
					"internalType": "address",
					"name": "user",
					"type": "address"
				}
			],
			"name": "getUserDepositsCount",
			"outputs": [
				{
					"internalType": "uint256",
					"name": "",
					"type": "uint256"
				}
			],
			"stateMutability": "view",
			"type": "function"
		},
		{
			"inputs": [
				{
					"internalType": "address",
					"name": "user",
					"type": "address"
				}
			],
			"name": "getUserDepositsIds",
			"outputs": [
				{
					"internalType": "uint256[]",
					"name": "",
					"type": "uint256[]"
				}
			],
			"stateMutability": "view",
			"type": "function"
		},
		{
			"inputs": [
				{
					"internalType": "uint256",
					"name": "_offset",
					"type": "uint256"
				},
				{
					"internalType": "uint256",
					"name": "_limit",
					"type": "uint256"
				}
			],
			"name": "getUsers",
			"outputs": [
				{
					"internalType": "address[]",
					"name": "ret",
					"type": "address[]"
				}
			],
			"stateMutability": "view",
			"type": "function"
		},
		{
			"inputs": [],
			"name": "getUsersCount",
			"outputs": [
				{
					"internalType": "uint256",
					"name": "",
					"type": "uint256"
				}
			],
			"stateMutability": "view",
			"type": "function"
		},
		{
			"inputs": [],
			"name": "globalRateBps",
			"outputs": [
				{
					"internalType": "uint256",
					"name": "",
					"type": "uint256"
				}
			],
			"stateMutability": "view",
			"type": "function"
		},
		{
			"inputs": [
				{
					"internalType": "address",
					"name": "",
					"type": "address"
				}
			],
			"name": "isUser",
			"outputs": [
				{
					"internalType": "bool",
					"name": "",
					"type": "bool"
				}
			],
			"stateMutability": "view",
			"type": "function"
		},
		{
			"inputs": [],
			"name": "lastKnownMonthIndex",
			"outputs": [
				{
					"internalType": "uint256",
					"name": "",
					"type": "uint256"
				}
			],
			"stateMutability": "view",
			"type": "function"
		},
		{
			"inputs": [],
			"name": "minLockAmount",
			"outputs": [
				{
					"internalType": "uint256",
					"name": "",
					"type": "uint256"
				}
			],
			"stateMutability": "view",
			"type": "function"
		},
		{
			"inputs": [],
			"name": "minLockMonths",
			"outputs": [
				{
					"internalType": "uint256",
					"name": "",
					"type": "uint256"
				}
			],
			"stateMutability": "view",
			"type": "function"
		},
		{
			"inputs": [
				{
					"internalType": "uint256",
					"name": "",
					"type": "uint256"
				}
			],
			"name": "monthDepositsAmount",
			"outputs": [
				{
					"internalType": "uint256",
					"name": "",
					"type": "uint256"
				}
			],
			"stateMutability": "view",
			"type": "function"
		},
		{
			"inputs": [
				{
					"internalType": "uint256",
					"name": "",
					"type": "uint256"
				}
			],
			"name": "monthDepositsCount",
			"outputs": [
				{
					"internalType": "uint256",
					"name": "",
					"type": "uint256"
				}
			],
			"stateMutability": "view",
			"type": "function"
		},
		{
			"inputs": [
				{
					"internalType": "uint256",
					"name": "",
					"type": "uint256"
				}
			],
			"name": "monthRewardsAmount",
			"outputs": [
				{
					"internalType": "uint256",
					"name": "",
					"type": "uint256"
				}
			],
			"stateMutability": "view",
			"type": "function"
		},
		{
			"inputs": [
				{
					"internalType": "uint256",
					"name": "",
					"type": "uint256"
				}
			],
			"name": "months",
			"outputs": [
				{
					"internalType": "uint256",
					"name": "start",
					"type": "uint256"
				},
				{
					"internalType": "uint256",
					"name": "end",
					"type": "uint256"
				},
				{
					"internalType": "uint256",
					"name": "rateBps",
					"type": "uint256"
				}
			],
			"stateMutability": "view",
			"type": "function"
		},
		{
			"inputs": [],
			"name": "oracle",
			"outputs": [
				{
					"internalType": "address",
					"name": "",
					"type": "address"
				}
			],
			"stateMutability": "view",
			"type": "function"
		},
		{
			"inputs": [],
			"name": "owner",
			"outputs": [
				{
					"internalType": "address",
					"name": "",
					"type": "address"
				}
			],
			"stateMutability": "view",
			"type": "function"
		},
		{
			"inputs": [
				{
					"internalType": "address",
					"name": "token",
					"type": "address"
				},
				{
					"internalType": "uint256",
					"name": "amount",
					"type": "uint256"
				}
			],
			"name": "recoverToken",
			"outputs": [],
			"stateMutability": "nonpayable",
			"type": "function"
		},
		{
			"inputs": [],
			"name": "rewardsPayed",
			"outputs": [
				{
					"internalType": "uint256",
					"name": "",
					"type": "uint256"
				}
			],
			"stateMutability": "view",
			"type": "function"
		},
		{
			"inputs": [
				{
					"internalType": "uint256",
					"name": "depositId",
					"type": "uint256"
				}
			],
			"name": "safeDeposit",
			"outputs": [],
			"stateMutability": "nonpayable",
			"type": "function"
		},
		{
			"inputs": [
				{
					"internalType": "uint256",
					"name": "_rateBps",
					"type": "uint256"
				}
			],
			"name": "setGlobalRateBps",
			"outputs": [],
			"stateMutability": "nonpayable",
			"type": "function"
		},
		{
			"inputs": [
				{
					"internalType": "uint256",
					"name": "newMinLockAmount",
					"type": "uint256"
				}
			],
			"name": "setMinLockAmount",
			"outputs": [],
			"stateMutability": "nonpayable",
			"type": "function"
		},
		{
			"inputs": [
				{
					"internalType": "uint256",
					"name": "newMinLockMonths",
					"type": "uint256"
				}
			],
			"name": "setMinLockMonths",
			"outputs": [],
			"stateMutability": "nonpayable",
			"type": "function"
		},
		{
			"inputs": [
				{
					"internalType": "address",
					"name": "newOracle",
					"type": "address"
				}
			],
			"name": "setOracle",
			"outputs": [],
			"stateMutability": "nonpayable",
			"type": "function"
		},
		{
			"inputs": [],
			"name": "stakingToken",
			"outputs": [
				{
					"internalType": "contract IERC20",
					"name": "",
					"type": "address"
				}
			],
			"stateMutability": "view",
			"type": "function"
		},
		{
			"inputs": [
				{
					"internalType": "address",
					"name": "newOwner",
					"type": "address"
				}
			],
			"name": "transferOwnership",
			"outputs": [],
			"stateMutability": "nonpayable",
			"type": "function"
		},
		{
			"inputs": [
				{
					"internalType": "address",
					"name": "",
					"type": "address"
				},
				{
					"internalType": "uint256",
					"name": "",
					"type": "uint256"
				}
			],
			"name": "userDeposits",
			"outputs": [
				{
					"internalType": "uint256",
					"name": "",
					"type": "uint256"
				}
			],
			"stateMutability": "view",
			"type": "function"
		},
		{
			"inputs": [
				{
					"internalType": "uint256",
					"name": "amount",
					"type": "uint256"
				}
			],
			"name": "withdrawBank",
			"outputs": [],
			"stateMutability": "nonpayable",
			"type": "function"
		},
		{
			"inputs": [
				{
					"internalType": "uint256",
					"name": "depositId",
					"type": "uint256"
				}
			],
			"name": "withdrawPrincipalAndRewards",
			"outputs": [],
			"stateMutability": "nonpayable",
			"type": "function"
		},
		{
			"inputs": [
				{
					"internalType": "uint256",
					"name": "depositId",
					"type": "uint256"
				}
			],
			"name": "withdrawRewardsOnly",
			"outputs": [],
			"stateMutability": "nonpayable",
			"type": "function"
		}
	]
}