{
	"data": {
		"bytecode": {
			"linkReferences": {},
			"object": "60a06040526001600455670de0b6b3a76400006005555f600955348015610024575f5ffd5b50604051614afc380380614afc83398101604081905261004391610109565b60015f556001600160a01b0382166100905760405162461bcd60e51b815260206004820152600b60248201526a546f6b656e3a207a65726f60a81b60448201526064015b60405180910390fd5b6127108111156100d05760405162461bcd60e51b815260206004820152600b60248201526a52617465203e203130302560a81b6044820152606401610087565b60018054336001600160a01b031991821681179092556002805490911690911790556001600160a01b0391909116608052600355610140565b5f5f6040838503121561011a575f5ffd5b82516001600160a01b0381168114610130575f5ffd5b6020939093015192949293505050565b6080516149496101b35f395f818161063501528181610ece015281816114ff015281816115870152818161160e01528181611695015281816120fa01528181612367015281816127480152818161294301528181612d3501528181612e910152818161336e015261387d01526149495ff3fe608060405234801561000f575f5ffd5b50600436106103a8575f3560e01c80638c90926f116101ea578063b42a275e11610114578063d6a13301116100a9578063f2fde38b11610079578063f2fde38b1461087e578063f4f8c84714610891578063f8799e1a1461089a578063fe4ab90a146108a3575f5ffd5b8063d6a1330114610833578063d7d43c781461085b578063dd4824a814610863578063e2842d7914610876575f5ffd5b8063ccbd0007116100e4578063ccbd0007146107fc578063d188e3ae14610805578063d37528301461080d578063d3d8344514610820575f5ffd5b8063b42a275e146107a1578063be2ff4a9146107aa578063c491eecd146107bd578063ccaac244146107dd575f5ffd5b80639d13fa011161018a578063a9783cd71161015a578063a9783cd714610746578063b02c43d01461074e578063b18e71f21461077b578063b29a81401461078e575f5ffd5b80639d13fa011461070c578063a2bdedf41461072b578063a4a1e26314610704578063a5c62cb41461073e575f5ffd5b806391ba50cd116101c557806391ba50cd146106d6578063936d4ffa146106e95780639521abc6146106f15780639be572f614610704575f5ffd5b80638c90926f146106a85780638da5cb5b146106b057806390693ca7146106c3575f5ffd5b80632ffb3d2a116102d65780634eff3d3d1161026b57806372f702f31161023b57806372f702f31461063057806372fada5c1461066f5780637adbf973146106825780637dc0d1d014610695575f5ffd5b80634eff3d3d146105d75780636241ca79146105f7578063647fc56c1461060a5780637196d3e21461061d575f5ffd5b80634209fff1116102a65780634209fff11461056f57806345982a66146105915780634698b883146105b15780634b4d7aa8146105c4575f5ffd5b80632ffb3d2a14610508578063362612361461051b5780634106ee751461053057806341aff23e14610550575f5ffd5b80631bfc77611161034c5780631fb3bd931161031c5780631fb3bd93146104b057806323b28a54146104c357806323e0ceb2146104d65780632e0e3064146104f5575f5ffd5b80631bfc7761146104275780631c5dc54c146104475780631cc39d57146104505780631d0205b814610482575f5ffd5b8063088042751161038757806308804275146103f057806308f43333146103f95780630f68ae401461040c578063168a48221461041f575f5ffd5b80620d6386146103ac57806305a163b6146103c857806306f960bb146103dd575b5f5ffd5b6103b560095481565b6040519081526020015b60405180910390f35b6103db6103d6366004614025565b6108ac565b005b6103db6103eb36600461407c565b610b3b565b6103b560055481565b6103b56104073660046140c8565b610bf0565b6103db61041a3660046140f0565b610c1b565b600a546103b5565b61043a6104353660046140f0565b610c4a565b6040516103bf91906141c8565b6103b560105481565b61047261045e3660046140f0565b600b6020525f908152604090205460ff1681565b60405190151581526020016103bf565b6104956104903660046140f0565b610d3f565b604080519384526020840192909252908201526060016103bf565b6103db6104be3660046140f0565b610d70565b6103db6104d13660046141d7565b610fc9565b6103b56104e43660046140f0565b600d6020525f908152604090205481565b6103b56105033660046140f0565b611053565b6103db610516366004614248565b6112c7565b610523611437565b6040516103bf9190614315565b61054361053e366004614421565b61170c565b6040516103bf9190614441565b6103b561055e3660046140f0565b60136020525f908152604090205481565b61047261057d36600461448f565b60076020525f908152604090205460ff1681565b6105a461059f366004614421565b611949565b6040516103bf91906144a8565b6105436105bf3660046144e8565b611a6b565b6103db6105d23660046140f0565b611d02565b6105ea6105e5366004614421565b611d31565b6040516103bf9190614518565b6103db6106053660046140f0565b611f1e565b6103db6106183660046140f0565b6121d1565b6103b561062b366004614025565b612455565b6106577f000000000000000000000000000000000000000000000000000000000000000081565b6040516001600160a01b0390911681526020016103bf565b6103db61067d3660046140f0565b6125ee565b6103db61069036600461448f565b612828565b600254610657906001600160a01b031681565b6103b5612874565b600154610657906001600160a01b031681565b6103b56106d13660046140f0565b61289c565b6103db6106e43660046140f0565b6128bb565b6012546103b5565b6103db6106ff3660046140f0565b6129ea565b6006546103b5565b6103b561071a3660046140f0565b60146020525f908152604090205481565b6106576107393660046140f0565b612a71565b6103b5612a99565b6103db612b1a565b61076161075c3660046140f0565b612c58565b6040516103bf9e9d9c9b9a99989796959493929190614593565b6103db610789366004614421565b612ce6565b6103db61079c3660046140c8565b612d09565b6103b560115481565b6103db6107b83660046140f0565b612e29565b6107d06107cb36600461448f565b612f45565b6040516103bf919061461e565b6103b56107eb3660046140f0565b60156020525f908152604090205481565b6103b5600e5481565b6103b5612fae565b61054361081b366004614421565b612ff9565b6103db61082e3660046140f0565b613200565b6103b561084136600461448f565b6001600160a01b03165f9081526008602052604090205490565b600c546103b5565b6103b56108713660046141d7565b61343f565b6105a46135e1565b6103db61088c36600461448f565b613641565b6103b560035481565b6103b560045481565b6103b5600f5481565b6001546001600160a01b031633146108df5760405162461bcd60e51b81526004016108d690614655565b60405180910390fd5b601254841061091c5760405162461bcd60e51b815260206004820152600960248201526824b73232bc1027a7a160b91b60448201526064016108d6565b81831061095b5760405162461bcd60e51b815260206004820152600d60248201526c496e76616c69642072616e676560981b60448201526064016108d6565b8015610983576127108111156109835760405162461bcd60e51b81526004016108d690614679565b4283116109bc5760405162461bcd60e51b815260206004820152600760248201526614dd185c9d195960ca1b60448201526064016108d6565b8315610a245760126109cf6001866146b2565b815481106109df576109df6146c5565b905f5260205f20906003020160010154831015610a245760405162461bcd60e51b815260206004820152600360248201526253657160e81b60448201526064016108d6565b601254610a328560016146d9565b1015610a9d576012610a458560016146d9565b81548110610a5557610a556146c5565b905f5260205f2090600302015f0154821115610a9d5760405162461bcd60e51b815260206004820152600760248201526604f7665726c61760cc1b60448201526064016108d6565b60405180606001604052808481526020018381526020018281525060128581548110610acb57610acb6146c5565b5f9182526020918290208351600390920201908155828201516001820155604092830151600290910155815185815290810184905290810182905284907f68f039af08c3a62dae4b7e4244543803dce43c9c5a2ad9ef05fea8366f4c86239060600160405180910390a250505050565b610b436136b3565b6001546001600160a01b0316331480610b6657506002546001600160a01b031633145b610ba95760405162461bcd60e51b81526020600482015260146024820152734f6e6c79206f776e6572206f72206f7261636c6560601b60448201526064016108d6565b8115610bd157612710811115610bd15760405162461bcd60e51b81526004016108d690614679565b610be0858585858560016136db565b610be960015f55565b5050505050565b6008602052815f5260405f208181548110610c09575f80fd5b905f5260205f20015f91509150505481565b6001546001600160a01b03163314610c455760405162461bcd60e51b81526004016108d690614655565b600555565b610c52613fb5565b600a8281548110610c6557610c656146c5565b5f918252602091829020604080516101c081018252600d9093029091018054835260018101546001600160a01b0316938301939093526002830154908201526003820154606082015260048201546080820152600582015460a0820152600682015460c0820152600782015460e0820152600882015461010080830191909152600983015460ff808216151561012085015291900481161515610140830152600a830154610160830152600b830154161515610180820152600c909101546101a08201529050610d3482611053565b610100820152919050565b60128181548110610d4e575f80fd5b5f91825260209091206003909102018054600182015460029092015490925083565b610d786136b3565b5f600a8281548110610d8c57610d8c6146c5565b5f9182526020909120600d90910201600981015490915060ff1615610ddf5760405162461bcd60e51b815260206004820152600960248201526849732061637469766560b81b60448201526064016108d6565b60018101546001600160a01b03163314610e0b5760405162461bcd60e51b81526004016108d6906146ec565b6009810154610100900460ff16610e505760405162461bcd60e51b8152602060048201526009602482015268139bdd081cd85d995960ba1b60448201526064016108d6565b80600a01546011541015610e765760405162461bcd60e51b81526004016108d69061470f565b5f81600a015490508060115f828254610e8f91906146b2565b925050819055508060105f828254610ea791906146d9565b90915550508015610f5c5760405163a9059cbb60e01b8152336004820152602481018290527f00000000000000000000000000000000000000000000000000000000000000006001600160a01b03169063a9059cbb906044016020604051808303815f875af1158015610f1c573d5f5f3e3d5ffd5b505050506040513d601f19601f82011682018060405250810190610f409190614733565b610f5c5760405162461bcd60e51b81526004016108d69061474e565b60098201805461ff00191690555f600a8301556001820154825460408051918252602082018490526001600160a01b03909216917f89944602fcc483994090377f9abd25a68ee71ae7ef66db82411cc0739ab35cd8910160405180910390a25050610fc660015f55565b50565b6001546001600160a01b03163314610ff35760405162461bcd60e51b81526004016108d690614655565b610ffe838383613c97565b60125461100d906001906146b2565b60408051858152602081018590529081018390527f901d51af3f40466612c7be89ba349f0b5aa321186bb4de023367f1ca25acdced9060600160405180910390a2505050565b5f5f600a8381548110611068576110686146c5565b5f918252602091829020604080516101c081018252600d9093029091018054835260018101546001600160a01b0316938301939093526002830154908201526003820154606082015260048201546080820152600582015460a0820152600682015460c0820152600782015460e0820152600882015461010080830191909152600983015460ff80821615156101208501529190048116158015610140840152600a840154610160840152600b8401549091161515610180830152600c909201546101a0820152915061114057610160015192915050565b604081015115806111545750806101200151155b1561116157505f92915050565b60e08101515f6111718282613e0d565b905081811161118457505f949350505050565b60408301515f90835b838110156112bb575f601282815481106111a9576111a96146c5565b905f5260205f2090600302016040518060600160405290815f82015481526020016001820154815260200160028201548152505090505f8761018001516111f8576111f383613e5b565b6111ff565b876101a001515b90505f61271061120f8387614777565b611219919061478e565b9050886060015184036112a257825160208401515f61123883836146b2565b90505f838d608001511161124c5783611252565b8c608001515b9050828082106112695750505050505050506112b3565b5f61127483836146b2565b9050836112818289614777565b61128b919061478e565b611295908d6146d9565b9b505050505050506112af565b6112ac81876146d9565b95505b5050505b60010161118d565b50909695505050505050565b6001546001600160a01b031633146112f15760405162461bcd60e51b81526004016108d690614655565b84831480156112ff57508481145b61133d5760405162461bcd60e51b815260206004820152600f60248201526e098cadccee8d040dad2e6dac2e8c6d608b1b60448201526064016108d6565b846113725760405162461bcd60e51b8152602060048201526005602482015264456d70747960d81b60448201526064016108d6565b5f5b858110156113d7576113cf878783818110611391576113916146c5565b905060200201358686848181106113aa576113aa6146c5565b905060200201358585858181106113c3576113c36146c5565b90506020020135613c97565b600101611374565b506012547fab080e234ebab87937f1d48c107ecb8ab6361d9012a0670705e920b9cffe1011906114089087906146b2565b601254611417906001906146b2565b6040805192835260208301919091520160405180910390a1505050505050565b6114bb6040518061022001604052805f81526020015f81526020015f81526020015f81526020015f81526020015f81526020015f60ff16815260200160608152602001606081526020015f6001600160a01b031681526020015f81526020015f81526020015f81526020015f81526020015f81526020015f81526020015f81525090565b6040518061022001604052806006805490508152602001600e548152602001600a805490508152602001600f548152602001601054815260200160115481526020017f00000000000000000000000000000000000000000000000000000000000000006001600160a01b031663313ce5676040518163ffffffff1660e01b8152600401602060405180830381865afa158015611559573d5f5f3e3d5ffd5b505050506040513d601f19601f8201168201806040525081019061157d91906147ad565b60ff1681526020017f00000000000000000000000000000000000000000000000000000000000000006001600160a01b03166306fdde036040518163ffffffff1660e01b81526004015f60405180830381865afa1580156115e0573d5f5f3e3d5ffd5b505050506040513d5f823e601f3d908101601f1916820160405261160791908101906147e1565b81526020017f00000000000000000000000000000000000000000000000000000000000000006001600160a01b03166395d89b416040518163ffffffff1660e01b81526004015f60405180830381865afa158015611667573d5f5f3e3d5ffd5b505050506040513d5f823e601f3d908101601f1916820160405261168e91908101906147e1565b81526020017f00000000000000000000000000000000000000000000000000000000000000006001600160a01b031681526020016003548152602001600454815260200160055481526020016116e2612874565b81526020016116ef612fae565b81526020016116fc612a99565b8152601254602090910152919050565b6060815f0361171b57600c5491505b5f61172683856146d9565b600c549091508411156117395750611943565b600c548111156117485750600c545b61175284826146b2565b67ffffffffffffffff81111561176a5761176a6147cd565b6040519080825280602002602001820160405280156117a357816020015b611790613fb5565b8152602001906001900390816117885790505b5091505f5b6117b285836146b2565b81101561194057600a600c60018784600c805490506117d191906146b2565b6117db91906146b2565b6117e591906146b2565b815481106117f5576117f56146c5565b905f5260205f2001548154811061180e5761180e6146c5565b5f918252602091829020604080516101c081018252600d9093029091018054835260018101546001600160a01b0316938301939093526002830154908201526003820154606082015260048201546080820152600582015460a0820152600682015460c0820152600782015460e0820152600882015461010080830191909152600983015460ff808216151561012085015291900481161515610140830152600a830154610160830152600b830154161515610180820152600c909101546101a082015283518490839081106118e6576118e66146c5565b6020026020010181905250611916838281518110611906576119066146c5565b60200260200101515f0151611053565b838281518110611928576119286146c5565b602090810291909101015161010001526001016117a8565b50505b92915050565b6060815f036119585760065491505b5f61196383856146d9565b6006549091508411156119765750611943565b60065481111561198557506006545b61198f84826146b2565b67ffffffffffffffff8111156119a7576119a76147cd565b6040519080825280602002602001820160405280156119d0578160200160208202803683370190505b5091505f5b6119df85836146b2565b811015611940576006805460019087906119fa9085906146b2565b611a0491906146b2565b611a0e91906146b2565b81548110611a1e57611a1e6146c5565b905f5260205f20015f9054906101000a90046001600160a01b0316838281518110611a4b57611a4b6146c5565b6001600160a01b03909216602092830291909101909101526001016119d5565b6060815f03611a8f576001600160a01b0384165f9081526008602052604090205491505b5f611a9a83856146d9565b6001600160a01b0386165f90815260086020526040902054909150841115611ac25750611cfb565b6001600160a01b0385165f90815260086020526040902054811115611afb57506001600160a01b0384165f908152600860205260409020545b611b0584826146b2565b67ffffffffffffffff811115611b1d57611b1d6147cd565b604051908082528060200260200182016040528015611b5657816020015b611b43613fb5565b815260200190600190039081611b3b5790505b5091505f5b611b6585836146b2565b811015611cf8576001600160a01b0386165f9081526008602052604090208054600a91906001908890611b999086906146b2565b611ba391906146b2565b611bad91906146b2565b81548110611bbd57611bbd6146c5565b905f5260205f20015481548110611bd657611bd66146c5565b5f918252602091829020604080516101c081018252600d9093029091018054835260018101546001600160a01b0316938301939093526002830154908201526003820154606082015260048201546080820152600582015460a0820152600682015460c0820152600782015460e0820152600882015461010080830191909152600983015460ff808216151561012085015291900481161515610140830152600a830154610160830152600b830154161515610180820152600c909101546101a08201528351849083908110611cae57611cae6146c5565b6020026020010181905250611cce838281518110611906576119066146c5565b838281518110611ce057611ce06146c5565b60209081029190910101516101000152600101611b5b565b50505b9392505050565b6001546001600160a01b03163314611d2c5760405162461bcd60e51b81526004016108d690614655565b600455565b6060815f03611d405760125491505b5f611d4b83856146d9565b601254909150841115611d5e5750611943565b601254811115611d6d57506012545b611d7784826146b2565b67ffffffffffffffff811115611d8f57611d8f6147cd565b604051908082528060200260200182016040528015611df957816020015b611de66040518060e001604052805f81526020015f81526020015f81526020015f81526020015f81526020015f81526020015f81525090565b815260200190600190039081611dad5790505b5091505f5b611e0885836146b2565b811015611940575f60018683601280549050611e2491906146b2565b611e2e91906146b2565b611e3891906146b2565b90506040518060e0016040528082815260200160128381548110611e5e57611e5e6146c5565b905f5260205f2090600302015f0154815260200160128381548110611e8557611e856146c5565b905f5260205f20906003020160010154815260200160128381548110611ead57611ead6146c5565b5f9182526020808320600260039093020191909101548352848252601381526040808320548483015285835260148252808320548185015285835260159091529020546060909101528451859084908110611f0a57611f0a6146c5565b602090810291909101015250600101611dfe565b611f266136b3565b5f600a8281548110611f3a57611f3a6146c5565b5f9182526020909120600d90910201600981015490915060ff16611f705760405162461bcd60e51b81526004016108d690614894565b60018101546001600160a01b03163314611f9c5760405162461bcd60e51b81526004016108d6906146ec565b5f611fa5612a99565b90508160060154811015611fe45760405162461bcd60e51b8152602060048201526006602482015265131bd8dad95960d21b60448201526064016108d6565b5f611fee84611053565b90508060115410156120125760405162461bcd60e51b81526004016108d69061470f565b5f81846002015461202391906146d9565b90508360020154600f5f82825461203a91906146b2565b909155505060098401805460ff1916905542600585015560078401545f906120629082613e0d565b600786018190556009859055600e80549192505f61207f836148b6565b91905055508260115f82825461209591906146b2565b925050819055508260105f8282546120ad91906146d9565b909155506120bc905086613e99565b5f84815260156020526040812080548592906120d99084906146d9565b909155505060405163a9059cbb60e01b8152336004820152602481018390527f00000000000000000000000000000000000000000000000000000000000000006001600160a01b03169063a9059cbb906044016020604051808303815f875af1158015612148573d5f5f3e3d5ffd5b505050506040513d601f19601f8201168201806040525081019061216c9190614733565b6121885760405162461bcd60e51b81526004016108d69061474e565b604080518781526020810184905233917f217ea3989b9d3112d2133a930216f444b7fbcaeaa4d5bc0220d099fdc928e71e910160405180910390a25050505050610fc660015f55565b6121d96136b3565b5f600a82815481106121ed576121ed6146c5565b5f9182526020909120600d90910201600981015490915060ff166122235760405162461bcd60e51b81526004016108d690614894565b60018101546001600160a01b0316331461224f5760405162461bcd60e51b81526004016108d6906146ec565b5f612258612a99565b905081600601548110156122975760405162461bcd60e51b8152602060048201526006602482015265131bd8dad95960d21b60448201526064016108d6565b5f6122a184611053565b90508260020154600f5f8282546122b891906146b2565b90915550506009808401805461ffff1916610100179055600a8401829055426005850155829055600e8054905f6122ee836148b6565b91905055506122fc84613e99565b5f82815260156020526040812080548392906123199084906146d9565b925050819055508060105f82825461233191906146d9565b90915550506001830154600284015460405163a9059cbb60e01b81526001600160a01b03928316600482015260248101919091527f00000000000000000000000000000000000000000000000000000000000000009091169063a9059cbb906044016020604051808303815f875af11580156123af573d5f5f3e3d5ffd5b505050506040513d601f19601f820116820180604052508101906123d39190614733565b6123ef5760405162461bcd60e51b81526004016108d69061474e565b60018301548354600285015460408051928352602083019190915281018390526001600160a01b03909116907f2bb9e1005bd12abff0a36b08286208299f11bac0718c4590fd6f4eabd7667cf9906060015b60405180910390a2505050610fc660015f55565b5f841580612461575082155b8061246e57506012548410155b1561247a57505f6125e6565b5f61248584866146d9565b6012549091508111156124a657506012548481116124a6575f9150506125e6565b825f036124b1574292505b805f865b828110156125e0576012548110156125e0575f601282815481106124db576124db6146c5565b905f5260205f2090600302016040518060600160405290815f82015481526020016001820154815260200160028201548152505090505f61251b83613e5b565b90505f61271061252b838e614777565b612535919061478e565b90508a84036125c757825160208401515f61255083836146b2565b90505f838d116125605783612562565b8c5b9050828082106125795750505050505050506125d8565b5f61258483836146b2565b9050835f0361259b575050505050505050506125d8565b836125a68289614777565b6125b0919061478e565b6125ba908c6146d9565b9a505050505050506125d4565b6125d181866146d9565b94505b5050505b6001016124b5565b50925050505b949350505050565b6125f66136b3565b6001546001600160a01b031633146126205760405162461bcd60e51b81526004016108d690614655565b5f600a8281548110612634576126346146c5565b5f9182526020909120600d90910201600981015490915060ff1661268d5760405162461bcd60e51b815260206004820152601060248201526f4465706f73697420696e61637469766560801b60448201526064016108d6565b80545f908152600b602052604090205460ff166126ec5760405162461bcd60e51b815260206004820152601f60248201527f43616e206f6e6c792063616e63656c206f7261636c65206465706f736974730060448201526064016108d6565b60098101805460ff19169055600e8054905f612707836148b6565b91905055508060020154600f5f82825461272191906146b2565b9091555050600281015460405163a9059cbb60e01b815233600482015260248101919091527f00000000000000000000000000000000000000000000000000000000000000006001600160a01b03169063a9059cbb906044016020604051808303815f875af1158015612796573d5f5f3e3d5ffd5b505050506040513d601f19601f820116820180604052508101906127ba9190614733565b6127d65760405162461bcd60e51b81526004016108d69061474e565b8054600282015460405133927f24c9e122007bd4087408943168fbcd65248594530e482b6a9abe4484767eb0c39261281692918252602082015260400190565b60405180910390a250610fc660015f55565b6001546001600160a01b031633146128525760405162461bcd60e51b81526004016108d690614655565b600280546001600160a01b0319166001600160a01b0392909216919091179055565b5f5f600354905061271081600f5461288c9190614777565b612896919061478e565b91505090565b600c81815481106128ab575f80fd5b5f91825260209091200154905081565b6001546001600160a01b03163314806128de57506002546001600160a01b031633145b6129215760405162461bcd60e51b81526020600482015260146024820152734f6e6c79206f776e6572206f72206f7261636c6560601b60448201526064016108d6565b6040516323b872dd60e01b8152336004820152306024820152604481018290527f00000000000000000000000000000000000000000000000000000000000000006001600160a01b0316906323b872dd906064016020604051808303815f875af1158015612991573d5f5f3e3d5ffd5b505050506040513d601f19601f820116820180604052508101906129b59190614733565b6129d15760405162461bcd60e51b81526004016108d6906148cb565b8060115f8282546129e291906146d9565b909155505050565b6001546001600160a01b03163314612a145760405162461bcd60e51b81526004016108d690614655565b612710811115612a365760405162461bcd60e51b81526004016108d690614679565b60038190556040518181527f71ca8c1a2bc00717637fb3e9d048da574b351106cfcf0832e2dfe20f4e633dcf9060200160405180910390a150565b60068181548110612a80575f80fd5b5f918252602090912001546001600160a01b0316905081565b6009545f9042905b601254811015612b105760128181548110612abe57612abe6146c5565b905f5260205f2090600302015f01548210158015612afd575060128181548110612aea57612aea6146c5565b905f5260205f2090600302016001015482105b15612b085792915050565b600101612aa1565b5050601254919050565b6001546001600160a01b03163314612b445760405162461bcd60e51b81526004016108d690614655565b601254612b7c5760405162461bcd60e51b81526004016108d6906020808252600490820152634e6f6e6560e01b604082015260600190565b60128054429190612b8f906001906146b2565b81548110612b9f57612b9f6146c5565b905f5260205f2090600302015f015411612be55760405162461bcd60e51b815260206004820152600760248201526614dd185c9d195960ca1b60448201526064016108d6565b6012805480612bf657612bf66148e7565b5f8281526020812060035f1990930192830201818155600181018290556002015590556012546040517fd84ba012185e6b11c267bbf53304405446699fded2a2a85c6c6523d2cd3fd79091612c4e9190815260200190565b60405180910390a1565b600a8181548110612c67575f80fd5b5f9182526020909120600d9091020180546001820154600283015460038401546004850154600586015460068701546007880154600889015460098a0154600a8b0154600b8c0154600c909c01549a9c506001600160a01b039099169a979996989597949693959294919360ff8083169461010090930481169316908e565b612cee6136b3565b612cfc3383835f5f5f6136db565b612d0560015f55565b5050565b6001546001600160a01b03163314612d335760405162461bcd60e51b81526004016108d690614655565b7f00000000000000000000000000000000000000000000000000000000000000006001600160a01b0316826001600160a01b031603612d845760405162461bcd60e51b81526004016108d6906148cb565b60015460405163a9059cbb60e01b81526001600160a01b039182166004820152602481018390529083169063a9059cbb906044016020604051808303815f875af1158015612dd4573d5f5f3e3d5ffd5b505050506040513d601f19601f82011682018060405250810190612df89190614733565b612d055760405162461bcd60e51b8152602060048201526002602482015261229960f11b60448201526064016108d6565b6001546001600160a01b03163314612e535760405162461bcd60e51b81526004016108d690614655565b806011541015612e755760405162461bcd60e51b81526004016108d6906148cb565b60405163a9059cbb60e01b8152336004820152602481018290527f00000000000000000000000000000000000000000000000000000000000000006001600160a01b03169063a9059cbb906044016020604051808303815f875af1158015612edf573d5f5f3e3d5ffd5b505050506040513d601f19601f82011682018060405250810190612f039190614733565b612f345760405162461bcd60e51b8152602060048201526002602482015261229960f11b60448201526064016108d6565b8060115f8282546129e291906146b2565b6001600160a01b0381165f90815260086020908152604091829020805483518184028101840190945280845260609392830182828015612fa257602002820191905f5260205f20905b815481526020019060010190808311612f8e575b50505050509050919050565b5f5f612fb8612a99565b6012549091508110612fcb575f91505090565b5f612fd582613e5b565b905061271081600f54612fe89190614777565b612ff2919061478e565b9250505090565b6060815f0361300857600a5491505b5f61301383856146d9565b600a549091508411156130265750611943565b600a548111156130355750600a545b61303f84826146b2565b67ffffffffffffffff811115613057576130576147cd565b60405190808252806020026020018201604052801561309057816020015b61307d613fb5565b8152602001906001900390816130755790505b5091505f5b61309f85836146b2565b81101561194057600a805460019087906130ba9085906146b2565b6130c491906146b2565b6130ce91906146b2565b815481106130de576130de6146c5565b5f918252602091829020604080516101c081018252600d9093029091018054835260018101546001600160a01b0316938301939093526002830154908201526003820154606082015260048201546080820152600582015460a0820152600682015460c0820152600782015460e0820152600882015461010080830191909152600983015460ff808216151561012085015291900481161515610140830152600a830154610160830152600b830154161515610180820152600c909101546101a082015283518490839081106131b6576131b66146c5565b60200260200101819052506131d6838281518110611906576119066146c5565b8382815181106131e8576131e86146c5565b60209081029190910101516101000152600101613095565b6132086136b3565b5f600a828154811061321c5761321c6146c5565b5f9182526020909120600d90910201600981015490915060ff166132525760405162461bcd60e51b81526004016108d690614894565b60018101546001600160a01b0316331461327e5760405162461bcd60e51b81526004016108d6906146ec565b5f61328883611053565b90505f81116132c65760405162461bcd60e51b815260206004820152600a6024820152694e6f207265776172647360b01b60448201526064016108d6565b8060115410156132e85760405162461bcd60e51b81526004016108d69061470f565b5f6132f783600701545f613e0d565b90508083600701819055508160115f82825461331391906146b2565b925050819055508160105f82825461332b91906146d9565b90915550505f818152601560205260408120805484929061334d9084906146d9565b909155505060405163a9059cbb60e01b8152336004820152602481018390527f00000000000000000000000000000000000000000000000000000000000000006001600160a01b03169063a9059cbb906044016020604051808303815f875af11580156133bc573d5f5f3e3d5ffd5b505050506040513d601f19601f820116820180604052508101906133e09190614733565b6133fc5760405162461bcd60e51b81526004016108d69061474e565b613404612a99565b600955604080518581526020810184905233917ffa73d3ab3a92ed3f2b694757d8e4b2f3c293654b11b9c79111f8971f861b22b29101612441565b5f83158061344b575082155b1561345757505f611cfb565b815f03613462574291505b5f61346c83613f43565b6012549091508110613481575f915050611cfb565b5f61348c85836146d9565b60125490915081111561349e57506012545b8181116134af575f92505050611cfb565b5f825b828110156135d6575f601282815481106134ce576134ce6146c5565b905f5260205f2090600302016040518060600160405290815f82015481526020016001820154815260200160028201548152505090505f61350e83613e5b565b90505f61271061351e838d614777565b613528919061478e565b90508684036135bd5782515f908a11613542578351613544565b895b602085015190915080821061355d5750505050506135ce565b5f61356883836146b2565b90505f865f0151876020015161357e91906146b2565b9050805f0361359357505050505050506135ce565b8061359e8387614777565b6135a8919061478e565b6135b2908a6146d9565b9850505050506135ca565b6135c781866146d9565b94505b5050505b6001016134b2565b509695505050505050565b6060600680548060200260200160405190810160405280929190818152602001828054801561363757602002820191905f5260205f20905b81546001600160a01b03168152600190910190602001808311613619575b5050505050905090565b6001546001600160a01b0316331461366b5760405162461bcd60e51b81526004016108d690614655565b6001600160a01b0381166136915760405162461bcd60e51b81526004016108d6906148cb565b600180546001600160a01b0319166001600160a01b0392909216919091179055565b60025f54036136d557604051633ee5aeb560e01b815260040160405180910390fd5b60025f55565b60055485101561371a5760405162461bcd60e51b815260206004820152600a602482015269135a5b88185b5bdd5b9d60b21b60448201526064016108d6565b6004548410156137625760405162461bcd60e51b81526020600482015260136024820152722637b1b59036bab9ba1031329033b932b0b2b960691b60448201526064016108d6565b60125461379d5760405162461bcd60e51b81526020600482015260096024820152684e6f206d6f6e74687360b81b60448201526064016108d6565b5f6137a6612a99565b60125490915081106137ed5760405162461bcd60e51b815260206004820152601060248201526f151a5b59481b9bdd0818dbdd995c995960821b60448201526064016108d6565b5f6137f886836146d9565b60125490915081111561385b5760405162461bcd60e51b815260206004820152602560248201527f4c6f636b20706572696f64206578636565647320636f6e66696775726564206d6044820152646f6e74687360d81b60648201526084016108d6565b6040516323b872dd60e01b8152336004820152306024820152604481018890527f00000000000000000000000000000000000000000000000000000000000000006001600160a01b0316906323b872dd906064016020604051808303815f875af11580156138cb573d5f5f3e3d5ffd5b505050506040513d601f19601f820116820180604052508101906138ef9190614733565b61390b5760405162461bcd60e51b81526004016108d69061474e565b6001600160a01b0388165f9081526007602052604090205460ff1661398f576001600160a01b0388165f818152600760205260408120805460ff191660019081179091556006805491820181559091527ff652222313e28459528d920b65115c16c04f3efc82aaedc97be59f3f377c0d3f0180546001600160a01b03191690911790555b600a604051806101c00160405280600a8054905081526020018a6001600160a01b031681526020018981526020018481526020014281526020015f81526020018381526020018481526020015f81526020016001151581526020015f151581526020015f8152602001871515815260200186815250908060018154018082558091505060019003905f5260205f2090600d02015f909190919091505f820151815f01556020820151816001015f6101000a8154816001600160a01b0302191690836001600160a01b0316021790555060408201518160020155606082015181600301556080820151816004015560a0820151816005015560c0820151816006015560e082015181600701556101008201518160080155610120820151816009015f6101000a81548160ff0219169083151502179055506101408201518160090160016101000a81548160ff02191690831515021790555061016082015181600a015561018082015181600b015f6101000a81548160ff0219169083151502179055506101a082015181600c015550505f6001600a80549050613b3191906146b2565b5f818152600b60209081526040808320805460ff19168915151790556001600160a01b038d1683526008825282208054600181018255908352908220018290556009859055600f80549293508a92909190613b8d9084906146d9565b9091555050600e8054905f613ba1836148fb565b9091555050600c8054600181810183555f8390527fdf6966c971051c3d54ec59162606531493a51404a002842f56009d7e5cf4a8c79091018390559054613be891906146b2565b5f828152600d602090815260408083209390935585825260139052908120805491613c12836148fb565b90915550505f83815260146020526040812080548a9290613c349084906146d9565b909155505060408051828152602081018a9052908101889052606081018390526001600160a01b038a16907f554f20505671494900b631b0e443e9e7a59743ec9889b05e28d8ac9ea158266b9060800160405180910390a2505050505050505050565b818310613cd65760405162461bcd60e51b815260206004820152600d60248201526c496e76616c69642072616e676560981b60448201526064016108d6565b8015613cfe57612710811115613cfe5760405162461bcd60e51b81526004016108d690614679565b60125415613d6b5760128054613d16906001906146b2565b81548110613d2657613d266146c5565b905f5260205f20906003020160010154831015613d6b5760405162461bcd60e51b815260206004820152600360248201526253657160e81b60448201526064016108d6565b60408051606081018252938452602084019283528301908152601280546001810182555f9190915292517fbb8a6a4669ba250d26cd7a459eca9d215f8307e33aebe50379bc5a3617ec344460039094029384015590517fbb8a6a4669ba250d26cd7a459eca9d215f8307e33aebe50379bc5a3617ec3445830155517fbb8a6a4669ba250d26cd7a459eca9d215f8307e33aebe50379bc5a3617ec344690910155565b5f815f03613e19574291505b825b60125481108015613e4e57508260128281548110613e3b57613e3b6146c5565b905f5260205f2090600302016001015411155b15611cfb57600101613e1b565b5f5f60128381548110613e7057613e706146c5565b905f5260205f209060030201600201549050805f14613e8f5780611cfb565b6003549392505050565b5f818152600d6020526040812054600c8054919291613eba906001906146b2565b81548110613eca57613eca6146c5565b905f5260205f200154905080600c8381548110613ee957613ee96146c5565b5f918252602080832090910192909255828152600d90915260409020829055600c805480613f1957613f196148e7565b5f828152602080822083015f19908101839055909201909255938152600d90935250506040812055565b5f805b601254811015612b105760128181548110613f6357613f636146c5565b905f5260205f2090600302015f01548310158015613fa2575060128181548110613f8f57613f8f6146c5565b905f5260205f2090600302016001015483105b15613fad5792915050565b600101613f46565b604051806101c001604052805f81526020015f6001600160a01b031681526020015f81526020015f81526020015f81526020015f81526020015f81526020015f81526020015f81526020015f151581526020015f151581526020015f81526020015f151581526020015f81525090565b5f5f5f5f60808587031215614038575f5ffd5b5050823594602084013594506040840135936060013592509050565b80356001600160a01b038116811461406a575f5ffd5b919050565b8015158114610fc6575f5ffd5b5f5f5f5f5f60a08688031215614090575f5ffd5b61409986614054565b9450602086013593506040860135925060608601356140b78161406f565b949793965091946080013592915050565b5f5f604083850312156140d9575f5ffd5b6140e283614054565b946020939093013593505050565b5f60208284031215614100575f5ffd5b5035919050565b80518252602081015161412560208401826001600160a01b03169052565b5060408101516040830152606081015160608301526080810151608083015260a081015160a083015260c081015160c083015260e081015160e083015261010081015161010083015261012081015161418361012084018215159052565b5061014081015161419961014084018215159052565b506101608101516101608301526101808101516141bb61018084018215159052565b506101a090810151910152565b6101c081016119438284614107565b5f5f5f606084860312156141e9575f5ffd5b505081359360208301359350604090920135919050565b5f5f83601f840112614210575f5ffd5b50813567ffffffffffffffff811115614227575f5ffd5b6020830191508360208260051b8501011115614241575f5ffd5b9250929050565b5f5f5f5f5f5f6060878903121561425d575f5ffd5b863567ffffffffffffffff811115614273575f5ffd5b61427f89828a01614200565b909750955050602087013567ffffffffffffffff81111561429e575f5ffd5b6142aa89828a01614200565b909550935050604087013567ffffffffffffffff8111156142c9575f5ffd5b6142d589828a01614200565b979a9699509497509295939492505050565b5f81518084528060208401602086015e5f602082860101526020601f19601f83011685010191505092915050565b6020815281516020820152602082015160408201526040820151606082015260608201516080820152608082015160a082015260a082015160c08201525f60c083015161436760e084018260ff169052565b5060e08301516102206101008401526143846102408401826142e7565b9050610100840151601f19848303016101208501526143a382826142e7565b9150506101208401516143c26101408501826001600160a01b03169052565b506101408401516101608401526101608401516101808401526101808401516101a08401526101a08401516101c08401526101c08401516101e08401526101e08401516102008401526102008401516102208401528091505092915050565b5f5f60408385031215614432575f5ffd5b50508035926020909101359150565b602080825282518282018190525f918401906040840190835b818110156144845761446d838551614107565b602093909301926101c0929092019160010161445a565b509095945050505050565b5f6020828403121561449f575f5ffd5b611cfb82614054565b602080825282518282018190525f918401906040840190835b818110156144845783516001600160a01b03168352602093840193909201916001016144c1565b5f5f5f606084860312156144fa575f5ffd5b61450384614054565b95602085013595506040909401359392505050565b602080825282518282018190525f918401906040840190835b81811015614484578351805184526020810151602085015260408101516040850152606081015160608501526080810151608085015260a081015160a085015260c081015160c08501525060e083019250602084019350600181019050614531565b8e81526001600160a01b038e166020820152604081018d9052606081018c9052608081018b905260a081018a905260c0810189905260e0810188905261010081018790528515156101208201528415156101408201526101c081018461016083015261460461018083018515159052565b826101a08301529f9e505050505050505050505050505050565b602080825282518282018190525f918401906040840190835b81811015614484578351835260209384019390920191600101614637565b6020808252600a908201526927b7363c9037bbb732b960b11b604082015260600190565b6020808252600b908201526a52617465203e203130302560a81b604082015260600190565b634e487b7160e01b5f52601160045260245ffd5b818103818111156119435761194361469e565b634e487b7160e01b5f52603260045260245ffd5b808201808211156119435761194361469e565b6020808252600990820152682737ba1037bbb732b960b91b604082015260600190565b6020808252600a9082015269456d7074792062616e6b60b01b604082015260600190565b5f60208284031215614743575f5ffd5b8151611cfb8161406f565b6020808252600f908201526e151c985b9cd9995c8819985a5b1959608a1b604082015260600190565b80820281158282048414176119435761194361469e565b5f826147a857634e487b7160e01b5f52601260045260245ffd5b500490565b5f602082840312156147bd575f5ffd5b815160ff81168114611cfb575f5ffd5b634e487b7160e01b5f52604160045260245ffd5b5f602082840312156147f1575f5ffd5b815167ffffffffffffffff811115614807575f5ffd5b8201601f81018413614817575f5ffd5b805167ffffffffffffffff811115614831576148316147cd565b604051601f8201601f19908116603f0116810167ffffffffffffffff81118282101715614860576148606147cd565b604052818152828201602001861015614877575f5ffd5b8160208401602083015e5f91810160200191909152949350505050565b602080825260089082015267496e61637469766560c01b604082015260600190565b5f816148c4576148c461469e565b505f190190565b602080825260029082015261453160f01b604082015260600190565b634e487b7160e01b5f52603160045260245ffd5b5f6001820161490c5761490c61469e565b506001019056fea2646970667358221220a4974f77371648f55a8862ebde14ec505d89ee690285307782a095f02b33842f64736f6c634300081e0033",
			"opcodes": "PUSH1 0xA0 PUSH1 0x40 MSTORE PUSH1 0x1 PUSH1 0x4 SSTORE PUSH8 0xDE0B6B3A7640000 PUSH1 0x5 SSTORE PUSH0 PUSH1 0x9 SSTORE CALLVALUE DUP1 ISZERO PUSH2 0x24 JUMPI PUSH0 PUSH0 REVERT JUMPDEST POP PUSH1 0x40 MLOAD PUSH2 0x4AFC CODESIZE SUB DUP1 PUSH2 0x4AFC DUP4 CODECOPY DUP2 ADD PUSH1 0x40 DUP2 SWAP1 MSTORE PUSH2 0x43 SWAP2 PUSH2 0x109 JUMP JUMPDEST PUSH1 0x1 PUSH0 SSTORE PUSH1 0x1 PUSH1 0x1 PUSH1 0xA0 SHL SUB DUP3 AND PUSH2 0x90 JUMPI PUSH1 0x40 MLOAD PUSH3 0x461BCD PUSH1 0xE5 SHL DUP2 MSTORE PUSH1 0x20 PUSH1 0x4 DUP3 ADD MSTORE PUSH1 0xB PUSH1 0x24 DUP3 ADD MSTORE PUSH11 0x546F6B656E3A207A65726F PUSH1 0xA8 SHL PUSH1 0x44 DUP3 ADD MSTORE PUSH1 0x64 ADD JUMPDEST PUSH1 0x40 MLOAD DUP1 SWAP2 SUB SWAP1 REVERT JUMPDEST PUSH2 0x2710 DUP2 GT ISZERO PUSH2 0xD0 JUMPI PUSH1 0x40 MLOAD PUSH3 0x461BCD PUSH1 0xE5 SHL DUP2 MSTORE PUSH1 0x20 PUSH1 0x4 DUP3 ADD MSTORE PUSH1 0xB PUSH1 0x24 DUP3 ADD MSTORE PUSH11 0x52617465203E2031303025 PUSH1 0xA8 SHL PUSH1 0x44 DUP3 ADD MSTORE PUSH1 0x64 ADD PUSH2 0x87 JUMP JUMPDEST PUSH1 0x1 DUP1 SLOAD CALLER PUSH1 0x1 PUSH1 0x1 PUSH1 0xA0 SHL SUB NOT SWAP2 DUP3 AND DUP2 OR SWAP1 SWAP3 SSTORE PUSH1 0x2 DUP1 SLOAD SWAP1 SWAP2 AND SWAP1 SWAP2 OR SWAP1 SSTORE PUSH1 0x1 PUSH1 0x1 PUSH1 0xA0 SHL SUB SWAP2 SWAP1 SWAP2 AND PUSH1 0x80 MSTORE PUSH1 0x3 SSTORE PUSH2 0x140 JUMP JUMPDEST PUSH0 PUSH0 PUSH1 0x40 DUP4 DUP6 SUB SLT ISZERO PUSH2 0x11A JUMPI PUSH0 PUSH0 REVERT JUMPDEST DUP3 MLOAD PUSH1 0x1 PUSH1 0x1 PUSH1 0xA0 SHL SUB DUP2 AND DUP2 EQ PUSH2 0x130 JUMPI PUSH0 PUSH0 REVERT JUMPDEST PUSH1 0x20 SWAP4 SWAP1 SWAP4 ADD MLOAD SWAP3 SWAP5 SWAP3 SWAP4 POP POP POP JUMP JUMPDEST PUSH1 0x80 MLOAD PUSH2 0x4949 PUSH2 0x1B3 PUSH0 CODECOPY PUSH0 DUP2 DUP2 PUSH2 0x635 ADD MSTORE DUP2 DUP2 PUSH2 0xECE ADD MSTORE DUP2 DUP2 PUSH2 0x14FF ADD MSTORE DUP2 DUP2 PUSH2 0x1587 ADD MSTORE DUP2 DUP2 PUSH2 0x160E ADD MSTORE DUP2 DUP2 PUSH2 0x1695 ADD MSTORE DUP2 DUP2 PUSH2 0x20FA ADD MSTORE DUP2 DUP2 PUSH2 0x2367 ADD MSTORE DUP2 DUP2 PUSH2 0x2748 ADD MSTORE DUP2 DUP2 PUSH2 0x2943 ADD MSTORE DUP2 DUP2 PUSH2 0x2D35 ADD MSTORE DUP2 DUP2 PUSH2 0x2E91 ADD MSTORE DUP2 DUP2 PUSH2 0x336E ADD MSTORE PUSH2 0x387D ADD MSTORE PUSH2 0x4949 PUSH0 RETURN INVALID PUSH1 0x80 PUSH1 0x40 MSTORE CALLVALUE DUP1 ISZERO PUSH2 0xF JUMPI PUSH0 PUSH0 REVERT JUMPDEST POP PUSH1 0x4 CALLDATASIZE LT PUSH2 0x3A8 JUMPI PUSH0 CALLDATALOAD PUSH1 0xE0 SHR DUP1 PUSH4 0x8C90926F GT PUSH2 0x1EA JUMPI DUP1 PUSH4 0xB42A275E GT PUSH2 0x114 JUMPI DUP1 PUSH4 0xD6A13301 GT PUSH2 0xA9 JUMPI DUP1 PUSH4 0xF2FDE38B GT PUSH2 0x79 JUMPI DUP1 PUSH4 0xF2FDE38B EQ PUSH2 0x87E JUMPI DUP1 PUSH4 0xF4F8C847 EQ PUSH2 0x891 JUMPI DUP1 PUSH4 0xF8799E1A EQ PUSH2 0x89A JUMPI DUP1 PUSH4 0xFE4AB90A EQ PUSH2 0x8A3 JUMPI PUSH0 PUSH0 REVERT JUMPDEST DUP1 PUSH4 0xD6A13301 EQ PUSH2 0x833 JUMPI DUP1 PUSH4 0xD7D43C78 EQ PUSH2 0x85B JUMPI DUP1 PUSH4 0xDD4824A8 EQ PUSH2 0x863 JUMPI DUP1 PUSH4 0xE2842D79 EQ PUSH2 0x876 JUMPI PUSH0 PUSH0 REVERT JUMPDEST DUP1 PUSH4 0xCCBD0007 GT PUSH2 0xE4 JUMPI DUP1 PUSH4 0xCCBD0007 EQ PUSH2 0x7FC JUMPI DUP1 PUSH4 0xD188E3AE EQ PUSH2 0x805 JUMPI DUP1 PUSH4 0xD3752830 EQ PUSH2 0x80D JUMPI DUP1 PUSH4 0xD3D83445 EQ PUSH2 0x820 JUMPI PUSH0 PUSH0 REVERT JUMPDEST DUP1 PUSH4 0xB42A275E EQ PUSH2 0x7A1 JUMPI DUP1 PUSH4 0xBE2FF4A9 EQ PUSH2 0x7AA JUMPI DUP1 PUSH4 0xC491EECD EQ PUSH2 0x7BD JUMPI DUP1 PUSH4 0xCCAAC244 EQ PUSH2 0x7DD JUMPI PUSH0 PUSH0 REVERT JUMPDEST DUP1 PUSH4 0x9D13FA01 GT PUSH2 0x18A JUMPI DUP1 PUSH4 0xA9783CD7 GT PUSH2 0x15A JUMPI DUP1 PUSH4 0xA9783CD7 EQ PUSH2 0x746 JUMPI DUP1 PUSH4 0xB02C43D0 EQ PUSH2 0x74E JUMPI DUP1 PUSH4 0xB18E71F2 EQ PUSH2 0x77B JUMPI DUP1 PUSH4 0xB29A8140 EQ PUSH2 0x78E JUMPI PUSH0 PUSH0 REVERT JUMPDEST DUP1 PUSH4 0x9D13FA01 EQ PUSH2 0x70C JUMPI DUP1 PUSH4 0xA2BDEDF4 EQ PUSH2 0x72B JUMPI DUP1 PUSH4 0xA4A1E263 EQ PUSH2 0x704 JUMPI DUP1 PUSH4 0xA5C62CB4 EQ PUSH2 0x73E JUMPI PUSH0 PUSH0 REVERT JUMPDEST DUP1 PUSH4 0x91BA50CD GT PUSH2 0x1C5 JUMPI DUP1 PUSH4 0x91BA50CD EQ PUSH2 0x6D6 JUMPI DUP1 PUSH4 0x936D4FFA EQ PUSH2 0x6E9 JUMPI DUP1 PUSH4 0x9521ABC6 EQ PUSH2 0x6F1 JUMPI DUP1 PUSH4 0x9BE572F6 EQ PUSH2 0x704 JUMPI PUSH0 PUSH0 REVERT JUMPDEST DUP1 PUSH4 0x8C90926F EQ PUSH2 0x6A8 JUMPI DUP1 PUSH4 0x8DA5CB5B EQ PUSH2 0x6B0 JUMPI DUP1 PUSH4 0x90693CA7 EQ PUSH2 0x6C3 JUMPI PUSH0 PUSH0 REVERT JUMPDEST DUP1 PUSH4 0x2FFB3D2A GT PUSH2 0x2D6 JUMPI DUP1 PUSH4 0x4EFF3D3D GT PUSH2 0x26B JUMPI DUP1 PUSH4 0x72F702F3 GT PUSH2 0x23B JUMPI DUP1 PUSH4 0x72F702F3 EQ PUSH2 0x630 JUMPI DUP1 PUSH4 0x72FADA5C EQ PUSH2 0x66F JUMPI DUP1 PUSH4 0x7ADBF973 EQ PUSH2 0x682 JUMPI DUP1 PUSH4 0x7DC0D1D0 EQ PUSH2 0x695 JUMPI PUSH0 PUSH0 REVERT JUMPDEST DUP1 PUSH4 0x4EFF3D3D EQ PUSH2 0x5D7 JUMPI DUP1 PUSH4 0x6241CA79 EQ PUSH2 0x5F7 JUMPI DUP1 PUSH4 0x647FC56C EQ PUSH2 0x60A JUMPI DUP1 PUSH4 0x7196D3E2 EQ PUSH2 0x61D JUMPI PUSH0 PUSH0 REVERT JUMPDEST DUP1 PUSH4 0x4209FFF1 GT PUSH2 0x2A6 JUMPI DUP1 PUSH4 0x4209FFF1 EQ PUSH2 0x56F JUMPI DUP1 PUSH4 0x45982A66 EQ PUSH2 0x591 JUMPI DUP1 PUSH4 0x4698B883 EQ PUSH2 0x5B1 JUMPI DUP1 PUSH4 0x4B4D7AA8 EQ PUSH2 0x5C4 JUMPI PUSH0 PUSH0 REVERT JUMPDEST DUP1 PUSH4 0x2FFB3D2A EQ PUSH2 0x508 JUMPI DUP1 PUSH4 0x36261236 EQ PUSH2 0x51B JUMPI DUP1 PUSH4 0x4106EE75 EQ PUSH2 0x530 JUMPI DUP1 PUSH4 0x41AFF23E EQ PUSH2 0x550 JUMPI PUSH0 PUSH0 REVERT JUMPDEST DUP1 PUSH4 0x1BFC7761 GT PUSH2 0x34C JUMPI DUP1 PUSH4 0x1FB3BD93 GT PUSH2 0x31C JUMPI DUP1 PUSH4 0x1FB3BD93 EQ PUSH2 0x4B0 JUMPI DUP1 PUSH4 0x23B28A54 EQ PUSH2 0x4C3 JUMPI DUP1 PUSH4 0x23E0CEB2 EQ PUSH2 0x4D6 JUMPI DUP1 PUSH4 0x2E0E3064 EQ PUSH2 0x4F5 JUMPI PUSH0 PUSH0 REVERT JUMPDEST DUP1 PUSH4 0x1BFC7761 EQ PUSH2 0x427 JUMPI DUP1 PUSH4 0x1C5DC54C EQ PUSH2 0x447 JUMPI DUP1 PUSH4 0x1CC39D57 EQ PUSH2 0x450 JUMPI DUP1 PUSH4 0x1D0205B8 EQ PUSH2 0x482 JUMPI PUSH0 PUSH0 REVERT JUMPDEST DUP1 PUSH4 0x8804275 GT PUSH2 0x387 JUMPI DUP1 PUSH4 0x8804275 EQ PUSH2 0x3F0 JUMPI DUP1 PUSH4 0x8F43333 EQ PUSH2 0x3F9 JUMPI DUP1 PUSH4 0xF68AE40 EQ PUSH2 0x40C JUMPI DUP1 PUSH4 0x168A4822 EQ PUSH2 0x41F JUMPI PUSH0 PUSH0 REVERT JUMPDEST DUP1 PUSH3 0xD6386 EQ PUSH2 0x3AC JUMPI DUP1 PUSH4 0x5A163B6 EQ PUSH2 0x3C8 JUMPI DUP1 PUSH4 0x6F960BB EQ PUSH2 0x3DD JUMPI JUMPDEST PUSH0 PUSH0 REVERT JUMPDEST PUSH2 0x3B5 PUSH1 0x9 SLOAD DUP2 JUMP JUMPDEST PUSH1 0x40 MLOAD SWAP1 DUP2 MSTORE PUSH1 0x20 ADD JUMPDEST PUSH1 0x40 MLOAD DUP1 SWAP2 SUB SWAP1 RETURN JUMPDEST PUSH2 0x3DB PUSH2 0x3D6 CALLDATASIZE PUSH1 0x4 PUSH2 0x4025 JUMP JUMPDEST PUSH2 0x8AC JUMP JUMPDEST STOP JUMPDEST PUSH2 0x3DB PUSH2 0x3EB CALLDATASIZE PUSH1 0x4 PUSH2 0x407C JUMP JUMPDEST PUSH2 0xB3B JUMP JUMPDEST PUSH2 0x3B5 PUSH1 0x5 SLOAD DUP2 JUMP JUMPDEST PUSH2 0x3B5 PUSH2 0x407 CALLDATASIZE PUSH1 0x4 PUSH2 0x40C8 JUMP JUMPDEST PUSH2 0xBF0 JUMP JUMPDEST PUSH2 0x3DB PUSH2 0x41A CALLDATASIZE PUSH1 0x4 PUSH2 0x40F0 JUMP JUMPDEST PUSH2 0xC1B JUMP JUMPDEST PUSH1 0xA SLOAD PUSH2 0x3B5 JUMP JUMPDEST PUSH2 0x43A PUSH2 0x435 CALLDATASIZE PUSH1 0x4 PUSH2 0x40F0 JUMP JUMPDEST PUSH2 0xC4A JUMP JUMPDEST PUSH1 0x40 MLOAD PUSH2 0x3BF SWAP2 SWAP1 PUSH2 0x41C8 JUMP JUMPDEST PUSH2 0x3B5 PUSH1 0x10 SLOAD DUP2 JUMP JUMPDEST PUSH2 0x472 PUSH2 0x45E CALLDATASIZE PUSH1 0x4 PUSH2 0x40F0 JUMP JUMPDEST PUSH1 0xB PUSH1 0x20 MSTORE PUSH0 SWAP1 DUP2 MSTORE PUSH1 0x40 SWAP1 KECCAK256 SLOAD PUSH1 0xFF AND DUP2 JUMP JUMPDEST PUSH1 0x40 MLOAD SWAP1 ISZERO ISZERO DUP2 MSTORE PUSH1 0x20 ADD PUSH2 0x3BF JUMP JUMPDEST PUSH2 0x495 PUSH2 0x490 CALLDATASIZE PUSH1 0x4 PUSH2 0x40F0 JUMP JUMPDEST PUSH2 0xD3F JUMP JUMPDEST PUSH1 0x40 DUP1 MLOAD SWAP4 DUP5 MSTORE PUSH1 0x20 DUP5 ADD SWAP3 SWAP1 SWAP3 MSTORE SWAP1 DUP3 ADD MSTORE PUSH1 0x60 ADD PUSH2 0x3BF JUMP JUMPDEST PUSH2 0x3DB PUSH2 0x4BE CALLDATASIZE PUSH1 0x4 PUSH2 0x40F0 JUMP JUMPDEST PUSH2 0xD70 JUMP JUMPDEST PUSH2 0x3DB PUSH2 0x4D1 CALLDATASIZE PUSH1 0x4 PUSH2 0x41D7 JUMP JUMPDEST PUSH2 0xFC9 JUMP JUMPDEST PUSH2 0x3B5 PUSH2 0x4E4 CALLDATASIZE PUSH1 0x4 PUSH2 0x40F0 JUMP JUMPDEST PUSH1 0xD PUSH1 0x20 MSTORE PUSH0 SWAP1 DUP2 MSTORE PUSH1 0x40 SWAP1 KECCAK256 SLOAD DUP2 JUMP JUMPDEST PUSH2 0x3B5 PUSH2 0x503 CALLDATASIZE PUSH1 0x4 PUSH2 0x40F0 JUMP JUMPDEST PUSH2 0x1053 JUMP JUMPDEST PUSH2 0x3DB PUSH2 0x516 CALLDATASIZE PUSH1 0x4 PUSH2 0x4248 JUMP JUMPDEST PUSH2 0x12C7 JUMP JUMPDEST PUSH2 0x523 PUSH2 0x1437 JUMP JUMPDEST PUSH1 0x40 MLOAD PUSH2 0x3BF SWAP2 SWAP1 PUSH2 0x4315 JUMP JUMPDEST PUSH2 0x543 PUSH2 0x53E CALLDATASIZE PUSH1 0x4 PUSH2 0x4421 JUMP JUMPDEST PUSH2 0x170C JUMP JUMPDEST PUSH1 0x40 MLOAD PUSH2 0x3BF SWAP2 SWAP1 PUSH2 0x4441 JUMP JUMPDEST PUSH2 0x3B5 PUSH2 0x55E CALLDATASIZE PUSH1 0x4 PUSH2 0x40F0 JUMP JUMPDEST PUSH1 0x13 PUSH1 0x20 MSTORE PUSH0 SWAP1 DUP2 MSTORE PUSH1 0x40 SWAP1 KECCAK256 SLOAD DUP2 JUMP JUMPDEST PUSH2 0x472 PUSH2 0x57D CALLDATASIZE PUSH1 0x4 PUSH2 0x448F JUMP JUMPDEST PUSH1 0x7 PUSH1 0x20 MSTORE PUSH0 SWAP1 DUP2 MSTORE PUSH1 0x40 SWAP1 KECCAK256 SLOAD PUSH1 0xFF AND DUP2 JUMP JUMPDEST PUSH2 0x5A4 PUSH2 0x59F CALLDATASIZE PUSH1 0x4 PUSH2 0x4421 JUMP JUMPDEST PUSH2 0x1949 JUMP JUMPDEST PUSH1 0x40 MLOAD PUSH2 0x3BF SWAP2 SWAP1 PUSH2 0x44A8 JUMP JUMPDEST PUSH2 0x543 PUSH2 0x5BF CALLDATASIZE PUSH1 0x4 PUSH2 0x44E8 JUMP JUMPDEST PUSH2 0x1A6B JUMP JUMPDEST PUSH2 0x3DB PUSH2 0x5D2 CALLDATASIZE PUSH1 0x4 PUSH2 0x40F0 JUMP JUMPDEST PUSH2 0x1D02 JUMP JUMPDEST PUSH2 0x5EA PUSH2 0x5E5 CALLDATASIZE PUSH1 0x4 PUSH2 0x4421 JUMP JUMPDEST PUSH2 0x1D31 JUMP JUMPDEST PUSH1 0x40 MLOAD PUSH2 0x3BF SWAP2 SWAP1 PUSH2 0x4518 JUMP JUMPDEST PUSH2 0x3DB PUSH2 0x605 CALLDATASIZE PUSH1 0x4 PUSH2 0x40F0 JUMP JUMPDEST PUSH2 0x1F1E JUMP JUMPDEST PUSH2 0x3DB PUSH2 0x618 CALLDATASIZE PUSH1 0x4 PUSH2 0x40F0 JUMP JUMPDEST PUSH2 0x21D1 JUMP JUMPDEST PUSH2 0x3B5 PUSH2 0x62B CALLDATASIZE PUSH1 0x4 PUSH2 0x4025 JUMP JUMPDEST PUSH2 0x2455 JUMP JUMPDEST PUSH2 0x657 PUSH32 0x0 DUP2 JUMP JUMPDEST PUSH1 0x40 MLOAD PUSH1 0x1 PUSH1 0x1 PUSH1 0xA0 SHL SUB SWAP1 SWAP2 AND DUP2 MSTORE PUSH1 0x20 ADD PUSH2 0x3BF JUMP JUMPDEST PUSH2 0x3DB PUSH2 0x67D CALLDATASIZE PUSH1 0x4 PUSH2 0x40F0 JUMP JUMPDEST PUSH2 0x25EE JUMP JUMPDEST PUSH2 0x3DB PUSH2 0x690 CALLDATASIZE PUSH1 0x4 PUSH2 0x448F JUMP JUMPDEST PUSH2 0x2828 JUMP JUMPDEST PUSH1 0x2 SLOAD PUSH2 0x657 SWAP1 PUSH1 0x1 PUSH1 0x1 PUSH1 0xA0 SHL SUB AND DUP2 JUMP JUMPDEST PUSH2 0x3B5 PUSH2 0x2874 JUMP JUMPDEST PUSH1 0x1 SLOAD PUSH2 0x657 SWAP1 PUSH1 0x1 PUSH1 0x1 PUSH1 0xA0 SHL SUB AND DUP2 JUMP JUMPDEST PUSH2 0x3B5 PUSH2 0x6D1 CALLDATASIZE PUSH1 0x4 PUSH2 0x40F0 JUMP JUMPDEST PUSH2 0x289C JUMP JUMPDEST PUSH2 0x3DB PUSH2 0x6E4 CALLDATASIZE PUSH1 0x4 PUSH2 0x40F0 JUMP JUMPDEST PUSH2 0x28BB JUMP JUMPDEST PUSH1 0x12 SLOAD PUSH2 0x3B5 JUMP JUMPDEST PUSH2 0x3DB PUSH2 0x6FF CALLDATASIZE PUSH1 0x4 PUSH2 0x40F0 JUMP JUMPDEST PUSH2 0x29EA JUMP JUMPDEST PUSH1 0x6 SLOAD PUSH2 0x3B5 JUMP JUMPDEST PUSH2 0x3B5 PUSH2 0x71A CALLDATASIZE PUSH1 0x4 PUSH2 0x40F0 JUMP JUMPDEST PUSH1 0x14 PUSH1 0x20 MSTORE PUSH0 SWAP1 DUP2 MSTORE PUSH1 0x40 SWAP1 KECCAK256 SLOAD DUP2 JUMP JUMPDEST PUSH2 0x657 PUSH2 0x739 CALLDATASIZE PUSH1 0x4 PUSH2 0x40F0 JUMP JUMPDEST PUSH2 0x2A71 JUMP JUMPDEST PUSH2 0x3B5 PUSH2 0x2A99 JUMP JUMPDEST PUSH2 0x3DB PUSH2 0x2B1A JUMP JUMPDEST PUSH2 0x761 PUSH2 0x75C CALLDATASIZE PUSH1 0x4 PUSH2 0x40F0 JUMP JUMPDEST PUSH2 0x2C58 JUMP JUMPDEST PUSH1 0x40 MLOAD PUSH2 0x3BF SWAP15 SWAP14 SWAP13 SWAP12 SWAP11 SWAP10 SWAP9 SWAP8 SWAP7 SWAP6 SWAP5 SWAP4 SWAP3 SWAP2 SWAP1 PUSH2 0x4593 JUMP JUMPDEST PUSH2 0x3DB PUSH2 0x789 CALLDATASIZE PUSH1 0x4 PUSH2 0x4421 JUMP JUMPDEST PUSH2 0x2CE6 JUMP JUMPDEST PUSH2 0x3DB PUSH2 0x79C CALLDATASIZE PUSH1 0x4 PUSH2 0x40C8 JUMP JUMPDEST PUSH2 0x2D09 JUMP JUMPDEST PUSH2 0x3B5 PUSH1 0x11 SLOAD DUP2 JUMP JUMPDEST PUSH2 0x3DB PUSH2 0x7B8 CALLDATASIZE PUSH1 0x4 PUSH2 0x40F0 JUMP JUMPDEST PUSH2 0x2E29 JUMP JUMPDEST PUSH2 0x7D0 PUSH2 0x7CB CALLDATASIZE PUSH1 0x4 PUSH2 0x448F JUMP JUMPDEST PUSH2 0x2F45 JUMP JUMPDEST PUSH1 0x40 MLOAD PUSH2 0x3BF SWAP2 SWAP1 PUSH2 0x461E JUMP JUMPDEST PUSH2 0x3B5 PUSH2 0x7EB CALLDATASIZE PUSH1 0x4 PUSH2 0x40F0 JUMP JUMPDEST PUSH1 0x15 PUSH1 0x20 MSTORE PUSH0 SWAP1 DUP2 MSTORE PUSH1 0x40 SWAP1 KECCAK256 SLOAD DUP2 JUMP JUMPDEST PUSH2 0x3B5 PUSH1 0xE SLOAD DUP2 JUMP JUMPDEST PUSH2 0x3B5 PUSH2 0x2FAE JUMP JUMPDEST PUSH2 0x543 PUSH2 0x81B CALLDATASIZE PUSH1 0x4 PUSH2 0x4421 JUMP JUMPDEST PUSH2 0x2FF9 JUMP JUMPDEST PUSH2 0x3DB PUSH2 0x82E CALLDATASIZE PUSH1 0x4 PUSH2 0x40F0 JUMP JUMPDEST PUSH2 0x3200 JUMP JUMPDEST PUSH2 0x3B5 PUSH2 0x841 CALLDATASIZE PUSH1 0x4 PUSH2 0x448F JUMP JUMPDEST PUSH1 0x1 PUSH1 0x1 PUSH1 0xA0 SHL SUB AND PUSH0 SWAP1 DUP2 MSTORE PUSH1 0x8 PUSH1 0x20 MSTORE PUSH1 0x40 SWAP1 KECCAK256 SLOAD SWAP1 JUMP JUMPDEST PUSH1 0xC SLOAD PUSH2 0x3B5 JUMP JUMPDEST PUSH2 0x3B5 PUSH2 0x871 CALLDATASIZE PUSH1 0x4 PUSH2 0x41D7 JUMP JUMPDEST PUSH2 0x343F JUMP JUMPDEST PUSH2 0x5A4 PUSH2 0x35E1 JUMP JUMPDEST PUSH2 0x3DB PUSH2 0x88C CALLDATASIZE PUSH1 0x4 PUSH2 0x448F JUMP JUMPDEST PUSH2 0x3641 JUMP JUMPDEST PUSH2 0x3B5 PUSH1 0x3 SLOAD DUP2 JUMP JUMPDEST PUSH2 0x3B5 PUSH1 0x4 SLOAD DUP2 JUMP JUMPDEST PUSH2 0x3B5 PUSH1 0xF SLOAD DUP2 JUMP JUMPDEST PUSH1 0x1 SLOAD PUSH1 0x1 PUSH1 0x1 PUSH1 0xA0 SHL SUB AND CALLER EQ PUSH2 0x8DF JUMPI PUSH1 0x40 MLOAD PUSH3 0x461BCD PUSH1 0xE5 SHL DUP2 MSTORE PUSH1 0x4 ADD PUSH2 0x8D6 SWAP1 PUSH2 0x4655 JUMP JUMPDEST PUSH1 0x40 MLOAD DUP1 SWAP2 SUB SWAP1 REVERT JUMPDEST PUSH1 0x12 SLOAD DUP5 LT PUSH2 0x91C JUMPI PUSH1 0x40 MLOAD PUSH3 0x461BCD PUSH1 0xE5 SHL DUP2 MSTORE PUSH1 0x20 PUSH1 0x4 DUP3 ADD MSTORE PUSH1 0x9 PUSH1 0x24 DUP3 ADD MSTORE PUSH9 0x24B73232BC1027A7A1 PUSH1 0xB9 SHL PUSH1 0x44 DUP3 ADD MSTORE PUSH1 0x64 ADD PUSH2 0x8D6 JUMP JUMPDEST DUP2 DUP4 LT PUSH2 0x95B JUMPI PUSH1 0x40 MLOAD PUSH3 0x461BCD PUSH1 0xE5 SHL DUP2 MSTORE PUSH1 0x20 PUSH1 0x4 DUP3 ADD MSTORE PUSH1 0xD PUSH1 0x24 DUP3 ADD MSTORE PUSH13 0x496E76616C69642072616E6765 PUSH1 0x98 SHL PUSH1 0x44 DUP3 ADD MSTORE PUSH1 0x64 ADD PUSH2 0x8D6 JUMP JUMPDEST DUP1 ISZERO PUSH2 0x983 JUMPI PUSH2 0x2710 DUP2 GT ISZERO PUSH2 0x983 JUMPI PUSH1 0x40 MLOAD PUSH3 0x461BCD PUSH1 0xE5 SHL DUP2 MSTORE PUSH1 0x4 ADD PUSH2 0x8D6 SWAP1 PUSH2 0x4679 JUMP JUMPDEST TIMESTAMP DUP4 GT PUSH2 0x9BC JUMPI PUSH1 0x40 MLOAD PUSH3 0x461BCD PUSH1 0xE5 SHL DUP2 MSTORE PUSH1 0x20 PUSH1 0x4 DUP3 ADD MSTORE PUSH1 0x7 PUSH1 0x24 DUP3 ADD MSTORE PUSH7 0x14DD185C9D1959 PUSH1 0xCA SHL PUSH1 0x44 DUP3 ADD MSTORE PUSH1 0x64 ADD PUSH2 0x8D6 JUMP JUMPDEST DUP4 ISZERO PUSH2 0xA24 JUMPI PUSH1 0x12 PUSH2 0x9CF PUSH1 0x1 DUP7 PUSH2 0x46B2 JUMP JUMPDEST DUP2 SLOAD DUP2 LT PUSH2 0x9DF JUMPI PUSH2 0x9DF PUSH2 0x46C5 JUMP JUMPDEST SWAP1 PUSH0 MSTORE PUSH1 0x20 PUSH0 KECCAK256 SWAP1 PUSH1 0x3 MUL ADD PUSH1 0x1 ADD SLOAD DUP4 LT ISZERO PUSH2 0xA24 JUMPI PUSH1 0x40 MLOAD PUSH3 0x461BCD PUSH1 0xE5 SHL DUP2 MSTORE PUSH1 0x20 PUSH1 0x4 DUP3 ADD MSTORE PUSH1 0x3 PUSH1 0x24 DUP3 ADD MSTORE PUSH3 0x536571 PUSH1 0xE8 SHL PUSH1 0x44 DUP3 ADD MSTORE PUSH1 0x64 ADD PUSH2 0x8D6 JUMP JUMPDEST PUSH1 0x12 SLOAD PUSH2 0xA32 DUP6 PUSH1 0x1 PUSH2 0x46D9 JUMP JUMPDEST LT ISZERO PUSH2 0xA9D JUMPI PUSH1 0x12 PUSH2 0xA45 DUP6 PUSH1 0x1 PUSH2 0x46D9 JUMP JUMPDEST DUP2 SLOAD DUP2 LT PUSH2 0xA55 JUMPI PUSH2 0xA55 PUSH2 0x46C5 JUMP JUMPDEST SWAP1 PUSH0 MSTORE PUSH1 0x20 PUSH0 KECCAK256 SWAP1 PUSH1 0x3 MUL ADD PUSH0 ADD SLOAD DUP3 GT ISZERO PUSH2 0xA9D JUMPI PUSH1 0x40 MLOAD PUSH3 0x461BCD PUSH1 0xE5 SHL DUP2 MSTORE PUSH1 0x20 PUSH1 0x4 DUP3 ADD MSTORE PUSH1 0x7 PUSH1 0x24 DUP3 ADD MSTORE PUSH7 0x4F7665726C617 PUSH1 0xCC SHL PUSH1 0x44 DUP3 ADD MSTORE PUSH1 0x64 ADD PUSH2 0x8D6 JUMP JUMPDEST PUSH1 0x40 MLOAD DUP1 PUSH1 0x60 ADD PUSH1 0x40 MSTORE DUP1 DUP5 DUP2 MSTORE PUSH1 0x20 ADD DUP4 DUP2 MSTORE PUSH1 0x20 ADD DUP3 DUP2 MSTORE POP PUSH1 0x12 DUP6 DUP2 SLOAD DUP2 LT PUSH2 0xACB JUMPI PUSH2 0xACB PUSH2 0x46C5 JUMP JUMPDEST PUSH0 SWAP2 DUP3 MSTORE PUSH1 0x20 SWAP2 DUP3 SWAP1 KECCAK256 DUP4 MLOAD PUSH1 0x3 SWAP1 SWAP3 MUL ADD SWAP1 DUP2 SSTORE DUP3 DUP3 ADD MLOAD PUSH1 0x1 DUP3 ADD SSTORE PUSH1 0x40 SWAP3 DUP4 ADD MLOAD PUSH1 0x2 SWAP1 SWAP2 ADD SSTORE DUP2 MLOAD DUP6 DUP2 MSTORE SWAP1 DUP2 ADD DUP5 SWAP1 MSTORE SWAP1 DUP2 ADD DUP3 SWAP1 MSTORE DUP5 SWAP1 PUSH32 0x68F039AF08C3A62DAE4B7E4244543803DCE43C9C5A2AD9EF05FEA8366F4C8623 SWAP1 PUSH1 0x60 ADD PUSH1 0x40 MLOAD DUP1 SWAP2 SUB SWAP1 LOG2 POP POP POP POP JUMP JUMPDEST PUSH2 0xB43 PUSH2 0x36B3 JUMP JUMPDEST PUSH1 0x1 SLOAD PUSH1 0x1 PUSH1 0x1 PUSH1 0xA0 SHL SUB AND CALLER EQ DUP1 PUSH2 0xB66 JUMPI POP PUSH1 0x2 SLOAD PUSH1 0x1 PUSH1 0x1 PUSH1 0xA0 SHL SUB AND CALLER EQ JUMPDEST PUSH2 0xBA9 JUMPI PUSH1 0x40 MLOAD PUSH3 0x461BCD PUSH1 0xE5 SHL DUP2 MSTORE PUSH1 0x20 PUSH1 0x4 DUP3 ADD MSTORE PUSH1 0x14 PUSH1 0x24 DUP3 ADD MSTORE PUSH20 0x4F6E6C79206F776E6572206F72206F7261636C65 PUSH1 0x60 SHL PUSH1 0x44 DUP3 ADD MSTORE PUSH1 0x64 ADD PUSH2 0x8D6 JUMP JUMPDEST DUP2 ISZERO PUSH2 0xBD1 JUMPI PUSH2 0x2710 DUP2 GT ISZERO PUSH2 0xBD1 JUMPI PUSH1 0x40 MLOAD PUSH3 0x461BCD PUSH1 0xE5 SHL DUP2 MSTORE PUSH1 0x4 ADD PUSH2 0x8D6 SWAP1 PUSH2 0x4679 JUMP JUMPDEST PUSH2 0xBE0 DUP6 DUP6 DUP6 DUP6 DUP6 PUSH1 0x1 PUSH2 0x36DB JUMP JUMPDEST PUSH2 0xBE9 PUSH1 0x1 PUSH0 SSTORE JUMP JUMPDEST POP POP POP POP POP JUMP JUMPDEST PUSH1 0x8 PUSH1 0x20 MSTORE DUP2 PUSH0 MSTORE PUSH1 0x40 PUSH0 KECCAK256 DUP2 DUP2 SLOAD DUP2 LT PUSH2 0xC09 JUMPI PUSH0 DUP1 REVERT JUMPDEST SWAP1 PUSH0 MSTORE PUSH1 0x20 PUSH0 KECCAK256 ADD PUSH0 SWAP2 POP SWAP2 POP POP SLOAD DUP2 JUMP JUMPDEST PUSH1 0x1 SLOAD PUSH1 0x1 PUSH1 0x1 PUSH1 0xA0 SHL SUB AND CALLER EQ PUSH2 0xC45 JUMPI PUSH1 0x40 MLOAD PUSH3 0x461BCD PUSH1 0xE5 SHL DUP2 MSTORE PUSH1 0x4 ADD PUSH2 0x8D6 SWAP1 PUSH2 0x4655 JUMP JUMPDEST PUSH1 0x5 SSTORE JUMP JUMPDEST PUSH2 0xC52 PUSH2 0x3FB5 JUMP JUMPDEST PUSH1 0xA DUP3 DUP2 SLOAD DUP2 LT PUSH2 0xC65 JUMPI PUSH2 0xC65 PUSH2 0x46C5 JUMP JUMPDEST PUSH0 SWAP2 DUP3 MSTORE PUSH1 0x20 SWAP2 DUP3 SWAP1 KECCAK256 PUSH1 0x40 DUP1 MLOAD PUSH2 0x1C0 DUP2 ADD DUP3 MSTORE PUSH1 0xD SWAP1 SWAP4 MUL SWAP1 SWAP2 ADD DUP1 SLOAD DUP4 MSTORE PUSH1 0x1 DUP2 ADD SLOAD PUSH1 0x1 PUSH1 0x1 PUSH1 0xA0 SHL SUB AND SWAP4 DUP4 ADD SWAP4 SWAP1 SWAP4 MSTORE PUSH1 0x2 DUP4 ADD SLOAD SWAP1 DUP3 ADD MSTORE PUSH1 0x3 DUP3 ADD SLOAD PUSH1 0x60 DUP3 ADD MSTORE PUSH1 0x4 DUP3 ADD SLOAD PUSH1 0x80 DUP3 ADD MSTORE PUSH1 0x5 DUP3 ADD SLOAD PUSH1 0xA0 DUP3 ADD MSTORE PUSH1 0x6 DUP3 ADD SLOAD PUSH1 0xC0 DUP3 ADD MSTORE PUSH1 0x7 DUP3 ADD SLOAD PUSH1 0xE0 DUP3 ADD MSTORE PUSH1 0x8 DUP3 ADD SLOAD PUSH2 0x100 DUP1 DUP4 ADD SWAP2 SWAP1 SWAP2 MSTORE PUSH1 0x9 DUP4 ADD SLOAD PUSH1 0xFF DUP1 DUP3 AND ISZERO ISZERO PUSH2 0x120 DUP6 ADD MSTORE SWAP2 SWAP1 DIV DUP2 AND ISZERO ISZERO PUSH2 0x140 DUP4 ADD MSTORE PUSH1 0xA DUP4 ADD SLOAD PUSH2 0x160 DUP4 ADD MSTORE PUSH1 0xB DUP4 ADD SLOAD AND ISZERO ISZERO PUSH2 0x180 DUP3 ADD MSTORE PUSH1 0xC SWAP1 SWAP2 ADD SLOAD PUSH2 0x1A0 DUP3 ADD MSTORE SWAP1 POP PUSH2 0xD34 DUP3 PUSH2 0x1053 JUMP JUMPDEST PUSH2 0x100 DUP3 ADD MSTORE SWAP2 SWAP1 POP JUMP JUMPDEST PUSH1 0x12 DUP2 DUP2 SLOAD DUP2 LT PUSH2 0xD4E JUMPI PUSH0 DUP1 REVERT JUMPDEST PUSH0 SWAP2 DUP3 MSTORE PUSH1 0x20 SWAP1 SWAP2 KECCAK256 PUSH1 0x3 SWAP1 SWAP2 MUL ADD DUP1 SLOAD PUSH1 0x1 DUP3 ADD SLOAD PUSH1 0x2 SWAP1 SWAP3 ADD SLOAD SWAP1 SWAP3 POP DUP4 JUMP JUMPDEST PUSH2 0xD78 PUSH2 0x36B3 JUMP JUMPDEST PUSH0 PUSH1 0xA DUP3 DUP2 SLOAD DUP2 LT PUSH2 0xD8C JUMPI PUSH2 0xD8C PUSH2 0x46C5 JUMP JUMPDEST PUSH0 SWAP2 DUP3 MSTORE PUSH1 0x20 SWAP1 SWAP2 KECCAK256 PUSH1 0xD SWAP1 SWAP2 MUL ADD PUSH1 0x9 DUP2 ADD SLOAD SWAP1 SWAP2 POP PUSH1 0xFF AND ISZERO PUSH2 0xDDF JUMPI PUSH1 0x40 MLOAD PUSH3 0x461BCD PUSH1 0xE5 SHL DUP2 MSTORE PUSH1 0x20 PUSH1 0x4 DUP3 ADD MSTORE PUSH1 0x9 PUSH1 0x24 DUP3 ADD MSTORE PUSH9 0x497320616374697665 PUSH1 0xB8 SHL PUSH1 0x44 DUP3 ADD MSTORE PUSH1 0x64 ADD PUSH2 0x8D6 JUMP JUMPDEST PUSH1 0x1 DUP2 ADD SLOAD PUSH1 0x1 PUSH1 0x1 PUSH1 0xA0 SHL SUB AND CALLER EQ PUSH2 0xE0B JUMPI PUSH1 0x40 MLOAD PUSH3 0x461BCD PUSH1 0xE5 SHL DUP2 MSTORE PUSH1 0x4 ADD PUSH2 0x8D6 SWAP1 PUSH2 0x46EC JUMP JUMPDEST PUSH1 0x9 DUP2 ADD SLOAD PUSH2 0x100 SWAP1 DIV PUSH1 0xFF AND PUSH2 0xE50 JUMPI PUSH1 0x40 MLOAD PUSH3 0x461BCD PUSH1 0xE5 SHL DUP2 MSTORE PUSH1 0x20 PUSH1 0x4 DUP3 ADD MSTORE PUSH1 0x9 PUSH1 0x24 DUP3 ADD MSTORE PUSH9 0x139BDD081CD85D9959 PUSH1 0xBA SHL PUSH1 0x44 DUP3 ADD MSTORE PUSH1 0x64 ADD PUSH2 0x8D6 JUMP JUMPDEST DUP1 PUSH1 0xA ADD SLOAD PUSH1 0x11 SLOAD LT ISZERO PUSH2 0xE76 JUMPI PUSH1 0x40 MLOAD PUSH3 0x461BCD PUSH1 0xE5 SHL DUP2 MSTORE PUSH1 0x4 ADD PUSH2 0x8D6 SWAP1 PUSH2 0x470F JUMP JUMPDEST PUSH0 DUP2 PUSH1 0xA ADD SLOAD SWAP1 POP DUP1 PUSH1 0x11 PUSH0 DUP3 DUP3 SLOAD PUSH2 0xE8F SWAP2 SWAP1 PUSH2 0x46B2 JUMP JUMPDEST SWAP3 POP POP DUP2 SWAP1 SSTORE POP DUP1 PUSH1 0x10 PUSH0 DUP3 DUP3 SLOAD PUSH2 0xEA7 SWAP2 SWAP1 PUSH2 0x46D9 JUMP JUMPDEST SWAP1 SWAP2 SSTORE POP POP DUP1 ISZERO PUSH2 0xF5C JUMPI PUSH1 0x40 MLOAD PUSH4 0xA9059CBB PUSH1 0xE0 SHL DUP2 MSTORE CALLER PUSH1 0x4 DUP3 ADD MSTORE PUSH1 0x24 DUP2 ADD DUP3 SWAP1 MSTORE PUSH32 0x0 PUSH1 0x1 PUSH1 0x1 PUSH1 0xA0 SHL SUB AND SWAP1 PUSH4 0xA9059CBB SWAP1 PUSH1 0x44 ADD PUSH1 0x20 PUSH1 0x40 MLOAD DUP1 DUP4 SUB DUP2 PUSH0 DUP8 GAS CALL ISZERO DUP1 ISZERO PUSH2 0xF1C JUMPI RETURNDATASIZE PUSH0 PUSH0 RETURNDATACOPY RETURNDATASIZE PUSH0 REVERT JUMPDEST POP POP POP POP PUSH1 0x40 MLOAD RETURNDATASIZE PUSH1 0x1F NOT PUSH1 0x1F DUP3 ADD AND DUP3 ADD DUP1 PUSH1 0x40 MSTORE POP DUP2 ADD SWAP1 PUSH2 0xF40 SWAP2 SWAP1 PUSH2 0x4733 JUMP JUMPDEST PUSH2 0xF5C JUMPI PUSH1 0x40 MLOAD PUSH3 0x461BCD PUSH1 0xE5 SHL DUP2 MSTORE PUSH1 0x4 ADD PUSH2 0x8D6 SWAP1 PUSH2 0x474E JUMP JUMPDEST PUSH1 0x9 DUP3 ADD DUP1 SLOAD PUSH2 0xFF00 NOT AND SWAP1 SSTORE PUSH0 PUSH1 0xA DUP4 ADD SSTORE PUSH1 0x1 DUP3 ADD SLOAD DUP3 SLOAD PUSH1 0x40 DUP1 MLOAD SWAP2 DUP3 MSTORE PUSH1 0x20 DUP3 ADD DUP5 SWAP1 MSTORE PUSH1 0x1 PUSH1 0x1 PUSH1 0xA0 SHL SUB SWAP1 SWAP3 AND SWAP2 PUSH32 0x89944602FCC483994090377F9ABD25A68EE71AE7EF66DB82411CC0739AB35CD8 SWAP2 ADD PUSH1 0x40 MLOAD DUP1 SWAP2 SUB SWAP1 LOG2 POP POP PUSH2 0xFC6 PUSH1 0x1 PUSH0 SSTORE JUMP JUMPDEST POP JUMP JUMPDEST PUSH1 0x1 SLOAD PUSH1 0x1 PUSH1 0x1 PUSH1 0xA0 SHL SUB AND CALLER EQ PUSH2 0xFF3 JUMPI PUSH1 0x40 MLOAD PUSH3 0x461BCD PUSH1 0xE5 SHL DUP2 MSTORE PUSH1 0x4 ADD PUSH2 0x8D6 SWAP1 PUSH2 0x4655 JUMP JUMPDEST PUSH2 0xFFE DUP4 DUP4 DUP4 PUSH2 0x3C97 JUMP JUMPDEST PUSH1 0x12 SLOAD PUSH2 0x100D SWAP1 PUSH1 0x1 SWAP1 PUSH2 0x46B2 JUMP JUMPDEST PUSH1 0x40 DUP1 MLOAD DUP6 DUP2 MSTORE PUSH1 0x20 DUP2 ADD DUP6 SWAP1 MSTORE SWAP1 DUP2 ADD DUP4 SWAP1 MSTORE PUSH32 0x901D51AF3F40466612C7BE89BA349F0B5AA321186BB4DE023367F1CA25ACDCED SWAP1 PUSH1 0x60 ADD PUSH1 0x40 MLOAD DUP1 SWAP2 SUB SWAP1 LOG2 POP POP POP JUMP JUMPDEST PUSH0 PUSH0 PUSH1 0xA DUP4 DUP2 SLOAD DUP2 LT PUSH2 0x1068 JUMPI PUSH2 0x1068 PUSH2 0x46C5 JUMP JUMPDEST PUSH0 SWAP2 DUP3 MSTORE PUSH1 0x20 SWAP2 DUP3 SWAP1 KECCAK256 PUSH1 0x40 DUP1 MLOAD PUSH2 0x1C0 DUP2 ADD DUP3 MSTORE PUSH1 0xD SWAP1 SWAP4 MUL SWAP1 SWAP2 ADD DUP1 SLOAD DUP4 MSTORE PUSH1 0x1 DUP2 ADD SLOAD PUSH1 0x1 PUSH1 0x1 PUSH1 0xA0 SHL SUB AND SWAP4 DUP4 ADD SWAP4 SWAP1 SWAP4 MSTORE PUSH1 0x2 DUP4 ADD SLOAD SWAP1 DUP3 ADD MSTORE PUSH1 0x3 DUP3 ADD SLOAD PUSH1 0x60 DUP3 ADD MSTORE PUSH1 0x4 DUP3 ADD SLOAD PUSH1 0x80 DUP3 ADD MSTORE PUSH1 0x5 DUP3 ADD SLOAD PUSH1 0xA0 DUP3 ADD MSTORE PUSH1 0x6 DUP3 ADD SLOAD PUSH1 0xC0 DUP3 ADD MSTORE PUSH1 0x7 DUP3 ADD SLOAD PUSH1 0xE0 DUP3 ADD MSTORE PUSH1 0x8 DUP3 ADD SLOAD PUSH2 0x100 DUP1 DUP4 ADD SWAP2 SWAP1 SWAP2 MSTORE PUSH1 0x9 DUP4 ADD SLOAD PUSH1 0xFF DUP1 DUP3 AND ISZERO ISZERO PUSH2 0x120 DUP6 ADD MSTORE SWAP2 SWAP1 DIV DUP2 AND ISZERO DUP1 ISZERO PUSH2 0x140 DUP5 ADD MSTORE PUSH1 0xA DUP5 ADD SLOAD PUSH2 0x160 DUP5 ADD MSTORE PUSH1 0xB DUP5 ADD SLOAD SWAP1 SWAP2 AND ISZERO ISZERO PUSH2 0x180 DUP4 ADD MSTORE PUSH1 0xC SWAP1 SWAP3 ADD SLOAD PUSH2 0x1A0 DUP3 ADD MSTORE SWAP2 POP PUSH2 0x1140 JUMPI PUSH2 0x160 ADD MLOAD SWAP3 SWAP2 POP POP JUMP JUMPDEST PUSH1 0x40 DUP2 ADD MLOAD ISZERO DUP1 PUSH2 0x1154 JUMPI POP DUP1 PUSH2 0x120 ADD MLOAD ISZERO JUMPDEST ISZERO PUSH2 0x1161 JUMPI POP PUSH0 SWAP3 SWAP2 POP POP JUMP JUMPDEST PUSH1 0xE0 DUP2 ADD MLOAD PUSH0 PUSH2 0x1171 DUP3 DUP3 PUSH2 0x3E0D JUMP JUMPDEST SWAP1 POP DUP2 DUP2 GT PUSH2 0x1184 JUMPI POP PUSH0 SWAP5 SWAP4 POP POP POP POP JUMP JUMPDEST PUSH1 0x40 DUP4 ADD MLOAD PUSH0 SWAP1 DUP4 JUMPDEST DUP4 DUP2 LT ISZERO PUSH2 0x12BB JUMPI PUSH0 PUSH1 0x12 DUP3 DUP2 SLOAD DUP2 LT PUSH2 0x11A9 JUMPI PUSH2 0x11A9 PUSH2 0x46C5 JUMP JUMPDEST SWAP1 PUSH0 MSTORE PUSH1 0x20 PUSH0 KECCAK256 SWAP1 PUSH1 0x3 MUL ADD PUSH1 0x40 MLOAD DUP1 PUSH1 0x60 ADD PUSH1 0x40 MSTORE SWAP1 DUP2 PUSH0 DUP3 ADD SLOAD DUP2 MSTORE PUSH1 0x20 ADD PUSH1 0x1 DUP3 ADD SLOAD DUP2 MSTORE PUSH1 0x20 ADD PUSH1 0x2 DUP3 ADD SLOAD DUP2 MSTORE POP POP SWAP1 POP PUSH0 DUP8 PUSH2 0x180 ADD MLOAD PUSH2 0x11F8 JUMPI PUSH2 0x11F3 DUP4 PUSH2 0x3E5B JUMP JUMPDEST PUSH2 0x11FF JUMP JUMPDEST DUP8 PUSH2 0x1A0 ADD MLOAD JUMPDEST SWAP1 POP PUSH0 PUSH2 0x2710 PUSH2 0x120F DUP4 DUP8 PUSH2 0x4777 JUMP JUMPDEST PUSH2 0x1219 SWAP2 SWAP1 PUSH2 0x478E JUMP JUMPDEST SWAP1 POP DUP9 PUSH1 0x60 ADD MLOAD DUP5 SUB PUSH2 0x12A2 JUMPI DUP3 MLOAD PUSH1 0x20 DUP5 ADD MLOAD PUSH0 PUSH2 0x1238 DUP4 DUP4 PUSH2 0x46B2 JUMP JUMPDEST SWAP1 POP PUSH0 DUP4 DUP14 PUSH1 0x80 ADD MLOAD GT PUSH2 0x124C JUMPI DUP4 PUSH2 0x1252 JUMP JUMPDEST DUP13 PUSH1 0x80 ADD MLOAD JUMPDEST SWAP1 POP DUP3 DUP1 DUP3 LT PUSH2 0x1269 JUMPI POP POP POP POP POP POP POP POP PUSH2 0x12B3 JUMP JUMPDEST PUSH0 PUSH2 0x1274 DUP4 DUP4 PUSH2 0x46B2 JUMP JUMPDEST SWAP1 POP DUP4 PUSH2 0x1281 DUP3 DUP10 PUSH2 0x4777 JUMP JUMPDEST PUSH2 0x128B SWAP2 SWAP1 PUSH2 0x478E JUMP JUMPDEST PUSH2 0x1295 SWAP1 DUP14 PUSH2 0x46D9 JUMP JUMPDEST SWAP12 POP POP POP POP POP POP POP PUSH2 0x12AF JUMP JUMPDEST PUSH2 0x12AC DUP2 DUP8 PUSH2 0x46D9 JUMP JUMPDEST SWAP6 POP JUMPDEST POP POP POP JUMPDEST PUSH1 0x1 ADD PUSH2 0x118D JUMP JUMPDEST POP SWAP1 SWAP7 SWAP6 POP POP POP POP POP POP JUMP JUMPDEST PUSH1 0x1 SLOAD PUSH1 0x1 PUSH1 0x1 PUSH1 0xA0 SHL SUB AND CALLER EQ PUSH2 0x12F1 JUMPI PUSH1 0x40 MLOAD PUSH3 0x461BCD PUSH1 0xE5 SHL DUP2 MSTORE PUSH1 0x4 ADD PUSH2 0x8D6 SWAP1 PUSH2 0x4655 JUMP JUMPDEST DUP5 DUP4 EQ DUP1 ISZERO PUSH2 0x12FF JUMPI POP DUP5 DUP2 EQ JUMPDEST PUSH2 0x133D JUMPI PUSH1 0x40 MLOAD PUSH3 0x461BCD PUSH1 0xE5 SHL DUP2 MSTORE PUSH1 0x20 PUSH1 0x4 DUP3 ADD MSTORE PUSH1 0xF PUSH1 0x24 DUP3 ADD MSTORE PUSH15 0x98CADCCEE8D040DAD2E6DAC2E8C6D PUSH1 0x8B SHL PUSH1 0x44 DUP3 ADD MSTORE PUSH1 0x64 ADD PUSH2 0x8D6 JUMP JUMPDEST DUP5 PUSH2 0x1372 JUMPI PUSH1 0x40 MLOAD PUSH3 0x461BCD PUSH1 0xE5 SHL DUP2 MSTORE PUSH1 0x20 PUSH1 0x4 DUP3 ADD MSTORE PUSH1 0x5 PUSH1 0x24 DUP3 ADD MSTORE PUSH5 0x456D707479 PUSH1 0xD8 SHL PUSH1 0x44 DUP3 ADD MSTORE PUSH1 0x64 ADD PUSH2 0x8D6 JUMP JUMPDEST PUSH0 JUMPDEST DUP6 DUP2 LT ISZERO PUSH2 0x13D7 JUMPI PUSH2 0x13CF DUP8 DUP8 DUP4 DUP2 DUP2 LT PUSH2 0x1391 JUMPI PUSH2 0x1391 PUSH2 0x46C5 JUMP JUMPDEST SWAP1 POP PUSH1 0x20 MUL ADD CALLDATALOAD DUP7 DUP7 DUP5 DUP2 DUP2 LT PUSH2 0x13AA JUMPI PUSH2 0x13AA PUSH2 0x46C5 JUMP JUMPDEST SWAP1 POP PUSH1 0x20 MUL ADD CALLDATALOAD DUP6 DUP6 DUP6 DUP2 DUP2 LT PUSH2 0x13C3 JUMPI PUSH2 0x13C3 PUSH2 0x46C5 JUMP JUMPDEST SWAP1 POP PUSH1 0x20 MUL ADD CALLDATALOAD PUSH2 0x3C97 JUMP JUMPDEST PUSH1 0x1 ADD PUSH2 0x1374 JUMP JUMPDEST POP PUSH1 0x12 SLOAD PUSH32 0xAB080E234EBAB87937F1D48C107ECB8AB6361D9012A0670705E920B9CFFE1011 SWAP1 PUSH2 0x1408 SWAP1 DUP8 SWAP1 PUSH2 0x46B2 JUMP JUMPDEST PUSH1 0x12 SLOAD PUSH2 0x1417 SWAP1 PUSH1 0x1 SWAP1 PUSH2 0x46B2 JUMP JUMPDEST PUSH1 0x40 DUP1 MLOAD SWAP3 DUP4 MSTORE PUSH1 0x20 DUP4 ADD SWAP2 SWAP1 SWAP2 MSTORE ADD PUSH1 0x40 MLOAD DUP1 SWAP2 SUB SWAP1 LOG1 POP POP POP POP POP POP JUMP JUMPDEST PUSH2 0x14BB PUSH1 0x40 MLOAD DUP1 PUSH2 0x220 ADD PUSH1 0x40 MSTORE DUP1 PUSH0 DUP2 MSTORE PUSH1 0x20 ADD PUSH0 DUP2 MSTORE PUSH1 0x20 ADD PUSH0 DUP2 MSTORE PUSH1 0x20 ADD PUSH0 DUP2 MSTORE PUSH1 0x20 ADD PUSH0 DUP2 MSTORE PUSH1 0x20 ADD PUSH0 DUP2 MSTORE PUSH1 0x20 ADD PUSH0 PUSH1 0xFF AND DUP2 MSTORE PUSH1 0x20 ADD PUSH1 0x60 DUP2 MSTORE PUSH1 0x20 ADD PUSH1 0x60 DUP2 MSTORE PUSH1 0x20 ADD PUSH0 PUSH1 0x1 PUSH1 0x1 PUSH1 0xA0 SHL SUB AND DUP2 MSTORE PUSH1 0x20 ADD PUSH0 DUP2 MSTORE PUSH1 0x20 ADD PUSH0 DUP2 MSTORE PUSH1 0x20 ADD PUSH0 DUP2 MSTORE PUSH1 0x20 ADD PUSH0 DUP2 MSTORE PUSH1 0x20 ADD PUSH0 DUP2 MSTORE PUSH1 0x20 ADD PUSH0 DUP2 MSTORE PUSH1 0x20 ADD PUSH0 DUP2 MSTORE POP SWAP1 JUMP JUMPDEST PUSH1 0x40 MLOAD DUP1 PUSH2 0x220 ADD PUSH1 0x40 MSTORE DUP1 PUSH1 0x6 DUP1 SLOAD SWAP1 POP DUP2 MSTORE PUSH1 0x20 ADD PUSH1 0xE SLOAD DUP2 MSTORE PUSH1 0x20 ADD PUSH1 0xA DUP1 SLOAD SWAP1 POP DUP2 MSTORE PUSH1 0x20 ADD PUSH1 0xF SLOAD DUP2 MSTORE PUSH1 0x20 ADD PUSH1 0x10 SLOAD DUP2 MSTORE PUSH1 0x20 ADD PUSH1 0x11 SLOAD DUP2 MSTORE PUSH1 0x20 ADD PUSH32 0x0 PUSH1 0x1 PUSH1 0x1 PUSH1 0xA0 SHL SUB AND PUSH4 0x313CE567 PUSH1 0x40 MLOAD DUP2 PUSH4 0xFFFFFFFF AND PUSH1 0xE0 SHL DUP2 MSTORE PUSH1 0x4 ADD PUSH1 0x20 PUSH1 0x40 MLOAD DUP1 DUP4 SUB DUP2 DUP7 GAS STATICCALL ISZERO DUP1 ISZERO PUSH2 0x1559 JUMPI RETURNDATASIZE PUSH0 PUSH0 RETURNDATACOPY RETURNDATASIZE PUSH0 REVERT JUMPDEST POP POP POP POP PUSH1 0x40 MLOAD RETURNDATASIZE PUSH1 0x1F NOT PUSH1 0x1F DUP3 ADD AND DUP3 ADD DUP1 PUSH1 0x40 MSTORE POP DUP2 ADD SWAP1 PUSH2 0x157D SWAP2 SWAP1 PUSH2 0x47AD JUMP JUMPDEST PUSH1 0xFF AND DUP2 MSTORE PUSH1 0x20 ADD PUSH32 0x0 PUSH1 0x1 PUSH1 0x1 PUSH1 0xA0 SHL SUB AND PUSH4 0x6FDDE03 PUSH1 0x40 MLOAD DUP2 PUSH4 0xFFFFFFFF AND PUSH1 0xE0 SHL DUP2 MSTORE PUSH1 0x4 ADD PUSH0 PUSH1 0x40 MLOAD DUP1 DUP4 SUB DUP2 DUP7 GAS STATICCALL ISZERO DUP1 ISZERO PUSH2 0x15E0 JUMPI RETURNDATASIZE PUSH0 PUSH0 RETURNDATACOPY RETURNDATASIZE PUSH0 REVERT JUMPDEST POP POP POP POP PUSH1 0x40 MLOAD RETURNDATASIZE PUSH0 DUP3 RETURNDATACOPY PUSH1 0x1F RETURNDATASIZE SWAP1 DUP2 ADD PUSH1 0x1F NOT AND DUP3 ADD PUSH1 0x40 MSTORE PUSH2 0x1607 SWAP2 SWAP1 DUP2 ADD SWAP1 PUSH2 0x47E1 JUMP JUMPDEST DUP2 MSTORE PUSH1 0x20 ADD PUSH32 0x0 PUSH1 0x1 PUSH1 0x1 PUSH1 0xA0 SHL SUB AND PUSH4 0x95D89B41 PUSH1 0x40 MLOAD DUP2 PUSH4 0xFFFFFFFF AND PUSH1 0xE0 SHL DUP2 MSTORE PUSH1 0x4 ADD PUSH0 PUSH1 0x40 MLOAD DUP1 DUP4 SUB DUP2 DUP7 GAS STATICCALL ISZERO DUP1 ISZERO PUSH2 0x1667 JUMPI RETURNDATASIZE PUSH0 PUSH0 RETURNDATACOPY RETURNDATASIZE PUSH0 REVERT JUMPDEST POP POP POP POP PUSH1 0x40 MLOAD RETURNDATASIZE PUSH0 DUP3 RETURNDATACOPY PUSH1 0x1F RETURNDATASIZE SWAP1 DUP2 ADD PUSH1 0x1F NOT AND DUP3 ADD PUSH1 0x40 MSTORE PUSH2 0x168E SWAP2 SWAP1 DUP2 ADD SWAP1 PUSH2 0x47E1 JUMP JUMPDEST DUP2 MSTORE PUSH1 0x20 ADD PUSH32 0x0 PUSH1 0x1 PUSH1 0x1 PUSH1 0xA0 SHL SUB AND DUP2 MSTORE PUSH1 0x20 ADD PUSH1 0x3 SLOAD DUP2 MSTORE PUSH1 0x20 ADD PUSH1 0x4 SLOAD DUP2 MSTORE PUSH1 0x20 ADD PUSH1 0x5 SLOAD DUP2 MSTORE PUSH1 0x20 ADD PUSH2 0x16E2 PUSH2 0x2874 JUMP JUMPDEST DUP2 MSTORE PUSH1 0x20 ADD PUSH2 0x16EF PUSH2 0x2FAE JUMP JUMPDEST DUP2 MSTORE PUSH1 0x20 ADD PUSH2 0x16FC PUSH2 0x2A99 JUMP JUMPDEST DUP2 MSTORE PUSH1 0x12 SLOAD PUSH1 0x20 SWAP1 SWAP2 ADD MSTORE SWAP2 SWAP1 POP JUMP JUMPDEST PUSH1 0x60 DUP2 PUSH0 SUB PUSH2 0x171B JUMPI PUSH1 0xC SLOAD SWAP2 POP JUMPDEST PUSH0 PUSH2 0x1726 DUP4 DUP6 PUSH2 0x46D9 JUMP JUMPDEST PUSH1 0xC SLOAD SWAP1 SWAP2 POP DUP5 GT ISZERO PUSH2 0x1739 JUMPI POP PUSH2 0x1943 JUMP JUMPDEST PUSH1 0xC SLOAD DUP2 GT ISZERO PUSH2 0x1748 JUMPI POP PUSH1 0xC SLOAD JUMPDEST PUSH2 0x1752 DUP5 DUP3 PUSH2 0x46B2 JUMP JUMPDEST PUSH8 0xFFFFFFFFFFFFFFFF DUP2 GT ISZERO PUSH2 0x176A JUMPI PUSH2 0x176A PUSH2 0x47CD JUMP JUMPDEST PUSH1 0x40 MLOAD SWAP1 DUP1 DUP3 MSTORE DUP1 PUSH1 0x20 MUL PUSH1 0x20 ADD DUP3 ADD PUSH1 0x40 MSTORE DUP1 ISZERO PUSH2 0x17A3 JUMPI DUP2 PUSH1 0x20 ADD JUMPDEST PUSH2 0x1790 PUSH2 0x3FB5 JUMP JUMPDEST DUP2 MSTORE PUSH1 0x20 ADD SWAP1 PUSH1 0x1 SWAP1 SUB SWAP1 DUP2 PUSH2 0x1788 JUMPI SWAP1 POP JUMPDEST POP SWAP2 POP PUSH0 JUMPDEST PUSH2 0x17B2 DUP6 DUP4 PUSH2 0x46B2 JUMP JUMPDEST DUP2 LT ISZERO PUSH2 0x1940 JUMPI PUSH1 0xA PUSH1 0xC PUSH1 0x1 DUP8 DUP5 PUSH1 0xC DUP1 SLOAD SWAP1 POP PUSH2 0x17D1 SWAP2 SWAP1 PUSH2 0x46B2 JUMP JUMPDEST PUSH2 0x17DB SWAP2 SWAP1 PUSH2 0x46B2 JUMP JUMPDEST PUSH2 0x17E5 SWAP2 SWAP1 PUSH2 0x46B2 JUMP JUMPDEST DUP2 SLOAD DUP2 LT PUSH2 0x17F5 JUMPI PUSH2 0x17F5 PUSH2 0x46C5 JUMP JUMPDEST SWAP1 PUSH0 MSTORE PUSH1 0x20 PUSH0 KECCAK256 ADD SLOAD DUP2 SLOAD DUP2 LT PUSH2 0x180E JUMPI PUSH2 0x180E PUSH2 0x46C5 JUMP JUMPDEST PUSH0 SWAP2 DUP3 MSTORE PUSH1 0x20 SWAP2 DUP3 SWAP1 KECCAK256 PUSH1 0x40 DUP1 MLOAD PUSH2 0x1C0 DUP2 ADD DUP3 MSTORE PUSH1 0xD SWAP1 SWAP4 MUL SWAP1 SWAP2 ADD DUP1 SLOAD DUP4 MSTORE PUSH1 0x1 DUP2 ADD SLOAD PUSH1 0x1 PUSH1 0x1 PUSH1 0xA0 SHL SUB AND SWAP4 DUP4 ADD SWAP4 SWAP1 SWAP4 MSTORE PUSH1 0x2 DUP4 ADD SLOAD SWAP1 DUP3 ADD MSTORE PUSH1 0x3 DUP3 ADD SLOAD PUSH1 0x60 DUP3 ADD MSTORE PUSH1 0x4 DUP3 ADD SLOAD PUSH1 0x80 DUP3 ADD MSTORE PUSH1 0x5 DUP3 ADD SLOAD PUSH1 0xA0 DUP3 ADD MSTORE PUSH1 0x6 DUP3 ADD SLOAD PUSH1 0xC0 DUP3 ADD MSTORE PUSH1 0x7 DUP3 ADD SLOAD PUSH1 0xE0 DUP3 ADD MSTORE PUSH1 0x8 DUP3 ADD SLOAD PUSH2 0x100 DUP1 DUP4 ADD SWAP2 SWAP1 SWAP2 MSTORE PUSH1 0x9 DUP4 ADD SLOAD PUSH1 0xFF DUP1 DUP3 AND ISZERO ISZERO PUSH2 0x120 DUP6 ADD MSTORE SWAP2 SWAP1 DIV DUP2 AND ISZERO ISZERO PUSH2 0x140 DUP4 ADD MSTORE PUSH1 0xA DUP4 ADD SLOAD PUSH2 0x160 DUP4 ADD MSTORE PUSH1 0xB DUP4 ADD SLOAD AND ISZERO ISZERO PUSH2 0x180 DUP3 ADD MSTORE PUSH1 0xC SWAP1 SWAP2 ADD SLOAD PUSH2 0x1A0 DUP3 ADD MSTORE DUP4 MLOAD DUP5 SWAP1 DUP4 SWAP1 DUP2 LT PUSH2 0x18E6 JUMPI PUSH2 0x18E6 PUSH2 0x46C5 JUMP JUMPDEST PUSH1 0x20 MUL PUSH1 0x20 ADD ADD DUP2 SWAP1 MSTORE POP PUSH2 0x1916 DUP4 DUP3 DUP2 MLOAD DUP2 LT PUSH2 0x1906 JUMPI PUSH2 0x1906 PUSH2 0x46C5 JUMP JUMPDEST PUSH1 0x20 MUL PUSH1 0x20 ADD ADD MLOAD PUSH0 ADD MLOAD PUSH2 0x1053 JUMP JUMPDEST DUP4 DUP3 DUP2 MLOAD DUP2 LT PUSH2 0x1928 JUMPI PUSH2 0x1928 PUSH2 0x46C5 JUMP JUMPDEST PUSH1 0x20 SWAP1 DUP2 MUL SWAP2 SWAP1 SWAP2 ADD ADD MLOAD PUSH2 0x100 ADD MSTORE PUSH1 0x1 ADD PUSH2 0x17A8 JUMP JUMPDEST POP POP JUMPDEST SWAP3 SWAP2 POP POP JUMP JUMPDEST PUSH1 0x60 DUP2 PUSH0 SUB PUSH2 0x1958 JUMPI PUSH1 0x6 SLOAD SWAP2 POP JUMPDEST PUSH0 PUSH2 0x1963 DUP4 DUP6 PUSH2 0x46D9 JUMP JUMPDEST PUSH1 0x6 SLOAD SWAP1 SWAP2 POP DUP5 GT ISZERO PUSH2 0x1976 JUMPI POP PUSH2 0x1943 JUMP JUMPDEST PUSH1 0x6 SLOAD DUP2 GT ISZERO PUSH2 0x1985 JUMPI POP PUSH1 0x6 SLOAD JUMPDEST PUSH2 0x198F DUP5 DUP3 PUSH2 0x46B2 JUMP JUMPDEST PUSH8 0xFFFFFFFFFFFFFFFF DUP2 GT ISZERO PUSH2 0x19A7 JUMPI PUSH2 0x19A7 PUSH2 0x47CD JUMP JUMPDEST PUSH1 0x40 MLOAD SWAP1 DUP1 DUP3 MSTORE DUP1 PUSH1 0x20 MUL PUSH1 0x20 ADD DUP3 ADD PUSH1 0x40 MSTORE DUP1 ISZERO PUSH2 0x19D0 JUMPI DUP2 PUSH1 0x20 ADD PUSH1 0x20 DUP3 MUL DUP1 CALLDATASIZE DUP4 CALLDATACOPY ADD SWAP1 POP JUMPDEST POP SWAP2 POP PUSH0 JUMPDEST PUSH2 0x19DF DUP6 DUP4 PUSH2 0x46B2 JUMP JUMPDEST DUP2 LT ISZERO PUSH2 0x1940 JUMPI PUSH1 0x6 DUP1 SLOAD PUSH1 0x1 SWAP1 DUP8 SWAP1 PUSH2 0x19FA SWAP1 DUP6 SWAP1 PUSH2 0x46B2 JUMP JUMPDEST PUSH2 0x1A04 SWAP2 SWAP1 PUSH2 0x46B2 JUMP JUMPDEST PUSH2 0x1A0E SWAP2 SWAP1 PUSH2 0x46B2 JUMP JUMPDEST DUP2 SLOAD DUP2 LT PUSH2 0x1A1E JUMPI PUSH2 0x1A1E PUSH2 0x46C5 JUMP JUMPDEST SWAP1 PUSH0 MSTORE PUSH1 0x20 PUSH0 KECCAK256 ADD PUSH0 SWAP1 SLOAD SWAP1 PUSH2 0x100 EXP SWAP1 DIV PUSH1 0x1 PUSH1 0x1 PUSH1 0xA0 SHL SUB AND DUP4 DUP3 DUP2 MLOAD DUP2 LT PUSH2 0x1A4B JUMPI PUSH2 0x1A4B PUSH2 0x46C5 JUMP JUMPDEST PUSH1 0x1 PUSH1 0x1 PUSH1 0xA0 SHL SUB SWAP1 SWAP3 AND PUSH1 0x20 SWAP3 DUP4 MUL SWAP2 SWAP1 SWAP2 ADD SWAP1 SWAP2 ADD MSTORE PUSH1 0x1 ADD PUSH2 0x19D5 JUMP JUMPDEST PUSH1 0x60 DUP2 PUSH0 SUB PUSH2 0x1A8F JUMPI PUSH1 0x1 PUSH1 0x1 PUSH1 0xA0 SHL SUB DUP5 AND PUSH0 SWAP1 DUP2 MSTORE PUSH1 0x8 PUSH1 0x20 MSTORE PUSH1 0x40 SWAP1 KECCAK256 SLOAD SWAP2 POP JUMPDEST PUSH0 PUSH2 0x1A9A DUP4 DUP6 PUSH2 0x46D9 JUMP JUMPDEST PUSH1 0x1 PUSH1 0x1 PUSH1 0xA0 SHL SUB DUP7 AND PUSH0 SWAP1 DUP2 MSTORE PUSH1 0x8 PUSH1 0x20 MSTORE PUSH1 0x40 SWAP1 KECCAK256 SLOAD SWAP1 SWAP2 POP DUP5 GT ISZERO PUSH2 0x1AC2 JUMPI POP PUSH2 0x1CFB JUMP JUMPDEST PUSH1 0x1 PUSH1 0x1 PUSH1 0xA0 SHL SUB DUP6 AND PUSH0 SWAP1 DUP2 MSTORE PUSH1 0x8 PUSH1 0x20 MSTORE PUSH1 0x40 SWAP1 KECCAK256 SLOAD DUP2 GT ISZERO PUSH2 0x1AFB JUMPI POP PUSH1 0x1 PUSH1 0x1 PUSH1 0xA0 SHL SUB DUP5 AND PUSH0 SWAP1 DUP2 MSTORE PUSH1 0x8 PUSH1 0x20 MSTORE PUSH1 0x40 SWAP1 KECCAK256 SLOAD JUMPDEST PUSH2 0x1B05 DUP5 DUP3 PUSH2 0x46B2 JUMP JUMPDEST PUSH8 0xFFFFFFFFFFFFFFFF DUP2 GT ISZERO PUSH2 0x1B1D JUMPI PUSH2 0x1B1D PUSH2 0x47CD JUMP JUMPDEST PUSH1 0x40 MLOAD SWAP1 DUP1 DUP3 MSTORE DUP1 PUSH1 0x20 MUL PUSH1 0x20 ADD DUP3 ADD PUSH1 0x40 MSTORE DUP1 ISZERO PUSH2 0x1B56 JUMPI DUP2 PUSH1 0x20 ADD JUMPDEST PUSH2 0x1B43 PUSH2 0x3FB5 JUMP JUMPDEST DUP2 MSTORE PUSH1 0x20 ADD SWAP1 PUSH1 0x1 SWAP1 SUB SWAP1 DUP2 PUSH2 0x1B3B JUMPI SWAP1 POP JUMPDEST POP SWAP2 POP PUSH0 JUMPDEST PUSH2 0x1B65 DUP6 DUP4 PUSH2 0x46B2 JUMP JUMPDEST DUP2 LT ISZERO PUSH2 0x1CF8 JUMPI PUSH1 0x1 PUSH1 0x1 PUSH1 0xA0 SHL SUB DUP7 AND PUSH0 SWAP1 DUP2 MSTORE PUSH1 0x8 PUSH1 0x20 MSTORE PUSH1 0x40 SWAP1 KECCAK256 DUP1 SLOAD PUSH1 0xA SWAP2 SWAP1 PUSH1 0x1 SWAP1 DUP9 SWAP1 PUSH2 0x1B99 SWAP1 DUP7 SWAP1 PUSH2 0x46B2 JUMP JUMPDEST PUSH2 0x1BA3 SWAP2 SWAP1 PUSH2 0x46B2 JUMP JUMPDEST PUSH2 0x1BAD SWAP2 SWAP1 PUSH2 0x46B2 JUMP JUMPDEST DUP2 SLOAD DUP2 LT PUSH2 0x1BBD JUMPI PUSH2 0x1BBD PUSH2 0x46C5 JUMP JUMPDEST SWAP1 PUSH0 MSTORE PUSH1 0x20 PUSH0 KECCAK256 ADD SLOAD DUP2 SLOAD DUP2 LT PUSH2 0x1BD6 JUMPI PUSH2 0x1BD6 PUSH2 0x46C5 JUMP JUMPDEST PUSH0 SWAP2 DUP3 MSTORE PUSH1 0x20 SWAP2 DUP3 SWAP1 KECCAK256 PUSH1 0x40 DUP1 MLOAD PUSH2 0x1C0 DUP2 ADD DUP3 MSTORE PUSH1 0xD SWAP1 SWAP4 MUL SWAP1 SWAP2 ADD DUP1 SLOAD DUP4 MSTORE PUSH1 0x1 DUP2 ADD SLOAD PUSH1 0x1 PUSH1 0x1 PUSH1 0xA0 SHL SUB AND SWAP4 DUP4 ADD SWAP4 SWAP1 SWAP4 MSTORE PUSH1 0x2 DUP4 ADD SLOAD SWAP1 DUP3 ADD MSTORE PUSH1 0x3 DUP3 ADD SLOAD PUSH1 0x60 DUP3 ADD MSTORE PUSH1 0x4 DUP3 ADD SLOAD PUSH1 0x80 DUP3 ADD MSTORE PUSH1 0x5 DUP3 ADD SLOAD PUSH1 0xA0 DUP3 ADD MSTORE PUSH1 0x6 DUP3 ADD SLOAD PUSH1 0xC0 DUP3 ADD MSTORE PUSH1 0x7 DUP3 ADD SLOAD PUSH1 0xE0 DUP3 ADD MSTORE PUSH1 0x8 DUP3 ADD SLOAD PUSH2 0x100 DUP1 DUP4 ADD SWAP2 SWAP1 SWAP2 MSTORE PUSH1 0x9 DUP4 ADD SLOAD PUSH1 0xFF DUP1 DUP3 AND ISZERO ISZERO PUSH2 0x120 DUP6 ADD MSTORE SWAP2 SWAP1 DIV DUP2 AND ISZERO ISZERO PUSH2 0x140 DUP4 ADD MSTORE PUSH1 0xA DUP4 ADD SLOAD PUSH2 0x160 DUP4 ADD MSTORE PUSH1 0xB DUP4 ADD SLOAD AND ISZERO ISZERO PUSH2 0x180 DUP3 ADD MSTORE PUSH1 0xC SWAP1 SWAP2 ADD SLOAD PUSH2 0x1A0 DUP3 ADD MSTORE DUP4 MLOAD DUP5 SWAP1 DUP4 SWAP1 DUP2 LT PUSH2 0x1CAE JUMPI PUSH2 0x1CAE PUSH2 0x46C5 JUMP JUMPDEST PUSH1 0x20 MUL PUSH1 0x20 ADD ADD DUP2 SWAP1 MSTORE POP PUSH2 0x1CCE DUP4 DUP3 DUP2 MLOAD DUP2 LT PUSH2 0x1906 JUMPI PUSH2 0x1906 PUSH2 0x46C5 JUMP JUMPDEST DUP4 DUP3 DUP2 MLOAD DUP2 LT PUSH2 0x1CE0 JUMPI PUSH2 0x1CE0 PUSH2 0x46C5 JUMP JUMPDEST PUSH1 0x20 SWAP1 DUP2 MUL SWAP2 SWAP1 SWAP2 ADD ADD MLOAD PUSH2 0x100 ADD MSTORE PUSH1 0x1 ADD PUSH2 0x1B5B JUMP JUMPDEST POP POP JUMPDEST SWAP4 SWAP3 POP POP POP JUMP JUMPDEST PUSH1 0x1 SLOAD PUSH1 0x1 PUSH1 0x1 PUSH1 0xA0 SHL SUB AND CALLER EQ PUSH2 0x1D2C JUMPI PUSH1 0x40 MLOAD PUSH3 0x461BCD PUSH1 0xE5 SHL DUP2 MSTORE PUSH1 0x4 ADD PUSH2 0x8D6 SWAP1 PUSH2 0x4655 JUMP JUMPDEST PUSH1 0x4 SSTORE JUMP JUMPDEST PUSH1 0x60 DUP2 PUSH0 SUB PUSH2 0x1D40 JUMPI PUSH1 0x12 SLOAD SWAP2 POP JUMPDEST PUSH0 PUSH2 0x1D4B DUP4 DUP6 PUSH2 0x46D9 JUMP JUMPDEST PUSH1 0x12 SLOAD SWAP1 SWAP2 POP DUP5 GT ISZERO PUSH2 0x1D5E JUMPI POP PUSH2 0x1943 JUMP JUMPDEST PUSH1 0x12 SLOAD DUP2 GT ISZERO PUSH2 0x1D6D JUMPI POP PUSH1 0x12 SLOAD JUMPDEST PUSH2 0x1D77 DUP5 DUP3 PUSH2 0x46B2 JUMP JUMPDEST PUSH8 0xFFFFFFFFFFFFFFFF DUP2 GT ISZERO PUSH2 0x1D8F JUMPI PUSH2 0x1D8F PUSH2 0x47CD JUMP JUMPDEST PUSH1 0x40 MLOAD SWAP1 DUP1 DUP3 MSTORE DUP1 PUSH1 0x20 MUL PUSH1 0x20 ADD DUP3 ADD PUSH1 0x40 MSTORE DUP1 ISZERO PUSH2 0x1DF9 JUMPI DUP2 PUSH1 0x20 ADD JUMPDEST PUSH2 0x1DE6 PUSH1 0x40 MLOAD DUP1 PUSH1 0xE0 ADD PUSH1 0x40 MSTORE DUP1 PUSH0 DUP2 MSTORE PUSH1 0x20 ADD PUSH0 DUP2 MSTORE PUSH1 0x20 ADD PUSH0 DUP2 MSTORE PUSH1 0x20 ADD PUSH0 DUP2 MSTORE PUSH1 0x20 ADD PUSH0 DUP2 MSTORE PUSH1 0x20 ADD PUSH0 DUP2 MSTORE PUSH1 0x20 ADD PUSH0 DUP2 MSTORE POP SWAP1 JUMP JUMPDEST DUP2 MSTORE PUSH1 0x20 ADD SWAP1 PUSH1 0x1 SWAP1 SUB SWAP1 DUP2 PUSH2 0x1DAD JUMPI SWAP1 POP JUMPDEST POP SWAP2 POP PUSH0 JUMPDEST PUSH2 0x1E08 DUP6 DUP4 PUSH2 0x46B2 JUMP JUMPDEST DUP2 LT ISZERO PUSH2 0x1940 JUMPI PUSH0 PUSH1 0x1 DUP7 DUP4 PUSH1 0x12 DUP1 SLOAD SWAP1 POP PUSH2 0x1E24 SWAP2 SWAP1 PUSH2 0x46B2 JUMP JUMPDEST PUSH2 0x1E2E SWAP2 SWAP1 PUSH2 0x46B2 JUMP JUMPDEST PUSH2 0x1E38 SWAP2 SWAP1 PUSH2 0x46B2 JUMP JUMPDEST SWAP1 POP PUSH1 0x40 MLOAD DUP1 PUSH1 0xE0 ADD PUSH1 0x40 MSTORE DUP1 DUP3 DUP2 MSTORE PUSH1 0x20 ADD PUSH1 0x12 DUP4 DUP2 SLOAD DUP2 LT PUSH2 0x1E5E JUMPI PUSH2 0x1E5E PUSH2 0x46C5 JUMP JUMPDEST SWAP1 PUSH0 MSTORE PUSH1 0x20 PUSH0 KECCAK256 SWAP1 PUSH1 0x3 MUL ADD PUSH0 ADD SLOAD DUP2 MSTORE PUSH1 0x20 ADD PUSH1 0x12 DUP4 DUP2 SLOAD DUP2 LT PUSH2 0x1E85 JUMPI PUSH2 0x1E85 PUSH2 0x46C5 JUMP JUMPDEST SWAP1 PUSH0 MSTORE PUSH1 0x20 PUSH0 KECCAK256 SWAP1 PUSH1 0x3 MUL ADD PUSH1 0x1 ADD SLOAD DUP2 MSTORE PUSH1 0x20 ADD PUSH1 0x12 DUP4 DUP2 SLOAD DUP2 LT PUSH2 0x1EAD JUMPI PUSH2 0x1EAD PUSH2 0x46C5 JUMP JUMPDEST PUSH0 SWAP2 DUP3 MSTORE PUSH1 0x20 DUP1 DUP4 KECCAK256 PUSH1 0x2 PUSH1 0x3 SWAP1 SWAP4 MUL ADD SWAP2 SWAP1 SWAP2 ADD SLOAD DUP4 MSTORE DUP5 DUP3 MSTORE PUSH1 0x13 DUP2 MSTORE PUSH1 0x40 DUP1 DUP4 KECCAK256 SLOAD DUP5 DUP4 ADD MSTORE DUP6 DUP4 MSTORE PUSH1 0x14 DUP3 MSTORE DUP1 DUP4 KECCAK256 SLOAD DUP2 DUP6 ADD MSTORE DUP6 DUP4 MSTORE PUSH1 0x15 SWAP1 SWAP2 MSTORE SWAP1 KECCAK256 SLOAD PUSH1 0x60 SWAP1 SWAP2 ADD MSTORE DUP5 MLOAD DUP6 SWAP1 DUP5 SWAP1 DUP2 LT PUSH2 0x1F0A JUMPI PUSH2 0x1F0A PUSH2 0x46C5 JUMP JUMPDEST PUSH1 0x20 SWAP1 DUP2 MUL SWAP2 SWAP1 SWAP2 ADD ADD MSTORE POP PUSH1 0x1 ADD PUSH2 0x1DFE JUMP JUMPDEST PUSH2 0x1F26 PUSH2 0x36B3 JUMP JUMPDEST PUSH0 PUSH1 0xA DUP3 DUP2 SLOAD DUP2 LT PUSH2 0x1F3A JUMPI PUSH2 0x1F3A PUSH2 0x46C5 JUMP JUMPDEST PUSH0 SWAP2 DUP3 MSTORE PUSH1 0x20 SWAP1 SWAP2 KECCAK256 PUSH1 0xD SWAP1 SWAP2 MUL ADD PUSH1 0x9 DUP2 ADD SLOAD SWAP1 SWAP2 POP PUSH1 0xFF AND PUSH2 0x1F70 JUMPI PUSH1 0x40 MLOAD PUSH3 0x461BCD PUSH1 0xE5 SHL DUP2 MSTORE PUSH1 0x4 ADD PUSH2 0x8D6 SWAP1 PUSH2 0x4894 JUMP JUMPDEST PUSH1 0x1 DUP2 ADD SLOAD PUSH1 0x1 PUSH1 0x1 PUSH1 0xA0 SHL SUB AND CALLER EQ PUSH2 0x1F9C JUMPI PUSH1 0x40 MLOAD PUSH3 0x461BCD PUSH1 0xE5 SHL DUP2 MSTORE PUSH1 0x4 ADD PUSH2 0x8D6 SWAP1 PUSH2 0x46EC JUMP JUMPDEST PUSH0 PUSH2 0x1FA5 PUSH2 0x2A99 JUMP JUMPDEST SWAP1 POP DUP2 PUSH1 0x6 ADD SLOAD DUP2 LT ISZERO PUSH2 0x1FE4 JUMPI PUSH1 0x40 MLOAD PUSH3 0x461BCD PUSH1 0xE5 SHL DUP2 MSTORE PUSH1 0x20 PUSH1 0x4 DUP3 ADD MSTORE PUSH1 0x6 PUSH1 0x24 DUP3 ADD MSTORE PUSH6 0x131BD8DAD959 PUSH1 0xD2 SHL PUSH1 0x44 DUP3 ADD MSTORE PUSH1 0x64 ADD PUSH2 0x8D6 JUMP JUMPDEST PUSH0 PUSH2 0x1FEE DUP5 PUSH2 0x1053 JUMP JUMPDEST SWAP1 POP DUP1 PUSH1 0x11 SLOAD LT ISZERO PUSH2 0x2012 JUMPI PUSH1 0x40 MLOAD PUSH3 0x461BCD PUSH1 0xE5 SHL DUP2 MSTORE PUSH1 0x4 ADD PUSH2 0x8D6 SWAP1 PUSH2 0x470F JUMP JUMPDEST PUSH0 DUP2 DUP5 PUSH1 0x2 ADD SLOAD PUSH2 0x2023 SWAP2 SWAP1 PUSH2 0x46D9 JUMP JUMPDEST SWAP1 POP DUP4 PUSH1 0x2 ADD SLOAD PUSH1 0xF PUSH0 DUP3 DUP3 SLOAD PUSH2 0x203A SWAP2 SWAP1 PUSH2 0x46B2 JUMP JUMPDEST SWAP1 SWAP2 SSTORE POP POP PUSH1 0x9 DUP5 ADD DUP1 SLOAD PUSH1 0xFF NOT AND SWAP1 SSTORE TIMESTAMP PUSH1 0x5 DUP6 ADD SSTORE PUSH1 0x7 DUP5 ADD SLOAD PUSH0 SWAP1 PUSH2 0x2062 SWAP1 DUP3 PUSH2 0x3E0D JUMP JUMPDEST PUSH1 0x7 DUP7 ADD DUP2 SWAP1 SSTORE PUSH1 0x9 DUP6 SWAP1 SSTORE PUSH1 0xE DUP1 SLOAD SWAP2 SWAP3 POP PUSH0 PUSH2 0x207F DUP4 PUSH2 0x48B6 JUMP JUMPDEST SWAP2 SWAP1 POP SSTORE POP DUP3 PUSH1 0x11 PUSH0 DUP3 DUP3 SLOAD PUSH2 0x2095 SWAP2 SWAP1 PUSH2 0x46B2 JUMP JUMPDEST SWAP3 POP POP DUP2 SWAP1 SSTORE POP DUP3 PUSH1 0x10 PUSH0 DUP3 DUP3 SLOAD PUSH2 0x20AD SWAP2 SWAP1 PUSH2 0x46D9 JUMP JUMPDEST SWAP1 SWAP2 SSTORE POP PUSH2 0x20BC SWAP1 POP DUP7 PUSH2 0x3E99 JUMP JUMPDEST PUSH0 DUP5 DUP2 MSTORE PUSH1 0x15 PUSH1 0x20 MSTORE PUSH1 0x40 DUP2 KECCAK256 DUP1 SLOAD DUP6 SWAP3 SWAP1 PUSH2 0x20D9 SWAP1 DUP5 SWAP1 PUSH2 0x46D9 JUMP JUMPDEST SWAP1 SWAP2 SSTORE POP POP PUSH1 0x40 MLOAD PUSH4 0xA9059CBB PUSH1 0xE0 SHL DUP2 MSTORE CALLER PUSH1 0x4 DUP3 ADD MSTORE PUSH1 0x24 DUP2 ADD DUP4 SWAP1 MSTORE PUSH32 0x0 PUSH1 0x1 PUSH1 0x1 PUSH1 0xA0 SHL SUB AND SWAP1 PUSH4 0xA9059CBB SWAP1 PUSH1 0x44 ADD PUSH1 0x20 PUSH1 0x40 MLOAD DUP1 DUP4 SUB DUP2 PUSH0 DUP8 GAS CALL ISZERO DUP1 ISZERO PUSH2 0x2148 JUMPI RETURNDATASIZE PUSH0 PUSH0 RETURNDATACOPY RETURNDATASIZE PUSH0 REVERT JUMPDEST POP POP POP POP PUSH1 0x40 MLOAD RETURNDATASIZE PUSH1 0x1F NOT PUSH1 0x1F DUP3 ADD AND DUP3 ADD DUP1 PUSH1 0x40 MSTORE POP DUP2 ADD SWAP1 PUSH2 0x216C SWAP2 SWAP1 PUSH2 0x4733 JUMP JUMPDEST PUSH2 0x2188 JUMPI PUSH1 0x40 MLOAD PUSH3 0x461BCD PUSH1 0xE5 SHL DUP2 MSTORE PUSH1 0x4 ADD PUSH2 0x8D6 SWAP1 PUSH2 0x474E JUMP JUMPDEST PUSH1 0x40 DUP1 MLOAD DUP8 DUP2 MSTORE PUSH1 0x20 DUP2 ADD DUP5 SWAP1 MSTORE CALLER SWAP2 PUSH32 0x217EA3989B9D3112D2133A930216F444B7FBCAEAA4D5BC0220D099FDC928E71E SWAP2 ADD PUSH1 0x40 MLOAD DUP1 SWAP2 SUB SWAP1 LOG2 POP POP POP POP POP PUSH2 0xFC6 PUSH1 0x1 PUSH0 SSTORE JUMP JUMPDEST PUSH2 0x21D9 PUSH2 0x36B3 JUMP JUMPDEST PUSH0 PUSH1 0xA DUP3 DUP2 SLOAD DUP2 LT PUSH2 0x21ED JUMPI PUSH2 0x21ED PUSH2 0x46C5 JUMP JUMPDEST PUSH0 SWAP2 DUP3 MSTORE PUSH1 0x20 SWAP1 SWAP2 KECCAK256 PUSH1 0xD SWAP1 SWAP2 MUL ADD PUSH1 0x9 DUP2 ADD SLOAD SWAP1 SWAP2 POP PUSH1 0xFF AND PUSH2 0x2223 JUMPI PUSH1 0x40 MLOAD PUSH3 0x461BCD PUSH1 0xE5 SHL DUP2 MSTORE PUSH1 0x4 ADD PUSH2 0x8D6 SWAP1 PUSH2 0x4894 JUMP JUMPDEST PUSH1 0x1 DUP2 ADD SLOAD PUSH1 0x1 PUSH1 0x1 PUSH1 0xA0 SHL SUB AND CALLER EQ PUSH2 0x224F JUMPI PUSH1 0x40 MLOAD PUSH3 0x461BCD PUSH1 0xE5 SHL DUP2 MSTORE PUSH1 0x4 ADD PUSH2 0x8D6 SWAP1 PUSH2 0x46EC JUMP JUMPDEST PUSH0 PUSH2 0x2258 PUSH2 0x2A99 JUMP JUMPDEST SWAP1 POP DUP2 PUSH1 0x6 ADD SLOAD DUP2 LT ISZERO PUSH2 0x2297 JUMPI PUSH1 0x40 MLOAD PUSH3 0x461BCD PUSH1 0xE5 SHL DUP2 MSTORE PUSH1 0x20 PUSH1 0x4 DUP3 ADD MSTORE PUSH1 0x6 PUSH1 0x24 DUP3 ADD MSTORE PUSH6 0x131BD8DAD959 PUSH1 0xD2 SHL PUSH1 0x44 DUP3 ADD MSTORE PUSH1 0x64 ADD PUSH2 0x8D6 JUMP JUMPDEST PUSH0 PUSH2 0x22A1 DUP5 PUSH2 0x1053 JUMP JUMPDEST SWAP1 POP DUP3 PUSH1 0x2 ADD SLOAD PUSH1 0xF PUSH0 DUP3 DUP3 SLOAD PUSH2 0x22B8 SWAP2 SWAP1 PUSH2 0x46B2 JUMP JUMPDEST SWAP1 SWAP2 SSTORE POP POP PUSH1 0x9 DUP1 DUP5 ADD DUP1 SLOAD PUSH2 0xFFFF NOT AND PUSH2 0x100 OR SWAP1 SSTORE PUSH1 0xA DUP5 ADD DUP3 SWAP1 SSTORE TIMESTAMP PUSH1 0x5 DUP6 ADD SSTORE DUP3 SWAP1 SSTORE PUSH1 0xE DUP1 SLOAD SWAP1 PUSH0 PUSH2 0x22EE DUP4 PUSH2 0x48B6 JUMP JUMPDEST SWAP2 SWAP1 POP SSTORE POP PUSH2 0x22FC DUP5 PUSH2 0x3E99 JUMP JUMPDEST PUSH0 DUP3 DUP2 MSTORE PUSH1 0x15 PUSH1 0x20 MSTORE PUSH1 0x40 DUP2 KECCAK256 DUP1 SLOAD DUP4 SWAP3 SWAP1 PUSH2 0x2319 SWAP1 DUP5 SWAP1 PUSH2 0x46D9 JUMP JUMPDEST SWAP3 POP POP DUP2 SWAP1 SSTORE POP DUP1 PUSH1 0x10 PUSH0 DUP3 DUP3 SLOAD PUSH2 0x2331 SWAP2 SWAP1 PUSH2 0x46D9 JUMP JUMPDEST SWAP1 SWAP2 SSTORE POP POP PUSH1 0x1 DUP4 ADD SLOAD PUSH1 0x2 DUP5 ADD SLOAD PUSH1 0x40 MLOAD PUSH4 0xA9059CBB PUSH1 0xE0 SHL DUP2 MSTORE PUSH1 0x1 PUSH1 0x1 PUSH1 0xA0 SHL SUB SWAP3 DUP4 AND PUSH1 0x4 DUP3 ADD MSTORE PUSH1 0x24 DUP2 ADD SWAP2 SWAP1 SWAP2 MSTORE PUSH32 0x0 SWAP1 SWAP2 AND SWAP1 PUSH4 0xA9059CBB SWAP1 PUSH1 0x44 ADD PUSH1 0x20 PUSH1 0x40 MLOAD DUP1 DUP4 SUB DUP2 PUSH0 DUP8 GAS CALL ISZERO DUP1 ISZERO PUSH2 0x23AF JUMPI RETURNDATASIZE PUSH0 PUSH0 RETURNDATACOPY RETURNDATASIZE PUSH0 REVERT JUMPDEST POP POP POP POP PUSH1 0x40 MLOAD RETURNDATASIZE PUSH1 0x1F NOT PUSH1 0x1F DUP3 ADD AND DUP3 ADD DUP1 PUSH1 0x40 MSTORE POP DUP2 ADD SWAP1 PUSH2 0x23D3 SWAP2 SWAP1 PUSH2 0x4733 JUMP JUMPDEST PUSH2 0x23EF JUMPI PUSH1 0x40 MLOAD PUSH3 0x461BCD PUSH1 0xE5 SHL DUP2 MSTORE PUSH1 0x4 ADD PUSH2 0x8D6 SWAP1 PUSH2 0x474E JUMP JUMPDEST PUSH1 0x1 DUP4 ADD SLOAD DUP4 SLOAD PUSH1 0x2 DUP6 ADD SLOAD PUSH1 0x40 DUP1 MLOAD SWAP3 DUP4 MSTORE PUSH1 0x20 DUP4 ADD SWAP2 SWAP1 SWAP2 MSTORE DUP2 ADD DUP4 SWAP1 MSTORE PUSH1 0x1 PUSH1 0x1 PUSH1 0xA0 SHL SUB SWAP1 SWAP2 AND SWAP1 PUSH32 0x2BB9E1005BD12ABFF0A36B08286208299F11BAC0718C4590FD6F4EABD7667CF9 SWAP1 PUSH1 0x60 ADD JUMPDEST PUSH1 0x40 MLOAD DUP1 SWAP2 SUB SWAP1 LOG2 POP POP POP PUSH2 0xFC6 PUSH1 0x1 PUSH0 SSTORE JUMP JUMPDEST PUSH0 DUP5 ISZERO DUP1 PUSH2 0x2461 JUMPI POP DUP3 ISZERO JUMPDEST DUP1 PUSH2 0x246E JUMPI POP PUSH1 0x12 SLOAD DUP5 LT ISZERO JUMPDEST ISZERO PUSH2 0x247A JUMPI POP PUSH0 PUSH2 0x25E6 JUMP JUMPDEST PUSH0 PUSH2 0x2485 DUP5 DUP7 PUSH2 0x46D9 JUMP JUMPDEST PUSH1 0x12 SLOAD SWAP1 SWAP2 POP DUP2 GT ISZERO PUSH2 0x24A6 JUMPI POP PUSH1 0x12 SLOAD DUP5 DUP2 GT PUSH2 0x24A6 JUMPI PUSH0 SWAP2 POP POP PUSH2 0x25E6 JUMP JUMPDEST DUP3 PUSH0 SUB PUSH2 0x24B1 JUMPI TIMESTAMP SWAP3 POP JUMPDEST DUP1 PUSH0 DUP7 JUMPDEST DUP3 DUP2 LT ISZERO PUSH2 0x25E0 JUMPI PUSH1 0x12 SLOAD DUP2 LT ISZERO PUSH2 0x25E0 JUMPI PUSH0 PUSH1 0x12 DUP3 DUP2 SLOAD DUP2 LT PUSH2 0x24DB JUMPI PUSH2 0x24DB PUSH2 0x46C5 JUMP JUMPDEST SWAP1 PUSH0 MSTORE PUSH1 0x20 PUSH0 KECCAK256 SWAP1 PUSH1 0x3 MUL ADD PUSH1 0x40 MLOAD DUP1 PUSH1 0x60 ADD PUSH1 0x40 MSTORE SWAP1 DUP2 PUSH0 DUP3 ADD SLOAD DUP2 MSTORE PUSH1 0x20 ADD PUSH1 0x1 DUP3 ADD SLOAD DUP2 MSTORE PUSH1 0x20 ADD PUSH1 0x2 DUP3 ADD SLOAD DUP2 MSTORE POP POP SWAP1 POP PUSH0 PUSH2 0x251B DUP4 PUSH2 0x3E5B JUMP JUMPDEST SWAP1 POP PUSH0 PUSH2 0x2710 PUSH2 0x252B DUP4 DUP15 PUSH2 0x4777 JUMP JUMPDEST PUSH2 0x2535 SWAP2 SWAP1 PUSH2 0x478E JUMP JUMPDEST SWAP1 POP DUP11 DUP5 SUB PUSH2 0x25C7 JUMPI DUP3 MLOAD PUSH1 0x20 DUP5 ADD MLOAD PUSH0 PUSH2 0x2550 DUP4 DUP4 PUSH2 0x46B2 JUMP JUMPDEST SWAP1 POP PUSH0 DUP4 DUP14 GT PUSH2 0x2560 JUMPI DUP4 PUSH2 0x2562 JUMP JUMPDEST DUP13 JUMPDEST SWAP1 POP DUP3 DUP1 DUP3 LT PUSH2 0x2579 JUMPI POP POP POP POP POP POP POP POP PUSH2 0x25D8 JUMP JUMPDEST PUSH0 PUSH2 0x2584 DUP4 DUP4 PUSH2 0x46B2 JUMP JUMPDEST SWAP1 POP DUP4 PUSH0 SUB PUSH2 0x259B JUMPI POP POP POP POP POP POP POP POP POP PUSH2 0x25D8 JUMP JUMPDEST DUP4 PUSH2 0x25A6 DUP3 DUP10 PUSH2 0x4777 JUMP JUMPDEST PUSH2 0x25B0 SWAP2 SWAP1 PUSH2 0x478E JUMP JUMPDEST PUSH2 0x25BA SWAP1 DUP13 PUSH2 0x46D9 JUMP JUMPDEST SWAP11 POP POP POP POP POP POP POP PUSH2 0x25D4 JUMP JUMPDEST PUSH2 0x25D1 DUP2 DUP7 PUSH2 0x46D9 JUMP JUMPDEST SWAP5 POP JUMPDEST POP POP POP JUMPDEST PUSH1 0x1 ADD PUSH2 0x24B5 JUMP JUMPDEST POP SWAP3 POP POP POP JUMPDEST SWAP5 SWAP4 POP POP POP POP JUMP JUMPDEST PUSH2 0x25F6 PUSH2 0x36B3 JUMP JUMPDEST PUSH1 0x1 SLOAD PUSH1 0x1 PUSH1 0x1 PUSH1 0xA0 SHL SUB AND CALLER EQ PUSH2 0x2620 JUMPI PUSH1 0x40 MLOAD PUSH3 0x461BCD PUSH1 0xE5 SHL DUP2 MSTORE PUSH1 0x4 ADD PUSH2 0x8D6 SWAP1 PUSH2 0x4655 JUMP JUMPDEST PUSH0 PUSH1 0xA DUP3 DUP2 SLOAD DUP2 LT PUSH2 0x2634 JUMPI PUSH2 0x2634 PUSH2 0x46C5 JUMP JUMPDEST PUSH0 SWAP2 DUP3 MSTORE PUSH1 0x20 SWAP1 SWAP2 KECCAK256 PUSH1 0xD SWAP1 SWAP2 MUL ADD PUSH1 0x9 DUP2 ADD SLOAD SWAP1 SWAP2 POP PUSH1 0xFF AND PUSH2 0x268D JUMPI PUSH1 0x40 MLOAD PUSH3 0x461BCD PUSH1 0xE5 SHL DUP2 MSTORE PUSH1 0x20 PUSH1 0x4 DUP3 ADD MSTORE PUSH1 0x10 PUSH1 0x24 DUP3 ADD MSTORE PUSH16 0x4465706F73697420696E616374697665 PUSH1 0x80 SHL PUSH1 0x44 DUP3 ADD MSTORE PUSH1 0x64 ADD PUSH2 0x8D6 JUMP JUMPDEST DUP1 SLOAD PUSH0 SWAP1 DUP2 MSTORE PUSH1 0xB PUSH1 0x20 MSTORE PUSH1 0x40 SWAP1 KECCAK256 SLOAD PUSH1 0xFF AND PUSH2 0x26EC JUMPI PUSH1 0x40 MLOAD PUSH3 0x461BCD PUSH1 0xE5 SHL DUP2 MSTORE PUSH1 0x20 PUSH1 0x4 DUP3 ADD MSTORE PUSH1 0x1F PUSH1 0x24 DUP3 ADD MSTORE PUSH32 0x43616E206F6E6C792063616E63656C206F7261636C65206465706F7369747300 PUSH1 0x44 DUP3 ADD MSTORE PUSH1 0x64 ADD PUSH2 0x8D6 JUMP JUMPDEST PUSH1 0x9 DUP2 ADD DUP1 SLOAD PUSH1 0xFF NOT AND SWAP1 SSTORE PUSH1 0xE DUP1 SLOAD SWAP1 PUSH0 PUSH2 0x2707 DUP4 PUSH2 0x48B6 JUMP JUMPDEST SWAP2 SWAP1 POP SSTORE POP DUP1 PUSH1 0x2 ADD SLOAD PUSH1 0xF PUSH0 DUP3 DUP3 SLOAD PUSH2 0x2721 SWAP2 SWAP1 PUSH2 0x46B2 JUMP JUMPDEST SWAP1 SWAP2 SSTORE POP POP PUSH1 0x2 DUP2 ADD SLOAD PUSH1 0x40 MLOAD PUSH4 0xA9059CBB PUSH1 0xE0 SHL DUP2 MSTORE CALLER PUSH1 0x4 DUP3 ADD MSTORE PUSH1 0x24 DUP2 ADD SWAP2 SWAP1 SWAP2 MSTORE PUSH32 0x0 PUSH1 0x1 PUSH1 0x1 PUSH1 0xA0 SHL SUB AND SWAP1 PUSH4 0xA9059CBB SWAP1 PUSH1 0x44 ADD PUSH1 0x20 PUSH1 0x40 MLOAD DUP1 DUP4 SUB DUP2 PUSH0 DUP8 GAS CALL ISZERO DUP1 ISZERO PUSH2 0x2796 JUMPI RETURNDATASIZE PUSH0 PUSH0 RETURNDATACOPY RETURNDATASIZE PUSH0 REVERT JUMPDEST POP POP POP POP PUSH1 0x40 MLOAD RETURNDATASIZE PUSH1 0x1F NOT PUSH1 0x1F DUP3 ADD AND DUP3 ADD DUP1 PUSH1 0x40 MSTORE POP DUP2 ADD SWAP1 PUSH2 0x27BA SWAP2 SWAP1 PUSH2 0x4733 JUMP JUMPDEST PUSH2 0x27D6 JUMPI PUSH1 0x40 MLOAD PUSH3 0x461BCD PUSH1 0xE5 SHL DUP2 MSTORE PUSH1 0x4 ADD PUSH2 0x8D6 SWAP1 PUSH2 0x474E JUMP JUMPDEST DUP1 SLOAD PUSH1 0x2 DUP3 ADD SLOAD PUSH1 0x40 MLOAD CALLER SWAP3 PUSH32 0x24C9E122007BD4087408943168FBCD65248594530E482B6A9ABE4484767EB0C3 SWAP3 PUSH2 0x2816 SWAP3 SWAP2 DUP3 MSTORE PUSH1 0x20 DUP3 ADD MSTORE PUSH1 0x40 ADD SWAP1 JUMP JUMPDEST PUSH1 0x40 MLOAD DUP1 SWAP2 SUB SWAP1 LOG2 POP PUSH2 0xFC6 PUSH1 0x1 PUSH0 SSTORE JUMP JUMPDEST PUSH1 0x1 SLOAD PUSH1 0x1 PUSH1 0x1 PUSH1 0xA0 SHL SUB AND CALLER EQ PUSH2 0x2852 JUMPI PUSH1 0x40 MLOAD PUSH3 0x461BCD PUSH1 0xE5 SHL DUP2 MSTORE PUSH1 0x4 ADD PUSH2 0x8D6 SWAP1 PUSH2 0x4655 JUMP JUMPDEST PUSH1 0x2 DUP1 SLOAD PUSH1 0x1 PUSH1 0x1 PUSH1 0xA0 SHL SUB NOT AND PUSH1 0x1 PUSH1 0x1 PUSH1 0xA0 SHL SUB SWAP3 SWAP1 SWAP3 AND SWAP2 SWAP1 SWAP2 OR SWAP1 SSTORE JUMP JUMPDEST PUSH0 PUSH0 PUSH1 0x3 SLOAD SWAP1 POP PUSH2 0x2710 DUP2 PUSH1 0xF SLOAD PUSH2 0x288C SWAP2 SWAP1 PUSH2 0x4777 JUMP JUMPDEST PUSH2 0x2896 SWAP2 SWAP1 PUSH2 0x478E JUMP JUMPDEST SWAP2 POP POP SWAP1 JUMP JUMPDEST PUSH1 0xC DUP2 DUP2 SLOAD DUP2 LT PUSH2 0x28AB JUMPI PUSH0 DUP1 REVERT JUMPDEST PUSH0 SWAP2 DUP3 MSTORE PUSH1 0x20 SWAP1 SWAP2 KECCAK256 ADD SLOAD SWAP1 POP DUP2 JUMP JUMPDEST PUSH1 0x1 SLOAD PUSH1 0x1 PUSH1 0x1 PUSH1 0xA0 SHL SUB AND CALLER EQ DUP1 PUSH2 0x28DE JUMPI POP PUSH1 0x2 SLOAD PUSH1 0x1 PUSH1 0x1 PUSH1 0xA0 SHL SUB AND CALLER EQ JUMPDEST PUSH2 0x2921 JUMPI PUSH1 0x40 MLOAD PUSH3 0x461BCD PUSH1 0xE5 SHL DUP2 MSTORE PUSH1 0x20 PUSH1 0x4 DUP3 ADD MSTORE PUSH1 0x14 PUSH1 0x24 DUP3 ADD MSTORE PUSH20 0x4F6E6C79206F776E6572206F72206F7261636C65 PUSH1 0x60 SHL PUSH1 0x44 DUP3 ADD MSTORE PUSH1 0x64 ADD PUSH2 0x8D6 JUMP JUMPDEST PUSH1 0x40 MLOAD PUSH4 0x23B872DD PUSH1 0xE0 SHL DUP2 MSTORE CALLER PUSH1 0x4 DUP3 ADD MSTORE ADDRESS PUSH1 0x24 DUP3 ADD MSTORE PUSH1 0x44 DUP2 ADD DUP3 SWAP1 MSTORE PUSH32 0x0 PUSH1 0x1 PUSH1 0x1 PUSH1 0xA0 SHL SUB AND SWAP1 PUSH4 0x23B872DD SWAP1 PUSH1 0x64 ADD PUSH1 0x20 PUSH1 0x40 MLOAD DUP1 DUP4 SUB DUP2 PUSH0 DUP8 GAS CALL ISZERO DUP1 ISZERO PUSH2 0x2991 JUMPI RETURNDATASIZE PUSH0 PUSH0 RETURNDATACOPY RETURNDATASIZE PUSH0 REVERT JUMPDEST POP POP POP POP PUSH1 0x40 MLOAD RETURNDATASIZE PUSH1 0x1F NOT PUSH1 0x1F DUP3 ADD AND DUP3 ADD DUP1 PUSH1 0x40 MSTORE POP DUP2 ADD SWAP1 PUSH2 0x29B5 SWAP2 SWAP1 PUSH2 0x4733 JUMP JUMPDEST PUSH2 0x29D1 JUMPI PUSH1 0x40 MLOAD PUSH3 0x461BCD PUSH1 0xE5 SHL DUP2 MSTORE PUSH1 0x4 ADD PUSH2 0x8D6 SWAP1 PUSH2 0x48CB JUMP JUMPDEST DUP1 PUSH1 0x11 PUSH0 DUP3 DUP3 SLOAD PUSH2 0x29E2 SWAP2 SWAP1 PUSH2 0x46D9 JUMP JUMPDEST SWAP1 SWAP2 SSTORE POP POP POP JUMP JUMPDEST PUSH1 0x1 SLOAD PUSH1 0x1 PUSH1 0x1 PUSH1 0xA0 SHL SUB AND CALLER EQ PUSH2 0x2A14 JUMPI PUSH1 0x40 MLOAD PUSH3 0x461BCD PUSH1 0xE5 SHL DUP2 MSTORE PUSH1 0x4 ADD PUSH2 0x8D6 SWAP1 PUSH2 0x4655 JUMP JUMPDEST PUSH2 0x2710 DUP2 GT ISZERO PUSH2 0x2A36 JUMPI PUSH1 0x40 MLOAD PUSH3 0x461BCD PUSH1 0xE5 SHL DUP2 MSTORE PUSH1 0x4 ADD PUSH2 0x8D6 SWAP1 PUSH2 0x4679 JUMP JUMPDEST PUSH1 0x3 DUP2 SWAP1 SSTORE PUSH1 0x40 MLOAD DUP2 DUP2 MSTORE PUSH32 0x71CA8C1A2BC00717637FB3E9D048DA574B351106CFCF0832E2DFE20F4E633DCF SWAP1 PUSH1 0x20 ADD PUSH1 0x40 MLOAD DUP1 SWAP2 SUB SWAP1 LOG1 POP JUMP JUMPDEST PUSH1 0x6 DUP2 DUP2 SLOAD DUP2 LT PUSH2 0x2A80 JUMPI PUSH0 DUP1 REVERT JUMPDEST PUSH0 SWAP2 DUP3 MSTORE PUSH1 0x20 SWAP1 SWAP2 KECCAK256 ADD SLOAD PUSH1 0x1 PUSH1 0x1 PUSH1 0xA0 SHL SUB AND SWAP1 POP DUP2 JUMP JUMPDEST PUSH1 0x9 SLOAD PUSH0 SWAP1 TIMESTAMP SWAP1 JUMPDEST PUSH1 0x12 SLOAD DUP2 LT ISZERO PUSH2 0x2B10 JUMPI PUSH1 0x12 DUP2 DUP2 SLOAD DUP2 LT PUSH2 0x2ABE JUMPI PUSH2 0x2ABE PUSH2 0x46C5 JUMP JUMPDEST SWAP1 PUSH0 MSTORE PUSH1 0x20 PUSH0 KECCAK256 SWAP1 PUSH1 0x3 MUL ADD PUSH0 ADD SLOAD DUP3 LT ISZERO DUP1 ISZERO PUSH2 0x2AFD JUMPI POP PUSH1 0x12 DUP2 DUP2 SLOAD DUP2 LT PUSH2 0x2AEA JUMPI PUSH2 0x2AEA PUSH2 0x46C5 JUMP JUMPDEST SWAP1 PUSH0 MSTORE PUSH1 0x20 PUSH0 KECCAK256 SWAP1 PUSH1 0x3 MUL ADD PUSH1 0x1 ADD SLOAD DUP3 LT JUMPDEST ISZERO PUSH2 0x2B08 JUMPI SWAP3 SWAP2 POP POP JUMP JUMPDEST PUSH1 0x1 ADD PUSH2 0x2AA1 JUMP JUMPDEST POP POP PUSH1 0x12 SLOAD SWAP2 SWAP1 POP JUMP JUMPDEST PUSH1 0x1 SLOAD PUSH1 0x1 PUSH1 0x1 PUSH1 0xA0 SHL SUB AND CALLER EQ PUSH2 0x2B44 JUMPI PUSH1 0x40 MLOAD PUSH3 0x461BCD PUSH1 0xE5 SHL DUP2 MSTORE PUSH1 0x4 ADD PUSH2 0x8D6 SWAP1 PUSH2 0x4655 JUMP JUMPDEST PUSH1 0x12 SLOAD PUSH2 0x2B7C JUMPI PUSH1 0x40 MLOAD PUSH3 0x461BCD PUSH1 0xE5 SHL DUP2 MSTORE PUSH1 0x4 ADD PUSH2 0x8D6 SWAP1 PUSH1 0x20 DUP1 DUP3 MSTORE PUSH1 0x4 SWAP1 DUP3 ADD MSTORE PUSH4 0x4E6F6E65 PUSH1 0xE0 SHL PUSH1 0x40 DUP3 ADD MSTORE PUSH1 0x60 ADD SWAP1 JUMP JUMPDEST PUSH1 0x12 DUP1 SLOAD TIMESTAMP SWAP2 SWAP1 PUSH2 0x2B8F SWAP1 PUSH1 0x1 SWAP1 PUSH2 0x46B2 JUMP JUMPDEST DUP2 SLOAD DUP2 LT PUSH2 0x2B9F JUMPI PUSH2 0x2B9F PUSH2 0x46C5 JUMP JUMPDEST SWAP1 PUSH0 MSTORE PUSH1 0x20 PUSH0 KECCAK256 SWAP1 PUSH1 0x3 MUL ADD PUSH0 ADD SLOAD GT PUSH2 0x2BE5 JUMPI PUSH1 0x40 MLOAD PUSH3 0x461BCD PUSH1 0xE5 SHL DUP2 MSTORE PUSH1 0x20 PUSH1 0x4 DUP3 ADD MSTORE PUSH1 0x7 PUSH1 0x24 DUP3 ADD MSTORE PUSH7 0x14DD185C9D1959 PUSH1 0xCA SHL PUSH1 0x44 DUP3 ADD MSTORE PUSH1 0x64 ADD PUSH2 0x8D6 JUMP JUMPDEST PUSH1 0x12 DUP1 SLOAD DUP1 PUSH2 0x2BF6 JUMPI PUSH2 0x2BF6 PUSH2 0x48E7 JUMP JUMPDEST PUSH0 DUP3 DUP2 MSTORE PUSH1 0x20 DUP2 KECCAK256 PUSH1 0x3 PUSH0 NOT SWAP1 SWAP4 ADD SWAP3 DUP4 MUL ADD DUP2 DUP2 SSTORE PUSH1 0x1 DUP2 ADD DUP3 SWAP1 SSTORE PUSH1 0x2 ADD SSTORE SWAP1 SSTORE PUSH1 0x12 SLOAD PUSH1 0x40 MLOAD PUSH32 0xD84BA012185E6B11C267BBF53304405446699FDED2A2A85C6C6523D2CD3FD790 SWAP2 PUSH2 0x2C4E SWAP2 SWAP1 DUP2 MSTORE PUSH1 0x20 ADD SWAP1 JUMP JUMPDEST PUSH1 0x40 MLOAD DUP1 SWAP2 SUB SWAP1 LOG1 JUMP JUMPDEST PUSH1 0xA DUP2 DUP2 SLOAD DUP2 LT PUSH2 0x2C67 JUMPI PUSH0 DUP1 REVERT JUMPDEST PUSH0 SWAP2 DUP3 MSTORE PUSH1 0x20 SWAP1 SWAP2 KECCAK256 PUSH1 0xD SWAP1 SWAP2 MUL ADD DUP1 SLOAD PUSH1 0x1 DUP3 ADD SLOAD PUSH1 0x2 DUP4 ADD SLOAD PUSH1 0x3 DUP5 ADD SLOAD PUSH1 0x4 DUP6 ADD SLOAD PUSH1 0x5 DUP7 ADD SLOAD PUSH1 0x6 DUP8 ADD SLOAD PUSH1 0x7 DUP9 ADD SLOAD PUSH1 0x8 DUP10 ADD SLOAD PUSH1 0x9 DUP11 ADD SLOAD PUSH1 0xA DUP12 ADD SLOAD PUSH1 0xB DUP13 ADD SLOAD PUSH1 0xC SWAP1 SWAP13 ADD SLOAD SWAP11 SWAP13 POP PUSH1 0x1 PUSH1 0x1 PUSH1 0xA0 SHL SUB SWAP1 SWAP10 AND SWAP11 SWAP8 SWAP10 SWAP7 SWAP9 SWAP6 SWAP8 SWAP5 SWAP7 SWAP4 SWAP6 SWAP3 SWAP5 SWAP2 SWAP4 PUSH1 0xFF DUP1 DUP4 AND SWAP5 PUSH2 0x100 SWAP1 SWAP4 DIV DUP2 AND SWAP4 AND SWAP1 DUP15 JUMP JUMPDEST PUSH2 0x2CEE PUSH2 0x36B3 JUMP JUMPDEST PUSH2 0x2CFC CALLER DUP4 DUP4 PUSH0 PUSH0 PUSH0 PUSH2 0x36DB JUMP JUMPDEST PUSH2 0x2D05 PUSH1 0x1 PUSH0 SSTORE JUMP JUMPDEST POP POP JUMP JUMPDEST PUSH1 0x1 SLOAD PUSH1 0x1 PUSH1 0x1 PUSH1 0xA0 SHL SUB AND CALLER EQ PUSH2 0x2D33 JUMPI PUSH1 0x40 MLOAD PUSH3 0x461BCD PUSH1 0xE5 SHL DUP2 MSTORE PUSH1 0x4 ADD PUSH2 0x8D6 SWAP1 PUSH2 0x4655 JUMP JUMPDEST PUSH32 0x0 PUSH1 0x1 PUSH1 0x1 PUSH1 0xA0 SHL SUB AND DUP3 PUSH1 0x1 PUSH1 0x1 PUSH1 0xA0 SHL SUB AND SUB PUSH2 0x2D84 JUMPI PUSH1 0x40 MLOAD PUSH3 0x461BCD PUSH1 0xE5 SHL DUP2 MSTORE PUSH1 0x4 ADD PUSH2 0x8D6 SWAP1 PUSH2 0x48CB JUMP JUMPDEST PUSH1 0x1 SLOAD PUSH1 0x40 MLOAD PUSH4 0xA9059CBB PUSH1 0xE0 SHL DUP2 MSTORE PUSH1 0x1 PUSH1 0x1 PUSH1 0xA0 SHL SUB SWAP2 DUP3 AND PUSH1 0x4 DUP3 ADD MSTORE PUSH1 0x24 DUP2 ADD DUP4 SWAP1 MSTORE SWAP1 DUP4 AND SWAP1 PUSH4 0xA9059CBB SWAP1 PUSH1 0x44 ADD PUSH1 0x20 PUSH1 0x40 MLOAD DUP1 DUP4 SUB DUP2 PUSH0 DUP8 GAS CALL ISZERO DUP1 ISZERO PUSH2 0x2DD4 JUMPI RETURNDATASIZE PUSH0 PUSH0 RETURNDATACOPY RETURNDATASIZE PUSH0 REVERT JUMPDEST POP POP POP POP PUSH1 0x40 MLOAD RETURNDATASIZE PUSH1 0x1F NOT PUSH1 0x1F DUP3 ADD AND DUP3 ADD DUP1 PUSH1 0x40 MSTORE POP DUP2 ADD SWAP1 PUSH2 0x2DF8 SWAP2 SWAP1 PUSH2 0x4733 JUMP JUMPDEST PUSH2 0x2D05 JUMPI PUSH1 0x40 MLOAD PUSH3 0x461BCD PUSH1 0xE5 SHL DUP2 MSTORE PUSH1 0x20 PUSH1 0x4 DUP3 ADD MSTORE PUSH1 0x2 PUSH1 0x24 DUP3 ADD MSTORE PUSH2 0x2299 PUSH1 0xF1 SHL PUSH1 0x44 DUP3 ADD MSTORE PUSH1 0x64 ADD PUSH2 0x8D6 JUMP JUMPDEST PUSH1 0x1 SLOAD PUSH1 0x1 PUSH1 0x1 PUSH1 0xA0 SHL SUB AND CALLER EQ PUSH2 0x2E53 JUMPI PUSH1 0x40 MLOAD PUSH3 0x461BCD PUSH1 0xE5 SHL DUP2 MSTORE PUSH1 0x4 ADD PUSH2 0x8D6 SWAP1 PUSH2 0x4655 JUMP JUMPDEST DUP1 PUSH1 0x11 SLOAD LT ISZERO PUSH2 0x2E75 JUMPI PUSH1 0x40 MLOAD PUSH3 0x461BCD PUSH1 0xE5 SHL DUP2 MSTORE PUSH1 0x4 ADD PUSH2 0x8D6 SWAP1 PUSH2 0x48CB JUMP JUMPDEST PUSH1 0x40 MLOAD PUSH4 0xA9059CBB PUSH1 0xE0 SHL DUP2 MSTORE CALLER PUSH1 0x4 DUP3 ADD MSTORE PUSH1 0x24 DUP2 ADD DUP3 SWAP1 MSTORE PUSH32 0x0 PUSH1 0x1 PUSH1 0x1 PUSH1 0xA0 SHL SUB AND SWAP1 PUSH4 0xA9059CBB SWAP1 PUSH1 0x44 ADD PUSH1 0x20 PUSH1 0x40 MLOAD DUP1 DUP4 SUB DUP2 PUSH0 DUP8 GAS CALL ISZERO DUP1 ISZERO PUSH2 0x2EDF JUMPI RETURNDATASIZE PUSH0 PUSH0 RETURNDATACOPY RETURNDATASIZE PUSH0 REVERT JUMPDEST POP POP POP POP PUSH1 0x40 MLOAD RETURNDATASIZE PUSH1 0x1F NOT PUSH1 0x1F DUP3 ADD AND DUP3 ADD DUP1 PUSH1 0x40 MSTORE POP DUP2 ADD SWAP1 PUSH2 0x2F03 SWAP2 SWAP1 PUSH2 0x4733 JUMP JUMPDEST PUSH2 0x2F34 JUMPI PUSH1 0x40 MLOAD PUSH3 0x461BCD PUSH1 0xE5 SHL DUP2 MSTORE PUSH1 0x20 PUSH1 0x4 DUP3 ADD MSTORE PUSH1 0x2 PUSH1 0x24 DUP3 ADD MSTORE PUSH2 0x2299 PUSH1 0xF1 SHL PUSH1 0x44 DUP3 ADD MSTORE PUSH1 0x64 ADD PUSH2 0x8D6 JUMP JUMPDEST DUP1 PUSH1 0x11 PUSH0 DUP3 DUP3 SLOAD PUSH2 0x29E2 SWAP2 SWAP1 PUSH2 0x46B2 JUMP JUMPDEST PUSH1 0x1 PUSH1 0x1 PUSH1 0xA0 SHL SUB DUP2 AND PUSH0 SWAP1 DUP2 MSTORE PUSH1 0x8 PUSH1 0x20 SWAP1 DUP2 MSTORE PUSH1 0x40 SWAP2 DUP3 SWAP1 KECCAK256 DUP1 SLOAD DUP4 MLOAD DUP2 DUP5 MUL DUP2 ADD DUP5 ADD SWAP1 SWAP5 MSTORE DUP1 DUP5 MSTORE PUSH1 0x60 SWAP4 SWAP3 DUP4 ADD DUP3 DUP3 DUP1 ISZERO PUSH2 0x2FA2 JUMPI PUSH1 0x20 MUL DUP3 ADD SWAP2 SWAP1 PUSH0 MSTORE PUSH1 0x20 PUSH0 KECCAK256 SWAP1 JUMPDEST DUP2 SLOAD DUP2 MSTORE PUSH1 0x20 ADD SWAP1 PUSH1 0x1 ADD SWAP1 DUP1 DUP4 GT PUSH2 0x2F8E JUMPI JUMPDEST POP POP POP POP POP SWAP1 POP SWAP2 SWAP1 POP JUMP JUMPDEST PUSH0 PUSH0 PUSH2 0x2FB8 PUSH2 0x2A99 JUMP JUMPDEST PUSH1 0x12 SLOAD SWAP1 SWAP2 POP DUP2 LT PUSH2 0x2FCB JUMPI PUSH0 SWAP2 POP POP SWAP1 JUMP JUMPDEST PUSH0 PUSH2 0x2FD5 DUP3 PUSH2 0x3E5B JUMP JUMPDEST SWAP1 POP PUSH2 0x2710 DUP2 PUSH1 0xF SLOAD PUSH2 0x2FE8 SWAP2 SWAP1 PUSH2 0x4777 JUMP JUMPDEST PUSH2 0x2FF2 SWAP2 SWAP1 PUSH2 0x478E JUMP JUMPDEST SWAP3 POP POP POP SWAP1 JUMP JUMPDEST PUSH1 0x60 DUP2 PUSH0 SUB PUSH2 0x3008 JUMPI PUSH1 0xA SLOAD SWAP2 POP JUMPDEST PUSH0 PUSH2 0x3013 DUP4 DUP6 PUSH2 0x46D9 JUMP JUMPDEST PUSH1 0xA SLOAD SWAP1 SWAP2 POP DUP5 GT ISZERO PUSH2 0x3026 JUMPI POP PUSH2 0x1943 JUMP JUMPDEST PUSH1 0xA SLOAD DUP2 GT ISZERO PUSH2 0x3035 JUMPI POP PUSH1 0xA SLOAD JUMPDEST PUSH2 0x303F DUP5 DUP3 PUSH2 0x46B2 JUMP JUMPDEST PUSH8 0xFFFFFFFFFFFFFFFF DUP2 GT ISZERO PUSH2 0x3057 JUMPI PUSH2 0x3057 PUSH2 0x47CD JUMP JUMPDEST PUSH1 0x40 MLOAD SWAP1 DUP1 DUP3 MSTORE DUP1 PUSH1 0x20 MUL PUSH1 0x20 ADD DUP3 ADD PUSH1 0x40 MSTORE DUP1 ISZERO PUSH2 0x3090 JUMPI DUP2 PUSH1 0x20 ADD JUMPDEST PUSH2 0x307D PUSH2 0x3FB5 JUMP JUMPDEST DUP2 MSTORE PUSH1 0x20 ADD SWAP1 PUSH1 0x1 SWAP1 SUB SWAP1 DUP2 PUSH2 0x3075 JUMPI SWAP1 POP JUMPDEST POP SWAP2 POP PUSH0 JUMPDEST PUSH2 0x309F DUP6 DUP4 PUSH2 0x46B2 JUMP JUMPDEST DUP2 LT ISZERO PUSH2 0x1940 JUMPI PUSH1 0xA DUP1 SLOAD PUSH1 0x1 SWAP1 DUP8 SWAP1 PUSH2 0x30BA SWAP1 DUP6 SWAP1 PUSH2 0x46B2 JUMP JUMPDEST PUSH2 0x30C4 SWAP2 SWAP1 PUSH2 0x46B2 JUMP JUMPDEST PUSH2 0x30CE SWAP2 SWAP1 PUSH2 0x46B2 JUMP JUMPDEST DUP2 SLOAD DUP2 LT PUSH2 0x30DE JUMPI PUSH2 0x30DE PUSH2 0x46C5 JUMP JUMPDEST PUSH0 SWAP2 DUP3 MSTORE PUSH1 0x20 SWAP2 DUP3 SWAP1 KECCAK256 PUSH1 0x40 DUP1 MLOAD PUSH2 0x1C0 DUP2 ADD DUP3 MSTORE PUSH1 0xD SWAP1 SWAP4 MUL SWAP1 SWAP2 ADD DUP1 SLOAD DUP4 MSTORE PUSH1 0x1 DUP2 ADD SLOAD PUSH1 0x1 PUSH1 0x1 PUSH1 0xA0 SHL SUB AND SWAP4 DUP4 ADD SWAP4 SWAP1 SWAP4 MSTORE PUSH1 0x2 DUP4 ADD SLOAD SWAP1 DUP3 ADD MSTORE PUSH1 0x3 DUP3 ADD SLOAD PUSH1 0x60 DUP3 ADD MSTORE PUSH1 0x4 DUP3 ADD SLOAD PUSH1 0x80 DUP3 ADD MSTORE PUSH1 0x5 DUP3 ADD SLOAD PUSH1 0xA0 DUP3 ADD MSTORE PUSH1 0x6 DUP3 ADD SLOAD PUSH1 0xC0 DUP3 ADD MSTORE PUSH1 0x7 DUP3 ADD SLOAD PUSH1 0xE0 DUP3 ADD MSTORE PUSH1 0x8 DUP3 ADD SLOAD PUSH2 0x100 DUP1 DUP4 ADD SWAP2 SWAP1 SWAP2 MSTORE PUSH1 0x9 DUP4 ADD SLOAD PUSH1 0xFF DUP1 DUP3 AND ISZERO ISZERO PUSH2 0x120 DUP6 ADD MSTORE SWAP2 SWAP1 DIV DUP2 AND ISZERO ISZERO PUSH2 0x140 DUP4 ADD MSTORE PUSH1 0xA DUP4 ADD SLOAD PUSH2 0x160 DUP4 ADD MSTORE PUSH1 0xB DUP4 ADD SLOAD AND ISZERO ISZERO PUSH2 0x180 DUP3 ADD MSTORE PUSH1 0xC SWAP1 SWAP2 ADD SLOAD PUSH2 0x1A0 DUP3 ADD MSTORE DUP4 MLOAD DUP5 SWAP1 DUP4 SWAP1 DUP2 LT PUSH2 0x31B6 JUMPI PUSH2 0x31B6 PUSH2 0x46C5 JUMP JUMPDEST PUSH1 0x20 MUL PUSH1 0x20 ADD ADD DUP2 SWAP1 MSTORE POP PUSH2 0x31D6 DUP4 DUP3 DUP2 MLOAD DUP2 LT PUSH2 0x1906 JUMPI PUSH2 0x1906 PUSH2 0x46C5 JUMP JUMPDEST DUP4 DUP3 DUP2 MLOAD DUP2 LT PUSH2 0x31E8 JUMPI PUSH2 0x31E8 PUSH2 0x46C5 JUMP JUMPDEST PUSH1 0x20 SWAP1 DUP2 MUL SWAP2 SWAP1 SWAP2 ADD ADD MLOAD PUSH2 0x100 ADD MSTORE PUSH1 0x1 ADD PUSH2 0x3095 JUMP JUMPDEST PUSH2 0x3208 PUSH2 0x36B3 JUMP JUMPDEST PUSH0 PUSH1 0xA DUP3 DUP2 SLOAD DUP2 LT PUSH2 0x321C JUMPI PUSH2 0x321C PUSH2 0x46C5 JUMP JUMPDEST PUSH0 SWAP2 DUP3 MSTORE PUSH1 0x20 SWAP1 SWAP2 KECCAK256 PUSH1 0xD SWAP1 SWAP2 MUL ADD PUSH1 0x9 DUP2 ADD SLOAD SWAP1 SWAP2 POP PUSH1 0xFF AND PUSH2 0x3252 JUMPI PUSH1 0x40 MLOAD PUSH3 0x461BCD PUSH1 0xE5 SHL DUP2 MSTORE PUSH1 0x4 ADD PUSH2 0x8D6 SWAP1 PUSH2 0x4894 JUMP JUMPDEST PUSH1 0x1 DUP2 ADD SLOAD PUSH1 0x1 PUSH1 0x1 PUSH1 0xA0 SHL SUB AND CALLER EQ PUSH2 0x327E JUMPI PUSH1 0x40 MLOAD PUSH3 0x461BCD PUSH1 0xE5 SHL DUP2 MSTORE PUSH1 0x4 ADD PUSH2 0x8D6 SWAP1 PUSH2 0x46EC JUMP JUMPDEST PUSH0 PUSH2 0x3288 DUP4 PUSH2 0x1053 JUMP JUMPDEST SWAP1 POP PUSH0 DUP2 GT PUSH2 0x32C6 JUMPI PUSH1 0x40 MLOAD PUSH3 0x461BCD PUSH1 0xE5 SHL DUP2 MSTORE PUSH1 0x20 PUSH1 0x4 DUP3 ADD MSTORE PUSH1 0xA PUSH1 0x24 DUP3 ADD MSTORE PUSH10 0x4E6F2072657761726473 PUSH1 0xB0 SHL PUSH1 0x44 DUP3 ADD MSTORE PUSH1 0x64 ADD PUSH2 0x8D6 JUMP JUMPDEST DUP1 PUSH1 0x11 SLOAD LT ISZERO PUSH2 0x32E8 JUMPI PUSH1 0x40 MLOAD PUSH3 0x461BCD PUSH1 0xE5 SHL DUP2 MSTORE PUSH1 0x4 ADD PUSH2 0x8D6 SWAP1 PUSH2 0x470F JUMP JUMPDEST PUSH0 PUSH2 0x32F7 DUP4 PUSH1 0x7 ADD SLOAD PUSH0 PUSH2 0x3E0D JUMP JUMPDEST SWAP1 POP DUP1 DUP4 PUSH1 0x7 ADD DUP2 SWAP1 SSTORE POP DUP2 PUSH1 0x11 PUSH0 DUP3 DUP3 SLOAD PUSH2 0x3313 SWAP2 SWAP1 PUSH2 0x46B2 JUMP JUMPDEST SWAP3 POP POP DUP2 SWAP1 SSTORE POP DUP2 PUSH1 0x10 PUSH0 DUP3 DUP3 SLOAD PUSH2 0x332B SWAP2 SWAP1 PUSH2 0x46D9 JUMP JUMPDEST SWAP1 SWAP2 SSTORE POP POP PUSH0 DUP2 DUP2 MSTORE PUSH1 0x15 PUSH1 0x20 MSTORE PUSH1 0x40 DUP2 KECCAK256 DUP1 SLOAD DUP5 SWAP3 SWAP1 PUSH2 0x334D SWAP1 DUP5 SWAP1 PUSH2 0x46D9 JUMP JUMPDEST SWAP1 SWAP2 SSTORE POP POP PUSH1 0x40 MLOAD PUSH4 0xA9059CBB PUSH1 0xE0 SHL DUP2 MSTORE CALLER PUSH1 0x4 DUP3 ADD MSTORE PUSH1 0x24 DUP2 ADD DUP4 SWAP1 MSTORE PUSH32 0x0 PUSH1 0x1 PUSH1 0x1 PUSH1 0xA0 SHL SUB AND SWAP1 PUSH4 0xA9059CBB SWAP1 PUSH1 0x44 ADD PUSH1 0x20 PUSH1 0x40 MLOAD DUP1 DUP4 SUB DUP2 PUSH0 DUP8 GAS CALL ISZERO DUP1 ISZERO PUSH2 0x33BC JUMPI RETURNDATASIZE PUSH0 PUSH0 RETURNDATACOPY RETURNDATASIZE PUSH0 REVERT JUMPDEST POP POP POP POP PUSH1 0x40 MLOAD RETURNDATASIZE PUSH1 0x1F NOT PUSH1 0x1F DUP3 ADD AND DUP3 ADD DUP1 PUSH1 0x40 MSTORE POP DUP2 ADD SWAP1 PUSH2 0x33E0 SWAP2 SWAP1 PUSH2 0x4733 JUMP JUMPDEST PUSH2 0x33FC JUMPI PUSH1 0x40 MLOAD PUSH3 0x461BCD PUSH1 0xE5 SHL DUP2 MSTORE PUSH1 0x4 ADD PUSH2 0x8D6 SWAP1 PUSH2 0x474E JUMP JUMPDEST PUSH2 0x3404 PUSH2 0x2A99 JUMP JUMPDEST PUSH1 0x9 SSTORE PUSH1 0x40 DUP1 MLOAD DUP6 DUP2 MSTORE PUSH1 0x20 DUP2 ADD DUP5 SWAP1 MSTORE CALLER SWAP2 PUSH32 0xFA73D3AB3A92ED3F2B694757D8E4B2F3C293654B11B9C79111F8971F861B22B2 SWAP2 ADD PUSH2 0x2441 JUMP JUMPDEST PUSH0 DUP4 ISZERO DUP1 PUSH2 0x344B JUMPI POP DUP3 ISZERO JUMPDEST ISZERO PUSH2 0x3457 JUMPI POP PUSH0 PUSH2 0x1CFB JUMP JUMPDEST DUP2 PUSH0 SUB PUSH2 0x3462 JUMPI TIMESTAMP SWAP2 POP JUMPDEST PUSH0 PUSH2 0x346C DUP4 PUSH2 0x3F43 JUMP JUMPDEST PUSH1 0x12 SLOAD SWAP1 SWAP2 POP DUP2 LT PUSH2 0x3481 JUMPI PUSH0 SWAP2 POP POP PUSH2 0x1CFB JUMP JUMPDEST PUSH0 PUSH2 0x348C DUP6 DUP4 PUSH2 0x46D9 JUMP JUMPDEST PUSH1 0x12 SLOAD SWAP1 SWAP2 POP DUP2 GT ISZERO PUSH2 0x349E JUMPI POP PUSH1 0x12 SLOAD JUMPDEST DUP2 DUP2 GT PUSH2 0x34AF JUMPI PUSH0 SWAP3 POP POP POP PUSH2 0x1CFB JUMP JUMPDEST PUSH0 DUP3 JUMPDEST DUP3 DUP2 LT ISZERO PUSH2 0x35D6 JUMPI PUSH0 PUSH1 0x12 DUP3 DUP2 SLOAD DUP2 LT PUSH2 0x34CE JUMPI PUSH2 0x34CE PUSH2 0x46C5 JUMP JUMPDEST SWAP1 PUSH0 MSTORE PUSH1 0x20 PUSH0 KECCAK256 SWAP1 PUSH1 0x3 MUL ADD PUSH1 0x40 MLOAD DUP1 PUSH1 0x60 ADD PUSH1 0x40 MSTORE SWAP1 DUP2 PUSH0 DUP3 ADD SLOAD DUP2 MSTORE PUSH1 0x20 ADD PUSH1 0x1 DUP3 ADD SLOAD DUP2 MSTORE PUSH1 0x20 ADD PUSH1 0x2 DUP3 ADD SLOAD DUP2 MSTORE POP POP SWAP1 POP PUSH0 PUSH2 0x350E DUP4 PUSH2 0x3E5B JUMP JUMPDEST SWAP1 POP PUSH0 PUSH2 0x2710 PUSH2 0x351E DUP4 DUP14 PUSH2 0x4777 JUMP JUMPDEST PUSH2 0x3528 SWAP2 SWAP1 PUSH2 0x478E JUMP JUMPDEST SWAP1 POP DUP7 DUP5 SUB PUSH2 0x35BD JUMPI DUP3 MLOAD PUSH0 SWAP1 DUP11 GT PUSH2 0x3542 JUMPI DUP4 MLOAD PUSH2 0x3544 JUMP JUMPDEST DUP10 JUMPDEST PUSH1 0x20 DUP6 ADD MLOAD SWAP1 SWAP2 POP DUP1 DUP3 LT PUSH2 0x355D JUMPI POP POP POP POP POP PUSH2 0x35CE JUMP JUMPDEST PUSH0 PUSH2 0x3568 DUP4 DUP4 PUSH2 0x46B2 JUMP JUMPDEST SWAP1 POP PUSH0 DUP7 PUSH0 ADD MLOAD DUP8 PUSH1 0x20 ADD MLOAD PUSH2 0x357E SWAP2 SWAP1 PUSH2 0x46B2 JUMP JUMPDEST SWAP1 POP DUP1 PUSH0 SUB PUSH2 0x3593 JUMPI POP POP POP POP POP POP POP PUSH2 0x35CE JUMP JUMPDEST DUP1 PUSH2 0x359E DUP4 DUP8 PUSH2 0x4777 JUMP JUMPDEST PUSH2 0x35A8 SWAP2 SWAP1 PUSH2 0x478E JUMP JUMPDEST PUSH2 0x35B2 SWAP1 DUP11 PUSH2 0x46D9 JUMP JUMPDEST SWAP9 POP POP POP POP POP PUSH2 0x35CA JUMP JUMPDEST PUSH2 0x35C7 DUP2 DUP7 PUSH2 0x46D9 JUMP JUMPDEST SWAP5 POP JUMPDEST POP POP POP JUMPDEST PUSH1 0x1 ADD PUSH2 0x34B2 JUMP JUMPDEST POP SWAP7 SWAP6 POP POP POP POP POP POP JUMP JUMPDEST PUSH1 0x60 PUSH1 0x6 DUP1 SLOAD DUP1 PUSH1 0x20 MUL PUSH1 0x20 ADD PUSH1 0x40 MLOAD SWAP1 DUP2 ADD PUSH1 0x40 MSTORE DUP1 SWAP3 SWAP2 SWAP1 DUP2 DUP2 MSTORE PUSH1 0x20 ADD DUP3 DUP1 SLOAD DUP1 ISZERO PUSH2 0x3637 JUMPI PUSH1 0x20 MUL DUP3 ADD SWAP2 SWAP1 PUSH0 MSTORE PUSH1 0x20 PUSH0 KECCAK256 SWAP1 JUMPDEST DUP2 SLOAD PUSH1 0x1 PUSH1 0x1 PUSH1 0xA0 SHL SUB AND DUP2 MSTORE PUSH1 0x1 SWAP1 SWAP2 ADD SWAP1 PUSH1 0x20 ADD DUP1 DUP4 GT PUSH2 0x3619 JUMPI JUMPDEST POP POP POP POP POP SWAP1 POP SWAP1 JUMP JUMPDEST PUSH1 0x1 SLOAD PUSH1 0x1 PUSH1 0x1 PUSH1 0xA0 SHL SUB AND CALLER EQ PUSH2 0x366B JUMPI PUSH1 0x40 MLOAD PUSH3 0x461BCD PUSH1 0xE5 SHL DUP2 MSTORE PUSH1 0x4 ADD PUSH2 0x8D6 SWAP1 PUSH2 0x4655 JUMP JUMPDEST PUSH1 0x1 PUSH1 0x1 PUSH1 0xA0 SHL SUB DUP2 AND PUSH2 0x3691 JUMPI PUSH1 0x40 MLOAD PUSH3 0x461BCD PUSH1 0xE5 SHL DUP2 MSTORE PUSH1 0x4 ADD PUSH2 0x8D6 SWAP1 PUSH2 0x48CB JUMP JUMPDEST PUSH1 0x1 DUP1 SLOAD PUSH1 0x1 PUSH1 0x1 PUSH1 0xA0 SHL SUB NOT AND PUSH1 0x1 PUSH1 0x1 PUSH1 0xA0 SHL SUB SWAP3 SWAP1 SWAP3 AND SWAP2 SWAP1 SWAP2 OR SWAP1 SSTORE JUMP JUMPDEST PUSH1 0x2 PUSH0 SLOAD SUB PUSH2 0x36D5 JUMPI PUSH1 0x40 MLOAD PUSH4 0x3EE5AEB5 PUSH1 0xE0 SHL DUP2 MSTORE PUSH1 0x4 ADD PUSH1 0x40 MLOAD DUP1 SWAP2 SUB SWAP1 REVERT JUMPDEST PUSH1 0x2 PUSH0 SSTORE JUMP JUMPDEST PUSH1 0x5 SLOAD DUP6 LT ISZERO PUSH2 0x371A JUMPI PUSH1 0x40 MLOAD PUSH3 0x461BCD PUSH1 0xE5 SHL DUP2 MSTORE PUSH1 0x20 PUSH1 0x4 DUP3 ADD MSTORE PUSH1 0xA PUSH1 0x24 DUP3 ADD MSTORE PUSH10 0x135A5B88185B5BDD5B9D PUSH1 0xB2 SHL PUSH1 0x44 DUP3 ADD MSTORE PUSH1 0x64 ADD PUSH2 0x8D6 JUMP JUMPDEST PUSH1 0x4 SLOAD DUP5 LT ISZERO PUSH2 0x3762 JUMPI PUSH1 0x40 MLOAD PUSH3 0x461BCD PUSH1 0xE5 SHL DUP2 MSTORE PUSH1 0x20 PUSH1 0x4 DUP3 ADD MSTORE PUSH1 0x13 PUSH1 0x24 DUP3 ADD MSTORE PUSH19 0x2637B1B59036BAB9BA1031329033B932B0B2B9 PUSH1 0x69 SHL PUSH1 0x44 DUP3 ADD MSTORE PUSH1 0x64 ADD PUSH2 0x8D6 JUMP JUMPDEST PUSH1 0x12 SLOAD PUSH2 0x379D JUMPI PUSH1 0x40 MLOAD PUSH3 0x461BCD PUSH1 0xE5 SHL DUP2 MSTORE PUSH1 0x20 PUSH1 0x4 DUP3 ADD MSTORE PUSH1 0x9 PUSH1 0x24 DUP3 ADD MSTORE PUSH9 0x4E6F206D6F6E746873 PUSH1 0xB8 SHL PUSH1 0x44 DUP3 ADD MSTORE PUSH1 0x64 ADD PUSH2 0x8D6 JUMP JUMPDEST PUSH0 PUSH2 0x37A6 PUSH2 0x2A99 JUMP JUMPDEST PUSH1 0x12 SLOAD SWAP1 SWAP2 POP DUP2 LT PUSH2 0x37ED JUMPI PUSH1 0x40 MLOAD PUSH3 0x461BCD PUSH1 0xE5 SHL DUP2 MSTORE PUSH1 0x20 PUSH1 0x4 DUP3 ADD MSTORE PUSH1 0x10 PUSH1 0x24 DUP3 ADD MSTORE PUSH16 0x151A5B59481B9BDD0818DBDD995C9959 PUSH1 0x82 SHL PUSH1 0x44 DUP3 ADD MSTORE PUSH1 0x64 ADD PUSH2 0x8D6 JUMP JUMPDEST PUSH0 PUSH2 0x37F8 DUP7 DUP4 PUSH2 0x46D9 JUMP JUMPDEST PUSH1 0x12 SLOAD SWAP1 SWAP2 POP DUP2 GT ISZERO PUSH2 0x385B JUMPI PUSH1 0x40 MLOAD PUSH3 0x461BCD PUSH1 0xE5 SHL DUP2 MSTORE PUSH1 0x20 PUSH1 0x4 DUP3 ADD MSTORE PUSH1 0x25 PUSH1 0x24 DUP3 ADD MSTORE PUSH32 0x4C6F636B20706572696F64206578636565647320636F6E66696775726564206D PUSH1 0x44 DUP3 ADD MSTORE PUSH5 0x6F6E746873 PUSH1 0xD8 SHL PUSH1 0x64 DUP3 ADD MSTORE PUSH1 0x84 ADD PUSH2 0x8D6 JUMP JUMPDEST PUSH1 0x40 MLOAD PUSH4 0x23B872DD PUSH1 0xE0 SHL DUP2 MSTORE CALLER PUSH1 0x4 DUP3 ADD MSTORE ADDRESS PUSH1 0x24 DUP3 ADD MSTORE PUSH1 0x44 DUP2 ADD DUP9 SWAP1 MSTORE PUSH32 0x0 PUSH1 0x1 PUSH1 0x1 PUSH1 0xA0 SHL SUB AND SWAP1 PUSH4 0x23B872DD SWAP1 PUSH1 0x64 ADD PUSH1 0x20 PUSH1 0x40 MLOAD DUP1 DUP4 SUB DUP2 PUSH0 DUP8 GAS CALL ISZERO DUP1 ISZERO PUSH2 0x38CB JUMPI RETURNDATASIZE PUSH0 PUSH0 RETURNDATACOPY RETURNDATASIZE PUSH0 REVERT JUMPDEST POP POP POP POP PUSH1 0x40 MLOAD RETURNDATASIZE PUSH1 0x1F NOT PUSH1 0x1F DUP3 ADD AND DUP3 ADD DUP1 PUSH1 0x40 MSTORE POP DUP2 ADD SWAP1 PUSH2 0x38EF SWAP2 SWAP1 PUSH2 0x4733 JUMP JUMPDEST PUSH2 0x390B JUMPI PUSH1 0x40 MLOAD PUSH3 0x461BCD PUSH1 0xE5 SHL DUP2 MSTORE PUSH1 0x4 ADD PUSH2 0x8D6 SWAP1 PUSH2 0x474E JUMP JUMPDEST PUSH1 0x1 PUSH1 0x1 PUSH1 0xA0 SHL SUB DUP9 AND PUSH0 SWAP1 DUP2 MSTORE PUSH1 0x7 PUSH1 0x20 MSTORE PUSH1 0x40 SWAP1 KECCAK256 SLOAD PUSH1 0xFF AND PUSH2 0x398F JUMPI PUSH1 0x1 PUSH1 0x1 PUSH1 0xA0 SHL SUB DUP9 AND PUSH0 DUP2 DUP2 MSTORE PUSH1 0x7 PUSH1 0x20 MSTORE PUSH1 0x40 DUP2 KECCAK256 DUP1 SLOAD PUSH1 0xFF NOT AND PUSH1 0x1 SWAP1 DUP2 OR SWAP1 SWAP2 SSTORE PUSH1 0x6 DUP1 SLOAD SWAP2 DUP3 ADD DUP2 SSTORE SWAP1 SWAP2 MSTORE PUSH32 0xF652222313E28459528D920B65115C16C04F3EFC82AAEDC97BE59F3F377C0D3F ADD DUP1 SLOAD PUSH1 0x1 PUSH1 0x1 PUSH1 0xA0 SHL SUB NOT AND SWAP1 SWAP2 OR SWAP1 SSTORE JUMPDEST PUSH1 0xA PUSH1 0x40 MLOAD DUP1 PUSH2 0x1C0 ADD PUSH1 0x40 MSTORE DUP1 PUSH1 0xA DUP1 SLOAD SWAP1 POP DUP2 MSTORE PUSH1 0x20 ADD DUP11 PUSH1 0x1 PUSH1 0x1 PUSH1 0xA0 SHL SUB AND DUP2 MSTORE PUSH1 0x20 ADD DUP10 DUP2 MSTORE PUSH1 0x20 ADD DUP5 DUP2 MSTORE PUSH1 0x20 ADD TIMESTAMP DUP2 MSTORE PUSH1 0x20 ADD PUSH0 DUP2 MSTORE PUSH1 0x20 ADD DUP4 DUP2 MSTORE PUSH1 0x20 ADD DUP5 DUP2 MSTORE PUSH1 0x20 ADD PUSH0 DUP2 MSTORE PUSH1 0x20 ADD PUSH1 0x1 ISZERO ISZERO DUP2 MSTORE PUSH1 0x20 ADD PUSH0 ISZERO ISZERO DUP2 MSTORE PUSH1 0x20 ADD PUSH0 DUP2 MSTORE PUSH1 0x20 ADD DUP8 ISZERO ISZERO DUP2 MSTORE PUSH1 0x20 ADD DUP7 DUP2 MSTORE POP SWAP1 DUP1 PUSH1 0x1 DUP2 SLOAD ADD DUP1 DUP3 SSTORE DUP1 SWAP2 POP POP PUSH1 0x1 SWAP1 SUB SWAP1 PUSH0 MSTORE PUSH1 0x20 PUSH0 KECCAK256 SWAP1 PUSH1 0xD MUL ADD PUSH0 SWAP1 SWAP2 SWAP1 SWAP2 SWAP1 SWAP2 POP PUSH0 DUP3 ADD MLOAD DUP2 PUSH0 ADD SSTORE PUSH1 0x20 DUP3 ADD MLOAD DUP2 PUSH1 0x1 ADD PUSH0 PUSH2 0x100 EXP DUP2 SLOAD DUP2 PUSH1 0x1 PUSH1 0x1 PUSH1 0xA0 SHL SUB MUL NOT AND SWAP1 DUP4 PUSH1 0x1 PUSH1 0x1 PUSH1 0xA0 SHL SUB AND MUL OR SWAP1 SSTORE POP PUSH1 0x40 DUP3 ADD MLOAD DUP2 PUSH1 0x2 ADD SSTORE PUSH1 0x60 DUP3 ADD MLOAD DUP2 PUSH1 0x3 ADD SSTORE PUSH1 0x80 DUP3 ADD MLOAD DUP2 PUSH1 0x4 ADD SSTORE PUSH1 0xA0 DUP3 ADD MLOAD DUP2 PUSH1 0x5 ADD SSTORE PUSH1 0xC0 DUP3 ADD MLOAD DUP2 PUSH1 0x6 ADD SSTORE PUSH1 0xE0 DUP3 ADD MLOAD DUP2 PUSH1 0x7 ADD SSTORE PUSH2 0x100 DUP3 ADD MLOAD DUP2 PUSH1 0x8 ADD SSTORE PUSH2 0x120 DUP3 ADD MLOAD DUP2 PUSH1 0x9 ADD PUSH0 PUSH2 0x100 EXP DUP2 SLOAD DUP2 PUSH1 0xFF MUL NOT AND SWAP1 DUP4 ISZERO ISZERO MUL OR SWAP1 SSTORE POP PUSH2 0x140 DUP3 ADD MLOAD DUP2 PUSH1 0x9 ADD PUSH1 0x1 PUSH2 0x100 EXP DUP2 SLOAD DUP2 PUSH1 0xFF MUL NOT AND SWAP1 DUP4 ISZERO ISZERO MUL OR SWAP1 SSTORE POP PUSH2 0x160 DUP3 ADD MLOAD DUP2 PUSH1 0xA ADD SSTORE PUSH2 0x180 DUP3 ADD MLOAD DUP2 PUSH1 0xB ADD PUSH0 PUSH2 0x100 EXP DUP2 SLOAD DUP2 PUSH1 0xFF MUL NOT AND SWAP1 DUP4 ISZERO ISZERO MUL OR SWAP1 SSTORE POP PUSH2 0x1A0 DUP3 ADD MLOAD DUP2 PUSH1 0xC ADD SSTORE POP POP PUSH0 PUSH1 0x1 PUSH1 0xA DUP1 SLOAD SWAP1 POP PUSH2 0x3B31 SWAP2 SWAP1 PUSH2 0x46B2 JUMP JUMPDEST PUSH0 DUP2 DUP2 MSTORE PUSH1 0xB PUSH1 0x20 SWAP1 DUP2 MSTORE PUSH1 0x40 DUP1 DUP4 KECCAK256 DUP1 SLOAD PUSH1 0xFF NOT AND DUP10 ISZERO ISZERO OR SWAP1 SSTORE PUSH1 0x1 PUSH1 0x1 PUSH1 0xA0 SHL SUB DUP14 AND DUP4 MSTORE PUSH1 0x8 DUP3 MSTORE DUP3 KECCAK256 DUP1 SLOAD PUSH1 0x1 DUP2 ADD DUP3 SSTORE SWAP1 DUP4 MSTORE SWAP1 DUP3 KECCAK256 ADD DUP3 SWAP1 SSTORE PUSH1 0x9 DUP6 SWAP1 SSTORE PUSH1 0xF DUP1 SLOAD SWAP3 SWAP4 POP DUP11 SWAP3 SWAP1 SWAP2 SWAP1 PUSH2 0x3B8D SWAP1 DUP5 SWAP1 PUSH2 0x46D9 JUMP JUMPDEST SWAP1 SWAP2 SSTORE POP POP PUSH1 0xE DUP1 SLOAD SWAP1 PUSH0 PUSH2 0x3BA1 DUP4 PUSH2 0x48FB JUMP JUMPDEST SWAP1 SWAP2 SSTORE POP POP PUSH1 0xC DUP1 SLOAD PUSH1 0x1 DUP2 DUP2 ADD DUP4 SSTORE PUSH0 DUP4 SWAP1 MSTORE PUSH32 0xDF6966C971051C3D54EC59162606531493A51404A002842F56009D7E5CF4A8C7 SWAP1 SWAP2 ADD DUP4 SWAP1 SSTORE SWAP1 SLOAD PUSH2 0x3BE8 SWAP2 SWAP1 PUSH2 0x46B2 JUMP JUMPDEST PUSH0 DUP3 DUP2 MSTORE PUSH1 0xD PUSH1 0x20 SWAP1 DUP2 MSTORE PUSH1 0x40 DUP1 DUP4 KECCAK256 SWAP4 SWAP1 SWAP4 SSTORE DUP6 DUP3 MSTORE PUSH1 0x13 SWAP1 MSTORE SWAP1 DUP2 KECCAK256 DUP1 SLOAD SWAP2 PUSH2 0x3C12 DUP4 PUSH2 0x48FB JUMP JUMPDEST SWAP1 SWAP2 SSTORE POP POP PUSH0 DUP4 DUP2 MSTORE PUSH1 0x14 PUSH1 0x20 MSTORE PUSH1 0x40 DUP2 KECCAK256 DUP1 SLOAD DUP11 SWAP3 SWAP1 PUSH2 0x3C34 SWAP1 DUP5 SWAP1 PUSH2 0x46D9 JUMP JUMPDEST SWAP1 SWAP2 SSTORE POP POP PUSH1 0x40 DUP1 MLOAD DUP3 DUP2 MSTORE PUSH1 0x20 DUP2 ADD DUP11 SWAP1 MSTORE SWAP1 DUP2 ADD DUP9 SWAP1 MSTORE PUSH1 0x60 DUP2 ADD DUP4 SWAP1 MSTORE PUSH1 0x1 PUSH1 0x1 PUSH1 0xA0 SHL SUB DUP11 AND SWAP1 PUSH32 0x554F20505671494900B631B0E443E9E7A59743EC9889B05E28D8AC9EA158266B SWAP1 PUSH1 0x80 ADD PUSH1 0x40 MLOAD DUP1 SWAP2 SUB SWAP1 LOG2 POP POP POP POP POP POP POP POP POP JUMP JUMPDEST DUP2 DUP4 LT PUSH2 0x3CD6 JUMPI PUSH1 0x40 MLOAD PUSH3 0x461BCD PUSH1 0xE5 SHL DUP2 MSTORE PUSH1 0x20 PUSH1 0x4 DUP3 ADD MSTORE PUSH1 0xD PUSH1 0x24 DUP3 ADD MSTORE PUSH13 0x496E76616C69642072616E6765 PUSH1 0x98 SHL PUSH1 0x44 DUP3 ADD MSTORE PUSH1 0x64 ADD PUSH2 0x8D6 JUMP JUMPDEST DUP1 ISZERO PUSH2 0x3CFE JUMPI PUSH2 0x2710 DUP2 GT ISZERO PUSH2 0x3CFE JUMPI PUSH1 0x40 MLOAD PUSH3 0x461BCD PUSH1 0xE5 SHL DUP2 MSTORE PUSH1 0x4 ADD PUSH2 0x8D6 SWAP1 PUSH2 0x4679 JUMP JUMPDEST PUSH1 0x12 SLOAD ISZERO PUSH2 0x3D6B JUMPI PUSH1 0x12 DUP1 SLOAD PUSH2 0x3D16 SWAP1 PUSH1 0x1 SWAP1 PUSH2 0x46B2 JUMP JUMPDEST DUP2 SLOAD DUP2 LT PUSH2 0x3D26 JUMPI PUSH2 0x3D26 PUSH2 0x46C5 JUMP JUMPDEST SWAP1 PUSH0 MSTORE PUSH1 0x20 PUSH0 KECCAK256 SWAP1 PUSH1 0x3 MUL ADD PUSH1 0x1 ADD SLOAD DUP4 LT ISZERO PUSH2 0x3D6B JUMPI PUSH1 0x40 MLOAD PUSH3 0x461BCD PUSH1 0xE5 SHL DUP2 MSTORE PUSH1 0x20 PUSH1 0x4 DUP3 ADD MSTORE PUSH1 0x3 PUSH1 0x24 DUP3 ADD MSTORE PUSH3 0x536571 PUSH1 0xE8 SHL PUSH1 0x44 DUP3 ADD MSTORE PUSH1 0x64 ADD PUSH2 0x8D6 JUMP JUMPDEST PUSH1 0x40 DUP1 MLOAD PUSH1 0x60 DUP2 ADD DUP3 MSTORE SWAP4 DUP5 MSTORE PUSH1 0x20 DUP5 ADD SWAP3 DUP4 MSTORE DUP4 ADD SWAP1 DUP2 MSTORE PUSH1 0x12 DUP1 SLOAD PUSH1 0x1 DUP2 ADD DUP3 SSTORE PUSH0 SWAP2 SWAP1 SWAP2 MSTORE SWAP3 MLOAD PUSH32 0xBB8A6A4669BA250D26CD7A459ECA9D215F8307E33AEBE50379BC5A3617EC3444 PUSH1 0x3 SWAP1 SWAP5 MUL SWAP4 DUP5 ADD SSTORE SWAP1 MLOAD PUSH32 0xBB8A6A4669BA250D26CD7A459ECA9D215F8307E33AEBE50379BC5A3617EC3445 DUP4 ADD SSTORE MLOAD PUSH32 0xBB8A6A4669BA250D26CD7A459ECA9D215F8307E33AEBE50379BC5A3617EC3446 SWAP1 SWAP2 ADD SSTORE JUMP JUMPDEST PUSH0 DUP2 PUSH0 SUB PUSH2 0x3E19 JUMPI TIMESTAMP SWAP2 POP JUMPDEST DUP3 JUMPDEST PUSH1 0x12 SLOAD DUP2 LT DUP1 ISZERO PUSH2 0x3E4E JUMPI POP DUP3 PUSH1 0x12 DUP3 DUP2 SLOAD DUP2 LT PUSH2 0x3E3B JUMPI PUSH2 0x3E3B PUSH2 0x46C5 JUMP JUMPDEST SWAP1 PUSH0 MSTORE PUSH1 0x20 PUSH0 KECCAK256 SWAP1 PUSH1 0x3 MUL ADD PUSH1 0x1 ADD SLOAD GT ISZERO JUMPDEST ISZERO PUSH2 0x1CFB JUMPI PUSH1 0x1 ADD PUSH2 0x3E1B JUMP JUMPDEST PUSH0 PUSH0 PUSH1 0x12 DUP4 DUP2 SLOAD DUP2 LT PUSH2 0x3E70 JUMPI PUSH2 0x3E70 PUSH2 0x46C5 JUMP JUMPDEST SWAP1 PUSH0 MSTORE PUSH1 0x20 PUSH0 KECCAK256 SWAP1 PUSH1 0x3 MUL ADD PUSH1 0x2 ADD SLOAD SWAP1 POP DUP1 PUSH0 EQ PUSH2 0x3E8F JUMPI DUP1 PUSH2 0x1CFB JUMP JUMPDEST PUSH1 0x3 SLOAD SWAP4 SWAP3 POP POP POP JUMP JUMPDEST PUSH0 DUP2 DUP2 MSTORE PUSH1 0xD PUSH1 0x20 MSTORE PUSH1 0x40 DUP2 KECCAK256 SLOAD PUSH1 0xC DUP1 SLOAD SWAP2 SWAP3 SWAP2 PUSH2 0x3EBA SWAP1 PUSH1 0x1 SWAP1 PUSH2 0x46B2 JUMP JUMPDEST DUP2 SLOAD DUP2 LT PUSH2 0x3ECA JUMPI PUSH2 0x3ECA PUSH2 0x46C5 JUMP JUMPDEST SWAP1 PUSH0 MSTORE PUSH1 0x20 PUSH0 KECCAK256 ADD SLOAD SWAP1 POP DUP1 PUSH1 0xC DUP4 DUP2 SLOAD DUP2 LT PUSH2 0x3EE9 JUMPI PUSH2 0x3EE9 PUSH2 0x46C5 JUMP JUMPDEST PUSH0 SWAP2 DUP3 MSTORE PUSH1 0x20 DUP1 DUP4 KECCAK256 SWAP1 SWAP2 ADD SWAP3 SWAP1 SWAP3 SSTORE DUP3 DUP2 MSTORE PUSH1 0xD SWAP1 SWAP2 MSTORE PUSH1 0x40 SWAP1 KECCAK256 DUP3 SWAP1 SSTORE PUSH1 0xC DUP1 SLOAD DUP1 PUSH2 0x3F19 JUMPI PUSH2 0x3F19 PUSH2 0x48E7 JUMP JUMPDEST PUSH0 DUP3 DUP2 MSTORE PUSH1 0x20 DUP1 DUP3 KECCAK256 DUP4 ADD PUSH0 NOT SWAP1 DUP2 ADD DUP4 SWAP1 SSTORE SWAP1 SWAP3 ADD SWAP1 SWAP3 SSTORE SWAP4 DUP2 MSTORE PUSH1 0xD SWAP1 SWAP4 MSTORE POP POP PUSH1 0x40 DUP2 KECCAK256 SSTORE JUMP JUMPDEST PUSH0 DUP1 JUMPDEST PUSH1 0x12 SLOAD DUP2 LT ISZERO PUSH2 0x2B10 JUMPI PUSH1 0x12 DUP2 DUP2 SLOAD DUP2 LT PUSH2 0x3F63 JUMPI PUSH2 0x3F63 PUSH2 0x46C5 JUMP JUMPDEST SWAP1 PUSH0 MSTORE PUSH1 0x20 PUSH0 KECCAK256 SWAP1 PUSH1 0x3 MUL ADD PUSH0 ADD SLOAD DUP4 LT ISZERO DUP1 ISZERO PUSH2 0x3FA2 JUMPI POP PUSH1 0x12 DUP2 DUP2 SLOAD DUP2 LT PUSH2 0x3F8F JUMPI PUSH2 0x3F8F PUSH2 0x46C5 JUMP JUMPDEST SWAP1 PUSH0 MSTORE PUSH1 0x20 PUSH0 KECCAK256 SWAP1 PUSH1 0x3 MUL ADD PUSH1 0x1 ADD SLOAD DUP4 LT JUMPDEST ISZERO PUSH2 0x3FAD JUMPI SWAP3 SWAP2 POP POP JUMP JUMPDEST PUSH1 0x1 ADD PUSH2 0x3F46 JUMP JUMPDEST PUSH1 0x40 MLOAD DUP1 PUSH2 0x1C0 ADD PUSH1 0x40 MSTORE DUP1 PUSH0 DUP2 MSTORE PUSH1 0x20 ADD PUSH0 PUSH1 0x1 PUSH1 0x1 PUSH1 0xA0 SHL SUB AND DUP2 MSTORE PUSH1 0x20 ADD PUSH0 DUP2 MSTORE PUSH1 0x20 ADD PUSH0 DUP2 MSTORE PUSH1 0x20 ADD PUSH0 DUP2 MSTORE PUSH1 0x20 ADD PUSH0 DUP2 MSTORE PUSH1 0x20 ADD PUSH0 DUP2 MSTORE PUSH1 0x20 ADD PUSH0 DUP2 MSTORE PUSH1 0x20 ADD PUSH0 DUP2 MSTORE PUSH1 0x20 ADD PUSH0 ISZERO ISZERO DUP2 MSTORE PUSH1 0x20 ADD PUSH0 ISZERO ISZERO DUP2 MSTORE PUSH1 0x20 ADD PUSH0 DUP2 MSTORE PUSH1 0x20 ADD PUSH0 ISZERO ISZERO DUP2 MSTORE PUSH1 0x20 ADD PUSH0 DUP2 MSTORE POP SWAP1 JUMP JUMPDEST PUSH0 PUSH0 PUSH0 PUSH0 PUSH1 0x80 DUP6 DUP8 SUB SLT ISZERO PUSH2 0x4038 JUMPI PUSH0 PUSH0 REVERT JUMPDEST POP POP DUP3 CALLDATALOAD SWAP5 PUSH1 0x20 DUP5 ADD CALLDATALOAD SWAP5 POP PUSH1 0x40 DUP5 ADD CALLDATALOAD SWAP4 PUSH1 0x60 ADD CALLDATALOAD SWAP3 POP SWAP1 POP JUMP JUMPDEST DUP1 CALLDATALOAD PUSH1 0x1 PUSH1 0x1 PUSH1 0xA0 SHL SUB DUP2 AND DUP2 EQ PUSH2 0x406A JUMPI PUSH0 PUSH0 REVERT JUMPDEST SWAP2 SWAP1 POP JUMP JUMPDEST DUP1 ISZERO ISZERO DUP2 EQ PUSH2 0xFC6 JUMPI PUSH0 PUSH0 REVERT JUMPDEST PUSH0 PUSH0 PUSH0 PUSH0 PUSH0 PUSH1 0xA0 DUP7 DUP9 SUB SLT ISZERO PUSH2 0x4090 JUMPI PUSH0 PUSH0 REVERT JUMPDEST PUSH2 0x4099 DUP7 PUSH2 0x4054 JUMP JUMPDEST SWAP5 POP PUSH1 0x20 DUP7 ADD CALLDATALOAD SWAP4 POP PUSH1 0x40 DUP7 ADD CALLDATALOAD SWAP3 POP PUSH1 0x60 DUP7 ADD CALLDATALOAD PUSH2 0x40B7 DUP2 PUSH2 0x406F JUMP JUMPDEST SWAP5 SWAP8 SWAP4 SWAP7 POP SWAP2 SWAP5 PUSH1 0x80 ADD CALLDATALOAD SWAP3 SWAP2 POP POP JUMP JUMPDEST PUSH0 PUSH0 PUSH1 0x40 DUP4 DUP6 SUB SLT ISZERO PUSH2 0x40D9 JUMPI PUSH0 PUSH0 REVERT JUMPDEST PUSH2 0x40E2 DUP4 PUSH2 0x4054 JUMP JUMPDEST SWAP5 PUSH1 0x20 SWAP4 SWAP1 SWAP4 ADD CALLDATALOAD SWAP4 POP POP POP JUMP JUMPDEST PUSH0 PUSH1 0x20 DUP3 DUP5 SUB SLT ISZERO PUSH2 0x4100 JUMPI PUSH0 PUSH0 REVERT JUMPDEST POP CALLDATALOAD SWAP2 SWAP1 POP JUMP JUMPDEST DUP1 MLOAD DUP3 MSTORE PUSH1 0x20 DUP2 ADD MLOAD PUSH2 0x4125 PUSH1 0x20 DUP5 ADD DUP3 PUSH1 0x1 PUSH1 0x1 PUSH1 0xA0 SHL SUB AND SWAP1 MSTORE JUMP JUMPDEST POP PUSH1 0x40 DUP2 ADD MLOAD PUSH1 0x40 DUP4 ADD MSTORE PUSH1 0x60 DUP2 ADD MLOAD PUSH1 0x60 DUP4 ADD MSTORE PUSH1 0x80 DUP2 ADD MLOAD PUSH1 0x80 DUP4 ADD MSTORE PUSH1 0xA0 DUP2 ADD MLOAD PUSH1 0xA0 DUP4 ADD MSTORE PUSH1 0xC0 DUP2 ADD MLOAD PUSH1 0xC0 DUP4 ADD MSTORE PUSH1 0xE0 DUP2 ADD MLOAD PUSH1 0xE0 DUP4 ADD MSTORE PUSH2 0x100 DUP2 ADD MLOAD PUSH2 0x100 DUP4 ADD MSTORE PUSH2 0x120 DUP2 ADD MLOAD PUSH2 0x4183 PUSH2 0x120 DUP5 ADD DUP3 ISZERO ISZERO SWAP1 MSTORE JUMP JUMPDEST POP PUSH2 0x140 DUP2 ADD MLOAD PUSH2 0x4199 PUSH2 0x140 DUP5 ADD DUP3 ISZERO ISZERO SWAP1 MSTORE JUMP JUMPDEST POP PUSH2 0x160 DUP2 ADD MLOAD PUSH2 0x160 DUP4 ADD MSTORE PUSH2 0x180 DUP2 ADD MLOAD PUSH2 0x41BB PUSH2 0x180 DUP5 ADD DUP3 ISZERO ISZERO SWAP1 MSTORE JUMP JUMPDEST POP PUSH2 0x1A0 SWAP1 DUP2 ADD MLOAD SWAP2 ADD MSTORE JUMP JUMPDEST PUSH2 0x1C0 DUP2 ADD PUSH2 0x1943 DUP3 DUP5 PUSH2 0x4107 JUMP JUMPDEST PUSH0 PUSH0 PUSH0 PUSH1 0x60 DUP5 DUP7 SUB SLT ISZERO PUSH2 0x41E9 JUMPI PUSH0 PUSH0 REVERT JUMPDEST POP POP DUP2 CALLDATALOAD SWAP4 PUSH1 0x20 DUP4 ADD CALLDATALOAD SWAP4 POP PUSH1 0x40 SWAP1 SWAP3 ADD CALLDATALOAD SWAP2 SWAP1 POP JUMP JUMPDEST PUSH0 PUSH0 DUP4 PUSH1 0x1F DUP5 ADD SLT PUSH2 0x4210 JUMPI PUSH0 PUSH0 REVERT JUMPDEST POP DUP2 CALLDATALOAD PUSH8 0xFFFFFFFFFFFFFFFF DUP2 GT ISZERO PUSH2 0x4227 JUMPI PUSH0 PUSH0 REVERT JUMPDEST PUSH1 0x20 DUP4 ADD SWAP2 POP DUP4 PUSH1 0x20 DUP3 PUSH1 0x5 SHL DUP6 ADD ADD GT ISZERO PUSH2 0x4241 JUMPI PUSH0 PUSH0 REVERT JUMPDEST SWAP3 POP SWAP3 SWAP1 POP JUMP JUMPDEST PUSH0 PUSH0 PUSH0 PUSH0 PUSH0 PUSH0 PUSH1 0x60 DUP8 DUP10 SUB SLT ISZERO PUSH2 0x425D JUMPI PUSH0 PUSH0 REVERT JUMPDEST DUP7 CALLDATALOAD PUSH8 0xFFFFFFFFFFFFFFFF DUP2 GT ISZERO PUSH2 0x4273 JUMPI PUSH0 PUSH0 REVERT JUMPDEST PUSH2 0x427F DUP10 DUP3 DUP11 ADD PUSH2 0x4200 JUMP JUMPDEST SWAP1 SWAP8 POP SWAP6 POP POP PUSH1 0x20 DUP8 ADD CALLDATALOAD PUSH8 0xFFFFFFFFFFFFFFFF DUP2 GT ISZERO PUSH2 0x429E JUMPI PUSH0 PUSH0 REVERT JUMPDEST PUSH2 0x42AA DUP10 DUP3 DUP11 ADD PUSH2 0x4200 JUMP JUMPDEST SWAP1 SWAP6 POP SWAP4 POP POP PUSH1 0x40 DUP8 ADD CALLDATALOAD PUSH8 0xFFFFFFFFFFFFFFFF DUP2 GT ISZERO PUSH2 0x42C9 JUMPI PUSH0 PUSH0 REVERT JUMPDEST PUSH2 0x42D5 DUP10 DUP3 DUP11 ADD PUSH2 0x4200 JUMP JUMPDEST SWAP8 SWAP11 SWAP7 SWAP10 POP SWAP5 SWAP8 POP SWAP3 SWAP6 SWAP4 SWAP5 SWAP3 POP POP POP JUMP JUMPDEST PUSH0 DUP2 MLOAD DUP1 DUP5 MSTORE DUP1 PUSH1 0x20 DUP5 ADD PUSH1 0x20 DUP7 ADD MCOPY PUSH0 PUSH1 0x20 DUP3 DUP7 ADD ADD MSTORE PUSH1 0x20 PUSH1 0x1F NOT PUSH1 0x1F DUP4 ADD AND DUP6 ADD ADD SWAP2 POP POP SWAP3 SWAP2 POP POP JUMP JUMPDEST PUSH1 0x20 DUP2 MSTORE DUP2 MLOAD PUSH1 0x20 DUP3 ADD MSTORE PUSH1 0x20 DUP3 ADD MLOAD PUSH1 0x40 DUP3 ADD MSTORE PUSH1 0x40 DUP3 ADD MLOAD PUSH1 0x60 DUP3 ADD MSTORE PUSH1 0x60 DUP3 ADD MLOAD PUSH1 0x80 DUP3 ADD MSTORE PUSH1 0x80 DUP3 ADD MLOAD PUSH1 0xA0 DUP3 ADD MSTORE PUSH1 0xA0 DUP3 ADD MLOAD PUSH1 0xC0 DUP3 ADD MSTORE PUSH0 PUSH1 0xC0 DUP4 ADD MLOAD PUSH2 0x4367 PUSH1 0xE0 DUP5 ADD DUP3 PUSH1 0xFF AND SWAP1 MSTORE JUMP JUMPDEST POP PUSH1 0xE0 DUP4 ADD MLOAD PUSH2 0x220 PUSH2 0x100 DUP5 ADD MSTORE PUSH2 0x4384 PUSH2 0x240 DUP5 ADD DUP3 PUSH2 0x42E7 JUMP JUMPDEST SWAP1 POP PUSH2 0x100 DUP5 ADD MLOAD PUSH1 0x1F NOT DUP5 DUP4 SUB ADD PUSH2 0x120 DUP6 ADD MSTORE PUSH2 0x43A3 DUP3 DUP3 PUSH2 0x42E7 JUMP JUMPDEST SWAP2 POP POP PUSH2 0x120 DUP5 ADD MLOAD PUSH2 0x43C2 PUSH2 0x140 DUP6 ADD DUP3 PUSH1 0x1 PUSH1 0x1 PUSH1 0xA0 SHL SUB AND SWAP1 MSTORE JUMP JUMPDEST POP PUSH2 0x140 DUP5 ADD MLOAD PUSH2 0x160 DUP5 ADD MSTORE PUSH2 0x160 DUP5 ADD MLOAD PUSH2 0x180 DUP5 ADD MSTORE PUSH2 0x180 DUP5 ADD MLOAD PUSH2 0x1A0 DUP5 ADD MSTORE PUSH2 0x1A0 DUP5 ADD MLOAD PUSH2 0x1C0 DUP5 ADD MSTORE PUSH2 0x1C0 DUP5 ADD MLOAD PUSH2 0x1E0 DUP5 ADD MSTORE PUSH2 0x1E0 DUP5 ADD MLOAD PUSH2 0x200 DUP5 ADD MSTORE PUSH2 0x200 DUP5 ADD MLOAD PUSH2 0x220 DUP5 ADD MSTORE DUP1 SWAP2 POP POP SWAP3 SWAP2 POP POP JUMP JUMPDEST PUSH0 PUSH0 PUSH1 0x40 DUP4 DUP6 SUB SLT ISZERO PUSH2 0x4432 JUMPI PUSH0 PUSH0 REVERT JUMPDEST POP POP DUP1 CALLDATALOAD SWAP3 PUSH1 0x20 SWAP1 SWAP2 ADD CALLDATALOAD SWAP2 POP JUMP JUMPDEST PUSH1 0x20 DUP1 DUP3 MSTORE DUP3 MLOAD DUP3 DUP3 ADD DUP2 SWAP1 MSTORE PUSH0 SWAP2 DUP5 ADD SWAP1 PUSH1 0x40 DUP5 ADD SWAP1 DUP4 JUMPDEST DUP2 DUP2 LT ISZERO PUSH2 0x4484 JUMPI PUSH2 0x446D DUP4 DUP6 MLOAD PUSH2 0x4107 JUMP JUMPDEST PUSH1 0x20 SWAP4 SWAP1 SWAP4 ADD SWAP3 PUSH2 0x1C0 SWAP3 SWAP1 SWAP3 ADD SWAP2 PUSH1 0x1 ADD PUSH2 0x445A JUMP JUMPDEST POP SWAP1 SWAP6 SWAP5 POP POP POP POP POP JUMP JUMPDEST PUSH0 PUSH1 0x20 DUP3 DUP5 SUB SLT ISZERO PUSH2 0x449F JUMPI PUSH0 PUSH0 REVERT JUMPDEST PUSH2 0x1CFB DUP3 PUSH2 0x4054 JUMP JUMPDEST PUSH1 0x20 DUP1 DUP3 MSTORE DUP3 MLOAD DUP3 DUP3 ADD DUP2 SWAP1 MSTORE PUSH0 SWAP2 DUP5 ADD SWAP1 PUSH1 0x40 DUP5 ADD SWAP1 DUP4 JUMPDEST DUP2 DUP2 LT ISZERO PUSH2 0x4484 JUMPI DUP4 MLOAD PUSH1 0x1 PUSH1 0x1 PUSH1 0xA0 SHL SUB AND DUP4 MSTORE PUSH1 0x20 SWAP4 DUP5 ADD SWAP4 SWAP1 SWAP3 ADD SWAP2 PUSH1 0x1 ADD PUSH2 0x44C1 JUMP JUMPDEST PUSH0 PUSH0 PUSH0 PUSH1 0x60 DUP5 DUP7 SUB SLT ISZERO PUSH2 0x44FA JUMPI PUSH0 PUSH0 REVERT JUMPDEST PUSH2 0x4503 DUP5 PUSH2 0x4054 JUMP JUMPDEST SWAP6 PUSH1 0x20 DUP6 ADD CALLDATALOAD SWAP6 POP PUSH1 0x40 SWAP1 SWAP5 ADD CALLDATALOAD SWAP4 SWAP3 POP POP POP JUMP JUMPDEST PUSH1 0x20 DUP1 DUP3 MSTORE DUP3 MLOAD DUP3 DUP3 ADD DUP2 SWAP1 MSTORE PUSH0 SWAP2 DUP5 ADD SWAP1 PUSH1 0x40 DUP5 ADD SWAP1 DUP4 JUMPDEST DUP2 DUP2 LT ISZERO PUSH2 0x4484 JUMPI DUP4 MLOAD DUP1 MLOAD DUP5 MSTORE PUSH1 0x20 DUP2 ADD MLOAD PUSH1 0x20 DUP6 ADD MSTORE PUSH1 0x40 DUP2 ADD MLOAD PUSH1 0x40 DUP6 ADD MSTORE PUSH1 0x60 DUP2 ADD MLOAD PUSH1 0x60 DUP6 ADD MSTORE PUSH1 0x80 DUP2 ADD MLOAD PUSH1 0x80 DUP6 ADD MSTORE PUSH1 0xA0 DUP2 ADD MLOAD PUSH1 0xA0 DUP6 ADD MSTORE PUSH1 0xC0 DUP2 ADD MLOAD PUSH1 0xC0 DUP6 ADD MSTORE POP PUSH1 0xE0 DUP4 ADD SWAP3 POP PUSH1 0x20 DUP5 ADD SWAP4 POP PUSH1 0x1 DUP2 ADD SWAP1 POP PUSH2 0x4531 JUMP JUMPDEST DUP15 DUP2 MSTORE PUSH1 0x1 PUSH1 0x1 PUSH1 0xA0 SHL SUB DUP15 AND PUSH1 0x20 DUP3 ADD MSTORE PUSH1 0x40 DUP2 ADD DUP14 SWAP1 MSTORE PUSH1 0x60 DUP2 ADD DUP13 SWAP1 MSTORE PUSH1 0x80 DUP2 ADD DUP12 SWAP1 MSTORE PUSH1 0xA0 DUP2 ADD DUP11 SWAP1 MSTORE PUSH1 0xC0 DUP2 ADD DUP10 SWAP1 MSTORE PUSH1 0xE0 DUP2 ADD DUP9 SWAP1 MSTORE PUSH2 0x100 DUP2 ADD DUP8 SWAP1 MSTORE DUP6 ISZERO ISZERO PUSH2 0x120 DUP3 ADD MSTORE DUP5 ISZERO ISZERO PUSH2 0x140 DUP3 ADD MSTORE PUSH2 0x1C0 DUP2 ADD DUP5 PUSH2 0x160 DUP4 ADD MSTORE PUSH2 0x4604 PUSH2 0x180 DUP4 ADD DUP6 ISZERO ISZERO SWAP1 MSTORE JUMP JUMPDEST DUP3 PUSH2 0x1A0 DUP4 ADD MSTORE SWAP16 SWAP15 POP POP POP POP POP POP POP POP POP POP POP POP POP POP POP JUMP JUMPDEST PUSH1 0x20 DUP1 DUP3 MSTORE DUP3 MLOAD DUP3 DUP3 ADD DUP2 SWAP1 MSTORE PUSH0 SWAP2 DUP5 ADD SWAP1 PUSH1 0x40 DUP5 ADD SWAP1 DUP4 JUMPDEST DUP2 DUP2 LT ISZERO PUSH2 0x4484 JUMPI DUP4 MLOAD DUP4 MSTORE PUSH1 0x20 SWAP4 DUP5 ADD SWAP4 SWAP1 SWAP3 ADD SWAP2 PUSH1 0x1 ADD PUSH2 0x4637 JUMP JUMPDEST PUSH1 0x20 DUP1 DUP3 MSTORE PUSH1 0xA SWAP1 DUP3 ADD MSTORE PUSH10 0x27B7363C9037BBB732B9 PUSH1 0xB1 SHL PUSH1 0x40 DUP3 ADD MSTORE PUSH1 0x60 ADD SWAP1 JUMP JUMPDEST PUSH1 0x20 DUP1 DUP3 MSTORE PUSH1 0xB SWAP1 DUP3 ADD MSTORE PUSH11 0x52617465203E2031303025 PUSH1 0xA8 SHL PUSH1 0x40 DUP3 ADD MSTORE PUSH1 0x60 ADD SWAP1 JUMP JUMPDEST PUSH4 0x4E487B71 PUSH1 0xE0 SHL PUSH0 MSTORE PUSH1 0x11 PUSH1 0x4 MSTORE PUSH1 0x24 PUSH0 REVERT JUMPDEST DUP2 DUP2 SUB DUP2 DUP2 GT ISZERO PUSH2 0x1943 JUMPI PUSH2 0x1943 PUSH2 0x469E JUMP JUMPDEST PUSH4 0x4E487B71 PUSH1 0xE0 SHL PUSH0 MSTORE PUSH1 0x32 PUSH1 0x4 MSTORE PUSH1 0x24 PUSH0 REVERT JUMPDEST DUP1 DUP3 ADD DUP1 DUP3 GT ISZERO PUSH2 0x1943 JUMPI PUSH2 0x1943 PUSH2 0x469E JUMP JUMPDEST PUSH1 0x20 DUP1 DUP3 MSTORE PUSH1 0x9 SWAP1 DUP3 ADD MSTORE PUSH9 0x2737BA1037BBB732B9 PUSH1 0xB9 SHL PUSH1 0x40 DUP3 ADD MSTORE PUSH1 0x60 ADD SWAP1 JUMP JUMPDEST PUSH1 0x20 DUP1 DUP3 MSTORE PUSH1 0xA SWAP1 DUP3 ADD MSTORE PUSH10 0x456D7074792062616E6B PUSH1 0xB0 SHL PUSH1 0x40 DUP3 ADD MSTORE PUSH1 0x60 ADD SWAP1 JUMP JUMPDEST PUSH0 PUSH1 0x20 DUP3 DUP5 SUB SLT ISZERO PUSH2 0x4743 JUMPI PUSH0 PUSH0 REVERT JUMPDEST DUP2 MLOAD PUSH2 0x1CFB DUP2 PUSH2 0x406F JUMP JUMPDEST PUSH1 0x20 DUP1 DUP3 MSTORE PUSH1 0xF SWAP1 DUP3 ADD MSTORE PUSH15 0x151C985B9CD9995C8819985A5B1959 PUSH1 0x8A SHL PUSH1 0x40 DUP3 ADD MSTORE PUSH1 0x60 ADD SWAP1 JUMP JUMPDEST DUP1 DUP3 MUL DUP2 ISZERO DUP3 DUP3 DIV DUP5 EQ OR PUSH2 0x1943 JUMPI PUSH2 0x1943 PUSH2 0x469E JUMP JUMPDEST PUSH0 DUP3 PUSH2 0x47A8 JUMPI PUSH4 0x4E487B71 PUSH1 0xE0 SHL PUSH0 MSTORE PUSH1 0x12 PUSH1 0x4 MSTORE PUSH1 0x24 PUSH0 REVERT JUMPDEST POP DIV SWAP1 JUMP JUMPDEST PUSH0 PUSH1 0x20 DUP3 DUP5 SUB SLT ISZERO PUSH2 0x47BD JUMPI PUSH0 PUSH0 REVERT JUMPDEST DUP2 MLOAD PUSH1 0xFF DUP2 AND DUP2 EQ PUSH2 0x1CFB JUMPI PUSH0 PUSH0 REVERT JUMPDEST PUSH4 0x4E487B71 PUSH1 0xE0 SHL PUSH0 MSTORE PUSH1 0x41 PUSH1 0x4 MSTORE PUSH1 0x24 PUSH0 REVERT JUMPDEST PUSH0 PUSH1 0x20 DUP3 DUP5 SUB SLT ISZERO PUSH2 0x47F1 JUMPI PUSH0 PUSH0 REVERT JUMPDEST DUP2 MLOAD PUSH8 0xFFFFFFFFFFFFFFFF DUP2 GT ISZERO PUSH2 0x4807 JUMPI PUSH0 PUSH0 REVERT JUMPDEST DUP3 ADD PUSH1 0x1F DUP2 ADD DUP5 SGT PUSH2 0x4817 JUMPI PUSH0 PUSH0 REVERT JUMPDEST DUP1 MLOAD PUSH8 0xFFFFFFFFFFFFFFFF DUP2 GT ISZERO PUSH2 0x4831 JUMPI PUSH2 0x4831 PUSH2 0x47CD JUMP JUMPDEST PUSH1 0x40 MLOAD PUSH1 0x1F DUP3 ADD PUSH1 0x1F NOT SWAP1 DUP2 AND PUSH1 0x3F ADD AND DUP2 ADD PUSH8 0xFFFFFFFFFFFFFFFF DUP2 GT DUP3 DUP3 LT OR ISZERO PUSH2 0x4860 JUMPI PUSH2 0x4860 PUSH2 0x47CD JUMP JUMPDEST PUSH1 0x40 MSTORE DUP2 DUP2 MSTORE DUP3 DUP3 ADD PUSH1 0x20 ADD DUP7 LT ISZERO PUSH2 0x4877 JUMPI PUSH0 PUSH0 REVERT JUMPDEST DUP2 PUSH1 0x20 DUP5 ADD PUSH1 0x20 DUP4 ADD MCOPY PUSH0 SWAP2 DUP2 ADD PUSH1 0x20 ADD SWAP2 SWAP1 SWAP2 MSTORE SWAP5 SWAP4 POP POP POP POP JUMP JUMPDEST PUSH1 0x20 DUP1 DUP3 MSTORE PUSH1 0x8 SWAP1 DUP3 ADD MSTORE PUSH8 0x496E616374697665 PUSH1 0xC0 SHL PUSH1 0x40 DUP3 ADD MSTORE PUSH1 0x60 ADD SWAP1 JUMP JUMPDEST PUSH0 DUP2 PUSH2 0x48C4 JUMPI PUSH2 0x48C4 PUSH2 0x469E JUMP JUMPDEST POP PUSH0 NOT ADD SWAP1 JUMP JUMPDEST PUSH1 0x20 DUP1 DUP3 MSTORE PUSH1 0x2 SWAP1 DUP3 ADD MSTORE PUSH2 0x4531 PUSH1 0xF0 SHL PUSH1 0x40 DUP3 ADD MSTORE PUSH1 0x60 ADD SWAP1 JUMP JUMPDEST PUSH4 0x4E487B71 PUSH1 0xE0 SHL PUSH0 MSTORE PUSH1 0x31 PUSH1 0x4 MSTORE PUSH1 0x24 PUSH0 REVERT JUMPDEST PUSH0 PUSH1 0x1 DUP3 ADD PUSH2 0x490C JUMPI PUSH2 0x490C PUSH2 0x469E JUMP JUMPDEST POP PUSH1 0x1 ADD SWAP1 JUMP INVALID LOG2 PUSH5 0x6970667358 0x22 SLT KECCAK256 LOG4 SWAP8 0x4F PUSH24 0x371648F55A8862EBDE14EC505D89EE690285307782A095F0 0x2B CALLER DUP5 0x2F PUSH5 0x736F6C6343 STOP ADDMOD 0x1E STOP CALLER "
		},
		"gasEstimates": {
			"creation": {
				"codeDepositCost": "3752200",
				"executionCost": "infinite",
				"totalCost": "infinite"
			},
			"external": {
				"_getCurrentMonthIndex()": "infinite",
				"activeDeposits(uint256)": "4674",
				"activeDepositsCount()": "2350",
				"activeDepositsIndex(uint256)": "2536",
				"addMonth(uint256,uint256,uint256)": "infinite",
				"addMonthsBatch(uint256[],uint256[],uint256[])": "infinite",
				"addTokensToBank(uint256)": "infinite",
				"allUsers(uint256)": "4701",
				"bankAmount()": "2351",
				"byOracle(uint256)": "2560",
				"calculatePendingRewardForDeposit(uint256)": "infinite",
				"calculateReward(uint256,uint256,uint256,uint256)": "infinite",
				"calculateRewardByMonths(uint256,uint256,uint256)": "infinite",
				"cancelDeposit(uint256)": "infinite",
				"createDeposit(uint256,uint256)": "infinite",
				"createDepositFor(address,uint256,uint256,bool,uint256)": "infinite",
				"deleteLastMonth()": "53482",
				"deposits(uint256)": "30507",
				"depositsAmount()": "2415",
				"editMonth(uint256,uint256,uint256,uint256)": "infinite",
				"estimateRequiredBankReserve()": "4639",
				"estimateRequiredBankReservePrecise()": "infinite",
				"getActiveDeposits(uint256,uint256)": "infinite",
				"getActiveDepositsCount()": "2369",
				"getAllUsers()": "infinite",
				"getDepositById(uint256)": "infinite",
				"getDeposits(uint256,uint256)": "infinite",
				"getMonths(uint256,uint256)": "infinite",
				"getMonthsCount()": "2370",
				"getSavedReward(uint256)": "infinite",
				"getSummaryInfo()": "infinite",
				"getTotalDeposits()": "2415",
				"getTotalUsers()": "2414",
				"getUserDeposits(address,uint256,uint256)": "infinite",
				"getUserDepositsCount(address)": "2590",
				"getUserDepositsIds(address)": "infinite",
				"getUsers(uint256,uint256)": "infinite",
				"getUsersCount()": "2392",
				"globalRateBps()": "2371",
				"isUser(address)": "2596",
				"lastKnownMonthIndex()": "2353",
				"minLockAmount()": "2352",
				"minLockMonths()": "2393",
				"monthDepositsAmount(uint256)": "2492",
				"monthDepositsCount(uint256)": "2559",
				"monthRewardsAmount(uint256)": "2558",
				"months(uint256)": "8990",
				"oracle()": "2469",
				"owner()": "2427",
				"recoverToken(address,uint256)": "infinite",
				"rewardsPayed()": "2374",
				"safeDeposit(uint256)": "infinite",
				"setGlobalRateBps(uint256)": "25665",
				"setMinLockAmount(uint256)": "24575",
				"setMinLockMonths(uint256)": "24596",
				"setOracle(address)": "26820",
				"stakingToken()": "infinite",
				"transferOwnership(address)": "26810",
				"userDeposits(address,uint256)": "4816",
				"withdrawBank(uint256)": "infinite",
				"withdrawPrincipalAndRewards(uint256)": "infinite",
				"withdrawRewardsOnly(uint256)": "infinite"
			},
			"internal": {
				"_addSingleMonth(uint256,uint256,uint256)": "infinite",
				"_createDeposit(address,uint256,uint256,bool,uint256,bool)": "infinite",
				"_findLastCompletedMonth(uint256,uint256)": "infinite",
				"_getCurrentMonthIndexAt(uint256)": "infinite",
				"_getEffectiveRateBps(uint256)": "6456",
				"_removeFromActiveDeposits(uint256)": "89530"
			}
		},
		"methodIdentifiers": {
			"_getCurrentMonthIndex()": "a5c62cb4",
			"activeDeposits(uint256)": "90693ca7",
			"activeDepositsCount()": "ccbd0007",
			"activeDepositsIndex(uint256)": "23e0ceb2",
			"addMonth(uint256,uint256,uint256)": "23b28a54",
			"addMonthsBatch(uint256[],uint256[],uint256[])": "2ffb3d2a",
			"addTokensToBank(uint256)": "91ba50cd",
			"allUsers(uint256)": "a2bdedf4",
			"bankAmount()": "b42a275e",
			"byOracle(uint256)": "1cc39d57",
			"calculatePendingRewardForDeposit(uint256)": "2e0e3064",
			"calculateReward(uint256,uint256,uint256,uint256)": "7196d3e2",
			"calculateRewardByMonths(uint256,uint256,uint256)": "dd4824a8",
			"cancelDeposit(uint256)": "72fada5c",
			"createDeposit(uint256,uint256)": "b18e71f2",
			"createDepositFor(address,uint256,uint256,bool,uint256)": "06f960bb",
			"deleteLastMonth()": "a9783cd7",
			"deposits(uint256)": "b02c43d0",
			"depositsAmount()": "fe4ab90a",
			"editMonth(uint256,uint256,uint256,uint256)": "05a163b6",
			"estimateRequiredBankReserve()": "8c90926f",
			"estimateRequiredBankReservePrecise()": "d188e3ae",
			"getActiveDeposits(uint256,uint256)": "4106ee75",
			"getActiveDepositsCount()": "d7d43c78",
			"getAllUsers()": "e2842d79",
			"getDepositById(uint256)": "1bfc7761",
			"getDeposits(uint256,uint256)": "d3752830",
			"getMonths(uint256,uint256)": "4eff3d3d",
			"getMonthsCount()": "936d4ffa",
			"getSavedReward(uint256)": "1fb3bd93",
			"getSummaryInfo()": "36261236",
			"getTotalDeposits()": "168a4822",
			"getTotalUsers()": "9be572f6",
			"getUserDeposits(address,uint256,uint256)": "4698b883",
			"getUserDepositsCount(address)": "d6a13301",
			"getUserDepositsIds(address)": "c491eecd",
			"getUsers(uint256,uint256)": "45982a66",
			"getUsersCount()": "a4a1e263",
			"globalRateBps()": "f4f8c847",
			"isUser(address)": "4209fff1",
			"lastKnownMonthIndex()": "000d6386",
			"minLockAmount()": "08804275",
			"minLockMonths()": "f8799e1a",
			"monthDepositsAmount(uint256)": "9d13fa01",
			"monthDepositsCount(uint256)": "41aff23e",
			"monthRewardsAmount(uint256)": "ccaac244",
			"months(uint256)": "1d0205b8",
			"oracle()": "7dc0d1d0",
			"owner()": "8da5cb5b",
			"recoverToken(address,uint256)": "b29a8140",
			"rewardsPayed()": "1c5dc54c",
			"safeDeposit(uint256)": "647fc56c",
			"setGlobalRateBps(uint256)": "9521abc6",
			"setMinLockAmount(uint256)": "0f68ae40",
			"setMinLockMonths(uint256)": "4b4d7aa8",
			"setOracle(address)": "7adbf973",
			"stakingToken()": "72f702f3",
			"transferOwnership(address)": "f2fde38b",
			"userDeposits(address,uint256)": "08f43333",
			"withdrawBank(uint256)": "be2ff4a9",
			"withdrawPrincipalAndRewards(uint256)": "6241ca79",
			"withdrawRewardsOnly(uint256)": "d3d83445"
		}
	},
	"abi": [
		{
			"inputs": [
				{
					"internalType": "address",
					"name": "_stakingToken",
					"type": "address"
				},
				{
					"internalType": "uint256",
					"name": "_globalRateBps",
					"type": "uint256"
				}
			],
			"stateMutability": "nonpayable",
			"type": "constructor"
		},
		{
			"inputs": [],
			"name": "ReentrancyGuardReentrantCall",
			"type": "error"
		},
		{
			"anonymous": false,
			"inputs": [
				{
					"indexed": false,
					"internalType": "uint256",
					"name": "depositId",
					"type": "uint256"
				},
				{
					"indexed": true,
					"internalType": "address",
					"name": "recipient",
					"type": "address"
				},
				{
					"indexed": false,
					"internalType": "uint256",
					"name": "amount",
					"type": "uint256"
				}
			],
			"name": "DepositCancelled",
			"type": "event"
		},
		{
			"anonymous": false,
			"inputs": [
				{
					"indexed": true,
					"internalType": "address",
					"name": "user",
					"type": "address"
				},
				{
					"indexed": false,
					"internalType": "uint256",
					"name": "depositId",
					"type": "uint256"
				},
				{
					"indexed": false,
					"internalType": "uint256",
					"name": "amount",
					"type": "uint256"
				},
				{
					"indexed": false,
					"internalType": "uint256",
					"name": "lockMonths",
					"type": "uint256"
				},
				{
					"indexed": false,
					"internalType": "uint256",
					"name": "unlockMonthIndex",
					"type": "uint256"
				}
			],
			"name": "DepositCreated",
			"type": "event"
		},
		{
			"anonymous": false,
			"inputs": [
				{
					"indexed": false,
					"internalType": "uint256",
					"name": "rateBps",
					"type": "uint256"
				}
			],
			"name": "GlobalRateUpdated",
			"type": "event"
		},
		{
			"anonymous": false,
			"inputs": [
				{
					"indexed": true,
					"internalType": "uint256",
					"name": "monthIndex",
					"type": "uint256"
				},
				{
					"indexed": false,
					"internalType": "uint256",
					"name": "start",
					"type": "uint256"
				},
				{
					"indexed": false,
					"internalType": "uint256",
					"name": "end",
					"type": "uint256"
				},
				{
					"indexed": false,
					"internalType": "uint256",
					"name": "rateBps",
					"type": "uint256"
				}
			],
			"name": "MonthAdded",
			"type": "event"
		},
		{
			"anonymous": false,
			"inputs": [
				{
					"indexed": false,
					"internalType": "uint256",
					"name": "lengthAfterDeletion",
					"type": "uint256"
				}
			],
			"name": "MonthDeleted",
			"type": "event"
		},
		{
			"anonymous": false,
			"inputs": [
				{
					"indexed": true,
					"internalType": "uint256",
					"name": "monthIndex",
					"type": "uint256"
				},
				{
					"indexed": false,
					"internalType": "uint256",
					"name": "start",
					"type": "uint256"
				},
				{
					"indexed": false,
					"internalType": "uint256",
					"name": "end",
					"type": "uint256"
				},
				{
					"indexed": false,
					"internalType": "uint256",
					"name": "rateBps",
					"type": "uint256"
				}
			],
			"name": "MonthEdited",
			"type": "event"
		},
		{
			"anonymous": false,
			"inputs": [
				{
					"indexed": false,
					"internalType": "uint256",
					"name": "startIndex",
					"type": "uint256"
				},
				{
					"indexed": false,
					"internalType": "uint256",
					"name": "endIndex",
					"type": "uint256"
				}
			],
			"name": "MonthsBatchAdded",
			"type": "event"
		},
		{
			"anonymous": false,
			"inputs": [
				{
					"indexed": true,
					"internalType": "address",
					"name": "user",
					"type": "address"
				},
				{
					"indexed": false,
					"internalType": "uint256",
					"name": "depositId",
					"type": "uint256"
				},
				{
					"indexed": false,
					"internalType": "uint256",
					"name": "amount",
					"type": "uint256"
				}
			],
			"name": "PrincipalWithdrawn",
			"type": "event"
		},
		{
			"anonymous": false,
			"inputs": [
				{
					"indexed": true,
					"internalType": "address",
					"name": "user",
					"type": "address"
				},
				{
					"indexed": false,
					"internalType": "uint256",
					"name": "depositId",
					"type": "uint256"
				},
				{
					"indexed": false,
					"internalType": "uint256",
					"name": "reward",
					"type": "uint256"
				}
			],
			"name": "RewardsWithdrawn",
			"type": "event"
		},
		{
			"anonymous": false,
			"inputs": [
				{
					"indexed": true,
					"internalType": "address",
					"name": "user",
					"type": "address"
				},
				{
					"indexed": false,
					"internalType": "uint256",
					"name": "depositId",
					"type": "uint256"
				},
				{
					"indexed": false,
					"internalType": "uint256",
					"name": "amount",
					"type": "uint256"
				},
				{
					"indexed": false,
					"internalType": "uint256",
					"name": "savedReward",
					"type": "uint256"
				}
			],
			"name": "SafeDeposit",
			"type": "event"
		},
		{
			"anonymous": false,
			"inputs": [
				{
					"indexed": true,
					"internalType": "address",
					"name": "user",
					"type": "address"
				},
				{
					"indexed": false,
					"internalType": "uint256",
					"name": "depositId",
					"type": "uint256"
				},
				{
					"indexed": false,
					"internalType": "uint256",
					"name": "reward",
					"type": "uint256"
				}
			],
			"name": "SavedRewardClaimed",
			"type": "event"
		},
		{
			"inputs": [],
			"name": "_getCurrentMonthIndex",
			"outputs": [
				{
					"internalType": "uint256",
					"name": "",
					"type": "uint256"
				}
			],
			"stateMutability": "view",
			"type": "function"
		},
		{
			"inputs": [
				{
					"internalType": "uint256",
					"name": "",
					"type": "uint256"
				}
			],
			"name": "activeDeposits",
			"outputs": [
				{
					"internalType": "uint256",
					"name": "",
					"type": "uint256"
				}
			],
			"stateMutability": "view",
			"type": "function"
		},
		{
			"inputs": [],
			"name": "activeDepositsCount",
			"outputs": [
				{
					"internalType": "uint256",
					"name": "",
					"type": "uint256"
				}
			],
			"stateMutability": "view",
			"type": "function"
		},
		{
			"inputs": [
				{
					"internalType": "uint256",
					"name": "",
					"type": "uint256"
				}
			],
			"name": "activeDepositsIndex",
			"outputs": [
				{
					"internalType": "uint256",
					"name": "",
					"type": "uint256"
				}
			],
			"stateMutability": "view",
			"type": "function"
		},
		{
			"inputs": [
				{
					"internalType": "uint256",
					"name": "start",
					"type": "uint256"
				},
				{
					"internalType": "uint256",
					"name": "end",
					"type": "uint256"
				},
				{
					"internalType": "uint256",
					"name": "rateBps",
					"type": "uint256"
				}
			],
			"name": "addMonth",
			"outputs": [],
			"stateMutability": "nonpayable",
			"type": "function"
		},
		{
			"inputs": [
				{
					"internalType": "uint256[]",
					"name": "starts",
					"type": "uint256[]"
				},
				{
					"internalType": "uint256[]",
					"name": "ends",
					"type": "uint256[]"
				},
				{
					"internalType": "uint256[]",
					"name": "rates",
					"type": "uint256[]"
				}
			],
			"name": "addMonthsBatch",
			"outputs": [],
			"stateMutability": "nonpayable",
			"type": "function"
		},
		{
			"inputs": [
				{
					"internalType": "uint256",
					"name": "amount",
					"type": "uint256"
				}
			],
			"name": "addTokensToBank",
			"outputs": [],
			"stateMutability": "nonpayable",
			"type": "function"
		},
		{
			"inputs": [
				{
					"internalType": "uint256",
					"name": "",
					"type": "uint256"
				}
			],
			"name": "allUsers",
			"outputs": [
				{
					"internalType": "address",
					"name": "",
					"type": "address"
				}
			],
			"stateMutability": "view",
			"type": "function"
		},
		{
			"inputs": [],
			"name": "bankAmount",
			"outputs": [
				{
					"internalType": "uint256",
					"name": "",
					"type": "uint256"
				}
			],
			"stateMutability": "view",
			"type": "function"
		},
		{
			"inputs": [
				{
					"internalType": "uint256",
					"name": "",
					"type": "uint256"
				}
			],
			"name": "byOracle",
			"outputs": [
				{
					"internalType": "bool",
					"name": "",
					"type": "bool"
				}
			],
			"stateMutability": "view",
			"type": "function"
		},
		{
			"inputs": [
				{
					"internalType": "uint256",
					"name": "depositId",
					"type": "uint256"
				}
			],
			"name": "calculatePendingRewardForDeposit",
			"outputs": [
				{
					"internalType": "uint256",
					"name": "",
					"type": "uint256"
				}
			],
			"stateMutability": "view",
			"type": "function"
		},
		{
			"inputs": [
				{
					"internalType": "uint256",
					"name": "amount",
					"type": "uint256"
				},
				{
					"internalType": "uint256",
					"name": "startMonthIdx",
					"type": "uint256"
				},
				{
					"internalType": "uint256",
					"name": "lockMonths",
					"type": "uint256"
				},
				{
					"internalType": "uint256",
					"name": "depositStart",
					"type": "uint256"
				}
			],
			"name": "calculateReward",
			"outputs": [
				{
					"internalType": "uint256",
					"name": "",
					"type": "uint256"
				}
			],
			"stateMutability": "view",
			"type": "function"
		},
		{
			"inputs": [
				{
					"internalType": "uint256",
					"name": "amount",
					"type": "uint256"
				},
				{
					"internalType": "uint256",
					"name": "lockMonths",
					"type": "uint256"
				},
				{
					"internalType": "uint256",
					"name": "depositStart",
					"type": "uint256"
				}
			],
			"name": "calculateRewardByMonths",
			"outputs": [
				{
					"internalType": "uint256",
					"name": "",
					"type": "uint256"
				}
			],
			"stateMutability": "view",
			"type": "function"
		},
		{
			"inputs": [
				{
					"internalType": "uint256",
					"name": "depositId",
					"type": "uint256"
				}
			],
			"name": "cancelDeposit",
			"outputs": [],
			"stateMutability": "nonpayable",
			"type": "function"
		},
		{
			"inputs": [
				{
					"internalType": "uint256",
					"name": "amount",
					"type": "uint256"
				},
				{
					"internalType": "uint256",
					"name": "lockMonths",
					"type": "uint256"
				}
			],
			"name": "createDeposit",
			"outputs": [],
			"stateMutability": "nonpayable",
			"type": "function"
		},
		{
			"inputs": [
				{
					"internalType": "address",
					"name": "user",
					"type": "address"
				},
				{
					"internalType": "uint256",
					"name": "amount",
					"type": "uint256"
				},
				{
					"internalType": "uint256",
					"name": "lockMonths",
					"type": "uint256"
				},
				{
					"internalType": "bool",
					"name": "ownRate",
					"type": "bool"
				},
				{
					"internalType": "uint256",
					"name": "rate",
					"type": "uint256"
				}
			],
			"name": "createDepositFor",
			"outputs": [],
			"stateMutability": "nonpayable",
			"type": "function"
		},
		{
			"inputs": [],
			"name": "deleteLastMonth",
			"outputs": [],
			"stateMutability": "nonpayable",
			"type": "function"
		},
		{
			"inputs": [
				{
					"internalType": "uint256",
					"name": "",
					"type": "uint256"
				}
			],
			"name": "deposits",
			"outputs": [
				{
					"internalType": "uint256",
					"name": "depositId",
					"type": "uint256"
				},
				{
					"internalType": "address",
					"name": "owner",
					"type": "address"
				},
				{
					"internalType": "uint256",
					"name": "amount",
					"type": "uint256"
				},
				{
					"internalType": "uint256",
					"name": "monthIndex",
					"type": "uint256"
				},
				{
					"internalType": "uint256",
					"name": "depositStart",
					"type": "uint256"
				},
				{
					"internalType": "uint256",
					"name": "depositClosed",
					"type": "uint256"
				},
				{
					"internalType": "uint256",
					"name": "unlockMonthIndex",
					"type": "uint256"
				},
				{
					"internalType": "uint256",
					"name": "lastAccruedMonthIdx",
					"type": "uint256"
				},
				{
					"internalType": "uint256",
					"name": "pendingReward",
					"type": "uint256"
				},
				{
					"internalType": "bool",
					"name": "active",
					"type": "bool"
				},
				{
					"internalType": "bool",
					"name": "isSaved",
					"type": "bool"
				},
				{
					"internalType": "uint256",
					"name": "savedReward",
					"type": "uint256"
				},
				{
					"internalType": "bool",
					"name": "ownRate",
					"type": "bool"
				},
				{
					"internalType": "uint256",
					"name": "rate",
					"type": "uint256"
				}
			],
			"stateMutability": "view",
			"type": "function"
		},
		{
			"inputs": [],
			"name": "depositsAmount",
			"outputs": [
				{
					"internalType": "uint256",
					"name": "",
					"type": "uint256"
				}
			],
			"stateMutability": "view",
			"type": "function"
		},
		{
			"inputs": [
				{
					"internalType": "uint256",
					"name": "idx",
					"type": "uint256"
				},
				{
					"internalType": "uint256",
					"name": "start",
					"type": "uint256"
				},
				{
					"internalType": "uint256",
					"name": "end",
					"type": "uint256"
				},
				{
					"internalType": "uint256",
					"name": "rateBps",
					"type": "uint256"
				}
			],
			"name": "editMonth",
			"outputs": [],
			"stateMutability": "nonpayable",
			"type": "function"
		},
		{
			"inputs": [],
			"name": "estimateRequiredBankReserve",
			"outputs": [
				{
					"internalType": "uint256",
					"name": "estimatedMonthlyRewards",
					"type": "uint256"
				}
			],
			"stateMutability": "view",
			"type": "function"
		},
		{
			"inputs": [],
			"name": "estimateRequiredBankReservePrecise",
			"outputs": [
				{
					"internalType": "uint256",
					"name": "",
					"type": "uint256"
				}
			],
			"stateMutability": "view",
			"type": "function"
		},
		{
			"inputs": [
				{
					"internalType": "uint256",
					"name": "_offset",
					"type": "uint256"
				},
				{
					"internalType": "uint256",
					"name": "_limit",
					"type": "uint256"
				}
			],
			"name": "getActiveDeposits",
			"outputs": [
				{
					"components": [
						{
							"internalType": "uint256",
							"name": "depositId",
							"type": "uint256"
						},
						{
							"internalType": "address",
							"name": "owner",
							"type": "address"
						},
						{
							"internalType": "uint256",
							"name": "amount",
							"type": "uint256"
						},
						{
							"internalType": "uint256",
							"name": "monthIndex",
							"type": "uint256"
						},
						{
							"internalType": "uint256",
							"name": "depositStart",
							"type": "uint256"
						},
						{
							"internalType": "uint256",
							"name": "depositClosed",
							"type": "uint256"
						},
						{
							"internalType": "uint256",
							"name": "unlockMonthIndex",
							"type": "uint256"
						},
						{
							"internalType": "uint256",
							"name": "lastAccruedMonthIdx",
							"type": "uint256"
						},
						{
							"internalType": "uint256",
							"name": "pendingReward",
							"type": "uint256"
						},
						{
							"internalType": "bool",
							"name": "active",
							"type": "bool"
						},
						{
							"internalType": "bool",
							"name": "isSaved",
							"type": "bool"
						},
						{
							"internalType": "uint256",
							"name": "savedReward",
							"type": "uint256"
						},
						{
							"internalType": "bool",
							"name": "ownRate",
							"type": "bool"
						},
						{
							"internalType": "uint256",
							"name": "rate",
							"type": "uint256"
						}
					],
					"internalType": "struct GGWStake.Deposit[]",
					"name": "ret",
					"type": "tuple[]"
				}
			],
			"stateMutability": "view",
			"type": "function"
		},
		{
			"inputs": [],
			"name": "getActiveDepositsCount",
			"outputs": [
				{
					"internalType": "uint256",
					"name": "",
					"type": "uint256"
				}
			],
			"stateMutability": "view",
			"type": "function"
		},
		{
			"inputs": [],
			"name": "getAllUsers",
			"outputs": [
				{
					"internalType": "address[]",
					"name": "",
					"type": "address[]"
				}
			],
			"stateMutability": "view",
			"type": "function"
		},
		{
			"inputs": [
				{
					"internalType": "uint256",
					"name": "depositId",
					"type": "uint256"
				}
			],
			"name": "getDepositById",
			"outputs": [
				{
					"components": [
						{
							"internalType": "uint256",
							"name": "depositId",
							"type": "uint256"
						},
						{
							"internalType": "address",
							"name": "owner",
							"type": "address"
						},
						{
							"internalType": "uint256",
							"name": "amount",
							"type": "uint256"
						},
						{
							"internalType": "uint256",
							"name": "monthIndex",
							"type": "uint256"
						},
						{
							"internalType": "uint256",
							"name": "depositStart",
							"type": "uint256"
						},
						{
							"internalType": "uint256",
							"name": "depositClosed",
							"type": "uint256"
						},
						{
							"internalType": "uint256",
							"name": "unlockMonthIndex",
							"type": "uint256"
						},
						{
							"internalType": "uint256",
							"name": "lastAccruedMonthIdx",
							"type": "uint256"
						},
						{
							"internalType": "uint256",
							"name": "pendingReward",
							"type": "uint256"
						},
						{
							"internalType": "bool",
							"name": "active",
							"type": "bool"
						},
						{
							"internalType": "bool",
							"name": "isSaved",
							"type": "bool"
						},
						{
							"internalType": "uint256",
							"name": "savedReward",
							"type": "uint256"
						},
						{
							"internalType": "bool",
							"name": "ownRate",
							"type": "bool"
						},
						{
							"internalType": "uint256",
							"name": "rate",
							"type": "uint256"
						}
					],
					"internalType": "struct GGWStake.Deposit",
					"name": "ret",
					"type": "tuple"
				}
			],
			"stateMutability": "view",
			"type": "function"
		},
		{
			"inputs": [
				{
					"internalType": "uint256",
					"name": "_offset",
					"type": "uint256"
				},
				{
					"internalType": "uint256",
					"name": "_limit",
					"type": "uint256"
				}
			],
			"name": "getDeposits",
			"outputs": [
				{
					"components": [
						{
							"internalType": "uint256",
							"name": "depositId",
							"type": "uint256"
						},
						{
							"internalType": "address",
							"name": "owner",
							"type": "address"
						},
						{
							"internalType": "uint256",
							"name": "amount",
							"type": "uint256"
						},
						{
							"internalType": "uint256",
							"name": "monthIndex",
							"type": "uint256"
						},
						{
							"internalType": "uint256",
							"name": "depositStart",
							"type": "uint256"
						},
						{
							"internalType": "uint256",
							"name": "depositClosed",
							"type": "uint256"
						},
						{
							"internalType": "uint256",
							"name": "unlockMonthIndex",
							"type": "uint256"
						},
						{
							"internalType": "uint256",
							"name": "lastAccruedMonthIdx",
							"type": "uint256"
						},
						{
							"internalType": "uint256",
							"name": "pendingReward",
							"type": "uint256"
						},
						{
							"internalType": "bool",
							"name": "active",
							"type": "bool"
						},
						{
							"internalType": "bool",
							"name": "isSaved",
							"type": "bool"
						},
						{
							"internalType": "uint256",
							"name": "savedReward",
							"type": "uint256"
						},
						{
							"internalType": "bool",
							"name": "ownRate",
							"type": "bool"
						},
						{
							"internalType": "uint256",
							"name": "rate",
							"type": "uint256"
						}
					],
					"internalType": "struct GGWStake.Deposit[]",
					"name": "ret",
					"type": "tuple[]"
				}
			],
			"stateMutability": "view",
			"type": "function"
		},
		{
			"inputs": [
				{
					"internalType": "uint256",
					"name": "_offset",
					"type": "uint256"
				},
				{
					"internalType": "uint256",
					"name": "_limit",
					"type": "uint256"
				}
			],
			"name": "getMonths",
			"outputs": [
				{
					"components": [
						{
							"internalType": "uint256",
							"name": "monthId",
							"type": "uint256"
						},
						{
							"internalType": "uint256",
							"name": "start",
							"type": "uint256"
						},
						{
							"internalType": "uint256",
							"name": "end",
							"type": "uint256"
						},
						{
							"internalType": "uint256",
							"name": "rateBps",
							"type": "uint256"
						},
						{
							"internalType": "uint256",
							"name": "depositsCount",
							"type": "uint256"
						},
						{
							"internalType": "uint256",
							"name": "depositsAmount",
							"type": "uint256"
						},
						{
							"internalType": "uint256",
							"name": "rewardsAmount",
							"type": "uint256"
						}
					],
					"internalType": "struct GGWStake.MonthSummaryInfo[]",
					"name": "ret",
					"type": "tuple[]"
				}
			],
			"stateMutability": "view",
			"type": "function"
		},
		{
			"inputs": [],
			"name": "getMonthsCount",
			"outputs": [
				{
					"internalType": "uint256",
					"name": "",
					"type": "uint256"
				}
			],
			"stateMutability": "view",
			"type": "function"
		},
		{
			"inputs": [
				{
					"internalType": "uint256",
					"name": "depositId",
					"type": "uint256"
				}
			],
			"name": "getSavedReward",
			"outputs": [],
			"stateMutability": "nonpayable",
			"type": "function"
		},
		{
			"inputs": [],
			"name": "getSummaryInfo",
			"outputs": [
				{
					"components": [
						{
							"internalType": "uint256",
							"name": "usersCount",
							"type": "uint256"
						},
						{
							"internalType": "uint256",
							"name": "activeDepositsCount",
							"type": "uint256"
						},
						{
							"internalType": "uint256",
							"name": "depositsCount",
							"type": "uint256"
						},
						{
							"internalType": "uint256",
							"name": "depositsAmount",
							"type": "uint256"
						},
						{
							"internalType": "uint256",
							"name": "rewardsPayed",
							"type": "uint256"
						},
						{
							"internalType": "uint256",
							"name": "bankAmount",
							"type": "uint256"
						},
						{
							"internalType": "uint8",
							"name": "tokenDecimals",
							"type": "uint8"
						},
						{
							"internalType": "string",
							"name": "tokenName",
							"type": "string"
						},
						{
							"internalType": "string",
							"name": "tokenSymbol",
							"type": "string"
						},
						{
							"internalType": "address",
							"name": "tokenAddress",
							"type": "address"
						},
						{
							"internalType": "uint256",
							"name": "globalRateBps",
							"type": "uint256"
						},
						{
							"internalType": "uint256",
							"name": "minLockMonths",
							"type": "uint256"
						},
						{
							"internalType": "uint256",
							"name": "minLockAmount",
							"type": "uint256"
						},
						{
							"internalType": "uint256",
							"name": "estimateRequiredBankReserve",
							"type": "uint256"
						},
						{
							"internalType": "uint256",
							"name": "estimateRequiredBankReservePrecise",
							"type": "uint256"
						},
						{
							"internalType": "uint256",
							"name": "currentMonth",
							"type": "uint256"
						},
						{
							"internalType": "uint256",
							"name": "monthsCount",
							"type": "uint256"
						}
					],
					"internalType": "struct GGWStake.SummaryInfo",
					"name": "",
					"type": "tuple"
				}
			],
			"stateMutability": "view",
			"type": "function"
		},
		{
			"inputs": [],
			"name": "getTotalDeposits",
			"outputs": [
				{
					"internalType": "uint256",
					"name": "",
					"type": "uint256"
				}
			],
			"stateMutability": "view",
			"type": "function"
		},
		{
			"inputs": [],
			"name": "getTotalUsers",
			"outputs": [
				{
					"internalType": "uint256",
					"name": "",
					"type": "uint256"
				}
			],
			"stateMutability": "view",
			"type": "function"
		},
		{
			"inputs": [
				{
					"internalType": "address",
					"name": "user",
					"type": "address"
				},
				{
					"internalType": "uint256",
					"name": "_offset",
					"type": "uint256"
				},
				{
					"internalType": "uint256",
					"name": "_limit",
					"type": "uint256"
				}
			],
			"name": "getUserDeposits",
			"outputs": [
				{
					"components": [
						{
							"internalType": "uint256",
							"name": "depositId",
							"type": "uint256"
						},
						{
							"internalType": "address",
							"name": "owner",
							"type": "address"
						},
						{
							"internalType": "uint256",
							"name": "amount",
							"type": "uint256"
						},
						{
							"internalType": "uint256",
							"name": "monthIndex",
							"type": "uint256"
						},
						{
							"internalType": "uint256",
							"name": "depositStart",
							"type": "uint256"
						},
						{
							"internalType": "uint256",
							"name": "depositClosed",
							"type": "uint256"
						},
						{
							"internalType": "uint256",
							"name": "unlockMonthIndex",
							"type": "uint256"
						},
						{
							"internalType": "uint256",
							"name": "lastAccruedMonthIdx",
							"type": "uint256"
						},
						{
							"internalType": "uint256",
							"name": "pendingReward",
							"type": "uint256"
						},
						{
							"internalType": "bool",
							"name": "active",
							"type": "bool"
						},
						{
							"internalType": "bool",
							"name": "isSaved",
							"type": "bool"
						},
						{
							"internalType": "uint256",
							"name": "savedReward",
							"type": "uint256"
						},
						{
							"internalType": "bool",
							"name": "ownRate",
							"type": "bool"
						},
						{
							"internalType": "uint256",
							"name": "rate",
							"type": "uint256"
						}
					],
					"internalType": "struct GGWStake.Deposit[]",
					"name": "ret",
					"type": "tuple[]"
				}
			],
			"stateMutability": "view",
			"type": "function"
		},
		{
			"inputs": [
				{
					"internalType": "address",
					"name": "user",
					"type": "address"
				}
			],
			"name": "getUserDepositsCount",
			"outputs": [
				{
					"internalType": "uint256",
					"name": "",
					"type": "uint256"
				}
			],
			"stateMutability": "view",
			"type": "function"
		},
		{
			"inputs": [
				{
					"internalType": "address",
					"name": "user",
					"type": "address"
				}
			],
			"name": "getUserDepositsIds",
			"outputs": [
				{
					"internalType": "uint256[]",
					"name": "",
					"type": "uint256[]"
				}
			],
			"stateMutability": "view",
			"type": "function"
		},
		{
			"inputs": [
				{
					"internalType": "uint256",
					"name": "_offset",
					"type": "uint256"
				},
				{
					"internalType": "uint256",
					"name": "_limit",
					"type": "uint256"
				}
			],
			"name": "getUsers",
			"outputs": [
				{
					"internalType": "address[]",
					"name": "ret",
					"type": "address[]"
				}
			],
			"stateMutability": "view",
			"type": "function"
		},
		{
			"inputs": [],
			"name": "getUsersCount",
			"outputs": [
				{
					"internalType": "uint256",
					"name": "",
					"type": "uint256"
				}
			],
			"stateMutability": "view",
			"type": "function"
		},
		{
			"inputs": [],
			"name": "globalRateBps",
			"outputs": [
				{
					"internalType": "uint256",
					"name": "",
					"type": "uint256"
				}
			],
			"stateMutability": "view",
			"type": "function"
		},
		{
			"inputs": [
				{
					"internalType": "address",
					"name": "",
					"type": "address"
				}
			],
			"name": "isUser",
			"outputs": [
				{
					"internalType": "bool",
					"name": "",
					"type": "bool"
				}
			],
			"stateMutability": "view",
			"type": "function"
		},
		{
			"inputs": [],
			"name": "lastKnownMonthIndex",
			"outputs": [
				{
					"internalType": "uint256",
					"name": "",
					"type": "uint256"
				}
			],
			"stateMutability": "view",
			"type": "function"
		},
		{
			"inputs": [],
			"name": "minLockAmount",
			"outputs": [
				{
					"internalType": "uint256",
					"name": "",
					"type": "uint256"
				}
			],
			"stateMutability": "view",
			"type": "function"
		},
		{
			"inputs": [],
			"name": "minLockMonths",
			"outputs": [
				{
					"internalType": "uint256",
					"name": "",
					"type": "uint256"
				}
			],
			"stateMutability": "view",
			"type": "function"
		},
		{
			"inputs": [
				{
					"internalType": "uint256",
					"name": "",
					"type": "uint256"
				}
			],
			"name": "monthDepositsAmount",
			"outputs": [
				{
					"internalType": "uint256",
					"name": "",
					"type": "uint256"
				}
			],
			"stateMutability": "view",
			"type": "function"
		},
		{
			"inputs": [
				{
					"internalType": "uint256",
					"name": "",
					"type": "uint256"
				}
			],
			"name": "monthDepositsCount",
			"outputs": [
				{
					"internalType": "uint256",
					"name": "",
					"type": "uint256"
				}
			],
			"stateMutability": "view",
			"type": "function"
		},
		{
			"inputs": [
				{
					"internalType": "uint256",
					"name": "",
					"type": "uint256"
				}
			],
			"name": "monthRewardsAmount",
			"outputs": [
				{
					"internalType": "uint256",
					"name": "",
					"type": "uint256"
				}
			],
			"stateMutability": "view",
			"type": "function"
		},
		{
			"inputs": [
				{
					"internalType": "uint256",
					"name": "",
					"type": "uint256"
				}
			],
			"name": "months",
			"outputs": [
				{
					"internalType": "uint256",
					"name": "start",
					"type": "uint256"
				},
				{
					"internalType": "uint256",
					"name": "end",
					"type": "uint256"
				},
				{
					"internalType": "uint256",
					"name": "rateBps",
					"type": "uint256"
				}
			],
			"stateMutability": "view",
			"type": "function"
		},
		{
			"inputs": [],
			"name": "oracle",
			"outputs": [
				{
					"internalType": "address",
					"name": "",
					"type": "address"
				}
			],
			"stateMutability": "view",
			"type": "function"
		},
		{
			"inputs": [],
			"name": "owner",
			"outputs": [
				{
					"internalType": "address",
					"name": "",
					"type": "address"
				}
			],
			"stateMutability": "view",
			"type": "function"
		},
		{
			"inputs": [
				{
					"internalType": "address",
					"name": "token",
					"type": "address"
				},
				{
					"internalType": "uint256",
					"name": "amount",
					"type": "uint256"
				}
			],
			"name": "recoverToken",
			"outputs": [],
			"stateMutability": "nonpayable",
			"type": "function"
		},
		{
			"inputs": [],
			"name": "rewardsPayed",
			"outputs": [
				{
					"internalType": "uint256",
					"name": "",
					"type": "uint256"
				}
			],
			"stateMutability": "view",
			"type": "function"
		},
		{
			"inputs": [
				{
					"internalType": "uint256",
					"name": "depositId",
					"type": "uint256"
				}
			],
			"name": "safeDeposit",
			"outputs": [],
			"stateMutability": "nonpayable",
			"type": "function"
		},
		{
			"inputs": [
				{
					"internalType": "uint256",
					"name": "_rateBps",
					"type": "uint256"
				}
			],
			"name": "setGlobalRateBps",
			"outputs": [],
			"stateMutability": "nonpayable",
			"type": "function"
		},
		{
			"inputs": [
				{
					"internalType": "uint256",
					"name": "newMinLockAmount",
					"type": "uint256"
				}
			],
			"name": "setMinLockAmount",
			"outputs": [],
			"stateMutability": "nonpayable",
			"type": "function"
		},
		{
			"inputs": [
				{
					"internalType": "uint256",
					"name": "newMinLockMonths",
					"type": "uint256"
				}
			],
			"name": "setMinLockMonths",
			"outputs": [],
			"stateMutability": "nonpayable",
			"type": "function"
		},
		{
			"inputs": [
				{
					"internalType": "address",
					"name": "newOracle",
					"type": "address"
				}
			],
			"name": "setOracle",
			"outputs": [],
			"stateMutability": "nonpayable",
			"type": "function"
		},
		{
			"inputs": [],
			"name": "stakingToken",
			"outputs": [
				{
					"internalType": "contract IERC20",
					"name": "",
					"type": "address"
				}
			],
			"stateMutability": "view",
			"type": "function"
		},
		{
			"inputs": [
				{
					"internalType": "address",
					"name": "newOwner",
					"type": "address"
				}
			],
			"name": "transferOwnership",
			"outputs": [],
			"stateMutability": "nonpayable",
			"type": "function"
		},
		{
			"inputs": [
				{
					"internalType": "address",
					"name": "",
					"type": "address"
				},
				{
					"internalType": "uint256",
					"name": "",
					"type": "uint256"
				}
			],
			"name": "userDeposits",
			"outputs": [
				{
					"internalType": "uint256",
					"name": "",
					"type": "uint256"
				}
			],
			"stateMutability": "view",
			"type": "function"
		},
		{
			"inputs": [
				{
					"internalType": "uint256",
					"name": "amount",
					"type": "uint256"
				}
			],
			"name": "withdrawBank",
			"outputs": [],
			"stateMutability": "nonpayable",
			"type": "function"
		},
		{
			"inputs": [
				{
					"internalType": "uint256",
					"name": "depositId",
					"type": "uint256"
				}
			],
			"name": "withdrawPrincipalAndRewards",
			"outputs": [],
			"stateMutability": "nonpayable",
			"type": "function"
		},
		{
			"inputs": [
				{
					"internalType": "uint256",
					"name": "depositId",
					"type": "uint256"
				}
			],
			"name": "withdrawRewardsOnly",
			"outputs": [],
			"stateMutability": "nonpayable",
			"type": "function"
		}
	]
}