{
	"data": {
		"bytecode": {
			"linkReferences": {},
			"object": "60806040525f6005555f6009555f600c555f600d555f600e555f600f5534801562000028575f80fd5b5060405162004a4738038062004a478339810160408190526200004b9162000098565b60015f81905560028054336001600160a01b03199182168117909255600380548216831790556004805482169092179091558154166001600160a01b0392909216919091179055620000c7565b5f60208284031215620000a9575f80fd5b81516001600160a01b0381168114620000c0575f80fd5b9392505050565b61497280620000d55f395ff3fe608060405234801561000f575f80fd5b50600436106102cd575f3560e01c80638e0d920e1161017c578063c5408d50116100dd578063e97ffdc111610093578063fb632b7c1161006e578063fb632b7c14610713578063fc0c546a1461071c578063fcf038a31461073c575f80fd5b8063e97ffdc1146106da578063f0a507da146106ed578063f2fde38b14610700575f80fd5b8063ca9b5e39116100c3578063ca9b5e39146106a1578063ced91a72146106b4578063d1e284db146106c7575f80fd5b8063c5408d5014610685578063c814ef1b1461068e575f80fd5b8063b6b55f2511610132578063b936bee011610118578063b936bee014610624578063c084b10b1461062d578063c204642c14610672575f80fd5b8063b6b55f25146105f2578063b8e21a5b14610605575f80fd5b8063aad605ba11610162578063aad605ba146105aa578063abb1dc44146105bd578063ac451185146105d2575f80fd5b80638e0d920e146105845780639546717714610597575f80fd5b8063457e1a49116102315780636ba13a82116101e757806385107367116101c257806385107367146105245780638d1a4b28146105445780638da5cb5b14610564575f80fd5b80636ba13a82146104b65780636f77926b146104bf57806370d5ae05146104df575f80fd5b80634b0e7216116102175780634b0e7216146104715780635abdb0dc146104845780636313091c14610497575f80fd5b8063457e1a491461044857806345982a6614610451575f80fd5b80632e1a7d4d1161028657806330ff7abe1161026c57806330ff7abe146103ae578063365b98b2146103c15780633c28f9ce14610435575f80fd5b80632e1a7d4d146103885780632edcbd601461039b575f80fd5b806323471d18116102b657806323471d181461031f578063291c3819146103345780632b956ff714610353575f80fd5b80630cec2a76146102d1578063117a5b90146102f7575b5f80fd5b6102e46102df366004613db1565b610745565b6040519081526020015b60405180910390f35b61030a610305366004613dd1565b6107c2565b6040516102ee99989796959493929190613e53565b61033261032d366004613db1565b610933565b005b6102e4610342366004613db1565b60076020525f908152604090205481565b6102e4610361366004613db1565b73ffffffffffffffffffffffffffffffffffffffff165f908152600b602052604090205490565b610332610396366004613dd1565b610a00565b6103326103a9366004613dd1565b610c5a565b6103326103bc366004613ecb565b610f85565b6104056103cf366004613dd1565b600a6020525f9081526040902080546001820154600290920154909173ffffffffffffffffffffffffffffffffffffffff169083565b6040805193845273ffffffffffffffffffffffffffffffffffffffff9092166020840152908201526060016102ee565b610332610443366004613eeb565b61124f565b6102e4600f5481565b61046461045f366004613ecb565b61141a565b6040516102ee9190613f13565b61033261047f366004613db1565b6115ec565b610332610492366004613dd1565b6116b4565b6102e46104a5366004613dd1565b60086020525f908152604090205481565b6102e460095481565b6104d26104cd366004613db1565b61173a565b6040516102ee9190613f8a565b6003546104ff9073ffffffffffffffffffffffffffffffffffffffff1681565b60405173ffffffffffffffffffffffffffffffffffffffff90911681526020016102ee565b6004546104ff9073ffffffffffffffffffffffffffffffffffffffff1681565b610557610552366004613db1565b6117cb565b6040516102ee919061405f565b6002546104ff9073ffffffffffffffffffffffffffffffffffffffff1681565b610332610592366004613dd1565b6119ed565b6103326105a5366004613eeb565b611de5565b6103326105b8366004613ecb565b612019565b6105c56122cc565b6040516102ee9190614071565b6105e56105e0366004613ecb565b6124fb565b6040516102ee91906140dd565b610332610600366004613dd1565b612864565b6102e4610613366004613db1565b600b6020525f908152604090205481565b6102e4600e5481565b6102e461063b366004613db1565b73ffffffffffffffffffffffffffffffffffffffff165f908152600b60209081526040808320548352600a90915290206002015490565b6103326106803660046141d9565b6129bc565b6102e4600c5481565b61033261069c36600461431e565b612b74565b6103326106af366004613eeb565b612ec8565b6105576106c236600461439e565b61312b565b6103326106d53660046143d8565b61337a565b6103326106e8366004613ecb565b6136a0565b6103326106fb366004613eeb565b6138df565b61033261070e366004613db1565b613b09565b6102e460055481565b6001546104ff9073ffffffffffffffffffffffffffffffffffffffff1681565b6102e4600d5481565b73ffffffffffffffffffffffffffffffffffffffff8082165f818152600b60209081526040808320548352600a909152812060010154909216036107bb575073ffffffffffffffffffffffffffffffffffffffff165f908152600b60209081526040808320548352600a90915290206002015490565b505f919050565b60066020525f9081526040902080546001820180549192916107e390614462565b80601f016020809104026020016040519081016040528092919081815260200182805461080f90614462565b801561085a5780601f106108315761010080835404028352916020019161085a565b820191905f5260205f20905b81548152906001019060200180831161083d57829003601f168201915b505050505090806002015490806003015f9054906101000a900473ffffffffffffffffffffffffffffffffffffffff16908060040154908060050154908060060154908060070154908060080180546108b290614462565b80601f01602080910402602001604051908101604052809291908181526020018280546108de90614462565b80156109295780601f1061090057610100808354040283529160200191610929565b820191905f5260205f20905b81548152906001019060200180831161090c57829003601f168201915b5050505050905089565b60025473ffffffffffffffffffffffffffffffffffffffff1633146109b9576040517f08c379a000000000000000000000000000000000000000000000000000000000815260206004820152600a60248201527f4f6e6c79206f776e65720000000000000000000000000000000000000000000060448201526064015b60405180910390fd5b600480547fffffffffffffffffffffffff00000000000000000000000000000000000000001673ffffffffffffffffffffffffffffffffffffffff92909216919091179055565b610a08613bd1565b335f908152600b6020908152604080832054808452600a909252909120600f54831015610a91576040517f08c379a000000000000000000000000000000000000000000000000000000000815260206004820152601d60248201527f416d6f756e74206c657373207468616e206d696e20776974686472617700000060448201526064016109b0565b600181015473ffffffffffffffffffffffffffffffffffffffff163314610b14576040517f08c379a000000000000000000000000000000000000000000000000000000000815260206004820152600f60248201527f55736572206e6f7420657869737473000000000000000000000000000000000060448201526064016109b0565b8281600201541015610b82576040517f08c379a000000000000000000000000000000000000000000000000000000000815260206004820152601b60248201527f4e6f7420656e6f75676874206465706f7369742062616c616e6365000000000060448201526064016109b0565b6001546040517fa9059cbb0000000000000000000000000000000000000000000000000000000081523360048201526024810185905273ffffffffffffffffffffffffffffffffffffffff9091169063a9059cbb906044016020604051808303815f875af1158015610bf6573d5f803e3d5ffd5b505050506040513d601f19601f82011682018060405250810190610c1a91906144b3565b5082816002015f828254610c2e91906144ff565b9250508190555082600c5f828254610c4691906144ff565b909155505060015f5550610c579050565b50565b335f818152600760209081526040808320548352600690915290206003015473ffffffffffffffffffffffffffffffffffffffff1614610cf6576040517f08c379a000000000000000000000000000000000000000000000000000000000815260206004820152601260248201527f4f6e6c792067616d6520636f6e7472616374000000000000000000000000000060448201526064016109b0565b610cfe613bd1565b335f9081526007602090815260408083205480845260069283905290832090910154909190606490610d309085614512565b610d3a9190614529565b5f8381526006602052604081206007015491925090606490610d5c9086614512565b610d669190614529565b9050610d728183614561565b5f8481526006602052604090206004015410610ddd57610d928183614561565b5f8481526006602052604081206004018054909190610db29084906144ff565b90915550610dc290508183614561565b600d5f828254610dd291906144ff565b90915550610e2d9050565b610de78183614561565b5f8481526006602052604081206005018054909190610e07908490614561565b90915550610e1790508183614561565b600e5f828254610e279190614561565b90915550505b8115610ed1576001546003546040517fa9059cbb00000000000000000000000000000000000000000000000000000000815273ffffffffffffffffffffffffffffffffffffffff91821660048201526024810185905291169063a9059cbb906044016020604051808303815f875af1158015610eab573d5f803e3d5ffd5b505050506040513d601f19601f82011682018060405250810190610ecf91906144b3565b505b8015610f7957600154600480546040517fa9059cbb00000000000000000000000000000000000000000000000000000000815273ffffffffffffffffffffffffffffffffffffffff91821692810192909252602482018490529091169063a9059cbb906044016020604051808303815f875af1158015610f53573d5f803e3d5ffd5b505050506040513d601f19601f82011682018060405250810190610f7791906144b3565b505b505050610c5760015f55565b60025473ffffffffffffffffffffffffffffffffffffffff163314611006576040517f08c379a000000000000000000000000000000000000000000000000000000000815260206004820152600a60248201527f4f6e6c79206f776e65720000000000000000000000000000000000000000000060448201526064016109b0565b61100e613bd1565b5f828152600660205260409020548214611084576040517f08c379a000000000000000000000000000000000000000000000000000000000815260206004820152601060248201527f47616d65206e6f7420666f756e6465640000000000000000000000000000000060448201526064016109b0565b5f81116110ed576040517f08c379a000000000000000000000000000000000000000000000000000000000815260206004820152601d60248201527f416d6f756e74206d7573742062652067726561746572207468616e203000000060448201526064016109b0565b5f82815260066020526040902060050154811115611167576040517f08c379a000000000000000000000000000000000000000000000000000000000815260206004820152600f60248201527f546f6f206d75636820616d6f756e74000000000000000000000000000000000060448201526064016109b0565b6001546040517f23b872dd0000000000000000000000000000000000000000000000000000000081523360048201523060248201526044810183905273ffffffffffffffffffffffffffffffffffffffff909116906323b872dd906064016020604051808303815f875af11580156111e1573d5f803e3d5ffd5b505050506040513d601f19601f8201168201806040525081019061120591906144b3565b505f82815260066020526040812060050180548392906112269084906144ff565b9250508190555080600e5f82825461123e91906144ff565b909155505060015f555050565b5050565b60025473ffffffffffffffffffffffffffffffffffffffff1633146112d0576040517f08c379a000000000000000000000000000000000000000000000000000000000815260206004820152600a60248201527f4f6e6c79206f776e65720000000000000000000000000000000000000000000060448201526064016109b0565b60015473ffffffffffffffffffffffffffffffffffffffff9081169083160361137b576040517f08c379a000000000000000000000000000000000000000000000000000000000815260206004820152602b60248201527f43616e74207265636f7765722067616d6520746f6b656e2e204f6e6c7920626160448201527f6e6b20776974686472617700000000000000000000000000000000000000000060648201526084016109b0565b6002546040517fa9059cbb00000000000000000000000000000000000000000000000000000000815273ffffffffffffffffffffffffffffffffffffffff9182166004820152602481018390529083169063a9059cbb906044016020604051808303815f875af11580156113f1573d5f803e3d5ffd5b505050506040513d601f19601f8201168201806040525081019061141591906144b3565b505050565b606060095483111561148d57604080515f8082526020820190925290611485565b61147260405180606001604052805f81526020015f73ffffffffffffffffffffffffffffffffffffffff1681526020015f81525090565b81526020019060019003908161143b5790505b5090506115e6565b82158015611499575081155b156114a45760095491505b6009546114b18385614561565b11156114c857826009546114c591906144ff565b91505b5f8267ffffffffffffffff8111156114e2576114e261415d565b60405190808252806020026020018201604052801561154a57816020015b61153760405180606001604052805f81526020015f73ffffffffffffffffffffffffffffffffffffffff1681526020015f81525090565b8152602001906001900390816115005790505b5090505f5b838110156115e257600a5f868360095461156991906144ff565b61157391906144ff565b815260208082019290925260409081015f20815160608101835281548152600182015473ffffffffffffffffffffffffffffffffffffffff1693810193909352600201549082015282518390839081106115cf576115cf614574565b602090810291909101015260010161154f565b5090505b92915050565b60025473ffffffffffffffffffffffffffffffffffffffff16331461166d576040517f08c379a000000000000000000000000000000000000000000000000000000000815260206004820152600a60248201527f4f6e6c79206f776e65720000000000000000000000000000000000000000000060448201526064016109b0565b600380547fffffffffffffffffffffffff00000000000000000000000000000000000000001673ffffffffffffffffffffffffffffffffffffffff92909216919091179055565b60025473ffffffffffffffffffffffffffffffffffffffff163314611735576040517f08c379a000000000000000000000000000000000000000000000000000000000815260206004820152600a60248201527f4f6e6c79206f776e65720000000000000000000000000000000000000000000060448201526064016109b0565b600f55565b61177160405180606001604052805f81526020015f73ffffffffffffffffffffffffffffffffffffffff1681526020015f81525090565b5073ffffffffffffffffffffffffffffffffffffffff9081165f908152600b60209081526040808320548352600a825291829020825160608101845281548152600182015490941691840191909152600201549082015290565b61182c6040518061012001604052805f8152602001606081526020015f80191681526020015f73ffffffffffffffffffffffffffffffffffffffff1681526020015f81526020015f81526020015f81526020015f8152602001606081525090565b73ffffffffffffffffffffffffffffffffffffffff82165f90815260076020908152604080832054835260068252918290208251610120810190935280548352600181018054919284019161188090614462565b80601f01602080910402602001604051908101604052809291908181526020018280546118ac90614462565b80156118f75780601f106118ce576101008083540402835291602001916118f7565b820191905f5260205f20905b8154815290600101906020018083116118da57829003601f168201915b505050918352505060028201546020820152600382015473ffffffffffffffffffffffffffffffffffffffff1660408201526004820154606082015260058201546080820152600682015460a0820152600782015460c082015260088201805460e09092019161196690614462565b80601f016020809104026020016040519081016040528092919081815260200182805461199290614462565b80156119dd5780601f106119b4576101008083540402835291602001916119dd565b820191905f5260205f20905b8154815290600101906020018083116119c057829003601f168201915b5050505050815250509050919050565b60025473ffffffffffffffffffffffffffffffffffffffff163314611a6e576040517f08c379a000000000000000000000000000000000000000000000000000000000815260206004820152600a60248201527f4f6e6c79206f776e65720000000000000000000000000000000000000000000060448201526064016109b0565b5f81815260066020526040902054819003610c57575f8181526006602052604090206004015415611b20576040517f08c379a0000000000000000000000000000000000000000000000000000000008152602060048201526024808201527f43616e742072656d6f76652067616d652077697468206e6f7420656d7074792060448201527f62616e6b0000000000000000000000000000000000000000000000000000000060648201526084016109b0565b5f8181526006602052604090206005015415611bbe576040517f08c379a000000000000000000000000000000000000000000000000000000000815260206004820152602c60248201527f43616e742072656d6f76652067616d652077697468206e6f7420656d7074792060448201527f70656e64696e672062616e6b000000000000000000000000000000000000000060648201526084016109b0565b5f818152600660205260409020600381015460029091015460055473ffffffffffffffffffffffffffffffffffffffff90921691831015611d1757600580545f908152600660205260408082208690559154815281812085825291902081548155600180820190611c31908401826145ec565b506002828101549082015560038083015490820180547fffffffffffffffffffffffff00000000000000000000000000000000000000001673ffffffffffffffffffffffffffffffffffffffff90921691909117905560048083015490820155600580830154908201556006808301549082015560078083015490820155600880820190611cc1908401826145ec565b5050600580545f9081526006602081815260408084206003015473ffffffffffffffffffffffffffffffffffffffff16845260078252808420899055935483529081528282206002015482526008905220849055505b6005545f90815260066020526040812081815590611d386001830182613d3f565b5f600283018190556003830180547fffffffffffffffffffffffff000000000000000000000000000000000000000016905560048301819055600583018190556006830181905560078301819055611d94906008840190613d3f565b505073ffffffffffffffffffffffffffffffffffffffff82165f908152600760209081526040808320839055838352600890915281208190556005805491611ddb8361471d565b9190505550505050565b335f818152600760209081526040808320548352600690915290206003015473ffffffffffffffffffffffffffffffffffffffff1614611e81576040517f08c379a000000000000000000000000000000000000000000000000000000000815260206004820152601260248201527f4f6e6c792067616d6520636f6e7472616374000000000000000000000000000060448201526064016109b0565b611e89613bd1565b73ffffffffffffffffffffffffffffffffffffffff8083165f818152600b60209081526040808320543384526007835281842054818552600a90935292206001015491939092911614611f38576040517f08c379a000000000000000000000000000000000000000000000000000000000815260206004820152601060248201527f55736572206e6f7420666f756e6465640000000000000000000000000000000060448201526064016109b0565b5f818152600660205260409020600401548311611f92575f8181526006602052604081206004018054859290611f6f9084906144ff565b9250508190555082600d5f828254611f8791906144ff565b90915550611fd09050565b5f8181526006602052604081206005018054859290611fb2908490614561565b9250508190555082600e5f828254611fca9190614561565b90915550505b5f828152600a602052604081206002018054859290611ff0908490614561565b9250508190555082600c5f8282546120089190614561565b909155505060015f555061124b9050565b60025473ffffffffffffffffffffffffffffffffffffffff16331461209a576040517f08c379a000000000000000000000000000000000000000000000000000000000815260206004820152600a60248201527f4f6e6c79206f776e65720000000000000000000000000000000000000000000060448201526064016109b0565b6120a2613bd1565b5f828152600660205260409020548214612118576040517f08c379a000000000000000000000000000000000000000000000000000000000815260206004820152601060248201527f47616d65206e6f7420666f756e6465640000000000000000000000000000000060448201526064016109b0565b5f8111612181576040517f08c379a000000000000000000000000000000000000000000000000000000000815260206004820152601d60248201527f416d6f756e74206d7573742062652067726561746572207468616e203000000060448201526064016109b0565b5f828152600660205260409020600401548111156121fb576040517f08c379a000000000000000000000000000000000000000000000000000000000815260206004820152601760248201527f456e676f75742067616d652062616e6b20616d6f756e7400000000000000000060448201526064016109b0565b6001546040517fa9059cbb0000000000000000000000000000000000000000000000000000000081523360048201526024810183905273ffffffffffffffffffffffffffffffffffffffff9091169063a9059cbb906044016020604051808303815f875af115801561226f573d5f803e3d5ffd5b505050506040513d601f19601f8201168201806040525081019061229391906144b3565b505f82815260066020526040812060040180548392906122b49084906144ff565b9250508190555080600d5f82825461123e91906144ff565b6122f260405180606001604052805f60ff16815260200160608152602001606081525090565b604051806060016040528060015f9054906101000a900473ffffffffffffffffffffffffffffffffffffffff1673ffffffffffffffffffffffffffffffffffffffff1663313ce5676040518163ffffffff1660e01b8152600401602060405180830381865afa158015612367573d5f803e3d5ffd5b505050506040513d601f19601f8201168201806040525081019061238b9190614751565b60ff16815260200160015f9054906101000a900473ffffffffffffffffffffffffffffffffffffffff1673ffffffffffffffffffffffffffffffffffffffff166395d89b416040518163ffffffff1660e01b81526004015f60405180830381865afa1580156123fc573d5f803e3d5ffd5b505050506040513d5f823e601f3d9081017fffffffffffffffffffffffffffffffffffffffffffffffffffffffffffffffe01682016040526124419190810190614771565b815260200160015f9054906101000a900473ffffffffffffffffffffffffffffffffffffffff1673ffffffffffffffffffffffffffffffffffffffff166306fdde036040518163ffffffff1660e01b81526004015f60405180830381865afa1580156124af573d5f803e3d5ffd5b505050506040513d5f823e601f3d9081017fffffffffffffffffffffffffffffffffffffffffffffffffffffffffffffffe01682016040526124f49190810190614771565b9052919050565b606060055483111561259757604080515f8082526020820190925290611485565b61257d6040518061012001604052805f8152602001606081526020015f80191681526020015f73ffffffffffffffffffffffffffffffffffffffff1681526020015f81526020015f81526020015f81526020015f8152602001606081525090565b81526020019060019003908161251c5790505090506115e6565b821580156125a3575081155b156125ae5760055491505b6005546125bb8385614561565b11156125d257826005546125cf91906144ff565b91505b5f8267ffffffffffffffff8111156125ec576125ec61415d565b60405190808252806020026020018201604052801561267e57816020015b61266b6040518061012001604052805f8152602001606081526020015f80191681526020015f73ffffffffffffffffffffffffffffffffffffffff1681526020015f81526020015f81526020015f81526020015f8152602001606081525090565b81526020019060019003908161260a5790505b5090505f5b838110156115e25760065f868360055461269d91906144ff565b6126a791906144ff565b81526020019081526020015f20604051806101200160405290815f82015481526020016001820180546126d990614462565b80601f016020809104026020016040519081016040528092919081815260200182805461270590614462565b80156127505780601f1061272757610100808354040283529160200191612750565b820191905f5260205f20905b81548152906001019060200180831161273357829003601f168201915b505050918352505060028201546020820152600382015473ffffffffffffffffffffffffffffffffffffffff1660408201526004820154606082015260058201546080820152600682015460a0820152600782015460c082015260088201805460e0909201916127bf90614462565b80601f01602080910402602001604051908101604052809291908181526020018280546127eb90614462565b80156128365780601f1061280d57610100808354040283529160200191612836565b820191905f5260205f20905b81548152906001019060200180831161281957829003601f168201915b50505050508152505082828151811061285157612851614574565b6020908102919091010152600101612683565b61286c613bd1565b5f81116128d5576040517f08c379a000000000000000000000000000000000000000000000000000000000815260206004820152601d60248201527f416d6f756e74206d7573742062652067726561746572207468616e203000000060448201526064016109b0565b6001546040517f23b872dd0000000000000000000000000000000000000000000000000000000081523360048201523060248201526044810183905273ffffffffffffffffffffffffffffffffffffffff909116906323b872dd906064016020604051808303815f875af115801561294f573d5f803e3d5ffd5b505050506040513d601f19601f8201168201806040525081019061297391906144b3565b505f61297e33613c42565b5f818152600a6020526040812060028101805493945090928592906129a4908490614561565b9250508190555082600c5f828254610c469190614561565b60025473ffffffffffffffffffffffffffffffffffffffff163314612a3d576040517f08c379a000000000000000000000000000000000000000000000000000000000815260206004820152600a60248201527f4f6e6c79206f776e65720000000000000000000000000000000000000000000060448201526064016109b0565b612a45613bd1565b5f825182612a539190614512565b6001546040517f23b872dd0000000000000000000000000000000000000000000000000000000081523360048201523060248201526044810183905291925073ffffffffffffffffffffffffffffffffffffffff16906323b872dd906064016020604051808303815f875af1158015612ace573d5f803e3d5ffd5b505050506040513d601f19601f82011682018060405250810190612af291906144b3565b505f5b8351811015612b54575f612b21858381518110612b1457612b14614574565b6020026020010151613c42565b905083600a5f8381526020019081526020015f206002015f828254612b469190614561565b909155505050600101612af5565b5080600c5f828254612b669190614561565b909155505060015f55505050565b60025473ffffffffffffffffffffffffffffffffffffffff163314612bf5576040517f08c379a000000000000000000000000000000000000000000000000000000000815260206004820152600a60248201527f4f6e6c79206f776e65720000000000000000000000000000000000000000000060448201526064016109b0565b6064612c018284614561565b1115612c69576040517f08c379a000000000000000000000000000000000000000000000000000000000815260206004820152601960248201527f6275726e2b7374616b65206d757374206265203c3d203130300000000000000060448201526064016109b0565b5f84604051602001612c7b91906147da565b604080517fffffffffffffffffffffffffffffffffffffffffffffffffffffffffffffffe081840301815291815281516020928301205f818152600890935291205490915015612d4d576040517f08c379a000000000000000000000000000000000000000000000000000000000815260206004820152602260248201527f47616d652077697468207468697320436f646520616c7265616479206578697360448201527f747300000000000000000000000000000000000000000000000000000000000060648201526084016109b0565b73ffffffffffffffffffffffffffffffffffffffff86165f908152600760205260408120549003612ec05760058054905f612d87836147f5565b909155505060055473ffffffffffffffffffffffffffffffffffffffff87165f818152600760209081526040808320859055858352600882528083208590558051610120810182528581528083018b815281830188905260608201959095526080810184905260a0810184905260c0810189905260e0810188905261010081018a9052948352600690915290208251815590516001820190612e29908261482c565b506040820151600282015560608201516003820180547fffffffffffffffffffffffff00000000000000000000000000000000000000001673ffffffffffffffffffffffffffffffffffffffff9092169190911790556080820151600482015560a0820151600582015560c0820151600682015560e082015160078201556101008201516008820190612ebc908261482c565b5050505b505050505050565b60025473ffffffffffffffffffffffffffffffffffffffff163314612f49576040517f08c379a000000000000000000000000000000000000000000000000000000000815260206004820152600a60248201527f4f6e6c79206f776e65720000000000000000000000000000000000000000000060448201526064016109b0565b612f51613bd1565b73ffffffffffffffffffffffffffffffffffffffff8083165f818152600b6020908152604080832054808452600a909252909120600181015491939092911614612ff7576040517f08c379a000000000000000000000000000000000000000000000000000000000815260206004820152600f60248201527f55736572206e6f7420657869737473000000000000000000000000000000000060448201526064016109b0565b8281600201541015613065576040517f08c379a000000000000000000000000000000000000000000000000000000000815260206004820152601b60248201527f4e6f7420656e6f75676874206465706f7369742062616c616e6365000000000060448201526064016109b0565b6001546040517fa9059cbb00000000000000000000000000000000000000000000000000000000815273ffffffffffffffffffffffffffffffffffffffff8681166004830152602482018690529091169063a9059cbb906044016020604051808303815f875af11580156130db573d5f803e3d5ffd5b505050506040513d601f19601f820116820180604052508101906130ff91906144b3565b5082816002015f82825461311391906144ff565b9250508190555082600c5f82825461200891906144ff565b61318c6040518061012001604052805f8152602001606081526020015f80191681526020015f73ffffffffffffffffffffffffffffffffffffffff1681526020015f81526020015f81526020015f81526020015f8152602001606081525090565b5f8260405160200161319e91906147da565b604080517fffffffffffffffffffffffffffffffffffffffffffffffffffffffffffffffe081840301815282825280516020918201205f8181526008835283812054815260068352839020610120850190935282548452600183018054919550918401919061320c90614462565b80601f016020809104026020016040519081016040528092919081815260200182805461323890614462565b80156132835780601f1061325a57610100808354040283529160200191613283565b820191905f5260205f20905b81548152906001019060200180831161326657829003601f168201915b505050918352505060028201546020820152600382015473ffffffffffffffffffffffffffffffffffffffff1660408201526004820154606082015260058201546080820152600682015460a0820152600782015460c082015260088201805460e0909201916132f290614462565b80601f016020809104026020016040519081016040528092919081815260200182805461331e90614462565b80156133695780601f1061334057610100808354040283529160200191613369565b820191905f5260205f20905b81548152906001019060200180831161334c57829003601f168201915b505050505081525050915050919050565b60025473ffffffffffffffffffffffffffffffffffffffff1633146133fb576040517f08c379a000000000000000000000000000000000000000000000000000000000815260206004820152600a60248201527f4f6e6c79206f776e65720000000000000000000000000000000000000000000060448201526064016109b0565b60646134078284614561565b111561346f576040517f08c379a000000000000000000000000000000000000000000000000000000000815260206004820152601960248201527f6275726e2b7374616b65206d757374206265203c3d203130300000000000000060448201526064016109b0565b5f8460405160200161348191906147da565b604080517fffffffffffffffffffffffffffffffffffffffffffffffffffffffffffffffe081840301815291815281516020928301205f8a81526006909352912054909150879003613697575f8781526006602052604090206002015481146135ae575f818152600860205260409020541561357f576040517f08c379a000000000000000000000000000000000000000000000000000000000815260206004820152602260248201527f47616d652077697468207468697320636f646520616c7265616479206578697360448201527f747300000000000000000000000000000000000000000000000000000000000060648201526084016109b0565b5f8781526006602090815260408083206002018054845260089092528083208390559083905582825290208790555b5f8781526006602052604090206008016135c8858261482c565b505f8781526006602052604090206001016135e3868261482c565b505f878152600660208190526040909120908101849055600781018390556003015473ffffffffffffffffffffffffffffffffffffffff878116911614613697575f878152600660208181526040808420600301805473ffffffffffffffffffffffffffffffffffffffff9081168652600784528286208690558b168086529185208c9055938b905291905281547fffffffffffffffffffffffff0000000000000000000000000000000000000000161790555b50505050505050565b60025473ffffffffffffffffffffffffffffffffffffffff163314613721576040517f08c379a000000000000000000000000000000000000000000000000000000000815260206004820152600a60248201527f4f6e6c79206f776e65720000000000000000000000000000000000000000000060448201526064016109b0565b613729613bd1565b5f82815260066020526040902054821461379f576040517f08c379a000000000000000000000000000000000000000000000000000000000815260206004820152601060248201527f47616d65206e6f7420666f756e6465640000000000000000000000000000000060448201526064016109b0565b5f8111613808576040517f08c379a000000000000000000000000000000000000000000000000000000000815260206004820152601d60248201527f416d6f756e74206d7573742062652067726561746572207468616e203000000060448201526064016109b0565b6001546040517f23b872dd0000000000000000000000000000000000000000000000000000000081523360048201523060248201526044810183905273ffffffffffffffffffffffffffffffffffffffff909116906323b872dd906064016020604051808303815f875af1158015613882573d5f803e3d5ffd5b505050506040513d601f19601f820116820180604052508101906138a691906144b3565b505f82815260066020526040812060040180548392906138c7908490614561565b9250508190555080600d5f82825461123e9190614561565b335f818152600760209081526040808320548352600690915290206003015473ffffffffffffffffffffffffffffffffffffffff161461397b576040517f08c379a000000000000000000000000000000000000000000000000000000000815260206004820152601260248201527f4f6e6c792067616d6520636f6e7472616374000000000000000000000000000060448201526064016109b0565b613983613bd1565b73ffffffffffffffffffffffffffffffffffffffff8083165f818152600b60209081526040808320543384526007835281842054818552600a90935292206001015491939092911614613a32576040517f08c379a000000000000000000000000000000000000000000000000000000000815260206004820152601060248201527f55736572206e6f7420666f756e6465640000000000000000000000000000000060448201526064016109b0565b5f828152600a6020526040902060020154831115613aac576040517f08c379a000000000000000000000000000000000000000000000000000000000815260206004820152601260248201527f4e6f7420656e6f7574682062616c616e6365000000000000000000000000000060448201526064016109b0565b5f828152600a602052604081206002018054859290613acc9084906144ff565b90915550505f8181526006602052604081206004018054859290613af1908490614561565b9250508190555082600d5f8282546131139190614561565b60025473ffffffffffffffffffffffffffffffffffffffff163314613b8a576040517f08c379a000000000000000000000000000000000000000000000000000000000815260206004820152600a60248201527f4f6e6c79206f776e65720000000000000000000000000000000000000000000060448201526064016109b0565b600280547fffffffffffffffffffffffff00000000000000000000000000000000000000001673ffffffffffffffffffffffffffffffffffffffff92909216919091179055565b60025f5403613c3c576040517f08c379a000000000000000000000000000000000000000000000000000000000815260206004820152601f60248201527f5265656e7472616e637947756172643a207265656e7472616e742063616c6c0060448201526064016109b0565b60025f55565b73ffffffffffffffffffffffffffffffffffffffff81165f908152600b60205260408120548103613d175760098054905f613c7c836147f5565b90915550506009805473ffffffffffffffffffffffffffffffffffffffff9384165f818152600b602090815260408083208590558051606081018252858152808301948552808201848152958452600a9092529091209051815590516001820180547fffffffffffffffffffffffff000000000000000000000000000000000000000016919096161790945551600290930192909255505490565b5073ffffffffffffffffffffffffffffffffffffffff165f908152600b602052604090205490565b508054613d4b90614462565b5f825580601f10613d5a575050565b601f0160209004905f5260205f2090810190610c5791905b80821115613d85575f8155600101613d72565b5090565b803573ffffffffffffffffffffffffffffffffffffffff81168114613dac575f80fd5b919050565b5f60208284031215613dc1575f80fd5b613dca82613d89565b9392505050565b5f60208284031215613de1575f80fd5b5035919050565b5f5b83811015613e02578181015183820152602001613dea565b50505f910152565b5f8151808452613e21816020860160208601613de8565b601f017fffffffffffffffffffffffffffffffffffffffffffffffffffffffffffffffe0169290920160200192915050565b5f6101208b8352806020840152613e6c8184018c613e0a565b905089604084015273ffffffffffffffffffffffffffffffffffffffff891660608401528760808401528660a08401528560c08401528460e0840152828103610100840152613ebb8185613e0a565b9c9b505050505050505050505050565b5f8060408385031215613edc575f80fd5b50508035926020909101359150565b5f8060408385031215613efc575f80fd5b613f0583613d89565b946020939093013593505050565b602080825282518282018190525f9190848201906040850190845b81811015613f7e57613f6b8385518051825260208082015173ffffffffffffffffffffffffffffffffffffffff1690830152604090810151910152565b9284019260609290920191600101613f2e565b50909695505050505050565b8151815260208083015173ffffffffffffffffffffffffffffffffffffffff169082015260408083015190820152606081016115e6565b5f610120825184526020830151816020860152613fe082860182613e0a565b915050604083015160408501526060830151614014606086018273ffffffffffffffffffffffffffffffffffffffff169052565b506080830151608085015260a083015160a085015260c083015160c085015260e083015160e085015261010080840151858303828701526140558382613e0a565b9695505050505050565b602081525f613dca6020830184613fc1565b6020815260ff82511660208201525f6020830151606060408401526140996080840182613e0a565b905060408401517fffffffffffffffffffffffffffffffffffffffffffffffffffffffffffffffe08483030160608501526140d48282613e0a565b95945050505050565b5f60208083016020845280855180835260408601915060408160051b8701019250602087015f5b82811015614150577fffffffffffffffffffffffffffffffffffffffffffffffffffffffffffffffc088860301845261413e858351613fc1565b94509285019290850190600101614104565b5092979650505050505050565b7f4e487b71000000000000000000000000000000000000000000000000000000005f52604160045260245ffd5b604051601f82017fffffffffffffffffffffffffffffffffffffffffffffffffffffffffffffffe016810167ffffffffffffffff811182821017156141d1576141d161415d565b604052919050565b5f80604083850312156141ea575f80fd5b823567ffffffffffffffff80821115614201575f80fd5b818501915085601f830112614214575f80fd5b81356020828211156142285761422861415d565b8160051b925061423981840161418a565b8281529284018101928181019089851115614252575f80fd5b948201945b848610156142775761426886613d89565b82529482019490820190614257565b9997909101359750505050505050565b5f67ffffffffffffffff8211156142a0576142a061415d565b50601f017fffffffffffffffffffffffffffffffffffffffffffffffffffffffffffffffe01660200190565b5f82601f8301126142db575f80fd5b81356142ee6142e982614287565b61418a565b818152846020838601011115614302575f80fd5b816020850160208301375f918101602001919091529392505050565b5f805f805f60a08688031215614332575f80fd5b61433b86613d89565b9450602086013567ffffffffffffffff80821115614357575f80fd5b61436389838a016142cc565b95506040880135915080821115614378575f80fd5b50614385888289016142cc565b9598949750949560608101359550608001359392505050565b5f602082840312156143ae575f80fd5b813567ffffffffffffffff8111156143c4575f80fd5b6143d0848285016142cc565b949350505050565b5f805f805f8060c087890312156143ed575f80fd5b863595506143fd60208801613d89565b9450604087013567ffffffffffffffff80821115614419575f80fd5b6144258a838b016142cc565b9550606089013591508082111561443a575f80fd5b5061444789828a016142cc565b9350506080870135915060a087013590509295509295509295565b600181811c9082168061447657607f821691505b6020821081036144ad577f4e487b71000000000000000000000000000000000000000000000000000000005f52602260045260245ffd5b50919050565b5f602082840312156144c3575f80fd5b81518015158114613dca575f80fd5b7f4e487b71000000000000000000000000000000000000000000000000000000005f52601160045260245ffd5b818103818111156115e6576115e66144d2565b80820281158282048414176115e6576115e66144d2565b5f8261455c577f4e487b71000000000000000000000000000000000000000000000000000000005f52601260045260245ffd5b500490565b808201808211156115e6576115e66144d2565b7f4e487b71000000000000000000000000000000000000000000000000000000005f52603260045260245ffd5b601f82111561141557805f5260205f20601f840160051c810160208510156145c65750805b601f840160051c820191505b818110156145e5575f81556001016145d2565b5050505050565b8181036145f7575050565b6146018254614462565b67ffffffffffffffff8111156146195761461961415d565b61462d816146278454614462565b846145a1565b5f601f82116001811461467d575f83156146475750848201545b7fffffffffffffffffffffffffffffffffffffffffffffffffffffffffffffffff600385901b1c1916600184901b1784556145e5565b5f85815260208082208683529082207fffffffffffffffffffffffffffffffffffffffffffffffffffffffffffffffe08616925b838110156146d157828601548255600195860195909101906020016146b1565b508583101561470d57818501547fffffffffffffffffffffffffffffffffffffffffffffffffffffffffffffffff600388901b60f8161c191681555b5050505050600190811b01905550565b5f8161472b5761472b6144d2565b507fffffffffffffffffffffffffffffffffffffffffffffffffffffffffffffffff0190565b5f60208284031215614761575f80fd5b815160ff81168114613dca575f80fd5b5f60208284031215614781575f80fd5b815167ffffffffffffffff811115614797575f80fd5b8201601f810184136147a7575f80fd5b80516147b56142e982614287565b8181528560208385010111156147c9575f80fd5b6140d4826020830160208601613de8565b5f82516147eb818460208701613de8565b9190910192915050565b5f7fffffffffffffffffffffffffffffffffffffffffffffffffffffffffffffffff8203614825576148256144d2565b5060010190565b815167ffffffffffffffff8111156148465761484661415d565b614854816146278454614462565b602080601f8311600181146148a6575f84156148705750858301515b7fffffffffffffffffffffffffffffffffffffffffffffffffffffffffffffffff600386901b1c1916600185901b178555612ec0565b5f858152602081207fffffffffffffffffffffffffffffffffffffffffffffffffffffffffffffffe08616915b828110156148f2578886015182559484019460019091019084016148d3565b508582101561470d5793909601517fffffffffffffffffffffffffffffffffffffffffffffffffffffffffffffffff60f8600387901b161c19169092555050600190811b0190555056fea26469706673582212208a675d7bf4901c007500d712a0a48cd4ca5068408e3dd3f69a257c9e3fc24d1864736f6c63430008180033",
			"opcodes": "PUSH1 0x80 PUSH1 0x40 MSTORE PUSH0 PUSH1 0x5 SSTORE PUSH0 PUSH1 0x9 SSTORE PUSH0 PUSH1 0xC SSTORE PUSH0 PUSH1 0xD SSTORE PUSH0 PUSH1 0xE SSTORE PUSH0 PUSH1 0xF SSTORE CALLVALUE DUP1 ISZERO PUSH3 0x28 JUMPI PUSH0 DUP1 REVERT JUMPDEST POP PUSH1 0x40 MLOAD PUSH3 0x4A47 CODESIZE SUB DUP1 PUSH3 0x4A47 DUP4 CODECOPY DUP2 ADD PUSH1 0x40 DUP2 SWAP1 MSTORE PUSH3 0x4B SWAP2 PUSH3 0x98 JUMP JUMPDEST PUSH1 0x1 PUSH0 DUP2 SWAP1 SSTORE PUSH1 0x2 DUP1 SLOAD CALLER PUSH1 0x1 PUSH1 0x1 PUSH1 0xA0 SHL SUB NOT SWAP2 DUP3 AND DUP2 OR SWAP1 SWAP3 SSTORE PUSH1 0x3 DUP1 SLOAD DUP3 AND DUP4 OR SWAP1 SSTORE PUSH1 0x4 DUP1 SLOAD DUP3 AND SWAP1 SWAP3 OR SWAP1 SWAP2 SSTORE DUP2 SLOAD AND PUSH1 0x1 PUSH1 0x1 PUSH1 0xA0 SHL SUB SWAP3 SWAP1 SWAP3 AND SWAP2 SWAP1 SWAP2 OR SWAP1 SSTORE PUSH3 0xC7 JUMP JUMPDEST PUSH0 PUSH1 0x20 DUP3 DUP5 SUB SLT ISZERO PUSH3 0xA9 JUMPI PUSH0 DUP1 REVERT JUMPDEST DUP2 MLOAD PUSH1 0x1 PUSH1 0x1 PUSH1 0xA0 SHL SUB DUP2 AND DUP2 EQ PUSH3 0xC0 JUMPI PUSH0 DUP1 REVERT JUMPDEST SWAP4 SWAP3 POP POP POP JUMP JUMPDEST PUSH2 0x4972 DUP1 PUSH3 0xD5 PUSH0 CODECOPY PUSH0 RETURN INVALID PUSH1 0x80 PUSH1 0x40 MSTORE CALLVALUE DUP1 ISZERO PUSH2 0xF JUMPI PUSH0 DUP1 REVERT JUMPDEST POP PUSH1 0x4 CALLDATASIZE LT PUSH2 0x2CD JUMPI PUSH0 CALLDATALOAD PUSH1 0xE0 SHR DUP1 PUSH4 0x8E0D920E GT PUSH2 0x17C JUMPI DUP1 PUSH4 0xC5408D50 GT PUSH2 0xDD JUMPI DUP1 PUSH4 0xE97FFDC1 GT PUSH2 0x93 JUMPI DUP1 PUSH4 0xFB632B7C GT PUSH2 0x6E JUMPI DUP1 PUSH4 0xFB632B7C EQ PUSH2 0x713 JUMPI DUP1 PUSH4 0xFC0C546A EQ PUSH2 0x71C JUMPI DUP1 PUSH4 0xFCF038A3 EQ PUSH2 0x73C JUMPI PUSH0 DUP1 REVERT JUMPDEST DUP1 PUSH4 0xE97FFDC1 EQ PUSH2 0x6DA JUMPI DUP1 PUSH4 0xF0A507DA EQ PUSH2 0x6ED JUMPI DUP1 PUSH4 0xF2FDE38B EQ PUSH2 0x700 JUMPI PUSH0 DUP1 REVERT JUMPDEST DUP1 PUSH4 0xCA9B5E39 GT PUSH2 0xC3 JUMPI DUP1 PUSH4 0xCA9B5E39 EQ PUSH2 0x6A1 JUMPI DUP1 PUSH4 0xCED91A72 EQ PUSH2 0x6B4 JUMPI DUP1 PUSH4 0xD1E284DB EQ PUSH2 0x6C7 JUMPI PUSH0 DUP1 REVERT JUMPDEST DUP1 PUSH4 0xC5408D50 EQ PUSH2 0x685 JUMPI DUP1 PUSH4 0xC814EF1B EQ PUSH2 0x68E JUMPI PUSH0 DUP1 REVERT JUMPDEST DUP1 PUSH4 0xB6B55F25 GT PUSH2 0x132 JUMPI DUP1 PUSH4 0xB936BEE0 GT PUSH2 0x118 JUMPI DUP1 PUSH4 0xB936BEE0 EQ PUSH2 0x624 JUMPI DUP1 PUSH4 0xC084B10B EQ PUSH2 0x62D JUMPI DUP1 PUSH4 0xC204642C EQ PUSH2 0x672 JUMPI PUSH0 DUP1 REVERT JUMPDEST DUP1 PUSH4 0xB6B55F25 EQ PUSH2 0x5F2 JUMPI DUP1 PUSH4 0xB8E21A5B EQ PUSH2 0x605 JUMPI PUSH0 DUP1 REVERT JUMPDEST DUP1 PUSH4 0xAAD605BA GT PUSH2 0x162 JUMPI DUP1 PUSH4 0xAAD605BA EQ PUSH2 0x5AA JUMPI DUP1 PUSH4 0xABB1DC44 EQ PUSH2 0x5BD JUMPI DUP1 PUSH4 0xAC451185 EQ PUSH2 0x5D2 JUMPI PUSH0 DUP1 REVERT JUMPDEST DUP1 PUSH4 0x8E0D920E EQ PUSH2 0x584 JUMPI DUP1 PUSH4 0x95467177 EQ PUSH2 0x597 JUMPI PUSH0 DUP1 REVERT JUMPDEST DUP1 PUSH4 0x457E1A49 GT PUSH2 0x231 JUMPI DUP1 PUSH4 0x6BA13A82 GT PUSH2 0x1E7 JUMPI DUP1 PUSH4 0x85107367 GT PUSH2 0x1C2 JUMPI DUP1 PUSH4 0x85107367 EQ PUSH2 0x524 JUMPI DUP1 PUSH4 0x8D1A4B28 EQ PUSH2 0x544 JUMPI DUP1 PUSH4 0x8DA5CB5B EQ PUSH2 0x564 JUMPI PUSH0 DUP1 REVERT JUMPDEST DUP1 PUSH4 0x6BA13A82 EQ PUSH2 0x4B6 JUMPI DUP1 PUSH4 0x6F77926B EQ PUSH2 0x4BF JUMPI DUP1 PUSH4 0x70D5AE05 EQ PUSH2 0x4DF JUMPI PUSH0 DUP1 REVERT JUMPDEST DUP1 PUSH4 0x4B0E7216 GT PUSH2 0x217 JUMPI DUP1 PUSH4 0x4B0E7216 EQ PUSH2 0x471 JUMPI DUP1 PUSH4 0x5ABDB0DC EQ PUSH2 0x484 JUMPI DUP1 PUSH4 0x6313091C EQ PUSH2 0x497 JUMPI PUSH0 DUP1 REVERT JUMPDEST DUP1 PUSH4 0x457E1A49 EQ PUSH2 0x448 JUMPI DUP1 PUSH4 0x45982A66 EQ PUSH2 0x451 JUMPI PUSH0 DUP1 REVERT JUMPDEST DUP1 PUSH4 0x2E1A7D4D GT PUSH2 0x286 JUMPI DUP1 PUSH4 0x30FF7ABE GT PUSH2 0x26C JUMPI DUP1 PUSH4 0x30FF7ABE EQ PUSH2 0x3AE JUMPI DUP1 PUSH4 0x365B98B2 EQ PUSH2 0x3C1 JUMPI DUP1 PUSH4 0x3C28F9CE EQ PUSH2 0x435 JUMPI PUSH0 DUP1 REVERT JUMPDEST DUP1 PUSH4 0x2E1A7D4D EQ PUSH2 0x388 JUMPI DUP1 PUSH4 0x2EDCBD60 EQ PUSH2 0x39B JUMPI PUSH0 DUP1 REVERT JUMPDEST DUP1 PUSH4 0x23471D18 GT PUSH2 0x2B6 JUMPI DUP1 PUSH4 0x23471D18 EQ PUSH2 0x31F JUMPI DUP1 PUSH4 0x291C3819 EQ PUSH2 0x334 JUMPI DUP1 PUSH4 0x2B956FF7 EQ PUSH2 0x353 JUMPI PUSH0 DUP1 REVERT JUMPDEST DUP1 PUSH4 0xCEC2A76 EQ PUSH2 0x2D1 JUMPI DUP1 PUSH4 0x117A5B90 EQ PUSH2 0x2F7 JUMPI JUMPDEST PUSH0 DUP1 REVERT JUMPDEST PUSH2 0x2E4 PUSH2 0x2DF CALLDATASIZE PUSH1 0x4 PUSH2 0x3DB1 JUMP JUMPDEST PUSH2 0x745 JUMP JUMPDEST PUSH1 0x40 MLOAD SWAP1 DUP2 MSTORE PUSH1 0x20 ADD JUMPDEST PUSH1 0x40 MLOAD DUP1 SWAP2 SUB SWAP1 RETURN JUMPDEST PUSH2 0x30A PUSH2 0x305 CALLDATASIZE PUSH1 0x4 PUSH2 0x3DD1 JUMP JUMPDEST PUSH2 0x7C2 JUMP JUMPDEST PUSH1 0x40 MLOAD PUSH2 0x2EE SWAP10 SWAP9 SWAP8 SWAP7 SWAP6 SWAP5 SWAP4 SWAP3 SWAP2 SWAP1 PUSH2 0x3E53 JUMP JUMPDEST PUSH2 0x332 PUSH2 0x32D CALLDATASIZE PUSH1 0x4 PUSH2 0x3DB1 JUMP JUMPDEST PUSH2 0x933 JUMP JUMPDEST STOP JUMPDEST PUSH2 0x2E4 PUSH2 0x342 CALLDATASIZE PUSH1 0x4 PUSH2 0x3DB1 JUMP JUMPDEST PUSH1 0x7 PUSH1 0x20 MSTORE PUSH0 SWAP1 DUP2 MSTORE PUSH1 0x40 SWAP1 KECCAK256 SLOAD DUP2 JUMP JUMPDEST PUSH2 0x2E4 PUSH2 0x361 CALLDATASIZE PUSH1 0x4 PUSH2 0x3DB1 JUMP JUMPDEST PUSH20 0xFFFFFFFFFFFFFFFFFFFFFFFFFFFFFFFFFFFFFFFF AND PUSH0 SWAP1 DUP2 MSTORE PUSH1 0xB PUSH1 0x20 MSTORE PUSH1 0x40 SWAP1 KECCAK256 SLOAD SWAP1 JUMP JUMPDEST PUSH2 0x332 PUSH2 0x396 CALLDATASIZE PUSH1 0x4 PUSH2 0x3DD1 JUMP JUMPDEST PUSH2 0xA00 JUMP JUMPDEST PUSH2 0x332 PUSH2 0x3A9 CALLDATASIZE PUSH1 0x4 PUSH2 0x3DD1 JUMP JUMPDEST PUSH2 0xC5A JUMP JUMPDEST PUSH2 0x332 PUSH2 0x3BC CALLDATASIZE PUSH1 0x4 PUSH2 0x3ECB JUMP JUMPDEST PUSH2 0xF85 JUMP JUMPDEST PUSH2 0x405 PUSH2 0x3CF CALLDATASIZE PUSH1 0x4 PUSH2 0x3DD1 JUMP JUMPDEST PUSH1 0xA PUSH1 0x20 MSTORE PUSH0 SWAP1 DUP2 MSTORE PUSH1 0x40 SWAP1 KECCAK256 DUP1 SLOAD PUSH1 0x1 DUP3 ADD SLOAD PUSH1 0x2 SWAP1 SWAP3 ADD SLOAD SWAP1 SWAP2 PUSH20 0xFFFFFFFFFFFFFFFFFFFFFFFFFFFFFFFFFFFFFFFF AND SWAP1 DUP4 JUMP JUMPDEST PUSH1 0x40 DUP1 MLOAD SWAP4 DUP5 MSTORE PUSH20 0xFFFFFFFFFFFFFFFFFFFFFFFFFFFFFFFFFFFFFFFF SWAP1 SWAP3 AND PUSH1 0x20 DUP5 ADD MSTORE SWAP1 DUP3 ADD MSTORE PUSH1 0x60 ADD PUSH2 0x2EE JUMP JUMPDEST PUSH2 0x332 PUSH2 0x443 CALLDATASIZE PUSH1 0x4 PUSH2 0x3EEB JUMP JUMPDEST PUSH2 0x124F JUMP JUMPDEST PUSH2 0x2E4 PUSH1 0xF SLOAD DUP2 JUMP JUMPDEST PUSH2 0x464 PUSH2 0x45F CALLDATASIZE PUSH1 0x4 PUSH2 0x3ECB JUMP JUMPDEST PUSH2 0x141A JUMP JUMPDEST PUSH1 0x40 MLOAD PUSH2 0x2EE SWAP2 SWAP1 PUSH2 0x3F13 JUMP JUMPDEST PUSH2 0x332 PUSH2 0x47F CALLDATASIZE PUSH1 0x4 PUSH2 0x3DB1 JUMP JUMPDEST PUSH2 0x15EC JUMP JUMPDEST PUSH2 0x332 PUSH2 0x492 CALLDATASIZE PUSH1 0x4 PUSH2 0x3DD1 JUMP JUMPDEST PUSH2 0x16B4 JUMP JUMPDEST PUSH2 0x2E4 PUSH2 0x4A5 CALLDATASIZE PUSH1 0x4 PUSH2 0x3DD1 JUMP JUMPDEST PUSH1 0x8 PUSH1 0x20 MSTORE PUSH0 SWAP1 DUP2 MSTORE PUSH1 0x40 SWAP1 KECCAK256 SLOAD DUP2 JUMP JUMPDEST PUSH2 0x2E4 PUSH1 0x9 SLOAD DUP2 JUMP JUMPDEST PUSH2 0x4D2 PUSH2 0x4CD CALLDATASIZE PUSH1 0x4 PUSH2 0x3DB1 JUMP JUMPDEST PUSH2 0x173A JUMP JUMPDEST PUSH1 0x40 MLOAD PUSH2 0x2EE SWAP2 SWAP1 PUSH2 0x3F8A JUMP JUMPDEST PUSH1 0x3 SLOAD PUSH2 0x4FF SWAP1 PUSH20 0xFFFFFFFFFFFFFFFFFFFFFFFFFFFFFFFFFFFFFFFF AND DUP2 JUMP JUMPDEST PUSH1 0x40 MLOAD PUSH20 0xFFFFFFFFFFFFFFFFFFFFFFFFFFFFFFFFFFFFFFFF SWAP1 SWAP2 AND DUP2 MSTORE PUSH1 0x20 ADD PUSH2 0x2EE JUMP JUMPDEST PUSH1 0x4 SLOAD PUSH2 0x4FF SWAP1 PUSH20 0xFFFFFFFFFFFFFFFFFFFFFFFFFFFFFFFFFFFFFFFF AND DUP2 JUMP JUMPDEST PUSH2 0x557 PUSH2 0x552 CALLDATASIZE PUSH1 0x4 PUSH2 0x3DB1 JUMP JUMPDEST PUSH2 0x17CB JUMP JUMPDEST PUSH1 0x40 MLOAD PUSH2 0x2EE SWAP2 SWAP1 PUSH2 0x405F JUMP JUMPDEST PUSH1 0x2 SLOAD PUSH2 0x4FF SWAP1 PUSH20 0xFFFFFFFFFFFFFFFFFFFFFFFFFFFFFFFFFFFFFFFF AND DUP2 JUMP JUMPDEST PUSH2 0x332 PUSH2 0x592 CALLDATASIZE PUSH1 0x4 PUSH2 0x3DD1 JUMP JUMPDEST PUSH2 0x19ED JUMP JUMPDEST PUSH2 0x332 PUSH2 0x5A5 CALLDATASIZE PUSH1 0x4 PUSH2 0x3EEB JUMP JUMPDEST PUSH2 0x1DE5 JUMP JUMPDEST PUSH2 0x332 PUSH2 0x5B8 CALLDATASIZE PUSH1 0x4 PUSH2 0x3ECB JUMP JUMPDEST PUSH2 0x2019 JUMP JUMPDEST PUSH2 0x5C5 PUSH2 0x22CC JUMP JUMPDEST PUSH1 0x40 MLOAD PUSH2 0x2EE SWAP2 SWAP1 PUSH2 0x4071 JUMP JUMPDEST PUSH2 0x5E5 PUSH2 0x5E0 CALLDATASIZE PUSH1 0x4 PUSH2 0x3ECB JUMP JUMPDEST PUSH2 0x24FB JUMP JUMPDEST PUSH1 0x40 MLOAD PUSH2 0x2EE SWAP2 SWAP1 PUSH2 0x40DD JUMP JUMPDEST PUSH2 0x332 PUSH2 0x600 CALLDATASIZE PUSH1 0x4 PUSH2 0x3DD1 JUMP JUMPDEST PUSH2 0x2864 JUMP JUMPDEST PUSH2 0x2E4 PUSH2 0x613 CALLDATASIZE PUSH1 0x4 PUSH2 0x3DB1 JUMP JUMPDEST PUSH1 0xB PUSH1 0x20 MSTORE PUSH0 SWAP1 DUP2 MSTORE PUSH1 0x40 SWAP1 KECCAK256 SLOAD DUP2 JUMP JUMPDEST PUSH2 0x2E4 PUSH1 0xE SLOAD DUP2 JUMP JUMPDEST PUSH2 0x2E4 PUSH2 0x63B CALLDATASIZE PUSH1 0x4 PUSH2 0x3DB1 JUMP JUMPDEST PUSH20 0xFFFFFFFFFFFFFFFFFFFFFFFFFFFFFFFFFFFFFFFF AND PUSH0 SWAP1 DUP2 MSTORE PUSH1 0xB PUSH1 0x20 SWAP1 DUP2 MSTORE PUSH1 0x40 DUP1 DUP4 KECCAK256 SLOAD DUP4 MSTORE PUSH1 0xA SWAP1 SWAP2 MSTORE SWAP1 KECCAK256 PUSH1 0x2 ADD SLOAD SWAP1 JUMP JUMPDEST PUSH2 0x332 PUSH2 0x680 CALLDATASIZE PUSH1 0x4 PUSH2 0x41D9 JUMP JUMPDEST PUSH2 0x29BC JUMP JUMPDEST PUSH2 0x2E4 PUSH1 0xC SLOAD DUP2 JUMP JUMPDEST PUSH2 0x332 PUSH2 0x69C CALLDATASIZE PUSH1 0x4 PUSH2 0x431E JUMP JUMPDEST PUSH2 0x2B74 JUMP JUMPDEST PUSH2 0x332 PUSH2 0x6AF CALLDATASIZE PUSH1 0x4 PUSH2 0x3EEB JUMP JUMPDEST PUSH2 0x2EC8 JUMP JUMPDEST PUSH2 0x557 PUSH2 0x6C2 CALLDATASIZE PUSH1 0x4 PUSH2 0x439E JUMP JUMPDEST PUSH2 0x312B JUMP JUMPDEST PUSH2 0x332 PUSH2 0x6D5 CALLDATASIZE PUSH1 0x4 PUSH2 0x43D8 JUMP JUMPDEST PUSH2 0x337A JUMP JUMPDEST PUSH2 0x332 PUSH2 0x6E8 CALLDATASIZE PUSH1 0x4 PUSH2 0x3ECB JUMP JUMPDEST PUSH2 0x36A0 JUMP JUMPDEST PUSH2 0x332 PUSH2 0x6FB CALLDATASIZE PUSH1 0x4 PUSH2 0x3EEB JUMP JUMPDEST PUSH2 0x38DF JUMP JUMPDEST PUSH2 0x332 PUSH2 0x70E CALLDATASIZE PUSH1 0x4 PUSH2 0x3DB1 JUMP JUMPDEST PUSH2 0x3B09 JUMP JUMPDEST PUSH2 0x2E4 PUSH1 0x5 SLOAD DUP2 JUMP JUMPDEST PUSH1 0x1 SLOAD PUSH2 0x4FF SWAP1 PUSH20 0xFFFFFFFFFFFFFFFFFFFFFFFFFFFFFFFFFFFFFFFF AND DUP2 JUMP JUMPDEST PUSH2 0x2E4 PUSH1 0xD SLOAD DUP2 JUMP JUMPDEST PUSH20 0xFFFFFFFFFFFFFFFFFFFFFFFFFFFFFFFFFFFFFFFF DUP1 DUP3 AND PUSH0 DUP2 DUP2 MSTORE PUSH1 0xB PUSH1 0x20 SWAP1 DUP2 MSTORE PUSH1 0x40 DUP1 DUP4 KECCAK256 SLOAD DUP4 MSTORE PUSH1 0xA SWAP1 SWAP2 MSTORE DUP2 KECCAK256 PUSH1 0x1 ADD SLOAD SWAP1 SWAP3 AND SUB PUSH2 0x7BB JUMPI POP PUSH20 0xFFFFFFFFFFFFFFFFFFFFFFFFFFFFFFFFFFFFFFFF AND PUSH0 SWAP1 DUP2 MSTORE PUSH1 0xB PUSH1 0x20 SWAP1 DUP2 MSTORE PUSH1 0x40 DUP1 DUP4 KECCAK256 SLOAD DUP4 MSTORE PUSH1 0xA SWAP1 SWAP2 MSTORE SWAP1 KECCAK256 PUSH1 0x2 ADD SLOAD SWAP1 JUMP JUMPDEST POP PUSH0 SWAP2 SWAP1 POP JUMP JUMPDEST PUSH1 0x6 PUSH1 0x20 MSTORE PUSH0 SWAP1 DUP2 MSTORE PUSH1 0x40 SWAP1 KECCAK256 DUP1 SLOAD PUSH1 0x1 DUP3 ADD DUP1 SLOAD SWAP2 SWAP3 SWAP2 PUSH2 0x7E3 SWAP1 PUSH2 0x4462 JUMP JUMPDEST DUP1 PUSH1 0x1F ADD PUSH1 0x20 DUP1 SWAP2 DIV MUL PUSH1 0x20 ADD PUSH1 0x40 MLOAD SWAP1 DUP2 ADD PUSH1 0x40 MSTORE DUP1 SWAP3 SWAP2 SWAP1 DUP2 DUP2 MSTORE PUSH1 0x20 ADD DUP3 DUP1 SLOAD PUSH2 0x80F SWAP1 PUSH2 0x4462 JUMP JUMPDEST DUP1 ISZERO PUSH2 0x85A JUMPI DUP1 PUSH1 0x1F LT PUSH2 0x831 JUMPI PUSH2 0x100 DUP1 DUP4 SLOAD DIV MUL DUP4 MSTORE SWAP2 PUSH1 0x20 ADD SWAP2 PUSH2 0x85A JUMP JUMPDEST DUP3 ADD SWAP2 SWAP1 PUSH0 MSTORE PUSH1 0x20 PUSH0 KECCAK256 SWAP1 JUMPDEST DUP2 SLOAD DUP2 MSTORE SWAP1 PUSH1 0x1 ADD SWAP1 PUSH1 0x20 ADD DUP1 DUP4 GT PUSH2 0x83D JUMPI DUP3 SWAP1 SUB PUSH1 0x1F AND DUP3 ADD SWAP2 JUMPDEST POP POP POP POP POP SWAP1 DUP1 PUSH1 0x2 ADD SLOAD SWAP1 DUP1 PUSH1 0x3 ADD PUSH0 SWAP1 SLOAD SWAP1 PUSH2 0x100 EXP SWAP1 DIV PUSH20 0xFFFFFFFFFFFFFFFFFFFFFFFFFFFFFFFFFFFFFFFF AND SWAP1 DUP1 PUSH1 0x4 ADD SLOAD SWAP1 DUP1 PUSH1 0x5 ADD SLOAD SWAP1 DUP1 PUSH1 0x6 ADD SLOAD SWAP1 DUP1 PUSH1 0x7 ADD SLOAD SWAP1 DUP1 PUSH1 0x8 ADD DUP1 SLOAD PUSH2 0x8B2 SWAP1 PUSH2 0x4462 JUMP JUMPDEST DUP1 PUSH1 0x1F ADD PUSH1 0x20 DUP1 SWAP2 DIV MUL PUSH1 0x20 ADD PUSH1 0x40 MLOAD SWAP1 DUP2 ADD PUSH1 0x40 MSTORE DUP1 SWAP3 SWAP2 SWAP1 DUP2 DUP2 MSTORE PUSH1 0x20 ADD DUP3 DUP1 SLOAD PUSH2 0x8DE SWAP1 PUSH2 0x4462 JUMP JUMPDEST DUP1 ISZERO PUSH2 0x929 JUMPI DUP1 PUSH1 0x1F LT PUSH2 0x900 JUMPI PUSH2 0x100 DUP1 DUP4 SLOAD DIV MUL DUP4 MSTORE SWAP2 PUSH1 0x20 ADD SWAP2 PUSH2 0x929 JUMP JUMPDEST DUP3 ADD SWAP2 SWAP1 PUSH0 MSTORE PUSH1 0x20 PUSH0 KECCAK256 SWAP1 JUMPDEST DUP2 SLOAD DUP2 MSTORE SWAP1 PUSH1 0x1 ADD SWAP1 PUSH1 0x20 ADD DUP1 DUP4 GT PUSH2 0x90C JUMPI DUP3 SWAP1 SUB PUSH1 0x1F AND DUP3 ADD SWAP2 JUMPDEST POP POP POP POP POP SWAP1 POP DUP10 JUMP JUMPDEST PUSH1 0x2 SLOAD PUSH20 0xFFFFFFFFFFFFFFFFFFFFFFFFFFFFFFFFFFFFFFFF AND CALLER EQ PUSH2 0x9B9 JUMPI PUSH1 0x40 MLOAD PUSH32 0x8C379A000000000000000000000000000000000000000000000000000000000 DUP2 MSTORE PUSH1 0x20 PUSH1 0x4 DUP3 ADD MSTORE PUSH1 0xA PUSH1 0x24 DUP3 ADD MSTORE PUSH32 0x4F6E6C79206F776E657200000000000000000000000000000000000000000000 PUSH1 0x44 DUP3 ADD MSTORE PUSH1 0x64 ADD JUMPDEST PUSH1 0x40 MLOAD DUP1 SWAP2 SUB SWAP1 REVERT JUMPDEST PUSH1 0x4 DUP1 SLOAD PUSH32 0xFFFFFFFFFFFFFFFFFFFFFFFF0000000000000000000000000000000000000000 AND PUSH20 0xFFFFFFFFFFFFFFFFFFFFFFFFFFFFFFFFFFFFFFFF SWAP3 SWAP1 SWAP3 AND SWAP2 SWAP1 SWAP2 OR SWAP1 SSTORE JUMP JUMPDEST PUSH2 0xA08 PUSH2 0x3BD1 JUMP JUMPDEST CALLER PUSH0 SWAP1 DUP2 MSTORE PUSH1 0xB PUSH1 0x20 SWAP1 DUP2 MSTORE PUSH1 0x40 DUP1 DUP4 KECCAK256 SLOAD DUP1 DUP5 MSTORE PUSH1 0xA SWAP1 SWAP3 MSTORE SWAP1 SWAP2 KECCAK256 PUSH1 0xF SLOAD DUP4 LT ISZERO PUSH2 0xA91 JUMPI PUSH1 0x40 MLOAD PUSH32 0x8C379A000000000000000000000000000000000000000000000000000000000 DUP2 MSTORE PUSH1 0x20 PUSH1 0x4 DUP3 ADD MSTORE PUSH1 0x1D PUSH1 0x24 DUP3 ADD MSTORE PUSH32 0x416D6F756E74206C657373207468616E206D696E207769746864726177000000 PUSH1 0x44 DUP3 ADD MSTORE PUSH1 0x64 ADD PUSH2 0x9B0 JUMP JUMPDEST PUSH1 0x1 DUP2 ADD SLOAD PUSH20 0xFFFFFFFFFFFFFFFFFFFFFFFFFFFFFFFFFFFFFFFF AND CALLER EQ PUSH2 0xB14 JUMPI PUSH1 0x40 MLOAD PUSH32 0x8C379A000000000000000000000000000000000000000000000000000000000 DUP2 MSTORE PUSH1 0x20 PUSH1 0x4 DUP3 ADD MSTORE PUSH1 0xF PUSH1 0x24 DUP3 ADD MSTORE PUSH32 0x55736572206E6F74206578697374730000000000000000000000000000000000 PUSH1 0x44 DUP3 ADD MSTORE PUSH1 0x64 ADD PUSH2 0x9B0 JUMP JUMPDEST DUP3 DUP2 PUSH1 0x2 ADD SLOAD LT ISZERO PUSH2 0xB82 JUMPI PUSH1 0x40 MLOAD PUSH32 0x8C379A000000000000000000000000000000000000000000000000000000000 DUP2 MSTORE PUSH1 0x20 PUSH1 0x4 DUP3 ADD MSTORE PUSH1 0x1B PUSH1 0x24 DUP3 ADD MSTORE PUSH32 0x4E6F7420656E6F75676874206465706F7369742062616C616E63650000000000 PUSH1 0x44 DUP3 ADD MSTORE PUSH1 0x64 ADD PUSH2 0x9B0 JUMP JUMPDEST PUSH1 0x1 SLOAD PUSH1 0x40 MLOAD PUSH32 0xA9059CBB00000000000000000000000000000000000000000000000000000000 DUP2 MSTORE CALLER PUSH1 0x4 DUP3 ADD MSTORE PUSH1 0x24 DUP2 ADD DUP6 SWAP1 MSTORE PUSH20 0xFFFFFFFFFFFFFFFFFFFFFFFFFFFFFFFFFFFFFFFF SWAP1 SWAP2 AND SWAP1 PUSH4 0xA9059CBB SWAP1 PUSH1 0x44 ADD PUSH1 0x20 PUSH1 0x40 MLOAD DUP1 DUP4 SUB DUP2 PUSH0 DUP8 GAS CALL ISZERO DUP1 ISZERO PUSH2 0xBF6 JUMPI RETURNDATASIZE PUSH0 DUP1 RETURNDATACOPY RETURNDATASIZE PUSH0 REVERT JUMPDEST POP POP POP POP PUSH1 0x40 MLOAD RETURNDATASIZE PUSH1 0x1F NOT PUSH1 0x1F DUP3 ADD AND DUP3 ADD DUP1 PUSH1 0x40 MSTORE POP DUP2 ADD SWAP1 PUSH2 0xC1A SWAP2 SWAP1 PUSH2 0x44B3 JUMP JUMPDEST POP DUP3 DUP2 PUSH1 0x2 ADD PUSH0 DUP3 DUP3 SLOAD PUSH2 0xC2E SWAP2 SWAP1 PUSH2 0x44FF JUMP JUMPDEST SWAP3 POP POP DUP2 SWAP1 SSTORE POP DUP3 PUSH1 0xC PUSH0 DUP3 DUP3 SLOAD PUSH2 0xC46 SWAP2 SWAP1 PUSH2 0x44FF JUMP JUMPDEST SWAP1 SWAP2 SSTORE POP POP PUSH1 0x1 PUSH0 SSTORE POP PUSH2 0xC57 SWAP1 POP JUMP JUMPDEST POP JUMP JUMPDEST CALLER PUSH0 DUP2 DUP2 MSTORE PUSH1 0x7 PUSH1 0x20 SWAP1 DUP2 MSTORE PUSH1 0x40 DUP1 DUP4 KECCAK256 SLOAD DUP4 MSTORE PUSH1 0x6 SWAP1 SWAP2 MSTORE SWAP1 KECCAK256 PUSH1 0x3 ADD SLOAD PUSH20 0xFFFFFFFFFFFFFFFFFFFFFFFFFFFFFFFFFFFFFFFF AND EQ PUSH2 0xCF6 JUMPI PUSH1 0x40 MLOAD PUSH32 0x8C379A000000000000000000000000000000000000000000000000000000000 DUP2 MSTORE PUSH1 0x20 PUSH1 0x4 DUP3 ADD MSTORE PUSH1 0x12 PUSH1 0x24 DUP3 ADD MSTORE PUSH32 0x4F6E6C792067616D6520636F6E74726163740000000000000000000000000000 PUSH1 0x44 DUP3 ADD MSTORE PUSH1 0x64 ADD PUSH2 0x9B0 JUMP JUMPDEST PUSH2 0xCFE PUSH2 0x3BD1 JUMP JUMPDEST CALLER PUSH0 SWAP1 DUP2 MSTORE PUSH1 0x7 PUSH1 0x20 SWAP1 DUP2 MSTORE PUSH1 0x40 DUP1 DUP4 KECCAK256 SLOAD DUP1 DUP5 MSTORE PUSH1 0x6 SWAP3 DUP4 SWAP1 MSTORE SWAP1 DUP4 KECCAK256 SWAP1 SWAP2 ADD SLOAD SWAP1 SWAP2 SWAP1 PUSH1 0x64 SWAP1 PUSH2 0xD30 SWAP1 DUP6 PUSH2 0x4512 JUMP JUMPDEST PUSH2 0xD3A SWAP2 SWAP1 PUSH2 0x4529 JUMP JUMPDEST PUSH0 DUP4 DUP2 MSTORE PUSH1 0x6 PUSH1 0x20 MSTORE PUSH1 0x40 DUP2 KECCAK256 PUSH1 0x7 ADD SLOAD SWAP2 SWAP3 POP SWAP1 PUSH1 0x64 SWAP1 PUSH2 0xD5C SWAP1 DUP7 PUSH2 0x4512 JUMP JUMPDEST PUSH2 0xD66 SWAP2 SWAP1 PUSH2 0x4529 JUMP JUMPDEST SWAP1 POP PUSH2 0xD72 DUP2 DUP4 PUSH2 0x4561 JUMP JUMPDEST PUSH0 DUP5 DUP2 MSTORE PUSH1 0x6 PUSH1 0x20 MSTORE PUSH1 0x40 SWAP1 KECCAK256 PUSH1 0x4 ADD SLOAD LT PUSH2 0xDDD JUMPI PUSH2 0xD92 DUP2 DUP4 PUSH2 0x4561 JUMP JUMPDEST PUSH0 DUP5 DUP2 MSTORE PUSH1 0x6 PUSH1 0x20 MSTORE PUSH1 0x40 DUP2 KECCAK256 PUSH1 0x4 ADD DUP1 SLOAD SWAP1 SWAP2 SWAP1 PUSH2 0xDB2 SWAP1 DUP5 SWAP1 PUSH2 0x44FF JUMP JUMPDEST SWAP1 SWAP2 SSTORE POP PUSH2 0xDC2 SWAP1 POP DUP2 DUP4 PUSH2 0x4561 JUMP JUMPDEST PUSH1 0xD PUSH0 DUP3 DUP3 SLOAD PUSH2 0xDD2 SWAP2 SWAP1 PUSH2 0x44FF JUMP JUMPDEST SWAP1 SWAP2 SSTORE POP PUSH2 0xE2D SWAP1 POP JUMP JUMPDEST PUSH2 0xDE7 DUP2 DUP4 PUSH2 0x4561 JUMP JUMPDEST PUSH0 DUP5 DUP2 MSTORE PUSH1 0x6 PUSH1 0x20 MSTORE PUSH1 0x40 DUP2 KECCAK256 PUSH1 0x5 ADD DUP1 SLOAD SWAP1 SWAP2 SWAP1 PUSH2 0xE07 SWAP1 DUP5 SWAP1 PUSH2 0x4561 JUMP JUMPDEST SWAP1 SWAP2 SSTORE POP PUSH2 0xE17 SWAP1 POP DUP2 DUP4 PUSH2 0x4561 JUMP JUMPDEST PUSH1 0xE PUSH0 DUP3 DUP3 SLOAD PUSH2 0xE27 SWAP2 SWAP1 PUSH2 0x4561 JUMP JUMPDEST SWAP1 SWAP2 SSTORE POP POP JUMPDEST DUP2 ISZERO PUSH2 0xED1 JUMPI PUSH1 0x1 SLOAD PUSH1 0x3 SLOAD PUSH1 0x40 MLOAD PUSH32 0xA9059CBB00000000000000000000000000000000000000000000000000000000 DUP2 MSTORE PUSH20 0xFFFFFFFFFFFFFFFFFFFFFFFFFFFFFFFFFFFFFFFF SWAP2 DUP3 AND PUSH1 0x4 DUP3 ADD MSTORE PUSH1 0x24 DUP2 ADD DUP6 SWAP1 MSTORE SWAP2 AND SWAP1 PUSH4 0xA9059CBB SWAP1 PUSH1 0x44 ADD PUSH1 0x20 PUSH1 0x40 MLOAD DUP1 DUP4 SUB DUP2 PUSH0 DUP8 GAS CALL ISZERO DUP1 ISZERO PUSH2 0xEAB JUMPI RETURNDATASIZE PUSH0 DUP1 RETURNDATACOPY RETURNDATASIZE PUSH0 REVERT JUMPDEST POP POP POP POP PUSH1 0x40 MLOAD RETURNDATASIZE PUSH1 0x1F NOT PUSH1 0x1F DUP3 ADD AND DUP3 ADD DUP1 PUSH1 0x40 MSTORE POP DUP2 ADD SWAP1 PUSH2 0xECF SWAP2 SWAP1 PUSH2 0x44B3 JUMP JUMPDEST POP JUMPDEST DUP1 ISZERO PUSH2 0xF79 JUMPI PUSH1 0x1 SLOAD PUSH1 0x4 DUP1 SLOAD PUSH1 0x40 MLOAD PUSH32 0xA9059CBB00000000000000000000000000000000000000000000000000000000 DUP2 MSTORE PUSH20 0xFFFFFFFFFFFFFFFFFFFFFFFFFFFFFFFFFFFFFFFF SWAP2 DUP3 AND SWAP3 DUP2 ADD SWAP3 SWAP1 SWAP3 MSTORE PUSH1 0x24 DUP3 ADD DUP5 SWAP1 MSTORE SWAP1 SWAP2 AND SWAP1 PUSH4 0xA9059CBB SWAP1 PUSH1 0x44 ADD PUSH1 0x20 PUSH1 0x40 MLOAD DUP1 DUP4 SUB DUP2 PUSH0 DUP8 GAS CALL ISZERO DUP1 ISZERO PUSH2 0xF53 JUMPI RETURNDATASIZE PUSH0 DUP1 RETURNDATACOPY RETURNDATASIZE PUSH0 REVERT JUMPDEST POP POP POP POP PUSH1 0x40 MLOAD RETURNDATASIZE PUSH1 0x1F NOT PUSH1 0x1F DUP3 ADD AND DUP3 ADD DUP1 PUSH1 0x40 MSTORE POP DUP2 ADD SWAP1 PUSH2 0xF77 SWAP2 SWAP1 PUSH2 0x44B3 JUMP JUMPDEST POP JUMPDEST POP POP POP PUSH2 0xC57 PUSH1 0x1 PUSH0 SSTORE JUMP JUMPDEST PUSH1 0x2 SLOAD PUSH20 0xFFFFFFFFFFFFFFFFFFFFFFFFFFFFFFFFFFFFFFFF AND CALLER EQ PUSH2 0x1006 JUMPI PUSH1 0x40 MLOAD PUSH32 0x8C379A000000000000000000000000000000000000000000000000000000000 DUP2 MSTORE PUSH1 0x20 PUSH1 0x4 DUP3 ADD MSTORE PUSH1 0xA PUSH1 0x24 DUP3 ADD MSTORE PUSH32 0x4F6E6C79206F776E657200000000000000000000000000000000000000000000 PUSH1 0x44 DUP3 ADD MSTORE PUSH1 0x64 ADD PUSH2 0x9B0 JUMP JUMPDEST PUSH2 0x100E PUSH2 0x3BD1 JUMP JUMPDEST PUSH0 DUP3 DUP2 MSTORE PUSH1 0x6 PUSH1 0x20 MSTORE PUSH1 0x40 SWAP1 KECCAK256 SLOAD DUP3 EQ PUSH2 0x1084 JUMPI PUSH1 0x40 MLOAD PUSH32 0x8C379A000000000000000000000000000000000000000000000000000000000 DUP2 MSTORE PUSH1 0x20 PUSH1 0x4 DUP3 ADD MSTORE PUSH1 0x10 PUSH1 0x24 DUP3 ADD MSTORE PUSH32 0x47616D65206E6F7420666F756E64656400000000000000000000000000000000 PUSH1 0x44 DUP3 ADD MSTORE PUSH1 0x64 ADD PUSH2 0x9B0 JUMP JUMPDEST PUSH0 DUP2 GT PUSH2 0x10ED JUMPI PUSH1 0x40 MLOAD PUSH32 0x8C379A000000000000000000000000000000000000000000000000000000000 DUP2 MSTORE PUSH1 0x20 PUSH1 0x4 DUP3 ADD MSTORE PUSH1 0x1D PUSH1 0x24 DUP3 ADD MSTORE PUSH32 0x416D6F756E74206D7573742062652067726561746572207468616E2030000000 PUSH1 0x44 DUP3 ADD MSTORE PUSH1 0x64 ADD PUSH2 0x9B0 JUMP JUMPDEST PUSH0 DUP3 DUP2 MSTORE PUSH1 0x6 PUSH1 0x20 MSTORE PUSH1 0x40 SWAP1 KECCAK256 PUSH1 0x5 ADD SLOAD DUP2 GT ISZERO PUSH2 0x1167 JUMPI PUSH1 0x40 MLOAD PUSH32 0x8C379A000000000000000000000000000000000000000000000000000000000 DUP2 MSTORE PUSH1 0x20 PUSH1 0x4 DUP3 ADD MSTORE PUSH1 0xF PUSH1 0x24 DUP3 ADD MSTORE PUSH32 0x546F6F206D75636820616D6F756E740000000000000000000000000000000000 PUSH1 0x44 DUP3 ADD MSTORE PUSH1 0x64 ADD PUSH2 0x9B0 JUMP JUMPDEST PUSH1 0x1 SLOAD PUSH1 0x40 MLOAD PUSH32 0x23B872DD00000000000000000000000000000000000000000000000000000000 DUP2 MSTORE CALLER PUSH1 0x4 DUP3 ADD MSTORE ADDRESS PUSH1 0x24 DUP3 ADD MSTORE PUSH1 0x44 DUP2 ADD DUP4 SWAP1 MSTORE PUSH20 0xFFFFFFFFFFFFFFFFFFFFFFFFFFFFFFFFFFFFFFFF SWAP1 SWAP2 AND SWAP1 PUSH4 0x23B872DD SWAP1 PUSH1 0x64 ADD PUSH1 0x20 PUSH1 0x40 MLOAD DUP1 DUP4 SUB DUP2 PUSH0 DUP8 GAS CALL ISZERO DUP1 ISZERO PUSH2 0x11E1 JUMPI RETURNDATASIZE PUSH0 DUP1 RETURNDATACOPY RETURNDATASIZE PUSH0 REVERT JUMPDEST POP POP POP POP PUSH1 0x40 MLOAD RETURNDATASIZE PUSH1 0x1F NOT PUSH1 0x1F DUP3 ADD AND DUP3 ADD DUP1 PUSH1 0x40 MSTORE POP DUP2 ADD SWAP1 PUSH2 0x1205 SWAP2 SWAP1 PUSH2 0x44B3 JUMP JUMPDEST POP PUSH0 DUP3 DUP2 MSTORE PUSH1 0x6 PUSH1 0x20 MSTORE PUSH1 0x40 DUP2 KECCAK256 PUSH1 0x5 ADD DUP1 SLOAD DUP4 SWAP3 SWAP1 PUSH2 0x1226 SWAP1 DUP5 SWAP1 PUSH2 0x44FF JUMP JUMPDEST SWAP3 POP POP DUP2 SWAP1 SSTORE POP DUP1 PUSH1 0xE PUSH0 DUP3 DUP3 SLOAD PUSH2 0x123E SWAP2 SWAP1 PUSH2 0x44FF JUMP JUMPDEST SWAP1 SWAP2 SSTORE POP POP PUSH1 0x1 PUSH0 SSTORE POP POP JUMP JUMPDEST POP POP JUMP JUMPDEST PUSH1 0x2 SLOAD PUSH20 0xFFFFFFFFFFFFFFFFFFFFFFFFFFFFFFFFFFFFFFFF AND CALLER EQ PUSH2 0x12D0 JUMPI PUSH1 0x40 MLOAD PUSH32 0x8C379A000000000000000000000000000000000000000000000000000000000 DUP2 MSTORE PUSH1 0x20 PUSH1 0x4 DUP3 ADD MSTORE PUSH1 0xA PUSH1 0x24 DUP3 ADD MSTORE PUSH32 0x4F6E6C79206F776E657200000000000000000000000000000000000000000000 PUSH1 0x44 DUP3 ADD MSTORE PUSH1 0x64 ADD PUSH2 0x9B0 JUMP JUMPDEST PUSH1 0x1 SLOAD PUSH20 0xFFFFFFFFFFFFFFFFFFFFFFFFFFFFFFFFFFFFFFFF SWAP1 DUP2 AND SWAP1 DUP4 AND SUB PUSH2 0x137B JUMPI PUSH1 0x40 MLOAD PUSH32 0x8C379A000000000000000000000000000000000000000000000000000000000 DUP2 MSTORE PUSH1 0x20 PUSH1 0x4 DUP3 ADD MSTORE PUSH1 0x2B PUSH1 0x24 DUP3 ADD MSTORE PUSH32 0x43616E74207265636F7765722067616D6520746F6B656E2E204F6E6C79206261 PUSH1 0x44 DUP3 ADD MSTORE PUSH32 0x6E6B207769746864726177000000000000000000000000000000000000000000 PUSH1 0x64 DUP3 ADD MSTORE PUSH1 0x84 ADD PUSH2 0x9B0 JUMP JUMPDEST PUSH1 0x2 SLOAD PUSH1 0x40 MLOAD PUSH32 0xA9059CBB00000000000000000000000000000000000000000000000000000000 DUP2 MSTORE PUSH20 0xFFFFFFFFFFFFFFFFFFFFFFFFFFFFFFFFFFFFFFFF SWAP2 DUP3 AND PUSH1 0x4 DUP3 ADD MSTORE PUSH1 0x24 DUP2 ADD DUP4 SWAP1 MSTORE SWAP1 DUP4 AND SWAP1 PUSH4 0xA9059CBB SWAP1 PUSH1 0x44 ADD PUSH1 0x20 PUSH1 0x40 MLOAD DUP1 DUP4 SUB DUP2 PUSH0 DUP8 GAS CALL ISZERO DUP1 ISZERO PUSH2 0x13F1 JUMPI RETURNDATASIZE PUSH0 DUP1 RETURNDATACOPY RETURNDATASIZE PUSH0 REVERT JUMPDEST POP POP POP POP PUSH1 0x40 MLOAD RETURNDATASIZE PUSH1 0x1F NOT PUSH1 0x1F DUP3 ADD AND DUP3 ADD DUP1 PUSH1 0x40 MSTORE POP DUP2 ADD SWAP1 PUSH2 0x1415 SWAP2 SWAP1 PUSH2 0x44B3 JUMP JUMPDEST POP POP POP JUMP JUMPDEST PUSH1 0x60 PUSH1 0x9 SLOAD DUP4 GT ISZERO PUSH2 0x148D JUMPI PUSH1 0x40 DUP1 MLOAD PUSH0 DUP1 DUP3 MSTORE PUSH1 0x20 DUP3 ADD SWAP1 SWAP3 MSTORE SWAP1 PUSH2 0x1485 JUMP JUMPDEST PUSH2 0x1472 PUSH1 0x40 MLOAD DUP1 PUSH1 0x60 ADD PUSH1 0x40 MSTORE DUP1 PUSH0 DUP2 MSTORE PUSH1 0x20 ADD PUSH0 PUSH20 0xFFFFFFFFFFFFFFFFFFFFFFFFFFFFFFFFFFFFFFFF AND DUP2 MSTORE PUSH1 0x20 ADD PUSH0 DUP2 MSTORE POP SWAP1 JUMP JUMPDEST DUP2 MSTORE PUSH1 0x20 ADD SWAP1 PUSH1 0x1 SWAP1 SUB SWAP1 DUP2 PUSH2 0x143B JUMPI SWAP1 POP JUMPDEST POP SWAP1 POP PUSH2 0x15E6 JUMP JUMPDEST DUP3 ISZERO DUP1 ISZERO PUSH2 0x1499 JUMPI POP DUP2 ISZERO JUMPDEST ISZERO PUSH2 0x14A4 JUMPI PUSH1 0x9 SLOAD SWAP2 POP JUMPDEST PUSH1 0x9 SLOAD PUSH2 0x14B1 DUP4 DUP6 PUSH2 0x4561 JUMP JUMPDEST GT ISZERO PUSH2 0x14C8 JUMPI DUP3 PUSH1 0x9 SLOAD PUSH2 0x14C5 SWAP2 SWAP1 PUSH2 0x44FF JUMP JUMPDEST SWAP2 POP JUMPDEST PUSH0 DUP3 PUSH8 0xFFFFFFFFFFFFFFFF DUP2 GT ISZERO PUSH2 0x14E2 JUMPI PUSH2 0x14E2 PUSH2 0x415D JUMP JUMPDEST PUSH1 0x40 MLOAD SWAP1 DUP1 DUP3 MSTORE DUP1 PUSH1 0x20 MUL PUSH1 0x20 ADD DUP3 ADD PUSH1 0x40 MSTORE DUP1 ISZERO PUSH2 0x154A JUMPI DUP2 PUSH1 0x20 ADD JUMPDEST PUSH2 0x1537 PUSH1 0x40 MLOAD DUP1 PUSH1 0x60 ADD PUSH1 0x40 MSTORE DUP1 PUSH0 DUP2 MSTORE PUSH1 0x20 ADD PUSH0 PUSH20 0xFFFFFFFFFFFFFFFFFFFFFFFFFFFFFFFFFFFFFFFF AND DUP2 MSTORE PUSH1 0x20 ADD PUSH0 DUP2 MSTORE POP SWAP1 JUMP JUMPDEST DUP2 MSTORE PUSH1 0x20 ADD SWAP1 PUSH1 0x1 SWAP1 SUB SWAP1 DUP2 PUSH2 0x1500 JUMPI SWAP1 POP JUMPDEST POP SWAP1 POP PUSH0 JUMPDEST DUP4 DUP2 LT ISZERO PUSH2 0x15E2 JUMPI PUSH1 0xA PUSH0 DUP7 DUP4 PUSH1 0x9 SLOAD PUSH2 0x1569 SWAP2 SWAP1 PUSH2 0x44FF JUMP JUMPDEST PUSH2 0x1573 SWAP2 SWAP1 PUSH2 0x44FF JUMP JUMPDEST DUP2 MSTORE PUSH1 0x20 DUP1 DUP3 ADD SWAP3 SWAP1 SWAP3 MSTORE PUSH1 0x40 SWAP1 DUP2 ADD PUSH0 KECCAK256 DUP2 MLOAD PUSH1 0x60 DUP2 ADD DUP4 MSTORE DUP2 SLOAD DUP2 MSTORE PUSH1 0x1 DUP3 ADD SLOAD PUSH20 0xFFFFFFFFFFFFFFFFFFFFFFFFFFFFFFFFFFFFFFFF AND SWAP4 DUP2 ADD SWAP4 SWAP1 SWAP4 MSTORE PUSH1 0x2 ADD SLOAD SWAP1 DUP3 ADD MSTORE DUP3 MLOAD DUP4 SWAP1 DUP4 SWAP1 DUP2 LT PUSH2 0x15CF JUMPI PUSH2 0x15CF PUSH2 0x4574 JUMP JUMPDEST PUSH1 0x20 SWAP1 DUP2 MUL SWAP2 SWAP1 SWAP2 ADD ADD MSTORE PUSH1 0x1 ADD PUSH2 0x154F JUMP JUMPDEST POP SWAP1 POP JUMPDEST SWAP3 SWAP2 POP POP JUMP JUMPDEST PUSH1 0x2 SLOAD PUSH20 0xFFFFFFFFFFFFFFFFFFFFFFFFFFFFFFFFFFFFFFFF AND CALLER EQ PUSH2 0x166D JUMPI PUSH1 0x40 MLOAD PUSH32 0x8C379A000000000000000000000000000000000000000000000000000000000 DUP2 MSTORE PUSH1 0x20 PUSH1 0x4 DUP3 ADD MSTORE PUSH1 0xA PUSH1 0x24 DUP3 ADD MSTORE PUSH32 0x4F6E6C79206F776E657200000000000000000000000000000000000000000000 PUSH1 0x44 DUP3 ADD MSTORE PUSH1 0x64 ADD PUSH2 0x9B0 JUMP JUMPDEST PUSH1 0x3 DUP1 SLOAD PUSH32 0xFFFFFFFFFFFFFFFFFFFFFFFF0000000000000000000000000000000000000000 AND PUSH20 0xFFFFFFFFFFFFFFFFFFFFFFFFFFFFFFFFFFFFFFFF SWAP3 SWAP1 SWAP3 AND SWAP2 SWAP1 SWAP2 OR SWAP1 SSTORE JUMP JUMPDEST PUSH1 0x2 SLOAD PUSH20 0xFFFFFFFFFFFFFFFFFFFFFFFFFFFFFFFFFFFFFFFF AND CALLER EQ PUSH2 0x1735 JUMPI PUSH1 0x40 MLOAD PUSH32 0x8C379A000000000000000000000000000000000000000000000000000000000 DUP2 MSTORE PUSH1 0x20 PUSH1 0x4 DUP3 ADD MSTORE PUSH1 0xA PUSH1 0x24 DUP3 ADD MSTORE PUSH32 0x4F6E6C79206F776E657200000000000000000000000000000000000000000000 PUSH1 0x44 DUP3 ADD MSTORE PUSH1 0x64 ADD PUSH2 0x9B0 JUMP JUMPDEST PUSH1 0xF SSTORE JUMP JUMPDEST PUSH2 0x1771 PUSH1 0x40 MLOAD DUP1 PUSH1 0x60 ADD PUSH1 0x40 MSTORE DUP1 PUSH0 DUP2 MSTORE PUSH1 0x20 ADD PUSH0 PUSH20 0xFFFFFFFFFFFFFFFFFFFFFFFFFFFFFFFFFFFFFFFF AND DUP2 MSTORE PUSH1 0x20 ADD PUSH0 DUP2 MSTORE POP SWAP1 JUMP JUMPDEST POP PUSH20 0xFFFFFFFFFFFFFFFFFFFFFFFFFFFFFFFFFFFFFFFF SWAP1 DUP2 AND PUSH0 SWAP1 DUP2 MSTORE PUSH1 0xB PUSH1 0x20 SWAP1 DUP2 MSTORE PUSH1 0x40 DUP1 DUP4 KECCAK256 SLOAD DUP4 MSTORE PUSH1 0xA DUP3 MSTORE SWAP2 DUP3 SWAP1 KECCAK256 DUP3 MLOAD PUSH1 0x60 DUP2 ADD DUP5 MSTORE DUP2 SLOAD DUP2 MSTORE PUSH1 0x1 DUP3 ADD SLOAD SWAP1 SWAP5 AND SWAP2 DUP5 ADD SWAP2 SWAP1 SWAP2 MSTORE PUSH1 0x2 ADD SLOAD SWAP1 DUP3 ADD MSTORE SWAP1 JUMP JUMPDEST PUSH2 0x182C PUSH1 0x40 MLOAD DUP1 PUSH2 0x120 ADD PUSH1 0x40 MSTORE DUP1 PUSH0 DUP2 MSTORE PUSH1 0x20 ADD PUSH1 0x60 DUP2 MSTORE PUSH1 0x20 ADD PUSH0 DUP1 NOT AND DUP2 MSTORE PUSH1 0x20 ADD PUSH0 PUSH20 0xFFFFFFFFFFFFFFFFFFFFFFFFFFFFFFFFFFFFFFFF AND DUP2 MSTORE PUSH1 0x20 ADD PUSH0 DUP2 MSTORE PUSH1 0x20 ADD PUSH0 DUP2 MSTORE PUSH1 0x20 ADD PUSH0 DUP2 MSTORE PUSH1 0x20 ADD PUSH0 DUP2 MSTORE PUSH1 0x20 ADD PUSH1 0x60 DUP2 MSTORE POP SWAP1 JUMP JUMPDEST PUSH20 0xFFFFFFFFFFFFFFFFFFFFFFFFFFFFFFFFFFFFFFFF DUP3 AND PUSH0 SWAP1 DUP2 MSTORE PUSH1 0x7 PUSH1 0x20 SWAP1 DUP2 MSTORE PUSH1 0x40 DUP1 DUP4 KECCAK256 SLOAD DUP4 MSTORE PUSH1 0x6 DUP3 MSTORE SWAP2 DUP3 SWAP1 KECCAK256 DUP3 MLOAD PUSH2 0x120 DUP2 ADD SWAP1 SWAP4 MSTORE DUP1 SLOAD DUP4 MSTORE PUSH1 0x1 DUP2 ADD DUP1 SLOAD SWAP2 SWAP3 DUP5 ADD SWAP2 PUSH2 0x1880 SWAP1 PUSH2 0x4462 JUMP JUMPDEST DUP1 PUSH1 0x1F ADD PUSH1 0x20 DUP1 SWAP2 DIV MUL PUSH1 0x20 ADD PUSH1 0x40 MLOAD SWAP1 DUP2 ADD PUSH1 0x40 MSTORE DUP1 SWAP3 SWAP2 SWAP1 DUP2 DUP2 MSTORE PUSH1 0x20 ADD DUP3 DUP1 SLOAD PUSH2 0x18AC SWAP1 PUSH2 0x4462 JUMP JUMPDEST DUP1 ISZERO PUSH2 0x18F7 JUMPI DUP1 PUSH1 0x1F LT PUSH2 0x18CE JUMPI PUSH2 0x100 DUP1 DUP4 SLOAD DIV MUL DUP4 MSTORE SWAP2 PUSH1 0x20 ADD SWAP2 PUSH2 0x18F7 JUMP JUMPDEST DUP3 ADD SWAP2 SWAP1 PUSH0 MSTORE PUSH1 0x20 PUSH0 KECCAK256 SWAP1 JUMPDEST DUP2 SLOAD DUP2 MSTORE SWAP1 PUSH1 0x1 ADD SWAP1 PUSH1 0x20 ADD DUP1 DUP4 GT PUSH2 0x18DA JUMPI DUP3 SWAP1 SUB PUSH1 0x1F AND DUP3 ADD SWAP2 JUMPDEST POP POP POP SWAP2 DUP4 MSTORE POP POP PUSH1 0x2 DUP3 ADD SLOAD PUSH1 0x20 DUP3 ADD MSTORE PUSH1 0x3 DUP3 ADD SLOAD PUSH20 0xFFFFFFFFFFFFFFFFFFFFFFFFFFFFFFFFFFFFFFFF AND PUSH1 0x40 DUP3 ADD MSTORE PUSH1 0x4 DUP3 ADD SLOAD PUSH1 0x60 DUP3 ADD MSTORE PUSH1 0x5 DUP3 ADD SLOAD PUSH1 0x80 DUP3 ADD MSTORE PUSH1 0x6 DUP3 ADD SLOAD PUSH1 0xA0 DUP3 ADD MSTORE PUSH1 0x7 DUP3 ADD SLOAD PUSH1 0xC0 DUP3 ADD MSTORE PUSH1 0x8 DUP3 ADD DUP1 SLOAD PUSH1 0xE0 SWAP1 SWAP3 ADD SWAP2 PUSH2 0x1966 SWAP1 PUSH2 0x4462 JUMP JUMPDEST DUP1 PUSH1 0x1F ADD PUSH1 0x20 DUP1 SWAP2 DIV MUL PUSH1 0x20 ADD PUSH1 0x40 MLOAD SWAP1 DUP2 ADD PUSH1 0x40 MSTORE DUP1 SWAP3 SWAP2 SWAP1 DUP2 DUP2 MSTORE PUSH1 0x20 ADD DUP3 DUP1 SLOAD PUSH2 0x1992 SWAP1 PUSH2 0x4462 JUMP JUMPDEST DUP1 ISZERO PUSH2 0x19DD JUMPI DUP1 PUSH1 0x1F LT PUSH2 0x19B4 JUMPI PUSH2 0x100 DUP1 DUP4 SLOAD DIV MUL DUP4 MSTORE SWAP2 PUSH1 0x20 ADD SWAP2 PUSH2 0x19DD JUMP JUMPDEST DUP3 ADD SWAP2 SWAP1 PUSH0 MSTORE PUSH1 0x20 PUSH0 KECCAK256 SWAP1 JUMPDEST DUP2 SLOAD DUP2 MSTORE SWAP1 PUSH1 0x1 ADD SWAP1 PUSH1 0x20 ADD DUP1 DUP4 GT PUSH2 0x19C0 JUMPI DUP3 SWAP1 SUB PUSH1 0x1F AND DUP3 ADD SWAP2 JUMPDEST POP POP POP POP POP DUP2 MSTORE POP POP SWAP1 POP SWAP2 SWAP1 POP JUMP JUMPDEST PUSH1 0x2 SLOAD PUSH20 0xFFFFFFFFFFFFFFFFFFFFFFFFFFFFFFFFFFFFFFFF AND CALLER EQ PUSH2 0x1A6E JUMPI PUSH1 0x40 MLOAD PUSH32 0x8C379A000000000000000000000000000000000000000000000000000000000 DUP2 MSTORE PUSH1 0x20 PUSH1 0x4 DUP3 ADD MSTORE PUSH1 0xA PUSH1 0x24 DUP3 ADD MSTORE PUSH32 0x4F6E6C79206F776E657200000000000000000000000000000000000000000000 PUSH1 0x44 DUP3 ADD MSTORE PUSH1 0x64 ADD PUSH2 0x9B0 JUMP JUMPDEST PUSH0 DUP2 DUP2 MSTORE PUSH1 0x6 PUSH1 0x20 MSTORE PUSH1 0x40 SWAP1 KECCAK256 SLOAD DUP2 SWAP1 SUB PUSH2 0xC57 JUMPI PUSH0 DUP2 DUP2 MSTORE PUSH1 0x6 PUSH1 0x20 MSTORE PUSH1 0x40 SWAP1 KECCAK256 PUSH1 0x4 ADD SLOAD ISZERO PUSH2 0x1B20 JUMPI PUSH1 0x40 MLOAD PUSH32 0x8C379A000000000000000000000000000000000000000000000000000000000 DUP2 MSTORE PUSH1 0x20 PUSH1 0x4 DUP3 ADD MSTORE PUSH1 0x24 DUP1 DUP3 ADD MSTORE PUSH32 0x43616E742072656D6F76652067616D652077697468206E6F7420656D70747920 PUSH1 0x44 DUP3 ADD MSTORE PUSH32 0x62616E6B00000000000000000000000000000000000000000000000000000000 PUSH1 0x64 DUP3 ADD MSTORE PUSH1 0x84 ADD PUSH2 0x9B0 JUMP JUMPDEST PUSH0 DUP2 DUP2 MSTORE PUSH1 0x6 PUSH1 0x20 MSTORE PUSH1 0x40 SWAP1 KECCAK256 PUSH1 0x5 ADD SLOAD ISZERO PUSH2 0x1BBE JUMPI PUSH1 0x40 MLOAD PUSH32 0x8C379A000000000000000000000000000000000000000000000000000000000 DUP2 MSTORE PUSH1 0x20 PUSH1 0x4 DUP3 ADD MSTORE PUSH1 0x2C PUSH1 0x24 DUP3 ADD MSTORE PUSH32 0x43616E742072656D6F76652067616D652077697468206E6F7420656D70747920 PUSH1 0x44 DUP3 ADD MSTORE PUSH32 0x70656E64696E672062616E6B0000000000000000000000000000000000000000 PUSH1 0x64 DUP3 ADD MSTORE PUSH1 0x84 ADD PUSH2 0x9B0 JUMP JUMPDEST PUSH0 DUP2 DUP2 MSTORE PUSH1 0x6 PUSH1 0x20 MSTORE PUSH1 0x40 SWAP1 KECCAK256 PUSH1 0x3 DUP2 ADD SLOAD PUSH1 0x2 SWAP1 SWAP2 ADD SLOAD PUSH1 0x5 SLOAD PUSH20 0xFFFFFFFFFFFFFFFFFFFFFFFFFFFFFFFFFFFFFFFF SWAP1 SWAP3 AND SWAP2 DUP4 LT ISZERO PUSH2 0x1D17 JUMPI PUSH1 0x5 DUP1 SLOAD PUSH0 SWAP1 DUP2 MSTORE PUSH1 0x6 PUSH1 0x20 MSTORE PUSH1 0x40 DUP1 DUP3 KECCAK256 DUP7 SWAP1 SSTORE SWAP2 SLOAD DUP2 MSTORE DUP2 DUP2 KECCAK256 DUP6 DUP3 MSTORE SWAP2 SWAP1 KECCAK256 DUP2 SLOAD DUP2 SSTORE PUSH1 0x1 DUP1 DUP3 ADD SWAP1 PUSH2 0x1C31 SWAP1 DUP5 ADD DUP3 PUSH2 0x45EC JUMP JUMPDEST POP PUSH1 0x2 DUP3 DUP2 ADD SLOAD SWAP1 DUP3 ADD SSTORE PUSH1 0x3 DUP1 DUP4 ADD SLOAD SWAP1 DUP3 ADD DUP1 SLOAD PUSH32 0xFFFFFFFFFFFFFFFFFFFFFFFF0000000000000000000000000000000000000000 AND PUSH20 0xFFFFFFFFFFFFFFFFFFFFFFFFFFFFFFFFFFFFFFFF SWAP1 SWAP3 AND SWAP2 SWAP1 SWAP2 OR SWAP1 SSTORE PUSH1 0x4 DUP1 DUP4 ADD SLOAD SWAP1 DUP3 ADD SSTORE PUSH1 0x5 DUP1 DUP4 ADD SLOAD SWAP1 DUP3 ADD SSTORE PUSH1 0x6 DUP1 DUP4 ADD SLOAD SWAP1 DUP3 ADD SSTORE PUSH1 0x7 DUP1 DUP4 ADD SLOAD SWAP1 DUP3 ADD SSTORE PUSH1 0x8 DUP1 DUP3 ADD SWAP1 PUSH2 0x1CC1 SWAP1 DUP5 ADD DUP3 PUSH2 0x45EC JUMP JUMPDEST POP POP PUSH1 0x5 DUP1 SLOAD PUSH0 SWAP1 DUP2 MSTORE PUSH1 0x6 PUSH1 0x20 DUP2 DUP2 MSTORE PUSH1 0x40 DUP1 DUP5 KECCAK256 PUSH1 0x3 ADD SLOAD PUSH20 0xFFFFFFFFFFFFFFFFFFFFFFFFFFFFFFFFFFFFFFFF AND DUP5 MSTORE PUSH1 0x7 DUP3 MSTORE DUP1 DUP5 KECCAK256 DUP10 SWAP1 SSTORE SWAP4 SLOAD DUP4 MSTORE SWAP1 DUP2 MSTORE DUP3 DUP3 KECCAK256 PUSH1 0x2 ADD SLOAD DUP3 MSTORE PUSH1 0x8 SWAP1 MSTORE KECCAK256 DUP5 SWAP1 SSTORE POP JUMPDEST PUSH1 0x5 SLOAD PUSH0 SWAP1 DUP2 MSTORE PUSH1 0x6 PUSH1 0x20 MSTORE PUSH1 0x40 DUP2 KECCAK256 DUP2 DUP2 SSTORE SWAP1 PUSH2 0x1D38 PUSH1 0x1 DUP4 ADD DUP3 PUSH2 0x3D3F JUMP JUMPDEST PUSH0 PUSH1 0x2 DUP4 ADD DUP2 SWAP1 SSTORE PUSH1 0x3 DUP4 ADD DUP1 SLOAD PUSH32 0xFFFFFFFFFFFFFFFFFFFFFFFF0000000000000000000000000000000000000000 AND SWAP1 SSTORE PUSH1 0x4 DUP4 ADD DUP2 SWAP1 SSTORE PUSH1 0x5 DUP4 ADD DUP2 SWAP1 SSTORE PUSH1 0x6 DUP4 ADD DUP2 SWAP1 SSTORE PUSH1 0x7 DUP4 ADD DUP2 SWAP1 SSTORE PUSH2 0x1D94 SWAP1 PUSH1 0x8 DUP5 ADD SWAP1 PUSH2 0x3D3F JUMP JUMPDEST POP POP PUSH20 0xFFFFFFFFFFFFFFFFFFFFFFFFFFFFFFFFFFFFFFFF DUP3 AND PUSH0 SWAP1 DUP2 MSTORE PUSH1 0x7 PUSH1 0x20 SWAP1 DUP2 MSTORE PUSH1 0x40 DUP1 DUP4 KECCAK256 DUP4 SWAP1 SSTORE DUP4 DUP4 MSTORE PUSH1 0x8 SWAP1 SWAP2 MSTORE DUP2 KECCAK256 DUP2 SWAP1 SSTORE PUSH1 0x5 DUP1 SLOAD SWAP2 PUSH2 0x1DDB DUP4 PUSH2 0x471D JUMP JUMPDEST SWAP2 SWAP1 POP SSTORE POP POP POP POP JUMP JUMPDEST CALLER PUSH0 DUP2 DUP2 MSTORE PUSH1 0x7 PUSH1 0x20 SWAP1 DUP2 MSTORE PUSH1 0x40 DUP1 DUP4 KECCAK256 SLOAD DUP4 MSTORE PUSH1 0x6 SWAP1 SWAP2 MSTORE SWAP1 KECCAK256 PUSH1 0x3 ADD SLOAD PUSH20 0xFFFFFFFFFFFFFFFFFFFFFFFFFFFFFFFFFFFFFFFF AND EQ PUSH2 0x1E81 JUMPI PUSH1 0x40 MLOAD PUSH32 0x8C379A000000000000000000000000000000000000000000000000000000000 DUP2 MSTORE PUSH1 0x20 PUSH1 0x4 DUP3 ADD MSTORE PUSH1 0x12 PUSH1 0x24 DUP3 ADD MSTORE PUSH32 0x4F6E6C792067616D6520636F6E74726163740000000000000000000000000000 PUSH1 0x44 DUP3 ADD MSTORE PUSH1 0x64 ADD PUSH2 0x9B0 JUMP JUMPDEST PUSH2 0x1E89 PUSH2 0x3BD1 JUMP JUMPDEST PUSH20 0xFFFFFFFFFFFFFFFFFFFFFFFFFFFFFFFFFFFFFFFF DUP1 DUP4 AND PUSH0 DUP2 DUP2 MSTORE PUSH1 0xB PUSH1 0x20 SWAP1 DUP2 MSTORE PUSH1 0x40 DUP1 DUP4 KECCAK256 SLOAD CALLER DUP5 MSTORE PUSH1 0x7 DUP4 MSTORE DUP2 DUP5 KECCAK256 SLOAD DUP2 DUP6 MSTORE PUSH1 0xA SWAP1 SWAP4 MSTORE SWAP3 KECCAK256 PUSH1 0x1 ADD SLOAD SWAP2 SWAP4 SWAP1 SWAP3 SWAP2 AND EQ PUSH2 0x1F38 JUMPI PUSH1 0x40 MLOAD PUSH32 0x8C379A000000000000000000000000000000000000000000000000000000000 DUP2 MSTORE PUSH1 0x20 PUSH1 0x4 DUP3 ADD MSTORE PUSH1 0x10 PUSH1 0x24 DUP3 ADD MSTORE PUSH32 0x55736572206E6F7420666F756E64656400000000000000000000000000000000 PUSH1 0x44 DUP3 ADD MSTORE PUSH1 0x64 ADD PUSH2 0x9B0 JUMP JUMPDEST PUSH0 DUP2 DUP2 MSTORE PUSH1 0x6 PUSH1 0x20 MSTORE PUSH1 0x40 SWAP1 KECCAK256 PUSH1 0x4 ADD SLOAD DUP4 GT PUSH2 0x1F92 JUMPI PUSH0 DUP2 DUP2 MSTORE PUSH1 0x6 PUSH1 0x20 MSTORE PUSH1 0x40 DUP2 KECCAK256 PUSH1 0x4 ADD DUP1 SLOAD DUP6 SWAP3 SWAP1 PUSH2 0x1F6F SWAP1 DUP5 SWAP1 PUSH2 0x44FF JUMP JUMPDEST SWAP3 POP POP DUP2 SWAP1 SSTORE POP DUP3 PUSH1 0xD PUSH0 DUP3 DUP3 SLOAD PUSH2 0x1F87 SWAP2 SWAP1 PUSH2 0x44FF JUMP JUMPDEST SWAP1 SWAP2 SSTORE POP PUSH2 0x1FD0 SWAP1 POP JUMP JUMPDEST PUSH0 DUP2 DUP2 MSTORE PUSH1 0x6 PUSH1 0x20 MSTORE PUSH1 0x40 DUP2 KECCAK256 PUSH1 0x5 ADD DUP1 SLOAD DUP6 SWAP3 SWAP1 PUSH2 0x1FB2 SWAP1 DUP5 SWAP1 PUSH2 0x4561 JUMP JUMPDEST SWAP3 POP POP DUP2 SWAP1 SSTORE POP DUP3 PUSH1 0xE PUSH0 DUP3 DUP3 SLOAD PUSH2 0x1FCA SWAP2 SWAP1 PUSH2 0x4561 JUMP JUMPDEST SWAP1 SWAP2 SSTORE POP POP JUMPDEST PUSH0 DUP3 DUP2 MSTORE PUSH1 0xA PUSH1 0x20 MSTORE PUSH1 0x40 DUP2 KECCAK256 PUSH1 0x2 ADD DUP1 SLOAD DUP6 SWAP3 SWAP1 PUSH2 0x1FF0 SWAP1 DUP5 SWAP1 PUSH2 0x4561 JUMP JUMPDEST SWAP3 POP POP DUP2 SWAP1 SSTORE POP DUP3 PUSH1 0xC PUSH0 DUP3 DUP3 SLOAD PUSH2 0x2008 SWAP2 SWAP1 PUSH2 0x4561 JUMP JUMPDEST SWAP1 SWAP2 SSTORE POP POP PUSH1 0x1 PUSH0 SSTORE POP PUSH2 0x124B SWAP1 POP JUMP JUMPDEST PUSH1 0x2 SLOAD PUSH20 0xFFFFFFFFFFFFFFFFFFFFFFFFFFFFFFFFFFFFFFFF AND CALLER EQ PUSH2 0x209A JUMPI PUSH1 0x40 MLOAD PUSH32 0x8C379A000000000000000000000000000000000000000000000000000000000 DUP2 MSTORE PUSH1 0x20 PUSH1 0x4 DUP3 ADD MSTORE PUSH1 0xA PUSH1 0x24 DUP3 ADD MSTORE PUSH32 0x4F6E6C79206F776E657200000000000000000000000000000000000000000000 PUSH1 0x44 DUP3 ADD MSTORE PUSH1 0x64 ADD PUSH2 0x9B0 JUMP JUMPDEST PUSH2 0x20A2 PUSH2 0x3BD1 JUMP JUMPDEST PUSH0 DUP3 DUP2 MSTORE PUSH1 0x6 PUSH1 0x20 MSTORE PUSH1 0x40 SWAP1 KECCAK256 SLOAD DUP3 EQ PUSH2 0x2118 JUMPI PUSH1 0x40 MLOAD PUSH32 0x8C379A000000000000000000000000000000000000000000000000000000000 DUP2 MSTORE PUSH1 0x20 PUSH1 0x4 DUP3 ADD MSTORE PUSH1 0x10 PUSH1 0x24 DUP3 ADD MSTORE PUSH32 0x47616D65206E6F7420666F756E64656400000000000000000000000000000000 PUSH1 0x44 DUP3 ADD MSTORE PUSH1 0x64 ADD PUSH2 0x9B0 JUMP JUMPDEST PUSH0 DUP2 GT PUSH2 0x2181 JUMPI PUSH1 0x40 MLOAD PUSH32 0x8C379A000000000000000000000000000000000000000000000000000000000 DUP2 MSTORE PUSH1 0x20 PUSH1 0x4 DUP3 ADD MSTORE PUSH1 0x1D PUSH1 0x24 DUP3 ADD MSTORE PUSH32 0x416D6F756E74206D7573742062652067726561746572207468616E2030000000 PUSH1 0x44 DUP3 ADD MSTORE PUSH1 0x64 ADD PUSH2 0x9B0 JUMP JUMPDEST PUSH0 DUP3 DUP2 MSTORE PUSH1 0x6 PUSH1 0x20 MSTORE PUSH1 0x40 SWAP1 KECCAK256 PUSH1 0x4 ADD SLOAD DUP2 GT ISZERO PUSH2 0x21FB JUMPI PUSH1 0x40 MLOAD PUSH32 0x8C379A000000000000000000000000000000000000000000000000000000000 DUP2 MSTORE PUSH1 0x20 PUSH1 0x4 DUP3 ADD MSTORE PUSH1 0x17 PUSH1 0x24 DUP3 ADD MSTORE PUSH32 0x456E676F75742067616D652062616E6B20616D6F756E74000000000000000000 PUSH1 0x44 DUP3 ADD MSTORE PUSH1 0x64 ADD PUSH2 0x9B0 JUMP JUMPDEST PUSH1 0x1 SLOAD PUSH1 0x40 MLOAD PUSH32 0xA9059CBB00000000000000000000000000000000000000000000000000000000 DUP2 MSTORE CALLER PUSH1 0x4 DUP3 ADD MSTORE PUSH1 0x24 DUP2 ADD DUP4 SWAP1 MSTORE PUSH20 0xFFFFFFFFFFFFFFFFFFFFFFFFFFFFFFFFFFFFFFFF SWAP1 SWAP2 AND SWAP1 PUSH4 0xA9059CBB SWAP1 PUSH1 0x44 ADD PUSH1 0x20 PUSH1 0x40 MLOAD DUP1 DUP4 SUB DUP2 PUSH0 DUP8 GAS CALL ISZERO DUP1 ISZERO PUSH2 0x226F JUMPI RETURNDATASIZE PUSH0 DUP1 RETURNDATACOPY RETURNDATASIZE PUSH0 REVERT JUMPDEST POP POP POP POP PUSH1 0x40 MLOAD RETURNDATASIZE PUSH1 0x1F NOT PUSH1 0x1F DUP3 ADD AND DUP3 ADD DUP1 PUSH1 0x40 MSTORE POP DUP2 ADD SWAP1 PUSH2 0x2293 SWAP2 SWAP1 PUSH2 0x44B3 JUMP JUMPDEST POP PUSH0 DUP3 DUP2 MSTORE PUSH1 0x6 PUSH1 0x20 MSTORE PUSH1 0x40 DUP2 KECCAK256 PUSH1 0x4 ADD DUP1 SLOAD DUP4 SWAP3 SWAP1 PUSH2 0x22B4 SWAP1 DUP5 SWAP1 PUSH2 0x44FF JUMP JUMPDEST SWAP3 POP POP DUP2 SWAP1 SSTORE POP DUP1 PUSH1 0xD PUSH0 DUP3 DUP3 SLOAD PUSH2 0x123E SWAP2 SWAP1 PUSH2 0x44FF JUMP JUMPDEST PUSH2 0x22F2 PUSH1 0x40 MLOAD DUP1 PUSH1 0x60 ADD PUSH1 0x40 MSTORE DUP1 PUSH0 PUSH1 0xFF AND DUP2 MSTORE PUSH1 0x20 ADD PUSH1 0x60 DUP2 MSTORE PUSH1 0x20 ADD PUSH1 0x60 DUP2 MSTORE POP SWAP1 JUMP JUMPDEST PUSH1 0x40 MLOAD DUP1 PUSH1 0x60 ADD PUSH1 0x40 MSTORE DUP1 PUSH1 0x1 PUSH0 SWAP1 SLOAD SWAP1 PUSH2 0x100 EXP SWAP1 DIV PUSH20 0xFFFFFFFFFFFFFFFFFFFFFFFFFFFFFFFFFFFFFFFF AND PUSH20 0xFFFFFFFFFFFFFFFFFFFFFFFFFFFFFFFFFFFFFFFF AND PUSH4 0x313CE567 PUSH1 0x40 MLOAD DUP2 PUSH4 0xFFFFFFFF AND PUSH1 0xE0 SHL DUP2 MSTORE PUSH1 0x4 ADD PUSH1 0x20 PUSH1 0x40 MLOAD DUP1 DUP4 SUB DUP2 DUP7 GAS STATICCALL ISZERO DUP1 ISZERO PUSH2 0x2367 JUMPI RETURNDATASIZE PUSH0 DUP1 RETURNDATACOPY RETURNDATASIZE PUSH0 REVERT JUMPDEST POP POP POP POP PUSH1 0x40 MLOAD RETURNDATASIZE PUSH1 0x1F NOT PUSH1 0x1F DUP3 ADD AND DUP3 ADD DUP1 PUSH1 0x40 MSTORE POP DUP2 ADD SWAP1 PUSH2 0x238B SWAP2 SWAP1 PUSH2 0x4751 JUMP JUMPDEST PUSH1 0xFF AND DUP2 MSTORE PUSH1 0x20 ADD PUSH1 0x1 PUSH0 SWAP1 SLOAD SWAP1 PUSH2 0x100 EXP SWAP1 DIV PUSH20 0xFFFFFFFFFFFFFFFFFFFFFFFFFFFFFFFFFFFFFFFF AND PUSH20 0xFFFFFFFFFFFFFFFFFFFFFFFFFFFFFFFFFFFFFFFF AND PUSH4 0x95D89B41 PUSH1 0x40 MLOAD DUP2 PUSH4 0xFFFFFFFF AND PUSH1 0xE0 SHL DUP2 MSTORE PUSH1 0x4 ADD PUSH0 PUSH1 0x40 MLOAD DUP1 DUP4 SUB DUP2 DUP7 GAS STATICCALL ISZERO DUP1 ISZERO PUSH2 0x23FC JUMPI RETURNDATASIZE PUSH0 DUP1 RETURNDATACOPY RETURNDATASIZE PUSH0 REVERT JUMPDEST POP POP POP POP PUSH1 0x40 MLOAD RETURNDATASIZE PUSH0 DUP3 RETURNDATACOPY PUSH1 0x1F RETURNDATASIZE SWAP1 DUP2 ADD PUSH32 0xFFFFFFFFFFFFFFFFFFFFFFFFFFFFFFFFFFFFFFFFFFFFFFFFFFFFFFFFFFFFFFE0 AND DUP3 ADD PUSH1 0x40 MSTORE PUSH2 0x2441 SWAP2 SWAP1 DUP2 ADD SWAP1 PUSH2 0x4771 JUMP JUMPDEST DUP2 MSTORE PUSH1 0x20 ADD PUSH1 0x1 PUSH0 SWAP1 SLOAD SWAP1 PUSH2 0x100 EXP SWAP1 DIV PUSH20 0xFFFFFFFFFFFFFFFFFFFFFFFFFFFFFFFFFFFFFFFF AND PUSH20 0xFFFFFFFFFFFFFFFFFFFFFFFFFFFFFFFFFFFFFFFF AND PUSH4 0x6FDDE03 PUSH1 0x40 MLOAD DUP2 PUSH4 0xFFFFFFFF AND PUSH1 0xE0 SHL DUP2 MSTORE PUSH1 0x4 ADD PUSH0 PUSH1 0x40 MLOAD DUP1 DUP4 SUB DUP2 DUP7 GAS STATICCALL ISZERO DUP1 ISZERO PUSH2 0x24AF JUMPI RETURNDATASIZE PUSH0 DUP1 RETURNDATACOPY RETURNDATASIZE PUSH0 REVERT JUMPDEST POP POP POP POP PUSH1 0x40 MLOAD RETURNDATASIZE PUSH0 DUP3 RETURNDATACOPY PUSH1 0x1F RETURNDATASIZE SWAP1 DUP2 ADD PUSH32 0xFFFFFFFFFFFFFFFFFFFFFFFFFFFFFFFFFFFFFFFFFFFFFFFFFFFFFFFFFFFFFFE0 AND DUP3 ADD PUSH1 0x40 MSTORE PUSH2 0x24F4 SWAP2 SWAP1 DUP2 ADD SWAP1 PUSH2 0x4771 JUMP JUMPDEST SWAP1 MSTORE SWAP2 SWAP1 POP JUMP JUMPDEST PUSH1 0x60 PUSH1 0x5 SLOAD DUP4 GT ISZERO PUSH2 0x2597 JUMPI PUSH1 0x40 DUP1 MLOAD PUSH0 DUP1 DUP3 MSTORE PUSH1 0x20 DUP3 ADD SWAP1 SWAP3 MSTORE SWAP1 PUSH2 0x1485 JUMP JUMPDEST PUSH2 0x257D PUSH1 0x40 MLOAD DUP1 PUSH2 0x120 ADD PUSH1 0x40 MSTORE DUP1 PUSH0 DUP2 MSTORE PUSH1 0x20 ADD PUSH1 0x60 DUP2 MSTORE PUSH1 0x20 ADD PUSH0 DUP1 NOT AND DUP2 MSTORE PUSH1 0x20 ADD PUSH0 PUSH20 0xFFFFFFFFFFFFFFFFFFFFFFFFFFFFFFFFFFFFFFFF AND DUP2 MSTORE PUSH1 0x20 ADD PUSH0 DUP2 MSTORE PUSH1 0x20 ADD PUSH0 DUP2 MSTORE PUSH1 0x20 ADD PUSH0 DUP2 MSTORE PUSH1 0x20 ADD PUSH0 DUP2 MSTORE PUSH1 0x20 ADD PUSH1 0x60 DUP2 MSTORE POP SWAP1 JUMP JUMPDEST DUP2 MSTORE PUSH1 0x20 ADD SWAP1 PUSH1 0x1 SWAP1 SUB SWAP1 DUP2 PUSH2 0x251C JUMPI SWAP1 POP POP SWAP1 POP PUSH2 0x15E6 JUMP JUMPDEST DUP3 ISZERO DUP1 ISZERO PUSH2 0x25A3 JUMPI POP DUP2 ISZERO JUMPDEST ISZERO PUSH2 0x25AE JUMPI PUSH1 0x5 SLOAD SWAP2 POP JUMPDEST PUSH1 0x5 SLOAD PUSH2 0x25BB DUP4 DUP6 PUSH2 0x4561 JUMP JUMPDEST GT ISZERO PUSH2 0x25D2 JUMPI DUP3 PUSH1 0x5 SLOAD PUSH2 0x25CF SWAP2 SWAP1 PUSH2 0x44FF JUMP JUMPDEST SWAP2 POP JUMPDEST PUSH0 DUP3 PUSH8 0xFFFFFFFFFFFFFFFF DUP2 GT ISZERO PUSH2 0x25EC JUMPI PUSH2 0x25EC PUSH2 0x415D JUMP JUMPDEST PUSH1 0x40 MLOAD SWAP1 DUP1 DUP3 MSTORE DUP1 PUSH1 0x20 MUL PUSH1 0x20 ADD DUP3 ADD PUSH1 0x40 MSTORE DUP1 ISZERO PUSH2 0x267E JUMPI DUP2 PUSH1 0x20 ADD JUMPDEST PUSH2 0x266B PUSH1 0x40 MLOAD DUP1 PUSH2 0x120 ADD PUSH1 0x40 MSTORE DUP1 PUSH0 DUP2 MSTORE PUSH1 0x20 ADD PUSH1 0x60 DUP2 MSTORE PUSH1 0x20 ADD PUSH0 DUP1 NOT AND DUP2 MSTORE PUSH1 0x20 ADD PUSH0 PUSH20 0xFFFFFFFFFFFFFFFFFFFFFFFFFFFFFFFFFFFFFFFF AND DUP2 MSTORE PUSH1 0x20 ADD PUSH0 DUP2 MSTORE PUSH1 0x20 ADD PUSH0 DUP2 MSTORE PUSH1 0x20 ADD PUSH0 DUP2 MSTORE PUSH1 0x20 ADD PUSH0 DUP2 MSTORE PUSH1 0x20 ADD PUSH1 0x60 DUP2 MSTORE POP SWAP1 JUMP JUMPDEST DUP2 MSTORE PUSH1 0x20 ADD SWAP1 PUSH1 0x1 SWAP1 SUB SWAP1 DUP2 PUSH2 0x260A JUMPI SWAP1 POP JUMPDEST POP SWAP1 POP PUSH0 JUMPDEST DUP4 DUP2 LT ISZERO PUSH2 0x15E2 JUMPI PUSH1 0x6 PUSH0 DUP7 DUP4 PUSH1 0x5 SLOAD PUSH2 0x269D SWAP2 SWAP1 PUSH2 0x44FF JUMP JUMPDEST PUSH2 0x26A7 SWAP2 SWAP1 PUSH2 0x44FF JUMP JUMPDEST DUP2 MSTORE PUSH1 0x20 ADD SWAP1 DUP2 MSTORE PUSH1 0x20 ADD PUSH0 KECCAK256 PUSH1 0x40 MLOAD DUP1 PUSH2 0x120 ADD PUSH1 0x40 MSTORE SWAP1 DUP2 PUSH0 DUP3 ADD SLOAD DUP2 MSTORE PUSH1 0x20 ADD PUSH1 0x1 DUP3 ADD DUP1 SLOAD PUSH2 0x26D9 SWAP1 PUSH2 0x4462 JUMP JUMPDEST DUP1 PUSH1 0x1F ADD PUSH1 0x20 DUP1 SWAP2 DIV MUL PUSH1 0x20 ADD PUSH1 0x40 MLOAD SWAP1 DUP2 ADD PUSH1 0x40 MSTORE DUP1 SWAP3 SWAP2 SWAP1 DUP2 DUP2 MSTORE PUSH1 0x20 ADD DUP3 DUP1 SLOAD PUSH2 0x2705 SWAP1 PUSH2 0x4462 JUMP JUMPDEST DUP1 ISZERO PUSH2 0x2750 JUMPI DUP1 PUSH1 0x1F LT PUSH2 0x2727 JUMPI PUSH2 0x100 DUP1 DUP4 SLOAD DIV MUL DUP4 MSTORE SWAP2 PUSH1 0x20 ADD SWAP2 PUSH2 0x2750 JUMP JUMPDEST DUP3 ADD SWAP2 SWAP1 PUSH0 MSTORE PUSH1 0x20 PUSH0 KECCAK256 SWAP1 JUMPDEST DUP2 SLOAD DUP2 MSTORE SWAP1 PUSH1 0x1 ADD SWAP1 PUSH1 0x20 ADD DUP1 DUP4 GT PUSH2 0x2733 JUMPI DUP3 SWAP1 SUB PUSH1 0x1F AND DUP3 ADD SWAP2 JUMPDEST POP POP POP SWAP2 DUP4 MSTORE POP POP PUSH1 0x2 DUP3 ADD SLOAD PUSH1 0x20 DUP3 ADD MSTORE PUSH1 0x3 DUP3 ADD SLOAD PUSH20 0xFFFFFFFFFFFFFFFFFFFFFFFFFFFFFFFFFFFFFFFF AND PUSH1 0x40 DUP3 ADD MSTORE PUSH1 0x4 DUP3 ADD SLOAD PUSH1 0x60 DUP3 ADD MSTORE PUSH1 0x5 DUP3 ADD SLOAD PUSH1 0x80 DUP3 ADD MSTORE PUSH1 0x6 DUP3 ADD SLOAD PUSH1 0xA0 DUP3 ADD MSTORE PUSH1 0x7 DUP3 ADD SLOAD PUSH1 0xC0 DUP3 ADD MSTORE PUSH1 0x8 DUP3 ADD DUP1 SLOAD PUSH1 0xE0 SWAP1 SWAP3 ADD SWAP2 PUSH2 0x27BF SWAP1 PUSH2 0x4462 JUMP JUMPDEST DUP1 PUSH1 0x1F ADD PUSH1 0x20 DUP1 SWAP2 DIV MUL PUSH1 0x20 ADD PUSH1 0x40 MLOAD SWAP1 DUP2 ADD PUSH1 0x40 MSTORE DUP1 SWAP3 SWAP2 SWAP1 DUP2 DUP2 MSTORE PUSH1 0x20 ADD DUP3 DUP1 SLOAD PUSH2 0x27EB SWAP1 PUSH2 0x4462 JUMP JUMPDEST DUP1 ISZERO PUSH2 0x2836 JUMPI DUP1 PUSH1 0x1F LT PUSH2 0x280D JUMPI PUSH2 0x100 DUP1 DUP4 SLOAD DIV MUL DUP4 MSTORE SWAP2 PUSH1 0x20 ADD SWAP2 PUSH2 0x2836 JUMP JUMPDEST DUP3 ADD SWAP2 SWAP1 PUSH0 MSTORE PUSH1 0x20 PUSH0 KECCAK256 SWAP1 JUMPDEST DUP2 SLOAD DUP2 MSTORE SWAP1 PUSH1 0x1 ADD SWAP1 PUSH1 0x20 ADD DUP1 DUP4 GT PUSH2 0x2819 JUMPI DUP3 SWAP1 SUB PUSH1 0x1F AND DUP3 ADD SWAP2 JUMPDEST POP POP POP POP POP DUP2 MSTORE POP POP DUP3 DUP3 DUP2 MLOAD DUP2 LT PUSH2 0x2851 JUMPI PUSH2 0x2851 PUSH2 0x4574 JUMP JUMPDEST PUSH1 0x20 SWAP1 DUP2 MUL SWAP2 SWAP1 SWAP2 ADD ADD MSTORE PUSH1 0x1 ADD PUSH2 0x2683 JUMP JUMPDEST PUSH2 0x286C PUSH2 0x3BD1 JUMP JUMPDEST PUSH0 DUP2 GT PUSH2 0x28D5 JUMPI PUSH1 0x40 MLOAD PUSH32 0x8C379A000000000000000000000000000000000000000000000000000000000 DUP2 MSTORE PUSH1 0x20 PUSH1 0x4 DUP3 ADD MSTORE PUSH1 0x1D PUSH1 0x24 DUP3 ADD MSTORE PUSH32 0x416D6F756E74206D7573742062652067726561746572207468616E2030000000 PUSH1 0x44 DUP3 ADD MSTORE PUSH1 0x64 ADD PUSH2 0x9B0 JUMP JUMPDEST PUSH1 0x1 SLOAD PUSH1 0x40 MLOAD PUSH32 0x23B872DD00000000000000000000000000000000000000000000000000000000 DUP2 MSTORE CALLER PUSH1 0x4 DUP3 ADD MSTORE ADDRESS PUSH1 0x24 DUP3 ADD MSTORE PUSH1 0x44 DUP2 ADD DUP4 SWAP1 MSTORE PUSH20 0xFFFFFFFFFFFFFFFFFFFFFFFFFFFFFFFFFFFFFFFF SWAP1 SWAP2 AND SWAP1 PUSH4 0x23B872DD SWAP1 PUSH1 0x64 ADD PUSH1 0x20 PUSH1 0x40 MLOAD DUP1 DUP4 SUB DUP2 PUSH0 DUP8 GAS CALL ISZERO DUP1 ISZERO PUSH2 0x294F JUMPI RETURNDATASIZE PUSH0 DUP1 RETURNDATACOPY RETURNDATASIZE PUSH0 REVERT JUMPDEST POP POP POP POP PUSH1 0x40 MLOAD RETURNDATASIZE PUSH1 0x1F NOT PUSH1 0x1F DUP3 ADD AND DUP3 ADD DUP1 PUSH1 0x40 MSTORE POP DUP2 ADD SWAP1 PUSH2 0x2973 SWAP2 SWAP1 PUSH2 0x44B3 JUMP JUMPDEST POP PUSH0 PUSH2 0x297E CALLER PUSH2 0x3C42 JUMP JUMPDEST PUSH0 DUP2 DUP2 MSTORE PUSH1 0xA PUSH1 0x20 MSTORE PUSH1 0x40 DUP2 KECCAK256 PUSH1 0x2 DUP2 ADD DUP1 SLOAD SWAP4 SWAP5 POP SWAP1 SWAP3 DUP6 SWAP3 SWAP1 PUSH2 0x29A4 SWAP1 DUP5 SWAP1 PUSH2 0x4561 JUMP JUMPDEST SWAP3 POP POP DUP2 SWAP1 SSTORE POP DUP3 PUSH1 0xC PUSH0 DUP3 DUP3 SLOAD PUSH2 0xC46 SWAP2 SWAP1 PUSH2 0x4561 JUMP JUMPDEST PUSH1 0x2 SLOAD PUSH20 0xFFFFFFFFFFFFFFFFFFFFFFFFFFFFFFFFFFFFFFFF AND CALLER EQ PUSH2 0x2A3D JUMPI PUSH1 0x40 MLOAD PUSH32 0x8C379A000000000000000000000000000000000000000000000000000000000 DUP2 MSTORE PUSH1 0x20 PUSH1 0x4 DUP3 ADD MSTORE PUSH1 0xA PUSH1 0x24 DUP3 ADD MSTORE PUSH32 0x4F6E6C79206F776E657200000000000000000000000000000000000000000000 PUSH1 0x44 DUP3 ADD MSTORE PUSH1 0x64 ADD PUSH2 0x9B0 JUMP JUMPDEST PUSH2 0x2A45 PUSH2 0x3BD1 JUMP JUMPDEST PUSH0 DUP3 MLOAD DUP3 PUSH2 0x2A53 SWAP2 SWAP1 PUSH2 0x4512 JUMP JUMPDEST PUSH1 0x1 SLOAD PUSH1 0x40 MLOAD PUSH32 0x23B872DD00000000000000000000000000000000000000000000000000000000 DUP2 MSTORE CALLER PUSH1 0x4 DUP3 ADD MSTORE ADDRESS PUSH1 0x24 DUP3 ADD MSTORE PUSH1 0x44 DUP2 ADD DUP4 SWAP1 MSTORE SWAP2 SWAP3 POP PUSH20 0xFFFFFFFFFFFFFFFFFFFFFFFFFFFFFFFFFFFFFFFF AND SWAP1 PUSH4 0x23B872DD SWAP1 PUSH1 0x64 ADD PUSH1 0x20 PUSH1 0x40 MLOAD DUP1 DUP4 SUB DUP2 PUSH0 DUP8 GAS CALL ISZERO DUP1 ISZERO PUSH2 0x2ACE JUMPI RETURNDATASIZE PUSH0 DUP1 RETURNDATACOPY RETURNDATASIZE PUSH0 REVERT JUMPDEST POP POP POP POP PUSH1 0x40 MLOAD RETURNDATASIZE PUSH1 0x1F NOT PUSH1 0x1F DUP3 ADD AND DUP3 ADD DUP1 PUSH1 0x40 MSTORE POP DUP2 ADD SWAP1 PUSH2 0x2AF2 SWAP2 SWAP1 PUSH2 0x44B3 JUMP JUMPDEST POP PUSH0 JUMPDEST DUP4 MLOAD DUP2 LT ISZERO PUSH2 0x2B54 JUMPI PUSH0 PUSH2 0x2B21 DUP6 DUP4 DUP2 MLOAD DUP2 LT PUSH2 0x2B14 JUMPI PUSH2 0x2B14 PUSH2 0x4574 JUMP JUMPDEST PUSH1 0x20 MUL PUSH1 0x20 ADD ADD MLOAD PUSH2 0x3C42 JUMP JUMPDEST SWAP1 POP DUP4 PUSH1 0xA PUSH0 DUP4 DUP2 MSTORE PUSH1 0x20 ADD SWAP1 DUP2 MSTORE PUSH1 0x20 ADD PUSH0 KECCAK256 PUSH1 0x2 ADD PUSH0 DUP3 DUP3 SLOAD PUSH2 0x2B46 SWAP2 SWAP1 PUSH2 0x4561 JUMP JUMPDEST SWAP1 SWAP2 SSTORE POP POP POP PUSH1 0x1 ADD PUSH2 0x2AF5 JUMP JUMPDEST POP DUP1 PUSH1 0xC PUSH0 DUP3 DUP3 SLOAD PUSH2 0x2B66 SWAP2 SWAP1 PUSH2 0x4561 JUMP JUMPDEST SWAP1 SWAP2 SSTORE POP POP PUSH1 0x1 PUSH0 SSTORE POP POP POP JUMP JUMPDEST PUSH1 0x2 SLOAD PUSH20 0xFFFFFFFFFFFFFFFFFFFFFFFFFFFFFFFFFFFFFFFF AND CALLER EQ PUSH2 0x2BF5 JUMPI PUSH1 0x40 MLOAD PUSH32 0x8C379A000000000000000000000000000000000000000000000000000000000 DUP2 MSTORE PUSH1 0x20 PUSH1 0x4 DUP3 ADD MSTORE PUSH1 0xA PUSH1 0x24 DUP3 ADD MSTORE PUSH32 0x4F6E6C79206F776E657200000000000000000000000000000000000000000000 PUSH1 0x44 DUP3 ADD MSTORE PUSH1 0x64 ADD PUSH2 0x9B0 JUMP JUMPDEST PUSH1 0x64 PUSH2 0x2C01 DUP3 DUP5 PUSH2 0x4561 JUMP JUMPDEST GT ISZERO PUSH2 0x2C69 JUMPI PUSH1 0x40 MLOAD PUSH32 0x8C379A000000000000000000000000000000000000000000000000000000000 DUP2 MSTORE PUSH1 0x20 PUSH1 0x4 DUP3 ADD MSTORE PUSH1 0x19 PUSH1 0x24 DUP3 ADD MSTORE PUSH32 0x6275726E2B7374616B65206D757374206265203C3D2031303000000000000000 PUSH1 0x44 DUP3 ADD MSTORE PUSH1 0x64 ADD PUSH2 0x9B0 JUMP JUMPDEST PUSH0 DUP5 PUSH1 0x40 MLOAD PUSH1 0x20 ADD PUSH2 0x2C7B SWAP2 SWAP1 PUSH2 0x47DA JUMP JUMPDEST PUSH1 0x40 DUP1 MLOAD PUSH32 0xFFFFFFFFFFFFFFFFFFFFFFFFFFFFFFFFFFFFFFFFFFFFFFFFFFFFFFFFFFFFFFE0 DUP2 DUP5 SUB ADD DUP2 MSTORE SWAP2 DUP2 MSTORE DUP2 MLOAD PUSH1 0x20 SWAP3 DUP4 ADD KECCAK256 PUSH0 DUP2 DUP2 MSTORE PUSH1 0x8 SWAP1 SWAP4 MSTORE SWAP2 KECCAK256 SLOAD SWAP1 SWAP2 POP ISZERO PUSH2 0x2D4D JUMPI PUSH1 0x40 MLOAD PUSH32 0x8C379A000000000000000000000000000000000000000000000000000000000 DUP2 MSTORE PUSH1 0x20 PUSH1 0x4 DUP3 ADD MSTORE PUSH1 0x22 PUSH1 0x24 DUP3 ADD MSTORE PUSH32 0x47616D652077697468207468697320436F646520616C72656164792065786973 PUSH1 0x44 DUP3 ADD MSTORE PUSH32 0x7473000000000000000000000000000000000000000000000000000000000000 PUSH1 0x64 DUP3 ADD MSTORE PUSH1 0x84 ADD PUSH2 0x9B0 JUMP JUMPDEST PUSH20 0xFFFFFFFFFFFFFFFFFFFFFFFFFFFFFFFFFFFFFFFF DUP7 AND PUSH0 SWAP1 DUP2 MSTORE PUSH1 0x7 PUSH1 0x20 MSTORE PUSH1 0x40 DUP2 KECCAK256 SLOAD SWAP1 SUB PUSH2 0x2EC0 JUMPI PUSH1 0x5 DUP1 SLOAD SWAP1 PUSH0 PUSH2 0x2D87 DUP4 PUSH2 0x47F5 JUMP JUMPDEST SWAP1 SWAP2 SSTORE POP POP PUSH1 0x5 SLOAD PUSH20 0xFFFFFFFFFFFFFFFFFFFFFFFFFFFFFFFFFFFFFFFF DUP8 AND PUSH0 DUP2 DUP2 MSTORE PUSH1 0x7 PUSH1 0x20 SWAP1 DUP2 MSTORE PUSH1 0x40 DUP1 DUP4 KECCAK256 DUP6 SWAP1 SSTORE DUP6 DUP4 MSTORE PUSH1 0x8 DUP3 MSTORE DUP1 DUP4 KECCAK256 DUP6 SWAP1 SSTORE DUP1 MLOAD PUSH2 0x120 DUP2 ADD DUP3 MSTORE DUP6 DUP2 MSTORE DUP1 DUP4 ADD DUP12 DUP2 MSTORE DUP2 DUP4 ADD DUP9 SWAP1 MSTORE PUSH1 0x60 DUP3 ADD SWAP6 SWAP1 SWAP6 MSTORE PUSH1 0x80 DUP2 ADD DUP5 SWAP1 MSTORE PUSH1 0xA0 DUP2 ADD DUP5 SWAP1 MSTORE PUSH1 0xC0 DUP2 ADD DUP10 SWAP1 MSTORE PUSH1 0xE0 DUP2 ADD DUP9 SWAP1 MSTORE PUSH2 0x100 DUP2 ADD DUP11 SWAP1 MSTORE SWAP5 DUP4 MSTORE PUSH1 0x6 SWAP1 SWAP2 MSTORE SWAP1 KECCAK256 DUP3 MLOAD DUP2 SSTORE SWAP1 MLOAD PUSH1 0x1 DUP3 ADD SWAP1 PUSH2 0x2E29 SWAP1 DUP3 PUSH2 0x482C JUMP JUMPDEST POP PUSH1 0x40 DUP3 ADD MLOAD PUSH1 0x2 DUP3 ADD SSTORE PUSH1 0x60 DUP3 ADD MLOAD PUSH1 0x3 DUP3 ADD DUP1 SLOAD PUSH32 0xFFFFFFFFFFFFFFFFFFFFFFFF0000000000000000000000000000000000000000 AND PUSH20 0xFFFFFFFFFFFFFFFFFFFFFFFFFFFFFFFFFFFFFFFF SWAP1 SWAP3 AND SWAP2 SWAP1 SWAP2 OR SWAP1 SSTORE PUSH1 0x80 DUP3 ADD MLOAD PUSH1 0x4 DUP3 ADD SSTORE PUSH1 0xA0 DUP3 ADD MLOAD PUSH1 0x5 DUP3 ADD SSTORE PUSH1 0xC0 DUP3 ADD MLOAD PUSH1 0x6 DUP3 ADD SSTORE PUSH1 0xE0 DUP3 ADD MLOAD PUSH1 0x7 DUP3 ADD SSTORE PUSH2 0x100 DUP3 ADD MLOAD PUSH1 0x8 DUP3 ADD SWAP1 PUSH2 0x2EBC SWAP1 DUP3 PUSH2 0x482C JUMP JUMPDEST POP POP POP JUMPDEST POP POP POP POP POP POP JUMP JUMPDEST PUSH1 0x2 SLOAD PUSH20 0xFFFFFFFFFFFFFFFFFFFFFFFFFFFFFFFFFFFFFFFF AND CALLER EQ PUSH2 0x2F49 JUMPI PUSH1 0x40 MLOAD PUSH32 0x8C379A000000000000000000000000000000000000000000000000000000000 DUP2 MSTORE PUSH1 0x20 PUSH1 0x4 DUP3 ADD MSTORE PUSH1 0xA PUSH1 0x24 DUP3 ADD MSTORE PUSH32 0x4F6E6C79206F776E657200000000000000000000000000000000000000000000 PUSH1 0x44 DUP3 ADD MSTORE PUSH1 0x64 ADD PUSH2 0x9B0 JUMP JUMPDEST PUSH2 0x2F51 PUSH2 0x3BD1 JUMP JUMPDEST PUSH20 0xFFFFFFFFFFFFFFFFFFFFFFFFFFFFFFFFFFFFFFFF DUP1 DUP4 AND PUSH0 DUP2 DUP2 MSTORE PUSH1 0xB PUSH1 0x20 SWAP1 DUP2 MSTORE PUSH1 0x40 DUP1 DUP4 KECCAK256 SLOAD DUP1 DUP5 MSTORE PUSH1 0xA SWAP1 SWAP3 MSTORE SWAP1 SWAP2 KECCAK256 PUSH1 0x1 DUP2 ADD SLOAD SWAP2 SWAP4 SWAP1 SWAP3 SWAP2 AND EQ PUSH2 0x2FF7 JUMPI PUSH1 0x40 MLOAD PUSH32 0x8C379A000000000000000000000000000000000000000000000000000000000 DUP2 MSTORE PUSH1 0x20 PUSH1 0x4 DUP3 ADD MSTORE PUSH1 0xF PUSH1 0x24 DUP3 ADD MSTORE PUSH32 0x55736572206E6F74206578697374730000000000000000000000000000000000 PUSH1 0x44 DUP3 ADD MSTORE PUSH1 0x64 ADD PUSH2 0x9B0 JUMP JUMPDEST DUP3 DUP2 PUSH1 0x2 ADD SLOAD LT ISZERO PUSH2 0x3065 JUMPI PUSH1 0x40 MLOAD PUSH32 0x8C379A000000000000000000000000000000000000000000000000000000000 DUP2 MSTORE PUSH1 0x20 PUSH1 0x4 DUP3 ADD MSTORE PUSH1 0x1B PUSH1 0x24 DUP3 ADD MSTORE PUSH32 0x4E6F7420656E6F75676874206465706F7369742062616C616E63650000000000 PUSH1 0x44 DUP3 ADD MSTORE PUSH1 0x64 ADD PUSH2 0x9B0 JUMP JUMPDEST PUSH1 0x1 SLOAD PUSH1 0x40 MLOAD PUSH32 0xA9059CBB00000000000000000000000000000000000000000000000000000000 DUP2 MSTORE PUSH20 0xFFFFFFFFFFFFFFFFFFFFFFFFFFFFFFFFFFFFFFFF DUP7 DUP2 AND PUSH1 0x4 DUP4 ADD MSTORE PUSH1 0x24 DUP3 ADD DUP7 SWAP1 MSTORE SWAP1 SWAP2 AND SWAP1 PUSH4 0xA9059CBB SWAP1 PUSH1 0x44 ADD PUSH1 0x20 PUSH1 0x40 MLOAD DUP1 DUP4 SUB DUP2 PUSH0 DUP8 GAS CALL ISZERO DUP1 ISZERO PUSH2 0x30DB JUMPI RETURNDATASIZE PUSH0 DUP1 RETURNDATACOPY RETURNDATASIZE PUSH0 REVERT JUMPDEST POP POP POP POP PUSH1 0x40 MLOAD RETURNDATASIZE PUSH1 0x1F NOT PUSH1 0x1F DUP3 ADD AND DUP3 ADD DUP1 PUSH1 0x40 MSTORE POP DUP2 ADD SWAP1 PUSH2 0x30FF SWAP2 SWAP1 PUSH2 0x44B3 JUMP JUMPDEST POP DUP3 DUP2 PUSH1 0x2 ADD PUSH0 DUP3 DUP3 SLOAD PUSH2 0x3113 SWAP2 SWAP1 PUSH2 0x44FF JUMP JUMPDEST SWAP3 POP POP DUP2 SWAP1 SSTORE POP DUP3 PUSH1 0xC PUSH0 DUP3 DUP3 SLOAD PUSH2 0x2008 SWAP2 SWAP1 PUSH2 0x44FF JUMP JUMPDEST PUSH2 0x318C PUSH1 0x40 MLOAD DUP1 PUSH2 0x120 ADD PUSH1 0x40 MSTORE DUP1 PUSH0 DUP2 MSTORE PUSH1 0x20 ADD PUSH1 0x60 DUP2 MSTORE PUSH1 0x20 ADD PUSH0 DUP1 NOT AND DUP2 MSTORE PUSH1 0x20 ADD PUSH0 PUSH20 0xFFFFFFFFFFFFFFFFFFFFFFFFFFFFFFFFFFFFFFFF AND DUP2 MSTORE PUSH1 0x20 ADD PUSH0 DUP2 MSTORE PUSH1 0x20 ADD PUSH0 DUP2 MSTORE PUSH1 0x20 ADD PUSH0 DUP2 MSTORE PUSH1 0x20 ADD PUSH0 DUP2 MSTORE PUSH1 0x20 ADD PUSH1 0x60 DUP2 MSTORE POP SWAP1 JUMP JUMPDEST PUSH0 DUP3 PUSH1 0x40 MLOAD PUSH1 0x20 ADD PUSH2 0x319E SWAP2 SWAP1 PUSH2 0x47DA JUMP JUMPDEST PUSH1 0x40 DUP1 MLOAD PUSH32 0xFFFFFFFFFFFFFFFFFFFFFFFFFFFFFFFFFFFFFFFFFFFFFFFFFFFFFFFFFFFFFFE0 DUP2 DUP5 SUB ADD DUP2 MSTORE DUP3 DUP3 MSTORE DUP1 MLOAD PUSH1 0x20 SWAP2 DUP3 ADD KECCAK256 PUSH0 DUP2 DUP2 MSTORE PUSH1 0x8 DUP4 MSTORE DUP4 DUP2 KECCAK256 SLOAD DUP2 MSTORE PUSH1 0x6 DUP4 MSTORE DUP4 SWAP1 KECCAK256 PUSH2 0x120 DUP6 ADD SWAP1 SWAP4 MSTORE DUP3 SLOAD DUP5 MSTORE PUSH1 0x1 DUP4 ADD DUP1 SLOAD SWAP2 SWAP6 POP SWAP2 DUP5 ADD SWAP2 SWAP1 PUSH2 0x320C SWAP1 PUSH2 0x4462 JUMP JUMPDEST DUP1 PUSH1 0x1F ADD PUSH1 0x20 DUP1 SWAP2 DIV MUL PUSH1 0x20 ADD PUSH1 0x40 MLOAD SWAP1 DUP2 ADD PUSH1 0x40 MSTORE DUP1 SWAP3 SWAP2 SWAP1 DUP2 DUP2 MSTORE PUSH1 0x20 ADD DUP3 DUP1 SLOAD PUSH2 0x3238 SWAP1 PUSH2 0x4462 JUMP JUMPDEST DUP1 ISZERO PUSH2 0x3283 JUMPI DUP1 PUSH1 0x1F LT PUSH2 0x325A JUMPI PUSH2 0x100 DUP1 DUP4 SLOAD DIV MUL DUP4 MSTORE SWAP2 PUSH1 0x20 ADD SWAP2 PUSH2 0x3283 JUMP JUMPDEST DUP3 ADD SWAP2 SWAP1 PUSH0 MSTORE PUSH1 0x20 PUSH0 KECCAK256 SWAP1 JUMPDEST DUP2 SLOAD DUP2 MSTORE SWAP1 PUSH1 0x1 ADD SWAP1 PUSH1 0x20 ADD DUP1 DUP4 GT PUSH2 0x3266 JUMPI DUP3 SWAP1 SUB PUSH1 0x1F AND DUP3 ADD SWAP2 JUMPDEST POP POP POP SWAP2 DUP4 MSTORE POP POP PUSH1 0x2 DUP3 ADD SLOAD PUSH1 0x20 DUP3 ADD MSTORE PUSH1 0x3 DUP3 ADD SLOAD PUSH20 0xFFFFFFFFFFFFFFFFFFFFFFFFFFFFFFFFFFFFFFFF AND PUSH1 0x40 DUP3 ADD MSTORE PUSH1 0x4 DUP3 ADD SLOAD PUSH1 0x60 DUP3 ADD MSTORE PUSH1 0x5 DUP3 ADD SLOAD PUSH1 0x80 DUP3 ADD MSTORE PUSH1 0x6 DUP3 ADD SLOAD PUSH1 0xA0 DUP3 ADD MSTORE PUSH1 0x7 DUP3 ADD SLOAD PUSH1 0xC0 DUP3 ADD MSTORE PUSH1 0x8 DUP3 ADD DUP1 SLOAD PUSH1 0xE0 SWAP1 SWAP3 ADD SWAP2 PUSH2 0x32F2 SWAP1 PUSH2 0x4462 JUMP JUMPDEST DUP1 PUSH1 0x1F ADD PUSH1 0x20 DUP1 SWAP2 DIV MUL PUSH1 0x20 ADD PUSH1 0x40 MLOAD SWAP1 DUP2 ADD PUSH1 0x40 MSTORE DUP1 SWAP3 SWAP2 SWAP1 DUP2 DUP2 MSTORE PUSH1 0x20 ADD DUP3 DUP1 SLOAD PUSH2 0x331E SWAP1 PUSH2 0x4462 JUMP JUMPDEST DUP1 ISZERO PUSH2 0x3369 JUMPI DUP1 PUSH1 0x1F LT PUSH2 0x3340 JUMPI PUSH2 0x100 DUP1 DUP4 SLOAD DIV MUL DUP4 MSTORE SWAP2 PUSH1 0x20 ADD SWAP2 PUSH2 0x3369 JUMP JUMPDEST DUP3 ADD SWAP2 SWAP1 PUSH0 MSTORE PUSH1 0x20 PUSH0 KECCAK256 SWAP1 JUMPDEST DUP2 SLOAD DUP2 MSTORE SWAP1 PUSH1 0x1 ADD SWAP1 PUSH1 0x20 ADD DUP1 DUP4 GT PUSH2 0x334C JUMPI DUP3 SWAP1 SUB PUSH1 0x1F AND DUP3 ADD SWAP2 JUMPDEST POP POP POP POP POP DUP2 MSTORE POP POP SWAP2 POP POP SWAP2 SWAP1 POP JUMP JUMPDEST PUSH1 0x2 SLOAD PUSH20 0xFFFFFFFFFFFFFFFFFFFFFFFFFFFFFFFFFFFFFFFF AND CALLER EQ PUSH2 0x33FB JUMPI PUSH1 0x40 MLOAD PUSH32 0x8C379A000000000000000000000000000000000000000000000000000000000 DUP2 MSTORE PUSH1 0x20 PUSH1 0x4 DUP3 ADD MSTORE PUSH1 0xA PUSH1 0x24 DUP3 ADD MSTORE PUSH32 0x4F6E6C79206F776E657200000000000000000000000000000000000000000000 PUSH1 0x44 DUP3 ADD MSTORE PUSH1 0x64 ADD PUSH2 0x9B0 JUMP JUMPDEST PUSH1 0x64 PUSH2 0x3407 DUP3 DUP5 PUSH2 0x4561 JUMP JUMPDEST GT ISZERO PUSH2 0x346F JUMPI PUSH1 0x40 MLOAD PUSH32 0x8C379A000000000000000000000000000000000000000000000000000000000 DUP2 MSTORE PUSH1 0x20 PUSH1 0x4 DUP3 ADD MSTORE PUSH1 0x19 PUSH1 0x24 DUP3 ADD MSTORE PUSH32 0x6275726E2B7374616B65206D757374206265203C3D2031303000000000000000 PUSH1 0x44 DUP3 ADD MSTORE PUSH1 0x64 ADD PUSH2 0x9B0 JUMP JUMPDEST PUSH0 DUP5 PUSH1 0x40 MLOAD PUSH1 0x20 ADD PUSH2 0x3481 SWAP2 SWAP1 PUSH2 0x47DA JUMP JUMPDEST PUSH1 0x40 DUP1 MLOAD PUSH32 0xFFFFFFFFFFFFFFFFFFFFFFFFFFFFFFFFFFFFFFFFFFFFFFFFFFFFFFFFFFFFFFE0 DUP2 DUP5 SUB ADD DUP2 MSTORE SWAP2 DUP2 MSTORE DUP2 MLOAD PUSH1 0x20 SWAP3 DUP4 ADD KECCAK256 PUSH0 DUP11 DUP2 MSTORE PUSH1 0x6 SWAP1 SWAP4 MSTORE SWAP2 KECCAK256 SLOAD SWAP1 SWAP2 POP DUP8 SWAP1 SUB PUSH2 0x3697 JUMPI PUSH0 DUP8 DUP2 MSTORE PUSH1 0x6 PUSH1 0x20 MSTORE PUSH1 0x40 SWAP1 KECCAK256 PUSH1 0x2 ADD SLOAD DUP2 EQ PUSH2 0x35AE JUMPI PUSH0 DUP2 DUP2 MSTORE PUSH1 0x8 PUSH1 0x20 MSTORE PUSH1 0x40 SWAP1 KECCAK256 SLOAD ISZERO PUSH2 0x357F JUMPI PUSH1 0x40 MLOAD PUSH32 0x8C379A000000000000000000000000000000000000000000000000000000000 DUP2 MSTORE PUSH1 0x20 PUSH1 0x4 DUP3 ADD MSTORE PUSH1 0x22 PUSH1 0x24 DUP3 ADD MSTORE PUSH32 0x47616D652077697468207468697320636F646520616C72656164792065786973 PUSH1 0x44 DUP3 ADD MSTORE PUSH32 0x7473000000000000000000000000000000000000000000000000000000000000 PUSH1 0x64 DUP3 ADD MSTORE PUSH1 0x84 ADD PUSH2 0x9B0 JUMP JUMPDEST PUSH0 DUP8 DUP2 MSTORE PUSH1 0x6 PUSH1 0x20 SWAP1 DUP2 MSTORE PUSH1 0x40 DUP1 DUP4 KECCAK256 PUSH1 0x2 ADD DUP1 SLOAD DUP5 MSTORE PUSH1 0x8 SWAP1 SWAP3 MSTORE DUP1 DUP4 KECCAK256 DUP4 SWAP1 SSTORE SWAP1 DUP4 SWAP1 SSTORE DUP3 DUP3 MSTORE SWAP1 KECCAK256 DUP8 SWAP1 SSTORE JUMPDEST PUSH0 DUP8 DUP2 MSTORE PUSH1 0x6 PUSH1 0x20 MSTORE PUSH1 0x40 SWAP1 KECCAK256 PUSH1 0x8 ADD PUSH2 0x35C8 DUP6 DUP3 PUSH2 0x482C JUMP JUMPDEST POP PUSH0 DUP8 DUP2 MSTORE PUSH1 0x6 PUSH1 0x20 MSTORE PUSH1 0x40 SWAP1 KECCAK256 PUSH1 0x1 ADD PUSH2 0x35E3 DUP7 DUP3 PUSH2 0x482C JUMP JUMPDEST POP PUSH0 DUP8 DUP2 MSTORE PUSH1 0x6 PUSH1 0x20 DUP2 SWAP1 MSTORE PUSH1 0x40 SWAP1 SWAP2 KECCAK256 SWAP1 DUP2 ADD DUP5 SWAP1 SSTORE PUSH1 0x7 DUP2 ADD DUP4 SWAP1 SSTORE PUSH1 0x3 ADD SLOAD PUSH20 0xFFFFFFFFFFFFFFFFFFFFFFFFFFFFFFFFFFFFFFFF DUP8 DUP2 AND SWAP2 AND EQ PUSH2 0x3697 JUMPI PUSH0 DUP8 DUP2 MSTORE PUSH1 0x6 PUSH1 0x20 DUP2 DUP2 MSTORE PUSH1 0x40 DUP1 DUP5 KECCAK256 PUSH1 0x3 ADD DUP1 SLOAD PUSH20 0xFFFFFFFFFFFFFFFFFFFFFFFFFFFFFFFFFFFFFFFF SWAP1 DUP2 AND DUP7 MSTORE PUSH1 0x7 DUP5 MSTORE DUP3 DUP7 KECCAK256 DUP7 SWAP1 SSTORE DUP12 AND DUP1 DUP7 MSTORE SWAP2 DUP6 KECCAK256 DUP13 SWAP1 SSTORE SWAP4 DUP12 SWAP1 MSTORE SWAP2 SWAP1 MSTORE DUP2 SLOAD PUSH32 0xFFFFFFFFFFFFFFFFFFFFFFFF0000000000000000000000000000000000000000 AND OR SWAP1 SSTORE JUMPDEST POP POP POP POP POP POP POP JUMP JUMPDEST PUSH1 0x2 SLOAD PUSH20 0xFFFFFFFFFFFFFFFFFFFFFFFFFFFFFFFFFFFFFFFF AND CALLER EQ PUSH2 0x3721 JUMPI PUSH1 0x40 MLOAD PUSH32 0x8C379A000000000000000000000000000000000000000000000000000000000 DUP2 MSTORE PUSH1 0x20 PUSH1 0x4 DUP3 ADD MSTORE PUSH1 0xA PUSH1 0x24 DUP3 ADD MSTORE PUSH32 0x4F6E6C79206F776E657200000000000000000000000000000000000000000000 PUSH1 0x44 DUP3 ADD MSTORE PUSH1 0x64 ADD PUSH2 0x9B0 JUMP JUMPDEST PUSH2 0x3729 PUSH2 0x3BD1 JUMP JUMPDEST PUSH0 DUP3 DUP2 MSTORE PUSH1 0x6 PUSH1 0x20 MSTORE PUSH1 0x40 SWAP1 KECCAK256 SLOAD DUP3 EQ PUSH2 0x379F JUMPI PUSH1 0x40 MLOAD PUSH32 0x8C379A000000000000000000000000000000000000000000000000000000000 DUP2 MSTORE PUSH1 0x20 PUSH1 0x4 DUP3 ADD MSTORE PUSH1 0x10 PUSH1 0x24 DUP3 ADD MSTORE PUSH32 0x47616D65206E6F7420666F756E64656400000000000000000000000000000000 PUSH1 0x44 DUP3 ADD MSTORE PUSH1 0x64 ADD PUSH2 0x9B0 JUMP JUMPDEST PUSH0 DUP2 GT PUSH2 0x3808 JUMPI PUSH1 0x40 MLOAD PUSH32 0x8C379A000000000000000000000000000000000000000000000000000000000 DUP2 MSTORE PUSH1 0x20 PUSH1 0x4 DUP3 ADD MSTORE PUSH1 0x1D PUSH1 0x24 DUP3 ADD MSTORE PUSH32 0x416D6F756E74206D7573742062652067726561746572207468616E2030000000 PUSH1 0x44 DUP3 ADD MSTORE PUSH1 0x64 ADD PUSH2 0x9B0 JUMP JUMPDEST PUSH1 0x1 SLOAD PUSH1 0x40 MLOAD PUSH32 0x23B872DD00000000000000000000000000000000000000000000000000000000 DUP2 MSTORE CALLER PUSH1 0x4 DUP3 ADD MSTORE ADDRESS PUSH1 0x24 DUP3 ADD MSTORE PUSH1 0x44 DUP2 ADD DUP4 SWAP1 MSTORE PUSH20 0xFFFFFFFFFFFFFFFFFFFFFFFFFFFFFFFFFFFFFFFF SWAP1 SWAP2 AND SWAP1 PUSH4 0x23B872DD SWAP1 PUSH1 0x64 ADD PUSH1 0x20 PUSH1 0x40 MLOAD DUP1 DUP4 SUB DUP2 PUSH0 DUP8 GAS CALL ISZERO DUP1 ISZERO PUSH2 0x3882 JUMPI RETURNDATASIZE PUSH0 DUP1 RETURNDATACOPY RETURNDATASIZE PUSH0 REVERT JUMPDEST POP POP POP POP PUSH1 0x40 MLOAD RETURNDATASIZE PUSH1 0x1F NOT PUSH1 0x1F DUP3 ADD AND DUP3 ADD DUP1 PUSH1 0x40 MSTORE POP DUP2 ADD SWAP1 PUSH2 0x38A6 SWAP2 SWAP1 PUSH2 0x44B3 JUMP JUMPDEST POP PUSH0 DUP3 DUP2 MSTORE PUSH1 0x6 PUSH1 0x20 MSTORE PUSH1 0x40 DUP2 KECCAK256 PUSH1 0x4 ADD DUP1 SLOAD DUP4 SWAP3 SWAP1 PUSH2 0x38C7 SWAP1 DUP5 SWAP1 PUSH2 0x4561 JUMP JUMPDEST SWAP3 POP POP DUP2 SWAP1 SSTORE POP DUP1 PUSH1 0xD PUSH0 DUP3 DUP3 SLOAD PUSH2 0x123E SWAP2 SWAP1 PUSH2 0x4561 JUMP JUMPDEST CALLER PUSH0 DUP2 DUP2 MSTORE PUSH1 0x7 PUSH1 0x20 SWAP1 DUP2 MSTORE PUSH1 0x40 DUP1 DUP4 KECCAK256 SLOAD DUP4 MSTORE PUSH1 0x6 SWAP1 SWAP2 MSTORE SWAP1 KECCAK256 PUSH1 0x3 ADD SLOAD PUSH20 0xFFFFFFFFFFFFFFFFFFFFFFFFFFFFFFFFFFFFFFFF AND EQ PUSH2 0x397B JUMPI PUSH1 0x40 MLOAD PUSH32 0x8C379A000000000000000000000000000000000000000000000000000000000 DUP2 MSTORE PUSH1 0x20 PUSH1 0x4 DUP3 ADD MSTORE PUSH1 0x12 PUSH1 0x24 DUP3 ADD MSTORE PUSH32 0x4F6E6C792067616D6520636F6E74726163740000000000000000000000000000 PUSH1 0x44 DUP3 ADD MSTORE PUSH1 0x64 ADD PUSH2 0x9B0 JUMP JUMPDEST PUSH2 0x3983 PUSH2 0x3BD1 JUMP JUMPDEST PUSH20 0xFFFFFFFFFFFFFFFFFFFFFFFFFFFFFFFFFFFFFFFF DUP1 DUP4 AND PUSH0 DUP2 DUP2 MSTORE PUSH1 0xB PUSH1 0x20 SWAP1 DUP2 MSTORE PUSH1 0x40 DUP1 DUP4 KECCAK256 SLOAD CALLER DUP5 MSTORE PUSH1 0x7 DUP4 MSTORE DUP2 DUP5 KECCAK256 SLOAD DUP2 DUP6 MSTORE PUSH1 0xA SWAP1 SWAP4 MSTORE SWAP3 KECCAK256 PUSH1 0x1 ADD SLOAD SWAP2 SWAP4 SWAP1 SWAP3 SWAP2 AND EQ PUSH2 0x3A32 JUMPI PUSH1 0x40 MLOAD PUSH32 0x8C379A000000000000000000000000000000000000000000000000000000000 DUP2 MSTORE PUSH1 0x20 PUSH1 0x4 DUP3 ADD MSTORE PUSH1 0x10 PUSH1 0x24 DUP3 ADD MSTORE PUSH32 0x55736572206E6F7420666F756E64656400000000000000000000000000000000 PUSH1 0x44 DUP3 ADD MSTORE PUSH1 0x64 ADD PUSH2 0x9B0 JUMP JUMPDEST PUSH0 DUP3 DUP2 MSTORE PUSH1 0xA PUSH1 0x20 MSTORE PUSH1 0x40 SWAP1 KECCAK256 PUSH1 0x2 ADD SLOAD DUP4 GT ISZERO PUSH2 0x3AAC JUMPI PUSH1 0x40 MLOAD PUSH32 0x8C379A000000000000000000000000000000000000000000000000000000000 DUP2 MSTORE PUSH1 0x20 PUSH1 0x4 DUP3 ADD MSTORE PUSH1 0x12 PUSH1 0x24 DUP3 ADD MSTORE PUSH32 0x4E6F7420656E6F7574682062616C616E63650000000000000000000000000000 PUSH1 0x44 DUP3 ADD MSTORE PUSH1 0x64 ADD PUSH2 0x9B0 JUMP JUMPDEST PUSH0 DUP3 DUP2 MSTORE PUSH1 0xA PUSH1 0x20 MSTORE PUSH1 0x40 DUP2 KECCAK256 PUSH1 0x2 ADD DUP1 SLOAD DUP6 SWAP3 SWAP1 PUSH2 0x3ACC SWAP1 DUP5 SWAP1 PUSH2 0x44FF JUMP JUMPDEST SWAP1 SWAP2 SSTORE POP POP PUSH0 DUP2 DUP2 MSTORE PUSH1 0x6 PUSH1 0x20 MSTORE PUSH1 0x40 DUP2 KECCAK256 PUSH1 0x4 ADD DUP1 SLOAD DUP6 SWAP3 SWAP1 PUSH2 0x3AF1 SWAP1 DUP5 SWAP1 PUSH2 0x4561 JUMP JUMPDEST SWAP3 POP POP DUP2 SWAP1 SSTORE POP DUP3 PUSH1 0xD PUSH0 DUP3 DUP3 SLOAD PUSH2 0x3113 SWAP2 SWAP1 PUSH2 0x4561 JUMP JUMPDEST PUSH1 0x2 SLOAD PUSH20 0xFFFFFFFFFFFFFFFFFFFFFFFFFFFFFFFFFFFFFFFF AND CALLER EQ PUSH2 0x3B8A JUMPI PUSH1 0x40 MLOAD PUSH32 0x8C379A000000000000000000000000000000000000000000000000000000000 DUP2 MSTORE PUSH1 0x20 PUSH1 0x4 DUP3 ADD MSTORE PUSH1 0xA PUSH1 0x24 DUP3 ADD MSTORE PUSH32 0x4F6E6C79206F776E657200000000000000000000000000000000000000000000 PUSH1 0x44 DUP3 ADD MSTORE PUSH1 0x64 ADD PUSH2 0x9B0 JUMP JUMPDEST PUSH1 0x2 DUP1 SLOAD PUSH32 0xFFFFFFFFFFFFFFFFFFFFFFFF0000000000000000000000000000000000000000 AND PUSH20 0xFFFFFFFFFFFFFFFFFFFFFFFFFFFFFFFFFFFFFFFF SWAP3 SWAP1 SWAP3 AND SWAP2 SWAP1 SWAP2 OR SWAP1 SSTORE JUMP JUMPDEST PUSH1 0x2 PUSH0 SLOAD SUB PUSH2 0x3C3C JUMPI PUSH1 0x40 MLOAD PUSH32 0x8C379A000000000000000000000000000000000000000000000000000000000 DUP2 MSTORE PUSH1 0x20 PUSH1 0x4 DUP3 ADD MSTORE PUSH1 0x1F PUSH1 0x24 DUP3 ADD MSTORE PUSH32 0x5265656E7472616E637947756172643A207265656E7472616E742063616C6C00 PUSH1 0x44 DUP3 ADD MSTORE PUSH1 0x64 ADD PUSH2 0x9B0 JUMP JUMPDEST PUSH1 0x2 PUSH0 SSTORE JUMP JUMPDEST PUSH20 0xFFFFFFFFFFFFFFFFFFFFFFFFFFFFFFFFFFFFFFFF DUP2 AND PUSH0 SWAP1 DUP2 MSTORE PUSH1 0xB PUSH1 0x20 MSTORE PUSH1 0x40 DUP2 KECCAK256 SLOAD DUP2 SUB PUSH2 0x3D17 JUMPI PUSH1 0x9 DUP1 SLOAD SWAP1 PUSH0 PUSH2 0x3C7C DUP4 PUSH2 0x47F5 JUMP JUMPDEST SWAP1 SWAP2 SSTORE POP POP PUSH1 0x9 DUP1 SLOAD PUSH20 0xFFFFFFFFFFFFFFFFFFFFFFFFFFFFFFFFFFFFFFFF SWAP4 DUP5 AND PUSH0 DUP2 DUP2 MSTORE PUSH1 0xB PUSH1 0x20 SWAP1 DUP2 MSTORE PUSH1 0x40 DUP1 DUP4 KECCAK256 DUP6 SWAP1 SSTORE DUP1 MLOAD PUSH1 0x60 DUP2 ADD DUP3 MSTORE DUP6 DUP2 MSTORE DUP1 DUP4 ADD SWAP5 DUP6 MSTORE DUP1 DUP3 ADD DUP5 DUP2 MSTORE SWAP6 DUP5 MSTORE PUSH1 0xA SWAP1 SWAP3 MSTORE SWAP1 SWAP2 KECCAK256 SWAP1 MLOAD DUP2 SSTORE SWAP1 MLOAD PUSH1 0x1 DUP3 ADD DUP1 SLOAD PUSH32 0xFFFFFFFFFFFFFFFFFFFFFFFF0000000000000000000000000000000000000000 AND SWAP2 SWAP1 SWAP7 AND OR SWAP1 SWAP5 SSTORE MLOAD PUSH1 0x2 SWAP1 SWAP4 ADD SWAP3 SWAP1 SWAP3 SSTORE POP SLOAD SWAP1 JUMP JUMPDEST POP PUSH20 0xFFFFFFFFFFFFFFFFFFFFFFFFFFFFFFFFFFFFFFFF AND PUSH0 SWAP1 DUP2 MSTORE PUSH1 0xB PUSH1 0x20 MSTORE PUSH1 0x40 SWAP1 KECCAK256 SLOAD SWAP1 JUMP JUMPDEST POP DUP1 SLOAD PUSH2 0x3D4B SWAP1 PUSH2 0x4462 JUMP JUMPDEST PUSH0 DUP3 SSTORE DUP1 PUSH1 0x1F LT PUSH2 0x3D5A JUMPI POP POP JUMP JUMPDEST PUSH1 0x1F ADD PUSH1 0x20 SWAP1 DIV SWAP1 PUSH0 MSTORE PUSH1 0x20 PUSH0 KECCAK256 SWAP1 DUP2 ADD SWAP1 PUSH2 0xC57 SWAP2 SWAP1 JUMPDEST DUP1 DUP3 GT ISZERO PUSH2 0x3D85 JUMPI PUSH0 DUP2 SSTORE PUSH1 0x1 ADD PUSH2 0x3D72 JUMP JUMPDEST POP SWAP1 JUMP JUMPDEST DUP1 CALLDATALOAD PUSH20 0xFFFFFFFFFFFFFFFFFFFFFFFFFFFFFFFFFFFFFFFF DUP2 AND DUP2 EQ PUSH2 0x3DAC JUMPI PUSH0 DUP1 REVERT JUMPDEST SWAP2 SWAP1 POP JUMP JUMPDEST PUSH0 PUSH1 0x20 DUP3 DUP5 SUB SLT ISZERO PUSH2 0x3DC1 JUMPI PUSH0 DUP1 REVERT JUMPDEST PUSH2 0x3DCA DUP3 PUSH2 0x3D89 JUMP JUMPDEST SWAP4 SWAP3 POP POP POP JUMP JUMPDEST PUSH0 PUSH1 0x20 DUP3 DUP5 SUB SLT ISZERO PUSH2 0x3DE1 JUMPI PUSH0 DUP1 REVERT JUMPDEST POP CALLDATALOAD SWAP2 SWAP1 POP JUMP JUMPDEST PUSH0 JUMPDEST DUP4 DUP2 LT ISZERO PUSH2 0x3E02 JUMPI DUP2 DUP2 ADD MLOAD DUP4 DUP3 ADD MSTORE PUSH1 0x20 ADD PUSH2 0x3DEA JUMP JUMPDEST POP POP PUSH0 SWAP2 ADD MSTORE JUMP JUMPDEST PUSH0 DUP2 MLOAD DUP1 DUP5 MSTORE PUSH2 0x3E21 DUP2 PUSH1 0x20 DUP7 ADD PUSH1 0x20 DUP7 ADD PUSH2 0x3DE8 JUMP JUMPDEST PUSH1 0x1F ADD PUSH32 0xFFFFFFFFFFFFFFFFFFFFFFFFFFFFFFFFFFFFFFFFFFFFFFFFFFFFFFFFFFFFFFE0 AND SWAP3 SWAP1 SWAP3 ADD PUSH1 0x20 ADD SWAP3 SWAP2 POP POP JUMP JUMPDEST PUSH0 PUSH2 0x120 DUP12 DUP4 MSTORE DUP1 PUSH1 0x20 DUP5 ADD MSTORE PUSH2 0x3E6C DUP2 DUP5 ADD DUP13 PUSH2 0x3E0A JUMP JUMPDEST SWAP1 POP DUP10 PUSH1 0x40 DUP5 ADD MSTORE PUSH20 0xFFFFFFFFFFFFFFFFFFFFFFFFFFFFFFFFFFFFFFFF DUP10 AND PUSH1 0x60 DUP5 ADD MSTORE DUP8 PUSH1 0x80 DUP5 ADD MSTORE DUP7 PUSH1 0xA0 DUP5 ADD MSTORE DUP6 PUSH1 0xC0 DUP5 ADD MSTORE DUP5 PUSH1 0xE0 DUP5 ADD MSTORE DUP3 DUP2 SUB PUSH2 0x100 DUP5 ADD MSTORE PUSH2 0x3EBB DUP2 DUP6 PUSH2 0x3E0A JUMP JUMPDEST SWAP13 SWAP12 POP POP POP POP POP POP POP POP POP POP POP POP JUMP JUMPDEST PUSH0 DUP1 PUSH1 0x40 DUP4 DUP6 SUB SLT ISZERO PUSH2 0x3EDC JUMPI PUSH0 DUP1 REVERT JUMPDEST POP POP DUP1 CALLDATALOAD SWAP3 PUSH1 0x20 SWAP1 SWAP2 ADD CALLDATALOAD SWAP2 POP JUMP JUMPDEST PUSH0 DUP1 PUSH1 0x40 DUP4 DUP6 SUB SLT ISZERO PUSH2 0x3EFC JUMPI PUSH0 DUP1 REVERT JUMPDEST PUSH2 0x3F05 DUP4 PUSH2 0x3D89 JUMP JUMPDEST SWAP5 PUSH1 0x20 SWAP4 SWAP1 SWAP4 ADD CALLDATALOAD SWAP4 POP POP POP JUMP JUMPDEST PUSH1 0x20 DUP1 DUP3 MSTORE DUP3 MLOAD DUP3 DUP3 ADD DUP2 SWAP1 MSTORE PUSH0 SWAP2 SWAP1 DUP5 DUP3 ADD SWAP1 PUSH1 0x40 DUP6 ADD SWAP1 DUP5 JUMPDEST DUP2 DUP2 LT ISZERO PUSH2 0x3F7E JUMPI PUSH2 0x3F6B DUP4 DUP6 MLOAD DUP1 MLOAD DUP3 MSTORE PUSH1 0x20 DUP1 DUP3 ADD MLOAD PUSH20 0xFFFFFFFFFFFFFFFFFFFFFFFFFFFFFFFFFFFFFFFF AND SWAP1 DUP4 ADD MSTORE PUSH1 0x40 SWAP1 DUP2 ADD MLOAD SWAP2 ADD MSTORE JUMP JUMPDEST SWAP3 DUP5 ADD SWAP3 PUSH1 0x60 SWAP3 SWAP1 SWAP3 ADD SWAP2 PUSH1 0x1 ADD PUSH2 0x3F2E JUMP JUMPDEST POP SWAP1 SWAP7 SWAP6 POP POP POP POP POP POP JUMP JUMPDEST DUP2 MLOAD DUP2 MSTORE PUSH1 0x20 DUP1 DUP4 ADD MLOAD PUSH20 0xFFFFFFFFFFFFFFFFFFFFFFFFFFFFFFFFFFFFFFFF AND SWAP1 DUP3 ADD MSTORE PUSH1 0x40 DUP1 DUP4 ADD MLOAD SWAP1 DUP3 ADD MSTORE PUSH1 0x60 DUP2 ADD PUSH2 0x15E6 JUMP JUMPDEST PUSH0 PUSH2 0x120 DUP3 MLOAD DUP5 MSTORE PUSH1 0x20 DUP4 ADD MLOAD DUP2 PUSH1 0x20 DUP7 ADD MSTORE PUSH2 0x3FE0 DUP3 DUP7 ADD DUP3 PUSH2 0x3E0A JUMP JUMPDEST SWAP2 POP POP PUSH1 0x40 DUP4 ADD MLOAD PUSH1 0x40 DUP6 ADD MSTORE PUSH1 0x60 DUP4 ADD MLOAD PUSH2 0x4014 PUSH1 0x60 DUP7 ADD DUP3 PUSH20 0xFFFFFFFFFFFFFFFFFFFFFFFFFFFFFFFFFFFFFFFF AND SWAP1 MSTORE JUMP JUMPDEST POP PUSH1 0x80 DUP4 ADD MLOAD PUSH1 0x80 DUP6 ADD MSTORE PUSH1 0xA0 DUP4 ADD MLOAD PUSH1 0xA0 DUP6 ADD MSTORE PUSH1 0xC0 DUP4 ADD MLOAD PUSH1 0xC0 DUP6 ADD MSTORE PUSH1 0xE0 DUP4 ADD MLOAD PUSH1 0xE0 DUP6 ADD MSTORE PUSH2 0x100 DUP1 DUP5 ADD MLOAD DUP6 DUP4 SUB DUP3 DUP8 ADD MSTORE PUSH2 0x4055 DUP4 DUP3 PUSH2 0x3E0A JUMP JUMPDEST SWAP7 SWAP6 POP POP POP POP POP POP JUMP JUMPDEST PUSH1 0x20 DUP2 MSTORE PUSH0 PUSH2 0x3DCA PUSH1 0x20 DUP4 ADD DUP5 PUSH2 0x3FC1 JUMP JUMPDEST PUSH1 0x20 DUP2 MSTORE PUSH1 0xFF DUP3 MLOAD AND PUSH1 0x20 DUP3 ADD MSTORE PUSH0 PUSH1 0x20 DUP4 ADD MLOAD PUSH1 0x60 PUSH1 0x40 DUP5 ADD MSTORE PUSH2 0x4099 PUSH1 0x80 DUP5 ADD DUP3 PUSH2 0x3E0A JUMP JUMPDEST SWAP1 POP PUSH1 0x40 DUP5 ADD MLOAD PUSH32 0xFFFFFFFFFFFFFFFFFFFFFFFFFFFFFFFFFFFFFFFFFFFFFFFFFFFFFFFFFFFFFFE0 DUP5 DUP4 SUB ADD PUSH1 0x60 DUP6 ADD MSTORE PUSH2 0x40D4 DUP3 DUP3 PUSH2 0x3E0A JUMP JUMPDEST SWAP6 SWAP5 POP POP POP POP POP JUMP JUMPDEST PUSH0 PUSH1 0x20 DUP1 DUP4 ADD PUSH1 0x20 DUP5 MSTORE DUP1 DUP6 MLOAD DUP1 DUP4 MSTORE PUSH1 0x40 DUP7 ADD SWAP2 POP PUSH1 0x40 DUP2 PUSH1 0x5 SHL DUP8 ADD ADD SWAP3 POP PUSH1 0x20 DUP8 ADD PUSH0 JUMPDEST DUP3 DUP2 LT ISZERO PUSH2 0x4150 JUMPI PUSH32 0xFFFFFFFFFFFFFFFFFFFFFFFFFFFFFFFFFFFFFFFFFFFFFFFFFFFFFFFFFFFFFFC0 DUP9 DUP7 SUB ADD DUP5 MSTORE PUSH2 0x413E DUP6 DUP4 MLOAD PUSH2 0x3FC1 JUMP JUMPDEST SWAP5 POP SWAP3 DUP6 ADD SWAP3 SWAP1 DUP6 ADD SWAP1 PUSH1 0x1 ADD PUSH2 0x4104 JUMP JUMPDEST POP SWAP3 SWAP8 SWAP7 POP POP POP POP POP POP POP JUMP JUMPDEST PUSH32 0x4E487B7100000000000000000000000000000000000000000000000000000000 PUSH0 MSTORE PUSH1 0x41 PUSH1 0x4 MSTORE PUSH1 0x24 PUSH0 REVERT JUMPDEST PUSH1 0x40 MLOAD PUSH1 0x1F DUP3 ADD PUSH32 0xFFFFFFFFFFFFFFFFFFFFFFFFFFFFFFFFFFFFFFFFFFFFFFFFFFFFFFFFFFFFFFE0 AND DUP2 ADD PUSH8 0xFFFFFFFFFFFFFFFF DUP2 GT DUP3 DUP3 LT OR ISZERO PUSH2 0x41D1 JUMPI PUSH2 0x41D1 PUSH2 0x415D JUMP JUMPDEST PUSH1 0x40 MSTORE SWAP2 SWAP1 POP JUMP JUMPDEST PUSH0 DUP1 PUSH1 0x40 DUP4 DUP6 SUB SLT ISZERO PUSH2 0x41EA JUMPI PUSH0 DUP1 REVERT JUMPDEST DUP3 CALLDATALOAD PUSH8 0xFFFFFFFFFFFFFFFF DUP1 DUP3 GT ISZERO PUSH2 0x4201 JUMPI PUSH0 DUP1 REVERT JUMPDEST DUP2 DUP6 ADD SWAP2 POP DUP6 PUSH1 0x1F DUP4 ADD SLT PUSH2 0x4214 JUMPI PUSH0 DUP1 REVERT JUMPDEST DUP2 CALLDATALOAD PUSH1 0x20 DUP3 DUP3 GT ISZERO PUSH2 0x4228 JUMPI PUSH2 0x4228 PUSH2 0x415D JUMP JUMPDEST DUP2 PUSH1 0x5 SHL SWAP3 POP PUSH2 0x4239 DUP2 DUP5 ADD PUSH2 0x418A JUMP JUMPDEST DUP3 DUP2 MSTORE SWAP3 DUP5 ADD DUP2 ADD SWAP3 DUP2 DUP2 ADD SWAP1 DUP10 DUP6 GT ISZERO PUSH2 0x4252 JUMPI PUSH0 DUP1 REVERT JUMPDEST SWAP5 DUP3 ADD SWAP5 JUMPDEST DUP5 DUP7 LT ISZERO PUSH2 0x4277 JUMPI PUSH2 0x4268 DUP7 PUSH2 0x3D89 JUMP JUMPDEST DUP3 MSTORE SWAP5 DUP3 ADD SWAP5 SWAP1 DUP3 ADD SWAP1 PUSH2 0x4257 JUMP JUMPDEST SWAP10 SWAP8 SWAP1 SWAP2 ADD CALLDATALOAD SWAP8 POP POP POP POP POP POP POP JUMP JUMPDEST PUSH0 PUSH8 0xFFFFFFFFFFFFFFFF DUP3 GT ISZERO PUSH2 0x42A0 JUMPI PUSH2 0x42A0 PUSH2 0x415D JUMP JUMPDEST POP PUSH1 0x1F ADD PUSH32 0xFFFFFFFFFFFFFFFFFFFFFFFFFFFFFFFFFFFFFFFFFFFFFFFFFFFFFFFFFFFFFFE0 AND PUSH1 0x20 ADD SWAP1 JUMP JUMPDEST PUSH0 DUP3 PUSH1 0x1F DUP4 ADD SLT PUSH2 0x42DB JUMPI PUSH0 DUP1 REVERT JUMPDEST DUP2 CALLDATALOAD PUSH2 0x42EE PUSH2 0x42E9 DUP3 PUSH2 0x4287 JUMP JUMPDEST PUSH2 0x418A JUMP JUMPDEST DUP2 DUP2 MSTORE DUP5 PUSH1 0x20 DUP4 DUP7 ADD ADD GT ISZERO PUSH2 0x4302 JUMPI PUSH0 DUP1 REVERT JUMPDEST DUP2 PUSH1 0x20 DUP6 ADD PUSH1 0x20 DUP4 ADD CALLDATACOPY PUSH0 SWAP2 DUP2 ADD PUSH1 0x20 ADD SWAP2 SWAP1 SWAP2 MSTORE SWAP4 SWAP3 POP POP POP JUMP JUMPDEST PUSH0 DUP1 PUSH0 DUP1 PUSH0 PUSH1 0xA0 DUP7 DUP9 SUB SLT ISZERO PUSH2 0x4332 JUMPI PUSH0 DUP1 REVERT JUMPDEST PUSH2 0x433B DUP7 PUSH2 0x3D89 JUMP JUMPDEST SWAP5 POP PUSH1 0x20 DUP7 ADD CALLDATALOAD PUSH8 0xFFFFFFFFFFFFFFFF DUP1 DUP3 GT ISZERO PUSH2 0x4357 JUMPI PUSH0 DUP1 REVERT JUMPDEST PUSH2 0x4363 DUP10 DUP4 DUP11 ADD PUSH2 0x42CC JUMP JUMPDEST SWAP6 POP PUSH1 0x40 DUP9 ADD CALLDATALOAD SWAP2 POP DUP1 DUP3 GT ISZERO PUSH2 0x4378 JUMPI PUSH0 DUP1 REVERT JUMPDEST POP PUSH2 0x4385 DUP9 DUP3 DUP10 ADD PUSH2 0x42CC JUMP JUMPDEST SWAP6 SWAP9 SWAP5 SWAP8 POP SWAP5 SWAP6 PUSH1 0x60 DUP2 ADD CALLDATALOAD SWAP6 POP PUSH1 0x80 ADD CALLDATALOAD SWAP4 SWAP3 POP POP POP JUMP JUMPDEST PUSH0 PUSH1 0x20 DUP3 DUP5 SUB SLT ISZERO PUSH2 0x43AE JUMPI PUSH0 DUP1 REVERT JUMPDEST DUP2 CALLDATALOAD PUSH8 0xFFFFFFFFFFFFFFFF DUP2 GT ISZERO PUSH2 0x43C4 JUMPI PUSH0 DUP1 REVERT JUMPDEST PUSH2 0x43D0 DUP5 DUP3 DUP6 ADD PUSH2 0x42CC JUMP JUMPDEST SWAP5 SWAP4 POP POP POP POP JUMP JUMPDEST PUSH0 DUP1 PUSH0 DUP1 PUSH0 DUP1 PUSH1 0xC0 DUP8 DUP10 SUB SLT ISZERO PUSH2 0x43ED JUMPI PUSH0 DUP1 REVERT JUMPDEST DUP7 CALLDATALOAD SWAP6 POP PUSH2 0x43FD PUSH1 0x20 DUP9 ADD PUSH2 0x3D89 JUMP JUMPDEST SWAP5 POP PUSH1 0x40 DUP8 ADD CALLDATALOAD PUSH8 0xFFFFFFFFFFFFFFFF DUP1 DUP3 GT ISZERO PUSH2 0x4419 JUMPI PUSH0 DUP1 REVERT JUMPDEST PUSH2 0x4425 DUP11 DUP4 DUP12 ADD PUSH2 0x42CC JUMP JUMPDEST SWAP6 POP PUSH1 0x60 DUP10 ADD CALLDATALOAD SWAP2 POP DUP1 DUP3 GT ISZERO PUSH2 0x443A JUMPI PUSH0 DUP1 REVERT JUMPDEST POP PUSH2 0x4447 DUP10 DUP3 DUP11 ADD PUSH2 0x42CC JUMP JUMPDEST SWAP4 POP POP PUSH1 0x80 DUP8 ADD CALLDATALOAD SWAP2 POP PUSH1 0xA0 DUP8 ADD CALLDATALOAD SWAP1 POP SWAP3 SWAP6 POP SWAP3 SWAP6 POP SWAP3 SWAP6 JUMP JUMPDEST PUSH1 0x1 DUP2 DUP2 SHR SWAP1 DUP3 AND DUP1 PUSH2 0x4476 JUMPI PUSH1 0x7F DUP3 AND SWAP2 POP JUMPDEST PUSH1 0x20 DUP3 LT DUP2 SUB PUSH2 0x44AD JUMPI PUSH32 0x4E487B7100000000000000000000000000000000000000000000000000000000 PUSH0 MSTORE PUSH1 0x22 PUSH1 0x4 MSTORE PUSH1 0x24 PUSH0 REVERT JUMPDEST POP SWAP2 SWAP1 POP JUMP JUMPDEST PUSH0 PUSH1 0x20 DUP3 DUP5 SUB SLT ISZERO PUSH2 0x44C3 JUMPI PUSH0 DUP1 REVERT JUMPDEST DUP2 MLOAD DUP1 ISZERO ISZERO DUP2 EQ PUSH2 0x3DCA JUMPI PUSH0 DUP1 REVERT JUMPDEST PUSH32 0x4E487B7100000000000000000000000000000000000000000000000000000000 PUSH0 MSTORE PUSH1 0x11 PUSH1 0x4 MSTORE PUSH1 0x24 PUSH0 REVERT JUMPDEST DUP2 DUP2 SUB DUP2 DUP2 GT ISZERO PUSH2 0x15E6 JUMPI PUSH2 0x15E6 PUSH2 0x44D2 JUMP JUMPDEST DUP1 DUP3 MUL DUP2 ISZERO DUP3 DUP3 DIV DUP5 EQ OR PUSH2 0x15E6 JUMPI PUSH2 0x15E6 PUSH2 0x44D2 JUMP JUMPDEST PUSH0 DUP3 PUSH2 0x455C JUMPI PUSH32 0x4E487B7100000000000000000000000000000000000000000000000000000000 PUSH0 MSTORE PUSH1 0x12 PUSH1 0x4 MSTORE PUSH1 0x24 PUSH0 REVERT JUMPDEST POP DIV SWAP1 JUMP JUMPDEST DUP1 DUP3 ADD DUP1 DUP3 GT ISZERO PUSH2 0x15E6 JUMPI PUSH2 0x15E6 PUSH2 0x44D2 JUMP JUMPDEST PUSH32 0x4E487B7100000000000000000000000000000000000000000000000000000000 PUSH0 MSTORE PUSH1 0x32 PUSH1 0x4 MSTORE PUSH1 0x24 PUSH0 REVERT JUMPDEST PUSH1 0x1F DUP3 GT ISZERO PUSH2 0x1415 JUMPI DUP1 PUSH0 MSTORE PUSH1 0x20 PUSH0 KECCAK256 PUSH1 0x1F DUP5 ADD PUSH1 0x5 SHR DUP2 ADD PUSH1 0x20 DUP6 LT ISZERO PUSH2 0x45C6 JUMPI POP DUP1 JUMPDEST PUSH1 0x1F DUP5 ADD PUSH1 0x5 SHR DUP3 ADD SWAP2 POP JUMPDEST DUP2 DUP2 LT ISZERO PUSH2 0x45E5 JUMPI PUSH0 DUP2 SSTORE PUSH1 0x1 ADD PUSH2 0x45D2 JUMP JUMPDEST POP POP POP POP POP JUMP JUMPDEST DUP2 DUP2 SUB PUSH2 0x45F7 JUMPI POP POP JUMP JUMPDEST PUSH2 0x4601 DUP3 SLOAD PUSH2 0x4462 JUMP JUMPDEST PUSH8 0xFFFFFFFFFFFFFFFF DUP2 GT ISZERO PUSH2 0x4619 JUMPI PUSH2 0x4619 PUSH2 0x415D JUMP JUMPDEST PUSH2 0x462D DUP2 PUSH2 0x4627 DUP5 SLOAD PUSH2 0x4462 JUMP JUMPDEST DUP5 PUSH2 0x45A1 JUMP JUMPDEST PUSH0 PUSH1 0x1F DUP3 GT PUSH1 0x1 DUP2 EQ PUSH2 0x467D JUMPI PUSH0 DUP4 ISZERO PUSH2 0x4647 JUMPI POP DUP5 DUP3 ADD SLOAD JUMPDEST PUSH32 0xFFFFFFFFFFFFFFFFFFFFFFFFFFFFFFFFFFFFFFFFFFFFFFFFFFFFFFFFFFFFFFFF PUSH1 0x3 DUP6 SWAP1 SHL SHR NOT AND PUSH1 0x1 DUP5 SWAP1 SHL OR DUP5 SSTORE PUSH2 0x45E5 JUMP JUMPDEST PUSH0 DUP6 DUP2 MSTORE PUSH1 0x20 DUP1 DUP3 KECCAK256 DUP7 DUP4 MSTORE SWAP1 DUP3 KECCAK256 PUSH32 0xFFFFFFFFFFFFFFFFFFFFFFFFFFFFFFFFFFFFFFFFFFFFFFFFFFFFFFFFFFFFFFE0 DUP7 AND SWAP3 JUMPDEST DUP4 DUP2 LT ISZERO PUSH2 0x46D1 JUMPI DUP3 DUP7 ADD SLOAD DUP3 SSTORE PUSH1 0x1 SWAP6 DUP7 ADD SWAP6 SWAP1 SWAP2 ADD SWAP1 PUSH1 0x20 ADD PUSH2 0x46B1 JUMP JUMPDEST POP DUP6 DUP4 LT ISZERO PUSH2 0x470D JUMPI DUP2 DUP6 ADD SLOAD PUSH32 0xFFFFFFFFFFFFFFFFFFFFFFFFFFFFFFFFFFFFFFFFFFFFFFFFFFFFFFFFFFFFFFFF PUSH1 0x3 DUP9 SWAP1 SHL PUSH1 0xF8 AND SHR NOT AND DUP2 SSTORE JUMPDEST POP POP POP POP POP PUSH1 0x1 SWAP1 DUP2 SHL ADD SWAP1 SSTORE POP JUMP JUMPDEST PUSH0 DUP2 PUSH2 0x472B JUMPI PUSH2 0x472B PUSH2 0x44D2 JUMP JUMPDEST POP PUSH32 0xFFFFFFFFFFFFFFFFFFFFFFFFFFFFFFFFFFFFFFFFFFFFFFFFFFFFFFFFFFFFFFFF ADD SWAP1 JUMP JUMPDEST PUSH0 PUSH1 0x20 DUP3 DUP5 SUB SLT ISZERO PUSH2 0x4761 JUMPI PUSH0 DUP1 REVERT JUMPDEST DUP2 MLOAD PUSH1 0xFF DUP2 AND DUP2 EQ PUSH2 0x3DCA JUMPI PUSH0 DUP1 REVERT JUMPDEST PUSH0 PUSH1 0x20 DUP3 DUP5 SUB SLT ISZERO PUSH2 0x4781 JUMPI PUSH0 DUP1 REVERT JUMPDEST DUP2 MLOAD PUSH8 0xFFFFFFFFFFFFFFFF DUP2 GT ISZERO PUSH2 0x4797 JUMPI PUSH0 DUP1 REVERT JUMPDEST DUP3 ADD PUSH1 0x1F DUP2 ADD DUP5 SGT PUSH2 0x47A7 JUMPI PUSH0 DUP1 REVERT JUMPDEST DUP1 MLOAD PUSH2 0x47B5 PUSH2 0x42E9 DUP3 PUSH2 0x4287 JUMP JUMPDEST DUP2 DUP2 MSTORE DUP6 PUSH1 0x20 DUP4 DUP6 ADD ADD GT ISZERO PUSH2 0x47C9 JUMPI PUSH0 DUP1 REVERT JUMPDEST PUSH2 0x40D4 DUP3 PUSH1 0x20 DUP4 ADD PUSH1 0x20 DUP7 ADD PUSH2 0x3DE8 JUMP JUMPDEST PUSH0 DUP3 MLOAD PUSH2 0x47EB DUP2 DUP5 PUSH1 0x20 DUP8 ADD PUSH2 0x3DE8 JUMP JUMPDEST SWAP2 SWAP1 SWAP2 ADD SWAP3 SWAP2 POP POP JUMP JUMPDEST PUSH0 PUSH32 0xFFFFFFFFFFFFFFFFFFFFFFFFFFFFFFFFFFFFFFFFFFFFFFFFFFFFFFFFFFFFFFFF DUP3 SUB PUSH2 0x4825 JUMPI PUSH2 0x4825 PUSH2 0x44D2 JUMP JUMPDEST POP PUSH1 0x1 ADD SWAP1 JUMP JUMPDEST DUP2 MLOAD PUSH8 0xFFFFFFFFFFFFFFFF DUP2 GT ISZERO PUSH2 0x4846 JUMPI PUSH2 0x4846 PUSH2 0x415D JUMP JUMPDEST PUSH2 0x4854 DUP2 PUSH2 0x4627 DUP5 SLOAD PUSH2 0x4462 JUMP JUMPDEST PUSH1 0x20 DUP1 PUSH1 0x1F DUP4 GT PUSH1 0x1 DUP2 EQ PUSH2 0x48A6 JUMPI PUSH0 DUP5 ISZERO PUSH2 0x4870 JUMPI POP DUP6 DUP4 ADD MLOAD JUMPDEST PUSH32 0xFFFFFFFFFFFFFFFFFFFFFFFFFFFFFFFFFFFFFFFFFFFFFFFFFFFFFFFFFFFFFFFF PUSH1 0x3 DUP7 SWAP1 SHL SHR NOT AND PUSH1 0x1 DUP6 SWAP1 SHL OR DUP6 SSTORE PUSH2 0x2EC0 JUMP JUMPDEST PUSH0 DUP6 DUP2 MSTORE PUSH1 0x20 DUP2 KECCAK256 PUSH32 0xFFFFFFFFFFFFFFFFFFFFFFFFFFFFFFFFFFFFFFFFFFFFFFFFFFFFFFFFFFFFFFE0 DUP7 AND SWAP2 JUMPDEST DUP3 DUP2 LT ISZERO PUSH2 0x48F2 JUMPI DUP9 DUP7 ADD MLOAD DUP3 SSTORE SWAP5 DUP5 ADD SWAP5 PUSH1 0x1 SWAP1 SWAP2 ADD SWAP1 DUP5 ADD PUSH2 0x48D3 JUMP JUMPDEST POP DUP6 DUP3 LT ISZERO PUSH2 0x470D JUMPI SWAP4 SWAP1 SWAP7 ADD MLOAD PUSH32 0xFFFFFFFFFFFFFFFFFFFFFFFFFFFFFFFFFFFFFFFFFFFFFFFFFFFFFFFFFFFFFFFF PUSH1 0xF8 PUSH1 0x3 DUP8 SWAP1 SHL AND SHR NOT AND SWAP1 SWAP3 SSTORE POP POP PUSH1 0x1 SWAP1 DUP2 SHL ADD SWAP1 SSTORE POP JUMP INVALID LOG2 PUSH5 0x6970667358 0x22 SLT KECCAK256 DUP11 PUSH8 0x5D7BF4901C007500 0xD7 SLT LOG0 LOG4 DUP13 0xD4 0xCA POP PUSH9 0x408E3DD3F69A257C9E EXTCODEHASH 0xC2 0x4D XOR PUSH5 0x736F6C6343 STOP ADDMOD XOR STOP CALLER "
		},
		"gasEstimates": {
			"creation": {
				"codeDepositCost": "3760400",
				"executionCost": "infinite",
				"totalCost": "infinite"
			},
			"external": {
				"addGame(address,string,string,uint256,uint256)": "infinite",
				"airdrop(address[],uint256)": "infinite",
				"burnAddress()": "2424",
				"closeDeposit(address,uint256)": "infinite",
				"delGame(uint256)": "infinite",
				"deposit(uint256)": "infinite",
				"depositGameBank(uint256,uint256)": "infinite",
				"depositPendingGameBank(uint256,uint256)": "infinite",
				"editGame(uint256,address,string,string,uint256,uint256)": "infinite",
				"gameBurnAndStake(uint256)": "infinite",
				"gameDepositUserDeposit(address,uint256)": "infinite",
				"gameWithdrawUserDeposit(address,uint256)": "infinite",
				"games(uint256)": "infinite",
				"gamesByCode(bytes32)": "2536",
				"gamesCount()": "2349",
				"gamesIds(address)": "2584",
				"getGame(address)": "infinite",
				"getGameByCode(string)": "infinite",
				"getGames(uint256,uint256)": "infinite",
				"getTokenInfo()": "infinite",
				"getUser(address)": "9295",
				"getUserDeposit(address)": "4766",
				"getUserDepositAmount(address)": "9144",
				"getUserId(address)": "2612",
				"getUsers(uint256,uint256)": "infinite",
				"minWithdrawAmount()": "2352",
				"owner()": "2423",
				"recoverWrongToken(address,uint256)": "infinite",
				"setBurnAddress(address)": "26726",
				"setMinWithdrawAmount(uint256)": "24540",
				"setStakeAddress(address)": "26727",
				"stakeAddress()": "2379",
				"token()": "2400",
				"totalBankAmount()": "2393",
				"totalDepositAmount()": "2351",
				"totalPendingBankAmount()": "2350",
				"transferOwnership(address)": "26769",
				"users(uint256)": "6809",
				"usersCount()": "2351",
				"usersIds(address)": "2583",
				"withdraw(uint256)": "infinite",
				"withdrawGameBank(uint256,uint256)": "infinite"
			},
			"internal": {
				"registerUser(address)": "infinite"
			}
		},
		"methodIdentifiers": {
			"addGame(address,string,string,uint256,uint256)": "c814ef1b",
			"airdrop(address[],uint256)": "c204642c",
			"burnAddress()": "70d5ae05",
			"closeDeposit(address,uint256)": "ca9b5e39",
			"delGame(uint256)": "8e0d920e",
			"deposit(uint256)": "b6b55f25",
			"depositGameBank(uint256,uint256)": "e97ffdc1",
			"depositPendingGameBank(uint256,uint256)": "30ff7abe",
			"editGame(uint256,address,string,string,uint256,uint256)": "d1e284db",
			"gameBurnAndStake(uint256)": "2edcbd60",
			"gameDepositUserDeposit(address,uint256)": "95467177",
			"gameWithdrawUserDeposit(address,uint256)": "f0a507da",
			"games(uint256)": "117a5b90",
			"gamesByCode(bytes32)": "6313091c",
			"gamesCount()": "fb632b7c",
			"gamesIds(address)": "291c3819",
			"getGame(address)": "8d1a4b28",
			"getGameByCode(string)": "ced91a72",
			"getGames(uint256,uint256)": "ac451185",
			"getTokenInfo()": "abb1dc44",
			"getUser(address)": "6f77926b",
			"getUserDeposit(address)": "c084b10b",
			"getUserDepositAmount(address)": "0cec2a76",
			"getUserId(address)": "2b956ff7",
			"getUsers(uint256,uint256)": "45982a66",
			"minWithdrawAmount()": "457e1a49",
			"owner()": "8da5cb5b",
			"recoverWrongToken(address,uint256)": "3c28f9ce",
			"setBurnAddress(address)": "4b0e7216",
			"setMinWithdrawAmount(uint256)": "5abdb0dc",
			"setStakeAddress(address)": "23471d18",
			"stakeAddress()": "85107367",
			"token()": "fc0c546a",
			"totalBankAmount()": "fcf038a3",
			"totalDepositAmount()": "c5408d50",
			"totalPendingBankAmount()": "b936bee0",
			"transferOwnership(address)": "f2fde38b",
			"users(uint256)": "365b98b2",
			"usersCount()": "6ba13a82",
			"usersIds(address)": "b8e21a5b",
			"withdraw(uint256)": "2e1a7d4d",
			"withdrawGameBank(uint256,uint256)": "aad605ba"
		}
	},
	"abi": [
		{
			"inputs": [
				{
					"internalType": "address",
					"name": "tokenAddress",
					"type": "address"
				}
			],
			"stateMutability": "nonpayable",
			"type": "constructor"
		},
		{
			"inputs": [
				{
					"internalType": "address",
					"name": "gameAddress",
					"type": "address"
				},
				{
					"internalType": "string",
					"name": "code",
					"type": "string"
				},
				{
					"internalType": "string",
					"name": "description",
					"type": "string"
				},
				{
					"internalType": "uint256",
					"name": "burnPercent",
					"type": "uint256"
				},
				{
					"internalType": "uint256",
					"name": "stakePercent",
					"type": "uint256"
				}
			],
			"name": "addGame",
			"outputs": [],
			"stateMutability": "nonpayable",
			"type": "function"
		},
		{
			"inputs": [
				{
					"internalType": "address[]",
					"name": "_users",
					"type": "address[]"
				},
				{
					"internalType": "uint256",
					"name": "amountPerUser",
					"type": "uint256"
				}
			],
			"name": "airdrop",
			"outputs": [],
			"stateMutability": "nonpayable",
			"type": "function"
		},
		{
			"inputs": [],
			"name": "burnAddress",
			"outputs": [
				{
					"internalType": "address",
					"name": "",
					"type": "address"
				}
			],
			"stateMutability": "view",
			"type": "function"
		},
		{
			"inputs": [
				{
					"internalType": "address",
					"name": "userAddress",
					"type": "address"
				},
				{
					"internalType": "uint256",
					"name": "amount",
					"type": "uint256"
				}
			],
			"name": "closeDeposit",
			"outputs": [],
			"stateMutability": "nonpayable",
			"type": "function"
		},
		{
			"inputs": [
				{
					"internalType": "uint256",
					"name": "gameId",
					"type": "uint256"
				}
			],
			"name": "delGame",
			"outputs": [],
			"stateMutability": "nonpayable",
			"type": "function"
		},
		{
			"inputs": [
				{
					"internalType": "uint256",
					"name": "amount",
					"type": "uint256"
				}
			],
			"name": "deposit",
			"outputs": [],
			"stateMutability": "nonpayable",
			"type": "function"
		},
		{
			"inputs": [
				{
					"internalType": "uint256",
					"name": "gameId",
					"type": "uint256"
				},
				{
					"internalType": "uint256",
					"name": "amount",
					"type": "uint256"
				}
			],
			"name": "depositGameBank",
			"outputs": [],
			"stateMutability": "nonpayable",
			"type": "function"
		},
		{
			"inputs": [
				{
					"internalType": "uint256",
					"name": "gameId",
					"type": "uint256"
				},
				{
					"internalType": "uint256",
					"name": "amount",
					"type": "uint256"
				}
			],
			"name": "depositPendingGameBank",
			"outputs": [],
			"stateMutability": "nonpayable",
			"type": "function"
		},
		{
			"inputs": [
				{
					"internalType": "uint256",
					"name": "gameId",
					"type": "uint256"
				},
				{
					"internalType": "address",
					"name": "gameAddress",
					"type": "address"
				},
				{
					"internalType": "string",
					"name": "code",
					"type": "string"
				},
				{
					"internalType": "string",
					"name": "description",
					"type": "string"
				},
				{
					"internalType": "uint256",
					"name": "burnPercent",
					"type": "uint256"
				},
				{
					"internalType": "uint256",
					"name": "stakePercent",
					"type": "uint256"
				}
			],
			"name": "editGame",
			"outputs": [],
			"stateMutability": "nonpayable",
			"type": "function"
		},
		{
			"inputs": [
				{
					"internalType": "uint256",
					"name": "fromAmount",
					"type": "uint256"
				}
			],
			"name": "gameBurnAndStake",
			"outputs": [],
			"stateMutability": "nonpayable",
			"type": "function"
		},
		{
			"inputs": [
				{
					"internalType": "address",
					"name": "userAddress",
					"type": "address"
				},
				{
					"internalType": "uint256",
					"name": "amount",
					"type": "uint256"
				}
			],
			"name": "gameDepositUserDeposit",
			"outputs": [],
			"stateMutability": "nonpayable",
			"type": "function"
		},
		{
			"inputs": [
				{
					"internalType": "address",
					"name": "userAddress",
					"type": "address"
				},
				{
					"internalType": "uint256",
					"name": "amount",
					"type": "uint256"
				}
			],
			"name": "gameWithdrawUserDeposit",
			"outputs": [],
			"stateMutability": "nonpayable",
			"type": "function"
		},
		{
			"inputs": [
				{
					"internalType": "uint256",
					"name": "",
					"type": "uint256"
				}
			],
			"name": "games",
			"outputs": [
				{
					"internalType": "uint256",
					"name": "gameId",
					"type": "uint256"
				},
				{
					"internalType": "string",
					"name": "gameCode",
					"type": "string"
				},
				{
					"internalType": "bytes32",
					"name": "gameCodeHash",
					"type": "bytes32"
				},
				{
					"internalType": "address",
					"name": "gameAddress",
					"type": "address"
				},
				{
					"internalType": "uint256",
					"name": "bankAmount",
					"type": "uint256"
				},
				{
					"internalType": "uint256",
					"name": "pendingBankAmount",
					"type": "uint256"
				},
				{
					"internalType": "uint256",
					"name": "burnPercent",
					"type": "uint256"
				},
				{
					"internalType": "uint256",
					"name": "stakePercent",
					"type": "uint256"
				},
				{
					"internalType": "string",
					"name": "description",
					"type": "string"
				}
			],
			"stateMutability": "view",
			"type": "function"
		},
		{
			"inputs": [
				{
					"internalType": "bytes32",
					"name": "",
					"type": "bytes32"
				}
			],
			"name": "gamesByCode",
			"outputs": [
				{
					"internalType": "uint256",
					"name": "",
					"type": "uint256"
				}
			],
			"stateMutability": "view",
			"type": "function"
		},
		{
			"inputs": [],
			"name": "gamesCount",
			"outputs": [
				{
					"internalType": "uint256",
					"name": "",
					"type": "uint256"
				}
			],
			"stateMutability": "view",
			"type": "function"
		},
		{
			"inputs": [
				{
					"internalType": "address",
					"name": "",
					"type": "address"
				}
			],
			"name": "gamesIds",
			"outputs": [
				{
					"internalType": "uint256",
					"name": "",
					"type": "uint256"
				}
			],
			"stateMutability": "view",
			"type": "function"
		},
		{
			"inputs": [
				{
					"internalType": "address",
					"name": "gameAddress",
					"type": "address"
				}
			],
			"name": "getGame",
			"outputs": [
				{
					"components": [
						{
							"internalType": "uint256",
							"name": "gameId",
							"type": "uint256"
						},
						{
							"internalType": "string",
							"name": "gameCode",
							"type": "string"
						},
						{
							"internalType": "bytes32",
							"name": "gameCodeHash",
							"type": "bytes32"
						},
						{
							"internalType": "address",
							"name": "gameAddress",
							"type": "address"
						},
						{
							"internalType": "uint256",
							"name": "bankAmount",
							"type": "uint256"
						},
						{
							"internalType": "uint256",
							"name": "pendingBankAmount",
							"type": "uint256"
						},
						{
							"internalType": "uint256",
							"name": "burnPercent",
							"type": "uint256"
						},
						{
							"internalType": "uint256",
							"name": "stakePercent",
							"type": "uint256"
						},
						{
							"internalType": "string",
							"name": "description",
							"type": "string"
						}
					],
					"internalType": "struct GGWDeposit.Game",
					"name": "",
					"type": "tuple"
				}
			],
			"stateMutability": "view",
			"type": "function"
		},
		{
			"inputs": [
				{
					"internalType": "string",
					"name": "code",
					"type": "string"
				}
			],
			"name": "getGameByCode",
			"outputs": [
				{
					"components": [
						{
							"internalType": "uint256",
							"name": "gameId",
							"type": "uint256"
						},
						{
							"internalType": "string",
							"name": "gameCode",
							"type": "string"
						},
						{
							"internalType": "bytes32",
							"name": "gameCodeHash",
							"type": "bytes32"
						},
						{
							"internalType": "address",
							"name": "gameAddress",
							"type": "address"
						},
						{
							"internalType": "uint256",
							"name": "bankAmount",
							"type": "uint256"
						},
						{
							"internalType": "uint256",
							"name": "pendingBankAmount",
							"type": "uint256"
						},
						{
							"internalType": "uint256",
							"name": "burnPercent",
							"type": "uint256"
						},
						{
							"internalType": "uint256",
							"name": "stakePercent",
							"type": "uint256"
						},
						{
							"internalType": "string",
							"name": "description",
							"type": "string"
						}
					],
					"internalType": "struct GGWDeposit.Game",
					"name": "ret",
					"type": "tuple"
				}
			],
			"stateMutability": "view",
			"type": "function"
		},
		{
			"inputs": [
				{
					"internalType": "uint256",
					"name": "offset",
					"type": "uint256"
				},
				{
					"internalType": "uint256",
					"name": "limit",
					"type": "uint256"
				}
			],
			"name": "getGames",
			"outputs": [
				{
					"components": [
						{
							"internalType": "uint256",
							"name": "gameId",
							"type": "uint256"
						},
						{
							"internalType": "string",
							"name": "gameCode",
							"type": "string"
						},
						{
							"internalType": "bytes32",
							"name": "gameCodeHash",
							"type": "bytes32"
						},
						{
							"internalType": "address",
							"name": "gameAddress",
							"type": "address"
						},
						{
							"internalType": "uint256",
							"name": "bankAmount",
							"type": "uint256"
						},
						{
							"internalType": "uint256",
							"name": "pendingBankAmount",
							"type": "uint256"
						},
						{
							"internalType": "uint256",
							"name": "burnPercent",
							"type": "uint256"
						},
						{
							"internalType": "uint256",
							"name": "stakePercent",
							"type": "uint256"
						},
						{
							"internalType": "string",
							"name": "description",
							"type": "string"
						}
					],
					"internalType": "struct GGWDeposit.Game[]",
					"name": "",
					"type": "tuple[]"
				}
			],
			"stateMutability": "view",
			"type": "function"
		},
		{
			"inputs": [],
			"name": "getTokenInfo",
			"outputs": [
				{
					"components": [
						{
							"internalType": "uint8",
							"name": "decimals",
							"type": "uint8"
						},
						{
							"internalType": "string",
							"name": "symbol",
							"type": "string"
						},
						{
							"internalType": "string",
							"name": "name",
							"type": "string"
						}
					],
					"internalType": "struct GGWDeposit.TokenInfo",
					"name": "ret",
					"type": "tuple"
				}
			],
			"stateMutability": "view",
			"type": "function"
		},
		{
			"inputs": [
				{
					"internalType": "address",
					"name": "userAddress",
					"type": "address"
				}
			],
			"name": "getUser",
			"outputs": [
				{
					"components": [
						{
							"internalType": "uint256",
							"name": "userId",
							"type": "uint256"
						},
						{
							"internalType": "address",
							"name": "userAddress",
							"type": "address"
						},
						{
							"internalType": "uint256",
							"name": "depositAmount",
							"type": "uint256"
						}
					],
					"internalType": "struct GGWDeposit.User",
					"name": "",
					"type": "tuple"
				}
			],
			"stateMutability": "view",
			"type": "function"
		},
		{
			"inputs": [
				{
					"internalType": "address",
					"name": "userAddress",
					"type": "address"
				}
			],
			"name": "getUserDeposit",
			"outputs": [
				{
					"internalType": "uint256",
					"name": "",
					"type": "uint256"
				}
			],
			"stateMutability": "view",
			"type": "function"
		},
		{
			"inputs": [
				{
					"internalType": "address",
					"name": "userAddress",
					"type": "address"
				}
			],
			"name": "getUserDepositAmount",
			"outputs": [
				{
					"internalType": "uint256",
					"name": "amount",
					"type": "uint256"
				}
			],
			"stateMutability": "view",
			"type": "function"
		},
		{
			"inputs": [
				{
					"internalType": "address",
					"name": "userAddress",
					"type": "address"
				}
			],
			"name": "getUserId",
			"outputs": [
				{
					"internalType": "uint256",
					"name": "",
					"type": "uint256"
				}
			],
			"stateMutability": "view",
			"type": "function"
		},
		{
			"inputs": [
				{
					"internalType": "uint256",
					"name": "offset",
					"type": "uint256"
				},
				{
					"internalType": "uint256",
					"name": "limit",
					"type": "uint256"
				}
			],
			"name": "getUsers",
			"outputs": [
				{
					"components": [
						{
							"internalType": "uint256",
							"name": "userId",
							"type": "uint256"
						},
						{
							"internalType": "address",
							"name": "userAddress",
							"type": "address"
						},
						{
							"internalType": "uint256",
							"name": "depositAmount",
							"type": "uint256"
						}
					],
					"internalType": "struct GGWDeposit.User[]",
					"name": "",
					"type": "tuple[]"
				}
			],
			"stateMutability": "view",
			"type": "function"
		},
		{
			"inputs": [],
			"name": "minWithdrawAmount",
			"outputs": [
				{
					"internalType": "uint256",
					"name": "",
					"type": "uint256"
				}
			],
			"stateMutability": "view",
			"type": "function"
		},
		{
			"inputs": [],
			"name": "owner",
			"outputs": [
				{
					"internalType": "address",
					"name": "",
					"type": "address"
				}
			],
			"stateMutability": "view",
			"type": "function"
		},
		{
			"inputs": [
				{
					"internalType": "address",
					"name": "tokenAddress",
					"type": "address"
				},
				{
					"internalType": "uint256",
					"name": "amount",
					"type": "uint256"
				}
			],
			"name": "recoverWrongToken",
			"outputs": [],
			"stateMutability": "nonpayable",
			"type": "function"
		},
		{
			"inputs": [
				{
					"internalType": "address",
					"name": "_address",
					"type": "address"
				}
			],
			"name": "setBurnAddress",
			"outputs": [],
			"stateMutability": "nonpayable",
			"type": "function"
		},
		{
			"inputs": [
				{
					"internalType": "uint256",
					"name": "amount",
					"type": "uint256"
				}
			],
			"name": "setMinWithdrawAmount",
			"outputs": [],
			"stateMutability": "nonpayable",
			"type": "function"
		},
		{
			"inputs": [
				{
					"internalType": "address",
					"name": "_address",
					"type": "address"
				}
			],
			"name": "setStakeAddress",
			"outputs": [],
			"stateMutability": "nonpayable",
			"type": "function"
		},
		{
			"inputs": [],
			"name": "stakeAddress",
			"outputs": [
				{
					"internalType": "address",
					"name": "",
					"type": "address"
				}
			],
			"stateMutability": "view",
			"type": "function"
		},
		{
			"inputs": [],
			"name": "token",
			"outputs": [
				{
					"internalType": "contract IERC20",
					"name": "",
					"type": "address"
				}
			],
			"stateMutability": "view",
			"type": "function"
		},
		{
			"inputs": [],
			"name": "totalBankAmount",
			"outputs": [
				{
					"internalType": "uint256",
					"name": "",
					"type": "uint256"
				}
			],
			"stateMutability": "view",
			"type": "function"
		},
		{
			"inputs": [],
			"name": "totalDepositAmount",
			"outputs": [
				{
					"internalType": "uint256",
					"name": "",
					"type": "uint256"
				}
			],
			"stateMutability": "view",
			"type": "function"
		},
		{
			"inputs": [],
			"name": "totalPendingBankAmount",
			"outputs": [
				{
					"internalType": "uint256",
					"name": "",
					"type": "uint256"
				}
			],
			"stateMutability": "view",
			"type": "function"
		},
		{
			"inputs": [
				{
					"internalType": "address",
					"name": "newOwner",
					"type": "address"
				}
			],
			"name": "transferOwnership",
			"outputs": [],
			"stateMutability": "nonpayable",
			"type": "function"
		},
		{
			"inputs": [
				{
					"internalType": "uint256",
					"name": "",
					"type": "uint256"
				}
			],
			"name": "users",
			"outputs": [
				{
					"internalType": "uint256",
					"name": "userId",
					"type": "uint256"
				},
				{
					"internalType": "address",
					"name": "userAddress",
					"type": "address"
				},
				{
					"internalType": "uint256",
					"name": "depositAmount",
					"type": "uint256"
				}
			],
			"stateMutability": "view",
			"type": "function"
		},
		{
			"inputs": [],
			"name": "usersCount",
			"outputs": [
				{
					"internalType": "uint256",
					"name": "",
					"type": "uint256"
				}
			],
			"stateMutability": "view",
			"type": "function"
		},
		{
			"inputs": [
				{
					"internalType": "address",
					"name": "",
					"type": "address"
				}
			],
			"name": "usersIds",
			"outputs": [
				{
					"internalType": "uint256",
					"name": "",
					"type": "uint256"
				}
			],
			"stateMutability": "view",
			"type": "function"
		},
		{
			"inputs": [
				{
					"internalType": "uint256",
					"name": "amount",
					"type": "uint256"
				}
			],
			"name": "withdraw",
			"outputs": [],
			"stateMutability": "nonpayable",
			"type": "function"
		},
		{
			"inputs": [
				{
					"internalType": "uint256",
					"name": "gameId",
					"type": "uint256"
				},
				{
					"internalType": "uint256",
					"name": "amount",
					"type": "uint256"
				}
			],
			"name": "withdrawGameBank",
			"outputs": [],
			"stateMutability": "nonpayable",
			"type": "function"
		}
	]
}