{
	"data": {
		"bytecode": {
			"linkReferences": {},
			"object": "60a06040526001600455670de0b6b3a76400006005555f600955348015610024575f5ffd5b50604051614d9a380380614d9a83398101604081905261004391610109565b60015f556001600160a01b0382166100905760405162461bcd60e51b815260206004820152600b60248201526a546f6b656e3a207a65726f60a81b60448201526064015b60405180910390fd5b6127108111156100d05760405162461bcd60e51b815260206004820152600b60248201526a52617465203e203130302560a81b6044820152606401610087565b60018054336001600160a01b031991821681179092556002805490911690911790556001600160a01b0391909116608052600355610140565b5f5f6040838503121561011a575f5ffd5b82516001600160a01b0381168114610130575f5ffd5b6020939093015192949293505050565b608051614be76101b35f395f818161068a0152818161103501528181611666015281816116ee01528181611775015281816117fc0152818161227f015281816124ec015281816128cd01528181612ac801528181612eba01528181613016015281816135140152613a230152614be75ff3fe608060405234801561000f575f5ffd5b50600436106103be575f3560e01c80637dc0d1d0116101f5578063b42a275e11610114578063d6a13301116100a9578063f2fde38b11610079578063f2fde38b146108d3578063f4f8c847146108e6578063f8799e1a146108ef578063fe4ab90a146108f8575f5ffd5b8063d6a1330114610888578063d7d43c78146108b0578063dd4824a8146108b8578063e2842d79146108cb575f5ffd5b8063ccbd0007116100e4578063ccbd000714610851578063d188e3ae1461085a578063d375283014610862578063d3d8344514610875575f5ffd5b8063b42a275e146107f6578063be2ff4a9146107ff578063c491eecd14610812578063ccaac24414610832575f5ffd5b80639d13fa011161018a578063a9783cd71161015a578063a9783cd71461079b578063b02c43d0146107a3578063b18e71f2146107d0578063b29a8140146107e3575f5ffd5b80639d13fa0114610761578063a2bdedf414610780578063a4a1e26314610759578063a5c62cb414610793575f5ffd5b806391ba50cd116101c557806391ba50cd1461072b578063936d4ffa1461073e5780639521abc6146107465780639be572f614610759575f5ffd5b80637dc0d1d0146106ea5780638c90926f146106fd5780638da5cb5b1461070557806390693ca714610718575f5ffd5b80632e0e3064116102e15780634b4d7aa8116102765780637196d3e2116102465780637196d3e21461067257806372f702f31461068557806372fada5c146106c45780637adbf973146106d7575f5ffd5b80634b4d7aa8146106195780634eff3d3d1461062c5780636241ca791461064c578063647fc56c1461065f575f5ffd5b806341aff23e116102b157806341aff23e146105a55780634209fff1146105c457806345982a66146105e65780634698b88314610606575f5ffd5b80632e0e30641461054a5780632ffb3d2a1461055d57806336261236146105705780634106ee7514610585575f5ffd5b80631bfc7761116103575780631fb3bd93116103275780631fb3bd93146104e65780632290d577146104f957806323b28a541461051857806323e0ceb21461052b575f5ffd5b80631bfc77611461045d5780631c5dc54c1461047d5780631cc39d57146104865780631d0205b8146104b8575f5ffd5b806308f433331161039257806308f433331461040f5780630f68ae401461042257806310aef81214610435578063168a482214610455575f5ffd5b80620d6386146103c257806305a163b6146103de57806306f960bb146103f35780630880427514610406575b5f5ffd5b6103cb60095481565b6040519081526020015b60405180910390f35b6103f16103ec3660046141cb565b610901565b005b6103f1610401366004614222565b610b90565b6103cb60055481565b6103cb61041d36600461426e565b610c45565b6103f1610430366004614296565b610c70565b6104486104433660046142f1565b610c9f565b6040516103d5919061439b565b600a546103cb565b61047061046b366004614296565b610d8f565b6040516103d591906144aa565b6103cb60115481565b6104a8610494366004614296565b600c6020525f908152604090205460ff1681565b60405190151581526020016103d5565b6104cb6104c6366004614296565b610e84565b604080519384526020840192909252908201526060016103d5565b6103f16104f4366004614296565b610eb5565b6103cb610507366004614296565b600b6020525f908152604090205481565b6103f16105263660046144b9565b611130565b6103cb610539366004614296565b600e6020525f908152604090205481565b6103cb610558366004614296565b6111ba565b6103f161056b366004614529565b61142e565b61057861159e565b6040516103d591906145f3565b6105986105933660046146ff565b611873565b6040516103d5919061471f565b6103cb6105b3366004614296565b60146020525f908152604090205481565b6104a86105d2366004614762565b60076020525f908152604090205460ff1681565b6105f96105f43660046146ff565b611aaf565b6040516103d5919061477b565b6105986106143660046147bb565b611bd0565b6103f1610627366004614296565b611e66565b61063f61063a3660046146ff565b611e95565b6040516103d591906147eb565b6103f161065a366004614296565b612081565b6103f161066d366004614296565b612356565b6103cb6106803660046141cb565b6125da565b6106ac7f000000000000000000000000000000000000000000000000000000000000000081565b6040516001600160a01b0390911681526020016103d5565b6103f16106d2366004614296565b612773565b6103f16106e5366004614762565b6129ad565b6002546106ac906001600160a01b031681565b6103cb6129f9565b6001546106ac906001600160a01b031681565b6103cb610726366004614296565b612a21565b6103f1610739366004614296565b612a40565b6013546103cb565b6103f1610754366004614296565b612b6f565b6006546103cb565b6103cb61076f366004614296565b60156020525f908152604090205481565b6106ac61078e366004614296565b612bf6565b6103cb612c1e565b6103f1612c9f565b6107b66107b1366004614296565b612ddd565b6040516103d59e9d9c9b9a99989796959493929190614866565b6103f16107de3660046146ff565b612e6b565b6103f16107f136600461426e565b612e8e565b6103cb60125481565b6103f161080d366004614296565b612fae565b610825610820366004614762565b6130ca565b6040516103d591906148f1565b6103cb610840366004614296565b60166020525f908152604090205481565b6103cb600f5481565b6103cb613133565b6105986108703660046146ff565b61317e565b6103f1610883366004614296565b613384565b6103cb610896366004614762565b6001600160a01b03165f9081526008602052604090205490565b600d546103cb565b6103cb6108c63660046144b9565b6135e5565b6105f9613787565b6103f16108e1366004614762565b6137e7565b6103cb60035481565b6103cb60045481565b6103cb60105481565b6001546001600160a01b031633146109345760405162461bcd60e51b815260040161092b90614928565b60405180910390fd5b60135484106109715760405162461bcd60e51b815260206004820152600960248201526824b73232bc1027a7a160b91b604482015260640161092b565b8183106109b05760405162461bcd60e51b815260206004820152600d60248201526c496e76616c69642072616e676560981b604482015260640161092b565b80156109d8576127108111156109d85760405162461bcd60e51b815260040161092b9061494c565b428311610a115760405162461bcd60e51b815260206004820152600760248201526614dd185c9d195960ca1b604482015260640161092b565b8315610a79576013610a24600186614985565b81548110610a3457610a34614998565b905f5260205f20906003020160010154831015610a795760405162461bcd60e51b815260206004820152600360248201526253657160e81b604482015260640161092b565b601354610a878560016149ac565b1015610af2576013610a9a8560016149ac565b81548110610aaa57610aaa614998565b905f5260205f2090600302015f0154821115610af25760405162461bcd60e51b815260206004820152600760248201526604f7665726c61760cc1b604482015260640161092b565b60405180606001604052808481526020018381526020018281525060138581548110610b2057610b20614998565b5f9182526020918290208351600390920201908155828201516001820155604092830151600290910155815185815290810184905290810182905284907f68f039af08c3a62dae4b7e4244543803dce43c9c5a2ad9ef05fea8366f4c86239060600160405180910390a250505050565b610b98613859565b6001546001600160a01b0316331480610bbb57506002546001600160a01b031633145b610bfe5760405162461bcd60e51b81526020600482015260146024820152734f6e6c79206f776e6572206f72206f7261636c6560601b604482015260640161092b565b8115610c2657612710811115610c265760405162461bcd60e51b815260040161092b9061494c565b610c3585858585856001613881565b610c3e60015f55565b5050505050565b6008602052815f5260405f208181548110610c5e575f80fd5b905f5260205f20015f91509150505481565b6001546001600160a01b03163314610c9a5760405162461bcd60e51b815260040161092b90614928565b600555565b606081516001600160401b03811115610cba57610cba6142ad565b604051908082528060200260200182016040528015610cfe57816020015b604080518082019091525f8082526020820152815260200190600190039081610cd85790505b5090505f5b8251811015610d89576040518060400160405280848381518110610d2957610d29614998565b60200260200101518152602001600b5f868581518110610d4b57610d4b614998565b602002602001015181526020019081526020015f2054815250828281518110610d7657610d76614998565b6020908102919091010152600101610d03565b50919050565b610d9761415b565b600a8281548110610daa57610daa614998565b5f918252602091829020604080516101c081018252600d9093029091018054835260018101546001600160a01b0316938301939093526002830154908201526003820154606082015260048201546080820152600582015460a0820152600682015460c0820152600782015460e0820152600882015461010080830191909152600983015460ff808216151561012085015291900481161515610140830152600a830154610160830152600b830154161515610180820152600c909101546101a08201529050610e79826111ba565b610100820152919050565b60138181548110610e93575f80fd5b5f91825260209091206003909102018054600182015460029092015490925083565b610ebd613859565b5f600a8281548110610ed157610ed1614998565b5f9182526020909120600d90910201600981015490915060ff1615610f245760405162461bcd60e51b815260206004820152600960248201526849732061637469766560b81b604482015260640161092b565b60018101546001600160a01b03163314610f505760405162461bcd60e51b815260040161092b906149bf565b6009810154610100900460ff16610f955760405162461bcd60e51b8152602060048201526009602482015268139bdd081cd85d995960ba1b604482015260640161092b565b80600a01546012541015610fbb5760405162461bcd60e51b815260040161092b906149e2565b5f81600a015490508060125f828254610fd49190614985565b925050819055508060115f828254610fec91906149ac565b90915550505f838152600b60205260408120805483929061100e9084906149ac565b909155505080156110c35760405163a9059cbb60e01b8152336004820152602481018290527f00000000000000000000000000000000000000000000000000000000000000006001600160a01b03169063a9059cbb906044016020604051808303815f875af1158015611083573d5f5f3e3d5ffd5b505050506040513d601f19601f820116820180604052508101906110a79190614a06565b6110c35760405162461bcd60e51b815260040161092b90614a21565b60098201805461ff00191690555f600a8301556001820154825460408051918252602082018490526001600160a01b03909216917f89944602fcc483994090377f9abd25a68ee71ae7ef66db82411cc0739ab35cd8910160405180910390a2505061112d60015f55565b50565b6001546001600160a01b0316331461115a5760405162461bcd60e51b815260040161092b90614928565b611165838383613e3d565b60135461117490600190614985565b60408051858152602081018590529081018390527f901d51af3f40466612c7be89ba349f0b5aa321186bb4de023367f1ca25acdced9060600160405180910390a2505050565b5f5f600a83815481106111cf576111cf614998565b5f918252602091829020604080516101c081018252600d9093029091018054835260018101546001600160a01b0316938301939093526002830154908201526003820154606082015260048201546080820152600582015460a0820152600682015460c0820152600782015460e0820152600882015461010080830191909152600983015460ff80821615156101208501529190048116158015610140840152600a840154610160840152600b8401549091161515610180830152600c909201546101a082015291506112a757610160015192915050565b604081015115806112bb5750806101200151155b156112c857505f92915050565b60e08101515f6112d88282613fb3565b90508181116112eb57505f949350505050565b60408301515f90835b83811015611422575f6013828154811061131057611310614998565b905f5260205f2090600302016040518060600160405290815f82015481526020016001820154815260200160028201548152505090505f87610180015161135f5761135a83614001565b611366565b876101a001515b90505f6127106113768387614a4a565b6113809190614a61565b90508860600151840361140957825160208401515f61139f8383614985565b90505f838d60800151116113b357836113b9565b8c608001515b9050828082106113d057505050505050505061141a565b5f6113db8383614985565b9050836113e88289614a4a565b6113f29190614a61565b6113fc908d6149ac565b9b50505050505050611416565b61141381876149ac565b95505b5050505b6001016112f4565b50909695505050505050565b6001546001600160a01b031633146114585760405162461bcd60e51b815260040161092b90614928565b848314801561146657508481145b6114a45760405162461bcd60e51b815260206004820152600f60248201526e098cadccee8d040dad2e6dac2e8c6d608b1b604482015260640161092b565b846114d95760405162461bcd60e51b8152602060048201526005602482015264456d70747960d81b604482015260640161092b565b5f5b8581101561153e576115368787838181106114f8576114f8614998565b9050602002013586868481811061151157611511614998565b9050602002013585858581811061152a5761152a614998565b90506020020135613e3d565b6001016114db565b506013547fab080e234ebab87937f1d48c107ecb8ab6361d9012a0670705e920b9cffe10119061156f908790614985565b60135461157e90600190614985565b6040805192835260208301919091520160405180910390a1505050505050565b6116226040518061022001604052805f81526020015f81526020015f81526020015f81526020015f81526020015f81526020015f60ff16815260200160608152602001606081526020015f6001600160a01b031681526020015f81526020015f81526020015f81526020015f81526020015f81526020015f81526020015f81525090565b6040518061022001604052806006805490508152602001600f548152602001600a8054905081526020016010548152602001601154815260200160125481526020017f00000000000000000000000000000000000000000000000000000000000000006001600160a01b031663313ce5676040518163ffffffff1660e01b8152600401602060405180830381865afa1580156116c0573d5f5f3e3d5ffd5b505050506040513d601f19601f820116820180604052508101906116e49190614a80565b60ff1681526020017f00000000000000000000000000000000000000000000000000000000000000006001600160a01b03166306fdde036040518163ffffffff1660e01b81526004015f60405180830381865afa158015611747573d5f5f3e3d5ffd5b505050506040513d5f823e601f3d908101601f1916820160405261176e9190810190614aa0565b81526020017f00000000000000000000000000000000000000000000000000000000000000006001600160a01b03166395d89b416040518163ffffffff1660e01b81526004015f60405180830381865afa1580156117ce573d5f5f3e3d5ffd5b505050506040513d5f823e601f3d908101601f191682016040526117f59190810190614aa0565b81526020017f00000000000000000000000000000000000000000000000000000000000000006001600160a01b031681526020016003548152602001600454815260200160055481526020016118496129f9565b8152602001611856613133565b8152602001611863612c1e565b8152601354602090910152919050565b6060815f0361188257600d5491505b5f61188d83856149ac565b600d549091508411156118a05750611aa9565b600d548111156118af5750600d545b6118b98482614985565b6001600160401b038111156118d0576118d06142ad565b60405190808252806020026020018201604052801561190957816020015b6118f661415b565b8152602001906001900390816118ee5790505b5091505f5b6119188583614985565b811015611aa657600a600d60018784600d805490506119379190614985565b6119419190614985565b61194b9190614985565b8154811061195b5761195b614998565b905f5260205f2001548154811061197457611974614998565b5f918252602091829020604080516101c081018252600d9093029091018054835260018101546001600160a01b0316938301939093526002830154908201526003820154606082015260048201546080820152600582015460a0820152600682015460c0820152600782015460e0820152600882015461010080830191909152600983015460ff808216151561012085015291900481161515610140830152600a830154610160830152600b830154161515610180820152600c909101546101a08201528351849083908110611a4c57611a4c614998565b6020026020010181905250611a7c838281518110611a6c57611a6c614998565b60200260200101515f01516111ba565b838281518110611a8e57611a8e614998565b6020908102919091010151610100015260010161190e565b50505b92915050565b6060815f03611abe5760065491505b5f611ac983856149ac565b600654909150841115611adc5750611aa9565b600654811115611aeb57506006545b611af58482614985565b6001600160401b03811115611b0c57611b0c6142ad565b604051908082528060200260200182016040528015611b35578160200160208202803683370190505b5091505f5b611b448583614985565b811015611aa657600680546001908790611b5f908590614985565b611b699190614985565b611b739190614985565b81548110611b8357611b83614998565b905f5260205f20015f9054906101000a90046001600160a01b0316838281518110611bb057611bb0614998565b6001600160a01b0390921660209283029190910190910152600101611b3a565b6060815f03611bf4576001600160a01b0384165f9081526008602052604090205491505b5f611bff83856149ac565b6001600160a01b0386165f90815260086020526040902054909150841115611c275750611e5f565b6001600160a01b0385165f90815260086020526040902054811115611c6057506001600160a01b0384165f908152600860205260409020545b611c6a8482614985565b6001600160401b03811115611c8157611c816142ad565b604051908082528060200260200182016040528015611cba57816020015b611ca761415b565b815260200190600190039081611c9f5790505b5091505f5b611cc98583614985565b811015611e5c576001600160a01b0386165f9081526008602052604090208054600a91906001908890611cfd908690614985565b611d079190614985565b611d119190614985565b81548110611d2157611d21614998565b905f5260205f20015481548110611d3a57611d3a614998565b5f918252602091829020604080516101c081018252600d9093029091018054835260018101546001600160a01b0316938301939093526002830154908201526003820154606082015260048201546080820152600582015460a0820152600682015460c0820152600782015460e0820152600882015461010080830191909152600983015460ff808216151561012085015291900481161515610140830152600a830154610160830152600b830154161515610180820152600c909101546101a08201528351849083908110611e1257611e12614998565b6020026020010181905250611e32838281518110611a6c57611a6c614998565b838281518110611e4457611e44614998565b60209081029190910101516101000152600101611cbf565b50505b9392505050565b6001546001600160a01b03163314611e905760405162461bcd60e51b815260040161092b90614928565b600455565b6060815f03611ea45760135491505b5f611eaf83856149ac565b601354909150841115611ec25750611aa9565b601354811115611ed157506013545b611edb8482614985565b6001600160401b03811115611ef257611ef26142ad565b604051908082528060200260200182016040528015611f5c57816020015b611f496040518060e001604052805f81526020015f81526020015f81526020015f81526020015f81526020015f81526020015f81525090565b815260200190600190039081611f105790505b5091505f5b611f6b8583614985565b811015611aa6575f60018683601380549050611f879190614985565b611f919190614985565b611f9b9190614985565b90506040518060e0016040528082815260200160138381548110611fc157611fc1614998565b905f5260205f2090600302015f0154815260200160138381548110611fe857611fe8614998565b905f5260205f2090600302016001015481526020016013838154811061201057612010614998565b5f918252602080832060026003909302019190910154835284825260148152604080832054848301528583526015825280832054818501528583526016909152902054606090910152845185908490811061206d5761206d614998565b602090810291909101015250600101611f61565b612089613859565b5f600a828154811061209d5761209d614998565b5f9182526020909120600d90910201600981015490915060ff166120d35760405162461bcd60e51b815260040161092b90614b32565b60018101546001600160a01b031633146120ff5760405162461bcd60e51b815260040161092b906149bf565b5f612108612c1e565b905081600601548110156121475760405162461bcd60e51b8152602060048201526006602482015265131bd8dad95960d21b604482015260640161092b565b5f612151846111ba565b90508060125410156121755760405162461bcd60e51b815260040161092b906149e2565b5f81846002015461218691906149ac565b9050836002015460105f82825461219d9190614985565b909155505060098401805460ff1916905542600585015560078401545f906121c59082613fb3565b600786018190556009859055600f80549192505f6121e283614b54565b91905055508260125f8282546121f89190614985565b925050819055508260115f82825461221091906149ac565b90915550505f868152600b6020526040812080548592906122329084906149ac565b9091555061224190508661403f565b5f848152601660205260408120805485929061225e9084906149ac565b909155505060405163a9059cbb60e01b8152336004820152602481018390527f00000000000000000000000000000000000000000000000000000000000000006001600160a01b03169063a9059cbb906044016020604051808303815f875af11580156122cd573d5f5f3e3d5ffd5b505050506040513d601f19601f820116820180604052508101906122f19190614a06565b61230d5760405162461bcd60e51b815260040161092b90614a21565b604080518781526020810184905233917f217ea3989b9d3112d2133a930216f444b7fbcaeaa4d5bc0220d099fdc928e71e910160405180910390a2505050505061112d60015f55565b61235e613859565b5f600a828154811061237257612372614998565b5f9182526020909120600d90910201600981015490915060ff166123a85760405162461bcd60e51b815260040161092b90614b32565b60018101546001600160a01b031633146123d45760405162461bcd60e51b815260040161092b906149bf565b5f6123dd612c1e565b9050816006015481101561241c5760405162461bcd60e51b8152602060048201526006602482015265131bd8dad95960d21b604482015260640161092b565b5f612426846111ba565b9050826002015460105f82825461243d9190614985565b90915550506009808401805461ffff1916610100179055600a8401829055426005850155829055600f8054905f61247383614b54565b91905055506124818461403f565b5f828152601660205260408120805483929061249e9084906149ac565b925050819055508060115f8282546124b691906149ac565b90915550506001830154600284015460405163a9059cbb60e01b81526001600160a01b03928316600482015260248101919091527f00000000000000000000000000000000000000000000000000000000000000009091169063a9059cbb906044016020604051808303815f875af1158015612534573d5f5f3e3d5ffd5b505050506040513d601f19601f820116820180604052508101906125589190614a06565b6125745760405162461bcd60e51b815260040161092b90614a21565b60018301548354600285015460408051928352602083019190915281018390526001600160a01b03909116907f2bb9e1005bd12abff0a36b08286208299f11bac0718c4590fd6f4eabd7667cf9906060015b60405180910390a250505061112d60015f55565b5f8415806125e6575082155b806125f357506013548410155b156125ff57505f61276b565b5f61260a84866149ac565b60135490915081111561262b575060135484811161262b575f91505061276b565b825f03612636574292505b805f865b8281101561276557601354811015612765575f6013828154811061266057612660614998565b905f5260205f2090600302016040518060600160405290815f82015481526020016001820154815260200160028201548152505090505f6126a083614001565b90505f6127106126b0838e614a4a565b6126ba9190614a61565b90508a840361274c57825160208401515f6126d58383614985565b90505f838d116126e557836126e7565b8c5b9050828082106126fe57505050505050505061275d565b5f6127098383614985565b9050835f036127205750505050505050505061275d565b8361272b8289614a4a565b6127359190614a61565b61273f908c6149ac565b9a50505050505050612759565b61275681866149ac565b94505b5050505b60010161263a565b50925050505b949350505050565b61277b613859565b6001546001600160a01b031633146127a55760405162461bcd60e51b815260040161092b90614928565b5f600a82815481106127b9576127b9614998565b5f9182526020909120600d90910201600981015490915060ff166128125760405162461bcd60e51b815260206004820152601060248201526f4465706f73697420696e61637469766560801b604482015260640161092b565b80545f908152600c602052604090205460ff166128715760405162461bcd60e51b815260206004820152601f60248201527f43616e206f6e6c792063616e63656c206f7261636c65206465706f7369747300604482015260640161092b565b60098101805460ff19169055600f8054905f61288c83614b54565b9190505550806002015460105f8282546128a69190614985565b9091555050600281015460405163a9059cbb60e01b815233600482015260248101919091527f00000000000000000000000000000000000000000000000000000000000000006001600160a01b03169063a9059cbb906044016020604051808303815f875af115801561291b573d5f5f3e3d5ffd5b505050506040513d601f19601f8201168201806040525081019061293f9190614a06565b61295b5760405162461bcd60e51b815260040161092b90614a21565b8054600282015460405133927f24c9e122007bd4087408943168fbcd65248594530e482b6a9abe4484767eb0c39261299b92918252602082015260400190565b60405180910390a25061112d60015f55565b6001546001600160a01b031633146129d75760405162461bcd60e51b815260040161092b90614928565b600280546001600160a01b0319166001600160a01b0392909216919091179055565b5f5f600354905061271081601054612a119190614a4a565b612a1b9190614a61565b91505090565b600d8181548110612a30575f80fd5b5f91825260209091200154905081565b6001546001600160a01b0316331480612a6357506002546001600160a01b031633145b612aa65760405162461bcd60e51b81526020600482015260146024820152734f6e6c79206f776e6572206f72206f7261636c6560601b604482015260640161092b565b6040516323b872dd60e01b8152336004820152306024820152604481018290527f00000000000000000000000000000000000000000000000000000000000000006001600160a01b0316906323b872dd906064016020604051808303815f875af1158015612b16573d5f5f3e3d5ffd5b505050506040513d601f19601f82011682018060405250810190612b3a9190614a06565b612b565760405162461bcd60e51b815260040161092b90614b69565b8060125f828254612b6791906149ac565b909155505050565b6001546001600160a01b03163314612b995760405162461bcd60e51b815260040161092b90614928565b612710811115612bbb5760405162461bcd60e51b815260040161092b9061494c565b60038190556040518181527f71ca8c1a2bc00717637fb3e9d048da574b351106cfcf0832e2dfe20f4e633dcf9060200160405180910390a150565b60068181548110612c05575f80fd5b5f918252602090912001546001600160a01b0316905081565b6009545f9042905b601354811015612c955760138181548110612c4357612c43614998565b905f5260205f2090600302015f01548210158015612c82575060138181548110612c6f57612c6f614998565b905f5260205f2090600302016001015482105b15612c8d5792915050565b600101612c26565b5050601354919050565b6001546001600160a01b03163314612cc95760405162461bcd60e51b815260040161092b90614928565b601354612d015760405162461bcd60e51b815260040161092b906020808252600490820152634e6f6e6560e01b604082015260600190565b60138054429190612d1490600190614985565b81548110612d2457612d24614998565b905f5260205f2090600302015f015411612d6a5760405162461bcd60e51b815260206004820152600760248201526614dd185c9d195960ca1b604482015260640161092b565b6013805480612d7b57612d7b614b85565b5f8281526020812060035f1990930192830201818155600181018290556002015590556013546040517fd84ba012185e6b11c267bbf53304405446699fded2a2a85c6c6523d2cd3fd79091612dd39190815260200190565b60405180910390a1565b600a8181548110612dec575f80fd5b5f9182526020909120600d9091020180546001820154600283015460038401546004850154600586015460068701546007880154600889015460098a0154600a8b0154600b8c0154600c909c01549a9c506001600160a01b039099169a979996989597949693959294919360ff8083169461010090930481169316908e565b612e73613859565b612e813383835f5f5f613881565b612e8a60015f55565b5050565b6001546001600160a01b03163314612eb85760405162461bcd60e51b815260040161092b90614928565b7f00000000000000000000000000000000000000000000000000000000000000006001600160a01b0316826001600160a01b031603612f095760405162461bcd60e51b815260040161092b90614b69565b60015460405163a9059cbb60e01b81526001600160a01b039182166004820152602481018390529083169063a9059cbb906044016020604051808303815f875af1158015612f59573d5f5f3e3d5ffd5b505050506040513d601f19601f82011682018060405250810190612f7d9190614a06565b612e8a5760405162461bcd60e51b8152602060048201526002602482015261229960f11b604482015260640161092b565b6001546001600160a01b03163314612fd85760405162461bcd60e51b815260040161092b90614928565b806012541015612ffa5760405162461bcd60e51b815260040161092b90614b69565b60405163a9059cbb60e01b8152336004820152602481018290527f00000000000000000000000000000000000000000000000000000000000000006001600160a01b03169063a9059cbb906044016020604051808303815f875af1158015613064573d5f5f3e3d5ffd5b505050506040513d601f19601f820116820180604052508101906130889190614a06565b6130b95760405162461bcd60e51b8152602060048201526002602482015261229960f11b604482015260640161092b565b8060125f828254612b679190614985565b6001600160a01b0381165f9081526008602090815260409182902080548351818402810184019094528084526060939283018282801561312757602002820191905f5260205f20905b815481526020019060010190808311613113575b50505050509050919050565b5f5f61313d612c1e565b6013549091508110613150575f91505090565b5f61315a82614001565b90506127108160105461316d9190614a4a565b6131779190614a61565b9250505090565b6060815f0361318d57600a5491505b5f61319883856149ac565b600a549091508411156131ab5750611aa9565b600a548111156131ba5750600a545b6131c48482614985565b6001600160401b038111156131db576131db6142ad565b60405190808252806020026020018201604052801561321457816020015b61320161415b565b8152602001906001900390816131f95790505b5091505f5b6132238583614985565b811015611aa657600a8054600190879061323e908590614985565b6132489190614985565b6132529190614985565b8154811061326257613262614998565b5f918252602091829020604080516101c081018252600d9093029091018054835260018101546001600160a01b0316938301939093526002830154908201526003820154606082015260048201546080820152600582015460a0820152600682015460c0820152600782015460e0820152600882015461010080830191909152600983015460ff808216151561012085015291900481161515610140830152600a830154610160830152600b830154161515610180820152600c909101546101a0820152835184908390811061333a5761333a614998565b602002602001018190525061335a838281518110611a6c57611a6c614998565b83828151811061336c5761336c614998565b60209081029190910101516101000152600101613219565b61338c613859565b5f600a82815481106133a0576133a0614998565b5f9182526020909120600d90910201600981015490915060ff166133d65760405162461bcd60e51b815260040161092b90614b32565b60018101546001600160a01b031633146134025760405162461bcd60e51b815260040161092b906149bf565b5f61340c836111ba565b90505f811161344a5760405162461bcd60e51b815260206004820152600a6024820152694e6f207265776172647360b01b604482015260640161092b565b80601254101561346c5760405162461bcd60e51b815260040161092b906149e2565b5f61347b83600701545f613fb3565b90508083600701819055508160125f8282546134979190614985565b925050819055508160115f8282546134af91906149ac565b90915550505f848152600b6020526040812080548492906134d19084906149ac565b90915550505f81815260166020526040812080548492906134f39084906149ac565b909155505060405163a9059cbb60e01b8152336004820152602481018390527f00000000000000000000000000000000000000000000000000000000000000006001600160a01b03169063a9059cbb906044016020604051808303815f875af1158015613562573d5f5f3e3d5ffd5b505050506040513d601f19601f820116820180604052508101906135869190614a06565b6135a25760405162461bcd60e51b815260040161092b90614a21565b6135aa612c1e565b600955604080518581526020810184905233917ffa73d3ab3a92ed3f2b694757d8e4b2f3c293654b11b9c79111f8971f861b22b291016125c6565b5f8315806135f1575082155b156135fd57505f611e5f565b815f03613608574291505b5f613612836140e9565b6013549091508110613627575f915050611e5f565b5f61363285836149ac565b60135490915081111561364457506013545b818111613655575f92505050611e5f565b5f825b8281101561377c575f6013828154811061367457613674614998565b905f5260205f2090600302016040518060600160405290815f82015481526020016001820154815260200160028201548152505090505f6136b483614001565b90505f6127106136c4838d614a4a565b6136ce9190614a61565b90508684036137635782515f908a116136e85783516136ea565b895b6020850151909150808210613703575050505050613774565b5f61370e8383614985565b90505f865f015187602001516137249190614985565b9050805f036137395750505050505050613774565b806137448387614a4a565b61374e9190614a61565b613758908a6149ac565b985050505050613770565b61376d81866149ac565b94505b5050505b600101613658565b509695505050505050565b606060068054806020026020016040519081016040528092919081815260200182805480156137dd57602002820191905f5260205f20905b81546001600160a01b031681526001909101906020018083116137bf575b5050505050905090565b6001546001600160a01b031633146138115760405162461bcd60e51b815260040161092b90614928565b6001600160a01b0381166138375760405162461bcd60e51b815260040161092b90614b69565b600180546001600160a01b0319166001600160a01b0392909216919091179055565b60025f540361387b57604051633ee5aeb560e01b815260040160405180910390fd5b60025f55565b6005548510156138c05760405162461bcd60e51b815260206004820152600a602482015269135a5b88185b5bdd5b9d60b21b604482015260640161092b565b6004548410156139085760405162461bcd60e51b81526020600482015260136024820152722637b1b59036bab9ba1031329033b932b0b2b960691b604482015260640161092b565b6013546139435760405162461bcd60e51b81526020600482015260096024820152684e6f206d6f6e74687360b81b604482015260640161092b565b5f61394c612c1e565b60135490915081106139935760405162461bcd60e51b815260206004820152601060248201526f151a5b59481b9bdd0818dbdd995c995960821b604482015260640161092b565b5f61399e86836149ac565b601354909150811115613a015760405162461bcd60e51b815260206004820152602560248201527f4c6f636b20706572696f64206578636565647320636f6e66696775726564206d6044820152646f6e74687360d81b606482015260840161092b565b6040516323b872dd60e01b8152336004820152306024820152604481018890527f00000000000000000000000000000000000000000000000000000000000000006001600160a01b0316906323b872dd906064016020604051808303815f875af1158015613a71573d5f5f3e3d5ffd5b505050506040513d601f19601f82011682018060405250810190613a959190614a06565b613ab15760405162461bcd60e51b815260040161092b90614a21565b6001600160a01b0388165f9081526007602052604090205460ff16613b35576001600160a01b0388165f818152600760205260408120805460ff191660019081179091556006805491820181559091527ff652222313e28459528d920b65115c16c04f3efc82aaedc97be59f3f377c0d3f0180546001600160a01b03191690911790555b600a604051806101c00160405280600a8054905081526020018a6001600160a01b031681526020018981526020018481526020014281526020015f81526020018381526020018481526020015f81526020016001151581526020015f151581526020015f8152602001871515815260200186815250908060018154018082558091505060019003905f5260205f2090600d02015f909190919091505f820151815f01556020820151816001015f6101000a8154816001600160a01b0302191690836001600160a01b0316021790555060408201518160020155606082015181600301556080820151816004015560a0820151816005015560c0820151816006015560e082015181600701556101008201518160080155610120820151816009015f6101000a81548160ff0219169083151502179055506101408201518160090160016101000a81548160ff02191690831515021790555061016082015181600a015561018082015181600b015f6101000a81548160ff0219169083151502179055506101a082015181600c015550505f6001600a80549050613cd79190614985565b5f818152600c60209081526040808320805460ff19168915151790556001600160a01b038d1683526008825282208054600181018255908352908220018290556009859055601080549293508a92909190613d339084906149ac565b9091555050600f8054905f613d4783614b99565b9091555050600d8054600181810183555f8390527fd7b6990105719101dabeb77144f2a3385c8033acd3af97e9423a695e81ad1eb59091018390559054613d8e9190614985565b5f828152600e602090815260408083209390935585825260149052908120805491613db883614b99565b90915550505f83815260156020526040812080548a9290613dda9084906149ac565b909155505060408051828152602081018a9052908101889052606081018390526001600160a01b038a16907f554f20505671494900b631b0e443e9e7a59743ec9889b05e28d8ac9ea158266b9060800160405180910390a2505050505050505050565b818310613e7c5760405162461bcd60e51b815260206004820152600d60248201526c496e76616c69642072616e676560981b604482015260640161092b565b8015613ea457612710811115613ea45760405162461bcd60e51b815260040161092b9061494c565b60135415613f115760138054613ebc90600190614985565b81548110613ecc57613ecc614998565b905f5260205f20906003020160010154831015613f115760405162461bcd60e51b815260206004820152600360248201526253657160e81b604482015260640161092b565b60408051606081018252938452602084019283528301908152601380546001810182555f9190915292517f66de8ffda797e3de9c05e8fc57b3bf0ec28a930d40b0d285d93c06501cf6a09060039094029384015590517f66de8ffda797e3de9c05e8fc57b3bf0ec28a930d40b0d285d93c06501cf6a091830155517f66de8ffda797e3de9c05e8fc57b3bf0ec28a930d40b0d285d93c06501cf6a09290910155565b5f815f03613fbf574291505b825b60135481108015613ff457508260138281548110613fe157613fe1614998565b905f5260205f2090600302016001015411155b15611e5f57600101613fc1565b5f5f6013838154811061401657614016614998565b905f5260205f209060030201600201549050805f146140355780611e5f565b6003549392505050565b5f818152600e6020526040812054600d805491929161406090600190614985565b8154811061407057614070614998565b905f5260205f200154905080600d838154811061408f5761408f614998565b5f918252602080832090910192909255828152600e90915260409020829055600d8054806140bf576140bf614b85565b5f828152602080822083015f19908101839055909201909255938152600e90935250506040812055565b5f805b601354811015612c95576013818154811061410957614109614998565b905f5260205f2090600302015f0154831015801561414857506013818154811061413557614135614998565b905f5260205f2090600302016001015483105b156141535792915050565b6001016140ec565b604051806101c001604052805f81526020015f6001600160a01b031681526020015f81526020015f81526020015f81526020015f81526020015f81526020015f81526020015f81526020015f151581526020015f151581526020015f81526020015f151581526020015f81525090565b5f5f5f5f608085870312156141de575f5ffd5b5050823594602084013594506040840135936060013592509050565b80356001600160a01b0381168114614210575f5ffd5b919050565b801515811461112d575f5ffd5b5f5f5f5f5f60a08688031215614236575f5ffd5b61423f866141fa565b94506020860135935060408601359250606086013561425d81614215565b949793965091946080013592915050565b5f5f6040838503121561427f575f5ffd5b614288836141fa565b946020939093013593505050565b5f602082840312156142a6575f5ffd5b5035919050565b634e487b7160e01b5f52604160045260245ffd5b604051601f8201601f191681016001600160401b03811182821017156142e9576142e96142ad565b604052919050565b5f60208284031215614301575f5ffd5b81356001600160401b03811115614316575f5ffd5b8201601f81018413614326575f5ffd5b80356001600160401b0381111561433f5761433f6142ad565b8060051b61434f602082016142c1565b9182526020818401810192908101908784111561436a575f5ffd5b6020850194505b8385101561439057843580835260209586019590935090910190614371565b979650505050505050565b602080825282518282018190525f918401906040840190835b818110156143de5783518051845260209081015181850152909301926040909201916001016143b4565b509095945050505050565b80518252602081015161440760208401826001600160a01b03169052565b5060408101516040830152606081015160608301526080810151608083015260a081015160a083015260c081015160c083015260e081015160e083015261010081015161010083015261012081015161446561012084018215159052565b5061014081015161447b61014084018215159052565b5061016081015161016083015261018081015161449d61018084018215159052565b506101a090810151910152565b6101c08101611aa982846143e9565b5f5f5f606084860312156144cb575f5ffd5b505081359360208301359350604090920135919050565b5f5f83601f8401126144f2575f5ffd5b5081356001600160401b03811115614508575f5ffd5b6020830191508360208260051b8501011115614522575f5ffd5b9250929050565b5f5f5f5f5f5f6060878903121561453e575f5ffd5b86356001600160401b03811115614553575f5ffd5b61455f89828a016144e2565b90975095505060208701356001600160401b0381111561457d575f5ffd5b61458989828a016144e2565b90955093505060408701356001600160401b038111156145a7575f5ffd5b6145b389828a016144e2565b979a9699509497509295939492505050565b5f81518084528060208401602086015e5f602082860101526020601f19601f83011685010191505092915050565b6020815281516020820152602082015160408201526040820151606082015260608201516080820152608082015160a082015260a082015160c08201525f60c083015161464560e084018260ff169052565b5060e08301516102206101008401526146626102408401826145c5565b9050610100840151601f198483030161012085015261468182826145c5565b9150506101208401516146a06101408501826001600160a01b03169052565b506101408401516101608401526101608401516101808401526101808401516101a08401526101a08401516101c08401526101c08401516101e08401526101e08401516102008401526102008401516102208401528091505092915050565b5f5f60408385031215614710575f5ffd5b50508035926020909101359150565b602080825282518282018190525f918401906040840190835b818110156143de5761474b8385516143e9565b602093909301926101c09290920191600101614738565b5f60208284031215614772575f5ffd5b611e5f826141fa565b602080825282518282018190525f918401906040840190835b818110156143de5783516001600160a01b0316835260209384019390920191600101614794565b5f5f5f606084860312156147cd575f5ffd5b6147d6846141fa565b95602085013595506040909401359392505050565b602080825282518282018190525f918401906040840190835b818110156143de578351805184526020810151602085015260408101516040850152606081015160608501526080810151608085015260a081015160a085015260c081015160c08501525060e083019250602084019350600181019050614804565b8e81526001600160a01b038e166020820152604081018d9052606081018c9052608081018b905260a081018a905260c0810189905260e0810188905261010081018790528515156101208201528415156101408201526101c08101846101608301526148d761018083018515159052565b826101a08301529f9e505050505050505050505050505050565b602080825282518282018190525f918401906040840190835b818110156143de57835183526020938401939092019160010161490a565b6020808252600a908201526927b7363c9037bbb732b960b11b604082015260600190565b6020808252600b908201526a52617465203e203130302560a81b604082015260600190565b634e487b7160e01b5f52601160045260245ffd5b81810381811115611aa957611aa9614971565b634e487b7160e01b5f52603260045260245ffd5b80820180821115611aa957611aa9614971565b6020808252600990820152682737ba1037bbb732b960b91b604082015260600190565b6020808252600a9082015269456d7074792062616e6b60b01b604082015260600190565b5f60208284031215614a16575f5ffd5b8151611e5f81614215565b6020808252600f908201526e151c985b9cd9995c8819985a5b1959608a1b604082015260600190565b8082028115828204841417611aa957611aa9614971565b5f82614a7b57634e487b7160e01b5f52601260045260245ffd5b500490565b5f60208284031215614a90575f5ffd5b815160ff81168114611e5f575f5ffd5b5f60208284031215614ab0575f5ffd5b81516001600160401b03811115614ac5575f5ffd5b8201601f81018413614ad5575f5ffd5b80516001600160401b03811115614aee57614aee6142ad565b614b01601f8201601f19166020016142c1565b818152856020838501011115614b15575f5ffd5b8160208401602083015e5f91810160200191909152949350505050565b602080825260089082015267496e61637469766560c01b604082015260600190565b5f81614b6257614b62614971565b505f190190565b602080825260029082015261453160f01b604082015260600190565b634e487b7160e01b5f52603160045260245ffd5b5f60018201614baa57614baa614971565b506001019056fea2646970667358221220664ce49dffc6b8c801310d37ad9c3496ec20f049669070ffe16449f369e055dd64736f6c634300081e0033",
			"opcodes": "PUSH1 0xA0 PUSH1 0x40 MSTORE PUSH1 0x1 PUSH1 0x4 SSTORE PUSH8 0xDE0B6B3A7640000 PUSH1 0x5 SSTORE PUSH0 PUSH1 0x9 SSTORE CALLVALUE DUP1 ISZERO PUSH2 0x24 JUMPI PUSH0 PUSH0 REVERT JUMPDEST POP PUSH1 0x40 MLOAD PUSH2 0x4D9A CODESIZE SUB DUP1 PUSH2 0x4D9A DUP4 CODECOPY DUP2 ADD PUSH1 0x40 DUP2 SWAP1 MSTORE PUSH2 0x43 SWAP2 PUSH2 0x109 JUMP JUMPDEST PUSH1 0x1 PUSH0 SSTORE PUSH1 0x1 PUSH1 0x1 PUSH1 0xA0 SHL SUB DUP3 AND PUSH2 0x90 JUMPI PUSH1 0x40 MLOAD PUSH3 0x461BCD PUSH1 0xE5 SHL DUP2 MSTORE PUSH1 0x20 PUSH1 0x4 DUP3 ADD MSTORE PUSH1 0xB PUSH1 0x24 DUP3 ADD MSTORE PUSH11 0x546F6B656E3A207A65726F PUSH1 0xA8 SHL PUSH1 0x44 DUP3 ADD MSTORE PUSH1 0x64 ADD JUMPDEST PUSH1 0x40 MLOAD DUP1 SWAP2 SUB SWAP1 REVERT JUMPDEST PUSH2 0x2710 DUP2 GT ISZERO PUSH2 0xD0 JUMPI PUSH1 0x40 MLOAD PUSH3 0x461BCD PUSH1 0xE5 SHL DUP2 MSTORE PUSH1 0x20 PUSH1 0x4 DUP3 ADD MSTORE PUSH1 0xB PUSH1 0x24 DUP3 ADD MSTORE PUSH11 0x52617465203E2031303025 PUSH1 0xA8 SHL PUSH1 0x44 DUP3 ADD MSTORE PUSH1 0x64 ADD PUSH2 0x87 JUMP JUMPDEST PUSH1 0x1 DUP1 SLOAD CALLER PUSH1 0x1 PUSH1 0x1 PUSH1 0xA0 SHL SUB NOT SWAP2 DUP3 AND DUP2 OR SWAP1 SWAP3 SSTORE PUSH1 0x2 DUP1 SLOAD SWAP1 SWAP2 AND SWAP1 SWAP2 OR SWAP1 SSTORE PUSH1 0x1 PUSH1 0x1 PUSH1 0xA0 SHL SUB SWAP2 SWAP1 SWAP2 AND PUSH1 0x80 MSTORE PUSH1 0x3 SSTORE PUSH2 0x140 JUMP JUMPDEST PUSH0 PUSH0 PUSH1 0x40 DUP4 DUP6 SUB SLT ISZERO PUSH2 0x11A JUMPI PUSH0 PUSH0 REVERT JUMPDEST DUP3 MLOAD PUSH1 0x1 PUSH1 0x1 PUSH1 0xA0 SHL SUB DUP2 AND DUP2 EQ PUSH2 0x130 JUMPI PUSH0 PUSH0 REVERT JUMPDEST PUSH1 0x20 SWAP4 SWAP1 SWAP4 ADD MLOAD SWAP3 SWAP5 SWAP3 SWAP4 POP POP POP JUMP JUMPDEST PUSH1 0x80 MLOAD PUSH2 0x4BE7 PUSH2 0x1B3 PUSH0 CODECOPY PUSH0 DUP2 DUP2 PUSH2 0x68A ADD MSTORE DUP2 DUP2 PUSH2 0x1035 ADD MSTORE DUP2 DUP2 PUSH2 0x1666 ADD MSTORE DUP2 DUP2 PUSH2 0x16EE ADD MSTORE DUP2 DUP2 PUSH2 0x1775 ADD MSTORE DUP2 DUP2 PUSH2 0x17FC ADD MSTORE DUP2 DUP2 PUSH2 0x227F ADD MSTORE DUP2 DUP2 PUSH2 0x24EC ADD MSTORE DUP2 DUP2 PUSH2 0x28CD ADD MSTORE DUP2 DUP2 PUSH2 0x2AC8 ADD MSTORE DUP2 DUP2 PUSH2 0x2EBA ADD MSTORE DUP2 DUP2 PUSH2 0x3016 ADD MSTORE DUP2 DUP2 PUSH2 0x3514 ADD MSTORE PUSH2 0x3A23 ADD MSTORE PUSH2 0x4BE7 PUSH0 RETURN INVALID PUSH1 0x80 PUSH1 0x40 MSTORE CALLVALUE DUP1 ISZERO PUSH2 0xF JUMPI PUSH0 PUSH0 REVERT JUMPDEST POP PUSH1 0x4 CALLDATASIZE LT PUSH2 0x3BE JUMPI PUSH0 CALLDATALOAD PUSH1 0xE0 SHR DUP1 PUSH4 0x7DC0D1D0 GT PUSH2 0x1F5 JUMPI DUP1 PUSH4 0xB42A275E GT PUSH2 0x114 JUMPI DUP1 PUSH4 0xD6A13301 GT PUSH2 0xA9 JUMPI DUP1 PUSH4 0xF2FDE38B GT PUSH2 0x79 JUMPI DUP1 PUSH4 0xF2FDE38B EQ PUSH2 0x8D3 JUMPI DUP1 PUSH4 0xF4F8C847 EQ PUSH2 0x8E6 JUMPI DUP1 PUSH4 0xF8799E1A EQ PUSH2 0x8EF JUMPI DUP1 PUSH4 0xFE4AB90A EQ PUSH2 0x8F8 JUMPI PUSH0 PUSH0 REVERT JUMPDEST DUP1 PUSH4 0xD6A13301 EQ PUSH2 0x888 JUMPI DUP1 PUSH4 0xD7D43C78 EQ PUSH2 0x8B0 JUMPI DUP1 PUSH4 0xDD4824A8 EQ PUSH2 0x8B8 JUMPI DUP1 PUSH4 0xE2842D79 EQ PUSH2 0x8CB JUMPI PUSH0 PUSH0 REVERT JUMPDEST DUP1 PUSH4 0xCCBD0007 GT PUSH2 0xE4 JUMPI DUP1 PUSH4 0xCCBD0007 EQ PUSH2 0x851 JUMPI DUP1 PUSH4 0xD188E3AE EQ PUSH2 0x85A JUMPI DUP1 PUSH4 0xD3752830 EQ PUSH2 0x862 JUMPI DUP1 PUSH4 0xD3D83445 EQ PUSH2 0x875 JUMPI PUSH0 PUSH0 REVERT JUMPDEST DUP1 PUSH4 0xB42A275E EQ PUSH2 0x7F6 JUMPI DUP1 PUSH4 0xBE2FF4A9 EQ PUSH2 0x7FF JUMPI DUP1 PUSH4 0xC491EECD EQ PUSH2 0x812 JUMPI DUP1 PUSH4 0xCCAAC244 EQ PUSH2 0x832 JUMPI PUSH0 PUSH0 REVERT JUMPDEST DUP1 PUSH4 0x9D13FA01 GT PUSH2 0x18A JUMPI DUP1 PUSH4 0xA9783CD7 GT PUSH2 0x15A JUMPI DUP1 PUSH4 0xA9783CD7 EQ PUSH2 0x79B JUMPI DUP1 PUSH4 0xB02C43D0 EQ PUSH2 0x7A3 JUMPI DUP1 PUSH4 0xB18E71F2 EQ PUSH2 0x7D0 JUMPI DUP1 PUSH4 0xB29A8140 EQ PUSH2 0x7E3 JUMPI PUSH0 PUSH0 REVERT JUMPDEST DUP1 PUSH4 0x9D13FA01 EQ PUSH2 0x761 JUMPI DUP1 PUSH4 0xA2BDEDF4 EQ PUSH2 0x780 JUMPI DUP1 PUSH4 0xA4A1E263 EQ PUSH2 0x759 JUMPI DUP1 PUSH4 0xA5C62CB4 EQ PUSH2 0x793 JUMPI PUSH0 PUSH0 REVERT JUMPDEST DUP1 PUSH4 0x91BA50CD GT PUSH2 0x1C5 JUMPI DUP1 PUSH4 0x91BA50CD EQ PUSH2 0x72B JUMPI DUP1 PUSH4 0x936D4FFA EQ PUSH2 0x73E JUMPI DUP1 PUSH4 0x9521ABC6 EQ PUSH2 0x746 JUMPI DUP1 PUSH4 0x9BE572F6 EQ PUSH2 0x759 JUMPI PUSH0 PUSH0 REVERT JUMPDEST DUP1 PUSH4 0x7DC0D1D0 EQ PUSH2 0x6EA JUMPI DUP1 PUSH4 0x8C90926F EQ PUSH2 0x6FD JUMPI DUP1 PUSH4 0x8DA5CB5B EQ PUSH2 0x705 JUMPI DUP1 PUSH4 0x90693CA7 EQ PUSH2 0x718 JUMPI PUSH0 PUSH0 REVERT JUMPDEST DUP1 PUSH4 0x2E0E3064 GT PUSH2 0x2E1 JUMPI DUP1 PUSH4 0x4B4D7AA8 GT PUSH2 0x276 JUMPI DUP1 PUSH4 0x7196D3E2 GT PUSH2 0x246 JUMPI DUP1 PUSH4 0x7196D3E2 EQ PUSH2 0x672 JUMPI DUP1 PUSH4 0x72F702F3 EQ PUSH2 0x685 JUMPI DUP1 PUSH4 0x72FADA5C EQ PUSH2 0x6C4 JUMPI DUP1 PUSH4 0x7ADBF973 EQ PUSH2 0x6D7 JUMPI PUSH0 PUSH0 REVERT JUMPDEST DUP1 PUSH4 0x4B4D7AA8 EQ PUSH2 0x619 JUMPI DUP1 PUSH4 0x4EFF3D3D EQ PUSH2 0x62C JUMPI DUP1 PUSH4 0x6241CA79 EQ PUSH2 0x64C JUMPI DUP1 PUSH4 0x647FC56C EQ PUSH2 0x65F JUMPI PUSH0 PUSH0 REVERT JUMPDEST DUP1 PUSH4 0x41AFF23E GT PUSH2 0x2B1 JUMPI DUP1 PUSH4 0x41AFF23E EQ PUSH2 0x5A5 JUMPI DUP1 PUSH4 0x4209FFF1 EQ PUSH2 0x5C4 JUMPI DUP1 PUSH4 0x45982A66 EQ PUSH2 0x5E6 JUMPI DUP1 PUSH4 0x4698B883 EQ PUSH2 0x606 JUMPI PUSH0 PUSH0 REVERT JUMPDEST DUP1 PUSH4 0x2E0E3064 EQ PUSH2 0x54A JUMPI DUP1 PUSH4 0x2FFB3D2A EQ PUSH2 0x55D JUMPI DUP1 PUSH4 0x36261236 EQ PUSH2 0x570 JUMPI DUP1 PUSH4 0x4106EE75 EQ PUSH2 0x585 JUMPI PUSH0 PUSH0 REVERT JUMPDEST DUP1 PUSH4 0x1BFC7761 GT PUSH2 0x357 JUMPI DUP1 PUSH4 0x1FB3BD93 GT PUSH2 0x327 JUMPI DUP1 PUSH4 0x1FB3BD93 EQ PUSH2 0x4E6 JUMPI DUP1 PUSH4 0x2290D577 EQ PUSH2 0x4F9 JUMPI DUP1 PUSH4 0x23B28A54 EQ PUSH2 0x518 JUMPI DUP1 PUSH4 0x23E0CEB2 EQ PUSH2 0x52B JUMPI PUSH0 PUSH0 REVERT JUMPDEST DUP1 PUSH4 0x1BFC7761 EQ PUSH2 0x45D JUMPI DUP1 PUSH4 0x1C5DC54C EQ PUSH2 0x47D JUMPI DUP1 PUSH4 0x1CC39D57 EQ PUSH2 0x486 JUMPI DUP1 PUSH4 0x1D0205B8 EQ PUSH2 0x4B8 JUMPI PUSH0 PUSH0 REVERT JUMPDEST DUP1 PUSH4 0x8F43333 GT PUSH2 0x392 JUMPI DUP1 PUSH4 0x8F43333 EQ PUSH2 0x40F JUMPI DUP1 PUSH4 0xF68AE40 EQ PUSH2 0x422 JUMPI DUP1 PUSH4 0x10AEF812 EQ PUSH2 0x435 JUMPI DUP1 PUSH4 0x168A4822 EQ PUSH2 0x455 JUMPI PUSH0 PUSH0 REVERT JUMPDEST DUP1 PUSH3 0xD6386 EQ PUSH2 0x3C2 JUMPI DUP1 PUSH4 0x5A163B6 EQ PUSH2 0x3DE JUMPI DUP1 PUSH4 0x6F960BB EQ PUSH2 0x3F3 JUMPI DUP1 PUSH4 0x8804275 EQ PUSH2 0x406 JUMPI JUMPDEST PUSH0 PUSH0 REVERT JUMPDEST PUSH2 0x3CB PUSH1 0x9 SLOAD DUP2 JUMP JUMPDEST PUSH1 0x40 MLOAD SWAP1 DUP2 MSTORE PUSH1 0x20 ADD JUMPDEST PUSH1 0x40 MLOAD DUP1 SWAP2 SUB SWAP1 RETURN JUMPDEST PUSH2 0x3F1 PUSH2 0x3EC CALLDATASIZE PUSH1 0x4 PUSH2 0x41CB JUMP JUMPDEST PUSH2 0x901 JUMP JUMPDEST STOP JUMPDEST PUSH2 0x3F1 PUSH2 0x401 CALLDATASIZE PUSH1 0x4 PUSH2 0x4222 JUMP JUMPDEST PUSH2 0xB90 JUMP JUMPDEST PUSH2 0x3CB PUSH1 0x5 SLOAD DUP2 JUMP JUMPDEST PUSH2 0x3CB PUSH2 0x41D CALLDATASIZE PUSH1 0x4 PUSH2 0x426E JUMP JUMPDEST PUSH2 0xC45 JUMP JUMPDEST PUSH2 0x3F1 PUSH2 0x430 CALLDATASIZE PUSH1 0x4 PUSH2 0x4296 JUMP JUMPDEST PUSH2 0xC70 JUMP JUMPDEST PUSH2 0x448 PUSH2 0x443 CALLDATASIZE PUSH1 0x4 PUSH2 0x42F1 JUMP JUMPDEST PUSH2 0xC9F JUMP JUMPDEST PUSH1 0x40 MLOAD PUSH2 0x3D5 SWAP2 SWAP1 PUSH2 0x439B JUMP JUMPDEST PUSH1 0xA SLOAD PUSH2 0x3CB JUMP JUMPDEST PUSH2 0x470 PUSH2 0x46B CALLDATASIZE PUSH1 0x4 PUSH2 0x4296 JUMP JUMPDEST PUSH2 0xD8F JUMP JUMPDEST PUSH1 0x40 MLOAD PUSH2 0x3D5 SWAP2 SWAP1 PUSH2 0x44AA JUMP JUMPDEST PUSH2 0x3CB PUSH1 0x11 SLOAD DUP2 JUMP JUMPDEST PUSH2 0x4A8 PUSH2 0x494 CALLDATASIZE PUSH1 0x4 PUSH2 0x4296 JUMP JUMPDEST PUSH1 0xC PUSH1 0x20 MSTORE PUSH0 SWAP1 DUP2 MSTORE PUSH1 0x40 SWAP1 KECCAK256 SLOAD PUSH1 0xFF AND DUP2 JUMP JUMPDEST PUSH1 0x40 MLOAD SWAP1 ISZERO ISZERO DUP2 MSTORE PUSH1 0x20 ADD PUSH2 0x3D5 JUMP JUMPDEST PUSH2 0x4CB PUSH2 0x4C6 CALLDATASIZE PUSH1 0x4 PUSH2 0x4296 JUMP JUMPDEST PUSH2 0xE84 JUMP JUMPDEST PUSH1 0x40 DUP1 MLOAD SWAP4 DUP5 MSTORE PUSH1 0x20 DUP5 ADD SWAP3 SWAP1 SWAP3 MSTORE SWAP1 DUP3 ADD MSTORE PUSH1 0x60 ADD PUSH2 0x3D5 JUMP JUMPDEST PUSH2 0x3F1 PUSH2 0x4F4 CALLDATASIZE PUSH1 0x4 PUSH2 0x4296 JUMP JUMPDEST PUSH2 0xEB5 JUMP JUMPDEST PUSH2 0x3CB PUSH2 0x507 CALLDATASIZE PUSH1 0x4 PUSH2 0x4296 JUMP JUMPDEST PUSH1 0xB PUSH1 0x20 MSTORE PUSH0 SWAP1 DUP2 MSTORE PUSH1 0x40 SWAP1 KECCAK256 SLOAD DUP2 JUMP JUMPDEST PUSH2 0x3F1 PUSH2 0x526 CALLDATASIZE PUSH1 0x4 PUSH2 0x44B9 JUMP JUMPDEST PUSH2 0x1130 JUMP JUMPDEST PUSH2 0x3CB PUSH2 0x539 CALLDATASIZE PUSH1 0x4 PUSH2 0x4296 JUMP JUMPDEST PUSH1 0xE PUSH1 0x20 MSTORE PUSH0 SWAP1 DUP2 MSTORE PUSH1 0x40 SWAP1 KECCAK256 SLOAD DUP2 JUMP JUMPDEST PUSH2 0x3CB PUSH2 0x558 CALLDATASIZE PUSH1 0x4 PUSH2 0x4296 JUMP JUMPDEST PUSH2 0x11BA JUMP JUMPDEST PUSH2 0x3F1 PUSH2 0x56B CALLDATASIZE PUSH1 0x4 PUSH2 0x4529 JUMP JUMPDEST PUSH2 0x142E JUMP JUMPDEST PUSH2 0x578 PUSH2 0x159E JUMP JUMPDEST PUSH1 0x40 MLOAD PUSH2 0x3D5 SWAP2 SWAP1 PUSH2 0x45F3 JUMP JUMPDEST PUSH2 0x598 PUSH2 0x593 CALLDATASIZE PUSH1 0x4 PUSH2 0x46FF JUMP JUMPDEST PUSH2 0x1873 JUMP JUMPDEST PUSH1 0x40 MLOAD PUSH2 0x3D5 SWAP2 SWAP1 PUSH2 0x471F JUMP JUMPDEST PUSH2 0x3CB PUSH2 0x5B3 CALLDATASIZE PUSH1 0x4 PUSH2 0x4296 JUMP JUMPDEST PUSH1 0x14 PUSH1 0x20 MSTORE PUSH0 SWAP1 DUP2 MSTORE PUSH1 0x40 SWAP1 KECCAK256 SLOAD DUP2 JUMP JUMPDEST PUSH2 0x4A8 PUSH2 0x5D2 CALLDATASIZE PUSH1 0x4 PUSH2 0x4762 JUMP JUMPDEST PUSH1 0x7 PUSH1 0x20 MSTORE PUSH0 SWAP1 DUP2 MSTORE PUSH1 0x40 SWAP1 KECCAK256 SLOAD PUSH1 0xFF AND DUP2 JUMP JUMPDEST PUSH2 0x5F9 PUSH2 0x5F4 CALLDATASIZE PUSH1 0x4 PUSH2 0x46FF JUMP JUMPDEST PUSH2 0x1AAF JUMP JUMPDEST PUSH1 0x40 MLOAD PUSH2 0x3D5 SWAP2 SWAP1 PUSH2 0x477B JUMP JUMPDEST PUSH2 0x598 PUSH2 0x614 CALLDATASIZE PUSH1 0x4 PUSH2 0x47BB JUMP JUMPDEST PUSH2 0x1BD0 JUMP JUMPDEST PUSH2 0x3F1 PUSH2 0x627 CALLDATASIZE PUSH1 0x4 PUSH2 0x4296 JUMP JUMPDEST PUSH2 0x1E66 JUMP JUMPDEST PUSH2 0x63F PUSH2 0x63A CALLDATASIZE PUSH1 0x4 PUSH2 0x46FF JUMP JUMPDEST PUSH2 0x1E95 JUMP JUMPDEST PUSH1 0x40 MLOAD PUSH2 0x3D5 SWAP2 SWAP1 PUSH2 0x47EB JUMP JUMPDEST PUSH2 0x3F1 PUSH2 0x65A CALLDATASIZE PUSH1 0x4 PUSH2 0x4296 JUMP JUMPDEST PUSH2 0x2081 JUMP JUMPDEST PUSH2 0x3F1 PUSH2 0x66D CALLDATASIZE PUSH1 0x4 PUSH2 0x4296 JUMP JUMPDEST PUSH2 0x2356 JUMP JUMPDEST PUSH2 0x3CB PUSH2 0x680 CALLDATASIZE PUSH1 0x4 PUSH2 0x41CB JUMP JUMPDEST PUSH2 0x25DA JUMP JUMPDEST PUSH2 0x6AC PUSH32 0x0 DUP2 JUMP JUMPDEST PUSH1 0x40 MLOAD PUSH1 0x1 PUSH1 0x1 PUSH1 0xA0 SHL SUB SWAP1 SWAP2 AND DUP2 MSTORE PUSH1 0x20 ADD PUSH2 0x3D5 JUMP JUMPDEST PUSH2 0x3F1 PUSH2 0x6D2 CALLDATASIZE PUSH1 0x4 PUSH2 0x4296 JUMP JUMPDEST PUSH2 0x2773 JUMP JUMPDEST PUSH2 0x3F1 PUSH2 0x6E5 CALLDATASIZE PUSH1 0x4 PUSH2 0x4762 JUMP JUMPDEST PUSH2 0x29AD JUMP JUMPDEST PUSH1 0x2 SLOAD PUSH2 0x6AC SWAP1 PUSH1 0x1 PUSH1 0x1 PUSH1 0xA0 SHL SUB AND DUP2 JUMP JUMPDEST PUSH2 0x3CB PUSH2 0x29F9 JUMP JUMPDEST PUSH1 0x1 SLOAD PUSH2 0x6AC SWAP1 PUSH1 0x1 PUSH1 0x1 PUSH1 0xA0 SHL SUB AND DUP2 JUMP JUMPDEST PUSH2 0x3CB PUSH2 0x726 CALLDATASIZE PUSH1 0x4 PUSH2 0x4296 JUMP JUMPDEST PUSH2 0x2A21 JUMP JUMPDEST PUSH2 0x3F1 PUSH2 0x739 CALLDATASIZE PUSH1 0x4 PUSH2 0x4296 JUMP JUMPDEST PUSH2 0x2A40 JUMP JUMPDEST PUSH1 0x13 SLOAD PUSH2 0x3CB JUMP JUMPDEST PUSH2 0x3F1 PUSH2 0x754 CALLDATASIZE PUSH1 0x4 PUSH2 0x4296 JUMP JUMPDEST PUSH2 0x2B6F JUMP JUMPDEST PUSH1 0x6 SLOAD PUSH2 0x3CB JUMP JUMPDEST PUSH2 0x3CB PUSH2 0x76F CALLDATASIZE PUSH1 0x4 PUSH2 0x4296 JUMP JUMPDEST PUSH1 0x15 PUSH1 0x20 MSTORE PUSH0 SWAP1 DUP2 MSTORE PUSH1 0x40 SWAP1 KECCAK256 SLOAD DUP2 JUMP JUMPDEST PUSH2 0x6AC PUSH2 0x78E CALLDATASIZE PUSH1 0x4 PUSH2 0x4296 JUMP JUMPDEST PUSH2 0x2BF6 JUMP JUMPDEST PUSH2 0x3CB PUSH2 0x2C1E JUMP JUMPDEST PUSH2 0x3F1 PUSH2 0x2C9F JUMP JUMPDEST PUSH2 0x7B6 PUSH2 0x7B1 CALLDATASIZE PUSH1 0x4 PUSH2 0x4296 JUMP JUMPDEST PUSH2 0x2DDD JUMP JUMPDEST PUSH1 0x40 MLOAD PUSH2 0x3D5 SWAP15 SWAP14 SWAP13 SWAP12 SWAP11 SWAP10 SWAP9 SWAP8 SWAP7 SWAP6 SWAP5 SWAP4 SWAP3 SWAP2 SWAP1 PUSH2 0x4866 JUMP JUMPDEST PUSH2 0x3F1 PUSH2 0x7DE CALLDATASIZE PUSH1 0x4 PUSH2 0x46FF JUMP JUMPDEST PUSH2 0x2E6B JUMP JUMPDEST PUSH2 0x3F1 PUSH2 0x7F1 CALLDATASIZE PUSH1 0x4 PUSH2 0x426E JUMP JUMPDEST PUSH2 0x2E8E JUMP JUMPDEST PUSH2 0x3CB PUSH1 0x12 SLOAD DUP2 JUMP JUMPDEST PUSH2 0x3F1 PUSH2 0x80D CALLDATASIZE PUSH1 0x4 PUSH2 0x4296 JUMP JUMPDEST PUSH2 0x2FAE JUMP JUMPDEST PUSH2 0x825 PUSH2 0x820 CALLDATASIZE PUSH1 0x4 PUSH2 0x4762 JUMP JUMPDEST PUSH2 0x30CA JUMP JUMPDEST PUSH1 0x40 MLOAD PUSH2 0x3D5 SWAP2 SWAP1 PUSH2 0x48F1 JUMP JUMPDEST PUSH2 0x3CB PUSH2 0x840 CALLDATASIZE PUSH1 0x4 PUSH2 0x4296 JUMP JUMPDEST PUSH1 0x16 PUSH1 0x20 MSTORE PUSH0 SWAP1 DUP2 MSTORE PUSH1 0x40 SWAP1 KECCAK256 SLOAD DUP2 JUMP JUMPDEST PUSH2 0x3CB PUSH1 0xF SLOAD DUP2 JUMP JUMPDEST PUSH2 0x3CB PUSH2 0x3133 JUMP JUMPDEST PUSH2 0x598 PUSH2 0x870 CALLDATASIZE PUSH1 0x4 PUSH2 0x46FF JUMP JUMPDEST PUSH2 0x317E JUMP JUMPDEST PUSH2 0x3F1 PUSH2 0x883 CALLDATASIZE PUSH1 0x4 PUSH2 0x4296 JUMP JUMPDEST PUSH2 0x3384 JUMP JUMPDEST PUSH2 0x3CB PUSH2 0x896 CALLDATASIZE PUSH1 0x4 PUSH2 0x4762 JUMP JUMPDEST PUSH1 0x1 PUSH1 0x1 PUSH1 0xA0 SHL SUB AND PUSH0 SWAP1 DUP2 MSTORE PUSH1 0x8 PUSH1 0x20 MSTORE PUSH1 0x40 SWAP1 KECCAK256 SLOAD SWAP1 JUMP JUMPDEST PUSH1 0xD SLOAD PUSH2 0x3CB JUMP JUMPDEST PUSH2 0x3CB PUSH2 0x8C6 CALLDATASIZE PUSH1 0x4 PUSH2 0x44B9 JUMP JUMPDEST PUSH2 0x35E5 JUMP JUMPDEST PUSH2 0x5F9 PUSH2 0x3787 JUMP JUMPDEST PUSH2 0x3F1 PUSH2 0x8E1 CALLDATASIZE PUSH1 0x4 PUSH2 0x4762 JUMP JUMPDEST PUSH2 0x37E7 JUMP JUMPDEST PUSH2 0x3CB PUSH1 0x3 SLOAD DUP2 JUMP JUMPDEST PUSH2 0x3CB PUSH1 0x4 SLOAD DUP2 JUMP JUMPDEST PUSH2 0x3CB PUSH1 0x10 SLOAD DUP2 JUMP JUMPDEST PUSH1 0x1 SLOAD PUSH1 0x1 PUSH1 0x1 PUSH1 0xA0 SHL SUB AND CALLER EQ PUSH2 0x934 JUMPI PUSH1 0x40 MLOAD PUSH3 0x461BCD PUSH1 0xE5 SHL DUP2 MSTORE PUSH1 0x4 ADD PUSH2 0x92B SWAP1 PUSH2 0x4928 JUMP JUMPDEST PUSH1 0x40 MLOAD DUP1 SWAP2 SUB SWAP1 REVERT JUMPDEST PUSH1 0x13 SLOAD DUP5 LT PUSH2 0x971 JUMPI PUSH1 0x40 MLOAD PUSH3 0x461BCD PUSH1 0xE5 SHL DUP2 MSTORE PUSH1 0x20 PUSH1 0x4 DUP3 ADD MSTORE PUSH1 0x9 PUSH1 0x24 DUP3 ADD MSTORE PUSH9 0x24B73232BC1027A7A1 PUSH1 0xB9 SHL PUSH1 0x44 DUP3 ADD MSTORE PUSH1 0x64 ADD PUSH2 0x92B JUMP JUMPDEST DUP2 DUP4 LT PUSH2 0x9B0 JUMPI PUSH1 0x40 MLOAD PUSH3 0x461BCD PUSH1 0xE5 SHL DUP2 MSTORE PUSH1 0x20 PUSH1 0x4 DUP3 ADD MSTORE PUSH1 0xD PUSH1 0x24 DUP3 ADD MSTORE PUSH13 0x496E76616C69642072616E6765 PUSH1 0x98 SHL PUSH1 0x44 DUP3 ADD MSTORE PUSH1 0x64 ADD PUSH2 0x92B JUMP JUMPDEST DUP1 ISZERO PUSH2 0x9D8 JUMPI PUSH2 0x2710 DUP2 GT ISZERO PUSH2 0x9D8 JUMPI PUSH1 0x40 MLOAD PUSH3 0x461BCD PUSH1 0xE5 SHL DUP2 MSTORE PUSH1 0x4 ADD PUSH2 0x92B SWAP1 PUSH2 0x494C JUMP JUMPDEST TIMESTAMP DUP4 GT PUSH2 0xA11 JUMPI PUSH1 0x40 MLOAD PUSH3 0x461BCD PUSH1 0xE5 SHL DUP2 MSTORE PUSH1 0x20 PUSH1 0x4 DUP3 ADD MSTORE PUSH1 0x7 PUSH1 0x24 DUP3 ADD MSTORE PUSH7 0x14DD185C9D1959 PUSH1 0xCA SHL PUSH1 0x44 DUP3 ADD MSTORE PUSH1 0x64 ADD PUSH2 0x92B JUMP JUMPDEST DUP4 ISZERO PUSH2 0xA79 JUMPI PUSH1 0x13 PUSH2 0xA24 PUSH1 0x1 DUP7 PUSH2 0x4985 JUMP JUMPDEST DUP2 SLOAD DUP2 LT PUSH2 0xA34 JUMPI PUSH2 0xA34 PUSH2 0x4998 JUMP JUMPDEST SWAP1 PUSH0 MSTORE PUSH1 0x20 PUSH0 KECCAK256 SWAP1 PUSH1 0x3 MUL ADD PUSH1 0x1 ADD SLOAD DUP4 LT ISZERO PUSH2 0xA79 JUMPI PUSH1 0x40 MLOAD PUSH3 0x461BCD PUSH1 0xE5 SHL DUP2 MSTORE PUSH1 0x20 PUSH1 0x4 DUP3 ADD MSTORE PUSH1 0x3 PUSH1 0x24 DUP3 ADD MSTORE PUSH3 0x536571 PUSH1 0xE8 SHL PUSH1 0x44 DUP3 ADD MSTORE PUSH1 0x64 ADD PUSH2 0x92B JUMP JUMPDEST PUSH1 0x13 SLOAD PUSH2 0xA87 DUP6 PUSH1 0x1 PUSH2 0x49AC JUMP JUMPDEST LT ISZERO PUSH2 0xAF2 JUMPI PUSH1 0x13 PUSH2 0xA9A DUP6 PUSH1 0x1 PUSH2 0x49AC JUMP JUMPDEST DUP2 SLOAD DUP2 LT PUSH2 0xAAA JUMPI PUSH2 0xAAA PUSH2 0x4998 JUMP JUMPDEST SWAP1 PUSH0 MSTORE PUSH1 0x20 PUSH0 KECCAK256 SWAP1 PUSH1 0x3 MUL ADD PUSH0 ADD SLOAD DUP3 GT ISZERO PUSH2 0xAF2 JUMPI PUSH1 0x40 MLOAD PUSH3 0x461BCD PUSH1 0xE5 SHL DUP2 MSTORE PUSH1 0x20 PUSH1 0x4 DUP3 ADD MSTORE PUSH1 0x7 PUSH1 0x24 DUP3 ADD MSTORE PUSH7 0x4F7665726C617 PUSH1 0xCC SHL PUSH1 0x44 DUP3 ADD MSTORE PUSH1 0x64 ADD PUSH2 0x92B JUMP JUMPDEST PUSH1 0x40 MLOAD DUP1 PUSH1 0x60 ADD PUSH1 0x40 MSTORE DUP1 DUP5 DUP2 MSTORE PUSH1 0x20 ADD DUP4 DUP2 MSTORE PUSH1 0x20 ADD DUP3 DUP2 MSTORE POP PUSH1 0x13 DUP6 DUP2 SLOAD DUP2 LT PUSH2 0xB20 JUMPI PUSH2 0xB20 PUSH2 0x4998 JUMP JUMPDEST PUSH0 SWAP2 DUP3 MSTORE PUSH1 0x20 SWAP2 DUP3 SWAP1 KECCAK256 DUP4 MLOAD PUSH1 0x3 SWAP1 SWAP3 MUL ADD SWAP1 DUP2 SSTORE DUP3 DUP3 ADD MLOAD PUSH1 0x1 DUP3 ADD SSTORE PUSH1 0x40 SWAP3 DUP4 ADD MLOAD PUSH1 0x2 SWAP1 SWAP2 ADD SSTORE DUP2 MLOAD DUP6 DUP2 MSTORE SWAP1 DUP2 ADD DUP5 SWAP1 MSTORE SWAP1 DUP2 ADD DUP3 SWAP1 MSTORE DUP5 SWAP1 PUSH32 0x68F039AF08C3A62DAE4B7E4244543803DCE43C9C5A2AD9EF05FEA8366F4C8623 SWAP1 PUSH1 0x60 ADD PUSH1 0x40 MLOAD DUP1 SWAP2 SUB SWAP1 LOG2 POP POP POP POP JUMP JUMPDEST PUSH2 0xB98 PUSH2 0x3859 JUMP JUMPDEST PUSH1 0x1 SLOAD PUSH1 0x1 PUSH1 0x1 PUSH1 0xA0 SHL SUB AND CALLER EQ DUP1 PUSH2 0xBBB JUMPI POP PUSH1 0x2 SLOAD PUSH1 0x1 PUSH1 0x1 PUSH1 0xA0 SHL SUB AND CALLER EQ JUMPDEST PUSH2 0xBFE JUMPI PUSH1 0x40 MLOAD PUSH3 0x461BCD PUSH1 0xE5 SHL DUP2 MSTORE PUSH1 0x20 PUSH1 0x4 DUP3 ADD MSTORE PUSH1 0x14 PUSH1 0x24 DUP3 ADD MSTORE PUSH20 0x4F6E6C79206F776E6572206F72206F7261636C65 PUSH1 0x60 SHL PUSH1 0x44 DUP3 ADD MSTORE PUSH1 0x64 ADD PUSH2 0x92B JUMP JUMPDEST DUP2 ISZERO PUSH2 0xC26 JUMPI PUSH2 0x2710 DUP2 GT ISZERO PUSH2 0xC26 JUMPI PUSH1 0x40 MLOAD PUSH3 0x461BCD PUSH1 0xE5 SHL DUP2 MSTORE PUSH1 0x4 ADD PUSH2 0x92B SWAP1 PUSH2 0x494C JUMP JUMPDEST PUSH2 0xC35 DUP6 DUP6 DUP6 DUP6 DUP6 PUSH1 0x1 PUSH2 0x3881 JUMP JUMPDEST PUSH2 0xC3E PUSH1 0x1 PUSH0 SSTORE JUMP JUMPDEST POP POP POP POP POP JUMP JUMPDEST PUSH1 0x8 PUSH1 0x20 MSTORE DUP2 PUSH0 MSTORE PUSH1 0x40 PUSH0 KECCAK256 DUP2 DUP2 SLOAD DUP2 LT PUSH2 0xC5E JUMPI PUSH0 DUP1 REVERT JUMPDEST SWAP1 PUSH0 MSTORE PUSH1 0x20 PUSH0 KECCAK256 ADD PUSH0 SWAP2 POP SWAP2 POP POP SLOAD DUP2 JUMP JUMPDEST PUSH1 0x1 SLOAD PUSH1 0x1 PUSH1 0x1 PUSH1 0xA0 SHL SUB AND CALLER EQ PUSH2 0xC9A JUMPI PUSH1 0x40 MLOAD PUSH3 0x461BCD PUSH1 0xE5 SHL DUP2 MSTORE PUSH1 0x4 ADD PUSH2 0x92B SWAP1 PUSH2 0x4928 JUMP JUMPDEST PUSH1 0x5 SSTORE JUMP JUMPDEST PUSH1 0x60 DUP2 MLOAD PUSH1 0x1 PUSH1 0x1 PUSH1 0x40 SHL SUB DUP2 GT ISZERO PUSH2 0xCBA JUMPI PUSH2 0xCBA PUSH2 0x42AD JUMP JUMPDEST PUSH1 0x40 MLOAD SWAP1 DUP1 DUP3 MSTORE DUP1 PUSH1 0x20 MUL PUSH1 0x20 ADD DUP3 ADD PUSH1 0x40 MSTORE DUP1 ISZERO PUSH2 0xCFE JUMPI DUP2 PUSH1 0x20 ADD JUMPDEST PUSH1 0x40 DUP1 MLOAD DUP1 DUP3 ADD SWAP1 SWAP2 MSTORE PUSH0 DUP1 DUP3 MSTORE PUSH1 0x20 DUP3 ADD MSTORE DUP2 MSTORE PUSH1 0x20 ADD SWAP1 PUSH1 0x1 SWAP1 SUB SWAP1 DUP2 PUSH2 0xCD8 JUMPI SWAP1 POP JUMPDEST POP SWAP1 POP PUSH0 JUMPDEST DUP3 MLOAD DUP2 LT ISZERO PUSH2 0xD89 JUMPI PUSH1 0x40 MLOAD DUP1 PUSH1 0x40 ADD PUSH1 0x40 MSTORE DUP1 DUP5 DUP4 DUP2 MLOAD DUP2 LT PUSH2 0xD29 JUMPI PUSH2 0xD29 PUSH2 0x4998 JUMP JUMPDEST PUSH1 0x20 MUL PUSH1 0x20 ADD ADD MLOAD DUP2 MSTORE PUSH1 0x20 ADD PUSH1 0xB PUSH0 DUP7 DUP6 DUP2 MLOAD DUP2 LT PUSH2 0xD4B JUMPI PUSH2 0xD4B PUSH2 0x4998 JUMP JUMPDEST PUSH1 0x20 MUL PUSH1 0x20 ADD ADD MLOAD DUP2 MSTORE PUSH1 0x20 ADD SWAP1 DUP2 MSTORE PUSH1 0x20 ADD PUSH0 KECCAK256 SLOAD DUP2 MSTORE POP DUP3 DUP3 DUP2 MLOAD DUP2 LT PUSH2 0xD76 JUMPI PUSH2 0xD76 PUSH2 0x4998 JUMP JUMPDEST PUSH1 0x20 SWAP1 DUP2 MUL SWAP2 SWAP1 SWAP2 ADD ADD MSTORE PUSH1 0x1 ADD PUSH2 0xD03 JUMP JUMPDEST POP SWAP2 SWAP1 POP JUMP JUMPDEST PUSH2 0xD97 PUSH2 0x415B JUMP JUMPDEST PUSH1 0xA DUP3 DUP2 SLOAD DUP2 LT PUSH2 0xDAA JUMPI PUSH2 0xDAA PUSH2 0x4998 JUMP JUMPDEST PUSH0 SWAP2 DUP3 MSTORE PUSH1 0x20 SWAP2 DUP3 SWAP1 KECCAK256 PUSH1 0x40 DUP1 MLOAD PUSH2 0x1C0 DUP2 ADD DUP3 MSTORE PUSH1 0xD SWAP1 SWAP4 MUL SWAP1 SWAP2 ADD DUP1 SLOAD DUP4 MSTORE PUSH1 0x1 DUP2 ADD SLOAD PUSH1 0x1 PUSH1 0x1 PUSH1 0xA0 SHL SUB AND SWAP4 DUP4 ADD SWAP4 SWAP1 SWAP4 MSTORE PUSH1 0x2 DUP4 ADD SLOAD SWAP1 DUP3 ADD MSTORE PUSH1 0x3 DUP3 ADD SLOAD PUSH1 0x60 DUP3 ADD MSTORE PUSH1 0x4 DUP3 ADD SLOAD PUSH1 0x80 DUP3 ADD MSTORE PUSH1 0x5 DUP3 ADD SLOAD PUSH1 0xA0 DUP3 ADD MSTORE PUSH1 0x6 DUP3 ADD SLOAD PUSH1 0xC0 DUP3 ADD MSTORE PUSH1 0x7 DUP3 ADD SLOAD PUSH1 0xE0 DUP3 ADD MSTORE PUSH1 0x8 DUP3 ADD SLOAD PUSH2 0x100 DUP1 DUP4 ADD SWAP2 SWAP1 SWAP2 MSTORE PUSH1 0x9 DUP4 ADD SLOAD PUSH1 0xFF DUP1 DUP3 AND ISZERO ISZERO PUSH2 0x120 DUP6 ADD MSTORE SWAP2 SWAP1 DIV DUP2 AND ISZERO ISZERO PUSH2 0x140 DUP4 ADD MSTORE PUSH1 0xA DUP4 ADD SLOAD PUSH2 0x160 DUP4 ADD MSTORE PUSH1 0xB DUP4 ADD SLOAD AND ISZERO ISZERO PUSH2 0x180 DUP3 ADD MSTORE PUSH1 0xC SWAP1 SWAP2 ADD SLOAD PUSH2 0x1A0 DUP3 ADD MSTORE SWAP1 POP PUSH2 0xE79 DUP3 PUSH2 0x11BA JUMP JUMPDEST PUSH2 0x100 DUP3 ADD MSTORE SWAP2 SWAP1 POP JUMP JUMPDEST PUSH1 0x13 DUP2 DUP2 SLOAD DUP2 LT PUSH2 0xE93 JUMPI PUSH0 DUP1 REVERT JUMPDEST PUSH0 SWAP2 DUP3 MSTORE PUSH1 0x20 SWAP1 SWAP2 KECCAK256 PUSH1 0x3 SWAP1 SWAP2 MUL ADD DUP1 SLOAD PUSH1 0x1 DUP3 ADD SLOAD PUSH1 0x2 SWAP1 SWAP3 ADD SLOAD SWAP1 SWAP3 POP DUP4 JUMP JUMPDEST PUSH2 0xEBD PUSH2 0x3859 JUMP JUMPDEST PUSH0 PUSH1 0xA DUP3 DUP2 SLOAD DUP2 LT PUSH2 0xED1 JUMPI PUSH2 0xED1 PUSH2 0x4998 JUMP JUMPDEST PUSH0 SWAP2 DUP3 MSTORE PUSH1 0x20 SWAP1 SWAP2 KECCAK256 PUSH1 0xD SWAP1 SWAP2 MUL ADD PUSH1 0x9 DUP2 ADD SLOAD SWAP1 SWAP2 POP PUSH1 0xFF AND ISZERO PUSH2 0xF24 JUMPI PUSH1 0x40 MLOAD PUSH3 0x461BCD PUSH1 0xE5 SHL DUP2 MSTORE PUSH1 0x20 PUSH1 0x4 DUP3 ADD MSTORE PUSH1 0x9 PUSH1 0x24 DUP3 ADD MSTORE PUSH9 0x497320616374697665 PUSH1 0xB8 SHL PUSH1 0x44 DUP3 ADD MSTORE PUSH1 0x64 ADD PUSH2 0x92B JUMP JUMPDEST PUSH1 0x1 DUP2 ADD SLOAD PUSH1 0x1 PUSH1 0x1 PUSH1 0xA0 SHL SUB AND CALLER EQ PUSH2 0xF50 JUMPI PUSH1 0x40 MLOAD PUSH3 0x461BCD PUSH1 0xE5 SHL DUP2 MSTORE PUSH1 0x4 ADD PUSH2 0x92B SWAP1 PUSH2 0x49BF JUMP JUMPDEST PUSH1 0x9 DUP2 ADD SLOAD PUSH2 0x100 SWAP1 DIV PUSH1 0xFF AND PUSH2 0xF95 JUMPI PUSH1 0x40 MLOAD PUSH3 0x461BCD PUSH1 0xE5 SHL DUP2 MSTORE PUSH1 0x20 PUSH1 0x4 DUP3 ADD MSTORE PUSH1 0x9 PUSH1 0x24 DUP3 ADD MSTORE PUSH9 0x139BDD081CD85D9959 PUSH1 0xBA SHL PUSH1 0x44 DUP3 ADD MSTORE PUSH1 0x64 ADD PUSH2 0x92B JUMP JUMPDEST DUP1 PUSH1 0xA ADD SLOAD PUSH1 0x12 SLOAD LT ISZERO PUSH2 0xFBB JUMPI PUSH1 0x40 MLOAD PUSH3 0x461BCD PUSH1 0xE5 SHL DUP2 MSTORE PUSH1 0x4 ADD PUSH2 0x92B SWAP1 PUSH2 0x49E2 JUMP JUMPDEST PUSH0 DUP2 PUSH1 0xA ADD SLOAD SWAP1 POP DUP1 PUSH1 0x12 PUSH0 DUP3 DUP3 SLOAD PUSH2 0xFD4 SWAP2 SWAP1 PUSH2 0x4985 JUMP JUMPDEST SWAP3 POP POP DUP2 SWAP1 SSTORE POP DUP1 PUSH1 0x11 PUSH0 DUP3 DUP3 SLOAD PUSH2 0xFEC SWAP2 SWAP1 PUSH2 0x49AC JUMP JUMPDEST SWAP1 SWAP2 SSTORE POP POP PUSH0 DUP4 DUP2 MSTORE PUSH1 0xB PUSH1 0x20 MSTORE PUSH1 0x40 DUP2 KECCAK256 DUP1 SLOAD DUP4 SWAP3 SWAP1 PUSH2 0x100E SWAP1 DUP5 SWAP1 PUSH2 0x49AC JUMP JUMPDEST SWAP1 SWAP2 SSTORE POP POP DUP1 ISZERO PUSH2 0x10C3 JUMPI PUSH1 0x40 MLOAD PUSH4 0xA9059CBB PUSH1 0xE0 SHL DUP2 MSTORE CALLER PUSH1 0x4 DUP3 ADD MSTORE PUSH1 0x24 DUP2 ADD DUP3 SWAP1 MSTORE PUSH32 0x0 PUSH1 0x1 PUSH1 0x1 PUSH1 0xA0 SHL SUB AND SWAP1 PUSH4 0xA9059CBB SWAP1 PUSH1 0x44 ADD PUSH1 0x20 PUSH1 0x40 MLOAD DUP1 DUP4 SUB DUP2 PUSH0 DUP8 GAS CALL ISZERO DUP1 ISZERO PUSH2 0x1083 JUMPI RETURNDATASIZE PUSH0 PUSH0 RETURNDATACOPY RETURNDATASIZE PUSH0 REVERT JUMPDEST POP POP POP POP PUSH1 0x40 MLOAD RETURNDATASIZE PUSH1 0x1F NOT PUSH1 0x1F DUP3 ADD AND DUP3 ADD DUP1 PUSH1 0x40 MSTORE POP DUP2 ADD SWAP1 PUSH2 0x10A7 SWAP2 SWAP1 PUSH2 0x4A06 JUMP JUMPDEST PUSH2 0x10C3 JUMPI PUSH1 0x40 MLOAD PUSH3 0x461BCD PUSH1 0xE5 SHL DUP2 MSTORE PUSH1 0x4 ADD PUSH2 0x92B SWAP1 PUSH2 0x4A21 JUMP JUMPDEST PUSH1 0x9 DUP3 ADD DUP1 SLOAD PUSH2 0xFF00 NOT AND SWAP1 SSTORE PUSH0 PUSH1 0xA DUP4 ADD SSTORE PUSH1 0x1 DUP3 ADD SLOAD DUP3 SLOAD PUSH1 0x40 DUP1 MLOAD SWAP2 DUP3 MSTORE PUSH1 0x20 DUP3 ADD DUP5 SWAP1 MSTORE PUSH1 0x1 PUSH1 0x1 PUSH1 0xA0 SHL SUB SWAP1 SWAP3 AND SWAP2 PUSH32 0x89944602FCC483994090377F9ABD25A68EE71AE7EF66DB82411CC0739AB35CD8 SWAP2 ADD PUSH1 0x40 MLOAD DUP1 SWAP2 SUB SWAP1 LOG2 POP POP PUSH2 0x112D PUSH1 0x1 PUSH0 SSTORE JUMP JUMPDEST POP JUMP JUMPDEST PUSH1 0x1 SLOAD PUSH1 0x1 PUSH1 0x1 PUSH1 0xA0 SHL SUB AND CALLER EQ PUSH2 0x115A JUMPI PUSH1 0x40 MLOAD PUSH3 0x461BCD PUSH1 0xE5 SHL DUP2 MSTORE PUSH1 0x4 ADD PUSH2 0x92B SWAP1 PUSH2 0x4928 JUMP JUMPDEST PUSH2 0x1165 DUP4 DUP4 DUP4 PUSH2 0x3E3D JUMP JUMPDEST PUSH1 0x13 SLOAD PUSH2 0x1174 SWAP1 PUSH1 0x1 SWAP1 PUSH2 0x4985 JUMP JUMPDEST PUSH1 0x40 DUP1 MLOAD DUP6 DUP2 MSTORE PUSH1 0x20 DUP2 ADD DUP6 SWAP1 MSTORE SWAP1 DUP2 ADD DUP4 SWAP1 MSTORE PUSH32 0x901D51AF3F40466612C7BE89BA349F0B5AA321186BB4DE023367F1CA25ACDCED SWAP1 PUSH1 0x60 ADD PUSH1 0x40 MLOAD DUP1 SWAP2 SUB SWAP1 LOG2 POP POP POP JUMP JUMPDEST PUSH0 PUSH0 PUSH1 0xA DUP4 DUP2 SLOAD DUP2 LT PUSH2 0x11CF JUMPI PUSH2 0x11CF PUSH2 0x4998 JUMP JUMPDEST PUSH0 SWAP2 DUP3 MSTORE PUSH1 0x20 SWAP2 DUP3 SWAP1 KECCAK256 PUSH1 0x40 DUP1 MLOAD PUSH2 0x1C0 DUP2 ADD DUP3 MSTORE PUSH1 0xD SWAP1 SWAP4 MUL SWAP1 SWAP2 ADD DUP1 SLOAD DUP4 MSTORE PUSH1 0x1 DUP2 ADD SLOAD PUSH1 0x1 PUSH1 0x1 PUSH1 0xA0 SHL SUB AND SWAP4 DUP4 ADD SWAP4 SWAP1 SWAP4 MSTORE PUSH1 0x2 DUP4 ADD SLOAD SWAP1 DUP3 ADD MSTORE PUSH1 0x3 DUP3 ADD SLOAD PUSH1 0x60 DUP3 ADD MSTORE PUSH1 0x4 DUP3 ADD SLOAD PUSH1 0x80 DUP3 ADD MSTORE PUSH1 0x5 DUP3 ADD SLOAD PUSH1 0xA0 DUP3 ADD MSTORE PUSH1 0x6 DUP3 ADD SLOAD PUSH1 0xC0 DUP3 ADD MSTORE PUSH1 0x7 DUP3 ADD SLOAD PUSH1 0xE0 DUP3 ADD MSTORE PUSH1 0x8 DUP3 ADD SLOAD PUSH2 0x100 DUP1 DUP4 ADD SWAP2 SWAP1 SWAP2 MSTORE PUSH1 0x9 DUP4 ADD SLOAD PUSH1 0xFF DUP1 DUP3 AND ISZERO ISZERO PUSH2 0x120 DUP6 ADD MSTORE SWAP2 SWAP1 DIV DUP2 AND ISZERO DUP1 ISZERO PUSH2 0x140 DUP5 ADD MSTORE PUSH1 0xA DUP5 ADD SLOAD PUSH2 0x160 DUP5 ADD MSTORE PUSH1 0xB DUP5 ADD SLOAD SWAP1 SWAP2 AND ISZERO ISZERO PUSH2 0x180 DUP4 ADD MSTORE PUSH1 0xC SWAP1 SWAP3 ADD SLOAD PUSH2 0x1A0 DUP3 ADD MSTORE SWAP2 POP PUSH2 0x12A7 JUMPI PUSH2 0x160 ADD MLOAD SWAP3 SWAP2 POP POP JUMP JUMPDEST PUSH1 0x40 DUP2 ADD MLOAD ISZERO DUP1 PUSH2 0x12BB JUMPI POP DUP1 PUSH2 0x120 ADD MLOAD ISZERO JUMPDEST ISZERO PUSH2 0x12C8 JUMPI POP PUSH0 SWAP3 SWAP2 POP POP JUMP JUMPDEST PUSH1 0xE0 DUP2 ADD MLOAD PUSH0 PUSH2 0x12D8 DUP3 DUP3 PUSH2 0x3FB3 JUMP JUMPDEST SWAP1 POP DUP2 DUP2 GT PUSH2 0x12EB JUMPI POP PUSH0 SWAP5 SWAP4 POP POP POP POP JUMP JUMPDEST PUSH1 0x40 DUP4 ADD MLOAD PUSH0 SWAP1 DUP4 JUMPDEST DUP4 DUP2 LT ISZERO PUSH2 0x1422 JUMPI PUSH0 PUSH1 0x13 DUP3 DUP2 SLOAD DUP2 LT PUSH2 0x1310 JUMPI PUSH2 0x1310 PUSH2 0x4998 JUMP JUMPDEST SWAP1 PUSH0 MSTORE PUSH1 0x20 PUSH0 KECCAK256 SWAP1 PUSH1 0x3 MUL ADD PUSH1 0x40 MLOAD DUP1 PUSH1 0x60 ADD PUSH1 0x40 MSTORE SWAP1 DUP2 PUSH0 DUP3 ADD SLOAD DUP2 MSTORE PUSH1 0x20 ADD PUSH1 0x1 DUP3 ADD SLOAD DUP2 MSTORE PUSH1 0x20 ADD PUSH1 0x2 DUP3 ADD SLOAD DUP2 MSTORE POP POP SWAP1 POP PUSH0 DUP8 PUSH2 0x180 ADD MLOAD PUSH2 0x135F JUMPI PUSH2 0x135A DUP4 PUSH2 0x4001 JUMP JUMPDEST PUSH2 0x1366 JUMP JUMPDEST DUP8 PUSH2 0x1A0 ADD MLOAD JUMPDEST SWAP1 POP PUSH0 PUSH2 0x2710 PUSH2 0x1376 DUP4 DUP8 PUSH2 0x4A4A JUMP JUMPDEST PUSH2 0x1380 SWAP2 SWAP1 PUSH2 0x4A61 JUMP JUMPDEST SWAP1 POP DUP9 PUSH1 0x60 ADD MLOAD DUP5 SUB PUSH2 0x1409 JUMPI DUP3 MLOAD PUSH1 0x20 DUP5 ADD MLOAD PUSH0 PUSH2 0x139F DUP4 DUP4 PUSH2 0x4985 JUMP JUMPDEST SWAP1 POP PUSH0 DUP4 DUP14 PUSH1 0x80 ADD MLOAD GT PUSH2 0x13B3 JUMPI DUP4 PUSH2 0x13B9 JUMP JUMPDEST DUP13 PUSH1 0x80 ADD MLOAD JUMPDEST SWAP1 POP DUP3 DUP1 DUP3 LT PUSH2 0x13D0 JUMPI POP POP POP POP POP POP POP POP PUSH2 0x141A JUMP JUMPDEST PUSH0 PUSH2 0x13DB DUP4 DUP4 PUSH2 0x4985 JUMP JUMPDEST SWAP1 POP DUP4 PUSH2 0x13E8 DUP3 DUP10 PUSH2 0x4A4A JUMP JUMPDEST PUSH2 0x13F2 SWAP2 SWAP1 PUSH2 0x4A61 JUMP JUMPDEST PUSH2 0x13FC SWAP1 DUP14 PUSH2 0x49AC JUMP JUMPDEST SWAP12 POP POP POP POP POP POP POP PUSH2 0x1416 JUMP JUMPDEST PUSH2 0x1413 DUP2 DUP8 PUSH2 0x49AC JUMP JUMPDEST SWAP6 POP JUMPDEST POP POP POP JUMPDEST PUSH1 0x1 ADD PUSH2 0x12F4 JUMP JUMPDEST POP SWAP1 SWAP7 SWAP6 POP POP POP POP POP POP JUMP JUMPDEST PUSH1 0x1 SLOAD PUSH1 0x1 PUSH1 0x1 PUSH1 0xA0 SHL SUB AND CALLER EQ PUSH2 0x1458 JUMPI PUSH1 0x40 MLOAD PUSH3 0x461BCD PUSH1 0xE5 SHL DUP2 MSTORE PUSH1 0x4 ADD PUSH2 0x92B SWAP1 PUSH2 0x4928 JUMP JUMPDEST DUP5 DUP4 EQ DUP1 ISZERO PUSH2 0x1466 JUMPI POP DUP5 DUP2 EQ JUMPDEST PUSH2 0x14A4 JUMPI PUSH1 0x40 MLOAD PUSH3 0x461BCD PUSH1 0xE5 SHL DUP2 MSTORE PUSH1 0x20 PUSH1 0x4 DUP3 ADD MSTORE PUSH1 0xF PUSH1 0x24 DUP3 ADD MSTORE PUSH15 0x98CADCCEE8D040DAD2E6DAC2E8C6D PUSH1 0x8B SHL PUSH1 0x44 DUP3 ADD MSTORE PUSH1 0x64 ADD PUSH2 0x92B JUMP JUMPDEST DUP5 PUSH2 0x14D9 JUMPI PUSH1 0x40 MLOAD PUSH3 0x461BCD PUSH1 0xE5 SHL DUP2 MSTORE PUSH1 0x20 PUSH1 0x4 DUP3 ADD MSTORE PUSH1 0x5 PUSH1 0x24 DUP3 ADD MSTORE PUSH5 0x456D707479 PUSH1 0xD8 SHL PUSH1 0x44 DUP3 ADD MSTORE PUSH1 0x64 ADD PUSH2 0x92B JUMP JUMPDEST PUSH0 JUMPDEST DUP6 DUP2 LT ISZERO PUSH2 0x153E JUMPI PUSH2 0x1536 DUP8 DUP8 DUP4 DUP2 DUP2 LT PUSH2 0x14F8 JUMPI PUSH2 0x14F8 PUSH2 0x4998 JUMP JUMPDEST SWAP1 POP PUSH1 0x20 MUL ADD CALLDATALOAD DUP7 DUP7 DUP5 DUP2 DUP2 LT PUSH2 0x1511 JUMPI PUSH2 0x1511 PUSH2 0x4998 JUMP JUMPDEST SWAP1 POP PUSH1 0x20 MUL ADD CALLDATALOAD DUP6 DUP6 DUP6 DUP2 DUP2 LT PUSH2 0x152A JUMPI PUSH2 0x152A PUSH2 0x4998 JUMP JUMPDEST SWAP1 POP PUSH1 0x20 MUL ADD CALLDATALOAD PUSH2 0x3E3D JUMP JUMPDEST PUSH1 0x1 ADD PUSH2 0x14DB JUMP JUMPDEST POP PUSH1 0x13 SLOAD PUSH32 0xAB080E234EBAB87937F1D48C107ECB8AB6361D9012A0670705E920B9CFFE1011 SWAP1 PUSH2 0x156F SWAP1 DUP8 SWAP1 PUSH2 0x4985 JUMP JUMPDEST PUSH1 0x13 SLOAD PUSH2 0x157E SWAP1 PUSH1 0x1 SWAP1 PUSH2 0x4985 JUMP JUMPDEST PUSH1 0x40 DUP1 MLOAD SWAP3 DUP4 MSTORE PUSH1 0x20 DUP4 ADD SWAP2 SWAP1 SWAP2 MSTORE ADD PUSH1 0x40 MLOAD DUP1 SWAP2 SUB SWAP1 LOG1 POP POP POP POP POP POP JUMP JUMPDEST PUSH2 0x1622 PUSH1 0x40 MLOAD DUP1 PUSH2 0x220 ADD PUSH1 0x40 MSTORE DUP1 PUSH0 DUP2 MSTORE PUSH1 0x20 ADD PUSH0 DUP2 MSTORE PUSH1 0x20 ADD PUSH0 DUP2 MSTORE PUSH1 0x20 ADD PUSH0 DUP2 MSTORE PUSH1 0x20 ADD PUSH0 DUP2 MSTORE PUSH1 0x20 ADD PUSH0 DUP2 MSTORE PUSH1 0x20 ADD PUSH0 PUSH1 0xFF AND DUP2 MSTORE PUSH1 0x20 ADD PUSH1 0x60 DUP2 MSTORE PUSH1 0x20 ADD PUSH1 0x60 DUP2 MSTORE PUSH1 0x20 ADD PUSH0 PUSH1 0x1 PUSH1 0x1 PUSH1 0xA0 SHL SUB AND DUP2 MSTORE PUSH1 0x20 ADD PUSH0 DUP2 MSTORE PUSH1 0x20 ADD PUSH0 DUP2 MSTORE PUSH1 0x20 ADD PUSH0 DUP2 MSTORE PUSH1 0x20 ADD PUSH0 DUP2 MSTORE PUSH1 0x20 ADD PUSH0 DUP2 MSTORE PUSH1 0x20 ADD PUSH0 DUP2 MSTORE PUSH1 0x20 ADD PUSH0 DUP2 MSTORE POP SWAP1 JUMP JUMPDEST PUSH1 0x40 MLOAD DUP1 PUSH2 0x220 ADD PUSH1 0x40 MSTORE DUP1 PUSH1 0x6 DUP1 SLOAD SWAP1 POP DUP2 MSTORE PUSH1 0x20 ADD PUSH1 0xF SLOAD DUP2 MSTORE PUSH1 0x20 ADD PUSH1 0xA DUP1 SLOAD SWAP1 POP DUP2 MSTORE PUSH1 0x20 ADD PUSH1 0x10 SLOAD DUP2 MSTORE PUSH1 0x20 ADD PUSH1 0x11 SLOAD DUP2 MSTORE PUSH1 0x20 ADD PUSH1 0x12 SLOAD DUP2 MSTORE PUSH1 0x20 ADD PUSH32 0x0 PUSH1 0x1 PUSH1 0x1 PUSH1 0xA0 SHL SUB AND PUSH4 0x313CE567 PUSH1 0x40 MLOAD DUP2 PUSH4 0xFFFFFFFF AND PUSH1 0xE0 SHL DUP2 MSTORE PUSH1 0x4 ADD PUSH1 0x20 PUSH1 0x40 MLOAD DUP1 DUP4 SUB DUP2 DUP7 GAS STATICCALL ISZERO DUP1 ISZERO PUSH2 0x16C0 JUMPI RETURNDATASIZE PUSH0 PUSH0 RETURNDATACOPY RETURNDATASIZE PUSH0 REVERT JUMPDEST POP POP POP POP PUSH1 0x40 MLOAD RETURNDATASIZE PUSH1 0x1F NOT PUSH1 0x1F DUP3 ADD AND DUP3 ADD DUP1 PUSH1 0x40 MSTORE POP DUP2 ADD SWAP1 PUSH2 0x16E4 SWAP2 SWAP1 PUSH2 0x4A80 JUMP JUMPDEST PUSH1 0xFF AND DUP2 MSTORE PUSH1 0x20 ADD PUSH32 0x0 PUSH1 0x1 PUSH1 0x1 PUSH1 0xA0 SHL SUB AND PUSH4 0x6FDDE03 PUSH1 0x40 MLOAD DUP2 PUSH4 0xFFFFFFFF AND PUSH1 0xE0 SHL DUP2 MSTORE PUSH1 0x4 ADD PUSH0 PUSH1 0x40 MLOAD DUP1 DUP4 SUB DUP2 DUP7 GAS STATICCALL ISZERO DUP1 ISZERO PUSH2 0x1747 JUMPI RETURNDATASIZE PUSH0 PUSH0 RETURNDATACOPY RETURNDATASIZE PUSH0 REVERT JUMPDEST POP POP POP POP PUSH1 0x40 MLOAD RETURNDATASIZE PUSH0 DUP3 RETURNDATACOPY PUSH1 0x1F RETURNDATASIZE SWAP1 DUP2 ADD PUSH1 0x1F NOT AND DUP3 ADD PUSH1 0x40 MSTORE PUSH2 0x176E SWAP2 SWAP1 DUP2 ADD SWAP1 PUSH2 0x4AA0 JUMP JUMPDEST DUP2 MSTORE PUSH1 0x20 ADD PUSH32 0x0 PUSH1 0x1 PUSH1 0x1 PUSH1 0xA0 SHL SUB AND PUSH4 0x95D89B41 PUSH1 0x40 MLOAD DUP2 PUSH4 0xFFFFFFFF AND PUSH1 0xE0 SHL DUP2 MSTORE PUSH1 0x4 ADD PUSH0 PUSH1 0x40 MLOAD DUP1 DUP4 SUB DUP2 DUP7 GAS STATICCALL ISZERO DUP1 ISZERO PUSH2 0x17CE JUMPI RETURNDATASIZE PUSH0 PUSH0 RETURNDATACOPY RETURNDATASIZE PUSH0 REVERT JUMPDEST POP POP POP POP PUSH1 0x40 MLOAD RETURNDATASIZE PUSH0 DUP3 RETURNDATACOPY PUSH1 0x1F RETURNDATASIZE SWAP1 DUP2 ADD PUSH1 0x1F NOT AND DUP3 ADD PUSH1 0x40 MSTORE PUSH2 0x17F5 SWAP2 SWAP1 DUP2 ADD SWAP1 PUSH2 0x4AA0 JUMP JUMPDEST DUP2 MSTORE PUSH1 0x20 ADD PUSH32 0x0 PUSH1 0x1 PUSH1 0x1 PUSH1 0xA0 SHL SUB AND DUP2 MSTORE PUSH1 0x20 ADD PUSH1 0x3 SLOAD DUP2 MSTORE PUSH1 0x20 ADD PUSH1 0x4 SLOAD DUP2 MSTORE PUSH1 0x20 ADD PUSH1 0x5 SLOAD DUP2 MSTORE PUSH1 0x20 ADD PUSH2 0x1849 PUSH2 0x29F9 JUMP JUMPDEST DUP2 MSTORE PUSH1 0x20 ADD PUSH2 0x1856 PUSH2 0x3133 JUMP JUMPDEST DUP2 MSTORE PUSH1 0x20 ADD PUSH2 0x1863 PUSH2 0x2C1E JUMP JUMPDEST DUP2 MSTORE PUSH1 0x13 SLOAD PUSH1 0x20 SWAP1 SWAP2 ADD MSTORE SWAP2 SWAP1 POP JUMP JUMPDEST PUSH1 0x60 DUP2 PUSH0 SUB PUSH2 0x1882 JUMPI PUSH1 0xD SLOAD SWAP2 POP JUMPDEST PUSH0 PUSH2 0x188D DUP4 DUP6 PUSH2 0x49AC JUMP JUMPDEST PUSH1 0xD SLOAD SWAP1 SWAP2 POP DUP5 GT ISZERO PUSH2 0x18A0 JUMPI POP PUSH2 0x1AA9 JUMP JUMPDEST PUSH1 0xD SLOAD DUP2 GT ISZERO PUSH2 0x18AF JUMPI POP PUSH1 0xD SLOAD JUMPDEST PUSH2 0x18B9 DUP5 DUP3 PUSH2 0x4985 JUMP JUMPDEST PUSH1 0x1 PUSH1 0x1 PUSH1 0x40 SHL SUB DUP2 GT ISZERO PUSH2 0x18D0 JUMPI PUSH2 0x18D0 PUSH2 0x42AD JUMP JUMPDEST PUSH1 0x40 MLOAD SWAP1 DUP1 DUP3 MSTORE DUP1 PUSH1 0x20 MUL PUSH1 0x20 ADD DUP3 ADD PUSH1 0x40 MSTORE DUP1 ISZERO PUSH2 0x1909 JUMPI DUP2 PUSH1 0x20 ADD JUMPDEST PUSH2 0x18F6 PUSH2 0x415B JUMP JUMPDEST DUP2 MSTORE PUSH1 0x20 ADD SWAP1 PUSH1 0x1 SWAP1 SUB SWAP1 DUP2 PUSH2 0x18EE JUMPI SWAP1 POP JUMPDEST POP SWAP2 POP PUSH0 JUMPDEST PUSH2 0x1918 DUP6 DUP4 PUSH2 0x4985 JUMP JUMPDEST DUP2 LT ISZERO PUSH2 0x1AA6 JUMPI PUSH1 0xA PUSH1 0xD PUSH1 0x1 DUP8 DUP5 PUSH1 0xD DUP1 SLOAD SWAP1 POP PUSH2 0x1937 SWAP2 SWAP1 PUSH2 0x4985 JUMP JUMPDEST PUSH2 0x1941 SWAP2 SWAP1 PUSH2 0x4985 JUMP JUMPDEST PUSH2 0x194B SWAP2 SWAP1 PUSH2 0x4985 JUMP JUMPDEST DUP2 SLOAD DUP2 LT PUSH2 0x195B JUMPI PUSH2 0x195B PUSH2 0x4998 JUMP JUMPDEST SWAP1 PUSH0 MSTORE PUSH1 0x20 PUSH0 KECCAK256 ADD SLOAD DUP2 SLOAD DUP2 LT PUSH2 0x1974 JUMPI PUSH2 0x1974 PUSH2 0x4998 JUMP JUMPDEST PUSH0 SWAP2 DUP3 MSTORE PUSH1 0x20 SWAP2 DUP3 SWAP1 KECCAK256 PUSH1 0x40 DUP1 MLOAD PUSH2 0x1C0 DUP2 ADD DUP3 MSTORE PUSH1 0xD SWAP1 SWAP4 MUL SWAP1 SWAP2 ADD DUP1 SLOAD DUP4 MSTORE PUSH1 0x1 DUP2 ADD SLOAD PUSH1 0x1 PUSH1 0x1 PUSH1 0xA0 SHL SUB AND SWAP4 DUP4 ADD SWAP4 SWAP1 SWAP4 MSTORE PUSH1 0x2 DUP4 ADD SLOAD SWAP1 DUP3 ADD MSTORE PUSH1 0x3 DUP3 ADD SLOAD PUSH1 0x60 DUP3 ADD MSTORE PUSH1 0x4 DUP3 ADD SLOAD PUSH1 0x80 DUP3 ADD MSTORE PUSH1 0x5 DUP3 ADD SLOAD PUSH1 0xA0 DUP3 ADD MSTORE PUSH1 0x6 DUP3 ADD SLOAD PUSH1 0xC0 DUP3 ADD MSTORE PUSH1 0x7 DUP3 ADD SLOAD PUSH1 0xE0 DUP3 ADD MSTORE PUSH1 0x8 DUP3 ADD SLOAD PUSH2 0x100 DUP1 DUP4 ADD SWAP2 SWAP1 SWAP2 MSTORE PUSH1 0x9 DUP4 ADD SLOAD PUSH1 0xFF DUP1 DUP3 AND ISZERO ISZERO PUSH2 0x120 DUP6 ADD MSTORE SWAP2 SWAP1 DIV DUP2 AND ISZERO ISZERO PUSH2 0x140 DUP4 ADD MSTORE PUSH1 0xA DUP4 ADD SLOAD PUSH2 0x160 DUP4 ADD MSTORE PUSH1 0xB DUP4 ADD SLOAD AND ISZERO ISZERO PUSH2 0x180 DUP3 ADD MSTORE PUSH1 0xC SWAP1 SWAP2 ADD SLOAD PUSH2 0x1A0 DUP3 ADD MSTORE DUP4 MLOAD DUP5 SWAP1 DUP4 SWAP1 DUP2 LT PUSH2 0x1A4C JUMPI PUSH2 0x1A4C PUSH2 0x4998 JUMP JUMPDEST PUSH1 0x20 MUL PUSH1 0x20 ADD ADD DUP2 SWAP1 MSTORE POP PUSH2 0x1A7C DUP4 DUP3 DUP2 MLOAD DUP2 LT PUSH2 0x1A6C JUMPI PUSH2 0x1A6C PUSH2 0x4998 JUMP JUMPDEST PUSH1 0x20 MUL PUSH1 0x20 ADD ADD MLOAD PUSH0 ADD MLOAD PUSH2 0x11BA JUMP JUMPDEST DUP4 DUP3 DUP2 MLOAD DUP2 LT PUSH2 0x1A8E JUMPI PUSH2 0x1A8E PUSH2 0x4998 JUMP JUMPDEST PUSH1 0x20 SWAP1 DUP2 MUL SWAP2 SWAP1 SWAP2 ADD ADD MLOAD PUSH2 0x100 ADD MSTORE PUSH1 0x1 ADD PUSH2 0x190E JUMP JUMPDEST POP POP JUMPDEST SWAP3 SWAP2 POP POP JUMP JUMPDEST PUSH1 0x60 DUP2 PUSH0 SUB PUSH2 0x1ABE JUMPI PUSH1 0x6 SLOAD SWAP2 POP JUMPDEST PUSH0 PUSH2 0x1AC9 DUP4 DUP6 PUSH2 0x49AC JUMP JUMPDEST PUSH1 0x6 SLOAD SWAP1 SWAP2 POP DUP5 GT ISZERO PUSH2 0x1ADC JUMPI POP PUSH2 0x1AA9 JUMP JUMPDEST PUSH1 0x6 SLOAD DUP2 GT ISZERO PUSH2 0x1AEB JUMPI POP PUSH1 0x6 SLOAD JUMPDEST PUSH2 0x1AF5 DUP5 DUP3 PUSH2 0x4985 JUMP JUMPDEST PUSH1 0x1 PUSH1 0x1 PUSH1 0x40 SHL SUB DUP2 GT ISZERO PUSH2 0x1B0C JUMPI PUSH2 0x1B0C PUSH2 0x42AD JUMP JUMPDEST PUSH1 0x40 MLOAD SWAP1 DUP1 DUP3 MSTORE DUP1 PUSH1 0x20 MUL PUSH1 0x20 ADD DUP3 ADD PUSH1 0x40 MSTORE DUP1 ISZERO PUSH2 0x1B35 JUMPI DUP2 PUSH1 0x20 ADD PUSH1 0x20 DUP3 MUL DUP1 CALLDATASIZE DUP4 CALLDATACOPY ADD SWAP1 POP JUMPDEST POP SWAP2 POP PUSH0 JUMPDEST PUSH2 0x1B44 DUP6 DUP4 PUSH2 0x4985 JUMP JUMPDEST DUP2 LT ISZERO PUSH2 0x1AA6 JUMPI PUSH1 0x6 DUP1 SLOAD PUSH1 0x1 SWAP1 DUP8 SWAP1 PUSH2 0x1B5F SWAP1 DUP6 SWAP1 PUSH2 0x4985 JUMP JUMPDEST PUSH2 0x1B69 SWAP2 SWAP1 PUSH2 0x4985 JUMP JUMPDEST PUSH2 0x1B73 SWAP2 SWAP1 PUSH2 0x4985 JUMP JUMPDEST DUP2 SLOAD DUP2 LT PUSH2 0x1B83 JUMPI PUSH2 0x1B83 PUSH2 0x4998 JUMP JUMPDEST SWAP1 PUSH0 MSTORE PUSH1 0x20 PUSH0 KECCAK256 ADD PUSH0 SWAP1 SLOAD SWAP1 PUSH2 0x100 EXP SWAP1 DIV PUSH1 0x1 PUSH1 0x1 PUSH1 0xA0 SHL SUB AND DUP4 DUP3 DUP2 MLOAD DUP2 LT PUSH2 0x1BB0 JUMPI PUSH2 0x1BB0 PUSH2 0x4998 JUMP JUMPDEST PUSH1 0x1 PUSH1 0x1 PUSH1 0xA0 SHL SUB SWAP1 SWAP3 AND PUSH1 0x20 SWAP3 DUP4 MUL SWAP2 SWAP1 SWAP2 ADD SWAP1 SWAP2 ADD MSTORE PUSH1 0x1 ADD PUSH2 0x1B3A JUMP JUMPDEST PUSH1 0x60 DUP2 PUSH0 SUB PUSH2 0x1BF4 JUMPI PUSH1 0x1 PUSH1 0x1 PUSH1 0xA0 SHL SUB DUP5 AND PUSH0 SWAP1 DUP2 MSTORE PUSH1 0x8 PUSH1 0x20 MSTORE PUSH1 0x40 SWAP1 KECCAK256 SLOAD SWAP2 POP JUMPDEST PUSH0 PUSH2 0x1BFF DUP4 DUP6 PUSH2 0x49AC JUMP JUMPDEST PUSH1 0x1 PUSH1 0x1 PUSH1 0xA0 SHL SUB DUP7 AND PUSH0 SWAP1 DUP2 MSTORE PUSH1 0x8 PUSH1 0x20 MSTORE PUSH1 0x40 SWAP1 KECCAK256 SLOAD SWAP1 SWAP2 POP DUP5 GT ISZERO PUSH2 0x1C27 JUMPI POP PUSH2 0x1E5F JUMP JUMPDEST PUSH1 0x1 PUSH1 0x1 PUSH1 0xA0 SHL SUB DUP6 AND PUSH0 SWAP1 DUP2 MSTORE PUSH1 0x8 PUSH1 0x20 MSTORE PUSH1 0x40 SWAP1 KECCAK256 SLOAD DUP2 GT ISZERO PUSH2 0x1C60 JUMPI POP PUSH1 0x1 PUSH1 0x1 PUSH1 0xA0 SHL SUB DUP5 AND PUSH0 SWAP1 DUP2 MSTORE PUSH1 0x8 PUSH1 0x20 MSTORE PUSH1 0x40 SWAP1 KECCAK256 SLOAD JUMPDEST PUSH2 0x1C6A DUP5 DUP3 PUSH2 0x4985 JUMP JUMPDEST PUSH1 0x1 PUSH1 0x1 PUSH1 0x40 SHL SUB DUP2 GT ISZERO PUSH2 0x1C81 JUMPI PUSH2 0x1C81 PUSH2 0x42AD JUMP JUMPDEST PUSH1 0x40 MLOAD SWAP1 DUP1 DUP3 MSTORE DUP1 PUSH1 0x20 MUL PUSH1 0x20 ADD DUP3 ADD PUSH1 0x40 MSTORE DUP1 ISZERO PUSH2 0x1CBA JUMPI DUP2 PUSH1 0x20 ADD JUMPDEST PUSH2 0x1CA7 PUSH2 0x415B JUMP JUMPDEST DUP2 MSTORE PUSH1 0x20 ADD SWAP1 PUSH1 0x1 SWAP1 SUB SWAP1 DUP2 PUSH2 0x1C9F JUMPI SWAP1 POP JUMPDEST POP SWAP2 POP PUSH0 JUMPDEST PUSH2 0x1CC9 DUP6 DUP4 PUSH2 0x4985 JUMP JUMPDEST DUP2 LT ISZERO PUSH2 0x1E5C JUMPI PUSH1 0x1 PUSH1 0x1 PUSH1 0xA0 SHL SUB DUP7 AND PUSH0 SWAP1 DUP2 MSTORE PUSH1 0x8 PUSH1 0x20 MSTORE PUSH1 0x40 SWAP1 KECCAK256 DUP1 SLOAD PUSH1 0xA SWAP2 SWAP1 PUSH1 0x1 SWAP1 DUP9 SWAP1 PUSH2 0x1CFD SWAP1 DUP7 SWAP1 PUSH2 0x4985 JUMP JUMPDEST PUSH2 0x1D07 SWAP2 SWAP1 PUSH2 0x4985 JUMP JUMPDEST PUSH2 0x1D11 SWAP2 SWAP1 PUSH2 0x4985 JUMP JUMPDEST DUP2 SLOAD DUP2 LT PUSH2 0x1D21 JUMPI PUSH2 0x1D21 PUSH2 0x4998 JUMP JUMPDEST SWAP1 PUSH0 MSTORE PUSH1 0x20 PUSH0 KECCAK256 ADD SLOAD DUP2 SLOAD DUP2 LT PUSH2 0x1D3A JUMPI PUSH2 0x1D3A PUSH2 0x4998 JUMP JUMPDEST PUSH0 SWAP2 DUP3 MSTORE PUSH1 0x20 SWAP2 DUP3 SWAP1 KECCAK256 PUSH1 0x40 DUP1 MLOAD PUSH2 0x1C0 DUP2 ADD DUP3 MSTORE PUSH1 0xD SWAP1 SWAP4 MUL SWAP1 SWAP2 ADD DUP1 SLOAD DUP4 MSTORE PUSH1 0x1 DUP2 ADD SLOAD PUSH1 0x1 PUSH1 0x1 PUSH1 0xA0 SHL SUB AND SWAP4 DUP4 ADD SWAP4 SWAP1 SWAP4 MSTORE PUSH1 0x2 DUP4 ADD SLOAD SWAP1 DUP3 ADD MSTORE PUSH1 0x3 DUP3 ADD SLOAD PUSH1 0x60 DUP3 ADD MSTORE PUSH1 0x4 DUP3 ADD SLOAD PUSH1 0x80 DUP3 ADD MSTORE PUSH1 0x5 DUP3 ADD SLOAD PUSH1 0xA0 DUP3 ADD MSTORE PUSH1 0x6 DUP3 ADD SLOAD PUSH1 0xC0 DUP3 ADD MSTORE PUSH1 0x7 DUP3 ADD SLOAD PUSH1 0xE0 DUP3 ADD MSTORE PUSH1 0x8 DUP3 ADD SLOAD PUSH2 0x100 DUP1 DUP4 ADD SWAP2 SWAP1 SWAP2 MSTORE PUSH1 0x9 DUP4 ADD SLOAD PUSH1 0xFF DUP1 DUP3 AND ISZERO ISZERO PUSH2 0x120 DUP6 ADD MSTORE SWAP2 SWAP1 DIV DUP2 AND ISZERO ISZERO PUSH2 0x140 DUP4 ADD MSTORE PUSH1 0xA DUP4 ADD SLOAD PUSH2 0x160 DUP4 ADD MSTORE PUSH1 0xB DUP4 ADD SLOAD AND ISZERO ISZERO PUSH2 0x180 DUP3 ADD MSTORE PUSH1 0xC SWAP1 SWAP2 ADD SLOAD PUSH2 0x1A0 DUP3 ADD MSTORE DUP4 MLOAD DUP5 SWAP1 DUP4 SWAP1 DUP2 LT PUSH2 0x1E12 JUMPI PUSH2 0x1E12 PUSH2 0x4998 JUMP JUMPDEST PUSH1 0x20 MUL PUSH1 0x20 ADD ADD DUP2 SWAP1 MSTORE POP PUSH2 0x1E32 DUP4 DUP3 DUP2 MLOAD DUP2 LT PUSH2 0x1A6C JUMPI PUSH2 0x1A6C PUSH2 0x4998 JUMP JUMPDEST DUP4 DUP3 DUP2 MLOAD DUP2 LT PUSH2 0x1E44 JUMPI PUSH2 0x1E44 PUSH2 0x4998 JUMP JUMPDEST PUSH1 0x20 SWAP1 DUP2 MUL SWAP2 SWAP1 SWAP2 ADD ADD MLOAD PUSH2 0x100 ADD MSTORE PUSH1 0x1 ADD PUSH2 0x1CBF JUMP JUMPDEST POP POP JUMPDEST SWAP4 SWAP3 POP POP POP JUMP JUMPDEST PUSH1 0x1 SLOAD PUSH1 0x1 PUSH1 0x1 PUSH1 0xA0 SHL SUB AND CALLER EQ PUSH2 0x1E90 JUMPI PUSH1 0x40 MLOAD PUSH3 0x461BCD PUSH1 0xE5 SHL DUP2 MSTORE PUSH1 0x4 ADD PUSH2 0x92B SWAP1 PUSH2 0x4928 JUMP JUMPDEST PUSH1 0x4 SSTORE JUMP JUMPDEST PUSH1 0x60 DUP2 PUSH0 SUB PUSH2 0x1EA4 JUMPI PUSH1 0x13 SLOAD SWAP2 POP JUMPDEST PUSH0 PUSH2 0x1EAF DUP4 DUP6 PUSH2 0x49AC JUMP JUMPDEST PUSH1 0x13 SLOAD SWAP1 SWAP2 POP DUP5 GT ISZERO PUSH2 0x1EC2 JUMPI POP PUSH2 0x1AA9 JUMP JUMPDEST PUSH1 0x13 SLOAD DUP2 GT ISZERO PUSH2 0x1ED1 JUMPI POP PUSH1 0x13 SLOAD JUMPDEST PUSH2 0x1EDB DUP5 DUP3 PUSH2 0x4985 JUMP JUMPDEST PUSH1 0x1 PUSH1 0x1 PUSH1 0x40 SHL SUB DUP2 GT ISZERO PUSH2 0x1EF2 JUMPI PUSH2 0x1EF2 PUSH2 0x42AD JUMP JUMPDEST PUSH1 0x40 MLOAD SWAP1 DUP1 DUP3 MSTORE DUP1 PUSH1 0x20 MUL PUSH1 0x20 ADD DUP3 ADD PUSH1 0x40 MSTORE DUP1 ISZERO PUSH2 0x1F5C JUMPI DUP2 PUSH1 0x20 ADD JUMPDEST PUSH2 0x1F49 PUSH1 0x40 MLOAD DUP1 PUSH1 0xE0 ADD PUSH1 0x40 MSTORE DUP1 PUSH0 DUP2 MSTORE PUSH1 0x20 ADD PUSH0 DUP2 MSTORE PUSH1 0x20 ADD PUSH0 DUP2 MSTORE PUSH1 0x20 ADD PUSH0 DUP2 MSTORE PUSH1 0x20 ADD PUSH0 DUP2 MSTORE PUSH1 0x20 ADD PUSH0 DUP2 MSTORE PUSH1 0x20 ADD PUSH0 DUP2 MSTORE POP SWAP1 JUMP JUMPDEST DUP2 MSTORE PUSH1 0x20 ADD SWAP1 PUSH1 0x1 SWAP1 SUB SWAP1 DUP2 PUSH2 0x1F10 JUMPI SWAP1 POP JUMPDEST POP SWAP2 POP PUSH0 JUMPDEST PUSH2 0x1F6B DUP6 DUP4 PUSH2 0x4985 JUMP JUMPDEST DUP2 LT ISZERO PUSH2 0x1AA6 JUMPI PUSH0 PUSH1 0x1 DUP7 DUP4 PUSH1 0x13 DUP1 SLOAD SWAP1 POP PUSH2 0x1F87 SWAP2 SWAP1 PUSH2 0x4985 JUMP JUMPDEST PUSH2 0x1F91 SWAP2 SWAP1 PUSH2 0x4985 JUMP JUMPDEST PUSH2 0x1F9B SWAP2 SWAP1 PUSH2 0x4985 JUMP JUMPDEST SWAP1 POP PUSH1 0x40 MLOAD DUP1 PUSH1 0xE0 ADD PUSH1 0x40 MSTORE DUP1 DUP3 DUP2 MSTORE PUSH1 0x20 ADD PUSH1 0x13 DUP4 DUP2 SLOAD DUP2 LT PUSH2 0x1FC1 JUMPI PUSH2 0x1FC1 PUSH2 0x4998 JUMP JUMPDEST SWAP1 PUSH0 MSTORE PUSH1 0x20 PUSH0 KECCAK256 SWAP1 PUSH1 0x3 MUL ADD PUSH0 ADD SLOAD DUP2 MSTORE PUSH1 0x20 ADD PUSH1 0x13 DUP4 DUP2 SLOAD DUP2 LT PUSH2 0x1FE8 JUMPI PUSH2 0x1FE8 PUSH2 0x4998 JUMP JUMPDEST SWAP1 PUSH0 MSTORE PUSH1 0x20 PUSH0 KECCAK256 SWAP1 PUSH1 0x3 MUL ADD PUSH1 0x1 ADD SLOAD DUP2 MSTORE PUSH1 0x20 ADD PUSH1 0x13 DUP4 DUP2 SLOAD DUP2 LT PUSH2 0x2010 JUMPI PUSH2 0x2010 PUSH2 0x4998 JUMP JUMPDEST PUSH0 SWAP2 DUP3 MSTORE PUSH1 0x20 DUP1 DUP4 KECCAK256 PUSH1 0x2 PUSH1 0x3 SWAP1 SWAP4 MUL ADD SWAP2 SWAP1 SWAP2 ADD SLOAD DUP4 MSTORE DUP5 DUP3 MSTORE PUSH1 0x14 DUP2 MSTORE PUSH1 0x40 DUP1 DUP4 KECCAK256 SLOAD DUP5 DUP4 ADD MSTORE DUP6 DUP4 MSTORE PUSH1 0x15 DUP3 MSTORE DUP1 DUP4 KECCAK256 SLOAD DUP2 DUP6 ADD MSTORE DUP6 DUP4 MSTORE PUSH1 0x16 SWAP1 SWAP2 MSTORE SWAP1 KECCAK256 SLOAD PUSH1 0x60 SWAP1 SWAP2 ADD MSTORE DUP5 MLOAD DUP6 SWAP1 DUP5 SWAP1 DUP2 LT PUSH2 0x206D JUMPI PUSH2 0x206D PUSH2 0x4998 JUMP JUMPDEST PUSH1 0x20 SWAP1 DUP2 MUL SWAP2 SWAP1 SWAP2 ADD ADD MSTORE POP PUSH1 0x1 ADD PUSH2 0x1F61 JUMP JUMPDEST PUSH2 0x2089 PUSH2 0x3859 JUMP JUMPDEST PUSH0 PUSH1 0xA DUP3 DUP2 SLOAD DUP2 LT PUSH2 0x209D JUMPI PUSH2 0x209D PUSH2 0x4998 JUMP JUMPDEST PUSH0 SWAP2 DUP3 MSTORE PUSH1 0x20 SWAP1 SWAP2 KECCAK256 PUSH1 0xD SWAP1 SWAP2 MUL ADD PUSH1 0x9 DUP2 ADD SLOAD SWAP1 SWAP2 POP PUSH1 0xFF AND PUSH2 0x20D3 JUMPI PUSH1 0x40 MLOAD PUSH3 0x461BCD PUSH1 0xE5 SHL DUP2 MSTORE PUSH1 0x4 ADD PUSH2 0x92B SWAP1 PUSH2 0x4B32 JUMP JUMPDEST PUSH1 0x1 DUP2 ADD SLOAD PUSH1 0x1 PUSH1 0x1 PUSH1 0xA0 SHL SUB AND CALLER EQ PUSH2 0x20FF JUMPI PUSH1 0x40 MLOAD PUSH3 0x461BCD PUSH1 0xE5 SHL DUP2 MSTORE PUSH1 0x4 ADD PUSH2 0x92B SWAP1 PUSH2 0x49BF JUMP JUMPDEST PUSH0 PUSH2 0x2108 PUSH2 0x2C1E JUMP JUMPDEST SWAP1 POP DUP2 PUSH1 0x6 ADD SLOAD DUP2 LT ISZERO PUSH2 0x2147 JUMPI PUSH1 0x40 MLOAD PUSH3 0x461BCD PUSH1 0xE5 SHL DUP2 MSTORE PUSH1 0x20 PUSH1 0x4 DUP3 ADD MSTORE PUSH1 0x6 PUSH1 0x24 DUP3 ADD MSTORE PUSH6 0x131BD8DAD959 PUSH1 0xD2 SHL PUSH1 0x44 DUP3 ADD MSTORE PUSH1 0x64 ADD PUSH2 0x92B JUMP JUMPDEST PUSH0 PUSH2 0x2151 DUP5 PUSH2 0x11BA JUMP JUMPDEST SWAP1 POP DUP1 PUSH1 0x12 SLOAD LT ISZERO PUSH2 0x2175 JUMPI PUSH1 0x40 MLOAD PUSH3 0x461BCD PUSH1 0xE5 SHL DUP2 MSTORE PUSH1 0x4 ADD PUSH2 0x92B SWAP1 PUSH2 0x49E2 JUMP JUMPDEST PUSH0 DUP2 DUP5 PUSH1 0x2 ADD SLOAD PUSH2 0x2186 SWAP2 SWAP1 PUSH2 0x49AC JUMP JUMPDEST SWAP1 POP DUP4 PUSH1 0x2 ADD SLOAD PUSH1 0x10 PUSH0 DUP3 DUP3 SLOAD PUSH2 0x219D SWAP2 SWAP1 PUSH2 0x4985 JUMP JUMPDEST SWAP1 SWAP2 SSTORE POP POP PUSH1 0x9 DUP5 ADD DUP1 SLOAD PUSH1 0xFF NOT AND SWAP1 SSTORE TIMESTAMP PUSH1 0x5 DUP6 ADD SSTORE PUSH1 0x7 DUP5 ADD SLOAD PUSH0 SWAP1 PUSH2 0x21C5 SWAP1 DUP3 PUSH2 0x3FB3 JUMP JUMPDEST PUSH1 0x7 DUP7 ADD DUP2 SWAP1 SSTORE PUSH1 0x9 DUP6 SWAP1 SSTORE PUSH1 0xF DUP1 SLOAD SWAP2 SWAP3 POP PUSH0 PUSH2 0x21E2 DUP4 PUSH2 0x4B54 JUMP JUMPDEST SWAP2 SWAP1 POP SSTORE POP DUP3 PUSH1 0x12 PUSH0 DUP3 DUP3 SLOAD PUSH2 0x21F8 SWAP2 SWAP1 PUSH2 0x4985 JUMP JUMPDEST SWAP3 POP POP DUP2 SWAP1 SSTORE POP DUP3 PUSH1 0x11 PUSH0 DUP3 DUP3 SLOAD PUSH2 0x2210 SWAP2 SWAP1 PUSH2 0x49AC JUMP JUMPDEST SWAP1 SWAP2 SSTORE POP POP PUSH0 DUP7 DUP2 MSTORE PUSH1 0xB PUSH1 0x20 MSTORE PUSH1 0x40 DUP2 KECCAK256 DUP1 SLOAD DUP6 SWAP3 SWAP1 PUSH2 0x2232 SWAP1 DUP5 SWAP1 PUSH2 0x49AC JUMP JUMPDEST SWAP1 SWAP2 SSTORE POP PUSH2 0x2241 SWAP1 POP DUP7 PUSH2 0x403F JUMP JUMPDEST PUSH0 DUP5 DUP2 MSTORE PUSH1 0x16 PUSH1 0x20 MSTORE PUSH1 0x40 DUP2 KECCAK256 DUP1 SLOAD DUP6 SWAP3 SWAP1 PUSH2 0x225E SWAP1 DUP5 SWAP1 PUSH2 0x49AC JUMP JUMPDEST SWAP1 SWAP2 SSTORE POP POP PUSH1 0x40 MLOAD PUSH4 0xA9059CBB PUSH1 0xE0 SHL DUP2 MSTORE CALLER PUSH1 0x4 DUP3 ADD MSTORE PUSH1 0x24 DUP2 ADD DUP4 SWAP1 MSTORE PUSH32 0x0 PUSH1 0x1 PUSH1 0x1 PUSH1 0xA0 SHL SUB AND SWAP1 PUSH4 0xA9059CBB SWAP1 PUSH1 0x44 ADD PUSH1 0x20 PUSH1 0x40 MLOAD DUP1 DUP4 SUB DUP2 PUSH0 DUP8 GAS CALL ISZERO DUP1 ISZERO PUSH2 0x22CD JUMPI RETURNDATASIZE PUSH0 PUSH0 RETURNDATACOPY RETURNDATASIZE PUSH0 REVERT JUMPDEST POP POP POP POP PUSH1 0x40 MLOAD RETURNDATASIZE PUSH1 0x1F NOT PUSH1 0x1F DUP3 ADD AND DUP3 ADD DUP1 PUSH1 0x40 MSTORE POP DUP2 ADD SWAP1 PUSH2 0x22F1 SWAP2 SWAP1 PUSH2 0x4A06 JUMP JUMPDEST PUSH2 0x230D JUMPI PUSH1 0x40 MLOAD PUSH3 0x461BCD PUSH1 0xE5 SHL DUP2 MSTORE PUSH1 0x4 ADD PUSH2 0x92B SWAP1 PUSH2 0x4A21 JUMP JUMPDEST PUSH1 0x40 DUP1 MLOAD DUP8 DUP2 MSTORE PUSH1 0x20 DUP2 ADD DUP5 SWAP1 MSTORE CALLER SWAP2 PUSH32 0x217EA3989B9D3112D2133A930216F444B7FBCAEAA4D5BC0220D099FDC928E71E SWAP2 ADD PUSH1 0x40 MLOAD DUP1 SWAP2 SUB SWAP1 LOG2 POP POP POP POP POP PUSH2 0x112D PUSH1 0x1 PUSH0 SSTORE JUMP JUMPDEST PUSH2 0x235E PUSH2 0x3859 JUMP JUMPDEST PUSH0 PUSH1 0xA DUP3 DUP2 SLOAD DUP2 LT PUSH2 0x2372 JUMPI PUSH2 0x2372 PUSH2 0x4998 JUMP JUMPDEST PUSH0 SWAP2 DUP3 MSTORE PUSH1 0x20 SWAP1 SWAP2 KECCAK256 PUSH1 0xD SWAP1 SWAP2 MUL ADD PUSH1 0x9 DUP2 ADD SLOAD SWAP1 SWAP2 POP PUSH1 0xFF AND PUSH2 0x23A8 JUMPI PUSH1 0x40 MLOAD PUSH3 0x461BCD PUSH1 0xE5 SHL DUP2 MSTORE PUSH1 0x4 ADD PUSH2 0x92B SWAP1 PUSH2 0x4B32 JUMP JUMPDEST PUSH1 0x1 DUP2 ADD SLOAD PUSH1 0x1 PUSH1 0x1 PUSH1 0xA0 SHL SUB AND CALLER EQ PUSH2 0x23D4 JUMPI PUSH1 0x40 MLOAD PUSH3 0x461BCD PUSH1 0xE5 SHL DUP2 MSTORE PUSH1 0x4 ADD PUSH2 0x92B SWAP1 PUSH2 0x49BF JUMP JUMPDEST PUSH0 PUSH2 0x23DD PUSH2 0x2C1E JUMP JUMPDEST SWAP1 POP DUP2 PUSH1 0x6 ADD SLOAD DUP2 LT ISZERO PUSH2 0x241C JUMPI PUSH1 0x40 MLOAD PUSH3 0x461BCD PUSH1 0xE5 SHL DUP2 MSTORE PUSH1 0x20 PUSH1 0x4 DUP3 ADD MSTORE PUSH1 0x6 PUSH1 0x24 DUP3 ADD MSTORE PUSH6 0x131BD8DAD959 PUSH1 0xD2 SHL PUSH1 0x44 DUP3 ADD MSTORE PUSH1 0x64 ADD PUSH2 0x92B JUMP JUMPDEST PUSH0 PUSH2 0x2426 DUP5 PUSH2 0x11BA JUMP JUMPDEST SWAP1 POP DUP3 PUSH1 0x2 ADD SLOAD PUSH1 0x10 PUSH0 DUP3 DUP3 SLOAD PUSH2 0x243D SWAP2 SWAP1 PUSH2 0x4985 JUMP JUMPDEST SWAP1 SWAP2 SSTORE POP POP PUSH1 0x9 DUP1 DUP5 ADD DUP1 SLOAD PUSH2 0xFFFF NOT AND PUSH2 0x100 OR SWAP1 SSTORE PUSH1 0xA DUP5 ADD DUP3 SWAP1 SSTORE TIMESTAMP PUSH1 0x5 DUP6 ADD SSTORE DUP3 SWAP1 SSTORE PUSH1 0xF DUP1 SLOAD SWAP1 PUSH0 PUSH2 0x2473 DUP4 PUSH2 0x4B54 JUMP JUMPDEST SWAP2 SWAP1 POP SSTORE POP PUSH2 0x2481 DUP5 PUSH2 0x403F JUMP JUMPDEST PUSH0 DUP3 DUP2 MSTORE PUSH1 0x16 PUSH1 0x20 MSTORE PUSH1 0x40 DUP2 KECCAK256 DUP1 SLOAD DUP4 SWAP3 SWAP1 PUSH2 0x249E SWAP1 DUP5 SWAP1 PUSH2 0x49AC JUMP JUMPDEST SWAP3 POP POP DUP2 SWAP1 SSTORE POP DUP1 PUSH1 0x11 PUSH0 DUP3 DUP3 SLOAD PUSH2 0x24B6 SWAP2 SWAP1 PUSH2 0x49AC JUMP JUMPDEST SWAP1 SWAP2 SSTORE POP POP PUSH1 0x1 DUP4 ADD SLOAD PUSH1 0x2 DUP5 ADD SLOAD PUSH1 0x40 MLOAD PUSH4 0xA9059CBB PUSH1 0xE0 SHL DUP2 MSTORE PUSH1 0x1 PUSH1 0x1 PUSH1 0xA0 SHL SUB SWAP3 DUP4 AND PUSH1 0x4 DUP3 ADD MSTORE PUSH1 0x24 DUP2 ADD SWAP2 SWAP1 SWAP2 MSTORE PUSH32 0x0 SWAP1 SWAP2 AND SWAP1 PUSH4 0xA9059CBB SWAP1 PUSH1 0x44 ADD PUSH1 0x20 PUSH1 0x40 MLOAD DUP1 DUP4 SUB DUP2 PUSH0 DUP8 GAS CALL ISZERO DUP1 ISZERO PUSH2 0x2534 JUMPI RETURNDATASIZE PUSH0 PUSH0 RETURNDATACOPY RETURNDATASIZE PUSH0 REVERT JUMPDEST POP POP POP POP PUSH1 0x40 MLOAD RETURNDATASIZE PUSH1 0x1F NOT PUSH1 0x1F DUP3 ADD AND DUP3 ADD DUP1 PUSH1 0x40 MSTORE POP DUP2 ADD SWAP1 PUSH2 0x2558 SWAP2 SWAP1 PUSH2 0x4A06 JUMP JUMPDEST PUSH2 0x2574 JUMPI PUSH1 0x40 MLOAD PUSH3 0x461BCD PUSH1 0xE5 SHL DUP2 MSTORE PUSH1 0x4 ADD PUSH2 0x92B SWAP1 PUSH2 0x4A21 JUMP JUMPDEST PUSH1 0x1 DUP4 ADD SLOAD DUP4 SLOAD PUSH1 0x2 DUP6 ADD SLOAD PUSH1 0x40 DUP1 MLOAD SWAP3 DUP4 MSTORE PUSH1 0x20 DUP4 ADD SWAP2 SWAP1 SWAP2 MSTORE DUP2 ADD DUP4 SWAP1 MSTORE PUSH1 0x1 PUSH1 0x1 PUSH1 0xA0 SHL SUB SWAP1 SWAP2 AND SWAP1 PUSH32 0x2BB9E1005BD12ABFF0A36B08286208299F11BAC0718C4590FD6F4EABD7667CF9 SWAP1 PUSH1 0x60 ADD JUMPDEST PUSH1 0x40 MLOAD DUP1 SWAP2 SUB SWAP1 LOG2 POP POP POP PUSH2 0x112D PUSH1 0x1 PUSH0 SSTORE JUMP JUMPDEST PUSH0 DUP5 ISZERO DUP1 PUSH2 0x25E6 JUMPI POP DUP3 ISZERO JUMPDEST DUP1 PUSH2 0x25F3 JUMPI POP PUSH1 0x13 SLOAD DUP5 LT ISZERO JUMPDEST ISZERO PUSH2 0x25FF JUMPI POP PUSH0 PUSH2 0x276B JUMP JUMPDEST PUSH0 PUSH2 0x260A DUP5 DUP7 PUSH2 0x49AC JUMP JUMPDEST PUSH1 0x13 SLOAD SWAP1 SWAP2 POP DUP2 GT ISZERO PUSH2 0x262B JUMPI POP PUSH1 0x13 SLOAD DUP5 DUP2 GT PUSH2 0x262B JUMPI PUSH0 SWAP2 POP POP PUSH2 0x276B JUMP JUMPDEST DUP3 PUSH0 SUB PUSH2 0x2636 JUMPI TIMESTAMP SWAP3 POP JUMPDEST DUP1 PUSH0 DUP7 JUMPDEST DUP3 DUP2 LT ISZERO PUSH2 0x2765 JUMPI PUSH1 0x13 SLOAD DUP2 LT ISZERO PUSH2 0x2765 JUMPI PUSH0 PUSH1 0x13 DUP3 DUP2 SLOAD DUP2 LT PUSH2 0x2660 JUMPI PUSH2 0x2660 PUSH2 0x4998 JUMP JUMPDEST SWAP1 PUSH0 MSTORE PUSH1 0x20 PUSH0 KECCAK256 SWAP1 PUSH1 0x3 MUL ADD PUSH1 0x40 MLOAD DUP1 PUSH1 0x60 ADD PUSH1 0x40 MSTORE SWAP1 DUP2 PUSH0 DUP3 ADD SLOAD DUP2 MSTORE PUSH1 0x20 ADD PUSH1 0x1 DUP3 ADD SLOAD DUP2 MSTORE PUSH1 0x20 ADD PUSH1 0x2 DUP3 ADD SLOAD DUP2 MSTORE POP POP SWAP1 POP PUSH0 PUSH2 0x26A0 DUP4 PUSH2 0x4001 JUMP JUMPDEST SWAP1 POP PUSH0 PUSH2 0x2710 PUSH2 0x26B0 DUP4 DUP15 PUSH2 0x4A4A JUMP JUMPDEST PUSH2 0x26BA SWAP2 SWAP1 PUSH2 0x4A61 JUMP JUMPDEST SWAP1 POP DUP11 DUP5 SUB PUSH2 0x274C JUMPI DUP3 MLOAD PUSH1 0x20 DUP5 ADD MLOAD PUSH0 PUSH2 0x26D5 DUP4 DUP4 PUSH2 0x4985 JUMP JUMPDEST SWAP1 POP PUSH0 DUP4 DUP14 GT PUSH2 0x26E5 JUMPI DUP4 PUSH2 0x26E7 JUMP JUMPDEST DUP13 JUMPDEST SWAP1 POP DUP3 DUP1 DUP3 LT PUSH2 0x26FE JUMPI POP POP POP POP POP POP POP POP PUSH2 0x275D JUMP JUMPDEST PUSH0 PUSH2 0x2709 DUP4 DUP4 PUSH2 0x4985 JUMP JUMPDEST SWAP1 POP DUP4 PUSH0 SUB PUSH2 0x2720 JUMPI POP POP POP POP POP POP POP POP POP PUSH2 0x275D JUMP JUMPDEST DUP4 PUSH2 0x272B DUP3 DUP10 PUSH2 0x4A4A JUMP JUMPDEST PUSH2 0x2735 SWAP2 SWAP1 PUSH2 0x4A61 JUMP JUMPDEST PUSH2 0x273F SWAP1 DUP13 PUSH2 0x49AC JUMP JUMPDEST SWAP11 POP POP POP POP POP POP POP PUSH2 0x2759 JUMP JUMPDEST PUSH2 0x2756 DUP2 DUP7 PUSH2 0x49AC JUMP JUMPDEST SWAP5 POP JUMPDEST POP POP POP JUMPDEST PUSH1 0x1 ADD PUSH2 0x263A JUMP JUMPDEST POP SWAP3 POP POP POP JUMPDEST SWAP5 SWAP4 POP POP POP POP JUMP JUMPDEST PUSH2 0x277B PUSH2 0x3859 JUMP JUMPDEST PUSH1 0x1 SLOAD PUSH1 0x1 PUSH1 0x1 PUSH1 0xA0 SHL SUB AND CALLER EQ PUSH2 0x27A5 JUMPI PUSH1 0x40 MLOAD PUSH3 0x461BCD PUSH1 0xE5 SHL DUP2 MSTORE PUSH1 0x4 ADD PUSH2 0x92B SWAP1 PUSH2 0x4928 JUMP JUMPDEST PUSH0 PUSH1 0xA DUP3 DUP2 SLOAD DUP2 LT PUSH2 0x27B9 JUMPI PUSH2 0x27B9 PUSH2 0x4998 JUMP JUMPDEST PUSH0 SWAP2 DUP3 MSTORE PUSH1 0x20 SWAP1 SWAP2 KECCAK256 PUSH1 0xD SWAP1 SWAP2 MUL ADD PUSH1 0x9 DUP2 ADD SLOAD SWAP1 SWAP2 POP PUSH1 0xFF AND PUSH2 0x2812 JUMPI PUSH1 0x40 MLOAD PUSH3 0x461BCD PUSH1 0xE5 SHL DUP2 MSTORE PUSH1 0x20 PUSH1 0x4 DUP3 ADD MSTORE PUSH1 0x10 PUSH1 0x24 DUP3 ADD MSTORE PUSH16 0x4465706F73697420696E616374697665 PUSH1 0x80 SHL PUSH1 0x44 DUP3 ADD MSTORE PUSH1 0x64 ADD PUSH2 0x92B JUMP JUMPDEST DUP1 SLOAD PUSH0 SWAP1 DUP2 MSTORE PUSH1 0xC PUSH1 0x20 MSTORE PUSH1 0x40 SWAP1 KECCAK256 SLOAD PUSH1 0xFF AND PUSH2 0x2871 JUMPI PUSH1 0x40 MLOAD PUSH3 0x461BCD PUSH1 0xE5 SHL DUP2 MSTORE PUSH1 0x20 PUSH1 0x4 DUP3 ADD MSTORE PUSH1 0x1F PUSH1 0x24 DUP3 ADD MSTORE PUSH32 0x43616E206F6E6C792063616E63656C206F7261636C65206465706F7369747300 PUSH1 0x44 DUP3 ADD MSTORE PUSH1 0x64 ADD PUSH2 0x92B JUMP JUMPDEST PUSH1 0x9 DUP2 ADD DUP1 SLOAD PUSH1 0xFF NOT AND SWAP1 SSTORE PUSH1 0xF DUP1 SLOAD SWAP1 PUSH0 PUSH2 0x288C DUP4 PUSH2 0x4B54 JUMP JUMPDEST SWAP2 SWAP1 POP SSTORE POP DUP1 PUSH1 0x2 ADD SLOAD PUSH1 0x10 PUSH0 DUP3 DUP3 SLOAD PUSH2 0x28A6 SWAP2 SWAP1 PUSH2 0x4985 JUMP JUMPDEST SWAP1 SWAP2 SSTORE POP POP PUSH1 0x2 DUP2 ADD SLOAD PUSH1 0x40 MLOAD PUSH4 0xA9059CBB PUSH1 0xE0 SHL DUP2 MSTORE CALLER PUSH1 0x4 DUP3 ADD MSTORE PUSH1 0x24 DUP2 ADD SWAP2 SWAP1 SWAP2 MSTORE PUSH32 0x0 PUSH1 0x1 PUSH1 0x1 PUSH1 0xA0 SHL SUB AND SWAP1 PUSH4 0xA9059CBB SWAP1 PUSH1 0x44 ADD PUSH1 0x20 PUSH1 0x40 MLOAD DUP1 DUP4 SUB DUP2 PUSH0 DUP8 GAS CALL ISZERO DUP1 ISZERO PUSH2 0x291B JUMPI RETURNDATASIZE PUSH0 PUSH0 RETURNDATACOPY RETURNDATASIZE PUSH0 REVERT JUMPDEST POP POP POP POP PUSH1 0x40 MLOAD RETURNDATASIZE PUSH1 0x1F NOT PUSH1 0x1F DUP3 ADD AND DUP3 ADD DUP1 PUSH1 0x40 MSTORE POP DUP2 ADD SWAP1 PUSH2 0x293F SWAP2 SWAP1 PUSH2 0x4A06 JUMP JUMPDEST PUSH2 0x295B JUMPI PUSH1 0x40 MLOAD PUSH3 0x461BCD PUSH1 0xE5 SHL DUP2 MSTORE PUSH1 0x4 ADD PUSH2 0x92B SWAP1 PUSH2 0x4A21 JUMP JUMPDEST DUP1 SLOAD PUSH1 0x2 DUP3 ADD SLOAD PUSH1 0x40 MLOAD CALLER SWAP3 PUSH32 0x24C9E122007BD4087408943168FBCD65248594530E482B6A9ABE4484767EB0C3 SWAP3 PUSH2 0x299B SWAP3 SWAP2 DUP3 MSTORE PUSH1 0x20 DUP3 ADD MSTORE PUSH1 0x40 ADD SWAP1 JUMP JUMPDEST PUSH1 0x40 MLOAD DUP1 SWAP2 SUB SWAP1 LOG2 POP PUSH2 0x112D PUSH1 0x1 PUSH0 SSTORE JUMP JUMPDEST PUSH1 0x1 SLOAD PUSH1 0x1 PUSH1 0x1 PUSH1 0xA0 SHL SUB AND CALLER EQ PUSH2 0x29D7 JUMPI PUSH1 0x40 MLOAD PUSH3 0x461BCD PUSH1 0xE5 SHL DUP2 MSTORE PUSH1 0x4 ADD PUSH2 0x92B SWAP1 PUSH2 0x4928 JUMP JUMPDEST PUSH1 0x2 DUP1 SLOAD PUSH1 0x1 PUSH1 0x1 PUSH1 0xA0 SHL SUB NOT AND PUSH1 0x1 PUSH1 0x1 PUSH1 0xA0 SHL SUB SWAP3 SWAP1 SWAP3 AND SWAP2 SWAP1 SWAP2 OR SWAP1 SSTORE JUMP JUMPDEST PUSH0 PUSH0 PUSH1 0x3 SLOAD SWAP1 POP PUSH2 0x2710 DUP2 PUSH1 0x10 SLOAD PUSH2 0x2A11 SWAP2 SWAP1 PUSH2 0x4A4A JUMP JUMPDEST PUSH2 0x2A1B SWAP2 SWAP1 PUSH2 0x4A61 JUMP JUMPDEST SWAP2 POP POP SWAP1 JUMP JUMPDEST PUSH1 0xD DUP2 DUP2 SLOAD DUP2 LT PUSH2 0x2A30 JUMPI PUSH0 DUP1 REVERT JUMPDEST PUSH0 SWAP2 DUP3 MSTORE PUSH1 0x20 SWAP1 SWAP2 KECCAK256 ADD SLOAD SWAP1 POP DUP2 JUMP JUMPDEST PUSH1 0x1 SLOAD PUSH1 0x1 PUSH1 0x1 PUSH1 0xA0 SHL SUB AND CALLER EQ DUP1 PUSH2 0x2A63 JUMPI POP PUSH1 0x2 SLOAD PUSH1 0x1 PUSH1 0x1 PUSH1 0xA0 SHL SUB AND CALLER EQ JUMPDEST PUSH2 0x2AA6 JUMPI PUSH1 0x40 MLOAD PUSH3 0x461BCD PUSH1 0xE5 SHL DUP2 MSTORE PUSH1 0x20 PUSH1 0x4 DUP3 ADD MSTORE PUSH1 0x14 PUSH1 0x24 DUP3 ADD MSTORE PUSH20 0x4F6E6C79206F776E6572206F72206F7261636C65 PUSH1 0x60 SHL PUSH1 0x44 DUP3 ADD MSTORE PUSH1 0x64 ADD PUSH2 0x92B JUMP JUMPDEST PUSH1 0x40 MLOAD PUSH4 0x23B872DD PUSH1 0xE0 SHL DUP2 MSTORE CALLER PUSH1 0x4 DUP3 ADD MSTORE ADDRESS PUSH1 0x24 DUP3 ADD MSTORE PUSH1 0x44 DUP2 ADD DUP3 SWAP1 MSTORE PUSH32 0x0 PUSH1 0x1 PUSH1 0x1 PUSH1 0xA0 SHL SUB AND SWAP1 PUSH4 0x23B872DD SWAP1 PUSH1 0x64 ADD PUSH1 0x20 PUSH1 0x40 MLOAD DUP1 DUP4 SUB DUP2 PUSH0 DUP8 GAS CALL ISZERO DUP1 ISZERO PUSH2 0x2B16 JUMPI RETURNDATASIZE PUSH0 PUSH0 RETURNDATACOPY RETURNDATASIZE PUSH0 REVERT JUMPDEST POP POP POP POP PUSH1 0x40 MLOAD RETURNDATASIZE PUSH1 0x1F NOT PUSH1 0x1F DUP3 ADD AND DUP3 ADD DUP1 PUSH1 0x40 MSTORE POP DUP2 ADD SWAP1 PUSH2 0x2B3A SWAP2 SWAP1 PUSH2 0x4A06 JUMP JUMPDEST PUSH2 0x2B56 JUMPI PUSH1 0x40 MLOAD PUSH3 0x461BCD PUSH1 0xE5 SHL DUP2 MSTORE PUSH1 0x4 ADD PUSH2 0x92B SWAP1 PUSH2 0x4B69 JUMP JUMPDEST DUP1 PUSH1 0x12 PUSH0 DUP3 DUP3 SLOAD PUSH2 0x2B67 SWAP2 SWAP1 PUSH2 0x49AC JUMP JUMPDEST SWAP1 SWAP2 SSTORE POP POP POP JUMP JUMPDEST PUSH1 0x1 SLOAD PUSH1 0x1 PUSH1 0x1 PUSH1 0xA0 SHL SUB AND CALLER EQ PUSH2 0x2B99 JUMPI PUSH1 0x40 MLOAD PUSH3 0x461BCD PUSH1 0xE5 SHL DUP2 MSTORE PUSH1 0x4 ADD PUSH2 0x92B SWAP1 PUSH2 0x4928 JUMP JUMPDEST PUSH2 0x2710 DUP2 GT ISZERO PUSH2 0x2BBB JUMPI PUSH1 0x40 MLOAD PUSH3 0x461BCD PUSH1 0xE5 SHL DUP2 MSTORE PUSH1 0x4 ADD PUSH2 0x92B SWAP1 PUSH2 0x494C JUMP JUMPDEST PUSH1 0x3 DUP2 SWAP1 SSTORE PUSH1 0x40 MLOAD DUP2 DUP2 MSTORE PUSH32 0x71CA8C1A2BC00717637FB3E9D048DA574B351106CFCF0832E2DFE20F4E633DCF SWAP1 PUSH1 0x20 ADD PUSH1 0x40 MLOAD DUP1 SWAP2 SUB SWAP1 LOG1 POP JUMP JUMPDEST PUSH1 0x6 DUP2 DUP2 SLOAD DUP2 LT PUSH2 0x2C05 JUMPI PUSH0 DUP1 REVERT JUMPDEST PUSH0 SWAP2 DUP3 MSTORE PUSH1 0x20 SWAP1 SWAP2 KECCAK256 ADD SLOAD PUSH1 0x1 PUSH1 0x1 PUSH1 0xA0 SHL SUB AND SWAP1 POP DUP2 JUMP JUMPDEST PUSH1 0x9 SLOAD PUSH0 SWAP1 TIMESTAMP SWAP1 JUMPDEST PUSH1 0x13 SLOAD DUP2 LT ISZERO PUSH2 0x2C95 JUMPI PUSH1 0x13 DUP2 DUP2 SLOAD DUP2 LT PUSH2 0x2C43 JUMPI PUSH2 0x2C43 PUSH2 0x4998 JUMP JUMPDEST SWAP1 PUSH0 MSTORE PUSH1 0x20 PUSH0 KECCAK256 SWAP1 PUSH1 0x3 MUL ADD PUSH0 ADD SLOAD DUP3 LT ISZERO DUP1 ISZERO PUSH2 0x2C82 JUMPI POP PUSH1 0x13 DUP2 DUP2 SLOAD DUP2 LT PUSH2 0x2C6F JUMPI PUSH2 0x2C6F PUSH2 0x4998 JUMP JUMPDEST SWAP1 PUSH0 MSTORE PUSH1 0x20 PUSH0 KECCAK256 SWAP1 PUSH1 0x3 MUL ADD PUSH1 0x1 ADD SLOAD DUP3 LT JUMPDEST ISZERO PUSH2 0x2C8D JUMPI SWAP3 SWAP2 POP POP JUMP JUMPDEST PUSH1 0x1 ADD PUSH2 0x2C26 JUMP JUMPDEST POP POP PUSH1 0x13 SLOAD SWAP2 SWAP1 POP JUMP JUMPDEST PUSH1 0x1 SLOAD PUSH1 0x1 PUSH1 0x1 PUSH1 0xA0 SHL SUB AND CALLER EQ PUSH2 0x2CC9 JUMPI PUSH1 0x40 MLOAD PUSH3 0x461BCD PUSH1 0xE5 SHL DUP2 MSTORE PUSH1 0x4 ADD PUSH2 0x92B SWAP1 PUSH2 0x4928 JUMP JUMPDEST PUSH1 0x13 SLOAD PUSH2 0x2D01 JUMPI PUSH1 0x40 MLOAD PUSH3 0x461BCD PUSH1 0xE5 SHL DUP2 MSTORE PUSH1 0x4 ADD PUSH2 0x92B SWAP1 PUSH1 0x20 DUP1 DUP3 MSTORE PUSH1 0x4 SWAP1 DUP3 ADD MSTORE PUSH4 0x4E6F6E65 PUSH1 0xE0 SHL PUSH1 0x40 DUP3 ADD MSTORE PUSH1 0x60 ADD SWAP1 JUMP JUMPDEST PUSH1 0x13 DUP1 SLOAD TIMESTAMP SWAP2 SWAP1 PUSH2 0x2D14 SWAP1 PUSH1 0x1 SWAP1 PUSH2 0x4985 JUMP JUMPDEST DUP2 SLOAD DUP2 LT PUSH2 0x2D24 JUMPI PUSH2 0x2D24 PUSH2 0x4998 JUMP JUMPDEST SWAP1 PUSH0 MSTORE PUSH1 0x20 PUSH0 KECCAK256 SWAP1 PUSH1 0x3 MUL ADD PUSH0 ADD SLOAD GT PUSH2 0x2D6A JUMPI PUSH1 0x40 MLOAD PUSH3 0x461BCD PUSH1 0xE5 SHL DUP2 MSTORE PUSH1 0x20 PUSH1 0x4 DUP3 ADD MSTORE PUSH1 0x7 PUSH1 0x24 DUP3 ADD MSTORE PUSH7 0x14DD185C9D1959 PUSH1 0xCA SHL PUSH1 0x44 DUP3 ADD MSTORE PUSH1 0x64 ADD PUSH2 0x92B JUMP JUMPDEST PUSH1 0x13 DUP1 SLOAD DUP1 PUSH2 0x2D7B JUMPI PUSH2 0x2D7B PUSH2 0x4B85 JUMP JUMPDEST PUSH0 DUP3 DUP2 MSTORE PUSH1 0x20 DUP2 KECCAK256 PUSH1 0x3 PUSH0 NOT SWAP1 SWAP4 ADD SWAP3 DUP4 MUL ADD DUP2 DUP2 SSTORE PUSH1 0x1 DUP2 ADD DUP3 SWAP1 SSTORE PUSH1 0x2 ADD SSTORE SWAP1 SSTORE PUSH1 0x13 SLOAD PUSH1 0x40 MLOAD PUSH32 0xD84BA012185E6B11C267BBF53304405446699FDED2A2A85C6C6523D2CD3FD790 SWAP2 PUSH2 0x2DD3 SWAP2 SWAP1 DUP2 MSTORE PUSH1 0x20 ADD SWAP1 JUMP JUMPDEST PUSH1 0x40 MLOAD DUP1 SWAP2 SUB SWAP1 LOG1 JUMP JUMPDEST PUSH1 0xA DUP2 DUP2 SLOAD DUP2 LT PUSH2 0x2DEC JUMPI PUSH0 DUP1 REVERT JUMPDEST PUSH0 SWAP2 DUP3 MSTORE PUSH1 0x20 SWAP1 SWAP2 KECCAK256 PUSH1 0xD SWAP1 SWAP2 MUL ADD DUP1 SLOAD PUSH1 0x1 DUP3 ADD SLOAD PUSH1 0x2 DUP4 ADD SLOAD PUSH1 0x3 DUP5 ADD SLOAD PUSH1 0x4 DUP6 ADD SLOAD PUSH1 0x5 DUP7 ADD SLOAD PUSH1 0x6 DUP8 ADD SLOAD PUSH1 0x7 DUP9 ADD SLOAD PUSH1 0x8 DUP10 ADD SLOAD PUSH1 0x9 DUP11 ADD SLOAD PUSH1 0xA DUP12 ADD SLOAD PUSH1 0xB DUP13 ADD SLOAD PUSH1 0xC SWAP1 SWAP13 ADD SLOAD SWAP11 SWAP13 POP PUSH1 0x1 PUSH1 0x1 PUSH1 0xA0 SHL SUB SWAP1 SWAP10 AND SWAP11 SWAP8 SWAP10 SWAP7 SWAP9 SWAP6 SWAP8 SWAP5 SWAP7 SWAP4 SWAP6 SWAP3 SWAP5 SWAP2 SWAP4 PUSH1 0xFF DUP1 DUP4 AND SWAP5 PUSH2 0x100 SWAP1 SWAP4 DIV DUP2 AND SWAP4 AND SWAP1 DUP15 JUMP JUMPDEST PUSH2 0x2E73 PUSH2 0x3859 JUMP JUMPDEST PUSH2 0x2E81 CALLER DUP4 DUP4 PUSH0 PUSH0 PUSH0 PUSH2 0x3881 JUMP JUMPDEST PUSH2 0x2E8A PUSH1 0x1 PUSH0 SSTORE JUMP JUMPDEST POP POP JUMP JUMPDEST PUSH1 0x1 SLOAD PUSH1 0x1 PUSH1 0x1 PUSH1 0xA0 SHL SUB AND CALLER EQ PUSH2 0x2EB8 JUMPI PUSH1 0x40 MLOAD PUSH3 0x461BCD PUSH1 0xE5 SHL DUP2 MSTORE PUSH1 0x4 ADD PUSH2 0x92B SWAP1 PUSH2 0x4928 JUMP JUMPDEST PUSH32 0x0 PUSH1 0x1 PUSH1 0x1 PUSH1 0xA0 SHL SUB AND DUP3 PUSH1 0x1 PUSH1 0x1 PUSH1 0xA0 SHL SUB AND SUB PUSH2 0x2F09 JUMPI PUSH1 0x40 MLOAD PUSH3 0x461BCD PUSH1 0xE5 SHL DUP2 MSTORE PUSH1 0x4 ADD PUSH2 0x92B SWAP1 PUSH2 0x4B69 JUMP JUMPDEST PUSH1 0x1 SLOAD PUSH1 0x40 MLOAD PUSH4 0xA9059CBB PUSH1 0xE0 SHL DUP2 MSTORE PUSH1 0x1 PUSH1 0x1 PUSH1 0xA0 SHL SUB SWAP2 DUP3 AND PUSH1 0x4 DUP3 ADD MSTORE PUSH1 0x24 DUP2 ADD DUP4 SWAP1 MSTORE SWAP1 DUP4 AND SWAP1 PUSH4 0xA9059CBB SWAP1 PUSH1 0x44 ADD PUSH1 0x20 PUSH1 0x40 MLOAD DUP1 DUP4 SUB DUP2 PUSH0 DUP8 GAS CALL ISZERO DUP1 ISZERO PUSH2 0x2F59 JUMPI RETURNDATASIZE PUSH0 PUSH0 RETURNDATACOPY RETURNDATASIZE PUSH0 REVERT JUMPDEST POP POP POP POP PUSH1 0x40 MLOAD RETURNDATASIZE PUSH1 0x1F NOT PUSH1 0x1F DUP3 ADD AND DUP3 ADD DUP1 PUSH1 0x40 MSTORE POP DUP2 ADD SWAP1 PUSH2 0x2F7D SWAP2 SWAP1 PUSH2 0x4A06 JUMP JUMPDEST PUSH2 0x2E8A JUMPI PUSH1 0x40 MLOAD PUSH3 0x461BCD PUSH1 0xE5 SHL DUP2 MSTORE PUSH1 0x20 PUSH1 0x4 DUP3 ADD MSTORE PUSH1 0x2 PUSH1 0x24 DUP3 ADD MSTORE PUSH2 0x2299 PUSH1 0xF1 SHL PUSH1 0x44 DUP3 ADD MSTORE PUSH1 0x64 ADD PUSH2 0x92B JUMP JUMPDEST PUSH1 0x1 SLOAD PUSH1 0x1 PUSH1 0x1 PUSH1 0xA0 SHL SUB AND CALLER EQ PUSH2 0x2FD8 JUMPI PUSH1 0x40 MLOAD PUSH3 0x461BCD PUSH1 0xE5 SHL DUP2 MSTORE PUSH1 0x4 ADD PUSH2 0x92B SWAP1 PUSH2 0x4928 JUMP JUMPDEST DUP1 PUSH1 0x12 SLOAD LT ISZERO PUSH2 0x2FFA JUMPI PUSH1 0x40 MLOAD PUSH3 0x461BCD PUSH1 0xE5 SHL DUP2 MSTORE PUSH1 0x4 ADD PUSH2 0x92B SWAP1 PUSH2 0x4B69 JUMP JUMPDEST PUSH1 0x40 MLOAD PUSH4 0xA9059CBB PUSH1 0xE0 SHL DUP2 MSTORE CALLER PUSH1 0x4 DUP3 ADD MSTORE PUSH1 0x24 DUP2 ADD DUP3 SWAP1 MSTORE PUSH32 0x0 PUSH1 0x1 PUSH1 0x1 PUSH1 0xA0 SHL SUB AND SWAP1 PUSH4 0xA9059CBB SWAP1 PUSH1 0x44 ADD PUSH1 0x20 PUSH1 0x40 MLOAD DUP1 DUP4 SUB DUP2 PUSH0 DUP8 GAS CALL ISZERO DUP1 ISZERO PUSH2 0x3064 JUMPI RETURNDATASIZE PUSH0 PUSH0 RETURNDATACOPY RETURNDATASIZE PUSH0 REVERT JUMPDEST POP POP POP POP PUSH1 0x40 MLOAD RETURNDATASIZE PUSH1 0x1F NOT PUSH1 0x1F DUP3 ADD AND DUP3 ADD DUP1 PUSH1 0x40 MSTORE POP DUP2 ADD SWAP1 PUSH2 0x3088 SWAP2 SWAP1 PUSH2 0x4A06 JUMP JUMPDEST PUSH2 0x30B9 JUMPI PUSH1 0x40 MLOAD PUSH3 0x461BCD PUSH1 0xE5 SHL DUP2 MSTORE PUSH1 0x20 PUSH1 0x4 DUP3 ADD MSTORE PUSH1 0x2 PUSH1 0x24 DUP3 ADD MSTORE PUSH2 0x2299 PUSH1 0xF1 SHL PUSH1 0x44 DUP3 ADD MSTORE PUSH1 0x64 ADD PUSH2 0x92B JUMP JUMPDEST DUP1 PUSH1 0x12 PUSH0 DUP3 DUP3 SLOAD PUSH2 0x2B67 SWAP2 SWAP1 PUSH2 0x4985 JUMP JUMPDEST PUSH1 0x1 PUSH1 0x1 PUSH1 0xA0 SHL SUB DUP2 AND PUSH0 SWAP1 DUP2 MSTORE PUSH1 0x8 PUSH1 0x20 SWAP1 DUP2 MSTORE PUSH1 0x40 SWAP2 DUP3 SWAP1 KECCAK256 DUP1 SLOAD DUP4 MLOAD DUP2 DUP5 MUL DUP2 ADD DUP5 ADD SWAP1 SWAP5 MSTORE DUP1 DUP5 MSTORE PUSH1 0x60 SWAP4 SWAP3 DUP4 ADD DUP3 DUP3 DUP1 ISZERO PUSH2 0x3127 JUMPI PUSH1 0x20 MUL DUP3 ADD SWAP2 SWAP1 PUSH0 MSTORE PUSH1 0x20 PUSH0 KECCAK256 SWAP1 JUMPDEST DUP2 SLOAD DUP2 MSTORE PUSH1 0x20 ADD SWAP1 PUSH1 0x1 ADD SWAP1 DUP1 DUP4 GT PUSH2 0x3113 JUMPI JUMPDEST POP POP POP POP POP SWAP1 POP SWAP2 SWAP1 POP JUMP JUMPDEST PUSH0 PUSH0 PUSH2 0x313D PUSH2 0x2C1E JUMP JUMPDEST PUSH1 0x13 SLOAD SWAP1 SWAP2 POP DUP2 LT PUSH2 0x3150 JUMPI PUSH0 SWAP2 POP POP SWAP1 JUMP JUMPDEST PUSH0 PUSH2 0x315A DUP3 PUSH2 0x4001 JUMP JUMPDEST SWAP1 POP PUSH2 0x2710 DUP2 PUSH1 0x10 SLOAD PUSH2 0x316D SWAP2 SWAP1 PUSH2 0x4A4A JUMP JUMPDEST PUSH2 0x3177 SWAP2 SWAP1 PUSH2 0x4A61 JUMP JUMPDEST SWAP3 POP POP POP SWAP1 JUMP JUMPDEST PUSH1 0x60 DUP2 PUSH0 SUB PUSH2 0x318D JUMPI PUSH1 0xA SLOAD SWAP2 POP JUMPDEST PUSH0 PUSH2 0x3198 DUP4 DUP6 PUSH2 0x49AC JUMP JUMPDEST PUSH1 0xA SLOAD SWAP1 SWAP2 POP DUP5 GT ISZERO PUSH2 0x31AB JUMPI POP PUSH2 0x1AA9 JUMP JUMPDEST PUSH1 0xA SLOAD DUP2 GT ISZERO PUSH2 0x31BA JUMPI POP PUSH1 0xA SLOAD JUMPDEST PUSH2 0x31C4 DUP5 DUP3 PUSH2 0x4985 JUMP JUMPDEST PUSH1 0x1 PUSH1 0x1 PUSH1 0x40 SHL SUB DUP2 GT ISZERO PUSH2 0x31DB JUMPI PUSH2 0x31DB PUSH2 0x42AD JUMP JUMPDEST PUSH1 0x40 MLOAD SWAP1 DUP1 DUP3 MSTORE DUP1 PUSH1 0x20 MUL PUSH1 0x20 ADD DUP3 ADD PUSH1 0x40 MSTORE DUP1 ISZERO PUSH2 0x3214 JUMPI DUP2 PUSH1 0x20 ADD JUMPDEST PUSH2 0x3201 PUSH2 0x415B JUMP JUMPDEST DUP2 MSTORE PUSH1 0x20 ADD SWAP1 PUSH1 0x1 SWAP1 SUB SWAP1 DUP2 PUSH2 0x31F9 JUMPI SWAP1 POP JUMPDEST POP SWAP2 POP PUSH0 JUMPDEST PUSH2 0x3223 DUP6 DUP4 PUSH2 0x4985 JUMP JUMPDEST DUP2 LT ISZERO PUSH2 0x1AA6 JUMPI PUSH1 0xA DUP1 SLOAD PUSH1 0x1 SWAP1 DUP8 SWAP1 PUSH2 0x323E SWAP1 DUP6 SWAP1 PUSH2 0x4985 JUMP JUMPDEST PUSH2 0x3248 SWAP2 SWAP1 PUSH2 0x4985 JUMP JUMPDEST PUSH2 0x3252 SWAP2 SWAP1 PUSH2 0x4985 JUMP JUMPDEST DUP2 SLOAD DUP2 LT PUSH2 0x3262 JUMPI PUSH2 0x3262 PUSH2 0x4998 JUMP JUMPDEST PUSH0 SWAP2 DUP3 MSTORE PUSH1 0x20 SWAP2 DUP3 SWAP1 KECCAK256 PUSH1 0x40 DUP1 MLOAD PUSH2 0x1C0 DUP2 ADD DUP3 MSTORE PUSH1 0xD SWAP1 SWAP4 MUL SWAP1 SWAP2 ADD DUP1 SLOAD DUP4 MSTORE PUSH1 0x1 DUP2 ADD SLOAD PUSH1 0x1 PUSH1 0x1 PUSH1 0xA0 SHL SUB AND SWAP4 DUP4 ADD SWAP4 SWAP1 SWAP4 MSTORE PUSH1 0x2 DUP4 ADD SLOAD SWAP1 DUP3 ADD MSTORE PUSH1 0x3 DUP3 ADD SLOAD PUSH1 0x60 DUP3 ADD MSTORE PUSH1 0x4 DUP3 ADD SLOAD PUSH1 0x80 DUP3 ADD MSTORE PUSH1 0x5 DUP3 ADD SLOAD PUSH1 0xA0 DUP3 ADD MSTORE PUSH1 0x6 DUP3 ADD SLOAD PUSH1 0xC0 DUP3 ADD MSTORE PUSH1 0x7 DUP3 ADD SLOAD PUSH1 0xE0 DUP3 ADD MSTORE PUSH1 0x8 DUP3 ADD SLOAD PUSH2 0x100 DUP1 DUP4 ADD SWAP2 SWAP1 SWAP2 MSTORE PUSH1 0x9 DUP4 ADD SLOAD PUSH1 0xFF DUP1 DUP3 AND ISZERO ISZERO PUSH2 0x120 DUP6 ADD MSTORE SWAP2 SWAP1 DIV DUP2 AND ISZERO ISZERO PUSH2 0x140 DUP4 ADD MSTORE PUSH1 0xA DUP4 ADD SLOAD PUSH2 0x160 DUP4 ADD MSTORE PUSH1 0xB DUP4 ADD SLOAD AND ISZERO ISZERO PUSH2 0x180 DUP3 ADD MSTORE PUSH1 0xC SWAP1 SWAP2 ADD SLOAD PUSH2 0x1A0 DUP3 ADD MSTORE DUP4 MLOAD DUP5 SWAP1 DUP4 SWAP1 DUP2 LT PUSH2 0x333A JUMPI PUSH2 0x333A PUSH2 0x4998 JUMP JUMPDEST PUSH1 0x20 MUL PUSH1 0x20 ADD ADD DUP2 SWAP1 MSTORE POP PUSH2 0x335A DUP4 DUP3 DUP2 MLOAD DUP2 LT PUSH2 0x1A6C JUMPI PUSH2 0x1A6C PUSH2 0x4998 JUMP JUMPDEST DUP4 DUP3 DUP2 MLOAD DUP2 LT PUSH2 0x336C JUMPI PUSH2 0x336C PUSH2 0x4998 JUMP JUMPDEST PUSH1 0x20 SWAP1 DUP2 MUL SWAP2 SWAP1 SWAP2 ADD ADD MLOAD PUSH2 0x100 ADD MSTORE PUSH1 0x1 ADD PUSH2 0x3219 JUMP JUMPDEST PUSH2 0x338C PUSH2 0x3859 JUMP JUMPDEST PUSH0 PUSH1 0xA DUP3 DUP2 SLOAD DUP2 LT PUSH2 0x33A0 JUMPI PUSH2 0x33A0 PUSH2 0x4998 JUMP JUMPDEST PUSH0 SWAP2 DUP3 MSTORE PUSH1 0x20 SWAP1 SWAP2 KECCAK256 PUSH1 0xD SWAP1 SWAP2 MUL ADD PUSH1 0x9 DUP2 ADD SLOAD SWAP1 SWAP2 POP PUSH1 0xFF AND PUSH2 0x33D6 JUMPI PUSH1 0x40 MLOAD PUSH3 0x461BCD PUSH1 0xE5 SHL DUP2 MSTORE PUSH1 0x4 ADD PUSH2 0x92B SWAP1 PUSH2 0x4B32 JUMP JUMPDEST PUSH1 0x1 DUP2 ADD SLOAD PUSH1 0x1 PUSH1 0x1 PUSH1 0xA0 SHL SUB AND CALLER EQ PUSH2 0x3402 JUMPI PUSH1 0x40 MLOAD PUSH3 0x461BCD PUSH1 0xE5 SHL DUP2 MSTORE PUSH1 0x4 ADD PUSH2 0x92B SWAP1 PUSH2 0x49BF JUMP JUMPDEST PUSH0 PUSH2 0x340C DUP4 PUSH2 0x11BA JUMP JUMPDEST SWAP1 POP PUSH0 DUP2 GT PUSH2 0x344A JUMPI PUSH1 0x40 MLOAD PUSH3 0x461BCD PUSH1 0xE5 SHL DUP2 MSTORE PUSH1 0x20 PUSH1 0x4 DUP3 ADD MSTORE PUSH1 0xA PUSH1 0x24 DUP3 ADD MSTORE PUSH10 0x4E6F2072657761726473 PUSH1 0xB0 SHL PUSH1 0x44 DUP3 ADD MSTORE PUSH1 0x64 ADD PUSH2 0x92B JUMP JUMPDEST DUP1 PUSH1 0x12 SLOAD LT ISZERO PUSH2 0x346C JUMPI PUSH1 0x40 MLOAD PUSH3 0x461BCD PUSH1 0xE5 SHL DUP2 MSTORE PUSH1 0x4 ADD PUSH2 0x92B SWAP1 PUSH2 0x49E2 JUMP JUMPDEST PUSH0 PUSH2 0x347B DUP4 PUSH1 0x7 ADD SLOAD PUSH0 PUSH2 0x3FB3 JUMP JUMPDEST SWAP1 POP DUP1 DUP4 PUSH1 0x7 ADD DUP2 SWAP1 SSTORE POP DUP2 PUSH1 0x12 PUSH0 DUP3 DUP3 SLOAD PUSH2 0x3497 SWAP2 SWAP1 PUSH2 0x4985 JUMP JUMPDEST SWAP3 POP POP DUP2 SWAP1 SSTORE POP DUP2 PUSH1 0x11 PUSH0 DUP3 DUP3 SLOAD PUSH2 0x34AF SWAP2 SWAP1 PUSH2 0x49AC JUMP JUMPDEST SWAP1 SWAP2 SSTORE POP POP PUSH0 DUP5 DUP2 MSTORE PUSH1 0xB PUSH1 0x20 MSTORE PUSH1 0x40 DUP2 KECCAK256 DUP1 SLOAD DUP5 SWAP3 SWAP1 PUSH2 0x34D1 SWAP1 DUP5 SWAP1 PUSH2 0x49AC JUMP JUMPDEST SWAP1 SWAP2 SSTORE POP POP PUSH0 DUP2 DUP2 MSTORE PUSH1 0x16 PUSH1 0x20 MSTORE PUSH1 0x40 DUP2 KECCAK256 DUP1 SLOAD DUP5 SWAP3 SWAP1 PUSH2 0x34F3 SWAP1 DUP5 SWAP1 PUSH2 0x49AC JUMP JUMPDEST SWAP1 SWAP2 SSTORE POP POP PUSH1 0x40 MLOAD PUSH4 0xA9059CBB PUSH1 0xE0 SHL DUP2 MSTORE CALLER PUSH1 0x4 DUP3 ADD MSTORE PUSH1 0x24 DUP2 ADD DUP4 SWAP1 MSTORE PUSH32 0x0 PUSH1 0x1 PUSH1 0x1 PUSH1 0xA0 SHL SUB AND SWAP1 PUSH4 0xA9059CBB SWAP1 PUSH1 0x44 ADD PUSH1 0x20 PUSH1 0x40 MLOAD DUP1 DUP4 SUB DUP2 PUSH0 DUP8 GAS CALL ISZERO DUP1 ISZERO PUSH2 0x3562 JUMPI RETURNDATASIZE PUSH0 PUSH0 RETURNDATACOPY RETURNDATASIZE PUSH0 REVERT JUMPDEST POP POP POP POP PUSH1 0x40 MLOAD RETURNDATASIZE PUSH1 0x1F NOT PUSH1 0x1F DUP3 ADD AND DUP3 ADD DUP1 PUSH1 0x40 MSTORE POP DUP2 ADD SWAP1 PUSH2 0x3586 SWAP2 SWAP1 PUSH2 0x4A06 JUMP JUMPDEST PUSH2 0x35A2 JUMPI PUSH1 0x40 MLOAD PUSH3 0x461BCD PUSH1 0xE5 SHL DUP2 MSTORE PUSH1 0x4 ADD PUSH2 0x92B SWAP1 PUSH2 0x4A21 JUMP JUMPDEST PUSH2 0x35AA PUSH2 0x2C1E JUMP JUMPDEST PUSH1 0x9 SSTORE PUSH1 0x40 DUP1 MLOAD DUP6 DUP2 MSTORE PUSH1 0x20 DUP2 ADD DUP5 SWAP1 MSTORE CALLER SWAP2 PUSH32 0xFA73D3AB3A92ED3F2B694757D8E4B2F3C293654B11B9C79111F8971F861B22B2 SWAP2 ADD PUSH2 0x25C6 JUMP JUMPDEST PUSH0 DUP4 ISZERO DUP1 PUSH2 0x35F1 JUMPI POP DUP3 ISZERO JUMPDEST ISZERO PUSH2 0x35FD JUMPI POP PUSH0 PUSH2 0x1E5F JUMP JUMPDEST DUP2 PUSH0 SUB PUSH2 0x3608 JUMPI TIMESTAMP SWAP2 POP JUMPDEST PUSH0 PUSH2 0x3612 DUP4 PUSH2 0x40E9 JUMP JUMPDEST PUSH1 0x13 SLOAD SWAP1 SWAP2 POP DUP2 LT PUSH2 0x3627 JUMPI PUSH0 SWAP2 POP POP PUSH2 0x1E5F JUMP JUMPDEST PUSH0 PUSH2 0x3632 DUP6 DUP4 PUSH2 0x49AC JUMP JUMPDEST PUSH1 0x13 SLOAD SWAP1 SWAP2 POP DUP2 GT ISZERO PUSH2 0x3644 JUMPI POP PUSH1 0x13 SLOAD JUMPDEST DUP2 DUP2 GT PUSH2 0x3655 JUMPI PUSH0 SWAP3 POP POP POP PUSH2 0x1E5F JUMP JUMPDEST PUSH0 DUP3 JUMPDEST DUP3 DUP2 LT ISZERO PUSH2 0x377C JUMPI PUSH0 PUSH1 0x13 DUP3 DUP2 SLOAD DUP2 LT PUSH2 0x3674 JUMPI PUSH2 0x3674 PUSH2 0x4998 JUMP JUMPDEST SWAP1 PUSH0 MSTORE PUSH1 0x20 PUSH0 KECCAK256 SWAP1 PUSH1 0x3 MUL ADD PUSH1 0x40 MLOAD DUP1 PUSH1 0x60 ADD PUSH1 0x40 MSTORE SWAP1 DUP2 PUSH0 DUP3 ADD SLOAD DUP2 MSTORE PUSH1 0x20 ADD PUSH1 0x1 DUP3 ADD SLOAD DUP2 MSTORE PUSH1 0x20 ADD PUSH1 0x2 DUP3 ADD SLOAD DUP2 MSTORE POP POP SWAP1 POP PUSH0 PUSH2 0x36B4 DUP4 PUSH2 0x4001 JUMP JUMPDEST SWAP1 POP PUSH0 PUSH2 0x2710 PUSH2 0x36C4 DUP4 DUP14 PUSH2 0x4A4A JUMP JUMPDEST PUSH2 0x36CE SWAP2 SWAP1 PUSH2 0x4A61 JUMP JUMPDEST SWAP1 POP DUP7 DUP5 SUB PUSH2 0x3763 JUMPI DUP3 MLOAD PUSH0 SWAP1 DUP11 GT PUSH2 0x36E8 JUMPI DUP4 MLOAD PUSH2 0x36EA JUMP JUMPDEST DUP10 JUMPDEST PUSH1 0x20 DUP6 ADD MLOAD SWAP1 SWAP2 POP DUP1 DUP3 LT PUSH2 0x3703 JUMPI POP POP POP POP POP PUSH2 0x3774 JUMP JUMPDEST PUSH0 PUSH2 0x370E DUP4 DUP4 PUSH2 0x4985 JUMP JUMPDEST SWAP1 POP PUSH0 DUP7 PUSH0 ADD MLOAD DUP8 PUSH1 0x20 ADD MLOAD PUSH2 0x3724 SWAP2 SWAP1 PUSH2 0x4985 JUMP JUMPDEST SWAP1 POP DUP1 PUSH0 SUB PUSH2 0x3739 JUMPI POP POP POP POP POP POP POP PUSH2 0x3774 JUMP JUMPDEST DUP1 PUSH2 0x3744 DUP4 DUP8 PUSH2 0x4A4A JUMP JUMPDEST PUSH2 0x374E SWAP2 SWAP1 PUSH2 0x4A61 JUMP JUMPDEST PUSH2 0x3758 SWAP1 DUP11 PUSH2 0x49AC JUMP JUMPDEST SWAP9 POP POP POP POP POP PUSH2 0x3770 JUMP JUMPDEST PUSH2 0x376D DUP2 DUP7 PUSH2 0x49AC JUMP JUMPDEST SWAP5 POP JUMPDEST POP POP POP JUMPDEST PUSH1 0x1 ADD PUSH2 0x3658 JUMP JUMPDEST POP SWAP7 SWAP6 POP POP POP POP POP POP JUMP JUMPDEST PUSH1 0x60 PUSH1 0x6 DUP1 SLOAD DUP1 PUSH1 0x20 MUL PUSH1 0x20 ADD PUSH1 0x40 MLOAD SWAP1 DUP2 ADD PUSH1 0x40 MSTORE DUP1 SWAP3 SWAP2 SWAP1 DUP2 DUP2 MSTORE PUSH1 0x20 ADD DUP3 DUP1 SLOAD DUP1 ISZERO PUSH2 0x37DD JUMPI PUSH1 0x20 MUL DUP3 ADD SWAP2 SWAP1 PUSH0 MSTORE PUSH1 0x20 PUSH0 KECCAK256 SWAP1 JUMPDEST DUP2 SLOAD PUSH1 0x1 PUSH1 0x1 PUSH1 0xA0 SHL SUB AND DUP2 MSTORE PUSH1 0x1 SWAP1 SWAP2 ADD SWAP1 PUSH1 0x20 ADD DUP1 DUP4 GT PUSH2 0x37BF JUMPI JUMPDEST POP POP POP POP POP SWAP1 POP SWAP1 JUMP JUMPDEST PUSH1 0x1 SLOAD PUSH1 0x1 PUSH1 0x1 PUSH1 0xA0 SHL SUB AND CALLER EQ PUSH2 0x3811 JUMPI PUSH1 0x40 MLOAD PUSH3 0x461BCD PUSH1 0xE5 SHL DUP2 MSTORE PUSH1 0x4 ADD PUSH2 0x92B SWAP1 PUSH2 0x4928 JUMP JUMPDEST PUSH1 0x1 PUSH1 0x1 PUSH1 0xA0 SHL SUB DUP2 AND PUSH2 0x3837 JUMPI PUSH1 0x40 MLOAD PUSH3 0x461BCD PUSH1 0xE5 SHL DUP2 MSTORE PUSH1 0x4 ADD PUSH2 0x92B SWAP1 PUSH2 0x4B69 JUMP JUMPDEST PUSH1 0x1 DUP1 SLOAD PUSH1 0x1 PUSH1 0x1 PUSH1 0xA0 SHL SUB NOT AND PUSH1 0x1 PUSH1 0x1 PUSH1 0xA0 SHL SUB SWAP3 SWAP1 SWAP3 AND SWAP2 SWAP1 SWAP2 OR SWAP1 SSTORE JUMP JUMPDEST PUSH1 0x2 PUSH0 SLOAD SUB PUSH2 0x387B JUMPI PUSH1 0x40 MLOAD PUSH4 0x3EE5AEB5 PUSH1 0xE0 SHL DUP2 MSTORE PUSH1 0x4 ADD PUSH1 0x40 MLOAD DUP1 SWAP2 SUB SWAP1 REVERT JUMPDEST PUSH1 0x2 PUSH0 SSTORE JUMP JUMPDEST PUSH1 0x5 SLOAD DUP6 LT ISZERO PUSH2 0x38C0 JUMPI PUSH1 0x40 MLOAD PUSH3 0x461BCD PUSH1 0xE5 SHL DUP2 MSTORE PUSH1 0x20 PUSH1 0x4 DUP3 ADD MSTORE PUSH1 0xA PUSH1 0x24 DUP3 ADD MSTORE PUSH10 0x135A5B88185B5BDD5B9D PUSH1 0xB2 SHL PUSH1 0x44 DUP3 ADD MSTORE PUSH1 0x64 ADD PUSH2 0x92B JUMP JUMPDEST PUSH1 0x4 SLOAD DUP5 LT ISZERO PUSH2 0x3908 JUMPI PUSH1 0x40 MLOAD PUSH3 0x461BCD PUSH1 0xE5 SHL DUP2 MSTORE PUSH1 0x20 PUSH1 0x4 DUP3 ADD MSTORE PUSH1 0x13 PUSH1 0x24 DUP3 ADD MSTORE PUSH19 0x2637B1B59036BAB9BA1031329033B932B0B2B9 PUSH1 0x69 SHL PUSH1 0x44 DUP3 ADD MSTORE PUSH1 0x64 ADD PUSH2 0x92B JUMP JUMPDEST PUSH1 0x13 SLOAD PUSH2 0x3943 JUMPI PUSH1 0x40 MLOAD PUSH3 0x461BCD PUSH1 0xE5 SHL DUP2 MSTORE PUSH1 0x20 PUSH1 0x4 DUP3 ADD MSTORE PUSH1 0x9 PUSH1 0x24 DUP3 ADD MSTORE PUSH9 0x4E6F206D6F6E746873 PUSH1 0xB8 SHL PUSH1 0x44 DUP3 ADD MSTORE PUSH1 0x64 ADD PUSH2 0x92B JUMP JUMPDEST PUSH0 PUSH2 0x394C PUSH2 0x2C1E JUMP JUMPDEST PUSH1 0x13 SLOAD SWAP1 SWAP2 POP DUP2 LT PUSH2 0x3993 JUMPI PUSH1 0x40 MLOAD PUSH3 0x461BCD PUSH1 0xE5 SHL DUP2 MSTORE PUSH1 0x20 PUSH1 0x4 DUP3 ADD MSTORE PUSH1 0x10 PUSH1 0x24 DUP3 ADD MSTORE PUSH16 0x151A5B59481B9BDD0818DBDD995C9959 PUSH1 0x82 SHL PUSH1 0x44 DUP3 ADD MSTORE PUSH1 0x64 ADD PUSH2 0x92B JUMP JUMPDEST PUSH0 PUSH2 0x399E DUP7 DUP4 PUSH2 0x49AC JUMP JUMPDEST PUSH1 0x13 SLOAD SWAP1 SWAP2 POP DUP2 GT ISZERO PUSH2 0x3A01 JUMPI PUSH1 0x40 MLOAD PUSH3 0x461BCD PUSH1 0xE5 SHL DUP2 MSTORE PUSH1 0x20 PUSH1 0x4 DUP3 ADD MSTORE PUSH1 0x25 PUSH1 0x24 DUP3 ADD MSTORE PUSH32 0x4C6F636B20706572696F64206578636565647320636F6E66696775726564206D PUSH1 0x44 DUP3 ADD MSTORE PUSH5 0x6F6E746873 PUSH1 0xD8 SHL PUSH1 0x64 DUP3 ADD MSTORE PUSH1 0x84 ADD PUSH2 0x92B JUMP JUMPDEST PUSH1 0x40 MLOAD PUSH4 0x23B872DD PUSH1 0xE0 SHL DUP2 MSTORE CALLER PUSH1 0x4 DUP3 ADD MSTORE ADDRESS PUSH1 0x24 DUP3 ADD MSTORE PUSH1 0x44 DUP2 ADD DUP9 SWAP1 MSTORE PUSH32 0x0 PUSH1 0x1 PUSH1 0x1 PUSH1 0xA0 SHL SUB AND SWAP1 PUSH4 0x23B872DD SWAP1 PUSH1 0x64 ADD PUSH1 0x20 PUSH1 0x40 MLOAD DUP1 DUP4 SUB DUP2 PUSH0 DUP8 GAS CALL ISZERO DUP1 ISZERO PUSH2 0x3A71 JUMPI RETURNDATASIZE PUSH0 PUSH0 RETURNDATACOPY RETURNDATASIZE PUSH0 REVERT JUMPDEST POP POP POP POP PUSH1 0x40 MLOAD RETURNDATASIZE PUSH1 0x1F NOT PUSH1 0x1F DUP3 ADD AND DUP3 ADD DUP1 PUSH1 0x40 MSTORE POP DUP2 ADD SWAP1 PUSH2 0x3A95 SWAP2 SWAP1 PUSH2 0x4A06 JUMP JUMPDEST PUSH2 0x3AB1 JUMPI PUSH1 0x40 MLOAD PUSH3 0x461BCD PUSH1 0xE5 SHL DUP2 MSTORE PUSH1 0x4 ADD PUSH2 0x92B SWAP1 PUSH2 0x4A21 JUMP JUMPDEST PUSH1 0x1 PUSH1 0x1 PUSH1 0xA0 SHL SUB DUP9 AND PUSH0 SWAP1 DUP2 MSTORE PUSH1 0x7 PUSH1 0x20 MSTORE PUSH1 0x40 SWAP1 KECCAK256 SLOAD PUSH1 0xFF AND PUSH2 0x3B35 JUMPI PUSH1 0x1 PUSH1 0x1 PUSH1 0xA0 SHL SUB DUP9 AND PUSH0 DUP2 DUP2 MSTORE PUSH1 0x7 PUSH1 0x20 MSTORE PUSH1 0x40 DUP2 KECCAK256 DUP1 SLOAD PUSH1 0xFF NOT AND PUSH1 0x1 SWAP1 DUP2 OR SWAP1 SWAP2 SSTORE PUSH1 0x6 DUP1 SLOAD SWAP2 DUP3 ADD DUP2 SSTORE SWAP1 SWAP2 MSTORE PUSH32 0xF652222313E28459528D920B65115C16C04F3EFC82AAEDC97BE59F3F377C0D3F ADD DUP1 SLOAD PUSH1 0x1 PUSH1 0x1 PUSH1 0xA0 SHL SUB NOT AND SWAP1 SWAP2 OR SWAP1 SSTORE JUMPDEST PUSH1 0xA PUSH1 0x40 MLOAD DUP1 PUSH2 0x1C0 ADD PUSH1 0x40 MSTORE DUP1 PUSH1 0xA DUP1 SLOAD SWAP1 POP DUP2 MSTORE PUSH1 0x20 ADD DUP11 PUSH1 0x1 PUSH1 0x1 PUSH1 0xA0 SHL SUB AND DUP2 MSTORE PUSH1 0x20 ADD DUP10 DUP2 MSTORE PUSH1 0x20 ADD DUP5 DUP2 MSTORE PUSH1 0x20 ADD TIMESTAMP DUP2 MSTORE PUSH1 0x20 ADD PUSH0 DUP2 MSTORE PUSH1 0x20 ADD DUP4 DUP2 MSTORE PUSH1 0x20 ADD DUP5 DUP2 MSTORE PUSH1 0x20 ADD PUSH0 DUP2 MSTORE PUSH1 0x20 ADD PUSH1 0x1 ISZERO ISZERO DUP2 MSTORE PUSH1 0x20 ADD PUSH0 ISZERO ISZERO DUP2 MSTORE PUSH1 0x20 ADD PUSH0 DUP2 MSTORE PUSH1 0x20 ADD DUP8 ISZERO ISZERO DUP2 MSTORE PUSH1 0x20 ADD DUP7 DUP2 MSTORE POP SWAP1 DUP1 PUSH1 0x1 DUP2 SLOAD ADD DUP1 DUP3 SSTORE DUP1 SWAP2 POP POP PUSH1 0x1 SWAP1 SUB SWAP1 PUSH0 MSTORE PUSH1 0x20 PUSH0 KECCAK256 SWAP1 PUSH1 0xD MUL ADD PUSH0 SWAP1 SWAP2 SWAP1 SWAP2 SWAP1 SWAP2 POP PUSH0 DUP3 ADD MLOAD DUP2 PUSH0 ADD SSTORE PUSH1 0x20 DUP3 ADD MLOAD DUP2 PUSH1 0x1 ADD PUSH0 PUSH2 0x100 EXP DUP2 SLOAD DUP2 PUSH1 0x1 PUSH1 0x1 PUSH1 0xA0 SHL SUB MUL NOT AND SWAP1 DUP4 PUSH1 0x1 PUSH1 0x1 PUSH1 0xA0 SHL SUB AND MUL OR SWAP1 SSTORE POP PUSH1 0x40 DUP3 ADD MLOAD DUP2 PUSH1 0x2 ADD SSTORE PUSH1 0x60 DUP3 ADD MLOAD DUP2 PUSH1 0x3 ADD SSTORE PUSH1 0x80 DUP3 ADD MLOAD DUP2 PUSH1 0x4 ADD SSTORE PUSH1 0xA0 DUP3 ADD MLOAD DUP2 PUSH1 0x5 ADD SSTORE PUSH1 0xC0 DUP3 ADD MLOAD DUP2 PUSH1 0x6 ADD SSTORE PUSH1 0xE0 DUP3 ADD MLOAD DUP2 PUSH1 0x7 ADD SSTORE PUSH2 0x100 DUP3 ADD MLOAD DUP2 PUSH1 0x8 ADD SSTORE PUSH2 0x120 DUP3 ADD MLOAD DUP2 PUSH1 0x9 ADD PUSH0 PUSH2 0x100 EXP DUP2 SLOAD DUP2 PUSH1 0xFF MUL NOT AND SWAP1 DUP4 ISZERO ISZERO MUL OR SWAP1 SSTORE POP PUSH2 0x140 DUP3 ADD MLOAD DUP2 PUSH1 0x9 ADD PUSH1 0x1 PUSH2 0x100 EXP DUP2 SLOAD DUP2 PUSH1 0xFF MUL NOT AND SWAP1 DUP4 ISZERO ISZERO MUL OR SWAP1 SSTORE POP PUSH2 0x160 DUP3 ADD MLOAD DUP2 PUSH1 0xA ADD SSTORE PUSH2 0x180 DUP3 ADD MLOAD DUP2 PUSH1 0xB ADD PUSH0 PUSH2 0x100 EXP DUP2 SLOAD DUP2 PUSH1 0xFF MUL NOT AND SWAP1 DUP4 ISZERO ISZERO MUL OR SWAP1 SSTORE POP PUSH2 0x1A0 DUP3 ADD MLOAD DUP2 PUSH1 0xC ADD SSTORE POP POP PUSH0 PUSH1 0x1 PUSH1 0xA DUP1 SLOAD SWAP1 POP PUSH2 0x3CD7 SWAP2 SWAP1 PUSH2 0x4985 JUMP JUMPDEST PUSH0 DUP2 DUP2 MSTORE PUSH1 0xC PUSH1 0x20 SWAP1 DUP2 MSTORE PUSH1 0x40 DUP1 DUP4 KECCAK256 DUP1 SLOAD PUSH1 0xFF NOT AND DUP10 ISZERO ISZERO OR SWAP1 SSTORE PUSH1 0x1 PUSH1 0x1 PUSH1 0xA0 SHL SUB DUP14 AND DUP4 MSTORE PUSH1 0x8 DUP3 MSTORE DUP3 KECCAK256 DUP1 SLOAD PUSH1 0x1 DUP2 ADD DUP3 SSTORE SWAP1 DUP4 MSTORE SWAP1 DUP3 KECCAK256 ADD DUP3 SWAP1 SSTORE PUSH1 0x9 DUP6 SWAP1 SSTORE PUSH1 0x10 DUP1 SLOAD SWAP3 SWAP4 POP DUP11 SWAP3 SWAP1 SWAP2 SWAP1 PUSH2 0x3D33 SWAP1 DUP5 SWAP1 PUSH2 0x49AC JUMP JUMPDEST SWAP1 SWAP2 SSTORE POP POP PUSH1 0xF DUP1 SLOAD SWAP1 PUSH0 PUSH2 0x3D47 DUP4 PUSH2 0x4B99 JUMP JUMPDEST SWAP1 SWAP2 SSTORE POP POP PUSH1 0xD DUP1 SLOAD PUSH1 0x1 DUP2 DUP2 ADD DUP4 SSTORE PUSH0 DUP4 SWAP1 MSTORE PUSH32 0xD7B6990105719101DABEB77144F2A3385C8033ACD3AF97E9423A695E81AD1EB5 SWAP1 SWAP2 ADD DUP4 SWAP1 SSTORE SWAP1 SLOAD PUSH2 0x3D8E SWAP2 SWAP1 PUSH2 0x4985 JUMP JUMPDEST PUSH0 DUP3 DUP2 MSTORE PUSH1 0xE PUSH1 0x20 SWAP1 DUP2 MSTORE PUSH1 0x40 DUP1 DUP4 KECCAK256 SWAP4 SWAP1 SWAP4 SSTORE DUP6 DUP3 MSTORE PUSH1 0x14 SWAP1 MSTORE SWAP1 DUP2 KECCAK256 DUP1 SLOAD SWAP2 PUSH2 0x3DB8 DUP4 PUSH2 0x4B99 JUMP JUMPDEST SWAP1 SWAP2 SSTORE POP POP PUSH0 DUP4 DUP2 MSTORE PUSH1 0x15 PUSH1 0x20 MSTORE PUSH1 0x40 DUP2 KECCAK256 DUP1 SLOAD DUP11 SWAP3 SWAP1 PUSH2 0x3DDA SWAP1 DUP5 SWAP1 PUSH2 0x49AC JUMP JUMPDEST SWAP1 SWAP2 SSTORE POP POP PUSH1 0x40 DUP1 MLOAD DUP3 DUP2 MSTORE PUSH1 0x20 DUP2 ADD DUP11 SWAP1 MSTORE SWAP1 DUP2 ADD DUP9 SWAP1 MSTORE PUSH1 0x60 DUP2 ADD DUP4 SWAP1 MSTORE PUSH1 0x1 PUSH1 0x1 PUSH1 0xA0 SHL SUB DUP11 AND SWAP1 PUSH32 0x554F20505671494900B631B0E443E9E7A59743EC9889B05E28D8AC9EA158266B SWAP1 PUSH1 0x80 ADD PUSH1 0x40 MLOAD DUP1 SWAP2 SUB SWAP1 LOG2 POP POP POP POP POP POP POP POP POP JUMP JUMPDEST DUP2 DUP4 LT PUSH2 0x3E7C JUMPI PUSH1 0x40 MLOAD PUSH3 0x461BCD PUSH1 0xE5 SHL DUP2 MSTORE PUSH1 0x20 PUSH1 0x4 DUP3 ADD MSTORE PUSH1 0xD PUSH1 0x24 DUP3 ADD MSTORE PUSH13 0x496E76616C69642072616E6765 PUSH1 0x98 SHL PUSH1 0x44 DUP3 ADD MSTORE PUSH1 0x64 ADD PUSH2 0x92B JUMP JUMPDEST DUP1 ISZERO PUSH2 0x3EA4 JUMPI PUSH2 0x2710 DUP2 GT ISZERO PUSH2 0x3EA4 JUMPI PUSH1 0x40 MLOAD PUSH3 0x461BCD PUSH1 0xE5 SHL DUP2 MSTORE PUSH1 0x4 ADD PUSH2 0x92B SWAP1 PUSH2 0x494C JUMP JUMPDEST PUSH1 0x13 SLOAD ISZERO PUSH2 0x3F11 JUMPI PUSH1 0x13 DUP1 SLOAD PUSH2 0x3EBC SWAP1 PUSH1 0x1 SWAP1 PUSH2 0x4985 JUMP JUMPDEST DUP2 SLOAD DUP2 LT PUSH2 0x3ECC JUMPI PUSH2 0x3ECC PUSH2 0x4998 JUMP JUMPDEST SWAP1 PUSH0 MSTORE PUSH1 0x20 PUSH0 KECCAK256 SWAP1 PUSH1 0x3 MUL ADD PUSH1 0x1 ADD SLOAD DUP4 LT ISZERO PUSH2 0x3F11 JUMPI PUSH1 0x40 MLOAD PUSH3 0x461BCD PUSH1 0xE5 SHL DUP2 MSTORE PUSH1 0x20 PUSH1 0x4 DUP3 ADD MSTORE PUSH1 0x3 PUSH1 0x24 DUP3 ADD MSTORE PUSH3 0x536571 PUSH1 0xE8 SHL PUSH1 0x44 DUP3 ADD MSTORE PUSH1 0x64 ADD PUSH2 0x92B JUMP JUMPDEST PUSH1 0x40 DUP1 MLOAD PUSH1 0x60 DUP2 ADD DUP3 MSTORE SWAP4 DUP5 MSTORE PUSH1 0x20 DUP5 ADD SWAP3 DUP4 MSTORE DUP4 ADD SWAP1 DUP2 MSTORE PUSH1 0x13 DUP1 SLOAD PUSH1 0x1 DUP2 ADD DUP3 SSTORE PUSH0 SWAP2 SWAP1 SWAP2 MSTORE SWAP3 MLOAD PUSH32 0x66DE8FFDA797E3DE9C05E8FC57B3BF0EC28A930D40B0D285D93C06501CF6A090 PUSH1 0x3 SWAP1 SWAP5 MUL SWAP4 DUP5 ADD SSTORE SWAP1 MLOAD PUSH32 0x66DE8FFDA797E3DE9C05E8FC57B3BF0EC28A930D40B0D285D93C06501CF6A091 DUP4 ADD SSTORE MLOAD PUSH32 0x66DE8FFDA797E3DE9C05E8FC57B3BF0EC28A930D40B0D285D93C06501CF6A092 SWAP1 SWAP2 ADD SSTORE JUMP JUMPDEST PUSH0 DUP2 PUSH0 SUB PUSH2 0x3FBF JUMPI TIMESTAMP SWAP2 POP JUMPDEST DUP3 JUMPDEST PUSH1 0x13 SLOAD DUP2 LT DUP1 ISZERO PUSH2 0x3FF4 JUMPI POP DUP3 PUSH1 0x13 DUP3 DUP2 SLOAD DUP2 LT PUSH2 0x3FE1 JUMPI PUSH2 0x3FE1 PUSH2 0x4998 JUMP JUMPDEST SWAP1 PUSH0 MSTORE PUSH1 0x20 PUSH0 KECCAK256 SWAP1 PUSH1 0x3 MUL ADD PUSH1 0x1 ADD SLOAD GT ISZERO JUMPDEST ISZERO PUSH2 0x1E5F JUMPI PUSH1 0x1 ADD PUSH2 0x3FC1 JUMP JUMPDEST PUSH0 PUSH0 PUSH1 0x13 DUP4 DUP2 SLOAD DUP2 LT PUSH2 0x4016 JUMPI PUSH2 0x4016 PUSH2 0x4998 JUMP JUMPDEST SWAP1 PUSH0 MSTORE PUSH1 0x20 PUSH0 KECCAK256 SWAP1 PUSH1 0x3 MUL ADD PUSH1 0x2 ADD SLOAD SWAP1 POP DUP1 PUSH0 EQ PUSH2 0x4035 JUMPI DUP1 PUSH2 0x1E5F JUMP JUMPDEST PUSH1 0x3 SLOAD SWAP4 SWAP3 POP POP POP JUMP JUMPDEST PUSH0 DUP2 DUP2 MSTORE PUSH1 0xE PUSH1 0x20 MSTORE PUSH1 0x40 DUP2 KECCAK256 SLOAD PUSH1 0xD DUP1 SLOAD SWAP2 SWAP3 SWAP2 PUSH2 0x4060 SWAP1 PUSH1 0x1 SWAP1 PUSH2 0x4985 JUMP JUMPDEST DUP2 SLOAD DUP2 LT PUSH2 0x4070 JUMPI PUSH2 0x4070 PUSH2 0x4998 JUMP JUMPDEST SWAP1 PUSH0 MSTORE PUSH1 0x20 PUSH0 KECCAK256 ADD SLOAD SWAP1 POP DUP1 PUSH1 0xD DUP4 DUP2 SLOAD DUP2 LT PUSH2 0x408F JUMPI PUSH2 0x408F PUSH2 0x4998 JUMP JUMPDEST PUSH0 SWAP2 DUP3 MSTORE PUSH1 0x20 DUP1 DUP4 KECCAK256 SWAP1 SWAP2 ADD SWAP3 SWAP1 SWAP3 SSTORE DUP3 DUP2 MSTORE PUSH1 0xE SWAP1 SWAP2 MSTORE PUSH1 0x40 SWAP1 KECCAK256 DUP3 SWAP1 SSTORE PUSH1 0xD DUP1 SLOAD DUP1 PUSH2 0x40BF JUMPI PUSH2 0x40BF PUSH2 0x4B85 JUMP JUMPDEST PUSH0 DUP3 DUP2 MSTORE PUSH1 0x20 DUP1 DUP3 KECCAK256 DUP4 ADD PUSH0 NOT SWAP1 DUP2 ADD DUP4 SWAP1 SSTORE SWAP1 SWAP3 ADD SWAP1 SWAP3 SSTORE SWAP4 DUP2 MSTORE PUSH1 0xE SWAP1 SWAP4 MSTORE POP POP PUSH1 0x40 DUP2 KECCAK256 SSTORE JUMP JUMPDEST PUSH0 DUP1 JUMPDEST PUSH1 0x13 SLOAD DUP2 LT ISZERO PUSH2 0x2C95 JUMPI PUSH1 0x13 DUP2 DUP2 SLOAD DUP2 LT PUSH2 0x4109 JUMPI PUSH2 0x4109 PUSH2 0x4998 JUMP JUMPDEST SWAP1 PUSH0 MSTORE PUSH1 0x20 PUSH0 KECCAK256 SWAP1 PUSH1 0x3 MUL ADD PUSH0 ADD SLOAD DUP4 LT ISZERO DUP1 ISZERO PUSH2 0x4148 JUMPI POP PUSH1 0x13 DUP2 DUP2 SLOAD DUP2 LT PUSH2 0x4135 JUMPI PUSH2 0x4135 PUSH2 0x4998 JUMP JUMPDEST SWAP1 PUSH0 MSTORE PUSH1 0x20 PUSH0 KECCAK256 SWAP1 PUSH1 0x3 MUL ADD PUSH1 0x1 ADD SLOAD DUP4 LT JUMPDEST ISZERO PUSH2 0x4153 JUMPI SWAP3 SWAP2 POP POP JUMP JUMPDEST PUSH1 0x1 ADD PUSH2 0x40EC JUMP JUMPDEST PUSH1 0x40 MLOAD DUP1 PUSH2 0x1C0 ADD PUSH1 0x40 MSTORE DUP1 PUSH0 DUP2 MSTORE PUSH1 0x20 ADD PUSH0 PUSH1 0x1 PUSH1 0x1 PUSH1 0xA0 SHL SUB AND DUP2 MSTORE PUSH1 0x20 ADD PUSH0 DUP2 MSTORE PUSH1 0x20 ADD PUSH0 DUP2 MSTORE PUSH1 0x20 ADD PUSH0 DUP2 MSTORE PUSH1 0x20 ADD PUSH0 DUP2 MSTORE PUSH1 0x20 ADD PUSH0 DUP2 MSTORE PUSH1 0x20 ADD PUSH0 DUP2 MSTORE PUSH1 0x20 ADD PUSH0 DUP2 MSTORE PUSH1 0x20 ADD PUSH0 ISZERO ISZERO DUP2 MSTORE PUSH1 0x20 ADD PUSH0 ISZERO ISZERO DUP2 MSTORE PUSH1 0x20 ADD PUSH0 DUP2 MSTORE PUSH1 0x20 ADD PUSH0 ISZERO ISZERO DUP2 MSTORE PUSH1 0x20 ADD PUSH0 DUP2 MSTORE POP SWAP1 JUMP JUMPDEST PUSH0 PUSH0 PUSH0 PUSH0 PUSH1 0x80 DUP6 DUP8 SUB SLT ISZERO PUSH2 0x41DE JUMPI PUSH0 PUSH0 REVERT JUMPDEST POP POP DUP3 CALLDATALOAD SWAP5 PUSH1 0x20 DUP5 ADD CALLDATALOAD SWAP5 POP PUSH1 0x40 DUP5 ADD CALLDATALOAD SWAP4 PUSH1 0x60 ADD CALLDATALOAD SWAP3 POP SWAP1 POP JUMP JUMPDEST DUP1 CALLDATALOAD PUSH1 0x1 PUSH1 0x1 PUSH1 0xA0 SHL SUB DUP2 AND DUP2 EQ PUSH2 0x4210 JUMPI PUSH0 PUSH0 REVERT JUMPDEST SWAP2 SWAP1 POP JUMP JUMPDEST DUP1 ISZERO ISZERO DUP2 EQ PUSH2 0x112D JUMPI PUSH0 PUSH0 REVERT JUMPDEST PUSH0 PUSH0 PUSH0 PUSH0 PUSH0 PUSH1 0xA0 DUP7 DUP9 SUB SLT ISZERO PUSH2 0x4236 JUMPI PUSH0 PUSH0 REVERT JUMPDEST PUSH2 0x423F DUP7 PUSH2 0x41FA JUMP JUMPDEST SWAP5 POP PUSH1 0x20 DUP7 ADD CALLDATALOAD SWAP4 POP PUSH1 0x40 DUP7 ADD CALLDATALOAD SWAP3 POP PUSH1 0x60 DUP7 ADD CALLDATALOAD PUSH2 0x425D DUP2 PUSH2 0x4215 JUMP JUMPDEST SWAP5 SWAP8 SWAP4 SWAP7 POP SWAP2 SWAP5 PUSH1 0x80 ADD CALLDATALOAD SWAP3 SWAP2 POP POP JUMP JUMPDEST PUSH0 PUSH0 PUSH1 0x40 DUP4 DUP6 SUB SLT ISZERO PUSH2 0x427F JUMPI PUSH0 PUSH0 REVERT JUMPDEST PUSH2 0x4288 DUP4 PUSH2 0x41FA JUMP JUMPDEST SWAP5 PUSH1 0x20 SWAP4 SWAP1 SWAP4 ADD CALLDATALOAD SWAP4 POP POP POP JUMP JUMPDEST PUSH0 PUSH1 0x20 DUP3 DUP5 SUB SLT ISZERO PUSH2 0x42A6 JUMPI PUSH0 PUSH0 REVERT JUMPDEST POP CALLDATALOAD SWAP2 SWAP1 POP JUMP JUMPDEST PUSH4 0x4E487B71 PUSH1 0xE0 SHL PUSH0 MSTORE PUSH1 0x41 PUSH1 0x4 MSTORE PUSH1 0x24 PUSH0 REVERT JUMPDEST PUSH1 0x40 MLOAD PUSH1 0x1F DUP3 ADD PUSH1 0x1F NOT AND DUP2 ADD PUSH1 0x1 PUSH1 0x1 PUSH1 0x40 SHL SUB DUP2 GT DUP3 DUP3 LT OR ISZERO PUSH2 0x42E9 JUMPI PUSH2 0x42E9 PUSH2 0x42AD JUMP JUMPDEST PUSH1 0x40 MSTORE SWAP2 SWAP1 POP JUMP JUMPDEST PUSH0 PUSH1 0x20 DUP3 DUP5 SUB SLT ISZERO PUSH2 0x4301 JUMPI PUSH0 PUSH0 REVERT JUMPDEST DUP2 CALLDATALOAD PUSH1 0x1 PUSH1 0x1 PUSH1 0x40 SHL SUB DUP2 GT ISZERO PUSH2 0x4316 JUMPI PUSH0 PUSH0 REVERT JUMPDEST DUP3 ADD PUSH1 0x1F DUP2 ADD DUP5 SGT PUSH2 0x4326 JUMPI PUSH0 PUSH0 REVERT JUMPDEST DUP1 CALLDATALOAD PUSH1 0x1 PUSH1 0x1 PUSH1 0x40 SHL SUB DUP2 GT ISZERO PUSH2 0x433F JUMPI PUSH2 0x433F PUSH2 0x42AD JUMP JUMPDEST DUP1 PUSH1 0x5 SHL PUSH2 0x434F PUSH1 0x20 DUP3 ADD PUSH2 0x42C1 JUMP JUMPDEST SWAP2 DUP3 MSTORE PUSH1 0x20 DUP2 DUP5 ADD DUP2 ADD SWAP3 SWAP1 DUP2 ADD SWAP1 DUP8 DUP5 GT ISZERO PUSH2 0x436A JUMPI PUSH0 PUSH0 REVERT JUMPDEST PUSH1 0x20 DUP6 ADD SWAP5 POP JUMPDEST DUP4 DUP6 LT ISZERO PUSH2 0x4390 JUMPI DUP5 CALLDATALOAD DUP1 DUP4 MSTORE PUSH1 0x20 SWAP6 DUP7 ADD SWAP6 SWAP1 SWAP4 POP SWAP1 SWAP2 ADD SWAP1 PUSH2 0x4371 JUMP JUMPDEST SWAP8 SWAP7 POP POP POP POP POP POP POP JUMP JUMPDEST PUSH1 0x20 DUP1 DUP3 MSTORE DUP3 MLOAD DUP3 DUP3 ADD DUP2 SWAP1 MSTORE PUSH0 SWAP2 DUP5 ADD SWAP1 PUSH1 0x40 DUP5 ADD SWAP1 DUP4 JUMPDEST DUP2 DUP2 LT ISZERO PUSH2 0x43DE JUMPI DUP4 MLOAD DUP1 MLOAD DUP5 MSTORE PUSH1 0x20 SWAP1 DUP2 ADD MLOAD DUP2 DUP6 ADD MSTORE SWAP1 SWAP4 ADD SWAP3 PUSH1 0x40 SWAP1 SWAP3 ADD SWAP2 PUSH1 0x1 ADD PUSH2 0x43B4 JUMP JUMPDEST POP SWAP1 SWAP6 SWAP5 POP POP POP POP POP JUMP JUMPDEST DUP1 MLOAD DUP3 MSTORE PUSH1 0x20 DUP2 ADD MLOAD PUSH2 0x4407 PUSH1 0x20 DUP5 ADD DUP3 PUSH1 0x1 PUSH1 0x1 PUSH1 0xA0 SHL SUB AND SWAP1 MSTORE JUMP JUMPDEST POP PUSH1 0x40 DUP2 ADD MLOAD PUSH1 0x40 DUP4 ADD MSTORE PUSH1 0x60 DUP2 ADD MLOAD PUSH1 0x60 DUP4 ADD MSTORE PUSH1 0x80 DUP2 ADD MLOAD PUSH1 0x80 DUP4 ADD MSTORE PUSH1 0xA0 DUP2 ADD MLOAD PUSH1 0xA0 DUP4 ADD MSTORE PUSH1 0xC0 DUP2 ADD MLOAD PUSH1 0xC0 DUP4 ADD MSTORE PUSH1 0xE0 DUP2 ADD MLOAD PUSH1 0xE0 DUP4 ADD MSTORE PUSH2 0x100 DUP2 ADD MLOAD PUSH2 0x100 DUP4 ADD MSTORE PUSH2 0x120 DUP2 ADD MLOAD PUSH2 0x4465 PUSH2 0x120 DUP5 ADD DUP3 ISZERO ISZERO SWAP1 MSTORE JUMP JUMPDEST POP PUSH2 0x140 DUP2 ADD MLOAD PUSH2 0x447B PUSH2 0x140 DUP5 ADD DUP3 ISZERO ISZERO SWAP1 MSTORE JUMP JUMPDEST POP PUSH2 0x160 DUP2 ADD MLOAD PUSH2 0x160 DUP4 ADD MSTORE PUSH2 0x180 DUP2 ADD MLOAD PUSH2 0x449D PUSH2 0x180 DUP5 ADD DUP3 ISZERO ISZERO SWAP1 MSTORE JUMP JUMPDEST POP PUSH2 0x1A0 SWAP1 DUP2 ADD MLOAD SWAP2 ADD MSTORE JUMP JUMPDEST PUSH2 0x1C0 DUP2 ADD PUSH2 0x1AA9 DUP3 DUP5 PUSH2 0x43E9 JUMP JUMPDEST PUSH0 PUSH0 PUSH0 PUSH1 0x60 DUP5 DUP7 SUB SLT ISZERO PUSH2 0x44CB JUMPI PUSH0 PUSH0 REVERT JUMPDEST POP POP DUP2 CALLDATALOAD SWAP4 PUSH1 0x20 DUP4 ADD CALLDATALOAD SWAP4 POP PUSH1 0x40 SWAP1 SWAP3 ADD CALLDATALOAD SWAP2 SWAP1 POP JUMP JUMPDEST PUSH0 PUSH0 DUP4 PUSH1 0x1F DUP5 ADD SLT PUSH2 0x44F2 JUMPI PUSH0 PUSH0 REVERT JUMPDEST POP DUP2 CALLDATALOAD PUSH1 0x1 PUSH1 0x1 PUSH1 0x40 SHL SUB DUP2 GT ISZERO PUSH2 0x4508 JUMPI PUSH0 PUSH0 REVERT JUMPDEST PUSH1 0x20 DUP4 ADD SWAP2 POP DUP4 PUSH1 0x20 DUP3 PUSH1 0x5 SHL DUP6 ADD ADD GT ISZERO PUSH2 0x4522 JUMPI PUSH0 PUSH0 REVERT JUMPDEST SWAP3 POP SWAP3 SWAP1 POP JUMP JUMPDEST PUSH0 PUSH0 PUSH0 PUSH0 PUSH0 PUSH0 PUSH1 0x60 DUP8 DUP10 SUB SLT ISZERO PUSH2 0x453E JUMPI PUSH0 PUSH0 REVERT JUMPDEST DUP7 CALLDATALOAD PUSH1 0x1 PUSH1 0x1 PUSH1 0x40 SHL SUB DUP2 GT ISZERO PUSH2 0x4553 JUMPI PUSH0 PUSH0 REVERT JUMPDEST PUSH2 0x455F DUP10 DUP3 DUP11 ADD PUSH2 0x44E2 JUMP JUMPDEST SWAP1 SWAP8 POP SWAP6 POP POP PUSH1 0x20 DUP8 ADD CALLDATALOAD PUSH1 0x1 PUSH1 0x1 PUSH1 0x40 SHL SUB DUP2 GT ISZERO PUSH2 0x457D JUMPI PUSH0 PUSH0 REVERT JUMPDEST PUSH2 0x4589 DUP10 DUP3 DUP11 ADD PUSH2 0x44E2 JUMP JUMPDEST SWAP1 SWAP6 POP SWAP4 POP POP PUSH1 0x40 DUP8 ADD CALLDATALOAD PUSH1 0x1 PUSH1 0x1 PUSH1 0x40 SHL SUB DUP2 GT ISZERO PUSH2 0x45A7 JUMPI PUSH0 PUSH0 REVERT JUMPDEST PUSH2 0x45B3 DUP10 DUP3 DUP11 ADD PUSH2 0x44E2 JUMP JUMPDEST SWAP8 SWAP11 SWAP7 SWAP10 POP SWAP5 SWAP8 POP SWAP3 SWAP6 SWAP4 SWAP5 SWAP3 POP POP POP JUMP JUMPDEST PUSH0 DUP2 MLOAD DUP1 DUP5 MSTORE DUP1 PUSH1 0x20 DUP5 ADD PUSH1 0x20 DUP7 ADD MCOPY PUSH0 PUSH1 0x20 DUP3 DUP7 ADD ADD MSTORE PUSH1 0x20 PUSH1 0x1F NOT PUSH1 0x1F DUP4 ADD AND DUP6 ADD ADD SWAP2 POP POP SWAP3 SWAP2 POP POP JUMP JUMPDEST PUSH1 0x20 DUP2 MSTORE DUP2 MLOAD PUSH1 0x20 DUP3 ADD MSTORE PUSH1 0x20 DUP3 ADD MLOAD PUSH1 0x40 DUP3 ADD MSTORE PUSH1 0x40 DUP3 ADD MLOAD PUSH1 0x60 DUP3 ADD MSTORE PUSH1 0x60 DUP3 ADD MLOAD PUSH1 0x80 DUP3 ADD MSTORE PUSH1 0x80 DUP3 ADD MLOAD PUSH1 0xA0 DUP3 ADD MSTORE PUSH1 0xA0 DUP3 ADD MLOAD PUSH1 0xC0 DUP3 ADD MSTORE PUSH0 PUSH1 0xC0 DUP4 ADD MLOAD PUSH2 0x4645 PUSH1 0xE0 DUP5 ADD DUP3 PUSH1 0xFF AND SWAP1 MSTORE JUMP JUMPDEST POP PUSH1 0xE0 DUP4 ADD MLOAD PUSH2 0x220 PUSH2 0x100 DUP5 ADD MSTORE PUSH2 0x4662 PUSH2 0x240 DUP5 ADD DUP3 PUSH2 0x45C5 JUMP JUMPDEST SWAP1 POP PUSH2 0x100 DUP5 ADD MLOAD PUSH1 0x1F NOT DUP5 DUP4 SUB ADD PUSH2 0x120 DUP6 ADD MSTORE PUSH2 0x4681 DUP3 DUP3 PUSH2 0x45C5 JUMP JUMPDEST SWAP2 POP POP PUSH2 0x120 DUP5 ADD MLOAD PUSH2 0x46A0 PUSH2 0x140 DUP6 ADD DUP3 PUSH1 0x1 PUSH1 0x1 PUSH1 0xA0 SHL SUB AND SWAP1 MSTORE JUMP JUMPDEST POP PUSH2 0x140 DUP5 ADD MLOAD PUSH2 0x160 DUP5 ADD MSTORE PUSH2 0x160 DUP5 ADD MLOAD PUSH2 0x180 DUP5 ADD MSTORE PUSH2 0x180 DUP5 ADD MLOAD PUSH2 0x1A0 DUP5 ADD MSTORE PUSH2 0x1A0 DUP5 ADD MLOAD PUSH2 0x1C0 DUP5 ADD MSTORE PUSH2 0x1C0 DUP5 ADD MLOAD PUSH2 0x1E0 DUP5 ADD MSTORE PUSH2 0x1E0 DUP5 ADD MLOAD PUSH2 0x200 DUP5 ADD MSTORE PUSH2 0x200 DUP5 ADD MLOAD PUSH2 0x220 DUP5 ADD MSTORE DUP1 SWAP2 POP POP SWAP3 SWAP2 POP POP JUMP JUMPDEST PUSH0 PUSH0 PUSH1 0x40 DUP4 DUP6 SUB SLT ISZERO PUSH2 0x4710 JUMPI PUSH0 PUSH0 REVERT JUMPDEST POP POP DUP1 CALLDATALOAD SWAP3 PUSH1 0x20 SWAP1 SWAP2 ADD CALLDATALOAD SWAP2 POP JUMP JUMPDEST PUSH1 0x20 DUP1 DUP3 MSTORE DUP3 MLOAD DUP3 DUP3 ADD DUP2 SWAP1 MSTORE PUSH0 SWAP2 DUP5 ADD SWAP1 PUSH1 0x40 DUP5 ADD SWAP1 DUP4 JUMPDEST DUP2 DUP2 LT ISZERO PUSH2 0x43DE JUMPI PUSH2 0x474B DUP4 DUP6 MLOAD PUSH2 0x43E9 JUMP JUMPDEST PUSH1 0x20 SWAP4 SWAP1 SWAP4 ADD SWAP3 PUSH2 0x1C0 SWAP3 SWAP1 SWAP3 ADD SWAP2 PUSH1 0x1 ADD PUSH2 0x4738 JUMP JUMPDEST PUSH0 PUSH1 0x20 DUP3 DUP5 SUB SLT ISZERO PUSH2 0x4772 JUMPI PUSH0 PUSH0 REVERT JUMPDEST PUSH2 0x1E5F DUP3 PUSH2 0x41FA JUMP JUMPDEST PUSH1 0x20 DUP1 DUP3 MSTORE DUP3 MLOAD DUP3 DUP3 ADD DUP2 SWAP1 MSTORE PUSH0 SWAP2 DUP5 ADD SWAP1 PUSH1 0x40 DUP5 ADD SWAP1 DUP4 JUMPDEST DUP2 DUP2 LT ISZERO PUSH2 0x43DE JUMPI DUP4 MLOAD PUSH1 0x1 PUSH1 0x1 PUSH1 0xA0 SHL SUB AND DUP4 MSTORE PUSH1 0x20 SWAP4 DUP5 ADD SWAP4 SWAP1 SWAP3 ADD SWAP2 PUSH1 0x1 ADD PUSH2 0x4794 JUMP JUMPDEST PUSH0 PUSH0 PUSH0 PUSH1 0x60 DUP5 DUP7 SUB SLT ISZERO PUSH2 0x47CD JUMPI PUSH0 PUSH0 REVERT JUMPDEST PUSH2 0x47D6 DUP5 PUSH2 0x41FA JUMP JUMPDEST SWAP6 PUSH1 0x20 DUP6 ADD CALLDATALOAD SWAP6 POP PUSH1 0x40 SWAP1 SWAP5 ADD CALLDATALOAD SWAP4 SWAP3 POP POP POP JUMP JUMPDEST PUSH1 0x20 DUP1 DUP3 MSTORE DUP3 MLOAD DUP3 DUP3 ADD DUP2 SWAP1 MSTORE PUSH0 SWAP2 DUP5 ADD SWAP1 PUSH1 0x40 DUP5 ADD SWAP1 DUP4 JUMPDEST DUP2 DUP2 LT ISZERO PUSH2 0x43DE JUMPI DUP4 MLOAD DUP1 MLOAD DUP5 MSTORE PUSH1 0x20 DUP2 ADD MLOAD PUSH1 0x20 DUP6 ADD MSTORE PUSH1 0x40 DUP2 ADD MLOAD PUSH1 0x40 DUP6 ADD MSTORE PUSH1 0x60 DUP2 ADD MLOAD PUSH1 0x60 DUP6 ADD MSTORE PUSH1 0x80 DUP2 ADD MLOAD PUSH1 0x80 DUP6 ADD MSTORE PUSH1 0xA0 DUP2 ADD MLOAD PUSH1 0xA0 DUP6 ADD MSTORE PUSH1 0xC0 DUP2 ADD MLOAD PUSH1 0xC0 DUP6 ADD MSTORE POP PUSH1 0xE0 DUP4 ADD SWAP3 POP PUSH1 0x20 DUP5 ADD SWAP4 POP PUSH1 0x1 DUP2 ADD SWAP1 POP PUSH2 0x4804 JUMP JUMPDEST DUP15 DUP2 MSTORE PUSH1 0x1 PUSH1 0x1 PUSH1 0xA0 SHL SUB DUP15 AND PUSH1 0x20 DUP3 ADD MSTORE PUSH1 0x40 DUP2 ADD DUP14 SWAP1 MSTORE PUSH1 0x60 DUP2 ADD DUP13 SWAP1 MSTORE PUSH1 0x80 DUP2 ADD DUP12 SWAP1 MSTORE PUSH1 0xA0 DUP2 ADD DUP11 SWAP1 MSTORE PUSH1 0xC0 DUP2 ADD DUP10 SWAP1 MSTORE PUSH1 0xE0 DUP2 ADD DUP9 SWAP1 MSTORE PUSH2 0x100 DUP2 ADD DUP8 SWAP1 MSTORE DUP6 ISZERO ISZERO PUSH2 0x120 DUP3 ADD MSTORE DUP5 ISZERO ISZERO PUSH2 0x140 DUP3 ADD MSTORE PUSH2 0x1C0 DUP2 ADD DUP5 PUSH2 0x160 DUP4 ADD MSTORE PUSH2 0x48D7 PUSH2 0x180 DUP4 ADD DUP6 ISZERO ISZERO SWAP1 MSTORE JUMP JUMPDEST DUP3 PUSH2 0x1A0 DUP4 ADD MSTORE SWAP16 SWAP15 POP POP POP POP POP POP POP POP POP POP POP POP POP POP POP JUMP JUMPDEST PUSH1 0x20 DUP1 DUP3 MSTORE DUP3 MLOAD DUP3 DUP3 ADD DUP2 SWAP1 MSTORE PUSH0 SWAP2 DUP5 ADD SWAP1 PUSH1 0x40 DUP5 ADD SWAP1 DUP4 JUMPDEST DUP2 DUP2 LT ISZERO PUSH2 0x43DE JUMPI DUP4 MLOAD DUP4 MSTORE PUSH1 0x20 SWAP4 DUP5 ADD SWAP4 SWAP1 SWAP3 ADD SWAP2 PUSH1 0x1 ADD PUSH2 0x490A JUMP JUMPDEST PUSH1 0x20 DUP1 DUP3 MSTORE PUSH1 0xA SWAP1 DUP3 ADD MSTORE PUSH10 0x27B7363C9037BBB732B9 PUSH1 0xB1 SHL PUSH1 0x40 DUP3 ADD MSTORE PUSH1 0x60 ADD SWAP1 JUMP JUMPDEST PUSH1 0x20 DUP1 DUP3 MSTORE PUSH1 0xB SWAP1 DUP3 ADD MSTORE PUSH11 0x52617465203E2031303025 PUSH1 0xA8 SHL PUSH1 0x40 DUP3 ADD MSTORE PUSH1 0x60 ADD SWAP1 JUMP JUMPDEST PUSH4 0x4E487B71 PUSH1 0xE0 SHL PUSH0 MSTORE PUSH1 0x11 PUSH1 0x4 MSTORE PUSH1 0x24 PUSH0 REVERT JUMPDEST DUP2 DUP2 SUB DUP2 DUP2 GT ISZERO PUSH2 0x1AA9 JUMPI PUSH2 0x1AA9 PUSH2 0x4971 JUMP JUMPDEST PUSH4 0x4E487B71 PUSH1 0xE0 SHL PUSH0 MSTORE PUSH1 0x32 PUSH1 0x4 MSTORE PUSH1 0x24 PUSH0 REVERT JUMPDEST DUP1 DUP3 ADD DUP1 DUP3 GT ISZERO PUSH2 0x1AA9 JUMPI PUSH2 0x1AA9 PUSH2 0x4971 JUMP JUMPDEST PUSH1 0x20 DUP1 DUP3 MSTORE PUSH1 0x9 SWAP1 DUP3 ADD MSTORE PUSH9 0x2737BA1037BBB732B9 PUSH1 0xB9 SHL PUSH1 0x40 DUP3 ADD MSTORE PUSH1 0x60 ADD SWAP1 JUMP JUMPDEST PUSH1 0x20 DUP1 DUP3 MSTORE PUSH1 0xA SWAP1 DUP3 ADD MSTORE PUSH10 0x456D7074792062616E6B PUSH1 0xB0 SHL PUSH1 0x40 DUP3 ADD MSTORE PUSH1 0x60 ADD SWAP1 JUMP JUMPDEST PUSH0 PUSH1 0x20 DUP3 DUP5 SUB SLT ISZERO PUSH2 0x4A16 JUMPI PUSH0 PUSH0 REVERT JUMPDEST DUP2 MLOAD PUSH2 0x1E5F DUP2 PUSH2 0x4215 JUMP JUMPDEST PUSH1 0x20 DUP1 DUP3 MSTORE PUSH1 0xF SWAP1 DUP3 ADD MSTORE PUSH15 0x151C985B9CD9995C8819985A5B1959 PUSH1 0x8A SHL PUSH1 0x40 DUP3 ADD MSTORE PUSH1 0x60 ADD SWAP1 JUMP JUMPDEST DUP1 DUP3 MUL DUP2 ISZERO DUP3 DUP3 DIV DUP5 EQ OR PUSH2 0x1AA9 JUMPI PUSH2 0x1AA9 PUSH2 0x4971 JUMP JUMPDEST PUSH0 DUP3 PUSH2 0x4A7B JUMPI PUSH4 0x4E487B71 PUSH1 0xE0 SHL PUSH0 MSTORE PUSH1 0x12 PUSH1 0x4 MSTORE PUSH1 0x24 PUSH0 REVERT JUMPDEST POP DIV SWAP1 JUMP JUMPDEST PUSH0 PUSH1 0x20 DUP3 DUP5 SUB SLT ISZERO PUSH2 0x4A90 JUMPI PUSH0 PUSH0 REVERT JUMPDEST DUP2 MLOAD PUSH1 0xFF DUP2 AND DUP2 EQ PUSH2 0x1E5F JUMPI PUSH0 PUSH0 REVERT JUMPDEST PUSH0 PUSH1 0x20 DUP3 DUP5 SUB SLT ISZERO PUSH2 0x4AB0 JUMPI PUSH0 PUSH0 REVERT JUMPDEST DUP2 MLOAD PUSH1 0x1 PUSH1 0x1 PUSH1 0x40 SHL SUB DUP2 GT ISZERO PUSH2 0x4AC5 JUMPI PUSH0 PUSH0 REVERT JUMPDEST DUP3 ADD PUSH1 0x1F DUP2 ADD DUP5 SGT PUSH2 0x4AD5 JUMPI PUSH0 PUSH0 REVERT JUMPDEST DUP1 MLOAD PUSH1 0x1 PUSH1 0x1 PUSH1 0x40 SHL SUB DUP2 GT ISZERO PUSH2 0x4AEE JUMPI PUSH2 0x4AEE PUSH2 0x42AD JUMP JUMPDEST PUSH2 0x4B01 PUSH1 0x1F DUP3 ADD PUSH1 0x1F NOT AND PUSH1 0x20 ADD PUSH2 0x42C1 JUMP JUMPDEST DUP2 DUP2 MSTORE DUP6 PUSH1 0x20 DUP4 DUP6 ADD ADD GT ISZERO PUSH2 0x4B15 JUMPI PUSH0 PUSH0 REVERT JUMPDEST DUP2 PUSH1 0x20 DUP5 ADD PUSH1 0x20 DUP4 ADD MCOPY PUSH0 SWAP2 DUP2 ADD PUSH1 0x20 ADD SWAP2 SWAP1 SWAP2 MSTORE SWAP5 SWAP4 POP POP POP POP JUMP JUMPDEST PUSH1 0x20 DUP1 DUP3 MSTORE PUSH1 0x8 SWAP1 DUP3 ADD MSTORE PUSH8 0x496E616374697665 PUSH1 0xC0 SHL PUSH1 0x40 DUP3 ADD MSTORE PUSH1 0x60 ADD SWAP1 JUMP JUMPDEST PUSH0 DUP2 PUSH2 0x4B62 JUMPI PUSH2 0x4B62 PUSH2 0x4971 JUMP JUMPDEST POP PUSH0 NOT ADD SWAP1 JUMP JUMPDEST PUSH1 0x20 DUP1 DUP3 MSTORE PUSH1 0x2 SWAP1 DUP3 ADD MSTORE PUSH2 0x4531 PUSH1 0xF0 SHL PUSH1 0x40 DUP3 ADD MSTORE PUSH1 0x60 ADD SWAP1 JUMP JUMPDEST PUSH4 0x4E487B71 PUSH1 0xE0 SHL PUSH0 MSTORE PUSH1 0x31 PUSH1 0x4 MSTORE PUSH1 0x24 PUSH0 REVERT JUMPDEST PUSH0 PUSH1 0x1 DUP3 ADD PUSH2 0x4BAA JUMPI PUSH2 0x4BAA PUSH2 0x4971 JUMP JUMPDEST POP PUSH1 0x1 ADD SWAP1 JUMP INVALID LOG2 PUSH5 0x6970667358 0x22 SLT KECCAK256 PUSH7 0x4CE49DFFC6B8C8 ADD BALANCE 0xD CALLDATACOPY 0xAD SWAP13 CALLVALUE SWAP7 EOFCREATE 0x20 CREATE BLOBHASH PUSH7 0x9070FFE16449F3 PUSH10 0xE055DD64736F6C634300 ADDMOD 0x1E STOP CALLER "
		},
		"gasEstimates": {
			"creation": {
				"codeDepositCost": "3886200",
				"executionCost": "infinite",
				"totalCost": "infinite"
			},
			"external": {
				"_getCurrentMonthIndex()": "infinite",
				"activeDeposits(uint256)": "4696",
				"activeDepositsCount()": "2350",
				"activeDepositsIndex(uint256)": "2558",
				"addMonth(uint256,uint256,uint256)": "infinite",
				"addMonthsBatch(uint256[],uint256[],uint256[])": "infinite",
				"addTokensToBank(uint256)": "infinite",
				"allUsers(uint256)": "4701",
				"bankAmount()": "2351",
				"byOracle(uint256)": "2560",
				"calculatePendingRewardForDeposit(uint256)": "infinite",
				"calculateReward(uint256,uint256,uint256,uint256)": "infinite",
				"calculateRewardByMonths(uint256,uint256,uint256)": "infinite",
				"cancelDeposit(uint256)": "infinite",
				"createDeposit(uint256,uint256)": "infinite",
				"createDepositFor(address,uint256,uint256,bool,uint256)": "infinite",
				"deleteLastMonth()": "53482",
				"deposits(uint256)": "30507",
				"depositsAmount()": "2415",
				"depositsRewardEarned(uint256)": "2514",
				"editMonth(uint256,uint256,uint256,uint256)": "infinite",
				"estimateRequiredBankReserve()": "4661",
				"estimateRequiredBankReservePrecise()": "infinite",
				"getActiveDeposits(uint256,uint256)": "infinite",
				"getActiveDepositsCount()": "2369",
				"getAllUsers()": "infinite",
				"getDepositById(uint256)": "infinite",
				"getDeposits(uint256,uint256)": "infinite",
				"getDepositsRewardEarned(uint256[])": "infinite",
				"getMonths(uint256,uint256)": "infinite",
				"getMonthsCount()": "2370",
				"getSavedReward(uint256)": "infinite",
				"getSummaryInfo()": "infinite",
				"getTotalDeposits()": "2415",
				"getTotalUsers()": "2414",
				"getUserDeposits(address,uint256,uint256)": "infinite",
				"getUserDepositsCount(address)": "2590",
				"getUserDepositsIds(address)": "infinite",
				"getUsers(uint256,uint256)": "infinite",
				"getUsersCount()": "2392",
				"globalRateBps()": "2371",
				"isUser(address)": "2618",
				"lastKnownMonthIndex()": "2353",
				"minLockAmount()": "2419",
				"minLockMonths()": "2393",
				"monthDepositsAmount(uint256)": "2492",
				"monthDepositsCount(uint256)": "2492",
				"monthRewardsAmount(uint256)": "2558",
				"months(uint256)": "8990",
				"oracle()": "2405",
				"owner()": "2449",
				"recoverToken(address,uint256)": "infinite",
				"rewardsPayed()": "2374",
				"safeDeposit(uint256)": "infinite",
				"setGlobalRateBps(uint256)": "25665",
				"setMinLockAmount(uint256)": "24553",
				"setMinLockMonths(uint256)": "24530",
				"setOracle(address)": "26842",
				"stakingToken()": "infinite",
				"transferOwnership(address)": "26810",
				"userDeposits(address,uint256)": "4794",
				"withdrawBank(uint256)": "infinite",
				"withdrawPrincipalAndRewards(uint256)": "infinite",
				"withdrawRewardsOnly(uint256)": "infinite"
			},
			"internal": {
				"_addSingleMonth(uint256,uint256,uint256)": "infinite",
				"_createDeposit(address,uint256,uint256,bool,uint256,bool)": "infinite",
				"_findLastCompletedMonth(uint256,uint256)": "infinite",
				"_getCurrentMonthIndexAt(uint256)": "infinite",
				"_getEffectiveRateBps(uint256)": "6456",
				"_removeFromActiveDeposits(uint256)": "89530"
			}
		},
		"methodIdentifiers": {
			"_getCurrentMonthIndex()": "a5c62cb4",
			"activeDeposits(uint256)": "90693ca7",
			"activeDepositsCount()": "ccbd0007",
			"activeDepositsIndex(uint256)": "23e0ceb2",
			"addMonth(uint256,uint256,uint256)": "23b28a54",
			"addMonthsBatch(uint256[],uint256[],uint256[])": "2ffb3d2a",
			"addTokensToBank(uint256)": "91ba50cd",
			"allUsers(uint256)": "a2bdedf4",
			"bankAmount()": "b42a275e",
			"byOracle(uint256)": "1cc39d57",
			"calculatePendingRewardForDeposit(uint256)": "2e0e3064",
			"calculateReward(uint256,uint256,uint256,uint256)": "7196d3e2",
			"calculateRewardByMonths(uint256,uint256,uint256)": "dd4824a8",
			"cancelDeposit(uint256)": "72fada5c",
			"createDeposit(uint256,uint256)": "b18e71f2",
			"createDepositFor(address,uint256,uint256,bool,uint256)": "06f960bb",
			"deleteLastMonth()": "a9783cd7",
			"deposits(uint256)": "b02c43d0",
			"depositsAmount()": "fe4ab90a",
			"depositsRewardEarned(uint256)": "2290d577",
			"editMonth(uint256,uint256,uint256,uint256)": "05a163b6",
			"estimateRequiredBankReserve()": "8c90926f",
			"estimateRequiredBankReservePrecise()": "d188e3ae",
			"getActiveDeposits(uint256,uint256)": "4106ee75",
			"getActiveDepositsCount()": "d7d43c78",
			"getAllUsers()": "e2842d79",
			"getDepositById(uint256)": "1bfc7761",
			"getDeposits(uint256,uint256)": "d3752830",
			"getDepositsRewardEarned(uint256[])": "10aef812",
			"getMonths(uint256,uint256)": "4eff3d3d",
			"getMonthsCount()": "936d4ffa",
			"getSavedReward(uint256)": "1fb3bd93",
			"getSummaryInfo()": "36261236",
			"getTotalDeposits()": "168a4822",
			"getTotalUsers()": "9be572f6",
			"getUserDeposits(address,uint256,uint256)": "4698b883",
			"getUserDepositsCount(address)": "d6a13301",
			"getUserDepositsIds(address)": "c491eecd",
			"getUsers(uint256,uint256)": "45982a66",
			"getUsersCount()": "a4a1e263",
			"globalRateBps()": "f4f8c847",
			"isUser(address)": "4209fff1",
			"lastKnownMonthIndex()": "000d6386",
			"minLockAmount()": "08804275",
			"minLockMonths()": "f8799e1a",
			"monthDepositsAmount(uint256)": "9d13fa01",
			"monthDepositsCount(uint256)": "41aff23e",
			"monthRewardsAmount(uint256)": "ccaac244",
			"months(uint256)": "1d0205b8",
			"oracle()": "7dc0d1d0",
			"owner()": "8da5cb5b",
			"recoverToken(address,uint256)": "b29a8140",
			"rewardsPayed()": "1c5dc54c",
			"safeDeposit(uint256)": "647fc56c",
			"setGlobalRateBps(uint256)": "9521abc6",
			"setMinLockAmount(uint256)": "0f68ae40",
			"setMinLockMonths(uint256)": "4b4d7aa8",
			"setOracle(address)": "7adbf973",
			"stakingToken()": "72f702f3",
			"transferOwnership(address)": "f2fde38b",
			"userDeposits(address,uint256)": "08f43333",
			"withdrawBank(uint256)": "be2ff4a9",
			"withdrawPrincipalAndRewards(uint256)": "6241ca79",
			"withdrawRewardsOnly(uint256)": "d3d83445"
		}
	},
	"abi": [
		{
			"inputs": [
				{
					"internalType": "address",
					"name": "_stakingToken",
					"type": "address"
				},
				{
					"internalType": "uint256",
					"name": "_globalRateBps",
					"type": "uint256"
				}
			],
			"stateMutability": "nonpayable",
			"type": "constructor"
		},
		{
			"inputs": [],
			"name": "ReentrancyGuardReentrantCall",
			"type": "error"
		},
		{
			"anonymous": false,
			"inputs": [
				{
					"indexed": false,
					"internalType": "uint256",
					"name": "depositId",
					"type": "uint256"
				},
				{
					"indexed": true,
					"internalType": "address",
					"name": "recipient",
					"type": "address"
				},
				{
					"indexed": false,
					"internalType": "uint256",
					"name": "amount",
					"type": "uint256"
				}
			],
			"name": "DepositCancelled",
			"type": "event"
		},
		{
			"anonymous": false,
			"inputs": [
				{
					"indexed": true,
					"internalType": "address",
					"name": "user",
					"type": "address"
				},
				{
					"indexed": false,
					"internalType": "uint256",
					"name": "depositId",
					"type": "uint256"
				},
				{
					"indexed": false,
					"internalType": "uint256",
					"name": "amount",
					"type": "uint256"
				},
				{
					"indexed": false,
					"internalType": "uint256",
					"name": "lockMonths",
					"type": "uint256"
				},
				{
					"indexed": false,
					"internalType": "uint256",
					"name": "unlockMonthIndex",
					"type": "uint256"
				}
			],
			"name": "DepositCreated",
			"type": "event"
		},
		{
			"anonymous": false,
			"inputs": [
				{
					"indexed": false,
					"internalType": "uint256",
					"name": "rateBps",
					"type": "uint256"
				}
			],
			"name": "GlobalRateUpdated",
			"type": "event"
		},
		{
			"anonymous": false,
			"inputs": [
				{
					"indexed": true,
					"internalType": "uint256",
					"name": "monthIndex",
					"type": "uint256"
				},
				{
					"indexed": false,
					"internalType": "uint256",
					"name": "start",
					"type": "uint256"
				},
				{
					"indexed": false,
					"internalType": "uint256",
					"name": "end",
					"type": "uint256"
				},
				{
					"indexed": false,
					"internalType": "uint256",
					"name": "rateBps",
					"type": "uint256"
				}
			],
			"name": "MonthAdded",
			"type": "event"
		},
		{
			"anonymous": false,
			"inputs": [
				{
					"indexed": false,
					"internalType": "uint256",
					"name": "lengthAfterDeletion",
					"type": "uint256"
				}
			],
			"name": "MonthDeleted",
			"type": "event"
		},
		{
			"anonymous": false,
			"inputs": [
				{
					"indexed": true,
					"internalType": "uint256",
					"name": "monthIndex",
					"type": "uint256"
				},
				{
					"indexed": false,
					"internalType": "uint256",
					"name": "start",
					"type": "uint256"
				},
				{
					"indexed": false,
					"internalType": "uint256",
					"name": "end",
					"type": "uint256"
				},
				{
					"indexed": false,
					"internalType": "uint256",
					"name": "rateBps",
					"type": "uint256"
				}
			],
			"name": "MonthEdited",
			"type": "event"
		},
		{
			"anonymous": false,
			"inputs": [
				{
					"indexed": false,
					"internalType": "uint256",
					"name": "startIndex",
					"type": "uint256"
				},
				{
					"indexed": false,
					"internalType": "uint256",
					"name": "endIndex",
					"type": "uint256"
				}
			],
			"name": "MonthsBatchAdded",
			"type": "event"
		},
		{
			"anonymous": false,
			"inputs": [
				{
					"indexed": true,
					"internalType": "address",
					"name": "user",
					"type": "address"
				},
				{
					"indexed": false,
					"internalType": "uint256",
					"name": "depositId",
					"type": "uint256"
				},
				{
					"indexed": false,
					"internalType": "uint256",
					"name": "amount",
					"type": "uint256"
				}
			],
			"name": "PrincipalWithdrawn",
			"type": "event"
		},
		{
			"anonymous": false,
			"inputs": [
				{
					"indexed": true,
					"internalType": "address",
					"name": "user",
					"type": "address"
				},
				{
					"indexed": false,
					"internalType": "uint256",
					"name": "depositId",
					"type": "uint256"
				},
				{
					"indexed": false,
					"internalType": "uint256",
					"name": "reward",
					"type": "uint256"
				}
			],
			"name": "RewardsWithdrawn",
			"type": "event"
		},
		{
			"anonymous": false,
			"inputs": [
				{
					"indexed": true,
					"internalType": "address",
					"name": "user",
					"type": "address"
				},
				{
					"indexed": false,
					"internalType": "uint256",
					"name": "depositId",
					"type": "uint256"
				},
				{
					"indexed": false,
					"internalType": "uint256",
					"name": "amount",
					"type": "uint256"
				},
				{
					"indexed": false,
					"internalType": "uint256",
					"name": "savedReward",
					"type": "uint256"
				}
			],
			"name": "SafeDeposit",
			"type": "event"
		},
		{
			"anonymous": false,
			"inputs": [
				{
					"indexed": true,
					"internalType": "address",
					"name": "user",
					"type": "address"
				},
				{
					"indexed": false,
					"internalType": "uint256",
					"name": "depositId",
					"type": "uint256"
				},
				{
					"indexed": false,
					"internalType": "uint256",
					"name": "reward",
					"type": "uint256"
				}
			],
			"name": "SavedRewardClaimed",
			"type": "event"
		},
		{
			"inputs": [],
			"name": "_getCurrentMonthIndex",
			"outputs": [
				{
					"internalType": "uint256",
					"name": "",
					"type": "uint256"
				}
			],
			"stateMutability": "view",
			"type": "function"
		},
		{
			"inputs": [
				{
					"internalType": "uint256",
					"name": "",
					"type": "uint256"
				}
			],
			"name": "activeDeposits",
			"outputs": [
				{
					"internalType": "uint256",
					"name": "",
					"type": "uint256"
				}
			],
			"stateMutability": "view",
			"type": "function"
		},
		{
			"inputs": [],
			"name": "activeDepositsCount",
			"outputs": [
				{
					"internalType": "uint256",
					"name": "",
					"type": "uint256"
				}
			],
			"stateMutability": "view",
			"type": "function"
		},
		{
			"inputs": [
				{
					"internalType": "uint256",
					"name": "",
					"type": "uint256"
				}
			],
			"name": "activeDepositsIndex",
			"outputs": [
				{
					"internalType": "uint256",
					"name": "",
					"type": "uint256"
				}
			],
			"stateMutability": "view",
			"type": "function"
		},
		{
			"inputs": [
				{
					"internalType": "uint256",
					"name": "start",
					"type": "uint256"
				},
				{
					"internalType": "uint256",
					"name": "end",
					"type": "uint256"
				},
				{
					"internalType": "uint256",
					"name": "rateBps",
					"type": "uint256"
				}
			],
			"name": "addMonth",
			"outputs": [],
			"stateMutability": "nonpayable",
			"type": "function"
		},
		{
			"inputs": [
				{
					"internalType": "uint256[]",
					"name": "starts",
					"type": "uint256[]"
				},
				{
					"internalType": "uint256[]",
					"name": "ends",
					"type": "uint256[]"
				},
				{
					"internalType": "uint256[]",
					"name": "rates",
					"type": "uint256[]"
				}
			],
			"name": "addMonthsBatch",
			"outputs": [],
			"stateMutability": "nonpayable",
			"type": "function"
		},
		{
			"inputs": [
				{
					"internalType": "uint256",
					"name": "amount",
					"type": "uint256"
				}
			],
			"name": "addTokensToBank",
			"outputs": [],
			"stateMutability": "nonpayable",
			"type": "function"
		},
		{
			"inputs": [
				{
					"internalType": "uint256",
					"name": "",
					"type": "uint256"
				}
			],
			"name": "allUsers",
			"outputs": [
				{
					"internalType": "address",
					"name": "",
					"type": "address"
				}
			],
			"stateMutability": "view",
			"type": "function"
		},
		{
			"inputs": [],
			"name": "bankAmount",
			"outputs": [
				{
					"internalType": "uint256",
					"name": "",
					"type": "uint256"
				}
			],
			"stateMutability": "view",
			"type": "function"
		},
		{
			"inputs": [
				{
					"internalType": "uint256",
					"name": "",
					"type": "uint256"
				}
			],
			"name": "byOracle",
			"outputs": [
				{
					"internalType": "bool",
					"name": "",
					"type": "bool"
				}
			],
			"stateMutability": "view",
			"type": "function"
		},
		{
			"inputs": [
				{
					"internalType": "uint256",
					"name": "depositId",
					"type": "uint256"
				}
			],
			"name": "calculatePendingRewardForDeposit",
			"outputs": [
				{
					"internalType": "uint256",
					"name": "",
					"type": "uint256"
				}
			],
			"stateMutability": "view",
			"type": "function"
		},
		{
			"inputs": [
				{
					"internalType": "uint256",
					"name": "amount",
					"type": "uint256"
				},
				{
					"internalType": "uint256",
					"name": "startMonthIdx",
					"type": "uint256"
				},
				{
					"internalType": "uint256",
					"name": "lockMonths",
					"type": "uint256"
				},
				{
					"internalType": "uint256",
					"name": "depositStart",
					"type": "uint256"
				}
			],
			"name": "calculateReward",
			"outputs": [
				{
					"internalType": "uint256",
					"name": "",
					"type": "uint256"
				}
			],
			"stateMutability": "view",
			"type": "function"
		},
		{
			"inputs": [
				{
					"internalType": "uint256",
					"name": "amount",
					"type": "uint256"
				},
				{
					"internalType": "uint256",
					"name": "lockMonths",
					"type": "uint256"
				},
				{
					"internalType": "uint256",
					"name": "depositStart",
					"type": "uint256"
				}
			],
			"name": "calculateRewardByMonths",
			"outputs": [
				{
					"internalType": "uint256",
					"name": "",
					"type": "uint256"
				}
			],
			"stateMutability": "view",
			"type": "function"
		},
		{
			"inputs": [
				{
					"internalType": "uint256",
					"name": "depositId",
					"type": "uint256"
				}
			],
			"name": "cancelDeposit",
			"outputs": [],
			"stateMutability": "nonpayable",
			"type": "function"
		},
		{
			"inputs": [
				{
					"internalType": "uint256",
					"name": "amount",
					"type": "uint256"
				},
				{
					"internalType": "uint256",
					"name": "lockMonths",
					"type": "uint256"
				}
			],
			"name": "createDeposit",
			"outputs": [],
			"stateMutability": "nonpayable",
			"type": "function"
		},
		{
			"inputs": [
				{
					"internalType": "address",
					"name": "user",
					"type": "address"
				},
				{
					"internalType": "uint256",
					"name": "amount",
					"type": "uint256"
				},
				{
					"internalType": "uint256",
					"name": "lockMonths",
					"type": "uint256"
				},
				{
					"internalType": "bool",
					"name": "ownRate",
					"type": "bool"
				},
				{
					"internalType": "uint256",
					"name": "rate",
					"type": "uint256"
				}
			],
			"name": "createDepositFor",
			"outputs": [],
			"stateMutability": "nonpayable",
			"type": "function"
		},
		{
			"inputs": [],
			"name": "deleteLastMonth",
			"outputs": [],
			"stateMutability": "nonpayable",
			"type": "function"
		},
		{
			"inputs": [
				{
					"internalType": "uint256",
					"name": "",
					"type": "uint256"
				}
			],
			"name": "deposits",
			"outputs": [
				{
					"internalType": "uint256",
					"name": "depositId",
					"type": "uint256"
				},
				{
					"internalType": "address",
					"name": "owner",
					"type": "address"
				},
				{
					"internalType": "uint256",
					"name": "amount",
					"type": "uint256"
				},
				{
					"internalType": "uint256",
					"name": "monthIndex",
					"type": "uint256"
				},
				{
					"internalType": "uint256",
					"name": "depositStart",
					"type": "uint256"
				},
				{
					"internalType": "uint256",
					"name": "depositClosed",
					"type": "uint256"
				},
				{
					"internalType": "uint256",
					"name": "unlockMonthIndex",
					"type": "uint256"
				},
				{
					"internalType": "uint256",
					"name": "lastAccruedMonthIdx",
					"type": "uint256"
				},
				{
					"internalType": "uint256",
					"name": "pendingReward",
					"type": "uint256"
				},
				{
					"internalType": "bool",
					"name": "active",
					"type": "bool"
				},
				{
					"internalType": "bool",
					"name": "isSaved",
					"type": "bool"
				},
				{
					"internalType": "uint256",
					"name": "savedReward",
					"type": "uint256"
				},
				{
					"internalType": "bool",
					"name": "ownRate",
					"type": "bool"
				},
				{
					"internalType": "uint256",
					"name": "rate",
					"type": "uint256"
				}
			],
			"stateMutability": "view",
			"type": "function"
		},
		{
			"inputs": [],
			"name": "depositsAmount",
			"outputs": [
				{
					"internalType": "uint256",
					"name": "",
					"type": "uint256"
				}
			],
			"stateMutability": "view",
			"type": "function"
		},
		{
			"inputs": [
				{
					"internalType": "uint256",
					"name": "",
					"type": "uint256"
				}
			],
			"name": "depositsRewardEarned",
			"outputs": [
				{
					"internalType": "uint256",
					"name": "",
					"type": "uint256"
				}
			],
			"stateMutability": "view",
			"type": "function"
		},
		{
			"inputs": [
				{
					"internalType": "uint256",
					"name": "idx",
					"type": "uint256"
				},
				{
					"internalType": "uint256",
					"name": "start",
					"type": "uint256"
				},
				{
					"internalType": "uint256",
					"name": "end",
					"type": "uint256"
				},
				{
					"internalType": "uint256",
					"name": "rateBps",
					"type": "uint256"
				}
			],
			"name": "editMonth",
			"outputs": [],
			"stateMutability": "nonpayable",
			"type": "function"
		},
		{
			"inputs": [],
			"name": "estimateRequiredBankReserve",
			"outputs": [
				{
					"internalType": "uint256",
					"name": "estimatedMonthlyRewards",
					"type": "uint256"
				}
			],
			"stateMutability": "view",
			"type": "function"
		},
		{
			"inputs": [],
			"name": "estimateRequiredBankReservePrecise",
			"outputs": [
				{
					"internalType": "uint256",
					"name": "",
					"type": "uint256"
				}
			],
			"stateMutability": "view",
			"type": "function"
		},
		{
			"inputs": [
				{
					"internalType": "uint256",
					"name": "_offset",
					"type": "uint256"
				},
				{
					"internalType": "uint256",
					"name": "_limit",
					"type": "uint256"
				}
			],
			"name": "getActiveDeposits",
			"outputs": [
				{
					"components": [
						{
							"internalType": "uint256",
							"name": "depositId",
							"type": "uint256"
						},
						{
							"internalType": "address",
							"name": "owner",
							"type": "address"
						},
						{
							"internalType": "uint256",
							"name": "amount",
							"type": "uint256"
						},
						{
							"internalType": "uint256",
							"name": "monthIndex",
							"type": "uint256"
						},
						{
							"internalType": "uint256",
							"name": "depositStart",
							"type": "uint256"
						},
						{
							"internalType": "uint256",
							"name": "depositClosed",
							"type": "uint256"
						},
						{
							"internalType": "uint256",
							"name": "unlockMonthIndex",
							"type": "uint256"
						},
						{
							"internalType": "uint256",
							"name": "lastAccruedMonthIdx",
							"type": "uint256"
						},
						{
							"internalType": "uint256",
							"name": "pendingReward",
							"type": "uint256"
						},
						{
							"internalType": "bool",
							"name": "active",
							"type": "bool"
						},
						{
							"internalType": "bool",
							"name": "isSaved",
							"type": "bool"
						},
						{
							"internalType": "uint256",
							"name": "savedReward",
							"type": "uint256"
						},
						{
							"internalType": "bool",
							"name": "ownRate",
							"type": "bool"
						},
						{
							"internalType": "uint256",
							"name": "rate",
							"type": "uint256"
						}
					],
					"internalType": "struct GGWStake.Deposit[]",
					"name": "ret",
					"type": "tuple[]"
				}
			],
			"stateMutability": "view",
			"type": "function"
		},
		{
			"inputs": [],
			"name": "getActiveDepositsCount",
			"outputs": [
				{
					"internalType": "uint256",
					"name": "",
					"type": "uint256"
				}
			],
			"stateMutability": "view",
			"type": "function"
		},
		{
			"inputs": [],
			"name": "getAllUsers",
			"outputs": [
				{
					"internalType": "address[]",
					"name": "",
					"type": "address[]"
				}
			],
			"stateMutability": "view",
			"type": "function"
		},
		{
			"inputs": [
				{
					"internalType": "uint256",
					"name": "depositId",
					"type": "uint256"
				}
			],
			"name": "getDepositById",
			"outputs": [
				{
					"components": [
						{
							"internalType": "uint256",
							"name": "depositId",
							"type": "uint256"
						},
						{
							"internalType": "address",
							"name": "owner",
							"type": "address"
						},
						{
							"internalType": "uint256",
							"name": "amount",
							"type": "uint256"
						},
						{
							"internalType": "uint256",
							"name": "monthIndex",
							"type": "uint256"
						},
						{
							"internalType": "uint256",
							"name": "depositStart",
							"type": "uint256"
						},
						{
							"internalType": "uint256",
							"name": "depositClosed",
							"type": "uint256"
						},
						{
							"internalType": "uint256",
							"name": "unlockMonthIndex",
							"type": "uint256"
						},
						{
							"internalType": "uint256",
							"name": "lastAccruedMonthIdx",
							"type": "uint256"
						},
						{
							"internalType": "uint256",
							"name": "pendingReward",
							"type": "uint256"
						},
						{
							"internalType": "bool",
							"name": "active",
							"type": "bool"
						},
						{
							"internalType": "bool",
							"name": "isSaved",
							"type": "bool"
						},
						{
							"internalType": "uint256",
							"name": "savedReward",
							"type": "uint256"
						},
						{
							"internalType": "bool",
							"name": "ownRate",
							"type": "bool"
						},
						{
							"internalType": "uint256",
							"name": "rate",
							"type": "uint256"
						}
					],
					"internalType": "struct GGWStake.Deposit",
					"name": "ret",
					"type": "tuple"
				}
			],
			"stateMutability": "view",
			"type": "function"
		},
		{
			"inputs": [
				{
					"internalType": "uint256",
					"name": "_offset",
					"type": "uint256"
				},
				{
					"internalType": "uint256",
					"name": "_limit",
					"type": "uint256"
				}
			],
			"name": "getDeposits",
			"outputs": [
				{
					"components": [
						{
							"internalType": "uint256",
							"name": "depositId",
							"type": "uint256"
						},
						{
							"internalType": "address",
							"name": "owner",
							"type": "address"
						},
						{
							"internalType": "uint256",
							"name": "amount",
							"type": "uint256"
						},
						{
							"internalType": "uint256",
							"name": "monthIndex",
							"type": "uint256"
						},
						{
							"internalType": "uint256",
							"name": "depositStart",
							"type": "uint256"
						},
						{
							"internalType": "uint256",
							"name": "depositClosed",
							"type": "uint256"
						},
						{
							"internalType": "uint256",
							"name": "unlockMonthIndex",
							"type": "uint256"
						},
						{
							"internalType": "uint256",
							"name": "lastAccruedMonthIdx",
							"type": "uint256"
						},
						{
							"internalType": "uint256",
							"name": "pendingReward",
							"type": "uint256"
						},
						{
							"internalType": "bool",
							"name": "active",
							"type": "bool"
						},
						{
							"internalType": "bool",
							"name": "isSaved",
							"type": "bool"
						},
						{
							"internalType": "uint256",
							"name": "savedReward",
							"type": "uint256"
						},
						{
							"internalType": "bool",
							"name": "ownRate",
							"type": "bool"
						},
						{
							"internalType": "uint256",
							"name": "rate",
							"type": "uint256"
						}
					],
					"internalType": "struct GGWStake.Deposit[]",
					"name": "ret",
					"type": "tuple[]"
				}
			],
			"stateMutability": "view",
			"type": "function"
		},
		{
			"inputs": [
				{
					"internalType": "uint256[]",
					"name": "depositsIds",
					"type": "uint256[]"
				}
			],
			"name": "getDepositsRewardEarned",
			"outputs": [
				{
					"components": [
						{
							"internalType": "uint256",
							"name": "depositId",
							"type": "uint256"
						},
						{
							"internalType": "uint256",
							"name": "earned",
							"type": "uint256"
						}
					],
					"internalType": "struct GGWStake.DepositRewardEarned[]",
					"name": "ret",
					"type": "tuple[]"
				}
			],
			"stateMutability": "view",
			"type": "function"
		},
		{
			"inputs": [
				{
					"internalType": "uint256",
					"name": "_offset",
					"type": "uint256"
				},
				{
					"internalType": "uint256",
					"name": "_limit",
					"type": "uint256"
				}
			],
			"name": "getMonths",
			"outputs": [
				{
					"components": [
						{
							"internalType": "uint256",
							"name": "monthId",
							"type": "uint256"
						},
						{
							"internalType": "uint256",
							"name": "start",
							"type": "uint256"
						},
						{
							"internalType": "uint256",
							"name": "end",
							"type": "uint256"
						},
						{
							"internalType": "uint256",
							"name": "rateBps",
							"type": "uint256"
						},
						{
							"internalType": "uint256",
							"name": "depositsCount",
							"type": "uint256"
						},
						{
							"internalType": "uint256",
							"name": "depositsAmount",
							"type": "uint256"
						},
						{
							"internalType": "uint256",
							"name": "rewardsAmount",
							"type": "uint256"
						}
					],
					"internalType": "struct GGWStake.MonthSummaryInfo[]",
					"name": "ret",
					"type": "tuple[]"
				}
			],
			"stateMutability": "view",
			"type": "function"
		},
		{
			"inputs": [],
			"name": "getMonthsCount",
			"outputs": [
				{
					"internalType": "uint256",
					"name": "",
					"type": "uint256"
				}
			],
			"stateMutability": "view",
			"type": "function"
		},
		{
			"inputs": [
				{
					"internalType": "uint256",
					"name": "depositId",
					"type": "uint256"
				}
			],
			"name": "getSavedReward",
			"outputs": [],
			"stateMutability": "nonpayable",
			"type": "function"
		},
		{
			"inputs": [],
			"name": "getSummaryInfo",
			"outputs": [
				{
					"components": [
						{
							"internalType": "uint256",
							"name": "usersCount",
							"type": "uint256"
						},
						{
							"internalType": "uint256",
							"name": "activeDepositsCount",
							"type": "uint256"
						},
						{
							"internalType": "uint256",
							"name": "depositsCount",
							"type": "uint256"
						},
						{
							"internalType": "uint256",
							"name": "depositsAmount",
							"type": "uint256"
						},
						{
							"internalType": "uint256",
							"name": "rewardsPayed",
							"type": "uint256"
						},
						{
							"internalType": "uint256",
							"name": "bankAmount",
							"type": "uint256"
						},
						{
							"internalType": "uint8",
							"name": "tokenDecimals",
							"type": "uint8"
						},
						{
							"internalType": "string",
							"name": "tokenName",
							"type": "string"
						},
						{
							"internalType": "string",
							"name": "tokenSymbol",
							"type": "string"
						},
						{
							"internalType": "address",
							"name": "tokenAddress",
							"type": "address"
						},
						{
							"internalType": "uint256",
							"name": "globalRateBps",
							"type": "uint256"
						},
						{
							"internalType": "uint256",
							"name": "minLockMonths",
							"type": "uint256"
						},
						{
							"internalType": "uint256",
							"name": "minLockAmount",
							"type": "uint256"
						},
						{
							"internalType": "uint256",
							"name": "estimateRequiredBankReserve",
							"type": "uint256"
						},
						{
							"internalType": "uint256",
							"name": "estimateRequiredBankReservePrecise",
							"type": "uint256"
						},
						{
							"internalType": "uint256",
							"name": "currentMonth",
							"type": "uint256"
						},
						{
							"internalType": "uint256",
							"name": "monthsCount",
							"type": "uint256"
						}
					],
					"internalType": "struct GGWStake.SummaryInfo",
					"name": "",
					"type": "tuple"
				}
			],
			"stateMutability": "view",
			"type": "function"
		},
		{
			"inputs": [],
			"name": "getTotalDeposits",
			"outputs": [
				{
					"internalType": "uint256",
					"name": "",
					"type": "uint256"
				}
			],
			"stateMutability": "view",
			"type": "function"
		},
		{
			"inputs": [],
			"name": "getTotalUsers",
			"outputs": [
				{
					"internalType": "uint256",
					"name": "",
					"type": "uint256"
				}
			],
			"stateMutability": "view",
			"type": "function"
		},
		{
			"inputs": [
				{
					"internalType": "address",
					"name": "user",
					"type": "address"
				},
				{
					"internalType": "uint256",
					"name": "_offset",
					"type": "uint256"
				},
				{
					"internalType": "uint256",
					"name": "_limit",
					"type": "uint256"
				}
			],
			"name": "getUserDeposits",
			"outputs": [
				{
					"components": [
						{
							"internalType": "uint256",
							"name": "depositId",
							"type": "uint256"
						},
						{
							"internalType": "address",
							"name": "owner",
							"type": "address"
						},
						{
							"internalType": "uint256",
							"name": "amount",
							"type": "uint256"
						},
						{
							"internalType": "uint256",
							"name": "monthIndex",
							"type": "uint256"
						},
						{
							"internalType": "uint256",
							"name": "depositStart",
							"type": "uint256"
						},
						{
							"internalType": "uint256",
							"name": "depositClosed",
							"type": "uint256"
						},
						{
							"internalType": "uint256",
							"name": "unlockMonthIndex",
							"type": "uint256"
						},
						{
							"internalType": "uint256",
							"name": "lastAccruedMonthIdx",
							"type": "uint256"
						},
						{
							"internalType": "uint256",
							"name": "pendingReward",
							"type": "uint256"
						},
						{
							"internalType": "bool",
							"name": "active",
							"type": "bool"
						},
						{
							"internalType": "bool",
							"name": "isSaved",
							"type": "bool"
						},
						{
							"internalType": "uint256",
							"name": "savedReward",
							"type": "uint256"
						},
						{
							"internalType": "bool",
							"name": "ownRate",
							"type": "bool"
						},
						{
							"internalType": "uint256",
							"name": "rate",
							"type": "uint256"
						}
					],
					"internalType": "struct GGWStake.Deposit[]",
					"name": "ret",
					"type": "tuple[]"
				}
			],
			"stateMutability": "view",
			"type": "function"
		},
		{
			"inputs": [
				{
					"internalType": "address",
					"name": "user",
					"type": "address"
				}
			],
			"name": "getUserDepositsCount",
			"outputs": [
				{
					"internalType": "uint256",
					"name": "",
					"type": "uint256"
				}
			],
			"stateMutability": "view",
			"type": "function"
		},
		{
			"inputs": [
				{
					"internalType": "address",
					"name": "user",
					"type": "address"
				}
			],
			"name": "getUserDepositsIds",
			"outputs": [
				{
					"internalType": "uint256[]",
					"name": "",
					"type": "uint256[]"
				}
			],
			"stateMutability": "view",
			"type": "function"
		},
		{
			"inputs": [
				{
					"internalType": "uint256",
					"name": "_offset",
					"type": "uint256"
				},
				{
					"internalType": "uint256",
					"name": "_limit",
					"type": "uint256"
				}
			],
			"name": "getUsers",
			"outputs": [
				{
					"internalType": "address[]",
					"name": "ret",
					"type": "address[]"
				}
			],
			"stateMutability": "view",
			"type": "function"
		},
		{
			"inputs": [],
			"name": "getUsersCount",
			"outputs": [
				{
					"internalType": "uint256",
					"name": "",
					"type": "uint256"
				}
			],
			"stateMutability": "view",
			"type": "function"
		},
		{
			"inputs": [],
			"name": "globalRateBps",
			"outputs": [
				{
					"internalType": "uint256",
					"name": "",
					"type": "uint256"
				}
			],
			"stateMutability": "view",
			"type": "function"
		},
		{
			"inputs": [
				{
					"internalType": "address",
					"name": "",
					"type": "address"
				}
			],
			"name": "isUser",
			"outputs": [
				{
					"internalType": "bool",
					"name": "",
					"type": "bool"
				}
			],
			"stateMutability": "view",
			"type": "function"
		},
		{
			"inputs": [],
			"name": "lastKnownMonthIndex",
			"outputs": [
				{
					"internalType": "uint256",
					"name": "",
					"type": "uint256"
				}
			],
			"stateMutability": "view",
			"type": "function"
		},
		{
			"inputs": [],
			"name": "minLockAmount",
			"outputs": [
				{
					"internalType": "uint256",
					"name": "",
					"type": "uint256"
				}
			],
			"stateMutability": "view",
			"type": "function"
		},
		{
			"inputs": [],
			"name": "minLockMonths",
			"outputs": [
				{
					"internalType": "uint256",
					"name": "",
					"type": "uint256"
				}
			],
			"stateMutability": "view",
			"type": "function"
		},
		{
			"inputs": [
				{
					"internalType": "uint256",
					"name": "",
					"type": "uint256"
				}
			],
			"name": "monthDepositsAmount",
			"outputs": [
				{
					"internalType": "uint256",
					"name": "",
					"type": "uint256"
				}
			],
			"stateMutability": "view",
			"type": "function"
		},
		{
			"inputs": [
				{
					"internalType": "uint256",
					"name": "",
					"type": "uint256"
				}
			],
			"name": "monthDepositsCount",
			"outputs": [
				{
					"internalType": "uint256",
					"name": "",
					"type": "uint256"
				}
			],
			"stateMutability": "view",
			"type": "function"
		},
		{
			"inputs": [
				{
					"internalType": "uint256",
					"name": "",
					"type": "uint256"
				}
			],
			"name": "monthRewardsAmount",
			"outputs": [
				{
					"internalType": "uint256",
					"name": "",
					"type": "uint256"
				}
			],
			"stateMutability": "view",
			"type": "function"
		},
		{
			"inputs": [
				{
					"internalType": "uint256",
					"name": "",
					"type": "uint256"
				}
			],
			"name": "months",
			"outputs": [
				{
					"internalType": "uint256",
					"name": "start",
					"type": "uint256"
				},
				{
					"internalType": "uint256",
					"name": "end",
					"type": "uint256"
				},
				{
					"internalType": "uint256",
					"name": "rateBps",
					"type": "uint256"
				}
			],
			"stateMutability": "view",
			"type": "function"
		},
		{
			"inputs": [],
			"name": "oracle",
			"outputs": [
				{
					"internalType": "address",
					"name": "",
					"type": "address"
				}
			],
			"stateMutability": "view",
			"type": "function"
		},
		{
			"inputs": [],
			"name": "owner",
			"outputs": [
				{
					"internalType": "address",
					"name": "",
					"type": "address"
				}
			],
			"stateMutability": "view",
			"type": "function"
		},
		{
			"inputs": [
				{
					"internalType": "address",
					"name": "token",
					"type": "address"
				},
				{
					"internalType": "uint256",
					"name": "amount",
					"type": "uint256"
				}
			],
			"name": "recoverToken",
			"outputs": [],
			"stateMutability": "nonpayable",
			"type": "function"
		},
		{
			"inputs": [],
			"name": "rewardsPayed",
			"outputs": [
				{
					"internalType": "uint256",
					"name": "",
					"type": "uint256"
				}
			],
			"stateMutability": "view",
			"type": "function"
		},
		{
			"inputs": [
				{
					"internalType": "uint256",
					"name": "depositId",
					"type": "uint256"
				}
			],
			"name": "safeDeposit",
			"outputs": [],
			"stateMutability": "nonpayable",
			"type": "function"
		},
		{
			"inputs": [
				{
					"internalType": "uint256",
					"name": "_rateBps",
					"type": "uint256"
				}
			],
			"name": "setGlobalRateBps",
			"outputs": [],
			"stateMutability": "nonpayable",
			"type": "function"
		},
		{
			"inputs": [
				{
					"internalType": "uint256",
					"name": "newMinLockAmount",
					"type": "uint256"
				}
			],
			"name": "setMinLockAmount",
			"outputs": [],
			"stateMutability": "nonpayable",
			"type": "function"
		},
		{
			"inputs": [
				{
					"internalType": "uint256",
					"name": "newMinLockMonths",
					"type": "uint256"
				}
			],
			"name": "setMinLockMonths",
			"outputs": [],
			"stateMutability": "nonpayable",
			"type": "function"
		},
		{
			"inputs": [
				{
					"internalType": "address",
					"name": "newOracle",
					"type": "address"
				}
			],
			"name": "setOracle",
			"outputs": [],
			"stateMutability": "nonpayable",
			"type": "function"
		},
		{
			"inputs": [],
			"name": "stakingToken",
			"outputs": [
				{
					"internalType": "contract IERC20",
					"name": "",
					"type": "address"
				}
			],
			"stateMutability": "view",
			"type": "function"
		},
		{
			"inputs": [
				{
					"internalType": "address",
					"name": "newOwner",
					"type": "address"
				}
			],
			"name": "transferOwnership",
			"outputs": [],
			"stateMutability": "nonpayable",
			"type": "function"
		},
		{
			"inputs": [
				{
					"internalType": "address",
					"name": "",
					"type": "address"
				},
				{
					"internalType": "uint256",
					"name": "",
					"type": "uint256"
				}
			],
			"name": "userDeposits",
			"outputs": [
				{
					"internalType": "uint256",
					"name": "",
					"type": "uint256"
				}
			],
			"stateMutability": "view",
			"type": "function"
		},
		{
			"inputs": [
				{
					"internalType": "uint256",
					"name": "amount",
					"type": "uint256"
				}
			],
			"name": "withdrawBank",
			"outputs": [],
			"stateMutability": "nonpayable",
			"type": "function"
		},
		{
			"inputs": [
				{
					"internalType": "uint256",
					"name": "depositId",
					"type": "uint256"
				}
			],
			"name": "withdrawPrincipalAndRewards",
			"outputs": [],
			"stateMutability": "nonpayable",
			"type": "function"
		},
		{
			"inputs": [
				{
					"internalType": "uint256",
					"name": "depositId",
					"type": "uint256"
				}
			],
			"name": "withdrawRewardsOnly",
			"outputs": [],
			"stateMutability": "nonpayable",
			"type": "function"
		}
	]
}